{
  "contractName": "DAOProxy",
  "abi": [
    {
      "inputs": [
        {
          "internalType": "address",
          "name": "_sfldAddress",
          "type": "address"
        }
      ],
      "stateMutability": "nonpayable",
      "type": "constructor"
    },
    {
      "anonymous": false,
      "inputs": [
        {
          "indexed": true,
          "internalType": "bytes32",
          "name": "role",
          "type": "bytes32"
        },
        {
          "indexed": true,
          "internalType": "bytes32",
          "name": "previousAdminRole",
          "type": "bytes32"
        },
        {
          "indexed": true,
          "internalType": "bytes32",
          "name": "newAdminRole",
          "type": "bytes32"
        }
      ],
      "name": "RoleAdminChanged",
      "type": "event"
    },
    {
      "anonymous": false,
      "inputs": [
        {
          "indexed": true,
          "internalType": "bytes32",
          "name": "role",
          "type": "bytes32"
        },
        {
          "indexed": true,
          "internalType": "address",
          "name": "account",
          "type": "address"
        },
        {
          "indexed": true,
          "internalType": "address",
          "name": "sender",
          "type": "address"
        }
      ],
      "name": "RoleGranted",
      "type": "event"
    },
    {
      "anonymous": false,
      "inputs": [
        {
          "indexed": true,
          "internalType": "bytes32",
          "name": "role",
          "type": "bytes32"
        },
        {
          "indexed": true,
          "internalType": "address",
          "name": "account",
          "type": "address"
        },
        {
          "indexed": true,
          "internalType": "address",
          "name": "sender",
          "type": "address"
        }
      ],
      "name": "RoleRevoked",
      "type": "event"
    },
    {
      "anonymous": false,
      "inputs": [
        {
          "indexed": true,
          "internalType": "address",
          "name": "implementation",
          "type": "address"
        }
      ],
      "name": "Upgraded",
      "type": "event"
    },
    {
      "stateMutability": "payable",
      "type": "fallback"
    },
    {
      "inputs": [],
      "name": "ADMIN_ROLE",
      "outputs": [
        {
          "internalType": "bytes32",
          "name": "",
          "type": "bytes32"
        }
      ],
      "stateMutability": "view",
      "type": "function"
    },
    {
      "inputs": [],
      "name": "DEFAULT_ADMIN_ROLE",
      "outputs": [
        {
          "internalType": "bytes32",
          "name": "",
          "type": "bytes32"
        }
      ],
      "stateMutability": "view",
      "type": "function"
    },
    {
      "inputs": [],
      "name": "VOTING_DEADLINE_PERIOD",
      "outputs": [
        {
          "internalType": "uint256",
          "name": "",
          "type": "uint256"
        }
      ],
      "stateMutability": "view",
      "type": "function"
    },
    {
      "inputs": [],
      "name": "agendaIDCounter",
      "outputs": [
        {
          "internalType": "uint256",
          "name": "",
          "type": "uint256"
        }
      ],
      "stateMutability": "view",
      "type": "function"
    },
    {
      "inputs": [
        {
          "internalType": "uint256",
          "name": "",
          "type": "uint256"
        }
      ],
      "name": "agendas",
      "outputs": [
        {
          "internalType": "bool",
          "name": "exists",
          "type": "bool"
        },
        {
          "internalType": "uint256",
          "name": "votingDeadline",
          "type": "uint256"
        },
        {
          "internalType": "bool",
          "name": "open",
          "type": "bool"
        },
        {
          "internalType": "bytes32",
          "name": "agendaHash",
          "type": "bytes32"
        },
        {
          "internalType": "bool",
          "name": "passed",
          "type": "bool"
        },
        {
          "internalType": "address payable",
          "name": "recipient",
          "type": "address"
        },
        {
          "internalType": "uint256",
          "name": "yesVotesCount",
          "type": "uint256"
        },
        {
          "internalType": "uint256",
          "name": "noVotesCount",
          "type": "uint256"
        }
      ],
      "stateMutability": "view",
      "type": "function"
    },
    {
      "inputs": [
        {
          "internalType": "bytes32",
          "name": "role",
          "type": "bytes32"
        }
      ],
      "name": "getRoleAdmin",
      "outputs": [
        {
          "internalType": "bytes32",
          "name": "",
          "type": "bytes32"
        }
      ],
      "stateMutability": "view",
      "type": "function"
    },
    {
      "inputs": [
        {
          "internalType": "bytes32",
          "name": "role",
          "type": "bytes32"
        },
        {
          "internalType": "uint256",
          "name": "index",
          "type": "uint256"
        }
      ],
      "name": "getRoleMember",
      "outputs": [
        {
          "internalType": "address",
          "name": "",
          "type": "address"
        }
      ],
      "stateMutability": "view",
      "type": "function"
    },
    {
      "inputs": [
        {
          "internalType": "bytes32",
          "name": "role",
          "type": "bytes32"
        }
      ],
      "name": "getRoleMemberCount",
      "outputs": [
        {
          "internalType": "uint256",
          "name": "",
          "type": "uint256"
        }
      ],
      "stateMutability": "view",
      "type": "function"
    },
    {
      "inputs": [
        {
          "internalType": "bytes32",
          "name": "role",
          "type": "bytes32"
        },
        {
          "internalType": "address",
          "name": "account",
          "type": "address"
        }
      ],
      "name": "grantRole",
      "outputs": [],
      "stateMutability": "nonpayable",
      "type": "function"
    },
    {
      "inputs": [
        {
          "internalType": "bytes32",
          "name": "role",
          "type": "bytes32"
        },
        {
          "internalType": "address",
          "name": "account",
          "type": "address"
        }
      ],
      "name": "hasRole",
      "outputs": [
        {
          "internalType": "bool",
          "name": "",
          "type": "bool"
        }
      ],
      "stateMutability": "view",
      "type": "function"
    },
    {
      "inputs": [],
      "name": "pauseProxy",
      "outputs": [
        {
          "internalType": "bool",
          "name": "",
          "type": "bool"
        }
      ],
      "stateMutability": "view",
      "type": "function"
    },
    {
      "inputs": [
        {
          "internalType": "bytes32",
          "name": "role",
          "type": "bytes32"
        },
        {
          "internalType": "address",
          "name": "account",
          "type": "address"
        }
      ],
      "name": "renounceRole",
      "outputs": [],
      "stateMutability": "nonpayable",
      "type": "function"
    },
    {
      "inputs": [
        {
          "internalType": "bytes32",
          "name": "role",
          "type": "bytes32"
        },
        {
          "internalType": "address",
          "name": "account",
          "type": "address"
        }
      ],
      "name": "revokeRole",
      "outputs": [],
      "stateMutability": "nonpayable",
      "type": "function"
    },
    {
      "stateMutability": "payable",
      "type": "receive"
    },
    {
      "inputs": [
        {
          "internalType": "bool",
          "name": "_pause",
          "type": "bool"
        }
      ],
      "name": "setProxyPause",
      "outputs": [],
      "stateMutability": "nonpayable",
      "type": "function"
    },
    {
      "inputs": [
        {
          "internalType": "address",
          "name": "impl",
          "type": "address"
        }
      ],
      "name": "upgradeTo",
      "outputs": [],
      "stateMutability": "nonpayable",
      "type": "function"
    },
    {
      "inputs": [],
      "name": "implementation",
      "outputs": [
        {
          "internalType": "address",
          "name": "",
          "type": "address"
        }
      ],
      "stateMutability": "view",
      "type": "function"
    }
  ],
  "bytecode": "0x6080604052621275006000553480156200001857600080fd5b5060405162000f1a38038062000f1a833981810160405260208110156200003e57600080fd5b5051600380546001600160a01b0319166001600160a01b038316179055600180556200007a60008051602062000efa83398151915280620000b7565b6200009560008051602062000efa8339815191523362000109565b620000b060008051602062000efa8339815191523062000109565b506200021f565b600082815260046020526040808220600201549051839285917fbd79b86ffe0ab8e8776151514217cd7cacd52c909f66475c3af44e129f0b00ff9190a460009182526004602052604090912060020155565b62000115828262000119565b5050565b600082815260046020908152604090912062000140918390620008a762000194821b17901c565b15620001155762000150620001b4565b6001600160a01b0316816001600160a01b0316837f2f8788117e7eff1d82e926ec794901d17c78024a50270940304540a733656f0d60405160405180910390a45050565b6000620001ab836001600160a01b038416620001b8565b90505b92915050565b3390565b6000620001c6838362000207565b620001fe57508154600181810184556000848152602080822090930184905584548482528286019093526040902091909155620001ae565b506000620001ae565b60009081526001919091016020526040902054151590565b610ccb806200022f6000396000f3fe6080604052600436106100f75760003560e01c806375b238fc1161008a578063a217fddf11610059578063a217fddf1461037e578063aeebf0be14610393578063ca15c873146103a8578063d547741f146103d257610106565b806375b238fc146102d45780637cb00d25146102e95780639010d07c1461031557806391d148541461034557610106565b80633c4a819c116100c65780633c4a819c146101ef578063431f6d1c146102655780635c60da1b1461027a57806363a8fd89146102ab57610106565b8063248a9ca31461010e5780632f2ff15d1461014a57806336568abe146101835780633659cfe6146101bc57610106565b366101065761010461040b565b005b61010461040b565b34801561011a57600080fd5b506101386004803603602081101561013157600080fd5b5035610498565b60408051918252519081900360200190f35b34801561015657600080fd5b506101046004803603604081101561016d57600080fd5b50803590602001356001600160a01b03166104ad565b34801561018f57600080fd5b50610104600480360360408110156101a657600080fd5b50803590602001356001600160a01b0316610519565b3480156101c857600080fd5b50610104600480360360208110156101df57600080fd5b50356001600160a01b031661057a565b3480156101fb57600080fd5b506102196004803603602081101561021257600080fd5b50356106d1565b604080519815158952602089019790975294151587870152606087019390935290151560808601526001600160a01b031660a085015260c084015260e083015251908190036101000190f35b34801561027157600080fd5b50610138610727565b34801561028657600080fd5b5061028f61072d565b604080516001600160a01b039092168252519081900360200190f35b3480156102b757600080fd5b506102c061073c565b604080519115158252519081900360200190f35b3480156102e057600080fd5b5061013861074c565b3480156102f557600080fd5b506101046004803603602081101561030c57600080fd5b50351515610770565b34801561032157600080fd5b5061028f6004803603604081101561033857600080fd5b50803590602001356107f3565b34801561035157600080fd5b506102c06004803603604081101561036857600080fd5b50803590602001356001600160a01b0316610814565b34801561038a57600080fd5b5061013861082c565b34801561039f57600080fd5b50610138610831565b3480156103b457600080fd5b50610138600480360360208110156103cb57600080fd5b5035610837565b3480156103de57600080fd5b50610104600480360360408110156103f557600080fd5b50803590602001356001600160a01b031661084e565b600061041561072d565b90506001600160a01b038116158015906104395750600554600160a01b900460ff16155b6104745760405162461bcd60e51b815260040180806020018281038252602b815260200180610c09602b913960400191505060405180910390fd5b3660008037600080366000845af43d6000803e808015610493573d6000f35b3d6000fd5b60009081526004602052604090206002015490565b6000828152600460205260409020600201546104d0906104cb6108bc565b610814565b61050b5760405162461bcd60e51b815260040180806020018281038252602f815260200180610b86602f913960400191505060405180910390fd5b61051582826108c0565b5050565b6105216108bc565b6001600160a01b0316816001600160a01b0316146105705760405162461bcd60e51b815260040180806020018281038252602f815260200180610c67602f913960400191505060405180910390fd5b6105158282610929565b6105a47fdf8b4c520ffe197c5343c6f5aec59570151ef9a492f2c624fd45ddde6135ec4233610814565b6105df5760405162461bcd60e51b8152600401808060200182810382526024815260200180610be56024913960400191505060405180910390fd5b6001600160a01b03811661063a576040805162461bcd60e51b815260206004820152601a60248201527f5374616b653150726f78793a20696e707574206973207a65726f000000000000604482015290519081900360640190fd5b6005546001600160a01b03828116911614156106875760405162461bcd60e51b8152600401808060200182810382526033815260200180610c346033913960400191505060405180910390fd5b600580546001600160a01b0319166001600160a01b0383169081179091556040517fbc7cd75a20ee27fd9adebab32041f755214dbc6bffa90cc0225b39da2e5c2d3b90600090a250565b6002602081905260009182526040909120805460018201549282015460038301546004840154600585015460069095015460ff9485169695938516949293928216926101009092046001600160a01b0316919088565b60005481565b6005546001600160a01b031690565b600554600160a01b900460ff1681565b7fdf8b4c520ffe197c5343c6f5aec59570151ef9a492f2c624fd45ddde6135ec4281565b61079a7fdf8b4c520ffe197c5343c6f5aec59570151ef9a492f2c624fd45ddde6135ec4233610814565b6107d55760405162461bcd60e51b8152600401808060200182810382526024815260200180610be56024913960400191505060405180910390fd5b60058054911515600160a01b0260ff60a01b19909216919091179055565b600082815260046020526040812061080b9083610992565b90505b92915050565b600082815260046020526040812061080b908361099e565b600081565b60015481565b600081815260046020526040812061080e906109b3565b60008281526004602052604090206002015461086c906104cb6108bc565b6105705760405162461bcd60e51b8152600401808060200182810382526030815260200180610bb56030913960400191505060405180910390fd5b600061080b836001600160a01b0384166109be565b3390565b60008281526004602052604090206108d890826108a7565b15610515576108e56108bc565b6001600160a01b0316816001600160a01b0316837f2f8788117e7eff1d82e926ec794901d17c78024a50270940304540a733656f0d60405160405180910390a45050565b60008281526004602052604090206109419082610a08565b156105155761094e6108bc565b6001600160a01b0316816001600160a01b0316837ff6391f5c32d9c69d2a47ea670b442974b53935d1edc7fd64eb21e047a839171b60405160405180910390a45050565b600061080b8383610a1d565b600061080b836001600160a01b038416610a81565b600061080e82610a99565b60006109ca8383610a81565b610a005750815460018181018455600084815260208082209093018490558454848252828601909352604090209190915561080e565b50600061080e565b600061080b836001600160a01b038416610a9d565b81546000908210610a5f5760405162461bcd60e51b8152600401808060200182810382526022815260200180610b646022913960400191505060405180910390fd5b826000018281548110610a6e57fe5b9060005260206000200154905092915050565b60009081526001919091016020526040902054151590565b5490565b60008181526001830160205260408120548015610b595783546000198083019190810190600090879083908110610ad057fe5b9060005260206000200154905080876000018481548110610aed57fe5b600091825260208083209091019290925582815260018981019092526040902090840190558654879080610b1d57fe5b6001900381819060005260206000200160009055905586600101600087815260200190815260200160002060009055600194505050505061080e565b600091505061080e56fe456e756d657261626c655365743a20696e646578206f7574206f6620626f756e6473416363657373436f6e74726f6c3a2073656e646572206d75737420626520616e2061646d696e20746f206772616e74416363657373436f6e74726f6c3a2073656e646572206d75737420626520616e2061646d696e20746f207265766f6b6544414f50726f78793a206d73672e73656e646572206973206e6f7420616e2061646d696e5374616b653150726f78793a20696d706c206973207a65726f204f522070726f78792069732066616c73655374616b653150726f78793a2054686520696e70757420616464726573732069732073616d6520617320746865207374617465416363657373436f6e74726f6c3a2063616e206f6e6c792072656e6f756e636520726f6c657320666f722073656c66a26469706673582212208fdc247c6c9dc88bd5bb618060b0cb4fd5c3ef600b602ea5b9e84009babee98264736f6c63430007060033df8b4c520ffe197c5343c6f5aec59570151ef9a492f2c624fd45ddde6135ec42",
  "immutableReferences": {},
  "source": "// SPDX-License-Identifier: MIT\npragma solidity ^0.7.6;\n\nimport \"@openzeppelin/contracts/access/AccessControl.sol\";\n\nimport \"./DAOProxyStorage.sol\";\n\n/// @title Proxy for DAO contracts\n/// @notice\ncontract DAOProxy is DAOProxyStorage, AccessControl {\n    bytes32 public constant ADMIN_ROLE = keccak256(\"ADMIN\");\n    address internal _implementation;\n    bool public pauseProxy;\n\n    event Upgraded(address indexed implementation);\n\n    modifier onlyOwner() {\n        require(\n            hasRole(ADMIN_ROLE, msg.sender),\n            \"DAOProxy: msg.sender is not an admin\"\n        );\n        _;\n    }\n\n    constructor(address _sfldAddress) {\n        sfld = ISFLD(_sfldAddress);\n        agendaIDCounter = 1;\n\n        _setRoleAdmin(ADMIN_ROLE, ADMIN_ROLE);\n        _setupRole(ADMIN_ROLE, msg.sender);\n        _setupRole(ADMIN_ROLE, address(this));\n    }\n\n    /// @notice Set pause state\n    /// @param _pause true:pause or false:resume\n    function setProxyPause(bool _pause) external onlyOwner {\n        pauseProxy = _pause;\n    }\n\n    /// @notice Set implementation contract\n    /// @param impl New implementation contract address\n    function upgradeTo(address impl) external onlyOwner {\n        require(impl != address(0), \"Stake1Proxy: input is zero\");\n        require(\n            _implementation != impl,\n            \"Stake1Proxy: The input address is same as the state\"\n        );\n        _implementation = impl;\n        emit Upgraded(impl);\n    }\n\n    /// @dev returns the implementation\n    function implementation() public view returns (address) {\n        return _implementation;\n    }\n\n    receive() external payable {\n        _fallback();\n    }\n\n    fallback() external payable {\n        _fallback();\n    }\n\n    function _fallback() internal {\n        address _impl = implementation();\n        require(\n            _impl != address(0) && !pauseProxy,\n            \"Stake1Proxy: impl is zero OR proxy is false\"\n        );\n\n        assembly {\n            // Copy msg.data. We take full control of memory in this inline assembly\n            // block because it will not return to Solidity code. We overwrite the\n            // Solidity scratch pad at memory position 0.\n            calldatacopy(0, 0, calldatasize())\n\n            // Call the implementation.\n            // out and outsize are 0 because we don't know the size yet.\n            let result := delegatecall(gas(), _impl, 0, calldatasize(), 0, 0)\n\n            // Copy the returned data.\n            returndatacopy(0, 0, returndatasize())\n\n            switch result\n                // delegatecall returns 0 on error.\n                case 0 {\n                    revert(0, returndatasize())\n                }\n                default {\n                    return(0, returndatasize())\n                }\n        }\n    }\n}\n",
  "sourcePath": "/Users/zena/ico2.0/ico20-contracts/contracts/dao/DAOProxy.sol",
  "compiler": {
    "name": "solc",
    "version": "0.7.6+commit.7338295f.Emscripten.clang"
  },
  "schemaVersion": "3.3.4",
  "updatedAt": "2021-05-14T01:45:59.625Z",
  "devdoc": {
    "kind": "dev",
    "methods": {
      "getRoleAdmin(bytes32)": {
        "details": "Returns the admin role that controls `role`. See {grantRole} and {revokeRole}. To change a role's admin, use {_setRoleAdmin}."
      },
      "getRoleMember(bytes32,uint256)": {
        "details": "Returns one of the accounts that have `role`. `index` must be a value between 0 and {getRoleMemberCount}, non-inclusive. Role bearers are not sorted in any particular way, and their ordering may change at any point. WARNING: When using {getRoleMember} and {getRoleMemberCount}, make sure you perform all queries on the same block. See the following https://forum.openzeppelin.com/t/iterating-over-elements-on-enumerableset-in-openzeppelin-contracts/2296[forum post] for more information."
      },
      "getRoleMemberCount(bytes32)": {
        "details": "Returns the number of accounts that have `role`. Can be used together with {getRoleMember} to enumerate all bearers of a role."
      },
      "grantRole(bytes32,address)": {
        "details": "Grants `role` to `account`. If `account` had not been already granted `role`, emits a {RoleGranted} event. Requirements: - the caller must have ``role``'s admin role."
      },
      "hasRole(bytes32,address)": {
        "details": "Returns `true` if `account` has been granted `role`."
      },
      "implementation()": {
        "details": "returns the implementation"
      },
      "renounceRole(bytes32,address)": {
        "details": "Revokes `role` from the calling account. Roles are often managed via {grantRole} and {revokeRole}: this function's purpose is to provide a mechanism for accounts to lose their privileges if they are compromised (such as when a trusted device is misplaced). If the calling account had been granted `role`, emits a {RoleRevoked} event. Requirements: - the caller must be `account`."
      },
      "revokeRole(bytes32,address)": {
        "details": "Revokes `role` from `account`. If `account` had been granted `role`, emits a {RoleRevoked} event. Requirements: - the caller must have ``role``'s admin role."
      },
      "setProxyPause(bool)": {
        "params": {
          "_pause": "true:pause or false:resume"
        }
      },
      "upgradeTo(address)": {
        "params": {
          "impl": "New implementation contract address"
        }
      }
    },
    "title": "Proxy for DAO contracts",
    "version": 1
  },
  "userdoc": {
    "kind": "user",
    "methods": {
      "setProxyPause(bool)": {
        "notice": "Set pause state"
      },
      "upgradeTo(address)": {
        "notice": "Set implementation contract"
      }
    },
    "version": 1
  }
}