{
  "_format": "hh-sol-artifact-1",
  "contractName": "TypeBVaultFactory",
  "sourceName": "contracts/TypeBVaultFactory.sol",
  "abi": [
    {
      "anonymous": false,
      "inputs": [
        {
          "indexed": false,
          "internalType": "address",
          "name": "contractAddress",
          "type": "address"
        },
        {
          "indexed": false,
          "internalType": "string",
          "name": "name",
          "type": "string"
        }
      ],
      "name": "CreatedTypeBVault",
      "type": "event"
    },
    {
      "anonymous": false,
      "inputs": [
        {
          "indexed": true,
          "internalType": "bytes32",
          "name": "role",
          "type": "bytes32"
        },
        {
          "indexed": true,
          "internalType": "bytes32",
          "name": "previousAdminRole",
          "type": "bytes32"
        },
        {
          "indexed": true,
          "internalType": "bytes32",
          "name": "newAdminRole",
          "type": "bytes32"
        }
      ],
      "name": "RoleAdminChanged",
      "type": "event"
    },
    {
      "anonymous": false,
      "inputs": [
        {
          "indexed": true,
          "internalType": "bytes32",
          "name": "role",
          "type": "bytes32"
        },
        {
          "indexed": true,
          "internalType": "address",
          "name": "account",
          "type": "address"
        },
        {
          "indexed": true,
          "internalType": "address",
          "name": "sender",
          "type": "address"
        }
      ],
      "name": "RoleGranted",
      "type": "event"
    },
    {
      "anonymous": false,
      "inputs": [
        {
          "indexed": true,
          "internalType": "bytes32",
          "name": "role",
          "type": "bytes32"
        },
        {
          "indexed": true,
          "internalType": "address",
          "name": "account",
          "type": "address"
        },
        {
          "indexed": true,
          "internalType": "address",
          "name": "sender",
          "type": "address"
        }
      ],
      "name": "RoleRevoked",
      "type": "event"
    },
    {
      "inputs": [],
      "name": "ADMIN_ROLE",
      "outputs": [
        {
          "internalType": "bytes32",
          "name": "",
          "type": "bytes32"
        }
      ],
      "stateMutability": "view",
      "type": "function"
    },
    {
      "inputs": [],
      "name": "BURNER_ROLE",
      "outputs": [
        {
          "internalType": "bytes32",
          "name": "",
          "type": "bytes32"
        }
      ],
      "stateMutability": "view",
      "type": "function"
    },
    {
      "inputs": [],
      "name": "CLAIMER_ROLE",
      "outputs": [
        {
          "internalType": "bytes32",
          "name": "",
          "type": "bytes32"
        }
      ],
      "stateMutability": "view",
      "type": "function"
    },
    {
      "inputs": [],
      "name": "DEFAULT_ADMIN_ROLE",
      "outputs": [
        {
          "internalType": "bytes32",
          "name": "",
          "type": "bytes32"
        }
      ],
      "stateMutability": "view",
      "type": "function"
    },
    {
      "inputs": [],
      "name": "MINTER_ROLE",
      "outputs": [
        {
          "internalType": "bytes32",
          "name": "",
          "type": "bytes32"
        }
      ],
      "stateMutability": "view",
      "type": "function"
    },
    {
      "inputs": [
        {
          "internalType": "address",
          "name": "account",
          "type": "address"
        }
      ],
      "name": "addAdmin",
      "outputs": [],
      "stateMutability": "nonpayable",
      "type": "function"
    },
    {
      "inputs": [
        {
          "internalType": "string",
          "name": "_name",
          "type": "string"
        },
        {
          "internalType": "address",
          "name": "_token",
          "type": "address"
        },
        {
          "internalType": "address",
          "name": "_owner",
          "type": "address"
        }
      ],
      "name": "createTypeB",
      "outputs": [
        {
          "internalType": "address",
          "name": "",
          "type": "address"
        }
      ],
      "stateMutability": "nonpayable",
      "type": "function"
    },
    {
      "inputs": [
        {
          "internalType": "uint256",
          "name": "",
          "type": "uint256"
        }
      ],
      "name": "createdContracts",
      "outputs": [
        {
          "internalType": "address",
          "name": "contractAddress",
          "type": "address"
        },
        {
          "internalType": "string",
          "name": "name",
          "type": "string"
        }
      ],
      "stateMutability": "view",
      "type": "function"
    },
    {
      "inputs": [
        {
          "internalType": "uint256",
          "name": "_index",
          "type": "uint256"
        }
      ],
      "name": "getContracts",
      "outputs": [
        {
          "internalType": "address",
          "name": "contractAddress",
          "type": "address"
        },
        {
          "internalType": "string",
          "name": "name",
          "type": "string"
        }
      ],
      "stateMutability": "view",
      "type": "function"
    },
    {
      "inputs": [
        {
          "internalType": "bytes32",
          "name": "role",
          "type": "bytes32"
        }
      ],
      "name": "getRoleAdmin",
      "outputs": [
        {
          "internalType": "bytes32",
          "name": "",
          "type": "bytes32"
        }
      ],
      "stateMutability": "view",
      "type": "function"
    },
    {
      "inputs": [
        {
          "internalType": "bytes32",
          "name": "role",
          "type": "bytes32"
        },
        {
          "internalType": "address",
          "name": "account",
          "type": "address"
        }
      ],
      "name": "grantRole",
      "outputs": [],
      "stateMutability": "nonpayable",
      "type": "function"
    },
    {
      "inputs": [
        {
          "internalType": "bytes32",
          "name": "role",
          "type": "bytes32"
        },
        {
          "internalType": "address",
          "name": "account",
          "type": "address"
        }
      ],
      "name": "hasRole",
      "outputs": [
        {
          "internalType": "bool",
          "name": "",
          "type": "bool"
        }
      ],
      "stateMutability": "view",
      "type": "function"
    },
    {
      "inputs": [
        {
          "internalType": "address",
          "name": "account",
          "type": "address"
        }
      ],
      "name": "isAdmin",
      "outputs": [
        {
          "internalType": "bool",
          "name": "",
          "type": "bool"
        }
      ],
      "stateMutability": "view",
      "type": "function"
    },
    {
      "inputs": [],
      "name": "lastestCreated",
      "outputs": [
        {
          "internalType": "address",
          "name": "contractAddress",
          "type": "address"
        },
        {
          "internalType": "string",
          "name": "name",
          "type": "string"
        }
      ],
      "stateMutability": "view",
      "type": "function"
    },
    {
      "inputs": [],
      "name": "logEventAddress",
      "outputs": [
        {
          "internalType": "address",
          "name": "",
          "type": "address"
        }
      ],
      "stateMutability": "view",
      "type": "function"
    },
    {
      "inputs": [
        {
          "internalType": "address",
          "name": "account",
          "type": "address"
        }
      ],
      "name": "removeAdmin",
      "outputs": [],
      "stateMutability": "nonpayable",
      "type": "function"
    },
    {
      "inputs": [
        {
          "internalType": "bytes32",
          "name": "role",
          "type": "bytes32"
        },
        {
          "internalType": "address",
          "name": "account",
          "type": "address"
        }
      ],
      "name": "renounceRole",
      "outputs": [],
      "stateMutability": "nonpayable",
      "type": "function"
    },
    {
      "inputs": [
        {
          "internalType": "bytes32",
          "name": "role",
          "type": "bytes32"
        },
        {
          "internalType": "address",
          "name": "account",
          "type": "address"
        }
      ],
      "name": "revokeRole",
      "outputs": [],
      "stateMutability": "nonpayable",
      "type": "function"
    },
    {
      "inputs": [
        {
          "internalType": "address",
          "name": "addr",
          "type": "address"
        }
      ],
      "name": "setLogEventAddress",
      "outputs": [],
      "stateMutability": "nonpayable",
      "type": "function"
    },
    {
      "inputs": [
        {
          "internalType": "address",
          "name": "_logic",
          "type": "address"
        }
      ],
      "name": "setLogic",
      "outputs": [],
      "stateMutability": "nonpayable",
      "type": "function"
    },
    {
      "inputs": [
        {
          "internalType": "address",
          "name": "addr",
          "type": "address"
        }
      ],
      "name": "setUpgradeAdmin",
      "outputs": [],
      "stateMutability": "nonpayable",
      "type": "function"
    },
    {
      "inputs": [
        {
          "internalType": "bytes4",
          "name": "interfaceId",
          "type": "bytes4"
        }
      ],
      "name": "supportsInterface",
      "outputs": [
        {
          "internalType": "bool",
          "name": "",
          "type": "bool"
        }
      ],
      "stateMutability": "view",
      "type": "function"
    },
    {
      "inputs": [],
      "name": "totalCreatedContracts",
      "outputs": [
        {
          "internalType": "uint256",
          "name": "",
          "type": "uint256"
        }
      ],
      "stateMutability": "view",
      "type": "function"
    },
    {
      "inputs": [
        {
          "internalType": "address",
          "name": "newAdmin",
          "type": "address"
        }
      ],
      "name": "transferAdmin",
      "outputs": [],
      "stateMutability": "nonpayable",
      "type": "function"
    },
    {
      "inputs": [],
      "name": "upgradeAdmin",
      "outputs": [
        {
          "internalType": "address",
          "name": "",
          "type": "address"
        }
      ],
      "stateMutability": "view",
      "type": "function"
    },
    {
      "inputs": [
        {
          "internalType": "address",
          "name": "_contract",
          "type": "address"
        },
        {
          "internalType": "bytes4[]",
          "name": "_selectors",
          "type": "bytes4[]"
        },
        {
          "internalType": "address",
          "name": "_imp",
          "type": "address"
        }
      ],
      "name": "upgradeContractFunction",
      "outputs": [],
      "stateMutability": "nonpayable",
      "type": "function"
    },
    {
      "inputs": [
        {
          "internalType": "address",
          "name": "_contract",
          "type": "address"
        },
        {
          "internalType": "address",
          "name": "_logic",
          "type": "address"
        },
        {
          "internalType": "uint256",
          "name": "_index",
          "type": "uint256"
        },
        {
          "internalType": "bool",
          "name": "_alive",
          "type": "bool"
        }
      ],
      "name": "upgradeContractLogic",
      "outputs": [],
      "stateMutability": "nonpayable",
      "type": "function"
    },
    {
      "inputs": [],
      "name": "vaultLogic",
      "outputs": [
        {
          "internalType": "address",
          "name": "",
          "type": "address"
        }
      ],
      "stateMutability": "view",
      "type": "function"
    }
  ],
  "bytecode": "0x60806040523480156200001157600080fd5b5060006001556200003260008051602062003fae8339815191528062000065565b6200004d60008051602062003fae83398151915233620000b0565b600380546001600160a01b0319163317905562000160565b600082815260208190526040808220600101805490849055905190918391839186917fbd79b86ffe0ab8e8776151514217cd7cacd52c909f66475c3af44e129f0b00ff9190a4505050565b620000bc8282620000c0565b5050565b6000828152602081815260408083206001600160a01b038516845290915290205460ff16620000bc576000828152602081815260408083206001600160a01b03851684529091529020805460ff191660011790556200011c3390565b6001600160a01b0316816001600160a01b0316837f2f8788117e7eff1d82e926ec794901d17c78024a50270940304540a733656f0d60405160405180910390a45050565b613e3e80620001706000396000f3fe60806040523480156200001157600080fd5b5060043610620001a55760003560e01c806375b238fc11620000eb578063c242b9651162000092578063c242b96514620003d4578063c4d5608a14620003eb578063d052618714620003ff578063d53913931462000409578063d547741f1462000431578063eab73ca11462000448578063fc5f18d3146200045c57600080fd5b806375b238fc14620003355780637e2826f6146200034c57806391d1485414620003635780639342f417146200037a578063a217fddf1462000391578063b078147a146200039a578063b4d4028014620003bd57600080fd5b8063338bad5f1162000150578063338bad5f14620002a157806336568abe14620002ab578063439e23fd14620002c257806367c5f8de14620002d95780637048027514620002f057806371857000146200030757806375829def146200031e57600080fd5b806301ffc9a714620001aa5780630881139714620001d65780631785f53c14620001fd578063248a9ca3146200021657806324d7806c146200024b578063282c51f314620002625780632f2ff15d146200028a575b600080fd5b620001c1620001bb366004620017b3565b62000484565b60405190151581526020015b60405180910390f35b620001ed620001e73660046200176c565b620004bc565b604051620001cd9291906200198c565b620002146200020e3660046200165c565b62000573565b005b6200023c620002273660046200176c565b60009081526020819052604090206001015490565b604051908152602001620001cd565b620001c16200025c3660046200165c565b620005c4565b6200023c7f9667e80708b6eeeb0053fa0cca44e028ff548e2a9f029edfeac87c118b08b7c881565b620002146200029b36600462001785565b620005e1565b620001ed62000610565b62000214620002bc36600462001785565b62000729565b620001ed620002d33660046200176c565b620007ab565b62000214620002ea36600462001679565b62000891565b62000214620003013660046200165c565b62000952565b62000214620003183660046200165c565b62000997565b620002146200032f3660046200165c565b62000a69565b6200023c60008051602062003de983398151915281565b620002146200035d3660046200165c565b62000b70565b620001c16200037436600462001785565b62000c18565b620002146200038b3660046200165c565b62000c41565b6200023c600081565b600454620003ae906001600160a01b031681565b604051620001cd919062001925565b62000214620003ce366004620016d1565b62000ce9565b620003ae620003e5366004620017d0565b62000d6f565b600354620003ae906001600160a01b031681565b6200023c60015481565b6200023c7ff0887ba65ee2024ea881d91b74c2450ef19e1557f03bed3ea9f16b037cbe2dc981565b620002146200044236600462001785565b620011ec565b600554620003ae906001600160a01b031681565b6200023c7fe5667d34d7ea8d6fdb3aa71a0a5b85e4cf7f68356dd003cd638556b0eea2bce581565b60006001600160e01b03198216637965db0b60e01b1480620004b657506301ffc9a760e01b6001600160e01b03198316145b92915050565b600260205260009081526040902080546001820180546001600160a01b039092169291620004ea9062001bdb565b80601f0160208091040260200160405190810160405280929190818152602001828054620005189062001bdb565b8015620005695780601f106200053d5761010080835404028352916020019162000569565b820191906000526020600020905b8154815290600101906020018083116200054b57829003601f168201915b5050505050905082565b6200057e33620005c4565b620005a65760405162461bcd60e51b81526004016200059d9062001af5565b60405180910390fd5b620005c160008051602062003de98339815191528262000729565b50565b6000620004b660008051602062003de98339815191528362000c18565b600082815260208190526040902060010154620005ff813362001216565b6200060b838362001285565b505050565b60006060600060015411156200071457600260006001805462000634919062001b74565b81526020810191909152604001600090812054600180546001600160a01b03909216926002929091620006679162001b74565b8152602001908152602001600020600101808054620006869062001bdb565b80601f0160208091040260200160405190810160405280929190818152602001828054620006b49062001bdb565b8015620007055780601f10620006d95761010080835404028352916020019162000705565b820191906000526020600020905b815481529060010190602001808311620006e757829003601f168201915b50505050509050915091509091565b50506040805160208101909152600080825291565b6001600160a01b03811633146200079b5760405162461bcd60e51b815260206004820152602f60248201527f416363657373436f6e74726f6c3a2063616e206f6e6c792072656e6f756e636560448201526e103937b632b9903337b91039b2b63360891b60648201526084016200059d565b620007a782826200130d565b5050565b60006060600154831015620008795760008381526002602052604090208054600190910180546001600160a01b03909216918190620007ea9062001bdb565b80601f0160208091040260200160405190810160405280929190818152602001828054620008189062001bdb565b8015620008695780601f106200083d5761010080835404028352916020019162000869565b820191906000526020600020905b8154815290600101906020018083116200084b57829003601f168201915b5050505050905091509150915091565b50506040805160208101909152600080825292909150565b6200089c33620005c4565b620008bb5760405162461bcd60e51b81526004016200059d9062001af5565b836001600160a01b038116620008e55760405162461bcd60e51b81526004016200059d9062001ac9565b604051637cd5f66360e01b81526001600160a01b03861690637cd5f66390620009179087908790879060040162001939565b600060405180830381600087803b1580156200093257600080fd5b505af115801562000947573d6000803e3d6000fd5b505050505050505050565b6200095d33620005c4565b6200097c5760405162461bcd60e51b81526004016200059d9062001af5565b620005c160008051602062003de983398151915282620005e1565b806001600160a01b038116620009c15760405162461bcd60e51b81526004016200059d9062001ac9565b620009cc33620005c4565b620009eb5760405162461bcd60e51b81526004016200059d9062001af5565b6004546001600160a01b038381169116141562000a465760405162461bcd60e51b815260206004820152601860248201527730b63932b0b23c9039b2ba103a3434b9903b32b939b4b7b760411b60448201526064016200059d565b50600480546001600160a01b0319166001600160a01b0392909216919091179055565b62000a7433620005c4565b62000a935760405162461bcd60e51b81526004016200059d9062001af5565b6001600160a01b03811662000ae65760405162461bcd60e51b815260206004820152601860248201527741636365737369626c653a207a65726f206164647265737360401b60448201526064016200059d565b336001600160a01b038216141562000b3a5760405162461bcd60e51b815260206004820152601660248201527520b1b1b2b9b9b4b136329d1039b0b6b29030b236b4b760511b60448201526064016200059d565b62000b5560008051602062003de983398151915282620005e1565b620005c160008051602062003de98339815191523362000729565b62000b7b33620005c4565b62000b9a5760405162461bcd60e51b81526004016200059d9062001af5565b806001600160a01b03811662000bc45760405162461bcd60e51b81526004016200059d9062001ac9565b6005546001600160a01b038381169116141562000bf55760405162461bcd60e51b81526004016200059d9062001aa5565b50600580546001600160a01b0319166001600160a01b0392909216919091179055565b6000918252602082815260408084206001600160a01b0393909316845291905290205460ff1690565b62000c4c33620005c4565b62000c6b5760405162461bcd60e51b81526004016200059d9062001af5565b806001600160a01b03811662000c955760405162461bcd60e51b81526004016200059d9062001ac9565b6003546001600160a01b038381169116141562000cc65760405162461bcd60e51b81526004016200059d9062001aa5565b50600380546001600160a01b0319166001600160a01b0392909216919091179055565b62000cf433620005c4565b62000d135760405162461bcd60e51b81526004016200059d9062001af5565b836001600160a01b03811662000d3d5760405162461bcd60e51b81526004016200059d9062001ac9565b604051634a5df50f60e01b81526001600160a01b03861690634a5df50f906200091790879087908790600401620019ba565b60008362000db05760405162461bcd60e51b815260206004820152600d60248201526c6e616d6520697320656d70747960981b60448201526064016200059d565b600060405162000dc09062001572565b604051809103906000f08015801562000ddd573d6000803e3d6000fd5b5090506001600160a01b03811662000e255760405162461bcd60e51b815260206004820152600a6024820152697479706542207a65726f60b01b60448201526064016200059d565b6003546040516325bc555f60e21b81526001600160a01b03838116926396f1557c9262000e59929091169060040162001925565b600060405180830381600087803b15801562000e7457600080fd5b505af115801562000e89573d6000803e3d6000fd5b5050600354604051637048027560e01b81526001600160a01b0380861694506370480275935062000ebf92169060040162001925565b600060405180830381600087803b15801562000eda57600080fd5b505af115801562000eef573d6000803e3d6000fd5b505060048054604051637cd5f66360e01b81526001600160a01b038087169550637cd5f663945062000f2b939216916000916001910162001939565b600060405180830381600087803b15801562000f4657600080fd5b505af115801562000f5b573d6000803e3d6000fd5b505060405163927c0dd560e01b81526001600160a01b038416925063927c0dd5915062000f9390899089908990899060040162001a59565b600060405180830381600087803b15801562000fae57600080fd5b505af115801562000fc3573d6000803e3d6000fd5b50505050806001600160a01b0316639a202d476040518163ffffffff1660e01b8152600401600060405180830381600087803b1580156200100357600080fd5b505af115801562001018573d6000803e3d6000fd5b505050506040518060400160405280826001600160a01b0316815260200187878080601f0160208091040260200160405190810160405280939291908181526020018383808284376000920182905250939094525050600180548252600260209081526040909220845181546001600160a01b0319166001600160a01b03909116178155848301518051919450620010b69392850192019062001580565b50506001805491506000620010cb8362001c18565b90915550506005546040516001600160a01b039091169063beee31bf907f1630f8f629b0e2b491e9695b084dfc6e83a7111054d3e9f2910f7f378c74801c907fb4808b5edad936d721e0f9d512d6bad26beca8e95ab50993b733a7dfffa025c7903090620011429087908d908d906020016200195c565b6040516020818303038152906040526040518563ffffffff1660e01b815260040162001172949392919062001a20565b600060405180830381600087803b1580156200118d57600080fd5b505af1158015620011a2573d6000803e3d6000fd5b505050507fc3410033111817a9f2368dcf0ffa3b75f59b894e7233259de58f559d40233cdd818787604051620011db939291906200195c565b60405180910390a195945050505050565b6000828152602081905260409020600101546200120a813362001216565b6200060b83836200130d565b62001222828262000c18565b620007a7576200123d816001600160a01b0316601462001375565b6200124a83602062001375565b6040516020016200125d929190620018b2565b60408051601f198184030181529082905262461bcd60e51b82526200059d9160040162001a90565b62001291828262000c18565b620007a7576000828152602081815260408083206001600160a01b03851684529091529020805460ff19166001179055620012c93390565b6001600160a01b0316816001600160a01b0316837f2f8788117e7eff1d82e926ec794901d17c78024a50270940304540a733656f0d60405160405180910390a45050565b62001319828262000c18565b15620007a7576000828152602081815260408083206001600160a01b0385168085529252808320805460ff1916905551339285917ff6391f5c32d9c69d2a47ea670b442974b53935d1edc7fd64eb21e047a839171b9190a45050565b606060006200138683600262001b52565b6200139390600262001b37565b67ffffffffffffffff811115620013ba57634e487b7160e01b600052604160045260246000fd5b6040519080825280601f01601f191660200182016040528015620013e5576020820181803683370190505b509050600360fc1b816000815181106200140f57634e487b7160e01b600052603260045260246000fd5b60200101906001600160f81b031916908160001a905350600f60fb1b816001815181106200144d57634e487b7160e01b600052603260045260246000fd5b60200101906001600160f81b031916908160001a90535060006200147384600262001b52565b6200148090600162001b37565b90505b60018111156200151a576f181899199a1a9b1b9c1cb0b131b232b360811b85600f1660108110620014c457634e487b7160e01b600052603260045260246000fd5b1a60f81b828281518110620014e957634e487b7160e01b600052603260045260246000fd5b60200101906001600160f81b031916908160001a90535060049490941c93620015128162001bc1565b905062001483565b5083156200156b5760405162461bcd60e51b815260206004820181905260248201527f537472696e67733a20686578206c656e67746820696e73756666696369656e7460448201526064016200059d565b9392505050565b61219c8062001c4d83390190565b8280546200158e9062001bdb565b90600052602060002090601f016020900481019282620015b25760008555620015fd565b82601f10620015cd57805160ff1916838001178555620015fd565b82800160010185558215620015fd579182015b82811115620015fd578251825591602001919060010190620015e0565b506200160b9291506200160f565b5090565b5b808211156200160b576000815560010162001610565b80356001600160a01b03811681146200163e57600080fd5b919050565b80356001600160e01b0319811681146200163e57600080fd5b6000602082840312156200166e578081fd5b6200156b8262001626565b600080600080608085870312156200168f578283fd5b6200169a8562001626565b9350620016aa6020860162001626565b92506040850135915060608501358015158114620016c6578182fd5b939692955090935050565b60008060008060608587031215620016e7578384fd5b620016f28562001626565b9350602085013567ffffffffffffffff808211156200170f578485fd5b818701915087601f83011262001723578485fd5b81358181111562001732578586fd5b8860208260051b850101111562001747578586fd5b602083019550809450505050620017616040860162001626565b905092959194509250565b6000602082840312156200177e578081fd5b5035919050565b6000806040838503121562001798578182fd5b82359150620017aa6020840162001626565b90509250929050565b600060208284031215620017c5578081fd5b6200156b8262001643565b60008060008060608587031215620017e6578384fd5b843567ffffffffffffffff80821115620017fe578586fd5b818701915087601f83011262001812578586fd5b81358181111562001821578687fd5b88602082850101111562001833578687fd5b6020928301965094506200184b918701905062001626565b9150620017616040860162001626565b600081518084526200187581602086016020860162001b8e565b601f01601f19169290920160200192915050565b81835281816020850137506000828201602090810191909152601f909101601f19169091010190565b76020b1b1b2b9b9a1b7b73a3937b61d1030b1b1b7bab73a1604d1b815260008351620018e681601785016020880162001b8e565b7001034b99036b4b9b9b4b733903937b6329607d1b60179184019182015283516200191981602884016020880162001b8e565b01602801949350505050565b6001600160a01b0391909116815260200190565b6001600160a01b0393909316835260208301919091521515604082015260600190565b6001600160a01b038416815260406020820181905260009062001983908301848662001889565b95945050505050565b6001600160a01b0383168152604060208201819052600090620019b2908301846200185b565b949350505050565b6040808252810183905260008460608301825b8681101562001a00576001600160e01b0319620019ea8462001643565b16825260209283019290910190600101620019cd565b506001600160a01b03949094166020939093019290925250909392505050565b84815283602082015260018060a01b038316604082015260806060820152600062001a4f60808301846200185b565b9695505050505050565b60608152600062001a6f60608301868862001889565b6001600160a01b039485166020840152929093166040909101529392505050565b6020815260006200156b60208301846200185b565b6020808252600a908201526973616d6520616464727360b01b604082015260600190565b6020808252601290820152715661756c74466163746f72793a207a65726f60701b604082015260600190565b60208082526022908201527f41636365737369626c653a2043616c6c6572206973206e6f7420616e2061646d60408201526134b760f11b606082015260800190565b6000821982111562001b4d5762001b4d62001c36565b500190565b600081600019048311821515161562001b6f5762001b6f62001c36565b500290565b60008282101562001b895762001b8962001c36565b500390565b60005b8381101562001bab57818101518382015260200162001b91565b8381111562001bbb576000848401525b50505050565b60008162001bd35762001bd362001c36565b506000190190565b600181811c9082168062001bf057607f821691505b6020821081141562001c1257634e487b7160e01b600052602260045260246000fd5b50919050565b600060001982141562001c2f5762001c2f62001c36565b5060010190565b634e487b7160e01b600052601160045260246000fdfe608060405260006005553480156200001657600080fd5b50620000437f52eafc11f6f81f86878bffd31109a0d92f37506527754f00788853ff9f63b1308062000082565b6200006f7f52eafc11f6f81f86878bffd31109a0d92f37506527754f00788853ff9f63b13033620000cd565b6200007c600033620000cd565b62000181565b6000828152600e6020526040808220600101805490849055905190918391839186917fbd79b86ffe0ab8e8776151514217cd7cacd52c909f66475c3af44e129f0b00ff9190a4505050565b620000d98282620000dd565b5050565b6000828152600e602090815260408083206001600160a01b038516845290915290205460ff16620000d9576000828152600e602090815260408083206001600160a01b03851684529091529020805460ff191660011790556200013d3390565b6001600160a01b0316816001600160a01b0316837f2f8788117e7eff1d82e926ec794901d17c78024a50270940304540a733656f0d60405160405180910390a45050565b61200b80620001916000396000f3fe6080604052600436106102605760003560e01c80636befec3f1161014457806396f1557c116100b6578063cfc412be1161007a578063cfc412be1461078d578063d547741f146107a3578063eab73ca1146107c3578063ed5131f5146107e8578063f47f2f1d14610808578063fc0c546a14610828576102a9565b806396f1557c146106f85780639a202d4714610718578063a217fddf1461072d578063b911135f14610742578063be72f2d314610778576102a9565b80638356ca4f116101085780638356ca4f146106385780638b8f4a65146106585780638d4fdb40146106785780638da5cb5b1461069857806391d14854146106b8578063927c0dd5146106d8576102a9565b80636befec3f1461059857806370480275146105b857806375829def146105d85780637cb00d25146105f85780637cd5f66314610618576102a9565b806334b38cc3116101dd57806350d2a276116101a157806350d2a276146104b5578063550d01a31461050357806355640008146105335780635c60da1b146105495780635cc797d81461055e57806363a8fd891461057e576102a9565b806334b38cc31461040e57806336568abe146104335780633659cfe61461045357806341c04d5e146104735780634a5df50f14610495576102a9565b8063170e2fee11610224578063170e2fee14610368578063248a9ca31461038857806324d7806c146103b8578063256019d6146103d85780632f2ff15d146103ee576102a9565b806301ffc9a7146102b357806306fdde03146102e85780630a59fa081461030a5780630f4388c014610324578063117ab87414610352576102a9565b366102a95760405162461bcd60e51b815260206004820152601460248201527331b0b73737ba103932b1b2b4bb329022ba3432b960611b60448201526064015b60405180910390fd5b6102b1610848565b005b3480156102bf57600080fd5b506102d36102ce366004611bc8565b6108f1565b60405190151581526020015b60405180910390f35b3480156102f457600080fd5b506102fd610928565b6040516102df9190611d5d565b34801561031657600080fd5b50600d546102d39060ff1681565b34801561033057600080fd5b5061034461033f366004611b8e565b6109b6565b6040519081526020016102df565b34801561035e57600080fd5b5061034460055481565b34801561037457600080fd5b506102b1610383366004611a91565b6109d7565b34801561039457600080fd5b506103446103a3366004611b8e565b6000908152600e602052604090206001015490565b3480156103c457600080fd5b506102d36103d3366004611a77565b610ab0565b3480156103e457600080fd5b5061034460045481565b3480156103fa57600080fd5b506102b1610409366004611ba6565b610aca565b34801561041a57600080fd5b50610423610af0565b6040516102df9493929190611e7c565b34801561043f57600080fd5b506102b161044e366004611ba6565b610bb3565b34801561045f57600080fd5b506102b161046e366004611a77565b610c2d565b34801561047f57600080fd5b50610344600080516020611fb683398151915281565b3480156104a157600080fd5b506102b16104b0366004611afe565b610d33565b3480156104c157600080fd5b506104eb6104d0366004611bc8565b600c602052600090815260409020546001600160a01b031681565b6040516001600160a01b0390911681526020016102df565b34801561050f57600080fd5b506102d361051e366004611a77565b600b6020526000908152604090205460ff1681565b34801561053f57600080fd5b5061034460035481565b34801561055557600080fd5b506104eb610fbb565b34801561056a57600080fd5b506102b1610579366004611a91565b610fcc565b34801561058a57600080fd5b506009546102d39060ff1681565b3480156105a457600080fd5b506102b16105b3366004611b74565b610ffb565b3480156105c457600080fd5b506102b16105d3366004611a77565b6110d3565b3480156105e457600080fd5b506102b16105f3366004611a77565b611113565b34801561060457600080fd5b506102b1610613366004611b74565b6111c6565b34801561062457600080fd5b506102b1610633366004611ac3565b61120d565b34801561064457600080fd5b506102b1610653366004611a77565b61123d565b34801561066457600080fd5b506104eb610673366004611b8e565b6112c7565b34801561068457600080fd5b506104eb610693366004611bc8565b6112d2565b3480156106a457600080fd5b506001546104eb906001600160a01b031681565b3480156106c457600080fd5b506102d36106d3366004611ba6565b6113ce565b3480156106e457600080fd5b506102b16106f3366004611bf0565b6113f9565b34801561070457600080fd5b506102b1610713366004611a77565b611487565b34801561072457600080fd5b506102b16114b7565b34801561073957600080fd5b50610344600081565b34801561074e57600080fd5b506104eb61075d366004611b8e565b600a602052600090815260409020546001600160a01b031681565b34801561078457600080fd5b506102b1611505565b34801561079957600080fd5b5061034460065481565b3480156107af57600080fd5b506102b16107be366004611ba6565b611535565b3480156107cf57600080fd5b50600d546104eb9061010090046001600160a01b031681565b3480156107f457600080fd5b50610344610803366004611b8e565b61155b565b34801561081457600080fd5b506102d3610823366004611a77565b61156b565b34801561083457600080fd5b506000546104eb906001600160a01b031681565b600061085f6000356001600160e01b0319166112d2565b90506001600160a01b0381161580159061087c575060095460ff16155b6108c85760405162461bcd60e51b815260206004820152601d60248201527f50726f78793a20696d706c204f522070726f78792069732066616c736500000060448201526064016102a0565b3660008037600080366000845af43d6000803e8080156108e7573d6000f35b3d6000fd5b505050565b60006001600160e01b03198216637965db0b60e01b148061092257506301ffc9a760e01b6001600160e01b03198316145b92915050565b6002805461093590611f33565b80601f016020809104026020016040519081016040528092919081815260200182805461096190611f33565b80156109ae5780601f10610983576101008083540402835291602001916109ae565b820191906000526020600020905b81548152906001019060200180831161099157829003601f168201915b505050505081565b600881815481106109c657600080fd5b600091825260209091200154905081565b6109e03361156b565b6109fc5760405162461bcd60e51b81526004016102a090611e04565b600d546001600160a01b038381166101009092041614801590610a2757506001600160a01b03821615155b610a685760405162461bcd60e51b815260206004820152601260248201527173616d652076616c7565206f72207a65726f60701b60448201526064016102a0565b600d80546001600160a01b03841661010002610100600160a81b03198216811790925560ff918216911617151581151514610aac57600d805460ff19168215151790555b5050565b6000610922600080516020611fb6833981519152836113ce565b6000828152600e6020526040902060010154610ae68133611577565b6108ec83836115db565b600060608060006004546007600860055482805480602002602001604051908101604052809291908181526020018280548015610b4c57602002820191906000526020600020905b815481526020019060010190808311610b38575b5050505050925081805480602002602001604051908101604052809291908181526020018280548015610b9e57602002820191906000526020600020905b815481526020019060010190808311610b8a575b50505050509150935093509350935090919293565b6001600160a01b0381163314610c235760405162461bcd60e51b815260206004820152602f60248201527f416363657373436f6e74726f6c3a2063616e206f6e6c792072656e6f756e636560448201526e103937b632b9903337b91039b2b63360891b60648201526084016102a0565b610aac8282611661565b610c363361156b565b610c525760405162461bcd60e51b81526004016102a090611e04565b6001600160a01b038116610c985760405162461bcd60e51b815260206004820152600d60248201526c696e707574206973207a65726f60981b60448201526064016102a0565b806001600160a01b0316610cac60006116c8565b6001600160a01b03161415610cef5760405162461bcd60e51b815260206004820152600960248201526839b0b6b29030b2323960b91b60448201526064016102a0565b610cfc81600060016116e3565b6040516001600160a01b038216907fbc7cd75a20ee27fd9adebab32041f755214dbc6bffa90cc0225b39da2e5c2d3b90600090a250565b610d3c3361156b565b610d585760405162461bcd60e51b81526004016102a090611e04565b81610da55760405162461bcd60e51b815260206004820181905260248201527f50726f78793a205f73656c6563746f727327732073697a65206973207a65726f60448201526064016102a0565b6001600160a01b0381166000908152600b602052604090205460ff16610e085760405162461bcd60e51b815260206004820152601860248201527750726f78793a205f696d70206973206e6f7420616c69766560401b60448201526064016102a0565b60005b82811015610fb557816001600160a01b0316600c6000868685818110610e4157634e487b7160e01b600052603260045260246000fd5b9050602002016020810190610e569190611bc8565b6001600160e01b03191681526020810191909152604001600020546001600160a01b03161415610ec85760405162461bcd60e51b815260206004820152601d60248201527f4c69717569646974795661756c7450726f78793a2073616d6520696d7000000060448201526064016102a0565b81600c6000868685818110610eed57634e487b7160e01b600052603260045260246000fd5b9050602002016020810190610f029190611bc8565b6001600160e01b0319168152602081019190915260400160002080546001600160a01b0319166001600160a01b039283161790558216848483818110610f5857634e487b7160e01b600052603260045260246000fd5b9050602002016020810190610f6d9190611bc8565b6001600160e01b0319167f14ebc1c32aa68f4d766e89f3e546cee249f7df25183fc10ab1568d91c2ce9b7b60405160405180910390a380610fad81611f6e565b915050610e0b565b50505050565b6000610fc760006116c8565b905090565b610fd53361156b565b610ff15760405162461bcd60e51b81526004016102a090611e04565b610aac8282611765565b6110043361156b565b6110205760405162461bcd60e51b81526004016102a090611e04565b600d5460ff16151581151514156110665760405162461bcd60e51b815260206004820152600a60248201526973616d652076616c756560b01b60448201526064016102a0565b80156110c057600d5461010090046001600160a01b03166110c05760405162461bcd60e51b81526020600482015260146024820152737a65726f206c6f674576656e744164647265737360601b60448201526064016102a0565b600d805460ff1916911515919091179055565b6110dc3361156b565b6110f85760405162461bcd60e51b81526004016102a090611e04565b611110600080516020611fb683398151915282610aca565b50565b61111c33610ab0565b8061112b575061112b3361156b565b6111475760405162461bcd60e51b81526004016102a090611d90565b6001600160a01b03811661116d5760405162461bcd60e51b81526004016102a090611dd2565b336001600160a01b03821614156111965760405162461bcd60e51b81526004016102a090611e4c565b6111ae600080516020611fb683398151915282610aca565b611110600080516020611fb683398151915233610bb3565b6111cf33610ab0565b806111de57506111de3361156b565b6111fa5760405162461bcd60e51b81526004016102a090611d90565b6009805460ff1916911515919091179055565b6112163361156b565b6112325760405162461bcd60e51b81526004016102a090611e04565b6108ec8383836116e3565b6112463361156b565b6112625760405162461bcd60e51b81526004016102a090611e04565b6001600160a01b0381166112885760405162461bcd60e51b81526004016102a090611dd2565b336001600160a01b03821614156112b15760405162461bcd60e51b81526004016102a090611e4c565b6112bc600082610aca565b611110600033610bb3565b6000610922826116c8565b6001600160e01b031981166000908152600c60205260408120546001600160a01b031661133257505060008052600a6020527f13da86008ba1c6922daee3e07db95305ef49ebced9f5467a0b8613fcc6b343e3546001600160a01b031690565b6001600160e01b031982166000908152600c60209081526040808320546001600160a01b03168352600b90915290205460ff161561139057506001600160e01b0319166000908152600c60205260409020546001600160a01b031690565b505060008052600a6020527f13da86008ba1c6922daee3e07db95305ef49ebced9f5467a0b8613fcc6b343e3546001600160a01b031690565b919050565b6000918252600e602090815260408084206001600160a01b0393909316845291905290205460ff1690565b6114023361156b565b61141e5760405162461bcd60e51b81526004016102a090611e04565b82516114319060029060208601906119b7565b50600080546001600160a01b038085166001600160a01b031992831617909255600180549284169290911691909117905561146b81610ab0565b6108ec576108ec600080516020611fb6833981519152826117c4565b6114903361156b565b6114ac5760405162461bcd60e51b81526004016102a090611e04565b6111106000826117c4565b6114c033610ab0565b806114cf57506114cf3361156b565b6114eb5760405162461bcd60e51b81526004016102a090611d90565b611503600080516020611fb683398151915233610bb3565b565b61150e3361156b565b61152a5760405162461bcd60e51b81526004016102a090611e04565b611503600033610bb3565b6000828152600e60205260409020600101546115518133611577565b6108ec8383611661565b600781815481106109c657600080fd5b600061092281836113ce565b61158182826113ce565b610aac57611599816001600160a01b031660146117ce565b6115a48360206117ce565b6040516020016115b5929190611cee565b60408051601f198184030181529082905262461bcd60e51b82526102a091600401611d5d565b6115e582826113ce565b610aac576000828152600e602090815260408083206001600160a01b03851684529091529020805460ff1916600117905561161d3390565b6001600160a01b0316816001600160a01b0316837f2f8788117e7eff1d82e926ec794901d17c78024a50270940304540a733656f0d60405160405180910390a45050565b61166b82826113ce565b15610aac576000828152600e602090815260408083206001600160a01b0385168085529252808320805460ff1916905551339285917ff6391f5c32d9c69d2a47ea670b442974b53935d1edc7fd64eb21e047a839171b9190a45050565b6000908152600a60205260409020546001600160a01b031690565b823b6117315760405162461bcd60e51b815260206004820152601b60248201527f50726f78793a206e6f7420636f6e74726163742061646472657373000000000060448201526064016102a0565b801561175f576000828152600a6020526040902080546001600160a01b0319166001600160a01b0385161790555b6108ec83825b6001600160a01b0382166000818152600b6020908152604091829020805460ff191685151590811790915591519182527f72558d9bfba4210f9ef095c782589484151f6d90f7a81bb3cb9b33efc695d324910160405180910390a25050565b610aac82826115db565b606060006117dd836002611ed1565b6117e8906002611eb9565b67ffffffffffffffff81111561180e57634e487b7160e01b600052604160045260246000fd5b6040519080825280601f01601f191660200182016040528015611838576020820181803683370190505b509050600360fc1b8160008151811061186157634e487b7160e01b600052603260045260246000fd5b60200101906001600160f81b031916908160001a905350600f60fb1b8160018151811061189e57634e487b7160e01b600052603260045260246000fd5b60200101906001600160f81b031916908160001a90535060006118c2846002611ed1565b6118cd906001611eb9565b90505b6001811115611961576f181899199a1a9b1b9c1cb0b131b232b360811b85600f166010811061190f57634e487b7160e01b600052603260045260246000fd5b1a60f81b82828151811061193357634e487b7160e01b600052603260045260246000fd5b60200101906001600160f81b031916908160001a90535060049490941c9361195a81611f1c565b90506118d0565b5083156119b05760405162461bcd60e51b815260206004820181905260248201527f537472696e67733a20686578206c656e67746820696e73756666696369656e7460448201526064016102a0565b9392505050565b8280546119c390611f33565b90600052602060002090601f0160209004810192826119e55760008555611a2b565b82601f106119fe57805160ff1916838001178555611a2b565b82800160010185558215611a2b579182015b82811115611a2b578251825591602001919060010190611a10565b50611a37929150611a3b565b5090565b5b80821115611a375760008155600101611a3c565b80356001600160a01b03811681146113c957600080fd5b803580151581146113c957600080fd5b600060208284031215611a88578081fd5b6119b082611a50565b60008060408385031215611aa3578081fd5b611aac83611a50565b9150611aba60208401611a67565b90509250929050565b600080600060608486031215611ad7578081fd5b611ae084611a50565b925060208401359150611af560408501611a67565b90509250925092565b600080600060408486031215611b12578283fd5b833567ffffffffffffffff80821115611b29578485fd5b818601915086601f830112611b3c578485fd5b813581811115611b4a578586fd5b8760208260051b8501011115611b5e578586fd5b602092830195509350611af59186019050611a50565b600060208284031215611b85578081fd5b6119b082611a67565b600060208284031215611b9f578081fd5b5035919050565b60008060408385031215611bb8578182fd5b82359150611aba60208401611a50565b600060208284031215611bd9578081fd5b81356001600160e01b0319811681146119b0578182fd5b600080600060608486031215611c04578283fd5b833567ffffffffffffffff80821115611c1b578485fd5b818601915086601f830112611c2e578485fd5b813581811115611c4057611c40611f9f565b604051601f8201601f19908116603f01168101908382118183101715611c6857611c68611f9f565b81604052828152896020848701011115611c80578788fd5b8260208601602083013787602084830101528097505050505050611ca660208501611a50565b9150611af560408501611a50565b6000815180845260208085019450808401835b83811015611ce357815187529582019590820190600101611cc7565b509495945050505050565b76020b1b1b2b9b9a1b7b73a3937b61d1030b1b1b7bab73a1604d1b815260008351611d20816017850160208801611ef0565b7001034b99036b4b9b9b4b733903937b6329607d1b6017918401918201528351611d51816028840160208801611ef0565b01602801949350505050565b6020815260008251806020840152611d7c816040850160208701611ef0565b601f01601f19169190910160400192915050565b60208082526022908201527f41636365737369626c653a2043616c6c6572206973206e6f7420616e2061646d60408201526134b760f11b606082015260800190565b60208082526018908201527741636365737369626c653a207a65726f206164647265737360401b604082015260600190565b60208082526028908201527f41636365737369626c653a2043616c6c6572206973206e6f7420616e2070726f6040820152673c3c9030b236b4b760c11b606082015260800190565b60208082526016908201527520b1b1b2b9b9b4b136329d1039b0b6b29030b236b4b760511b604082015260600190565b848152608060208201526000611e956080830186611cb4565b8281036040840152611ea78186611cb4565b91505082606083015295945050505050565b60008219821115611ecc57611ecc611f89565b500190565b6000816000190483118215151615611eeb57611eeb611f89565b500290565b60005b83811015611f0b578181015183820152602001611ef3565b83811115610fb55750506000910152565b600081611f2b57611f2b611f89565b506000190190565b600181811c90821680611f4757607f821691505b60208210811415611f6857634e487b7160e01b600052602260045260246000fd5b50919050565b6000600019821415611f8257611f82611f89565b5060010190565b634e487b7160e01b600052601160045260246000fd5b634e487b7160e01b600052604160045260246000fdfe52eafc11f6f81f86878bffd31109a0d92f37506527754f00788853ff9f63b130a26469706673582212203ee1630638b7651c97d8e026e26d0691072e5615472be30ef23e3dd5694c71fa64736f6c63430008040033df8b4c520ffe197c5343c6f5aec59570151ef9a492f2c624fd45ddde6135ec42a26469706673582212204623a2d6adda4088c8092ad4f1cf599d47b8f2bb3e5846e0a4bbaadff24f505664736f6c63430008040033df8b4c520ffe197c5343c6f5aec59570151ef9a492f2c624fd45ddde6135ec42",
  "linkReferences": {},
  "deployedLinkReferences": {}
}