{
  "_format": "hh-sol-artifact-1",
  "contractName": "TypeBVaultFactory",
  "sourceName": "contracts/TypeBVaultFactory.sol",
  "abi": [
    {
      "anonymous": false,
      "inputs": [
        {
          "indexed": false,
          "internalType": "address",
          "name": "contractAddress",
          "type": "address"
        },
        {
          "indexed": false,
          "internalType": "string",
          "name": "name",
          "type": "string"
        }
      ],
      "name": "CreatedTypeBVault",
      "type": "event"
    },
    {
      "anonymous": false,
      "inputs": [
        {
          "indexed": true,
          "internalType": "bytes32",
          "name": "role",
          "type": "bytes32"
        },
        {
          "indexed": true,
          "internalType": "bytes32",
          "name": "previousAdminRole",
          "type": "bytes32"
        },
        {
          "indexed": true,
          "internalType": "bytes32",
          "name": "newAdminRole",
          "type": "bytes32"
        }
      ],
      "name": "RoleAdminChanged",
      "type": "event"
    },
    {
      "anonymous": false,
      "inputs": [
        {
          "indexed": true,
          "internalType": "bytes32",
          "name": "role",
          "type": "bytes32"
        },
        {
          "indexed": true,
          "internalType": "address",
          "name": "account",
          "type": "address"
        },
        {
          "indexed": true,
          "internalType": "address",
          "name": "sender",
          "type": "address"
        }
      ],
      "name": "RoleGranted",
      "type": "event"
    },
    {
      "anonymous": false,
      "inputs": [
        {
          "indexed": true,
          "internalType": "bytes32",
          "name": "role",
          "type": "bytes32"
        },
        {
          "indexed": true,
          "internalType": "address",
          "name": "account",
          "type": "address"
        },
        {
          "indexed": true,
          "internalType": "address",
          "name": "sender",
          "type": "address"
        }
      ],
      "name": "RoleRevoked",
      "type": "event"
    },
    {
      "inputs": [],
      "name": "ADMIN_ROLE",
      "outputs": [
        {
          "internalType": "bytes32",
          "name": "",
          "type": "bytes32"
        }
      ],
      "stateMutability": "view",
      "type": "function"
    },
    {
      "inputs": [],
      "name": "BURNER_ROLE",
      "outputs": [
        {
          "internalType": "bytes32",
          "name": "",
          "type": "bytes32"
        }
      ],
      "stateMutability": "view",
      "type": "function"
    },
    {
      "inputs": [],
      "name": "CLAIMER_ROLE",
      "outputs": [
        {
          "internalType": "bytes32",
          "name": "",
          "type": "bytes32"
        }
      ],
      "stateMutability": "view",
      "type": "function"
    },
    {
      "inputs": [],
      "name": "DEFAULT_ADMIN_ROLE",
      "outputs": [
        {
          "internalType": "bytes32",
          "name": "",
          "type": "bytes32"
        }
      ],
      "stateMutability": "view",
      "type": "function"
    },
    {
      "inputs": [],
      "name": "MINTER_ROLE",
      "outputs": [
        {
          "internalType": "bytes32",
          "name": "",
          "type": "bytes32"
        }
      ],
      "stateMutability": "view",
      "type": "function"
    },
    {
      "inputs": [
        {
          "internalType": "address",
          "name": "account",
          "type": "address"
        }
      ],
      "name": "addAdmin",
      "outputs": [],
      "stateMutability": "nonpayable",
      "type": "function"
    },
    {
      "inputs": [
        {
          "internalType": "string",
          "name": "_name",
          "type": "string"
        },
        {
          "internalType": "address",
          "name": "_token",
          "type": "address"
        },
        {
          "internalType": "address",
          "name": "_owner",
          "type": "address"
        }
      ],
      "name": "createTypeB",
      "outputs": [
        {
          "internalType": "address",
          "name": "",
          "type": "address"
        }
      ],
      "stateMutability": "nonpayable",
      "type": "function"
    },
    {
      "inputs": [
        {
          "internalType": "uint256",
          "name": "",
          "type": "uint256"
        }
      ],
      "name": "createdContracts",
      "outputs": [
        {
          "internalType": "address",
          "name": "contractAddress",
          "type": "address"
        },
        {
          "internalType": "string",
          "name": "name",
          "type": "string"
        }
      ],
      "stateMutability": "view",
      "type": "function"
    },
    {
      "inputs": [
        {
          "internalType": "uint256",
          "name": "_index",
          "type": "uint256"
        }
      ],
      "name": "getContracts",
      "outputs": [
        {
          "internalType": "address",
          "name": "contractAddress",
          "type": "address"
        },
        {
          "internalType": "string",
          "name": "name",
          "type": "string"
        }
      ],
      "stateMutability": "view",
      "type": "function"
    },
    {
      "inputs": [
        {
          "internalType": "bytes32",
          "name": "role",
          "type": "bytes32"
        }
      ],
      "name": "getRoleAdmin",
      "outputs": [
        {
          "internalType": "bytes32",
          "name": "",
          "type": "bytes32"
        }
      ],
      "stateMutability": "view",
      "type": "function"
    },
    {
      "inputs": [
        {
          "internalType": "bytes32",
          "name": "role",
          "type": "bytes32"
        },
        {
          "internalType": "address",
          "name": "account",
          "type": "address"
        }
      ],
      "name": "grantRole",
      "outputs": [],
      "stateMutability": "nonpayable",
      "type": "function"
    },
    {
      "inputs": [
        {
          "internalType": "bytes32",
          "name": "role",
          "type": "bytes32"
        },
        {
          "internalType": "address",
          "name": "account",
          "type": "address"
        }
      ],
      "name": "hasRole",
      "outputs": [
        {
          "internalType": "bool",
          "name": "",
          "type": "bool"
        }
      ],
      "stateMutability": "view",
      "type": "function"
    },
    {
      "inputs": [
        {
          "internalType": "address",
          "name": "account",
          "type": "address"
        }
      ],
      "name": "isAdmin",
      "outputs": [
        {
          "internalType": "bool",
          "name": "",
          "type": "bool"
        }
      ],
      "stateMutability": "view",
      "type": "function"
    },
    {
      "inputs": [],
      "name": "lastestCreated",
      "outputs": [
        {
          "internalType": "address",
          "name": "contractAddress",
          "type": "address"
        },
        {
          "internalType": "string",
          "name": "name",
          "type": "string"
        }
      ],
      "stateMutability": "view",
      "type": "function"
    },
    {
      "inputs": [],
      "name": "logEventAddress",
      "outputs": [
        {
          "internalType": "address",
          "name": "",
          "type": "address"
        }
      ],
      "stateMutability": "view",
      "type": "function"
    },
    {
      "inputs": [
        {
          "internalType": "address",
          "name": "account",
          "type": "address"
        }
      ],
      "name": "removeAdmin",
      "outputs": [],
      "stateMutability": "nonpayable",
      "type": "function"
    },
    {
      "inputs": [
        {
          "internalType": "bytes32",
          "name": "role",
          "type": "bytes32"
        },
        {
          "internalType": "address",
          "name": "account",
          "type": "address"
        }
      ],
      "name": "renounceRole",
      "outputs": [],
      "stateMutability": "nonpayable",
      "type": "function"
    },
    {
      "inputs": [
        {
          "internalType": "bytes32",
          "name": "role",
          "type": "bytes32"
        },
        {
          "internalType": "address",
          "name": "account",
          "type": "address"
        }
      ],
      "name": "revokeRole",
      "outputs": [],
      "stateMutability": "nonpayable",
      "type": "function"
    },
    {
      "inputs": [
        {
          "internalType": "address",
          "name": "addr",
          "type": "address"
        }
      ],
      "name": "setLogEventAddress",
      "outputs": [],
      "stateMutability": "nonpayable",
      "type": "function"
    },
    {
      "inputs": [
        {
          "internalType": "address",
          "name": "_logic",
          "type": "address"
        }
      ],
      "name": "setLogic",
      "outputs": [],
      "stateMutability": "nonpayable",
      "type": "function"
    },
    {
      "inputs": [
        {
          "internalType": "address",
          "name": "addr",
          "type": "address"
        }
      ],
      "name": "setUpgradeAdmin",
      "outputs": [],
      "stateMutability": "nonpayable",
      "type": "function"
    },
    {
      "inputs": [
        {
          "internalType": "bytes4",
          "name": "interfaceId",
          "type": "bytes4"
        }
      ],
      "name": "supportsInterface",
      "outputs": [
        {
          "internalType": "bool",
          "name": "",
          "type": "bool"
        }
      ],
      "stateMutability": "view",
      "type": "function"
    },
    {
      "inputs": [],
      "name": "totalCreatedContracts",
      "outputs": [
        {
          "internalType": "uint256",
          "name": "",
          "type": "uint256"
        }
      ],
      "stateMutability": "view",
      "type": "function"
    },
    {
      "inputs": [
        {
          "internalType": "address",
          "name": "newAdmin",
          "type": "address"
        }
      ],
      "name": "transferAdmin",
      "outputs": [],
      "stateMutability": "nonpayable",
      "type": "function"
    },
    {
      "inputs": [],
      "name": "upgradeAdmin",
      "outputs": [
        {
          "internalType": "address",
          "name": "",
          "type": "address"
        }
      ],
      "stateMutability": "view",
      "type": "function"
    },
    {
      "inputs": [
        {
          "internalType": "address",
          "name": "_contract",
          "type": "address"
        },
        {
          "internalType": "bytes4[]",
          "name": "_selectors",
          "type": "bytes4[]"
        },
        {
          "internalType": "address",
          "name": "_imp",
          "type": "address"
        }
      ],
      "name": "upgradeContractFunction",
      "outputs": [],
      "stateMutability": "nonpayable",
      "type": "function"
    },
    {
      "inputs": [
        {
          "internalType": "address",
          "name": "_contract",
          "type": "address"
        },
        {
          "internalType": "address",
          "name": "_logic",
          "type": "address"
        },
        {
          "internalType": "uint256",
          "name": "_index",
          "type": "uint256"
        },
        {
          "internalType": "bool",
          "name": "_alive",
          "type": "bool"
        }
      ],
      "name": "upgradeContractLogic",
      "outputs": [],
      "stateMutability": "nonpayable",
      "type": "function"
    },
    {
      "inputs": [],
      "name": "vaultLogic",
      "outputs": [
        {
          "internalType": "address",
          "name": "",
          "type": "address"
        }
      ],
      "stateMutability": "view",
      "type": "function"
    }
  ],
  "bytecode": "0x60806040523480156200001157600080fd5b5060006001556200003260008051602062003a658339815191528062000065565b6200004d60008051602062003a6583398151915233620000b0565b600380546001600160a01b0319163317905562000160565b600082815260208190526040808220600101805490849055905190918391839186917fbd79b86ffe0ab8e8776151514217cd7cacd52c909f66475c3af44e129f0b00ff9190a4505050565b620000bc8282620000c0565b5050565b6000828152602081815260408083206001600160a01b038516845290915290205460ff16620000bc576000828152602081815260408083206001600160a01b03851684529091529020805460ff191660011790556200011c3390565b6001600160a01b0316816001600160a01b0316837f2f8788117e7eff1d82e926ec794901d17c78024a50270940304540a733656f0d60405160405180910390a45050565b6138f580620001706000396000f3fe60806040523480156200001157600080fd5b5060043610620001a55760003560e01c806375b238fc11620000eb578063c242b9651162000092578063c242b96514620003d4578063c4d5608a14620003eb578063d052618714620003ff578063d53913931462000409578063d547741f1462000431578063eab73ca11462000448578063fc5f18d3146200045c57600080fd5b806375b238fc14620003355780637e2826f6146200034c57806391d1485414620003635780639342f417146200037a578063a217fddf1462000391578063b078147a146200039a578063b4d4028014620003bd57600080fd5b8063338bad5f1162000150578063338bad5f14620002a157806336568abe14620002ab578063439e23fd14620002c257806367c5f8de14620002d95780637048027514620002f057806371857000146200030757806375829def146200031e57600080fd5b806301ffc9a714620001aa5780630881139714620001d65780631785f53c14620001fd578063248a9ca3146200021657806324d7806c146200024b578063282c51f314620002625780632f2ff15d146200028a575b600080fd5b620001c1620001bb366004620017b3565b62000484565b60405190151581526020015b60405180910390f35b620001ed620001e73660046200176c565b620004bc565b604051620001cd9291906200198c565b620002146200020e3660046200165c565b62000573565b005b6200023c620002273660046200176c565b60009081526020819052604090206001015490565b604051908152602001620001cd565b620001c16200025c3660046200165c565b620005c4565b6200023c7f9667e80708b6eeeb0053fa0cca44e028ff548e2a9f029edfeac87c118b08b7c881565b620002146200029b36600462001785565b620005e1565b620001ed62000610565b62000214620002bc36600462001785565b62000729565b620001ed620002d33660046200176c565b620007ab565b62000214620002ea36600462001679565b62000891565b62000214620003013660046200165c565b62000952565b62000214620003183660046200165c565b62000997565b620002146200032f3660046200165c565b62000a69565b6200023c600080516020620038a083398151915281565b620002146200035d3660046200165c565b62000b70565b620001c16200037436600462001785565b62000c18565b620002146200038b3660046200165c565b62000c41565b6200023c600081565b600454620003ae906001600160a01b031681565b604051620001cd919062001925565b62000214620003ce366004620016d1565b62000ce9565b620003ae620003e5366004620017d0565b62000d6f565b600354620003ae906001600160a01b031681565b6200023c60015481565b6200023c7ff0887ba65ee2024ea881d91b74c2450ef19e1557f03bed3ea9f16b037cbe2dc981565b620002146200044236600462001785565b620011ec565b600554620003ae906001600160a01b031681565b6200023c7fe5667d34d7ea8d6fdb3aa71a0a5b85e4cf7f68356dd003cd638556b0eea2bce581565b60006001600160e01b03198216637965db0b60e01b1480620004b657506301ffc9a760e01b6001600160e01b03198316145b92915050565b600260205260009081526040902080546001820180546001600160a01b039092169291620004ea9062001bdb565b80601f0160208091040260200160405190810160405280929190818152602001828054620005189062001bdb565b8015620005695780601f106200053d5761010080835404028352916020019162000569565b820191906000526020600020905b8154815290600101906020018083116200054b57829003601f168201915b5050505050905082565b6200057e33620005c4565b620005a65760405162461bcd60e51b81526004016200059d9062001af5565b60405180910390fd5b620005c1600080516020620038a08339815191528262000729565b50565b6000620004b6600080516020620038a08339815191528362000c18565b600082815260208190526040902060010154620005ff813362001216565b6200060b838362001285565b505050565b60006060600060015411156200071457600260006001805462000634919062001b74565b81526020810191909152604001600090812054600180546001600160a01b03909216926002929091620006679162001b74565b8152602001908152602001600020600101808054620006869062001bdb565b80601f0160208091040260200160405190810160405280929190818152602001828054620006b49062001bdb565b8015620007055780601f10620006d95761010080835404028352916020019162000705565b820191906000526020600020905b815481529060010190602001808311620006e757829003601f168201915b50505050509050915091509091565b50506040805160208101909152600080825291565b6001600160a01b03811633146200079b5760405162461bcd60e51b815260206004820152602f60248201527f416363657373436f6e74726f6c3a2063616e206f6e6c792072656e6f756e636560448201526e103937b632b9903337b91039b2b63360891b60648201526084016200059d565b620007a782826200130d565b5050565b60006060600154831015620008795760008381526002602052604090208054600190910180546001600160a01b03909216918190620007ea9062001bdb565b80601f0160208091040260200160405190810160405280929190818152602001828054620008189062001bdb565b8015620008695780601f106200083d5761010080835404028352916020019162000869565b820191906000526020600020905b8154815290600101906020018083116200084b57829003601f168201915b5050505050905091509150915091565b50506040805160208101909152600080825292909150565b6200089c33620005c4565b620008bb5760405162461bcd60e51b81526004016200059d9062001af5565b836001600160a01b038116620008e55760405162461bcd60e51b81526004016200059d9062001ac9565b604051637cd5f66360e01b81526001600160a01b03861690637cd5f66390620009179087908790879060040162001939565b600060405180830381600087803b1580156200093257600080fd5b505af115801562000947573d6000803e3d6000fd5b505050505050505050565b6200095d33620005c4565b6200097c5760405162461bcd60e51b81526004016200059d9062001af5565b620005c1600080516020620038a083398151915282620005e1565b806001600160a01b038116620009c15760405162461bcd60e51b81526004016200059d9062001ac9565b620009cc33620005c4565b620009eb5760405162461bcd60e51b81526004016200059d9062001af5565b6004546001600160a01b038381169116141562000a465760405162461bcd60e51b815260206004820152601860248201527730b63932b0b23c9039b2ba103a3434b9903b32b939b4b7b760411b60448201526064016200059d565b50600480546001600160a01b0319166001600160a01b0392909216919091179055565b62000a7433620005c4565b62000a935760405162461bcd60e51b81526004016200059d9062001af5565b6001600160a01b03811662000ae65760405162461bcd60e51b815260206004820152601860248201527741636365737369626c653a207a65726f206164647265737360401b60448201526064016200059d565b336001600160a01b038216141562000b3a5760405162461bcd60e51b815260206004820152601660248201527520b1b1b2b9b9b4b136329d1039b0b6b29030b236b4b760511b60448201526064016200059d565b62000b55600080516020620038a083398151915282620005e1565b620005c1600080516020620038a08339815191523362000729565b62000b7b33620005c4565b62000b9a5760405162461bcd60e51b81526004016200059d9062001af5565b806001600160a01b03811662000bc45760405162461bcd60e51b81526004016200059d9062001ac9565b6005546001600160a01b038381169116141562000bf55760405162461bcd60e51b81526004016200059d9062001aa5565b50600580546001600160a01b0319166001600160a01b0392909216919091179055565b6000918252602082815260408084206001600160a01b0393909316845291905290205460ff1690565b62000c4c33620005c4565b62000c6b5760405162461bcd60e51b81526004016200059d9062001af5565b806001600160a01b03811662000c955760405162461bcd60e51b81526004016200059d9062001ac9565b6003546001600160a01b038381169116141562000cc65760405162461bcd60e51b81526004016200059d9062001aa5565b50600380546001600160a01b0319166001600160a01b0392909216919091179055565b62000cf433620005c4565b62000d135760405162461bcd60e51b81526004016200059d9062001af5565b836001600160a01b03811662000d3d5760405162461bcd60e51b81526004016200059d9062001ac9565b604051634a5df50f60e01b81526001600160a01b03861690634a5df50f906200091790879087908790600401620019ba565b60008362000db05760405162461bcd60e51b815260206004820152600d60248201526c6e616d6520697320656d70747960981b60448201526064016200059d565b600060405162000dc09062001572565b604051809103906000f08015801562000ddd573d6000803e3d6000fd5b5090506001600160a01b03811662000e255760405162461bcd60e51b815260206004820152600a6024820152697479706542207a65726f60b01b60448201526064016200059d565b6003546040516325bc555f60e21b81526001600160a01b03838116926396f1557c9262000e59929091169060040162001925565b600060405180830381600087803b15801562000e7457600080fd5b505af115801562000e89573d6000803e3d6000fd5b5050600354604051637048027560e01b81526001600160a01b0380861694506370480275935062000ebf92169060040162001925565b600060405180830381600087803b15801562000eda57600080fd5b505af115801562000eef573d6000803e3d6000fd5b505060048054604051637cd5f66360e01b81526001600160a01b038087169550637cd5f663945062000f2b939216916000916001910162001939565b600060405180830381600087803b15801562000f4657600080fd5b505af115801562000f5b573d6000803e3d6000fd5b505060405163927c0dd560e01b81526001600160a01b038416925063927c0dd5915062000f9390899089908990899060040162001a59565b600060405180830381600087803b15801562000fae57600080fd5b505af115801562000fc3573d6000803e3d6000fd5b50505050806001600160a01b0316639a202d476040518163ffffffff1660e01b8152600401600060405180830381600087803b1580156200100357600080fd5b505af115801562001018573d6000803e3d6000fd5b505050506040518060400160405280826001600160a01b0316815260200187878080601f0160208091040260200160405190810160405280939291908181526020018383808284376000920182905250939094525050600180548252600260209081526040909220845181546001600160a01b0319166001600160a01b03909116178155848301518051919450620010b69392850192019062001580565b50506001805491506000620010cb8362001c18565b90915550506005546040516001600160a01b039091169063beee31bf907f1630f8f629b0e2b491e9695b084dfc6e83a7111054d3e9f2910f7f378c74801c907fb4808b5edad936d721e0f9d512d6bad26beca8e95ab50993b733a7dfffa025c7903090620011429087908d908d906020016200195c565b6040516020818303038152906040526040518563ffffffff1660e01b815260040162001172949392919062001a20565b600060405180830381600087803b1580156200118d57600080fd5b505af1158015620011a2573d6000803e3d6000fd5b505050507fc3410033111817a9f2368dcf0ffa3b75f59b894e7233259de58f559d40233cdd818787604051620011db939291906200195c565b60405180910390a195945050505050565b6000828152602081905260409020600101546200120a813362001216565b6200060b83836200130d565b62001222828262000c18565b620007a7576200123d816001600160a01b0316601462001375565b6200124a83602062001375565b6040516020016200125d929190620018b2565b60408051601f198184030181529082905262461bcd60e51b82526200059d9160040162001a90565b62001291828262000c18565b620007a7576000828152602081815260408083206001600160a01b03851684529091529020805460ff19166001179055620012c93390565b6001600160a01b0316816001600160a01b0316837f2f8788117e7eff1d82e926ec794901d17c78024a50270940304540a733656f0d60405160405180910390a45050565b62001319828262000c18565b15620007a7576000828152602081815260408083206001600160a01b0385168085529252808320805460ff1916905551339285917ff6391f5c32d9c69d2a47ea670b442974b53935d1edc7fd64eb21e047a839171b9190a45050565b606060006200138683600262001b52565b6200139390600262001b37565b67ffffffffffffffff811115620013ba57634e487b7160e01b600052604160045260246000fd5b6040519080825280601f01601f191660200182016040528015620013e5576020820181803683370190505b509050600360fc1b816000815181106200140f57634e487b7160e01b600052603260045260246000fd5b60200101906001600160f81b031916908160001a905350600f60fb1b816001815181106200144d57634e487b7160e01b600052603260045260246000fd5b60200101906001600160f81b031916908160001a90535060006200147384600262001b52565b6200148090600162001b37565b90505b60018111156200151a576f181899199a1a9b1b9c1cb0b131b232b360811b85600f1660108110620014c457634e487b7160e01b600052603260045260246000fd5b1a60f81b828281518110620014e957634e487b7160e01b600052603260045260246000fd5b60200101906001600160f81b031916908160001a90535060049490941c93620015128162001bc1565b905062001483565b5083156200156b5760405162461bcd60e51b815260206004820181905260248201527f537472696e67733a20686578206c656e67746820696e73756666696369656e7460448201526064016200059d565b9392505050565b611c538062001c4d83390190565b8280546200158e9062001bdb565b90600052602060002090601f016020900481019282620015b25760008555620015fd565b82601f10620015cd57805160ff1916838001178555620015fd565b82800160010185558215620015fd579182015b82811115620015fd578251825591602001919060010190620015e0565b506200160b9291506200160f565b5090565b5b808211156200160b576000815560010162001610565b80356001600160a01b03811681146200163e57600080fd5b919050565b80356001600160e01b0319811681146200163e57600080fd5b6000602082840312156200166e578081fd5b6200156b8262001626565b600080600080608085870312156200168f578283fd5b6200169a8562001626565b9350620016aa6020860162001626565b92506040850135915060608501358015158114620016c6578182fd5b939692955090935050565b60008060008060608587031215620016e7578384fd5b620016f28562001626565b9350602085013567ffffffffffffffff808211156200170f578485fd5b818701915087601f83011262001723578485fd5b81358181111562001732578586fd5b8860208260051b850101111562001747578586fd5b602083019550809450505050620017616040860162001626565b905092959194509250565b6000602082840312156200177e578081fd5b5035919050565b6000806040838503121562001798578182fd5b82359150620017aa6020840162001626565b90509250929050565b600060208284031215620017c5578081fd5b6200156b8262001643565b60008060008060608587031215620017e6578384fd5b843567ffffffffffffffff80821115620017fe578586fd5b818701915087601f83011262001812578586fd5b81358181111562001821578687fd5b88602082850101111562001833578687fd5b6020928301965094506200184b918701905062001626565b9150620017616040860162001626565b600081518084526200187581602086016020860162001b8e565b601f01601f19169290920160200192915050565b81835281816020850137506000828201602090810191909152601f909101601f19169091010190565b76020b1b1b2b9b9a1b7b73a3937b61d1030b1b1b7bab73a1604d1b815260008351620018e681601785016020880162001b8e565b7001034b99036b4b9b9b4b733903937b6329607d1b60179184019182015283516200191981602884016020880162001b8e565b01602801949350505050565b6001600160a01b0391909116815260200190565b6001600160a01b0393909316835260208301919091521515604082015260600190565b6001600160a01b038416815260406020820181905260009062001983908301848662001889565b95945050505050565b6001600160a01b0383168152604060208201819052600090620019b2908301846200185b565b949350505050565b6040808252810183905260008460608301825b8681101562001a00576001600160e01b0319620019ea8462001643565b16825260209283019290910190600101620019cd565b506001600160a01b03949094166020939093019290925250909392505050565b84815283602082015260018060a01b038316604082015260806060820152600062001a4f60808301846200185b565b9695505050505050565b60608152600062001a6f60608301868862001889565b6001600160a01b039485166020840152929093166040909101529392505050565b6020815260006200156b60208301846200185b565b6020808252600a908201526973616d6520616464727360b01b604082015260600190565b6020808252601290820152715661756c74466163746f72793a207a65726f60701b604082015260600190565b60208082526022908201527f41636365737369626c653a2043616c6c6572206973206e6f7420616e2061646d60408201526134b760f11b606082015260800190565b6000821982111562001b4d5762001b4d62001c36565b500190565b600081600019048311821515161562001b6f5762001b6f62001c36565b500290565b60008282101562001b895762001b8962001c36565b500390565b60005b8381101562001bab57818101518382015260200162001b91565b8381111562001bbb576000848401525b50505050565b60008162001bd35762001bd362001c36565b506000190190565b600181811c9082168062001bf057607f821691505b6020821081141562001c1257634e487b7160e01b600052602260045260246000fd5b50919050565b600060001982141562001c2f5762001c2f62001c36565b5060010190565b634e487b7160e01b600052601160045260246000fdfe608060405260006005553480156200001657600080fd5b50620000437f52eafc11f6f81f86878bffd31109a0d92f37506527754f00788853ff9f63b1308062000082565b6200006f7f52eafc11f6f81f86878bffd31109a0d92f37506527754f00788853ff9f63b13033620000cd565b6200007c600033620000cd565b62000181565b6000828152600d6020526040808220600101805490849055905190918391839186917fbd79b86ffe0ab8e8776151514217cd7cacd52c909f66475c3af44e129f0b00ff9190a4505050565b620000d98282620000dd565b5050565b6000828152600d602090815260408083206001600160a01b038516845290915290205460ff16620000d9576000828152600d602090815260408083206001600160a01b03851684529091529020805460ff191660011790556200013d3390565b6001600160a01b0316816001600160a01b0316837f2f8788117e7eff1d82e926ec794901d17c78024a50270940304540a733656f0d60405160405180910390a45050565b611ac280620001916000396000f3fe6080604052600436106101ee5760003560e01c806375829def1161011357806396f1557c116100ab578063cfc412be1161006f578063cfc412be14610687578063d547741f1461069d578063ed5131f5146106bd578063f47f2f1d146106dd578063fc0c546a146106fd57610237565b806396f1557c146105f25780639a202d4714610612578063a217fddf14610627578063b911135f1461063c578063be72f2d31461067257610237565b806375829def146104d25780637cb00d25146104f25780637cd5f663146105125780638356ca4f146105325780638b8f4a65146105525780638d4fdb40146105725780638da5cb5b1461059257806391d14854146105b2578063927c0dd5146105d257610237565b80633659cfe6116101865780633659cfe61461038257806341c04d5e146103a25780634a5df50f146103c457806350d2a276146103e4578063550d01a31461043257806355640008146104625780635cc797d81461047857806363a8fd891461049857806370480275146104b257610237565b806301ffc9a71461024157806306fdde03146102765780630f4388c014610298578063117ab874146102c6578063248a9ca3146102dc57806324d7806c1461030c578063256019d61461032c5780632f2ff15d1461034257806336568abe1461036257610237565b366102375760405162461bcd60e51b815260206004820152601460248201527331b0b73737ba103932b1b2b4bb329022ba3432b960611b60448201526064015b60405180910390fd5b61023f61071d565b005b34801561024d57600080fd5b5061026161025c3660046116d6565b6107b5565b60405190151581526020015b60405180910390f35b34801561028257600080fd5b5061028b6107ec565b60405161026d9190611831565b3480156102a457600080fd5b506102b86102b336600461169c565b61087a565b60405190815260200161026d565b3480156102d257600080fd5b506102b860055481565b3480156102e857600080fd5b506102b86102f736600461169c565b6000908152600d602052604090206001015490565b34801561031857600080fd5b50610261610327366004611585565b61089b565b34801561033857600080fd5b506102b860045481565b34801561034e57600080fd5b5061023f61035d3660046116b4565b6108b5565b34801561036e57600080fd5b5061023f61037d3660046116b4565b6108db565b34801561038e57600080fd5b5061023f61039d366004611585565b610959565b3480156103ae57600080fd5b506102b8600080516020611a4d83398151915281565b3480156103d057600080fd5b5061023f6103df36600461160c565b610a57565b3480156103f057600080fd5b5061041a6103ff3660046116d6565b600c602052600090815260409020546001600160a01b031681565b6040516001600160a01b03909116815260200161026d565b34801561043e57600080fd5b5061026161044d366004611585565b600b6020526000908152604090205460ff1681565b34801561046e57600080fd5b506102b860035481565b34801561048457600080fd5b5061023f61049336600461159f565b610c21565b3480156104a457600080fd5b506009546102619060ff1681565b3480156104be57600080fd5b5061023f6104cd366004611585565b610c50565b3480156104de57600080fd5b5061023f6104ed366004611585565b610c8d565b3480156104fe57600080fd5b5061023f61050d366004611682565b610d40565b34801561051e57600080fd5b5061023f61052d3660046115d1565b610d87565b34801561053e57600080fd5b5061023f61054d366004611585565b610db7565b34801561055e57600080fd5b5061041a61056d36600461169c565b610e41565b34801561057e57600080fd5b5061041a61058d3660046116d6565b610e5e565b34801561059e57600080fd5b5060015461041a906001600160a01b031681565b3480156105be57600080fd5b506102616105cd3660046116b4565b610f36565b3480156105de57600080fd5b5061023f6105ed3660046116fe565b610f61565b3480156105fe57600080fd5b5061023f61060d366004611585565b610ffe565b34801561061e57600080fd5b5061023f61102e565b34801561063357600080fd5b506102b8600081565b34801561064857600080fd5b5061041a61065736600461169c565b600a602052600090815260409020546001600160a01b031681565b34801561067e57600080fd5b5061023f61107c565b34801561069357600080fd5b506102b860065481565b3480156106a957600080fd5b5061023f6106b83660046116b4565b6110ac565b3480156106c957600080fd5b506102b86106d836600461169c565b6110d2565b3480156106e957600080fd5b506102616106f8366004611585565b6110e2565b34801561070957600080fd5b5060005461041a906001600160a01b031681565b60006107346000356001600160e01b031916610e5e565b90506001600160a01b03811615801590610751575060095460ff16155b61078c5760405162461bcd60e51b815260206004820152600c60248201526b50726f78793a2066616c736560a01b604482015260640161022e565b3660008037600080366000845af43d6000803e8080156107ab573d6000f35b3d6000fd5b505050565b60006001600160e01b03198216637965db0b60e01b14806107e657506301ffc9a760e01b6001600160e01b03198316145b92915050565b600280546107f9906119ca565b80601f0160208091040260200160405190810160405280929190818152602001828054610825906119ca565b80156108725780601f1061084757610100808354040283529160200191610872565b820191906000526020600020905b81548152906001019060200180831161085557829003601f168201915b505050505081565b6008818154811061088a57600080fd5b600091825260209091200154905081565b60006107e6600080516020611a4d83398151915283610f36565b6000828152600d60205260409020600101546108d181336110ee565b6107b08383611152565b6001600160a01b038116331461094b5760405162461bcd60e51b815260206004820152602f60248201527f416363657373436f6e74726f6c3a2063616e206f6e6c792072656e6f756e636560448201526e103937b632b9903337b91039b2b63360891b606482015260840161022e565b61095582826111d8565b5050565b610962336110e2565b61097e5760405162461bcd60e51b815260040161022e906118d8565b6001600160a01b0381166109c45760405162461bcd60e51b815260206004820152600d60248201526c696e707574206973207a65726f60981b604482015260640161022e565b60008052600a602052600080516020611a6d833981519152546001600160a01b0382811691161415610a475760405162461bcd60e51b815260206004820152602660248201527f54686520696e70757420616464726573732069732073616d652061732074686560448201526520737461746560d01b606482015260840161022e565b610a54816000600161123f565b50565b610a60336110e2565b610a7c5760405162461bcd60e51b815260040161022e906118d8565b60005b82811015610c1b57816001600160a01b0316600c6000868685818110610ab557634e487b7160e01b600052603260045260246000fd5b9050602002016020810190610aca91906116d6565b6001600160e01b03191681526020810191909152604001600020546001600160a01b03161415610b2e5760405162461bcd60e51b815260206004820152600f60248201526e050726f78793a2073616d6520696d7608c1b604482015260640161022e565b81600c6000868685818110610b5357634e487b7160e01b600052603260045260246000fd5b9050602002016020810190610b6891906116d6565b6001600160e01b0319168152602081019190915260400160002080546001600160a01b0319166001600160a01b039283161790558216848483818110610bbe57634e487b7160e01b600052603260045260246000fd5b9050602002016020810190610bd391906116d6565b6001600160e01b0319167f14ebc1c32aa68f4d766e89f3e546cee249f7df25183fc10ab1568d91c2ce9b7b60405160405180910390a380610c1381611a05565b915050610a7f565b50505050565b610c2a336110e2565b610c465760405162461bcd60e51b815260040161022e906118d8565b6109558282611273565b610c59336110e2565b610c755760405162461bcd60e51b815260040161022e906118d8565b610a54600080516020611a4d833981519152826108b5565b610c963361089b565b80610ca55750610ca5336110e2565b610cc15760405162461bcd60e51b815260040161022e90611864565b6001600160a01b038116610ce75760405162461bcd60e51b815260040161022e906118a6565b336001600160a01b0382161415610d105760405162461bcd60e51b815260040161022e90611920565b610d28600080516020611a4d833981519152826108b5565b610a54600080516020611a4d833981519152336108db565b610d493361089b565b80610d585750610d58336110e2565b610d745760405162461bcd60e51b815260040161022e90611864565b6009805460ff1916911515919091179055565b610d90336110e2565b610dac5760405162461bcd60e51b815260040161022e906118d8565b6107b083838361123f565b610dc0336110e2565b610ddc5760405162461bcd60e51b815260040161022e906118d8565b6001600160a01b038116610e025760405162461bcd60e51b815260040161022e906118a6565b336001600160a01b0382161415610e2b5760405162461bcd60e51b815260040161022e90611920565b610e366000826108b5565b610a546000336108db565b6000818152600a60205260408120546001600160a01b03166107e6565b6001600160e01b031981166000908152600c60205260408120546001600160a01b0316610eac57505060008052600a602052600080516020611a6d833981519152546001600160a01b031690565b6001600160e01b031982166000908152600c60209081526040808320546001600160a01b03168352600b90915290205460ff1615610f0a57506001600160e01b0319166000908152600c60205260409020546001600160a01b031690565b505060008052600a602052600080516020611a6d833981519152546001600160a01b031690565b919050565b6000918252600d602090815260408084206001600160a01b0393909316845291905290205460ff1690565b610f6a3361089b565b80610f795750610f79336110e2565b610f955760405162461bcd60e51b815260040161022e90611864565b8251610fa89060029060208601906114c5565b50600080546001600160a01b038085166001600160a01b0319928316179092556001805492841692909116919091179055610fe28161089b565b6107b0576107b0600080516020611a4d833981519152826112d2565b611007336110e2565b6110235760405162461bcd60e51b815260040161022e906118d8565b610a546000826112d2565b6110373361089b565b806110465750611046336110e2565b6110625760405162461bcd60e51b815260040161022e90611864565b61107a600080516020611a4d833981519152336108db565b565b611085336110e2565b6110a15760405162461bcd60e51b815260040161022e906118d8565b61107a6000336108db565b6000828152600d60205260409020600101546110c881336110ee565b6107b083836111d8565b6007818154811061088a57600080fd5b60006107e68183610f36565b6110f88282610f36565b61095557611110816001600160a01b031660146112dc565b61111b8360206112dc565b60405160200161112c9291906117c2565b60408051601f198184030181529082905262461bcd60e51b825261022e91600401611831565b61115c8282610f36565b610955576000828152600d602090815260408083206001600160a01b03851684529091529020805460ff191660011790556111943390565b6001600160a01b0316816001600160a01b0316837f2f8788117e7eff1d82e926ec794901d17c78024a50270940304540a733656f0d60405160405180910390a45050565b6111e28282610f36565b15610955576000828152600d602090815260408083206001600160a01b0385168085529252808320805460ff1916905551339285917ff6391f5c32d9c69d2a47ea670b442974b53935d1edc7fd64eb21e047a839171b9190a45050565b801561126d576000828152600a6020526040902080546001600160a01b0319166001600160a01b0385161790555b6107b083825b6001600160a01b0382166000818152600b6020908152604091829020805460ff191685151590811790915591519182527f72558d9bfba4210f9ef095c782589484151f6d90f7a81bb3cb9b33efc695d324910160405180910390a25050565b6109558282611152565b606060006112eb836002611968565b6112f6906002611950565b67ffffffffffffffff81111561131c57634e487b7160e01b600052604160045260246000fd5b6040519080825280601f01601f191660200182016040528015611346576020820181803683370190505b509050600360fc1b8160008151811061136f57634e487b7160e01b600052603260045260246000fd5b60200101906001600160f81b031916908160001a905350600f60fb1b816001815181106113ac57634e487b7160e01b600052603260045260246000fd5b60200101906001600160f81b031916908160001a90535060006113d0846002611968565b6113db906001611950565b90505b600181111561146f576f181899199a1a9b1b9c1cb0b131b232b360811b85600f166010811061141d57634e487b7160e01b600052603260045260246000fd5b1a60f81b82828151811061144157634e487b7160e01b600052603260045260246000fd5b60200101906001600160f81b031916908160001a90535060049490941c93611468816119b3565b90506113de565b5083156114be5760405162461bcd60e51b815260206004820181905260248201527f537472696e67733a20686578206c656e67746820696e73756666696369656e74604482015260640161022e565b9392505050565b8280546114d1906119ca565b90600052602060002090601f0160209004810192826114f35760008555611539565b82601f1061150c57805160ff1916838001178555611539565b82800160010185558215611539579182015b8281111561153957825182559160200191906001019061151e565b50611545929150611549565b5090565b5b80821115611545576000815560010161154a565b80356001600160a01b0381168114610f3157600080fd5b80358015158114610f3157600080fd5b600060208284031215611596578081fd5b6114be8261155e565b600080604083850312156115b1578081fd5b6115ba8361155e565b91506115c860208401611575565b90509250929050565b6000806000606084860312156115e5578081fd5b6115ee8461155e565b92506020840135915061160360408501611575565b90509250925092565b600080600060408486031215611620578283fd5b833567ffffffffffffffff80821115611637578485fd5b818601915086601f83011261164a578485fd5b813581811115611658578586fd5b8760208260051b850101111561166c578586fd5b602092830195509350611603918601905061155e565b600060208284031215611693578081fd5b6114be82611575565b6000602082840312156116ad578081fd5b5035919050565b600080604083850312156116c6578182fd5b823591506115c86020840161155e565b6000602082840312156116e7578081fd5b81356001600160e01b0319811681146114be578182fd5b600080600060608486031215611712578283fd5b833567ffffffffffffffff80821115611729578485fd5b818601915086601f83011261173c578485fd5b81358181111561174e5761174e611a36565b604051601f8201601f19908116603f0116810190838211818310171561177657611776611a36565b8160405282815289602084870101111561178e578788fd5b82602086016020830137876020848301015280975050505050506117b46020850161155e565b91506116036040850161155e565b76020b1b1b2b9b9a1b7b73a3937b61d1030b1b1b7bab73a1604d1b8152600083516117f4816017850160208801611987565b7001034b99036b4b9b9b4b733903937b6329607d1b6017918401918201528351611825816028840160208801611987565b01602801949350505050565b6020815260008251806020840152611850816040850160208701611987565b601f01601f19169190910160400192915050565b60208082526022908201527f41636365737369626c653a2043616c6c6572206973206e6f7420616e2061646d60408201526134b760f11b606082015260800190565b60208082526018908201527741636365737369626c653a207a65726f206164647265737360401b604082015260600190565b60208082526028908201527f41636365737369626c653a2043616c6c6572206973206e6f7420616e2070726f6040820152673c3c9030b236b4b760c11b606082015260800190565b60208082526016908201527520b1b1b2b9b9b4b136329d1039b0b6b29030b236b4b760511b604082015260600190565b6000821982111561196357611963611a20565b500190565b600081600019048311821515161561198257611982611a20565b500290565b60005b838110156119a257818101518382015260200161198a565b83811115610c1b5750506000910152565b6000816119c2576119c2611a20565b506000190190565b600181811c908216806119de57607f821691505b602082108114156119ff57634e487b7160e01b600052602260045260246000fd5b50919050565b6000600019821415611a1957611a19611a20565b5060010190565b634e487b7160e01b600052601160045260246000fd5b634e487b7160e01b600052604160045260246000fdfe52eafc11f6f81f86878bffd31109a0d92f37506527754f00788853ff9f63b13013da86008ba1c6922daee3e07db95305ef49ebced9f5467a0b8613fcc6b343e3a26469706673582212205a23f1d2ea08b0d37eef8bbb9ddc4ee33c9909b356b1b560e08622e7db577f2864736f6c63430008040033df8b4c520ffe197c5343c6f5aec59570151ef9a492f2c624fd45ddde6135ec42a26469706673582212202258ce3555797997aeb8de1db79b17fa4d6189f61087117aebf03c476bb55e8964736f6c63430008040033df8b4c520ffe197c5343c6f5aec59570151ef9a492f2c624fd45ddde6135ec42",
  "linkReferences": {},
  "deployedLinkReferences": {}
}