{
  "_format": "hh-sol-artifact-1",
  "contractName": "InitialLiquidityVault1",
  "sourceName": "contracts/typeFVault/InitialLiquidityVault1.sol",
  "abi": [
    {
      "inputs": [],
      "stateMutability": "nonpayable",
      "type": "constructor"
    },
    {
      "anonymous": false,
      "inputs": [
        {
          "indexed": false,
          "internalType": "address",
          "name": "token",
          "type": "address"
        }
      ],
      "name": "ChangedToken",
      "type": "event"
    },
    {
      "anonymous": false,
      "inputs": [
        {
          "indexed": true,
          "internalType": "uint256",
          "name": "tokenId",
          "type": "uint256"
        },
        {
          "indexed": false,
          "internalType": "uint256",
          "name": "amount0",
          "type": "uint256"
        },
        {
          "indexed": false,
          "internalType": "uint256",
          "name": "amount1",
          "type": "uint256"
        }
      ],
      "name": "CollectInVault",
      "type": "event"
    },
    {
      "anonymous": false,
      "inputs": [
        {
          "indexed": true,
          "internalType": "uint256",
          "name": "tokenId",
          "type": "uint256"
        },
        {
          "indexed": false,
          "internalType": "uint128",
          "name": "liquidity",
          "type": "uint128"
        },
        {
          "indexed": false,
          "internalType": "uint256",
          "name": "amount0",
          "type": "uint256"
        },
        {
          "indexed": false,
          "internalType": "uint256",
          "name": "amount1",
          "type": "uint256"
        }
      ],
      "name": "IncreaseLiquidityInVault",
      "type": "event"
    },
    {
      "anonymous": false,
      "inputs": [
        {
          "indexed": false,
          "internalType": "uint256",
          "name": "_totalAllocatedAmount",
          "type": "uint256"
        }
      ],
      "name": "Initialized",
      "type": "event"
    },
    {
      "anonymous": false,
      "inputs": [
        {
          "indexed": true,
          "internalType": "address",
          "name": "caller",
          "type": "address"
        },
        {
          "indexed": false,
          "internalType": "uint256",
          "name": "tokenId",
          "type": "uint256"
        },
        {
          "indexed": false,
          "internalType": "uint128",
          "name": "liquidity",
          "type": "uint128"
        },
        {
          "indexed": false,
          "internalType": "uint256",
          "name": "amount0",
          "type": "uint256"
        },
        {
          "indexed": false,
          "internalType": "uint256",
          "name": "amount1",
          "type": "uint256"
        }
      ],
      "name": "MintedInVault",
      "type": "event"
    },
    {
      "anonymous": false,
      "inputs": [
        {
          "indexed": true,
          "internalType": "bytes32",
          "name": "role",
          "type": "bytes32"
        },
        {
          "indexed": true,
          "internalType": "bytes32",
          "name": "previousAdminRole",
          "type": "bytes32"
        },
        {
          "indexed": true,
          "internalType": "bytes32",
          "name": "newAdminRole",
          "type": "bytes32"
        }
      ],
      "name": "RoleAdminChanged",
      "type": "event"
    },
    {
      "anonymous": false,
      "inputs": [
        {
          "indexed": true,
          "internalType": "bytes32",
          "name": "role",
          "type": "bytes32"
        },
        {
          "indexed": true,
          "internalType": "address",
          "name": "account",
          "type": "address"
        },
        {
          "indexed": true,
          "internalType": "address",
          "name": "sender",
          "type": "address"
        }
      ],
      "name": "RoleGranted",
      "type": "event"
    },
    {
      "anonymous": false,
      "inputs": [
        {
          "indexed": true,
          "internalType": "bytes32",
          "name": "role",
          "type": "bytes32"
        },
        {
          "indexed": true,
          "internalType": "address",
          "name": "account",
          "type": "address"
        },
        {
          "indexed": true,
          "internalType": "address",
          "name": "sender",
          "type": "address"
        }
      ],
      "name": "RoleRevoked",
      "type": "event"
    },
    {
      "anonymous": false,
      "inputs": [
        {
          "indexed": false,
          "internalType": "string",
          "name": "name",
          "type": "string"
        },
        {
          "indexed": false,
          "internalType": "address",
          "name": "token",
          "type": "address"
        },
        {
          "indexed": false,
          "internalType": "address",
          "name": "owner",
          "type": "address"
        }
      ],
      "name": "SetBaseInfo",
      "type": "event"
    },
    {
      "anonymous": false,
      "inputs": [
        {
          "indexed": false,
          "internalType": "bool",
          "name": "boolReadyToCreatePool",
          "type": "bool"
        }
      ],
      "name": "SetBoolReadyToCreatePool",
      "type": "event"
    },
    {
      "anonymous": false,
      "inputs": [
        {
          "indexed": false,
          "internalType": "uint256",
          "name": "tosPrice",
          "type": "uint256"
        },
        {
          "indexed": false,
          "internalType": "uint256",
          "name": "tokenPrice",
          "type": "uint256"
        },
        {
          "indexed": false,
          "internalType": "uint160",
          "name": "initSqrtPrice",
          "type": "uint160"
        }
      ],
      "name": "SetInitialPrice",
      "type": "event"
    },
    {
      "anonymous": false,
      "inputs": [
        {
          "indexed": false,
          "internalType": "address",
          "name": "pool",
          "type": "address"
        },
        {
          "indexed": false,
          "internalType": "address",
          "name": "token0",
          "type": "address"
        },
        {
          "indexed": false,
          "internalType": "address",
          "name": "token1",
          "type": "address"
        }
      ],
      "name": "SetPool",
      "type": "event"
    },
    {
      "anonymous": false,
      "inputs": [
        {
          "indexed": false,
          "internalType": "uint160",
          "name": "inSqrtPriceX96",
          "type": "uint160"
        }
      ],
      "name": "SetPoolInitialized",
      "type": "event"
    },
    {
      "anonymous": false,
      "inputs": [
        {
          "indexed": false,
          "internalType": "uint256",
          "name": "_startTime",
          "type": "uint256"
        }
      ],
      "name": "SetStartTime",
      "type": "event"
    },
    {
      "anonymous": false,
      "inputs": [
        {
          "indexed": false,
          "internalType": "address",
          "name": "tos",
          "type": "address"
        },
        {
          "indexed": false,
          "internalType": "uint24",
          "name": "fee",
          "type": "uint24"
        },
        {
          "indexed": false,
          "internalType": "int24",
          "name": "tickSpacings",
          "type": "int24"
        }
      ],
      "name": "SetTokens",
      "type": "event"
    },
    {
      "anonymous": false,
      "inputs": [
        {
          "indexed": false,
          "internalType": "address",
          "name": "poolfactory",
          "type": "address"
        },
        {
          "indexed": false,
          "internalType": "address",
          "name": "npm",
          "type": "address"
        }
      ],
      "name": "SetUniswapInfo",
      "type": "event"
    },
    {
      "anonymous": false,
      "inputs": [
        {
          "indexed": false,
          "internalType": "address",
          "name": "caller",
          "type": "address"
        },
        {
          "indexed": false,
          "internalType": "address",
          "name": "tokenAddress",
          "type": "address"
        },
        {
          "indexed": false,
          "internalType": "address",
          "name": "to",
          "type": "address"
        },
        {
          "indexed": false,
          "internalType": "uint256",
          "name": "amount",
          "type": "uint256"
        }
      ],
      "name": "WithdrawalInVault",
      "type": "event"
    },
    {
      "inputs": [],
      "name": "DEFAULT_ADMIN_ROLE",
      "outputs": [
        {
          "internalType": "bytes32",
          "name": "",
          "type": "bytes32"
        }
      ],
      "stateMutability": "view",
      "type": "function"
    },
    {
      "inputs": [],
      "name": "NonfungiblePositionManager",
      "outputs": [
        {
          "internalType": "contract INonfungiblePositionManager",
          "name": "",
          "type": "address"
        }
      ],
      "stateMutability": "view",
      "type": "function"
    },
    {
      "inputs": [],
      "name": "PROJECT_ADMIN_ROLE",
      "outputs": [
        {
          "internalType": "bytes32",
          "name": "",
          "type": "bytes32"
        }
      ],
      "stateMutability": "view",
      "type": "function"
    },
    {
      "inputs": [],
      "name": "TOS",
      "outputs": [
        {
          "internalType": "contract IERC20",
          "name": "",
          "type": "address"
        }
      ],
      "stateMutability": "view",
      "type": "function"
    },
    {
      "inputs": [],
      "name": "UniswapV3Factory",
      "outputs": [
        {
          "internalType": "contract IUniswapV3Factory",
          "name": "",
          "type": "address"
        }
      ],
      "stateMutability": "view",
      "type": "function"
    },
    {
      "inputs": [
        {
          "internalType": "int24",
          "name": "_tick",
          "type": "int24"
        },
        {
          "internalType": "int24",
          "name": "_tickSpacings",
          "type": "int24"
        }
      ],
      "name": "acceptMaxTick",
      "outputs": [
        {
          "internalType": "int24",
          "name": "",
          "type": "int24"
        }
      ],
      "stateMutability": "view",
      "type": "function"
    },
    {
      "inputs": [
        {
          "internalType": "int24",
          "name": "_tick",
          "type": "int24"
        },
        {
          "internalType": "int24",
          "name": "_tickSpacings",
          "type": "int24"
        }
      ],
      "name": "acceptMinTick",
      "outputs": [
        {
          "internalType": "int24",
          "name": "",
          "type": "int24"
        }
      ],
      "stateMutability": "view",
      "type": "function"
    },
    {
      "inputs": [
        {
          "internalType": "address",
          "name": "account",
          "type": "address"
        }
      ],
      "name": "addAdmin",
      "outputs": [],
      "stateMutability": "nonpayable",
      "type": "function"
    },
    {
      "inputs": [
        {
          "internalType": "address",
          "name": "_owner",
          "type": "address"
        }
      ],
      "name": "addProxyAdmin",
      "outputs": [],
      "stateMutability": "nonpayable",
      "type": "function"
    },
    {
      "inputs": [
        {
          "internalType": "address",
          "name": "",
          "type": "address"
        }
      ],
      "name": "aliveImplementation",
      "outputs": [
        {
          "internalType": "bool",
          "name": "",
          "type": "bool"
        }
      ],
      "stateMutability": "view",
      "type": "function"
    },
    {
      "inputs": [],
      "name": "allClaimInfos",
      "outputs": [
        {
          "internalType": "uint256",
          "name": "",
          "type": "uint256"
        },
        {
          "internalType": "uint256[]",
          "name": "",
          "type": "uint256[]"
        },
        {
          "internalType": "uint256[]",
          "name": "",
          "type": "uint256[]"
        },
        {
          "internalType": "uint256",
          "name": "",
          "type": "uint256"
        }
      ],
      "stateMutability": "view",
      "type": "function"
    },
    {
      "inputs": [],
      "name": "boolLogEvent",
      "outputs": [
        {
          "internalType": "bool",
          "name": "",
          "type": "bool"
        }
      ],
      "stateMutability": "view",
      "type": "function"
    },
    {
      "inputs": [],
      "name": "boolReadyToCreatePool",
      "outputs": [
        {
          "internalType": "bool",
          "name": "",
          "type": "bool"
        }
      ],
      "stateMutability": "view",
      "type": "function"
    },
    {
      "inputs": [
        {
          "internalType": "uint256",
          "name": "",
          "type": "uint256"
        }
      ],
      "name": "claimAmounts",
      "outputs": [
        {
          "internalType": "uint256",
          "name": "",
          "type": "uint256"
        }
      ],
      "stateMutability": "view",
      "type": "function"
    },
    {
      "inputs": [
        {
          "internalType": "uint256",
          "name": "",
          "type": "uint256"
        }
      ],
      "name": "claimTimes",
      "outputs": [
        {
          "internalType": "uint256",
          "name": "",
          "type": "uint256"
        }
      ],
      "stateMutability": "view",
      "type": "function"
    },
    {
      "inputs": [],
      "name": "collect",
      "outputs": [],
      "stateMutability": "nonpayable",
      "type": "function"
    },
    {
      "inputs": [
        {
          "internalType": "address",
          "name": "tokenA",
          "type": "address"
        },
        {
          "internalType": "address",
          "name": "tokenB",
          "type": "address"
        },
        {
          "internalType": "uint24",
          "name": "_fee",
          "type": "uint24"
        }
      ],
      "name": "computePoolAddress",
      "outputs": [
        {
          "internalType": "address",
          "name": "pool",
          "type": "address"
        },
        {
          "internalType": "address",
          "name": "token0",
          "type": "address"
        },
        {
          "internalType": "address",
          "name": "token1",
          "type": "address"
        }
      ],
      "stateMutability": "view",
      "type": "function"
    },
    {
      "inputs": [],
      "name": "currentTick",
      "outputs": [
        {
          "internalType": "uint160",
          "name": "sqrtPriceX96",
          "type": "uint160"
        },
        {
          "internalType": "int24",
          "name": "tick",
          "type": "int24"
        }
      ],
      "stateMutability": "view",
      "type": "function"
    },
    {
      "inputs": [],
      "name": "fee",
      "outputs": [
        {
          "internalType": "uint24",
          "name": "",
          "type": "uint24"
        }
      ],
      "stateMutability": "view",
      "type": "function"
    },
    {
      "inputs": [
        {
          "internalType": "address",
          "name": "token0",
          "type": "address"
        },
        {
          "internalType": "address",
          "name": "token1",
          "type": "address"
        }
      ],
      "name": "getDecimals",
      "outputs": [
        {
          "internalType": "uint256",
          "name": "token0Decimals",
          "type": "uint256"
        },
        {
          "internalType": "uint256",
          "name": "token1Decimals",
          "type": "uint256"
        }
      ],
      "stateMutability": "view",
      "type": "function"
    },
    {
      "inputs": [],
      "name": "getMaxTick",
      "outputs": [
        {
          "internalType": "int24",
          "name": "",
          "type": "int24"
        }
      ],
      "stateMutability": "view",
      "type": "function"
    },
    {
      "inputs": [
        {
          "internalType": "int24",
          "name": "tickSpacings",
          "type": "int24"
        }
      ],
      "name": "getMaxTick",
      "outputs": [
        {
          "internalType": "int24",
          "name": "",
          "type": "int24"
        }
      ],
      "stateMutability": "pure",
      "type": "function"
    },
    {
      "inputs": [],
      "name": "getMinTick",
      "outputs": [
        {
          "internalType": "int24",
          "name": "",
          "type": "int24"
        }
      ],
      "stateMutability": "view",
      "type": "function"
    },
    {
      "inputs": [
        {
          "internalType": "int24",
          "name": "tickSpacings",
          "type": "int24"
        }
      ],
      "name": "getMiniTick",
      "outputs": [
        {
          "internalType": "int24",
          "name": "",
          "type": "int24"
        }
      ],
      "stateMutability": "pure",
      "type": "function"
    },
    {
      "inputs": [
        {
          "internalType": "address",
          "name": "poolAddress",
          "type": "address"
        }
      ],
      "name": "getPriceToken0",
      "outputs": [
        {
          "internalType": "uint256",
          "name": "priceX96",
          "type": "uint256"
        }
      ],
      "stateMutability": "view",
      "type": "function"
    },
    {
      "inputs": [
        {
          "internalType": "address",
          "name": "poolAddress",
          "type": "address"
        }
      ],
      "name": "getPriceToken1",
      "outputs": [
        {
          "internalType": "uint256",
          "name": "priceX96",
          "type": "uint256"
        }
      ],
      "stateMutability": "view",
      "type": "function"
    },
    {
      "inputs": [
        {
          "internalType": "uint160",
          "name": "sqrtPriceX96",
          "type": "uint160"
        }
      ],
      "name": "getPriceX96FromSqrtPriceX96",
      "outputs": [
        {
          "internalType": "uint256",
          "name": "priceX96",
          "type": "uint256"
        }
      ],
      "stateMutability": "pure",
      "type": "function"
    },
    {
      "inputs": [
        {
          "internalType": "int24",
          "name": "tick",
          "type": "int24"
        },
        {
          "internalType": "uint128",
          "name": "amountIn",
          "type": "uint128"
        },
        {
          "internalType": "address",
          "name": "baseToken",
          "type": "address"
        },
        {
          "internalType": "address",
          "name": "quoteToken",
          "type": "address"
        }
      ],
      "name": "getQuoteAtTick",
      "outputs": [
        {
          "internalType": "uint256",
          "name": "amountOut",
          "type": "uint256"
        }
      ],
      "stateMutability": "pure",
      "type": "function"
    },
    {
      "inputs": [
        {
          "internalType": "bytes32",
          "name": "role",
          "type": "bytes32"
        }
      ],
      "name": "getRoleAdmin",
      "outputs": [
        {
          "internalType": "bytes32",
          "name": "",
          "type": "bytes32"
        }
      ],
      "stateMutability": "view",
      "type": "function"
    },
    {
      "inputs": [
        {
          "internalType": "int24",
          "name": "tick",
          "type": "int24"
        }
      ],
      "name": "getSqrtRatioAtTick",
      "outputs": [
        {
          "internalType": "uint160",
          "name": "",
          "type": "uint160"
        }
      ],
      "stateMutability": "pure",
      "type": "function"
    },
    {
      "inputs": [
        {
          "internalType": "uint160",
          "name": "sqrtPriceX96",
          "type": "uint160"
        }
      ],
      "name": "getTickAtSqrtRatio",
      "outputs": [
        {
          "internalType": "int24",
          "name": "",
          "type": "int24"
        }
      ],
      "stateMutability": "pure",
      "type": "function"
    },
    {
      "inputs": [
        {
          "internalType": "uint24",
          "name": "_fee",
          "type": "uint24"
        }
      ],
      "name": "getTickSpacing",
      "outputs": [
        {
          "internalType": "int24",
          "name": "tickSpacings",
          "type": "int24"
        }
      ],
      "stateMutability": "pure",
      "type": "function"
    },
    {
      "inputs": [
        {
          "internalType": "bytes32",
          "name": "role",
          "type": "bytes32"
        },
        {
          "internalType": "address",
          "name": "account",
          "type": "address"
        }
      ],
      "name": "grantRole",
      "outputs": [],
      "stateMutability": "nonpayable",
      "type": "function"
    },
    {
      "inputs": [
        {
          "internalType": "bytes32",
          "name": "role",
          "type": "bytes32"
        },
        {
          "internalType": "address",
          "name": "account",
          "type": "address"
        }
      ],
      "name": "hasRole",
      "outputs": [
        {
          "internalType": "bool",
          "name": "",
          "type": "bool"
        }
      ],
      "stateMutability": "view",
      "type": "function"
    },
    {
      "inputs": [],
      "name": "initSqrtPriceX96",
      "outputs": [
        {
          "internalType": "uint160",
          "name": "",
          "type": "uint160"
        }
      ],
      "stateMutability": "view",
      "type": "function"
    },
    {
      "inputs": [],
      "name": "initialTokenPrice",
      "outputs": [
        {
          "internalType": "uint256",
          "name": "",
          "type": "uint256"
        }
      ],
      "stateMutability": "view",
      "type": "function"
    },
    {
      "inputs": [],
      "name": "initialTosPrice",
      "outputs": [
        {
          "internalType": "uint256",
          "name": "",
          "type": "uint256"
        }
      ],
      "stateMutability": "view",
      "type": "function"
    },
    {
      "inputs": [
        {
          "internalType": "uint256",
          "name": "_totalAllocatedAmount",
          "type": "uint256"
        },
        {
          "internalType": "uint256",
          "name": "tosPrice",
          "type": "uint256"
        },
        {
          "internalType": "uint256",
          "name": "tokenPrice",
          "type": "uint256"
        },
        {
          "internalType": "uint160",
          "name": "initSqrtPrice",
          "type": "uint160"
        },
        {
          "internalType": "uint256",
          "name": "_startTime",
          "type": "uint256"
        }
      ],
      "name": "initialize",
      "outputs": [],
      "stateMutability": "nonpayable",
      "type": "function"
    },
    {
      "inputs": [
        {
          "internalType": "address",
          "name": "account",
          "type": "address"
        }
      ],
      "name": "isAdmin",
      "outputs": [
        {
          "internalType": "bool",
          "name": "",
          "type": "bool"
        }
      ],
      "stateMutability": "view",
      "type": "function"
    },
    {
      "inputs": [
        {
          "internalType": "address",
          "name": "account",
          "type": "address"
        }
      ],
      "name": "isProxyAdmin",
      "outputs": [
        {
          "internalType": "bool",
          "name": "",
          "type": "bool"
        }
      ],
      "stateMutability": "view",
      "type": "function"
    },
    {
      "inputs": [],
      "name": "logEventAddress",
      "outputs": [
        {
          "internalType": "address",
          "name": "",
          "type": "address"
        }
      ],
      "stateMutability": "view",
      "type": "function"
    },
    {
      "inputs": [],
      "name": "lpToken",
      "outputs": [
        {
          "internalType": "uint256",
          "name": "",
          "type": "uint256"
        }
      ],
      "stateMutability": "view",
      "type": "function"
    },
    {
      "inputs": [
        {
          "internalType": "uint256",
          "name": "tosAmount",
          "type": "uint256"
        }
      ],
      "name": "mint",
      "outputs": [],
      "stateMutability": "nonpayable",
      "type": "function"
    },
    {
      "inputs": [],
      "name": "name",
      "outputs": [
        {
          "internalType": "string",
          "name": "",
          "type": "string"
        }
      ],
      "stateMutability": "view",
      "type": "function"
    },
    {
      "inputs": [],
      "name": "nowClaimRound",
      "outputs": [
        {
          "internalType": "uint256",
          "name": "",
          "type": "uint256"
        }
      ],
      "stateMutability": "view",
      "type": "function"
    },
    {
      "inputs": [],
      "name": "pauseProxy",
      "outputs": [
        {
          "internalType": "bool",
          "name": "",
          "type": "bool"
        }
      ],
      "stateMutability": "view",
      "type": "function"
    },
    {
      "inputs": [],
      "name": "pool",
      "outputs": [
        {
          "internalType": "contract IUniswapV3Pool",
          "name": "",
          "type": "address"
        }
      ],
      "stateMutability": "view",
      "type": "function"
    },
    {
      "inputs": [
        {
          "internalType": "uint256",
          "name": "",
          "type": "uint256"
        }
      ],
      "name": "proxyImplementation",
      "outputs": [
        {
          "internalType": "address",
          "name": "",
          "type": "address"
        }
      ],
      "stateMutability": "view",
      "type": "function"
    },
    {
      "inputs": [],
      "name": "removeAdmin",
      "outputs": [],
      "stateMutability": "nonpayable",
      "type": "function"
    },
    {
      "inputs": [],
      "name": "removeProxyAdmin",
      "outputs": [],
      "stateMutability": "nonpayable",
      "type": "function"
    },
    {
      "inputs": [
        {
          "internalType": "bytes32",
          "name": "role",
          "type": "bytes32"
        },
        {
          "internalType": "address",
          "name": "account",
          "type": "address"
        }
      ],
      "name": "renounceRole",
      "outputs": [],
      "stateMutability": "nonpayable",
      "type": "function"
    },
    {
      "inputs": [
        {
          "internalType": "bytes32",
          "name": "role",
          "type": "bytes32"
        },
        {
          "internalType": "address",
          "name": "account",
          "type": "address"
        }
      ],
      "name": "revokeRole",
      "outputs": [],
      "stateMutability": "nonpayable",
      "type": "function"
    },
    {
      "inputs": [
        {
          "internalType": "bytes4",
          "name": "",
          "type": "bytes4"
        }
      ],
      "name": "selectorImplementation",
      "outputs": [
        {
          "internalType": "address",
          "name": "",
          "type": "address"
        }
      ],
      "stateMutability": "view",
      "type": "function"
    },
    {
      "inputs": [
        {
          "internalType": "int24",
          "name": "_value",
          "type": "int24"
        }
      ],
      "name": "setAcceptSlippagePrice",
      "outputs": [],
      "stateMutability": "nonpayable",
      "type": "function"
    },
    {
      "inputs": [
        {
          "internalType": "int24",
          "name": "_interval",
          "type": "int24"
        }
      ],
      "name": "setAcceptTickChangeInterval",
      "outputs": [],
      "stateMutability": "nonpayable",
      "type": "function"
    },
    {
      "inputs": [
        {
          "internalType": "bool",
          "name": "_boolReadyToCreatePool",
          "type": "bool"
        }
      ],
      "name": "setBoolReadyToCreatePool",
      "outputs": [],
      "stateMutability": "nonpayable",
      "type": "function"
    },
    {
      "inputs": [],
      "name": "setCreatePool",
      "outputs": [],
      "stateMutability": "nonpayable",
      "type": "function"
    },
    {
      "inputs": [],
      "name": "setPool",
      "outputs": [],
      "stateMutability": "nonpayable",
      "type": "function"
    },
    {
      "inputs": [
        {
          "internalType": "uint160",
          "name": "inSqrtPriceX96",
          "type": "uint160"
        }
      ],
      "name": "setPoolInitialize",
      "outputs": [],
      "stateMutability": "nonpayable",
      "type": "function"
    },
    {
      "inputs": [
        {
          "internalType": "uint256",
          "name": "_startTime",
          "type": "uint256"
        }
      ],
      "name": "setStartTime",
      "outputs": [],
      "stateMutability": "nonpayable",
      "type": "function"
    },
    {
      "inputs": [
        {
          "internalType": "uint32",
          "name": "value",
          "type": "uint32"
        }
      ],
      "name": "setTWAP_PERIOD",
      "outputs": [],
      "stateMutability": "nonpayable",
      "type": "function"
    },
    {
      "inputs": [
        {
          "internalType": "address",
          "name": "tos",
          "type": "address"
        },
        {
          "internalType": "uint24",
          "name": "_fee",
          "type": "uint24"
        }
      ],
      "name": "setTokens",
      "outputs": [],
      "stateMutability": "nonpayable",
      "type": "function"
    },
    {
      "inputs": [
        {
          "internalType": "address",
          "name": "poolfactory",
          "type": "address"
        },
        {
          "internalType": "address",
          "name": "npm",
          "type": "address"
        }
      ],
      "name": "setUniswapInfo",
      "outputs": [],
      "stateMutability": "nonpayable",
      "type": "function"
    },
    {
      "inputs": [],
      "name": "startTime",
      "outputs": [
        {
          "internalType": "uint256",
          "name": "",
          "type": "uint256"
        }
      ],
      "stateMutability": "view",
      "type": "function"
    },
    {
      "inputs": [
        {
          "internalType": "bytes4",
          "name": "interfaceId",
          "type": "bytes4"
        }
      ],
      "name": "supportsInterface",
      "outputs": [
        {
          "internalType": "bool",
          "name": "",
          "type": "bool"
        }
      ],
      "stateMutability": "view",
      "type": "function"
    },
    {
      "inputs": [],
      "name": "tickIntervalMinimum",
      "outputs": [
        {
          "internalType": "int24",
          "name": "",
          "type": "int24"
        }
      ],
      "stateMutability": "view",
      "type": "function"
    },
    {
      "inputs": [],
      "name": "token",
      "outputs": [
        {
          "internalType": "contract IERC20",
          "name": "",
          "type": "address"
        }
      ],
      "stateMutability": "view",
      "type": "function"
    },
    {
      "inputs": [],
      "name": "token0Address",
      "outputs": [
        {
          "internalType": "address",
          "name": "",
          "type": "address"
        }
      ],
      "stateMutability": "view",
      "type": "function"
    },
    {
      "inputs": [],
      "name": "token1Address",
      "outputs": [
        {
          "internalType": "address",
          "name": "",
          "type": "address"
        }
      ],
      "stateMutability": "view",
      "type": "function"
    },
    {
      "inputs": [],
      "name": "totalAllocatedAmount",
      "outputs": [
        {
          "internalType": "uint256",
          "name": "",
          "type": "uint256"
        }
      ],
      "stateMutability": "view",
      "type": "function"
    },
    {
      "inputs": [],
      "name": "totalClaimCounts",
      "outputs": [
        {
          "internalType": "uint256",
          "name": "",
          "type": "uint256"
        }
      ],
      "stateMutability": "view",
      "type": "function"
    },
    {
      "inputs": [],
      "name": "totalClaimsAmount",
      "outputs": [
        {
          "internalType": "uint256",
          "name": "",
          "type": "uint256"
        }
      ],
      "stateMutability": "view",
      "type": "function"
    },
    {
      "inputs": [
        {
          "internalType": "address",
          "name": "newAdmin",
          "type": "address"
        }
      ],
      "name": "transferAdmin",
      "outputs": [],
      "stateMutability": "nonpayable",
      "type": "function"
    },
    {
      "inputs": [
        {
          "internalType": "address",
          "name": "newAdmin",
          "type": "address"
        }
      ],
      "name": "transferProxyAdmin",
      "outputs": [],
      "stateMutability": "nonpayable",
      "type": "function"
    }
  ],
  "bytecode": "0x6080604052600060105534801561001557600080fd5b506001600055615ba2806200002b6000396000f3fe608060405234801561001057600080fd5b50600436106103be5760003560e01c8063671884fe116101f6578063a22f84f01161011b578063dcd7772e116100b3578063dcd7772e146108bc578063ddca3f43146108c4578063e5225381146108ee578063ea866815146108f6578063eab73ca114610909578063eb582d1314610921578063ed5131f514610934578063f47f2f1d14610947578063f86464081461095a578063fc0c546a1461096d57600080fd5b8063a22f84f014610810578063aec1375814610823578063b224f99f14610836578063b911135f14610849578063b9c56c8c14610872578063be72f2d314610885578063cfc412be1461088d578063d547741f14610896578063d7cb416f146108a957600080fd5b8063826bd4bf1161018e578063826bd4bf1461077b5780638356ca4f1461078e5780638eee461a146107a157806391d14854146107b457806396f1557c146107c7578063986cfba3146107da5780639a202d47146107ed578063a0712d68146107f5578063a217fddf1461080857600080fd5b8063671884fe146106db57806370480275146106e3578063740fcd20146106f657806375829def1461071e578063771ff3811461073157806378e97925146107395780637ff36fbe146107425780638158f0c01461075557806381f41eb21461076857600080fd5b80632c00778a116102e7578063486a586a1161027f578063486a586a146106015780634e09a610146106145780634f76c0581461062757806350d2a2761461063a578063526aef9414610663578063550d01a314610677578063556400081461069a57806355ecf5a8146106a35780635fcbd285146106c557806363a8fd89146106ce57600080fd5b80632c00778a146105595780632ca0228a1461056c5780632f2ff15d1461057557806331e88e101461058857806334b38cc31461059b57806336568abe146105b35780633e0a322d146105c657806341c04d5e146105d957806343c57a27146105ee57600080fd5b80630f36edbf1161035a5780630f36edbf146104aa5780630f4388c0146104d0578063117ab874146104e357806316daa663146104ec57806316f0115b146104f4578063248a9ca31461050757806324d7806c1461052a578063251df7a21461053d578063256019d61461055057600080fd5b806301ffc9a7146103c35780630284ec8f146103eb5780630411b949146103ff5780630446db5d1461041f578063065e53601461044057806306fdde031461046a5780630724e61c1461047f5780630a59fa08146104945780630a6aae11146104a1575b600080fd5b6103d66103d1366004614c68565b610980565b60405190151581526020015b60405180910390f35b600a546103d690600160b81b900460ff1681565b600354610412906001600160a01b031681565b6040516103e29190615090565b61043261042d366004614a43565b6109b7565b6040519081526020016103e2565b610448610c1b565b604080516001600160a01b03909316835260029190910b6020830152016103e2565b610472610e05565b6040516103e2919061516c565b61049261048d366004614a7b565b610e93565b005b6018546103d69060ff1681565b61043260085481565b6104bd6104b8366004614cac565b611006565b60405160029190910b81526020016103e2565b6104326104de366004614c2c565b611053565b61043260105481565b6104bd611074565b600554610412906001600160a01b031681565b610432610515366004614c2c565b60009081526019602052604090206001015490565b6103d6610538366004614a43565b6110a4565b61049261054b366004614afd565b6110be565b610432600f5481565b610492610567366004614c90565b611271565b61043260095481565b610492610583366004614c44565b611322565b610492610596366004614e94565b61134d565b6105a361163b565b6040516103e294939291906154f1565b6104926105c1366004614c44565b6116fe565b6104926105d4366004614c2c565b61177c565b610432600080516020615b4d83398151915281565b6104326105fc366004614cd9565b611832565b61043261060f366004614a43565b611849565b610432610622366004614a43565b6119c0565b6104bd610635366004614a43565b6119da565b610412610648366004614c68565b6017602052600090815260409020546001600160a01b031681565b600a546104bd90600160a01b900460020b81565b6103d6610685366004614a43565b60166020526000908152604090205460ff1681565b610432600e5481565b6106b66106b1366004614ab3565b6119e5565b6040516103e2939291906150be565b610432600b5481565b6014546103d69060ff1681565b6104bd611ac5565b6104926106f1366004614a43565b611adc565b610709610704366004614a7b565b611b1c565b604080519283526020830191909152016103e2565b61049261072c366004614a43565b611c0c565b610492611cbf565b610432601a5481565b600654610412906001600160a01b031681565b610492610763366004614a43565b6120d5565b600a54610412906001600160a01b031681565b6104bd610789366004614c90565b6122ab565b61049261079c366004614a43565b6122c6565b6104926107af366004614bf4565b612350565b6103d66107c2366004614c44565b61242f565b6104926107d5366004614a43565b61245a565b6104126107e8366004614c90565b61248a565b610492612495565b610492610803366004614c2c565b6124e3565b610432600081565b6104bd61081e366004614c90565b612b4b565b6104bd610831366004614cac565b612b66565b610492610844366004614edc565b612bb3565b610412610857366004614c2c565b6015602052600090815260409020546001600160a01b031681565b610492610880366004614c90565b612c65565b610492612d06565b61043260115481565b6104926108a4366004614c44565b612d36565b600754610412906001600160a01b031681565b610492612d5c565b6004546108da90600160a01b900462ffffff1681565b60405162ffffff90911681526020016103e2565b610492612fad565b6104bd610904366004614e00565b61323f565b6018546104129061010090046001600160a01b031681565b600454610412906001600160a01b031681565b610432610942366004614c2c565b613287565b6103d6610955366004614a43565b613297565b600254610412906001600160a01b031681565b600154610412906001600160a01b031681565b60006001600160e01b03198216637965db0b60e01b14806109b157506301ffc9a760e01b6001600160e01b03198316145b92915050565b600080826001600160a01b0316633850c7bd6040518163ffffffff1660e01b815260040160e06040518083038186803b1580156109f357600080fd5b505afa158015610a07573d6000803e3d6000fd5b505050506040513d601f19601f82011682018060405250810190610a2b9190614d6a565b50505050509150506000610b1a846001600160a01b0316630dfe16816040518163ffffffff1660e01b815260040160206040518083038186803b158015610a7157600080fd5b505afa158015610a85573d6000803e3d6000fd5b505050506040513d601f19601f82011682018060405250810190610aa99190614a5f565b856001600160a01b031663d21220a76040518163ffffffff1660e01b815260040160206040518083038186803b158015610ae257600080fd5b505afa158015610af6573d6000803e3d6000fd5b505050506040513d601f19601f820116820180604052508101906107049190614a5f565b509050610c1382610b2c83600a6156e6565b866001600160a01b0316630dfe16816040518163ffffffff1660e01b815260040160206040518083038186803b158015610b6557600080fd5b505afa158015610b79573d6000803e3d6000fd5b505050506040513d601f19601f82011682018060405250810190610b9d9190614a5f565b876001600160a01b031663d21220a76040518163ffffffff1660e01b815260040160206040518083038186803b158015610bd657600080fd5b505afa158015610bea573d6000803e3d6000fd5b505050506040513d601f19601f82011682018060405250810190610c0e9190614a5f565b6132a3565b949350505050565b60055460009081906001600160a01b0316610d705760035460025460015460048054604051630b4c774160e11b81526000956001600160a01b0390811695631698ee8295610c7e9591831694921692600160a01b90920462ffffff1691016150e1565b60206040518083038186803b158015610c9657600080fd5b505afa158015610caa573d6000803e3d6000fd5b505050506040513d601f19601f82011682018060405250810190610cce9190614a5f565b90506001600160a01b03811615610d6557600080826001600160a01b0316633850c7bd6040518163ffffffff1660e01b815260040160e06040518083038186803b158015610d1b57600080fd5b505afa158015610d2f573d6000803e3d6000fd5b505050506040513d601f19601f82011682018060405250810190610d539190614d6a565b50949a93995092975050505050505050565b506000928392509050565b600560009054906101000a90046001600160a01b03166001600160a01b0316633850c7bd6040518163ffffffff1660e01b815260040160e06040518083038186803b158015610dbe57600080fd5b505afa158015610dd2573d6000803e3d6000fd5b505050506040513d601f19601f82011682018060405250810190610df69190614d6a565b50949793965092945050505050565b600d8054610e1290615a06565b80601f0160208091040260200160405190810160405280929190818152602001828054610e3e90615a06565b8015610e8b5780601f10610e6057610100808354040283529160200191610e8b565b820191906000526020600020905b815481529060010190602001808311610e6e57829003601f168201915b505050505081565b610e9c33613297565b610ec15760405162461bcd60e51b8152600401610eb8906152e1565b60405180910390fd5b6001600160a01b03821615801590610ee757506003546001600160a01b03838116911614155b610f335760405162461bcd60e51b815260206004820152601d60248201527f7a65726f206f722073616d6520556e69737761705633466163746f72790000006044820152606401610eb8565b6001600160a01b03811615801590610f5957506004546001600160a01b03828116911614155b610f985760405162461bcd60e51b815260206004820152601060248201526f7a65726f206f722073616d65206e706d60801b6044820152606401610eb8565b600380546001600160a01b038085166001600160a01b03199283161790925560048054928416929091169190911790556040517f5fc0ec65c13a954263aac9f4f69b985fb5882ef912527cb4010c8ffd07be617290610ffa90849084906150a4565b60405180910390a15050565b600080611012836122ab565b601b549091506000906110289060020b8561578e565b61103290866158b9565b90508060020b8260020b121561104b5791506109b19050565b509392505050565b6013818154811061106357600080fd5b600091825260209091200154905081565b600c5460009060020b8061108b620d89e719615a77565b6110959190615620565b61109f919061578e565b905090565b60006109b1600080516020615b4d8339815191528361242f565b6110c733613297565b6110e35760405162461bcd60e51b8152600401610eb8906152e1565b600a54600160b81b900460ff161561110d5760405162461bcd60e51b8152600401610eb8906153c2565b6001600160a01b0382161580159061113357506002546001600160a01b03838116911614155b61116a5760405162461bcd60e51b815260206004820152600860248201526773616d6520746f7360c01b6044820152606401610eb8565b600280546001600160a01b0319166001600160a01b0384161790556004805462ffffff60a01b1916600160a01b62ffffff84811682029290921792839055909104166101f414156111c957600c805462ffffff1916600a17905561121d565b600454600160a01b900462ffffff16610bb814156111f557600c805462ffffff1916603c17905561121d565b600454600160a01b900462ffffff16612710141561121d57600c805462ffffff191660c81790555b600c54604080516001600160a01b038516815262ffffff84166020820152600292830b90920b908201527fa5edbc8e8d441c0b1b4f4791110f6ba4ea2e5feaee81d0c3ac25ac9011cf1e3190606001610ffa565b61127a336110a4565b80611289575061128933613297565b6112a55760405162461bcd60e51b8152600401610eb890615221565b60008160020b136112c85760405162461bcd60e51b8152600401610eb8906151cc565b601b54600282810b6301000000909204810b900b14156112fa5760405162461bcd60e51b8152600401610eb890615295565b601b805460029290920b62ffffff1663010000000265ffffff00000019909216919091179055565b60008281526019602052604090206001015461133e81336133ac565b6113488383613410565b505050565b611356336110a4565b80611365575061136533613297565b6113815760405162461bcd60e51b8152600401610eb890615221565b6003546001600160a01b0316158015906113a557506004546001600160a01b031615155b80156113bb57506002546001600160a01b031615155b6113d75760405162461bcd60e51b8152600401610eb890615390565b600a546001600160a01b0316156114265760405162461bcd60e51b8152602060048201526013602482015272185b1c9958591e481a5b9a5d1a585b1a5e9959606a1b6044820152606401610eb8565b6001546040516370a0823160e01b81526001600160a01b03909116906370a0823190611456903090600401615090565b60206040518083038186803b15801561146e57600080fd5b505afa158015611482573d6000803e3d6000fd5b505050506040513d601f19601f820116820180604052508101906114a69190614e1c565b8511156114ef5760405162461bcd60e51b81526020600482015260176024820152763732b2b2103a379034b7383aba103a3432903a37b5b2b760491b6044820152606401610eb8565b6000841180156114ff5750600083115b801561151457506000826001600160a01b0316115b6115865760405162461bcd60e51b815260206004820152603c60248201527f7a65726f20746f735072696365206f7220746f6b656e5072696365206f72206960448201527f6e6974537172745072696365583936206f7220737461727454696d65000000006064820152608401610eb8565b600e85905560088490556009839055600a80546001600160a01b0319166001600160a01b0384161790556115b98161177c565b6040518581527fbe9b076dc5b65990cca9dd9d7366682482e7817a6f6bc7f4faf4dc32af497f329060200160405180910390a160408051858152602081018590526001600160a01b0384168183015290517fc6bad1b6d2fd191de5848ad7eaaf2ddc559c9b96622381e15bd4b2f1175d1cb79181900360600190a15050505050565b60006060806000600f54601260136010548280548060200260200160405190810160405280929190818152602001828054801561169757602002820191906000526020600020905b815481526020019060010190808311611683575b50505050509250818054806020026020016040519081016040528092919081815260200182805480156116e957602002820191906000526020600020905b8154815260200190600101908083116116d5575b50505050509150935093509350935090919293565b6001600160a01b038116331461176e5760405162461bcd60e51b815260206004820152602f60248201527f416363657373436f6e74726f6c3a2063616e206f6e6c792072656e6f756e636560448201526e103937b632b9903337b91039b2b63360891b6064820152608401610eb8565b6117788282613496565b5050565b611785336110a4565b80611794575061179433613297565b6117b05760405162461bcd60e51b8152600401610eb890615221565b4281116117f65760405162461bcd60e51b815260206004820152601460248201527314dd185c9d151a5b59481a185cc81c185cdcd95960621b6044820152606401610eb8565b601a8190556040518181527f191dde3e99ae398f28f0457d7346866a4fa04805ac0b57190b944935b5aa7550906020015b60405180910390a150565b6000611840858585856132a3565b95945050505050565b600080826001600160a01b0316633850c7bd6040518163ffffffff1660e01b815260040160e06040518083038186803b15801561188557600080fd5b505afa158015611899573d6000803e3d6000fd5b505050506040513d601f19601f820116820180604052508101906118bd9190614d6a565b50505050509150506000611903846001600160a01b0316630dfe16816040518163ffffffff1660e01b815260040160206040518083038186803b158015610a7157600080fd5b9150610c1390508261191683600a6156e6565b866001600160a01b031663d21220a76040518163ffffffff1660e01b815260040160206040518083038186803b15801561194f57600080fd5b505afa158015611963573d6000803e3d6000fd5b505050506040513d601f19601f820116820180604052508101906119879190614a5f565b876001600160a01b0316630dfe16816040518163ffffffff1660e01b815260040160206040518083038186803b158015610bd657600080fd5b60006109b16001600160a01b03831680600160601b6134fd565b60006109b1826135c7565b600083837fe34f199b19b2b4f47f68442619d555527d244f78a3297ea89325f843f87b8b546001600160a01b038083169084161115611a25578592508691505b6003546040516001600160a01b0390911690611a49908590859089906020016150e1565b6040516020818303038152906040528051906020012082604051602001611aa0939291906001600160f81b0319815260609390931b6001600160601b03191660018401526015830191909152603582015260550190565b6040516020818303038152906040528051906020012060001c93505093509350939050565b600c5460009060020b61109581620d89e719615620565b611ae533613297565b611b015760405162461bcd60e51b8152600401610eb8906152e1565b611b19600080516020615b4d83398151915282611322565b50565b600080836001600160a01b031663313ce5676040518163ffffffff1660e01b815260040160206040518083038186803b158015611b5857600080fd5b505afa158015611b6c573d6000803e3d6000fd5b505050506040513d601f19601f82011682018060405250810190611b909190614e1c565b836001600160a01b031663313ce5676040518163ffffffff1660e01b815260040160206040518083038186803b158015611bc957600080fd5b505afa158015611bdd573d6000803e3d6000fd5b505050506040513d601f19601f82011682018060405250810190611c019190614e1c565b915091509250929050565b611c15336110a4565b80611c245750611c2433613297565b611c405760405162461bcd60e51b8152600401610eb890615221565b6001600160a01b038116611c665760405162461bcd60e51b8152600401610eb890615263565b336001600160a01b0382161415611c8f5760405162461bcd60e51b8152600401610eb890615329565b611ca7600080516020615b4d83398151915282611322565b611b19600080516020615b4d833981519152336116fe565b6003546001600160a01b031615801590611ce357506004546001600160a01b031615155b8015611cf957506002546001600160a01b031615155b611d155760405162461bcd60e51b8152600401610eb890615390565b600a54600160b81b900460ff16611d3e5760405162461bcd60e51b8152600401610eb890615359565b6000601a54118015611d51575042601a54105b611d995760405162461bcd60e51b815260206004820152601960248201527829ba30b93a2a34b6b2903430b9903737ba103830b9b9b2b21760391b6044820152606401610eb8565b60035460025460015460048054604051630b4c774160e11b81526000956001600160a01b0390811695631698ee8295611de79591831694921692600160a01b90920462ffffff1691016150e1565b60206040518083038186803b158015611dff57600080fd5b505afa158015611e13573d6000803e3d6000fd5b505050506040513d601f19601f82011682018060405250810190611e379190614a5f565b90506001600160a01b038116611f34576003546002546001546004805460405163a167129560e01b81526000956001600160a01b039081169563a167129595611e959591831694921692600160a01b90920462ffffff1691016150e1565b602060405180830381600087803b158015611eaf57600080fd5b505af1158015611ec3573d6000803e3d6000fd5b505050506040513d601f19601f82011682018060405250810190611ee79190614a5f565b90506001600160a01b038116611f315760405162461bcd60e51b815260206004820152600f60248201526e18dc99585d19541bdbdb0819985a5b608a1b6044820152606401610eb8565b90505b600580546001600160a01b0319166001600160a01b03831690811790915560408051630dfe168160e01b81529051630dfe168191600480820192602092909190829003018186803b158015611f8857600080fd5b505afa158015611f9c573d6000803e3d6000fd5b505050506040513d601f19601f82011682018060405250810190611fc09190614a5f565b600680546001600160a01b0319166001600160a01b039283161790556005546040805163d21220a760e01b81529051919092169163d21220a7916004808301926020929190829003018186803b15801561201957600080fd5b505afa15801561202d573d6000803e3d6000fd5b505050506040513d601f19601f820116820180604052508101906120519190614a5f565b600780546001600160a01b0319166001600160a01b03928316179055600a54161561208b57600a5461208b906001600160a01b03166120d5565b6005546006546007546040517f87686ebed73b2bf2a483156cdc52a73ebd37e11a1e0adb90f09e4216e0dd541593611827936001600160a01b0391821693908216929116906150be565b6005546001600160a01b0316806120fe5760405162461bcd60e51b8152600401610eb89061519f565b600a54600160b81b900460ff166121275760405162461bcd60e51b8152600401610eb890615359565b6000826001600160a01b0316116121765760405162461bcd60e51b81526020600482015260136024820152723d32b9379034b729b8b93a283934b1b2ac1c9b60691b6044820152606401610eb8565b60055460408051633850c7bd60e01b815290516000926001600160a01b031691633850c7bd9160048083019260e0929190829003018186803b1580156121bb57600080fd5b505afa1580156121cf573d6000803e3d6000fd5b505050506040513d601f19601f820116820180604052508101906121f39190614d6a565b5050505050509050806001600160a01b0316600014156113485760055460405163f637731d60e01b81526001600160a01b039091169063f637731d9061223d908690600401615090565b600060405180830381600087803b15801561225757600080fd5b505af115801561226b573d6000803e3d6000fd5b505050507fd4a3cdac99f6deac6f6631c09a884550f28be2e33585b71c2b777ebdc6bcc4828360405161229e9190615090565b60405180910390a1505050565b6000816122bc81620d89e719615620565b6109b1919061578e565b6122cf33613297565b6122eb5760405162461bcd60e51b8152600401610eb8906152e1565b6001600160a01b0381166123115760405162461bcd60e51b8152600401610eb890615263565b336001600160a01b038216141561233a5760405162461bcd60e51b8152600401610eb890615329565b612345600082611322565b611b196000336116fe565b612359336110a4565b80612368575061236833613297565b6123845760405162461bcd60e51b8152600401610eb890615221565b600a5460ff600160b81b90910416151581151514156123e25760405162461bcd60e51b815260206004820152601a6024820152791cd85b5948189bdbdb149958591e551bd0dc99585d19541bdbdb60321b6044820152606401610eb8565b600a8054821515600160b81b0260ff60b81b199091161790556040517fb617cf12ee2262dc406f2998cca847640b8b72357f6032b86e6821ccd05a896b9061182790831515815260200190565b60009182526019602090815260408084206001600160a01b0393909316845291905290205460ff1690565b61246333613297565b61247f5760405162461bcd60e51b8152600401610eb8906152e1565b611b19600082613900565b60006109b18261390a565b61249e336110a4565b806124ad57506124ad33613297565b6124c95760405162461bcd60e51b8152600401610eb890615221565b6124e1600080516020615b4d833981519152336116fe565b565b600a54600160b81b900460ff1661250c5760405162461bcd60e51b8152600401610eb890615359565b6002600054141561252f5760405162461bcd60e51b8152600401610eb890615404565b60026000556005546001600160a01b03168061255d5760405162461bcd60e51b8152600401610eb89061519f565b6006546001600160a01b0316806125865760405162461bcd60e51b8152600401610eb89061519f565b6007546001600160a01b0316806125af5760405162461bcd60e51b8152600401610eb89061519f565b600084116125f35760405162461bcd60e51b81526020600482015260116024820152701e995c9bc81a5b9c1d5d08185b5bdd5b9d607a1b6044820152606401610eb8565b6002546040516370a0823160e01b81526000916001600160a01b0316906370a0823190612624903090600401615090565b60206040518083038186803b15801561263c57600080fd5b505afa158015612650573d6000803e3d6000fd5b505050506040513d601f19601f820116820180604052508101906126749190614e1c565b6001546040516370a0823160e01b81529192506000916001600160a01b03909116906370a08231906126aa903090600401615090565b60206040518083038186803b1580156126c257600080fd5b505afa1580156126d6573d6000803e3d6000fd5b505050506040513d601f19601f820116820180604052508101906126fa9190614e1c565b9050670de0b6b3a76400008211801561271a5750670de0b6b3a764000081115b6127605760405162461bcd60e51b815260206004820152601760248201527618985b185b98d9481a5cc81a5b9cdd59999a58da595b9d604a1b6044820152606401610eb8565b818611156127ac5760405162461bcd60e51b81526020600482015260196024820152781d1bd0985b185b98d9481a5cc81a5b9cdd59999a58da595b9d603a1b6044820152606401610eb8565b601b54600290810b900b6127ca57601b805462ffffff191660081790555b601b5463010000009004600290810b900b6127f557601b805465ffffff0000001916630a0000001790555b601b54600160301b900463ffffffff1661282057601b805463ffffffff60301b1916600f60321b1790555b600080600560009054906101000a90046001600160a01b03166001600160a01b0316633850c7bd6040518163ffffffff1660e01b815260040160e06040518083038186803b15801561287157600080fd5b505afa158015612885573d6000803e3d6000fd5b505050506040513d601f19601f820116820180604052508101906128a99190614d6a565b5050505050915091506000826001600160a01b0316116129055760405162461bcd60e51b81526020600482015260176024820152761c1bdbdb081a5cc81b9bdd081a5b9a5d1a585b1a5e9959604a1b6044820152606401610eb8565b600554601b54600091612930916001600160a01b0390911690600160301b900463ffffffff16613d15565b90508160020b612954826104b8600460149054906101000a900462ffffff1661323f565b60020b13158015612987575061297e81610831600460149054906101000a900462ffffff1661323f565b60020b8260020b125b6129df5760405162461bcd60e51b8152602060048201526024808201527f49742773206e6f7420616c6c6f776564206368616e676564207469636b2072616044820152633733b29760e11b6064820152608401610eb8565b5060025460065460009182916001600160a01b03908116911614612a5157600254600154612a1d9185918d916001600160a01b039081169116611832565b915089905084821115612a425760405162461bcd60e51b8152600401610eb8906151ea565b612a4c8183613f18565b612aa0565b6002546001548b9350612a7491859185916001600160a01b039081169116611832565b905084811115612a965760405162461bcd60e51b8152600401610eb8906151ea565b612aa08282613f18565b601b54600090606490612ac19063010000009004600290810b900b82615984565b612acb908561589a565b612ad5919061568f565b905060006064601b60039054906101000a900460020b60020b6064612afa9190615984565b612b04908561589a565b612b0e919061568f565b9050600b5460001415612b2c57612b2784848484614428565b612b38565b612b3884848484614633565b5050600160005550505050505050505050565b60008180612b5c620d89e719615a77565b6122bc9190615620565b600080612b7283612b4b565b601b54909150600090612b889060020b8561578e565b612b929086615581565b90508060020b8260020b1215612baa575090506109b1565b91506109b19050565b612bbc336110a4565b80612bcb5750612bcb33613297565b612be75760405162461bcd60e51b8152600401610eb890615221565b60008163ffffffff1611612c0d5760405162461bcd60e51b8152600401610eb8906151cc565b601b5463ffffffff828116600160301b909204161415612c3f5760405162461bcd60e51b8152600401610eb890615295565b601b805463ffffffff909216600160301b0263ffffffff60301b19909216919091179055565b612c6e336110a4565b80612c7d5750612c7d33613297565b612c995760405162461bcd60e51b8152600401610eb890615221565b60008160020b13612cbc5760405162461bcd60e51b8152600401610eb8906151cc565b601b54600282810b91810b900b1415612ce75760405162461bcd60e51b8152600401610eb890615295565b601b805460029290920b62ffffff1662ffffff19909216919091179055565b612d0f33613297565b612d2b5760405162461bcd60e51b8152600401610eb8906152e1565b6124e16000336116fe565b600082815260196020526040902060010154612d5281336133ac565b6113488383613496565b600a54600160b81b900460ff1615612d865760405162461bcd60e51b8152600401610eb8906153c2565b600a546001600160a01b0316612dd65760405162461bcd60e51b81526020600482015260156024820152743d32b9379034b734ba29b8b93a283934b1b2ac1c9b60591b6044820152606401610eb8565b612de06001612350565b612de8611cbf565b60035460025460015460048054604051630b4c774160e11b81526000956001600160a01b0390811695631698ee8295612e369591831694921692600160a01b90920462ffffff1691016150e1565b60206040518083038186803b158015612e4e57600080fd5b505afa158015612e62573d6000803e3d6000fd5b505050506040513d601f19601f82011682018060405250810190612e869190614a5f565b6005549091506001600160a01b03808316911614612edf5760405162461bcd60e51b8152602060048201526016602482015275646966666572656e7420706f6f6c206164647265737360501b6044820152606401610eb8565b60055460408051633850c7bd60e01b815290516000926001600160a01b031691633850c7bd9160048083019260e0929190829003018186803b158015612f2457600080fd5b505afa158015612f38573d6000803e3d6000fd5b505050506040513d601f19601f82011682018060405250810190612f5c9190614d6a565b50505050505090506000816001600160a01b0316116117785760405162461bcd60e51b815260206004820152600d60248201526c7072696365206973207a65726f60981b6044820152606401610eb8565b6005546001600160a01b031680612fd65760405162461bcd60e51b8152600401610eb89061519f565b60026000541415612ff95760405162461bcd60e51b8152600401610eb890615404565b6002600055600b5461301d5760405162461bcd60e51b8152600401610eb8906152b3565b60048054600b5460405163133f757160e31b81529283015260009182916001600160a01b0316906399fbab88906024016101806040518083038186803b15801561306657600080fd5b505afa15801561307a573d6000803e3d6000fd5b505050506040513d601f19601f8201168201806040525081019061309e9190614f00565b9b509b50505050505050505050506000826001600160801b031611806130cd57506000816001600160801b0316115b6131195760405162461bcd60e51b815260206004820152601e60248201527f7468657265206973206e6f20636f6c6c65637461626c6520616d6f756e7400006044820152606401610eb8565b6004805460408051608081018252600b54815230602082019081526001600160801b0387811683850190815287821660608501908152945163fc6f786560e01b815293519684019690965290516001600160a01b039081166024840152945181166044830152915190911660648201526000928392169063fc6f7865906084016040805180830381600087803b1580156131b257600080fd5b505af11580156131c6573d6000803e3d6000fd5b505050506040513d601f19601f820116820180604052508101906131ea9190614e71565b91509150600b547f59943dc7329fdfb15044f95cef4cae4efe6e3b1b8a4e0858bf7f7f3515090f35838360405161322b929190918252602082015260400190565b60405180910390a250506001600055505050565b60008162ffffff166101f414156132585750600a919050565b8162ffffff16610bb8141561326f5750603c919050565b8162ffffff166127101415613282575060c85b919050565b6012818154811061106357600080fd5b60006109b1818361242f565b6000806132af8661390a565b90506001600160801b036001600160a01b038216116133355760006132dd6001600160a01b0383168061589a565b9050836001600160a01b0316856001600160a01b03161061331557613310600160c01b876001600160801b0316836134fd565b61332d565b61332d81876001600160801b0316600160c01b6134fd565b9250506133a3565b600061334f6001600160a01b03831680600160401b6134fd565b9050836001600160a01b0316856001600160a01b03161061338757613382600160801b876001600160801b0316836134fd565b61339f565b61339f81876001600160801b0316600160801b6134fd565b9250505b50949350505050565b6133b6828261242f565b611778576133ce816001600160a01b031660146147ac565b6133d98360206147ac565b6040516020016133ea929190615021565b60408051601f198184030181529082905262461bcd60e51b8252610eb89160040161516c565b61341a828261242f565b6117785760008281526019602090815260408083206001600160a01b03851684529091529020805460ff191660011790556134523390565b6001600160a01b0316816001600160a01b0316837f2f8788117e7eff1d82e926ec794901d17c78024a50270940304540a733656f0d60405160405180910390a45050565b6134a0828261242f565b156117785760008281526019602090815260408083206001600160a01b0385168085529252808320805460ff1916905551339285917ff6391f5c32d9c69d2a47ea670b442974b53935d1edc7fd64eb21e047a839171b9190a45050565b600080821161350b57600080fd5b6000806000198587098587029250828110838203039150508060001415613537575082900490506135c0565b80841161354357600080fd5b60008486880980840393811190920391905060008561356481600019615984565b61356f906001615608565b16958690049560026003880281188089028203028089028203028089028203028089028203028089028203028089029091030260008290038290046001019490940294049390931791909102925050505b9392505050565b60006401000276a36001600160a01b03831610801590613603575073fffd8963efd1fc6a506488495d951d5263988d266001600160a01b038316105b6136335760405162461bcd60e51b81526020600482015260016024820152602960f91b6044820152606401610eb8565b640100000000600160c01b03602083901b166001600160801b03811160071b81811c6001600160401b03811160061b90811c63ffffffff811160051b90811c61ffff811160041b90811c60ff8111600390811b91821c600f811160021b90811c918211600190811b92831c979088119617909417909217179091171717608081106136cd576136c3607f82615984565b83901c91506136de565b6136d881607f615984565b83901b91505b600060406136ed608084615900565b901b9050828302607f1c92508260801c80603f1b8217915083811c935050828302607f1c92508260801c80603e1b8217915083811c935050828302607f1c92508260801c80603d1b8217915083811c935050828302607f1c92508260801c80603c1b8217915083811c935050828302607f1c92508260801c80603b1b8217915083811c935050828302607f1c92508260801c80603a1b8217915083811c935050828302607f1c92508260801c8060391b8217915083811c935050828302607f1c92508260801c8060381b8217915083811c935050828302607f1c92508260801c8060371b8217915083811c935050828302607f1c92508260801c8060361b8217915083811c935050828302607f1c92508260801c8060351b8217915083811c935050828302607f1c92508260801c8060341b8217915083811c935050828302607f1c92508260801c8060331b8217915083811c935050828302607f1c92508260801c8060321b8217915050600081693627a301d71055774c856138709190615817565b9050600060806138906f028f6481ab7f045a5af012a19d003aaa84615900565b901d9050600060806138b2846fdb2df09e81959a81455e260799a0632f6155c7565b901d90508060020b8260020b146138f157886001600160a01b03166138d68261390a565b6001600160a01b031611156138eb57816138f3565b806138f3565b815b9998505050505050505050565b6117788282613410565b60008060008360020b12613921578260020b61392e565b8260020b61392e90615a98565b905061393d620d89e719615a77565b60020b8111156139735760405162461bcd60e51b81526020600482015260016024820152601560fa1b6044820152606401610eb8565b60006001821661398757600160801b613999565b6ffffcb933bd6fad37aa2d162d1a5940015b6001600160881b0316905060028216156139ce5760806139c9826ffff97272373d413259a46990580e213a61589a565b901c90505b60048216156139f85760806139f3826ffff2e50f5f656932ef12357cf3c7fdcc61589a565b901c90505b6008821615613a22576080613a1d826fffe5caca7e10e4e61c3624eaa0941cd061589a565b901c90505b6010821615613a4c576080613a47826fffcb9843d60f6159c9db58835c92664461589a565b901c90505b6020821615613a76576080613a71826fff973b41fa98c081472e6896dfb254c061589a565b901c90505b6040821615613aa0576080613a9b826fff2ea16466c96a3843ec78b326b5286161589a565b901c90505b6080821615613aca576080613ac5826ffe5dee046a99a2a811c461f1969c305361589a565b901c90505b610100821615613af5576080613af0826ffcbe86c7900a88aedcffc83b479aa3a461589a565b901c90505b610200821615613b20576080613b1b826ff987a7253ac413176f2b074cf7815e5461589a565b901c90505b610400821615613b4b576080613b46826ff3392b0822b70005940c7a398e4b70f361589a565b901c90505b610800821615613b76576080613b71826fe7159475a2c29b7443b29c7fa6e889d961589a565b901c90505b611000821615613ba1576080613b9c826fd097f3bdfd2022b8845ad8f792aa582561589a565b901c90505b612000821615613bcc576080613bc7826fa9f746462d870fdf8a65dc1f90e061e561589a565b901c90505b614000821615613bf7576080613bf2826f70d869a156d2a1b890bb3df62baf32f761589a565b901c90505b618000821615613c22576080613c1d826f31be135f97d08fd981231505542fcfa661589a565b901c90505b62010000821615613c4e576080613c49826f09aa508b5b7a84e1c677de54f3e99bc961589a565b901c90505b62020000821615613c79576080613c74826e5d6af8dedb81196699c329225ee60461589a565b901c90505b62040000821615613ca3576080613c9e826d2216e584f5fa1ea926041bedfe9861589a565b901c90505b62080000821615613ccb576080613cc6826b048a170391f7dc42444e8fa261589a565b901c90505b60008460020b1315613ce657613ce38160001961568f565b90505b613cf564010000000082615a63565b15613d01576001613d04565b60005b610c139060ff16602083901c615608565b600063ffffffff8216613d4f5760405162461bcd60e51b8152602060048201526002602482015261042560f41b6044820152606401610eb8565b6040805160028082526060820183526000926020830190803683370190505090508281600081518110613d9257634e487b7160e01b600052603260045260246000fd5b602002602001019063ffffffff16908163ffffffff1681525050600081600181518110613dcf57634e487b7160e01b600052603260045260246000fd5b63ffffffff9092166020928302919091019091015260405163883bdbfd60e01b81526000906001600160a01b0386169063883bdbfd90613e13908590600401615122565b60006040518083038186803b158015613e2b57600080fd5b505afa158015613e3f573d6000803e3d6000fd5b505050506040513d6000823e601f3d908101601f19168201604052613e679190810190614b2a565b509050600081600081518110613e8d57634e487b7160e01b600052603260045260246000fd5b602002602001015182600181518110613eb657634e487b7160e01b600052603260045260246000fd5b6020026020010151613ec8919061593f565b9050613ed8600386900b8261565a565b935060008160060b128015613efc5750613ef6600386900b82615a41565b60060b15155b15613f0f5783613f0b816159cb565b9450505b50505092915050565b6002546040516370a0823160e01b815283916001600160a01b0316906370a0823190613f48903090600401615090565b60206040518083038186803b158015613f6057600080fd5b505afa158015613f74573d6000803e3d6000fd5b505050506040513d601f19601f82011682018060405250810190613f989190614e1c565b1015613fdd5760405162461bcd60e51b81526020600482015260146024820152733a37b99034b99034b739bab33334b1b4b2b73a1760611b6044820152606401610eb8565b6001546040516370a0823160e01b815282916001600160a01b0316906370a082319061400d903090600401615090565b60206040518083038186803b15801561402557600080fd5b505afa158015614039573d6000803e3d6000fd5b505050506040513d601f19601f8201168201806040525081019061405d9190614e1c565b10156140a45760405162461bcd60e51b81526020600482015260166024820152753a37b5b2b71034b99034b739bab33334b1b4b2b73a1760511b6044820152606401610eb8565b60025460048054604051636eb1769f60e11b81526001600160a01b039384169363dd62ed3e936140d9933093921691016150a4565b60206040518083038186803b1580156140f157600080fd5b505afa158015614105573d6000803e3d6000fd5b505050506040513d601f19601f820116820180604052508101906141299190614e1c565b8211156142655760025460048054604080516318160ddd60e01b815290516001600160a01b039485169463095ea7b39493169285926318160ddd9281830192602092829003018186803b15801561417f57600080fd5b505afa158015614193573d6000803e3d6000fd5b505050506040513d601f19601f820116820180604052508101906141b79190614e1c565b6040518363ffffffff1660e01b81526004016141d4929190615109565b602060405180830381600087803b1580156141ee57600080fd5b505af1158015614202573d6000803e3d6000fd5b505050506040513d601f19601f820116820180604052508101906142269190614c10565b6142655760405162461bcd60e51b815260206004820152601060248201526f1513d4c8185c1c1c9bdd994819985a5b60821b6044820152606401610eb8565b60015460048054604051636eb1769f60e11b81526001600160a01b039384169363dd62ed3e9361429a933093921691016150a4565b60206040518083038186803b1580156142b257600080fd5b505afa1580156142c6573d6000803e3d6000fd5b505050506040513d601f19601f820116820180604052508101906142ea9190614e1c565b8111156117785760015460048054604080516318160ddd60e01b815290516001600160a01b039485169463095ea7b39493169285926318160ddd9281830192602092829003018186803b15801561434057600080fd5b505afa158015614354573d6000803e3d6000fd5b505050506040513d601f19601f820116820180604052508101906143789190614e1c565b6040518363ffffffff1660e01b8152600401614395929190615109565b602060405180830381600087803b1580156143af57600080fd5b505af11580156143c3573d6000803e3d6000fd5b505050506040513d601f19601f820116820180604052508101906143e79190614c10565b6117785760405162461bcd60e51b81526020600482015260126024820152711d1bdad95b88185c1c1c9bdd994819985a5b60721b6044820152606401610eb8565b600b54156144695760405162461bcd60e51b815260206004820152600e60248201526d185b1c9958591e481b5a5b9d195960921b6044820152606401610eb8565b6000614473611ac5565b9050600061447f611074565b60045460408051610160810182526006546001600160a01b0390811682526007548116602083015262ffffff600160a01b85041692820192909252600286810b606083015284900b608082015260a081018a905260c0810189905260e081018890526101008101879052306101208201529293506000928392839283929116906388316456906101408101614515426064615608565b8152506040518263ffffffff1660e01b8152600401614534919061543b565b608060405180830381600087803b15801561454e57600080fd5b505af1158015614562573d6000803e3d6000fd5b505050506040513d601f19601f820116820180604052508101906145869190614e34565b9350935093509350600084116145d05760405162461bcd60e51b815260206004820152600f60248201526e746f6b656e4964206973207a65726f60881b6044820152606401610eb8565b600b849055604080518581526001600160801b03851660208201529081018390526060810182905233907f7e4faa9ec81dd9000071b6dbc47dedaad9cd0745b9f0243f2b474b916f6229f39060800160405180910390a250505050505050505050565b6000600b54116146555760405162461bcd60e51b8152600401610eb8906152b3565b6004546040805160c081018252600b548152602081018790529081018590526060810184905260808101839052600091829182916001600160a01b03169063219f5d179060a081016146a8426064615608565b9052604080516001600160e01b031960e085901b1681528251600482015260208301516024820152908201516044820152606082015160648201526080820151608482015260a09091015160a482015260c401606060405180830381600087803b15801561471557600080fd5b505af1158015614729573d6000803e3d6000fd5b505050506040513d601f19601f8201168201806040525081019061474d9190614d34565b600b54604080516001600160801b0386168152602081018590529081018390529396509194509250907fa88ed384c96385e07d5f3ba9385866f17995177886d1a5601601d8c8d69872519060600160405180910390a250505050505050565b606060006147bb83600261589a565b6147c6906002615608565b6001600160401b038111156147eb57634e487b7160e01b600052604160045260246000fd5b6040519080825280601f01601f191660200182016040528015614815576020820181803683370190505b509050600360fc1b8160008151811061483e57634e487b7160e01b600052603260045260246000fd5b60200101906001600160f81b031916908160001a905350600f60fb1b8160018151811061487b57634e487b7160e01b600052603260045260246000fd5b60200101906001600160f81b031916908160001a905350600061489f84600261589a565b6148aa906001615608565b90505b600181111561493e576f181899199a1a9b1b9c1cb0b131b232b360811b85600f16601081106148ec57634e487b7160e01b600052603260045260246000fd5b1a60f81b82828151811061491057634e487b7160e01b600052603260045260246000fd5b60200101906001600160f81b031916908160001a90535060049490941c93614937816159ef565b90506148ad565b5083156135c05760405162461bcd60e51b815260206004820181905260248201527f537472696e67733a20686578206c656e67746820696e73756666696369656e746044820152606401610eb8565b805161328281615af4565b600082601f8301126149a8578081fd5b815160206149bd6149b88361555e565b61552e565b80838252828201915082860187848660051b89010111156149dc578586fd5b855b85811015614a035781516149f181615af4565b845292840192908401906001016149de565b5090979650505050505050565b805161328281615b17565b805161328281615b26565b805161ffff8116811461328257600080fd5b805161328281615b3b565b600060208284031215614a54578081fd5b81356135c081615af4565b600060208284031215614a70578081fd5b81516135c081615af4565b60008060408385031215614a8d578081fd5b8235614a9881615af4565b91506020830135614aa881615af4565b809150509250929050565b600080600060608486031215614ac7578081fd5b8335614ad281615af4565b92506020840135614ae281615af4565b91506040840135614af281615b3b565b809150509250925092565b60008060408385031215614b0f578182fd5b8235614b1a81615af4565b91506020830135614aa881615b3b565b60008060408385031215614b3c578182fd5b82516001600160401b0380821115614b52578384fd5b818501915085601f830112614b65578384fd5b81516020614b756149b88361555e565b8083825282820191508286018a848660051b8901011115614b94578889fd5b8896505b84871015614bc45780518060060b8114614bb057898afd5b835260019690960195918301918301614b98565b5091880151919650909350505080821115614bdd578283fd5b50614bea85828601614998565b9150509250929050565b600060208284031215614c05578081fd5b81356135c081615b09565b600060208284031215614c21578081fd5b81516135c081615b09565b600060208284031215614c3d578081fd5b5035919050565b60008060408385031215614c56578182fd5b823591506020830135614aa881615af4565b600060208284031215614c79578081fd5b81356001600160e01b0319811681146135c0578182fd5b600060208284031215614ca1578081fd5b81356135c081615b17565b60008060408385031215614cbe578182fd5b8235614cc981615b17565b91506020830135614aa881615b17565b60008060008060808587031215614cee578182fd5b8435614cf981615b17565b93506020850135614d0981615b26565b92506040850135614d1981615af4565b91506060850135614d2981615af4565b939692955090935050565b600080600060608486031215614d48578081fd5b8351614d5381615b26565b602085015160409095015190969495509392505050565b600080600080600080600060e0888a031215614d84578485fd5b8751614d8f81615af4565b6020890151909750614da081615b17565b9550614dae60408901614a26565b9450614dbc60608901614a26565b9350614dca60808901614a26565b925060a088015160ff81168114614ddf578283fd5b60c0890151909250614df081615b09565b8091505092959891949750929550565b600060208284031215614e11578081fd5b81356135c081615b3b565b600060208284031215614e2d578081fd5b5051919050565b60008060008060808587031215614e49578182fd5b845193506020850151614e5b81615b26565b6040860151606090960151949790965092505050565b60008060408385031215614e83578182fd5b505080516020909101519092909150565b600080600080600060a08688031215614eab578283fd5b8535945060208601359350604086013592506060860135614ecb81615af4565b949793965091946080013592915050565b600060208284031215614eed578081fd5b813563ffffffff811681146135c0578182fd5b6000806000806000806000806000806000806101808d8f031215614f22578586fd5b8c516001600160601b0381168114614f38578687fd5b9b50614f4660208e0161498d565b9a50614f5460408e0161498d565b9950614f6260608e0161498d565b9850614f7060808e01614a38565b9750614f7e60a08e01614a10565b9650614f8c60c08e01614a10565b9550614f9a60e08e01614a1b565b94506101008d015193506101208d01519250614fb96101408e01614a1b565b9150614fc86101608e01614a1b565b90509295989b509295989b509295989b565b6001600160a01b03169052565b6000815180845260208085019450808401835b8381101561501657815187529582019590820190600101614ffa565b509495945050505050565b76020b1b1b2b9b9a1b7b73a3937b61d1030b1b1b7bab73a1604d1b81526000835161505381601785016020880161599b565b7001034b99036b4b9b9b4b733903937b6329607d1b601791840191820152835161508481602884016020880161599b565b01602801949350505050565b6001600160a01b0391909116815260200190565b6001600160a01b0392831681529116602082015260400190565b6001600160a01b0393841681529183166020830152909116604082015260600190565b6001600160a01b03938416815291909216602082015262ffffff909116604082015260600190565b6001600160a01b03929092168252602082015260400190565b6020808252825182820181905260009190848201906040850190845b8181101561516057835163ffffffff168352928401929184019160010161513e565b50909695505050505050565b602081526000825180602084015261518b81604085016020870161599b565b601f01601f19169190910160400192915050565b6020808252601390820152725661756c743a207a65726f206164647265737360681b604082015260600190565b6020808252600490820152637a65726f60e01b604082015260600190565b6020808252601c908201527f746f6b656e42616c616e636520697320696e73756666696369656e7400000000604082015260600190565b60208082526022908201527f41636365737369626c653a2043616c6c6572206973206e6f7420616e2061646d60408201526134b760f11b606082015260800190565b60208082526018908201527741636365737369626c653a207a65726f206164647265737360401b604082015260600190565b60208082526004908201526373616d6560e01b604082015260600190565b602080825260149082015273125d081a5cc81b9bdd081b5a5b9d1959081e595d60621b604082015260600190565b60208082526028908201527f41636365737369626c653a2043616c6c6572206973206e6f7420616e2070726f6040820152673c3c9030b236b4b760c11b606082015260800190565b60208082526016908201527520b1b1b2b9b9b4b136329d1039b0b6b29030b236b4b760511b604082015260600190565b6020808252601e908201527f5661756c743a206e6f7420726561647920746f20437265617465506f6f6c0000604082015260600190565b60208082526018908201527705661756c743a206265666f726520736574556e69737761760441b604082015260600190565b60208082526022908201527f5661756c743a20616c726561647920726561647920746f20437265617465506f6040820152611bdb60f21b606082015260800190565b6020808252601f908201527f5265656e7472616e637947756172643a207265656e7472616e742063616c6c00604082015260600190565b60006101608201905061544f828451614fda565b60208301516154616020840182614fda565b506040830151615478604084018262ffffff169052565b50606083015161548d606084018260020b9052565b5060808301516154a2608084018260020b9052565b5060a083015160a083015260c083015160c083015260e083015160e0830152610100808401518184015250610120808401516154e082850182614fda565b505061014092830151919092015290565b84815260806020820152600061550a6080830186614fe7565b828103604084015261551c8186614fe7565b91505082606083015295945050505050565b604051601f8201601f191681016001600160401b038111828210171561555657615556615ade565b604052919050565b60006001600160401b0382111561557757615577615ade565b5060051b60200190565b60008160020b8360020b82821282627fffff038213811516156155a6576155a6615ab2565b82627fffff190382128116156155be576155be615ab2565b50019392505050565b600080821280156001600160ff1b03849003851316156155e9576155e9615ab2565b600160ff1b839003841281161561560257615602615ab2565b50500190565b6000821982111561561b5761561b615ab2565b500190565b60008160020b8360020b8061563757615637615ac8565b627fffff1982146000198214161561565157615651615ab2565b90059392505050565b60008160060b8360060b8061567157615671615ac8565b667fffffffffffff1982146000198214161561565157615651615ab2565b60008261569e5761569e615ac8565b500490565b600181815b808511156156de5781600019048211156156c4576156c4615ab2565b808516156156d157918102915b93841c93908002906156a8565b509250929050565b60006135c083836000826156fc575060016109b1565b81615709575060006109b1565b816001811461571f576002811461572957615745565b60019150506109b1565b60ff84111561573a5761573a615ab2565b50506001821b6109b1565b5060208310610133831016604e8410600b8410161715615768575081810a6109b1565b61577283836156a3565b806000190482111561578657615786615ab2565b029392505050565b60008160020b8360020b627fffff838213848413838304851182821616156157b8576157b8615ab2565b627fffff19868512828116878305871216156157d6576157d6615ab2565b8787129250858205871284841616156157f1576157f1615ab2565b8585058712818416161561580757615807615ab2565b5050509290910295945050505050565b60006001600160ff1b038184138284138082168684048611161561583d5761583d615ab2565b600160ff1b8487128281168783058912161561585b5761585b615ab2565b85871292508782058712848416161561587657615876615ab2565b8785058712818416161561588c5761588c615ab2565b505050929093029392505050565b60008160001904831182151516156158b4576158b4615ab2565b500290565b60008160020b8360020b82811281627fffff19018312811516156158df576158df615ab2565b81627fffff0183138116156158f6576158f6615ab2565b5090039392505050565b60008083128015600160ff1b85018412161561591e5761591e615ab2565b6001600160ff1b038401831381161561593957615939615ab2565b50500390565b60008160060b8360060b82811281667fffffffffffff190183128115161561596957615969615ab2565b81667fffffffffffff0183138116156158f6576158f6615ab2565b60008282101561599657615996615ab2565b500390565b60005b838110156159b657818101518382015260200161599e565b838111156159c5576000848401525b50505050565b60008160020b627fffff198114156159e5576159e5615ab2565b6000190192915050565b6000816159fe576159fe615ab2565b506000190190565b600181811c90821680615a1a57607f821691505b60208210811415615a3b57634e487b7160e01b600052602260045260246000fd5b50919050565b60008260060b80615a5457615a54615ac8565b808360060b0791505092915050565b600082615a7257615a72615ac8565b500690565b60008160020b627fffff19811415615a9157615a91615ab2565b9003919050565b6000600160ff1b821415615aae57615aae615ab2565b0390565b634e487b7160e01b600052601160045260246000fd5b634e487b7160e01b600052601260045260246000fd5b634e487b7160e01b600052604160045260246000fd5b6001600160a01b0381168114611b1957600080fd5b8015158114611b1957600080fd5b8060020b8114611b1957600080fd5b6001600160801b0381168114611b1957600080fd5b62ffffff81168114611b1957600080fdfe52eafc11f6f81f86878bffd31109a0d92f37506527754f00788853ff9f63b130a26469706673582212205acfbdf4cfd837c5372eff51765e25a538bbb4475a90288f564b211733860c7464736f6c63430008040033",
  "linkReferences": {},
  "deployedLinkReferences": {}
}