{
  "_format": "hh-sol-artifact-1",
  "contractName": "LibPublicSale",
  "sourceName": "contracts/libraries/LibPublicSale.sol",
  "abi": [
    {
      "inputs": [
        {
          "internalType": "int24",
          "name": "_tick",
          "type": "int24"
        },
        {
          "internalType": "int24",
          "name": "_tickSpacings",
          "type": "int24"
        },
        {
          "internalType": "int24",
          "name": "_acceptTickInterval",
          "type": "int24"
        }
      ],
      "name": "acceptMaxTick",
      "outputs": [
        {
          "internalType": "int24",
          "name": "",
          "type": "int24"
        }
      ],
      "stateMutability": "pure",
      "type": "function"
    },
    {
      "inputs": [
        {
          "internalType": "int24",
          "name": "_tick",
          "type": "int24"
        },
        {
          "internalType": "int24",
          "name": "_tickSpacings",
          "type": "int24"
        },
        {
          "internalType": "int24",
          "name": "_acceptTickInterval",
          "type": "int24"
        }
      ],
      "name": "acceptMinTick",
      "outputs": [
        {
          "internalType": "int24",
          "name": "",
          "type": "int24"
        }
      ],
      "stateMutability": "pure",
      "type": "function"
    },
    {
      "inputs": [
        {
          "internalType": "int24",
          "name": "tickSpacings",
          "type": "int24"
        }
      ],
      "name": "getMaxTick",
      "outputs": [
        {
          "internalType": "int24",
          "name": "",
          "type": "int24"
        }
      ],
      "stateMutability": "pure",
      "type": "function"
    },
    {
      "inputs": [
        {
          "internalType": "int24",
          "name": "tickSpacings",
          "type": "int24"
        }
      ],
      "name": "getMiniTick",
      "outputs": [
        {
          "internalType": "int24",
          "name": "",
          "type": "int24"
        }
      ],
      "stateMutability": "pure",
      "type": "function"
    },
    {
      "inputs": [
        {
          "internalType": "int24",
          "name": "tick",
          "type": "int24"
        },
        {
          "internalType": "uint128",
          "name": "amountIn",
          "type": "uint128"
        },
        {
          "internalType": "address",
          "name": "baseToken",
          "type": "address"
        },
        {
          "internalType": "address",
          "name": "quoteToken",
          "type": "address"
        }
      ],
      "name": "getQuoteAtTick",
      "outputs": [
        {
          "internalType": "uint256",
          "name": "amountOut",
          "type": "uint256"
        }
      ],
      "stateMutability": "pure",
      "type": "function"
    },
    {
      "inputs": [
        {
          "internalType": "uint256",
          "name": "amountIn",
          "type": "uint256"
        },
        {
          "internalType": "address",
          "name": "_pool",
          "type": "address"
        },
        {
          "internalType": "address",
          "name": "token0",
          "type": "address"
        },
        {
          "internalType": "address",
          "name": "token1",
          "type": "address"
        },
        {
          "internalType": "int24",
          "name": "acceptTickCounts",
          "type": "int24"
        }
      ],
      "name": "limitPrameters",
      "outputs": [
        {
          "internalType": "uint256",
          "name": "amountOutMinimum",
          "type": "uint256"
        },
        {
          "internalType": "uint256",
          "name": "priceLimit",
          "type": "uint256"
        },
        {
          "internalType": "uint160",
          "name": "sqrtPriceX96Limit",
          "type": "uint160"
        }
      ],
      "stateMutability": "view",
      "type": "function"
    }
  ],
  "bytecode": "0x610d7461003a600b82828239805160001a60731461002d57634e487b7160e01b600052600060045260246000fd5b30600052607381538281f3fe730000000000000000000000000000000000000000301460806040526004361061006c5760003560e01c806343c57a27146100715780637c2c89e21461009757806380e15efe146100ce578063826bd4bf146100f4578063a22f84f014610107578063ff9ceebd1461011a575b600080fd5b61008461007f36600461096a565b61012d565b6040519081526020015b60405180910390f35b6100aa6100a53660046109d2565b610144565b6040805193845260208401929092526001600160a01b03169082015260600161008e565b6100e16100dc366004610a3a565b610290565b60405160029190910b815260200161008e565b6100e1610102366004610a85565b6102d8565b6100e1610115366004610a85565b6102f9565b6100e1610128366004610a3a565b610314565b600061013b85858585610359565b95945050505050565b6000806000808790506000816001600160a01b0316633850c7bd6040518163ffffffff1660e01b815260040160e060405180830381865afa15801561018d573d6000803e3d6000fd5b505050506040513d601f19601f820116820180604052508101906101b19190610ab9565b50505050509150506000819050876001600160a01b0316896001600160a01b0316101561020b576101e387603c610b6c565b6101ed9083610bf9565b9050620d89e719600282900b12156102065750620d89e7195b61024c565b61021687603c610b6c565b6102209083610c1e565b905061022f620d89e719610c43565b60020b8160020b131561024c57610249620d89e719610c43565b90505b878961025a838e838561012d565b61027184676765c793fa10079d601b1b848661012d565b61027a85610462565b9750975097505050505050955095509592505050565b60008061029c846102d8565b905060006102aa8486610b6c565b6102b49087610bf9565b90508060020b8260020b12156102cd5791506102d19050565b5090505b9392505050565b6000816102e981620d89e719610c7b565b6102f39190610b6c565b92915050565b6000818061030a620d89e719610c43565b6102e99190610c7b565b600080610320846102f9565b9050600061032e8486610b6c565b6103389087610c1e565b90508060020b8260020b1215610350575090506102d1565b91506102d19050565b60008061036586610462565b90506001600160801b036001600160a01b038216116103eb5760006103936001600160a01b03831680610cb5565b9050836001600160a01b0316856001600160a01b0316106103cb576103c6600160c01b876001600160801b03168361087b565b6103e3565b6103e381876001600160801b0316600160c01b61087b565b925050610459565b60006104056001600160a01b03831680600160401b61087b565b9050836001600160a01b0316856001600160a01b03161061043d57610438600160801b876001600160801b03168361087b565b610455565b61045581876001600160801b0316600160801b61087b565b9250505b50949350505050565b60008060008360020b12610479578260020b610486565b8260020b61048690610cd4565b9050610495620d89e719610c43565b60020b8111156104cf5760405162461bcd60e51b81526020600482015260016024820152601560fa1b604482015260640160405180910390fd5b6000816001166000036104e657600160801b6104f8565b6ffffcb933bd6fad37aa2d162d1a5940015b6001600160881b03169050600282161561052d576080610528826ffff97272373d413259a46990580e213a610cb5565b901c90505b6004821615610557576080610552826ffff2e50f5f656932ef12357cf3c7fdcc610cb5565b901c90505b600882161561058157608061057c826fffe5caca7e10e4e61c3624eaa0941cd0610cb5565b901c90505b60108216156105ab5760806105a6826fffcb9843d60f6159c9db58835c926644610cb5565b901c90505b60208216156105d55760806105d0826fff973b41fa98c081472e6896dfb254c0610cb5565b901c90505b60408216156105ff5760806105fa826fff2ea16466c96a3843ec78b326b52861610cb5565b901c90505b6080821615610629576080610624826ffe5dee046a99a2a811c461f1969c3053610cb5565b901c90505b61010082161561065457608061064f826ffcbe86c7900a88aedcffc83b479aa3a4610cb5565b901c90505b61020082161561067f57608061067a826ff987a7253ac413176f2b074cf7815e54610cb5565b901c90505b6104008216156106aa5760806106a5826ff3392b0822b70005940c7a398e4b70f3610cb5565b901c90505b6108008216156106d55760806106d0826fe7159475a2c29b7443b29c7fa6e889d9610cb5565b901c90505b6110008216156107005760806106fb826fd097f3bdfd2022b8845ad8f792aa5825610cb5565b901c90505b61200082161561072b576080610726826fa9f746462d870fdf8a65dc1f90e061e5610cb5565b901c90505b614000821615610756576080610751826f70d869a156d2a1b890bb3df62baf32f7610cb5565b901c90505b61800082161561078157608061077c826f31be135f97d08fd981231505542fcfa6610cb5565b901c90505b620100008216156107ad5760806107a8826f09aa508b5b7a84e1c677de54f3e99bc9610cb5565b901c90505b620200008216156107d85760806107d3826e5d6af8dedb81196699c329225ee604610cb5565b901c90505b620400008216156108025760806107fd826d2216e584f5fa1ea926041bedfe98610cb5565b901c90505b6208000082161561082a576080610825826b048a170391f7dc42444e8fa2610cb5565b901c90505b60008460020b13156108455761084281600019610cf0565b90505b610853600160201b82610d04565b1561085f576001610862565b60005b6108739060ff16602083901c610d18565b949350505050565b600080821161088957600080fd5b600080600019858709858702925082811083820303915050806000036108b4575082900490506102d1565b8084116108c057600080fd5b6000848688098084039381119092039190506000856108e181600019610d2b565b6108ec906001610d18565b16958690049560026003880281188089028203028089028203028089028203028089028203028089028203028089029091030260008290038290046001019490940294049390931791909102925050509392505050565b8060020b811461095257600080fd5b50565b6001600160a01b038116811461095257600080fd5b6000806000806080858703121561098057600080fd5b843561098b81610943565b935060208501356001600160801b03811681146109a757600080fd5b925060408501356109b781610955565b915060608501356109c781610955565b939692955090935050565b600080600080600060a086880312156109ea57600080fd5b8535945060208601356109fc81610955565b93506040860135610a0c81610955565b92506060860135610a1c81610955565b91506080860135610a2c81610943565b809150509295509295909350565b600080600060608486031215610a4f57600080fd5b8335610a5a81610943565b92506020840135610a6a81610943565b91506040840135610a7a81610943565b809150509250925092565b600060208284031215610a9757600080fd5b81356102d181610943565b805161ffff81168114610ab457600080fd5b919050565b600080600080600080600060e0888a031215610ad457600080fd5b8751610adf81610955565b6020890151909750610af081610943565b9550610afe60408901610aa2565b9450610b0c60608901610aa2565b9350610b1a60808901610aa2565b925060a088015160ff81168114610b3057600080fd5b60c08901519092508015158114610b4657600080fd5b8091505092959891949750929550565b634e487b7160e01b600052601160045260246000fd5b60008160020b8360020b627fffff600082136000841383830485118282161615610b9857610b98610b56565b627fffff196000851282811687830587121615610bb757610bb7610b56565b60008712925085820587128484161615610bd357610bd3610b56565b85850587128184161615610be957610be9610b56565b5050509290910295945050505050565b600282810b9082900b03627fffff198112627fffff821317156102f3576102f3610b56565b600281810b9083900b01627fffff8113627fffff19821217156102f3576102f3610b56565b60008160020b627fffff198103610c5c57610c5c610b56565b60000392915050565b634e487b7160e01b600052601260045260246000fd5b60008160020b8360020b80610c9257610c92610c65565b627fffff19821460001982141615610cac57610cac610b56565b90059392505050565b6000816000190483118215151615610ccf57610ccf610b56565b500290565b6000600160ff1b8201610ce957610ce9610b56565b5060000390565b600082610cff57610cff610c65565b500490565b600082610d1357610d13610c65565b500690565b808201808211156102f3576102f3610b56565b818103818111156102f3576102f3610b5656fea2646970667358221220a138e8ba305a3970574fb5d88f3a09090e64336a03e79cb38da5aab3587bcd1564736f6c63430008100033",
  "linkReferences": {},
  "deployedLinkReferences": {}
}