{
  "_format": "hh-sol-artifact-1",
  "contractName": "LockTOS",
  "sourceName": "contracts/stake/LockTOS.sol",
  "abi": [
    {
      "inputs": [
        {
          "internalType": "address",
          "name": "_tos",
          "type": "address"
        },
        {
          "internalType": "uint256",
          "name": "_phase3StartTime",
          "type": "uint256"
        }
      ],
      "stateMutability": "nonpayable",
      "type": "constructor"
    },
    {
      "anonymous": false,
      "inputs": [
        {
          "indexed": true,
          "internalType": "bytes32",
          "name": "role",
          "type": "bytes32"
        },
        {
          "indexed": true,
          "internalType": "bytes32",
          "name": "previousAdminRole",
          "type": "bytes32"
        },
        {
          "indexed": true,
          "internalType": "bytes32",
          "name": "newAdminRole",
          "type": "bytes32"
        }
      ],
      "name": "RoleAdminChanged",
      "type": "event"
    },
    {
      "anonymous": false,
      "inputs": [
        {
          "indexed": true,
          "internalType": "bytes32",
          "name": "role",
          "type": "bytes32"
        },
        {
          "indexed": true,
          "internalType": "address",
          "name": "account",
          "type": "address"
        },
        {
          "indexed": true,
          "internalType": "address",
          "name": "sender",
          "type": "address"
        }
      ],
      "name": "RoleGranted",
      "type": "event"
    },
    {
      "anonymous": false,
      "inputs": [
        {
          "indexed": true,
          "internalType": "bytes32",
          "name": "role",
          "type": "bytes32"
        },
        {
          "indexed": true,
          "internalType": "address",
          "name": "account",
          "type": "address"
        },
        {
          "indexed": true,
          "internalType": "address",
          "name": "sender",
          "type": "address"
        }
      ],
      "name": "RoleRevoked",
      "type": "event"
    },
    {
      "inputs": [],
      "name": "DEFAULT_ADMIN_ROLE",
      "outputs": [
        {
          "internalType": "bytes32",
          "name": "",
          "type": "bytes32"
        }
      ],
      "stateMutability": "view",
      "type": "function"
    },
    {
      "inputs": [],
      "name": "MAXTIME",
      "outputs": [
        {
          "internalType": "uint256",
          "name": "",
          "type": "uint256"
        }
      ],
      "stateMutability": "view",
      "type": "function"
    },
    {
      "inputs": [],
      "name": "MULTIPLIER",
      "outputs": [
        {
          "internalType": "uint256",
          "name": "",
          "type": "uint256"
        }
      ],
      "stateMutability": "view",
      "type": "function"
    },
    {
      "inputs": [],
      "name": "ONE_WEEK",
      "outputs": [
        {
          "internalType": "uint256",
          "name": "",
          "type": "uint256"
        }
      ],
      "stateMutability": "view",
      "type": "function"
    },
    {
      "inputs": [
        {
          "internalType": "address",
          "name": "_addr",
          "type": "address"
        }
      ],
      "name": "balanceOf",
      "outputs": [
        {
          "internalType": "int128",
          "name": "balance",
          "type": "int128"
        }
      ],
      "stateMutability": "view",
      "type": "function"
    },
    {
      "inputs": [
        {
          "internalType": "address",
          "name": "_addr",
          "type": "address"
        },
        {
          "internalType": "uint256",
          "name": "_timestamp",
          "type": "uint256"
        }
      ],
      "name": "balanceOfAt",
      "outputs": [
        {
          "internalType": "int128",
          "name": "balance",
          "type": "int128"
        }
      ],
      "stateMutability": "view",
      "type": "function"
    },
    {
      "inputs": [
        {
          "internalType": "address",
          "name": "_addr",
          "type": "address"
        },
        {
          "internalType": "uint256",
          "name": "_lockId",
          "type": "uint256"
        }
      ],
      "name": "balanceOfLock",
      "outputs": [
        {
          "internalType": "int128",
          "name": "",
          "type": "int128"
        }
      ],
      "stateMutability": "view",
      "type": "function"
    },
    {
      "inputs": [
        {
          "internalType": "address",
          "name": "_addr",
          "type": "address"
        },
        {
          "internalType": "uint256",
          "name": "_lockId",
          "type": "uint256"
        },
        {
          "internalType": "uint256",
          "name": "_timestamp",
          "type": "uint256"
        }
      ],
      "name": "balanceOfLockAt",
      "outputs": [
        {
          "internalType": "int128",
          "name": "",
          "type": "int128"
        }
      ],
      "stateMutability": "view",
      "type": "function"
    },
    {
      "inputs": [
        {
          "internalType": "uint256",
          "name": "_value",
          "type": "uint256"
        },
        {
          "internalType": "uint256",
          "name": "_unlockTime",
          "type": "uint256"
        }
      ],
      "name": "createLock",
      "outputs": [
        {
          "internalType": "uint256",
          "name": "lockId",
          "type": "uint256"
        }
      ],
      "stateMutability": "nonpayable",
      "type": "function"
    },
    {
      "inputs": [
        {
          "internalType": "uint256",
          "name": "_value",
          "type": "uint256"
        },
        {
          "internalType": "uint256",
          "name": "_unlockTime",
          "type": "uint256"
        },
        {
          "internalType": "uint8",
          "name": "_v",
          "type": "uint8"
        },
        {
          "internalType": "bytes32",
          "name": "_r",
          "type": "bytes32"
        },
        {
          "internalType": "bytes32",
          "name": "_s",
          "type": "bytes32"
        }
      ],
      "name": "createLockPermit",
      "outputs": [
        {
          "internalType": "uint256",
          "name": "lockId",
          "type": "uint256"
        }
      ],
      "stateMutability": "nonpayable",
      "type": "function"
    },
    {
      "inputs": [
        {
          "internalType": "address",
          "name": "_addr",
          "type": "address"
        },
        {
          "internalType": "uint256",
          "name": "_lockId",
          "type": "uint256"
        },
        {
          "internalType": "uint256",
          "name": "_value",
          "type": "uint256"
        }
      ],
      "name": "depositFor",
      "outputs": [],
      "stateMutability": "nonpayable",
      "type": "function"
    },
    {
      "inputs": [
        {
          "internalType": "bytes32",
          "name": "role",
          "type": "bytes32"
        }
      ],
      "name": "getRoleAdmin",
      "outputs": [
        {
          "internalType": "bytes32",
          "name": "",
          "type": "bytes32"
        }
      ],
      "stateMutability": "view",
      "type": "function"
    },
    {
      "inputs": [
        {
          "internalType": "bytes32",
          "name": "role",
          "type": "bytes32"
        },
        {
          "internalType": "uint256",
          "name": "index",
          "type": "uint256"
        }
      ],
      "name": "getRoleMember",
      "outputs": [
        {
          "internalType": "address",
          "name": "",
          "type": "address"
        }
      ],
      "stateMutability": "view",
      "type": "function"
    },
    {
      "inputs": [
        {
          "internalType": "bytes32",
          "name": "role",
          "type": "bytes32"
        }
      ],
      "name": "getRoleMemberCount",
      "outputs": [
        {
          "internalType": "uint256",
          "name": "",
          "type": "uint256"
        }
      ],
      "stateMutability": "view",
      "type": "function"
    },
    {
      "inputs": [],
      "name": "globalCheckpoint",
      "outputs": [],
      "stateMutability": "nonpayable",
      "type": "function"
    },
    {
      "inputs": [
        {
          "internalType": "bytes32",
          "name": "role",
          "type": "bytes32"
        },
        {
          "internalType": "address",
          "name": "account",
          "type": "address"
        }
      ],
      "name": "grantRole",
      "outputs": [],
      "stateMutability": "nonpayable",
      "type": "function"
    },
    {
      "inputs": [
        {
          "internalType": "bytes32",
          "name": "role",
          "type": "bytes32"
        },
        {
          "internalType": "address",
          "name": "account",
          "type": "address"
        }
      ],
      "name": "hasRole",
      "outputs": [
        {
          "internalType": "bool",
          "name": "",
          "type": "bool"
        }
      ],
      "stateMutability": "view",
      "type": "function"
    },
    {
      "inputs": [
        {
          "internalType": "uint256",
          "name": "_lockId",
          "type": "uint256"
        },
        {
          "internalType": "uint256",
          "name": "_value",
          "type": "uint256"
        }
      ],
      "name": "increaseAmount",
      "outputs": [],
      "stateMutability": "nonpayable",
      "type": "function"
    },
    {
      "inputs": [
        {
          "internalType": "uint256",
          "name": "_lockId",
          "type": "uint256"
        },
        {
          "internalType": "uint256",
          "name": "_unlockTime",
          "type": "uint256"
        }
      ],
      "name": "increaseUnlockTime",
      "outputs": [],
      "stateMutability": "nonpayable",
      "type": "function"
    },
    {
      "inputs": [],
      "name": "lockIdCounter",
      "outputs": [
        {
          "internalType": "uint256",
          "name": "",
          "type": "uint256"
        }
      ],
      "stateMutability": "view",
      "type": "function"
    },
    {
      "inputs": [
        {
          "internalType": "address",
          "name": "",
          "type": "address"
        },
        {
          "internalType": "uint256",
          "name": "",
          "type": "uint256"
        }
      ],
      "name": "lockedBalances",
      "outputs": [
        {
          "internalType": "uint256",
          "name": "start",
          "type": "uint256"
        },
        {
          "internalType": "uint256",
          "name": "end",
          "type": "uint256"
        },
        {
          "internalType": "uint256",
          "name": "amount",
          "type": "uint256"
        }
      ],
      "stateMutability": "view",
      "type": "function"
    },
    {
      "inputs": [
        {
          "internalType": "address",
          "name": "_addr",
          "type": "address"
        }
      ],
      "name": "locksOf",
      "outputs": [
        {
          "internalType": "uint256[]",
          "name": "",
          "type": "uint256[]"
        }
      ],
      "stateMutability": "view",
      "type": "function"
    },
    {
      "inputs": [],
      "name": "phase3StartTime",
      "outputs": [
        {
          "internalType": "uint256",
          "name": "",
          "type": "uint256"
        }
      ],
      "stateMutability": "view",
      "type": "function"
    },
    {
      "inputs": [
        {
          "internalType": "bytes32",
          "name": "role",
          "type": "bytes32"
        },
        {
          "internalType": "address",
          "name": "account",
          "type": "address"
        }
      ],
      "name": "renounceRole",
      "outputs": [],
      "stateMutability": "nonpayable",
      "type": "function"
    },
    {
      "inputs": [
        {
          "internalType": "bytes32",
          "name": "role",
          "type": "bytes32"
        },
        {
          "internalType": "address",
          "name": "account",
          "type": "address"
        }
      ],
      "name": "revokeRole",
      "outputs": [],
      "stateMutability": "nonpayable",
      "type": "function"
    },
    {
      "inputs": [
        {
          "internalType": "uint256",
          "name": "",
          "type": "uint256"
        }
      ],
      "name": "slopeChanges",
      "outputs": [
        {
          "internalType": "int128",
          "name": "",
          "type": "int128"
        }
      ],
      "stateMutability": "view",
      "type": "function"
    },
    {
      "inputs": [],
      "name": "tos",
      "outputs": [
        {
          "internalType": "address",
          "name": "",
          "type": "address"
        }
      ],
      "stateMutability": "view",
      "type": "function"
    },
    {
      "inputs": [],
      "name": "totalSupply",
      "outputs": [
        {
          "internalType": "int128",
          "name": "",
          "type": "int128"
        }
      ],
      "stateMutability": "view",
      "type": "function"
    },
    {
      "inputs": [
        {
          "internalType": "uint256",
          "name": "_timestamp",
          "type": "uint256"
        }
      ],
      "name": "totalSupplyAt",
      "outputs": [
        {
          "internalType": "int128",
          "name": "",
          "type": "int128"
        }
      ],
      "stateMutability": "view",
      "type": "function"
    },
    {
      "inputs": [
        {
          "internalType": "address",
          "name": "",
          "type": "address"
        },
        {
          "internalType": "uint256",
          "name": "",
          "type": "uint256"
        }
      ],
      "name": "userLocks",
      "outputs": [
        {
          "internalType": "uint256",
          "name": "",
          "type": "uint256"
        }
      ],
      "stateMutability": "view",
      "type": "function"
    },
    {
      "inputs": [
        {
          "internalType": "address",
          "name": "",
          "type": "address"
        },
        {
          "internalType": "uint256",
          "name": "",
          "type": "uint256"
        },
        {
          "internalType": "uint256",
          "name": "",
          "type": "uint256"
        }
      ],
      "name": "userPointHistory",
      "outputs": [
        {
          "internalType": "int128",
          "name": "bias",
          "type": "int128"
        },
        {
          "internalType": "int128",
          "name": "slope",
          "type": "int128"
        },
        {
          "internalType": "uint256",
          "name": "timestamp",
          "type": "uint256"
        }
      ],
      "stateMutability": "view",
      "type": "function"
    },
    {
      "inputs": [
        {
          "internalType": "uint256",
          "name": "_lockId",
          "type": "uint256"
        }
      ],
      "name": "withdraw",
      "outputs": [],
      "stateMutability": "nonpayable",
      "type": "function"
    }
  ],
  "bytecode": "0x608060405260016007553480156200001657600080fd5b506040516200208c3803806200208c833981810160405260408110156200003c57600080fd5b508051602090910151620000526000336200007c565b600680546001600160a01b0319166001600160a01b03939093169290921790915560085562000190565b6200008882826200008c565b5050565b600082815260208181526040909120620000b19183906200137162000105821b17901c565b156200008857620000c162000125565b6001600160a01b0316816001600160a01b0316837f2f8788117e7eff1d82e926ec794901d17c78024a50270940304540a733656f0d60405160405180910390a45050565b60006200011c836001600160a01b03841662000129565b90505b92915050565b3390565b600062000137838362000178565b6200016f575081546001818101845560008481526020808220909301849055845484825282860190935260409020919091556200011f565b5060006200011f565b60009081526001919091016020526040902054151590565b611eec80620001a06000396000f3fe608060405234801561001057600080fd5b50600436106101b05760003560e01c80639010d07c116100ef578063b52c05fe11610092578063b52c05fe14610516578063c3f9ab5814610539578063ca15c873146105af578063d547741f146105cc578063d7608eb1146105f8578063de6e659c14610630578063ee00ef3a1461065c578063f52a36f714610664576101b0565b80639010d07c1461041457806391d1485414610437578063981b24d0146104775780639d507b8b14610494578063a217fddf146104b7578063aa33fedb146104bf578063afae883e146104eb578063b2383e55146104f3576101b0565b80634545304a116101575780634545304a146102925780634cf5fbf5146102e85780634ee2cd7e1461031a5780635d16a6f91461034657806370a08231146103905780637db29deb146103b657806389f395de146103e85780638e6f6b771461040c576101b0565b8063059f8b16146101b557806318160ddd146101cf5780631ac40e66146101ee578063248a9ca3146101f85780632e1a7d4d146102155780632f2ff15d1461023257806336568abe1461025e5780633dce77181461028a575b600080fd5b6101bd610681565b60408051918252519081900360200190f35b6101d761068d565b60408051600f9290920b8252519081900360200190f35b6101f6610758565b005b6101bd6004803603602081101561020e57600080fd5b5035610763565b6101f66004803603602081101561022b57600080fd5b503561077b565b6101f66004803603604081101561024857600080fd5b50803590602001356001600160a01b03166108fa565b6101f66004803603604081101561027457600080fd5b50803590602001356001600160a01b0316610966565b6101bd6109c7565b6102c4600480360360608110156102a857600080fd5b506001600160a01b0381351690602081013590604001356109cd565b60408051600f94850b81529290930b60208301528183015290519081900360600190f35b6101f6600480360360608110156102fe57600080fd5b506001600160a01b038135169060208101359060400135610a26565b6101d76004803603604081101561033057600080fd5b506001600160a01b038135169060200135610b6c565b6103726004803603604081101561035c57600080fd5b506001600160a01b038135169060200135610c23565b60408051938452602084019290925282820152519081900360600190f35b6101d7600480360360208110156103a657600080fd5b50356001600160a01b0316610c4f565b6101d7600480360360608110156103cc57600080fd5b506001600160a01b038135169060208101359060400135610d03565b6103f0610dad565b604080516001600160a01b039092168252519081900360200190f35b6101bd610dbc565b6103f06004803603604081101561042a57600080fd5b5080359060200135610dc3565b6104636004803603604081101561044d57600080fd5b50803590602001356001600160a01b0316610ddb565b604080519115158252519081900360200190f35b6101d76004803603602081101561048d57600080fd5b5035610df3565b6101f6600480360360408110156104aa57600080fd5b5080359060200135610e75565b6101bd610f9f565b6101bd600480360360408110156104d557600080fd5b506001600160a01b038135169060200135610fa4565b6101bd610fd5565b6101f66004803603604081101561050957600080fd5b5080359060200135610fdb565b6101bd6004803603604081101561052c57600080fd5b5080359060200135610fe6565b61055f6004803603602081101561054f57600080fd5b50356001600160a01b03166110cc565b60408051602080825283518183015283519192839290830191858101910280838360005b8381101561059b578181015183820152602001610583565b505050509050019250505060405180910390f35b6101bd600480360360208110156105c557600080fd5b5035611138565b6101f6600480360360408110156105e257600080fd5b50803590602001356001600160a01b031661114f565b6101bd600480360360a081101561060e57600080fd5b5080359060208101359060ff60408201351690606081013590608001356111a8565b6101d76004803603604081101561064657600080fd5b506001600160a01b038135169060200135611249565b6101bd611354565b6101d76004803603602081101561067a57600080fd5b503561135c565b670de0b6b3a764000081565b60015460009061069f57506000610755565b600180546000919060001981019081106106b557fe5b60009182526020918290206040805160608101825260029093029091018054600f81810b810b810b8552600160801b909104810b810b900b9383018490526001908101549183018290526008549294504291820390930292911115610718575060025b670de0b6b3a7640000600f0b8183600f0b8560000151600f0b1361073d576000610743565b84518490035b02600f0b8161074e57fe5b0593505050505b90565b610760611386565b50565b6000818152602081905260409020600201545b919050565b3360009081526003602090815260408083208484528252808320815160608082018452825482526001830154828601908152600290930154828501528351908101845285815293840185905291830193909352915142116107fd576040805162461bcd60e51b8152602060048201526000602482015290519081900360440190fd5b604082015161082d576040805162461bcd60e51b8152602060048201526000602482015290519081900360440190fd5b6108378183611574565b60065460408084015181516323b872dd60e01b8152306004820152336024820152604481019190915290516001600160a01b03909216916323b872dd916064808201926020929091908290030181600087803b15801561089657600080fd5b505af11580156108aa573d6000803e3d6000fd5b505050506040513d60208110156108c057600080fd5b5050336000908152600360209081526040808320958352948152908490208251815590820151600182015592015160029092019190915550565b60008281526020819052604090206002015461091d9061091861177b565b610ddb565b6109585760405162461bcd60e51b815260040180806020018281038252602f815260200180611e29602f913960400191505060405180910390fd5b610962828261177f565b5050565b61096e61177b565b6001600160a01b0316816001600160a01b0316146109bd5760405162461bcd60e51b815260040180806020018281038252602f815260200180611e88602f913960400191505060405180910390fd5b61096282826117e8565b60085481565b600260205282600052604060002060205281600052604060002081815481106109f557600080fd5b600091825260209091206002909102018054600190910154600f82810b9550600160801b90920490910b9250905083565b60008111610a7b576040805162461bcd60e51b815260206004820152601f60248201527f56616c7565206c6f636b65642073686f756c64206265206e6f6e2d7a65726f00604482015290519081900360640190fd5b6001600160a01b03831660009081526003602090815260408083208584528252918290208251606081018452815481526001820154928101839052600290910154928101929092524210610b0c576040805162461bcd60e51b81526020600482015260136024820152725769746864726177206f6c6420746f6b656e7360681b604482015290519081900360640190fd5b604081015115610b59576040805162461bcd60e51b81526020600482015260136024820152725769746864726177206f6c6420746f6b656e7360681b604482015290519081900360640190fd5b610b668484846000611851565b50505050565b6001600160a01b038216600090815260046020908152604080832080548251818502810185019093528083528493830182828015610bc957602002820191906000526020600020905b815481526020019060010190808311610bb5575b50505050509050805160001415610be4576000915050610c1d565b60005b8151811015610c1a57610c0e85838381518110610c0057fe5b602002602001015186610d03565b90920191600101610be7565b50505b92915050565b600360209081526000928352604080842090915290825290208054600182015460029092015490919083565b6001600160a01b038116600090815260046020908152604080832080548251818502810185019093528083528493830182828015610cac57602002820191906000526020600020905b815481526020019060010190808311610c98575b50505050509050805160001415610cc7576000915050610776565b60005b8151811015610cfc57610cf084838381518110610ce357fe5b6020026020010151611249565b90920191600101610cca565b5050919050565b6001600160a01b0383166000908152600260209081526040808320858452909152812081908190610d349085611a1e565b9150915081610d4857600092505050610da6565b604081015160208201516008549186030290600190861015610d68575060025b670de0b6b3a7640000600f0b8183600f0b8560000151600f0b13610d8d576000610d93565b84518490035b02600f0b81610d9e57fe5b059450505050505b9392505050565b6006546001600160a01b031681565b62093a8081565b6000828152602081905260408120610da69083611af1565b6000828152602081905260408120610da69083611afd565b6000806000610e03600185611a1e565b9150915081610e1757600092505050610776565b600854600190421015610e28575060025b6040820151602083015183519187030290670de0b6b3a7640000908390600f84810b91900b13610e59576000610e5f565b84518390035b02600f0b81610e6a57fe5b059695505050505050565b3360009081526003602090815260408083208584528252918290208251606081018452815481526001820154928101839052600290910154928101929092524210610ef5576040805162461bcd60e51b815260206004820152600b60248201526a556e6c6f636b2074696d6560a81b604482015290519081900360640190fd5b81816020015110610f3b576040805162461bcd60e51b815260206004820152600b60248201526a556e6c6f636b2074696d6560a81b604482015290519081900360640190fd5b6000816040015111610f8d576040805162461bcd60e51b81526020600482015260166024820152754e6f206578697374696e67206c6f636b656420544f5360501b604482015290519081900360640190fd5b610f9a3384600085611851565b505050565b600081565b60046020528160005260406000208181548110610fc057600080fd5b90600052602060002001600091509150505481565b60075481565b610962338383610a26565b600080831161103c576040805162461bcd60e51b815260206004820152601f60248201527f56616c7565206c6f636b65642073686f756c64206265206e6f6e2d7a65726f00604482015290519081900360640190fd5b62093a8042018211611083576040805162461bcd60e51b815260206004820152600b60248201526a556e6c6f636b2074696d6560a81b604482015290519081900360640190fd5b50600780546001810190915562093a80808304026110a333838684611851565b503360009081526004602090815260408220805460018101825590835291200181905592915050565b6001600160a01b03811660009081526004602090815260409182902080548351818402810184019094528084526060939283018282801561112c57602002820191906000526020600020905b815481526020019060010190808311611118575b50505050509050919050565b6000818152602081905260408120610c1d90611b12565b60008281526020819052604090206002015461116d9061091861177b565b6109bd5760405162461bcd60e51b8152600401808060200182810382526030815260200180611e586030913960400191505060405180910390fd5b6006546040805163d505accf60e01b81523360048201523060248201526044810188905242606482015260ff8616608482015260a4810185905260c4810184905290516000926001600160a01b03169163d505accf9160e4808301928692919082900301818387803b15801561121d57600080fd5b505af1158015611231573d6000803e3d6000fd5b5050505061123f8686610fe6565b5095945050505050565b6001600160a01b03821660009081526002602090815260408083208484529091528120548061127c576000915050610c1d565b6001600160a01b03841660009081526002602090815260408083208684529091528120805460001984019081106112af57fe5b60009182526020918290206040805160608101825260029093029091018054600f81810b810b810b8552600160801b909104810b810b900b9383018490526001908101549183018290526008549294504291820390930292911115611312575060025b670de0b6b3a7640000600f0b8183600f0b8560000151600f0b1361133757600061133d565b84518490035b02600f0b8161134857fe5b05979650505050505050565b6305a39a8081565b600560205260009081526040902054600f0b81565b6000610da6836001600160a01b038416611b1d565b61138e611de6565b6001544290156113fd576001805460001981019081106113aa57fe5b60009182526020918290206040805160608101825260029093029091018054600f81810b810b810b8552600160801b909104810b810b900b9383019390935260019092015491810191909152915061141a565b604080516060810182526000808252602082015290810182905291505b600062093a808084604001518161142d57fe5b040290505b81811461156f5761144862093a80820183611b67565b6000818152600560209081526040808320549087015191870180518851938603818102909403600f90810b810b808b5293810b918201810b810b9092529495509192910b1361149857600061149b565b84515b600f90810b810b865260208601516000910b136114b95760006114bf565b84602001515b600f90810b810b6020870190815260408701858152600180548082018255600091909152885160029091027fb10e2d527612073b26eecdfd717e6a320cf44b4afac2b0732d9fcbe2b7fa0cf6810180549451860b6001600160801b03908116600160801b029390960b86166001600160801b03199095169490941790941617909155517fb10e2d527612073b26eecdfd717e6a320cf44b4afac2b0732d9fcbe2b7fa0cf790910155506114329050565b505090565b604080516060808201835260008083526020808401829052838501829052845192830185528183528281018290529382015291840151429290831080156115bf575060008560400151115b156115fd576305a39a808560400151816115d557fe5b04600f90810b810b602080850182905287018051869003909102820b90910b83525160408301525b828460200151118015611614575060008460400151115b15611652576305a39a8085604001518161162a57fe5b04600f90810b810b602080840182905287018051869003909102820b90910b82525160408201525b600061165c611386565b82518451825191900301600f90810b810b8083526020808601518188015191850180519190920301830b830b9052919250600091900b1361169e5760006116a1565b80515b600f90810b810b825260208201516000910b136116bf5760006116c5565b80602001515b600f90810b810b60208301908152600180548082018255600091909152835160029091027fb10e2d527612073b26eecdfd717e6a320cf44b4afac2b0732d9fcbe2b7fa0cf6810180549351850b6001600160801b03908116600160801b029390950b85166001600160801b03199094169390931790931617905560408201517fb10e2d527612073b26eecdfd717e6a320cf44b4afac2b0732d9fcbe2b7fa0cf7909101556117738383611b7d565b505050505050565b3390565b60008281526020819052604090206117979082611371565b15610962576117a461177b565b6001600160a01b0316816001600160a01b0316837f2f8788117e7eff1d82e926ec794901d17c78024a50270940304540a733656f0d60405160405180910390a45050565b60008281526020819052604090206118009082611c8b565b156109625761180d61177b565b6001600160a01b0316816001600160a01b0316837ff6391f5c32d9c69d2a47ea670b442974b53935d1edc7fd64eb21e047a839171b60405160405180910390a45050565b6001600160a01b038416600090815260036020908152604080832086845282529182902082516060808201855282548252600183015482850190815260029093015482860190815285519182018652428252925193810193909352905185019282019290925282156118c557602081018390525b6118cf8183611574565b600654604080516323b872dd60e01b81523360048201523060248201526044810187905290516001600160a01b03909216916323b872dd916064808201926020929091908290030181600087803b15801561192957600080fd5b505af115801561193d573d6000803e3d6000fd5b505050506040513d602081101561195357600080fd5b505060408101516000906305a39a8090670de0b6b3a76400000260209384015160408051606081018252429283900394909304938402600f90810b845293840b8387019081528382019283526001600160a01b03909b16600090815260028088528282209b82529a87529081208054600181810183559183529690912092519590990290910180549951830b6001600160801b03908116600160801b029590930b83166001600160801b0319909a169990991790911692909217875550519490930193909355505050565b6000611a28611de6565b8354611a375760009150611aea565b83546000905b80826001011015611a88576000600283830104905085878281548110611a5f57fe5b90600052602060002090600202016001015411611a7e57809250611a82565b8091505b50611a3d565b6001868381548110611a9657fe5b60009182526020918290206040805160608101825260029093029091018054600f81810b810b810b8552600160801b909104810b810b900b9383019390935260019092015491810191909152909450925050505b9250929050565b6000610da68383611ca0565b6000610da6836001600160a01b038416611d04565b6000610c1d82611d1c565b6000611b298383611d04565b611b5f57508154600181810184556000848152602080822090930184905584548482528286019093526040902091909155610c1d565b506000610c1d565b6000818310611b765781610da6565b5090919050565b6040808201516000908152600560205281812054918401519091600f0b9015611bd057826040015184604001511415611bb857809150611bd0565b604080850151600090815260056020522054600f0b91505b4283604001511115611c2c57826020015181019050836040015183604001511415611bfd57602084015190035b604083810151600090815260056020522080546001600160801b0319166001600160801b03600f84900b161790555b428460400151118015611c46575082604001518460400151115b15610b6657506020838101516040948501516000908152600590925293902080546001600160801b0319166001600160801b0394909203600f0b939093161790915550565b6000610da6836001600160a01b038416611d20565b81546000908210611ce25760405162461bcd60e51b8152600401808060200182810382526022815260200180611e076022913960400191505060405180910390fd5b826000018281548110611cf157fe5b9060005260206000200154905092915050565b60009081526001919091016020526040902054151590565b5490565b60008181526001830160205260408120548015611ddc5783546000198083019190810190600090879083908110611d5357fe5b9060005260206000200154905080876000018481548110611d7057fe5b600091825260208083209091019290925582815260018981019092526040902090840190558654879080611da057fe5b60019003818190600052602060002001600090559055866001016000878152602001908152602001600020600090556001945050505050610c1d565b6000915050610c1d565b60408051606081018252600080825260208201819052918101919091529056fe456e756d657261626c655365743a20696e646578206f7574206f6620626f756e6473416363657373436f6e74726f6c3a2073656e646572206d75737420626520616e2061646d696e20746f206772616e74416363657373436f6e74726f6c3a2073656e646572206d75737420626520616e2061646d696e20746f207265766f6b65416363657373436f6e74726f6c3a2063616e206f6e6c792072656e6f756e636520726f6c657320666f722073656c66a26469706673582212202657c44712c9cf8fecc27009a44de12ba28cacb0a9dce2f8662d0a839e449fe964736f6c63430007060033",
  "linkReferences": {},
  "deployedLinkReferences": {}
}