{
  "_format": "hh-sol-artifact-1",
  "contractName": "LockTOSDividend",
  "sourceName": "contracts/stake/LockTOSDividend.sol",
  "abi": [
    {
      "anonymous": false,
      "inputs": [
        {
          "indexed": true,
          "internalType": "address",
          "name": "token",
          "type": "address"
        },
        {
          "indexed": false,
          "internalType": "uint256",
          "name": "amount",
          "type": "uint256"
        },
        {
          "indexed": false,
          "internalType": "uint256",
          "name": "timestamp",
          "type": "uint256"
        }
      ],
      "name": "Claim",
      "type": "event"
    },
    {
      "anonymous": false,
      "inputs": [
        {
          "indexed": true,
          "internalType": "address",
          "name": "token",
          "type": "address"
        },
        {
          "indexed": false,
          "internalType": "uint256",
          "name": "amount",
          "type": "uint256"
        }
      ],
      "name": "Distribute",
      "type": "event"
    },
    {
      "anonymous": false,
      "inputs": [
        {
          "indexed": true,
          "internalType": "address",
          "name": "token",
          "type": "address"
        },
        {
          "indexed": false,
          "internalType": "uint256",
          "name": "oldEpoch",
          "type": "uint256"
        },
        {
          "indexed": false,
          "internalType": "uint256",
          "name": "newEpoch",
          "type": "uint256"
        }
      ],
      "name": "Redistribute",
      "type": "event"
    },
    {
      "anonymous": false,
      "inputs": [
        {
          "indexed": true,
          "internalType": "bytes32",
          "name": "role",
          "type": "bytes32"
        },
        {
          "indexed": true,
          "internalType": "bytes32",
          "name": "previousAdminRole",
          "type": "bytes32"
        },
        {
          "indexed": true,
          "internalType": "bytes32",
          "name": "newAdminRole",
          "type": "bytes32"
        }
      ],
      "name": "RoleAdminChanged",
      "type": "event"
    },
    {
      "anonymous": false,
      "inputs": [
        {
          "indexed": true,
          "internalType": "bytes32",
          "name": "role",
          "type": "bytes32"
        },
        {
          "indexed": true,
          "internalType": "address",
          "name": "account",
          "type": "address"
        },
        {
          "indexed": true,
          "internalType": "address",
          "name": "sender",
          "type": "address"
        }
      ],
      "name": "RoleGranted",
      "type": "event"
    },
    {
      "anonymous": false,
      "inputs": [
        {
          "indexed": true,
          "internalType": "bytes32",
          "name": "role",
          "type": "bytes32"
        },
        {
          "indexed": true,
          "internalType": "address",
          "name": "account",
          "type": "address"
        },
        {
          "indexed": true,
          "internalType": "address",
          "name": "sender",
          "type": "address"
        }
      ],
      "name": "RoleRevoked",
      "type": "event"
    },
    {
      "inputs": [],
      "name": "ADMIN_ROLE",
      "outputs": [
        {
          "internalType": "bytes32",
          "name": "",
          "type": "bytes32"
        }
      ],
      "stateMutability": "view",
      "type": "function"
    },
    {
      "inputs": [],
      "name": "BURNER_ROLE",
      "outputs": [
        {
          "internalType": "bytes32",
          "name": "",
          "type": "bytes32"
        }
      ],
      "stateMutability": "view",
      "type": "function"
    },
    {
      "inputs": [],
      "name": "DEFAULT_ADMIN_ROLE",
      "outputs": [
        {
          "internalType": "bytes32",
          "name": "",
          "type": "bytes32"
        }
      ],
      "stateMutability": "view",
      "type": "function"
    },
    {
      "inputs": [],
      "name": "MINTER_ROLE",
      "outputs": [
        {
          "internalType": "bytes32",
          "name": "",
          "type": "bytes32"
        }
      ],
      "stateMutability": "view",
      "type": "function"
    },
    {
      "inputs": [
        {
          "internalType": "address",
          "name": "account",
          "type": "address"
        }
      ],
      "name": "addAdmin",
      "outputs": [],
      "stateMutability": "nonpayable",
      "type": "function"
    },
    {
      "inputs": [
        {
          "internalType": "address",
          "name": "_token",
          "type": "address"
        }
      ],
      "name": "claim",
      "outputs": [],
      "stateMutability": "nonpayable",
      "type": "function"
    },
    {
      "inputs": [
        {
          "internalType": "address",
          "name": "_token",
          "type": "address"
        },
        {
          "internalType": "uint256",
          "name": "_lockId",
          "type": "uint256"
        }
      ],
      "name": "claimStartWeeklyEpoch",
      "outputs": [
        {
          "internalType": "uint256",
          "name": "",
          "type": "uint256"
        }
      ],
      "stateMutability": "view",
      "type": "function"
    },
    {
      "inputs": [
        {
          "internalType": "address",
          "name": "_token",
          "type": "address"
        },
        {
          "internalType": "uint256",
          "name": "_timestamp",
          "type": "uint256"
        }
      ],
      "name": "claimUpTo",
      "outputs": [],
      "stateMutability": "nonpayable",
      "type": "function"
    },
    {
      "inputs": [
        {
          "internalType": "address",
          "name": "_account",
          "type": "address"
        },
        {
          "internalType": "address",
          "name": "_token",
          "type": "address"
        }
      ],
      "name": "claimable",
      "outputs": [
        {
          "internalType": "uint256",
          "name": "",
          "type": "uint256"
        }
      ],
      "stateMutability": "view",
      "type": "function"
    },
    {
      "inputs": [
        {
          "internalType": "address",
          "name": "_account",
          "type": "address"
        },
        {
          "internalType": "address",
          "name": "_token",
          "type": "address"
        },
        {
          "internalType": "uint256",
          "name": "_timeStart",
          "type": "uint256"
        },
        {
          "internalType": "uint256",
          "name": "_timeEnd",
          "type": "uint256"
        }
      ],
      "name": "claimableForPeriod",
      "outputs": [
        {
          "internalType": "uint256",
          "name": "",
          "type": "uint256"
        }
      ],
      "stateMutability": "view",
      "type": "function"
    },
    {
      "inputs": [
        {
          "internalType": "address",
          "name": "_token",
          "type": "address"
        },
        {
          "internalType": "uint256",
          "name": "_amount",
          "type": "uint256"
        }
      ],
      "name": "distribute",
      "outputs": [],
      "stateMutability": "nonpayable",
      "type": "function"
    },
    {
      "inputs": [
        {
          "internalType": "address",
          "name": "",
          "type": "address"
        }
      ],
      "name": "distributions",
      "outputs": [
        {
          "internalType": "uint256",
          "name": "totalDistribution",
          "type": "uint256"
        },
        {
          "internalType": "uint256",
          "name": "lastBalance",
          "type": "uint256"
        }
      ],
      "stateMutability": "view",
      "type": "function"
    },
    {
      "inputs": [],
      "name": "epochUnit",
      "outputs": [
        {
          "internalType": "uint256",
          "name": "",
          "type": "uint256"
        }
      ],
      "stateMutability": "view",
      "type": "function"
    },
    {
      "inputs": [],
      "name": "genesis",
      "outputs": [
        {
          "internalType": "uint256",
          "name": "",
          "type": "uint256"
        }
      ],
      "stateMutability": "view",
      "type": "function"
    },
    {
      "inputs": [],
      "name": "getCurrentWeeklyEpoch",
      "outputs": [
        {
          "internalType": "uint256",
          "name": "",
          "type": "uint256"
        }
      ],
      "stateMutability": "view",
      "type": "function"
    },
    {
      "inputs": [
        {
          "internalType": "bytes32",
          "name": "role",
          "type": "bytes32"
        }
      ],
      "name": "getRoleAdmin",
      "outputs": [
        {
          "internalType": "bytes32",
          "name": "",
          "type": "bytes32"
        }
      ],
      "stateMutability": "view",
      "type": "function"
    },
    {
      "inputs": [
        {
          "internalType": "bytes32",
          "name": "role",
          "type": "bytes32"
        },
        {
          "internalType": "uint256",
          "name": "index",
          "type": "uint256"
        }
      ],
      "name": "getRoleMember",
      "outputs": [
        {
          "internalType": "address",
          "name": "",
          "type": "address"
        }
      ],
      "stateMutability": "view",
      "type": "function"
    },
    {
      "inputs": [
        {
          "internalType": "bytes32",
          "name": "role",
          "type": "bytes32"
        }
      ],
      "name": "getRoleMemberCount",
      "outputs": [
        {
          "internalType": "uint256",
          "name": "",
          "type": "uint256"
        }
      ],
      "stateMutability": "view",
      "type": "function"
    },
    {
      "inputs": [
        {
          "internalType": "uint256",
          "name": "_timestamp",
          "type": "uint256"
        }
      ],
      "name": "getWeeklyEpoch",
      "outputs": [
        {
          "internalType": "uint256",
          "name": "",
          "type": "uint256"
        }
      ],
      "stateMutability": "view",
      "type": "function"
    },
    {
      "inputs": [
        {
          "internalType": "bytes32",
          "name": "role",
          "type": "bytes32"
        },
        {
          "internalType": "address",
          "name": "account",
          "type": "address"
        }
      ],
      "name": "grantRole",
      "outputs": [],
      "stateMutability": "nonpayable",
      "type": "function"
    },
    {
      "inputs": [
        {
          "internalType": "bytes32",
          "name": "role",
          "type": "bytes32"
        },
        {
          "internalType": "address",
          "name": "account",
          "type": "address"
        }
      ],
      "name": "hasRole",
      "outputs": [
        {
          "internalType": "bool",
          "name": "",
          "type": "bool"
        }
      ],
      "stateMutability": "view",
      "type": "function"
    },
    {
      "inputs": [
        {
          "internalType": "address",
          "name": "account",
          "type": "address"
        }
      ],
      "name": "isAdmin",
      "outputs": [
        {
          "internalType": "bool",
          "name": "",
          "type": "bool"
        }
      ],
      "stateMutability": "view",
      "type": "function"
    },
    {
      "inputs": [],
      "name": "lockTOS",
      "outputs": [
        {
          "internalType": "address",
          "name": "",
          "type": "address"
        }
      ],
      "stateMutability": "view",
      "type": "function"
    },
    {
      "inputs": [],
      "name": "migratedL2",
      "outputs": [
        {
          "internalType": "bool",
          "name": "",
          "type": "bool"
        }
      ],
      "stateMutability": "view",
      "type": "function"
    },
    {
      "inputs": [],
      "name": "pauseProxy",
      "outputs": [
        {
          "internalType": "bool",
          "name": "",
          "type": "bool"
        }
      ],
      "stateMutability": "view",
      "type": "function"
    },
    {
      "inputs": [
        {
          "internalType": "address",
          "name": "account",
          "type": "address"
        }
      ],
      "name": "removeAdmin",
      "outputs": [],
      "stateMutability": "nonpayable",
      "type": "function"
    },
    {
      "inputs": [
        {
          "internalType": "bytes32",
          "name": "role",
          "type": "bytes32"
        },
        {
          "internalType": "address",
          "name": "account",
          "type": "address"
        }
      ],
      "name": "renounceRole",
      "outputs": [],
      "stateMutability": "nonpayable",
      "type": "function"
    },
    {
      "inputs": [
        {
          "internalType": "bytes32",
          "name": "role",
          "type": "bytes32"
        },
        {
          "internalType": "address",
          "name": "account",
          "type": "address"
        }
      ],
      "name": "revokeRole",
      "outputs": [],
      "stateMutability": "nonpayable",
      "type": "function"
    },
    {
      "inputs": [],
      "name": "stakeRegistry",
      "outputs": [
        {
          "internalType": "address",
          "name": "",
          "type": "address"
        }
      ],
      "stateMutability": "view",
      "type": "function"
    },
    {
      "inputs": [
        {
          "internalType": "address",
          "name": "_token",
          "type": "address"
        },
        {
          "internalType": "uint256",
          "name": "_timestamp",
          "type": "uint256"
        }
      ],
      "name": "tokensPerWeekAt",
      "outputs": [
        {
          "internalType": "uint256",
          "name": "",
          "type": "uint256"
        }
      ],
      "stateMutability": "view",
      "type": "function"
    },
    {
      "inputs": [
        {
          "internalType": "address",
          "name": "newAdmin",
          "type": "address"
        }
      ],
      "name": "transferAdmin",
      "outputs": [],
      "stateMutability": "nonpayable",
      "type": "function"
    }
  ],
  "bytecode": "0x6080604052600160055534801561001557600080fd5b50611cf1806100256000396000f3fe608060405234801561001057600080fd5b50600436106101e55760003560e01c80639010d07c1161010f578063d4570c1c116100a2578063ed40055d11610071578063ed40055d1461056e578063eff7913914610576578063fb93210814610593578063fd2dcecf146105bf576101e5565b8063d4570c1c146104e0578063d53913931461050e578063d547741f14610516578063e3ba18a514610542576101e5565b8063a217fddf116100de578063a217fddf14610477578063a7f0b3de1461047f578063bb1d03e314610487578063ca15c873146104c3576101e5565b80639010d07c146103e157806391d14854146104045780639353b9df14610430578063a1f5f50e1461046f576101e5565b80634dfd6076116101875780637048027511610156578063704802751461036157806375829def1461038757806375b238fc146103ad5780637b7eb2e2146103b5576101e5565b80634dfd6076146103015780634e6c44661461032d57806363a8fd89146103515780636830483514610359576101e5565b806324d7806c116101c357806324d7806c14610267578063282c51f3146102a15780632f2ff15d146102a957806336568abe146102d5576101e5565b80631785f53c146101ea5780631e83409a14610212578063248a9ca314610238575b600080fd5b6102106004803603602081101561020057600080fd5b50356001600160a01b03166105c7565b005b6102106004803603602081101561022857600080fd5b50356001600160a01b0316610638565b6102556004803603602081101561024e57600080fd5b5035610642565b60408051918252519081900360200190f35b61028d6004803603602081101561027d57600080fd5b50356001600160a01b0316610657565b604080519115158252519081900360200190f35b610255610689565b610210600480360360408110156102bf57600080fd5b50803590602001356001600160a01b03166106ad565b610210600480360360408110156102eb57600080fd5b50803590602001356001600160a01b0316610719565b6102556004803603604081101561031757600080fd5b506001600160a01b03813516906020013561077a565b6103356107a6565b604080516001600160a01b039092168252519081900360200190f35b61028d6107b5565b6103356107be565b6102106004803603602081101561037757600080fd5b50356001600160a01b03166107d2565b6102106004803603602081101561039d57600080fd5b50356001600160a01b0316610840565b610255610991565b610255600480360360408110156103cb57600080fd5b506001600160a01b0381351690602001356109b5565b610335600480360360408110156103f757600080fd5b50803590602001356109f1565b61028d6004803603604081101561041a57600080fd5b50803590602001356001600160a01b0316610a10565b6104566004803603602081101561044657600080fd5b50356001600160a01b0316610a28565b6040805192835260208301919091528051918290030190f35b61028d610a41565b610255610a63565b610255610a68565b6102556004803603608081101561049d57600080fd5b506001600160a01b03813581169160208101359091169060408101359060600135610a6e565b610255600480360360208110156104d957600080fd5b5035610c3e565b610255600480360360408110156104f657600080fd5b506001600160a01b0381358116916020013516610c55565b610255610c65565b6102106004803603604081101561052c57600080fd5b50803590602001356001600160a01b0316610c89565b6102106004803603604081101561055857600080fd5b506001600160a01b038135169060200135610ce2565b610255610d4e565b6102556004803603602081101561058c57600080fd5b5035610d5e565b610210600480360360408110156105a957600080fd5b506001600160a01b038135169060200135610d81565b6102556110bf565b6105d033610657565b61060b5760405162461bcd60e51b8152600401808060200182810382526022815260200180611c1a6022913960400191505060405180910390fd5b6106357fdf8b4c520ffe197c5343c6f5aec59570151ef9a492f2c624fd45ddde6135ec4282610719565b50565b61063581426110c5565b60009081526006602052604090206002015490565b60006106837fdf8b4c520ffe197c5343c6f5aec59570151ef9a492f2c624fd45ddde6135ec4283610a10565b92915050565b7f9667e80708b6eeeb0053fa0cca44e028ff548e2a9f029edfeac87c118b08b7c881565b6000828152600660205260409020600201546106d0906106cb6113b7565b610a10565b61070b5760405162461bcd60e51b815260040180806020018281038252602f815260200180611beb602f913960400191505060405180910390fd5b61071582826113bb565b5050565b6107216113b7565b6001600160a01b0316816001600160a01b0316146107705760405162461bcd60e51b815260040180806020018281038252602f815260200180611c8d602f913960400191505060405180910390fd5b6107158282611424565b6001600160a01b0391909116600090815260046020908152604080832093835260039093019052205490565b6002546001600160a01b031681565b60005460ff1681565b60005461010090046001600160a01b031681565b6107db33610657565b6108165760405162461bcd60e51b8152600401808060200182810382526022815260200180611c1a6022913960400191505060405180910390fd5b6106357fdf8b4c520ffe197c5343c6f5aec59570151ef9a492f2c624fd45ddde6135ec42826106ad565b61084933610657565b6108845760405162461bcd60e51b8152600401808060200182810382526022815260200180611c1a6022913960400191505060405180910390fd5b6001600160a01b0381166108df576040805162461bcd60e51b815260206004820152601860248201527f41636365737369626c653a207a65726f20616464726573730000000000000000604482015290519081900360640190fd5b336001600160a01b038216141561093d576040805162461bcd60e51b815260206004820152601660248201527f41636365737369626c653a2073616d652061646d696e00000000000000000000604482015290519081900360640190fd5b6109677fdf8b4c520ffe197c5343c6f5aec59570151ef9a492f2c624fd45ddde6135ec42826106ad565b6106357fdf8b4c520ffe197c5343c6f5aec59570151ef9a492f2c624fd45ddde6135ec4233610719565b7fdf8b4c520ffe197c5343c6f5aec59570151ef9a492f2c624fd45ddde6135ec4281565b6000806109c183610d5e565b6001600160a01b038516600090815260046020908152604080832093835260029093019052205491505092915050565b6000828152600660205260408120610a09908361148d565b9392505050565b6000828152600660205260408120610a099083611499565b6004602052600090815260409020805460019091015482565b6000547501000000000000000000000000000000000000000000900460ff1681565b600081565b60035481565b600080610a7a84610d5e565b90506000610a8784610d5e565b905080610a9957600092505050610c36565b6002546040805163187f356b60e31b81526001600160a01b038a811660048301529151600093929092169163c3f9ab58916024808201928692909190829003018186803b158015610ae957600080fd5b505afa158015610afd573d6000803e3d6000fd5b505050506040513d6000823e601f3d908101601f191682016040526020811015610b2657600080fd5b8101908080516040519392919084640100000000821115610b4657600080fd5b908301906020820185811115610b5b57600080fd5b8251866020820283011164010000000082111715610b7857600080fd5b82525081516020918201928201910280838360005b83811015610ba5578181015183820152602001610b8d565b505050509190910160409081526001600160a01b038d166000908152600460205290812095965094935084925050505b8351811015610c2d576000848281518110610bec57fe5b60200260200101519050610c208382610c1a8a876003016000878152602001908152602001600020546114ae565b896114c5565b9093019250600101610bd5565b50909450505050505b949350505050565b6000818152600660205260408120610683906115ea565b6000610a09838360035442610a6e565b7ff0887ba65ee2024ea881d91b74c2450ef19e1557f03bed3ea9f16b037cbe2dc981565b600082815260066020526040902060020154610ca7906106cb6113b7565b6107705760405162461bcd60e51b8152600401808060200182810382526030815260200180611c3c6030913960400191505060405180910390fd5b6000610cf2338460035485610a6e565b11610d44576040805162461bcd60e51b815260206004820152601860248201527f436c61696d61626c6520616d6f756e74206973207a65726f0000000000000000604482015290519081900360640190fd5b61071582826110c5565b6000610d5942610d5e565b905090565b6000610683600154610d7b600354856115f590919063ffffffff16565b90611637565b600554600114610dd8576040805162461bcd60e51b815260206004820152601860248201527f4c6f636b496420697320616c726561647920696e207573650000000000000000604482015290519081900360640190fd5b60006005819055610de7610d4e565b90506000610e0c610e036001548461167990919063ffffffff16565b600354906116d2565b60025460408051630981b24d60e41b81526004810184905290519293506000926001600160a01b039092169163981b24d091602480820192602092909190829003018186803b158015610e5e57600080fd5b505afa158015610e72573d6000803e3d6000fd5b505050506040513d6020811015610e8857600080fd5b505111610edc576040805162461bcd60e51b815260206004820152601660248201527f4c4f434b544f5320646f6573206e6f7420657869737400000000000000000000604482015290519081900360640190fd5b6001600160a01b038416600081815260046020818152604080842081517f23b872dd00000000000000000000000000000000000000000000000000000000815233948101949094523060248501526044840189905290519094936323b872dd936064808201949392918390030190829087803b158015610f5b57600080fd5b505af1158015610f6f573d6000803e3d6000fd5b505050506040513d6020811015610f8557600080fd5b5050604080517f70a0823100000000000000000000000000000000000000000000000000000000815230600482015290516000916001600160a01b038816916370a0823191602480820192602092909190829003018186803b158015610fea57600080fd5b505afa158015610ffe573d6000803e3d6000fd5b505050506040513d602081101561101457600080fd5b5051600183015490915060009061102c9083906115f5565b60018401839055835490915061104290826116d2565b8355600085815260028401602052604090205461105f90826116d2565b600086815260028501602090815260409182902092909255805188815290516001600160a01b038a16927fc1d32ad5cca423e7dda2123dbf8c482f8e77d00b631c06e903a47f2cec1334df928290030190a2505060016005555050505050565b60015481565b60055460011461111c576040805162461bcd60e51b815260206004820152601860248201527f4c6f636b496420697320616c726561647920696e207573650000000000000000604482015290519081900360640190fd5b6000600581905561112c82610d5e565b6002546040805163187f356b60e31b815233600482015290519293506000926001600160a01b039092169163c3f9ab58916024808201928692909190829003018186803b15801561117c57600080fd5b505afa158015611190573d6000803e3d6000fd5b505050506040513d6000823e601f3d908101601f1916820160405260208110156111b957600080fd5b81019080805160405193929190846401000000008211156111d957600080fd5b9083019060208201858111156111ee57600080fd5b825186602082028301116401000000008211171561120b57600080fd5b82525081516020918201928201910280838360005b83811015611238578181015183820152602001611220565b5050505090500160405250505090506000805b825181101561127e576112728684838151811061126457fe5b60200260200101518661172c565b9091019060010161124b565b50600081116112d4576040805162461bcd60e51b815260206004820152601c60248201527f416d6f756e7420746f20626520636c61696d6564206973207a65726f00000000604482015290519081900360640190fd5b604080517fa9059cbb0000000000000000000000000000000000000000000000000000000081523360048201526024810183905290516001600160a01b0387169163a9059cbb9160448083019260209291908290030181600087803b15801561133c57600080fd5b505af1158015611350573d6000803e3d6000fd5b505050506040513d602081101561136657600080fd5b5050604080518281526020810186905281516001600160a01b038816927f34fcbac0073d7c3d388e51312faf357774904998eeb8fca628b9e6f65ee1cbf7928290030190a250506001600555505050565b3390565b60008281526006602052604090206113d39082611795565b15610715576113e06113b7565b6001600160a01b0316816001600160a01b0316837f2f8788117e7eff1d82e926ec794901d17c78024a50270940304540a733656f0d60405160405180910390a45050565b600082815260066020526040902061143c90826117aa565b15610715576114496113b7565b6001600160a01b0316816001600160a01b0316837ff6391f5c32d9c69d2a47ea670b442974b53935d1edc7fd64eb21e047a839171b60405160405180910390a45050565b6000610a0983836117bf565b6000610a09836001600160a01b038416611823565b6000818310156114be5781610a09565b5090919050565b600254604080517f9ce56305000000000000000000000000000000000000000000000000000000008152600481018690529051600092839283926001600160a01b0390921691639ce5630591602480820192606092909190829003018186803b15801561153157600080fd5b505afa158015611545573d6000803e3d6000fd5b505050506040513d606081101561155b57600080fd5b5080516020909101519092509050600061157d8661157885610d5e565b6114ae565b905060006115938661158e85610d5e565b61183b565b905060005b8183116115dd576115c96115c28a858d60020160008881526020019081526020016000205461184a565b82906116d2565b90506115d68360016116d2565b9250611598565b9998505050505050505050565b6000610683826119b8565b6000610a0983836040518060400160405280601e81526020017f536166654d6174683a207375627472616374696f6e206f766572666c6f7700008152506119bc565b6000610a0983836040518060400160405280601a81526020017f536166654d6174683a206469766973696f6e206279207a65726f000000000000815250611a53565b60008261168857506000610683565b8282028284828161169557fe5b0414610a095760405162461bcd60e51b8152600401808060200182810382526021815260200180611c6c6021913960400191505060405180910390fd5b600082820183811015610a09576040805162461bcd60e51b815260206004820152601b60248201527f536166654d6174683a206164646974696f6e206f766572666c6f770000000000604482015290519081900360640190fd5b6001600160a01b0383166000908152600460209081526040808320858452600381019092528220546117629082908690866114c5565b915061176f8360016116d2565b6000858152600383016020526040902055805461178c90836115f5565b90559392505050565b6000610a09836001600160a01b038416611ab8565b6000610a09836001600160a01b038416611b02565b815460009082106118015760405162461bcd60e51b8152600401808060200182810382526022815260200180611bc96022913960400191505060405180910390fd5b82600001828154811061181057fe5b9060005260206000200154905092915050565b60009081526001919091016020526040902054151590565b60008183106114be5781610a09565b600080611865610e036001548661167990919063ffffffff16565b600254604080517f642cf649000000000000000000000000000000000000000000000000000000008152600481018990526024810184905290519293506000926001600160a01b039092169163642cf64991604480820192602092909190829003018186803b1580156118d757600080fd5b505afa1580156118eb573d6000803e3d6000fd5b505050506040513d602081101561190157600080fd5b505160025460408051630981b24d60e41b81526004810186905290519293506000926001600160a01b039092169163981b24d091602480820192602092909190829003018186803b15801561195557600080fd5b505afa158015611969573d6000803e3d6000fd5b505050506040513d602081101561197f57600080fd5b5051905081158061198e575080155b1561199f5760009350505050610a09565b6119ad81610d7b8785611679565b979650505050505050565b5490565b60008184841115611a4b5760405162461bcd60e51b81526004018080602001828103825283818151815260200191508051906020019080838360005b83811015611a105781810151838201526020016119f8565b50505050905090810190601f168015611a3d5780820380516001836020036101000a031916815260200191505b509250505060405180910390fd5b505050900390565b60008183611aa25760405162461bcd60e51b8152602060048201818152835160248401528351909283926044909101919085019080838360008315611a105781810151838201526020016119f8565b506000838581611aae57fe5b0495945050505050565b6000611ac48383611823565b611afa57508154600181810184556000848152602080822090930184905584548482528286019093526040902091909155610683565b506000610683565b60008181526001830160205260408120548015611bbe5783546000198083019190810190600090879083908110611b3557fe5b9060005260206000200154905080876000018481548110611b5257fe5b600091825260208083209091019290925582815260018981019092526040902090840190558654879080611b8257fe5b60019003818190600052602060002001600090559055866001016000878152602001908152602001600020600090556001945050505050610683565b600091505061068356fe456e756d657261626c655365743a20696e646578206f7574206f6620626f756e6473416363657373436f6e74726f6c3a2073656e646572206d75737420626520616e2061646d696e20746f206772616e7441636365737369626c653a2043616c6c6572206973206e6f7420616e2061646d696e416363657373436f6e74726f6c3a2073656e646572206d75737420626520616e2061646d696e20746f207265766f6b65536166654d6174683a206d756c7469706c69636174696f6e206f766572666c6f77416363657373436f6e74726f6c3a2063616e206f6e6c792072656e6f756e636520726f6c657320666f722073656c66a26469706673582212204794904f78ef2d65ebd9e3c81f47ad339ed975809b0fcc3aa80cc60ce800270264736f6c63430007060033",
  "linkReferences": {},
  "deployedLinkReferences": {}
}