{
  "_format": "hh-sol-artifact-1",
  "contractName": "LockTOS",
  "sourceName": "contracts/stake/LockTOS.sol",
  "abi": [
    {
      "inputs": [
        {
          "internalType": "address",
          "name": "_tos",
          "type": "address"
        },
        {
          "internalType": "uint256",
          "name": "_phase3StartTime",
          "type": "uint256"
        }
      ],
      "stateMutability": "nonpayable",
      "type": "constructor"
    },
    {
      "inputs": [],
      "name": "MAXTIME",
      "outputs": [
        {
          "internalType": "uint256",
          "name": "",
          "type": "uint256"
        }
      ],
      "stateMutability": "view",
      "type": "function"
    },
    {
      "inputs": [],
      "name": "MULTIPLIER",
      "outputs": [
        {
          "internalType": "uint256",
          "name": "",
          "type": "uint256"
        }
      ],
      "stateMutability": "view",
      "type": "function"
    },
    {
      "inputs": [],
      "name": "ONE_WEEK",
      "outputs": [
        {
          "internalType": "uint256",
          "name": "",
          "type": "uint256"
        }
      ],
      "stateMutability": "view",
      "type": "function"
    },
    {
      "inputs": [
        {
          "internalType": "address",
          "name": "_addr",
          "type": "address"
        }
      ],
      "name": "balanceOf",
      "outputs": [
        {
          "internalType": "int128",
          "name": "balance",
          "type": "int128"
        }
      ],
      "stateMutability": "view",
      "type": "function"
    },
    {
      "inputs": [
        {
          "internalType": "address",
          "name": "_addr",
          "type": "address"
        },
        {
          "internalType": "uint256",
          "name": "_timestamp",
          "type": "uint256"
        }
      ],
      "name": "balanceOfAt",
      "outputs": [
        {
          "internalType": "int128",
          "name": "balance",
          "type": "int128"
        }
      ],
      "stateMutability": "view",
      "type": "function"
    },
    {
      "inputs": [
        {
          "internalType": "address",
          "name": "_addr",
          "type": "address"
        },
        {
          "internalType": "uint256",
          "name": "_lockId",
          "type": "uint256"
        }
      ],
      "name": "balanceOfLock",
      "outputs": [
        {
          "internalType": "int128",
          "name": "",
          "type": "int128"
        }
      ],
      "stateMutability": "view",
      "type": "function"
    },
    {
      "inputs": [
        {
          "internalType": "address",
          "name": "_addr",
          "type": "address"
        },
        {
          "internalType": "uint256",
          "name": "_lockId",
          "type": "uint256"
        },
        {
          "internalType": "uint256",
          "name": "_timestamp",
          "type": "uint256"
        }
      ],
      "name": "balanceOfLockAt",
      "outputs": [
        {
          "internalType": "int128",
          "name": "",
          "type": "int128"
        }
      ],
      "stateMutability": "view",
      "type": "function"
    },
    {
      "inputs": [
        {
          "internalType": "uint256",
          "name": "_value",
          "type": "uint256"
        },
        {
          "internalType": "uint256",
          "name": "_unlockWeeks",
          "type": "uint256"
        }
      ],
      "name": "createLock",
      "outputs": [
        {
          "internalType": "uint256",
          "name": "lockId",
          "type": "uint256"
        }
      ],
      "stateMutability": "nonpayable",
      "type": "function"
    },
    {
      "inputs": [
        {
          "internalType": "uint256",
          "name": "_value",
          "type": "uint256"
        },
        {
          "internalType": "uint256",
          "name": "_unlockWeeks",
          "type": "uint256"
        },
        {
          "internalType": "uint256",
          "name": "_deadline",
          "type": "uint256"
        },
        {
          "internalType": "uint8",
          "name": "_v",
          "type": "uint8"
        },
        {
          "internalType": "bytes32",
          "name": "_r",
          "type": "bytes32"
        },
        {
          "internalType": "bytes32",
          "name": "_s",
          "type": "bytes32"
        }
      ],
      "name": "createLockWithPermit",
      "outputs": [
        {
          "internalType": "uint256",
          "name": "lockId",
          "type": "uint256"
        }
      ],
      "stateMutability": "nonpayable",
      "type": "function"
    },
    {
      "inputs": [
        {
          "internalType": "address",
          "name": "_addr",
          "type": "address"
        },
        {
          "internalType": "uint256",
          "name": "_lockId",
          "type": "uint256"
        },
        {
          "internalType": "uint256",
          "name": "_value",
          "type": "uint256"
        }
      ],
      "name": "depositFor",
      "outputs": [],
      "stateMutability": "nonpayable",
      "type": "function"
    },
    {
      "inputs": [],
      "name": "globalCheckpoint",
      "outputs": [],
      "stateMutability": "nonpayable",
      "type": "function"
    },
    {
      "inputs": [
        {
          "internalType": "uint256",
          "name": "_lockId",
          "type": "uint256"
        },
        {
          "internalType": "uint256",
          "name": "_value",
          "type": "uint256"
        }
      ],
      "name": "increaseAmount",
      "outputs": [],
      "stateMutability": "nonpayable",
      "type": "function"
    },
    {
      "inputs": [
        {
          "internalType": "uint256",
          "name": "_lockId",
          "type": "uint256"
        },
        {
          "internalType": "uint256",
          "name": "_unlockWeeks",
          "type": "uint256"
        }
      ],
      "name": "increaseUnlockTime",
      "outputs": [],
      "stateMutability": "nonpayable",
      "type": "function"
    },
    {
      "inputs": [],
      "name": "lockIdCounter",
      "outputs": [
        {
          "internalType": "uint256",
          "name": "",
          "type": "uint256"
        }
      ],
      "stateMutability": "view",
      "type": "function"
    },
    {
      "inputs": [
        {
          "internalType": "address",
          "name": "",
          "type": "address"
        },
        {
          "internalType": "uint256",
          "name": "",
          "type": "uint256"
        }
      ],
      "name": "lockedBalances",
      "outputs": [
        {
          "internalType": "uint256",
          "name": "start",
          "type": "uint256"
        },
        {
          "internalType": "uint256",
          "name": "end",
          "type": "uint256"
        },
        {
          "internalType": "uint256",
          "name": "amount",
          "type": "uint256"
        }
      ],
      "stateMutability": "view",
      "type": "function"
    },
    {
      "inputs": [
        {
          "internalType": "address",
          "name": "_addr",
          "type": "address"
        }
      ],
      "name": "locksOf",
      "outputs": [
        {
          "internalType": "uint256[]",
          "name": "",
          "type": "uint256[]"
        }
      ],
      "stateMutability": "view",
      "type": "function"
    },
    {
      "inputs": [],
      "name": "phase3StartTime",
      "outputs": [
        {
          "internalType": "uint256",
          "name": "",
          "type": "uint256"
        }
      ],
      "stateMutability": "view",
      "type": "function"
    },
    {
      "inputs": [
        {
          "internalType": "address",
          "name": "_addr",
          "type": "address"
        },
        {
          "internalType": "uint256",
          "name": "_lockId",
          "type": "uint256"
        }
      ],
      "name": "pointHistoryOf",
      "outputs": [
        {
          "components": [
            {
              "internalType": "int128",
              "name": "bias",
              "type": "int128"
            },
            {
              "internalType": "int128",
              "name": "slope",
              "type": "int128"
            },
            {
              "internalType": "uint256",
              "name": "timestamp",
              "type": "uint256"
            }
          ],
          "internalType": "struct LockTOS.Point[]",
          "name": "",
          "type": "tuple[]"
        }
      ],
      "stateMutability": "view",
      "type": "function"
    },
    {
      "inputs": [
        {
          "internalType": "uint256",
          "name": "",
          "type": "uint256"
        }
      ],
      "name": "slopeChanges",
      "outputs": [
        {
          "internalType": "int128",
          "name": "",
          "type": "int128"
        }
      ],
      "stateMutability": "view",
      "type": "function"
    },
    {
      "inputs": [],
      "name": "tos",
      "outputs": [
        {
          "internalType": "address",
          "name": "",
          "type": "address"
        }
      ],
      "stateMutability": "view",
      "type": "function"
    },
    {
      "inputs": [],
      "name": "totalSupply",
      "outputs": [
        {
          "internalType": "int128",
          "name": "",
          "type": "int128"
        }
      ],
      "stateMutability": "view",
      "type": "function"
    },
    {
      "inputs": [
        {
          "internalType": "uint256",
          "name": "_timestamp",
          "type": "uint256"
        }
      ],
      "name": "totalSupplyAt",
      "outputs": [
        {
          "internalType": "int128",
          "name": "",
          "type": "int128"
        }
      ],
      "stateMutability": "view",
      "type": "function"
    },
    {
      "inputs": [
        {
          "internalType": "address",
          "name": "",
          "type": "address"
        },
        {
          "internalType": "uint256",
          "name": "",
          "type": "uint256"
        }
      ],
      "name": "userLocks",
      "outputs": [
        {
          "internalType": "uint256",
          "name": "",
          "type": "uint256"
        }
      ],
      "stateMutability": "view",
      "type": "function"
    },
    {
      "inputs": [
        {
          "internalType": "address",
          "name": "",
          "type": "address"
        },
        {
          "internalType": "uint256",
          "name": "",
          "type": "uint256"
        },
        {
          "internalType": "uint256",
          "name": "",
          "type": "uint256"
        }
      ],
      "name": "userPointHistory",
      "outputs": [
        {
          "internalType": "int128",
          "name": "bias",
          "type": "int128"
        },
        {
          "internalType": "int128",
          "name": "slope",
          "type": "int128"
        },
        {
          "internalType": "uint256",
          "name": "timestamp",
          "type": "uint256"
        }
      ],
      "stateMutability": "view",
      "type": "function"
    },
    {
      "inputs": [
        {
          "internalType": "uint256",
          "name": "_lockId",
          "type": "uint256"
        }
      ],
      "name": "withdraw",
      "outputs": [],
      "stateMutability": "nonpayable",
      "type": "function"
    }
  ],
  "bytecode": "0x6080604052600160065534801561001557600080fd5b50604051611c1d380380611c1d8339810160408190526100349161005d565b600580546001600160a01b0319166001600160a01b039390931692909217909155600755610095565b6000806040838503121561006f578182fd5b82516001600160a01b0381168114610085578283fd5b6020939093015192949293505050565b611b79806100a46000396000f3fe608060405234801561001057600080fd5b50600436106101635760003560e01c806389f395de116100ce578063b2383e5511610087578063b2383e55146102c1578063b52c05fe146102d4578063c3f9ab58146102e7578063c7e4025c14610307578063de6e659c14610327578063ee00ef3a1461033a578063f52a36f71461034257610163565b806389f395de146102635780638e6f6b7714610278578063981b24d0146102805780639d507b8b14610293578063aa33fedb146102a6578063afae883e146102b957610163565b80634cf5fbf5116101205780634cf5fbf5146101e25780634ee2cd7e146101f55780635d16a6f91461020857806370a082311461022a5780637db29deb1461023d5780638372cd7e1461025057610163565b8063059f8b161461016857806318160ddd146101865780631ac40e661461019b5780632e1a7d4d146101a55780633dce7718146101b85780634545304a146101c0575b600080fd5b610170610355565b60405161017d9190611b24565b60405180910390f35b61018e610361565b60405161017d91906118fe565b6101a3610410565b005b6101a36101b3366004611738565b61041b565b6101706105a5565b6101d36101ce3660046116e6565b6105ab565b60405161017d9392919061190c565b6101a36101f03660046116e6565b610604565b61018e6102033660046116bd565b6106be565b61021b6102163660046116bd565b610775565b60405161017d93929190611b2d565b61018e6102383660046116a3565b61079d565b61018e61024b3660046116e6565b610852565b61017061025e366004611771565b6108e4565b61026b610968565b60405161017d91906117c8565b610170610977565b61018e61028e366004611738565b61097e565b6101a36102a1366004611750565b6109eb565b6101706102b43660046116bd565b610af9565b610170610b2a565b6101a36102cf366004611750565b610b30565b6101706102e2366004611750565b610b3f565b6102fa6102f53660046116a3565b610bf6565b60405161017d91906118ba565b61031a6103153660046116bd565b610c62565b60405161017d919061185a565b61018e6103353660046116bd565b610d0b565b610170610dfe565b61018e610350366004611738565b610e06565b670de0b6b3a764000081565b600080546103715750600061040d565b600080548190600019810190811061038557fe5b60009182526020918290206040805160608101825260029093029091018054600f81810b810b810b808652600160801b909204810b810b810b958501869052600190920154928401839052929450429190910390920291670de0b6b3a76400009183820b910b136103f75760006103fd565b82518290035b600f0b8161040757fe5b05925050505b90565b610418610e1b565b50565b3360009081526002602081815260408084208585528252808420815160608082018452825482526001830154828601529190940154848301528151908101825284815291820184905281019290925280519091906104945760405162461bcd60e51b815260040161048b90611af7565b60405180910390fd5b428260200151106104b75760405162461bcd60e51b815260040161048b90611ac7565b60008260400151116104db5760405162461bcd60e51b815260040161048b906119c0565b6104e58183611007565b600554604080840151905163a9059cbb60e01b81526001600160a01b039092169163a9059cbb9161051b91339190600401611841565b602060405180830381600087803b15801561053557600080fd5b505af1158015610549573d6000803e3d6000fd5b505050506040513d601f19601f8201168201806040525081019061056d9190611718565b503360009081526002602081815260408084209684529581529185902083518155918301516001830155939091015192019190915550565b60075481565b600160205282600052604060002060205281600052604060002081815481106105d357600080fd5b600091825260209091206002909102018054600190910154600f82810b9550600160801b90920490910b9250905083565b600081116106245760405162461bcd60e51b815260040161048b906119eb565b6001600160a01b03831660009081526002602081815260408084208685528252928390208351606081018552815480825260018301549382019390935292015492820192909252906106885760405162461bcd60e51b815260040161048b90611af7565b428160200151116106ab5760405162461bcd60e51b815260040161048b90611991565b6106b88484846000611220565b50505050565b6001600160a01b03821660009081526003602090815260408083208054825181850281018501909352808352849383018282801561071b57602002820191906000526020600020905b815481526020019060010190808311610707575b5050505050905080516000141561073657600091505061076f565b60005b815181101561076c576107608583838151811061075257fe5b602002602001015186610852565b90920191600101610739565b50505b92915050565b6002602081815260009384526040808520909152918352912080546001820154919092015483565b6001600160a01b0381166000908152600360209081526040808320805482518185028101850190935280835284938301828280156107fa57602002820191906000526020600020905b8154815260200190600101908083116107e6575b5050505050905080516000141561081557600091505061084d565b60005b815181101561084a5761083e8483838151811061083157fe5b6020026020010151610d0b565b90920191600101610818565b50505b919050565b6001600160a01b03831660009081526001602090815260408083208584529091528120819081906108839085611445565b9150915081610897576000925050506108dd565b6040810151602082015182519186030290670de0b6b3a764000090600f83810b91900b136108c65760006108cc565b82518290035b600f0b816108d657fe5b0593505050505b9392505050565b60055460405163d505accf60e01b81526000916001600160a01b03169063d505accf9061092190339030908c908b908b908b908b90600401611800565b600060405180830381600087803b15801561093b57600080fd5b505af115801561094f573d6000803e3d6000fd5b5050505061095d8787610b3f565b509695505050505050565b6005546001600160a01b031681565b62093a8081565b600080600061098e600085611445565b91509150816109a25760009250505061084d565b6040810151602082015182519186030290670de0b6b3a764000090600f83810b91900b136109d15760006109d7565b82518290035b600f0b816109e157fe5b0595945050505050565b60008111610a0b5760405162461bcd60e51b815260040161048b90611a90565b3360009081526002602081815260408084208685528252928390208351606081018552815481526001820154928101839052920154928201929092529062093a80838102909101908082040290506305a39a808260000151820310610a825760405162461bcd60e51b815260040161048b9061195a565b42826020015111610aa55760405162461bcd60e51b815260040161048b90611a22565b80826020015110610ac85760405162461bcd60e51b815260040161048b90611a59565b6000826040015111610aec5760405162461bcd60e51b815260040161048b9061192a565b6106b83385600084611220565b60036020528160005260406000208181548110610b1557600080fd5b90600052602060002001600091509150505481565b60065481565b610b3b338383610604565b5050565b6000808311610b605760405162461bcd60e51b815260040161048b906119eb565b60008211610b805760405162461bcd60e51b815260040161048b90611a90565b50600680546001810190915562093a808281024201908082040290506305a39a8042820310610bc15760405162461bcd60e51b815260040161048b9061195a565b610bcd33838684611220565b503360009081526003602090815260408220805460018101825590835291200181905592915050565b6001600160a01b038116600090815260036020908152604091829020805483518184028101840190945280845260609392830182828015610c5657602002820191906000526020600020905b815481526020019060010190808311610c42575b50505050509050919050565b6001600160a01b03821660009081526001602090815260408083208484528252808320805482518185028101850190935280835260609492939192909184015b82821015610cff57600084815260209081902060408051606081018252600286029092018054600f81810b810b810b8552600160801b909104810b810b900b83850152600190810154918301919091529083529092019101610ca2565b50505050905092915050565b6001600160a01b038216600090815260016020908152604080832084845290915281205480610d3e57600091505061076f565b6001600160a01b0384166000908152600160209081526040808320868452909152812080546000198401908110610d7157fe5b60009182526020918290206040805160608101825260029093029091018054600f81810b810b810b808652600160801b909204810b810b810b958501869052600190920154928401839052929450429190910390920291670de0b6b3a76400009183820b910b13610de3576000610de9565b82518290035b600f0b81610df357fe5b059695505050505050565b6305a39a8081565b600460205260009081526040902054600f0b81565b610e2361166c565b600054429015610e9257600080546000198101908110610e3f57fe5b60009182526020918290206040805160608101825260029093029091018054600f81810b810b810b8552600160801b909104810b810b900b93830193909352600190920154918101919091529150610eaf565b604080516060810182526000808252602082015290810182905291505b600062093a8080846040015181610ec257fe5b040290505b81811461100257610edd62093a80820183611548565b6000818152600460209081526040808320549087015191870180518851938603818102909403600f90810b810b808b5293810b918201810b810b9092529495509192910b13610f2d576000610f30565b84515b600f90810b810b865260208601516000910b13610f4e576000610f54565b84602001515b600f90810b810b602087019081526040870185815260008054600181018255908052885160029091027f290decd9548b62a8d60345a988386fc84ba6bc95484008f6362f93160ef3e563810180549451860b6001600160801b03908116600160801b029390960b86166001600160801b03199095169490941790941617909155517f290decd9548b62a8d60345a988386fc84ba6bc95484008f6362f93160ef3e5649091015550610ec79050565b505090565b60408051606080820183526000808352602080840182905283850182905284519283018552818352828101829052938201529184015142929083108015611052575060008560400151115b1561109a576305a39a80670de0b6b3a76400008660400151028161107257fe5b04600f90810b810b602080850182905287018051869003909102820b90910b83525160408301525b8284602001511180156110b1575060008460400151115b156110f9576305a39a80670de0b6b3a7640000866040015102816110d157fe5b04600f90810b810b602080840182905287018051869003909102820b90910b82525160408201525b6000611103610e1b565b82518451825191900301600f90810b810b8083526020808601518188015191850180519190920301830b830b9052919250600091900b13611145576000611148565b80515b600f90810b810b825260208201516000910b1361116657600061116c565b80602001515b600f90810b810b6020830190815260008054600181018255908052835160029091027f290decd9548b62a8d60345a988386fc84ba6bc95484008f6362f93160ef3e563810180549351850b6001600160801b03908116600160801b029390950b85166001600160801b03199094169390931790931617905560408201517f290decd9548b62a8d60345a988386fc84ba6bc95484008f6362f93160ef3e56490910155611218838361155e565b505050505050565b6001600160a01b03841660009081526002602081815260408084208785528252928390208351606080820186528254825260018301548285019081529290940154818601908152855194850186528151855291519284019290925251850192820192909252821561129357602081018390525b805161129d574281525b6112a78183611007565b6005546040516323b872dd60e01b81526001600160a01b03909116906323b872dd906112db903390309089906004016117dc565b602060405180830381600087803b1580156112f557600080fd5b505af1158015611309573d6000803e3d6000fd5b505050506040513d601f19601f8201168201806040525081019061132d9190611718565b506001600160a01b038616600090815260026020818152604080842089855282528084208551815591850151600183015584015191018190556305a39a8090670de0b6b3a764000002049050600042836020015103820290506000604051806060016040528083600f0b81526020016007544211156113ad5760016113b0565b60025b60ff1694909402600f90810b8552426020958601526001600160a01b03909a166000908152600180865260408083209b83529a86528a8220805480830182559083529186902083516002909302018054968401518d0b6001600160801b03908116600160801b0293909d0b8d166001600160801b031990971696909617909b1617845597909701519190970155505050505050565b600061144f61166c565b835461145e5760009150611541565b83546000905b808260010110156114af57600060028383010490508587828154811061148657fe5b906000526020600020906002020160010154116114a5578092506114a9565b8091505b50611464565b848683815481106114bc57fe5b9060005260206000209060020201600101541161153a5760018683815481106114e157fe5b60009182526020918290206040805160608101825260029093029091018054600f81810b810b810b8552600160801b909104810b810b900b93830193909352600190920154918101919091529094509250611541915050565b6000935050505b9250929050565b600081831061155757816108dd565b5090919050565b6040808201516000908152600460205281812054918401519091600f0b90156115b157826040015184604001511415611599578091506115b1565b604080850151600090815260046020522054600f0b91505b428360400151111561160d578260200151810190508360400151836040015114156115de57602084015190035b604083810151600090815260046020522080546001600160801b0319166001600160801b03600f84900b161790555b428460400151118015611627575082604001518460400151115b156106b857506020838101516040948501516000908152600490925293902080546001600160801b0319166001600160801b0394909203600f0b939093161790915550565b604080516060810182526000808252602082018190529181019190915290565b80356001600160a01b038116811461084d57600080fd5b6000602082840312156116b4578081fd5b6108dd8261168c565b600080604083850312156116cf578081fd5b6116d88361168c565b946020939093013593505050565b6000806000606084860312156116fa578081fd5b6117038461168c565b95602085013595506040909401359392505050565b600060208284031215611729578081fd5b815180151581146108dd578182fd5b600060208284031215611749578081fd5b5035919050565b60008060408385031215611762578182fd5b50508035926020909101359150565b60008060008060008060c08789031215611789578182fd5b863595506020870135945060408701359350606087013560ff811681146117ae578283fd5b9598949750929560808101359460a0909101359350915050565b6001600160a01b0391909116815260200190565b6001600160a01b039384168152919092166020820152604081019190915260600190565b6001600160a01b0397881681529590961660208601526040850193909352606084019190915260ff16608083015260a082015260c081019190915260e00190565b6001600160a01b03929092168252602082015260400190565b602080825282518282018190526000919060409081850190868401855b828110156118ad5781518051600f90810b865287820151900b878601528501518585015260609093019290850190600101611877565b5091979650505050505050565b6020808252825182820181905260009190848201906040850190845b818110156118f2578351835292840192918401916001016118d6565b50909695505050505050565b600f9190910b815260200190565b600f93840b81529190920b6020820152604081019190915260600190565b6020808252601690820152754e6f206578697374696e67206c6f636b656420544f5360501b604082015260600190565b6020808252601a908201527f4d617820756e6c6f636b2074696d652069732033207965617273000000000000604082015260600190565b602080825260159082015274131bd8dac81d1a5b59481a5cc8199a5b9a5cda1959605a1b604082015260600190565b60208082526011908201527020b63932b0b23c903bb4ba34323930bbb760791b604082015260600190565b6020808252601f908201527f56616c7565206c6f636b65642073686f756c64206265206e6f6e2d7a65726f00604082015260600190565b6020808252601a908201527f4c6f636b2074696d6520616c72656164792066696e6973686564000000000000604082015260600190565b6020808252601d908201527f4e6577206c6f636b2074696d65206d7573742062652067726561746572000000604082015260600190565b6020808252601e908201527f556e6c6f636b20706572696f64206c657373207468616e2061207765656b0000604082015260600190565b602080825260169082015275131bd8dac81d1a5b59481b9bdd08199a5b9a5cda195960521b604082015260600190565b602080825260139082015272131bd8dac8191bd95cc81b9bdd08195e1a5cdd606a1b604082015260600190565b90815260200190565b928352602083019190915260408201526060019056fea2646970667358221220f1f4e720e698df196a0c99df4d3e6121e4720c5a84771fba8220f536d599761a64736f6c63430007060033",
  "linkReferences": {},
  "deployedLinkReferences": {}
}