{
  "_format": "hh-sol-artifact-1",
  "contractName": "LockTOS",
  "sourceName": "contracts/stake/LockTOS.sol",
  "abi": [
    {
      "anonymous": false,
      "inputs": [
        {
          "indexed": false,
          "internalType": "address",
          "name": "account",
          "type": "address"
        },
        {
          "indexed": false,
          "internalType": "uint256",
          "name": "lockId",
          "type": "uint256"
        },
        {
          "indexed": false,
          "internalType": "uint256",
          "name": "value",
          "type": "uint256"
        }
      ],
      "name": "LockAmountIncreased",
      "type": "event"
    },
    {
      "anonymous": false,
      "inputs": [
        {
          "indexed": false,
          "internalType": "address",
          "name": "account",
          "type": "address"
        },
        {
          "indexed": false,
          "internalType": "uint256",
          "name": "lockId",
          "type": "uint256"
        },
        {
          "indexed": false,
          "internalType": "uint256",
          "name": "value",
          "type": "uint256"
        },
        {
          "indexed": false,
          "internalType": "uint256",
          "name": "unlockTime",
          "type": "uint256"
        }
      ],
      "name": "LockCreated",
      "type": "event"
    },
    {
      "anonymous": false,
      "inputs": [
        {
          "indexed": false,
          "internalType": "address",
          "name": "account",
          "type": "address"
        },
        {
          "indexed": false,
          "internalType": "uint256",
          "name": "lockId",
          "type": "uint256"
        },
        {
          "indexed": false,
          "internalType": "uint256",
          "name": "value",
          "type": "uint256"
        }
      ],
      "name": "LockDeposited",
      "type": "event"
    },
    {
      "anonymous": false,
      "inputs": [
        {
          "indexed": false,
          "internalType": "address",
          "name": "account",
          "type": "address"
        },
        {
          "indexed": false,
          "internalType": "uint256",
          "name": "lockId",
          "type": "uint256"
        },
        {
          "indexed": false,
          "internalType": "uint256",
          "name": "unlockTime",
          "type": "uint256"
        }
      ],
      "name": "LockUnlockTimeIncreased",
      "type": "event"
    },
    {
      "anonymous": false,
      "inputs": [
        {
          "indexed": false,
          "internalType": "address",
          "name": "account",
          "type": "address"
        },
        {
          "indexed": false,
          "internalType": "uint256",
          "name": "lockId",
          "type": "uint256"
        },
        {
          "indexed": false,
          "internalType": "uint256",
          "name": "value",
          "type": "uint256"
        }
      ],
      "name": "LockWithdrawn",
      "type": "event"
    },
    {
      "anonymous": false,
      "inputs": [
        {
          "indexed": true,
          "internalType": "bytes32",
          "name": "role",
          "type": "bytes32"
        },
        {
          "indexed": true,
          "internalType": "bytes32",
          "name": "previousAdminRole",
          "type": "bytes32"
        },
        {
          "indexed": true,
          "internalType": "bytes32",
          "name": "newAdminRole",
          "type": "bytes32"
        }
      ],
      "name": "RoleAdminChanged",
      "type": "event"
    },
    {
      "anonymous": false,
      "inputs": [
        {
          "indexed": true,
          "internalType": "bytes32",
          "name": "role",
          "type": "bytes32"
        },
        {
          "indexed": true,
          "internalType": "address",
          "name": "account",
          "type": "address"
        },
        {
          "indexed": true,
          "internalType": "address",
          "name": "sender",
          "type": "address"
        }
      ],
      "name": "RoleGranted",
      "type": "event"
    },
    {
      "anonymous": false,
      "inputs": [
        {
          "indexed": true,
          "internalType": "bytes32",
          "name": "role",
          "type": "bytes32"
        },
        {
          "indexed": true,
          "internalType": "address",
          "name": "account",
          "type": "address"
        },
        {
          "indexed": true,
          "internalType": "address",
          "name": "sender",
          "type": "address"
        }
      ],
      "name": "RoleRevoked",
      "type": "event"
    },
    {
      "inputs": [],
      "name": "ADMIN_ROLE",
      "outputs": [
        {
          "internalType": "bytes32",
          "name": "",
          "type": "bytes32"
        }
      ],
      "stateMutability": "view",
      "type": "function"
    },
    {
      "inputs": [],
      "name": "BURNER_ROLE",
      "outputs": [
        {
          "internalType": "bytes32",
          "name": "",
          "type": "bytes32"
        }
      ],
      "stateMutability": "view",
      "type": "function"
    },
    {
      "inputs": [],
      "name": "DEFAULT_ADMIN_ROLE",
      "outputs": [
        {
          "internalType": "bytes32",
          "name": "",
          "type": "bytes32"
        }
      ],
      "stateMutability": "view",
      "type": "function"
    },
    {
      "inputs": [],
      "name": "MINTER_ROLE",
      "outputs": [
        {
          "internalType": "bytes32",
          "name": "",
          "type": "bytes32"
        }
      ],
      "stateMutability": "view",
      "type": "function"
    },
    {
      "inputs": [],
      "name": "MULTIPLIER",
      "outputs": [
        {
          "internalType": "uint256",
          "name": "",
          "type": "uint256"
        }
      ],
      "stateMutability": "view",
      "type": "function"
    },
    {
      "inputs": [],
      "name": "activeHolders",
      "outputs": [
        {
          "internalType": "address[]",
          "name": "",
          "type": "address[]"
        }
      ],
      "stateMutability": "view",
      "type": "function"
    },
    {
      "inputs": [
        {
          "internalType": "address",
          "name": "_addr",
          "type": "address"
        }
      ],
      "name": "activeLocksOf",
      "outputs": [
        {
          "internalType": "uint256[]",
          "name": "",
          "type": "uint256[]"
        }
      ],
      "stateMutability": "view",
      "type": "function"
    },
    {
      "inputs": [
        {
          "internalType": "address",
          "name": "account",
          "type": "address"
        }
      ],
      "name": "addAdmin",
      "outputs": [],
      "stateMutability": "nonpayable",
      "type": "function"
    },
    {
      "inputs": [],
      "name": "allHolders",
      "outputs": [
        {
          "internalType": "address[]",
          "name": "",
          "type": "address[]"
        }
      ],
      "stateMutability": "view",
      "type": "function"
    },
    {
      "inputs": [
        {
          "internalType": "uint256",
          "name": "",
          "type": "uint256"
        }
      ],
      "name": "allLocks",
      "outputs": [
        {
          "internalType": "uint256",
          "name": "start",
          "type": "uint256"
        },
        {
          "internalType": "uint256",
          "name": "end",
          "type": "uint256"
        },
        {
          "internalType": "uint256",
          "name": "amount",
          "type": "uint256"
        },
        {
          "internalType": "bool",
          "name": "withdrawn",
          "type": "bool"
        }
      ],
      "stateMutability": "view",
      "type": "function"
    },
    {
      "inputs": [
        {
          "internalType": "address",
          "name": "_addr",
          "type": "address"
        }
      ],
      "name": "balanceOf",
      "outputs": [
        {
          "internalType": "uint256",
          "name": "balance",
          "type": "uint256"
        }
      ],
      "stateMutability": "view",
      "type": "function"
    },
    {
      "inputs": [
        {
          "internalType": "address",
          "name": "_addr",
          "type": "address"
        },
        {
          "internalType": "uint256",
          "name": "_timestamp",
          "type": "uint256"
        }
      ],
      "name": "balanceOfAt",
      "outputs": [
        {
          "internalType": "uint256",
          "name": "balance",
          "type": "uint256"
        }
      ],
      "stateMutability": "view",
      "type": "function"
    },
    {
      "inputs": [
        {
          "internalType": "uint256",
          "name": "_lockId",
          "type": "uint256"
        }
      ],
      "name": "balanceOfLock",
      "outputs": [
        {
          "internalType": "uint256",
          "name": "",
          "type": "uint256"
        }
      ],
      "stateMutability": "view",
      "type": "function"
    },
    {
      "inputs": [
        {
          "internalType": "uint256",
          "name": "_lockId",
          "type": "uint256"
        },
        {
          "internalType": "uint256",
          "name": "_timestamp",
          "type": "uint256"
        }
      ],
      "name": "balanceOfLockAt",
      "outputs": [
        {
          "internalType": "uint256",
          "name": "",
          "type": "uint256"
        }
      ],
      "stateMutability": "view",
      "type": "function"
    },
    {
      "inputs": [
        {
          "internalType": "uint256",
          "name": "_value",
          "type": "uint256"
        },
        {
          "internalType": "uint256",
          "name": "_unlockWeeks",
          "type": "uint256"
        }
      ],
      "name": "createLock",
      "outputs": [
        {
          "internalType": "uint256",
          "name": "lockId",
          "type": "uint256"
        }
      ],
      "stateMutability": "nonpayable",
      "type": "function"
    },
    {
      "inputs": [
        {
          "internalType": "uint256",
          "name": "_value",
          "type": "uint256"
        },
        {
          "internalType": "uint256",
          "name": "_unlockWeeks",
          "type": "uint256"
        },
        {
          "internalType": "uint256",
          "name": "_deadline",
          "type": "uint256"
        },
        {
          "internalType": "uint8",
          "name": "_v",
          "type": "uint8"
        },
        {
          "internalType": "bytes32",
          "name": "_r",
          "type": "bytes32"
        },
        {
          "internalType": "bytes32",
          "name": "_s",
          "type": "bytes32"
        }
      ],
      "name": "createLockWithPermit",
      "outputs": [
        {
          "internalType": "uint256",
          "name": "lockId",
          "type": "uint256"
        }
      ],
      "stateMutability": "nonpayable",
      "type": "function"
    },
    {
      "inputs": [],
      "name": "cumulativeEpochUnit",
      "outputs": [
        {
          "internalType": "uint256",
          "name": "",
          "type": "uint256"
        }
      ],
      "stateMutability": "view",
      "type": "function"
    },
    {
      "inputs": [],
      "name": "cumulativeTOSAmount",
      "outputs": [
        {
          "internalType": "uint256",
          "name": "",
          "type": "uint256"
        }
      ],
      "stateMutability": "view",
      "type": "function"
    },
    {
      "inputs": [],
      "name": "currentStakedTotalTOS",
      "outputs": [
        {
          "internalType": "uint256",
          "name": "",
          "type": "uint256"
        }
      ],
      "stateMutability": "view",
      "type": "function"
    },
    {
      "inputs": [
        {
          "internalType": "address",
          "name": "_addr",
          "type": "address"
        },
        {
          "internalType": "uint256",
          "name": "_lockId",
          "type": "uint256"
        },
        {
          "internalType": "uint256",
          "name": "_value",
          "type": "uint256"
        }
      ],
      "name": "depositFor",
      "outputs": [],
      "stateMutability": "nonpayable",
      "type": "function"
    },
    {
      "inputs": [],
      "name": "epochUnit",
      "outputs": [
        {
          "internalType": "uint256",
          "name": "",
          "type": "uint256"
        }
      ],
      "stateMutability": "view",
      "type": "function"
    },
    {
      "inputs": [],
      "name": "getCurrentTime",
      "outputs": [
        {
          "internalType": "uint256",
          "name": "",
          "type": "uint256"
        }
      ],
      "stateMutability": "view",
      "type": "function"
    },
    {
      "inputs": [
        {
          "internalType": "bytes32",
          "name": "role",
          "type": "bytes32"
        }
      ],
      "name": "getRoleAdmin",
      "outputs": [
        {
          "internalType": "bytes32",
          "name": "",
          "type": "bytes32"
        }
      ],
      "stateMutability": "view",
      "type": "function"
    },
    {
      "inputs": [
        {
          "internalType": "bytes32",
          "name": "role",
          "type": "bytes32"
        },
        {
          "internalType": "uint256",
          "name": "index",
          "type": "uint256"
        }
      ],
      "name": "getRoleMember",
      "outputs": [
        {
          "internalType": "address",
          "name": "",
          "type": "address"
        }
      ],
      "stateMutability": "view",
      "type": "function"
    },
    {
      "inputs": [
        {
          "internalType": "bytes32",
          "name": "role",
          "type": "bytes32"
        }
      ],
      "name": "getRoleMemberCount",
      "outputs": [
        {
          "internalType": "uint256",
          "name": "",
          "type": "uint256"
        }
      ],
      "stateMutability": "view",
      "type": "function"
    },
    {
      "inputs": [],
      "name": "globalCheckpoint",
      "outputs": [],
      "stateMutability": "nonpayable",
      "type": "function"
    },
    {
      "inputs": [
        {
          "internalType": "bytes32",
          "name": "role",
          "type": "bytes32"
        },
        {
          "internalType": "address",
          "name": "account",
          "type": "address"
        }
      ],
      "name": "grantRole",
      "outputs": [],
      "stateMutability": "nonpayable",
      "type": "function"
    },
    {
      "inputs": [
        {
          "internalType": "bytes32",
          "name": "role",
          "type": "bytes32"
        },
        {
          "internalType": "address",
          "name": "account",
          "type": "address"
        }
      ],
      "name": "hasRole",
      "outputs": [
        {
          "internalType": "bool",
          "name": "",
          "type": "bool"
        }
      ],
      "stateMutability": "view",
      "type": "function"
    },
    {
      "inputs": [
        {
          "internalType": "uint256",
          "name": "",
          "type": "uint256"
        }
      ],
      "name": "inUse",
      "outputs": [
        {
          "internalType": "bool",
          "name": "",
          "type": "bool"
        }
      ],
      "stateMutability": "view",
      "type": "function"
    },
    {
      "inputs": [
        {
          "internalType": "uint256",
          "name": "_lockId",
          "type": "uint256"
        },
        {
          "internalType": "uint256",
          "name": "_value",
          "type": "uint256"
        }
      ],
      "name": "increaseAmount",
      "outputs": [],
      "stateMutability": "nonpayable",
      "type": "function"
    },
    {
      "inputs": [
        {
          "internalType": "uint256",
          "name": "_lockId",
          "type": "uint256"
        },
        {
          "internalType": "uint256",
          "name": "_unlockWeeks",
          "type": "uint256"
        }
      ],
      "name": "increaseUnlockTime",
      "outputs": [],
      "stateMutability": "nonpayable",
      "type": "function"
    },
    {
      "inputs": [
        {
          "internalType": "address",
          "name": "account",
          "type": "address"
        }
      ],
      "name": "isAdmin",
      "outputs": [
        {
          "internalType": "bool",
          "name": "",
          "type": "bool"
        }
      ],
      "stateMutability": "view",
      "type": "function"
    },
    {
      "inputs": [],
      "name": "lockIdCounter",
      "outputs": [
        {
          "internalType": "uint256",
          "name": "",
          "type": "uint256"
        }
      ],
      "stateMutability": "view",
      "type": "function"
    },
    {
      "inputs": [
        {
          "internalType": "uint256",
          "name": "",
          "type": "uint256"
        },
        {
          "internalType": "uint256",
          "name": "",
          "type": "uint256"
        }
      ],
      "name": "lockPointHistory",
      "outputs": [
        {
          "internalType": "int256",
          "name": "bias",
          "type": "int256"
        },
        {
          "internalType": "int256",
          "name": "slope",
          "type": "int256"
        },
        {
          "internalType": "uint256",
          "name": "timestamp",
          "type": "uint256"
        }
      ],
      "stateMutability": "view",
      "type": "function"
    },
    {
      "inputs": [
        {
          "internalType": "address",
          "name": "",
          "type": "address"
        },
        {
          "internalType": "uint256",
          "name": "",
          "type": "uint256"
        }
      ],
      "name": "lockedBalances",
      "outputs": [
        {
          "internalType": "uint256",
          "name": "start",
          "type": "uint256"
        },
        {
          "internalType": "uint256",
          "name": "end",
          "type": "uint256"
        },
        {
          "internalType": "uint256",
          "name": "amount",
          "type": "uint256"
        },
        {
          "internalType": "bool",
          "name": "withdrawn",
          "type": "bool"
        }
      ],
      "stateMutability": "view",
      "type": "function"
    },
    {
      "inputs": [
        {
          "internalType": "uint256",
          "name": "_lockId",
          "type": "uint256"
        }
      ],
      "name": "locksInfo",
      "outputs": [
        {
          "internalType": "uint256",
          "name": "start",
          "type": "uint256"
        },
        {
          "internalType": "uint256",
          "name": "end",
          "type": "uint256"
        },
        {
          "internalType": "uint256",
          "name": "amount",
          "type": "uint256"
        }
      ],
      "stateMutability": "view",
      "type": "function"
    },
    {
      "inputs": [
        {
          "internalType": "address",
          "name": "_addr",
          "type": "address"
        }
      ],
      "name": "locksOf",
      "outputs": [
        {
          "internalType": "uint256[]",
          "name": "",
          "type": "uint256[]"
        }
      ],
      "stateMutability": "view",
      "type": "function"
    },
    {
      "inputs": [],
      "name": "maxTime",
      "outputs": [
        {
          "internalType": "uint256",
          "name": "",
          "type": "uint256"
        }
      ],
      "stateMutability": "view",
      "type": "function"
    },
    {
      "inputs": [],
      "name": "migratedL2",
      "outputs": [
        {
          "internalType": "bool",
          "name": "",
          "type": "bool"
        }
      ],
      "stateMutability": "view",
      "type": "function"
    },
    {
      "inputs": [],
      "name": "pauseProxy",
      "outputs": [
        {
          "internalType": "bool",
          "name": "",
          "type": "bool"
        }
      ],
      "stateMutability": "view",
      "type": "function"
    },
    {
      "inputs": [],
      "name": "phase3StartTime",
      "outputs": [
        {
          "internalType": "uint256",
          "name": "",
          "type": "uint256"
        }
      ],
      "stateMutability": "view",
      "type": "function"
    },
    {
      "inputs": [
        {
          "internalType": "uint256",
          "name": "",
          "type": "uint256"
        }
      ],
      "name": "pointHistory",
      "outputs": [
        {
          "internalType": "int256",
          "name": "bias",
          "type": "int256"
        },
        {
          "internalType": "int256",
          "name": "slope",
          "type": "int256"
        },
        {
          "internalType": "uint256",
          "name": "timestamp",
          "type": "uint256"
        }
      ],
      "stateMutability": "view",
      "type": "function"
    },
    {
      "inputs": [
        {
          "internalType": "uint256",
          "name": "_lockId",
          "type": "uint256"
        }
      ],
      "name": "pointHistoryOf",
      "outputs": [
        {
          "components": [
            {
              "internalType": "int256",
              "name": "bias",
              "type": "int256"
            },
            {
              "internalType": "int256",
              "name": "slope",
              "type": "int256"
            },
            {
              "internalType": "uint256",
              "name": "timestamp",
              "type": "uint256"
            }
          ],
          "internalType": "struct LibLockTOS.Point[]",
          "name": "",
          "type": "tuple[]"
        }
      ],
      "stateMutability": "view",
      "type": "function"
    },
    {
      "inputs": [
        {
          "internalType": "address",
          "name": "account",
          "type": "address"
        }
      ],
      "name": "removeAdmin",
      "outputs": [],
      "stateMutability": "nonpayable",
      "type": "function"
    },
    {
      "inputs": [
        {
          "internalType": "bytes32",
          "name": "role",
          "type": "bytes32"
        },
        {
          "internalType": "address",
          "name": "account",
          "type": "address"
        }
      ],
      "name": "renounceRole",
      "outputs": [],
      "stateMutability": "nonpayable",
      "type": "function"
    },
    {
      "inputs": [
        {
          "internalType": "bytes32",
          "name": "role",
          "type": "bytes32"
        },
        {
          "internalType": "address",
          "name": "account",
          "type": "address"
        }
      ],
      "name": "revokeRole",
      "outputs": [],
      "stateMutability": "nonpayable",
      "type": "function"
    },
    {
      "inputs": [
        {
          "internalType": "uint256",
          "name": "_maxTime",
          "type": "uint256"
        }
      ],
      "name": "setMaxTime",
      "outputs": [],
      "stateMutability": "nonpayable",
      "type": "function"
    },
    {
      "inputs": [
        {
          "internalType": "uint256",
          "name": "",
          "type": "uint256"
        }
      ],
      "name": "slopeChanges",
      "outputs": [
        {
          "internalType": "int256",
          "name": "",
          "type": "int256"
        }
      ],
      "stateMutability": "view",
      "type": "function"
    },
    {
      "inputs": [],
      "name": "stakeRegistry",
      "outputs": [
        {
          "internalType": "address",
          "name": "",
          "type": "address"
        }
      ],
      "stateMutability": "view",
      "type": "function"
    },
    {
      "inputs": [],
      "name": "tos",
      "outputs": [
        {
          "internalType": "address",
          "name": "",
          "type": "address"
        }
      ],
      "stateMutability": "view",
      "type": "function"
    },
    {
      "inputs": [
        {
          "internalType": "address",
          "name": "_addr",
          "type": "address"
        }
      ],
      "name": "totalLockedAmountOf",
      "outputs": [
        {
          "internalType": "uint256",
          "name": "",
          "type": "uint256"
        }
      ],
      "stateMutability": "view",
      "type": "function"
    },
    {
      "inputs": [],
      "name": "totalSupply",
      "outputs": [
        {
          "internalType": "uint256",
          "name": "",
          "type": "uint256"
        }
      ],
      "stateMutability": "view",
      "type": "function"
    },
    {
      "inputs": [
        {
          "internalType": "uint256",
          "name": "_timestamp",
          "type": "uint256"
        }
      ],
      "name": "totalSupplyAt",
      "outputs": [
        {
          "internalType": "uint256",
          "name": "",
          "type": "uint256"
        }
      ],
      "stateMutability": "view",
      "type": "function"
    },
    {
      "inputs": [
        {
          "internalType": "address",
          "name": "newAdmin",
          "type": "address"
        }
      ],
      "name": "transferAdmin",
      "outputs": [],
      "stateMutability": "nonpayable",
      "type": "function"
    },
    {
      "inputs": [
        {
          "internalType": "uint256",
          "name": "",
          "type": "uint256"
        }
      ],
      "name": "uniqueUsers",
      "outputs": [
        {
          "internalType": "address",
          "name": "",
          "type": "address"
        }
      ],
      "stateMutability": "view",
      "type": "function"
    },
    {
      "inputs": [
        {
          "internalType": "address",
          "name": "",
          "type": "address"
        },
        {
          "internalType": "uint256",
          "name": "",
          "type": "uint256"
        }
      ],
      "name": "userLocks",
      "outputs": [
        {
          "internalType": "uint256",
          "name": "",
          "type": "uint256"
        }
      ],
      "stateMutability": "view",
      "type": "function"
    },
    {
      "inputs": [
        {
          "internalType": "uint256",
          "name": "_lockId",
          "type": "uint256"
        }
      ],
      "name": "withdraw",
      "outputs": [],
      "stateMutability": "nonpayable",
      "type": "function"
    },
    {
      "inputs": [],
      "name": "withdrawAll",
      "outputs": [],
      "stateMutability": "nonpayable",
      "type": "function"
    },
    {
      "inputs": [
        {
          "internalType": "address",
          "name": "_addr",
          "type": "address"
        }
      ],
      "name": "withdrawableAmountOf",
      "outputs": [
        {
          "internalType": "uint256",
          "name": "",
          "type": "uint256"
        }
      ],
      "stateMutability": "view",
      "type": "function"
    },
    {
      "inputs": [
        {
          "internalType": "address",
          "name": "_addr",
          "type": "address"
        }
      ],
      "name": "withdrawableLocksOf",
      "outputs": [
        {
          "internalType": "uint256[]",
          "name": "",
          "type": "uint256[]"
        }
      ],
      "stateMutability": "view",
      "type": "function"
    }
  ],
  "bytecode": "0x6080604052600160085534801561001557600080fd5b50613b0f806100256000396000f3fe608060405234801561001057600080fd5b50600436106103245760003560e01c80639010d07c116101a9578063c5773656116100ef578063d547741f1161009d578063d547741f146106a1578063dd383394146106b4578063e43cb666146106c7578063ea31e895146106da578063eb86b342146106e2578063ed50c699146106f5578063f52a36f714610708578063fd2dcecf1461071b57610324565b8063c57736561461062e578063c5dc1e5f14610643578063c79acdda14610663578063c80a3aa614610676578063ca15c8731461067e578063cd29ca0e14610691578063d53913931461069957610324565b8063a217fddf11610157578063a217fddf146105aa578063aa33fedb146105b2578063afae883e146105c5578063b2383e55146105cd578063b52c05fe146105e0578063b534ad56146105f3578063b94419e0146105fb578063c3f9ab581461060e57610324565b80639010d07c1461053057806391d1485414610543578063981b24d01461055657806398b777e7146105695780639ce563051461057c5780639d507b8b1461058f578063a1f5f50e146105a257610324565b80634cf5fbf51161026e578063704802751161021c57806370480275146104b957806370a08231146104cc57806375829def146104df57806375b238fc146104f25780638372cd7e146104fa578063853828b61461050d57806389f395de146105155780638ad4c4471461051d57610324565b80634cf5fbf51461042d5780634ee2cd7e146104405780635d16a6f91461045357806363a8fd891461047657806363d5a3d91461047e578063642cf6491461049157806368304835146104a457610324565b806324d7806c116102d657806324d7806c1461039a578063282c51f3146103ba57806329cb924d146103c25780632e1a7d4d146103ca5780632f2ff15d146103dd57806336568abe146103f0578063367b7b23146104035780633dce77181461042557610324565b8063059f8b1614610329578063086c46f4146103475780631785f53c1461035a57806318160ddd1461036f5780631ac40e661461037757806322e67e711461037f578063248a9ca314610387575b600080fd5b610331610723565b60405161033e91906135c4565b60405180910390f35b61033161035536600461329a565b61072f565b61036d61036836600461329a565b6107fb565b005b61033161085a565b61036d610924565b61033161092c565b61033161039536600461332f565b610932565b6103ad6103a836600461329a565b610947565b60405161033e91906135b9565b610331610967565b61033161098b565b61036d6103d836600461332f565b61098f565b61036d6103eb366004613347565b6109ed565b61036d6103fe366004613347565b610a54565b610416610411366004613372565b610ab5565b60405161033e939291906135cd565b610331610af7565b61036d61043b3660046132dd565b610afd565b61033161044e3660046132b4565b610c11565b6104666104613660046132b4565b610cce565b60405161033e9493929190613915565b6103ad610d03565b61046661048c36600461332f565b610d0c565b61033161049f366004613372565b610d36565b6104ac610daf565b60405161033e9190613402565b61036d6104c736600461329a565b610dc3565b6103316104da36600461329a565b610e1f565b61036d6104ed36600461329a565b610ed3565b610331610ff4565b6103316105083660046133ab565b611006565b61036d61108a565b6104ac6111d4565b61041661052b36600461332f565b6111e3565b6104ac61053e366004613372565b611216565b6103ad610551366004613347565b611235565b61033161056436600461332f565b61124d565b61036d61057736600461332f565b6112e7565b61041661058a36600461332f565b611330565b61036d61059d366004613372565b61134f565b6103ad6114d8565b6103316114e8565b6103316105c03660046132b4565b6114ed565b61033161151e565b61036d6105db366004613372565b611524565b6103316105ee366004613372565b61152f565b6103316116c4565b61033161060936600461332f565b6116ca565b61062161061c36600461329a565b61177e565b60405161033e9190613581565b6106366117ea565b60405161033e91906134db565b61065661065136600461332f565b611981565b60405161033e9190613528565b6103ad61067136600461332f565b611a11565b610636611a26565b61033161068c36600461332f565b611a88565b610331611a9f565b610331611aa5565b61036d6106af366004613347565b611ac9565b6106216106c236600461329a565b611b22565b6106216106d536600461329a565b611d34565b610331611eff565b6103316106f036600461329a565b611f85565b6104ac61070336600461332f565b61206f565b61033161071636600461332f565b612099565b6103316120ab565b670de0b6b3a764000081565b6001600160a01b0381166000908152600e602052604081205481805b828110156107f1576001600160a01b0385166000908152600e6020526040812080548390811061077757fe5b60009182526020808320909101546001600160a01b0389168352600c8252604080842082855283529283902083516080810185528154815260018201549381019390935260028101549383018490526003015460ff16151560608301529250906107e29085906120b1565b9350505080600101905061074b565b509150505b919050565b61080433610947565b61083f5760405162461bcd60e51b81526004018080602001828103825260228152602001806139846022913960400191505060405180910390fd5b610857600080516020613a1883398151915282610a54565b50565b600a5460009061086c57506000610921565b600a805460009190600019810190811061088257fe5b90600052602060002090600302016040518060600160405290816000820154815260200160018201548152602001600282015481525050905060006108ea6108df6108da84604001514261210b90919063ffffffff16565b61214d565b602084015190612195565b905061091c670de0b6b3a76400008284600001511361090a576000610916565b8351610916908461223e565b906122a3565b925050505b90565b6108576122e5565b60025481565b60009081526011602052604090206002015490565b6000610961600080516020613a1883398151915283611235565b92915050565b7f9667e80708b6eeeb0053fa0cca44e028ff548e2a9f029edfeac87c118b08b7c881565b4290565b6008546001146109ba5760405162461bcd60e51b81526004016109b1906138b6565b60405180910390fd5b6000600855806109dc5760405162461bcd60e51b81526004016109b190613679565b6109e5816124e6565b506001600855565b600082815260116020526040902060020154610a0b9061055161271e565b610a465760405162461bcd60e51b815260040180806020018281038252602f815260200180613955602f913960400191505060405180910390fd5b610a508282612722565b5050565b610a5c61271e565b6001600160a01b0316816001600160a01b031614610aab5760405162461bcd60e51b815260040180806020018281038252602f815260200180613aab602f913960400191505060405180910390fd5b610a50828261278b565b600b6020528160005260406000208181548110610ad157600080fd5b600091825260209091206003909102018054600182015460029092015490935090915083565b60055481565b60008111610b1d5760405162461bcd60e51b81526004016109b1906136fc565b6001600160a01b0383166000908152600c60209081526040808320858452825291829020825160808101845281548082526001830154938201939093526002820154938101939093526003015460ff1615156060830152610b905760405162461bcd60e51b81526004016109b1906138e8565b42816020015111610bb35760405162461bcd60e51b81526004016109b1906136a2565b600754610bc090836120b1565b600755610bd084848460006127f4565b7fea44bc904f77b1be47cd5b840b00f19b7238f88d7524fa5a86629282bfe6bcc5338484604051610c0393929190613494565b60405180910390a150505050565b6001600160a01b0382166000908152600e6020908152604080832080548251818502810185019093528083528493830182828015610c6e57602002820191906000526020600020905b815481526020019060010190808311610c5a575b50505050509050805160001415610c89576000915050610961565b60005b8151811015610cc657610cbc610cb5838381518110610ca757fe5b602002602001015186610d36565b84906120b1565b9250600101610c8c565b505092915050565b600c60209081526000928352604080842090915290825290208054600182015460028301546003909301549192909160ff1684565b60005460ff1681565b600d6020526000908152604090208054600182015460028301546003909301549192909160ff1684565b6000828152600b6020526040812081908190610d529085612afc565b9150915081610d6657600092505050610961565b6000610d856108df6108da84604001518861210b90919063ffffffff16565b9050610da5670de0b6b3a76400008284600001511361090a576000610916565b9695505050505050565b60005461010090046001600160a01b031681565b610dcc33610947565b610e075760405162461bcd60e51b81526004018080602001828103825260228152602001806139846022913960400191505060405180910390fd5b610857600080516020613a18833981519152826109ed565b6001600160a01b0381166000908152600e6020908152604080832080548251818502810185019093528083528493830182828015610e7c57602002820191906000526020600020905b815481526020019060010190808311610e68575b50505050509050805160001415610e975760009150506107f6565b60005b8151811015610ecc57610ec2610cb5838381518110610eb557fe5b60200260200101516116ca565b9250600101610e9a565b5050919050565b610edc33610947565b610f175760405162461bcd60e51b81526004018080602001828103825260228152602001806139846022913960400191505060405180910390fd5b6001600160a01b038116610f6d576040805162461bcd60e51b815260206004820152601860248201527741636365737369626c653a207a65726f206164647265737360401b604482015290519081900360640190fd5b336001600160a01b0382161415610fc4576040805162461bcd60e51b815260206004820152601660248201527520b1b1b2b9b9b4b136329d1039b0b6b29030b236b4b760511b604482015290519081900360640190fd5b610fdc600080516020613a18833981519152826109ed565b610857600080516020613a1883398151915233610a54565b600080516020613a1883398151915281565b60035460405163d505accf60e01b81526000916001600160a01b03169063d505accf9061104390339030908c908b908b908b908b9060040161343a565b600060405180830381600087803b15801561105d57600080fd5b505af1158015611071573d6000803e3d6000fd5b5050505061107f878761152f565b979650505050505050565b6008546001146110ac5760405162461bcd60e51b81526004016109b1906138b6565b60006008819055338152600e6020526040902080546110cb57506111cd565b60005b81548110156111ca576000600d60008484815481106110e957fe5b906000526020600020015481526020019081526020016000206040518060800160405290816000820154815260200160018201548152602001600282015481526020016003820160009054906101000a900460ff1615151515815250509050600083838154811061115657fe5b9060005260206000200154118015611172575060008160400151115b801561117e5750805115155b801561118e575060008160200151115b801561119d5750428160200151105b156111c1576111c18383815481106111b157fe5b90600052602060002001546124e6565b506001016110ce565b50505b6001600855565b6003546001600160a01b031681565b600a81815481106111f357600080fd5b600091825260209091206003909102018054600182015460029092015490925083565b600082815260116020526040812061122e9083612bf4565b9392505050565b600082815260116020526040812061122e9083612c00565b600a5460009061126f5760405162461bcd60e51b81526004016109b190613865565b60008061127d600a85612afc565b9150915081611291576000925050506107f6565b60006112ad6108da83604001518761210b90919063ffffffff16565b82602001510290506112de670de0b6b3a7640000828460000151136112d3576000610916565b8351839003906122a3565b95945050505050565b6112f033610947565b61132b5760405162461bcd60e51b81526004018080602001828103825260228152602001806139846022913960400191505060405180910390fd5b600255565b6000908152600d60205260409020805460018201546002909201549092565b6000811161136f5760405162461bcd60e51b81526004016109b1906137d8565b60065461137c90826120b1565b600655336000908152600c602090815260408083208584528252808320815160808101835281548152600180830154948201949094526002820154928101929092526003015460ff161515606082015290549091906113eb906113e0908590612c15565b6020840151906120b1565b600154909150611405906113ff83826122a3565b90612c15565b9050600254826000015182031061142e5760405162461bcd60e51b81526004016109b190613642565b428260200151116114515760405162461bcd60e51b81526004016109b190613733565b808260200151106114745760405162461bcd60e51b81526004016109b19061376a565b60008260400151116114985760405162461bcd60e51b81526004016109b190613612565b6114a533856000846127f4565b7fb8596b0e78133666b86648f60233cc2d078144d06df7874ea9f612a3ccc3e2fb338583604051610c0393929190613494565b600054600160a81b900460ff1681565b600081565b600e602052816000526040600020818154811061150957600080fd5b90600052602060002001600091509150505481565b60045481565b610a50338383610afd565b60008083116115505760405162461bcd60e51b81526004016109b1906136fc565b600082116115705760405162461bcd60e51b81526004016109b1906137d8565b60065461157d90836120b1565b60065560075461158d90846120b1565b6007556001546000906115ac906115a5908590612c15565b42906120b1565b6001549091506115c0906113ff83826122a3565b905060025442820311156115e65760405162461bcd60e51b81526004016109b190613642565b336000908152600e602052604090205461163d57600980546001810182556000919091527f6e1540171b6c0c960b71a7020d9f60077f6af931a8bbf590da0223dacf75c7af0180546001600160a01b031916331790555b60045461164b9060016120b1565b6004819055915061165e338386846127f4565b336000818152600e6020908152604080832080546001810182559084529190922001849055517f71fc552ee832a9004ea0bdb07cb6dd9d641eb2cb53b3cfe88c8fdcff886734a0916116b5918590889086906134b5565b60405180910390a15092915050565b60065481565b6000818152600b6020526040812054806116e85760009150506107f6565b6000838152600b602052604081208054600019840190811061170657fe5b906000526020600020906003020160405180606001604052908160008201548152602001600182015481526020016002820154815250509050600061175e6108df6108da84604001514261210b90919063ffffffff16565b90506112de670de0b6b3a76400008284600001511361090a576000610916565b6001600160a01b0381166000908152600e60209081526040918290208054835181840281018401909452808452606093928301828280156117de57602002820191906000526020600020905b8154815260200190600101908083116117ca575b50505050509050919050565b60095460609060009067ffffffffffffffff8111801561180957600080fd5b50604051908082528060200260200182016040528015611833578160200160208202803683370190505b5090506000805b6009548110156118aa5760006118706009838154811061185657fe5b6000918252602090912001546001600160a01b0316611d34565b8051909150156118a1578280600101935050600184838151811061189057fe5b911515602092830291909101909101525b5060010161183a565b5060008167ffffffffffffffff811180156118c457600080fd5b506040519080825280602002602001820160405280156118ee578160200160208202803683370190505b5090506000805b6009548110156119775784818151811061190b57fe5b60200260200101511561196f576009818154811061192557fe5b600091825260209091200154835160018401936001600160a01b03909216918591811061194e57fe5b60200260200101906001600160a01b031690816001600160a01b0316815250505b6001016118f5565b5090935050505090565b6060600b6000838152602001908152602001600020805480602002602001604051908101604052809291908181526020016000905b82821015611a0657838290600052602060002090600302016040518060600160405290816000820154815260200160018201548152602001600282015481525050815260200190600101906119b6565b505050509050919050565b60106020526000908152604090205460ff1681565b60606009805480602002602001604051908101604052809291908181526020018280548015611a7e57602002820191906000526020600020905b81546001600160a01b03168152600190910190602001808311611a60575b5050505050905090565b600081815260116020526040812061096190612c6e565b60075481565b7ff0887ba65ee2024ea881d91b74c2450ef19e1557f03bed3ea9f16b037cbe2dc981565b600082815260116020526040902060020154611ae79061055161271e565b610aab5760405162461bcd60e51b81526004018080602001828103825260308152602001806139c76030913960400191505060405180910390fd5b6001600160a01b0381166000908152600e6020526040812054606091805b82811015611c02576001600160a01b0385166000908152600e60205260408120805483908110611b6c57fe5b60009182526020808320909101546001600160a01b0389168352600c8252604080842082855283529283902083516080810185528154815260018201549381018490526002820154948101949094526003015460ff161515606084015292504210801590611bde575060008160400151115b8015611bec57506060810151155b15611bf8576001909301925b5050600101611b40565b5060008167ffffffffffffffff81118015611c1c57600080fd5b50604051908082528060200260200182016040528015611c46578160200160208202803683370190505b5090506000915060005b83811015611d2b576001600160a01b0386166000908152600e60205260408120805483908110611c7c57fe5b60009182526020808320909101546001600160a01b038a168352600c8252604080842082855283529283902083516080810185528154815260018201549381018490526002820154948101949094526003015460ff161515606084015292504210801590611cee575060008160400151115b8015611cfc57506060810151155b15611d215781848680600101975081518110611d1457fe5b6020026020010181815250505b5050600101611c50565b50949350505050565b6001600160a01b0381166000908152600e6020526040812054606091805b82811015611df5576001600160a01b0385166000908152600e60205260408120805483908110611d7e57fe5b60009182526020808320909101546001600160a01b0389168352600c8252604080842082855283529283902083516080810185528154815260018201549381018490526002820154948101949094526003015460ff16151560608401529250421015611deb576001909301925b5050600101611d52565b5060008167ffffffffffffffff81118015611e0f57600080fd5b50604051908082528060200260200182016040528015611e39578160200160208202803683370190505b5090506000915060005b83811015611d2b576001600160a01b0386166000908152600e60205260408120805483908110611e6f57fe5b60009182526020808320909101546001600160a01b038a168352600c8252604080842082855283529283902083516080810185528154815260018201549381018490526002820154948101949094526003015460ff16151560608401529250421015611ef55781848680600101975081518110611ee857fe5b6020026020010181815250505b5050600101611e43565b6003546040516370a0823160e01b81526000916001600160a01b0316906370a0823190611f30903090600401613402565b60206040518083038186803b158015611f4857600080fd5b505afa158015611f5c573d6000803e3d6000fd5b505050506040513d601f19601f82011682018060405250810190611f809190613393565b905090565b6001600160a01b0381166000908152600e602052604081205481805b828110156107f1576001600160a01b0385166000908152600e60205260408120805483908110611fcd57fe5b60009182526020808320909101546001600160a01b0389168352600c8252604080842082855283529283902083516080810185528154815260018201549381018490526002820154948101949094526003015460ff16151560608401529250421080159061203f575060008160400151115b801561204d57506060810151155b156120655760408101516120629085906120b1565b93505b5050600101611fa1565b6009818154811061207f57600080fd5b6000918252602090912001546001600160a01b0316905081565b600f6020526000908152604090205481565b60015481565b60008282018381101561122e576040805162461bcd60e51b815260206004820152601b60248201527f536166654d6174683a206164646974696f6e206f766572666c6f770000000000604482015290519081900360640190fd5b600061122e83836040518060400160405280601e81526020017f536166654d6174683a207375627472616374696f6e206f766572666c6f770000815250612c79565b6000600160ff1b82106121915760405162461bcd60e51b8152600401808060200182810382526028815260200180613a5f6028913960400191505060405180910390fd5b5090565b6000826121a457506000610961565b826000191480156121b85750600160ff1b82145b156121f45760405162461bcd60e51b8152600401808060200182810382526027815260200180613a386027913960400191505060405180910390fd5b8282028284828161220157fe5b051461122e5760405162461bcd60e51b8152600401808060200182810382526027815260200180613a386027913960400191505060405180910390fd5b60008183038183128015906122535750838113155b80612268575060008312801561226857508381135b61122e5760405162461bcd60e51b8152600401808060200182810382526024815260200180613a876024913960400191505060405180910390fd5b600061122e83836040518060400160405280601a81526020017f536166654d6174683a206469766973696f6e206279207a65726f000000000000815250612d10565b6122ed613262565b600a5442901561234757600a8054600019810190811061230957fe5b906000526020600020906003020160405180606001604052908160008201548152602001600182015481526020016002820154815250509150612367565b604051806060016040528060008152602001600081526020018281525091505b6001546040830151600091612380916113ff90826122a3565b90505b8181146124e1576123a86123a2600154836120b190919063ffffffff16565b83612d75565b6000818152600f60205260408082205490860151929350916123db906108da906123d390869061210b565b600154612d75565b90506123ff6123f782876020015161219590919063ffffffff16565b86519061223e565b855260208501516124109083612d8b565b60208601528451600012612425576000612428565b84515b8552602085015160001261243d576000612443565b84602001515b6020860190815260408601848152600a805460018101825560009190915287517fc65a7bb8d6351c1cf70c95a316cc6a92839c986682d98bc35f958f4883f9d2a860039092029182015591517fc65a7bb8d6351c1cf70c95a316cc6a92839c986682d98bc35f958f4883f9d2a9830155517fc65a7bb8d6351c1cf70c95a316cc6a92839c986682d98bc35f958f4883f9d2aa90910155506123839050565b505090565b336000908152600c6020908152604080832084845282529182902082516080810184528154815260018201549281019290925260028101549282019290925260039091015460ff1615801560608301526125525760405162461bcd60e51b81526004016109b1906136d1565b80516125705760405162461bcd60e51b81526004016109b1906138e8565b428160200151106125935760405162461bcd60e51b81526004016109b19061380f565b60008160400151116125b75760405162461bcd60e51b81526004016109b1906135e3565b6040805160808101825260008082526020820181905291810191909152600160608201526125e58183612df0565b604080830151336000818152600c60209081528482208883528152848220865181558187018051600180840191909155888801805160028086019190915560608b0180516003968701805491151560ff19928316179055600d909752968a90208b5181559351928401929092555190820155925192810180549315159390921692909217905554925163a9059cbb60e01b815291926001600160a01b03169163a9059cbb9161269891859060040161347b565b602060405180830381600087803b1580156126b257600080fd5b505af11580156126c6573d6000803e3d6000fd5b505050506040513d601f19601f820116820180604052508101906126ea919061330f565b507ff1206247bdd5e2e0cfc00bea4cf05fb8dc479ebee686f9549043179cc7013b30338583604051610c0393929190613494565b3390565b600082815260116020526040902061273a9082612fe6565b15610a505761274761271e565b6001600160a01b0316816001600160a01b0316837f2f8788117e7eff1d82e926ec794901d17c78024a50270940304540a733656f0d60405160405180910390a45050565b60008281526011602052604090206127a39082612ffb565b15610a50576127b061271e565b6001600160a01b0316816001600160a01b0316837ff6391f5c32d9c69d2a47ea670b442974b53935d1edc7fd64eb21e047a839171b60405160405180910390a45050565b6008546001146128165760405162461bcd60e51b81526004016109b1906138b6565b600060085560015480828161282757fe5b040281146128475760405162461bcd60e51b81526004016109b190613892565b600154612858906113ff83826122a3565b81146128765760405162461bcd60e51b81526004016109b19061383f565b6001600160a01b0384166000908152600c602090815260408083208684528252808320815160808082018452825482526001830154828601908152600284015483860190815260039094015460ff161515606080850191909152855192830186528351835290519582019590955291519282018390529281019390935290919061290090856120b1565b6040820152821561291357602081018390525b805161291d574281525b6129278183612df0565b6001600160a01b0386166000908152600c60209081526040808320888452825280832084518155828501805160018084019190915583870180516002808601919091556060890180516003968701805491151560ff19928316179055600d90985295882089518155935192840192909255518282018190559351919092018054911515919094161790925590546129cf916108da919061091690670de0b6b3a7640000612c15565b905060006129f76129f06108da42866020015161210b90919063ffffffff16565b8390612195565b6040805160608101825282815260208082018681524283850190815260008d8152600b84528581208054600181810183559183529490912085516003958602909101908155925190830155516002909101555491516323b872dd60e01b8152929350916001600160a01b03909116906323b872dd90612a7e90339030908c90600401613416565b602060405180830381600087803b158015612a9857600080fd5b505af1158015612aac573d6000803e3d6000fd5b505050506040513d601f19601f82011682018060405250810190612ad0919061330f565b612aec5760405162461bcd60e51b81526004016109b1906137a1565b5050600160085550505050505050565b6000612b06613262565b8354612b155760009150612bed565b83546000905b80826001011015612b6f576000612b37600261091685856120b1565b905085878281548110612b4657fe5b90600052602060002090600302016002015411612b6557809250612b69565b8091505b50612b1b565b84868381548110612b7c57fe5b90600052602060002090600302016002015411612be6576001868381548110612ba157fe5b90600052602060002090600302018060405180606001604052908160008201548152602001600182015481526020016002820154815250509050935093505050612bed565b6000935050505b9250929050565b600061122e8383613010565b600061122e836001600160a01b038416613074565b600082612c2457506000610961565b82820282848281612c3157fe5b041461122e5760405162461bcd60e51b81526004018080602001828103825260218152602001806139f76021913960400191505060405180910390fd5b60006109618261308c565b60008184841115612d085760405162461bcd60e51b81526004018080602001828103825283818151815260200191508051906020019080838360005b83811015612ccd578181015183820152602001612cb5565b50505050905090810190601f168015612cfa5780820380516001836020036101000a031916815260200191505b509250505060405180910390fd5b505050900390565b60008183612d5f5760405162461bcd60e51b8152602060048201818152835160248401528351909283926044909101919085019080838360008315612ccd578181015183820152602001612cb5565b506000838581612d6b57fe5b0495945050505050565b6000818310612d84578161122e565b5090919050565b6000828201818312801590612da05750838112155b80612db55750600083128015612db557508381125b61122e5760405162461bcd60e51b81526004018080602001828103825260218152602001806139a66021913960400191505060405180910390fd5b60408051606080820183526000808352602080840182905283850182905284519283018552818352828101829052938201529184015142929083108015612e3b575060008560400151115b15612e9357612e686108da600254610916670de0b6b3a76400008960400151612c1590919063ffffffff16565b602080840191909152850151612e86906108df906108da908661210b565b8252602085015160408301525b828460200151118015612eaa575060008460400151115b15612f0d57612ed76108da600254610916670de0b6b3a76400008860400151612c1590919063ffffffff16565b602080830191909152840151612f0090612ef5906108da908661210b565b602083015190612195565b8152602084015160408201525b6000612f176122e5565b82518451919250612f3391612f2b9161223e565b825190612d8b565b815260208083015190840151612f5891612f4d919061223e565b602083015190612d8b565b60208201528051600012612f6d576000612f70565b80515b81526020810151600012612f85576000612f8b565b80602001515b6020820152600a80548291906000198101908110612fa557fe5b9060005260206000209060030201600082015181600001556020820151816001015560408201518160020155905050612fde8383613090565b505050505050565b600061122e836001600160a01b038416613152565b600061122e836001600160a01b03841661319c565b815460009082106130525760405162461bcd60e51b81526004018080602001828103825260228152602001806139336022913960400191505060405180910390fd5b82600001828154811061306157fe5b9060005260206000200154905092915050565b60009081526001919091016020526040902054151590565b5490565b6040808301516000908152600f6020528181205483830180518352929091205491519091904210156131065760208301516130cc908290612d8b565b90508360400151836040015114156130f15760208401516130ee90829061223e565b90505b6040808401516000908152600f602052208190555b428460400151118015613120575082604001518460400151115b1561314c57602084015161313590839061223e565b6040808601516000908152600f6020522081905591505b50505050565b600061315e8383613074565b61319457508154600181810184556000848152602080822090930184905584548482528286019093526040902091909155610961565b506000610961565b6000818152600183016020526040812054801561325857835460001980830191908101906000908790839081106131cf57fe5b90600052602060002001549050808760000184815481106131ec57fe5b60009182526020808320909101929092558281526001898101909252604090209084019055865487908061321c57fe5b60019003818190600052602060002001600090559055866001016000878152602001908152602001600020600090556001945050505050610961565b6000915050610961565b60405180606001604052806000815260200160008152602001600081525090565b80356001600160a01b03811681146107f657600080fd5b6000602082840312156132ab578081fd5b61122e82613283565b600080604083850312156132c6578081fd5b6132cf83613283565b946020939093013593505050565b6000806000606084860312156132f1578081fd5b6132fa84613283565b95602085013595506040909401359392505050565b600060208284031215613320578081fd5b8151801515811461122e578182fd5b600060208284031215613340578081fd5b5035919050565b60008060408385031215613359578182fd5b8235915061336960208401613283565b90509250929050565b60008060408385031215613384578182fd5b50508035926020909101359150565b6000602082840312156133a4578081fd5b5051919050565b60008060008060008060c087890312156133c3578182fd5b863595506020870135945060408701359350606087013560ff811681146133e8578283fd5b9598949750929560808101359460a0909101359350915050565b6001600160a01b0391909116815260200190565b6001600160a01b039384168152919092166020820152604081019190915260600190565b6001600160a01b0397881681529590961660208601526040850193909352606084019190915260ff16608083015260a082015260c081019190915260e00190565b6001600160a01b03929092168252602082015260400190565b6001600160a01b039390931683526020830191909152604082015260600190565b6001600160a01b0394909416845260208401929092526040830152606082015260800190565b6020808252825182820181905260009190848201906040850190845b8181101561351c5783516001600160a01b0316835292840192918401916001016134f7565b50909695505050505050565b602080825282518282018190526000919060409081850190868401855b828110156135745781518051855286810151878601528501518585015260609093019290850190600101613545565b5091979650505050505050565b6020808252825182820181905260009190848201906040850190845b8181101561351c5783518352928401929184019160010161359d565b901515815260200190565b90815260200190565b9283526020830191909152604082015260600190565b6020808252601590820152744e6f20616d6f756e7420746f20776974686472617760581b604082015260600190565b6020808252601690820152754e6f206578697374696e67206c6f636b656420544f5360501b604082015260600190565b6020808252601a908201527f4d617820756e6c6f636b2074696d652069732033207965617273000000000000604082015260600190565b6020808252600f908201526e5f6c6f636b4964206973207a65726f60881b604082015260600190565b602080825260159082015274131bd8dac81d1a5b59481a5cc8199a5b9a5cda1959605a1b604082015260600190565b60208082526011908201527020b63932b0b23c903bb4ba34323930bbb760791b604082015260600190565b6020808252601f908201527f56616c7565206c6f636b65642073686f756c64206265206e6f6e2d7a65726f00604082015260600190565b6020808252601a908201527f4c6f636b2074696d6520616c72656164792066696e6973686564000000000000604082015260600190565b6020808252601d908201527f4e6577206c6f636b2074696d65206d7573742062652067726561746572000000604082015260600190565b6020808252601a908201527f4c6f636b544f533a206661696c207472616e7366657246726f6d000000000000604082015260600190565b6020808252601e908201527f556e6c6f636b20706572696f64206c657373207468616e2061207765656b0000604082015260600190565b602080825260169082015275131bd8dac81d1a5b59481b9bdd08199a5b9a5cda195960521b604082015260600190565b6020808252600c908201526b32b837b1b4103ab734ba101960a11b604082015260600190565b602080825260139082015272139bc81a1a5cdd1bdc9e481c9958dbdc991959606a1b604082015260600190565b6020808252600a9082015269195c1bd8da081d5b9a5d60b21b604082015260600190565b6020808252601890820152774c6f636b496420697320616c726561647920696e2075736560401b604082015260600190565b602080825260139082015272131bd8dac8191bd95cc81b9bdd08195e1a5cdd606a1b604082015260600190565b93845260208401929092526040830152151560608201526080019056fe456e756d657261626c655365743a20696e646578206f7574206f6620626f756e6473416363657373436f6e74726f6c3a2073656e646572206d75737420626520616e2061646d696e20746f206772616e7441636365737369626c653a2043616c6c6572206973206e6f7420616e2061646d696e5369676e6564536166654d6174683a206164646974696f6e206f766572666c6f77416363657373436f6e74726f6c3a2073656e646572206d75737420626520616e2061646d696e20746f207265766f6b65536166654d6174683a206d756c7469706c69636174696f6e206f766572666c6f77df8b4c520ffe197c5343c6f5aec59570151ef9a492f2c624fd45ddde6135ec425369676e6564536166654d6174683a206d756c7469706c69636174696f6e206f766572666c6f7753616665436173743a2076616c756520646f65736e27742066697420696e20616e20696e743235365369676e6564536166654d6174683a207375627472616374696f6e206f766572666c6f77416363657373436f6e74726f6c3a2063616e206f6e6c792072656e6f756e636520726f6c657320666f722073656c66a26469706673582212209f8a6fcf56323e4016aa0caa49fe4182153d1808f17857947be4c44cb43ceaba64736f6c63430007060033",
  "linkReferences": {},
  "deployedLinkReferences": {}
}