{
  "_format": "hh-sol-artifact-1",
  "contractName": "LockTOS",
  "sourceName": "contracts/stake/LockTOS.sol",
  "abi": [
    {
      "anonymous": false,
      "inputs": [
        {
          "indexed": false,
          "internalType": "address",
          "name": "account",
          "type": "address"
        },
        {
          "indexed": false,
          "internalType": "uint256",
          "name": "lockId",
          "type": "uint256"
        },
        {
          "indexed": false,
          "internalType": "uint256",
          "name": "value",
          "type": "uint256"
        }
      ],
      "name": "LockAmountIncreased",
      "type": "event"
    },
    {
      "anonymous": false,
      "inputs": [
        {
          "indexed": false,
          "internalType": "address",
          "name": "account",
          "type": "address"
        },
        {
          "indexed": false,
          "internalType": "uint256",
          "name": "lockId",
          "type": "uint256"
        },
        {
          "indexed": false,
          "internalType": "uint256",
          "name": "value",
          "type": "uint256"
        },
        {
          "indexed": false,
          "internalType": "uint256",
          "name": "unlockTime",
          "type": "uint256"
        }
      ],
      "name": "LockCreated",
      "type": "event"
    },
    {
      "anonymous": false,
      "inputs": [
        {
          "indexed": false,
          "internalType": "address",
          "name": "account",
          "type": "address"
        },
        {
          "indexed": false,
          "internalType": "uint256",
          "name": "lockId",
          "type": "uint256"
        },
        {
          "indexed": false,
          "internalType": "uint256",
          "name": "value",
          "type": "uint256"
        }
      ],
      "name": "LockDeposited",
      "type": "event"
    },
    {
      "anonymous": false,
      "inputs": [
        {
          "indexed": false,
          "internalType": "address",
          "name": "account",
          "type": "address"
        },
        {
          "indexed": false,
          "internalType": "uint256",
          "name": "lockId",
          "type": "uint256"
        },
        {
          "indexed": false,
          "internalType": "uint256",
          "name": "unlockTime",
          "type": "uint256"
        }
      ],
      "name": "LockUnlockTimeIncreased",
      "type": "event"
    },
    {
      "anonymous": false,
      "inputs": [
        {
          "indexed": false,
          "internalType": "address",
          "name": "account",
          "type": "address"
        },
        {
          "indexed": false,
          "internalType": "uint256",
          "name": "lockId",
          "type": "uint256"
        },
        {
          "indexed": false,
          "internalType": "uint256",
          "name": "value",
          "type": "uint256"
        }
      ],
      "name": "LockWithdrawn",
      "type": "event"
    },
    {
      "anonymous": false,
      "inputs": [
        {
          "indexed": true,
          "internalType": "bytes32",
          "name": "role",
          "type": "bytes32"
        },
        {
          "indexed": true,
          "internalType": "bytes32",
          "name": "previousAdminRole",
          "type": "bytes32"
        },
        {
          "indexed": true,
          "internalType": "bytes32",
          "name": "newAdminRole",
          "type": "bytes32"
        }
      ],
      "name": "RoleAdminChanged",
      "type": "event"
    },
    {
      "anonymous": false,
      "inputs": [
        {
          "indexed": true,
          "internalType": "bytes32",
          "name": "role",
          "type": "bytes32"
        },
        {
          "indexed": true,
          "internalType": "address",
          "name": "account",
          "type": "address"
        },
        {
          "indexed": true,
          "internalType": "address",
          "name": "sender",
          "type": "address"
        }
      ],
      "name": "RoleGranted",
      "type": "event"
    },
    {
      "anonymous": false,
      "inputs": [
        {
          "indexed": true,
          "internalType": "bytes32",
          "name": "role",
          "type": "bytes32"
        },
        {
          "indexed": true,
          "internalType": "address",
          "name": "account",
          "type": "address"
        },
        {
          "indexed": true,
          "internalType": "address",
          "name": "sender",
          "type": "address"
        }
      ],
      "name": "RoleRevoked",
      "type": "event"
    },
    {
      "inputs": [],
      "name": "ADMIN_ROLE",
      "outputs": [
        {
          "internalType": "bytes32",
          "name": "",
          "type": "bytes32"
        }
      ],
      "stateMutability": "view",
      "type": "function"
    },
    {
      "inputs": [],
      "name": "BURNER_ROLE",
      "outputs": [
        {
          "internalType": "bytes32",
          "name": "",
          "type": "bytes32"
        }
      ],
      "stateMutability": "view",
      "type": "function"
    },
    {
      "inputs": [],
      "name": "DEFAULT_ADMIN_ROLE",
      "outputs": [
        {
          "internalType": "bytes32",
          "name": "",
          "type": "bytes32"
        }
      ],
      "stateMutability": "view",
      "type": "function"
    },
    {
      "inputs": [],
      "name": "MINTER_ROLE",
      "outputs": [
        {
          "internalType": "bytes32",
          "name": "",
          "type": "bytes32"
        }
      ],
      "stateMutability": "view",
      "type": "function"
    },
    {
      "inputs": [],
      "name": "MULTIPLIER",
      "outputs": [
        {
          "internalType": "uint256",
          "name": "",
          "type": "uint256"
        }
      ],
      "stateMutability": "view",
      "type": "function"
    },
    {
      "inputs": [],
      "name": "activeHolders",
      "outputs": [
        {
          "internalType": "address[]",
          "name": "",
          "type": "address[]"
        }
      ],
      "stateMutability": "view",
      "type": "function"
    },
    {
      "inputs": [
        {
          "internalType": "address",
          "name": "_addr",
          "type": "address"
        }
      ],
      "name": "activeLocksOf",
      "outputs": [
        {
          "internalType": "uint256[]",
          "name": "",
          "type": "uint256[]"
        }
      ],
      "stateMutability": "view",
      "type": "function"
    },
    {
      "inputs": [
        {
          "internalType": "address",
          "name": "account",
          "type": "address"
        }
      ],
      "name": "addAdmin",
      "outputs": [],
      "stateMutability": "nonpayable",
      "type": "function"
    },
    {
      "inputs": [],
      "name": "allHolders",
      "outputs": [
        {
          "internalType": "address[]",
          "name": "",
          "type": "address[]"
        }
      ],
      "stateMutability": "view",
      "type": "function"
    },
    {
      "inputs": [
        {
          "internalType": "uint256",
          "name": "",
          "type": "uint256"
        }
      ],
      "name": "allLocks",
      "outputs": [
        {
          "internalType": "uint256",
          "name": "start",
          "type": "uint256"
        },
        {
          "internalType": "uint256",
          "name": "end",
          "type": "uint256"
        },
        {
          "internalType": "uint256",
          "name": "amount",
          "type": "uint256"
        }
      ],
      "stateMutability": "view",
      "type": "function"
    },
    {
      "inputs": [
        {
          "internalType": "address",
          "name": "_addr",
          "type": "address"
        }
      ],
      "name": "balanceOf",
      "outputs": [
        {
          "internalType": "uint256",
          "name": "balance",
          "type": "uint256"
        }
      ],
      "stateMutability": "view",
      "type": "function"
    },
    {
      "inputs": [
        {
          "internalType": "address",
          "name": "_addr",
          "type": "address"
        },
        {
          "internalType": "uint256",
          "name": "_timestamp",
          "type": "uint256"
        }
      ],
      "name": "balanceOfAt",
      "outputs": [
        {
          "internalType": "uint256",
          "name": "balance",
          "type": "uint256"
        }
      ],
      "stateMutability": "view",
      "type": "function"
    },
    {
      "inputs": [
        {
          "internalType": "uint256",
          "name": "_lockId",
          "type": "uint256"
        }
      ],
      "name": "balanceOfLock",
      "outputs": [
        {
          "internalType": "uint256",
          "name": "",
          "type": "uint256"
        }
      ],
      "stateMutability": "view",
      "type": "function"
    },
    {
      "inputs": [
        {
          "internalType": "uint256",
          "name": "_lockId",
          "type": "uint256"
        },
        {
          "internalType": "uint256",
          "name": "_timestamp",
          "type": "uint256"
        }
      ],
      "name": "balanceOfLockAt",
      "outputs": [
        {
          "internalType": "uint256",
          "name": "",
          "type": "uint256"
        }
      ],
      "stateMutability": "view",
      "type": "function"
    },
    {
      "inputs": [
        {
          "internalType": "uint256",
          "name": "_value",
          "type": "uint256"
        },
        {
          "internalType": "uint256",
          "name": "_unlockWeeks",
          "type": "uint256"
        }
      ],
      "name": "createLock",
      "outputs": [
        {
          "internalType": "uint256",
          "name": "lockId",
          "type": "uint256"
        }
      ],
      "stateMutability": "nonpayable",
      "type": "function"
    },
    {
      "inputs": [
        {
          "internalType": "uint256",
          "name": "_value",
          "type": "uint256"
        },
        {
          "internalType": "uint256",
          "name": "_unlockWeeks",
          "type": "uint256"
        },
        {
          "internalType": "uint256",
          "name": "_deadline",
          "type": "uint256"
        },
        {
          "internalType": "uint8",
          "name": "_v",
          "type": "uint8"
        },
        {
          "internalType": "bytes32",
          "name": "_r",
          "type": "bytes32"
        },
        {
          "internalType": "bytes32",
          "name": "_s",
          "type": "bytes32"
        }
      ],
      "name": "createLockWithPermit",
      "outputs": [
        {
          "internalType": "uint256",
          "name": "lockId",
          "type": "uint256"
        }
      ],
      "stateMutability": "nonpayable",
      "type": "function"
    },
    {
      "inputs": [],
      "name": "cumulativeEpochUnit",
      "outputs": [
        {
          "internalType": "uint256",
          "name": "",
          "type": "uint256"
        }
      ],
      "stateMutability": "view",
      "type": "function"
    },
    {
      "inputs": [],
      "name": "cumulativeTOSAmount",
      "outputs": [
        {
          "internalType": "uint256",
          "name": "",
          "type": "uint256"
        }
      ],
      "stateMutability": "view",
      "type": "function"
    },
    {
      "inputs": [],
      "name": "currentStakedTotalTOS",
      "outputs": [
        {
          "internalType": "uint256",
          "name": "",
          "type": "uint256"
        }
      ],
      "stateMutability": "view",
      "type": "function"
    },
    {
      "inputs": [
        {
          "internalType": "address",
          "name": "_addr",
          "type": "address"
        },
        {
          "internalType": "uint256",
          "name": "_lockId",
          "type": "uint256"
        },
        {
          "internalType": "uint256",
          "name": "_value",
          "type": "uint256"
        }
      ],
      "name": "depositFor",
      "outputs": [],
      "stateMutability": "nonpayable",
      "type": "function"
    },
    {
      "inputs": [],
      "name": "epochUnit",
      "outputs": [
        {
          "internalType": "uint256",
          "name": "",
          "type": "uint256"
        }
      ],
      "stateMutability": "view",
      "type": "function"
    },
    {
      "inputs": [],
      "name": "getCurrentTime",
      "outputs": [
        {
          "internalType": "uint256",
          "name": "",
          "type": "uint256"
        }
      ],
      "stateMutability": "view",
      "type": "function"
    },
    {
      "inputs": [
        {
          "internalType": "bytes32",
          "name": "role",
          "type": "bytes32"
        }
      ],
      "name": "getRoleAdmin",
      "outputs": [
        {
          "internalType": "bytes32",
          "name": "",
          "type": "bytes32"
        }
      ],
      "stateMutability": "view",
      "type": "function"
    },
    {
      "inputs": [
        {
          "internalType": "bytes32",
          "name": "role",
          "type": "bytes32"
        },
        {
          "internalType": "uint256",
          "name": "index",
          "type": "uint256"
        }
      ],
      "name": "getRoleMember",
      "outputs": [
        {
          "internalType": "address",
          "name": "",
          "type": "address"
        }
      ],
      "stateMutability": "view",
      "type": "function"
    },
    {
      "inputs": [
        {
          "internalType": "bytes32",
          "name": "role",
          "type": "bytes32"
        }
      ],
      "name": "getRoleMemberCount",
      "outputs": [
        {
          "internalType": "uint256",
          "name": "",
          "type": "uint256"
        }
      ],
      "stateMutability": "view",
      "type": "function"
    },
    {
      "inputs": [],
      "name": "globalCheckpoint",
      "outputs": [],
      "stateMutability": "nonpayable",
      "type": "function"
    },
    {
      "inputs": [
        {
          "internalType": "bytes32",
          "name": "role",
          "type": "bytes32"
        },
        {
          "internalType": "address",
          "name": "account",
          "type": "address"
        }
      ],
      "name": "grantRole",
      "outputs": [],
      "stateMutability": "nonpayable",
      "type": "function"
    },
    {
      "inputs": [
        {
          "internalType": "bytes32",
          "name": "role",
          "type": "bytes32"
        },
        {
          "internalType": "address",
          "name": "account",
          "type": "address"
        }
      ],
      "name": "hasRole",
      "outputs": [
        {
          "internalType": "bool",
          "name": "",
          "type": "bool"
        }
      ],
      "stateMutability": "view",
      "type": "function"
    },
    {
      "inputs": [
        {
          "internalType": "uint256",
          "name": "",
          "type": "uint256"
        }
      ],
      "name": "inUse",
      "outputs": [
        {
          "internalType": "bool",
          "name": "",
          "type": "bool"
        }
      ],
      "stateMutability": "view",
      "type": "function"
    },
    {
      "inputs": [
        {
          "internalType": "uint256",
          "name": "_lockId",
          "type": "uint256"
        },
        {
          "internalType": "uint256",
          "name": "_value",
          "type": "uint256"
        }
      ],
      "name": "increaseAmount",
      "outputs": [],
      "stateMutability": "nonpayable",
      "type": "function"
    },
    {
      "inputs": [
        {
          "internalType": "uint256",
          "name": "_lockId",
          "type": "uint256"
        },
        {
          "internalType": "uint256",
          "name": "_unlockWeeks",
          "type": "uint256"
        }
      ],
      "name": "increaseUnlockTime",
      "outputs": [],
      "stateMutability": "nonpayable",
      "type": "function"
    },
    {
      "inputs": [
        {
          "internalType": "address",
          "name": "account",
          "type": "address"
        }
      ],
      "name": "isAdmin",
      "outputs": [
        {
          "internalType": "bool",
          "name": "",
          "type": "bool"
        }
      ],
      "stateMutability": "view",
      "type": "function"
    },
    {
      "inputs": [],
      "name": "lockIdCounter",
      "outputs": [
        {
          "internalType": "uint256",
          "name": "",
          "type": "uint256"
        }
      ],
      "stateMutability": "view",
      "type": "function"
    },
    {
      "inputs": [
        {
          "internalType": "uint256",
          "name": "",
          "type": "uint256"
        },
        {
          "internalType": "uint256",
          "name": "",
          "type": "uint256"
        }
      ],
      "name": "lockPointHistory",
      "outputs": [
        {
          "internalType": "int256",
          "name": "bias",
          "type": "int256"
        },
        {
          "internalType": "int256",
          "name": "slope",
          "type": "int256"
        },
        {
          "internalType": "uint256",
          "name": "timestamp",
          "type": "uint256"
        }
      ],
      "stateMutability": "view",
      "type": "function"
    },
    {
      "inputs": [
        {
          "internalType": "address",
          "name": "",
          "type": "address"
        },
        {
          "internalType": "uint256",
          "name": "",
          "type": "uint256"
        }
      ],
      "name": "lockedBalances",
      "outputs": [
        {
          "internalType": "uint256",
          "name": "start",
          "type": "uint256"
        },
        {
          "internalType": "uint256",
          "name": "end",
          "type": "uint256"
        },
        {
          "internalType": "uint256",
          "name": "amount",
          "type": "uint256"
        }
      ],
      "stateMutability": "view",
      "type": "function"
    },
    {
      "inputs": [
        {
          "internalType": "uint256",
          "name": "_lockId",
          "type": "uint256"
        }
      ],
      "name": "locksInfo",
      "outputs": [
        {
          "internalType": "uint256",
          "name": "start",
          "type": "uint256"
        },
        {
          "internalType": "uint256",
          "name": "end",
          "type": "uint256"
        },
        {
          "internalType": "uint256",
          "name": "amount",
          "type": "uint256"
        }
      ],
      "stateMutability": "view",
      "type": "function"
    },
    {
      "inputs": [
        {
          "internalType": "address",
          "name": "_addr",
          "type": "address"
        }
      ],
      "name": "locksOf",
      "outputs": [
        {
          "internalType": "uint256[]",
          "name": "",
          "type": "uint256[]"
        }
      ],
      "stateMutability": "view",
      "type": "function"
    },
    {
      "inputs": [],
      "name": "maxTime",
      "outputs": [
        {
          "internalType": "uint256",
          "name": "",
          "type": "uint256"
        }
      ],
      "stateMutability": "view",
      "type": "function"
    },
    {
      "inputs": [],
      "name": "migratedL2",
      "outputs": [
        {
          "internalType": "bool",
          "name": "",
          "type": "bool"
        }
      ],
      "stateMutability": "view",
      "type": "function"
    },
    {
      "inputs": [],
      "name": "pauseProxy",
      "outputs": [
        {
          "internalType": "bool",
          "name": "",
          "type": "bool"
        }
      ],
      "stateMutability": "view",
      "type": "function"
    },
    {
      "inputs": [],
      "name": "phase3StartTime",
      "outputs": [
        {
          "internalType": "uint256",
          "name": "",
          "type": "uint256"
        }
      ],
      "stateMutability": "view",
      "type": "function"
    },
    {
      "inputs": [
        {
          "internalType": "uint256",
          "name": "",
          "type": "uint256"
        }
      ],
      "name": "pointHistory",
      "outputs": [
        {
          "internalType": "int256",
          "name": "bias",
          "type": "int256"
        },
        {
          "internalType": "int256",
          "name": "slope",
          "type": "int256"
        },
        {
          "internalType": "uint256",
          "name": "timestamp",
          "type": "uint256"
        }
      ],
      "stateMutability": "view",
      "type": "function"
    },
    {
      "inputs": [
        {
          "internalType": "uint256",
          "name": "_lockId",
          "type": "uint256"
        }
      ],
      "name": "pointHistoryOf",
      "outputs": [
        {
          "components": [
            {
              "internalType": "int256",
              "name": "bias",
              "type": "int256"
            },
            {
              "internalType": "int256",
              "name": "slope",
              "type": "int256"
            },
            {
              "internalType": "uint256",
              "name": "timestamp",
              "type": "uint256"
            }
          ],
          "internalType": "struct LibLockTOS.Point[]",
          "name": "",
          "type": "tuple[]"
        }
      ],
      "stateMutability": "view",
      "type": "function"
    },
    {
      "inputs": [
        {
          "internalType": "address",
          "name": "account",
          "type": "address"
        }
      ],
      "name": "removeAdmin",
      "outputs": [],
      "stateMutability": "nonpayable",
      "type": "function"
    },
    {
      "inputs": [
        {
          "internalType": "bytes32",
          "name": "role",
          "type": "bytes32"
        },
        {
          "internalType": "address",
          "name": "account",
          "type": "address"
        }
      ],
      "name": "renounceRole",
      "outputs": [],
      "stateMutability": "nonpayable",
      "type": "function"
    },
    {
      "inputs": [
        {
          "internalType": "bytes32",
          "name": "role",
          "type": "bytes32"
        },
        {
          "internalType": "address",
          "name": "account",
          "type": "address"
        }
      ],
      "name": "revokeRole",
      "outputs": [],
      "stateMutability": "nonpayable",
      "type": "function"
    },
    {
      "inputs": [
        {
          "internalType": "uint256",
          "name": "_maxTime",
          "type": "uint256"
        }
      ],
      "name": "setMaxTime",
      "outputs": [],
      "stateMutability": "nonpayable",
      "type": "function"
    },
    {
      "inputs": [
        {
          "internalType": "uint256",
          "name": "",
          "type": "uint256"
        }
      ],
      "name": "slopeChanges",
      "outputs": [
        {
          "internalType": "int256",
          "name": "",
          "type": "int256"
        }
      ],
      "stateMutability": "view",
      "type": "function"
    },
    {
      "inputs": [],
      "name": "stakeRegistry",
      "outputs": [
        {
          "internalType": "address",
          "name": "",
          "type": "address"
        }
      ],
      "stateMutability": "view",
      "type": "function"
    },
    {
      "inputs": [],
      "name": "tos",
      "outputs": [
        {
          "internalType": "address",
          "name": "",
          "type": "address"
        }
      ],
      "stateMutability": "view",
      "type": "function"
    },
    {
      "inputs": [],
      "name": "totalSupply",
      "outputs": [
        {
          "internalType": "uint256",
          "name": "",
          "type": "uint256"
        }
      ],
      "stateMutability": "view",
      "type": "function"
    },
    {
      "inputs": [
        {
          "internalType": "uint256",
          "name": "_timestamp",
          "type": "uint256"
        }
      ],
      "name": "totalSupplyAt",
      "outputs": [
        {
          "internalType": "uint256",
          "name": "",
          "type": "uint256"
        }
      ],
      "stateMutability": "view",
      "type": "function"
    },
    {
      "inputs": [
        {
          "internalType": "address",
          "name": "newAdmin",
          "type": "address"
        }
      ],
      "name": "transferAdmin",
      "outputs": [],
      "stateMutability": "nonpayable",
      "type": "function"
    },
    {
      "inputs": [
        {
          "internalType": "uint256",
          "name": "",
          "type": "uint256"
        }
      ],
      "name": "uniqueUsers",
      "outputs": [
        {
          "internalType": "address",
          "name": "",
          "type": "address"
        }
      ],
      "stateMutability": "view",
      "type": "function"
    },
    {
      "inputs": [
        {
          "internalType": "address",
          "name": "",
          "type": "address"
        },
        {
          "internalType": "uint256",
          "name": "",
          "type": "uint256"
        }
      ],
      "name": "userLocks",
      "outputs": [
        {
          "internalType": "uint256",
          "name": "",
          "type": "uint256"
        }
      ],
      "stateMutability": "view",
      "type": "function"
    },
    {
      "inputs": [
        {
          "internalType": "uint256",
          "name": "_lockId",
          "type": "uint256"
        }
      ],
      "name": "withdraw",
      "outputs": [],
      "stateMutability": "nonpayable",
      "type": "function"
    },
    {
      "inputs": [],
      "name": "withdrawAll",
      "outputs": [],
      "stateMutability": "nonpayable",
      "type": "function"
    }
  ],
  "bytecode": "0x6080604052600160085534801561001557600080fd5b506135ae806100256000396000f3fe608060405234801561001057600080fd5b50600436106103035760003560e01c80638ad4c4471161019e578063b94419e0116100ef578063cd29ca0e1161009d578063cd29ca0e1461064d578063d539139314610655578063d547741f1461065d578063e43cb66614610670578063ea31e89514610683578063ed50c6991461068b578063f52a36f71461069e578063fd2dcecf146106b157610303565b8063b94419e0146105b7578063c3f9ab58146105ca578063c5773656146105ea578063c5dc1e5f146105ff578063c79acdda1461061f578063c80a3aa614610632578063ca15c8731461063a57610303565b8063a1f5f50e1161014c578063a1f5f50e1461055e578063a217fddf14610566578063aa33fedb1461056e578063afae883e14610581578063b2383e5514610589578063b52c05fe1461059c578063b534ad56146105af57610303565b80638ad4c447146104d95780639010d07c146104ec57806391d14854146104ff578063981b24d01461051257806398b777e7146105255780639ce56305146105385780639d507b8b1461054b57610303565b80634cf5fbf5116102585780637048027511610206578063704802751461047557806370a082311461048857806375829def1461049b57806375b238fc146104ae5780638372cd7e146104b6578063853828b6146104c957806389f395de146104d157610303565b80634cf5fbf5146103f95780634ee2cd7e1461040c5780635d16a6f91461041f57806363a8fd891461043257806363d5a3d91461043a578063642cf6491461044d578063683048351461046057610303565b8063282c51f3116102b5578063282c51f31461038657806329cb924d1461038e5780632e1a7d4d146103965780632f2ff15d146103a957806336568abe146103bc578063367b7b23146103cf5780633dce7718146103f157610303565b8063059f8b16146103085780631785f53c1461032657806318160ddd1461033b5780631ac40e661461034357806322e67e711461034b578063248a9ca31461035357806324d7806c14610366575b600080fd5b6103106106b9565b60405161031d91906130af565b60405180910390f35b610339610334366004612d85565b6106c5565b005b610310610724565b6103396107ee565b6103106107f6565b610310610361366004612e1a565b6107fc565b610379610374366004612d85565b610814565b60405161031d91906130a4565b610310610834565b610310610858565b6103396103a4366004612e1a565b61085c565b6103396103b7366004612e32565b6108ba565b6103396103ca366004612e32565b610921565b6103e26103dd366004612e5d565b610982565b60405161031d939291906130b8565b6103106109c4565b610339610407366004612dc8565b6109ca565b61031061041a366004612d9f565b610ad1565b6103e261042d366004612d9f565b610b8e565b610379610bba565b6103e2610448366004612e1a565b610bc3565b61031061045b366004612e5d565b610be4565b610468610c5d565b60405161031d9190612eed565b610339610483366004612d85565b610c71565b610310610496366004612d85565b610ccd565b6103396104a9366004612d85565b610d81565b610310610ea2565b6103106104c4366004612e96565b610eb4565b610339610f38565b610468611067565b6103e26104e7366004612e1a565b611076565b6104686104fa366004612e5d565b6110a9565b61037961050d366004612e32565b6110c8565b610310610520366004612e1a565b6110e0565b610339610533366004612e1a565b61117a565b6103e2610546366004612e1a565b6111c3565b610339610559366004612e5d565b6111e2565b61037961135e565b61031061136e565b61031061057c366004612d9f565b611373565b6103106113a4565b610339610597366004612e5d565b6113aa565b6103106105aa366004612e5d565b6113b5565b61031061154a565b6103106105c5366004612e1a565b611550565b6105dd6105d8366004612d85565b611604565b60405161031d919061306c565b6105f2611670565b60405161031d9190612fc6565b61061261060d366004612e1a565b611807565b60405161031d9190613013565b61037961062d366004612e1a565b611897565b6105f26118ac565b610310610648366004612e1a565b61190e565b610310611925565b61031061192b565b61033961066b366004612e32565b61194f565b6105dd61067e366004612d85565b6119a8565b610310611b7a565b610468610699366004612e1a565b611c00565b6103106106ac366004612e1a565b611c2a565b610310611c3c565b670de0b6b3a764000081565b6106ce33610814565b6107095760405162461bcd60e51b81526004018080602001828103825260228152602001806134236022913960400191505060405180910390fd5b6107216000805160206134b783398151915282610921565b50565b600a54600090610736575060006107eb565b600a805460009190600019810190811061074c57fe5b90600052602060002090600302016040518060600160405290816000820154815260200160018201548152602001600282015481525050905060006107b46107a96107a4846040015142611c4290919063ffffffff16565b611c84565b602084015190611ccc565b90506107e6670de0b6b3a7640000828460000151136107d45760006107e0565b83516107e09084611d75565b90611dda565b925050505b90565b610721611e1c565b60025481565b6000818152601160205260409020600201545b919050565b600061082e6000805160206134b7833981519152836110c8565b92915050565b7f9667e80708b6eeeb0053fa0cca44e028ff548e2a9f029edfeac87c118b08b7c881565b4290565b6008546001146108875760405162461bcd60e51b815260040161087e90613372565b60405180910390fd5b6000600855806108a95760405162461bcd60e51b815260040161087e90613135565b6108b28161201d565b506001600855565b6000828152601160205260409020600201546108d89061050d6121f8565b6109135760405162461bcd60e51b815260040180806020018281038252602f8152602001806133f4602f913960400191505060405180910390fd5b61091d82826121fc565b5050565b6109296121f8565b6001600160a01b0316816001600160a01b0316146109785760405162461bcd60e51b815260040180806020018281038252602f81526020018061354a602f913960400191505060405180910390fd5b61091d8282612265565b600b602052816000526040600020818154811061099e57600080fd5b600091825260209091206003909102018054600182015460029092015490935090915083565b60055481565b600081116109ea5760405162461bcd60e51b815260040161087e906131b8565b6001600160a01b0383166000908152600c602090815260408083208584528252918290208251606081018452815480825260018301549382019390935260029091015492810192909252610a505760405162461bcd60e51b815260040161087e906133a4565b42816020015111610a735760405162461bcd60e51b815260040161087e9061315e565b600754610a8090836122ce565b600755610a908484846000612328565b7fea44bc904f77b1be47cd5b840b00f19b7238f88d7524fa5a86629282bfe6bcc5338484604051610ac393929190612f7f565b60405180910390a150505050565b6001600160a01b0382166000908152600e6020908152604080832080548251818502810185019093528083528493830182828015610b2e57602002820191906000526020600020905b815481526020019060010190808311610b1a575b50505050509050805160001415610b4957600091505061082e565b60005b8151811015610b8657610b7c610b75838381518110610b6757fe5b602002602001015186610be4565b84906122ce565b9250600101610b4c565b505092915050565b600c60209081526000928352604080842090915290825290208054600182015460029092015490919083565b60005460ff1681565b600d6020526000908152604090208054600182015460029092015490919083565b6000828152600b6020526040812081908190610c0090856125e7565b9150915081610c145760009250505061082e565b6000610c336107a96107a4846040015188611c4290919063ffffffff16565b9050610c53670de0b6b3a7640000828460000151136107d45760006107e0565b9695505050505050565b60005461010090046001600160a01b031681565b610c7a33610814565b610cb55760405162461bcd60e51b81526004018080602001828103825260228152602001806134236022913960400191505060405180910390fd5b6107216000805160206134b7833981519152826108ba565b6001600160a01b0381166000908152600e6020908152604080832080548251818502810185019093528083528493830182828015610d2a57602002820191906000526020600020905b815481526020019060010190808311610d16575b50505050509050805160001415610d4557600091505061080f565b60005b8151811015610d7a57610d70610b75838381518110610d6357fe5b6020026020010151611550565b9250600101610d48565b5050919050565b610d8a33610814565b610dc55760405162461bcd60e51b81526004018080602001828103825260228152602001806134236022913960400191505060405180910390fd5b6001600160a01b038116610e1b576040805162461bcd60e51b815260206004820152601860248201527741636365737369626c653a207a65726f206164647265737360401b604482015290519081900360640190fd5b336001600160a01b0382161415610e72576040805162461bcd60e51b815260206004820152601660248201527520b1b1b2b9b9b4b136329d1039b0b6b29030b236b4b760511b604482015290519081900360640190fd5b610e8a6000805160206134b7833981519152826108ba565b6107216000805160206134b783398151915233610921565b6000805160206134b783398151915281565b60035460405163d505accf60e01b81526000916001600160a01b03169063d505accf90610ef190339030908c908b908b908b908b90600401612f25565b600060405180830381600087803b158015610f0b57600080fd5b505af1158015610f1f573d6000803e3d6000fd5b50505050610f2d87876113b5565b979650505050505050565b600854600114610f5a5760405162461bcd60e51b815260040161087e90613372565b60006008819055338152600e602052604090208054610f795750611060565b60005b815481101561105d576000600d6000848481548110610f9757fe5b90600052602060002001548152602001908152602001600020604051806060016040529081600082015481526020016001820154815260200160028201548152505090506000838381548110610fe957fe5b9060005260206000200154118015611005575060008160400151115b80156110115750805115155b8015611021575060008160200151115b80156110305750428160200151105b156110545761105483838154811061104457fe5b906000526020600020015461201d565b50600101610f7c565b50505b6001600855565b6003546001600160a01b031681565b600a818154811061108657600080fd5b600091825260209091206003909102018054600182015460029092015490925083565b60008281526011602052604081206110c190836126df565b9392505050565b60008281526011602052604081206110c190836126eb565b600a546000906111025760405162461bcd60e51b815260040161087e90613321565b600080611110600a856125e7565b91509150816111245760009250505061080f565b60006111406107a4836040015187611c4290919063ffffffff16565b8260200151029050611171670de0b6b3a7640000828460000151136111665760006107e0565b835183900390611dda565b95945050505050565b61118333610814565b6111be5760405162461bcd60e51b81526004018080602001828103825260228152602001806134236022913960400191505060405180910390fd5b600255565b6000908152600d60205260409020805460018201546002909201549092565b600081116112025760405162461bcd60e51b815260040161087e90613294565b60065461120f90826122ce565b600655336000908152600c6020908152604080832085845282528083208151606081018352815481526001808301549482019490945260029091015491810191909152905490919061127190611266908590612700565b6020840151906122ce565b60015490915061128b906112858382611dda565b90612700565b905060025482600001518203106112b45760405162461bcd60e51b815260040161087e906130fe565b428260200151116112d75760405162461bcd60e51b815260040161087e906131ef565b808260200151106112fa5760405162461bcd60e51b815260040161087e90613226565b600082604001511161131e5760405162461bcd60e51b815260040161087e906130ce565b61132b3385600084612328565b7fb8596b0e78133666b86648f60233cc2d078144d06df7874ea9f612a3ccc3e2fb338583604051610ac393929190612f7f565b600054600160a81b900460ff1681565b600081565b600e602052816000526040600020818154811061138f57600080fd5b90600052602060002001600091509150505481565b60045481565b61091d3383836109ca565b60008083116113d65760405162461bcd60e51b815260040161087e906131b8565b600082116113f65760405162461bcd60e51b815260040161087e90613294565b60065461140390836122ce565b60065560075461141390846122ce565b6007556001546000906114329061142b908590612700565b42906122ce565b600154909150611446906112858382611dda565b9050600254428203111561146c5760405162461bcd60e51b815260040161087e906130fe565b336000908152600e60205260409020546114c357600980546001810182556000919091527f6e1540171b6c0c960b71a7020d9f60077f6af931a8bbf590da0223dacf75c7af0180546001600160a01b031916331790555b6004546114d19060016122ce565b600481905591506114e433838684612328565b336000818152600e6020908152604080832080546001810182559084529190922001849055517f71fc552ee832a9004ea0bdb07cb6dd9d641eb2cb53b3cfe88c8fdcff886734a09161153b91859088908690612fa0565b60405180910390a15092915050565b60065481565b6000818152600b60205260408120548061156e57600091505061080f565b6000838152600b602052604081208054600019840190811061158c57fe5b90600052602060002090600302016040518060600160405290816000820154815260200160018201548152602001600282015481525050905060006115e46107a96107a4846040015142611c4290919063ffffffff16565b9050611171670de0b6b3a7640000828460000151136107d45760006107e0565b6001600160a01b0381166000908152600e602090815260409182902080548351818402810184019094528084526060939283018282801561166457602002820191906000526020600020905b815481526020019060010190808311611650575b50505050509050919050565b60095460609060009067ffffffffffffffff8111801561168f57600080fd5b506040519080825280602002602001820160405280156116b9578160200160208202803683370190505b5090506000805b6009548110156117305760006116f6600983815481106116dc57fe5b6000918252602090912001546001600160a01b03166119a8565b805190915015611727578280600101935050600184838151811061171657fe5b911515602092830291909101909101525b506001016116c0565b5060008167ffffffffffffffff8111801561174a57600080fd5b50604051908082528060200260200182016040528015611774578160200160208202803683370190505b5090506000805b6009548110156117fd5784818151811061179157fe5b6020026020010151156117f557600981815481106117ab57fe5b600091825260209091200154835160018401936001600160a01b0390921691859181106117d457fe5b60200260200101906001600160a01b031690816001600160a01b0316815250505b60010161177b565b5090935050505090565b6060600b6000838152602001908152602001600020805480602002602001604051908101604052809291908181526020016000905b8282101561188c578382906000526020600020906003020160405180606001604052908160008201548152602001600182015481526020016002820154815250508152602001906001019061183c565b505050509050919050565b60106020526000908152604090205460ff1681565b6060600980548060200260200160405190810160405280929190818152602001828054801561190457602002820191906000526020600020905b81546001600160a01b031681526001909101906020018083116118e6575b5050505050905090565b600081815260116020526040812061082e90612759565b60075481565b7ff0887ba65ee2024ea881d91b74c2450ef19e1557f03bed3ea9f16b037cbe2dc981565b60008281526011602052604090206002015461196d9061050d6121f8565b6109785760405162461bcd60e51b81526004018080602001828103825260308152602001806134666030913960400191505060405180910390fd5b6001600160a01b0381166000908152600e6020526040812054606091805b82811015611a68576001600160a01b0385166000908152600e602052604081208054839081106119f257fe5b60009182526020808320909101546001600160a01b0389168352600c82526040808420828552835292839020835160608101855281548152600182015493810184905260029091015493810193909352925042108015611a525750600082115b15611a5e576001909301925b50506001016119c6565b5060008167ffffffffffffffff81118015611a8257600080fd5b50604051908082528060200260200182016040528015611aac578160200160208202803683370190505b5090506000915060005b83811015611b71576001600160a01b0386166000908152600e60205260408120805483908110611ae257fe5b60009182526020808320909101546001600160a01b038a168352600c82526040808420828552835292839020835160608101855281548152600182015493810184905260029091015493810193909352925042108015611b425750600082115b15611b675781848680600101975081518110611b5a57fe5b6020026020010181815250505b5050600101611ab6565b50949350505050565b6003546040516370a0823160e01b81526000916001600160a01b0316906370a0823190611bab903090600401612eed565b60206040518083038186803b158015611bc357600080fd5b505afa158015611bd7573d6000803e3d6000fd5b505050506040513d601f19601f82011682018060405250810190611bfb9190612e7e565b905090565b60098181548110611c1057600080fd5b6000918252602090912001546001600160a01b0316905081565b600f6020526000908152604090205481565b60015481565b60006110c183836040518060400160405280601e81526020017f536166654d6174683a207375627472616374696f6e206f766572666c6f770000815250612764565b6000600160ff1b8210611cc85760405162461bcd60e51b81526004018080602001828103825260288152602001806134fe6028913960400191505060405180910390fd5b5090565b600082611cdb5750600061082e565b82600019148015611cef5750600160ff1b82145b15611d2b5760405162461bcd60e51b81526004018080602001828103825260278152602001806134d76027913960400191505060405180910390fd5b82820282848281611d3857fe5b05146110c15760405162461bcd60e51b81526004018080602001828103825260278152602001806134d76027913960400191505060405180910390fd5b6000818303818312801590611d8a5750838113155b80611d9f5750600083128015611d9f57508381135b6110c15760405162461bcd60e51b81526004018080602001828103825260248152602001806135266024913960400191505060405180910390fd5b60006110c183836040518060400160405280601a81526020017f536166654d6174683a206469766973696f6e206279207a65726f0000000000008152506127fb565b611e24612d4d565b600a54429015611e7e57600a80546000198101908110611e4057fe5b906000526020600020906003020160405180606001604052908160008201548152602001600182015481526020016002820154815250509150611e9e565b604051806060016040528060008152602001600081526020018281525091505b6001546040830151600091611eb7916112859082611dda565b90505b81811461201857611edf611ed9600154836122ce90919063ffffffff16565b83612860565b6000818152600f6020526040808220549086015192935091611f12906107a490611f0a908690611c42565b600154612860565b9050611f36611f2e828760200151611ccc90919063ffffffff16565b865190611d75565b85526020850151611f479083612876565b60208601528451600012611f5c576000611f5f565b84515b85526020850151600012611f74576000611f7a565b84602001515b6020860190815260408601848152600a805460018101825560009190915287517fc65a7bb8d6351c1cf70c95a316cc6a92839c986682d98bc35f958f4883f9d2a860039092029182015591517fc65a7bb8d6351c1cf70c95a316cc6a92839c986682d98bc35f958f4883f9d2a9830155517fc65a7bb8d6351c1cf70c95a316cc6a92839c986682d98bc35f958f4883f9d2aa9091015550611eba9050565b505090565b336000908152600c60209081526040808320848452825291829020825160608101845281548082526001830154938201939093526002909101549281019290925261207a5760405162461bcd60e51b815260040161087e906133a4565b4281602001511061209d5760405162461bcd60e51b815260040161087e906132cb565b60008160400151116120c15760405162461bcd60e51b815260040161087e9061318d565b600060405180606001604052806000815260200160008152602001600081525090506120ed81836128db565b604080830151336000818152600c602090815284822088835281528482208651815581870180516001808401919091558888018051600294850155600d90945293879020885181559051938101939093559051910155600354925163a9059cbb60e01b815291926001600160a01b03169163a9059cbb91612172918590600401612f66565b602060405180830381600087803b15801561218c57600080fd5b505af11580156121a0573d6000803e3d6000fd5b505050506040513d601f19601f820116820180604052508101906121c49190612dfa565b507ff1206247bdd5e2e0cfc00bea4cf05fb8dc479ebee686f9549043179cc7013b30338583604051610ac393929190612f7f565b3390565b60008281526011602052604090206122149082612ad1565b1561091d576122216121f8565b6001600160a01b0316816001600160a01b0316837f2f8788117e7eff1d82e926ec794901d17c78024a50270940304540a733656f0d60405160405180910390a45050565b600082815260116020526040902061227d9082612ae6565b1561091d5761228a6121f8565b6001600160a01b0316816001600160a01b0316837ff6391f5c32d9c69d2a47ea670b442974b53935d1edc7fd64eb21e047a839171b60405160405180910390a45050565b6000828201838110156110c1576040805162461bcd60e51b815260206004820152601b60248201527f536166654d6174683a206164646974696f6e206f766572666c6f770000000000604482015290519081900360640190fd5b60085460011461234a5760405162461bcd60e51b815260040161087e90613372565b600060085560015480828161235b57fe5b0402811461237b5760405162461bcd60e51b815260040161087e9061334e565b60015461238c906112858382611dda565b81146123aa5760405162461bcd60e51b815260040161087e906132fb565b6001600160a01b0384166000908152600c60209081526040808320868452825291829020825160608082018552825482526001830154828501908152600290930154828601908152855191820186528251825292519381019390935290519282018390529161241990856122ce565b6040820152821561242c57602081018390525b8051612436574281525b61244081836128db565b6001600160a01b0386166000908152600c6020908152604080832088845282528083208451815582850180516001808401919091558387018051600294850155600d90955292852086518155905192810192909255915190820181905590546124ba916107a491906107e090670de0b6b3a7640000612700565b905060006124e26124db6107a4428660200151611c4290919063ffffffff16565b8390611ccc565b6040805160608101825282815260208082018681524283850190815260008d8152600b84528581208054600181810183559183529490912085516003958602909101908155925190830155516002909101555491516323b872dd60e01b8152929350916001600160a01b03909116906323b872dd9061256990339030908c90600401612f01565b602060405180830381600087803b15801561258357600080fd5b505af1158015612597573d6000803e3d6000fd5b505050506040513d601f19601f820116820180604052508101906125bb9190612dfa565b6125d75760405162461bcd60e51b815260040161087e9061325d565b5050600160085550505050505050565b60006125f1612d4d565b835461260057600091506126d8565b83546000905b8082600101101561265a57600061262260026107e085856122ce565b90508587828154811061263157fe5b9060005260206000209060030201600201541161265057809250612654565b8091505b50612606565b8486838154811061266757fe5b906000526020600020906003020160020154116126d157600186838154811061268c57fe5b906000526020600020906003020180604051806060016040529081600082015481526020016001820154815260200160028201548152505090509350935050506126d8565b6000935050505b9250929050565b60006110c18383612afb565b60006110c1836001600160a01b038416612b5f565b60008261270f5750600061082e565b8282028284828161271c57fe5b04146110c15760405162461bcd60e51b81526004018080602001828103825260218152602001806134966021913960400191505060405180910390fd5b600061082e82612b77565b600081848411156127f35760405162461bcd60e51b81526004018080602001828103825283818151815260200191508051906020019080838360005b838110156127b85781810151838201526020016127a0565b50505050905090810190601f1680156127e55780820380516001836020036101000a031916815260200191505b509250505060405180910390fd5b505050900390565b6000818361284a5760405162461bcd60e51b81526020600482018181528351602484015283519092839260449091019190850190808383600083156127b85781810151838201526020016127a0565b50600083858161285657fe5b0495945050505050565b600081831061286f57816110c1565b5090919050565b600082820181831280159061288b5750838112155b806128a057506000831280156128a057508381125b6110c15760405162461bcd60e51b81526004018080602001828103825260218152602001806134456021913960400191505060405180910390fd5b60408051606080820183526000808352602080840182905283850182905284519283018552818352828101829052938201529184015142929083108015612926575060008560400151115b1561297e576129536107a46002546107e0670de0b6b3a7640000896040015161270090919063ffffffff16565b602080840191909152850151612971906107a9906107a49086611c42565b8252602085015160408301525b828460200151118015612995575060008460400151115b156129f8576129c26107a46002546107e0670de0b6b3a7640000886040015161270090919063ffffffff16565b6020808301919091528401516129eb906129e0906107a49086611c42565b602083015190611ccc565b8152602084015160408201525b6000612a02611e1c565b82518451919250612a1e91612a1691611d75565b825190612876565b815260208083015190840151612a4391612a389190611d75565b602083015190612876565b60208201528051600012612a58576000612a5b565b80515b81526020810151600012612a70576000612a76565b80602001515b6020820152600a80548291906000198101908110612a9057fe5b9060005260206000209060030201600082015181600001556020820151816001015560408201518160020155905050612ac98383612b7b565b505050505050565b60006110c1836001600160a01b038416612c3d565b60006110c1836001600160a01b038416612c87565b81546000908210612b3d5760405162461bcd60e51b81526004018080602001828103825260228152602001806133d26022913960400191505060405180910390fd5b826000018281548110612b4c57fe5b9060005260206000200154905092915050565b60009081526001919091016020526040902054151590565b5490565b6040808301516000908152600f602052818120548383018051835292909120549151909190421015612bf1576020830151612bb7908290612876565b9050836040015183604001511415612bdc576020840151612bd9908290611d75565b90505b6040808401516000908152600f602052208190555b428460400151118015612c0b575082604001518460400151115b15612c37576020840151612c20908390611d75565b6040808601516000908152600f6020522081905591505b50505050565b6000612c498383612b5f565b612c7f5750815460018181018455600084815260208082209093018490558454848252828601909352604090209190915561082e565b50600061082e565b60008181526001830160205260408120548015612d435783546000198083019190810190600090879083908110612cba57fe5b9060005260206000200154905080876000018481548110612cd757fe5b600091825260208083209091019290925582815260018981019092526040902090840190558654879080612d0757fe5b6001900381819060005260206000200160009055905586600101600087815260200190815260200160002060009055600194505050505061082e565b600091505061082e565b60405180606001604052806000815260200160008152602001600081525090565b80356001600160a01b038116811461080f57600080fd5b600060208284031215612d96578081fd5b6110c182612d6e565b60008060408385031215612db1578081fd5b612dba83612d6e565b946020939093013593505050565b600080600060608486031215612ddc578081fd5b612de584612d6e565b95602085013595506040909401359392505050565b600060208284031215612e0b578081fd5b815180151581146110c1578182fd5b600060208284031215612e2b578081fd5b5035919050565b60008060408385031215612e44578182fd5b82359150612e5460208401612d6e565b90509250929050565b60008060408385031215612e6f578182fd5b50508035926020909101359150565b600060208284031215612e8f578081fd5b5051919050565b60008060008060008060c08789031215612eae578182fd5b863595506020870135945060408701359350606087013560ff81168114612ed3578283fd5b9598949750929560808101359460a0909101359350915050565b6001600160a01b0391909116815260200190565b6001600160a01b039384168152919092166020820152604081019190915260600190565b6001600160a01b0397881681529590961660208601526040850193909352606084019190915260ff16608083015260a082015260c081019190915260e00190565b6001600160a01b03929092168252602082015260400190565b6001600160a01b039390931683526020830191909152604082015260600190565b6001600160a01b0394909416845260208401929092526040830152606082015260800190565b6020808252825182820181905260009190848201906040850190845b818110156130075783516001600160a01b031683529284019291840191600101612fe2565b50909695505050505050565b602080825282518282018190526000919060409081850190868401855b8281101561305f5781518051855286810151878601528501518585015260609093019290850190600101613030565b5091979650505050505050565b6020808252825182820181905260009190848201906040850190845b8181101561300757835183529284019291840191600101613088565b901515815260200190565b90815260200190565b9283526020830191909152604082015260600190565b6020808252601690820152754e6f206578697374696e67206c6f636b656420544f5360501b604082015260600190565b6020808252601a908201527f4d617820756e6c6f636b2074696d652069732033207965617273000000000000604082015260600190565b6020808252600f908201526e5f6c6f636b4964206973207a65726f60881b604082015260600190565b602080825260159082015274131bd8dac81d1a5b59481a5cc8199a5b9a5cda1959605a1b604082015260600190565b60208082526011908201527020b63932b0b23c903bb4ba34323930bbb760791b604082015260600190565b6020808252601f908201527f56616c7565206c6f636b65642073686f756c64206265206e6f6e2d7a65726f00604082015260600190565b6020808252601a908201527f4c6f636b2074696d6520616c72656164792066696e6973686564000000000000604082015260600190565b6020808252601d908201527f4e6577206c6f636b2074696d65206d7573742062652067726561746572000000604082015260600190565b6020808252601a908201527f4c6f636b544f533a206661696c207472616e7366657246726f6d000000000000604082015260600190565b6020808252601e908201527f556e6c6f636b20706572696f64206c657373207468616e2061207765656b0000604082015260600190565b602080825260169082015275131bd8dac81d1a5b59481b9bdd08199a5b9a5cda195960521b604082015260600190565b6020808252600c908201526b32b837b1b4103ab734ba101960a11b604082015260600190565b602080825260139082015272139bc81a1a5cdd1bdc9e481c9958dbdc991959606a1b604082015260600190565b6020808252600a9082015269195c1bd8da081d5b9a5d60b21b604082015260600190565b6020808252601890820152774c6f636b496420697320616c726561647920696e2075736560401b604082015260600190565b602080825260139082015272131bd8dac8191bd95cc81b9bdd08195e1a5cdd606a1b60408201526060019056fe456e756d657261626c655365743a20696e646578206f7574206f6620626f756e6473416363657373436f6e74726f6c3a2073656e646572206d75737420626520616e2061646d696e20746f206772616e7441636365737369626c653a2043616c6c6572206973206e6f7420616e2061646d696e5369676e6564536166654d6174683a206164646974696f6e206f766572666c6f77416363657373436f6e74726f6c3a2073656e646572206d75737420626520616e2061646d696e20746f207265766f6b65536166654d6174683a206d756c7469706c69636174696f6e206f766572666c6f77df8b4c520ffe197c5343c6f5aec59570151ef9a492f2c624fd45ddde6135ec425369676e6564536166654d6174683a206d756c7469706c69636174696f6e206f766572666c6f7753616665436173743a2076616c756520646f65736e27742066697420696e20616e20696e743235365369676e6564536166654d6174683a207375627472616374696f6e206f766572666c6f77416363657373436f6e74726f6c3a2063616e206f6e6c792072656e6f756e636520726f6c657320666f722073656c66a26469706673582212206b51f9bab8b5630ea0fe8e446760af725d580d9ce1a10eec00bb7824891ff28a64736f6c63430007060033",
  "linkReferences": {},
  "deployedLinkReferences": {}
}