{
  "_format": "hh-sol-artifact-1",
  "contractName": "LockTOS",
  "sourceName": "contracts/stake/LockTOS.sol",
  "abi": [
    {
      "anonymous": false,
      "inputs": [
        {
          "indexed": false,
          "internalType": "address",
          "name": "account",
          "type": "address"
        },
        {
          "indexed": false,
          "internalType": "uint256",
          "name": "lockId",
          "type": "uint256"
        },
        {
          "indexed": false,
          "internalType": "uint256",
          "name": "value",
          "type": "uint256"
        }
      ],
      "name": "LockAmountIncreased",
      "type": "event"
    },
    {
      "anonymous": false,
      "inputs": [
        {
          "indexed": false,
          "internalType": "address",
          "name": "account",
          "type": "address"
        },
        {
          "indexed": false,
          "internalType": "uint256",
          "name": "lockId",
          "type": "uint256"
        },
        {
          "indexed": false,
          "internalType": "uint256",
          "name": "value",
          "type": "uint256"
        },
        {
          "indexed": false,
          "internalType": "uint256",
          "name": "unlockTime",
          "type": "uint256"
        }
      ],
      "name": "LockCreated",
      "type": "event"
    },
    {
      "anonymous": false,
      "inputs": [
        {
          "indexed": false,
          "internalType": "address",
          "name": "account",
          "type": "address"
        },
        {
          "indexed": false,
          "internalType": "uint256",
          "name": "lockId",
          "type": "uint256"
        },
        {
          "indexed": false,
          "internalType": "uint256",
          "name": "value",
          "type": "uint256"
        }
      ],
      "name": "LockDeposited",
      "type": "event"
    },
    {
      "anonymous": false,
      "inputs": [
        {
          "indexed": false,
          "internalType": "address",
          "name": "account",
          "type": "address"
        },
        {
          "indexed": false,
          "internalType": "uint256",
          "name": "lockId",
          "type": "uint256"
        },
        {
          "indexed": false,
          "internalType": "uint256",
          "name": "unlockTime",
          "type": "uint256"
        }
      ],
      "name": "LockUnlockTimeIncreased",
      "type": "event"
    },
    {
      "anonymous": false,
      "inputs": [
        {
          "indexed": false,
          "internalType": "address",
          "name": "account",
          "type": "address"
        },
        {
          "indexed": false,
          "internalType": "uint256",
          "name": "lockId",
          "type": "uint256"
        },
        {
          "indexed": false,
          "internalType": "uint256",
          "name": "value",
          "type": "uint256"
        }
      ],
      "name": "LockWithdrawn",
      "type": "event"
    },
    {
      "anonymous": false,
      "inputs": [
        {
          "indexed": true,
          "internalType": "bytes32",
          "name": "role",
          "type": "bytes32"
        },
        {
          "indexed": true,
          "internalType": "bytes32",
          "name": "previousAdminRole",
          "type": "bytes32"
        },
        {
          "indexed": true,
          "internalType": "bytes32",
          "name": "newAdminRole",
          "type": "bytes32"
        }
      ],
      "name": "RoleAdminChanged",
      "type": "event"
    },
    {
      "anonymous": false,
      "inputs": [
        {
          "indexed": true,
          "internalType": "bytes32",
          "name": "role",
          "type": "bytes32"
        },
        {
          "indexed": true,
          "internalType": "address",
          "name": "account",
          "type": "address"
        },
        {
          "indexed": true,
          "internalType": "address",
          "name": "sender",
          "type": "address"
        }
      ],
      "name": "RoleGranted",
      "type": "event"
    },
    {
      "anonymous": false,
      "inputs": [
        {
          "indexed": true,
          "internalType": "bytes32",
          "name": "role",
          "type": "bytes32"
        },
        {
          "indexed": true,
          "internalType": "address",
          "name": "account",
          "type": "address"
        },
        {
          "indexed": true,
          "internalType": "address",
          "name": "sender",
          "type": "address"
        }
      ],
      "name": "RoleRevoked",
      "type": "event"
    },
    {
      "inputs": [],
      "name": "ADMIN_ROLE",
      "outputs": [
        {
          "internalType": "bytes32",
          "name": "",
          "type": "bytes32"
        }
      ],
      "stateMutability": "view",
      "type": "function"
    },
    {
      "inputs": [],
      "name": "BURNER_ROLE",
      "outputs": [
        {
          "internalType": "bytes32",
          "name": "",
          "type": "bytes32"
        }
      ],
      "stateMutability": "view",
      "type": "function"
    },
    {
      "inputs": [],
      "name": "DEFAULT_ADMIN_ROLE",
      "outputs": [
        {
          "internalType": "bytes32",
          "name": "",
          "type": "bytes32"
        }
      ],
      "stateMutability": "view",
      "type": "function"
    },
    {
      "inputs": [],
      "name": "MINTER_ROLE",
      "outputs": [
        {
          "internalType": "bytes32",
          "name": "",
          "type": "bytes32"
        }
      ],
      "stateMutability": "view",
      "type": "function"
    },
    {
      "inputs": [],
      "name": "MULTIPLIER",
      "outputs": [
        {
          "internalType": "uint256",
          "name": "",
          "type": "uint256"
        }
      ],
      "stateMutability": "view",
      "type": "function"
    },
    {
      "inputs": [
        {
          "internalType": "address",
          "name": "account",
          "type": "address"
        }
      ],
      "name": "addAdmin",
      "outputs": [],
      "stateMutability": "nonpayable",
      "type": "function"
    },
    {
      "inputs": [
        {
          "internalType": "address",
          "name": "_addr",
          "type": "address"
        }
      ],
      "name": "alivelocksOf",
      "outputs": [
        {
          "components": [
            {
              "internalType": "uint256",
              "name": "id",
              "type": "uint256"
            },
            {
              "internalType": "uint256",
              "name": "start",
              "type": "uint256"
            },
            {
              "internalType": "uint256",
              "name": "end",
              "type": "uint256"
            },
            {
              "internalType": "uint256",
              "name": "amount",
              "type": "uint256"
            },
            {
              "internalType": "int256",
              "name": "boostValue",
              "type": "int256"
            },
            {
              "internalType": "uint256",
              "name": "balance",
              "type": "uint256"
            }
          ],
          "internalType": "struct LibLockTOS.LockedBalanceInfo[]",
          "name": "",
          "type": "tuple[]"
        }
      ],
      "stateMutability": "view",
      "type": "function"
    },
    {
      "inputs": [
        {
          "internalType": "uint256",
          "name": "",
          "type": "uint256"
        }
      ],
      "name": "allLocks",
      "outputs": [
        {
          "internalType": "uint256",
          "name": "start",
          "type": "uint256"
        },
        {
          "internalType": "uint256",
          "name": "end",
          "type": "uint256"
        },
        {
          "internalType": "uint256",
          "name": "amount",
          "type": "uint256"
        },
        {
          "internalType": "int256",
          "name": "boostValue",
          "type": "int256"
        }
      ],
      "stateMutability": "view",
      "type": "function"
    },
    {
      "inputs": [
        {
          "internalType": "address",
          "name": "_addr",
          "type": "address"
        }
      ],
      "name": "balanceOf",
      "outputs": [
        {
          "internalType": "uint256",
          "name": "balance",
          "type": "uint256"
        }
      ],
      "stateMutability": "view",
      "type": "function"
    },
    {
      "inputs": [
        {
          "internalType": "address",
          "name": "_addr",
          "type": "address"
        },
        {
          "internalType": "uint256",
          "name": "_timestamp",
          "type": "uint256"
        }
      ],
      "name": "balanceOfAt",
      "outputs": [
        {
          "internalType": "uint256",
          "name": "balance",
          "type": "uint256"
        }
      ],
      "stateMutability": "view",
      "type": "function"
    },
    {
      "inputs": [
        {
          "internalType": "uint256",
          "name": "_lockId",
          "type": "uint256"
        }
      ],
      "name": "balanceOfLock",
      "outputs": [
        {
          "internalType": "uint256",
          "name": "",
          "type": "uint256"
        }
      ],
      "stateMutability": "view",
      "type": "function"
    },
    {
      "inputs": [
        {
          "internalType": "uint256",
          "name": "_lockId",
          "type": "uint256"
        },
        {
          "internalType": "uint256",
          "name": "_timestamp",
          "type": "uint256"
        }
      ],
      "name": "balanceOfLockAt",
      "outputs": [
        {
          "internalType": "uint256",
          "name": "",
          "type": "uint256"
        }
      ],
      "stateMutability": "view",
      "type": "function"
    },
    {
      "inputs": [
        {
          "internalType": "uint256",
          "name": "_lockId",
          "type": "uint256"
        }
      ],
      "name": "balanceOfLockTest",
      "outputs": [
        {
          "internalType": "uint256",
          "name": "_balance",
          "type": "uint256"
        },
        {
          "internalType": "uint256",
          "name": "_blocktime",
          "type": "uint256"
        },
        {
          "internalType": "int256",
          "name": "_currentBias",
          "type": "int256"
        },
        {
          "internalType": "int256",
          "name": "_slope",
          "type": "int256"
        },
        {
          "internalType": "int256",
          "name": "_bias",
          "type": "int256"
        },
        {
          "internalType": "uint256",
          "name": "_timestamp",
          "type": "uint256"
        }
      ],
      "stateMutability": "view",
      "type": "function"
    },
    {
      "inputs": [
        {
          "internalType": "uint256",
          "name": "_value",
          "type": "uint256"
        },
        {
          "internalType": "uint256",
          "name": "_unlockWeeks",
          "type": "uint256"
        }
      ],
      "name": "createLock",
      "outputs": [
        {
          "internalType": "uint256",
          "name": "lockId",
          "type": "uint256"
        }
      ],
      "stateMutability": "nonpayable",
      "type": "function"
    },
    {
      "inputs": [
        {
          "internalType": "uint256",
          "name": "_value",
          "type": "uint256"
        },
        {
          "internalType": "uint256",
          "name": "_unlockWeeks",
          "type": "uint256"
        },
        {
          "internalType": "uint256",
          "name": "_deadline",
          "type": "uint256"
        },
        {
          "internalType": "uint8",
          "name": "_v",
          "type": "uint8"
        },
        {
          "internalType": "bytes32",
          "name": "_r",
          "type": "bytes32"
        },
        {
          "internalType": "bytes32",
          "name": "_s",
          "type": "bytes32"
        }
      ],
      "name": "createLockWithPermit",
      "outputs": [
        {
          "internalType": "uint256",
          "name": "lockId",
          "type": "uint256"
        }
      ],
      "stateMutability": "nonpayable",
      "type": "function"
    },
    {
      "inputs": [],
      "name": "cumulativeEpochUnit",
      "outputs": [
        {
          "internalType": "uint256",
          "name": "",
          "type": "uint256"
        }
      ],
      "stateMutability": "view",
      "type": "function"
    },
    {
      "inputs": [],
      "name": "cumulativeTOSAmount",
      "outputs": [
        {
          "internalType": "uint256",
          "name": "",
          "type": "uint256"
        }
      ],
      "stateMutability": "view",
      "type": "function"
    },
    {
      "inputs": [],
      "name": "currentStakedTotalTOS",
      "outputs": [
        {
          "internalType": "uint256",
          "name": "",
          "type": "uint256"
        }
      ],
      "stateMutability": "view",
      "type": "function"
    },
    {
      "inputs": [
        {
          "internalType": "address",
          "name": "_addr",
          "type": "address"
        },
        {
          "internalType": "uint256",
          "name": "_lockId",
          "type": "uint256"
        },
        {
          "internalType": "uint256",
          "name": "_value",
          "type": "uint256"
        }
      ],
      "name": "depositFor",
      "outputs": [],
      "stateMutability": "nonpayable",
      "type": "function"
    },
    {
      "inputs": [],
      "name": "epochUnit",
      "outputs": [
        {
          "internalType": "uint256",
          "name": "",
          "type": "uint256"
        }
      ],
      "stateMutability": "view",
      "type": "function"
    },
    {
      "inputs": [],
      "name": "getCurrentTime",
      "outputs": [
        {
          "internalType": "uint256",
          "name": "",
          "type": "uint256"
        }
      ],
      "stateMutability": "view",
      "type": "function"
    },
    {
      "inputs": [
        {
          "internalType": "bytes32",
          "name": "role",
          "type": "bytes32"
        }
      ],
      "name": "getRoleAdmin",
      "outputs": [
        {
          "internalType": "bytes32",
          "name": "",
          "type": "bytes32"
        }
      ],
      "stateMutability": "view",
      "type": "function"
    },
    {
      "inputs": [
        {
          "internalType": "bytes32",
          "name": "role",
          "type": "bytes32"
        },
        {
          "internalType": "uint256",
          "name": "index",
          "type": "uint256"
        }
      ],
      "name": "getRoleMember",
      "outputs": [
        {
          "internalType": "address",
          "name": "",
          "type": "address"
        }
      ],
      "stateMutability": "view",
      "type": "function"
    },
    {
      "inputs": [
        {
          "internalType": "bytes32",
          "name": "role",
          "type": "bytes32"
        }
      ],
      "name": "getRoleMemberCount",
      "outputs": [
        {
          "internalType": "uint256",
          "name": "",
          "type": "uint256"
        }
      ],
      "stateMutability": "view",
      "type": "function"
    },
    {
      "inputs": [],
      "name": "globalCheckpoint",
      "outputs": [],
      "stateMutability": "nonpayable",
      "type": "function"
    },
    {
      "inputs": [
        {
          "internalType": "bytes32",
          "name": "role",
          "type": "bytes32"
        },
        {
          "internalType": "address",
          "name": "account",
          "type": "address"
        }
      ],
      "name": "grantRole",
      "outputs": [],
      "stateMutability": "nonpayable",
      "type": "function"
    },
    {
      "inputs": [
        {
          "internalType": "bytes32",
          "name": "role",
          "type": "bytes32"
        },
        {
          "internalType": "address",
          "name": "account",
          "type": "address"
        }
      ],
      "name": "hasRole",
      "outputs": [
        {
          "internalType": "bool",
          "name": "",
          "type": "bool"
        }
      ],
      "stateMutability": "view",
      "type": "function"
    },
    {
      "inputs": [
        {
          "internalType": "uint256",
          "name": "",
          "type": "uint256"
        }
      ],
      "name": "inUse",
      "outputs": [
        {
          "internalType": "bool",
          "name": "",
          "type": "bool"
        }
      ],
      "stateMutability": "view",
      "type": "function"
    },
    {
      "inputs": [
        {
          "internalType": "uint256",
          "name": "_lockId",
          "type": "uint256"
        },
        {
          "internalType": "uint256",
          "name": "_value",
          "type": "uint256"
        }
      ],
      "name": "increaseAmount",
      "outputs": [],
      "stateMutability": "nonpayable",
      "type": "function"
    },
    {
      "inputs": [
        {
          "internalType": "uint256",
          "name": "_lockId",
          "type": "uint256"
        },
        {
          "internalType": "uint256",
          "name": "_unlockWeeks",
          "type": "uint256"
        }
      ],
      "name": "increaseUnlockTime",
      "outputs": [],
      "stateMutability": "nonpayable",
      "type": "function"
    },
    {
      "inputs": [
        {
          "internalType": "address",
          "name": "account",
          "type": "address"
        }
      ],
      "name": "isAdmin",
      "outputs": [
        {
          "internalType": "bool",
          "name": "",
          "type": "bool"
        }
      ],
      "stateMutability": "view",
      "type": "function"
    },
    {
      "inputs": [],
      "name": "lockIdCounter",
      "outputs": [
        {
          "internalType": "uint256",
          "name": "",
          "type": "uint256"
        }
      ],
      "stateMutability": "view",
      "type": "function"
    },
    {
      "inputs": [
        {
          "internalType": "uint256",
          "name": "",
          "type": "uint256"
        },
        {
          "internalType": "uint256",
          "name": "",
          "type": "uint256"
        }
      ],
      "name": "lockPointHistory",
      "outputs": [
        {
          "internalType": "int256",
          "name": "bias",
          "type": "int256"
        },
        {
          "internalType": "int256",
          "name": "slope",
          "type": "int256"
        },
        {
          "internalType": "uint256",
          "name": "timestamp",
          "type": "uint256"
        }
      ],
      "stateMutability": "view",
      "type": "function"
    },
    {
      "inputs": [
        {
          "internalType": "address",
          "name": "",
          "type": "address"
        },
        {
          "internalType": "uint256",
          "name": "",
          "type": "uint256"
        }
      ],
      "name": "lockedBalances",
      "outputs": [
        {
          "internalType": "uint256",
          "name": "start",
          "type": "uint256"
        },
        {
          "internalType": "uint256",
          "name": "end",
          "type": "uint256"
        },
        {
          "internalType": "uint256",
          "name": "amount",
          "type": "uint256"
        },
        {
          "internalType": "int256",
          "name": "boostValue",
          "type": "int256"
        }
      ],
      "stateMutability": "view",
      "type": "function"
    },
    {
      "inputs": [
        {
          "internalType": "uint256",
          "name": "_lockId",
          "type": "uint256"
        }
      ],
      "name": "locksInfo",
      "outputs": [
        {
          "internalType": "uint256",
          "name": "start",
          "type": "uint256"
        },
        {
          "internalType": "uint256",
          "name": "end",
          "type": "uint256"
        },
        {
          "internalType": "uint256",
          "name": "amount",
          "type": "uint256"
        },
        {
          "internalType": "int256",
          "name": "boostValue",
          "type": "int256"
        }
      ],
      "stateMutability": "view",
      "type": "function"
    },
    {
      "inputs": [
        {
          "internalType": "address",
          "name": "_addr",
          "type": "address"
        }
      ],
      "name": "locksOf",
      "outputs": [
        {
          "internalType": "uint256[]",
          "name": "",
          "type": "uint256[]"
        }
      ],
      "stateMutability": "view",
      "type": "function"
    },
    {
      "inputs": [],
      "name": "maxTime",
      "outputs": [
        {
          "internalType": "uint256",
          "name": "",
          "type": "uint256"
        }
      ],
      "stateMutability": "view",
      "type": "function"
    },
    {
      "inputs": [],
      "name": "migratedL2",
      "outputs": [
        {
          "internalType": "bool",
          "name": "",
          "type": "bool"
        }
      ],
      "stateMutability": "view",
      "type": "function"
    },
    {
      "inputs": [],
      "name": "pauseProxy",
      "outputs": [
        {
          "internalType": "bool",
          "name": "",
          "type": "bool"
        }
      ],
      "stateMutability": "view",
      "type": "function"
    },
    {
      "inputs": [],
      "name": "phase3StartTime",
      "outputs": [
        {
          "internalType": "uint256",
          "name": "",
          "type": "uint256"
        }
      ],
      "stateMutability": "view",
      "type": "function"
    },
    {
      "inputs": [
        {
          "internalType": "uint256",
          "name": "",
          "type": "uint256"
        }
      ],
      "name": "pointHistory",
      "outputs": [
        {
          "internalType": "int256",
          "name": "bias",
          "type": "int256"
        },
        {
          "internalType": "int256",
          "name": "slope",
          "type": "int256"
        },
        {
          "internalType": "uint256",
          "name": "timestamp",
          "type": "uint256"
        }
      ],
      "stateMutability": "view",
      "type": "function"
    },
    {
      "inputs": [
        {
          "internalType": "uint256",
          "name": "_lockId",
          "type": "uint256"
        }
      ],
      "name": "pointHistoryOf",
      "outputs": [
        {
          "components": [
            {
              "internalType": "int256",
              "name": "bias",
              "type": "int256"
            },
            {
              "internalType": "int256",
              "name": "slope",
              "type": "int256"
            },
            {
              "internalType": "uint256",
              "name": "timestamp",
              "type": "uint256"
            }
          ],
          "internalType": "struct LibLockTOS.Point[]",
          "name": "",
          "type": "tuple[]"
        }
      ],
      "stateMutability": "view",
      "type": "function"
    },
    {
      "inputs": [
        {
          "internalType": "address",
          "name": "account",
          "type": "address"
        }
      ],
      "name": "removeAdmin",
      "outputs": [],
      "stateMutability": "nonpayable",
      "type": "function"
    },
    {
      "inputs": [
        {
          "internalType": "bytes32",
          "name": "role",
          "type": "bytes32"
        },
        {
          "internalType": "address",
          "name": "account",
          "type": "address"
        }
      ],
      "name": "renounceRole",
      "outputs": [],
      "stateMutability": "nonpayable",
      "type": "function"
    },
    {
      "inputs": [
        {
          "internalType": "bytes32",
          "name": "role",
          "type": "bytes32"
        },
        {
          "internalType": "address",
          "name": "account",
          "type": "address"
        }
      ],
      "name": "revokeRole",
      "outputs": [],
      "stateMutability": "nonpayable",
      "type": "function"
    },
    {
      "inputs": [
        {
          "internalType": "uint256",
          "name": "_maxTime",
          "type": "uint256"
        }
      ],
      "name": "setMaxTime",
      "outputs": [],
      "stateMutability": "nonpayable",
      "type": "function"
    },
    {
      "inputs": [
        {
          "internalType": "uint256",
          "name": "_phase3StartTime",
          "type": "uint256"
        }
      ],
      "name": "setPhase3StartTime",
      "outputs": [],
      "stateMutability": "nonpayable",
      "type": "function"
    },
    {
      "inputs": [
        {
          "internalType": "uint256",
          "name": "",
          "type": "uint256"
        }
      ],
      "name": "slopeChanges",
      "outputs": [
        {
          "internalType": "int256",
          "name": "",
          "type": "int256"
        }
      ],
      "stateMutability": "view",
      "type": "function"
    },
    {
      "inputs": [],
      "name": "stakeRegistry",
      "outputs": [
        {
          "internalType": "address",
          "name": "",
          "type": "address"
        }
      ],
      "stateMutability": "view",
      "type": "function"
    },
    {
      "inputs": [],
      "name": "tos",
      "outputs": [
        {
          "internalType": "address",
          "name": "",
          "type": "address"
        }
      ],
      "stateMutability": "view",
      "type": "function"
    },
    {
      "inputs": [],
      "name": "totalSupply",
      "outputs": [
        {
          "internalType": "uint256",
          "name": "",
          "type": "uint256"
        }
      ],
      "stateMutability": "view",
      "type": "function"
    },
    {
      "inputs": [
        {
          "internalType": "uint256",
          "name": "_timestamp",
          "type": "uint256"
        }
      ],
      "name": "totalSupplyAt",
      "outputs": [
        {
          "internalType": "uint256",
          "name": "",
          "type": "uint256"
        }
      ],
      "stateMutability": "view",
      "type": "function"
    },
    {
      "inputs": [
        {
          "internalType": "address",
          "name": "newAdmin",
          "type": "address"
        }
      ],
      "name": "transferAdmin",
      "outputs": [],
      "stateMutability": "nonpayable",
      "type": "function"
    },
    {
      "inputs": [
        {
          "internalType": "address",
          "name": "",
          "type": "address"
        },
        {
          "internalType": "uint256",
          "name": "",
          "type": "uint256"
        }
      ],
      "name": "userLocks",
      "outputs": [
        {
          "internalType": "uint256",
          "name": "",
          "type": "uint256"
        }
      ],
      "stateMutability": "view",
      "type": "function"
    },
    {
      "inputs": [
        {
          "internalType": "uint256",
          "name": "_lockId",
          "type": "uint256"
        }
      ],
      "name": "withdraw",
      "outputs": [],
      "stateMutability": "nonpayable",
      "type": "function"
    },
    {
      "inputs": [],
      "name": "withdrawAll",
      "outputs": [],
      "stateMutability": "nonpayable",
      "type": "function"
    }
  ],
  "bytecode": "0x6080604052600160085534801561001557600080fd5b506135bd806100256000396000f3fe608060405234801561001057600080fd5b50600436106102f85760003560e01c80638372cd7e11610193578063b2383e55116100e4578063ca15c87311610092578063ca15c8731461067a578063cd29ca0e1461068d578063d539139314610695578063d547741f1461069d578063ea31e895146106b0578063f52a36f7146106b8578063fd2dcecf146106cb576102f8565b8063b2383e55146105e6578063b52c05fe146105f9578063b534ad561461060c578063b94419e014610614578063c3f9ab5814610627578063c5dc1e5f14610647578063c79acdda14610667576102f8565b806398b777e71161014157806398b777e7146105825780639ce56305146105955780639d507b8b146105a8578063a1f5f50e146105bb578063a217fddf146105c3578063aa33fedb146105cb578063afae883e146105de576102f8565b80638372cd7e14610513578063853828b61461052657806389f395de1461052e5780638ad4c447146105365780639010d07c1461054957806391d148541461055c578063981b24d01461056f576102f8565b80634cf5fbf51161024d57806368304835116101fb5780636830483514610485578063688a58501461049a5780636becde32146104ad57806370480275146104d257806370a08231146104e557806375829def146104f857806375b238fc1461050b576102f8565b80634cf5fbf5146103ee5780634ee2cd7e146104015780635d16a6f9146104145780635d3012c91461043757806363a8fd891461045757806363d5a3d91461045f578063642cf64914610472576102f8565b8063282c51f3116102aa578063282c51f31461037b57806329cb924d146103835780632e1a7d4d1461038b5780632f2ff15d1461039e57806336568abe146103b1578063367b7b23146103c45780633dce7718146103e6576102f8565b8063059f8b16146102fd5780631785f53c1461031b57806318160ddd146103305780631ac40e661461033857806322e67e7114610340578063248a9ca31461034857806324d7806c1461035b575b600080fd5b6103056106d3565b60405161031291906130f2565b60405180910390f35b61032e610329366004612d9e565b6106df565b005b61030561073e565b61032e610808565b610305610810565b610305610356366004612e33565b610816565b61036e610369366004612d9e565b61082e565b60405161031291906130e7565b61030561084e565b610305610872565b61032e610399366004612e33565b610876565b61032e6103ac366004612e4b565b6108d4565b61032e6103bf366004612e4b565b61093b565b6103d76103d2366004612e76565b61099c565b604051610312939291906130fb565b6103056109de565b61032e6103fc366004612de1565b6109e4565b61030561040f366004612db8565b610af3565b610427610422366004612db8565b610bb0565b60405161031294939291906133c5565b61044a610445366004612d9e565b610be2565b6040516103129190612fdf565b61036e610e4b565b61042761046d366004612e33565b610e54565b610305610480366004612e76565b610e7b565b61048d610ef4565b6040516103129190612f06565b61032e6104a8366004612e33565b610f08565b6104c06104bb366004612e33565b610f51565b6040516103129695949392919061339d565b61032e6104e0366004612d9e565b61104a565b6103056104f3366004612d9e565b6110a6565b61032e610506366004612d9e565b61115a565b61030561127b565b610305610521366004612eaf565b61128d565b61032e611311565b61048d611451565b6103d7610544366004612e33565b611460565b61048d610557366004612e76565b611493565b61036e61056a366004612e4b565b6114b2565b61030561057d366004612e33565b6114ca565b61032e610590366004612e33565b611544565b6104276105a3366004612e33565b61158d565b61032e6105b6366004612e76565b6115b5565b61036e611739565b610305611749565b6103056105d9366004612db8565b61174e565b61030561177f565b61032e6105f4366004612e76565b611785565b610305610607366004612e76565b611790565b6103056118ce565b610305610622366004612e33565b6118d4565b61063a610635366004612d9e565b611988565b60405161031291906130a3565b61065a610655366004612e33565b6119f4565b6040516103129190613057565b61036e610675366004612e33565b611a84565b610305610688366004612e33565b611a99565b610305611ab0565b610305611ab6565b61032e6106ab366004612e4b565b611ada565b610305611b33565b6103056106c6366004612e33565b611bb9565b610305611bcb565b670de0b6b3a764000081565b6106e83361082e565b6107235760405162461bcd60e51b81526004018080602001828103825260228152602001806134326022913960400191505060405180910390fd5b61073b6000805160206134c68339815191528261093b565b50565b60095460009061075057506000610805565b6009805460009190600019810190811061076657fe5b90600052602060002090600302016040518060600160405290816000820154815260200160018201548152602001600282015481525050905060006107ce6107c36107be846040015142611bd190919063ffffffff16565b611c13565b602084015190611c5b565b9050610800670de0b6b3a7640000828460000151136107ee5760006107fa565b83516107fa9084611d04565b90611d69565b925050505b90565b61073b611dab565b60025481565b6000818152601060205260409020600201545b919050565b60006108486000805160206134c6833981519152836114b2565b92915050565b7f9667e80708b6eeeb0053fa0cca44e028ff548e2a9f029edfeac87c118b08b7c881565b4290565b6008546001146108a15760405162461bcd60e51b81526004016108989061333e565b60405180910390fd5b6000600855806108c35760405162461bcd60e51b815260040161089890613178565b6108cc81611fa0565b506001600855565b6000828152601060205260409020600201546108f29061056a6121a3565b61092d5760405162461bcd60e51b815260040180806020018281038252602f815260200180613403602f913960400191505060405180910390fd5b61093782826121a7565b5050565b6109436121a3565b6001600160a01b0316816001600160a01b0316146109925760405162461bcd60e51b815260040180806020018281038252602f815260200180613559602f913960400191505060405180910390fd5b6109378282612210565b600a60205281600052604060002081815481106109b857600080fd5b600091825260209091206003909102018054600182015460029092015490935090915083565b60055481565b60008111610a045760405162461bcd60e51b8152600401610898906131fb565b6001600160a01b0383166000908152600b6020908152604080832085845282529182902082516080810184528154808252600183015493820193909352600282015493810193909352600301546060830152610a725760405162461bcd60e51b815260040161089890613370565b42816020015111610a955760405162461bcd60e51b8152600401610898906131a1565b600754610aa29083612279565b600755610ab284848460006122d3565b7fea44bc904f77b1be47cd5b840b00f19b7238f88d7524fa5a86629282bfe6bcc5338484604051610ae593929190612f98565b60405180910390a150505050565b6001600160a01b0382166000908152600d6020908152604080832080548251818502810185019093528083528493830182828015610b5057602002820191906000526020600020905b815481526020019060010190808311610b3c575b50505050509050805160001415610b6b576000915050610848565b60005b8151811015610ba857610b9e610b97838381518110610b8957fe5b602002602001015186610e7b565b8490612279565b9250600101610b6e565b505092915050565b600b60209081526000928352604080842090915290825290208054600182015460028301546003909301549192909184565b6001600160a01b0381166000908152600d6020526040812054606091805b82811015610caa576001600160a01b0385166000908152600d60205260408120805483908110610c2c57fe5b60009182526020808320909101546001600160a01b0389168352600b825260408084208285528352928390208351608081018552815481526001820154938101849052600282015494810194909452600301546060840152925042108015610c945750600082115b15610ca0576001909301925b5050600101610c00565b5060008167ffffffffffffffff81118015610cc457600080fd5b50604051908082528060200260200182016040528015610cfe57816020015b610ceb612d30565b815260200190600190039081610ce35790505b5090506000915060005b83811015610e42576001600160a01b0386166000908152600d60205260408120805483908110610d3457fe5b60009182526020808320909101546001600160a01b038a168352600b825260408084208285528352928390208351608081018552815481526001820154938101849052600282015494810194909452600301546060840152925042108015610d9c5750600082115b15610e38576001600160a01b0388166000908152600d602052604081208054610dda919086908110610dca57fe5b90600052602060002001546118d4565b90506040518060c001604052808481526020018360000151815260200183602001518152602001836040015181526020018360600151815260200182815250858780600101985081518110610e2b57fe5b6020026020010181905250505b5050600101610d08565b50949350505050565b60005460ff1681565b600c6020526000908152604090208054600182015460028301546003909301549192909184565b6000828152600a6020526040812081908190610e9790856125ba565b9150915081610eab57600092505050610848565b6000610eca6107c36107be846040015188611bd190919063ffffffff16565b9050610eea670de0b6b3a7640000828460000151136107ee5760006107fa565b9695505050505050565b60005461010090046001600160a01b031681565b610f113361082e565b610f4c5760405162461bcd60e51b81526004018080602001828103825260228152602001806134326022913960400191505060405180910390fd5b600555565b6000818152600a60205260408120548190819081908190819080610f8a5760008060008060008096509650965096509650965050611041565b6000888152600a6020526040812080546000198401908110610fa857fe5b90600052602060002090600302016040518060600160405290816000820154815260200160018201548152602001600282015481525050905060006110006107c36107be846040015142611bd190919063ffffffff16565b9050611020670de0b6b3a7640000828460000151136107ee5760006107fa565b98504297508096508160200151955081600001519450816040015193505050505b91939550919395565b6110533361082e565b61108e5760405162461bcd60e51b81526004018080602001828103825260228152602001806134326022913960400191505060405180910390fd5b61073b6000805160206134c6833981519152826108d4565b6001600160a01b0381166000908152600d602090815260408083208054825181850281018501909352808352849383018282801561110357602002820191906000526020600020905b8154815260200190600101908083116110ef575b5050505050905080516000141561111e576000915050610829565b60005b815181101561115357611149610b9783838151811061113c57fe5b60200260200101516118d4565b9250600101611121565b5050919050565b6111633361082e565b61119e5760405162461bcd60e51b81526004018080602001828103825260228152602001806134326022913960400191505060405180910390fd5b6001600160a01b0381166111f4576040805162461bcd60e51b815260206004820152601860248201527741636365737369626c653a207a65726f206164647265737360401b604482015290519081900360640190fd5b336001600160a01b038216141561124b576040805162461bcd60e51b815260206004820152601660248201527520b1b1b2b9b9b4b136329d1039b0b6b29030b236b4b760511b604482015290519081900360640190fd5b6112636000805160206134c6833981519152826108d4565b61073b6000805160206134c68339815191523361093b565b6000805160206134c683398151915281565b60035460405163d505accf60e01b81526000916001600160a01b03169063d505accf906112ca90339030908c908b908b908b908b90600401612f3e565b600060405180830381600087803b1580156112e457600080fd5b505af11580156112f8573d6000803e3d6000fd5b505050506113068787611790565b979650505050505050565b6008546001146113335760405162461bcd60e51b81526004016108989061333e565b60006008819055338152600d602052604090208054611352575061144a565b8054600019015b6000600c600084848154811061136b57fe5b90600052602060002001548152602001908152602001600020604051806080016040529081600082015481526020016001820154815260200160028201548152602001600382015481525050905060008383815481106113c757fe5b90600052602060002001541180156113e3575060008160400151115b80156113ef5750805115155b80156113ff575060008160200151115b801561140e5750428160200151105b156114325761143283838154811061142257fe5b9060005260206000200154611fa0565b8161143d5750611447565b5060001901611359565b50505b6001600855565b6003546001600160a01b031681565b6009818154811061147057600080fd5b600091825260209091206003909102018054600182015460029092015490925083565b60008281526010602052604081206114ab90836126b2565b9392505050565b60008281526010602052604081206114ab90836126be565b60008060006114da6009856125ba565b91509150816114ee57600092505050610829565b600061150a6107be836040015187611bd190919063ffffffff16565b826020015102905061153b670de0b6b3a7640000828460000151136115305760006107fa565b835183900390611d69565b95945050505050565b61154d3361082e565b6115885760405162461bcd60e51b81526004018080602001828103825260228152602001806134326022913960400191505060405180910390fd5b600255565b6000908152600c60205260409020805460018201546002830154600390930154919390929190565b600081116115d55760405162461bcd60e51b8152600401610898906132d7565b6006546115e29082612279565b600655336000908152600b60209081526040808320858452825280832081516080810183528154815260018083015494820194909452600282015492810192909252600301546060820152905490919061164c906116419085906126d3565b602084015190612279565b600154909150611666906116608382611d69565b906126d3565b9050600254826000015182031061168f5760405162461bcd60e51b815260040161089890613141565b428260200151116116b25760405162461bcd60e51b815260040161089890613232565b808260200151106116d55760405162461bcd60e51b815260040161089890613269565b60008260400151116116f95760405162461bcd60e51b815260040161089890613111565b61170633856000846122d3565b7fb8596b0e78133666b86648f60233cc2d078144d06df7874ea9f612a3ccc3e2fb338583604051610ae593929190612f98565b600054600160a81b900460ff1681565b600081565b600d602052816000526040600020818154811061176a57600080fd5b90600052602060002001600091509150505481565b60045481565b6109373383836109e4565b60008083116117b15760405162461bcd60e51b8152600401610898906131fb565b600082116117d15760405162461bcd60e51b8152600401610898906132d7565b6006546117de9083612279565b6006556007546117ee9084612279565b60075560015460009061180d906118069085906126d3565b4290612279565b600154909150611821906116608382611d69565b905060025442820311156118475760405162461bcd60e51b815260040161089890613141565b600454611855906001612279565b60048190559150611868338386846122d3565b336000818152600d6020908152604080832080546001810182559084529190922001849055517f71fc552ee832a9004ea0bdb07cb6dd9d641eb2cb53b3cfe88c8fdcff886734a0916118bf91859088908690612fb9565b60405180910390a15092915050565b60065481565b6000818152600a6020526040812054806118f2576000915050610829565b6000838152600a602052604081208054600019840190811061191057fe5b90600052602060002090600302016040518060600160405290816000820154815260200160018201548152602001600282015481525050905060006119686107c36107be846040015142611bd190919063ffffffff16565b905061153b670de0b6b3a7640000828460000151136107ee5760006107fa565b6001600160a01b0381166000908152600d60209081526040918290208054835181840281018401909452808452606093928301828280156119e857602002820191906000526020600020905b8154815260200190600101908083116119d4575b50505050509050919050565b6060600a6000838152602001908152602001600020805480602002602001604051908101604052809291908181526020016000905b82821015611a795783829060005260206000209060030201604051806060016040529081600082015481526020016001820154815260200160028201548152505081526020019060010190611a29565b505050509050919050565b600f6020526000908152604090205460ff1681565b60008181526010602052604081206108489061272c565b60075481565b7ff0887ba65ee2024ea881d91b74c2450ef19e1557f03bed3ea9f16b037cbe2dc981565b600082815260106020526040902060020154611af89061056a6121a3565b6109925760405162461bcd60e51b81526004018080602001828103825260308152602001806134756030913960400191505060405180910390fd5b6003546040516370a0823160e01b81526000916001600160a01b0316906370a0823190611b64903090600401612f06565b60206040518083038186803b158015611b7c57600080fd5b505afa158015611b90573d6000803e3d6000fd5b505050506040513d601f19601f82011682018060405250810190611bb49190612e97565b905090565b600e6020526000908152604090205481565b60015481565b60006114ab83836040518060400160405280601e81526020017f536166654d6174683a207375627472616374696f6e206f766572666c6f770000815250612737565b6000600160ff1b8210611c575760405162461bcd60e51b815260040180806020018281038252602881526020018061350d6028913960400191505060405180910390fd5b5090565b600082611c6a57506000610848565b82600019148015611c7e5750600160ff1b82145b15611cba5760405162461bcd60e51b81526004018080602001828103825260278152602001806134e66027913960400191505060405180910390fd5b82820282848281611cc757fe5b05146114ab5760405162461bcd60e51b81526004018080602001828103825260278152602001806134e66027913960400191505060405180910390fd5b6000818303818312801590611d195750838113155b80611d2e5750600083128015611d2e57508381135b6114ab5760405162461bcd60e51b81526004018080602001828103825260248152602001806135356024913960400191505060405180910390fd5b60006114ab83836040518060400160405280601a81526020017f536166654d6174683a206469766973696f6e206279207a65726f0000000000008152506127ce565b611db3612d66565b600954429015611e0d57600980546000198101908110611dcf57fe5b906000526020600020906003020160405180606001604052908160008201548152602001600182015481526020016002820154815250509150611e2d565b604051806060016040528060008152602001600081526020018281525091505b6001546040830151600091611e46916116609082611d69565b90505b818114611f9b57611e6e611e686001548361227990919063ffffffff16565b83612833565b6000818152600e6020526040808220549086015192935091611e95906107be908590611bd1565b9050611eb9611eb1828760200151611c5b90919063ffffffff16565b865190611d04565b85526020850151611eca9083612849565b60208601528451600012611edf576000611ee2565b84515b85526020850151600012611ef7576000611efd565b84602001515b60208601908152604086018481526009805460018101825560009190915287517f6e1540171b6c0c960b71a7020d9f60077f6af931a8bbf590da0223dacf75c7af60039092029182015591517f6e1540171b6c0c960b71a7020d9f60077f6af931a8bbf590da0223dacf75c7b0830155517f6e1540171b6c0c960b71a7020d9f60077f6af931a8bbf590da0223dacf75c7b19091015550611e499050565b505090565b336000908152600b60209081526040808320848452825291829020825160808101845281548082526001830154938201939093526002820154938101939093526003015460608301526120055760405162461bcd60e51b815260040161089890613370565b428160200151106120285760405162461bcd60e51b81526004016108989061330e565b600081604001511161204c5760405162461bcd60e51b8152600401610898906131d0565b600060405180608001604052806000815260200160008152602001600081526020016000815250905061207f81836128ae565b604080830151336000818152600b60209081528482208883528152848220865181558187018051600180840191909155888801805160028086019190915560608b018051600396870155600c909652958990208a518155925191830191909155519381019390935590519181019190915554925163a9059cbb60e01b815291926001600160a01b03169163a9059cbb9161211d918590600401612f7f565b602060405180830381600087803b15801561213757600080fd5b505af115801561214b573d6000803e3d6000fd5b505050506040513d601f19601f8201168201806040525081019061216f9190612e13565b507ff1206247bdd5e2e0cfc00bea4cf05fb8dc479ebee686f9549043179cc7013b30338583604051610ae593929190612f98565b3390565b60008281526010602052604090206121bf9082612ab4565b15610937576121cc6121a3565b6001600160a01b0316816001600160a01b0316837f2f8788117e7eff1d82e926ec794901d17c78024a50270940304540a733656f0d60405160405180910390a45050565b60008281526010602052604090206122289082612ac9565b15610937576122356121a3565b6001600160a01b0316816001600160a01b0316837ff6391f5c32d9c69d2a47ea670b442974b53935d1edc7fd64eb21e047a839171b60405160405180910390a45050565b6000828201838110156114ab576040805162461bcd60e51b815260206004820152601b60248201527f536166654d6174683a206164646974696f6e206f766572666c6f770000000000604482015290519081900360640190fd5b6008546001146122f55760405162461bcd60e51b81526004016108989061333e565b600060088190556001600160a01b0385168152600b6020908152604080832086845282529182902082516080808201855282548252600183015482850190815260028401548387019081526003909401546060808501918252875193840188528451845291519583019590955292519481018590529251918301919091529161237e9085612279565b6040820152821561239157602081018390525b805161239b574281525b60608101516123c1576005544211156123b55760016123b8565b60025b60ff1660608201525b6123cb81836128ae565b6001600160a01b0386166000908152600b6020908152604080832088845282528083208451815582850180516001808401919091558387018051600280860191909155606089018051600396870155600c9097529487208851815592519183019190915551818401819055935191015554612457916107be91906107fa90670de0b6b3a76400006126d3565b9050600061247f6124786107be428660200151611bd190919063ffffffff16565b8390611c5b565b9050600060405180606001604052806124a5866060015185611c5b90919063ffffffff16565b81526020016124c1866060015186611c5b90919063ffffffff16565b81524260209182015260008a8152600a8252604080822080546001818101835591845292849020855160039485029091019081559385015190840155808401516002909301929092555490516323b872dd60e01b81529192506001600160a01b0316906323b872dd9061253c90339030908c90600401612f1a565b602060405180830381600087803b15801561255657600080fd5b505af115801561256a573d6000803e3d6000fd5b505050506040513d601f19601f8201168201806040525081019061258e9190612e13565b6125aa5760405162461bcd60e51b8152600401610898906132a0565b5050600160085550505050505050565b60006125c4612d66565b83546125d357600091506126ab565b83546000905b8082600101101561262d5760006125f560026107fa8585612279565b90508587828154811061260457fe5b9060005260206000209060030201600201541161262357809250612627565b8091505b506125d9565b8486838154811061263a57fe5b906000526020600020906003020160020154116126a457600186838154811061265f57fe5b906000526020600020906003020180604051806060016040529081600082015481526020016001820154815260200160028201548152505090509350935050506126ab565b6000935050505b9250929050565b60006114ab8383612ade565b60006114ab836001600160a01b038416612b42565b6000826126e257506000610848565b828202828482816126ef57fe5b04146114ab5760405162461bcd60e51b81526004018080602001828103825260218152602001806134a56021913960400191505060405180910390fd5b600061084882612b5a565b600081848411156127c65760405162461bcd60e51b81526004018080602001828103825283818151815260200191508051906020019080838360005b8381101561278b578181015183820152602001612773565b50505050905090810190601f1680156127b85780820380516001836020036101000a031916815260200191505b509250505060405180910390fd5b505050900390565b6000818361281d5760405162461bcd60e51b815260206004820181815283516024840152835190928392604490910191908501908083836000831561278b578181015183820152602001612773565b50600083858161282957fe5b0495945050505050565b600081831061284257816114ab565b5090919050565b600082820181831280159061285e5750838112155b80612873575060008312801561287357508381125b6114ab5760405162461bcd60e51b81526004018080602001828103825260218152602001806134546021913960400191505060405180910390fd5b604080516060808201835260008083526020808401829052838501829052845192830185528183528281018290529382015291840151429290831080156128f9575060008560400151115b156129595761292e6107be6002546107fa670de0b6b3a76400006116608a606001518b604001516126d390919063ffffffff16565b60208084019190915285015161294c906107c3906107be9086611bd1565b8252602085015160408301525b828460200151118015612970575060008460400151115b156129db576129a56107be6002546107fa670de0b6b3a764000061166089606001518a604001516126d390919063ffffffff16565b6020808301919091528401516129ce906129c3906107be9086611bd1565b602083015190611c5b565b8152602084015160408201525b60006129e5611dab565b82518451919250612a01916129f991611d04565b825190612849565b815260208083015190840151612a2691612a1b9190611d04565b602083015190612849565b60208201528051600012612a3b576000612a3e565b80515b81526020810151600012612a53576000612a59565b80602001515b6020820152600980548291906000198101908110612a7357fe5b9060005260206000209060030201600082015181600001556020820151816001015560408201518160020155905050612aac8383612b5e565b505050505050565b60006114ab836001600160a01b038416612c20565b60006114ab836001600160a01b038416612c6a565b81546000908210612b205760405162461bcd60e51b81526004018080602001828103825260228152602001806133e16022913960400191505060405180910390fd5b826000018281548110612b2f57fe5b9060005260206000200154905092915050565b60009081526001919091016020526040902054151590565b5490565b6040808301516000908152600e602052818120548383018051835292909120549151909190421015612bd4576020830151612b9a908290612849565b9050836040015183604001511415612bbf576020840151612bbc908290611d04565b90505b6040808401516000908152600e602052208190555b428460400151118015612bee575082604001518460400151115b15612c1a576020840151612c03908390611d04565b6040808601516000908152600e6020522081905591505b50505050565b6000612c2c8383612b42565b612c6257508154600181810184556000848152602080822090930184905584548482528286019093526040902091909155610848565b506000610848565b60008181526001830160205260408120548015612d265783546000198083019190810190600090879083908110612c9d57fe5b9060005260206000200154905080876000018481548110612cba57fe5b600091825260208083209091019290925582815260018981019092526040902090840190558654879080612cea57fe5b60019003818190600052602060002001600090559055866001016000878152602001908152602001600020600090556001945050505050610848565b6000915050610848565b6040518060c001604052806000815260200160008152602001600081526020016000815260200160008152602001600081525090565b60405180606001604052806000815260200160008152602001600081525090565b80356001600160a01b038116811461082957600080fd5b600060208284031215612daf578081fd5b6114ab82612d87565b60008060408385031215612dca578081fd5b612dd383612d87565b946020939093013593505050565b600080600060608486031215612df5578081fd5b612dfe84612d87565b95602085013595506040909401359392505050565b600060208284031215612e24578081fd5b815180151581146114ab578182fd5b600060208284031215612e44578081fd5b5035919050565b60008060408385031215612e5d578182fd5b82359150612e6d60208401612d87565b90509250929050565b60008060408385031215612e88578182fd5b50508035926020909101359150565b600060208284031215612ea8578081fd5b5051919050565b60008060008060008060c08789031215612ec7578182fd5b863595506020870135945060408701359350606087013560ff81168114612eec578283fd5b9598949750929560808101359460a0909101359350915050565b6001600160a01b0391909116815260200190565b6001600160a01b039384168152919092166020820152604081019190915260600190565b6001600160a01b0397881681529590961660208601526040850193909352606084019190915260ff16608083015260a082015260c081019190915260e00190565b6001600160a01b03929092168252602082015260400190565b6001600160a01b039390931683526020830191909152604082015260600190565b6001600160a01b0394909416845260208401929092526040830152606082015260800190565b602080825282518282018190526000919060409081850190868401855b8281101561304a5781518051855286810151878601528581015186860152606080820151908601526080808201519086015260a0908101519085015260c09093019290850190600101612ffc565b5091979650505050505050565b602080825282518282018190526000919060409081850190868401855b8281101561304a5781518051855286810151878601528501518585015260609093019290850190600101613074565b6020808252825182820181905260009190848201906040850190845b818110156130db578351835292840192918401916001016130bf565b50909695505050505050565b901515815260200190565b90815260200190565b9283526020830191909152604082015260600190565b6020808252601690820152754e6f206578697374696e67206c6f636b656420544f5360501b604082015260600190565b6020808252601a908201527f4d617820756e6c6f636b2074696d652069732033207965617273000000000000604082015260600190565b6020808252600f908201526e5f6c6f636b4964206973207a65726f60881b604082015260600190565b602080825260159082015274131bd8dac81d1a5b59481a5cc8199a5b9a5cda1959605a1b604082015260600190565b60208082526011908201527020b63932b0b23c903bb4ba34323930bbb760791b604082015260600190565b6020808252601f908201527f56616c7565206c6f636b65642073686f756c64206265206e6f6e2d7a65726f00604082015260600190565b6020808252601a908201527f4c6f636b2074696d6520616c72656164792066696e6973686564000000000000604082015260600190565b6020808252601d908201527f4e6577206c6f636b2074696d65206d7573742062652067726561746572000000604082015260600190565b6020808252601a908201527f4c6f636b544f533a206661696c207472616e7366657246726f6d000000000000604082015260600190565b6020808252601e908201527f556e6c6f636b20706572696f64206c657373207468616e2061207765656b0000604082015260600190565b602080825260169082015275131bd8dac81d1a5b59481b9bdd08199a5b9a5cda195960521b604082015260600190565b6020808252601890820152774c6f636b496420697320616c726561647920696e2075736560401b604082015260600190565b602080825260139082015272131bd8dac8191bd95cc81b9bdd08195e1a5cdd606a1b604082015260600190565b958652602086019490945260408501929092526060840152608083015260a082015260c00190565b9384526020840192909252604083015260608201526080019056fe456e756d657261626c655365743a20696e646578206f7574206f6620626f756e6473416363657373436f6e74726f6c3a2073656e646572206d75737420626520616e2061646d696e20746f206772616e7441636365737369626c653a2043616c6c6572206973206e6f7420616e2061646d696e5369676e6564536166654d6174683a206164646974696f6e206f766572666c6f77416363657373436f6e74726f6c3a2073656e646572206d75737420626520616e2061646d696e20746f207265766f6b65536166654d6174683a206d756c7469706c69636174696f6e206f766572666c6f77df8b4c520ffe197c5343c6f5aec59570151ef9a492f2c624fd45ddde6135ec425369676e6564536166654d6174683a206d756c7469706c69636174696f6e206f766572666c6f7753616665436173743a2076616c756520646f65736e27742066697420696e20616e20696e743235365369676e6564536166654d6174683a207375627472616374696f6e206f766572666c6f77416363657373436f6e74726f6c3a2063616e206f6e6c792072656e6f756e636520726f6c657320666f722073656c66a26469706673582212207d142af6f88229b3366c4acc064cb1765b7a126ae8eeec76dd0e7cf9bf4c283864736f6c63430007060033",
  "linkReferences": {},
  "deployedLinkReferences": {}
}