{
  "_format": "hh-sol-artifact-1",
  "contractName": "LockTOS",
  "sourceName": "contracts/stake/LockTOS.sol",
  "abi": [
    {
      "anonymous": false,
      "inputs": [
        {
          "indexed": false,
          "internalType": "address",
          "name": "account",
          "type": "address"
        },
        {
          "indexed": false,
          "internalType": "uint256",
          "name": "lockId",
          "type": "uint256"
        },
        {
          "indexed": false,
          "internalType": "uint256",
          "name": "value",
          "type": "uint256"
        }
      ],
      "name": "LockAmountIncreased",
      "type": "event"
    },
    {
      "anonymous": false,
      "inputs": [
        {
          "indexed": false,
          "internalType": "address",
          "name": "account",
          "type": "address"
        },
        {
          "indexed": false,
          "internalType": "uint256",
          "name": "lockId",
          "type": "uint256"
        },
        {
          "indexed": false,
          "internalType": "uint256",
          "name": "value",
          "type": "uint256"
        },
        {
          "indexed": false,
          "internalType": "uint256",
          "name": "unlockTime",
          "type": "uint256"
        }
      ],
      "name": "LockCreated",
      "type": "event"
    },
    {
      "anonymous": false,
      "inputs": [
        {
          "indexed": false,
          "internalType": "address",
          "name": "account",
          "type": "address"
        },
        {
          "indexed": false,
          "internalType": "uint256",
          "name": "lockId",
          "type": "uint256"
        },
        {
          "indexed": false,
          "internalType": "uint256",
          "name": "value",
          "type": "uint256"
        }
      ],
      "name": "LockDeposited",
      "type": "event"
    },
    {
      "anonymous": false,
      "inputs": [
        {
          "indexed": false,
          "internalType": "address",
          "name": "account",
          "type": "address"
        },
        {
          "indexed": false,
          "internalType": "uint256",
          "name": "lockId",
          "type": "uint256"
        },
        {
          "indexed": false,
          "internalType": "uint256",
          "name": "unlockTime",
          "type": "uint256"
        }
      ],
      "name": "LockUnlockTimeIncreased",
      "type": "event"
    },
    {
      "anonymous": false,
      "inputs": [
        {
          "indexed": false,
          "internalType": "address",
          "name": "account",
          "type": "address"
        },
        {
          "indexed": false,
          "internalType": "uint256",
          "name": "lockId",
          "type": "uint256"
        },
        {
          "indexed": false,
          "internalType": "uint256",
          "name": "value",
          "type": "uint256"
        }
      ],
      "name": "LockWithdrawn",
      "type": "event"
    },
    {
      "anonymous": false,
      "inputs": [
        {
          "indexed": true,
          "internalType": "bytes32",
          "name": "role",
          "type": "bytes32"
        },
        {
          "indexed": true,
          "internalType": "bytes32",
          "name": "previousAdminRole",
          "type": "bytes32"
        },
        {
          "indexed": true,
          "internalType": "bytes32",
          "name": "newAdminRole",
          "type": "bytes32"
        }
      ],
      "name": "RoleAdminChanged",
      "type": "event"
    },
    {
      "anonymous": false,
      "inputs": [
        {
          "indexed": true,
          "internalType": "bytes32",
          "name": "role",
          "type": "bytes32"
        },
        {
          "indexed": true,
          "internalType": "address",
          "name": "account",
          "type": "address"
        },
        {
          "indexed": true,
          "internalType": "address",
          "name": "sender",
          "type": "address"
        }
      ],
      "name": "RoleGranted",
      "type": "event"
    },
    {
      "anonymous": false,
      "inputs": [
        {
          "indexed": true,
          "internalType": "bytes32",
          "name": "role",
          "type": "bytes32"
        },
        {
          "indexed": true,
          "internalType": "address",
          "name": "account",
          "type": "address"
        },
        {
          "indexed": true,
          "internalType": "address",
          "name": "sender",
          "type": "address"
        }
      ],
      "name": "RoleRevoked",
      "type": "event"
    },
    {
      "inputs": [],
      "name": "ADMIN_ROLE",
      "outputs": [
        {
          "internalType": "bytes32",
          "name": "",
          "type": "bytes32"
        }
      ],
      "stateMutability": "view",
      "type": "function"
    },
    {
      "inputs": [],
      "name": "BURNER_ROLE",
      "outputs": [
        {
          "internalType": "bytes32",
          "name": "",
          "type": "bytes32"
        }
      ],
      "stateMutability": "view",
      "type": "function"
    },
    {
      "inputs": [],
      "name": "DEFAULT_ADMIN_ROLE",
      "outputs": [
        {
          "internalType": "bytes32",
          "name": "",
          "type": "bytes32"
        }
      ],
      "stateMutability": "view",
      "type": "function"
    },
    {
      "inputs": [],
      "name": "MAXTIME",
      "outputs": [
        {
          "internalType": "uint256",
          "name": "",
          "type": "uint256"
        }
      ],
      "stateMutability": "view",
      "type": "function"
    },
    {
      "inputs": [],
      "name": "MINTER_ROLE",
      "outputs": [
        {
          "internalType": "bytes32",
          "name": "",
          "type": "bytes32"
        }
      ],
      "stateMutability": "view",
      "type": "function"
    },
    {
      "inputs": [],
      "name": "MULTIPLIER",
      "outputs": [
        {
          "internalType": "uint256",
          "name": "",
          "type": "uint256"
        }
      ],
      "stateMutability": "view",
      "type": "function"
    },
    {
      "inputs": [],
      "name": "ONE_WEEK",
      "outputs": [
        {
          "internalType": "uint256",
          "name": "",
          "type": "uint256"
        }
      ],
      "stateMutability": "view",
      "type": "function"
    },
    {
      "inputs": [
        {
          "internalType": "address",
          "name": "account",
          "type": "address"
        }
      ],
      "name": "addAdmin",
      "outputs": [],
      "stateMutability": "nonpayable",
      "type": "function"
    },
    {
      "inputs": [
        {
          "internalType": "uint256",
          "name": "",
          "type": "uint256"
        }
      ],
      "name": "allLocks",
      "outputs": [
        {
          "internalType": "uint256",
          "name": "start",
          "type": "uint256"
        },
        {
          "internalType": "uint256",
          "name": "end",
          "type": "uint256"
        },
        {
          "internalType": "uint256",
          "name": "amount",
          "type": "uint256"
        },
        {
          "internalType": "int256",
          "name": "boostValue",
          "type": "int256"
        }
      ],
      "stateMutability": "view",
      "type": "function"
    },
    {
      "inputs": [
        {
          "internalType": "address",
          "name": "_addr",
          "type": "address"
        }
      ],
      "name": "balanceOf",
      "outputs": [
        {
          "internalType": "uint256",
          "name": "balance",
          "type": "uint256"
        }
      ],
      "stateMutability": "view",
      "type": "function"
    },
    {
      "inputs": [
        {
          "internalType": "address",
          "name": "_addr",
          "type": "address"
        },
        {
          "internalType": "uint256",
          "name": "_timestamp",
          "type": "uint256"
        }
      ],
      "name": "balanceOfAt",
      "outputs": [
        {
          "internalType": "uint256",
          "name": "balance",
          "type": "uint256"
        }
      ],
      "stateMutability": "view",
      "type": "function"
    },
    {
      "inputs": [
        {
          "internalType": "uint256",
          "name": "_lockId",
          "type": "uint256"
        }
      ],
      "name": "balanceOfLock",
      "outputs": [
        {
          "internalType": "uint256",
          "name": "",
          "type": "uint256"
        }
      ],
      "stateMutability": "view",
      "type": "function"
    },
    {
      "inputs": [
        {
          "internalType": "uint256",
          "name": "_lockId",
          "type": "uint256"
        },
        {
          "internalType": "uint256",
          "name": "_timestamp",
          "type": "uint256"
        }
      ],
      "name": "balanceOfLockAt",
      "outputs": [
        {
          "internalType": "uint256",
          "name": "",
          "type": "uint256"
        }
      ],
      "stateMutability": "view",
      "type": "function"
    },
    {
      "inputs": [
        {
          "internalType": "uint256",
          "name": "_value",
          "type": "uint256"
        },
        {
          "internalType": "uint256",
          "name": "_unlockWeeks",
          "type": "uint256"
        }
      ],
      "name": "createLock",
      "outputs": [
        {
          "internalType": "uint256",
          "name": "lockId",
          "type": "uint256"
        }
      ],
      "stateMutability": "nonpayable",
      "type": "function"
    },
    {
      "inputs": [
        {
          "internalType": "uint256",
          "name": "_value",
          "type": "uint256"
        },
        {
          "internalType": "uint256",
          "name": "_unlockWeeks",
          "type": "uint256"
        },
        {
          "internalType": "uint256",
          "name": "_deadline",
          "type": "uint256"
        },
        {
          "internalType": "uint8",
          "name": "_v",
          "type": "uint8"
        },
        {
          "internalType": "bytes32",
          "name": "_r",
          "type": "bytes32"
        },
        {
          "internalType": "bytes32",
          "name": "_s",
          "type": "bytes32"
        }
      ],
      "name": "createLockWithPermit",
      "outputs": [
        {
          "internalType": "uint256",
          "name": "lockId",
          "type": "uint256"
        }
      ],
      "stateMutability": "nonpayable",
      "type": "function"
    },
    {
      "inputs": [
        {
          "internalType": "address",
          "name": "_addr",
          "type": "address"
        },
        {
          "internalType": "uint256",
          "name": "_lockId",
          "type": "uint256"
        },
        {
          "internalType": "uint256",
          "name": "_value",
          "type": "uint256"
        }
      ],
      "name": "depositFor",
      "outputs": [],
      "stateMutability": "nonpayable",
      "type": "function"
    },
    {
      "inputs": [
        {
          "internalType": "uint256",
          "name": "_lockId",
          "type": "uint256"
        },
        {
          "internalType": "uint256",
          "name": "_start",
          "type": "uint256"
        },
        {
          "internalType": "uint256",
          "name": "_end",
          "type": "uint256"
        },
        {
          "internalType": "uint256",
          "name": "_value",
          "type": "uint256"
        },
        {
          "internalType": "int256",
          "name": "_boostValue",
          "type": "int256"
        }
      ],
      "name": "editLock",
      "outputs": [],
      "stateMutability": "nonpayable",
      "type": "function"
    },
    {
      "inputs": [
        {
          "internalType": "bytes32",
          "name": "role",
          "type": "bytes32"
        }
      ],
      "name": "getRoleAdmin",
      "outputs": [
        {
          "internalType": "bytes32",
          "name": "",
          "type": "bytes32"
        }
      ],
      "stateMutability": "view",
      "type": "function"
    },
    {
      "inputs": [
        {
          "internalType": "bytes32",
          "name": "role",
          "type": "bytes32"
        },
        {
          "internalType": "uint256",
          "name": "index",
          "type": "uint256"
        }
      ],
      "name": "getRoleMember",
      "outputs": [
        {
          "internalType": "address",
          "name": "",
          "type": "address"
        }
      ],
      "stateMutability": "view",
      "type": "function"
    },
    {
      "inputs": [
        {
          "internalType": "bytes32",
          "name": "role",
          "type": "bytes32"
        }
      ],
      "name": "getRoleMemberCount",
      "outputs": [
        {
          "internalType": "uint256",
          "name": "",
          "type": "uint256"
        }
      ],
      "stateMutability": "view",
      "type": "function"
    },
    {
      "inputs": [],
      "name": "globalCheckpoint",
      "outputs": [],
      "stateMutability": "nonpayable",
      "type": "function"
    },
    {
      "inputs": [
        {
          "internalType": "bytes32",
          "name": "role",
          "type": "bytes32"
        },
        {
          "internalType": "address",
          "name": "account",
          "type": "address"
        }
      ],
      "name": "grantRole",
      "outputs": [],
      "stateMutability": "nonpayable",
      "type": "function"
    },
    {
      "inputs": [
        {
          "internalType": "bytes32",
          "name": "role",
          "type": "bytes32"
        },
        {
          "internalType": "address",
          "name": "account",
          "type": "address"
        }
      ],
      "name": "hasRole",
      "outputs": [
        {
          "internalType": "bool",
          "name": "",
          "type": "bool"
        }
      ],
      "stateMutability": "view",
      "type": "function"
    },
    {
      "inputs": [
        {
          "internalType": "uint256",
          "name": "",
          "type": "uint256"
        }
      ],
      "name": "inUse",
      "outputs": [
        {
          "internalType": "bool",
          "name": "",
          "type": "bool"
        }
      ],
      "stateMutability": "view",
      "type": "function"
    },
    {
      "inputs": [
        {
          "internalType": "uint256",
          "name": "_lockId",
          "type": "uint256"
        },
        {
          "internalType": "uint256",
          "name": "_value",
          "type": "uint256"
        }
      ],
      "name": "increaseAmount",
      "outputs": [],
      "stateMutability": "nonpayable",
      "type": "function"
    },
    {
      "inputs": [
        {
          "internalType": "uint256",
          "name": "_lockId",
          "type": "uint256"
        },
        {
          "internalType": "uint256",
          "name": "_unlockWeeks",
          "type": "uint256"
        }
      ],
      "name": "increaseUnlockTime",
      "outputs": [],
      "stateMutability": "nonpayable",
      "type": "function"
    },
    {
      "inputs": [
        {
          "internalType": "address",
          "name": "account",
          "type": "address"
        }
      ],
      "name": "isAdmin",
      "outputs": [
        {
          "internalType": "bool",
          "name": "",
          "type": "bool"
        }
      ],
      "stateMutability": "view",
      "type": "function"
    },
    {
      "inputs": [],
      "name": "lockIdCounter",
      "outputs": [
        {
          "internalType": "uint256",
          "name": "",
          "type": "uint256"
        }
      ],
      "stateMutability": "view",
      "type": "function"
    },
    {
      "inputs": [
        {
          "internalType": "uint256",
          "name": "",
          "type": "uint256"
        },
        {
          "internalType": "uint256",
          "name": "",
          "type": "uint256"
        }
      ],
      "name": "lockPointHistory",
      "outputs": [
        {
          "internalType": "int256",
          "name": "bias",
          "type": "int256"
        },
        {
          "internalType": "int256",
          "name": "slope",
          "type": "int256"
        },
        {
          "internalType": "uint256",
          "name": "timestamp",
          "type": "uint256"
        }
      ],
      "stateMutability": "view",
      "type": "function"
    },
    {
      "inputs": [
        {
          "internalType": "address",
          "name": "",
          "type": "address"
        },
        {
          "internalType": "uint256",
          "name": "",
          "type": "uint256"
        }
      ],
      "name": "lockedBalances",
      "outputs": [
        {
          "internalType": "uint256",
          "name": "start",
          "type": "uint256"
        },
        {
          "internalType": "uint256",
          "name": "end",
          "type": "uint256"
        },
        {
          "internalType": "uint256",
          "name": "amount",
          "type": "uint256"
        },
        {
          "internalType": "int256",
          "name": "boostValue",
          "type": "int256"
        }
      ],
      "stateMutability": "view",
      "type": "function"
    },
    {
      "inputs": [
        {
          "internalType": "uint256",
          "name": "_lockId",
          "type": "uint256"
        }
      ],
      "name": "locksInfo",
      "outputs": [
        {
          "internalType": "uint256",
          "name": "",
          "type": "uint256"
        },
        {
          "internalType": "uint256",
          "name": "",
          "type": "uint256"
        },
        {
          "internalType": "uint256",
          "name": "",
          "type": "uint256"
        },
        {
          "internalType": "int256",
          "name": "",
          "type": "int256"
        }
      ],
      "stateMutability": "view",
      "type": "function"
    },
    {
      "inputs": [
        {
          "internalType": "address",
          "name": "_addr",
          "type": "address"
        }
      ],
      "name": "locksOf",
      "outputs": [
        {
          "internalType": "uint256[]",
          "name": "",
          "type": "uint256[]"
        }
      ],
      "stateMutability": "view",
      "type": "function"
    },
    {
      "inputs": [],
      "name": "migratedL2",
      "outputs": [
        {
          "internalType": "bool",
          "name": "",
          "type": "bool"
        }
      ],
      "stateMutability": "view",
      "type": "function"
    },
    {
      "inputs": [],
      "name": "pauseProxy",
      "outputs": [
        {
          "internalType": "bool",
          "name": "",
          "type": "bool"
        }
      ],
      "stateMutability": "view",
      "type": "function"
    },
    {
      "inputs": [],
      "name": "phase3StartTime",
      "outputs": [
        {
          "internalType": "uint256",
          "name": "",
          "type": "uint256"
        }
      ],
      "stateMutability": "view",
      "type": "function"
    },
    {
      "inputs": [
        {
          "internalType": "uint256",
          "name": "",
          "type": "uint256"
        }
      ],
      "name": "pointHistory",
      "outputs": [
        {
          "internalType": "int256",
          "name": "bias",
          "type": "int256"
        },
        {
          "internalType": "int256",
          "name": "slope",
          "type": "int256"
        },
        {
          "internalType": "uint256",
          "name": "timestamp",
          "type": "uint256"
        }
      ],
      "stateMutability": "view",
      "type": "function"
    },
    {
      "inputs": [
        {
          "internalType": "uint256",
          "name": "_lockId",
          "type": "uint256"
        }
      ],
      "name": "pointHistoryOf",
      "outputs": [
        {
          "components": [
            {
              "internalType": "int256",
              "name": "bias",
              "type": "int256"
            },
            {
              "internalType": "int256",
              "name": "slope",
              "type": "int256"
            },
            {
              "internalType": "uint256",
              "name": "timestamp",
              "type": "uint256"
            }
          ],
          "internalType": "struct LibLockTOS.Point[]",
          "name": "",
          "type": "tuple[]"
        }
      ],
      "stateMutability": "view",
      "type": "function"
    },
    {
      "inputs": [
        {
          "internalType": "address",
          "name": "account",
          "type": "address"
        }
      ],
      "name": "removeAdmin",
      "outputs": [],
      "stateMutability": "nonpayable",
      "type": "function"
    },
    {
      "inputs": [
        {
          "internalType": "bytes32",
          "name": "role",
          "type": "bytes32"
        },
        {
          "internalType": "address",
          "name": "account",
          "type": "address"
        }
      ],
      "name": "renounceRole",
      "outputs": [],
      "stateMutability": "nonpayable",
      "type": "function"
    },
    {
      "inputs": [
        {
          "internalType": "bytes32",
          "name": "role",
          "type": "bytes32"
        },
        {
          "internalType": "address",
          "name": "account",
          "type": "address"
        }
      ],
      "name": "revokeRole",
      "outputs": [],
      "stateMutability": "nonpayable",
      "type": "function"
    },
    {
      "inputs": [
        {
          "internalType": "uint256",
          "name": "_phase3StartTime",
          "type": "uint256"
        }
      ],
      "name": "setPhase3StartTime",
      "outputs": [],
      "stateMutability": "nonpayable",
      "type": "function"
    },
    {
      "inputs": [
        {
          "internalType": "uint256",
          "name": "",
          "type": "uint256"
        }
      ],
      "name": "slopeChanges",
      "outputs": [
        {
          "internalType": "int256",
          "name": "",
          "type": "int256"
        }
      ],
      "stateMutability": "view",
      "type": "function"
    },
    {
      "inputs": [],
      "name": "stakeRegistry",
      "outputs": [
        {
          "internalType": "address",
          "name": "",
          "type": "address"
        }
      ],
      "stateMutability": "view",
      "type": "function"
    },
    {
      "inputs": [],
      "name": "tos",
      "outputs": [
        {
          "internalType": "address",
          "name": "",
          "type": "address"
        }
      ],
      "stateMutability": "view",
      "type": "function"
    },
    {
      "inputs": [],
      "name": "totalSupply",
      "outputs": [
        {
          "internalType": "uint256",
          "name": "",
          "type": "uint256"
        }
      ],
      "stateMutability": "view",
      "type": "function"
    },
    {
      "inputs": [
        {
          "internalType": "uint256",
          "name": "_timestamp",
          "type": "uint256"
        }
      ],
      "name": "totalSupplyAt",
      "outputs": [
        {
          "internalType": "uint256",
          "name": "",
          "type": "uint256"
        }
      ],
      "stateMutability": "view",
      "type": "function"
    },
    {
      "inputs": [
        {
          "internalType": "address",
          "name": "newAdmin",
          "type": "address"
        }
      ],
      "name": "transferAdmin",
      "outputs": [],
      "stateMutability": "nonpayable",
      "type": "function"
    },
    {
      "inputs": [
        {
          "internalType": "address",
          "name": "",
          "type": "address"
        },
        {
          "internalType": "uint256",
          "name": "",
          "type": "uint256"
        }
      ],
      "name": "userLocks",
      "outputs": [
        {
          "internalType": "uint256",
          "name": "",
          "type": "uint256"
        }
      ],
      "stateMutability": "view",
      "type": "function"
    },
    {
      "inputs": [
        {
          "internalType": "uint256",
          "name": "_lockId",
          "type": "uint256"
        }
      ],
      "name": "withdraw",
      "outputs": [],
      "stateMutability": "nonpayable",
      "type": "function"
    },
    {
      "inputs": [],
      "name": "withdrawAll",
      "outputs": [],
      "stateMutability": "nonpayable",
      "type": "function"
    }
  ],
  "bytecode": "0x60806040526001600255600160045534801561001a57600080fd5b50612fef8061002a6000396000f3fe608060405234801561001057600080fd5b50600436106102b65760003560e01c80638372cd7e11610172578063aa33fedb116100d9578063c5dc1e5f11610092578063c5dc1e5f146105b0578063c79acdda146105d0578063ca15c873146105e3578063d5391393146105f6578063d547741f146105fe578063ee00ef3a14610611578063f52a36f714610619576102b6565b8063aa33fedb1461053c578063afae883e1461054f578063b2383e5514610557578063b52c05fe1461056a578063b94419e01461057d578063c3f9ab5814610590576102b6565b806391d148541161012b57806391d14854146104e0578063981b24d0146104f35780639ce56305146105065780639d507b8b14610519578063a1f5f50e1461052c578063a217fddf14610534576102b6565b80638372cd7e1461048f578063853828b6146104a257806389f395de146104aa5780638ad4c447146104b25780638e6f6b77146104c55780639010d07c146104cd576102b6565b80634cf5fbf511610221578063642cf649116101da578063642cf649146104135780636830483514610426578063688a58501461043b578063704802751461044e57806370a082311461046157806375829def1461047457806375b238fc14610487576102b6565b80634cf5fbf51461039c5780634ee2cd7e146103af5780635d16a6f9146103c2578063622fb42d146103e557806363a8fd89146103f857806363d5a3d914610400576102b6565b8063282c51f311610273578063282c51f3146103315780632e1a7d4d146103395780632f2ff15d1461034c57806336568abe1461035f578063367b7b23146103725780633dce771814610394576102b6565b8063059f8b16146102bb5780631785f53c146102d957806318160ddd146102ee5780631ac40e66146102f6578063248a9ca3146102fe57806324d7806c14610311575b600080fd5b6102c361062c565b6040516102d09190612bac565b60405180910390f35b6102ec6102e73660046128a1565b610638565b005b6102c3610697565b6102ec610761565b6102c361030c366004612936565b610769565b61032461031f3660046128a1565b610781565b6040516102d09190612ba1565b6102c36107a1565b6102ec610347366004612936565b6107c5565b6102ec61035a36600461294e565b6109e1565b6102ec61036d36600461294e565b610a48565b610385610380366004612979565b610aa9565b6040516102d093929190612bb5565b6102c3610aeb565b6102ec6103aa3660046128e4565b610af1565b6102c36103bd3660046128bb565b610bf0565b6103d56103d03660046128bb565b610cad565b6040516102d09493929190612df7565b6102ec6103f336600461299a565b610cdf565b610324610e7f565b6103d561040e366004612936565b610e88565b6102c3610421366004612979565b610eaf565b61042e610f28565b6040516102d09190612a2b565b6102ec610449366004612936565b610f3c565b6102ec61045c3660046128a1565b610f85565b6102c361046f3660046128a1565b610fe1565b6102ec6104823660046128a1565b611095565b6102c36111b6565b6102c361049d3660046129d4565b6111c8565b6102ec61124c565b61042e6112da565b6103856104c0366004612936565b6112e9565b6102c361131c565b61042e6104db366004612979565b611323565b6103246104ee36600461294e565b611342565b6102c3610501366004612936565b61135a565b6103d5610514366004612936565b6113d4565b6102ec610527366004612979565b6113fc565b61032461156d565b6102c361157d565b6102c361054a3660046128bb565b611582565b6102c36115b3565b6102ec610565366004612979565b6115b9565b6102c3610578366004612979565b6115c4565b6102c361058b366004612936565b6116d6565b6105a361059e3660046128a1565b61178a565b6040516102d09190612b5d565b6105c36105be366004612936565b6117f6565b6040516102d09190612b04565b6103246105de366004612936565b611886565b6102c36105f1366004612936565b61189b565b6102c36118b2565b6102ec61060c36600461294e565b6118d6565b6102c361192f565b6102c3610627366004612936565b611937565b670de0b6b3a764000081565b61064133610781565b61067c5760405162461bcd60e51b8152600401808060200182810382526022815260200180612e646022913960400191505060405180910390fd5b610694600080516020612ef883398151915282610a48565b50565b6005546000906106a95750600061075e565b600580546000919060001981019081106106bf57fe5b906000526020600020906003020160405180606001604052908160008201548152602001600182015481526020016002820154815250509050600061072761071c61071784604001514261194990919063ffffffff16565b61198b565b6020840151906119d3565b9050610759670de0b6b3a764000082846000015113610747576000610753565b83516107539084611a7c565b90611ae1565b925050505b90565b610694611b23565b6000818152600c60205260409020600201545b919050565b600061079b600080516020612ef883398151915283611342565b92915050565b7f9667e80708b6eeeb0053fa0cca44e028ff548e2a9f029edfeac87c118b08b7c881565b6004546001146107f05760405162461bcd60e51b81526004016107e790612d98565b60405180910390fd5b60006004819055338152600760209081526040808320848452825291829020825160808101845281548082526001830154938201939093526002820154938101939093526003015460608301526108595760405162461bcd60e51b81526004016107e790612dca565b4281602001511061087c5760405162461bcd60e51b81526004016107e790612d68565b60008160400151116108a05760405162461bcd60e51b81526004016107e790612c61565b60006040518060800160405280600081526020016000815260200160008152602001600081525090506108d38183611d1a565b336000818152600760209081526040808320878452825291829020845181559084015160018083019190915584830151600283015560608501516003909201919091555484820151915163a9059cbb60e01b81526001600160a01b039091169263a9059cbb9261094592600401612aa4565b602060405180830381600087803b15801561095f57600080fd5b505af1158015610973573d6000803e3d6000fd5b505050506040513d601f19601f820116820180604052508101906109979190612916565b507ff1206247bdd5e2e0cfc00bea4cf05fb8dc479ebee686f9549043179cc7013b30338484604001516040516109cf93929190612abd565b60405180910390a15050600160045550565b6000828152600c60205260409020600201546109ff906104ee611f14565b610a3a5760405162461bcd60e51b815260040180806020018281038252602f815260200180612e35602f913960400191505060405180910390fd5b610a448282611f18565b5050565b610a50611f14565b6001600160a01b0316816001600160a01b031614610a9f5760405162461bcd60e51b815260040180806020018281038252602f815260200180612f8b602f913960400191505060405180910390fd5b610a448282611f81565b60066020528160005260406000208181548110610ac557600080fd5b600091825260209091206003909102018054600182015460029092015490935090915083565b60035481565b60008111610b115760405162461bcd60e51b81526004016107e790612c8c565b6001600160a01b038316600090815260076020908152604080832085845282529182902082516080810184528154808252600183015493820193909352600282015493810193909352600301546060830152610b7f5760405162461bcd60e51b81526004016107e790612dca565b42816020015111610ba25760405162461bcd60e51b81526004016107e790612c32565b610baf8484846000611fea565b7fea44bc904f77b1be47cd5b840b00f19b7238f88d7524fa5a86629282bfe6bcc5338484604051610be293929190612abd565b60405180910390a150505050565b6001600160a01b038216600090815260096020908152604080832080548251818502810185019093528083528493830182828015610c4d57602002820191906000526020600020905b815481526020019060010190808311610c39575b50505050509050805160001415610c6857600091505061079b565b60005b8151811015610ca557610c9b610c94838381518110610c8657fe5b602002602001015186610eaf565b849061229f565b9250600101610c6b565b505092915050565b600760209081526000928352604080842090915290825290208054600182015460028301546003909301549192909184565b3360009081526007602090815260408083208884528252918290208251608080820185528254825260018301548285015260028301548286015260039092015460608083019190915284519283018552888352928201879052928101859052908101839052610d4e8183611d1a565b3360009081526007602090815260408083208a845282528083208451815582850180516001808401919091558387018051600280860191909155606089018051600396870155600890975294872088518155925191830191909155519281018390559251920191909155610dd890610717906305a39a809061075390670de0b6b3a76400006122f9565b90506000610e00610df961071742866020015161194990919063ffffffff16565b83906119d3565b905060006040518060600160405280838152602001610e2c8660600151866119d390919063ffffffff16565b81524260209182015260009b8c52600681526040808d20805460018181018355918f529d83902084516003909f02019d8e5591830151918d019190915501516002909a0199909955505050505050505050565b60005460ff1681565b60086020526000908152604090208054600182015460028301546003909301549192909184565b600082815260066020526040812081908190610ecb9085612352565b9150915081610edf5760009250505061079b565b6000610efe61071c61071784604001518861194990919063ffffffff16565b9050610f1e670de0b6b3a764000082846000015113610747576000610753565b9695505050505050565b60005461010090046001600160a01b031681565b610f4533610781565b610f805760405162461bcd60e51b8152600401808060200182810382526022815260200180612e646022913960400191505060405180910390fd5b600355565b610f8e33610781565b610fc95760405162461bcd60e51b8152600401808060200182810382526022815260200180612e646022913960400191505060405180910390fd5b610694600080516020612ef8833981519152826109e1565b6001600160a01b03811660009081526009602090815260408083208054825181850281018501909352808352849383018282801561103e57602002820191906000526020600020905b81548152602001906001019080831161102a575b5050505050905080516000141561105957600091505061077c565b60005b815181101561108e57611084610c9483838151811061107757fe5b60200260200101516116d6565b925060010161105c565b5050919050565b61109e33610781565b6110d95760405162461bcd60e51b8152600401808060200182810382526022815260200180612e646022913960400191505060405180910390fd5b6001600160a01b03811661112f576040805162461bcd60e51b815260206004820152601860248201527741636365737369626c653a207a65726f206164647265737360401b604482015290519081900360640190fd5b336001600160a01b0382161415611186576040805162461bcd60e51b815260206004820152601660248201527520b1b1b2b9b9b4b136329d1039b0b6b29030b236b4b760511b604482015290519081900360640190fd5b61119e600080516020612ef8833981519152826109e1565b610694600080516020612ef883398151915233610a48565b600080516020612ef883398151915281565b60015460405163d505accf60e01b81526000916001600160a01b03169063d505accf9061120590339030908c908b908b908b908b90600401612a63565b600060405180830381600087803b15801561121f57600080fd5b505af1158015611233573d6000803e3d6000fd5b5050505061124187876115c4565b979650505050505050565b336000908152600960209081526040808320805482518185028101850190935280835291929091908301828280156112a357602002820191906000526020600020905b81548152602001906001019080831161128f575b5050505050905060005b8151811015610a44576112d28282815181106112c557fe5b60200260200101516107c5565b6001016112ad565b6001546001600160a01b031681565b600581815481106112f957600080fd5b600091825260209091206003909102018054600182015460029092015490925083565b62093a8081565b6000828152600c6020526040812061133b908361244a565b9392505050565b6000828152600c6020526040812061133b9083612456565b600080600061136a600585612352565b915091508161137e5760009250505061077c565b600061139a61071783604001518761194990919063ffffffff16565b82602001510290506113cb670de0b6b3a7640000828460000151136113c0576000610753565b835183900390611ae1565b95945050505050565b6000908152600860205260409020805460018201546002830154600390930154919390929190565b6000811161141c5760405162461bcd60e51b81526004016107e790612d31565b33600090815260076020908152604080832085845282528083208151608081018352815481526001820154938101939093526002810154918301919091526003015460608201529061147f6114748462093a806122f9565b60208401519061229f565b905061149862093a806114928382611ae1565b906122f9565b90506305a39a8082600001518203106114c35760405162461bcd60e51b81526004016107e790612bfb565b428260200151116114e65760405162461bcd60e51b81526004016107e790612cc3565b808260200151106115095760405162461bcd60e51b81526004016107e790612cfa565b600082604001511161152d5760405162461bcd60e51b81526004016107e790612bcb565b61153a3385600084611fea565b7fb8596b0e78133666b86648f60233cc2d078144d06df7874ea9f612a3ccc3e2fb338583604051610be293929190612abd565b600054600160a81b900460ff1681565b600081565b6009602052816000526040600020818154811061159e57600080fd5b90600052602060002001600091509150505481565b60025481565b610a44338383610af1565b60008083116115e55760405162461bcd60e51b81526004016107e790612c8c565b600082116116055760405162461bcd60e51b81526004016107e790612d31565b506002805460018101909155600061162a6116238462093a806122f9565b429061229f565b905061163d62093a806114928382611ae1565b90506305a39a80428203106116645760405162461bcd60e51b81526004016107e790612bfb565b61167033838684611fea565b33600081815260096020908152604080832080546001810182559084529190922001849055517f71fc552ee832a9004ea0bdb07cb6dd9d641eb2cb53b3cfe88c8fdcff886734a0916116c791859088908690612ade565b60405180910390a15092915050565b600081815260066020526040812054806116f457600091505061077c565b60008381526006602052604081208054600019840190811061171257fe5b906000526020600020906003020160405180606001604052908160008201548152602001600182015481526020016002820154815250509050600061176a61071c61071784604001514261194990919063ffffffff16565b90506113cb670de0b6b3a764000082846000015113610747576000610753565b6001600160a01b0381166000908152600960209081526040918290208054835181840281018401909452808452606093928301828280156117ea57602002820191906000526020600020905b8154815260200190600101908083116117d6575b50505050509050919050565b606060066000838152602001908152602001600020805480602002602001604051908101604052809291908181526020016000905b8282101561187b578382906000526020600020906003020160405180606001604052908160008201548152602001600182015481526020016002820154815250508152602001906001019061182b565b505050509050919050565b600b6020526000908152604090205460ff1681565b6000818152600c6020526040812061079b9061246b565b7ff0887ba65ee2024ea881d91b74c2450ef19e1557f03bed3ea9f16b037cbe2dc981565b6000828152600c60205260409020600201546118f4906104ee611f14565b610a9f5760405162461bcd60e51b8152600401808060200182810382526030815260200180612ea76030913960400191505060405180910390fd5b6305a39a8081565b600a6020526000908152604090205481565b600061133b83836040518060400160405280601e81526020017f536166654d6174683a207375627472616374696f6e206f766572666c6f770000815250612476565b6000600160ff1b82106119cf5760405162461bcd60e51b8152600401808060200182810382526028815260200180612f3f6028913960400191505060405180910390fd5b5090565b6000826119e25750600061079b565b826000191480156119f65750600160ff1b82145b15611a325760405162461bcd60e51b8152600401808060200182810382526027815260200180612f186027913960400191505060405180910390fd5b82820282848281611a3f57fe5b051461133b5760405162461bcd60e51b8152600401808060200182810382526027815260200180612f186027913960400191505060405180910390fd5b6000818303818312801590611a915750838113155b80611aa65750600083128015611aa657508381135b61133b5760405162461bcd60e51b8152600401808060200182810382526024815260200180612f676024913960400191505060405180910390fd5b600061133b83836040518060400160405280601a81526020017f536166654d6174683a206469766973696f6e206279207a65726f00000000000081525061250d565b611b2b612869565b600554429015611b8557600580546000198101908110611b4757fe5b906000526020600020906003020160405180606001604052908160008201548152602001600182015481526020016002820154815250509150611ba5565b604051806060016040528060008152602001600081526020018281525091505b6000611bc862093a8061149262093a808660400151611ae190919063ffffffff16565b90505b818114611d1557611be8611be28262093a8061229f565b83612572565b6000818152600a6020526040808220549086015192935091611c0f90610717908590611949565b9050611c33611c2b8287602001516119d390919063ffffffff16565b865190611a7c565b85526020850151611c449083612588565b60208601528451600012611c59576000611c5c565b84515b85526020850151600012611c71576000611c77565b84602001515b60208601908152604086018481526005805460018101825560009190915287517f036b6384b5eca791c62761152d0c79bb0604c104a5fb6f4eb0703f3154bb3db060039092029182015591517f036b6384b5eca791c62761152d0c79bb0604c104a5fb6f4eb0703f3154bb3db1830155517f036b6384b5eca791c62761152d0c79bb0604c104a5fb6f4eb0703f3154bb3db29091015550611bcb9050565b505090565b60408051606080820183526000808352602080840182905283850182905284519283018552818352828101829052938201529184015142929083108015611d65575060008560400151115b15611dbf57611d946107176305a39a80610753670de0b6b3a764000089604001516122f990919063ffffffff16565b602080840191909152850151611db29061071c906107179086611949565b8252602085015160408301525b828460200151118015611dd6575060008460400151115b15611e3b57611e056107176305a39a80610753670de0b6b3a764000088604001516122f990919063ffffffff16565b602080830191909152840151611e2e90611e23906107179086611949565b6020830151906119d3565b8152602084015160408201525b6000611e45611b23565b82518451919250611e6191611e5991611a7c565b825190612588565b815260208083015190840151611e8691611e7b9190611a7c565b602083015190612588565b60208201528051600012611e9b576000611e9e565b80515b81526020810151600012611eb3576000611eb9565b80602001515b6020820152600580548291906000198101908110611ed357fe5b9060005260206000209060030201600082015181600001556020820151816001015560408201518160020155905050611f0c83836125ed565b505050505050565b3390565b6000828152600c60205260409020611f3090826126af565b15610a4457611f3d611f14565b6001600160a01b0316816001600160a01b0316837f2f8788117e7eff1d82e926ec794901d17c78024a50270940304540a733656f0d60405160405180910390a45050565b6000828152600c60205260409020611f9990826126c4565b15610a4457611fa6611f14565b6001600160a01b0316816001600160a01b0316837ff6391f5c32d9c69d2a47ea670b442974b53935d1edc7fd64eb21e047a839171b60405160405180910390a45050565b60045460011461200c5760405162461bcd60e51b81526004016107e790612d98565b600060048190556001600160a01b0385168152600760209081526040808320868452825291829020825160808082018552825482526001830154828501908152600284015483870190815260039094015460608085019182528751938401885284518452915195830195909552925194810185905292519183019190915291612095908561229f565b604082015282156120a857602081018390525b80516120b2574281525b60608101516120d8576003544211156120cc5760016120cf565b60025b60ff1660608201525b6120e28183611d1a565b6001600160a01b03861660009081526007602090815260408083208884528252808320845181558285018051600180840191909155838701805160028086019190915560608901805160039687015560089097529487208851815592519183019190915551928101839055925192019190915561217590610717906305a39a809061075390670de0b6b3a76400006122f9565b90506000612196610df961071742866020015161194990919063ffffffff16565b9050600060405180606001604052808381526020016121c28660600151866119d390919063ffffffff16565b81524260209182015260008a8152600682526040808220805460018181018355918452928490208551600390940201928355928401518284015580840151600290920191909155905490516323b872dd60e01b81529192506001600160a01b0316906323b872dd9061223c90339030908c90600401612a3f565b602060405180830381600087803b15801561225657600080fd5b505af115801561226a573d6000803e3d6000fd5b505050506040513d601f19601f8201168201806040525081019061228e9190612916565b505060016004555050505050505050565b60008282018381101561133b576040805162461bcd60e51b815260206004820152601b60248201527f536166654d6174683a206164646974696f6e206f766572666c6f770000000000604482015290519081900360640190fd5b6000826123085750600061079b565b8282028284828161231557fe5b041461133b5760405162461bcd60e51b8152600401808060200182810382526021815260200180612ed76021913960400191505060405180910390fd5b600061235c612869565b835461236b5760009150612443565b83546000905b808260010110156123c557600061238d6002610753858561229f565b90508587828154811061239c57fe5b906000526020600020906003020160020154116123bb578092506123bf565b8091505b50612371565b848683815481106123d257fe5b9060005260206000209060030201600201541161243c5760018683815481106123f757fe5b90600052602060002090600302018060405180606001604052908160008201548152602001600182015481526020016002820154815250509050935093505050612443565b6000935050505b9250929050565b600061133b83836126d9565b600061133b836001600160a01b03841661273d565b600061079b82612755565b600081848411156125055760405162461bcd60e51b81526004018080602001828103825283818151815260200191508051906020019080838360005b838110156124ca5781810151838201526020016124b2565b50505050905090810190601f1680156124f75780820380516001836020036101000a031916815260200191505b509250505060405180910390fd5b505050900390565b6000818361255c5760405162461bcd60e51b81526020600482018181528351602484015283519092839260449091019190850190808383600083156124ca5781810151838201526020016124b2565b50600083858161256857fe5b0495945050505050565b6000818310612581578161133b565b5090919050565b600082820181831280159061259d5750838112155b806125b257506000831280156125b257508381125b61133b5760405162461bcd60e51b8152600401808060200182810382526021815260200180612e866021913960400191505060405180910390fd5b6040808301516000908152600a602052818120548383018051835292909120549151909190421015612663576020830151612629908290612588565b905083604001518360400151141561264e57602084015161264b908290611a7c565b90505b6040808401516000908152600a602052208190555b42846040015111801561267d575082604001518460400151115b156126a9576020840151612692908390611a7c565b6040808601516000908152600a6020522081905591505b50505050565b600061133b836001600160a01b038416612759565b600061133b836001600160a01b0384166127a3565b8154600090821061271b5760405162461bcd60e51b8152600401808060200182810382526022815260200180612e136022913960400191505060405180910390fd5b82600001828154811061272a57fe5b9060005260206000200154905092915050565b60009081526001919091016020526040902054151590565b5490565b6000612765838361273d565b61279b5750815460018181018455600084815260208082209093018490558454848252828601909352604090209190915561079b565b50600061079b565b6000818152600183016020526040812054801561285f57835460001980830191908101906000908790839081106127d657fe5b90600052602060002001549050808760000184815481106127f357fe5b60009182526020808320909101929092558281526001898101909252604090209084019055865487908061282357fe5b6001900381819060005260206000200160009055905586600101600087815260200190815260200160002060009055600194505050505061079b565b600091505061079b565b60405180606001604052806000815260200160008152602001600081525090565b80356001600160a01b038116811461077c57600080fd5b6000602082840312156128b2578081fd5b61133b8261288a565b600080604083850312156128cd578081fd5b6128d68361288a565b946020939093013593505050565b6000806000606084860312156128f8578081fd5b6129018461288a565b95602085013595506040909401359392505050565b600060208284031215612927578081fd5b8151801515811461133b578182fd5b600060208284031215612947578081fd5b5035919050565b60008060408385031215612960578182fd5b823591506129706020840161288a565b90509250929050565b6000806040838503121561298b578182fd5b50508035926020909101359150565b600080600080600060a086880312156129b1578081fd5b505083359560208501359550604085013594606081013594506080013592509050565b60008060008060008060c087890312156129ec578081fd5b863595506020870135945060408701359350606087013560ff81168114612a11578182fd5b9598949750929560808101359460a0909101359350915050565b6001600160a01b0391909116815260200190565b6001600160a01b039384168152919092166020820152604081019190915260600190565b6001600160a01b0397881681529590961660208601526040850193909352606084019190915260ff16608083015260a082015260c081019190915260e00190565b6001600160a01b03929092168252602082015260400190565b6001600160a01b039390931683526020830191909152604082015260600190565b6001600160a01b0394909416845260208401929092526040830152606082015260800190565b602080825282518282018190526000919060409081850190868401855b82811015612b505781518051855286810151878601528501518585015260609093019290850190600101612b21565b5091979650505050505050565b6020808252825182820181905260009190848201906040850190845b81811015612b9557835183529284019291840191600101612b79565b50909695505050505050565b901515815260200190565b90815260200190565b9283526020830191909152604082015260600190565b6020808252601690820152754e6f206578697374696e67206c6f636b656420544f5360501b604082015260600190565b6020808252601a908201527f4d617820756e6c6f636b2074696d652069732033207965617273000000000000604082015260600190565b602080825260159082015274131bd8dac81d1a5b59481a5cc8199a5b9a5cda1959605a1b604082015260600190565b60208082526011908201527020b63932b0b23c903bb4ba34323930bbb760791b604082015260600190565b6020808252601f908201527f56616c7565206c6f636b65642073686f756c64206265206e6f6e2d7a65726f00604082015260600190565b6020808252601a908201527f4c6f636b2074696d6520616c72656164792066696e6973686564000000000000604082015260600190565b6020808252601d908201527f4e6577206c6f636b2074696d65206d7573742062652067726561746572000000604082015260600190565b6020808252601e908201527f556e6c6f636b20706572696f64206c657373207468616e2061207765656b0000604082015260600190565b602080825260169082015275131bd8dac81d1a5b59481b9bdd08199a5b9a5cda195960521b604082015260600190565b6020808252601890820152774c6f636b496420697320616c726561647920696e2075736560401b604082015260600190565b602080825260139082015272131bd8dac8191bd95cc81b9bdd08195e1a5cdd606a1b604082015260600190565b9384526020840192909252604083015260608201526080019056fe456e756d657261626c655365743a20696e646578206f7574206f6620626f756e6473416363657373436f6e74726f6c3a2073656e646572206d75737420626520616e2061646d696e20746f206772616e7441636365737369626c653a2043616c6c6572206973206e6f7420616e2061646d696e5369676e6564536166654d6174683a206164646974696f6e206f766572666c6f77416363657373436f6e74726f6c3a2073656e646572206d75737420626520616e2061646d696e20746f207265766f6b65536166654d6174683a206d756c7469706c69636174696f6e206f766572666c6f77df8b4c520ffe197c5343c6f5aec59570151ef9a492f2c624fd45ddde6135ec425369676e6564536166654d6174683a206d756c7469706c69636174696f6e206f766572666c6f7753616665436173743a2076616c756520646f65736e27742066697420696e20616e20696e743235365369676e6564536166654d6174683a207375627472616374696f6e206f766572666c6f77416363657373436f6e74726f6c3a2063616e206f6e6c792072656e6f756e636520726f6c657320666f722073656c66a2646970667358221220a58a22917e2e5195c834e532577dac9a8077b55ed628e450461e8d1a711722aa64736f6c63430007060033",
  "linkReferences": {},
  "deployedLinkReferences": {}
}