{
  "_format": "hh-sol-artifact-1",
  "contractName": "LockTOS",
  "sourceName": "contracts/stake/LockTOS.sol",
  "abi": [
    {
      "anonymous": false,
      "inputs": [
        {
          "indexed": false,
          "internalType": "address",
          "name": "account",
          "type": "address"
        },
        {
          "indexed": false,
          "internalType": "uint256",
          "name": "lockId",
          "type": "uint256"
        },
        {
          "indexed": false,
          "internalType": "uint256",
          "name": "value",
          "type": "uint256"
        }
      ],
      "name": "LockAmountIncreased",
      "type": "event"
    },
    {
      "anonymous": false,
      "inputs": [
        {
          "indexed": false,
          "internalType": "address",
          "name": "account",
          "type": "address"
        },
        {
          "indexed": false,
          "internalType": "uint256",
          "name": "lockId",
          "type": "uint256"
        },
        {
          "indexed": false,
          "internalType": "uint256",
          "name": "value",
          "type": "uint256"
        },
        {
          "indexed": false,
          "internalType": "uint256",
          "name": "unlockTime",
          "type": "uint256"
        }
      ],
      "name": "LockCreated",
      "type": "event"
    },
    {
      "anonymous": false,
      "inputs": [
        {
          "indexed": false,
          "internalType": "address",
          "name": "account",
          "type": "address"
        },
        {
          "indexed": false,
          "internalType": "uint256",
          "name": "lockId",
          "type": "uint256"
        },
        {
          "indexed": false,
          "internalType": "uint256",
          "name": "value",
          "type": "uint256"
        }
      ],
      "name": "LockDeposited",
      "type": "event"
    },
    {
      "anonymous": false,
      "inputs": [
        {
          "indexed": false,
          "internalType": "address",
          "name": "account",
          "type": "address"
        },
        {
          "indexed": false,
          "internalType": "uint256",
          "name": "lockId",
          "type": "uint256"
        },
        {
          "indexed": false,
          "internalType": "uint256",
          "name": "unlockTime",
          "type": "uint256"
        }
      ],
      "name": "LockUnlockTimeIncreased",
      "type": "event"
    },
    {
      "anonymous": false,
      "inputs": [
        {
          "indexed": false,
          "internalType": "address",
          "name": "account",
          "type": "address"
        },
        {
          "indexed": false,
          "internalType": "uint256",
          "name": "lockId",
          "type": "uint256"
        },
        {
          "indexed": false,
          "internalType": "uint256",
          "name": "value",
          "type": "uint256"
        }
      ],
      "name": "LockWithdrawn",
      "type": "event"
    },
    {
      "anonymous": false,
      "inputs": [
        {
          "indexed": true,
          "internalType": "bytes32",
          "name": "role",
          "type": "bytes32"
        },
        {
          "indexed": true,
          "internalType": "bytes32",
          "name": "previousAdminRole",
          "type": "bytes32"
        },
        {
          "indexed": true,
          "internalType": "bytes32",
          "name": "newAdminRole",
          "type": "bytes32"
        }
      ],
      "name": "RoleAdminChanged",
      "type": "event"
    },
    {
      "anonymous": false,
      "inputs": [
        {
          "indexed": true,
          "internalType": "bytes32",
          "name": "role",
          "type": "bytes32"
        },
        {
          "indexed": true,
          "internalType": "address",
          "name": "account",
          "type": "address"
        },
        {
          "indexed": true,
          "internalType": "address",
          "name": "sender",
          "type": "address"
        }
      ],
      "name": "RoleGranted",
      "type": "event"
    },
    {
      "anonymous": false,
      "inputs": [
        {
          "indexed": true,
          "internalType": "bytes32",
          "name": "role",
          "type": "bytes32"
        },
        {
          "indexed": true,
          "internalType": "address",
          "name": "account",
          "type": "address"
        },
        {
          "indexed": true,
          "internalType": "address",
          "name": "sender",
          "type": "address"
        }
      ],
      "name": "RoleRevoked",
      "type": "event"
    },
    {
      "inputs": [],
      "name": "ADMIN_ROLE",
      "outputs": [
        {
          "internalType": "bytes32",
          "name": "",
          "type": "bytes32"
        }
      ],
      "stateMutability": "view",
      "type": "function"
    },
    {
      "inputs": [],
      "name": "BURNER_ROLE",
      "outputs": [
        {
          "internalType": "bytes32",
          "name": "",
          "type": "bytes32"
        }
      ],
      "stateMutability": "view",
      "type": "function"
    },
    {
      "inputs": [],
      "name": "DEFAULT_ADMIN_ROLE",
      "outputs": [
        {
          "internalType": "bytes32",
          "name": "",
          "type": "bytes32"
        }
      ],
      "stateMutability": "view",
      "type": "function"
    },
    {
      "inputs": [],
      "name": "MINTER_ROLE",
      "outputs": [
        {
          "internalType": "bytes32",
          "name": "",
          "type": "bytes32"
        }
      ],
      "stateMutability": "view",
      "type": "function"
    },
    {
      "inputs": [],
      "name": "MULTIPLIER",
      "outputs": [
        {
          "internalType": "uint256",
          "name": "",
          "type": "uint256"
        }
      ],
      "stateMutability": "view",
      "type": "function"
    },
    {
      "inputs": [
        {
          "internalType": "address",
          "name": "account",
          "type": "address"
        }
      ],
      "name": "addAdmin",
      "outputs": [],
      "stateMutability": "nonpayable",
      "type": "function"
    },
    {
      "inputs": [
        {
          "internalType": "uint256",
          "name": "",
          "type": "uint256"
        }
      ],
      "name": "allLocks",
      "outputs": [
        {
          "internalType": "uint256",
          "name": "start",
          "type": "uint256"
        },
        {
          "internalType": "uint256",
          "name": "end",
          "type": "uint256"
        },
        {
          "internalType": "uint256",
          "name": "amount",
          "type": "uint256"
        },
        {
          "internalType": "int256",
          "name": "boostValue",
          "type": "int256"
        }
      ],
      "stateMutability": "view",
      "type": "function"
    },
    {
      "inputs": [
        {
          "internalType": "address",
          "name": "_addr",
          "type": "address"
        }
      ],
      "name": "balanceOf",
      "outputs": [
        {
          "internalType": "uint256",
          "name": "balance",
          "type": "uint256"
        }
      ],
      "stateMutability": "view",
      "type": "function"
    },
    {
      "inputs": [
        {
          "internalType": "address",
          "name": "_addr",
          "type": "address"
        },
        {
          "internalType": "uint256",
          "name": "_timestamp",
          "type": "uint256"
        }
      ],
      "name": "balanceOfAt",
      "outputs": [
        {
          "internalType": "uint256",
          "name": "balance",
          "type": "uint256"
        }
      ],
      "stateMutability": "view",
      "type": "function"
    },
    {
      "inputs": [
        {
          "internalType": "uint256",
          "name": "_lockId",
          "type": "uint256"
        }
      ],
      "name": "balanceOfLock",
      "outputs": [
        {
          "internalType": "uint256",
          "name": "",
          "type": "uint256"
        }
      ],
      "stateMutability": "view",
      "type": "function"
    },
    {
      "inputs": [
        {
          "internalType": "uint256",
          "name": "_lockId",
          "type": "uint256"
        },
        {
          "internalType": "uint256",
          "name": "_timestamp",
          "type": "uint256"
        }
      ],
      "name": "balanceOfLockAt",
      "outputs": [
        {
          "internalType": "uint256",
          "name": "",
          "type": "uint256"
        }
      ],
      "stateMutability": "view",
      "type": "function"
    },
    {
      "inputs": [
        {
          "internalType": "uint256",
          "name": "_lockId",
          "type": "uint256"
        }
      ],
      "name": "balanceOfLockTest",
      "outputs": [
        {
          "internalType": "uint256",
          "name": "_balance",
          "type": "uint256"
        },
        {
          "internalType": "uint256",
          "name": "_blocktime",
          "type": "uint256"
        },
        {
          "internalType": "int256",
          "name": "_currentBias",
          "type": "int256"
        },
        {
          "internalType": "int256",
          "name": "_slope",
          "type": "int256"
        },
        {
          "internalType": "int256",
          "name": "_bias",
          "type": "int256"
        },
        {
          "internalType": "uint256",
          "name": "_timestamp",
          "type": "uint256"
        }
      ],
      "stateMutability": "view",
      "type": "function"
    },
    {
      "inputs": [
        {
          "internalType": "uint256",
          "name": "_value",
          "type": "uint256"
        },
        {
          "internalType": "uint256",
          "name": "_unlockWeeks",
          "type": "uint256"
        }
      ],
      "name": "createLock",
      "outputs": [
        {
          "internalType": "uint256",
          "name": "lockId",
          "type": "uint256"
        }
      ],
      "stateMutability": "nonpayable",
      "type": "function"
    },
    {
      "inputs": [
        {
          "internalType": "uint256",
          "name": "_value",
          "type": "uint256"
        },
        {
          "internalType": "uint256",
          "name": "_unlockWeeks",
          "type": "uint256"
        },
        {
          "internalType": "uint256",
          "name": "_deadline",
          "type": "uint256"
        },
        {
          "internalType": "uint8",
          "name": "_v",
          "type": "uint8"
        },
        {
          "internalType": "bytes32",
          "name": "_r",
          "type": "bytes32"
        },
        {
          "internalType": "bytes32",
          "name": "_s",
          "type": "bytes32"
        }
      ],
      "name": "createLockWithPermit",
      "outputs": [
        {
          "internalType": "uint256",
          "name": "lockId",
          "type": "uint256"
        }
      ],
      "stateMutability": "nonpayable",
      "type": "function"
    },
    {
      "inputs": [],
      "name": "cumulativeEpochUnit",
      "outputs": [
        {
          "internalType": "uint256",
          "name": "",
          "type": "uint256"
        }
      ],
      "stateMutability": "view",
      "type": "function"
    },
    {
      "inputs": [],
      "name": "cumulativeTOSAmount",
      "outputs": [
        {
          "internalType": "uint256",
          "name": "",
          "type": "uint256"
        }
      ],
      "stateMutability": "view",
      "type": "function"
    },
    {
      "inputs": [
        {
          "internalType": "address",
          "name": "_addr",
          "type": "address"
        },
        {
          "internalType": "uint256",
          "name": "_lockId",
          "type": "uint256"
        },
        {
          "internalType": "uint256",
          "name": "_value",
          "type": "uint256"
        }
      ],
      "name": "depositFor",
      "outputs": [],
      "stateMutability": "nonpayable",
      "type": "function"
    },
    {
      "inputs": [],
      "name": "epochUnit",
      "outputs": [
        {
          "internalType": "uint256",
          "name": "",
          "type": "uint256"
        }
      ],
      "stateMutability": "view",
      "type": "function"
    },
    {
      "inputs": [],
      "name": "getCurrentTime",
      "outputs": [
        {
          "internalType": "uint256",
          "name": "",
          "type": "uint256"
        }
      ],
      "stateMutability": "view",
      "type": "function"
    },
    {
      "inputs": [
        {
          "internalType": "bytes32",
          "name": "role",
          "type": "bytes32"
        }
      ],
      "name": "getRoleAdmin",
      "outputs": [
        {
          "internalType": "bytes32",
          "name": "",
          "type": "bytes32"
        }
      ],
      "stateMutability": "view",
      "type": "function"
    },
    {
      "inputs": [
        {
          "internalType": "bytes32",
          "name": "role",
          "type": "bytes32"
        },
        {
          "internalType": "uint256",
          "name": "index",
          "type": "uint256"
        }
      ],
      "name": "getRoleMember",
      "outputs": [
        {
          "internalType": "address",
          "name": "",
          "type": "address"
        }
      ],
      "stateMutability": "view",
      "type": "function"
    },
    {
      "inputs": [
        {
          "internalType": "bytes32",
          "name": "role",
          "type": "bytes32"
        }
      ],
      "name": "getRoleMemberCount",
      "outputs": [
        {
          "internalType": "uint256",
          "name": "",
          "type": "uint256"
        }
      ],
      "stateMutability": "view",
      "type": "function"
    },
    {
      "inputs": [],
      "name": "globalCheckpoint",
      "outputs": [],
      "stateMutability": "nonpayable",
      "type": "function"
    },
    {
      "inputs": [
        {
          "internalType": "bytes32",
          "name": "role",
          "type": "bytes32"
        },
        {
          "internalType": "address",
          "name": "account",
          "type": "address"
        }
      ],
      "name": "grantRole",
      "outputs": [],
      "stateMutability": "nonpayable",
      "type": "function"
    },
    {
      "inputs": [
        {
          "internalType": "bytes32",
          "name": "role",
          "type": "bytes32"
        },
        {
          "internalType": "address",
          "name": "account",
          "type": "address"
        }
      ],
      "name": "hasRole",
      "outputs": [
        {
          "internalType": "bool",
          "name": "",
          "type": "bool"
        }
      ],
      "stateMutability": "view",
      "type": "function"
    },
    {
      "inputs": [
        {
          "internalType": "uint256",
          "name": "",
          "type": "uint256"
        }
      ],
      "name": "inUse",
      "outputs": [
        {
          "internalType": "bool",
          "name": "",
          "type": "bool"
        }
      ],
      "stateMutability": "view",
      "type": "function"
    },
    {
      "inputs": [
        {
          "internalType": "uint256",
          "name": "_lockId",
          "type": "uint256"
        },
        {
          "internalType": "uint256",
          "name": "_value",
          "type": "uint256"
        }
      ],
      "name": "increaseAmount",
      "outputs": [],
      "stateMutability": "nonpayable",
      "type": "function"
    },
    {
      "inputs": [
        {
          "internalType": "uint256",
          "name": "_lockId",
          "type": "uint256"
        },
        {
          "internalType": "uint256",
          "name": "_unlockWeeks",
          "type": "uint256"
        }
      ],
      "name": "increaseUnlockTime",
      "outputs": [],
      "stateMutability": "nonpayable",
      "type": "function"
    },
    {
      "inputs": [
        {
          "internalType": "address",
          "name": "account",
          "type": "address"
        }
      ],
      "name": "isAdmin",
      "outputs": [
        {
          "internalType": "bool",
          "name": "",
          "type": "bool"
        }
      ],
      "stateMutability": "view",
      "type": "function"
    },
    {
      "inputs": [],
      "name": "lockIdCounter",
      "outputs": [
        {
          "internalType": "uint256",
          "name": "",
          "type": "uint256"
        }
      ],
      "stateMutability": "view",
      "type": "function"
    },
    {
      "inputs": [
        {
          "internalType": "uint256",
          "name": "",
          "type": "uint256"
        },
        {
          "internalType": "uint256",
          "name": "",
          "type": "uint256"
        }
      ],
      "name": "lockPointHistory",
      "outputs": [
        {
          "internalType": "int256",
          "name": "bias",
          "type": "int256"
        },
        {
          "internalType": "int256",
          "name": "slope",
          "type": "int256"
        },
        {
          "internalType": "uint256",
          "name": "timestamp",
          "type": "uint256"
        }
      ],
      "stateMutability": "view",
      "type": "function"
    },
    {
      "inputs": [
        {
          "internalType": "address",
          "name": "",
          "type": "address"
        },
        {
          "internalType": "uint256",
          "name": "",
          "type": "uint256"
        }
      ],
      "name": "lockedBalances",
      "outputs": [
        {
          "internalType": "uint256",
          "name": "start",
          "type": "uint256"
        },
        {
          "internalType": "uint256",
          "name": "end",
          "type": "uint256"
        },
        {
          "internalType": "uint256",
          "name": "amount",
          "type": "uint256"
        },
        {
          "internalType": "int256",
          "name": "boostValue",
          "type": "int256"
        }
      ],
      "stateMutability": "view",
      "type": "function"
    },
    {
      "inputs": [
        {
          "internalType": "uint256",
          "name": "_lockId",
          "type": "uint256"
        }
      ],
      "name": "locksInfo",
      "outputs": [
        {
          "internalType": "uint256",
          "name": "start",
          "type": "uint256"
        },
        {
          "internalType": "uint256",
          "name": "end",
          "type": "uint256"
        },
        {
          "internalType": "uint256",
          "name": "amount",
          "type": "uint256"
        },
        {
          "internalType": "int256",
          "name": "boostValue",
          "type": "int256"
        }
      ],
      "stateMutability": "view",
      "type": "function"
    },
    {
      "inputs": [
        {
          "internalType": "address",
          "name": "_addr",
          "type": "address"
        }
      ],
      "name": "locksOf",
      "outputs": [
        {
          "internalType": "uint256[]",
          "name": "",
          "type": "uint256[]"
        }
      ],
      "stateMutability": "view",
      "type": "function"
    },
    {
      "inputs": [],
      "name": "maxTime",
      "outputs": [
        {
          "internalType": "uint256",
          "name": "",
          "type": "uint256"
        }
      ],
      "stateMutability": "view",
      "type": "function"
    },
    {
      "inputs": [],
      "name": "migratedL2",
      "outputs": [
        {
          "internalType": "bool",
          "name": "",
          "type": "bool"
        }
      ],
      "stateMutability": "view",
      "type": "function"
    },
    {
      "inputs": [],
      "name": "pauseProxy",
      "outputs": [
        {
          "internalType": "bool",
          "name": "",
          "type": "bool"
        }
      ],
      "stateMutability": "view",
      "type": "function"
    },
    {
      "inputs": [],
      "name": "phase3StartTime",
      "outputs": [
        {
          "internalType": "uint256",
          "name": "",
          "type": "uint256"
        }
      ],
      "stateMutability": "view",
      "type": "function"
    },
    {
      "inputs": [
        {
          "internalType": "uint256",
          "name": "",
          "type": "uint256"
        }
      ],
      "name": "pointHistory",
      "outputs": [
        {
          "internalType": "int256",
          "name": "bias",
          "type": "int256"
        },
        {
          "internalType": "int256",
          "name": "slope",
          "type": "int256"
        },
        {
          "internalType": "uint256",
          "name": "timestamp",
          "type": "uint256"
        }
      ],
      "stateMutability": "view",
      "type": "function"
    },
    {
      "inputs": [
        {
          "internalType": "uint256",
          "name": "_lockId",
          "type": "uint256"
        }
      ],
      "name": "pointHistoryOf",
      "outputs": [
        {
          "components": [
            {
              "internalType": "int256",
              "name": "bias",
              "type": "int256"
            },
            {
              "internalType": "int256",
              "name": "slope",
              "type": "int256"
            },
            {
              "internalType": "uint256",
              "name": "timestamp",
              "type": "uint256"
            }
          ],
          "internalType": "struct LibLockTOS.Point[]",
          "name": "",
          "type": "tuple[]"
        }
      ],
      "stateMutability": "view",
      "type": "function"
    },
    {
      "inputs": [
        {
          "internalType": "address",
          "name": "account",
          "type": "address"
        }
      ],
      "name": "removeAdmin",
      "outputs": [],
      "stateMutability": "nonpayable",
      "type": "function"
    },
    {
      "inputs": [
        {
          "internalType": "bytes32",
          "name": "role",
          "type": "bytes32"
        },
        {
          "internalType": "address",
          "name": "account",
          "type": "address"
        }
      ],
      "name": "renounceRole",
      "outputs": [],
      "stateMutability": "nonpayable",
      "type": "function"
    },
    {
      "inputs": [
        {
          "internalType": "bytes32",
          "name": "role",
          "type": "bytes32"
        },
        {
          "internalType": "address",
          "name": "account",
          "type": "address"
        }
      ],
      "name": "revokeRole",
      "outputs": [],
      "stateMutability": "nonpayable",
      "type": "function"
    },
    {
      "inputs": [
        {
          "internalType": "uint256",
          "name": "_maxTime",
          "type": "uint256"
        }
      ],
      "name": "setMaxTime",
      "outputs": [],
      "stateMutability": "nonpayable",
      "type": "function"
    },
    {
      "inputs": [
        {
          "internalType": "uint256",
          "name": "_phase3StartTime",
          "type": "uint256"
        }
      ],
      "name": "setPhase3StartTime",
      "outputs": [],
      "stateMutability": "nonpayable",
      "type": "function"
    },
    {
      "inputs": [
        {
          "internalType": "uint256",
          "name": "",
          "type": "uint256"
        }
      ],
      "name": "slopeChanges",
      "outputs": [
        {
          "internalType": "int256",
          "name": "",
          "type": "int256"
        }
      ],
      "stateMutability": "view",
      "type": "function"
    },
    {
      "inputs": [],
      "name": "stakeRegistry",
      "outputs": [
        {
          "internalType": "address",
          "name": "",
          "type": "address"
        }
      ],
      "stateMutability": "view",
      "type": "function"
    },
    {
      "inputs": [],
      "name": "tos",
      "outputs": [
        {
          "internalType": "address",
          "name": "",
          "type": "address"
        }
      ],
      "stateMutability": "view",
      "type": "function"
    },
    {
      "inputs": [],
      "name": "totalSupply",
      "outputs": [
        {
          "internalType": "uint256",
          "name": "",
          "type": "uint256"
        }
      ],
      "stateMutability": "view",
      "type": "function"
    },
    {
      "inputs": [
        {
          "internalType": "uint256",
          "name": "_timestamp",
          "type": "uint256"
        }
      ],
      "name": "totalSupplyAt",
      "outputs": [
        {
          "internalType": "uint256",
          "name": "",
          "type": "uint256"
        }
      ],
      "stateMutability": "view",
      "type": "function"
    },
    {
      "inputs": [
        {
          "internalType": "address",
          "name": "newAdmin",
          "type": "address"
        }
      ],
      "name": "transferAdmin",
      "outputs": [],
      "stateMutability": "nonpayable",
      "type": "function"
    },
    {
      "inputs": [
        {
          "internalType": "address",
          "name": "",
          "type": "address"
        },
        {
          "internalType": "uint256",
          "name": "",
          "type": "uint256"
        }
      ],
      "name": "userLocks",
      "outputs": [
        {
          "internalType": "uint256",
          "name": "",
          "type": "uint256"
        }
      ],
      "stateMutability": "view",
      "type": "function"
    },
    {
      "inputs": [
        {
          "internalType": "uint256",
          "name": "_lockId",
          "type": "uint256"
        }
      ],
      "name": "withdraw",
      "outputs": [],
      "stateMutability": "nonpayable",
      "type": "function"
    },
    {
      "inputs": [],
      "name": "withdrawAll",
      "outputs": [],
      "stateMutability": "nonpayable",
      "type": "function"
    }
  ],
  "bytecode": "0x6080604052600160045560006006556000600755600160085534801561002457600080fd5b506132a6806100346000396000f3fe608060405234801561001057600080fd5b50600436106102e25760003560e01c80638372cd7e11610188578063afae883e116100e4578063c79acdda11610092578063c79acdda14610631578063ca15c87314610644578063cd29ca0e14610657578063d53913931461065f578063d547741f14610667578063f52a36f71461067a578063fd2dcecf1461068d576102e2565b8063afae883e146105a8578063b2383e55146105b0578063b52c05fe146105c3578063b534ad56146105d6578063b94419e0146105de578063c3f9ab58146105f1578063c5dc1e5f14610611576102e2565b8063981b24d011610141578063981b24d01461053957806398b777e71461054c5780639ce563051461055f5780639d507b8b14610572578063a1f5f50e14610585578063a217fddf1461058d578063aa33fedb14610595576102e2565b80638372cd7e146104dd578063853828b6146104f057806389f395de146104f85780638ad4c447146105005780639010d07c1461051357806391d1485414610526576102e2565b80633dce77181161024257806368304835116101f0578063683048351461044f578063688a5850146104645780636becde3214610477578063704802751461049c57806370a08231146104af57806375829def146104c257806375b238fc146104d5576102e2565b80633dce7718146103d05780634cf5fbf5146103d85780634ee2cd7e146103eb5780635d16a6f9146103fe57806363a8fd891461042157806363d5a3d914610429578063642cf6491461043c576102e2565b806324d7806c1161029f57806324d7806c14610345578063282c51f31461036557806329cb924d1461036d5780632e1a7d4d146103755780632f2ff15d1461038857806336568abe1461039b578063367b7b23146103ae576102e2565b8063059f8b16146102e75780631785f53c1461030557806318160ddd1461031a5780631ac40e661461032257806322e67e711461032a578063248a9ca314610332575b600080fd5b6102ef610695565b6040516102fc9190612ddb565b60405180910390f35b610318610313366004612b0a565b6106a1565b005b6102ef610700565b6103186107ca565b6102ef6107d2565b6102ef610340366004612b9f565b6107d8565b610358610353366004612b0a565b6107f0565b6040516102fc9190612dd0565b6102ef610810565b6102ef610834565b610318610383366004612b9f565b610838565b610318610396366004612bb7565b61092b565b6103186103a9366004612bb7565b610992565b6103c16103bc366004612be2565b6109f3565b6040516102fc93929190612de4565b6102ef610a35565b6103186103e6366004612b4d565b610a3b565b6102ef6103f9366004612b24565b610b4a565b61041161040c366004612b24565b610c07565b6040516102fc94939291906130ae565b610358610c39565b610411610437366004612b9f565b610c42565b6102ef61044a366004612be2565b610c69565b610457610ce2565b6040516102fc9190612c5a565b610318610472366004612b9f565b610cf6565b61048a610485366004612b9f565b610d3f565b6040516102fc96959493929190613086565b6103186104aa366004612b0a565b610e38565b6102ef6104bd366004612b0a565b610e94565b6103186104d0366004612b0a565b610f48565b6102ef611069565b6102ef6104eb366004612c03565b61107b565b6103186110ff565b610457611292565b6103c161050e366004612b9f565b6112a1565b610457610521366004612be2565b6112d4565b610358610534366004612bb7565b6112f3565b6102ef610547366004612b9f565b61130b565b61031861055a366004612b9f565b611385565b61041161056d366004612b9f565b6113ce565b610318610580366004612be2565b6113f6565b61035861157a565b6102ef61158a565b6102ef6105a3366004612b24565b61158f565b6102ef6115c0565b6103186105be366004612be2565b6115c6565b6102ef6105d1366004612be2565b6115d1565b6102ef611706565b6102ef6105ec366004612b9f565b61170c565b6106046105ff366004612b0a565b6117c0565b6040516102fc9190612d8c565b61062461061f366004612b9f565b61182c565b6040516102fc9190612d33565b61035861063f366004612b9f565b6118bc565b6102ef610652366004612b9f565b6118d1565b6102ef6118e8565b6102ef6118ee565b610318610675366004612bb7565b611912565b6102ef610688366004612b9f565b61196b565b6102ef61197d565b670de0b6b3a764000081565b6106aa336107f0565b6106e55760405162461bcd60e51b815260040180806020018281038252602281526020018061311b6022913960400191505060405180910390fd5b6106fd6000805160206131af83398151915282610992565b50565b600954600090610712575060006107c7565b6009805460009190600019810190811061072857fe5b906000526020600020906003020160405180606001604052908160008201548152602001600182015481526020016002820154815250509050600061079061078561078084604001514261198390919063ffffffff16565b6119c5565b602084015190611a0d565b90506107c2670de0b6b3a7640000828460000151136107b05760006107bc565b83516107bc9084611ab6565b90611b1b565b925050505b90565b6106fd611b5d565b60025481565b6000818152601060205260409020600201545b919050565b600061080a6000805160206131af833981519152836112f3565b92915050565b7f9667e80708b6eeeb0053fa0cca44e028ff548e2a9f029edfeac87c118b08b7c881565b4290565b6008546001146108635760405162461bcd60e51b815260040161085a90613027565b60405180910390fd5b6000600855806108855760405162461bcd60e51b815260040161085a90612e61565b61088e81611d52565b336000908152600d60205260408120905b815481101561092157828282815481106108b557fe5b90600052602060002001541415610919578154829060001981019081106108d857fe5b90600052602060002001548282815481106108ef57fe5b60009182526020909120015581548290600019810190811061090d57fe5b60009182526020822001555b60010161089f565b5050600160085550565b60008281526010602052604090206002015461094990610534611f55565b6109845760405162461bcd60e51b815260040180806020018281038252602f8152602001806130ec602f913960400191505060405180910390fd5b61098e8282611f59565b5050565b61099a611f55565b6001600160a01b0316816001600160a01b0316146109e95760405162461bcd60e51b815260040180806020018281038252602f815260200180613242602f913960400191505060405180910390fd5b61098e8282611fc2565b600a6020528160005260406000208181548110610a0f57600080fd5b600091825260209091206003909102018054600182015460029092015490935090915083565b60055481565b60008111610a5b5760405162461bcd60e51b815260040161085a90612ee4565b6001600160a01b0383166000908152600b6020908152604080832085845282529182902082516080810184528154808252600183015493820193909352600282015493810193909352600301546060830152610ac95760405162461bcd60e51b815260040161085a90613059565b42816020015111610aec5760405162461bcd60e51b815260040161085a90612e8a565b600754610af9908361202b565b600755610b098484846000612085565b7fea44bc904f77b1be47cd5b840b00f19b7238f88d7524fa5a86629282bfe6bcc5338484604051610b3c93929190612cec565b60405180910390a150505050565b6001600160a01b0382166000908152600d6020908152604080832080548251818502810185019093528083528493830182828015610ba757602002820191906000526020600020905b815481526020019060010190808311610b93575b50505050509050805160001415610bc257600091505061080a565b60005b8151811015610bff57610bf5610bee838381518110610be057fe5b602002602001015186610c69565b849061202b565b9250600101610bc5565b505092915050565b600b60209081526000928352604080842090915290825290208054600182015460028301546003909301549192909184565b60005460ff1681565b600c6020526000908152604090208054600182015460028301546003909301549192909184565b6000828152600a6020526040812081908190610c85908561236c565b9150915081610c995760009250505061080a565b6000610cb861078561078084604001518861198390919063ffffffff16565b9050610cd8670de0b6b3a7640000828460000151136107b05760006107bc565b9695505050505050565b60005461010090046001600160a01b031681565b610cff336107f0565b610d3a5760405162461bcd60e51b815260040180806020018281038252602281526020018061311b6022913960400191505060405180910390fd5b600555565b6000818152600a60205260408120548190819081908190819080610d785760008060008060008096509650965096509650965050610e2f565b6000888152600a6020526040812080546000198401908110610d9657fe5b9060005260206000209060030201604051806060016040529081600082015481526020016001820154815260200160028201548152505090506000610dee61078561078084604001514261198390919063ffffffff16565b9050610e0e670de0b6b3a7640000828460000151136107b05760006107bc565b98504297508096508160200151955081600001519450816040015193505050505b91939550919395565b610e41336107f0565b610e7c5760405162461bcd60e51b815260040180806020018281038252602281526020018061311b6022913960400191505060405180910390fd5b6106fd6000805160206131af8339815191528261092b565b6001600160a01b0381166000908152600d6020908152604080832080548251818502810185019093528083528493830182828015610ef157602002820191906000526020600020905b815481526020019060010190808311610edd575b50505050509050805160001415610f0c5760009150506107eb565b60005b8151811015610f4157610f37610bee838381518110610f2a57fe5b602002602001015161170c565b9250600101610f0f565b5050919050565b610f51336107f0565b610f8c5760405162461bcd60e51b815260040180806020018281038252602281526020018061311b6022913960400191505060405180910390fd5b6001600160a01b038116610fe2576040805162461bcd60e51b815260206004820152601860248201527741636365737369626c653a207a65726f206164647265737360401b604482015290519081900360640190fd5b336001600160a01b0382161415611039576040805162461bcd60e51b815260206004820152601660248201527520b1b1b2b9b9b4b136329d1039b0b6b29030b236b4b760511b604482015290519081900360640190fd5b6110516000805160206131af8339815191528261092b565b6106fd6000805160206131af83398151915233610992565b6000805160206131af83398151915281565b60035460405163d505accf60e01b81526000916001600160a01b03169063d505accf906110b890339030908c908b908b908b908b90600401612c92565b600060405180830381600087803b1580156110d257600080fd5b505af11580156110e6573d6000803e3d6000fd5b505050506110f487876115d1565b979650505050505050565b6008546001146111215760405162461bcd60e51b815260040161085a90613027565b60006008819055338152600d602052604090208054611140575061128b565b8054600019015b6000600c600084848154811061115957fe5b90600052602060002001548152602001908152602001600020604051806080016040529081600082015481526020016001820154815260200160028201548152602001600382015481525050905060008383815481106111b557fe5b90600052602060002001541180156111d1575060008160400151115b80156111dd5750805115155b80156111ed575060008160200151115b80156111fc5750428160200151105b156112735761122083838154811061121057fe5b9060005260206000200154611d52565b82548390600019810190811061123257fe5b906000526020600020015483838154811061124957fe5b60009182526020909120015582548390600019810190811061126757fe5b60009182526020822001555b8161127e5750611288565b5060001901611147565b50505b6001600855565b6003546001600160a01b031681565b600981815481106112b157600080fd5b600091825260209091206003909102018054600182015460029092015490925083565b60008281526010602052604081206112ec9083612464565b9392505050565b60008281526010602052604081206112ec9083612470565b600080600061131b60098561236c565b915091508161132f576000925050506107eb565b600061134b61078083604001518761198390919063ffffffff16565b826020015102905061137c670de0b6b3a7640000828460000151136113715760006107bc565b835183900390611b1b565b95945050505050565b61138e336107f0565b6113c95760405162461bcd60e51b815260040180806020018281038252602281526020018061311b6022913960400191505060405180910390fd5b600255565b6000908152600c60205260409020805460018201546002830154600390930154919390929190565b600081116114165760405162461bcd60e51b815260040161085a90612fc0565b600654611423908261202b565b600655336000908152600b60209081526040808320858452825280832081516080810183528154815260018083015494820194909452600282015492810192909252600301546060820152905490919061148d90611482908590612485565b60208401519061202b565b6001549091506114a7906114a18382611b1b565b90612485565b905060025482600001518203106114d05760405162461bcd60e51b815260040161085a90612e2a565b428260200151116114f35760405162461bcd60e51b815260040161085a90612f1b565b808260200151106115165760405162461bcd60e51b815260040161085a90612f52565b600082604001511161153a5760405162461bcd60e51b815260040161085a90612dfa565b6115473385600084612085565b7fb8596b0e78133666b86648f60233cc2d078144d06df7874ea9f612a3ccc3e2fb338583604051610b3c93929190612cec565b600054600160a81b900460ff1681565b600081565b600d60205281600052604060002081815481106115ab57600080fd5b90600052602060002001600091509150505481565b60045481565b61098e338383610a3b565b60008083116115f25760405162461bcd60e51b815260040161085a90612ee4565b600082116116125760405162461bcd60e51b815260040161085a90612fc0565b50600480546001810190915560065461162b908361202b565b60065560075461163b908461202b565b60075560015460009061165a90611653908590612485565b429061202b565b60015490915061166e906114a18382611b1b565b905060025442820311156116945760405162461bcd60e51b815260040161085a90612e2a565b6116a033838684612085565b336000818152600d6020908152604080832080546001810182559084529190922001849055517f71fc552ee832a9004ea0bdb07cb6dd9d641eb2cb53b3cfe88c8fdcff886734a0916116f791859088908690612d0d565b60405180910390a15092915050565b60065481565b6000818152600a60205260408120548061172a5760009150506107eb565b6000838152600a602052604081208054600019840190811061174857fe5b90600052602060002090600302016040518060600160405290816000820154815260200160018201548152602001600282015481525050905060006117a061078561078084604001514261198390919063ffffffff16565b905061137c670de0b6b3a7640000828460000151136107b05760006107bc565b6001600160a01b0381166000908152600d602090815260409182902080548351818402810184019094528084526060939283018282801561182057602002820191906000526020600020905b81548152602001906001019080831161180c575b50505050509050919050565b6060600a6000838152602001908152602001600020805480602002602001604051908101604052809291908181526020016000905b828210156118b15783829060005260206000209060030201604051806060016040529081600082015481526020016001820154815260200160028201548152505081526020019060010190611861565b505050509050919050565b600f6020526000908152604090205460ff1681565b600081815260106020526040812061080a906124de565b60075481565b7ff0887ba65ee2024ea881d91b74c2450ef19e1557f03bed3ea9f16b037cbe2dc981565b60008281526010602052604090206002015461193090610534611f55565b6109e95760405162461bcd60e51b815260040180806020018281038252603081526020018061315e6030913960400191505060405180910390fd5b600e6020526000908152604090205481565b60015481565b60006112ec83836040518060400160405280601e81526020017f536166654d6174683a207375627472616374696f6e206f766572666c6f7700008152506124e9565b6000600160ff1b8210611a095760405162461bcd60e51b81526004018080602001828103825260288152602001806131f66028913960400191505060405180910390fd5b5090565b600082611a1c5750600061080a565b82600019148015611a305750600160ff1b82145b15611a6c5760405162461bcd60e51b81526004018080602001828103825260278152602001806131cf6027913960400191505060405180910390fd5b82820282848281611a7957fe5b05146112ec5760405162461bcd60e51b81526004018080602001828103825260278152602001806131cf6027913960400191505060405180910390fd5b6000818303818312801590611acb5750838113155b80611ae05750600083128015611ae057508381135b6112ec5760405162461bcd60e51b815260040180806020018281038252602481526020018061321e6024913960400191505060405180910390fd5b60006112ec83836040518060400160405280601a81526020017f536166654d6174683a206469766973696f6e206279207a65726f000000000000815250612580565b611b65612ad2565b600954429015611bbf57600980546000198101908110611b8157fe5b906000526020600020906003020160405180606001604052908160008201548152602001600182015481526020016002820154815250509150611bdf565b604051806060016040528060008152602001600081526020018281525091505b6001546040830151600091611bf8916114a19082611b1b565b90505b818114611d4d57611c20611c1a6001548361202b90919063ffffffff16565b836125e5565b6000818152600e6020526040808220549086015192935091611c4790610780908590611983565b9050611c6b611c63828760200151611a0d90919063ffffffff16565b865190611ab6565b85526020850151611c7c90836125fb565b60208601528451600012611c91576000611c94565b84515b85526020850151600012611ca9576000611caf565b84602001515b60208601908152604086018481526009805460018101825560009190915287517f6e1540171b6c0c960b71a7020d9f60077f6af931a8bbf590da0223dacf75c7af60039092029182015591517f6e1540171b6c0c960b71a7020d9f60077f6af931a8bbf590da0223dacf75c7b0830155517f6e1540171b6c0c960b71a7020d9f60077f6af931a8bbf590da0223dacf75c7b19091015550611bfb9050565b505090565b336000908152600b6020908152604080832084845282529182902082516080810184528154808252600183015493820193909352600282015493810193909352600301546060830152611db75760405162461bcd60e51b815260040161085a90613059565b42816020015110611dda5760405162461bcd60e51b815260040161085a90612ff7565b6000816040015111611dfe5760405162461bcd60e51b815260040161085a90612eb9565b6000604051806080016040528060008152602001600081526020016000815260200160008152509050611e318183612660565b604080830151336000818152600b60209081528482208883528152848220865181558187018051600180840191909155888801805160028086019190915560608b018051600396870155600c909652958990208a518155925191830191909155519381019390935590519181019190915554925163a9059cbb60e01b815291926001600160a01b03169163a9059cbb91611ecf918590600401612cd3565b602060405180830381600087803b158015611ee957600080fd5b505af1158015611efd573d6000803e3d6000fd5b505050506040513d601f19601f82011682018060405250810190611f219190612b7f565b507ff1206247bdd5e2e0cfc00bea4cf05fb8dc479ebee686f9549043179cc7013b30338583604051610b3c93929190612cec565b3390565b6000828152601060205260409020611f719082612856565b1561098e57611f7e611f55565b6001600160a01b0316816001600160a01b0316837f2f8788117e7eff1d82e926ec794901d17c78024a50270940304540a733656f0d60405160405180910390a45050565b6000828152601060205260409020611fda908261286b565b1561098e57611fe7611f55565b6001600160a01b0316816001600160a01b0316837ff6391f5c32d9c69d2a47ea670b442974b53935d1edc7fd64eb21e047a839171b60405160405180910390a45050565b6000828201838110156112ec576040805162461bcd60e51b815260206004820152601b60248201527f536166654d6174683a206164646974696f6e206f766572666c6f770000000000604482015290519081900360640190fd5b6008546001146120a75760405162461bcd60e51b815260040161085a90613027565b600060088190556001600160a01b0385168152600b60209081526040808320868452825291829020825160808082018552825482526001830154828501908152600284015483870190815260039094015460608085019182528751938401885284518452915195830195909552925194810185905292519183019190915291612130908561202b565b6040820152821561214357602081018390525b805161214d574281525b60608101516121735760055442111561216757600161216a565b60025b60ff1660608201525b61217d8183612660565b6001600160a01b0386166000908152600b6020908152604080832088845282528083208451815582850180516001808401919091558387018051600280860191909155606089018051600396870155600c90975294872088518155925191830191909155518184018190559351910155546122099161078091906107bc90670de0b6b3a7640000612485565b9050600061223161222a61078042866020015161198390919063ffffffff16565b8390611a0d565b905060006040518060600160405280612257866060015185611a0d90919063ffffffff16565b8152602001612273866060015186611a0d90919063ffffffff16565b81524260209182015260008a8152600a8252604080822080546001818101835591845292849020855160039485029091019081559385015190840155808401516002909301929092555490516323b872dd60e01b81529192506001600160a01b0316906323b872dd906122ee90339030908c90600401612c6e565b602060405180830381600087803b15801561230857600080fd5b505af115801561231c573d6000803e3d6000fd5b505050506040513d601f19601f820116820180604052508101906123409190612b7f565b61235c5760405162461bcd60e51b815260040161085a90612f89565b5050600160085550505050505050565b6000612376612ad2565b8354612385576000915061245d565b83546000905b808260010110156123df5760006123a760026107bc858561202b565b9050858782815481106123b657fe5b906000526020600020906003020160020154116123d5578092506123d9565b8091505b5061238b565b848683815481106123ec57fe5b9060005260206000209060030201600201541161245657600186838154811061241157fe5b9060005260206000209060030201806040518060600160405290816000820154815260200160018201548152602001600282015481525050905093509350505061245d565b6000935050505b9250929050565b60006112ec8383612880565b60006112ec836001600160a01b0384166128e4565b6000826124945750600061080a565b828202828482816124a157fe5b04146112ec5760405162461bcd60e51b815260040180806020018281038252602181526020018061318e6021913960400191505060405180910390fd5b600061080a826128fc565b600081848411156125785760405162461bcd60e51b81526004018080602001828103825283818151815260200191508051906020019080838360005b8381101561253d578181015183820152602001612525565b50505050905090810190601f16801561256a5780820380516001836020036101000a031916815260200191505b509250505060405180910390fd5b505050900390565b600081836125cf5760405162461bcd60e51b815260206004820181815283516024840152835190928392604490910191908501908083836000831561253d578181015183820152602001612525565b5060008385816125db57fe5b0495945050505050565b60008183106125f457816112ec565b5090919050565b60008282018183128015906126105750838112155b80612625575060008312801561262557508381125b6112ec5760405162461bcd60e51b815260040180806020018281038252602181526020018061313d6021913960400191505060405180910390fd5b604080516060808201835260008083526020808401829052838501829052845192830185528183528281018290529382015291840151429290831080156126ab575060008560400151115b15612703576126d86107806002546107bc670de0b6b3a7640000896040015161248590919063ffffffff16565b6020808401919091528501516126f690610785906107809086611983565b8252602085015160408301525b82846020015111801561271a575060008460400151115b1561277d576127476107806002546107bc670de0b6b3a7640000886040015161248590919063ffffffff16565b60208083019190915284015161277090612765906107809086611983565b602083015190611a0d565b8152602084015160408201525b6000612787611b5d565b825184519192506127a39161279b91611ab6565b8251906125fb565b8152602080830151908401516127c8916127bd9190611ab6565b6020830151906125fb565b602082015280516000126127dd5760006127e0565b80515b815260208101516000126127f55760006127fb565b80602001515b602082015260098054829190600019810190811061281557fe5b906000526020600020906003020160008201518160000155602082015181600101556040820151816002015590505061284e8383612900565b505050505050565b60006112ec836001600160a01b0384166129c2565b60006112ec836001600160a01b038416612a0c565b815460009082106128c25760405162461bcd60e51b81526004018080602001828103825260228152602001806130ca6022913960400191505060405180910390fd5b8260000182815481106128d157fe5b9060005260206000200154905092915050565b60009081526001919091016020526040902054151590565b5490565b6040808301516000908152600e60205281812054838301805183529290912054915190919042101561297657602083015161293c9082906125fb565b905083604001518360400151141561296157602084015161295e908290611ab6565b90505b6040808401516000908152600e602052208190555b428460400151118015612990575082604001518460400151115b156129bc5760208401516129a5908390611ab6565b6040808601516000908152600e6020522081905591505b50505050565b60006129ce83836128e4565b612a045750815460018181018455600084815260208082209093018490558454848252828601909352604090209190915561080a565b50600061080a565b60008181526001830160205260408120548015612ac85783546000198083019190810190600090879083908110612a3f57fe5b9060005260206000200154905080876000018481548110612a5c57fe5b600091825260208083209091019290925582815260018981019092526040902090840190558654879080612a8c57fe5b6001900381819060005260206000200160009055905586600101600087815260200190815260200160002060009055600194505050505061080a565b600091505061080a565b60405180606001604052806000815260200160008152602001600081525090565b80356001600160a01b03811681146107eb57600080fd5b600060208284031215612b1b578081fd5b6112ec82612af3565b60008060408385031215612b36578081fd5b612b3f83612af3565b946020939093013593505050565b600080600060608486031215612b61578081fd5b612b6a84612af3565b95602085013595506040909401359392505050565b600060208284031215612b90578081fd5b815180151581146112ec578182fd5b600060208284031215612bb0578081fd5b5035919050565b60008060408385031215612bc9578182fd5b82359150612bd960208401612af3565b90509250929050565b60008060408385031215612bf4578182fd5b50508035926020909101359150565b60008060008060008060c08789031215612c1b578182fd5b863595506020870135945060408701359350606087013560ff81168114612c40578283fd5b9598949750929560808101359460a0909101359350915050565b6001600160a01b0391909116815260200190565b6001600160a01b039384168152919092166020820152604081019190915260600190565b6001600160a01b0397881681529590961660208601526040850193909352606084019190915260ff16608083015260a082015260c081019190915260e00190565b6001600160a01b03929092168252602082015260400190565b6001600160a01b039390931683526020830191909152604082015260600190565b6001600160a01b0394909416845260208401929092526040830152606082015260800190565b602080825282518282018190526000919060409081850190868401855b82811015612d7f5781518051855286810151878601528501518585015260609093019290850190600101612d50565b5091979650505050505050565b6020808252825182820181905260009190848201906040850190845b81811015612dc457835183529284019291840191600101612da8565b50909695505050505050565b901515815260200190565b90815260200190565b9283526020830191909152604082015260600190565b6020808252601690820152754e6f206578697374696e67206c6f636b656420544f5360501b604082015260600190565b6020808252601a908201527f4d617820756e6c6f636b2074696d652069732033207965617273000000000000604082015260600190565b6020808252600f908201526e5f6c6f636b4964206973207a65726f60881b604082015260600190565b602080825260159082015274131bd8dac81d1a5b59481a5cc8199a5b9a5cda1959605a1b604082015260600190565b60208082526011908201527020b63932b0b23c903bb4ba34323930bbb760791b604082015260600190565b6020808252601f908201527f56616c7565206c6f636b65642073686f756c64206265206e6f6e2d7a65726f00604082015260600190565b6020808252601a908201527f4c6f636b2074696d6520616c72656164792066696e6973686564000000000000604082015260600190565b6020808252601d908201527f4e6577206c6f636b2074696d65206d7573742062652067726561746572000000604082015260600190565b6020808252601a908201527f4c6f636b544f533a206661696c207472616e7366657246726f6d000000000000604082015260600190565b6020808252601e908201527f556e6c6f636b20706572696f64206c657373207468616e2061207765656b0000604082015260600190565b602080825260169082015275131bd8dac81d1a5b59481b9bdd08199a5b9a5cda195960521b604082015260600190565b6020808252601890820152774c6f636b496420697320616c726561647920696e2075736560401b604082015260600190565b602080825260139082015272131bd8dac8191bd95cc81b9bdd08195e1a5cdd606a1b604082015260600190565b958652602086019490945260408501929092526060840152608083015260a082015260c00190565b9384526020840192909252604083015260608201526080019056fe456e756d657261626c655365743a20696e646578206f7574206f6620626f756e6473416363657373436f6e74726f6c3a2073656e646572206d75737420626520616e2061646d696e20746f206772616e7441636365737369626c653a2043616c6c6572206973206e6f7420616e2061646d696e5369676e6564536166654d6174683a206164646974696f6e206f766572666c6f77416363657373436f6e74726f6c3a2073656e646572206d75737420626520616e2061646d696e20746f207265766f6b65536166654d6174683a206d756c7469706c69636174696f6e206f766572666c6f77df8b4c520ffe197c5343c6f5aec59570151ef9a492f2c624fd45ddde6135ec425369676e6564536166654d6174683a206d756c7469706c69636174696f6e206f766572666c6f7753616665436173743a2076616c756520646f65736e27742066697420696e20616e20696e743235365369676e6564536166654d6174683a207375627472616374696f6e206f766572666c6f77416363657373436f6e74726f6c3a2063616e206f6e6c792072656e6f756e636520726f6c657320666f722073656c66a2646970667358221220197948168dc31f9a28bc278af3d9a8a5f0e926ddba7a47fe30ddfba4a222b95e64736f6c63430007060033",
  "linkReferences": {},
  "deployedLinkReferences": {}
}