{
  "_format": "hh-sol-artifact-1",
  "contractName": "LockTOSDividend",
  "sourceName": "contracts/stake/LockTOSDividend.sol",
  "abi": [
    {
      "anonymous": false,
      "inputs": [
        {
          "indexed": true,
          "internalType": "address",
          "name": "token",
          "type": "address"
        },
        {
          "indexed": false,
          "internalType": "uint256",
          "name": "amount",
          "type": "uint256"
        },
        {
          "indexed": false,
          "internalType": "uint256",
          "name": "timestamp",
          "type": "uint256"
        }
      ],
      "name": "Claim",
      "type": "event"
    },
    {
      "anonymous": false,
      "inputs": [
        {
          "indexed": true,
          "internalType": "address",
          "name": "token",
          "type": "address"
        },
        {
          "indexed": false,
          "internalType": "uint256",
          "name": "amount",
          "type": "uint256"
        }
      ],
      "name": "Distribute",
      "type": "event"
    },
    {
      "anonymous": false,
      "inputs": [
        {
          "indexed": true,
          "internalType": "address",
          "name": "token",
          "type": "address"
        },
        {
          "indexed": false,
          "internalType": "uint256",
          "name": "oldEpoch",
          "type": "uint256"
        },
        {
          "indexed": false,
          "internalType": "uint256",
          "name": "newEpoch",
          "type": "uint256"
        }
      ],
      "name": "Redistribute",
      "type": "event"
    },
    {
      "anonymous": false,
      "inputs": [
        {
          "indexed": true,
          "internalType": "bytes32",
          "name": "role",
          "type": "bytes32"
        },
        {
          "indexed": true,
          "internalType": "bytes32",
          "name": "previousAdminRole",
          "type": "bytes32"
        },
        {
          "indexed": true,
          "internalType": "bytes32",
          "name": "newAdminRole",
          "type": "bytes32"
        }
      ],
      "name": "RoleAdminChanged",
      "type": "event"
    },
    {
      "anonymous": false,
      "inputs": [
        {
          "indexed": true,
          "internalType": "bytes32",
          "name": "role",
          "type": "bytes32"
        },
        {
          "indexed": true,
          "internalType": "address",
          "name": "account",
          "type": "address"
        },
        {
          "indexed": true,
          "internalType": "address",
          "name": "sender",
          "type": "address"
        }
      ],
      "name": "RoleGranted",
      "type": "event"
    },
    {
      "anonymous": false,
      "inputs": [
        {
          "indexed": true,
          "internalType": "bytes32",
          "name": "role",
          "type": "bytes32"
        },
        {
          "indexed": true,
          "internalType": "address",
          "name": "account",
          "type": "address"
        },
        {
          "indexed": true,
          "internalType": "address",
          "name": "sender",
          "type": "address"
        }
      ],
      "name": "RoleRevoked",
      "type": "event"
    },
    {
      "inputs": [],
      "name": "ADMIN_ROLE",
      "outputs": [
        {
          "internalType": "bytes32",
          "name": "",
          "type": "bytes32"
        }
      ],
      "stateMutability": "view",
      "type": "function"
    },
    {
      "inputs": [],
      "name": "BURNER_ROLE",
      "outputs": [
        {
          "internalType": "bytes32",
          "name": "",
          "type": "bytes32"
        }
      ],
      "stateMutability": "view",
      "type": "function"
    },
    {
      "inputs": [],
      "name": "DEFAULT_ADMIN_ROLE",
      "outputs": [
        {
          "internalType": "bytes32",
          "name": "",
          "type": "bytes32"
        }
      ],
      "stateMutability": "view",
      "type": "function"
    },
    {
      "inputs": [],
      "name": "MINTER_ROLE",
      "outputs": [
        {
          "internalType": "bytes32",
          "name": "",
          "type": "bytes32"
        }
      ],
      "stateMutability": "view",
      "type": "function"
    },
    {
      "inputs": [
        {
          "internalType": "address",
          "name": "account",
          "type": "address"
        }
      ],
      "name": "addAdmin",
      "outputs": [],
      "stateMutability": "nonpayable",
      "type": "function"
    },
    {
      "inputs": [
        {
          "internalType": "address",
          "name": "_token",
          "type": "address"
        }
      ],
      "name": "claim",
      "outputs": [],
      "stateMutability": "nonpayable",
      "type": "function"
    },
    {
      "inputs": [
        {
          "internalType": "address[]",
          "name": "_tokens",
          "type": "address[]"
        }
      ],
      "name": "claimBatch",
      "outputs": [],
      "stateMutability": "nonpayable",
      "type": "function"
    },
    {
      "inputs": [
        {
          "internalType": "address",
          "name": "_token",
          "type": "address"
        },
        {
          "internalType": "uint256",
          "name": "_lockId",
          "type": "uint256"
        }
      ],
      "name": "claimStartWeeklyEpoch",
      "outputs": [
        {
          "internalType": "uint256",
          "name": "",
          "type": "uint256"
        }
      ],
      "stateMutability": "view",
      "type": "function"
    },
    {
      "inputs": [
        {
          "internalType": "address",
          "name": "_token",
          "type": "address"
        },
        {
          "internalType": "uint256",
          "name": "_timestamp",
          "type": "uint256"
        }
      ],
      "name": "claimUpTo",
      "outputs": [],
      "stateMutability": "nonpayable",
      "type": "function"
    },
    {
      "inputs": [
        {
          "internalType": "address",
          "name": "_account",
          "type": "address"
        },
        {
          "internalType": "address",
          "name": "_token",
          "type": "address"
        }
      ],
      "name": "claimable",
      "outputs": [
        {
          "internalType": "uint256",
          "name": "",
          "type": "uint256"
        }
      ],
      "stateMutability": "view",
      "type": "function"
    },
    {
      "inputs": [
        {
          "internalType": "address",
          "name": "_account",
          "type": "address"
        },
        {
          "internalType": "address",
          "name": "_token",
          "type": "address"
        },
        {
          "internalType": "uint256",
          "name": "_timeStart",
          "type": "uint256"
        },
        {
          "internalType": "uint256",
          "name": "_timeEnd",
          "type": "uint256"
        }
      ],
      "name": "claimableForPeriod",
      "outputs": [
        {
          "internalType": "uint256",
          "name": "",
          "type": "uint256"
        }
      ],
      "stateMutability": "view",
      "type": "function"
    },
    {
      "inputs": [
        {
          "internalType": "address",
          "name": "_token",
          "type": "address"
        },
        {
          "internalType": "uint256",
          "name": "_amount",
          "type": "uint256"
        }
      ],
      "name": "distribute",
      "outputs": [],
      "stateMutability": "nonpayable",
      "type": "function"
    },
    {
      "inputs": [
        {
          "internalType": "address",
          "name": "",
          "type": "address"
        }
      ],
      "name": "distributions",
      "outputs": [
        {
          "internalType": "uint256",
          "name": "totalDistribution",
          "type": "uint256"
        },
        {
          "internalType": "uint256",
          "name": "lastBalance",
          "type": "uint256"
        }
      ],
      "stateMutability": "view",
      "type": "function"
    },
    {
      "inputs": [],
      "name": "epochUnit",
      "outputs": [
        {
          "internalType": "uint256",
          "name": "",
          "type": "uint256"
        }
      ],
      "stateMutability": "view",
      "type": "function"
    },
    {
      "inputs": [],
      "name": "genesis",
      "outputs": [
        {
          "internalType": "uint256",
          "name": "",
          "type": "uint256"
        }
      ],
      "stateMutability": "view",
      "type": "function"
    },
    {
      "inputs": [],
      "name": "getCurrentWeeklyEpoch",
      "outputs": [
        {
          "internalType": "uint256",
          "name": "",
          "type": "uint256"
        }
      ],
      "stateMutability": "view",
      "type": "function"
    },
    {
      "inputs": [
        {
          "internalType": "bytes32",
          "name": "role",
          "type": "bytes32"
        }
      ],
      "name": "getRoleAdmin",
      "outputs": [
        {
          "internalType": "bytes32",
          "name": "",
          "type": "bytes32"
        }
      ],
      "stateMutability": "view",
      "type": "function"
    },
    {
      "inputs": [
        {
          "internalType": "bytes32",
          "name": "role",
          "type": "bytes32"
        },
        {
          "internalType": "uint256",
          "name": "index",
          "type": "uint256"
        }
      ],
      "name": "getRoleMember",
      "outputs": [
        {
          "internalType": "address",
          "name": "",
          "type": "address"
        }
      ],
      "stateMutability": "view",
      "type": "function"
    },
    {
      "inputs": [
        {
          "internalType": "bytes32",
          "name": "role",
          "type": "bytes32"
        }
      ],
      "name": "getRoleMemberCount",
      "outputs": [
        {
          "internalType": "uint256",
          "name": "",
          "type": "uint256"
        }
      ],
      "stateMutability": "view",
      "type": "function"
    },
    {
      "inputs": [
        {
          "internalType": "uint256",
          "name": "_timestamp",
          "type": "uint256"
        }
      ],
      "name": "getWeeklyEpoch",
      "outputs": [
        {
          "internalType": "uint256",
          "name": "",
          "type": "uint256"
        }
      ],
      "stateMutability": "view",
      "type": "function"
    },
    {
      "inputs": [
        {
          "internalType": "bytes32",
          "name": "role",
          "type": "bytes32"
        },
        {
          "internalType": "address",
          "name": "account",
          "type": "address"
        }
      ],
      "name": "grantRole",
      "outputs": [],
      "stateMutability": "nonpayable",
      "type": "function"
    },
    {
      "inputs": [
        {
          "internalType": "bytes32",
          "name": "role",
          "type": "bytes32"
        },
        {
          "internalType": "address",
          "name": "account",
          "type": "address"
        }
      ],
      "name": "hasRole",
      "outputs": [
        {
          "internalType": "bool",
          "name": "",
          "type": "bool"
        }
      ],
      "stateMutability": "view",
      "type": "function"
    },
    {
      "inputs": [
        {
          "internalType": "address",
          "name": "account",
          "type": "address"
        }
      ],
      "name": "isAdmin",
      "outputs": [
        {
          "internalType": "bool",
          "name": "",
          "type": "bool"
        }
      ],
      "stateMutability": "view",
      "type": "function"
    },
    {
      "inputs": [],
      "name": "lockTOS",
      "outputs": [
        {
          "internalType": "address",
          "name": "",
          "type": "address"
        }
      ],
      "stateMutability": "view",
      "type": "function"
    },
    {
      "inputs": [],
      "name": "migratedL2",
      "outputs": [
        {
          "internalType": "bool",
          "name": "",
          "type": "bool"
        }
      ],
      "stateMutability": "view",
      "type": "function"
    },
    {
      "inputs": [],
      "name": "pauseProxy",
      "outputs": [
        {
          "internalType": "bool",
          "name": "",
          "type": "bool"
        }
      ],
      "stateMutability": "view",
      "type": "function"
    },
    {
      "inputs": [
        {
          "internalType": "address",
          "name": "account",
          "type": "address"
        }
      ],
      "name": "removeAdmin",
      "outputs": [],
      "stateMutability": "nonpayable",
      "type": "function"
    },
    {
      "inputs": [
        {
          "internalType": "bytes32",
          "name": "role",
          "type": "bytes32"
        },
        {
          "internalType": "address",
          "name": "account",
          "type": "address"
        }
      ],
      "name": "renounceRole",
      "outputs": [],
      "stateMutability": "nonpayable",
      "type": "function"
    },
    {
      "inputs": [
        {
          "internalType": "bytes32",
          "name": "role",
          "type": "bytes32"
        },
        {
          "internalType": "address",
          "name": "account",
          "type": "address"
        }
      ],
      "name": "revokeRole",
      "outputs": [],
      "stateMutability": "nonpayable",
      "type": "function"
    },
    {
      "inputs": [],
      "name": "stakeRegistry",
      "outputs": [
        {
          "internalType": "address",
          "name": "",
          "type": "address"
        }
      ],
      "stateMutability": "view",
      "type": "function"
    },
    {
      "inputs": [
        {
          "internalType": "address",
          "name": "_token",
          "type": "address"
        },
        {
          "internalType": "uint256",
          "name": "_timestamp",
          "type": "uint256"
        }
      ],
      "name": "tokensPerWeekAt",
      "outputs": [
        {
          "internalType": "uint256",
          "name": "",
          "type": "uint256"
        }
      ],
      "stateMutability": "view",
      "type": "function"
    },
    {
      "inputs": [
        {
          "internalType": "address",
          "name": "newAdmin",
          "type": "address"
        }
      ],
      "name": "transferAdmin",
      "outputs": [],
      "stateMutability": "nonpayable",
      "type": "function"
    }
  ],
  "bytecode": "0x6080604052600160055534801561001557600080fd5b50611da8806100256000396000f3fe608060405234801561001057600080fd5b50600436106101f05760003560e01c806391d148541161010f578063d4abe717116100a2578063ed40055d11610071578063ed40055d146105e9578063eff79139146105f1578063fb9321081461060e578063fd2dcecf1461063a576101f0565b8063d4abe71714610519578063d539139314610589578063d547741f14610591578063e3ba18a5146105bd576101f0565b8063a7f0b3de116100de578063a7f0b3de1461048a578063bb1d03e314610492578063ca15c873146104ce578063d4570c1c146104eb576101f0565b806391d148541461040f5780639353b9df1461043b578063a1f5f50e1461047a578063a217fddf14610482576101f0565b80634e6c44661161018757806375829def1161015657806375829def1461039257806375b238fc146103b85780637b7eb2e2146103c05780639010d07c146103ec576101f0565b80634e6c44661461033857806363a8fd891461035c5780636830483514610364578063704802751461036c576101f0565b8063282c51f3116101c3578063282c51f3146102ac5780632f2ff15d146102b457806336568abe146102e05780634dfd60761461030c576101f0565b80631785f53c146101f55780631e83409a1461021d578063248a9ca31461024357806324d7806c14610272575b600080fd5b61021b6004803603602081101561020b57600080fd5b50356001600160a01b0316610642565b005b61021b6004803603602081101561023357600080fd5b50356001600160a01b03166106b3565b6102606004803603602081101561025957600080fd5b50356106bd565b60408051918252519081900360200190f35b6102986004803603602081101561028857600080fd5b50356001600160a01b03166106d2565b604080519115158252519081900360200190f35b610260610704565b61021b600480360360408110156102ca57600080fd5b50803590602001356001600160a01b0316610728565b61021b600480360360408110156102f657600080fd5b50803590602001356001600160a01b0316610794565b6102606004803603604081101561032257600080fd5b506001600160a01b0381351690602001356107f5565b610340610821565b604080516001600160a01b039092168252519081900360200190f35b610298610830565b610340610839565b61021b6004803603602081101561038257600080fd5b50356001600160a01b031661084d565b61021b600480360360208110156103a857600080fd5b50356001600160a01b03166108bb565b610260610a0c565b610260600480360360408110156103d657600080fd5b506001600160a01b038135169060200135610a30565b6103406004803603604081101561040257600080fd5b5080359060200135610a6c565b6102986004803603604081101561042557600080fd5b50803590602001356001600160a01b0316610a8b565b6104616004803603602081101561045157600080fd5b50356001600160a01b0316610aa3565b6040805192835260208301919091528051918290030190f35b610298610abc565b610260610ade565b610260610ae3565b610260600480360360808110156104a857600080fd5b506001600160a01b03813581169160208101359091169060408101359060600135610ae9565b610260600480360360208110156104e457600080fd5b5035610cb9565b6102606004803603604081101561050157600080fd5b506001600160a01b0381358116916020013516610cd0565b61021b6004803603602081101561052f57600080fd5b81019060208101813564010000000081111561054a57600080fd5b82018360208201111561055c57600080fd5b8035906020019184602083028401116401000000008311171561057e57600080fd5b509092509050610ce0565b610260610d1c565b61021b600480360360408110156105a757600080fd5b50803590602001356001600160a01b0316610d40565b61021b600480360360408110156105d357600080fd5b506001600160a01b038135169060200135610d99565b610260610e05565b6102606004803603602081101561060757600080fd5b5035610e15565b61021b6004803603604081101561062457600080fd5b506001600160a01b038135169060200135610e38565b610260611176565b61064b336106d2565b6106865760405162461bcd60e51b8152600401808060200182810382526022815260200180611cd16022913960400191505060405180910390fd5b6106b07fdf8b4c520ffe197c5343c6f5aec59570151ef9a492f2c624fd45ddde6135ec4282610794565b50565b6106b0814261117c565b60009081526006602052604090206002015490565b60006106fe7fdf8b4c520ffe197c5343c6f5aec59570151ef9a492f2c624fd45ddde6135ec4283610a8b565b92915050565b7f9667e80708b6eeeb0053fa0cca44e028ff548e2a9f029edfeac87c118b08b7c881565b60008281526006602052604090206002015461074b9061074661146e565b610a8b565b6107865760405162461bcd60e51b815260040180806020018281038252602f815260200180611ca2602f913960400191505060405180910390fd5b6107908282611472565b5050565b61079c61146e565b6001600160a01b0316816001600160a01b0316146107eb5760405162461bcd60e51b815260040180806020018281038252602f815260200180611d44602f913960400191505060405180910390fd5b61079082826114db565b6001600160a01b0391909116600090815260046020908152604080832093835260039093019052205490565b6002546001600160a01b031681565b60005460ff1681565b60005461010090046001600160a01b031681565b610856336106d2565b6108915760405162461bcd60e51b8152600401808060200182810382526022815260200180611cd16022913960400191505060405180910390fd5b6106b07fdf8b4c520ffe197c5343c6f5aec59570151ef9a492f2c624fd45ddde6135ec4282610728565b6108c4336106d2565b6108ff5760405162461bcd60e51b8152600401808060200182810382526022815260200180611cd16022913960400191505060405180910390fd5b6001600160a01b03811661095a576040805162461bcd60e51b815260206004820152601860248201527f41636365737369626c653a207a65726f20616464726573730000000000000000604482015290519081900360640190fd5b336001600160a01b03821614156109b8576040805162461bcd60e51b815260206004820152601660248201527f41636365737369626c653a2073616d652061646d696e00000000000000000000604482015290519081900360640190fd5b6109e27fdf8b4c520ffe197c5343c6f5aec59570151ef9a492f2c624fd45ddde6135ec4282610728565b6106b07fdf8b4c520ffe197c5343c6f5aec59570151ef9a492f2c624fd45ddde6135ec4233610794565b7fdf8b4c520ffe197c5343c6f5aec59570151ef9a492f2c624fd45ddde6135ec4281565b600080610a3c83610e15565b6001600160a01b038516600090815260046020908152604080832093835260029093019052205491505092915050565b6000828152600660205260408120610a849083611544565b9392505050565b6000828152600660205260408120610a849083611550565b6004602052600090815260409020805460019091015482565b6000547501000000000000000000000000000000000000000000900460ff1681565b600081565b60035481565b600080610af584610e15565b90506000610b0284610e15565b905080610b1457600092505050610cb1565b6002546040805163187f356b60e31b81526001600160a01b038a811660048301529151600093929092169163c3f9ab58916024808201928692909190829003018186803b158015610b6457600080fd5b505afa158015610b78573d6000803e3d6000fd5b505050506040513d6000823e601f3d908101601f191682016040526020811015610ba157600080fd5b8101908080516040519392919084640100000000821115610bc157600080fd5b908301906020820185811115610bd657600080fd5b8251866020820283011164010000000082111715610bf357600080fd5b82525081516020918201928201910280838360005b83811015610c20578181015183820152602001610c08565b505050509190910160409081526001600160a01b038d166000908152600460205290812095965094935084925050505b8351811015610ca8576000848281518110610c6757fe5b60200260200101519050610c9b8382610c958a87600301600087815260200190815260200160002054611565565b8961157c565b9093019250600101610c50565b50909450505050505b949350505050565b60008181526006602052604081206106fe906116a1565b6000610a84838360035442610ae9565b60005b81811015610d1757610d0f838383818110610cfa57fe5b905060200201356001600160a01b03166106b3565b600101610ce3565b505050565b7ff0887ba65ee2024ea881d91b74c2450ef19e1557f03bed3ea9f16b037cbe2dc981565b600082815260066020526040902060020154610d5e9061074661146e565b6107eb5760405162461bcd60e51b8152600401808060200182810382526030815260200180611cf36030913960400191505060405180910390fd5b6000610da9338460035485610ae9565b11610dfb576040805162461bcd60e51b815260206004820152601860248201527f436c61696d61626c6520616d6f756e74206973207a65726f0000000000000000604482015290519081900360640190fd5b610790828261117c565b6000610e1042610e15565b905090565b60006106fe600154610e32600354856116ac90919063ffffffff16565b906116ee565b600554600114610e8f576040805162461bcd60e51b815260206004820152601860248201527f4c6f636b496420697320616c726561647920696e207573650000000000000000604482015290519081900360640190fd5b60006005819055610e9e610e05565b90506000610ec3610eba6001548461173090919063ffffffff16565b60035490611789565b60025460408051630981b24d60e41b81526004810184905290519293506000926001600160a01b039092169163981b24d091602480820192602092909190829003018186803b158015610f1557600080fd5b505afa158015610f29573d6000803e3d6000fd5b505050506040513d6020811015610f3f57600080fd5b505111610f93576040805162461bcd60e51b815260206004820152601660248201527f4c4f434b544f5320646f6573206e6f7420657869737400000000000000000000604482015290519081900360640190fd5b6001600160a01b038416600081815260046020818152604080842081517f23b872dd00000000000000000000000000000000000000000000000000000000815233948101949094523060248501526044840189905290519094936323b872dd936064808201949392918390030190829087803b15801561101257600080fd5b505af1158015611026573d6000803e3d6000fd5b505050506040513d602081101561103c57600080fd5b5050604080517f70a0823100000000000000000000000000000000000000000000000000000000815230600482015290516000916001600160a01b038816916370a0823191602480820192602092909190829003018186803b1580156110a157600080fd5b505afa1580156110b5573d6000803e3d6000fd5b505050506040513d60208110156110cb57600080fd5b505160018301549091506000906110e39083906116ac565b6001840183905583549091506110f99082611789565b835560008581526002840160205260409020546111169082611789565b600086815260028501602090815260409182902092909255805188815290516001600160a01b038a16927fc1d32ad5cca423e7dda2123dbf8c482f8e77d00b631c06e903a47f2cec1334df928290030190a2505060016005555050505050565b60015481565b6005546001146111d3576040805162461bcd60e51b815260206004820152601860248201527f4c6f636b496420697320616c726561647920696e207573650000000000000000604482015290519081900360640190fd5b600060058190556111e382610e15565b6002546040805163187f356b60e31b815233600482015290519293506000926001600160a01b039092169163c3f9ab58916024808201928692909190829003018186803b15801561123357600080fd5b505afa158015611247573d6000803e3d6000fd5b505050506040513d6000823e601f3d908101601f19168201604052602081101561127057600080fd5b810190808051604051939291908464010000000082111561129057600080fd5b9083019060208201858111156112a557600080fd5b82518660208202830111640100000000821117156112c257600080fd5b82525081516020918201928201910280838360005b838110156112ef5781810151838201526020016112d7565b5050505090500160405250505090506000805b8251811015611335576113298684838151811061131b57fe5b6020026020010151866117e3565b90910190600101611302565b506000811161138b576040805162461bcd60e51b815260206004820152601c60248201527f416d6f756e7420746f20626520636c61696d6564206973207a65726f00000000604482015290519081900360640190fd5b604080517fa9059cbb0000000000000000000000000000000000000000000000000000000081523360048201526024810183905290516001600160a01b0387169163a9059cbb9160448083019260209291908290030181600087803b1580156113f357600080fd5b505af1158015611407573d6000803e3d6000fd5b505050506040513d602081101561141d57600080fd5b5050604080518281526020810186905281516001600160a01b038816927f34fcbac0073d7c3d388e51312faf357774904998eeb8fca628b9e6f65ee1cbf7928290030190a250506001600555505050565b3390565b600082815260066020526040902061148a908261184c565b156107905761149761146e565b6001600160a01b0316816001600160a01b0316837f2f8788117e7eff1d82e926ec794901d17c78024a50270940304540a733656f0d60405160405180910390a45050565b60008281526006602052604090206114f39082611861565b156107905761150061146e565b6001600160a01b0316816001600160a01b0316837ff6391f5c32d9c69d2a47ea670b442974b53935d1edc7fd64eb21e047a839171b60405160405180910390a45050565b6000610a848383611876565b6000610a84836001600160a01b0384166118da565b6000818310156115755781610a84565b5090919050565b600254604080517f9ce56305000000000000000000000000000000000000000000000000000000008152600481018690529051600092839283926001600160a01b0390921691639ce5630591602480820192606092909190829003018186803b1580156115e857600080fd5b505afa1580156115fc573d6000803e3d6000fd5b505050506040513d606081101561161257600080fd5b508051602090910151909250905060006116348661162f85610e15565b611565565b9050600061164a8661164585610e15565b6118f2565b905060005b818311611694576116806116798a858d600201600088815260200190815260200160002054611901565b8290611789565b905061168d836001611789565b925061164f565b9998505050505050505050565b60006106fe82611a6f565b6000610a8483836040518060400160405280601e81526020017f536166654d6174683a207375627472616374696f6e206f766572666c6f770000815250611a73565b6000610a8483836040518060400160405280601a81526020017f536166654d6174683a206469766973696f6e206279207a65726f000000000000815250611b0a565b60008261173f575060006106fe565b8282028284828161174c57fe5b0414610a845760405162461bcd60e51b8152600401808060200182810382526021815260200180611d236021913960400191505060405180910390fd5b600082820183811015610a84576040805162461bcd60e51b815260206004820152601b60248201527f536166654d6174683a206164646974696f6e206f766572666c6f770000000000604482015290519081900360640190fd5b6001600160a01b03831660009081526004602090815260408083208584526003810190925282205461181990829086908661157c565b9150611826836001611789565b6000858152600383016020526040902055805461184390836116ac565b90559392505050565b6000610a84836001600160a01b038416611b6f565b6000610a84836001600160a01b038416611bb9565b815460009082106118b85760405162461bcd60e51b8152600401808060200182810382526022815260200180611c806022913960400191505060405180910390fd5b8260000182815481106118c757fe5b9060005260206000200154905092915050565b60009081526001919091016020526040902054151590565b60008183106115755781610a84565b60008061191c610eba6001548661173090919063ffffffff16565b600254604080517f642cf649000000000000000000000000000000000000000000000000000000008152600481018990526024810184905290519293506000926001600160a01b039092169163642cf64991604480820192602092909190829003018186803b15801561198e57600080fd5b505afa1580156119a2573d6000803e3d6000fd5b505050506040513d60208110156119b857600080fd5b505160025460408051630981b24d60e41b81526004810186905290519293506000926001600160a01b039092169163981b24d091602480820192602092909190829003018186803b158015611a0c57600080fd5b505afa158015611a20573d6000803e3d6000fd5b505050506040513d6020811015611a3657600080fd5b50519050811580611a45575080155b15611a565760009350505050610a84565b611a6481610e328785611730565b979650505050505050565b5490565b60008184841115611b025760405162461bcd60e51b81526004018080602001828103825283818151815260200191508051906020019080838360005b83811015611ac7578181015183820152602001611aaf565b50505050905090810190601f168015611af45780820380516001836020036101000a031916815260200191505b509250505060405180910390fd5b505050900390565b60008183611b595760405162461bcd60e51b8152602060048201818152835160248401528351909283926044909101919085019080838360008315611ac7578181015183820152602001611aaf565b506000838581611b6557fe5b0495945050505050565b6000611b7b83836118da565b611bb1575081546001818101845560008481526020808220909301849055845484825282860190935260409020919091556106fe565b5060006106fe565b60008181526001830160205260408120548015611c755783546000198083019190810190600090879083908110611bec57fe5b9060005260206000200154905080876000018481548110611c0957fe5b600091825260208083209091019290925582815260018981019092526040902090840190558654879080611c3957fe5b600190038181906000526020600020016000905590558660010160008781526020019081526020016000206000905560019450505050506106fe565b60009150506106fe56fe456e756d657261626c655365743a20696e646578206f7574206f6620626f756e6473416363657373436f6e74726f6c3a2073656e646572206d75737420626520616e2061646d696e20746f206772616e7441636365737369626c653a2043616c6c6572206973206e6f7420616e2061646d696e416363657373436f6e74726f6c3a2073656e646572206d75737420626520616e2061646d696e20746f207265766f6b65536166654d6174683a206d756c7469706c69636174696f6e206f766572666c6f77416363657373436f6e74726f6c3a2063616e206f6e6c792072656e6f756e636520726f6c657320666f722073656c66a26469706673582212202ef50089c601a91e30fa075b9a89571fc6fbcb70c9724257162ecf065bb9ad1f64736f6c63430007060033",
  "linkReferences": {},
  "deployedLinkReferences": {}
}