{
  "contractName": "ProjectManagerLogic1",
  "abi": [
    {
      "anonymous": false,
      "inputs": [
        {
          "indexed": true,
          "internalType": "bytes32",
          "name": "role",
          "type": "bytes32"
        },
        {
          "indexed": true,
          "internalType": "bytes32",
          "name": "previousAdminRole",
          "type": "bytes32"
        },
        {
          "indexed": true,
          "internalType": "bytes32",
          "name": "newAdminRole",
          "type": "bytes32"
        }
      ],
      "name": "RoleAdminChanged",
      "type": "event"
    },
    {
      "anonymous": false,
      "inputs": [
        {
          "indexed": true,
          "internalType": "bytes32",
          "name": "role",
          "type": "bytes32"
        },
        {
          "indexed": true,
          "internalType": "address",
          "name": "account",
          "type": "address"
        },
        {
          "indexed": true,
          "internalType": "address",
          "name": "sender",
          "type": "address"
        }
      ],
      "name": "RoleGranted",
      "type": "event"
    },
    {
      "anonymous": false,
      "inputs": [
        {
          "indexed": true,
          "internalType": "bytes32",
          "name": "role",
          "type": "bytes32"
        },
        {
          "indexed": true,
          "internalType": "address",
          "name": "account",
          "type": "address"
        },
        {
          "indexed": true,
          "internalType": "address",
          "name": "sender",
          "type": "address"
        }
      ],
      "name": "RoleRevoked",
      "type": "event"
    },
    {
      "inputs": [],
      "name": "ADMIN_ROLE",
      "outputs": [
        {
          "internalType": "bytes32",
          "name": "",
          "type": "bytes32"
        }
      ],
      "stateMutability": "view",
      "type": "function"
    },
    {
      "inputs": [],
      "name": "DEFAULT_ADMIN_ROLE",
      "outputs": [
        {
          "internalType": "bytes32",
          "name": "",
          "type": "bytes32"
        }
      ],
      "stateMutability": "view",
      "type": "function"
    },
    {
      "inputs": [],
      "name": "airdropVault",
      "outputs": [
        {
          "internalType": "address",
          "name": "",
          "type": "address"
        }
      ],
      "stateMutability": "view",
      "type": "function"
    },
    {
      "inputs": [],
      "name": "defaultAirdrop",
      "outputs": [
        {
          "internalType": "uint256",
          "name": "",
          "type": "uint256"
        }
      ],
      "stateMutability": "view",
      "type": "function"
    },
    {
      "inputs": [],
      "name": "defaultStakingPeriod",
      "outputs": [
        {
          "internalType": "uint256",
          "name": "",
          "type": "uint256"
        }
      ],
      "stateMutability": "view",
      "type": "function"
    },
    {
      "inputs": [],
      "name": "fld",
      "outputs": [
        {
          "internalType": "address",
          "name": "",
          "type": "address"
        }
      ],
      "stateMutability": "view",
      "type": "function"
    },
    {
      "inputs": [],
      "name": "fldRewardVault",
      "outputs": [
        {
          "internalType": "address",
          "name": "",
          "type": "address"
        }
      ],
      "stateMutability": "view",
      "type": "function"
    },
    {
      "inputs": [
        {
          "internalType": "bytes32",
          "name": "role",
          "type": "bytes32"
        }
      ],
      "name": "getRoleAdmin",
      "outputs": [
        {
          "internalType": "bytes32",
          "name": "",
          "type": "bytes32"
        }
      ],
      "stateMutability": "view",
      "type": "function"
    },
    {
      "inputs": [
        {
          "internalType": "bytes32",
          "name": "role",
          "type": "bytes32"
        },
        {
          "internalType": "uint256",
          "name": "index",
          "type": "uint256"
        }
      ],
      "name": "getRoleMember",
      "outputs": [
        {
          "internalType": "address",
          "name": "",
          "type": "address"
        }
      ],
      "stateMutability": "view",
      "type": "function"
    },
    {
      "inputs": [
        {
          "internalType": "bytes32",
          "name": "role",
          "type": "bytes32"
        }
      ],
      "name": "getRoleMemberCount",
      "outputs": [
        {
          "internalType": "uint256",
          "name": "",
          "type": "uint256"
        }
      ],
      "stateMutability": "view",
      "type": "function"
    },
    {
      "inputs": [
        {
          "internalType": "bytes32",
          "name": "role",
          "type": "bytes32"
        },
        {
          "internalType": "address",
          "name": "account",
          "type": "address"
        }
      ],
      "name": "grantRole",
      "outputs": [],
      "stateMutability": "nonpayable",
      "type": "function"
    },
    {
      "inputs": [
        {
          "internalType": "bytes32",
          "name": "role",
          "type": "bytes32"
        },
        {
          "internalType": "address",
          "name": "account",
          "type": "address"
        }
      ],
      "name": "hasRole",
      "outputs": [
        {
          "internalType": "bool",
          "name": "",
          "type": "bool"
        }
      ],
      "stateMutability": "view",
      "type": "function"
    },
    {
      "inputs": [],
      "name": "projectDevVaultFactory",
      "outputs": [
        {
          "internalType": "address",
          "name": "",
          "type": "address"
        }
      ],
      "stateMutability": "view",
      "type": "function"
    },
    {
      "inputs": [],
      "name": "projectFactory",
      "outputs": [
        {
          "internalType": "address",
          "name": "",
          "type": "address"
        }
      ],
      "stateMutability": "view",
      "type": "function"
    },
    {
      "inputs": [
        {
          "internalType": "uint256",
          "name": "",
          "type": "uint256"
        }
      ],
      "name": "projectId",
      "outputs": [
        {
          "internalType": "uint256",
          "name": "",
          "type": "uint256"
        }
      ],
      "stateMutability": "view",
      "type": "function"
    },
    {
      "inputs": [],
      "name": "projectRegistry",
      "outputs": [
        {
          "internalType": "address",
          "name": "",
          "type": "address"
        }
      ],
      "stateMutability": "view",
      "type": "function"
    },
    {
      "inputs": [],
      "name": "projectStakeVaultFactory",
      "outputs": [
        {
          "internalType": "address",
          "name": "",
          "type": "address"
        }
      ],
      "stateMutability": "view",
      "type": "function"
    },
    {
      "inputs": [],
      "name": "projectTokenFactory",
      "outputs": [
        {
          "internalType": "address",
          "name": "",
          "type": "address"
        }
      ],
      "stateMutability": "view",
      "type": "function"
    },
    {
      "inputs": [
        {
          "internalType": "bytes32",
          "name": "role",
          "type": "bytes32"
        },
        {
          "internalType": "address",
          "name": "account",
          "type": "address"
        }
      ],
      "name": "renounceRole",
      "outputs": [],
      "stateMutability": "nonpayable",
      "type": "function"
    },
    {
      "inputs": [
        {
          "internalType": "bytes32",
          "name": "role",
          "type": "bytes32"
        },
        {
          "internalType": "address",
          "name": "account",
          "type": "address"
        }
      ],
      "name": "revokeRole",
      "outputs": [],
      "stateMutability": "nonpayable",
      "type": "function"
    },
    {
      "inputs": [
        {
          "internalType": "address",
          "name": "_fld",
          "type": "address"
        },
        {
          "internalType": "address",
          "name": "_projectRegistry",
          "type": "address"
        },
        {
          "internalType": "address",
          "name": "_projectFactory",
          "type": "address"
        },
        {
          "internalType": "address",
          "name": "_projectTokenFactory",
          "type": "address"
        },
        {
          "internalType": "address",
          "name": "_projectStakeVaultFactory",
          "type": "address"
        },
        {
          "internalType": "address",
          "name": "_projectDevVaultFactory",
          "type": "address"
        }
      ],
      "name": "setStore",
      "outputs": [],
      "stateMutability": "nonpayable",
      "type": "function"
    },
    {
      "inputs": [
        {
          "internalType": "string",
          "name": "_projectName",
          "type": "string"
        },
        {
          "internalType": "string",
          "name": "_tokenName",
          "type": "string"
        },
        {
          "internalType": "string",
          "name": "_symbol",
          "type": "string"
        },
        {
          "internalType": "uint256",
          "name": "_totalSupply",
          "type": "uint256"
        },
        {
          "internalType": "uint256",
          "name": "_tokenPrice",
          "type": "uint256"
        },
        {
          "internalType": "uint256",
          "name": "_startBlock",
          "type": "uint256"
        }
      ],
      "name": "createProject",
      "outputs": [],
      "stateMutability": "nonpayable",
      "type": "function"
    },
    {
      "inputs": [],
      "name": "payCreateProjectFee",
      "outputs": [
        {
          "internalType": "bool",
          "name": "",
          "type": "bool"
        }
      ],
      "stateMutability": "pure",
      "type": "function"
    },
    {
      "inputs": [
        {
          "internalType": "address",
          "name": "_fld",
          "type": "address"
        }
      ],
      "name": "setFLD",
      "outputs": [],
      "stateMutability": "nonpayable",
      "type": "function"
    },
    {
      "inputs": [
        {
          "internalType": "address",
          "name": "_fldRewardVault",
          "type": "address"
        }
      ],
      "name": "setFLDRewardVault",
      "outputs": [],
      "stateMutability": "nonpayable",
      "type": "function"
    },
    {
      "inputs": [
        {
          "internalType": "address",
          "name": "_airdropVault",
          "type": "address"
        }
      ],
      "name": "setAirdropVault",
      "outputs": [],
      "stateMutability": "nonpayable",
      "type": "function"
    },
    {
      "inputs": [
        {
          "internalType": "uint256",
          "name": "_defaultStakingPeriod",
          "type": "uint256"
        }
      ],
      "name": "setDefaultStakingPeriod",
      "outputs": [],
      "stateMutability": "nonpayable",
      "type": "function"
    },
    {
      "inputs": [
        {
          "internalType": "uint256",
          "name": "_defaultAirdrop",
          "type": "uint256"
        }
      ],
      "name": "setDefaultAirdrop",
      "outputs": [],
      "stateMutability": "nonpayable",
      "type": "function"
    },
    {
      "inputs": [
        {
          "internalType": "address",
          "name": "_projectRegistry",
          "type": "address"
        }
      ],
      "name": "setProjectRegistry",
      "outputs": [],
      "stateMutability": "nonpayable",
      "type": "function"
    },
    {
      "inputs": [
        {
          "internalType": "address",
          "name": "_projectFactory",
          "type": "address"
        }
      ],
      "name": "setProjectFactory",
      "outputs": [],
      "stateMutability": "nonpayable",
      "type": "function"
    }
  ],
  "bytecode": "0x608060405234801561001057600080fd5b50611810806100206000396000f3fe608060405234801561001057600080fd5b50600436106101da5760003560e01c806375b238fc11610104578063ae133556116100a2578063d0e95fd311610071578063d0e95fd31461037b578063d185a66b1461038e578063d547741f146103a1578063e4e67290146103b4576101da565b8063ae1335561461033a578063b62204cf1461034d578063b70217a614610360578063ca15c87314610368576101da565b806391507bdb116100de57806391507bdb146102f757806391d148541461030a57806397f519741461032a578063a217fddf14610332576101da565b806375b238fc146102c95780637c39a13e146102d15780639010d07c146102e4576101da565b806342b830441161017c5780635a33d8dc1161014b5780635a33d8dc1461029e5780635b7884ad146102a65780635fe68f47146102ae578063612093a4146102c1576101da565b806342b830441461025d5780634dd1f8161461026557806350b6cfb81461027857806358a774be1461028b576101da565b806332c90099116101b857806332c900991461022557806333bd2a491461023a57806336568abe1461024257806341c6164f14610255576101da565b8063248a9ca3146101df57806327cfa314146102085780632f2ff15d14610210575b600080fd5b6101f26101ed366004611231565b6103bc565b6040516101ff91906113a3565b60405180910390f35b6101f26103d1565b61022361021e366004611249565b6103d7565b005b61022d61043e565b6040516101ff9190611384565b61022d61044d565b610223610250366004611249565b61045c565b61022d6104bd565b6101f26104cc565b6101f2610273366004611231565b6104d2565b610223610286366004611171565b6104f3565b6102236102993660046111b0565b61057a565b61022d61070d565b61022d61071c565b6102236102bc366004611299565b61072b565b61022d610a2c565b6101f2610a3b565b6102236102df366004611231565b610a4d565b61022d6102f2366004611278565b610ab4565b610223610305366004611171565b610ad5565b61031d610318366004611249565b610b81565b6040516101ff9190611398565b61022d610b99565b6101f2610ba8565b610223610348366004611171565b610bad565b61022361035b366004611231565b610c59565b61022d610cc0565b6101f2610376366004611231565b610ccf565b610223610389366004611171565b610ce6565b61022361039c366004611171565b610d64565b6102236103af366004611249565b610de2565b61031d610e3b565b6000908152600b602052604090206002015490565b60085481565b6000828152600b60205260409020600201546103f590610318610e40565b6104305760405162461bcd60e51b815260040180806020018281038252602f81526020018061172d602f913960400191505060405180910390fd5b61043a8282610e44565b5050565b6007546001600160a01b031681565b6005546001600160a01b031681565b610464610e40565b6001600160a01b0316816001600160a01b0316146104b35760405162461bcd60e51b815260040180806020018281038252602f8152602001806117ac602f913960400191505060405180910390fd5b61043a8282610ead565b6006546001600160a01b031681565b60095481565b600a81815481106104e257600080fd5b600091825260209091200154905081565b61050b60008051602061178c83398151915233610b81565b6105305760405162461bcd60e51b81526004016105279061154b565b60405180910390fd5b806001600160a01b0381166105575760405162461bcd60e51b815260040161052790611441565b50600080546001600160a01b0319166001600160a01b0392909216919091179055565b61059260008051602061178c83398151915233610b81565b6105ae5760405162461bcd60e51b81526004016105279061154b565b856001600160a01b0381166105d55760405162461bcd60e51b815260040161052790611441565b856001600160a01b0381166105fc5760405162461bcd60e51b815260040161052790611441565b856001600160a01b0381166106235760405162461bcd60e51b815260040161052790611441565b856001600160a01b03811661064a5760405162461bcd60e51b815260040161052790611441565b856001600160a01b0381166106715760405162461bcd60e51b815260040161052790611441565b856001600160a01b0381166106985760405162461bcd60e51b815260040161052790611441565b5050600580546001600160a01b03199081166001600160a01b039c8d16179091556000805482169a8c169a909a17909955505060018054881696891696909617909555506002805486169387169390931790925560038054851691861691909117905560048054909316931692909217905550565b6000546001600160a01b031681565b6003546001600160a01b031681565b6000546001600160a01b0316806107545760405162461bcd60e51b815260040161052790611441565b6000600854116107765760405162461bcd60e51b8152600401610527906114ba565b61077e610e3b565b61079a5760405162461bcd60e51b8152600401610527906113f3565b6000869050600086905060008490506000600854860190506000600a8054905060010190506000600160009054906101000a90046001600160a01b03166001600160a01b031663d400b4f3838f87878e3360008e8e6040518a63ffffffff1660e01b815260040161081399989796959493929190611673565b602060405180830381600087803b15801561082d57600080fd5b505af1158015610841573d6000803e3d6000fd5b505050506040513d601f19601f820116820180604052508101906108659190611194565b90506001600160a01b03811661088d5760405162461bcd60e51b815260040161052790611509565b6000600260009054906101000a90046001600160a01b03166001600160a01b031663c3136aa888888e866040518563ffffffff1660e01b81526004016108d694939291906113ac565b602060405180830381600087803b1580156108f057600080fd5b505af1158015610904573d6000803e3d6000fd5b505050506040513d601f19601f820116820180604052508101906109289190611194565b90506001600160a01b0381166109505760405162461bcd60e51b8152600401610527906115cc565b60405163144fa6d760e01b81526001600160a01b0383169063144fa6d79061097c908490600401611384565b600060405180830381600087803b15801561099657600080fd5b505af11580156109aa573d6000803e3d6000fd5b505060005460405163b112a8b960e01b81526001600160a01b03909116925063b112a8b991506109ea90869086908a908a9088908f908f90600401611613565b600060405180830381600087803b158015610a0457600080fd5b505af1158015610a18573d6000803e3d6000fd5b505050505050505050505050505050505050565b6002546001600160a01b031681565b60008051602061178c83398151915281565b610a6560008051602061178c83398151915233610b81565b610a815760405162461bcd60e51b81526004016105279061154b565b600081118015610a9357508060095414155b610aaf5760405162461bcd60e51b815260040161052790611597565b600955565b6000828152600b60205260408120610acc9083610f16565b90505b92915050565b610aed60008051602061178c83398151915233610b81565b610b095760405162461bcd60e51b81526004016105279061154b565b806001600160a01b038116610b305760405162461bcd60e51b815260040161052790611441565b6007546001600160a01b0383811691161415610b5e5760405162461bcd60e51b815260040161052790611483565b50600780546001600160a01b0319166001600160a01b0392909216919091179055565b6000828152600b60205260408120610acc9083610f22565b6001546001600160a01b031681565b600081565b610bc560008051602061178c83398151915233610b81565b610be15760405162461bcd60e51b81526004016105279061154b565b806001600160a01b038116610c085760405162461bcd60e51b815260040161052790611441565b6006546001600160a01b0383811691161415610c365760405162461bcd60e51b815260040161052790611483565b50600680546001600160a01b0319166001600160a01b0392909216919091179055565b610c7160008051602061178c83398151915233610b81565b610c8d5760405162461bcd60e51b81526004016105279061154b565b600081118015610c9f57508060085414155b610cbb5760405162461bcd60e51b815260040161052790611597565b600855565b6004546001600160a01b031681565b6000818152600b60205260408120610acf90610f37565b610cfe60008051602061178c83398151915233610b81565b610d1a5760405162461bcd60e51b81526004016105279061154b565b806001600160a01b038116610d415760405162461bcd60e51b815260040161052790611441565b50600180546001600160a01b0319166001600160a01b0392909216919091179055565b610d7c60008051602061178c83398151915233610b81565b610d985760405162461bcd60e51b81526004016105279061154b565b806001600160a01b038116610dbf5760405162461bcd60e51b815260040161052790611441565b50600580546001600160a01b0319166001600160a01b0392909216919091179055565b6000828152600b6020526040902060020154610e0090610318610e40565b6104b35760405162461bcd60e51b815260040180806020018281038252603081526020018061175c6030913960400191505060405180910390fd5b600190565b3390565b6000828152600b60205260409020610e5c9082610f42565b1561043a57610e69610e40565b6001600160a01b0316816001600160a01b0316837f2f8788117e7eff1d82e926ec794901d17c78024a50270940304540a733656f0d60405160405180910390a45050565b6000828152600b60205260409020610ec59082610f57565b1561043a57610ed2610e40565b6001600160a01b0316816001600160a01b0316837ff6391f5c32d9c69d2a47ea670b442974b53935d1edc7fd64eb21e047a839171b60405160405180910390a45050565b6000610acc8383610f6c565b6000610acc836001600160a01b038416610fd0565b6000610acf82610fe8565b6000610acc836001600160a01b038416610fec565b6000610acc836001600160a01b038416611036565b81546000908210610fae5760405162461bcd60e51b815260040180806020018281038252602281526020018061170b6022913960400191505060405180910390fd5b826000018281548110610fbd57fe5b9060005260206000200154905092915050565b60009081526001919091016020526040902054151590565b5490565b6000610ff88383610fd0565b61102e57508154600181810184556000848152602080822090930184905584548482528286019093526040902091909155610acf565b506000610acf565b600081815260018301602052604081205480156110f2578354600019808301919081019060009087908390811061106957fe5b906000526020600020015490508087600001848154811061108657fe5b6000918252602080832090910192909255828152600189810190925260409020908401905586548790806110b657fe5b60019003818190600052602060002001600090559055866001016000878152602001908152602001600020600090556001945050505050610acf565b6000915050610acf565b600082601f83011261110c578081fd5b813567ffffffffffffffff8082111561112157fe5b604051601f8301601f19168101602001828111828210171561113f57fe5b604052828152848301602001861015611156578384fd5b82602086016020830137918201602001929092529392505050565b600060208284031215611182578081fd5b813561118d816116f2565b9392505050565b6000602082840312156111a5578081fd5b815161118d816116f2565b60008060008060008060c087890312156111c8578182fd5b86356111d3816116f2565b955060208701356111e3816116f2565b945060408701356111f3816116f2565b93506060870135611203816116f2565b92506080870135611213816116f2565b915060a0870135611223816116f2565b809150509295509295509295565b600060208284031215611242578081fd5b5035919050565b6000806040838503121561125b578182fd5b82359150602083013561126d816116f2565b809150509250929050565b6000806040838503121561128a578182fd5b50508035926020909101359150565b60008060008060008060c087890312156112b1578182fd5b863567ffffffffffffffff808211156112c8578384fd5b6112d48a838b016110fc565b975060208901359150808211156112e9578384fd5b6112f58a838b016110fc565b9650604089013591508082111561130a578384fd5b5061131789828a016110fc565b945050606087013592506080870135915060a087013590509295509295509295565b60008151808452815b8181101561135e57602081850181015186830182015201611342565b8181111561136f5782602083870101525b50601f01601f19169290920160200192915050565b6001600160a01b0391909116815260200190565b901515815260200190565b90815260200190565b6000608082526113bf6080830187611339565b82810360208401526113d18187611339565b604084019590955250506001600160a01b039190911660609091015292915050565b6020808252602e908201527f50726f6a6563744d616e616765724c6f676963313a207061794372656174655060408201526d1c9bda9958dd1199594819985a5b60921b606082015260800190565b60208082526022908201527f50726f6a6563744d616e616765724c6f676963313a207a65726f206164647265604082015261737360f01b606082015260800190565b6020808252601a908201527f50726f6a6563744d616e616765724c6f676963313a2073616d65000000000000604082015260600190565b6020808252602f908201527f50726f6a6563744d616e616765724c6f676963313a2064656661756c7453746160408201526e6b696e67506572696f64207a65726f60881b606082015260800190565b60208082526022908201527f50726f6a6563744d616e616765724c6f676963313a2070726f6a656374207a65604082015261726f60f01b606082015260800190565b6020808252602c908201527f50726f6a6563744d616e616765724c6f676963313a2043616c6c65722069732060408201526b3737ba1030b71030b236b4b760a11b606082015260800190565b6020808252818101527f50726f6a6563744d616e616765724c6f676963313a20696e707574207a65726f604082015260600190565b60208082526027908201527f50726f6a6563744d616e616765724c6f676963313a2070726f6a656374546f6b604082015266656e207a65726f60c81b606082015260800190565b8781526001600160a01b03878116602083015260408201879052606082018690528416608082015260e060a0820181905260009061165390830185611339565b82810360c08401526116658185611339565b9a9950505050505050505050565b60006101208b835280602084015261168d8184018c611339565b604084018b9052606084018a9052608084018990526001600160a01b0388811660a0860152871660c085015283810360e085015290506116cd8186611339565b90508281036101008401526116e28185611339565b9c9b505050505050505050505050565b6001600160a01b038116811461170757600080fd5b5056fe456e756d657261626c655365743a20696e646578206f7574206f6620626f756e6473416363657373436f6e74726f6c3a2073656e646572206d75737420626520616e2061646d696e20746f206772616e74416363657373436f6e74726f6c3a2073656e646572206d75737420626520616e2061646d696e20746f207265766f6b65df8b4c520ffe197c5343c6f5aec59570151ef9a492f2c624fd45ddde6135ec42416363657373436f6e74726f6c3a2063616e206f6e6c792072656e6f756e636520726f6c657320666f722073656c66a2646970667358221220854948a8306a85df08aedbf6a789b84421cb65e63631e5fb91d375f76295d45c64736f6c63430007060033",
  "immutableReferences": {},
  "source": "// SPDX-License-Identifier: MIT\npragma solidity ^0.7.6;\npragma abicoder v2;\n\nimport {SafeMath} from \"../utils/math/SafeMath.sol\";\nimport {LibProject} from \"../libraries/LibProject.sol\";\n\nimport \"./ProjectManagerStorage.sol\";\nimport \"@openzeppelin/contracts/access/AccessControl.sol\";\n\nimport {IProject} from \"../interfaces/IProject.sol\";\nimport {IProjectFactory} from \"../interfaces/IProjectFactory.sol\";\nimport {IProjectRegistry} from \"../interfaces/IProjectRegistry.sol\";\nimport {IProjectTokenFactory} from \"../interfaces/IProjectTokenFactory.sol\";\n\ncontract ProjectManagerLogic1 is ProjectManagerStorage, AccessControl {\n    using SafeMath for uint256;\n    bytes32 public constant ADMIN_ROLE = keccak256(\"ADMIN\");\n\n    modifier onlyOwner() {\n        require(\n            hasRole(ADMIN_ROLE, msg.sender),\n            \"ProjectManagerLogic1: Caller is not an admin\"\n        );\n        _;\n    }\n\n    modifier nonZero(address _addr) {\n        require(_addr != address(0), \"ProjectManagerLogic1: zero address\");\n        _;\n    }\n\n    //////////////////////////////\n    // Events\n    //////////////////////////////\n\n    //////////////////////////////////////////////////////////////////////\n    // setters\n    function setStore(\n        address _fld,\n        address _projectRegistry,\n        address _projectFactory,\n        address _projectTokenFactory,\n        address _projectStakeVaultFactory,\n        address _projectDevVaultFactory\n    )\n        external\n        onlyOwner\n        nonZero(_fld)\n        nonZero(_projectRegistry)\n        nonZero(_projectFactory)\n        nonZero(_projectTokenFactory)\n        nonZero(_projectStakeVaultFactory)\n        nonZero(_projectDevVaultFactory)\n    {\n        fld = _fld;\n        projectRegistry = _projectRegistry;\n        projectFactory = _projectFactory;\n        projectTokenFactory = _projectTokenFactory;\n        projectStakeVaultFactory = _projectStakeVaultFactory;\n        projectDevVaultFactory = _projectDevVaultFactory;\n    }\n\n    //////////////////////////////////////////////////////////////////////\n    //\n    function createProject(\n        string memory _projectName,\n        string memory _tokenName,\n        string memory _symbol,\n        uint256 _totalSupply,\n        uint256 _tokenPrice,\n        uint256 _startBlock\n    ) external nonZero(projectRegistry) {\n        require(\n            defaultStakingPeriod > 0,\n            \"ProjectManagerLogic1: defaultStakingPeriod zero\"\n        );\n        require(\n            payCreateProjectFee(),\n            \"ProjectManagerLogic1: payCreateProjectFee fail\"\n        );\n\n        string memory tokenName = _tokenName;\n        string memory symbol = _symbol;\n\n        //  .\n        uint256 startBlock = _startBlock;\n        uint256 endBlock = _startBlock + defaultStakingPeriod;\n\n        // 0 is none project\n        uint256 _projectId = projectId.length + 1;\n\n        address project =\n            IProjectFactory(projectFactory).deploy(\n                _projectId,\n                _projectName,\n                startBlock,\n                endBlock,\n                _tokenPrice,\n                msg.sender,\n                address(0),\n                tokenName,\n                symbol\n            );\n        require(project != address(0), \"ProjectManagerLogic1: project zero\");\n\n        //  .\n        address projectToken =\n            IProjectTokenFactory(projectTokenFactory).deploy(\n                tokenName,\n                symbol,\n                _totalSupply,\n                project\n            );\n        require(\n            projectToken != address(0),\n            \"ProjectManagerLogic1: projectToken zero\"\n        );\n        IProject(project).setToken(projectToken);\n\n        // register Project\n        IProjectRegistry(projectRegistry).registerProject(\n            _projectId,\n            project,\n            startBlock,\n            endBlock,\n            projectToken,\n            tokenName,\n            symbol\n        );\n    }\n\n    function payCreateProjectFee() public pure returns (bool) {\n        return true;\n    }\n\n    /// @dev Sets FLD address\n    function setFLD(address _fld) public onlyOwner nonZero(_fld) {\n        fld = _fld;\n    }\n\n    function setFLDRewardVault(address _fldRewardVault)\n        public\n        onlyOwner\n        nonZero(_fldRewardVault)\n    {\n        require(\n            fldRewardVault != _fldRewardVault,\n            \"ProjectManagerLogic1: same\"\n        );\n        fldRewardVault = _fldRewardVault;\n    }\n\n    function setAirdropVault(address _airdropVault)\n        public\n        onlyOwner\n        nonZero(_airdropVault)\n    {\n        require(airdropVault != _airdropVault, \"ProjectManagerLogic1: same\");\n        airdropVault = _airdropVault;\n    }\n\n    function setDefaultStakingPeriod(uint256 _defaultStakingPeriod)\n        public\n        onlyOwner\n    {\n        require(\n            _defaultStakingPeriod > 0 &&\n                defaultStakingPeriod != _defaultStakingPeriod,\n            \"ProjectManagerLogic1: input zero\"\n        );\n\n        defaultStakingPeriod = _defaultStakingPeriod;\n    }\n\n    function setDefaultAirdrop(uint256 _defaultAirdrop) public onlyOwner {\n        require(\n            _defaultAirdrop > 0 && defaultAirdrop != _defaultAirdrop,\n            \"ProjectManagerLogic1: input zero\"\n        );\n\n        defaultAirdrop = _defaultAirdrop;\n    }\n\n    /// @dev Sets Stake Registry address\n    function setProjectRegistry(address _projectRegistry)\n        public\n        onlyOwner\n        nonZero(_projectRegistry)\n    {\n        projectRegistry = _projectRegistry;\n    }\n\n    /// @dev Sets Stake Factory address\n    function setProjectFactory(address _projectFactory)\n        public\n        onlyOwner\n        nonZero(_projectFactory)\n    {\n        projectFactory = _projectFactory;\n    }\n}\n",
  "sourcePath": "/Users/zena/ico2.0/ico20-contracts/contracts/project/ProjectManagerLogic1.sol",
  "compiler": {
    "name": "solc",
    "version": "0.7.6+commit.7338295f.Emscripten.clang"
  },
  "schemaVersion": "3.3.4",
  "updatedAt": "2021-05-14T01:45:59.704Z",
  "devdoc": {
    "kind": "dev",
    "methods": {
      "getRoleAdmin(bytes32)": {
        "details": "Returns the admin role that controls `role`. See {grantRole} and {revokeRole}. To change a role's admin, use {_setRoleAdmin}."
      },
      "getRoleMember(bytes32,uint256)": {
        "details": "Returns one of the accounts that have `role`. `index` must be a value between 0 and {getRoleMemberCount}, non-inclusive. Role bearers are not sorted in any particular way, and their ordering may change at any point. WARNING: When using {getRoleMember} and {getRoleMemberCount}, make sure you perform all queries on the same block. See the following https://forum.openzeppelin.com/t/iterating-over-elements-on-enumerableset-in-openzeppelin-contracts/2296[forum post] for more information."
      },
      "getRoleMemberCount(bytes32)": {
        "details": "Returns the number of accounts that have `role`. Can be used together with {getRoleMember} to enumerate all bearers of a role."
      },
      "grantRole(bytes32,address)": {
        "details": "Grants `role` to `account`. If `account` had not been already granted `role`, emits a {RoleGranted} event. Requirements: - the caller must have ``role``'s admin role."
      },
      "hasRole(bytes32,address)": {
        "details": "Returns `true` if `account` has been granted `role`."
      },
      "renounceRole(bytes32,address)": {
        "details": "Revokes `role` from the calling account. Roles are often managed via {grantRole} and {revokeRole}: this function's purpose is to provide a mechanism for accounts to lose their privileges if they are compromised (such as when a trusted device is misplaced). If the calling account had been granted `role`, emits a {RoleRevoked} event. Requirements: - the caller must be `account`."
      },
      "revokeRole(bytes32,address)": {
        "details": "Revokes `role` from `account`. If `account` had been granted `role`, emits a {RoleRevoked} event. Requirements: - the caller must have ``role``'s admin role."
      },
      "setFLD(address)": {
        "details": "Sets FLD address"
      },
      "setProjectFactory(address)": {
        "details": "Sets Stake Factory address"
      },
      "setProjectRegistry(address)": {
        "details": "Sets Stake Registry address"
      }
    },
    "version": 1
  },
  "userdoc": {
    "kind": "user",
    "methods": {},
    "version": 1
  }
}