{
  "contractName": "ProjectDevVaultFactory",
  "abi": [
    {
      "inputs": [],
      "name": "ADMIN_ROLE",
      "outputs": [
        {
          "internalType": "bytes32",
          "name": "",
          "type": "bytes32"
        }
      ],
      "stateMutability": "view",
      "type": "function"
    },
    {
      "inputs": [
        {
          "internalType": "address",
          "name": "project",
          "type": "address"
        }
      ],
      "name": "deploy",
      "outputs": [
        {
          "internalType": "address",
          "name": "",
          "type": "address"
        }
      ],
      "stateMutability": "nonpayable",
      "type": "function"
    }
  ],
  "bytecode": "0x608060405234801561001057600080fd5b50610caf806100206000396000f3fe608060405234801561001057600080fd5b50600436106100365760003560e01c80634c96a3891461003b57806375b238fc1461007d575b600080fd5b6100616004803603602081101561005157600080fd5b50356001600160a01b0316610097565b604080516001600160a01b039092168252519081900360200190f35b61008561023d565b60408051918252519081900360200190f35b6000806040516100a690610261565b604051809103906000f0801580156100c2573d6000803e3d6000fd5b509050806001600160a01b031663c4d66de8846040518263ffffffff1660e01b815260040180826001600160a01b03168152602001915050600060405180830381600087803b15801561011457600080fd5b505af1158015610128573d6000803e3d6000fd5b505060408051632f2ff15d60e01b81527fdf8b4c520ffe197c5343c6f5aec59570151ef9a492f2c624fd45ddde6135ec42600482015233602482015290516001600160a01b0385169350632f2ff15d9250604480830192600092919082900301818387803b15801561019957600080fd5b505af11580156101ad573d6000803e3d6000fd5b50506040805163d547741f60e01b81527fdf8b4c520ffe197c5343c6f5aec59570151ef9a492f2c624fd45ddde6135ec42600482015230602482015290516001600160a01b038516935063d547741f9250604480830192600092919082900301818387803b15801561021e57600080fd5b505af1158015610232573d6000803e3d6000fd5b509295945050505050565b7fdf8b4c520ffe197c5343c6f5aec59570151ef9a492f2c624fd45ddde6135ec4281565b610a0b8061026f8339019056fe608060405234801561001057600080fd5b506100296000805160206109eb83398151915280610046565b6100416000805160206109eb83398151915233610098565b61019d565b600082815260208190526040808220600201549051839285917fbd79b86ffe0ab8e8776151514217cd7cacd52c909f66475c3af44e129f0b00ff9190a460009182526020829052604090912060020155565b6100a282826100a6565b5050565b6000828152602081815260409091206100c891839061049d610119821b17901c565b156100a2576100d5610137565b6001600160a01b0316816001600160a01b0316837f2f8788117e7eff1d82e926ec794901d17c78024a50270940304540a733656f0d60405160405180910390a45050565b600061012e836001600160a01b03841661013b565b90505b92915050565b3390565b60006101478383610185565b61017d57508154600181810184556000848152602080822090930184905584548482528286019093526040902091909155610131565b506000610131565b60009081526001919091016020526040902054151590565b61083f806101ac6000396000f3fe608060405234801561001057600080fd5b50600436106100a95760003560e01c806391d148541161007157806391d148541461017e578063a217fddf146101be578063c4d66de8146101c6578063ca15c873146101ec578063d547741f14610209578063f60ca60d14610235576100a9565b8063248a9ca3146100ae5780632f2ff15d146100dd57806336568abe1461010b57806375b238fc146101375780639010d07c1461013f575b600080fd5b6100cb600480360360208110156100c457600080fd5b503561023d565b60408051918252519081900360200190f35b610109600480360360408110156100f357600080fd5b50803590602001356001600160a01b0316610252565b005b6101096004803603604081101561012157600080fd5b50803590602001356001600160a01b03166102be565b6100cb61031f565b6101626004803603604081101561015557600080fd5b5080359060200135610343565b604080516001600160a01b039092168252519081900360200190f35b6101aa6004803603604081101561019457600080fd5b50803590602001356001600160a01b0316610364565b604080519115158252519081900360200190f35b6100cb61037c565b610109600480360360208110156101dc57600080fd5b50356001600160a01b0316610381565b6100cb6004803603602081101561020257600080fd5b503561041e565b6101096004803603604081101561021f57600080fd5b50803590602001356001600160a01b0316610435565b61016261048e565b60009081526020819052604090206002015490565b600082815260208190526040902060020154610275906102706104b2565b610364565b6102b05760405162461bcd60e51b815260040180806020018281038252602f81526020018061077c602f913960400191505060405180910390fd5b6102ba82826104b6565b5050565b6102c66104b2565b6001600160a01b0316816001600160a01b0316146103155760405162461bcd60e51b815260040180806020018281038252602f8152602001806107db602f913960400191505060405180910390fd5b6102ba828261051f565b7fdf8b4c520ffe197c5343c6f5aec59570151ef9a492f2c624fd45ddde6135ec4281565b600082815260208190526040812061035b9083610588565b90505b92915050565b600082815260208190526040812061035b9083610594565b600081565b6103ab7fdf8b4c520ffe197c5343c6f5aec59570151ef9a492f2c624fd45ddde6135ec4233610364565b6103fc576040805162461bcd60e51b815260206004820152601f60248201527f50726f6a6563743a2043616c6c6572206973206e6f7420616e2061646d696e00604482015290519081900360640190fd5b600180546001600160a01b0319166001600160a01b0392909216919091179055565b600081815260208190526040812061035e906105a9565b600082815260208190526040902060020154610453906102706104b2565b6103155760405162461bcd60e51b81526004018080602001828103825260308152602001806107ab6030913960400191505060405180910390fd5b6001546001600160a01b031681565b600061035b836001600160a01b0384166105b4565b3390565b60008281526020819052604090206104ce908261049d565b156102ba576104db6104b2565b6001600160a01b0316816001600160a01b0316837f2f8788117e7eff1d82e926ec794901d17c78024a50270940304540a733656f0d60405160405180910390a45050565b600082815260208190526040902061053790826105fe565b156102ba576105446104b2565b6001600160a01b0316816001600160a01b0316837ff6391f5c32d9c69d2a47ea670b442974b53935d1edc7fd64eb21e047a839171b60405160405180910390a45050565b600061035b8383610613565b600061035b836001600160a01b038416610677565b600061035e8261068f565b60006105c08383610677565b6105f65750815460018181018455600084815260208082209093018490558454848252828601909352604090209190915561035e565b50600061035e565b600061035b836001600160a01b038416610693565b815460009082106106555760405162461bcd60e51b815260040180806020018281038252602281526020018061075a6022913960400191505060405180910390fd5b82600001828154811061066457fe5b9060005260206000200154905092915050565b60009081526001919091016020526040902054151590565b5490565b6000818152600183016020526040812054801561074f57835460001980830191908101906000908790839081106106c657fe5b90600052602060002001549050808760000184815481106106e357fe5b60009182526020808320909101929092558281526001898101909252604090209084019055865487908061071357fe5b6001900381819060005260206000200160009055905586600101600087815260200190815260200160002060009055600194505050505061035e565b600091505061035e56fe456e756d657261626c655365743a20696e646578206f7574206f6620626f756e6473416363657373436f6e74726f6c3a2073656e646572206d75737420626520616e2061646d696e20746f206772616e74416363657373436f6e74726f6c3a2073656e646572206d75737420626520616e2061646d696e20746f207265766f6b65416363657373436f6e74726f6c3a2063616e206f6e6c792072656e6f756e636520726f6c657320666f722073656c66a2646970667358221220e78c3ce80479388f8f9a84e4c3de1269055832ab7de75366599218b7b5acf49164736f6c63430007060033df8b4c520ffe197c5343c6f5aec59570151ef9a492f2c624fd45ddde6135ec42a264697066735822122080c64ba9ee4f8e561c3b431baa527af99b3083f6a51d7cee49bbda562eea559964736f6c63430007060033",
  "immutableReferences": {},
  "source": "// SPDX-License-Identifier: MIT\npragma solidity ^0.7.6;\n\nimport {ProjectDevVault} from \"../project/ProjectDevVault.sol\";\n\ncontract ProjectDevVaultFactory {\n    bytes32 public constant ADMIN_ROLE = keccak256(\"ADMIN\");\n\n    function deploy(address project) public returns (address) {\n        ProjectDevVault vault = new ProjectDevVault();\n        vault.initialize(project);\n\n        vault.grantRole(ADMIN_ROLE, msg.sender);\n\n        vault.revokeRole(ADMIN_ROLE, address(this));\n        return address(vault);\n    }\n}\n",
  "sourcePath": "/Users/zena/ico2.0/ico20-contracts/contracts/factory/ProjectDevVaultFactory.sol",
  "compiler": {
    "name": "solc",
    "version": "0.7.6+commit.7338295f.Emscripten.clang"
  },
  "schemaVersion": "3.3.4",
  "updatedAt": "2021-05-13T03:54:13.310Z",
  "devdoc": {
    "kind": "dev",
    "methods": {},
    "version": 1
  },
  "userdoc": {
    "kind": "user",
    "methods": {},
    "version": 1
  }
}