{
  "contractName": "ProjectStakeVaultFactory",
  "abi": [
    {
      "inputs": [],
      "name": "ADMIN_ROLE",
      "outputs": [
        {
          "internalType": "bytes32",
          "name": "",
          "type": "bytes32"
        }
      ],
      "stateMutability": "view",
      "type": "function"
    },
    {
      "inputs": [
        {
          "internalType": "address",
          "name": "project",
          "type": "address"
        },
        {
          "internalType": "address",
          "name": "token",
          "type": "address"
        }
      ],
      "name": "deploy",
      "outputs": [
        {
          "internalType": "address",
          "name": "",
          "type": "address"
        }
      ],
      "stateMutability": "nonpayable",
      "type": "function"
    }
  ],
  "bytecode": "0x608060405234801561001057600080fd5b50610d70806100206000396000f3fe608060405234801561001057600080fd5b50600436106100365760003560e01c8063545e7c611461003b57806375b238fc14610085575b600080fd5b6100696004803603604081101561005157600080fd5b506001600160a01b038135811691602001351661009f565b604080516001600160a01b039092168252519081900360200190f35b61008d610257565b60408051918252519081900360200190f35b6000806040516100ae9061027b565b604051809103906000f0801580156100ca573d6000803e3d6000fd5b509050806001600160a01b031663485cc95585856040518363ffffffff1660e01b815260040180836001600160a01b03168152602001826001600160a01b0316815260200192505050600060405180830381600087803b15801561012d57600080fd5b505af1158015610141573d6000803e3d6000fd5b505060408051632f2ff15d60e01b81527fdf8b4c520ffe197c5343c6f5aec59570151ef9a492f2c624fd45ddde6135ec42600482015233602482015290516001600160a01b0385169350632f2ff15d9250604480830192600092919082900301818387803b1580156101b257600080fd5b505af11580156101c6573d6000803e3d6000fd5b50506040805163d547741f60e01b81527fdf8b4c520ffe197c5343c6f5aec59570151ef9a492f2c624fd45ddde6135ec42600482015230602482015290516001600160a01b038516935063d547741f9250604480830192600092919082900301818387803b15801561023757600080fd5b505af115801561024b573d6000803e3d6000fd5b50929695505050505050565b7fdf8b4c520ffe197c5343c6f5aec59570151ef9a492f2c624fd45ddde6135ec4281565b610ab2806102898339019056fe608060405234801561001057600080fd5b50610029600080516020610a9283398151915280610046565b610041600080516020610a9283398151915233610098565b61019d565b600082815260208190526040808220600201549051839285917fbd79b86ffe0ab8e8776151514217cd7cacd52c909f66475c3af44e129f0b00ff9190a460009182526020829052604090912060020155565b6100a282826100a6565b5050565b6000828152602081815260409091206100c8918390610544610119821b17901c565b156100a2576100d5610137565b6001600160a01b0316816001600160a01b0316837f2f8788117e7eff1d82e926ec794901d17c78024a50270940304540a733656f0d60405160405180910390a45050565b600061012e836001600160a01b03841661013b565b90505b92915050565b3390565b60006101478383610185565b61017d57508154600181810184556000848152602080822090930184905584548482528286019093526040902091909155610131565b506000610131565b60009081526001919091016020526040902054151590565b6108e6806101ac6000396000f3fe608060405234801561001057600080fd5b50600436106100b45760003560e01c806391d148541161007157806391d14854146101b7578063a217fddf146101f7578063ca15c873146101ff578063d547741f1461021c578063dab2997b14610248578063f60ca60d14610250576100b4565b8063248a9ca3146100b95780632f2ff15d146100e857806336568abe14610116578063485cc9551461014257806375b238fc146101705780639010d07c14610178575b600080fd5b6100d6600480360360208110156100cf57600080fd5b5035610258565b60408051918252519081900360200190f35b610114600480360360408110156100fe57600080fd5b50803590602001356001600160a01b031661026d565b005b6101146004803603604081101561012c57600080fd5b50803590602001356001600160a01b03166102d9565b6101146004803603604081101561015857600080fd5b506001600160a01b038135811691602001351661033a565b6100d6610454565b61019b6004803603604081101561018e57600080fd5b5080359060200135610478565b604080516001600160a01b039092168252519081900360200190f35b6101e3600480360360408110156101cd57600080fd5b50803590602001356001600160a01b0316610499565b604080519115158252519081900360200190f35b6100d66104b1565b6100d66004803603602081101561021557600080fd5b50356104b6565b6101146004803603604081101561023257600080fd5b50803590602001356001600160a01b03166104cd565b61019b610526565b61019b610535565b60009081526020819052604090206002015490565b6000828152602081905260409020600201546102909061028b610559565b610499565b6102cb5760405162461bcd60e51b815260040180806020018281038252602f815260200180610823602f913960400191505060405180910390fd5b6102d5828261055d565b5050565b6102e1610559565b6001600160a01b0316816001600160a01b0316146103305760405162461bcd60e51b815260040180806020018281038252602f815260200180610882602f913960400191505060405180910390fd5b6102d582826105c6565b6103647fdf8b4c520ffe197c5343c6f5aec59570151ef9a492f2c624fd45ddde6135ec4233610499565b6103b5576040805162461bcd60e51b815260206004820152601f60248201527f50726f6a6563743a2043616c6c6572206973206e6f7420616e2061646d696e00604482015290519081900360640190fd5b6001600160a01b038216158015906103d557506001600160a01b03811615155b610426576040805162461bcd60e51b815260206004820152601760248201527f50726f6a6563745374616b655661756c743a207a65726f000000000000000000604482015290519081900360640190fd5b600180546001600160a01b039384166001600160a01b03199182161790915560028054929093169116179055565b7fdf8b4c520ffe197c5343c6f5aec59570151ef9a492f2c624fd45ddde6135ec4281565b6000828152602081905260408120610490908361062f565b90505b92915050565b6000828152602081905260408120610490908361063b565b600081565b600081815260208190526040812061049390610650565b6000828152602081905260409020600201546104eb9061028b610559565b6103305760405162461bcd60e51b81526004018080602001828103825260308152602001806108526030913960400191505060405180910390fd5b6002546001600160a01b031681565b6001546001600160a01b031681565b6000610490836001600160a01b03841661065b565b3390565b60008281526020819052604090206105759082610544565b156102d557610582610559565b6001600160a01b0316816001600160a01b0316837f2f8788117e7eff1d82e926ec794901d17c78024a50270940304540a733656f0d60405160405180910390a45050565b60008281526020819052604090206105de90826106a5565b156102d5576105eb610559565b6001600160a01b0316816001600160a01b0316837ff6391f5c32d9c69d2a47ea670b442974b53935d1edc7fd64eb21e047a839171b60405160405180910390a45050565b600061049083836106ba565b6000610490836001600160a01b03841661071e565b600061049382610736565b6000610667838361071e565b61069d57508154600181810184556000848152602080822090930184905584548482528286019093526040902091909155610493565b506000610493565b6000610490836001600160a01b03841661073a565b815460009082106106fc5760405162461bcd60e51b81526004018080602001828103825260228152602001806108016022913960400191505060405180910390fd5b82600001828154811061070b57fe5b9060005260206000200154905092915050565b60009081526001919091016020526040902054151590565b5490565b600081815260018301602052604081205480156107f6578354600019808301919081019060009087908390811061076d57fe5b906000526020600020015490508087600001848154811061078a57fe5b6000918252602080832090910192909255828152600189810190925260409020908401905586548790806107ba57fe5b60019003818190600052602060002001600090559055866001016000878152602001908152602001600020600090556001945050505050610493565b600091505061049356fe456e756d657261626c655365743a20696e646578206f7574206f6620626f756e6473416363657373436f6e74726f6c3a2073656e646572206d75737420626520616e2061646d696e20746f206772616e74416363657373436f6e74726f6c3a2073656e646572206d75737420626520616e2061646d696e20746f207265766f6b65416363657373436f6e74726f6c3a2063616e206f6e6c792072656e6f756e636520726f6c657320666f722073656c66a2646970667358221220196484f2f450b58d0db7a816665a21a68849598f5704520ab5c7bc63869a77b864736f6c63430007060033df8b4c520ffe197c5343c6f5aec59570151ef9a492f2c624fd45ddde6135ec42a2646970667358221220e97b96c8b95271472ed2f5243c26b50d31538050b31fdd8ef1cfba7f0fe6931564736f6c63430007060033",
  "immutableReferences": {},
  "source": "// SPDX-License-Identifier: MIT\npragma solidity ^0.7.6;\n\nimport {ProjectStakeVault} from \"../project/ProjectStakeVault.sol\";\n\ncontract ProjectStakeVaultFactory {\n    bytes32 public constant ADMIN_ROLE = keccak256(\"ADMIN\");\n\n    function deploy(address project, address token) public returns (address) {\n        ProjectStakeVault vault = new ProjectStakeVault();\n        vault.initialize(project, token);\n\n        vault.grantRole(ADMIN_ROLE, msg.sender);\n\n        vault.revokeRole(ADMIN_ROLE, address(this));\n        return address(vault);\n    }\n}\n",
  "sourcePath": "/Users/zena/ico2.0/ico20-contracts/contracts/factory/ProjectStakeVaultFactory.sol",
  "compiler": {
    "name": "solc",
    "version": "0.7.6+commit.7338295f.Emscripten.clang"
  },
  "schemaVersion": "3.3.4",
  "updatedAt": "2021-05-13T02:55:22.612Z",
  "devdoc": {
    "kind": "dev",
    "methods": {},
    "version": 1
  },
  "userdoc": {
    "kind": "user",
    "methods": {},
    "version": 1
  }
}