{
  "contractName": "ProjectFactory",
  "abi": [
    {
      "inputs": [],
      "name": "ADMIN_ROLE",
      "outputs": [
        {
          "internalType": "bytes32",
          "name": "",
          "type": "bytes32"
        }
      ],
      "stateMutability": "view",
      "type": "function"
    },
    {
      "inputs": [],
      "name": "DEV_ROLE",
      "outputs": [
        {
          "internalType": "bytes32",
          "name": "",
          "type": "bytes32"
        }
      ],
      "stateMutability": "view",
      "type": "function"
    },
    {
      "inputs": [
        {
          "internalType": "uint256",
          "name": "_projectId",
          "type": "uint256"
        },
        {
          "internalType": "string",
          "name": "_projectName",
          "type": "string"
        },
        {
          "internalType": "uint256",
          "name": "_startBlock",
          "type": "uint256"
        },
        {
          "internalType": "uint256",
          "name": "_endBlock",
          "type": "uint256"
        },
        {
          "internalType": "uint256",
          "name": "_tokenPrice",
          "type": "uint256"
        },
        {
          "internalType": "address",
          "name": "_developer",
          "type": "address"
        },
        {
          "internalType": "address",
          "name": "_token",
          "type": "address"
        },
        {
          "internalType": "string",
          "name": "_tokenName",
          "type": "string"
        },
        {
          "internalType": "string",
          "name": "_symbol",
          "type": "string"
        }
      ],
      "name": "deploy",
      "outputs": [
        {
          "internalType": "address",
          "name": "",
          "type": "address"
        }
      ],
      "stateMutability": "nonpayable",
      "type": "function"
    }
  ],
  "bytecode": "0x608060405234801561001057600080fd5b50612deb806100206000396000f3fe608060405234801561001057600080fd5b50600436106100415760003560e01c806375b238fc14610046578063d400b4f314610060578063fcf0f0d31461025e575b600080fd5b61004e610266565b60408051918252519081900360200190f35b610242600480360361012081101561007757600080fd5b8135919081019060408101602082013564010000000081111561009957600080fd5b8201836020820111156100ab57600080fd5b803590602001918460018302840111640100000000831117156100cd57600080fd5b91908080601f0160208091040260200160405190810160405280939291908181526020018383808284376000920191909152509295843595602086013595604081013595506001600160a01b03606082013581169550608082013516935060c081019060a0013564010000000081111561014657600080fd5b82018360208201111561015857600080fd5b8035906020019184600183028401116401000000008311171561017a57600080fd5b91908080601f01602080910402602001604051908101604052809392919081815260200183838082843760009201919091525092959493602081019350359150506401000000008111156101cd57600080fd5b8201836020820111156101df57600080fd5b8035906020019184600183028401116401000000008311171561020157600080fd5b91908080601f01602080910402602001604051908101604052809392919081815260200183838082843760009201919091525092955061028a945050505050565b604080516001600160a01b039092168252519081900360200190f35b61004e610641565b7fdf8b4c520ffe197c5343c6f5aec59570151ef9a492f2c624fd45ddde6135ec4281565b60008060405161029990610665565b604051809103906000f0801580156102b5573d6000803e3d6000fd5b509050806001600160a01b0316632e32d9858c8c8c8c8c8c338d8d8d6040518b63ffffffff1660e01b8152600401808b8152602001806020018a8152602001898152602001888152602001876001600160a01b03168152602001866001600160a01b03168152602001856001600160a01b03168152602001806020018060200184810384528d818151815260200191508051906020019080838360005b8381101561036a578181015183820152602001610352565b50505050905090810190601f1680156103975780820380516001836020036101000a031916815260200191505b50848103835286518152865160209182019188019080838360005b838110156103ca5781810151838201526020016103b2565b50505050905090810190601f1680156103f75780820380516001836020036101000a031916815260200191505b50848103825285518152855160209182019187019080838360005b8381101561042a578181015183820152602001610412565b50505050905090810190601f1680156104575780820380516001836020036101000a031916815260200191505b509d5050505050505050505050505050600060405180830381600087803b15801561048157600080fd5b505af1158015610495573d6000803e3d6000fd5b505060408051632f2ff15d60e01b81527fdf8b4c520ffe197c5343c6f5aec59570151ef9a492f2c624fd45ddde6135ec42600482015233602482015290516001600160a01b0385169350632f2ff15d9250604480830192600092919082900301818387803b15801561050657600080fd5b505af115801561051a573d6000803e3d6000fd5b50505050806001600160a01b0316632f2ff15d7f2714cbbaddbb71bcae9366d8bf7770636ec7ae63227b573986d2f54fffacb39d886040518363ffffffff1660e01b815260040180838152602001826001600160a01b0316815260200192505050600060405180830381600087803b15801561059557600080fd5b505af11580156105a9573d6000803e3d6000fd5b50506040805163d547741f60e01b81527fdf8b4c520ffe197c5343c6f5aec59570151ef9a492f2c624fd45ddde6135ec42600482015230602482015290516001600160a01b038516935063d547741f9250604480830192600092919082900301818387803b15801561061a57600080fd5b505af115801561062e573d6000803e3d6000fd5b50929d9c50505050505050505050505050565b7f2714cbbaddbb71bcae9366d8bf7770636ec7ae63227b573986d2f54fffacb39d81565b612743806106738339019056fe60806040523480156200001157600080fd5b506200002d60008051602062002723833981519152806200007a565b620000597f2714cbbaddbb71bcae9366d8bf7770636ec7ae63227b573986d2f54fffacb39d806200007a565b620000746000805160206200272383398151915233620000cc565b620001e0565b600082815260208190526040808220600201549051839285917fbd79b86ffe0ab8e8776151514217cd7cacd52c909f66475c3af44e129f0b00ff9190a460009182526020829052604090912060020155565b620000d88282620000dc565b5050565b600082815260208181526040909120620001019183906200198a62000155821b17901c565b15620000d8576200011162000175565b6001600160a01b0316816001600160a01b0316837f2f8788117e7eff1d82e926ec794901d17c78024a50270940304540a733656f0d60405160405180910390a45050565b60006200016c836001600160a01b03841662000179565b90505b92915050565b3390565b6000620001878383620001c8565b620001bf575081546001818101845560008481526020808220909301849055845484825282860190935260409020919091556200016f565b5060006200016f565b60009081526001919091016020526040902054151590565b61253380620001f06000396000f3fe60806040526004361061024a5760003560e01c80637caaac9311610139578063b446cb1f116100b6578063e986d7971161007a578063e986d79714610646578063ebe373da14610666578063f91c817414610686578063fb50e6161461069b578063fc0c546a146106bb578063fcf0f0d3146106d057610251565b8063b446cb1f146105c7578063ca15c873146105dc578063ca4b208b146105fc578063d2d976da14610611578063d547741f1461062657610251565b806395d89b41116100fd57806395d89b411461055e5780639a33e30014610573578063a217fddf14610588578063a8aa1b311461059d578063b344a57d146105b257610251565b80637caaac93146104bc5780637ff9b596146104dc5780638187f516146104f15780639010d07c1461051157806391d148541461053157610251565b806345cf084b116101c757806368d3b22d1161018b57806368d3b22d146104375780636c02a9311461045b578063706946001461047d5780637129954b1461049257806375b238fc146104a757610251565b806345cf084b146103a4578063481c6a75146103d857806348cd4cb1146103ed5780635a0a17de146104025780635e39f79a1461041757610251565b80632e32d9851161020e5780632e32d9851461030f5780632f2ff15d1461032f57806336568abe1461034f5780633fafa1271461036f57806344aac4301461038457610251565b8063083c63231461025657806308a6077c14610281578063144fa6d7146102ab578063248a9ca3146102cd5780632d788333146102ed57610251565b3661025157005b600080fd5b34801561026257600080fd5b5061026b6106e5565b604051610278919061203d565b60405180910390f35b34801561028d57600080fd5b506102966106eb565b604051610278999897969594939291906123a8565b3480156102b757600080fd5b506102cb6102c6366004611d67565b610709565b005b3480156102d957600080fd5b5061026b6102e8366004611dde565b610790565b3480156102f957600080fd5b506103026107a8565b6040516102789190611fa8565b34801561031b57600080fd5b506102cb61032a366004611e5e565b6107b7565b34801561033b57600080fd5b506102cb61034a366004611df6565b6108c7565b34801561035b57600080fd5b506102cb61036a366004611df6565b61092e565b34801561037b57600080fd5b5061026b61098f565b34801561039057600080fd5b5061030261039f366004611e25565b610995565b3480156103b057600080fd5b506103c46103bf366004611dde565b6109cd565b604051610278989796959493929190611fef565b3480156103e457600080fd5b50610302610a1d565b3480156103f957600080fd5b5061026b610a2c565b34801561040e57600080fd5b506102cb610a32565b34801561042357600080fd5b506102cb610432366004611f3d565b610ed4565b34801561044357600080fd5b5061044c610ff7565b60405161027893929190612392565b34801561046757600080fd5b50610470611003565b6040516102789190612046565b34801561048957600080fd5b506102cb611091565b34801561049e57600080fd5b50610470611260565b3480156104b357600080fd5b5061026b6112bb565b3480156104c857600080fd5b5061026b6104d7366004611dde565b6112cd565b3480156104e857600080fd5b5061026b6112ee565b3480156104fd57600080fd5b506102cb61050c366004611d67565b6112f4565b34801561051d57600080fd5b5061030261052c366004611e25565b611372565b34801561053d57600080fd5b5061055161054c366004611df6565b611393565b6040516102789190612032565b34801561056a57600080fd5b506104706113ab565b34801561057f57600080fd5b50610470611406565b34801561059457600080fd5b5061026b611461565b3480156105a957600080fd5b50610302611466565b3480156105be57600080fd5b50610302611475565b3480156105d357600080fd5b50610551611484565b3480156105e857600080fd5b5061026b6105f7366004611dde565b61148d565b34801561060857600080fd5b506103026114a4565b34801561061d57600080fd5b506104706114b3565b34801561063257600080fd5b506102cb610641366004611df6565b61150e565b34801561065257600080fd5b506102cb610661366004611da6565b611567565b34801561067257600080fd5b5061026b610681366004611dde565b61185c565b34801561069257600080fd5b5061030261186e565b3480156106a757600080fd5b506102cb6106b6366004611f6e565b61187d565b3480156106c757600080fd5b50610302611969565b3480156106dc57600080fd5b5061026b611978565b60035481565b601754601854601954601a54601b54601c54601d54601e54601f5489565b6107216000805160206124af83398151915233611393565b6107465760405162461bcd60e51b815260040161073d90612318565b60405180910390fd5b806001600160a01b03811661076d5760405162461bcd60e51b815260040161073d906120fe565b50600580546001600160a01b0319166001600160a01b0392909216919091179055565b6000818152602081905260409020600201545b919050565b600f546001600160a01b031681565b6107cf6000805160206124af83398151915233611393565b6107eb5760405162461bcd60e51b815260040161073d90612318565b60008a1180156107fb5750600088115b801561080657508787115b6108225760405162461bcd60e51b815260040161073d90612099565b60018a905560028890556003879055600486905588516108499060099060208c0190611c46565b50600580546001600160a01b0319166001600160a01b038516179055815161087890600a906020850190611c46565b50805161088c90600b906020840190611c46565b5050600780546001600160a01b039586166001600160a01b031991821617909155600880549490951693169290921790925550505050505050565b6000828152602081905260409020600201546108e59061054c61199f565b6109205760405162461bcd60e51b815260040180806020018281038252602f815260200180612430602f913960400191505060405180910390fd5b61092a82826119a3565b5050565b61093661199f565b6001600160a01b0316816001600160a01b0316146109855760405162461bcd60e51b815260040180806020018281038252602f8152602001806124cf602f913960400191505060405180910390fd5b61092a8282611a0c565b60015481565b601560205281600052604060002081815481106109b157600080fd5b6000918252602090912001546001600160a01b03169150829050565b601260205260009081526040902080546001820154600283015460038401546004850154600586015460068701546007909701546001600160a01b03909616969495939492939192909160ff1688565b6008546001600160a01b031681565b60025481565b610a4a60008051602061245f83398151915233611393565b610a665760405162461bcd60e51b815260040161073d906121b3565b6008546001600160a01b031680610a8f5760405162461bcd60e51b815260040161073d906120fe565b60165460ff1615610ab25760405162461bcd60e51b815260040161073d9061234f565b6005546040516370a0823160e01b81526000916001600160a01b0316906370a0823190610ae3903090600401611fa8565b60206040518083038186803b158015610afb57600080fd5b505afa158015610b0f573d6000803e3d6000fd5b505050506040513d601f19601f82011682018060405250810190610b339190611e46565b90506000600560009054906101000a90046001600160a01b03166001600160a01b03166318160ddd6040518163ffffffff1660e01b815260040160206040518083038186803b158015610b8557600080fd5b505afa158015610b99573d6000803e3d6000fd5b505050506040513d601f19601f82011682018060405250810190610bbd9190611e46565b9050808214610bde5760405162461bcd60e51b815260040161073d906120c7565b600854604080516332c9009960e01b815290516000926001600160a01b0316916332c90099916004808301926020929190829003018186803b158015610c2357600080fd5b505afa158015610c37573d6000803e3d6000fd5b505050506040513d601f19601f82011682018060405250810190610c5b9190611d8a565b600e549091506001600160a01b031615801590610c825750600f546001600160a01b031615155b8015610c9657506001600160a01b03811615155b610cb25760405162461bcd60e51b815260040161073d906122e8565b60175415801590610cc4575060185415155b8015610cd1575060195415155b610ced5760405162461bcd60e51b815260040161073d90612171565b6016805460ff19166001179055601754670de0b6b3a764000090830204601c55601854670de0b6b3a764000090830204601d55601954670de0b6b3a764000090830204601e55600554601c5460405163a9059cbb60e01b81526001600160a01b039092169163a9059cbb91610d6791859190600401611fd6565b602060405180830381600087803b158015610d8157600080fd5b505af1158015610d95573d6000803e3d6000fd5b505050506040513d601f19601f82011682018060405250810190610db99190611dc2565b50600554600e54601d5460405163a9059cbb60e01b81526001600160a01b039384169363a9059cbb93610df193911691600401611fd6565b602060405180830381600087803b158015610e0b57600080fd5b505af1158015610e1f573d6000803e3d6000fd5b505050506040513d601f19601f82011682018060405250810190610e439190611dc2565b50600554600f54601e5460405163a9059cbb60e01b81526001600160a01b039384169363a9059cbb93610e7b93911691600401611fd6565b602060405180830381600087803b158015610e9557600080fd5b505af1158015610ea9573d6000803e3d6000fd5b505050506040513d601f19601f82011682018060405250810190610ecd9190611dc2565b5050505050565b610eec60008051602061245f83398151915233611393565b610f085760405162461bcd60e51b815260040161073d906121b3565b60165460ff1615610f2b5760405162461bcd60e51b815260040161073d9061234f565b600854604080516310ae0c1160e21b815290516000926001600160a01b0316916342b83044916004808301926020929190829003018186803b158015610f7057600080fd5b505afa158015610f84573d6000803e3d6000fd5b505050506040513d601f19601f82011682018060405250810190610fa89190611e46565b9050808510158015610fba5750600084115b8015610fc65750600083115b610fe25760405162461bcd60e51b815260040161073d9061222d565b50601793909355601891909155601955601a55565b60205460215460225483565b600a805460408051602060026001851615610100026000190190941693909304601f810184900484028201840190925281815292918301828280156110895780601f1061105e57610100808354040283529160200191611089565b820191906000526020600020905b81548152906001019060200180831161106c57829003601f168201915b505050505081565b6110a960008051602061245f83398151915233611393565b6110c55760405162461bcd60e51b815260040161073d906121b3565b6008546001600160a01b0316806110ee5760405162461bcd60e51b815260040161073d906120fe565b60085460408051635b810bd360e11b815290516000926001600160a01b03169163b70217a6916004808301926020929190829003018186803b15801561113357600080fd5b505afa158015611147573d6000803e3d6000fd5b505050506040513d601f19601f8201168201806040525081019061116b9190611d8a565b90506001600160a01b0381166111935760405162461bcd60e51b815260040161073d9061212d565b604051634c96a38960e01b81526000906001600160a01b03831690634c96a389906111c2903090600401611fa8565b602060405180830381600087803b1580156111dc57600080fd5b505af11580156111f0573d6000803e3d6000fd5b505050506040513d601f19601f820116820180604052508101906112149190611d8a565b90506001600160a01b03811661123c5760405162461bcd60e51b815260040161073d906122bb565b600e80546001600160a01b0319166001600160a01b03929092169190911790555050565b600d805460408051602060026001851615610100026000190190941693909304601f810184900484028201840190925281815292918301828280156110895780601f1061105e57610100808354040283529160200191611089565b6000805160206124af83398151915281565b601181815481106112dd57600080fd5b600091825260209091200154905081565b60045481565b61130c60008051602061245f83398151915233611393565b6113285760405162461bcd60e51b815260040161073d906121b3565b806001600160a01b03811661134f5760405162461bcd60e51b815260040161073d906120fe565b50600680546001600160a01b0319166001600160a01b0392909216919091179055565b600082815260208190526040812061138a9083611a75565b90505b92915050565b600082815260208190526040812061138a9083611a81565b600b805460408051602060026001851615610100026000190190941693909304601f810184900484028201840190925281815292918301828280156110895780601f1061105e57610100808354040283529160200191611089565b6009805460408051602060026001851615610100026000190190941693909304601f810184900484028201840190925281815292918301828280156110895780601f1061105e57610100808354040283529160200191611089565b600081565b6006546001600160a01b031681565b600e546001600160a01b031681565b60165460ff1681565b600081815260208190526040812061138d90611a96565b6007546001600160a01b031681565b600c805460408051602060026001851615610100026000190190941693909304601f810184900484028201840190925281815292918301828280156110895780601f1061105e57610100808354040283529160200191611089565b60008281526020819052604090206002015461152c9061054c61199f565b6109855760405162461bcd60e51b815260040180806020018281038252603081526020018061247f6030913960400191505060405180910390fd5b61157f60008051602061245f83398151915233611393565b61159b5760405162461bcd60e51b815260040161073d906121b3565b6008546001600160a01b0316806115c45760405162461bcd60e51b815260040161073d906120fe565b60085460408051635b7884ad60e01b815290516000926001600160a01b031691635b7884ad916004808301926020929190829003018186803b15801561160957600080fd5b505afa15801561161d573d6000803e3d6000fd5b505050506040513d601f19601f820116820180604052508101906116419190611d8a565b90506001600160a01b0381166116695760405162461bcd60e51b815260040161073d90612275565b60008361176557600f546001600160a01b0316156116995760405162461bcd60e51b815260040161073d906121f6565b60055460405163545e7c6160e01b81526001600160a01b038085169263545e7c61926116cb9230921690600401611fbc565b602060405180830381600087803b1580156116e557600080fd5b505af11580156116f9573d6000803e3d6000fd5b505050506040513d601f19601f8201168201806040525081019061171d9190611d8a565b90506001600160a01b0381166117455760405162461bcd60e51b815260040161073d906122bb565b600f80546001600160a01b0319166001600160a01b038316179055611856565b6010546001600160a01b03161561178e5760405162461bcd60e51b815260040161073d906121f6565b60065460405163545e7c6160e01b81526001600160a01b038085169263545e7c61926117c09230921690600401611fbc565b602060405180830381600087803b1580156117da57600080fd5b505af11580156117ee573d6000803e3d6000fd5b505050506040513d601f19601f820116820180604052508101906118129190611d8a565b90506001600160a01b03811661183a5760405162461bcd60e51b815260040161073d906122bb565b601080546001600160a01b0319166001600160a01b0383161790555b50505050565b60136020526000908152604090205481565b6010546001600160a01b031681565b6118956000805160206124af83398151915233611393565b6118b15760405162461bcd60e51b815260040161073d90612318565b6000851180156118c057508484115b80156118cc5750600082115b80156118d85750600081115b6118f45760405162461bcd60e51b815260040161073d90612099565b6011805460019081016000818152601260205260408120808401839055600281019990995560038901979097556004880195909555600587019390935560069095015583549081018455929091527f31ecc21a745e3968a04e9570e4425bc18fa8019c68028196b546d1669c200c6890910155565b6005546001600160a01b031681565b60008051602061245f83398151915281565b600061138a836001600160a01b038416611aa1565b3390565b60008281526020819052604090206119bb908261198a565b1561092a576119c861199f565b6001600160a01b0316816001600160a01b0316837f2f8788117e7eff1d82e926ec794901d17c78024a50270940304540a733656f0d60405160405180910390a45050565b6000828152602081905260409020611a249082611aeb565b1561092a57611a3161199f565b6001600160a01b0316816001600160a01b0316837ff6391f5c32d9c69d2a47ea670b442974b53935d1edc7fd64eb21e047a839171b60405160405180910390a45050565b600061138a8383611b00565b600061138a836001600160a01b038416611b64565b600061138d82611b7c565b6000611aad8383611b64565b611ae35750815460018181018455600084815260208082209093018490558454848252828601909352604090209190915561138d565b50600061138d565b600061138a836001600160a01b038416611b80565b81546000908210611b425760405162461bcd60e51b815260040180806020018281038252602281526020018061240e6022913960400191505060405180910390fd5b826000018281548110611b5157fe5b9060005260206000200154905092915050565b60009081526001919091016020526040902054151590565b5490565b60008181526001830160205260408120548015611c3c5783546000198083019190810190600090879083908110611bb357fe5b9060005260206000200154905080876000018481548110611bd057fe5b600091825260208083209091019290925582815260018981019092526040902090840190558654879080611c0057fe5b6001900381819060005260206000200160009055905586600101600087815260200190815260200160002060009055600194505050505061138d565b600091505061138d565b828054600181600116156101000203166002900490600052602060002090601f016020900481019282611c7c5760008555611cc2565b82601f10611c9557805160ff1916838001178555611cc2565b82800160010185558215611cc2579182015b82811115611cc2578251825591602001919060010190611ca7565b50611cce929150611cd2565b5090565b5b80821115611cce5760008155600101611cd3565b80356107a3816123e7565b600082601f830112611d02578081fd5b813567ffffffffffffffff80821115611d1757fe5b604051601f8301601f191681016020018281118282101715611d3557fe5b604052828152848301602001861015611d4c578384fd5b82602086016020830137918201602001929092529392505050565b600060208284031215611d78578081fd5b8135611d83816123e7565b9392505050565b600060208284031215611d9b578081fd5b8151611d83816123e7565b600060208284031215611db7578081fd5b8135611d83816123ff565b600060208284031215611dd3578081fd5b8151611d83816123ff565b600060208284031215611def578081fd5b5035919050565b60008060408385031215611e08578081fd5b823591506020830135611e1a816123e7565b809150509250929050565b60008060408385031215611e37578182fd5b50508035926020909101359150565b600060208284031215611e57578081fd5b5051919050565b6000806000806000806000806000806101408b8d031215611e7d578586fd5b8a35995060208b013567ffffffffffffffff80821115611e9b578788fd5b611ea78e838f01611cf2565b9a5060408d0135995060608d0135985060808d01359750611eca60a08e01611ce7565b9650611ed860c08e01611ce7565b9550611ee660e08e01611ce7565b94506101008d0135915080821115611efc578384fd5b611f088e838f01611cf2565b93506101208d0135915080821115611f1e578283fd5b50611f2b8d828e01611cf2565b9150509295989b9194979a5092959850565b60008060008060808587031215611f52578384fd5b5050823594602084013594506040840135936060013592509050565b600080600080600060a08688031215611f85578081fd5b505083359560208501359550604085013594606081013594506080013592509050565b6001600160a01b0391909116815260200190565b6001600160a01b0392831681529116602082015260400190565b6001600160a01b03929092168252602082015260400190565b6001600160a01b03989098168852602088019690965260408701949094526060860192909252608085015260a084015260c0830152151560e08201526101000190565b901515815260200190565b90815260200190565b6000602080835283518082850152825b8181101561207257858101830151858201604001528201612056565b818111156120835783604083870101525b50601f01601f1916929092016040019392505050565b602080825260149082015273283937b532b1ba1d1034b7383aba1032b93937b960611b604082015260600190565b6020808252601d908201527f50726f6a6563743a2062616c616e6365206973206e6f7420746f74616c000000604082015260600190565b60208082526015908201527450726f6a6563743a207a65726f206164647265737360581b604082015260600190565b60208082526024908201527f50726f6a6563743a2050726f6a6563744465765661756c74466163746f7279206040820152637a65726f60e01b606082015260800190565b60208082526022908201527f50726f6a6563743a20746f6b656e446973747269627574696f6e206973207a65604082015261726f60f01b606082015260800190565b60208082526023908201527f50726f6a6563743a2043616c6c6572206973206e6f7420616e20646576656c6f6040820152623832b960e91b606082015260800190565b60208082526017908201527f50726f6a6563743a20616c726561647920637265617465000000000000000000604082015260600190565b60208082526028908201527f50726f6a6563743a20736574546f6b656e446973747269627574696f6e20696e6040820152671c1d5d0819985a5b60c21b606082015260800190565b60208082526026908201527f50726f6a6563743a2050726f6a6563745374616b655661756c74466163746f7260408201526579207a65726f60d01b606082015260800190565b60208082526013908201527250726f6a6563743a207661756c74207a65726f60681b604082015260600190565b60208082526016908201527550726f6a6563743a207661756c74206973207a65726f60501b604082015260600190565b6020808252601f908201527f50726f6a6563743a2043616c6c6572206973206e6f7420616e2061646d696e00604082015260600190565b60208082526023908201527f50726f6a6563743a2065786563546f6b656e446973747269627574696f6e20646040820152626f6e6560e81b606082015260800190565b9283526020830191909152604082015260600190565b988952602089019790975260408801959095526060870193909352608086019190915260a085015260c084015260e08301526101008201526101200190565b6001600160a01b03811681146123fc57600080fd5b50565b80151581146123fc57600080fdfe456e756d657261626c655365743a20696e646578206f7574206f6620626f756e6473416363657373436f6e74726f6c3a2073656e646572206d75737420626520616e2061646d696e20746f206772616e742714cbbaddbb71bcae9366d8bf7770636ec7ae63227b573986d2f54fffacb39d416363657373436f6e74726f6c3a2073656e646572206d75737420626520616e2061646d696e20746f207265766f6b65df8b4c520ffe197c5343c6f5aec59570151ef9a492f2c624fd45ddde6135ec42416363657373436f6e74726f6c3a2063616e206f6e6c792072656e6f756e636520726f6c657320666f722073656c66a2646970667358221220c0c909da48b5bfab130e1c02a64c248992ab2ad0cd2d911d65830bb1f01dd94364736f6c63430007060033df8b4c520ffe197c5343c6f5aec59570151ef9a492f2c624fd45ddde6135ec42a264697066735822122018bb8d1062550626eced8001ff327c9d182c167185889fe4a62b73fd4cf9b82a64736f6c63430007060033",
  "immutableReferences": {},
  "source": "// SPDX-License-Identifier: MIT\npragma solidity ^0.7.6;\n\nimport {Project} from \"../project/Project.sol\";\n\ncontract ProjectFactory {\n    bytes32 public constant ADMIN_ROLE = keccak256(\"ADMIN\");\n    bytes32 public constant DEV_ROLE = keccak256(\"DEVELOPER\");\n\n    function deploy(\n        uint256 _projectId,\n        string memory _projectName,\n        uint256 _startBlock,\n        uint256 _endBlock,\n        uint256 _tokenPrice,\n        address _developer,\n        address _token,\n        string memory _tokenName,\n        string memory _symbol\n    ) public returns (address) {\n        Project project = new Project();\n        project.initialize(\n            _projectId,\n            _projectName,\n            _startBlock,\n            _endBlock,\n            _tokenPrice,\n            _developer,\n            msg.sender,\n            _token,\n            _tokenName,\n            _symbol\n        );\n\n        project.grantRole(ADMIN_ROLE, msg.sender);\n        project.grantRole(DEV_ROLE, _developer);\n\n        project.revokeRole(ADMIN_ROLE, address(this));\n        return address(project);\n    }\n}\n",
  "sourcePath": "/Users/zena/ico2.0/ico20-contracts/contracts/factory/ProjectFactory.sol",
  "compiler": {
    "name": "solc",
    "version": "0.7.6+commit.7338295f.Emscripten.clang"
  },
  "schemaVersion": "3.3.4",
  "updatedAt": "2021-05-13T02:55:22.610Z",
  "devdoc": {
    "kind": "dev",
    "methods": {},
    "version": 1
  },
  "userdoc": {
    "kind": "user",
    "methods": {},
    "version": 1
  }
}