{
  "_format": "hh-sol-artifact-1",
  "contractName": "PublicSale",
  "sourceName": "contracts/sale/PublicSale.sol",
  "abi": [
    {
      "anonymous": false,
      "inputs": [
        {
          "indexed": true,
          "internalType": "address",
          "name": "from",
          "type": "address"
        },
        {
          "indexed": false,
          "internalType": "uint256",
          "name": "tier",
          "type": "uint256"
        }
      ],
      "name": "AddedWhiteList",
      "type": "event"
    },
    {
      "anonymous": false,
      "inputs": [
        {
          "indexed": true,
          "internalType": "address",
          "name": "from",
          "type": "address"
        },
        {
          "indexed": false,
          "internalType": "uint256",
          "name": "amount",
          "type": "uint256"
        }
      ],
      "name": "Claimed",
      "type": "event"
    },
    {
      "anonymous": false,
      "inputs": [
        {
          "indexed": true,
          "internalType": "address",
          "name": "from",
          "type": "address"
        },
        {
          "indexed": false,
          "internalType": "uint256",
          "name": "amount",
          "type": "uint256"
        }
      ],
      "name": "Deposited",
      "type": "event"
    },
    {
      "anonymous": false,
      "inputs": [],
      "name": "EndedExclusiveSale",
      "type": "event"
    },
    {
      "anonymous": false,
      "inputs": [
        {
          "indexed": true,
          "internalType": "address",
          "name": "from",
          "type": "address"
        },
        {
          "indexed": false,
          "internalType": "uint256",
          "name": "amount",
          "type": "uint256"
        }
      ],
      "name": "ExclusiveSaled",
      "type": "event"
    },
    {
      "anonymous": false,
      "inputs": [
        {
          "indexed": true,
          "internalType": "address",
          "name": "from",
          "type": "address"
        },
        {
          "indexed": false,
          "internalType": "uint256",
          "name": "realPayAmount",
          "type": "uint256"
        },
        {
          "indexed": false,
          "internalType": "uint256",
          "name": "returnAmount",
          "type": "uint256"
        }
      ],
      "name": "OpenSaled",
      "type": "event"
    },
    {
      "anonymous": false,
      "inputs": [
        {
          "indexed": true,
          "internalType": "bytes32",
          "name": "role",
          "type": "bytes32"
        },
        {
          "indexed": true,
          "internalType": "bytes32",
          "name": "previousAdminRole",
          "type": "bytes32"
        },
        {
          "indexed": true,
          "internalType": "bytes32",
          "name": "newAdminRole",
          "type": "bytes32"
        }
      ],
      "name": "RoleAdminChanged",
      "type": "event"
    },
    {
      "anonymous": false,
      "inputs": [
        {
          "indexed": true,
          "internalType": "bytes32",
          "name": "role",
          "type": "bytes32"
        },
        {
          "indexed": true,
          "internalType": "address",
          "name": "account",
          "type": "address"
        },
        {
          "indexed": true,
          "internalType": "address",
          "name": "sender",
          "type": "address"
        }
      ],
      "name": "RoleGranted",
      "type": "event"
    },
    {
      "anonymous": false,
      "inputs": [
        {
          "indexed": true,
          "internalType": "bytes32",
          "name": "role",
          "type": "bytes32"
        },
        {
          "indexed": true,
          "internalType": "address",
          "name": "account",
          "type": "address"
        },
        {
          "indexed": true,
          "internalType": "address",
          "name": "sender",
          "type": "address"
        }
      ],
      "name": "RoleRevoked",
      "type": "event"
    },
    {
      "inputs": [],
      "name": "ADMIN_ROLE",
      "outputs": [
        {
          "internalType": "bytes32",
          "name": "",
          "type": "bytes32"
        }
      ],
      "stateMutability": "view",
      "type": "function"
    },
    {
      "inputs": [],
      "name": "BURNER_ROLE",
      "outputs": [
        {
          "internalType": "bytes32",
          "name": "",
          "type": "bytes32"
        }
      ],
      "stateMutability": "view",
      "type": "function"
    },
    {
      "inputs": [],
      "name": "DEFAULT_ADMIN_ROLE",
      "outputs": [
        {
          "internalType": "bytes32",
          "name": "",
          "type": "bytes32"
        }
      ],
      "stateMutability": "view",
      "type": "function"
    },
    {
      "inputs": [],
      "name": "MINTER_ROLE",
      "outputs": [
        {
          "internalType": "bytes32",
          "name": "",
          "type": "bytes32"
        }
      ],
      "stateMutability": "view",
      "type": "function"
    },
    {
      "inputs": [
        {
          "internalType": "address",
          "name": "account",
          "type": "address"
        }
      ],
      "name": "addAdmin",
      "outputs": [],
      "stateMutability": "nonpayable",
      "type": "function"
    },
    {
      "inputs": [],
      "name": "addWhiteList",
      "outputs": [],
      "stateMutability": "nonpayable",
      "type": "function"
    },
    {
      "inputs": [
        {
          "internalType": "address",
          "name": "_account",
          "type": "address"
        }
      ],
      "name": "calculClaimAmount",
      "outputs": [
        {
          "internalType": "uint256",
          "name": "",
          "type": "uint256"
        }
      ],
      "stateMutability": "view",
      "type": "function"
    },
    {
      "inputs": [
        {
          "internalType": "address",
          "name": "_account",
          "type": "address"
        },
        {
          "internalType": "uint256",
          "name": "_amount",
          "type": "uint256"
        }
      ],
      "name": "calculOpenSaleAmount",
      "outputs": [
        {
          "internalType": "uint256",
          "name": "",
          "type": "uint256"
        }
      ],
      "stateMutability": "view",
      "type": "function"
    },
    {
      "inputs": [
        {
          "internalType": "uint256",
          "name": "_amount",
          "type": "uint256"
        }
      ],
      "name": "calculPayToken",
      "outputs": [
        {
          "internalType": "uint256",
          "name": "",
          "type": "uint256"
        }
      ],
      "stateMutability": "view",
      "type": "function"
    },
    {
      "inputs": [
        {
          "internalType": "uint256",
          "name": "_amount",
          "type": "uint256"
        }
      ],
      "name": "calculSaleToken",
      "outputs": [
        {
          "internalType": "uint256",
          "name": "",
          "type": "uint256"
        }
      ],
      "stateMutability": "view",
      "type": "function"
    },
    {
      "inputs": [
        {
          "internalType": "address",
          "name": "_address",
          "type": "address"
        }
      ],
      "name": "calculTier",
      "outputs": [
        {
          "internalType": "uint256",
          "name": "",
          "type": "uint256"
        }
      ],
      "stateMutability": "view",
      "type": "function"
    },
    {
      "inputs": [
        {
          "internalType": "address",
          "name": "_address",
          "type": "address"
        }
      ],
      "name": "calculTierAmount",
      "outputs": [
        {
          "internalType": "uint256",
          "name": "",
          "type": "uint256"
        }
      ],
      "stateMutability": "view",
      "type": "function"
    },
    {
      "inputs": [
        {
          "internalType": "address",
          "name": "_address",
          "type": "address"
        }
      ],
      "name": "changeTONOwner",
      "outputs": [],
      "stateMutability": "nonpayable",
      "type": "function"
    },
    {
      "inputs": [],
      "name": "claim",
      "outputs": [],
      "stateMutability": "nonpayable",
      "type": "function"
    },
    {
      "inputs": [],
      "name": "claimInterval",
      "outputs": [
        {
          "internalType": "uint256",
          "name": "",
          "type": "uint256"
        }
      ],
      "stateMutability": "view",
      "type": "function"
    },
    {
      "inputs": [],
      "name": "claimPeriod",
      "outputs": [
        {
          "internalType": "uint256",
          "name": "",
          "type": "uint256"
        }
      ],
      "stateMutability": "view",
      "type": "function"
    },
    {
      "inputs": [
        {
          "internalType": "uint256",
          "name": "_amount",
          "type": "uint256"
        }
      ],
      "name": "deposit",
      "outputs": [],
      "stateMutability": "nonpayable",
      "type": "function"
    },
    {
      "inputs": [
        {
          "internalType": "uint256",
          "name": "",
          "type": "uint256"
        }
      ],
      "name": "depositors",
      "outputs": [
        {
          "internalType": "address",
          "name": "",
          "type": "address"
        }
      ],
      "stateMutability": "view",
      "type": "function"
    },
    {
      "inputs": [],
      "name": "endAddWhiteTime",
      "outputs": [
        {
          "internalType": "uint256",
          "name": "",
          "type": "uint256"
        }
      ],
      "stateMutability": "view",
      "type": "function"
    },
    {
      "inputs": [],
      "name": "endDepositTime",
      "outputs": [
        {
          "internalType": "uint256",
          "name": "",
          "type": "uint256"
        }
      ],
      "stateMutability": "view",
      "type": "function"
    },
    {
      "inputs": [],
      "name": "endExclusiveSale",
      "outputs": [],
      "stateMutability": "nonpayable",
      "type": "function"
    },
    {
      "inputs": [],
      "name": "endExclusiveSaleExec",
      "outputs": [
        {
          "internalType": "bool",
          "name": "",
          "type": "bool"
        }
      ],
      "stateMutability": "view",
      "type": "function"
    },
    {
      "inputs": [],
      "name": "endExclusiveTime",
      "outputs": [
        {
          "internalType": "uint256",
          "name": "",
          "type": "uint256"
        }
      ],
      "stateMutability": "view",
      "type": "function"
    },
    {
      "inputs": [],
      "name": "endOpenSaleTime",
      "outputs": [
        {
          "internalType": "uint256",
          "name": "",
          "type": "uint256"
        }
      ],
      "stateMutability": "view",
      "type": "function"
    },
    {
      "inputs": [
        {
          "internalType": "uint256",
          "name": "_amount",
          "type": "uint256"
        }
      ],
      "name": "exclusiveSale",
      "outputs": [],
      "stateMutability": "nonpayable",
      "type": "function"
    },
    {
      "inputs": [
        {
          "internalType": "bytes32",
          "name": "role",
          "type": "bytes32"
        }
      ],
      "name": "getRoleAdmin",
      "outputs": [
        {
          "internalType": "bytes32",
          "name": "",
          "type": "bytes32"
        }
      ],
      "stateMutability": "view",
      "type": "function"
    },
    {
      "inputs": [
        {
          "internalType": "bytes32",
          "name": "role",
          "type": "bytes32"
        },
        {
          "internalType": "uint256",
          "name": "index",
          "type": "uint256"
        }
      ],
      "name": "getRoleMember",
      "outputs": [
        {
          "internalType": "address",
          "name": "",
          "type": "address"
        }
      ],
      "stateMutability": "view",
      "type": "function"
    },
    {
      "inputs": [
        {
          "internalType": "bytes32",
          "name": "role",
          "type": "bytes32"
        }
      ],
      "name": "getRoleMemberCount",
      "outputs": [
        {
          "internalType": "uint256",
          "name": "",
          "type": "uint256"
        }
      ],
      "stateMutability": "view",
      "type": "function"
    },
    {
      "inputs": [],
      "name": "getToken",
      "outputs": [
        {
          "internalType": "contract IERC20",
          "name": "",
          "type": "address"
        }
      ],
      "stateMutability": "view",
      "type": "function"
    },
    {
      "inputs": [],
      "name": "getTokenOwner",
      "outputs": [
        {
          "internalType": "address",
          "name": "",
          "type": "address"
        }
      ],
      "stateMutability": "view",
      "type": "function"
    },
    {
      "inputs": [
        {
          "internalType": "bytes32",
          "name": "role",
          "type": "bytes32"
        },
        {
          "internalType": "address",
          "name": "account",
          "type": "address"
        }
      ],
      "name": "grantRole",
      "outputs": [],
      "stateMutability": "nonpayable",
      "type": "function"
    },
    {
      "inputs": [
        {
          "internalType": "bytes32",
          "name": "role",
          "type": "bytes32"
        },
        {
          "internalType": "address",
          "name": "account",
          "type": "address"
        }
      ],
      "name": "hasRole",
      "outputs": [
        {
          "internalType": "bool",
          "name": "",
          "type": "bool"
        }
      ],
      "stateMutability": "view",
      "type": "function"
    },
    {
      "inputs": [
        {
          "internalType": "address",
          "name": "account",
          "type": "address"
        }
      ],
      "name": "isAdmin",
      "outputs": [
        {
          "internalType": "bool",
          "name": "",
          "type": "bool"
        }
      ],
      "stateMutability": "view",
      "type": "function"
    },
    {
      "inputs": [],
      "name": "openSale",
      "outputs": [],
      "stateMutability": "nonpayable",
      "type": "function"
    },
    {
      "inputs": [],
      "name": "pauseProxy",
      "outputs": [
        {
          "internalType": "bool",
          "name": "",
          "type": "bool"
        }
      ],
      "stateMutability": "view",
      "type": "function"
    },
    {
      "inputs": [],
      "name": "payTokenPrice",
      "outputs": [
        {
          "internalType": "uint256",
          "name": "",
          "type": "uint256"
        }
      ],
      "stateMutability": "view",
      "type": "function"
    },
    {
      "inputs": [
        {
          "internalType": "address",
          "name": "account",
          "type": "address"
        }
      ],
      "name": "removeAdmin",
      "outputs": [],
      "stateMutability": "nonpayable",
      "type": "function"
    },
    {
      "inputs": [
        {
          "internalType": "bytes32",
          "name": "role",
          "type": "bytes32"
        },
        {
          "internalType": "address",
          "name": "account",
          "type": "address"
        }
      ],
      "name": "renounceRole",
      "outputs": [],
      "stateMutability": "nonpayable",
      "type": "function"
    },
    {
      "inputs": [],
      "name": "reset",
      "outputs": [],
      "stateMutability": "nonpayable",
      "type": "function"
    },
    {
      "inputs": [
        {
          "internalType": "bytes32",
          "name": "role",
          "type": "bytes32"
        },
        {
          "internalType": "address",
          "name": "account",
          "type": "address"
        }
      ],
      "name": "revokeRole",
      "outputs": [],
      "stateMutability": "nonpayable",
      "type": "function"
    },
    {
      "inputs": [],
      "name": "sTOS",
      "outputs": [
        {
          "internalType": "contract ILockTOS",
          "name": "",
          "type": "address"
        }
      ],
      "stateMutability": "view",
      "type": "function"
    },
    {
      "inputs": [],
      "name": "saleToken",
      "outputs": [
        {
          "internalType": "contract IERC20",
          "name": "",
          "type": "address"
        }
      ],
      "stateMutability": "view",
      "type": "function"
    },
    {
      "inputs": [],
      "name": "saleTokenPrice",
      "outputs": [
        {
          "internalType": "uint256",
          "name": "",
          "type": "uint256"
        }
      ],
      "stateMutability": "view",
      "type": "function"
    },
    {
      "inputs": [
        {
          "internalType": "uint256[4]",
          "name": "_exclusiveTime",
          "type": "uint256[4]"
        },
        {
          "internalType": "uint256[4]",
          "name": "_openSaleTime",
          "type": "uint256[4]"
        },
        {
          "internalType": "uint256[3]",
          "name": "_claimTime",
          "type": "uint256[3]"
        }
      ],
      "name": "setAllValue",
      "outputs": [],
      "stateMutability": "nonpayable",
      "type": "function"
    },
    {
      "inputs": [
        {
          "internalType": "uint256",
          "name": "_startClaimTime",
          "type": "uint256"
        },
        {
          "internalType": "uint256",
          "name": "_claimInterval",
          "type": "uint256"
        },
        {
          "internalType": "uint256",
          "name": "_claimPeriod",
          "type": "uint256"
        }
      ],
      "name": "setClaim",
      "outputs": [],
      "stateMutability": "nonpayable",
      "type": "function"
    },
    {
      "inputs": [
        {
          "internalType": "uint256",
          "name": "_startAddWhiteTime",
          "type": "uint256"
        },
        {
          "internalType": "uint256",
          "name": "_endAddWhiteTime",
          "type": "uint256"
        },
        {
          "internalType": "uint256",
          "name": "_startExclusiveTime",
          "type": "uint256"
        },
        {
          "internalType": "uint256",
          "name": "_endExclusiveTime",
          "type": "uint256"
        }
      ],
      "name": "setExclusiveTime",
      "outputs": [],
      "stateMutability": "nonpayable",
      "type": "function"
    },
    {
      "inputs": [
        {
          "internalType": "uint256",
          "name": "_startDepositTime",
          "type": "uint256"
        },
        {
          "internalType": "uint256",
          "name": "_endDepositTime",
          "type": "uint256"
        },
        {
          "internalType": "uint256",
          "name": "_startOpenSaleTime",
          "type": "uint256"
        },
        {
          "internalType": "uint256",
          "name": "_endOpenSaleTime",
          "type": "uint256"
        }
      ],
      "name": "setOpenTime",
      "outputs": [],
      "stateMutability": "nonpayable",
      "type": "function"
    },
    {
      "inputs": [
        {
          "internalType": "uint256",
          "name": "_totalExpectSaleAmount",
          "type": "uint256"
        },
        {
          "internalType": "uint256",
          "name": "_totalExpectOpenSaleAmount",
          "type": "uint256"
        }
      ],
      "name": "setSaleAmount",
      "outputs": [],
      "stateMutability": "nonpayable",
      "type": "function"
    },
    {
      "inputs": [
        {
          "internalType": "uint256",
          "name": "_snapshot",
          "type": "uint256"
        }
      ],
      "name": "setSnapshot",
      "outputs": [],
      "stateMutability": "nonpayable",
      "type": "function"
    },
    {
      "inputs": [
        {
          "internalType": "uint256",
          "name": "_tier1",
          "type": "uint256"
        },
        {
          "internalType": "uint256",
          "name": "_tier2",
          "type": "uint256"
        },
        {
          "internalType": "uint256",
          "name": "_tier3",
          "type": "uint256"
        },
        {
          "internalType": "uint256",
          "name": "_tier4",
          "type": "uint256"
        }
      ],
      "name": "setTier",
      "outputs": [],
      "stateMutability": "nonpayable",
      "type": "function"
    },
    {
      "inputs": [
        {
          "internalType": "uint256",
          "name": "_tier1",
          "type": "uint256"
        },
        {
          "internalType": "uint256",
          "name": "_tier2",
          "type": "uint256"
        },
        {
          "internalType": "uint256",
          "name": "_tier3",
          "type": "uint256"
        },
        {
          "internalType": "uint256",
          "name": "_tier4",
          "type": "uint256"
        }
      ],
      "name": "setTierPercents",
      "outputs": [],
      "stateMutability": "nonpayable",
      "type": "function"
    },
    {
      "inputs": [
        {
          "internalType": "uint256",
          "name": "_saleTokenPrice",
          "type": "uint256"
        },
        {
          "internalType": "uint256",
          "name": "_payTokenPrice",
          "type": "uint256"
        }
      ],
      "name": "setTokenPrice",
      "outputs": [],
      "stateMutability": "nonpayable",
      "type": "function"
    },
    {
      "inputs": [],
      "name": "snapshot",
      "outputs": [
        {
          "internalType": "uint256",
          "name": "",
          "type": "uint256"
        }
      ],
      "stateMutability": "view",
      "type": "function"
    },
    {
      "inputs": [],
      "name": "startAddWhiteTime",
      "outputs": [
        {
          "internalType": "uint256",
          "name": "",
          "type": "uint256"
        }
      ],
      "stateMutability": "view",
      "type": "function"
    },
    {
      "inputs": [],
      "name": "startClaimTime",
      "outputs": [
        {
          "internalType": "uint256",
          "name": "",
          "type": "uint256"
        }
      ],
      "stateMutability": "view",
      "type": "function"
    },
    {
      "inputs": [],
      "name": "startDepositTime",
      "outputs": [
        {
          "internalType": "uint256",
          "name": "",
          "type": "uint256"
        }
      ],
      "stateMutability": "view",
      "type": "function"
    },
    {
      "inputs": [],
      "name": "startExclusiveTime",
      "outputs": [
        {
          "internalType": "uint256",
          "name": "",
          "type": "uint256"
        }
      ],
      "stateMutability": "view",
      "type": "function"
    },
    {
      "inputs": [],
      "name": "startOpenSaleTime",
      "outputs": [
        {
          "internalType": "uint256",
          "name": "",
          "type": "uint256"
        }
      ],
      "stateMutability": "view",
      "type": "function"
    },
    {
      "inputs": [
        {
          "internalType": "uint256",
          "name": "",
          "type": "uint256"
        }
      ],
      "name": "tiers",
      "outputs": [
        {
          "internalType": "uint256",
          "name": "",
          "type": "uint256"
        }
      ],
      "stateMutability": "view",
      "type": "function"
    },
    {
      "inputs": [
        {
          "internalType": "uint256",
          "name": "",
          "type": "uint256"
        }
      ],
      "name": "tiersAccount",
      "outputs": [
        {
          "internalType": "uint256",
          "name": "",
          "type": "uint256"
        }
      ],
      "stateMutability": "view",
      "type": "function"
    },
    {
      "inputs": [
        {
          "internalType": "uint256",
          "name": "",
          "type": "uint256"
        }
      ],
      "name": "tiersExAccount",
      "outputs": [
        {
          "internalType": "uint256",
          "name": "",
          "type": "uint256"
        }
      ],
      "stateMutability": "view",
      "type": "function"
    },
    {
      "inputs": [
        {
          "internalType": "uint256",
          "name": "",
          "type": "uint256"
        }
      ],
      "name": "tiersPercents",
      "outputs": [
        {
          "internalType": "uint256",
          "name": "",
          "type": "uint256"
        }
      ],
      "stateMutability": "view",
      "type": "function"
    },
    {
      "inputs": [],
      "name": "totalDepositAmount",
      "outputs": [
        {
          "internalType": "uint256",
          "name": "",
          "type": "uint256"
        }
      ],
      "stateMutability": "view",
      "type": "function"
    },
    {
      "inputs": [],
      "name": "totalExPurchasedAmount",
      "outputs": [
        {
          "internalType": "uint256",
          "name": "",
          "type": "uint256"
        }
      ],
      "stateMutability": "view",
      "type": "function"
    },
    {
      "inputs": [],
      "name": "totalExSaleAmount",
      "outputs": [
        {
          "internalType": "uint256",
          "name": "",
          "type": "uint256"
        }
      ],
      "stateMutability": "view",
      "type": "function"
    },
    {
      "inputs": [],
      "name": "totalExpectOpenSaleAmount",
      "outputs": [
        {
          "internalType": "uint256",
          "name": "",
          "type": "uint256"
        }
      ],
      "stateMutability": "view",
      "type": "function"
    },
    {
      "inputs": [],
      "name": "totalExpectSaleAmount",
      "outputs": [
        {
          "internalType": "uint256",
          "name": "",
          "type": "uint256"
        }
      ],
      "stateMutability": "view",
      "type": "function"
    },
    {
      "inputs": [],
      "name": "totalOpenPurchasedAmount",
      "outputs": [
        {
          "internalType": "uint256",
          "name": "",
          "type": "uint256"
        }
      ],
      "stateMutability": "view",
      "type": "function"
    },
    {
      "inputs": [],
      "name": "totalOpenSaleAmount",
      "outputs": [
        {
          "internalType": "uint256",
          "name": "",
          "type": "uint256"
        }
      ],
      "stateMutability": "view",
      "type": "function"
    },
    {
      "inputs": [],
      "name": "totalWhitelists",
      "outputs": [
        {
          "internalType": "uint256",
          "name": "",
          "type": "uint256"
        }
      ],
      "stateMutability": "view",
      "type": "function"
    },
    {
      "inputs": [
        {
          "internalType": "address",
          "name": "newAdmin",
          "type": "address"
        }
      ],
      "name": "transferAdmin",
      "outputs": [],
      "stateMutability": "nonpayable",
      "type": "function"
    },
    {
      "inputs": [
        {
          "internalType": "address",
          "name": "",
          "type": "address"
        }
      ],
      "name": "usersClaim",
      "outputs": [
        {
          "internalType": "uint256",
          "name": "totalClaimReward",
          "type": "uint256"
        },
        {
          "internalType": "uint256",
          "name": "periodReward",
          "type": "uint256"
        },
        {
          "internalType": "uint256",
          "name": "claimAmount",
          "type": "uint256"
        }
      ],
      "stateMutability": "view",
      "type": "function"
    },
    {
      "inputs": [
        {
          "internalType": "address",
          "name": "",
          "type": "address"
        }
      ],
      "name": "usersEx",
      "outputs": [
        {
          "internalType": "bool",
          "name": "join",
          "type": "bool"
        },
        {
          "internalType": "uint256",
          "name": "tier",
          "type": "uint256"
        },
        {
          "internalType": "uint256",
          "name": "payAmount",
          "type": "uint256"
        },
        {
          "internalType": "uint256",
          "name": "saleAmount",
          "type": "uint256"
        }
      ],
      "stateMutability": "view",
      "type": "function"
    },
    {
      "inputs": [
        {
          "internalType": "address",
          "name": "",
          "type": "address"
        }
      ],
      "name": "usersOpen",
      "outputs": [
        {
          "internalType": "bool",
          "name": "join",
          "type": "bool"
        },
        {
          "internalType": "uint256",
          "name": "depositAmount",
          "type": "uint256"
        },
        {
          "internalType": "uint256",
          "name": "payAmount",
          "type": "uint256"
        },
        {
          "internalType": "uint256",
          "name": "saleAmount",
          "type": "uint256"
        }
      ],
      "stateMutability": "view",
      "type": "function"
    },
    {
      "inputs": [],
      "name": "withdraw",
      "outputs": [],
      "stateMutability": "nonpayable",
      "type": "function"
    }
  ],
  "bytecode": "0x60806040526000600155600060025560006003556000600455600060055560006006556000600755600060085560006009556000600a556000600b556000600c556000600d5534801561005157600080fd5b5060016025556143a3806100666000396000f3fe608060405234801561001057600080fd5b50600436106104f95760003560e01c80638181e847116102a1578063c5408d501161016b578063e016bac4116100e3578063eb685c4711610097578063f3e16d481161007c578063f3e16d4814610b79578063f5af342b14610b9c578063ff6dac7614610bc2576104f9565b8063eb685c4714610b4e578063eb8445f814610b71576104f9565b8063e495544a116100c8578063e495544a14610b00578063e4b2fb7914610b29578063e985e36714610b46576104f9565b8063e016bac414610ad2578063e30821c614610ada576104f9565b8063d53913931161013a578063d826f88f1161011f578063d826f88f14610aba578063dda4ac3414610ac2578063df74e09c14610aca576104f9565b8063d539139314610a86578063d547741f14610a8e576104f9565b8063c5408d5014610a0c578063ca15c87314610a14578063cae9ce1b14610a31578063cb27419d14610a57576104f9565b806398e0e27811610219578063b6b55f25116101cd578063b960ca04116101b2578063b960ca04146109f4578063bfc630b1146109fc578063c3e5763514610a04576104f9565b8063b6b55f25146109cf578063b7182b95146109ec576104f9565b8063a217fddf116101fe578063a217fddf146109a2578063a38ffdea146109aa578063a55abb17146109c7576104f9565b806398e0e27814610974578063a1b89b701461099a576104f9565b80638fa7e8e41161027057806391d148541161025557806391d148541461093857806395252692146109645780639711715a1461096c576104f9565b80638fa7e8e41461090d5780639010d07c14610915576104f9565b80638181e847146108d857806381a9f6d7146108e05780638a0586c1146108e85780638f68711a146108f0576104f9565b806337bf0719116103e257806366ce72711161035a57806370e5410a1161030e57806375b238fc116102f357806375b238fc146108a25780637dc2cd98146108aa5780637ecd5c70146108b2576104f9565b806370e5410a1461087457806375829def1461087c576104f9565b8063690480051161033f57806369048005146108145780636c23083914610831578063704802751461084e576104f9565b806366ce7271146107ef57806367b399a5146107f7576104f9565b8063494600ea116103b157806351d28a7e1161039657806351d28a7e146107c257806360a2a25c146107ca57806363a8fd89146107e7576104f9565b8063494600ea1461078e5780634e71d92d146107ba576104f9565b806337bf0719146107285780633ccfd60b146107305780633ef541b51461073857806341c0cb7714610740576104f9565b806321df0da711610475578063282c51f3116104445780632dcdbfd3116104295780632dcdbfd3146106a15780632f2ff15d146106d057806336568abe146106fc576104f9565b8063282c51f3146106915780632cbf318814610699576104f9565b806321df0da71461060e578063226bf1a414610632578063248a9ca31461063a57806324d7806c14610657576104f9565b8063167ff46f116104cc5780631a1197e7116104b15780631a1197e7146105b15780631bfc751e146105d7578063218183a3146105df576104f9565b8063167ff46f146105835780631785f53c1461058b576104f9565b8063039af9eb146104fe5780630a8885501461052d5780630b433a121461055e5780630e6e12b414610566575b600080fd5b61051b6004803603602081101561051457600080fd5b5035610c06565b60408051918252519081900360200190f35b61055c6004803603608081101561054357600080fd5b5080359060208101359060408101359060600135610c17565b005b61051b610def565b61055c6004803603602081101561057c57600080fd5b5035610df5565b61055c611148565b61055c600480360360208110156105a157600080fd5b50356001600160a01b031661147f565b61051b600480360360208110156105c757600080fd5b50356001600160a01b03166114f0565b61051b6115af565b61055c600480360360808110156105f557600080fd5b50803590602081013590604081013590606001356115b5565b61061661187e565b604080516001600160a01b039092168252519081900360200190f35b61051b61188d565b61051b6004803603602081101561065057600080fd5b5035611893565b61067d6004803603602081101561066d57600080fd5b50356001600160a01b03166118a8565b604080519115158252519081900360200190f35b61051b6118da565b61051b6118fe565b61055c600480360360808110156106b757600080fd5b5080359060208101359060408101359060600135611904565b61055c600480360360408110156106e657600080fd5b50803590602001356001600160a01b0316611b61565b61055c6004803603604081101561071257600080fd5b50803590602001356001600160a01b0316611bcd565b610616611c2e565b61055c611c3d565b61051b611d1c565b6107666004803603602081101561075657600080fd5b50356001600160a01b0316611d22565b6040805194151585526020850193909352838301919091526060830152519081900360800190f35b61051b600480360360408110156107a457600080fd5b506001600160a01b038135169060200135611d4d565b61055c611da9565b61051b612019565b61051b600480360360208110156107e057600080fd5b503561201f565b61067d612044565b61051b61204d565b61051b6004803603602081101561080d57600080fd5b5035612053565b61051b6004803603602081101561082a57600080fd5b5035612065565b61055c6004803603602081101561084757600080fd5b5035612077565b61055c6004803603602081101561086457600080fd5b50356001600160a01b031661210a565b61051b612178565b61055c6004803603602081101561089257600080fd5b50356001600160a01b031661217e565b61051b6122cf565b61051b6122f3565b61051b600480360360208110156108c857600080fd5b50356001600160a01b03166122f9565b61055c61278c565b61051b6129c4565b61051b6129ca565b61051b6004803603602081101561090657600080fd5b50356129d0565b61055c6129e2565b6106166004803603604081101561092b57600080fd5b5080359060200135612abe565b61067d6004803603604081101561094e57600080fd5b50803590602001356001600160a01b0316612ad6565b61051b612aee565b61051b612af4565b61055c600480360361016081101561098b57600080fd5b50608081016101008201612afa565b61051b612c2c565b61051b612c32565b61051b600480360360208110156109c057600080fd5b5035612c37565b61051b612c55565b61055c600480360360208110156109e557600080fd5b5035612c5b565b610616612e4f565b61051b612e5e565b61051b612e64565b61051b612e6a565b61051b612e70565b61051b60048036036020811015610a2a57600080fd5b5035612e76565b61076660048036036020811015610a4757600080fd5b50356001600160a01b0316612e8d565b61055c60048036036080811015610a6d57600080fd5b5080359060208101359060408101359060600135612eb8565b61051b613090565b61055c60048036036040811015610aa457600080fd5b50803590602001356001600160a01b03166130b4565b61055c61310d565b61067d613158565b61051b613161565b61051b613167565b61055c60048036036020811015610af057600080fd5b50356001600160a01b031661316d565b61055c60048036036060811015610b1657600080fd5b50803590602081013590604001356131e0565b61061660048036036020811015610b3f57600080fd5b5035613368565b610616613392565b61055c60048036036040811015610b6457600080fd5b50803590602001356133a1565b61051b6134dc565b61055c60048036036040811015610b8f57600080fd5b50803590602001356134e2565b61051b60048036036020811015610bb257600080fd5b50356001600160a01b03166135dc565b610be860048036036020811015610bd857600080fd5b50356001600160a01b03166136f9565b60408051938452602084019290925282820152519081900360600190f35b602080526000908152604090205481565b610c20336118a8565b610c5b5760405162461bcd60e51b81526004018080602001828103825260228152602001806140756022913960400191505060405180910390fd5b8360008111610ca4576040805162461bcd60e51b815260206004820152601060248201526f5075626c696353616c653a207a65726f60801b604482015290519081900360640190fd5b8360008111610ced576040805162461bcd60e51b815260206004820152601060248201526f5075626c696353616c653a207a65726f60801b604482015290519081900360640190fd5b8360008111610d36576040805162461bcd60e51b815260206004820152601060248201526f5075626c696353616c653a207a65726f60801b604482015290519081900360640190fd5b8360008111610d7f576040805162461bcd60e51b815260206004820152601060248201526f5075626c696353616c653a207a65726f60801b604482015290519081900360640190fd5b6002541580610d9c57506000600254118015610d9c575060025442105b610dd75760405162461bcd60e51b81526004018080602001828103825260278152602001806142eb6027913960400191505060405180910390fd5b50505060029490945560039290925560045560055550565b60155481565b60165460008111610e40576040805162461bcd60e51b815260206004820152601060248201526f5075626c696353616c653a207a65726f60801b604482015290519081900360640190fd5b60026025541415610e98576040805162461bcd60e51b815260206004820152601f60248201527f5265656e7472616e637947756172643a207265656e7472616e742063616c6c00604482015290519081900360640190fd5b6002602555600454421015610ede5760405162461bcd60e51b815260040180806020018281038252602d815260200180614048602d913960400191505060405180910390fd5b6005544210610f1e5760405162461bcd60e51b815260040180806020018281038252602181526020018061416a6021913960400191505060405180910390fd5b336000908152601d60205260409020805460ff161515600114610f725760405162461bcd60e51b81526004018080602001828103825260248152602001806140ff6024913960400191505060405180910390fd5b6000610f7d84612c37565b90506000610f8a336114f0565b905081811015610fcb5760405162461bcd60e51b81526004018080602001828103825260258152602001806140b86025913960400191505060405180910390fd5b6003830154610fda908361371a565b8110156110185760405162461bcd60e51b8152600401808060200182810382526027815260200180613ffd6027913960400191505060405180910390fd5b336000908152601f602052604090206002840154611036908761371a565b6002850155600384015461104a908461371a565b6003850155805461105b908461371a565b80825560165460009161106d91613774565b60018301819055600d54909150611084908861371a565b600d55600c54611094908561371a565b600c5560006110a2336122f9565b6000818152602260205260409020549091506110bf90600161371a565b6000828152602260205260409020556019546110e6906001600160a01b031633308b6137b6565b601754601954611103916001600160a01b0391821691168a613844565b60408051898152905133917fc2198f7273f3b4ab95a025cf1f853777ca45149bbc1c005496959a6da70fcb8d919081900360200190a250506001602555505050505050565b60165460008111611193576040805162461bcd60e51b815260206004820152601060248201526f5075626c696353616c653a207a65726f60801b604482015290519081900360640190fd5b6008544210156111d45760405162461bcd60e51b81526004018080602001828103825260248152602001806140246024913960400191505060405180910390fd5b600954421061122a576040805162461bcd60e51b815260206004820181905260248201527f5075626c696353616c653a20656e6420746865206f70656e53616c6554696d65604482015290519081900360640190fd5b336000908152601e60209081526040808320601f909252909120815460ff1615156001146112895760405162461bcd60e51b81526004018080602001828103825260268152602001806142056026913960400191505060405180910390fd5b6000611296336000611d4d565b905060006112a38261201f565b9050836001015481101561139b5760018401546000906112c390836138c9565b60028601549091506112d5908361371a565b600286015560038501546112e9908461371a565b6003860155600f546112fb908461371a565b600f55835461130a908461371a565b80855560165460009161131c91613774565b6001860181905560195490915061133d906001600160a01b03163384613844565b60175460195461135a916001600160a01b03918216911685613844565b6040805184815260208101849052815133927fab5af67e1fdcb45ef07e3822ceb6cf00962efac00cb9305c1e439d5d6fa95c21928290030190a25050611478565b600184015460028501546113ae9161371a565b600285015560018401546000906113c490612c37565b60038601549091506113d6908261371a565b6003860155600f546113e8908261371a565b600f5583546113f7908261371a565b80855560165460009161140991613774565b600180870182905560175490880154601954929350611435926001600160a01b03908116921690613844565b60018601546040805191825260006020830152805133927fab5af67e1fdcb45ef07e3822ceb6cf00962efac00cb9305c1e439d5d6fa95c2192908290030190a250505b5050505050565b611488336118a8565b6114c35760405162461bcd60e51b81526004018080602001828103825260228152602001806140756022913960400191505060405180910390fd5b6114ed7fdf8b4c520ffe197c5343c6f5aec59570151ef9a492f2c624fd45ddde6135ec4282611bcd565b50565b6001600160a01b0381166000908152601d6020526040812081611512846122f9565b825490915060ff1615156001141561156557600081815260216020908152604080832054602390925282205460115461155a926127109261155492839161390b565b90613774565b93506115aa92505050565b60008181526021602090815260408083205460239092528220546011546001909201929161159e9161271091611554918691839161390b565b94506115aa9350505050565b919050565b600a5481565b6115be336118a8565b6115f95760405162461bcd60e51b81526004018080602001828103825260228152602001806140756022913960400191505060405180910390fd5b8360008111611642576040805162461bcd60e51b815260206004820152601060248201526f5075626c696353616c653a207a65726f60801b604482015290519081900360640190fd5b836000811161168b576040805162461bcd60e51b815260206004820152601060248201526f5075626c696353616c653a207a65726f60801b604482015290519081900360640190fd5b83600081116116d4576040805162461bcd60e51b815260206004820152601060248201526f5075626c696353616c653a207a65726f60801b604482015290519081900360640190fd5b836000811161171d576040805162461bcd60e51b815260206004820152601060248201526f5075626c696353616c653a207a65726f60801b604482015290519081900360640190fd5b600254158061173a5750600060025411801561173a575060025442105b6117755760405162461bcd60e51b81526004018080602001828103825260278152602001806142eb6027913960400191505060405180910390fd5b61178b8561178588818c8c61371a565b9061371a565b612710146117e0576040805162461bcd60e51b815260206004820152601f60248201527f5075626c696353616c653a2053756d2073686f756c6420626520313030303000604482015290519081900360640190fd5b5050602360205250507fb361aea33a0348d043deace4a562cb920ac10508397ad80f12dfe9a2a063e047939093557f1bcb44d21c67d5659cdd5f45cd32c6d6c6d33d5044115600c6652ecd87939c09919091557fca0574cb82515dd8d8feabc9bfece9b4778855cddef4d6e8f68e64178480ff7e5560046000527f33b8220312bcdd418636a962462731c74cfa4e2d018a461116daf7a4f539e35d55565b6019546001600160a01b031681565b60145481565b60009081526024602052604090206002015490565b60006118d47fdf8b4c520ffe197c5343c6f5aec59570151ef9a492f2c624fd45ddde6135ec4283612ad6565b92915050565b7f9667e80708b6eeeb0053fa0cca44e028ff548e2a9f029edfeac87c118b08b7c881565b600f5481565b61190d336118a8565b6119485760405162461bcd60e51b81526004018080602001828103825260228152602001806140756022913960400191505060405180910390fd5b8360008111611991576040805162461bcd60e51b815260206004820152601060248201526f5075626c696353616c653a207a65726f60801b604482015290519081900360640190fd5b83600081116119da576040805162461bcd60e51b815260206004820152601060248201526f5075626c696353616c653a207a65726f60801b604482015290519081900360640190fd5b8360008111611a23576040805162461bcd60e51b815260206004820152601060248201526f5075626c696353616c653a207a65726f60801b604482015290519081900360640190fd5b8360008111611a6c576040805162461bcd60e51b815260206004820152601060248201526f5075626c696353616c653a207a65726f60801b604482015290519081900360640190fd5b6002541580611a8957506000600254118015611a89575060025442105b611ac45760405162461bcd60e51b81526004018080602001828103825260278152602001806142eb6027913960400191505060405180910390fd5b50506020805250507f156774b33c8bc7cb83eda4cbc43b36c7c9490ff8913c488ccd5132cfc71344ea939093557f2c5f9a2e204d4db70ad0f9037679e33061b4c51a386497019bee969e16be28d7919091557f1ae1eab41a4db68d73559dd6c8b7ac16a4bc819634768486d35edbff05543abf5560046000527faf69f7ec271f94daa686978b3a96acf46914b99f1828a3f8265276d5eab630fa55565b600082815260246020526040902060020154611b8490611b7f613964565b612ad6565b611bbf5760405162461bcd60e51b815260040180806020018281038252602f815260200180613fce602f913960400191505060405180910390fd5b611bc98282613968565b5050565b611bd5613964565b6001600160a01b0316816001600160a01b031614611c245760405162461bcd60e51b815260040180806020018281038252602f815260200180614312602f913960400191505060405180910390fd5b611bc982826139d1565b601a546001600160a01b031681565b611c46336118a8565b611c815760405162461bcd60e51b81526004018080602001828103825260228152602001806140756022913960400191505060405180910390fd5b6009544211611cd7576040805162461bcd60e51b815260206004820181905260248201527f5075626c696353616c653a20656e6420746865206f70656e53616c6554696d65604482015290519081900360640190fd5b6000611d02600f54611cfc600c54611cfc60125460115461371a90919063ffffffff16565b906138c9565b6018549091506114ed906001600160a01b03163383613844565b60075481565b601e60205260009081526040902080546001820154600283015460039093015460ff90921692909184565b6001600160a01b0382166000908152601e6020526040812060018101548290611d76908561371a565b90506000611d9f611d9286600e5461371a90919063ffffffff16565b601254611554908561390b565b9695505050505050565b600a54421015611dea5760405162461bcd60e51b81526004018080602001828103825260218152602001806141496021913960400191505060405180910390fd5b336000908152601f602052604090208054611e365760405162461bcd60e51b81526004018080602001828103825260228152602001806140dd6022913960400191505060405180910390fd5b6000611e41336135dc565b905060008111611e98576040805162461bcd60e51b815260206004820152601560248201527f5075626c696353616c653a206e6f207265776172640000000000000000000000604482015290519081900360640190fd5b600282015482548291611eab91906138c9565b1015611ee85760405162461bcd60e51b815260040180806020018281038252602881526020018061427c6028913960400191505060405180910390fd5b601854604080517f70a08231000000000000000000000000000000000000000000000000000000008152306004820152905183926001600160a01b0316916370a08231916024808301926020929190829003018186803b158015611f4b57600080fd5b505afa158015611f5f573d6000803e3d6000fd5b505050506040513d6020811015611f7557600080fd5b50511015611fb45760405162461bcd60e51b815260040180806020018281038252602781526020018061422b6027913960400191505060405180910390fd5b6002820154611fc3908261371a565b6002830155601854611fdf906001600160a01b03163383613844565b60408051828152905133917fd8138f8a3f377c5259ca548e70e4c2de94f129f5a11036a15b69513cba2b426a919081900360200190a25050565b60135481565b60008061203d6014546115546013548661390b90919063ffffffff16565b9392505050565b60005460ff1681565b60055481565b60216020526000908152604090205481565b60236020526000908152604090205481565b612080336118a8565b6120bb5760405162461bcd60e51b81526004018080602001828103825260228152602001806140756022913960400191505060405180910390fd5b8060008111612104576040805162461bcd60e51b815260206004820152601060248201526f5075626c696353616c653a207a65726f60801b604482015290519081900360640190fd5b50600155565b612113336118a8565b61214e5760405162461bcd60e51b81526004018080602001828103825260228152602001806140756022913960400191505060405180910390fd5b6114ed7fdf8b4c520ffe197c5343c6f5aec59570151ef9a492f2c624fd45ddde6135ec4282611b61565b60105481565b612187336118a8565b6121c25760405162461bcd60e51b81526004018080602001828103825260228152602001806140756022913960400191505060405180910390fd5b6001600160a01b03811661221d576040805162461bcd60e51b815260206004820152601860248201527f41636365737369626c653a207a65726f20616464726573730000000000000000604482015290519081900360640190fd5b336001600160a01b038216141561227b576040805162461bcd60e51b815260206004820152601660248201527f41636365737369626c653a2073616d652061646d696e00000000000000000000604482015290519081900360640190fd5b6122a57fdf8b4c520ffe197c5343c6f5aec59570151ef9a492f2c624fd45ddde6135ec4282611b61565b6114ed7fdf8b4c520ffe197c5343c6f5aec59570151ef9a492f2c624fd45ddde6135ec4233611bcd565b7fdf8b4c520ffe197c5343c6f5aec59570151ef9a492f2c624fd45ddde6135ec4281565b60165481565b601a546000906001600160a01b03168061235a576040805162461bcd60e51b815260206004820152601860248201527f5075626c696353616c653a207a65726f20616464726573730000000000000000604482015290519081900360640190fd5b6001600052602080527f156774b33c8bc7cb83eda4cbc43b36c7c9490ff8913c488ccd5132cfc71344ea54806123ca576040805162461bcd60e51b815260206004820152601060248201526f5075626c696353616c653a207a65726f60801b604482015290519081900360640190fd5b6002600052602080527f2c5f9a2e204d4db70ad0f9037679e33061b4c51a386497019bee969e16be28d7548061243a576040805162461bcd60e51b815260206004820152601060248201526f5075626c696353616c653a207a65726f60801b604482015290519081900360640190fd5b6003600052602080527f1ae1eab41a4db68d73559dd6c8b7ac16a4bc819634768486d35edbff05543abf54806124aa576040805162461bcd60e51b815260206004820152601060248201526f5075626c696353616c653a207a65726f60801b604482015290519081900360640190fd5b6004600052602080527faf69f7ec271f94daa686978b3a96acf46914b99f1828a3f8265276d5eab630fa548061251a576040805162461bcd60e51b815260206004820152601060248201526f5075626c696353616c653a207a65726f60801b604482015290519081900360640190fd5b601a54600154604080517f4ee2cd7e0000000000000000000000000000000000000000000000000000000081526001600160a01b038b81166004830152602482019390935290516000939290921691634ee2cd7e91604480820192602092909190829003018186803b15801561258f57600080fd5b505afa1580156125a3573d6000803e3d6000fd5b505050506040513d60208110156125b957600080fd5b505160016000908152602080527f156774b33c8bc7cb83eda4cbc43b36c7c9490ff8913c488ccd5132cfc71344ea5491925090821080159061262457506002600052602080527f2c5f9a2e204d4db70ad0f9037679e33061b4c51a386497019bee969e16be28d75482105b1561263157506001612780565b6002600052602080527f2c5f9a2e204d4db70ad0f9037679e33061b4c51a386497019bee969e16be28d754821080159061269457506003600052602080527f1ae1eab41a4db68d73559dd6c8b7ac16a4bc819634768486d35edbff05543abf5482105b156126a157506002612780565b6003600052602080527f1ae1eab41a4db68d73559dd6c8b7ac16a4bc819634768486d35edbff05543abf54821080159061270457506004600052602080527faf69f7ec271f94daa686978b3a96acf46914b99f1828a3f8265276d5eab630fa5482105b1561271157506003612780565b6004600052602080527faf69f7ec271f94daa686978b3a96acf46914b99f1828a3f8265276d5eab630fa54821061274a57506004612780565b6001600052602080527f156774b33c8bc7cb83eda4cbc43b36c7c9490ff8913c488ccd5132cfc71344ea54821015612780575060005b98975050505050505050565b600260255414156127e4576040805162461bcd60e51b815260206004820152601f60248201527f5265656e7472616e637947756172643a207265656e7472616e742063616c6c00604482015290519081900360640190fd5b600260258190555442101561282a5760405162461bcd60e51b815260040180806020018281038252602d815260200180614341602d913960400191505060405180910390fd5b600354421061286a5760405162461bcd60e51b81526004018080602001828103825260218152602001806140976021913960400191505060405180910390fd5b6000612875336122f9565b905060018110156128cd576040805162461bcd60e51b815260206004820152601d60248201527f5075626c696353616c653a206e65656420746f206d6f72652073544f53000000604482015290519081900360640190fd5b336000908152601d60205260409020805460ff16151560011415612938576040805162461bcd60e51b815260206004820152601c60248201527f5075626c696353616c653a20616c726561647920617474656e64656400000000604482015290519081900360640190fd5b805460ff191660019081178255818101839055600b546129579161371a565b600b5560008281526021602052604090205461297490600161371a565b600083815260216020908152604091829020929092558051848152905133927fffc1b88a1c7ff4b7c84aac62283195eb1a6e771eafe7f68ddc27c7539cb0a105928290030190a250506001602555565b60065481565b60085481565b60226020526000908152604090205481565b601c5460ff1615612a245760405162461bcd60e51b81526004018080602001828103825260298152602001806141dc6029913960400191505060405180910390fd5b600554421015612a655760405162461bcd60e51b81526004018080602001828103825260248152602001806142c76024913960400191505060405180910390fd5b601c805460ff19166001179055600c54601154601254612a8a9291611cfc919061371a565b601255600c546011556040517f55e49e2e4c4ed83b41344cdee051accb243c76141b101797d611a92a2103710590600090a1565b600082815260246020526040812061203d9083613a3a565b600082815260246020526040812061203d9083613a46565b60025481565b60015481565b612b03336118a8565b612b3e5760405162461bcd60e51b81526004018080602001828103825260228152602001806140756022913960400191505060405180910390fd5b6002541580612b5b57506000600254118015612b5b575060025442105b612b965760405162461bcd60e51b81526004018080602001828103825260278152602001806142eb6027913960400191505060405180910390fd5b60208301358335108015612bb1575060608301356040840135105b612bba57600080fd5b60208201358235108015612bd5575060608201356040830135105b612bde57600080fd5b82356002556020808401356003556040808501356004556060948501356005558335600655838201356007558381013560085592909301356009558035600a55918201356015550135601655565b600b5481565b600081565b60008061203d6013546115546014548661390b90919063ffffffff16565b600d5481565b60026025541415612cb3576040805162461bcd60e51b815260206004820152601f60248201527f5265656e7472616e637947756172643a207265656e7472616e742063616c6c00604482015290519081900360640190fd5b6002602555600654421015612cf95760405162461bcd60e51b81526004018080602001828103825260238152602001806142a46023913960400191505060405180910390fd5b6007544210612d4f576040805162461bcd60e51b815260206004820152601f60248201527f5075626c696353616c653a20656e6420746865206465706f73697454696d6500604482015290519081900360640190fd5b601c5460ff16612d6157612d616129e2565b336000908152601e60205260409020805460ff16612dc957601b80546001810182556000919091527f3ad8aa4f87544323a9d1e5dd902f40c356527a7955687113db5f9a85ad579dc101805473ffffffffffffffffffffffffffffffffffffffff1916331790555b805460ff191660019081178255810154612de3908361371a565b6001820155600e54612df5908361371a565b600e55601954612e10906001600160a01b03163330856137b6565b60408051838152905133917f2da466a7b24304f47e87fa2e1e5a81b9831ce54fec19055ce277ca2f39ba42c4919081900360200190a250506001602555565b6017546001600160a01b031681565b60115481565b60125481565b60035481565b600e5481565b60008181526024602052604081206118d490613a5b565b601d60205260009081526040902080546001820154600283015460039093015460ff90921692909184565b612ec1336118a8565b612efc5760405162461bcd60e51b81526004018080602001828103825260228152602001806140756022913960400191505060405180910390fd5b8360008111612f45576040805162461bcd60e51b815260206004820152601060248201526f5075626c696353616c653a207a65726f60801b604482015290519081900360640190fd5b8360008111612f8e576040805162461bcd60e51b815260206004820152601060248201526f5075626c696353616c653a207a65726f60801b604482015290519081900360640190fd5b8360008111612fd7576040805162461bcd60e51b815260206004820152601060248201526f5075626c696353616c653a207a65726f60801b604482015290519081900360640190fd5b8360008111613020576040805162461bcd60e51b815260206004820152601060248201526f5075626c696353616c653a207a65726f60801b604482015290519081900360640190fd5b600254158061303d5750600060025411801561303d575060025442105b6130785760405162461bcd60e51b81526004018080602001828103825260278152602001806142eb6027913960400191505060405180910390fd5b50505060069490945560079290925560085560095550565b7ff0887ba65ee2024ea881d91b74c2450ef19e1557f03bed3ea9f16b037cbe2dc981565b6000828152602460205260409020600201546130d290611b7f613964565b611c245760405162461bcd60e51b815260040180806020018281038252603081526020018061418b6030913960400191505060405180910390fd5b613116336118a8565b6131515760405162461bcd60e51b81526004018080602001828103825260228152602001806140756022913960400191505060405180910390fd5b6000600255565b601c5460ff1681565b60095481565b60045481565b613176336118a8565b6131b15760405162461bcd60e51b81526004018080602001828103825260228152602001806140756022913960400191505060405180910390fd5b6017805473ffffffffffffffffffffffffffffffffffffffff19166001600160a01b0392909216919091179055565b6131e9336118a8565b6132245760405162461bcd60e51b81526004018080602001828103825260228152602001806140756022913960400191505060405180910390fd5b826000811161326d576040805162461bcd60e51b815260206004820152601060248201526f5075626c696353616c653a207a65726f60801b604482015290519081900360640190fd5b82600081116132b6576040805162461bcd60e51b815260206004820152601060248201526f5075626c696353616c653a207a65726f60801b604482015290519081900360640190fd5b82600081116132ff576040805162461bcd60e51b815260206004820152601060248201526f5075626c696353616c653a207a65726f60801b604482015290519081900360640190fd5b600254158061331c5750600060025411801561331c575060025442105b6133575760405162461bcd60e51b81526004018080602001828103825260278152602001806142eb6027913960400191505060405180910390fd5b505050600a92909255601555601655565b601b818154811061337857600080fd5b6000918252602090912001546001600160a01b0316905081565b6018546001600160a01b031681565b6133aa336118a8565b6133e55760405162461bcd60e51b81526004018080602001828103825260228152602001806140756022913960400191505060405180910390fd5b816000811161342e576040805162461bcd60e51b815260206004820152601060248201526f5075626c696353616c653a207a65726f60801b604482015290519081900360640190fd5b8160008111613477576040805162461bcd60e51b815260206004820152601060248201526f5075626c696353616c653a207a65726f60801b604482015290519081900360640190fd5b600254158061349457506000600254118015613494575060025442105b6134cf5760405162461bcd60e51b81526004018080602001828103825260278152602001806142eb6027913960400191505060405180910390fd5b5050601391909155601455565b600c5481565b6134eb336118a8565b6135265760405162461bcd60e51b81526004018080602001828103825260228152602001806140756022913960400191505060405180910390fd5b613530828261371a565b60008111613578576040805162461bcd60e51b815260206004820152601060248201526f5075626c696353616c653a207a65726f60801b604482015290519081900360640190fd5b600254158061359557506000600254118015613595575060025442105b6135d05760405162461bcd60e51b81526004018080602001828103825260278152602001806142eb6027913960400191505060405180910390fd5b50601191909155601255565b6000600a5442101561361f5760405162461bcd60e51b81526004018080602001828103825260218152602001806141496021913960400191505060405180910390fd5b6001600160a01b0382166000908152601f6020526040902080546136475760009150506115aa565b60028101548154141561365e5760009150506115aa565b6000613675600a54426138c990919063ffffffff16565b90506015548110156136a857600060019050600061159e8460020154611cfc84876001015461390b90919063ffffffff16565b600060155482816136b557fe5b04600101905060165481106136d8576002830154835460009161159e91906138c9565b600061159e8460020154611cfc84876001015461390b90919063ffffffff16565b601f6020526000908152604090208054600182015460029092015490919083565b60008282018381101561203d576040805162461bcd60e51b815260206004820152601b60248201527f536166654d6174683a206164646974696f6e206f766572666c6f770000000000604482015290519081900360640190fd5b600061203d83836040518060400160405280601a81526020017f536166654d6174683a206469766973696f6e206279207a65726f000000000000815250613a66565b604080516001600160a01b0380861660248301528416604482015260648082018490528251808303909101815260849091019091526020810180517bffffffffffffffffffffffffffffffffffffffffffffffffffffffff167f23b872dd0000000000000000000000000000000000000000000000000000000017905261383e908590613b08565b50505050565b604080516001600160a01b038416602482015260448082018490528251808303909101815260649091019091526020810180517bffffffffffffffffffffffffffffffffffffffffffffffffffffffff167fa9059cbb000000000000000000000000000000000000000000000000000000001790526138c4908490613b08565b505050565b600061203d83836040518060400160405280601e81526020017f536166654d6174683a207375627472616374696f6e206f766572666c6f770000815250613bb9565b60008261391a575060006118d4565b8282028284828161392757fe5b041461203d5760405162461bcd60e51b81526004018080602001828103825260218152602001806141bb6021913960400191505060405180910390fd5b3390565b60008281526024602052604090206139809082613c13565b15611bc95761398d613964565b6001600160a01b0316816001600160a01b0316837f2f8788117e7eff1d82e926ec794901d17c78024a50270940304540a733656f0d60405160405180910390a45050565b60008281526024602052604090206139e99082613c28565b15611bc9576139f6613964565b6001600160a01b0316816001600160a01b0316837ff6391f5c32d9c69d2a47ea670b442974b53935d1edc7fd64eb21e047a839171b60405160405180910390a45050565b600061203d8383613c3d565b600061203d836001600160a01b038416613ca1565b60006118d482613cb9565b60008183613af25760405162461bcd60e51b81526004018080602001828103825283818151815260200191508051906020019080838360005b83811015613ab7578181015183820152602001613a9f565b50505050905090810190601f168015613ae45780820380516001836020036101000a031916815260200191505b509250505060405180910390fd5b506000838581613afe57fe5b0495945050505050565b6000613b5d826040518060400160405280602081526020017f5361666545524332303a206c6f772d6c6576656c2063616c6c206661696c6564815250856001600160a01b0316613cbd9092919063ffffffff16565b8051909150156138c457808060200190516020811015613b7c57600080fd5b50516138c45760405162461bcd60e51b815260040180806020018281038252602a815260200180614252602a913960400191505060405180910390fd5b60008184841115613c0b5760405162461bcd60e51b8152602060048201818152835160248401528351909283926044909101919085019080838360008315613ab7578181015183820152602001613a9f565b505050900390565b600061203d836001600160a01b038416613cd4565b600061203d836001600160a01b038416613d1e565b81546000908210613c7f5760405162461bcd60e51b8152600401808060200182810382526022815260200180613fac6022913960400191505060405180910390fd5b826000018281548110613c8e57fe5b9060005260206000200154905092915050565b60009081526001919091016020526040902054151590565b5490565b6060613ccc8484600085613de4565b949350505050565b6000613ce08383613ca1565b613d16575081546001818101845560008481526020808220909301849055845484825282860190935260409020919091556118d4565b5060006118d4565b60008181526001830160205260408120548015613dda5783546000198083019190810190600090879083908110613d5157fe5b9060005260206000200154905080876000018481548110613d6e57fe5b600091825260208083209091019290925582815260018981019092526040902090840190558654879080613d9e57fe5b600190038181906000526020600020016000905590558660010160008781526020019081526020016000206000905560019450505050506118d4565b60009150506118d4565b606082471015613e255760405162461bcd60e51b81526004018080602001828103825260268152602001806141236026913960400191505060405180910390fd5b613e2e85613f3f565b613e7f576040805162461bcd60e51b815260206004820152601d60248201527f416464726573733a2063616c6c20746f206e6f6e2d636f6e7472616374000000604482015290519081900360640190fd5b600080866001600160a01b031685876040518082805190602001908083835b60208310613ebd5780518252601f199092019160209182019101613e9e565b6001836020036101000a03801982511681845116808217855250505050505090500191505060006040518083038185875af1925050503d8060008114613f1f576040519150601f19603f3d011682016040523d82523d6000602084013e613f24565b606091505b5091509150613f34828286613f45565b979650505050505050565b3b151590565b60608315613f5457508161203d565b825115613f645782518084602001fd5b60405162461bcd60e51b8152602060048201818152845160248401528451859391928392604401919085019080838360008315613ab7578181015183820152602001613a9f56fe456e756d657261626c655365743a20696e646578206f7574206f6620626f756e6473416363657373436f6e74726f6c3a2073656e646572206d75737420626520616e2061646d696e20746f206772616e745075626c696353616c653a206a757374206275792077686974656c697374656420616d6f756e745075626c696353616c653a20646f6e2774207374617274206f70656e53616c6554696d655075626c696353616c653a206578636c7573697665537461727454696d6520686173206e6f742070617373656441636365737369626c653a2043616c6c6572206973206e6f7420616e2061646d696e5075626c696353616c653a20656e64207468652077686974656c69737454696d655075626c696353616c653a206a757374206275792077686974656c69737420616d6f756e745075626c696353616c653a206e656564207468652070617274696369706174696f6e5075626c696353616c653a2057686974656c697374206e6f742072656769737465726564416464726573733a20696e73756666696369656e742062616c616e636520666f722063616c6c5075626c696353616c653a20646f6e277420737461727420636c61696d54696d655075626c696353616c653a20656e6420746865206578636c757369766554696d65416363657373436f6e74726f6c3a2073656e646572206d75737420626520616e2061646d696e20746f207265766f6b65536166654d6174683a206d756c7469706c69636174696f6e206f766572666c6f775075626c696353616c653a20616c6c726561647920656e644578636c757369766553616c65457865635075626c696353616c653a206e65656420746f20617474656e6420746865206465706f7369745075626c696353616c653a20646f6e7420686176652073616c65546f6b656e20696e20706f6f6c5361666545524332303a204552433230206f7065726174696f6e20646964206e6f7420737563636565645075626c696353616c653a207573657220697320616c726561647920676574416c6c7265776172645075626c696353616c653a20646f6e2774207374617274206465706f73697454696d655075626c696353616c653a206469646e277420656e64206578636c757369766553616c655075626c696353616c653a206e6f74206265666f72655374617274416464576869746554696d65416363657373436f6e74726f6c3a2063616e206f6e6c792072656e6f756e636520726f6c657320666f722073656c665075626c696353616c653a2077686974656c697374537461727454696d6520686173206e6f7420706173736564a2646970667358221220cae06dfbdf33aa1b65a4b3eddd49feb9ae800b411e42e6dc7701d2ecbb24bfd564736f6c63430007060033",
  "linkReferences": {},
  "deployedLinkReferences": {}
}