{
  "_format": "hh-sol-artifact-1",
  "contractName": "PublicSale",
  "sourceName": "contracts/sale/PublicSale.sol",
  "abi": [
    {
      "anonymous": false,
      "inputs": [
        {
          "indexed": true,
          "internalType": "address",
          "name": "from",
          "type": "address"
        },
        {
          "indexed": false,
          "internalType": "uint256",
          "name": "tier",
          "type": "uint256"
        }
      ],
      "name": "AddedWhiteList",
      "type": "event"
    },
    {
      "anonymous": false,
      "inputs": [
        {
          "indexed": true,
          "internalType": "address",
          "name": "from",
          "type": "address"
        },
        {
          "indexed": false,
          "internalType": "uint256",
          "name": "amount",
          "type": "uint256"
        }
      ],
      "name": "Claimed",
      "type": "event"
    },
    {
      "anonymous": false,
      "inputs": [
        {
          "indexed": true,
          "internalType": "address",
          "name": "from",
          "type": "address"
        },
        {
          "indexed": false,
          "internalType": "uint256",
          "name": "amount",
          "type": "uint256"
        }
      ],
      "name": "DepositWithdrawal",
      "type": "event"
    },
    {
      "anonymous": false,
      "inputs": [
        {
          "indexed": true,
          "internalType": "address",
          "name": "from",
          "type": "address"
        },
        {
          "indexed": false,
          "internalType": "uint256",
          "name": "amount",
          "type": "uint256"
        }
      ],
      "name": "Deposited",
      "type": "event"
    },
    {
      "anonymous": false,
      "inputs": [
        {
          "indexed": true,
          "internalType": "address",
          "name": "from",
          "type": "address"
        },
        {
          "indexed": false,
          "internalType": "uint256",
          "name": "amount",
          "type": "uint256"
        }
      ],
      "name": "ExclusiveSaled",
      "type": "event"
    },
    {
      "anonymous": false,
      "inputs": [
        {
          "indexed": true,
          "internalType": "address",
          "name": "from",
          "type": "address"
        },
        {
          "indexed": false,
          "internalType": "uint256",
          "name": "realPayAmount",
          "type": "uint256"
        },
        {
          "indexed": false,
          "internalType": "uint256",
          "name": "returnAmount",
          "type": "uint256"
        }
      ],
      "name": "OpenSaled",
      "type": "event"
    },
    {
      "anonymous": false,
      "inputs": [
        {
          "indexed": true,
          "internalType": "bytes32",
          "name": "role",
          "type": "bytes32"
        },
        {
          "indexed": true,
          "internalType": "bytes32",
          "name": "previousAdminRole",
          "type": "bytes32"
        },
        {
          "indexed": true,
          "internalType": "bytes32",
          "name": "newAdminRole",
          "type": "bytes32"
        }
      ],
      "name": "RoleAdminChanged",
      "type": "event"
    },
    {
      "anonymous": false,
      "inputs": [
        {
          "indexed": true,
          "internalType": "bytes32",
          "name": "role",
          "type": "bytes32"
        },
        {
          "indexed": true,
          "internalType": "address",
          "name": "account",
          "type": "address"
        },
        {
          "indexed": true,
          "internalType": "address",
          "name": "sender",
          "type": "address"
        }
      ],
      "name": "RoleGranted",
      "type": "event"
    },
    {
      "anonymous": false,
      "inputs": [
        {
          "indexed": true,
          "internalType": "bytes32",
          "name": "role",
          "type": "bytes32"
        },
        {
          "indexed": true,
          "internalType": "address",
          "name": "account",
          "type": "address"
        },
        {
          "indexed": true,
          "internalType": "address",
          "name": "sender",
          "type": "address"
        }
      ],
      "name": "RoleRevoked",
      "type": "event"
    },
    {
      "anonymous": false,
      "inputs": [
        {
          "indexed": true,
          "internalType": "address",
          "name": "from",
          "type": "address"
        },
        {
          "indexed": false,
          "internalType": "uint256",
          "name": "amount",
          "type": "uint256"
        }
      ],
      "name": "Withdrawal",
      "type": "event"
    },
    {
      "inputs": [],
      "name": "ADMIN_ROLE",
      "outputs": [
        {
          "internalType": "bytes32",
          "name": "",
          "type": "bytes32"
        }
      ],
      "stateMutability": "view",
      "type": "function"
    },
    {
      "inputs": [],
      "name": "BURNER_ROLE",
      "outputs": [
        {
          "internalType": "bytes32",
          "name": "",
          "type": "bytes32"
        }
      ],
      "stateMutability": "view",
      "type": "function"
    },
    {
      "inputs": [],
      "name": "DEFAULT_ADMIN_ROLE",
      "outputs": [
        {
          "internalType": "bytes32",
          "name": "",
          "type": "bytes32"
        }
      ],
      "stateMutability": "view",
      "type": "function"
    },
    {
      "inputs": [],
      "name": "MINTER_ROLE",
      "outputs": [
        {
          "internalType": "bytes32",
          "name": "",
          "type": "bytes32"
        }
      ],
      "stateMutability": "view",
      "type": "function"
    },
    {
      "inputs": [
        {
          "internalType": "address",
          "name": "account",
          "type": "address"
        }
      ],
      "name": "addAdmin",
      "outputs": [],
      "stateMutability": "nonpayable",
      "type": "function"
    },
    {
      "inputs": [],
      "name": "addWhiteList",
      "outputs": [],
      "stateMutability": "nonpayable",
      "type": "function"
    },
    {
      "inputs": [],
      "name": "adminWithdraw",
      "outputs": [
        {
          "internalType": "bool",
          "name": "",
          "type": "bool"
        }
      ],
      "stateMutability": "view",
      "type": "function"
    },
    {
      "inputs": [
        {
          "internalType": "address",
          "name": "_account",
          "type": "address"
        },
        {
          "internalType": "uint256",
          "name": "_period",
          "type": "uint256"
        }
      ],
      "name": "calculClaimAmount",
      "outputs": [
        {
          "internalType": "uint256",
          "name": "_reward",
          "type": "uint256"
        },
        {
          "internalType": "uint256",
          "name": "_totalClaim",
          "type": "uint256"
        }
      ],
      "stateMutability": "view",
      "type": "function"
    },
    {
      "inputs": [
        {
          "internalType": "address",
          "name": "_account",
          "type": "address"
        },
        {
          "internalType": "uint256",
          "name": "_amount",
          "type": "uint256"
        }
      ],
      "name": "calculOpenSaleAmount",
      "outputs": [
        {
          "internalType": "uint256",
          "name": "",
          "type": "uint256"
        }
      ],
      "stateMutability": "view",
      "type": "function"
    },
    {
      "inputs": [
        {
          "internalType": "uint256",
          "name": "_amount",
          "type": "uint256"
        }
      ],
      "name": "calculPayToken",
      "outputs": [
        {
          "internalType": "uint256",
          "name": "",
          "type": "uint256"
        }
      ],
      "stateMutability": "view",
      "type": "function"
    },
    {
      "inputs": [
        {
          "internalType": "uint256",
          "name": "_amount",
          "type": "uint256"
        }
      ],
      "name": "calculSaleToken",
      "outputs": [
        {
          "internalType": "uint256",
          "name": "",
          "type": "uint256"
        }
      ],
      "stateMutability": "view",
      "type": "function"
    },
    {
      "inputs": [
        {
          "internalType": "address",
          "name": "_address",
          "type": "address"
        }
      ],
      "name": "calculTier",
      "outputs": [
        {
          "internalType": "uint256",
          "name": "",
          "type": "uint256"
        }
      ],
      "stateMutability": "view",
      "type": "function"
    },
    {
      "inputs": [
        {
          "internalType": "address",
          "name": "_address",
          "type": "address"
        }
      ],
      "name": "calculTierAmount",
      "outputs": [
        {
          "internalType": "uint256",
          "name": "",
          "type": "uint256"
        }
      ],
      "stateMutability": "view",
      "type": "function"
    },
    {
      "inputs": [
        {
          "internalType": "address",
          "name": "_address",
          "type": "address"
        }
      ],
      "name": "changeTONOwner",
      "outputs": [],
      "stateMutability": "nonpayable",
      "type": "function"
    },
    {
      "inputs": [],
      "name": "claim",
      "outputs": [],
      "stateMutability": "nonpayable",
      "type": "function"
    },
    {
      "inputs": [],
      "name": "claimFirst",
      "outputs": [
        {
          "internalType": "uint256",
          "name": "",
          "type": "uint256"
        }
      ],
      "stateMutability": "view",
      "type": "function"
    },
    {
      "inputs": [],
      "name": "claimInterval",
      "outputs": [
        {
          "internalType": "uint256",
          "name": "",
          "type": "uint256"
        }
      ],
      "stateMutability": "view",
      "type": "function"
    },
    {
      "inputs": [],
      "name": "claimPeriod",
      "outputs": [
        {
          "internalType": "uint256",
          "name": "",
          "type": "uint256"
        }
      ],
      "stateMutability": "view",
      "type": "function"
    },
    {
      "inputs": [
        {
          "internalType": "uint256",
          "name": "_amount",
          "type": "uint256"
        }
      ],
      "name": "deposit",
      "outputs": [],
      "stateMutability": "nonpayable",
      "type": "function"
    },
    {
      "inputs": [
        {
          "internalType": "uint256",
          "name": "",
          "type": "uint256"
        }
      ],
      "name": "depositors",
      "outputs": [
        {
          "internalType": "address",
          "name": "",
          "type": "address"
        }
      ],
      "stateMutability": "view",
      "type": "function"
    },
    {
      "inputs": [],
      "name": "endAddWhiteTime",
      "outputs": [
        {
          "internalType": "uint256",
          "name": "",
          "type": "uint256"
        }
      ],
      "stateMutability": "view",
      "type": "function"
    },
    {
      "inputs": [],
      "name": "endDepositTime",
      "outputs": [
        {
          "internalType": "uint256",
          "name": "",
          "type": "uint256"
        }
      ],
      "stateMutability": "view",
      "type": "function"
    },
    {
      "inputs": [],
      "name": "endExclusiveTime",
      "outputs": [
        {
          "internalType": "uint256",
          "name": "",
          "type": "uint256"
        }
      ],
      "stateMutability": "view",
      "type": "function"
    },
    {
      "inputs": [
        {
          "internalType": "uint256",
          "name": "_amount",
          "type": "uint256"
        }
      ],
      "name": "exclusiveSale",
      "outputs": [],
      "stateMutability": "nonpayable",
      "type": "function"
    },
    {
      "inputs": [
        {
          "internalType": "bytes32",
          "name": "role",
          "type": "bytes32"
        }
      ],
      "name": "getRoleAdmin",
      "outputs": [
        {
          "internalType": "bytes32",
          "name": "",
          "type": "bytes32"
        }
      ],
      "stateMutability": "view",
      "type": "function"
    },
    {
      "inputs": [
        {
          "internalType": "bytes32",
          "name": "role",
          "type": "bytes32"
        },
        {
          "internalType": "uint256",
          "name": "index",
          "type": "uint256"
        }
      ],
      "name": "getRoleMember",
      "outputs": [
        {
          "internalType": "address",
          "name": "",
          "type": "address"
        }
      ],
      "stateMutability": "view",
      "type": "function"
    },
    {
      "inputs": [
        {
          "internalType": "bytes32",
          "name": "role",
          "type": "bytes32"
        }
      ],
      "name": "getRoleMemberCount",
      "outputs": [
        {
          "internalType": "uint256",
          "name": "",
          "type": "uint256"
        }
      ],
      "stateMutability": "view",
      "type": "function"
    },
    {
      "inputs": [],
      "name": "getToken",
      "outputs": [
        {
          "internalType": "contract IERC20",
          "name": "",
          "type": "address"
        }
      ],
      "stateMutability": "view",
      "type": "function"
    },
    {
      "inputs": [],
      "name": "getTokenOwner",
      "outputs": [
        {
          "internalType": "address",
          "name": "",
          "type": "address"
        }
      ],
      "stateMutability": "view",
      "type": "function"
    },
    {
      "inputs": [
        {
          "internalType": "bytes32",
          "name": "role",
          "type": "bytes32"
        },
        {
          "internalType": "address",
          "name": "account",
          "type": "address"
        }
      ],
      "name": "grantRole",
      "outputs": [],
      "stateMutability": "nonpayable",
      "type": "function"
    },
    {
      "inputs": [
        {
          "internalType": "bytes32",
          "name": "role",
          "type": "bytes32"
        },
        {
          "internalType": "address",
          "name": "account",
          "type": "address"
        }
      ],
      "name": "hasRole",
      "outputs": [
        {
          "internalType": "bool",
          "name": "",
          "type": "bool"
        }
      ],
      "stateMutability": "view",
      "type": "function"
    },
    {
      "inputs": [
        {
          "internalType": "address",
          "name": "account",
          "type": "address"
        }
      ],
      "name": "isAdmin",
      "outputs": [
        {
          "internalType": "bool",
          "name": "",
          "type": "bool"
        }
      ],
      "stateMutability": "view",
      "type": "function"
    },
    {
      "inputs": [
        {
          "internalType": "address",
          "name": "user",
          "type": "address"
        }
      ],
      "name": "openSaleUserAmount",
      "outputs": [
        {
          "internalType": "uint256",
          "name": "_realPayAmount",
          "type": "uint256"
        },
        {
          "internalType": "uint256",
          "name": "_realSaleAmount",
          "type": "uint256"
        },
        {
          "internalType": "uint256",
          "name": "_refundAmount",
          "type": "uint256"
        }
      ],
      "stateMutability": "view",
      "type": "function"
    },
    {
      "inputs": [],
      "name": "pauseProxy",
      "outputs": [
        {
          "internalType": "bool",
          "name": "",
          "type": "bool"
        }
      ],
      "stateMutability": "view",
      "type": "function"
    },
    {
      "inputs": [],
      "name": "payTokenPrice",
      "outputs": [
        {
          "internalType": "uint256",
          "name": "",
          "type": "uint256"
        }
      ],
      "stateMutability": "view",
      "type": "function"
    },
    {
      "inputs": [
        {
          "internalType": "address",
          "name": "account",
          "type": "address"
        }
      ],
      "name": "removeAdmin",
      "outputs": [],
      "stateMutability": "nonpayable",
      "type": "function"
    },
    {
      "inputs": [
        {
          "internalType": "bytes32",
          "name": "role",
          "type": "bytes32"
        },
        {
          "internalType": "address",
          "name": "account",
          "type": "address"
        }
      ],
      "name": "renounceRole",
      "outputs": [],
      "stateMutability": "nonpayable",
      "type": "function"
    },
    {
      "inputs": [],
      "name": "resetAllData",
      "outputs": [],
      "stateMutability": "nonpayable",
      "type": "function"
    },
    {
      "inputs": [
        {
          "internalType": "bytes32",
          "name": "role",
          "type": "bytes32"
        },
        {
          "internalType": "address",
          "name": "account",
          "type": "address"
        }
      ],
      "name": "revokeRole",
      "outputs": [],
      "stateMutability": "nonpayable",
      "type": "function"
    },
    {
      "inputs": [],
      "name": "sTOS",
      "outputs": [
        {
          "internalType": "contract ILockTOS",
          "name": "",
          "type": "address"
        }
      ],
      "stateMutability": "view",
      "type": "function"
    },
    {
      "inputs": [],
      "name": "saleToken",
      "outputs": [
        {
          "internalType": "contract IERC20",
          "name": "",
          "type": "address"
        }
      ],
      "stateMutability": "view",
      "type": "function"
    },
    {
      "inputs": [],
      "name": "saleTokenPrice",
      "outputs": [
        {
          "internalType": "uint256",
          "name": "",
          "type": "uint256"
        }
      ],
      "stateMutability": "view",
      "type": "function"
    },
    {
      "inputs": [
        {
          "internalType": "uint256[2]",
          "name": "_expectAmount",
          "type": "uint256[2]"
        },
        {
          "internalType": "uint256[2]",
          "name": "_priceAmount",
          "type": "uint256[2]"
        }
      ],
      "name": "setAllAmount",
      "outputs": [],
      "stateMutability": "nonpayable",
      "type": "function"
    },
    {
      "inputs": [
        {
          "internalType": "uint256[4]",
          "name": "_tier",
          "type": "uint256[4]"
        },
        {
          "internalType": "uint256[4]",
          "name": "_tierPercent",
          "type": "uint256[4]"
        }
      ],
      "name": "setAllTier",
      "outputs": [],
      "stateMutability": "nonpayable",
      "type": "function"
    },
    {
      "inputs": [
        {
          "internalType": "uint256",
          "name": "_snapshot",
          "type": "uint256"
        },
        {
          "internalType": "uint256[4]",
          "name": "_exclusiveTime",
          "type": "uint256[4]"
        },
        {
          "internalType": "uint256[2]",
          "name": "_openSaleTime",
          "type": "uint256[2]"
        },
        {
          "internalType": "uint256[4]",
          "name": "_claimTime",
          "type": "uint256[4]"
        }
      ],
      "name": "setAllValue",
      "outputs": [],
      "stateMutability": "nonpayable",
      "type": "function"
    },
    {
      "inputs": [
        {
          "internalType": "uint256",
          "name": "_startClaimTime",
          "type": "uint256"
        },
        {
          "internalType": "uint256",
          "name": "_claimInterval",
          "type": "uint256"
        },
        {
          "internalType": "uint256",
          "name": "_claimPeriod",
          "type": "uint256"
        },
        {
          "internalType": "uint256",
          "name": "_claimFirst",
          "type": "uint256"
        }
      ],
      "name": "setClaim",
      "outputs": [],
      "stateMutability": "nonpayable",
      "type": "function"
    },
    {
      "inputs": [
        {
          "internalType": "uint256",
          "name": "_startAddWhiteTime",
          "type": "uint256"
        },
        {
          "internalType": "uint256",
          "name": "_endAddWhiteTime",
          "type": "uint256"
        },
        {
          "internalType": "uint256",
          "name": "_startExclusiveTime",
          "type": "uint256"
        },
        {
          "internalType": "uint256",
          "name": "_endExclusiveTime",
          "type": "uint256"
        }
      ],
      "name": "setExclusiveTime",
      "outputs": [],
      "stateMutability": "nonpayable",
      "type": "function"
    },
    {
      "inputs": [
        {
          "internalType": "uint256",
          "name": "_startDepositTime",
          "type": "uint256"
        },
        {
          "internalType": "uint256",
          "name": "_endDepositTime",
          "type": "uint256"
        }
      ],
      "name": "setOpenTime",
      "outputs": [],
      "stateMutability": "nonpayable",
      "type": "function"
    },
    {
      "inputs": [
        {
          "internalType": "uint256",
          "name": "_totalExpectSaleAmount",
          "type": "uint256"
        },
        {
          "internalType": "uint256",
          "name": "_totalExpectOpenSaleAmount",
          "type": "uint256"
        }
      ],
      "name": "setSaleAmount",
      "outputs": [],
      "stateMutability": "nonpayable",
      "type": "function"
    },
    {
      "inputs": [
        {
          "internalType": "uint256",
          "name": "_snapshot",
          "type": "uint256"
        }
      ],
      "name": "setSnapshot",
      "outputs": [],
      "stateMutability": "nonpayable",
      "type": "function"
    },
    {
      "inputs": [
        {
          "internalType": "uint256",
          "name": "_tier1",
          "type": "uint256"
        },
        {
          "internalType": "uint256",
          "name": "_tier2",
          "type": "uint256"
        },
        {
          "internalType": "uint256",
          "name": "_tier3",
          "type": "uint256"
        },
        {
          "internalType": "uint256",
          "name": "_tier4",
          "type": "uint256"
        }
      ],
      "name": "setTier",
      "outputs": [],
      "stateMutability": "nonpayable",
      "type": "function"
    },
    {
      "inputs": [
        {
          "internalType": "uint256",
          "name": "_tier1",
          "type": "uint256"
        },
        {
          "internalType": "uint256",
          "name": "_tier2",
          "type": "uint256"
        },
        {
          "internalType": "uint256",
          "name": "_tier3",
          "type": "uint256"
        },
        {
          "internalType": "uint256",
          "name": "_tier4",
          "type": "uint256"
        }
      ],
      "name": "setTierPercents",
      "outputs": [],
      "stateMutability": "nonpayable",
      "type": "function"
    },
    {
      "inputs": [
        {
          "internalType": "uint256",
          "name": "_saleTokenPrice",
          "type": "uint256"
        },
        {
          "internalType": "uint256",
          "name": "_payTokenPrice",
          "type": "uint256"
        }
      ],
      "name": "setTokenPrice",
      "outputs": [],
      "stateMutability": "nonpayable",
      "type": "function"
    },
    {
      "inputs": [],
      "name": "snapshot",
      "outputs": [
        {
          "internalType": "uint256",
          "name": "",
          "type": "uint256"
        }
      ],
      "stateMutability": "view",
      "type": "function"
    },
    {
      "inputs": [],
      "name": "startAddWhiteTime",
      "outputs": [
        {
          "internalType": "uint256",
          "name": "",
          "type": "uint256"
        }
      ],
      "stateMutability": "view",
      "type": "function"
    },
    {
      "inputs": [],
      "name": "startClaimTime",
      "outputs": [
        {
          "internalType": "uint256",
          "name": "",
          "type": "uint256"
        }
      ],
      "stateMutability": "view",
      "type": "function"
    },
    {
      "inputs": [],
      "name": "startDepositTime",
      "outputs": [
        {
          "internalType": "uint256",
          "name": "",
          "type": "uint256"
        }
      ],
      "stateMutability": "view",
      "type": "function"
    },
    {
      "inputs": [],
      "name": "startExclusiveTime",
      "outputs": [
        {
          "internalType": "uint256",
          "name": "",
          "type": "uint256"
        }
      ],
      "stateMutability": "view",
      "type": "function"
    },
    {
      "inputs": [
        {
          "internalType": "uint256",
          "name": "",
          "type": "uint256"
        }
      ],
      "name": "tiers",
      "outputs": [
        {
          "internalType": "uint256",
          "name": "",
          "type": "uint256"
        }
      ],
      "stateMutability": "view",
      "type": "function"
    },
    {
      "inputs": [
        {
          "internalType": "uint256",
          "name": "",
          "type": "uint256"
        }
      ],
      "name": "tiersAccount",
      "outputs": [
        {
          "internalType": "uint256",
          "name": "",
          "type": "uint256"
        }
      ],
      "stateMutability": "view",
      "type": "function"
    },
    {
      "inputs": [
        {
          "internalType": "uint256",
          "name": "",
          "type": "uint256"
        }
      ],
      "name": "tiersExAccount",
      "outputs": [
        {
          "internalType": "uint256",
          "name": "",
          "type": "uint256"
        }
      ],
      "stateMutability": "view",
      "type": "function"
    },
    {
      "inputs": [
        {
          "internalType": "uint256",
          "name": "",
          "type": "uint256"
        }
      ],
      "name": "tiersPercents",
      "outputs": [
        {
          "internalType": "uint256",
          "name": "",
          "type": "uint256"
        }
      ],
      "stateMutability": "view",
      "type": "function"
    },
    {
      "inputs": [],
      "name": "totalDepositAmount",
      "outputs": [
        {
          "internalType": "uint256",
          "name": "",
          "type": "uint256"
        }
      ],
      "stateMutability": "view",
      "type": "function"
    },
    {
      "inputs": [],
      "name": "totalExPurchasedAmount",
      "outputs": [
        {
          "internalType": "uint256",
          "name": "",
          "type": "uint256"
        }
      ],
      "stateMutability": "view",
      "type": "function"
    },
    {
      "inputs": [],
      "name": "totalExSaleAmount",
      "outputs": [
        {
          "internalType": "uint256",
          "name": "",
          "type": "uint256"
        }
      ],
      "stateMutability": "view",
      "type": "function"
    },
    {
      "inputs": [],
      "name": "totalExpectOpenSaleAmount",
      "outputs": [
        {
          "internalType": "uint256",
          "name": "",
          "type": "uint256"
        }
      ],
      "stateMutability": "view",
      "type": "function"
    },
    {
      "inputs": [],
      "name": "totalExpectOpenSaleAmountView",
      "outputs": [
        {
          "internalType": "uint256",
          "name": "",
          "type": "uint256"
        }
      ],
      "stateMutability": "view",
      "type": "function"
    },
    {
      "inputs": [],
      "name": "totalExpectSaleAmount",
      "outputs": [
        {
          "internalType": "uint256",
          "name": "",
          "type": "uint256"
        }
      ],
      "stateMutability": "view",
      "type": "function"
    },
    {
      "inputs": [],
      "name": "totalOpenPurchasedAmount",
      "outputs": [
        {
          "internalType": "uint256",
          "name": "",
          "type": "uint256"
        }
      ],
      "stateMutability": "view",
      "type": "function"
    },
    {
      "inputs": [],
      "name": "totalOpenSaleAmount",
      "outputs": [
        {
          "internalType": "uint256",
          "name": "",
          "type": "uint256"
        }
      ],
      "stateMutability": "view",
      "type": "function"
    },
    {
      "inputs": [],
      "name": "totalRound1NonSaleAmount",
      "outputs": [
        {
          "internalType": "uint256",
          "name": "",
          "type": "uint256"
        }
      ],
      "stateMutability": "view",
      "type": "function"
    },
    {
      "inputs": [],
      "name": "totalRound1Users",
      "outputs": [
        {
          "internalType": "uint256",
          "name": "",
          "type": "uint256"
        }
      ],
      "stateMutability": "view",
      "type": "function"
    },
    {
      "inputs": [],
      "name": "totalRound2Users",
      "outputs": [
        {
          "internalType": "uint256",
          "name": "",
          "type": "uint256"
        }
      ],
      "stateMutability": "view",
      "type": "function"
    },
    {
      "inputs": [
        {
          "internalType": "address",
          "name": "user",
          "type": "address"
        }
      ],
      "name": "totalSaleUserAmount",
      "outputs": [
        {
          "internalType": "uint256",
          "name": "_realPayAmount",
          "type": "uint256"
        },
        {
          "internalType": "uint256",
          "name": "_realSaleAmount",
          "type": "uint256"
        },
        {
          "internalType": "uint256",
          "name": "_refundAmount",
          "type": "uint256"
        }
      ],
      "stateMutability": "view",
      "type": "function"
    },
    {
      "inputs": [],
      "name": "totalUsers",
      "outputs": [
        {
          "internalType": "uint256",
          "name": "",
          "type": "uint256"
        }
      ],
      "stateMutability": "view",
      "type": "function"
    },
    {
      "inputs": [],
      "name": "totalWhitelists",
      "outputs": [
        {
          "internalType": "uint256",
          "name": "",
          "type": "uint256"
        }
      ],
      "stateMutability": "view",
      "type": "function"
    },
    {
      "inputs": [
        {
          "internalType": "address",
          "name": "newAdmin",
          "type": "address"
        }
      ],
      "name": "transferAdmin",
      "outputs": [],
      "stateMutability": "nonpayable",
      "type": "function"
    },
    {
      "inputs": [
        {
          "internalType": "address",
          "name": "",
          "type": "address"
        }
      ],
      "name": "usersClaim",
      "outputs": [
        {
          "internalType": "uint256",
          "name": "claimAmount",
          "type": "uint256"
        },
        {
          "internalType": "uint256",
          "name": "refundAmount",
          "type": "uint256"
        }
      ],
      "stateMutability": "view",
      "type": "function"
    },
    {
      "inputs": [
        {
          "internalType": "address",
          "name": "",
          "type": "address"
        }
      ],
      "name": "usersEx",
      "outputs": [
        {
          "internalType": "bool",
          "name": "join",
          "type": "bool"
        },
        {
          "internalType": "uint256",
          "name": "tier",
          "type": "uint256"
        },
        {
          "internalType": "uint256",
          "name": "payAmount",
          "type": "uint256"
        },
        {
          "internalType": "uint256",
          "name": "saleAmount",
          "type": "uint256"
        }
      ],
      "stateMutability": "view",
      "type": "function"
    },
    {
      "inputs": [
        {
          "internalType": "address",
          "name": "",
          "type": "address"
        }
      ],
      "name": "usersOpen",
      "outputs": [
        {
          "internalType": "bool",
          "name": "join",
          "type": "bool"
        },
        {
          "internalType": "uint256",
          "name": "depositAmount",
          "type": "uint256"
        },
        {
          "internalType": "uint256",
          "name": "payAmount",
          "type": "uint256"
        },
        {
          "internalType": "uint256",
          "name": "saleAmount",
          "type": "uint256"
        }
      ],
      "stateMutability": "view",
      "type": "function"
    },
    {
      "inputs": [
        {
          "internalType": "uint256",
          "name": "",
          "type": "uint256"
        }
      ],
      "name": "whitelists",
      "outputs": [
        {
          "internalType": "address",
          "name": "",
          "type": "address"
        }
      ],
      "stateMutability": "view",
      "type": "function"
    },
    {
      "inputs": [],
      "name": "withdraw",
      "outputs": [],
      "stateMutability": "nonpayable",
      "type": "function"
    }
  ],
  "bytecode": "0x60806040526000600155600060025560006003556000600455600060055560006006556000600755600060085560006009556000600a556000600b556000600c556000600d556000600e5534801561005657600080fd5b5060016026556148cb8061006b6000396000f3fe608060405234801561001057600080fd5b50600436106105965760003560e01c80637676ee32116102e2578063b960ca0411610191578063e30821c6116100ee578063eb8445f8116100a2578063f3e16d481161007c578063f3e16d4814610d17578063fe4d5add14610d3a578063ff6dac7614610d5757610596565b8063eb8445f814610cda578063ecf427bd14610ce2578063f18d20be14610d0f57610596565b8063e985e367116100d3578063e985e36714610ca7578063eaff056d14610caf578063eb685c4714610cb757610596565b8063e30821c614610c64578063e4b2fb7914610c8a57610596565b8063ca15c87311610145578063d53913931161012a578063d539139314610c28578063d547741f14610c30578063e016bac414610c5c57610596565b8063ca15c87314610be5578063cae9ce1b14610c0257610596565b8063bff1f9e111610176578063bff1f9e114610bcd578063c3e5763514610bd5578063c5408d5014610bdd57610596565b8063b960ca0414610bbd578063bfc630b114610bc557610596565b8063952526921161023f578063a217fddf116101f3578063a55abb17116101d8578063a55abb1714610b90578063b6b55f2514610b98578063b7182b9514610bb557610596565b8063a217fddf14610b6b578063a38ffdea14610b7357610596565b806398d97da41161022457806398d97da414610b35578063a055e62514610b5b578063a1b89b7014610b6357610596565b80639525269214610b255780639711715a14610b2d57610596565b80638f68711a11610296578063907784231161027b5780639077842314610ae957806391d1485414610af157806394f641d514610b1d57610596565b80638f68711a14610aa95780639010d07c14610ac657610596565b80637ecd5c70116102c75780637ecd5c7014610a735780638181e84714610a9957806381a9f6d714610aa157610596565b80637676ee3214610a4a5780637dc2cd9814610a6b57610596565b80633ccfd60b1161044957806363a8fd89116103a65780636e59abbb1161035a57806370e5410a1161033457806370e5410a14610a1457806375829def14610a1c57806375b238fc14610a4257610596565b80636e59abbb146109c657806370480275146109e657806370c6abf514610a0c57610596565b806367b399a51161038b57806367b399a51461096f578063690480051461098c5780636c230839146109a957610596565b806363a8fd891461095f57806366ce72711461096757610596565b80634e71d92d116103fd578063590088bc116103e2578063590088bc146108b95780635f1af712146108fd57806360a2a25c1461094257610596565b80634e71d92d146108a957806351d28a7e146108b157610596565b806341c0cb771161042e57806341c0cb771461080c578063494600ea1461085a5780634de389c41461088657610596565b80633ccfd60b146107fc5780633ef541b51461080457610596565b8063226bf1a4116104f75780632cbf3188116104ab5780632f2ff15d116104905780632f2ff15d1461079c57806336568abe146107c857806337bf0719146107f457610596565b80632cbf3188146107655780632dcdbfd31461076d57610596565b806324d7806c116104dc57806324d7806c1461071b578063282c51f31461075557806328e50f4b1461075d57610596565b8063226bf1a4146106f6578063248a9ca3146106fe57610596565b80631a1197e71161054e5780631bfc751e116105335780631bfc751e1461069b578063218183a3146106a357806321df0da7146106d257610596565b80631a1197e7146106465780631b0312321461066c57610596565b80630b433a121161057f5780630b433a12146105fb5780630e6e12b4146106035780631785f53c1461062057610596565b8063039af9eb1461059b5780630a888550146105ca575b600080fd5b6105b8600480360360208110156105b157600080fd5b5035610d7d565b60408051918252519081900360200190f35b6105f9600480360360808110156105e057600080fd5b5080359060208101359060408101359060600135610d8f565b005b6105b8610f67565b6105f96004803603602081101561061957600080fd5b5035610f6d565b6105f96004803603602081101561063657600080fd5b50356001600160a01b03166112ce565b6105b86004803603602081101561065c57600080fd5b50356001600160a01b031661133f565b6105f96004803603608081101561068257600080fd5b508035906020810135906040810135906060013561142e565b6105b86115bc565b6105f9600480360360808110156106b957600080fd5b50803590602081013590604081013590606001356115c2565b6106da61188b565b604080516001600160a01b039092168252519081900360200190f35b6105b861189a565b6105b86004803603602081101561071457600080fd5b50356118a0565b6107416004803603602081101561073157600080fd5b50356001600160a01b03166118b5565b604080519115158252519081900360200190f35b6105b86118e7565b6105b861190b565b6105b861193a565b6105f96004803603608081101561078357600080fd5b508035906020810135906040810135906060013561196f565b6105f9600480360360408110156107b257600080fd5b50803590602001356001600160a01b0316611bcd565b6105f9600480360360408110156107de57600080fd5b50803590602001356001600160a01b0316611c39565b6106da611c9a565b6105f9611ca9565b6105b861204b565b6108326004803603602081101561082257600080fd5b50356001600160a01b0316612051565b6040805194151585526020850193909352838301919091526060830152519081900360800190f35b6105b86004803603604081101561087057600080fd5b506001600160a01b03813516906020013561207c565b6105f96004803603604081101561089c57600080fd5b50803590602001356120dd565b6105f9612218565b6105b86124cb565b6108df600480360360208110156108cf57600080fd5b50356001600160a01b03166124d1565b60408051938452602084019290925282820152519081900360600190f35b6109296004803603604081101561091357600080fd5b506001600160a01b03813516906020013561255a565b6040805192835260208301919091528051918290030190f35b6105b86004803603602081101561095857600080fd5b503561273c565b610741612761565b6105b861276a565b6105b86004803603602081101561098557600080fd5b5035612770565b6105b8600480360360208110156109a257600080fd5b5035612782565b6105f9600480360360208110156109bf57600080fd5b5035612794565b6105f9600480360360808110156109dc57600080fd5b5060408101612827565b6105f9600480360360208110156109fc57600080fd5b50356001600160a01b0316612889565b6105f96128f7565b6105b8612ad1565b6105f960048036036020811015610a3257600080fd5b50356001600160a01b0316612b12565b6105b8612c63565b6105f96004803603610100811015610a6157600080fd5b5060808101612c87565b6105b8612cfd565b6105b860048036036020811015610a8957600080fd5b50356001600160a01b0316612d03565b6105f96131a2565b6105b861342f565b6105b860048036036020811015610abf57600080fd5b5035613435565b6106da60048036036040811015610adc57600080fd5b5080359060200135613447565b6105b861345f565b61074160048036036040811015610b0757600080fd5b50803590602001356001600160a01b0316613478565b6105b8613490565b6105b8613496565b6105b861349c565b6108df60048036036020811015610b4b57600080fd5b50356001600160a01b03166134a2565b6105b861354d565b6105b8613553565b6105b8613559565b6105b860048036036020811015610b8957600080fd5b503561355e565b6105b861357c565b6105f960048036036020811015610bae57600080fd5b5035613582565b6106da6137a5565b6105b86137b4565b6105b86137ba565b6105b86137c0565b6105b86137c6565b6105b86137cc565b6105b860048036036020811015610bfb57600080fd5b50356137d2565b61083260048036036020811015610c1857600080fd5b50356001600160a01b03166137e9565b6105b8613814565b6105f960048036036040811015610c4657600080fd5b50803590602001356001600160a01b0316613838565b6105b8613891565b6105f960048036036020811015610c7a57600080fd5b50356001600160a01b0316613897565b6106da60048036036020811015610ca057600080fd5b503561390a565b6106da613934565b6105b8613943565b6105f960048036036040811015610ccd57600080fd5b5080359060200135613949565b6105b8613a84565b6105f96004803603610160811015610cf957600080fd5b50803590602081019060a081019060e001613a8a565b610741613bab565b6105f960048036036040811015610d2d57600080fd5b5080359060200135613bb4565b6106da60048036036020811015610d5057600080fd5b5035613cae565b61092960048036036020811015610d6d57600080fd5b50356001600160a01b0316613cbe565b60216020526000908152604090205481565b610d98336118b5565b610dd35760405162461bcd60e51b81526004018080602001828103825260228152602001806145e06022913960400191505060405180910390fd5b8360008111610e1c576040805162461bcd60e51b815260206004820152601060248201526f5075626c696353616c653a207a65726f60801b604482015290519081900360640190fd5b8360008111610e65576040805162461bcd60e51b815260206004820152601060248201526f5075626c696353616c653a207a65726f60801b604482015290519081900360640190fd5b8360008111610eae576040805162461bcd60e51b815260206004820152601060248201526f5075626c696353616c653a207a65726f60801b604482015290519081900360640190fd5b8360008111610ef7576040805162461bcd60e51b815260206004820152601060248201526f5075626c696353616c653a207a65726f60801b604482015290519081900360640190fd5b6002541580610f1457506000600254118015610f14575060025442105b610f4f5760405162461bcd60e51b81526004018080602001828103825260278152602001806148136027913960400191505060405180910390fd5b50505060029490945560039290925560045560055550565b60145481565b8060008111610fb6576040805162461bcd60e51b815260206004820152601060248201526f5075626c696353616c653a207a65726f60801b604482015290519081900360640190fd5b60155460008111611001576040805162461bcd60e51b815260206004820152601060248201526f5075626c696353616c653a207a65726f60801b604482015290519081900360640190fd5b60026026541415611059576040805162461bcd60e51b815260206004820152601f60248201527f5265656e7472616e637947756172643a207265656e7472616e742063616c6c00604482015290519081900360640190fd5b600260265560045442101561109f5760405162461bcd60e51b815260040180806020018281038252602d8152602001806145b3602d913960400191505060405180910390fd5b60055442106110df5760405162461bcd60e51b81526004018080602001828103825260218152602001806146bc6021913960400191505060405180910390fd5b336000908152601e60205260409020805460ff1615156001146111335760405162461bcd60e51b815260040180806020018281038252602781526020018061472e6027913960400191505060405180910390fd5b600061113e8561355e565b9050600061114b3361133f565b600384015490915061115d9083613cd6565b81101561119b5760405162461bcd60e51b815260040180806020018281038252602c815260200180614623602c913960400191505060405180910390fd5b336000908152602080526040902060028401546111d557600a546111c0906001613cd6565b600a556009546111d1906001613cd6565b6009555b60028401546111e49088613cd6565b600285015560038401546111f89084613cd6565b6003850155600e5461120a9088613cd6565b600e55600d5461121a9084613cd6565b600d55600061122833612d03565b600081815260236020526040902054909150611245906001613cd6565b60008281526023602052604090205560195461126c906001600160a01b031633308b613d30565b601754601954611289916001600160a01b0391821691168a613db8565b60408051898152905133917fc2198f7273f3b4ab95a025cf1f853777ca45149bbc1c005496959a6da70fcb8d919081900360200190a250506001602655505050505050565b6112d7336118b5565b6113125760405162461bcd60e51b81526004018080602001828103825260228152602001806145e06022913960400191505060405180910390fd5b61133c7fdf8b4c520ffe197c5343c6f5aec59570151ef9a492f2c624fd45ddde6135ec4282611c39565b50565b6001600160a01b0381166000908152601e602052604081208161136184612d03565b825490915060ff161515600114801561137a5750600081115b156113c05760008181526022602090815260408083205460249092528220546010546113b592612710926113af928391613e3d565b90613e96565b935061142992505050565b8015611422576000818152602260205260408120546113e0906001613cd6565b905060006114166127106113af846113af6024600089815260200190815260200160002054601054613e3d90919063ffffffff16565b94506114299350505050565b6000925050505b919050565b611437336118b5565b6114725760405162461bcd60e51b81526004018080602001828103825260228152602001806145e06022913960400191505060405180910390fd5b83600081116114bb576040805162461bcd60e51b815260206004820152601060248201526f5075626c696353616c653a207a65726f60801b604482015290519081900360640190fd5b8360008111611504576040805162461bcd60e51b815260206004820152601060248201526f5075626c696353616c653a207a65726f60801b604482015290519081900360640190fd5b836000811161154d576040805162461bcd60e51b815260206004820152601060248201526f5075626c696353616c653a207a65726f60801b604482015290519081900360640190fd5b600254158061156a5750600060025411801561156a575060025442105b6115a55760405162461bcd60e51b81526004018080602001828103825260278152602001806148136027913960400191505060405180910390fd5b505050600893909355601491909155601555601655565b60085481565b6115cb336118b5565b6116065760405162461bcd60e51b81526004018080602001828103825260228152602001806145e06022913960400191505060405180910390fd5b836000811161164f576040805162461bcd60e51b815260206004820152601060248201526f5075626c696353616c653a207a65726f60801b604482015290519081900360640190fd5b8360008111611698576040805162461bcd60e51b815260206004820152601060248201526f5075626c696353616c653a207a65726f60801b604482015290519081900360640190fd5b83600081116116e1576040805162461bcd60e51b815260206004820152601060248201526f5075626c696353616c653a207a65726f60801b604482015290519081900360640190fd5b836000811161172a576040805162461bcd60e51b815260206004820152601060248201526f5075626c696353616c653a207a65726f60801b604482015290519081900360640190fd5b600254158061174757506000600254118015611747575060025442105b6117825760405162461bcd60e51b81526004018080602001828103825260278152602001806148136027913960400191505060405180910390fd5b6117988561179288818c8c613cd6565b90613cd6565b612710146117ed576040805162461bcd60e51b815260206004820152601f60248201527f5075626c696353616c653a2053756d2073686f756c6420626520313030303000604482015290519081900360640190fd5b5050602460205250507fbbbb3b1da0cb0951f34c5e9db4606f934b7367b5284f29163e9e6fe67e1e97d6939093557f47bb5529a97e2b401b32950f6360fbc9e3f4e70b887dc0f9b9ad1f7402ca11da919091557f8a6809e43cef135a96df89aa3c0800baae7c497913adf6156625c15a6f57cdf05560046000527fe0059098054d65c76a17a4d86f8572395c4d366a1d067b0643b918330bac9e1555565b6019546001600160a01b031681565b60135481565b60009081526025602052604090206002015490565b60006118e17fdf8b4c520ffe197c5343c6f5aec59570151ef9a492f2c624fd45ddde6135ec4283613478565b92915050565b7f9667e80708b6eeeb0053fa0cca44e028ff548e2a9f029edfeac87c118b08b7c881565b60006005544210156119205750601154611937565b61193461192b61345f565b60115490613cd6565b90505b90565b600080611948600f5461355e565b9050600061195461190b565b90508082101561196657509050611937565b91506119379050565b611978336118b5565b6119b35760405162461bcd60e51b81526004018080602001828103825260228152602001806145e06022913960400191505060405180910390fd5b83600081116119fc576040805162461bcd60e51b815260206004820152601060248201526f5075626c696353616c653a207a65726f60801b604482015290519081900360640190fd5b8360008111611a45576040805162461bcd60e51b815260206004820152601060248201526f5075626c696353616c653a207a65726f60801b604482015290519081900360640190fd5b8360008111611a8e576040805162461bcd60e51b815260206004820152601060248201526f5075626c696353616c653a207a65726f60801b604482015290519081900360640190fd5b8360008111611ad7576040805162461bcd60e51b815260206004820152601060248201526f5075626c696353616c653a207a65726f60801b604482015290519081900360640190fd5b6002541580611af457506000600254118015611af4575060025442105b611b2f5760405162461bcd60e51b81526004018080602001828103825260278152602001806148136027913960400191505060405180910390fd5b5050602160205250507f2b59c9df127166d3570f589f0cb7377a6b175795e70ab275ebf42fa16c0a23f4939093557f914a2534c436de5a3f77164e6b9b90d20144139ce899b6a8d30a442e7b9ef533919091557fbae8fb7bb9008c9bfa6625328b7613a2bedfb2f936a7718f51173039a77c107c5560046000527f1ae06646c6742a506302a1833f6c3f508643fd4c5dcb1e323706d5c3441af29855565b600082815260256020526040902060020154611bf090611beb613ed8565b613478565b611c2b5760405162461bcd60e51b815260040180806020018281038252602f815260200180614584602f913960400191505060405180910390fd5b611c358282613edc565b5050565b611c41613ed8565b6001600160a01b0316816001600160a01b031614611c905760405162461bcd60e51b815260040180806020018281038252602f81526020018061483a602f913960400191505060405180910390fd5b611c358282613f45565b601a546001600160a01b031681565b611cb2336118b5565b611ced5760405162461bcd60e51b81526004018080602001828103825260228152602001806145e06022913960400191505060405180910390fd5b6007544211611e7257601854604080516370a0823160e01b815230600482015290516000926001600160a01b0316916370a08231916024808301926020929190829003018186803b158015611d4157600080fd5b505afa158015611d55573d6000803e3d6000fd5b505050506040513d6020811015611d6b57600080fd5b5051601154601054919250611d809190613cd6565b8111611dbd5760405162461bcd60e51b815260040180806020018281038252602281526020018061477c6022913960400191505060405180910390fd5b6000611de0611dd9601154601054613cd690919063ffffffff16565b8390613fae565b905080611e1e5760405162461bcd60e51b81526004018080602001828103825260268152602001806146756026913960400191505060405180910390fd5b601854611e35906001600160a01b03163383613db8565b60408051828152905133917f7fcf532c15f0a6db0bd6d0e038bea71d30d808c7d98cb3bf7268a95bf5081b65919081900360200190a25050612049565b6007544211611ec8576040805162461bcd60e51b815260206004820181905260248201527f5075626c696353616c653a20656e6420746865206f70656e53616c6554696d65604482015290519081900360640190fd5b601d5460ff1615611f20576040805162461bcd60e51b815260206004820152601d60248201527f616c72656164792061646d696e2063616c6c6564207769746864726177000000604482015290519081900360640190fd5b601d805460ff191660011790556000611f3761193a565b600d54909150611f479082613cd6565b601154601054611f5691613cd6565b11611f925760405162461bcd60e51b81526004018080602001828103825260268152602001806146756026913960400191505060405180910390fd5b6000611fbb82611fb5600d54611fb5601154601054613cd690919063ffffffff16565b90613fae565b905080611ff95760405162461bcd60e51b81526004018080602001828103825260268152602001806146756026913960400191505060405180910390fd5b601854612010906001600160a01b03163383613db8565b60408051828152905133917f7fcf532c15f0a6db0bd6d0e038bea71d30d808c7d98cb3bf7268a95bf5081b65919081900360200190a250505b565b60075481565b601f60205260009081526040902080546001820154600283015460039093015460ff90921692909184565b6001600160a01b0382166000908152601f60205260408120600181015482906120a59085613cd6565b905060006120d36120c186600f54613cd690919063ffffffff16565b6113af846120cd61190b565b90613e3d565b9695505050505050565b6120e6336118b5565b6121215760405162461bcd60e51b81526004018080602001828103825260228152602001806145e06022913960400191505060405180910390fd5b816000811161216a576040805162461bcd60e51b815260206004820152601060248201526f5075626c696353616c653a207a65726f60801b604482015290519081900360640190fd5b81600081116121b3576040805162461bcd60e51b815260206004820152601060248201526f5075626c696353616c653a207a65726f60801b604482015290519081900360640190fd5b60025415806121d0575060006002541180156121d0575060025442105b61220b5760405162461bcd60e51b81526004018080602001828103825260278152602001806148136027913960400191505060405180910390fd5b5050600691909155600755565b6008544210156122595760405162461bcd60e51b815260040180806020018281038252602181526020018061469b6021913960400191505060405180910390fd5b33600081815260208052604081209181908190612275906124d1565b925092509250600082116122d0576040805162461bcd60e51b815260206004820152601e60248201527f5075626c696353616c653a206e6f20707572636861736520616d6f756e740000604482015290519081900360640190fd5b60006122dd33600061255a565b50905060008111612335576040805162461bcd60e51b815260206004820152601560248201527f5075626c696353616c653a206e6f207265776172640000000000000000000000604482015290519081900360640190fd5b84548190612344908590613fae565b10156123815760405162461bcd60e51b81526004018080602001828103825260288152602001806147c86028913960400191505060405180910390fd5b601854604080516370a0823160e01b8152306004820152905183926001600160a01b0316916370a08231916024808301926020929190829003018186803b1580156123cb57600080fd5b505afa1580156123df573d6000803e3d6000fd5b505050506040513d60208110156123f557600080fd5b505110156124345760405162461bcd60e51b81526004018080602001828103825260278152602001806147556027913960400191505060405180910390fd5b84546124409082613cd6565b8555601854612459906001600160a01b03163383613db8565b60008211801561246b57506001850154155b1561248e576001850182905560195461248e906001600160a01b03163384613db8565b60408051828152905133917fd8138f8a3f377c5259ca548e70e4c2de94f129f5a11036a15b69513cba2b426a919081900360200190a25050505050565b60125481565b6001600160a01b0381166000908152601e6020526040812080548291829160ff1615612542576000806000612505886134a2565b925092509250612522846002015484613cd690919063ffffffff16565b6003850154612532908490613cd6565b8296509650965050505050612553565b61254b856134a2565b935093509350505b9193909250565b60008060085442101561257257506000905080612735565b60155483111561258757506000905080612735565b6001600160a01b03841660009081526020805260408120906125a8866124d1565b509150508082600001541015806125bd575080155b156125d057600080935093505050612735565b60006125e760085442613fae90919063ffffffff16565b90506000829050600061260a60646113af60165485613e3d90919063ffffffff16565b905060006126316126276001601554613fae90919063ffffffff16565b6113af8585613fae565b9050886126be5760145484101561265057509550935061273592505050565b60006126696001601454878161266257fe5b0490613cd6565b90506015548110612696578654600090612684908690613fae565b99509397506127359650505050505050565b865460009061268490611fb56126b76126b0866001613fae565b8790613e3d565b8790613cd6565b88600114156126d557509550935061273592505050565b60155489141561272657600061271561270e6127076127006002601554613fae90919063ffffffff16565b8590613e3d565b8590613cd6565b8590613fae565b985092965061273595505050505050565b96509094506127359350505050565b9250929050565b60008061275a6013546113af60125486613e3d90919063ffffffff16565b9392505050565b60005460ff1681565b60055481565b60226020526000908152604090205481565b60246020526000908152604090205481565b61279d336118b5565b6127d85760405162461bcd60e51b81526004018080602001828103825260228152602001806145e06022913960400191505060405180910390fd5b8060008111612821576040805162461bcd60e51b815260206004820152601060248201526f5075626c696353616c653a207a65726f60801b604482015290519081900360640190fd5b50600155565b612830336118b5565b61286b5760405162461bcd60e51b81526004018080602001828103825260228152602001806145e06022913960400191505060405180910390fd5b61287a82356020840135613bb4565b611c3581356020830135613949565b612892336118b5565b6128cd5760405162461bcd60e51b81526004018080602001828103825260228152602001806145e06022913960400191505060405180910390fd5b61133c7fdf8b4c520ffe197c5343c6f5aec59570151ef9a492f2c624fd45ddde6135ec4282611bcd565b612900336118b5565b61293b5760405162461bcd60e51b81526004018080602001828103825260228152602001806145e06022913960400191505060405180910390fd5b60006002819055600c819055600d819055600e819055600f8190555b601c548110156129f6576000601e6000601c848154811061297457fe5b60009182526020808320909101546001600160a01b031683528281019390935260409091018120805460ff191681556002810182905560038101829055601c80549194509192918391869081106129c757fe5b60009182526020808320909101546001600160a01b031683528201929092526040018120555050600101612957565b5060005b601b54811015612aa0576000601f6000601b8481548110612a1757fe5b60009182526020808320909101546001600160a01b03168352828101939093526040909101812060018101829055805460ff191681556002810182905560038101829055601b8054919450919291839186908110612a7157fe5b60009182526020808320909101546001600160a01b0316835282019290925260400181205550506001016129fa565b5060015b600581101561133c5760008181526022602090815260408083208390556023909152812055600101612aa4565b600080612adf600f5461355e565b90506000612aeb61190b565b905080821015612b0957612b00600f5461273c565b92505050611937565b612b008161273c565b612b1b336118b5565b612b565760405162461bcd60e51b81526004018080602001828103825260228152602001806145e06022913960400191505060405180910390fd5b6001600160a01b038116612bb1576040805162461bcd60e51b815260206004820152601860248201527f41636365737369626c653a207a65726f20616464726573730000000000000000604482015290519081900360640190fd5b336001600160a01b0382161415612c0f576040805162461bcd60e51b815260206004820152601660248201527f41636365737369626c653a2073616d652061646d696e00000000000000000000604482015290519081900360640190fd5b612c397fdf8b4c520ffe197c5343c6f5aec59570151ef9a492f2c624fd45ddde6135ec4282611bcd565b61133c7fdf8b4c520ffe197c5343c6f5aec59570151ef9a492f2c624fd45ddde6135ec4233611c39565b7fdf8b4c520ffe197c5343c6f5aec59570151ef9a492f2c624fd45ddde6135ec4281565b612c90336118b5565b612ccb5760405162461bcd60e51b81526004018080602001828103825260228152602001806145e06022913960400191505060405180910390fd5b612ce4823560208401356040850135606086013561196f565b611c3581356020830135604084013560608501356115c2565b60155481565b601a546000906001600160a01b031680612d64576040805162461bcd60e51b815260206004820152601860248201527f5075626c696353616c653a207a65726f20616464726573730000000000000000604482015290519081900360640190fd5b600160005260216020527f2b59c9df127166d3570f589f0cb7377a6b175795e70ab275ebf42fa16c0a23f45480612dd5576040805162461bcd60e51b815260206004820152601060248201526f5075626c696353616c653a207a65726f60801b604482015290519081900360640190fd5b600260005260216020527f914a2534c436de5a3f77164e6b9b90d20144139ce899b6a8d30a442e7b9ef5335480612e46576040805162461bcd60e51b815260206004820152601060248201526f5075626c696353616c653a207a65726f60801b604482015290519081900360640190fd5b600360005260216020527fbae8fb7bb9008c9bfa6625328b7613a2bedfb2f936a7718f51173039a77c107c5480612eb7576040805162461bcd60e51b815260206004820152601060248201526f5075626c696353616c653a207a65726f60801b604482015290519081900360640190fd5b600460005260216020527f1ae06646c6742a506302a1833f6c3f508643fd4c5dcb1e323706d5c3441af2985480612f28576040805162461bcd60e51b815260206004820152601060248201526f5075626c696353616c653a207a65726f60801b604482015290519081900360640190fd5b601a54600154604080517f4ee2cd7e0000000000000000000000000000000000000000000000000000000081526001600160a01b038b81166004830152602482019390935290516000939290921691634ee2cd7e91604480820192602092909190829003018186803b158015612f9d57600080fd5b505afa158015612fb1573d6000803e3d6000fd5b505050506040513d6020811015612fc757600080fd5b50516001600090815260216020527f2b59c9df127166d3570f589f0cb7377a6b175795e70ab275ebf42fa16c0a23f4549192509082108015906130345750600260005260216020527f914a2534c436de5a3f77164e6b9b90d20144139ce899b6a8d30a442e7b9ef5335482105b1561304157506001613196565b600260005260216020527f914a2534c436de5a3f77164e6b9b90d20144139ce899b6a8d30a442e7b9ef5335482108015906130a65750600360005260216020527fbae8fb7bb9008c9bfa6625328b7613a2bedfb2f936a7718f51173039a77c107c5482105b156130b357506002613196565b600360005260216020527fbae8fb7bb9008c9bfa6625328b7613a2bedfb2f936a7718f51173039a77c107c5482108015906131185750600460005260216020527f1ae06646c6742a506302a1833f6c3f508643fd4c5dcb1e323706d5c3441af2985482105b1561312557506003613196565b600460005260216020527f1ae06646c6742a506302a1833f6c3f508643fd4c5dcb1e323706d5c3441af29854821061315f57506004613196565b600160005260216020527f2b59c9df127166d3570f589f0cb7377a6b175795e70ab275ebf42fa16c0a23f454821015613196575060005b98975050505050505050565b600260265414156131fa576040805162461bcd60e51b815260206004820152601f60248201527f5265656e7472616e637947756172643a207265656e7472616e742063616c6c00604482015290519081900360640190fd5b60026026819055544210156132405760405162461bcd60e51b815260040180806020018281038252602d815260200180614869602d913960400191505060405180910390fd5b60035442106132805760405162461bcd60e51b81526004018080602001828103825260218152602001806146026021913960400191505060405180910390fd5b600061328b33612d03565b905060018110156132e3576040805162461bcd60e51b815260206004820152601d60248201527f5075626c696353616c653a206e65656420746f206d6f72652073544f53000000604482015290519081900360640190fd5b336000908152601e60205260409020805460ff1615156001141561334e576040805162461bcd60e51b815260206004820152601c60248201527f5075626c696353616c653a20616c726561647920617474656e64656400000000604482015290519081900360640190fd5b601c8054600181810183556000929092527f0e4562a10381dec21b205ed72637e6b1b523bdd0e4d4d50af5cd23dd4500a21101805473ffffffffffffffffffffffffffffffffffffffff191633179055600c546133aa91613cd6565b600c55805460ff191660019081178255818101839055600060038301819055838152602260205260409020546133df91613cd6565b600083815260226020908152604091829020929092558051848152905133927fffc1b88a1c7ff4b7c84aac62283195eb1a6e771eafe7f68ddc27c7539cb0a105928290030190a250506001602655565b60065481565b60236020526000908152604090205481565b600082815260256020526040812061275a9083613ff0565b6000611934600d54601054613fae90919063ffffffff16565b600082815260256020526040812061275a9083613ffc565b600b5481565b60025481565b60015481565b6001600160a01b0381166000908152601f6020526040812080548291829160ff1615806134d157506001810154155b156134e757600080600093509350935050612553565b60006134f486600061207c565b905060006135018261273c565b6001840154909150600080828410156135305761351e8385613fae565b90506135298461355e565b915061353c565b6135398361355e565b91505b929990985091965090945050505050565b600a5481565b600c5481565b600081565b60008061275a6012546113af60135486613e3d90919063ffffffff16565b600e5481565b600260265414156135da576040805162461bcd60e51b815260206004820152601f60248201527f5265656e7472616e637947756172643a207265656e7472616e742063616c6c00604482015290519081900360640190fd5b60026026556006544210156136205760405162461bcd60e51b81526004018080602001828103825260238152602001806147f06023913960400191505060405180910390fd5b6007544210613676576040805162461bcd60e51b815260206004820152601f60248201527f5075626c696353616c653a20656e6420746865206465706f73697454696d6500604482015290519081900360640190fd5b336000908152601f60205260409020805460ff1661372357601b8054600181810183556000929092527f3ad8aa4f87544323a9d1e5dd902f40c356527a7955687113db5f9a85ad579dc101805473ffffffffffffffffffffffffffffffffffffffff191633179055815460ff191681178255600b546136f491613cd6565b600b55336000908152601e6020526040902060028101546137215760095461371d906001613cd6565b6009555b505b60018101546137329083613cd6565b600182015560006003820155600f5461374b9083613cd6565b600f55601954613766906001600160a01b0316333085613d30565b60408051838152905133917f2da466a7b24304f47e87fa2e1e5a81b9831ce54fec19055ce277ca2f39ba42c4919081900360200190a250506001602655565b6017546001600160a01b031681565b60105481565b60115481565b60095481565b60035481565b600f5481565b60008181526025602052604081206118e190614011565b601e60205260009081526040902080546001820154600283015460039093015460ff90921692909184565b7ff0887ba65ee2024ea881d91b74c2450ef19e1557f03bed3ea9f16b037cbe2dc981565b60008281526025602052604090206002015461385690611beb613ed8565b611c905760405162461bcd60e51b81526004018080602001828103825260308152602001806146dd6030913960400191505060405180910390fd5b60045481565b6138a0336118b5565b6138db5760405162461bcd60e51b81526004018080602001828103825260228152602001806145e06022913960400191505060405180910390fd5b6017805473ffffffffffffffffffffffffffffffffffffffff19166001600160a01b0392909216919091179055565b601b818154811061391a57600080fd5b6000918252602090912001546001600160a01b0316905081565b6018546001600160a01b031681565b60165481565b613952336118b5565b61398d5760405162461bcd60e51b81526004018080602001828103825260228152602001806145e06022913960400191505060405180910390fd5b81600081116139d6576040805162461bcd60e51b815260206004820152601060248201526f5075626c696353616c653a207a65726f60801b604482015290519081900360640190fd5b8160008111613a1f576040805162461bcd60e51b815260206004820152601060248201526f5075626c696353616c653a207a65726f60801b604482015290519081900360640190fd5b6002541580613a3c57506000600254118015613a3c575060025442105b613a775760405162461bcd60e51b81526004018080602001828103825260278152602001806148136027913960400191505060405180910390fd5b5050601291909155601355565b600d5481565b613a93336118b5565b613ace5760405162461bcd60e51b81526004018080602001828103825260228152602001806145e06022913960400191505060405180910390fd5b6002541580613aeb57506000600254118015613aeb575060025442105b613b265760405162461bcd60e51b81526004018080602001828103825260278152602001806148136027913960400191505060405180910390fd5b60208301358335108015613b41575060608301356040840135105b613b4a57600080fd5b6020820135823510613b5b57600080fd5b613b6484612794565b613b7d8335602085013560408601356060870135610d8f565b613b8c823560208401356120dd565b613ba5813560208301356040840135606085013561142e565b50505050565b601d5460ff1681565b613bbd336118b5565b613bf85760405162461bcd60e51b81526004018080602001828103825260228152602001806145e06022913960400191505060405180910390fd5b613c028282613cd6565b60008111613c4a576040805162461bcd60e51b815260206004820152601060248201526f5075626c696353616c653a207a65726f60801b604482015290519081900360640190fd5b6002541580613c6757506000600254118015613c67575060025442105b613ca25760405162461bcd60e51b81526004018080602001828103825260278152602001806148136027913960400191505060405180910390fd5b50601091909155601155565b601c818154811061391a57600080fd5b60208052600090815260409020805460019091015482565b60008282018381101561275a576040805162461bcd60e51b815260206004820152601b60248201527f536166654d6174683a206164646974696f6e206f766572666c6f770000000000604482015290519081900360640190fd5b604080516001600160a01b0380861660248301528416604482015260648082018490528251808303909101815260849091019091526020810180517bffffffffffffffffffffffffffffffffffffffffffffffffffffffff167f23b872dd00000000000000000000000000000000000000000000000000000000179052613ba590859061401c565b604080516001600160a01b038416602482015260448082018490528251808303909101815260649091019091526020810180517bffffffffffffffffffffffffffffffffffffffffffffffffffffffff167fa9059cbb00000000000000000000000000000000000000000000000000000000179052613e3890849061401c565b505050565b600082613e4c575060006118e1565b82820282848281613e5957fe5b041461275a5760405162461bcd60e51b815260040180806020018281038252602181526020018061470d6021913960400191505060405180910390fd5b600061275a83836040518060400160405280601a81526020017f536166654d6174683a206469766973696f6e206279207a65726f0000000000008152506140cd565b3390565b6000828152602560205260409020613ef4908261416f565b15611c3557613f01613ed8565b6001600160a01b0316816001600160a01b0316837f2f8788117e7eff1d82e926ec794901d17c78024a50270940304540a733656f0d60405160405180910390a45050565b6000828152602560205260409020613f5d9082614184565b15611c3557613f6a613ed8565b6001600160a01b0316816001600160a01b0316837ff6391f5c32d9c69d2a47ea670b442974b53935d1edc7fd64eb21e047a839171b60405160405180910390a45050565b600061275a83836040518060400160405280601e81526020017f536166654d6174683a207375627472616374696f6e206f766572666c6f770000815250614199565b600061275a83836141f3565b600061275a836001600160a01b038416614257565b60006118e18261426f565b6000614071826040518060400160405280602081526020017f5361666545524332303a206c6f772d6c6576656c2063616c6c206661696c6564815250856001600160a01b03166142739092919063ffffffff16565b805190915015613e385780806020019051602081101561409057600080fd5b5051613e385760405162461bcd60e51b815260040180806020018281038252602a81526020018061479e602a913960400191505060405180910390fd5b600081836141595760405162461bcd60e51b81526004018080602001828103825283818151815260200191508051906020019080838360005b8381101561411e578181015183820152602001614106565b50505050905090810190601f16801561414b5780820380516001836020036101000a031916815260200191505b509250505060405180910390fd5b50600083858161416557fe5b0495945050505050565b600061275a836001600160a01b03841661428a565b600061275a836001600160a01b0384166142d4565b600081848411156141eb5760405162461bcd60e51b815260206004820181815283516024840152835190928392604490910191908501908083836000831561411e578181015183820152602001614106565b505050900390565b815460009082106142355760405162461bcd60e51b81526004018080602001828103825260228152602001806145626022913960400191505060405180910390fd5b82600001828154811061424457fe5b9060005260206000200154905092915050565b60009081526001919091016020526040902054151590565b5490565b6060614282848460008561439a565b949350505050565b60006142968383614257565b6142cc575081546001818101845560008481526020808220909301849055845484825282860190935260409020919091556118e1565b5060006118e1565b60008181526001830160205260408120548015614390578354600019808301919081019060009087908390811061430757fe5b906000526020600020015490508087600001848154811061432457fe5b60009182526020808320909101929092558281526001898101909252604090209084019055865487908061435457fe5b600190038181906000526020600020016000905590558660010160008781526020019081526020016000206000905560019450505050506118e1565b60009150506118e1565b6060824710156143db5760405162461bcd60e51b815260040180806020018281038252602681526020018061464f6026913960400191505060405180910390fd5b6143e4856144f5565b614435576040805162461bcd60e51b815260206004820152601d60248201527f416464726573733a2063616c6c20746f206e6f6e2d636f6e7472616374000000604482015290519081900360640190fd5b600080866001600160a01b031685876040518082805190602001908083835b602083106144735780518252601f199092019160209182019101614454565b6001836020036101000a03801982511681845116808217855250505050505090500191505060006040518083038185875af1925050503d80600081146144d5576040519150601f19603f3d011682016040523d82523d6000602084013e6144da565b606091505b50915091506144ea8282866144fb565b979650505050505050565b3b151590565b6060831561450a57508161275a565b82511561451a5782518084602001fd5b60405162461bcd60e51b815260206004820181815284516024840152845185939192839260440191908501908083836000831561411e57818101518382015260200161410656fe456e756d657261626c655365743a20696e646578206f7574206f6620626f756e6473416363657373436f6e74726f6c3a2073656e646572206d75737420626520616e2061646d696e20746f206772616e745075626c696353616c653a206578636c7573697665537461727454696d6520686173206e6f742070617373656441636365737369626c653a2043616c6c6572206973206e6f7420616e2061646d696e5075626c696353616c653a20656e64207468652077686974656c69737454696d655075626c696353616c653a206a757374206275792074696572277320616c6c6f636174656420616d6f756e74416464726573733a20696e73756666696369656e742062616c616e636520666f722063616c6c5075626c696353616c653a20646f6e2774206578697374207769746864726177416d6f756e745075626c696353616c653a20646f6e277420737461727420636c61696d54696d655075626c696353616c653a20656e6420746865206578636c757369766554696d65416363657373436f6e74726f6c3a2073656e646572206d75737420626520616e2061646d696e20746f207265766f6b65536166654d6174683a206d756c7469706c69636174696f6e206f766572666c6f775075626c696353616c653a206e6f74207265676973746572656420696e2077686974656c6973745075626c696353616c653a20646f6e7420686176652073616c65546f6b656e20696e20706f6f6c5075626c696353616c653a206e6f20776974686472617761626c6520616d6f756e745361666545524332303a204552433230206f7065726174696f6e20646964206e6f7420737563636565645075626c696353616c653a207573657220697320616c726561647920676574416c6c7265776172645075626c696353616c653a20646f6e2774207374617274206465706f73697454696d655075626c696353616c653a206e6f74206265666f72655374617274416464576869746554696d65416363657373436f6e74726f6c3a2063616e206f6e6c792072656e6f756e636520726f6c657320666f722073656c665075626c696353616c653a2077686974656c697374537461727454696d6520686173206e6f7420706173736564a2646970667358221220b21ac22aac46cf7c07bc10d4f5813393f79ed21f6116ffc3406be1dc4432e7e264736f6c63430007060033",
  "linkReferences": {},
  "deployedLinkReferences": {}
}