{
  "_format": "hh-sol-artifact-1",
  "contractName": "PublicSale",
  "sourceName": "contracts/sale/PublicSale.sol",
  "abi": [
    {
      "anonymous": false,
      "inputs": [
        {
          "indexed": true,
          "internalType": "address",
          "name": "from",
          "type": "address"
        },
        {
          "indexed": false,
          "internalType": "uint256",
          "name": "tier",
          "type": "uint256"
        }
      ],
      "name": "AddedWhiteList",
      "type": "event"
    },
    {
      "anonymous": false,
      "inputs": [
        {
          "indexed": true,
          "internalType": "address",
          "name": "from",
          "type": "address"
        },
        {
          "indexed": false,
          "internalType": "uint256",
          "name": "amount",
          "type": "uint256"
        }
      ],
      "name": "Claimed",
      "type": "event"
    },
    {
      "anonymous": false,
      "inputs": [
        {
          "indexed": true,
          "internalType": "address",
          "name": "from",
          "type": "address"
        },
        {
          "indexed": false,
          "internalType": "uint256",
          "name": "amount",
          "type": "uint256"
        },
        {
          "indexed": false,
          "internalType": "uint256",
          "name": "liquidityAmount",
          "type": "uint256"
        }
      ],
      "name": "DepositWithdrawal",
      "type": "event"
    },
    {
      "anonymous": false,
      "inputs": [
        {
          "indexed": true,
          "internalType": "address",
          "name": "from",
          "type": "address"
        },
        {
          "indexed": false,
          "internalType": "uint256",
          "name": "amount",
          "type": "uint256"
        }
      ],
      "name": "Deposited",
      "type": "event"
    },
    {
      "anonymous": false,
      "inputs": [
        {
          "indexed": true,
          "internalType": "address",
          "name": "from",
          "type": "address"
        },
        {
          "indexed": false,
          "internalType": "uint256",
          "name": "amount",
          "type": "uint256"
        }
      ],
      "name": "ExclusiveSaled",
      "type": "event"
    },
    {
      "anonymous": false,
      "inputs": [
        {
          "indexed": true,
          "internalType": "bytes32",
          "name": "role",
          "type": "bytes32"
        },
        {
          "indexed": true,
          "internalType": "bytes32",
          "name": "previousAdminRole",
          "type": "bytes32"
        },
        {
          "indexed": true,
          "internalType": "bytes32",
          "name": "newAdminRole",
          "type": "bytes32"
        }
      ],
      "name": "RoleAdminChanged",
      "type": "event"
    },
    {
      "anonymous": false,
      "inputs": [
        {
          "indexed": true,
          "internalType": "bytes32",
          "name": "role",
          "type": "bytes32"
        },
        {
          "indexed": true,
          "internalType": "address",
          "name": "account",
          "type": "address"
        },
        {
          "indexed": true,
          "internalType": "address",
          "name": "sender",
          "type": "address"
        }
      ],
      "name": "RoleGranted",
      "type": "event"
    },
    {
      "anonymous": false,
      "inputs": [
        {
          "indexed": true,
          "internalType": "bytes32",
          "name": "role",
          "type": "bytes32"
        },
        {
          "indexed": true,
          "internalType": "address",
          "name": "account",
          "type": "address"
        },
        {
          "indexed": true,
          "internalType": "address",
          "name": "sender",
          "type": "address"
        }
      ],
      "name": "RoleRevoked",
      "type": "event"
    },
    {
      "anonymous": false,
      "inputs": [
        {
          "indexed": true,
          "internalType": "address",
          "name": "from",
          "type": "address"
        },
        {
          "indexed": false,
          "internalType": "uint256",
          "name": "amount",
          "type": "uint256"
        }
      ],
      "name": "Withdrawal",
      "type": "event"
    },
    {
      "inputs": [],
      "name": "ADMIN_ROLE",
      "outputs": [
        {
          "internalType": "bytes32",
          "name": "",
          "type": "bytes32"
        }
      ],
      "stateMutability": "view",
      "type": "function"
    },
    {
      "inputs": [],
      "name": "BURNER_ROLE",
      "outputs": [
        {
          "internalType": "bytes32",
          "name": "",
          "type": "bytes32"
        }
      ],
      "stateMutability": "view",
      "type": "function"
    },
    {
      "inputs": [],
      "name": "DEFAULT_ADMIN_ROLE",
      "outputs": [
        {
          "internalType": "bytes32",
          "name": "",
          "type": "bytes32"
        }
      ],
      "stateMutability": "view",
      "type": "function"
    },
    {
      "inputs": [],
      "name": "MINTER_ROLE",
      "outputs": [
        {
          "internalType": "bytes32",
          "name": "",
          "type": "bytes32"
        }
      ],
      "stateMutability": "view",
      "type": "function"
    },
    {
      "inputs": [],
      "name": "PROJECT_ADMIN_ROLE",
      "outputs": [
        {
          "internalType": "bytes32",
          "name": "",
          "type": "bytes32"
        }
      ],
      "stateMutability": "view",
      "type": "function"
    },
    {
      "inputs": [
        {
          "internalType": "bytes",
          "name": "data",
          "type": "bytes"
        }
      ],
      "name": "_decodeApproveData",
      "outputs": [
        {
          "internalType": "uint256",
          "name": "approveData",
          "type": "uint256"
        }
      ],
      "stateMutability": "pure",
      "type": "function"
    },
    {
      "inputs": [
        {
          "internalType": "uint256",
          "name": "v",
          "type": "uint256"
        }
      ],
      "name": "_toWAD",
      "outputs": [
        {
          "internalType": "uint256",
          "name": "",
          "type": "uint256"
        }
      ],
      "stateMutability": "pure",
      "type": "function"
    },
    {
      "inputs": [
        {
          "internalType": "address",
          "name": "account",
          "type": "address"
        }
      ],
      "name": "addAdmin",
      "outputs": [],
      "stateMutability": "nonpayable",
      "type": "function"
    },
    {
      "inputs": [
        {
          "internalType": "address",
          "name": "_owner",
          "type": "address"
        }
      ],
      "name": "addProxyAdmin",
      "outputs": [],
      "stateMutability": "nonpayable",
      "type": "function"
    },
    {
      "inputs": [],
      "name": "addWhiteList",
      "outputs": [],
      "stateMutability": "nonpayable",
      "type": "function"
    },
    {
      "inputs": [],
      "name": "adminWithdraw",
      "outputs": [
        {
          "internalType": "bool",
          "name": "",
          "type": "bool"
        }
      ],
      "stateMutability": "view",
      "type": "function"
    },
    {
      "inputs": [
        {
          "internalType": "address",
          "name": "_account",
          "type": "address"
        },
        {
          "internalType": "uint256",
          "name": "_round",
          "type": "uint256"
        }
      ],
      "name": "calculClaimAmount",
      "outputs": [
        {
          "internalType": "uint256",
          "name": "_reward",
          "type": "uint256"
        },
        {
          "internalType": "uint256",
          "name": "_totalClaim",
          "type": "uint256"
        },
        {
          "internalType": "uint256",
          "name": "_refundAmount",
          "type": "uint256"
        }
      ],
      "stateMutability": "view",
      "type": "function"
    },
    {
      "inputs": [
        {
          "internalType": "address",
          "name": "_account",
          "type": "address"
        },
        {
          "internalType": "uint256",
          "name": "_amount",
          "type": "uint256"
        }
      ],
      "name": "calculOpenSaleAmount",
      "outputs": [
        {
          "internalType": "uint256",
          "name": "",
          "type": "uint256"
        }
      ],
      "stateMutability": "view",
      "type": "function"
    },
    {
      "inputs": [
        {
          "internalType": "uint256",
          "name": "_amount",
          "type": "uint256"
        }
      ],
      "name": "calculPayToken",
      "outputs": [
        {
          "internalType": "uint256",
          "name": "",
          "type": "uint256"
        }
      ],
      "stateMutability": "view",
      "type": "function"
    },
    {
      "inputs": [
        {
          "internalType": "uint256",
          "name": "_amount",
          "type": "uint256"
        }
      ],
      "name": "calculSaleToken",
      "outputs": [
        {
          "internalType": "uint256",
          "name": "",
          "type": "uint256"
        }
      ],
      "stateMutability": "view",
      "type": "function"
    },
    {
      "inputs": [
        {
          "internalType": "address",
          "name": "_address",
          "type": "address"
        }
      ],
      "name": "calculTier",
      "outputs": [
        {
          "internalType": "uint256",
          "name": "",
          "type": "uint256"
        }
      ],
      "stateMutability": "view",
      "type": "function"
    },
    {
      "inputs": [
        {
          "internalType": "address",
          "name": "_address",
          "type": "address"
        }
      ],
      "name": "calculTierAmount",
      "outputs": [
        {
          "internalType": "uint256",
          "name": "",
          "type": "uint256"
        }
      ],
      "stateMutability": "view",
      "type": "function"
    },
    {
      "inputs": [
        {
          "internalType": "address",
          "name": "_address",
          "type": "address"
        }
      ],
      "name": "changeTONOwner",
      "outputs": [],
      "stateMutability": "nonpayable",
      "type": "function"
    },
    {
      "inputs": [],
      "name": "changeTOS",
      "outputs": [
        {
          "internalType": "uint256",
          "name": "",
          "type": "uint256"
        }
      ],
      "stateMutability": "view",
      "type": "function"
    },
    {
      "inputs": [],
      "name": "claim",
      "outputs": [],
      "stateMutability": "nonpayable",
      "type": "function"
    },
    {
      "inputs": [],
      "name": "claimFirst",
      "outputs": [
        {
          "internalType": "uint256",
          "name": "",
          "type": "uint256"
        }
      ],
      "stateMutability": "view",
      "type": "function"
    },
    {
      "inputs": [],
      "name": "claimInterval",
      "outputs": [
        {
          "internalType": "uint256",
          "name": "",
          "type": "uint256"
        }
      ],
      "stateMutability": "view",
      "type": "function"
    },
    {
      "inputs": [
        {
          "internalType": "uint256",
          "name": "",
          "type": "uint256"
        }
      ],
      "name": "claimPercents",
      "outputs": [
        {
          "internalType": "uint256",
          "name": "",
          "type": "uint256"
        }
      ],
      "stateMutability": "view",
      "type": "function"
    },
    {
      "inputs": [],
      "name": "claimPeriod",
      "outputs": [
        {
          "internalType": "uint256",
          "name": "",
          "type": "uint256"
        }
      ],
      "stateMutability": "view",
      "type": "function"
    },
    {
      "inputs": [
        {
          "internalType": "uint256",
          "name": "",
          "type": "uint256"
        }
      ],
      "name": "claimTimes",
      "outputs": [
        {
          "internalType": "uint256",
          "name": "",
          "type": "uint256"
        }
      ],
      "stateMutability": "view",
      "type": "function"
    },
    {
      "inputs": [],
      "name": "currentRound",
      "outputs": [
        {
          "internalType": "uint256",
          "name": "round",
          "type": "uint256"
        }
      ],
      "stateMutability": "view",
      "type": "function"
    },
    {
      "inputs": [
        {
          "internalType": "address",
          "name": "_sender",
          "type": "address"
        },
        {
          "internalType": "uint256",
          "name": "_amount",
          "type": "uint256"
        }
      ],
      "name": "deposit",
      "outputs": [],
      "stateMutability": "nonpayable",
      "type": "function"
    },
    {
      "inputs": [],
      "name": "depositWithdraw",
      "outputs": [],
      "stateMutability": "nonpayable",
      "type": "function"
    },
    {
      "inputs": [
        {
          "internalType": "uint256",
          "name": "",
          "type": "uint256"
        }
      ],
      "name": "depositors",
      "outputs": [
        {
          "internalType": "address",
          "name": "",
          "type": "address"
        }
      ],
      "stateMutability": "view",
      "type": "function"
    },
    {
      "inputs": [],
      "name": "endAddWhiteTime",
      "outputs": [
        {
          "internalType": "uint256",
          "name": "",
          "type": "uint256"
        }
      ],
      "stateMutability": "view",
      "type": "function"
    },
    {
      "inputs": [],
      "name": "endDepositTime",
      "outputs": [
        {
          "internalType": "uint256",
          "name": "",
          "type": "uint256"
        }
      ],
      "stateMutability": "view",
      "type": "function"
    },
    {
      "inputs": [],
      "name": "endExclusiveTime",
      "outputs": [
        {
          "internalType": "uint256",
          "name": "",
          "type": "uint256"
        }
      ],
      "stateMutability": "view",
      "type": "function"
    },
    {
      "inputs": [
        {
          "internalType": "address",
          "name": "_sender",
          "type": "address"
        },
        {
          "internalType": "uint256",
          "name": "_amount",
          "type": "uint256"
        }
      ],
      "name": "exclusiveSale",
      "outputs": [],
      "stateMutability": "nonpayable",
      "type": "function"
    },
    {
      "inputs": [
        {
          "internalType": "bytes32",
          "name": "role",
          "type": "bytes32"
        }
      ],
      "name": "getRoleAdmin",
      "outputs": [
        {
          "internalType": "bytes32",
          "name": "",
          "type": "bytes32"
        }
      ],
      "stateMutability": "view",
      "type": "function"
    },
    {
      "inputs": [
        {
          "internalType": "bytes32",
          "name": "role",
          "type": "bytes32"
        },
        {
          "internalType": "uint256",
          "name": "index",
          "type": "uint256"
        }
      ],
      "name": "getRoleMember",
      "outputs": [
        {
          "internalType": "address",
          "name": "",
          "type": "address"
        }
      ],
      "stateMutability": "view",
      "type": "function"
    },
    {
      "inputs": [
        {
          "internalType": "bytes32",
          "name": "role",
          "type": "bytes32"
        }
      ],
      "name": "getRoleMemberCount",
      "outputs": [
        {
          "internalType": "uint256",
          "name": "",
          "type": "uint256"
        }
      ],
      "stateMutability": "view",
      "type": "function"
    },
    {
      "inputs": [],
      "name": "getToken",
      "outputs": [
        {
          "internalType": "address",
          "name": "",
          "type": "address"
        }
      ],
      "stateMutability": "view",
      "type": "function"
    },
    {
      "inputs": [],
      "name": "getTokenOwner",
      "outputs": [
        {
          "internalType": "address",
          "name": "",
          "type": "address"
        }
      ],
      "stateMutability": "view",
      "type": "function"
    },
    {
      "inputs": [
        {
          "internalType": "bytes32",
          "name": "role",
          "type": "bytes32"
        },
        {
          "internalType": "address",
          "name": "account",
          "type": "address"
        }
      ],
      "name": "grantRole",
      "outputs": [],
      "stateMutability": "nonpayable",
      "type": "function"
    },
    {
      "inputs": [],
      "name": "hardCap",
      "outputs": [
        {
          "internalType": "uint256",
          "name": "",
          "type": "uint256"
        }
      ],
      "stateMutability": "view",
      "type": "function"
    },
    {
      "inputs": [],
      "name": "hardcapCalcul",
      "outputs": [
        {
          "internalType": "uint256",
          "name": "",
          "type": "uint256"
        }
      ],
      "stateMutability": "view",
      "type": "function"
    },
    {
      "inputs": [
        {
          "internalType": "bytes32",
          "name": "role",
          "type": "bytes32"
        },
        {
          "internalType": "address",
          "name": "account",
          "type": "address"
        }
      ],
      "name": "hasRole",
      "outputs": [
        {
          "internalType": "bool",
          "name": "",
          "type": "bool"
        }
      ],
      "stateMutability": "view",
      "type": "function"
    },
    {
      "inputs": [
        {
          "internalType": "address",
          "name": "account",
          "type": "address"
        }
      ],
      "name": "isAdmin",
      "outputs": [
        {
          "internalType": "bool",
          "name": "",
          "type": "bool"
        }
      ],
      "stateMutability": "view",
      "type": "function"
    },
    {
      "inputs": [
        {
          "internalType": "address",
          "name": "account",
          "type": "address"
        }
      ],
      "name": "isProxyAdmin",
      "outputs": [
        {
          "internalType": "bool",
          "name": "",
          "type": "bool"
        }
      ],
      "stateMutability": "view",
      "type": "function"
    },
    {
      "inputs": [],
      "name": "liquidityVaultAddress",
      "outputs": [
        {
          "internalType": "address",
          "name": "",
          "type": "address"
        }
      ],
      "stateMutability": "view",
      "type": "function"
    },
    {
      "inputs": [],
      "name": "maxPer",
      "outputs": [
        {
          "internalType": "uint256",
          "name": "",
          "type": "uint256"
        }
      ],
      "stateMutability": "view",
      "type": "function"
    },
    {
      "inputs": [],
      "name": "minPer",
      "outputs": [
        {
          "internalType": "uint256",
          "name": "",
          "type": "uint256"
        }
      ],
      "stateMutability": "view",
      "type": "function"
    },
    {
      "inputs": [
        {
          "internalType": "address",
          "name": "user",
          "type": "address"
        }
      ],
      "name": "openSaleUserAmount",
      "outputs": [
        {
          "internalType": "uint256",
          "name": "_realPayAmount",
          "type": "uint256"
        },
        {
          "internalType": "uint256",
          "name": "_realSaleAmount",
          "type": "uint256"
        },
        {
          "internalType": "uint256",
          "name": "_refundAmount",
          "type": "uint256"
        }
      ],
      "stateMutability": "view",
      "type": "function"
    },
    {
      "inputs": [],
      "name": "pauseProxy",
      "outputs": [
        {
          "internalType": "bool",
          "name": "",
          "type": "bool"
        }
      ],
      "stateMutability": "view",
      "type": "function"
    },
    {
      "inputs": [],
      "name": "payTokenPrice",
      "outputs": [
        {
          "internalType": "uint256",
          "name": "",
          "type": "uint256"
        }
      ],
      "stateMutability": "view",
      "type": "function"
    },
    {
      "inputs": [],
      "name": "poolFee",
      "outputs": [
        {
          "internalType": "uint24",
          "name": "",
          "type": "uint24"
        }
      ],
      "stateMutability": "view",
      "type": "function"
    },
    {
      "inputs": [],
      "name": "removeAdmin",
      "outputs": [],
      "stateMutability": "nonpayable",
      "type": "function"
    },
    {
      "inputs": [],
      "name": "removeProxyAdmin",
      "outputs": [],
      "stateMutability": "nonpayable",
      "type": "function"
    },
    {
      "inputs": [
        {
          "internalType": "bytes32",
          "name": "role",
          "type": "bytes32"
        },
        {
          "internalType": "address",
          "name": "account",
          "type": "address"
        }
      ],
      "name": "renounceRole",
      "outputs": [],
      "stateMutability": "nonpayable",
      "type": "function"
    },
    {
      "inputs": [
        {
          "internalType": "bytes32",
          "name": "role",
          "type": "bytes32"
        },
        {
          "internalType": "address",
          "name": "account",
          "type": "address"
        }
      ],
      "name": "revokeRole",
      "outputs": [],
      "stateMutability": "nonpayable",
      "type": "function"
    },
    {
      "inputs": [],
      "name": "sTOS",
      "outputs": [
        {
          "internalType": "contract ILockTOS",
          "name": "",
          "type": "address"
        }
      ],
      "stateMutability": "view",
      "type": "function"
    },
    {
      "inputs": [],
      "name": "saleToken",
      "outputs": [
        {
          "internalType": "contract IERC20",
          "name": "",
          "type": "address"
        }
      ],
      "stateMutability": "view",
      "type": "function"
    },
    {
      "inputs": [],
      "name": "saleTokenPrice",
      "outputs": [
        {
          "internalType": "uint256",
          "name": "",
          "type": "uint256"
        }
      ],
      "stateMutability": "view",
      "type": "function"
    },
    {
      "inputs": [
        {
          "internalType": "uint256[2]",
          "name": "_expectAmount",
          "type": "uint256[2]"
        },
        {
          "internalType": "uint256[2]",
          "name": "_priceAmount",
          "type": "uint256[2]"
        }
      ],
      "name": "setAllAmount",
      "outputs": [],
      "stateMutability": "nonpayable",
      "type": "function"
    },
    {
      "inputs": [
        {
          "internalType": "uint256[4]",
          "name": "_tier",
          "type": "uint256[4]"
        },
        {
          "internalType": "uint256[4]",
          "name": "_tierPercent",
          "type": "uint256[4]"
        }
      ],
      "name": "setAllTier",
      "outputs": [],
      "stateMutability": "nonpayable",
      "type": "function"
    },
    {
      "inputs": [
        {
          "internalType": "uint256[8]",
          "name": "_Tier",
          "type": "uint256[8]"
        },
        {
          "internalType": "uint256[6]",
          "name": "_amount",
          "type": "uint256[6]"
        },
        {
          "internalType": "uint256[8]",
          "name": "_time",
          "type": "uint256[8]"
        },
        {
          "internalType": "uint256[]",
          "name": "_claimTimes",
          "type": "uint256[]"
        },
        {
          "internalType": "uint256[]",
          "name": "_claimPercents",
          "type": "uint256[]"
        }
      ],
      "name": "setAllsetting",
      "outputs": [],
      "stateMutability": "nonpayable",
      "type": "function"
    },
    {
      "inputs": [
        {
          "internalType": "uint256",
          "name": "_claimCounts",
          "type": "uint256"
        },
        {
          "internalType": "uint256[]",
          "name": "_claimTimes",
          "type": "uint256[]"
        },
        {
          "internalType": "uint256[]",
          "name": "_claimPercents",
          "type": "uint256[]"
        }
      ],
      "name": "setEachClaim",
      "outputs": [],
      "stateMutability": "nonpayable",
      "type": "function"
    },
    {
      "inputs": [
        {
          "internalType": "uint256",
          "name": "_startAddWhiteTime",
          "type": "uint256"
        },
        {
          "internalType": "uint256",
          "name": "_endAddWhiteTime",
          "type": "uint256"
        },
        {
          "internalType": "uint256",
          "name": "_startExclusiveTime",
          "type": "uint256"
        },
        {
          "internalType": "uint256",
          "name": "_endExclusiveTime",
          "type": "uint256"
        }
      ],
      "name": "setExclusiveTime",
      "outputs": [],
      "stateMutability": "nonpayable",
      "type": "function"
    },
    {
      "inputs": [
        {
          "internalType": "uint256",
          "name": "_hardcapAmount",
          "type": "uint256"
        },
        {
          "internalType": "uint256",
          "name": "_changePercent",
          "type": "uint256"
        }
      ],
      "name": "setHardcap",
      "outputs": [],
      "stateMutability": "nonpayable",
      "type": "function"
    },
    {
      "inputs": [
        {
          "internalType": "uint256",
          "name": "_startDepositTime",
          "type": "uint256"
        },
        {
          "internalType": "uint256",
          "name": "_endDepositTime",
          "type": "uint256"
        }
      ],
      "name": "setOpenTime",
      "outputs": [],
      "stateMutability": "nonpayable",
      "type": "function"
    },
    {
      "inputs": [
        {
          "internalType": "uint256",
          "name": "_totalExpectSaleAmount",
          "type": "uint256"
        },
        {
          "internalType": "uint256",
          "name": "_totalExpectOpenSaleAmount",
          "type": "uint256"
        }
      ],
      "name": "setSaleAmount",
      "outputs": [],
      "stateMutability": "nonpayable",
      "type": "function"
    },
    {
      "inputs": [
        {
          "internalType": "uint256",
          "name": "_snapshot",
          "type": "uint256"
        }
      ],
      "name": "setSnapshot",
      "outputs": [],
      "stateMutability": "nonpayable",
      "type": "function"
    },
    {
      "inputs": [
        {
          "internalType": "uint256",
          "name": "_tier1",
          "type": "uint256"
        },
        {
          "internalType": "uint256",
          "name": "_tier2",
          "type": "uint256"
        },
        {
          "internalType": "uint256",
          "name": "_tier3",
          "type": "uint256"
        },
        {
          "internalType": "uint256",
          "name": "_tier4",
          "type": "uint256"
        }
      ],
      "name": "setTier",
      "outputs": [],
      "stateMutability": "nonpayable",
      "type": "function"
    },
    {
      "inputs": [
        {
          "internalType": "uint256",
          "name": "_tier1",
          "type": "uint256"
        },
        {
          "internalType": "uint256",
          "name": "_tier2",
          "type": "uint256"
        },
        {
          "internalType": "uint256",
          "name": "_tier3",
          "type": "uint256"
        },
        {
          "internalType": "uint256",
          "name": "_tier4",
          "type": "uint256"
        }
      ],
      "name": "setTierPercents",
      "outputs": [],
      "stateMutability": "nonpayable",
      "type": "function"
    },
    {
      "inputs": [
        {
          "internalType": "uint256",
          "name": "_saleTokenPrice",
          "type": "uint256"
        },
        {
          "internalType": "uint256",
          "name": "_payTokenPrice",
          "type": "uint256"
        }
      ],
      "name": "setTokenPrice",
      "outputs": [],
      "stateMutability": "nonpayable",
      "type": "function"
    },
    {
      "inputs": [],
      "name": "snapshot",
      "outputs": [
        {
          "internalType": "uint256",
          "name": "",
          "type": "uint256"
        }
      ],
      "stateMutability": "view",
      "type": "function"
    },
    {
      "inputs": [],
      "name": "startAddWhiteTime",
      "outputs": [
        {
          "internalType": "uint256",
          "name": "",
          "type": "uint256"
        }
      ],
      "stateMutability": "view",
      "type": "function"
    },
    {
      "inputs": [],
      "name": "startClaimTime",
      "outputs": [
        {
          "internalType": "uint256",
          "name": "",
          "type": "uint256"
        }
      ],
      "stateMutability": "view",
      "type": "function"
    },
    {
      "inputs": [],
      "name": "startDepositTime",
      "outputs": [
        {
          "internalType": "uint256",
          "name": "",
          "type": "uint256"
        }
      ],
      "stateMutability": "view",
      "type": "function"
    },
    {
      "inputs": [],
      "name": "startExclusiveTime",
      "outputs": [
        {
          "internalType": "uint256",
          "name": "",
          "type": "uint256"
        }
      ],
      "stateMutability": "view",
      "type": "function"
    },
    {
      "inputs": [
        {
          "internalType": "uint256",
          "name": "",
          "type": "uint256"
        }
      ],
      "name": "tiers",
      "outputs": [
        {
          "internalType": "uint256",
          "name": "",
          "type": "uint256"
        }
      ],
      "stateMutability": "view",
      "type": "function"
    },
    {
      "inputs": [
        {
          "internalType": "uint256",
          "name": "",
          "type": "uint256"
        }
      ],
      "name": "tiersAccount",
      "outputs": [
        {
          "internalType": "uint256",
          "name": "",
          "type": "uint256"
        }
      ],
      "stateMutability": "view",
      "type": "function"
    },
    {
      "inputs": [
        {
          "internalType": "uint256",
          "name": "",
          "type": "uint256"
        }
      ],
      "name": "tiersExAccount",
      "outputs": [
        {
          "internalType": "uint256",
          "name": "",
          "type": "uint256"
        }
      ],
      "stateMutability": "view",
      "type": "function"
    },
    {
      "inputs": [
        {
          "internalType": "uint256",
          "name": "",
          "type": "uint256"
        }
      ],
      "name": "tiersPercents",
      "outputs": [
        {
          "internalType": "uint256",
          "name": "",
          "type": "uint256"
        }
      ],
      "stateMutability": "view",
      "type": "function"
    },
    {
      "inputs": [],
      "name": "tos",
      "outputs": [
        {
          "internalType": "contract IERC20",
          "name": "",
          "type": "address"
        }
      ],
      "stateMutability": "view",
      "type": "function"
    },
    {
      "inputs": [],
      "name": "totalClaimCounts",
      "outputs": [
        {
          "internalType": "uint256",
          "name": "",
          "type": "uint256"
        }
      ],
      "stateMutability": "view",
      "type": "function"
    },
    {
      "inputs": [],
      "name": "totalDepositAmount",
      "outputs": [
        {
          "internalType": "uint256",
          "name": "",
          "type": "uint256"
        }
      ],
      "stateMutability": "view",
      "type": "function"
    },
    {
      "inputs": [],
      "name": "totalExPurchasedAmount",
      "outputs": [
        {
          "internalType": "uint256",
          "name": "",
          "type": "uint256"
        }
      ],
      "stateMutability": "view",
      "type": "function"
    },
    {
      "inputs": [],
      "name": "totalExSaleAmount",
      "outputs": [
        {
          "internalType": "uint256",
          "name": "",
          "type": "uint256"
        }
      ],
      "stateMutability": "view",
      "type": "function"
    },
    {
      "inputs": [],
      "name": "totalExpectOpenSaleAmount",
      "outputs": [
        {
          "internalType": "uint256",
          "name": "",
          "type": "uint256"
        }
      ],
      "stateMutability": "view",
      "type": "function"
    },
    {
      "inputs": [],
      "name": "totalExpectOpenSaleAmountView",
      "outputs": [
        {
          "internalType": "uint256",
          "name": "",
          "type": "uint256"
        }
      ],
      "stateMutability": "view",
      "type": "function"
    },
    {
      "inputs": [],
      "name": "totalExpectSaleAmount",
      "outputs": [
        {
          "internalType": "uint256",
          "name": "",
          "type": "uint256"
        }
      ],
      "stateMutability": "view",
      "type": "function"
    },
    {
      "inputs": [],
      "name": "totalOpenPurchasedAmount",
      "outputs": [
        {
          "internalType": "uint256",
          "name": "",
          "type": "uint256"
        }
      ],
      "stateMutability": "view",
      "type": "function"
    },
    {
      "inputs": [],
      "name": "totalOpenSaleAmount",
      "outputs": [
        {
          "internalType": "uint256",
          "name": "",
          "type": "uint256"
        }
      ],
      "stateMutability": "view",
      "type": "function"
    },
    {
      "inputs": [],
      "name": "totalRound1NonSaleAmount",
      "outputs": [
        {
          "internalType": "uint256",
          "name": "",
          "type": "uint256"
        }
      ],
      "stateMutability": "view",
      "type": "function"
    },
    {
      "inputs": [],
      "name": "totalRound1Users",
      "outputs": [
        {
          "internalType": "uint256",
          "name": "",
          "type": "uint256"
        }
      ],
      "stateMutability": "view",
      "type": "function"
    },
    {
      "inputs": [],
      "name": "totalRound2Users",
      "outputs": [
        {
          "internalType": "uint256",
          "name": "",
          "type": "uint256"
        }
      ],
      "stateMutability": "view",
      "type": "function"
    },
    {
      "inputs": [],
      "name": "totalRound2UsersClaim",
      "outputs": [
        {
          "internalType": "uint256",
          "name": "",
          "type": "uint256"
        }
      ],
      "stateMutability": "view",
      "type": "function"
    },
    {
      "inputs": [
        {
          "internalType": "address",
          "name": "user",
          "type": "address"
        }
      ],
      "name": "totalSaleUserAmount",
      "outputs": [
        {
          "internalType": "uint256",
          "name": "_realPayAmount",
          "type": "uint256"
        },
        {
          "internalType": "uint256",
          "name": "_realSaleAmount",
          "type": "uint256"
        },
        {
          "internalType": "uint256",
          "name": "_refundAmount",
          "type": "uint256"
        }
      ],
      "stateMutability": "view",
      "type": "function"
    },
    {
      "inputs": [],
      "name": "totalUsers",
      "outputs": [
        {
          "internalType": "uint256",
          "name": "",
          "type": "uint256"
        }
      ],
      "stateMutability": "view",
      "type": "function"
    },
    {
      "inputs": [],
      "name": "totalWhitelists",
      "outputs": [
        {
          "internalType": "uint256",
          "name": "",
          "type": "uint256"
        }
      ],
      "stateMutability": "view",
      "type": "function"
    },
    {
      "inputs": [
        {
          "internalType": "address",
          "name": "newAdmin",
          "type": "address"
        }
      ],
      "name": "transferAdmin",
      "outputs": [],
      "stateMutability": "nonpayable",
      "type": "function"
    },
    {
      "inputs": [
        {
          "internalType": "address",
          "name": "newAdmin",
          "type": "address"
        }
      ],
      "name": "transferProxyAdmin",
      "outputs": [],
      "stateMutability": "nonpayable",
      "type": "function"
    },
    {
      "inputs": [],
      "name": "uniswapRouter",
      "outputs": [
        {
          "internalType": "contract ISwapRouter",
          "name": "",
          "type": "address"
        }
      ],
      "stateMutability": "view",
      "type": "function"
    },
    {
      "inputs": [
        {
          "internalType": "address",
          "name": "",
          "type": "address"
        }
      ],
      "name": "usersClaim",
      "outputs": [
        {
          "internalType": "bool",
          "name": "exec",
          "type": "bool"
        },
        {
          "internalType": "uint256",
          "name": "claimAmount",
          "type": "uint256"
        },
        {
          "internalType": "uint256",
          "name": "refundAmount",
          "type": "uint256"
        }
      ],
      "stateMutability": "view",
      "type": "function"
    },
    {
      "inputs": [
        {
          "internalType": "address",
          "name": "",
          "type": "address"
        }
      ],
      "name": "usersEx",
      "outputs": [
        {
          "internalType": "bool",
          "name": "join",
          "type": "bool"
        },
        {
          "internalType": "uint256",
          "name": "tier",
          "type": "uint256"
        },
        {
          "internalType": "uint256",
          "name": "payAmount",
          "type": "uint256"
        },
        {
          "internalType": "uint256",
          "name": "saleAmount",
          "type": "uint256"
        }
      ],
      "stateMutability": "view",
      "type": "function"
    },
    {
      "inputs": [
        {
          "internalType": "address",
          "name": "",
          "type": "address"
        }
      ],
      "name": "usersOpen",
      "outputs": [
        {
          "internalType": "bool",
          "name": "join",
          "type": "bool"
        },
        {
          "internalType": "uint256",
          "name": "depositAmount",
          "type": "uint256"
        },
        {
          "internalType": "uint256",
          "name": "payAmount",
          "type": "uint256"
        }
      ],
      "stateMutability": "view",
      "type": "function"
    },
    {
      "inputs": [
        {
          "internalType": "uint256",
          "name": "",
          "type": "uint256"
        }
      ],
      "name": "whitelists",
      "outputs": [
        {
          "internalType": "address",
          "name": "",
          "type": "address"
        }
      ],
      "stateMutability": "view",
      "type": "function"
    },
    {
      "inputs": [],
      "name": "withdraw",
      "outputs": [],
      "stateMutability": "nonpayable",
      "type": "function"
    },
    {
      "inputs": [],
      "name": "wton",
      "outputs": [
        {
          "internalType": "address",
          "name": "",
          "type": "address"
        }
      ],
      "stateMutability": "view",
      "type": "function"
    }
  ],
  "bytecode": "0x60806040526000600155600060025560006003556000600455600060055560006006556000600755600060085560006009556000600a556000600b556000600c556000600d556000600e5534801561005657600080fd5b506001603155615ab6806200006c6000396000f3fe608060405234801561001057600080fd5b50600436106106935760003560e01c80638356ca4f11610366578063bfc630b1116101d3578063e985e3671161010f578063f3e16d48116100ad578063fbd9070f11610087578063fbd9070f14610c27578063fe404c9614610c2f578063fe4d5add14610c42578063ff6dac7614610c5557610693565b8063f3e16d4814610bf9578063f47f2f1d14610c0c578063fb86a40414610c1f57610693565b8063eb8445f8116100e9578063eb8445f814610bc3578063ed5131f514610bcb578063f0fbf32d14610bde578063f18d20be14610bf157610693565b8063e985e36714610ba0578063eaff056d14610ba8578063eb685c4714610bb057610693565b8063cae9ce1b1161017c578063d547741f11610156578063d547741f14610b5f578063e016bac414610b72578063e30821c614610b7a578063e4b2fb7914610b8d57610693565b8063cae9ce1b14610b21578063d21eb90814610b44578063d539139314610b5757610693565b8063c3e57635116101ad578063c3e5763514610afe578063c5408d5014610b06578063ca15c87314610b0e57610693565b8063bfc630b114610adb578063bfc93b0c14610ae3578063bff1f9e114610af657610693565b80639a202d47116102a2578063a38ffdea1161024b578063b569176711610225578063b569176714610ab0578063b7182b9514610ac3578063b960ca0414610acb578063be72f2d314610ad357610693565b8063a38ffdea14610a82578063a55abb1714610a95578063aa5bbf5514610a9d57610693565b8063a1b89b701161027c578063a1b89b7014610a6a578063a217fddf14610a72578063a389595f14610a7a57610693565b80639a202d4714610a525780639d18fde714610a5a578063a055e62514610a6257610693565b8063907784231161030f57806395252692116102e95780639525269214610a1c57806396f1557c14610a245780639711715a14610a3757806398d97da414610a3f57610693565b806390778423146109f957806391d1485414610a0157806394f641d514610a1457610693565b80638d62d949116103405780638d62d949146109cb5780638f68711a146109d35780639010d07c146109e657610693565b80638356ca4f146109a857806389f395de146109bb5780638a19c8bc146109c357610693565b80634dd19921116105045780636c2308391161044057806375829def116103e95780637dc2cd98116103c35780637dc2cd981461097d5780637ecd5c70146109855780638181e8471461099857806381a9f6d7146109a057610693565b806375829def1461094f57806375b238fc146109625780637676ee321461096a57610693565b8063704802751161041a578063704802751461092c57806370e5410a1461093f578063735de9f71461094757610693565b80636c230839146108fe5780636e0e0da2146109115780636e59abbb1461091957610693565b806360a2a25c116104ad57806366ce72711161048757806366ce7271146108bd57806367b399a5146108c557806369048005146108d85780636bbe48af146108eb57610693565b806360a2a25c1461089a57806361a33427146108ad57806363a8fd89146108b557610693565b806351d28a7e116104de57806351d28a7e1461085d578063590088bc146108655780635f1af7121461088757610693565b80634dd199211461083a5780634de389c4146108425780634e71d92d1461085557610693565b8063282c51f3116105d357806337bf07191161057c57806341c04d5e1161055657806341c04d5e146107ea57806341c0cb77146107f257806347e7ef2414610814578063494600ea1461082757610693565b806337bf0719146107d25780633ccfd60b146107da5780633ef541b5146107e257610693565b80632dcdbfd3116105ad5780632dcdbfd3146107995780632f2ff15d146107ac57806336568abe146107bf57610693565b8063282c51f31461078157806328e50f4b146107895780632cbf31881461079157610693565b80631c53f25611610640578063226bf1a41161061a578063226bf1a41461073e578063248a9ca31461074657806324d7806c14610759578063256019d61461077957610693565b80631c53f2561461070e578063218183a31461071657806321df0da71461072957610693565b80630b433a12116106715780630b433a12146106eb5780631a1197e7146106f35780631bfc751e1461070657610693565b8063039af9eb14610698578063089fe6aa146106c15780630a888550146106d6575b600080fd5b6106ab6106a6366004614ca3565b610c68565b6040516106b89190614eda565b60405180910390f35b6106c9610c7a565b6040516106b891906158e1565b6106e96106e4366004614e22565b610c80565b005b6106ab610de6565b6106ab610701366004614b34565b610dec565b6106ab610edb565b6106ab610ee1565b6106e9610724366004614e22565b610ee7565b6107316110cb565b6040516106b89190614e53565b6106ab6110da565b6106ab610754366004614ca3565b6110e0565b61076c610767366004614b34565b6110f5565b6040516106b89190614e9a565b6106ab611127565b6106ab61112d565b6106ab611151565b6106ab611180565b6106e96107a7366004614e22565b6111b5565b6106e96107ba366004614cbb565b611363565b6106e96107cd366004614cbb565b6113ca565b61073161142b565b6106e961143a565b6106ab6116df565b6106ab6116e5565b610805610800366004614b34565b611709565b6040516106b893929190614ea5565b6106e9610822366004614b4e565b61172e565b6106ab610835366004614b4e565b6118ce565b61073161192f565b6106e9610850366004614cdd565b61193e565b6106e9611a38565b6106ab611dba565b610878610873366004614b34565b611dc0565b6040516106b8939291906158ff565b610878610895366004614b4e565b611e49565b6106ab6108a8366004614ca3565b611fdd565b6106ab612002565b61076c612008565b6106ab612011565b6106ab6108d3366004614ca3565b612017565b6106ab6108e6366004614ca3565b612029565b6106ab6108f9366004614ca3565b61203b565b6106e961090c366004614ca3565b612045565b6106e96120bf565b6106e9610927366004614b77565b612575565b6106e961093a366004614b34565b6125ee565b6106ab61265c565b61073161269e565b6106e961095d366004614b34565b6126ad565b6106ab61280d565b6106e9610978366004614bab565b612831565b6106ab6128be565b6106ab610993366004614b34565b6128c4565b6106e9612c8a565b6106ab612e5d565b6106e96109b6366004614b34565b612e63565b610731612f76565b6106ab612f85565b610731612ff3565b6106ab6109e1366004614ca3565b613002565b6107316109f4366004614cdd565b613014565b6106ab61302c565b61076c610a0f366004614cbb565b613045565b6106ab61305d565b6106ab613063565b6106e9610a32366004614b34565b613069565b6106ab6130b8565b610878610a4d366004614b34565b6130be565b6106e9613170565b6106ab6131ef565b6106ab6131f5565b6106ab6131fb565b6106ab613201565b6106ab613206565b6106ab610a90366004614ca3565b61320c565b6106ab61322a565b6106ab610aab366004614cfe565b613230565b6106e9610abe366004614cdd565b613237565b610731613340565b6106ab61334f565b6106e9613355565b6106ab6133a4565b6106e9610af1366004614dab565b6133aa565b6106ab61354a565b6106ab613550565b6106ab613556565b6106ab610b1c366004614ca3565b61355c565b610b34610b2f366004614b34565b613573565b6040516106b89493929190614ebd565b6106e9610b52366004614bd7565b61359e565b6106ab6136d3565b6106e9610b6d366004614cbb565b6136f7565b6106ab613750565b6106e9610b88366004614b34565b613756565b610731610b9b366004614ca3565b6137d8565b610731613802565b6106ab613811565b6106e9610bbe366004614cdd565b613817565b6106ab6138f2565b6106ab610bd9366004614ca3565b6138f8565b6106e9610bec366004614b4e565b613919565b61076c613b4b565b6106e9610c07366004614cdd565b613b54565b61076c610c1a366004614b34565b613c16565b6106ab613c22565b6106ab613c28565b6106ab610c3d366004614ca3565b613d14565b610731610c50366004614ca3565b613d24565b610805610c63366004614b34565b613d34565b602c6020526000908152604090205481565b610bb881565b610c89336110f5565b80610c985750610c9833613c16565b610cd35760405162461bcd60e51b81526004018080602001828103825260228152602001806159676022913960400191505060405180910390fd5b8360008111610cfd5760405162461bcd60e51b8152600401610cf49061560e565b60405180910390fd5b8360008111610d1e5760405162461bcd60e51b8152600401610cf49061560e565b8360008111610d3f5760405162461bcd60e51b8152600401610cf49061560e565b8360008111610d605760405162461bcd60e51b8152600401610cf49061560e565b6002541580610d7d57506000600254118015610d7d575060025442105b610d995760405162461bcd60e51b8152600401610cf4906157c8565b8688108015610da757508587105b8015610db257508486105b610dce5760405162461bcd60e51b8152600401610cf490615071565b50505060029490945560039290925560045560055550565b60145481565b6001600160a01b038116600090815260296020526040812081610e0e846128c4565b825490915060ff1615156001148015610e275750600081115b15610e6d576000818152602d6020908152604080832054602f909252822054601054610e629261271092610e5c928391613d59565b90613db2565b9350610ed692505050565b8015610ecf576000818152602d6020526040812054610e8d906001613df4565b90506000610ec3612710610e5c84610e5c602f600089815260200190815260200160002054601054613d5990919063ffffffff16565b9450610ed69350505050565b6000925050505b919050565b60085481565b601a5481565b610ef0336110f5565b80610eff5750610eff33613c16565b610f3a5760405162461bcd60e51b81526004018080602001828103825260228152602001806159676022913960400191505060405180910390fd5b8360008111610f5b5760405162461bcd60e51b8152600401610cf49061560e565b8360008111610f7c5760405162461bcd60e51b8152600401610cf49061560e565b8360008111610f9d5760405162461bcd60e51b8152600401610cf49061560e565b8360008111610fbe5760405162461bcd60e51b8152600401610cf49061560e565b6002541580610fdb57506000600254118015610fdb575060025442105b610ff75760405162461bcd60e51b8152600401610cf4906157c8565b61100d8561100788818c8c613df4565b90613df4565b6127101461102d5760405162461bcd60e51b8152600401610cf49061533f565b5050602f60205250507f2fedb8cac919e2d61802d3f3f65600df9e1e136f03180ed4a848faa78b371a48939093557f014b8a03cd231876281bd1c72bfaaaa56c5e28d94a079079d6276f161baaafc6919091557f6946d7b77f6712e5465457e0b8828a369ba183c282ff32d70c4d14f56c38af3b5560046000527f15eee9062fb2abbd5c8f975fac073fbc5ed41f2bf904160d62b2385ce780014a55565b601f546001600160a01b031681565b60135481565b60009081526030602052604090206002015490565b60006111217f52eafc11f6f81f86878bffd31109a0d92f37506527754f00788853ff9f63b13083613045565b92915050565b60265481565b7f9667e80708b6eeeb0053fa0cca44e028ff548e2a9f029edfeac87c118b08b7c881565b6000600554421015611166575060115461117d565b61117a61117161302c565b60115490613df4565b90505b90565b60008061118e600f5461320c565b9050600061119a611151565b9050808210156111ac5750905061117d565b915061117d9050565b6111be336110f5565b806111cd57506111cd33613c16565b6112085760405162461bcd60e51b81526004018080602001828103825260228152602001806159676022913960400191505060405180910390fd5b83600081116112295760405162461bcd60e51b8152600401610cf49061560e565b836000811161124a5760405162461bcd60e51b8152600401610cf49061560e565b836000811161126b5760405162461bcd60e51b8152600401610cf49061560e565b836000811161128c5760405162461bcd60e51b8152600401610cf49061560e565b60025415806112a9575060006002541180156112a9575060025442105b6112c55760405162461bcd60e51b8152600401610cf4906157c8565b5050602c60205250507fa1f88ee5f5d946e3956f6291445d84cd8aea2bf6c57f4f4ac349f7a338882643939093557f6341b6932e4cda7f2c8ee538808b6e59203ca73e36e9cb87c1630f2ee6769505919091557f346e04586552d20f41deccc37fa635fec0e5a301cd03733849900b5addd9c10b5560046000527f65a45a9953af37d0d635615262737dabd1d44cd96b05df0e22282efb1940638f55565b60008281526030602052604090206002015461138190610a0f613e4e565b6113bc5760405162461bcd60e51b815260040180806020018281038252602f815260200180615938602f913960400191505060405180910390fd5b6113c68282613e52565b5050565b6113d2613e4e565b6001600160a01b0316816001600160a01b0316146114215760405162461bcd60e51b815260040180806020018281038252602f815260200180615a52602f913960400191505060405180910390fd5b6113c68282613ebb565b6022546001600160a01b031681565b611443336110f5565b80611452575061145233613c16565b61148d5760405162461bcd60e51b81526004018080602001828103825260228152602001806159676022913960400191505060405180910390fd5b6020546040516370a0823160e01b81526000916001600160a01b0316906370a08231906114be903090600401614e53565b60206040518083038186803b1580156114d657600080fd5b505afa1580156114ea573d6000803e3d6000fd5b505050506040513d601f19601f8201168201806040525081019061150e9190614d93565b905060075442116115ca5760115460105461152891613df4565b81116115465760405162461bcd60e51b8152600401610cf49061567a565b6000611569611562601154601054613df490919063ffffffff16565b8390613f24565b602054909150611583906001600160a01b03163383613f66565b336001600160a01b03167f7fcf532c15f0a6db0bd6d0e038bea71d30d808c7d98cb3bf7268a95bf5081b65826040516115bc9190614eda565b60405180910390a2506116dc565b60255460ff16156115ed5760405162461bcd60e51b8152600401610cf4906151a1565b6025805460ff191660011790556000611604611180565b600d549091506116149082613df4565b60115460105461162391613df4565b116116405760405162461bcd60e51b8152600401610cf490615103565b600061166982611663600d54611663601154601054613df490919063ffffffff16565b90613f24565b90506000611675613c28565b905080611680578391505b602054611697906001600160a01b03163384613f66565b336001600160a01b03167f7fcf532c15f0a6db0bd6d0e038bea71d30d808c7d98cb3bf7268a95bf5081b65836040516116d09190614eda565b60405180910390a25050505b50565b60075481565b7f52eafc11f6f81f86878bffd31109a0d92f37506527754f00788853ff9f63b13081565b602a6020526000908152604090208054600182015460029092015460ff909116919083565b60026031541415611786576040805162461bcd60e51b815260206004820152601f60248201527f5265656e7472616e637947756172643a207265656e7472616e742063616c6c00604482015290519081900360640190fd5b60026031556006544210156117ad5760405162461bcd60e51b8152600401610cf490615734565b60075442106117ce5760405162461bcd60e51b8152600401610cf490615478565b6001600160a01b0382166000908152602a60205260409020805460ff166118965760238054600180820183556000929092527fd57b2b5166478fd4318d2acc6cc2c704584312bdd8781b32d5d06abda57f423001805473ffffffffffffffffffffffffffffffffffffffff19166001600160a01b038616179055815460ff191681178255600b5461185e91613df4565b600b556001600160a01b0383166000908152602960205260409020600281015461189457600954611890906001613df4565b6009555b505b60018101546118a59083613df4565b6001820155600f546118b79083613df4565b600f556118c48284613fe6565b5050600160315550565b6001600160a01b0382166000908152602a60205260408120600181015482906118f79085613df4565b9050600061192561191386600f54613df490919063ffffffff16565b610e5c8461191f611151565b90613d59565b9695505050505050565b601b546001600160a01b031681565b611947336110f5565b80611956575061195633613c16565b6119915760405162461bcd60e51b81526004018080602001828103825260228152602001806159676022913960400191505060405180910390fd5b81600081116119b25760405162461bcd60e51b8152600401610cf49061560e565b81600081116119d35760405162461bcd60e51b8152600401610cf49061560e565b60025415806119f0575060006002541180156119f0575060025442105b611a0c5760405162461bcd60e51b8152600401610cf4906157c8565b828410611a2b5760405162461bcd60e51b8152600401610cf490615645565b5050600691909155600755565b6027600081548110611a4657fe5b9060005260206000200154421015611a705760405162461bcd60e51b8152600401610cf490615160565b336000908152602a60209081526040808320602b90925282209091611a93613c28565b905080611b1257815460ff16151560011415611ac15760405162461bcd60e51b8152600401610cf4906154e6565b33600090815260296020526040812060018501546002820154919291611ae691613df4565b845460ff19166001178555601f54909150611b0b906001600160a01b03163383613f66565b5050611db5565b6000806000611b22336000611e49565b92509250925060008211611b485760405162461bcd60e51b8152600401610cf490615276565b60008311611b685760405162461bcd60e51b8152600401610cf49061551d565b82611b80866001015484613f2490919063ffffffff16565b1015611b9e5760405162461bcd60e51b8152600401610cf49061530a565b6020546040516370a0823160e01b815284916001600160a01b0316906370a0823190611bce903090600401614e53565b60206040518083038186803b158015611be657600080fd5b505afa158015611bfa573d6000803e3d6000fd5b505050506040513d601f19601f82011682018060405250810190611c1e9190614d93565b1015611c3c5760405162461bcd60e51b8152600401610cf490615554565b6001850154611c4b9084613df4565b6001860155602054611c67906001600160a01b03163385613f66565b845460ff16158015611c7a5750855460ff165b15611c9c57600c54611c8d906001613df4565b600c55845460ff191660011785555b600081118015611cae57506002850154155b15611d7057601f546040516370a0823160e01b81526001600160a01b03909116906370a0823190611ce3903090600401614e53565b60206040518083038186803b158015611cfb57600080fd5b505afa158015611d0f573d6000803e3d6000fd5b505050506040513d601f19601f82011682018060405250810190611d339190614d93565b811115611d525760405162461bcd60e51b8152600401610cf490614ee3565b60028501819055601f54611d70906001600160a01b03163383613f66565b336001600160a01b03167fd8138f8a3f377c5259ca548e70e4c2de94f129f5a11036a15b69513cba2b426a84604051611da99190614eda565b60405180910390a25050505b505050565b60125481565b6001600160a01b038116600090815260296020526040812080548291829160ff1615611e31576000806000611df4886130be565b925092509250611e11846002015484613df490919063ffffffff16565b6003850154611e21908490613df4565b8296509650965050505050611e42565b611e3a856130be565b935093509350505b9193909250565b6000806000600854421015611e6657506000915081905080611fd6565b602654841115611e7e57506000915081905080611fd6565b6001600160a01b0385166000908152602b602052604081209080611ea188611dc0565b92509250508160001415611ec2576000806000955095509550505050611fd6565b81836001015410611ee0576000806000955095509550505050611fd6565b8615611f30576000611f216064610e5c6028611efd8c6001613f24565b81548110611f0757fe5b906000526020600020015486613d5990919063ffffffff16565b96509194509250611fd6915050565b6000611f3a612f85565b905080602654148015611f4b575087155b15611f6457506001909201548103945092509050611fd6565b6000805b82811015611fb357611fa9611fa26064610e5c60288581548110611f8857fe5b906000526020600020015489613d5990919063ffffffff16565b8390613df4565b9150600101611f68565b5088611fd05760019094015490930395509093509150611fd69050565b50505050505b9250925092565b600080611ffb601354610e5c60125486613d5990919063ffffffff16565b9392505050565b600c5481565b60005460ff1681565b60055481565b602d6020526000908152604090205481565b602f6020526000908152604090205481565b633b9aca00900490565b61204e336110f5565b8061205d575061205d33613c16565b6120985760405162461bcd60e51b81526004018080602001828103825260228152602001806159676022913960400191505060405180910390fd5b80600081116120b95760405162461bcd60e51b8152600401610cf49061560e565b50600155565b60075442116120e05760405162461bcd60e51b8152600401610cf490615014565b60006120ea613c28565b9050600080821161210d5760405162461bcd60e51b8152600401610cf4906156d7565b600c54600b5414156121a657601f546040516370a0823160e01b815261219f9184916001600160a01b03909116906370a082319061214f903090600401614e53565b60206040518083038186803b15801561216757600080fd5b505afa15801561217b573d6000803e3d6000fd5b505050506040513d601f19601f820116820180604052508101906116639190614d93565b90506121cd565b6121ca678ac7230489e80000611663846116636121c161265c565b600e5490613df4565b90505b601f546040516370a0823160e01b81526001600160a01b03909116906370a08231906121fd903090600401614e53565b60206040518083038186803b15801561221557600080fd5b505afa158015612229573d6000803e3d6000fd5b505050506040513d601f19601f8201168201806040525081019061224d9190614d93565b81111561226c5760405162461bcd60e51b8152600401610cf4906154af565b601e546040517fe34869d70000000000000000000000000000000000000000000000000000000081526001600160a01b039091169063e34869d7906122b5908590600401614eda565b602060405180830381600087803b1580156122cf57600080fd5b505af11580156122e3573d6000803e3d6000fd5b505050506040513d601f19601f820116820180604052508101906123079190614c83565b50601e546040516370a0823160e01b81526000916001600160a01b0316906370a0823190612339903090600401614e53565b60206040518083038186803b15801561235157600080fd5b505afa158015612365573d6000803e3d6000fd5b505050506040513d601f19601f820116820180604052508101906123899190614d93565b6040805161010081018252601e546001600160a01b03908116825260215481166020830152610bb88284015230606083015242608083015260a08201849052600060c0830181905260e0830152601c5492517f414bf389000000000000000000000000000000000000000000000000000000008152939450909291169063414bf3899061241a908490600401615872565b602060405180830381600087803b15801561243457600080fd5b505af1158015612448573d6000803e3d6000fd5b505050506040513d601f19601f8201168201806040525081019061246c9190614d93565b506021546040516370a0823160e01b81526000916001600160a01b0316906370a082319061249e903090600401614e53565b60206040518083038186803b1580156124b657600080fd5b505afa1580156124ca573d6000803e3d6000fd5b505050506040513d601f19601f820116820180604052508101906124ee9190614d93565b601b5460215491925061250e916001600160a01b03908116911683613f66565b601d54601f5461252b916001600160a01b03918216911686613f66565b336001600160a01b03167f27084c94a254e82dc8973b962810cb320efedce3c641c38244a13a32eb8fff0885876040516125669291906158f1565b60405180910390a25050505050565b61257e336110f5565b8061258d575061258d33613c16565b6125c85760405162461bcd60e51b81526004018080602001828103825260228152602001806159676022913960400191505060405180910390fd5b6125db82358360015b6020020135613b54565b6113c681358260015b6020020135613817565b6125f733613c16565b6126325760405162461bcd60e51b81526004018080602001828103825260288152602001806159896028913960400191505060405180910390fd5b6116dc7f52eafc11f6f81f86878bffd31109a0d92f37506527754f00788853ff9f63b13082611363565b60008061266a600f5461320c565b90506000612676611151565b90508082101561268c57600f549250505061117d565b61269581611fdd565b9250505061117d565b601c546001600160a01b031681565b6126b6336110f5565b806126c557506126c533613c16565b6127005760405162461bcd60e51b81526004018080602001828103825260228152602001806159676022913960400191505060405180910390fd5b6001600160a01b03811661275b576040805162461bcd60e51b815260206004820152601860248201527f41636365737369626c653a207a65726f20616464726573730000000000000000604482015290519081900360640190fd5b336001600160a01b03821614156127b9576040805162461bcd60e51b815260206004820152601660248201527f41636365737369626c653a2073616d652061646d696e00000000000000000000604482015290519081900360640190fd5b6127e37f52eafc11f6f81f86878bffd31109a0d92f37506527754f00788853ff9f63b13082611363565b6116dc7f52eafc11f6f81f86878bffd31109a0d92f37506527754f00788853ff9f63b130336113ca565b7fdf8b4c520ffe197c5343c6f5aec59570151ef9a492f2c624fd45ddde6135ec4281565b61283a336110f5565b80612849575061284933613c16565b6128845760405162461bcd60e51b81526004018080602001828103825260228152602001806159676022913960400191505060405180910390fd5b6128a18235602084013560408501358560035b60200201356111b5565b6113c68135602083013560408401358460035b6020020135610ee7565b60155481565b6022546000906001600160a01b0316806128f05760405162461bcd60e51b8152600401610cf490615376565b6001600052602c6020527fa1f88ee5f5d946e3956f6291445d84cd8aea2bf6c57f4f4ac349f7a33888264354806129395760405162461bcd60e51b8152600401610cf49061560e565b6002600052602c6020527f6341b6932e4cda7f2c8ee538808b6e59203ca73e36e9cb87c1630f2ee676950554806129825760405162461bcd60e51b8152600401610cf49061560e565b6003600052602c6020527f346e04586552d20f41deccc37fa635fec0e5a301cd03733849900b5addd9c10b54806129cb5760405162461bcd60e51b8152600401610cf49061560e565b6004600052602c6020527f65a45a9953af37d0d635615262737dabd1d44cd96b05df0e22282efb1940638f5480612a145760405162461bcd60e51b8152600401610cf49061560e565b6022546001546040517f4ee2cd7e0000000000000000000000000000000000000000000000000000000081526000926001600160a01b031691634ee2cd7e91612a61918c91600401614e81565b60206040518083038186803b158015612a7957600080fd5b505afa158015612a8d573d6000803e3d6000fd5b505050506040513d601f19601f82011682018060405250810190612ab19190614d93565b60016000908152602c6020527fa1f88ee5f5d946e3956f6291445d84cd8aea2bf6c57f4f4ac349f7a33888264354919250908210801590612b1c57506002600052602c6020527f6341b6932e4cda7f2c8ee538808b6e59203ca73e36e9cb87c1630f2ee67695055482105b15612b2957506001612c7e565b6002600052602c6020527f6341b6932e4cda7f2c8ee538808b6e59203ca73e36e9cb87c1630f2ee6769505548210801590612b8e57506003600052602c6020527f346e04586552d20f41deccc37fa635fec0e5a301cd03733849900b5addd9c10b5482105b15612b9b57506002612c7e565b6003600052602c6020527f346e04586552d20f41deccc37fa635fec0e5a301cd03733849900b5addd9c10b548210801590612c0057506004600052602c6020527f65a45a9953af37d0d635615262737dabd1d44cd96b05df0e22282efb1940638f5482105b15612c0d57506003612c7e565b6004600052602c6020527f65a45a9953af37d0d635615262737dabd1d44cd96b05df0e22282efb1940638f548210612c4757506004612c7e565b6001600052602c6020527fa1f88ee5f5d946e3956f6291445d84cd8aea2bf6c57f4f4ac349f7a33888264354821015612c7e575060005b98975050505050505050565b60026031541415612ce2576040805162461bcd60e51b815260206004820152601f60248201527f5265656e7472616e637947756172643a207265656e7472616e742063616c6c00604482015290519081900360640190fd5b6002603181905554421015612d095760405162461bcd60e51b8152600401610cf490615825565b6003544210612d2a5760405162461bcd60e51b8152600401610cf490614fd3565b6000612d35336128c4565b90506001811015612d585760405162461bcd60e51b8152600401610cf490614f18565b336000908152602960205260409020805460ff16151560011415612d8e5760405162461bcd60e51b8152600401610cf490615791565b6024805460018181019092557f7cd332d19b93bcabe3cce7ca0c18a052f57e5fd03b4758a09f30f5ddc4b22ec401805473ffffffffffffffffffffffffffffffffffffffff191633179055815460ff191681178255818101839055600060038301819055838152602d6020526040902054612e0891613df4565b6000838152602d602052604090819020919091555133907fffc1b88a1c7ff4b7c84aac62283195eb1a6e771eafe7f68ddc27c7539cb0a10590612e4c908590614eda565b60405180910390a250506001603155565b60065481565b612e6c33613c16565b612ea75760405162461bcd60e51b81526004018080602001828103825260288152602001806159896028913960400191505060405180910390fd5b6001600160a01b038116612f02576040805162461bcd60e51b815260206004820152601860248201527f41636365737369626c653a207a65726f20616464726573730000000000000000604482015290519081900360640190fd5b336001600160a01b0382161415612f60576040805162461bcd60e51b815260206004820152601660248201527f41636365737369626c653a2073616d652061646d696e00000000000000000000604482015290519081900360640190fd5b612f6b600082611363565b6116dc6000336113ca565b6021546001600160a01b031681565b6000602760016026540381548110612f9957fe5b9060005260206000200154421115612fb4575060265461117d565b60005b602654811015612fef5760278181548110612fce57fe5b9060005260206000200154421015612fe757905061117d565b600101612fb7565b5090565b601e546001600160a01b031681565b602e6020526000908152604090205481565b6000828152603060205260408120611ffb9083614498565b600061117a600d54601054613f2490919063ffffffff16565b6000828152603060205260408120611ffb90836144a4565b600b5481565b60025481565b61307233613c16565b6130ad5760405162461bcd60e51b81526004018080602001828103825260288152602001806159896028913960400191505060405180910390fd5b6116dc6000826113bc565b60015481565b6001600160a01b0381166000908152602a6020526040812080548291829160ff1615806130ed57506001810154155b1561310357600080600093509350935050611e42565b60006131108660006118ce565b9050600061311d82611fdd565b60018401549091506000808284101561314c5761313a8385613f24565b90506131458461320c565b915061315f565b8560010154935061315c8361320c565b91505b929990985091965090945050505050565b613179336110f5565b80613188575061318833613c16565b6131c35760405162461bcd60e51b81526004018080602001828103825260228152602001806159676022913960400191505060405180910390fd5b6131ed7f52eafc11f6f81f86878bffd31109a0d92f37506527754f00788853ff9f63b130336113ca565b565b60185481565b600a5481565b60245490565b600081565b60195481565b600080611ffb601254610e5c60135486613d5990919063ffffffff16565b600e5481565b6020015190565b613240336110f5565b8061324f575061324f33613c16565b61328a5760405162461bcd60e51b81526004018080602001828103825260228152602001806159676022913960400191505060405180910390fd5b81600081116132ab5760405162461bcd60e51b8152600401610cf49061560e565b81600081116132cc5760405162461bcd60e51b8152600401610cf49061560e565b60025415806132e9575060006002541180156132e9575060025442105b6133055760405162461bcd60e51b8152600401610cf4906157c8565b600a8311158015613317575060058310155b6133335760405162461bcd60e51b8152600401610cf49061523f565b5050601791909155601855565b601d546001600160a01b031681565b60105481565b61335e33613c16565b6133995760405162461bcd60e51b81526004018080602001828103825260288152602001806159896028913960400191505060405180910390fd5b6131ed6000336113ca565b60115481565b6133b3336110f5565b806133c257506133c233613c16565b6133fd5760405162461bcd60e51b81526004018080602001828103825260228152602001806159676022913960400191505060405180910390fd5b600254158061341a5750600060025411801561341a575060025442105b6134365760405162461bcd60e51b8152600401610cf4906157c8565b60268590556000805b8682101561352157602786868481811061345557fe5b8354600181018555600094855260209485902091909402929092013591909201555081156134cd576027828154811061348a57fe5b9060005260206000200154602760018403815481106134a557fe5b9060005260206000200154106134cd5760405162461bcd60e51b8152600401610cf490615441565b60288484848181106134db57fe5b8354600181018555600094855260209485902091909402929092013591909201555083838381811061350957fe5b9050602002013581019050818060010192505061343f565b806064146135415760405162461bcd60e51b8152600401610cf4906153ad565b50505050505050565b60095481565b60035481565b600f5481565b6000818152603060205260408120611121906144b9565b602960205260009081526040902080546001820154600283015460039093015460ff90921692909184565b6135a7336110f5565b806135b657506135b633613c16565b6135f15760405162461bcd60e51b81526004018080602001828103825260228152602001806159676022913960400191505060405180910390fd5b600254158061360e5750600060025411801561360e575060025442105b61362a5760405162461bcd60e51b8152600401610cf4906157c8565b6136418735602089013560408a01358a6003612897565b61365b608088013560a089013560c08a01358a60076128b4565b61366886358760016125d1565b61367860408701358760036125e4565b61368a608087013560a0880135613237565b6136948535612045565b6136b06020860135604087013560608801356080890135610c80565b6136c260a086013560c087013561193e565b61354160e0860135858585856133aa565b7ff0887ba65ee2024ea881d91b74c2450ef19e1557f03bed3ea9f16b037cbe2dc981565b60008281526030602052604090206002015461371590610a0f613e4e565b6114215760405162461bcd60e51b81526004018080602001828103825260308152602001806159d76030913960400191505060405180910390fd5b60045481565b61375f336110f5565b8061376e575061376e33613c16565b6137a95760405162461bcd60e51b81526004018080602001828103825260228152602001806159676022913960400191505060405180910390fd5b601d805473ffffffffffffffffffffffffffffffffffffffff19166001600160a01b0392909216919091179055565b602381815481106137e857600080fd5b6000918252602090912001546001600160a01b0316905081565b6020546001600160a01b031681565b60165481565b613820336110f5565b8061382f575061382f33613c16565b61386a5760405162461bcd60e51b81526004018080602001828103825260228152602001806159676022913960400191505060405180910390fd5b816000811161388b5760405162461bcd60e51b8152600401610cf49061560e565b81600081116138ac5760405162461bcd60e51b8152600401610cf49061560e565b60025415806138c9575060006002541180156138c9575060025442105b6138e55760405162461bcd60e51b8152600401610cf4906157c8565b5050601291909155601355565b600d5481565b6027818154811061390857600080fd5b600091825260209091200154905081565b806000811161393a5760405162461bcd60e51b8152600401610cf49061560e565b6026546000811161395d5760405162461bcd60e51b8152600401610cf49061560e565b600260315414156139b5576040805162461bcd60e51b815260206004820152601f60248201527f5265656e7472616e637947756172643a207265656e7472616e742063616c6c00604482015290519081900360640190fd5b60026031556004544210156139dc5760405162461bcd60e51b8152600401610cf490614f4f565b60055442106139fd5760405162461bcd60e51b8152600401610cf4906151fe565b6001600160a01b0384166000908152602960205260409020805460ff161515600114613a3b5760405162461bcd60e51b8152600401610cf4906153e4565b6000613a468561320c565b90506000613a5387610dec565b6003840154909150613a659083613df4565b811015613a845760405162461bcd60e51b8152600401610cf4906150a6565b6000613a8f886128c4565b9050836002015460001415613aea57600a54613aac906001613df4565b600a55600954613abd906001613df4565b6009556000818152602e6020526040902054613ada906001613df4565b6000828152602e60205260409020555b6002840154613af99088613df4565b60028501556003840154613b0d9084613df4565b6003850155600e54613b1f9088613df4565b600e55600d54613b2f9084613df4565b600d55613b3c8789613fe6565b50506001603155505050505050565b60255460ff1681565b613b5d336110f5565b80613b6c5750613b6c33613c16565b613ba75760405162461bcd60e51b81526004018080602001828103825260228152602001806159676022913960400191505060405180910390fd5b613bb18282613df4565b60008111613bd15760405162461bcd60e51b8152600401610cf49061560e565b6002541580613bee57506000600254118015613bee575060025442105b613c0a5760405162461bcd60e51b8152600401610cf4906157c8565b50601091909155601155565b60006111218183613045565b60175481565b600080613c366121c161265c565b905060006017548210613d0957600c54600b541415613ce757601854601f546040516370a0823160e01b8152613cdd92606492610e5c926001600160a01b03909116906370a0823190613c8d903090600401614e53565b60206040518083038186803b158015613ca557600080fd5b505afa158015613cb9573d6000803e3d6000fd5b505050506040513d601f19601f8201168201806040525081019061191f9190614d93565b925061117d915050565b613cdd6064610e5c60185461191f674563918244f400006116636121c161265c565b60009250505061117d565b6028818154811061390857600080fd5b602481815481106137e857600080fd5b602b6020526000908152604090208054600182015460029092015460ff909116919083565b600082613d6857506000611121565b82820282848281613d7557fe5b0414611ffb5760405162461bcd60e51b8152600401808060200182810382526021815260200180615a076021913960400191505060405180910390fd5b6000611ffb83836040518060400160405280601a81526020017f536166654d6174683a206469766973696f6e206279207a65726f0000000000008152506144c4565b600082820183811015611ffb576040805162461bcd60e51b815260206004820152601b60248201527f536166654d6174683a206164646974696f6e206f766572666c6f770000000000604482015290519081900360640190fd5b3390565b6000828152603060205260409020613e6a9082614566565b156113c657613e77613e4e565b6001600160a01b0316816001600160a01b0316837f2f8788117e7eff1d82e926ec794901d17c78024a50270940304540a733656f0d60405160405180910390a45050565b6000828152603060205260409020613ed3908261457b565b156113c657613ee0613e4e565b6001600160a01b0316816001600160a01b0316837ff6391f5c32d9c69d2a47ea670b442974b53935d1edc7fd64eb21e047a839171b60405160405180910390a45050565b6000611ffb83836040518060400160405280601e81526020017f536166654d6174683a207375627472616374696f6e206f766572666c6f770000815250614590565b604080516001600160a01b038416602482015260448082018490528251808303909101815260649091019091526020810180517bffffffffffffffffffffffffffffffffffffffffffffffffffffffff167fa9059cbb00000000000000000000000000000000000000000000000000000000179052611db59084906145ea565b81600081116140075760405162461bcd60e51b8152600401610cf49061560e565b816001600160a01b03811661402e5760405162461bcd60e51b8152600401610cf490615376565b601f54604051636eb1769f60e11b81526000916001600160a01b03169063dd62ed3e906140619087903090600401614e67565b60206040518083038186803b15801561407957600080fd5b505afa15801561408d573d6000803e3d6000fd5b505050506040513d601f19601f820116820180604052508101906140b19190614d93565b601f546040516370a0823160e01b81529192506000916001600160a01b03909116906370a08231906140e7908890600401614e53565b60206040518083038186803b1580156140ff57600080fd5b505afa158015614113573d6000803e3d6000fd5b505050506040513d601f19601f820116820180604052508101906141379190614d93565b905080821115614145578091505b858210156143c35760008061415a8885613f24565b90506141658161469b565b601e54604051636eb1769f60e11b815291935083916001600160a01b039091169063dd62ed3e9061419c908b903090600401614e67565b602060405180830381600087803b1580156141b657600080fd5b505af11580156141ca573d6000803e3d6000fd5b505050506040513d601f19601f820116820180604052508101906141ee9190614d93565b101561420c5760405162461bcd60e51b8152600401610cf4906152ad565b601e546040516370a0823160e01b815283916001600160a01b0316906370a082319061423c908b90600401614e53565b60206040518083038186803b15801561425457600080fd5b505afa158015614268573d6000803e3d6000fd5b505050506040513d601f19601f8201168201806040525081019061428c9190614d93565b10156142aa5760405162461bcd60e51b8152600401610cf490614f9c565b601e546142c2906001600160a01b03168830856146a4565b601e546040517ff53fe70f0000000000000000000000000000000000000000000000000000000081526001600160a01b039091169063f53fe70f9061430b908590600401614eda565b602060405180830381600087803b15801561432557600080fd5b505af1158015614339573d6000803e3d6000fd5b505050506040513d601f19601f8201168201806040525081019061435d9190614c83565b506143688882613f24565b8410156143875760405162461bcd60e51b8152600401610cf4906155b1565b60006143938983613f24565b11156143bc576143bc87306143a88b85613f24565b601f546001600160a01b03169291906146a4565b5050614407565b8582101580156143d35750858110155b6143ef5760405162461bcd60e51b8152600401610cf4906155b1565b601f54614407906001600160a01b03168630896146a4565b60055442101561445757846001600160a01b03167fc2198f7273f3b4ab95a025cf1f853777ca45149bbc1c005496959a6da70fcb8d8760405161444a9190614eda565b60405180910390a2614490565b846001600160a01b03167f2da466a7b24304f47e87fa2e1e5a81b9831ce54fec19055ce277ca2f39ba42c487604051611da99190614eda565b505050505050565b6000611ffb8383614732565b6000611ffb836001600160a01b038416614796565b6000611121826147ae565b600081836145505760405162461bcd60e51b81526004018080602001828103825283818151815260200191508051906020019080838360005b838110156145155781810151838201526020016144fd565b50505050905090810190601f1680156145425780820380516001836020036101000a031916815260200191505b509250505060405180910390fd5b50600083858161455c57fe5b0495945050505050565b6000611ffb836001600160a01b0384166147b2565b6000611ffb836001600160a01b0384166147fc565b600081848411156145e25760405162461bcd60e51b81526020600482018181528351602484015283519092839260449091019190850190808383600083156145155781810151838201526020016144fd565b505050900390565b600061463f826040518060400160405280602081526020017f5361666545524332303a206c6f772d6c6576656c2063616c6c206661696c6564815250856001600160a01b03166148c29092919063ffffffff16565b805190915015611db55780806020019051602081101561465e57600080fd5b5051611db55760405162461bcd60e51b815260040180806020018281038252602a815260200180615a28602a913960400191505060405180910390fd5b633b9aca000290565b604080516001600160a01b0380861660248301528416604482015260648082018490528251808303909101815260849091019091526020810180517bffffffffffffffffffffffffffffffffffffffffffffffffffffffff167f23b872dd0000000000000000000000000000000000000000000000000000000017905261472c9085906145ea565b50505050565b815460009082106147745760405162461bcd60e51b81526004018080602001828103825260228152602001806159166022913960400191505060405180910390fd5b82600001828154811061478357fe5b9060005260206000200154905092915050565b60009081526001919091016020526040902054151590565b5490565b60006147be8383614796565b6147f457508154600181810184556000848152602080822090930184905584548482528286019093526040902091909155611121565b506000611121565b600081815260018301602052604081205480156148b8578354600019808301919081019060009087908390811061482f57fe5b906000526020600020015490508087600001848154811061484c57fe5b60009182526020808320909101929092558281526001898101909252604090209084019055865487908061487c57fe5b60019003818190600052602060002001600090559055866001016000878152602001908152602001600020600090556001945050505050611121565b6000915050611121565b60606148d184846000856148d9565b949350505050565b60608247101561491a5760405162461bcd60e51b81526004018080602001828103825260268152602001806159b16026913960400191505060405180910390fd5b61492385614a34565b614974576040805162461bcd60e51b815260206004820152601d60248201527f416464726573733a2063616c6c20746f206e6f6e2d636f6e7472616374000000604482015290519081900360640190fd5b600080866001600160a01b031685876040518082805190602001908083835b602083106149b25780518252601f199092019160209182019101614993565b6001836020036101000a03801982511681845116808217855250505050505090500191505060006040518083038185875af1925050503d8060008114614a14576040519150601f19603f3d011682016040523d82523d6000602084013e614a19565b606091505b5091509150614a29828286614a3a565b979650505050505050565b3b151590565b60608315614a49575081611ffb565b825115614a595782518084602001fd5b60405162461bcd60e51b81526020600482018181528451602484015284518593919283926044019190850190808383600083156145155781810151838201526020016144fd565b80356001600160a01b0381168114610ed657600080fd5b806040810183101561112157600080fd5b806080810183101561112157600080fd5b80610100810183101561112157600080fd5b60008083601f840112614afc578182fd5b50813567ffffffffffffffff811115614b13578182fd5b6020830191508360208083028501011115614b2d57600080fd5b9250929050565b600060208284031215614b45578081fd5b611ffb82614aa0565b60008060408385031215614b60578081fd5b614b6983614aa0565b946020939093013593505050565b60008060808385031215614b89578182fd5b614b938484614ab7565b9150614ba28460408501614ab7565b90509250929050565b6000806101008385031215614bbe578182fd5b614bc88484614ac8565b9150614ba28460808501614ac8565b6000806000806000806000610300888a031215614bf2578283fd5b614bfc8989614ad9565b96506101c0880189811115614c0f578384fd5b61010089019650614c208a82614ad9565b9550506102c088013567ffffffffffffffff80821115614c3e578485fd5b614c4a8b838c01614aeb565b90965094506102e08a0135915080821115614c63578384fd5b50614c708a828b01614aeb565b989b979a50959850939692959293505050565b600060208284031215614c94578081fd5b81518015158114611ffb578182fd5b600060208284031215614cb4578081fd5b5035919050565b60008060408385031215614ccd578182fd5b82359150614ba260208401614aa0565b60008060408385031215614cef578182fd5b50508035926020909101359150565b60006020808385031215614d10578182fd5b823567ffffffffffffffff80821115614d27578384fd5b818501915085601f830112614d3a578384fd5b813581811115614d4657fe5b604051601f8201601f1916810185018381118282101715614d6357fe5b6040528181528382018501881015614d79578586fd5b818585018683013790810190930193909352509392505050565b600060208284031215614da4578081fd5b5051919050565b600080600080600060608688031215614dc2578081fd5b85359450602086013567ffffffffffffffff80821115614de0578283fd5b614dec89838a01614aeb565b90965094506040880135915080821115614e04578283fd5b50614e1188828901614aeb565b969995985093965092949392505050565b60008060008060808587031215614e37578182fd5b5050823594602084013594506040840135936060013592509050565b6001600160a01b0391909116815260200190565b6001600160a01b0392831681529116602082015260400190565b6001600160a01b03929092168252602082015260400190565b901515815260200190565b92151583526020830191909152604082015260600190565b931515845260208401929092526040830152606082015260800190565b90815260200190565b6020808252818101527f5075626c696353616c653a20646f6e74206861766520726566756e6420746f6e604082015260600190565b6020808252601d908201527f5075626c696353616c653a206e65656420746f206d6f72652073544f53000000604082015260600190565b6020808252602d908201527f5075626c696353616c653a206578636c7573697665537461727454696d65206860408201526c185cc81b9bdd081c185cdcd959609a1b606082015260800190565b6020808252600e908201527f6e656564206d6f72652077746f6e000000000000000000000000000000000000604082015260600190565b60208082526021908201527f5075626c696353616c653a20656e64207468652077686974656c69737454696d6040820152606560f81b606082015260800190565b60208082526027908201527f5075626c696353616c653a206e65656420746f20656e6420746865206465706f60408201527f73697454696d6500000000000000000000000000000000000000000000000000606082015260800190565b6020808252818101527f5075626c696353616c65203a20526f756e643174696d655365742077726f6e67604082015260600190565b6020808252602c908201527f5075626c696353616c653a206a757374206275792074696572277320616c6c6f60408201527f636174656420616d6f756e740000000000000000000000000000000000000000606082015260800190565b60208082526026908201527f5075626c696353616c653a20646f6e277420657869737420776974686472617760408201527f416d6f756e740000000000000000000000000000000000000000000000000000606082015260800190565b60208082526021908201527f5075626c696353616c653a20646f6e277420737461727420636c61696d54696d6040820152606560f81b606082015260800190565b60208082526029908201527f5075626c696353616c653a20616c72656164792061646d696e2063616c6c656460408201527f2077697468647261770000000000000000000000000000000000000000000000606082015260800190565b60208082526021908201527f5075626c696353616c653a20656e6420746865206578636c757369766554696d6040820152606560f81b606082015260800190565b6020808252601d908201527f5075626c696353616c653a206e65656420746f2073657420357e313025000000604082015260600190565b6020808252601e908201527f5075626c696353616c653a206e6f20707572636861736520616d6f756e740000604082015260600190565b60208082526029908201527f5075626c696353616c653a2077746f6e20616d6f756e7420657863656564732060408201527f616c6c6f77616e63650000000000000000000000000000000000000000000000606082015260800190565b6020808252818101527f5075626c696353616c653a20616c726561647920676574416c6c726577617264604082015260600190565b6020808252601f908201527f5075626c696353616c653a2053756d2073686f756c6420626520313030303000604082015260600190565b60208082526018908201527f5075626c696353616c653a207a65726f20616464726573730000000000000000604082015260600190565b6020808252601f908201527f7468652070657263656e74732073756d20617265206e65656465642031303000604082015260600190565b60208082526027908201527f5075626c696353616c653a206e6f74207265676973746572656420696e20776860408201527f6974656c69737400000000000000000000000000000000000000000000000000606082015260800190565b6020808252601c908201527f5075626c696353616c653a2074696d652076616c7565206572726f7200000000604082015260600190565b6020808252601f908201527f5075626c696353616c653a20656e6420746865206465706f73697454696d6500604082015260600190565b6020808252601f908201527f5075626c696353616c653a206e6f20746f6b656e20746f207265636569766500604082015260600190565b6020808252601d908201527f5075626c696353616c653a20616c726561647920676574526566756e64000000604082015260600190565b60208082526015908201527f5075626c696353616c653a206e6f207265776172640000000000000000000000604082015260600190565b60208082526027908201527f5075626c696353616c653a20646f6e7420686176652073616c65546f6b656e2060408201527f696e20706f6f6c00000000000000000000000000000000000000000000000000606082015260800190565b60208082526028908201527f5075626c696353616c653a20746f6e20616d6f756e742065786365656473206160408201527f6c6c6f77616e6365000000000000000000000000000000000000000000000000606082015260800190565b60208082526010908201527f5075626c696353616c653a207a65726f00000000000000000000000000000000604082015260600190565b6020808252818101527f5075626c696353616c65203a20526f756e643274696d655365742077726f6e67604082015260600190565b60208082526022908201527f5075626c696353616c653a206e6f20776974686472617761626c6520616d6f7560408201527f6e74000000000000000000000000000000000000000000000000000000000000606082015260800190565b60208082526022908201527f5075626c696353616c653a20646f6e277420706173732074686520686172644360408201527f6170000000000000000000000000000000000000000000000000000000000000606082015260800190565b60208082526023908201527f5075626c696353616c653a20646f6e2774207374617274206465706f7369745460408201527f696d650000000000000000000000000000000000000000000000000000000000606082015260800190565b6020808252601c908201527f5075626c696353616c653a20616c726561647920617474656e64656400000000604082015260600190565b60208082526027908201527f5075626c696353616c653a206e6f74206265666f72655374617274416464576860408201527f69746554696d6500000000000000000000000000000000000000000000000000606082015260800190565b6020808252602d908201527f5075626c696353616c653a2077686974656c697374537461727454696d65206860408201526c185cc81b9bdd081c185cdcd959609a1b606082015260800190565b6000610100820190506001600160a01b0380845116835280602085015116602084015262ffffff60408501511660408401528060608501511660608401526080840151608084015260a084015160a084015260c084015160c08401528060e08501511660e08401525092915050565b62ffffff91909116815260200190565b918252602082015260400190565b928352602083019190915260408201526060019056fe456e756d657261626c655365743a20696e646578206f7574206f6620626f756e6473416363657373436f6e74726f6c3a2073656e646572206d75737420626520616e2061646d696e20746f206772616e7441636365737369626c653a2043616c6c6572206973206e6f7420616e2061646d696e41636365737369626c653a2043616c6c6572206973206e6f7420616e2070726f78792061646d696e416464726573733a20696e73756666696369656e742062616c616e636520666f722063616c6c416363657373436f6e74726f6c3a2073656e646572206d75737420626520616e2061646d696e20746f207265766f6b65536166654d6174683a206d756c7469706c69636174696f6e206f766572666c6f775361666545524332303a204552433230206f7065726174696f6e20646964206e6f742073756363656564416363657373436f6e74726f6c3a2063616e206f6e6c792072656e6f756e636520726f6c657320666f722073656c66a2646970667358221220e488ae1a6da3e9afd7338c5a8d6cf888e913faec5018cad386213befffd15ef864736f6c63430007060033",
  "linkReferences": {},
  "deployedLinkReferences": {}
}