{
  "_format": "hh-sol-artifact-1",
  "contractName": "PublicSale",
  "sourceName": "contracts/sale/PublicSale.sol",
  "abi": [
    {
      "anonymous": false,
      "inputs": [
        {
          "indexed": true,
          "internalType": "address",
          "name": "from",
          "type": "address"
        },
        {
          "indexed": false,
          "internalType": "uint256",
          "name": "tier",
          "type": "uint256"
        }
      ],
      "name": "AddedWhiteList",
      "type": "event"
    },
    {
      "anonymous": false,
      "inputs": [
        {
          "indexed": true,
          "internalType": "address",
          "name": "from",
          "type": "address"
        },
        {
          "indexed": false,
          "internalType": "uint256",
          "name": "amount",
          "type": "uint256"
        }
      ],
      "name": "Claimed",
      "type": "event"
    },
    {
      "anonymous": false,
      "inputs": [
        {
          "indexed": true,
          "internalType": "address",
          "name": "from",
          "type": "address"
        },
        {
          "indexed": false,
          "internalType": "uint256",
          "name": "amount",
          "type": "uint256"
        }
      ],
      "name": "DepositWithdrawal",
      "type": "event"
    },
    {
      "anonymous": false,
      "inputs": [
        {
          "indexed": true,
          "internalType": "address",
          "name": "from",
          "type": "address"
        },
        {
          "indexed": false,
          "internalType": "uint256",
          "name": "amount",
          "type": "uint256"
        }
      ],
      "name": "Deposited",
      "type": "event"
    },
    {
      "anonymous": false,
      "inputs": [
        {
          "indexed": true,
          "internalType": "address",
          "name": "from",
          "type": "address"
        },
        {
          "indexed": false,
          "internalType": "uint256",
          "name": "amount",
          "type": "uint256"
        }
      ],
      "name": "ExclusiveSaled",
      "type": "event"
    },
    {
      "anonymous": false,
      "inputs": [
        {
          "indexed": true,
          "internalType": "bytes32",
          "name": "role",
          "type": "bytes32"
        },
        {
          "indexed": true,
          "internalType": "bytes32",
          "name": "previousAdminRole",
          "type": "bytes32"
        },
        {
          "indexed": true,
          "internalType": "bytes32",
          "name": "newAdminRole",
          "type": "bytes32"
        }
      ],
      "name": "RoleAdminChanged",
      "type": "event"
    },
    {
      "anonymous": false,
      "inputs": [
        {
          "indexed": true,
          "internalType": "bytes32",
          "name": "role",
          "type": "bytes32"
        },
        {
          "indexed": true,
          "internalType": "address",
          "name": "account",
          "type": "address"
        },
        {
          "indexed": true,
          "internalType": "address",
          "name": "sender",
          "type": "address"
        }
      ],
      "name": "RoleGranted",
      "type": "event"
    },
    {
      "anonymous": false,
      "inputs": [
        {
          "indexed": true,
          "internalType": "bytes32",
          "name": "role",
          "type": "bytes32"
        },
        {
          "indexed": true,
          "internalType": "address",
          "name": "account",
          "type": "address"
        },
        {
          "indexed": true,
          "internalType": "address",
          "name": "sender",
          "type": "address"
        }
      ],
      "name": "RoleRevoked",
      "type": "event"
    },
    {
      "anonymous": false,
      "inputs": [
        {
          "indexed": true,
          "internalType": "address",
          "name": "from",
          "type": "address"
        },
        {
          "indexed": false,
          "internalType": "uint256",
          "name": "amount",
          "type": "uint256"
        }
      ],
      "name": "Withdrawal",
      "type": "event"
    },
    {
      "inputs": [],
      "name": "ADMIN_ROLE",
      "outputs": [
        {
          "internalType": "bytes32",
          "name": "",
          "type": "bytes32"
        }
      ],
      "stateMutability": "view",
      "type": "function"
    },
    {
      "inputs": [],
      "name": "BURNER_ROLE",
      "outputs": [
        {
          "internalType": "bytes32",
          "name": "",
          "type": "bytes32"
        }
      ],
      "stateMutability": "view",
      "type": "function"
    },
    {
      "inputs": [],
      "name": "DEFAULT_ADMIN_ROLE",
      "outputs": [
        {
          "internalType": "bytes32",
          "name": "",
          "type": "bytes32"
        }
      ],
      "stateMutability": "view",
      "type": "function"
    },
    {
      "inputs": [],
      "name": "MINTER_ROLE",
      "outputs": [
        {
          "internalType": "bytes32",
          "name": "",
          "type": "bytes32"
        }
      ],
      "stateMutability": "view",
      "type": "function"
    },
    {
      "inputs": [
        {
          "internalType": "address",
          "name": "account",
          "type": "address"
        }
      ],
      "name": "addAdmin",
      "outputs": [],
      "stateMutability": "nonpayable",
      "type": "function"
    },
    {
      "inputs": [],
      "name": "addWhiteList",
      "outputs": [],
      "stateMutability": "nonpayable",
      "type": "function"
    },
    {
      "inputs": [],
      "name": "adminWithdraw",
      "outputs": [
        {
          "internalType": "bool",
          "name": "",
          "type": "bool"
        }
      ],
      "stateMutability": "view",
      "type": "function"
    },
    {
      "inputs": [
        {
          "internalType": "address",
          "name": "_account",
          "type": "address"
        },
        {
          "internalType": "uint256",
          "name": "_period",
          "type": "uint256"
        }
      ],
      "name": "calculClaimAmount",
      "outputs": [
        {
          "internalType": "uint256",
          "name": "_reward",
          "type": "uint256"
        },
        {
          "internalType": "uint256",
          "name": "_totalClaim",
          "type": "uint256"
        }
      ],
      "stateMutability": "view",
      "type": "function"
    },
    {
      "inputs": [
        {
          "internalType": "address",
          "name": "_account",
          "type": "address"
        },
        {
          "internalType": "uint256",
          "name": "_amount",
          "type": "uint256"
        }
      ],
      "name": "calculOpenSaleAmount",
      "outputs": [
        {
          "internalType": "uint256",
          "name": "",
          "type": "uint256"
        }
      ],
      "stateMutability": "view",
      "type": "function"
    },
    {
      "inputs": [
        {
          "internalType": "uint256",
          "name": "_amount",
          "type": "uint256"
        }
      ],
      "name": "calculPayToken",
      "outputs": [
        {
          "internalType": "uint256",
          "name": "",
          "type": "uint256"
        }
      ],
      "stateMutability": "view",
      "type": "function"
    },
    {
      "inputs": [
        {
          "internalType": "uint256",
          "name": "_amount",
          "type": "uint256"
        }
      ],
      "name": "calculSaleToken",
      "outputs": [
        {
          "internalType": "uint256",
          "name": "",
          "type": "uint256"
        }
      ],
      "stateMutability": "view",
      "type": "function"
    },
    {
      "inputs": [
        {
          "internalType": "address",
          "name": "_address",
          "type": "address"
        }
      ],
      "name": "calculTier",
      "outputs": [
        {
          "internalType": "uint256",
          "name": "",
          "type": "uint256"
        }
      ],
      "stateMutability": "view",
      "type": "function"
    },
    {
      "inputs": [
        {
          "internalType": "address",
          "name": "_address",
          "type": "address"
        }
      ],
      "name": "calculTierAmount",
      "outputs": [
        {
          "internalType": "uint256",
          "name": "",
          "type": "uint256"
        }
      ],
      "stateMutability": "view",
      "type": "function"
    },
    {
      "inputs": [
        {
          "internalType": "address",
          "name": "_address",
          "type": "address"
        }
      ],
      "name": "changeTONOwner",
      "outputs": [],
      "stateMutability": "nonpayable",
      "type": "function"
    },
    {
      "inputs": [],
      "name": "claim",
      "outputs": [],
      "stateMutability": "nonpayable",
      "type": "function"
    },
    {
      "inputs": [],
      "name": "claimFirst",
      "outputs": [
        {
          "internalType": "uint256",
          "name": "",
          "type": "uint256"
        }
      ],
      "stateMutability": "view",
      "type": "function"
    },
    {
      "inputs": [],
      "name": "claimInterval",
      "outputs": [
        {
          "internalType": "uint256",
          "name": "",
          "type": "uint256"
        }
      ],
      "stateMutability": "view",
      "type": "function"
    },
    {
      "inputs": [],
      "name": "claimPeriod",
      "outputs": [
        {
          "internalType": "uint256",
          "name": "",
          "type": "uint256"
        }
      ],
      "stateMutability": "view",
      "type": "function"
    },
    {
      "inputs": [
        {
          "internalType": "uint256",
          "name": "_amount",
          "type": "uint256"
        }
      ],
      "name": "deposit",
      "outputs": [],
      "stateMutability": "nonpayable",
      "type": "function"
    },
    {
      "inputs": [],
      "name": "depositWithdraw",
      "outputs": [],
      "stateMutability": "nonpayable",
      "type": "function"
    },
    {
      "inputs": [
        {
          "internalType": "uint256",
          "name": "",
          "type": "uint256"
        }
      ],
      "name": "depositors",
      "outputs": [
        {
          "internalType": "address",
          "name": "",
          "type": "address"
        }
      ],
      "stateMutability": "view",
      "type": "function"
    },
    {
      "inputs": [],
      "name": "endAddWhiteTime",
      "outputs": [
        {
          "internalType": "uint256",
          "name": "",
          "type": "uint256"
        }
      ],
      "stateMutability": "view",
      "type": "function"
    },
    {
      "inputs": [],
      "name": "endDepositTime",
      "outputs": [
        {
          "internalType": "uint256",
          "name": "",
          "type": "uint256"
        }
      ],
      "stateMutability": "view",
      "type": "function"
    },
    {
      "inputs": [],
      "name": "endExclusiveTime",
      "outputs": [
        {
          "internalType": "uint256",
          "name": "",
          "type": "uint256"
        }
      ],
      "stateMutability": "view",
      "type": "function"
    },
    {
      "inputs": [
        {
          "internalType": "uint256",
          "name": "_amount",
          "type": "uint256"
        }
      ],
      "name": "exclusiveSale",
      "outputs": [],
      "stateMutability": "nonpayable",
      "type": "function"
    },
    {
      "inputs": [
        {
          "internalType": "bytes32",
          "name": "role",
          "type": "bytes32"
        }
      ],
      "name": "getRoleAdmin",
      "outputs": [
        {
          "internalType": "bytes32",
          "name": "",
          "type": "bytes32"
        }
      ],
      "stateMutability": "view",
      "type": "function"
    },
    {
      "inputs": [
        {
          "internalType": "bytes32",
          "name": "role",
          "type": "bytes32"
        },
        {
          "internalType": "uint256",
          "name": "index",
          "type": "uint256"
        }
      ],
      "name": "getRoleMember",
      "outputs": [
        {
          "internalType": "address",
          "name": "",
          "type": "address"
        }
      ],
      "stateMutability": "view",
      "type": "function"
    },
    {
      "inputs": [
        {
          "internalType": "bytes32",
          "name": "role",
          "type": "bytes32"
        }
      ],
      "name": "getRoleMemberCount",
      "outputs": [
        {
          "internalType": "uint256",
          "name": "",
          "type": "uint256"
        }
      ],
      "stateMutability": "view",
      "type": "function"
    },
    {
      "inputs": [],
      "name": "getToken",
      "outputs": [
        {
          "internalType": "contract IERC20",
          "name": "",
          "type": "address"
        }
      ],
      "stateMutability": "view",
      "type": "function"
    },
    {
      "inputs": [],
      "name": "getTokenOwner",
      "outputs": [
        {
          "internalType": "address",
          "name": "",
          "type": "address"
        }
      ],
      "stateMutability": "view",
      "type": "function"
    },
    {
      "inputs": [
        {
          "internalType": "bytes32",
          "name": "role",
          "type": "bytes32"
        },
        {
          "internalType": "address",
          "name": "account",
          "type": "address"
        }
      ],
      "name": "grantRole",
      "outputs": [],
      "stateMutability": "nonpayable",
      "type": "function"
    },
    {
      "inputs": [
        {
          "internalType": "bytes32",
          "name": "role",
          "type": "bytes32"
        },
        {
          "internalType": "address",
          "name": "account",
          "type": "address"
        }
      ],
      "name": "hasRole",
      "outputs": [
        {
          "internalType": "bool",
          "name": "",
          "type": "bool"
        }
      ],
      "stateMutability": "view",
      "type": "function"
    },
    {
      "inputs": [
        {
          "internalType": "address",
          "name": "account",
          "type": "address"
        }
      ],
      "name": "isAdmin",
      "outputs": [
        {
          "internalType": "bool",
          "name": "",
          "type": "bool"
        }
      ],
      "stateMutability": "view",
      "type": "function"
    },
    {
      "inputs": [
        {
          "internalType": "address",
          "name": "user",
          "type": "address"
        }
      ],
      "name": "openSaleUserAmount",
      "outputs": [
        {
          "internalType": "uint256",
          "name": "_realPayAmount",
          "type": "uint256"
        },
        {
          "internalType": "uint256",
          "name": "_realSaleAmount",
          "type": "uint256"
        },
        {
          "internalType": "uint256",
          "name": "_refundAmount",
          "type": "uint256"
        }
      ],
      "stateMutability": "view",
      "type": "function"
    },
    {
      "inputs": [],
      "name": "pauseProxy",
      "outputs": [
        {
          "internalType": "bool",
          "name": "",
          "type": "bool"
        }
      ],
      "stateMutability": "view",
      "type": "function"
    },
    {
      "inputs": [],
      "name": "payTokenPrice",
      "outputs": [
        {
          "internalType": "uint256",
          "name": "",
          "type": "uint256"
        }
      ],
      "stateMutability": "view",
      "type": "function"
    },
    {
      "inputs": [
        {
          "internalType": "address",
          "name": "account",
          "type": "address"
        }
      ],
      "name": "removeAdmin",
      "outputs": [],
      "stateMutability": "nonpayable",
      "type": "function"
    },
    {
      "inputs": [
        {
          "internalType": "bytes32",
          "name": "role",
          "type": "bytes32"
        },
        {
          "internalType": "address",
          "name": "account",
          "type": "address"
        }
      ],
      "name": "renounceRole",
      "outputs": [],
      "stateMutability": "nonpayable",
      "type": "function"
    },
    {
      "inputs": [],
      "name": "resetAllData",
      "outputs": [],
      "stateMutability": "nonpayable",
      "type": "function"
    },
    {
      "inputs": [
        {
          "internalType": "bytes32",
          "name": "role",
          "type": "bytes32"
        },
        {
          "internalType": "address",
          "name": "account",
          "type": "address"
        }
      ],
      "name": "revokeRole",
      "outputs": [],
      "stateMutability": "nonpayable",
      "type": "function"
    },
    {
      "inputs": [],
      "name": "sTOS",
      "outputs": [
        {
          "internalType": "contract ILockTOS",
          "name": "",
          "type": "address"
        }
      ],
      "stateMutability": "view",
      "type": "function"
    },
    {
      "inputs": [],
      "name": "saleToken",
      "outputs": [
        {
          "internalType": "contract IERC20",
          "name": "",
          "type": "address"
        }
      ],
      "stateMutability": "view",
      "type": "function"
    },
    {
      "inputs": [],
      "name": "saleTokenPrice",
      "outputs": [
        {
          "internalType": "uint256",
          "name": "",
          "type": "uint256"
        }
      ],
      "stateMutability": "view",
      "type": "function"
    },
    {
      "inputs": [
        {
          "internalType": "uint256[2]",
          "name": "_expectAmount",
          "type": "uint256[2]"
        },
        {
          "internalType": "uint256[2]",
          "name": "_priceAmount",
          "type": "uint256[2]"
        }
      ],
      "name": "setAllAmount",
      "outputs": [],
      "stateMutability": "nonpayable",
      "type": "function"
    },
    {
      "inputs": [
        {
          "internalType": "uint256[4]",
          "name": "_tier",
          "type": "uint256[4]"
        },
        {
          "internalType": "uint256[4]",
          "name": "_tierPercent",
          "type": "uint256[4]"
        }
      ],
      "name": "setAllTier",
      "outputs": [],
      "stateMutability": "nonpayable",
      "type": "function"
    },
    {
      "inputs": [
        {
          "internalType": "uint256",
          "name": "_snapshot",
          "type": "uint256"
        },
        {
          "internalType": "uint256[4]",
          "name": "_exclusiveTime",
          "type": "uint256[4]"
        },
        {
          "internalType": "uint256[2]",
          "name": "_openSaleTime",
          "type": "uint256[2]"
        },
        {
          "internalType": "uint256[4]",
          "name": "_claimTime",
          "type": "uint256[4]"
        }
      ],
      "name": "setAllValue",
      "outputs": [],
      "stateMutability": "nonpayable",
      "type": "function"
    },
    {
      "inputs": [
        {
          "internalType": "uint256",
          "name": "_startClaimTime",
          "type": "uint256"
        },
        {
          "internalType": "uint256",
          "name": "_claimInterval",
          "type": "uint256"
        },
        {
          "internalType": "uint256",
          "name": "_claimPeriod",
          "type": "uint256"
        },
        {
          "internalType": "uint256",
          "name": "_claimFirst",
          "type": "uint256"
        }
      ],
      "name": "setClaim",
      "outputs": [],
      "stateMutability": "nonpayable",
      "type": "function"
    },
    {
      "inputs": [
        {
          "internalType": "uint256",
          "name": "_startAddWhiteTime",
          "type": "uint256"
        },
        {
          "internalType": "uint256",
          "name": "_endAddWhiteTime",
          "type": "uint256"
        },
        {
          "internalType": "uint256",
          "name": "_startExclusiveTime",
          "type": "uint256"
        },
        {
          "internalType": "uint256",
          "name": "_endExclusiveTime",
          "type": "uint256"
        }
      ],
      "name": "setExclusiveTime",
      "outputs": [],
      "stateMutability": "nonpayable",
      "type": "function"
    },
    {
      "inputs": [
        {
          "internalType": "uint256",
          "name": "_startDepositTime",
          "type": "uint256"
        },
        {
          "internalType": "uint256",
          "name": "_endDepositTime",
          "type": "uint256"
        }
      ],
      "name": "setOpenTime",
      "outputs": [],
      "stateMutability": "nonpayable",
      "type": "function"
    },
    {
      "inputs": [
        {
          "internalType": "uint256",
          "name": "_totalExpectSaleAmount",
          "type": "uint256"
        },
        {
          "internalType": "uint256",
          "name": "_totalExpectOpenSaleAmount",
          "type": "uint256"
        }
      ],
      "name": "setSaleAmount",
      "outputs": [],
      "stateMutability": "nonpayable",
      "type": "function"
    },
    {
      "inputs": [
        {
          "internalType": "uint256",
          "name": "_snapshot",
          "type": "uint256"
        }
      ],
      "name": "setSnapshot",
      "outputs": [],
      "stateMutability": "nonpayable",
      "type": "function"
    },
    {
      "inputs": [
        {
          "internalType": "uint256",
          "name": "_tier1",
          "type": "uint256"
        },
        {
          "internalType": "uint256",
          "name": "_tier2",
          "type": "uint256"
        },
        {
          "internalType": "uint256",
          "name": "_tier3",
          "type": "uint256"
        },
        {
          "internalType": "uint256",
          "name": "_tier4",
          "type": "uint256"
        }
      ],
      "name": "setTier",
      "outputs": [],
      "stateMutability": "nonpayable",
      "type": "function"
    },
    {
      "inputs": [
        {
          "internalType": "uint256",
          "name": "_tier1",
          "type": "uint256"
        },
        {
          "internalType": "uint256",
          "name": "_tier2",
          "type": "uint256"
        },
        {
          "internalType": "uint256",
          "name": "_tier3",
          "type": "uint256"
        },
        {
          "internalType": "uint256",
          "name": "_tier4",
          "type": "uint256"
        }
      ],
      "name": "setTierPercents",
      "outputs": [],
      "stateMutability": "nonpayable",
      "type": "function"
    },
    {
      "inputs": [
        {
          "internalType": "uint256",
          "name": "_saleTokenPrice",
          "type": "uint256"
        },
        {
          "internalType": "uint256",
          "name": "_payTokenPrice",
          "type": "uint256"
        }
      ],
      "name": "setTokenPrice",
      "outputs": [],
      "stateMutability": "nonpayable",
      "type": "function"
    },
    {
      "inputs": [],
      "name": "snapshot",
      "outputs": [
        {
          "internalType": "uint256",
          "name": "",
          "type": "uint256"
        }
      ],
      "stateMutability": "view",
      "type": "function"
    },
    {
      "inputs": [],
      "name": "startAddWhiteTime",
      "outputs": [
        {
          "internalType": "uint256",
          "name": "",
          "type": "uint256"
        }
      ],
      "stateMutability": "view",
      "type": "function"
    },
    {
      "inputs": [],
      "name": "startClaimTime",
      "outputs": [
        {
          "internalType": "uint256",
          "name": "",
          "type": "uint256"
        }
      ],
      "stateMutability": "view",
      "type": "function"
    },
    {
      "inputs": [],
      "name": "startDepositTime",
      "outputs": [
        {
          "internalType": "uint256",
          "name": "",
          "type": "uint256"
        }
      ],
      "stateMutability": "view",
      "type": "function"
    },
    {
      "inputs": [],
      "name": "startExclusiveTime",
      "outputs": [
        {
          "internalType": "uint256",
          "name": "",
          "type": "uint256"
        }
      ],
      "stateMutability": "view",
      "type": "function"
    },
    {
      "inputs": [
        {
          "internalType": "uint256",
          "name": "",
          "type": "uint256"
        }
      ],
      "name": "tiers",
      "outputs": [
        {
          "internalType": "uint256",
          "name": "",
          "type": "uint256"
        }
      ],
      "stateMutability": "view",
      "type": "function"
    },
    {
      "inputs": [
        {
          "internalType": "uint256",
          "name": "",
          "type": "uint256"
        }
      ],
      "name": "tiersAccount",
      "outputs": [
        {
          "internalType": "uint256",
          "name": "",
          "type": "uint256"
        }
      ],
      "stateMutability": "view",
      "type": "function"
    },
    {
      "inputs": [
        {
          "internalType": "uint256",
          "name": "",
          "type": "uint256"
        }
      ],
      "name": "tiersExAccount",
      "outputs": [
        {
          "internalType": "uint256",
          "name": "",
          "type": "uint256"
        }
      ],
      "stateMutability": "view",
      "type": "function"
    },
    {
      "inputs": [
        {
          "internalType": "uint256",
          "name": "",
          "type": "uint256"
        }
      ],
      "name": "tiersPercents",
      "outputs": [
        {
          "internalType": "uint256",
          "name": "",
          "type": "uint256"
        }
      ],
      "stateMutability": "view",
      "type": "function"
    },
    {
      "inputs": [],
      "name": "totalDepositAmount",
      "outputs": [
        {
          "internalType": "uint256",
          "name": "",
          "type": "uint256"
        }
      ],
      "stateMutability": "view",
      "type": "function"
    },
    {
      "inputs": [],
      "name": "totalExPurchasedAmount",
      "outputs": [
        {
          "internalType": "uint256",
          "name": "",
          "type": "uint256"
        }
      ],
      "stateMutability": "view",
      "type": "function"
    },
    {
      "inputs": [],
      "name": "totalExSaleAmount",
      "outputs": [
        {
          "internalType": "uint256",
          "name": "",
          "type": "uint256"
        }
      ],
      "stateMutability": "view",
      "type": "function"
    },
    {
      "inputs": [],
      "name": "totalExpectOpenSaleAmount",
      "outputs": [
        {
          "internalType": "uint256",
          "name": "",
          "type": "uint256"
        }
      ],
      "stateMutability": "view",
      "type": "function"
    },
    {
      "inputs": [],
      "name": "totalExpectOpenSaleAmountView",
      "outputs": [
        {
          "internalType": "uint256",
          "name": "",
          "type": "uint256"
        }
      ],
      "stateMutability": "view",
      "type": "function"
    },
    {
      "inputs": [],
      "name": "totalExpectSaleAmount",
      "outputs": [
        {
          "internalType": "uint256",
          "name": "",
          "type": "uint256"
        }
      ],
      "stateMutability": "view",
      "type": "function"
    },
    {
      "inputs": [],
      "name": "totalOpenPurchasedAmount",
      "outputs": [
        {
          "internalType": "uint256",
          "name": "",
          "type": "uint256"
        }
      ],
      "stateMutability": "view",
      "type": "function"
    },
    {
      "inputs": [],
      "name": "totalOpenSaleAmount",
      "outputs": [
        {
          "internalType": "uint256",
          "name": "",
          "type": "uint256"
        }
      ],
      "stateMutability": "view",
      "type": "function"
    },
    {
      "inputs": [],
      "name": "totalRound1NonSaleAmount",
      "outputs": [
        {
          "internalType": "uint256",
          "name": "",
          "type": "uint256"
        }
      ],
      "stateMutability": "view",
      "type": "function"
    },
    {
      "inputs": [],
      "name": "totalRound1Users",
      "outputs": [
        {
          "internalType": "uint256",
          "name": "",
          "type": "uint256"
        }
      ],
      "stateMutability": "view",
      "type": "function"
    },
    {
      "inputs": [],
      "name": "totalRound2Users",
      "outputs": [
        {
          "internalType": "uint256",
          "name": "",
          "type": "uint256"
        }
      ],
      "stateMutability": "view",
      "type": "function"
    },
    {
      "inputs": [],
      "name": "totalRound2UsersClaim",
      "outputs": [
        {
          "internalType": "uint256",
          "name": "",
          "type": "uint256"
        }
      ],
      "stateMutability": "view",
      "type": "function"
    },
    {
      "inputs": [
        {
          "internalType": "address",
          "name": "user",
          "type": "address"
        }
      ],
      "name": "totalSaleUserAmount",
      "outputs": [
        {
          "internalType": "uint256",
          "name": "_realPayAmount",
          "type": "uint256"
        },
        {
          "internalType": "uint256",
          "name": "_realSaleAmount",
          "type": "uint256"
        },
        {
          "internalType": "uint256",
          "name": "_refundAmount",
          "type": "uint256"
        }
      ],
      "stateMutability": "view",
      "type": "function"
    },
    {
      "inputs": [],
      "name": "totalUsers",
      "outputs": [
        {
          "internalType": "uint256",
          "name": "",
          "type": "uint256"
        }
      ],
      "stateMutability": "view",
      "type": "function"
    },
    {
      "inputs": [],
      "name": "totalWhitelists",
      "outputs": [
        {
          "internalType": "uint256",
          "name": "",
          "type": "uint256"
        }
      ],
      "stateMutability": "view",
      "type": "function"
    },
    {
      "inputs": [
        {
          "internalType": "address",
          "name": "newAdmin",
          "type": "address"
        }
      ],
      "name": "transferAdmin",
      "outputs": [],
      "stateMutability": "nonpayable",
      "type": "function"
    },
    {
      "inputs": [
        {
          "internalType": "address",
          "name": "",
          "type": "address"
        }
      ],
      "name": "usersClaim",
      "outputs": [
        {
          "internalType": "bool",
          "name": "exec",
          "type": "bool"
        },
        {
          "internalType": "uint256",
          "name": "claimAmount",
          "type": "uint256"
        },
        {
          "internalType": "uint256",
          "name": "refundAmount",
          "type": "uint256"
        }
      ],
      "stateMutability": "view",
      "type": "function"
    },
    {
      "inputs": [
        {
          "internalType": "address",
          "name": "",
          "type": "address"
        }
      ],
      "name": "usersEx",
      "outputs": [
        {
          "internalType": "bool",
          "name": "join",
          "type": "bool"
        },
        {
          "internalType": "uint256",
          "name": "tier",
          "type": "uint256"
        },
        {
          "internalType": "uint256",
          "name": "payAmount",
          "type": "uint256"
        },
        {
          "internalType": "uint256",
          "name": "saleAmount",
          "type": "uint256"
        }
      ],
      "stateMutability": "view",
      "type": "function"
    },
    {
      "inputs": [
        {
          "internalType": "address",
          "name": "",
          "type": "address"
        }
      ],
      "name": "usersOpen",
      "outputs": [
        {
          "internalType": "bool",
          "name": "join",
          "type": "bool"
        },
        {
          "internalType": "uint256",
          "name": "depositAmount",
          "type": "uint256"
        },
        {
          "internalType": "uint256",
          "name": "payAmount",
          "type": "uint256"
        },
        {
          "internalType": "uint256",
          "name": "saleAmount",
          "type": "uint256"
        }
      ],
      "stateMutability": "view",
      "type": "function"
    },
    {
      "inputs": [
        {
          "internalType": "uint256",
          "name": "",
          "type": "uint256"
        }
      ],
      "name": "whitelists",
      "outputs": [
        {
          "internalType": "address",
          "name": "",
          "type": "address"
        }
      ],
      "stateMutability": "view",
      "type": "function"
    },
    {
      "inputs": [],
      "name": "withdraw",
      "outputs": [],
      "stateMutability": "nonpayable",
      "type": "function"
    }
  ],
  "bytecode": "0x60806040526000600155600060025560006003556000600455600060055560006006556000600755600060085560006009556000600a556000600b556000600c556000600d556000600e556000600f5534801561005b57600080fd5b506001602755614ce7806100706000396000f3fe608060405234801561001057600080fd5b50600436106105ac5760003560e01c806375b238fc116102ed578063b960ca0411610191578063e30821c6116100ee578063eb8445f8116100a2578063f3e16d481161007c578063f3e16d4814610d3d578063fe4d5add14610d60578063ff6dac7614610d7d576105ac565b8063eb8445f814610d00578063ecf427bd14610d08578063f18d20be14610d35576105ac565b8063e985e367116100d3578063e985e36714610ccd578063eaff056d14610cd5578063eb685c4714610cdd576105ac565b8063e30821c614610c8a578063e4b2fb7914610cb0576105ac565b8063ca15c87311610145578063d53913931161012a578063d539139314610c4e578063d547741f14610c56578063e016bac414610c82576105ac565b8063ca15c87314610c0b578063cae9ce1b14610c28576105ac565b8063bff1f9e111610176578063bff1f9e114610bf3578063c3e5763514610bfb578063c5408d5014610c03576105ac565b8063b960ca0414610be3578063bfc630b114610beb576105ac565b806394f641d51161024a578063a1b89b70116101fe578063a55abb17116101d8578063a55abb1714610bb6578063b6b55f2514610bbe578063b7182b9514610bdb576105ac565b8063a1b89b7014610b89578063a217fddf14610b91578063a38ffdea14610b99576105ac565b80639711715a1161022f5780639711715a14610b5357806398d97da414610b5b578063a055e62514610b81576105ac565b806394f641d514610b435780639525269214610b4b576105ac565b806381a9f6d7116102a15780639010d07c116102865780639010d07c14610aec5780639077842314610b0f57806391d1485414610b17576105ac565b806381a9f6d714610ac75780638f68711a14610acf576105ac565b80637dc2cd98116102d25780637dc2cd9814610a915780637ecd5c7014610a995780638181e84714610abf576105ac565b806375b238fc14610a685780637676ee3214610a70576105ac565b80633ef541b51161045457806363a8fd89116103b15780636e0e0da21161036557806370c6abf51161033f57806370c6abf514610a3257806370e5410a14610a3a57806375829def14610a42576105ac565b80636e0e0da2146109e45780636e59abbb146109ec5780637048027514610a0c576105ac565b806367b399a51161039657806367b399a51461098d57806369048005146109aa5780636c230839146109c7576105ac565b806363a8fd891461097d57806366ce727114610985576105ac565b806351d28a7e116104085780635f1af712116103ed5780635f1af7121461091357806360a2a25c1461095857806361a3342714610975576105ac565b806351d28a7e146108c7578063590088bc146108cf576105ac565b8063494600ea11610439578063494600ea146108705780634de389c41461089c5780634e71d92d146108bf576105ac565b80633ef541b51461081a57806341c0cb7714610822576105ac565b8063226bf1a41161050d5780632cbf3188116104c157806336568abe1161049b57806336568abe146107de57806337bf07191461080a5780633ccfd60b14610812576105ac565b80632cbf31881461077b5780632dcdbfd3146107835780632f2ff15d146107b2576105ac565b806324d7806c116104f257806324d7806c14610731578063282c51f31461076b57806328e50f4b14610773576105ac565b8063226bf1a41461070c578063248a9ca314610714576105ac565b80631a1197e7116105645780631bfc751e116105495780631bfc751e146106b1578063218183a3146106b957806321df0da7146106e8576105ac565b80631a1197e71461065c5780631b03123214610682576105ac565b80630b433a12116105955780630b433a12146106115780630e6e12b4146106195780631785f53c14610636576105ac565b8063039af9eb146105b15780630a888550146105e0575b600080fd5b6105ce600480360360208110156105c757600080fd5b5035610dc3565b60408051918252519081900360200190f35b61060f600480360360808110156105f657600080fd5b5080359060208101359060408101359060600135610dd5565b005b6105ce610fad565b61060f6004803603602081101561062f57600080fd5b5035610fb3565b61060f6004803603602081101561064c57600080fd5b50356001600160a01b0316611305565b6105ce6004803603602081101561067257600080fd5b50356001600160a01b0316611376565b61060f6004803603608081101561069857600080fd5b5080359060208101359060408101359060600135611465565b6105ce6115f3565b61060f600480360360808110156106cf57600080fd5b50803590602081013590604081013590606001356115f9565b6106f06118c2565b604080516001600160a01b039092168252519081900360200190f35b6105ce6118d1565b6105ce6004803603602081101561072a57600080fd5b50356118d7565b6107576004803603602081101561074757600080fd5b50356001600160a01b03166118ec565b604080519115158252519081900360200190f35b6105ce61191e565b6105ce611942565b6105ce611971565b61060f6004803603608081101561079957600080fd5b50803590602081013590604081013590606001356119a6565b61060f600480360360408110156107c857600080fd5b50803590602001356001600160a01b0316611c04565b61060f600480360360408110156107f457600080fd5b50803590602001356001600160a01b0316611c70565b6106f0611cd1565b61060f611ce0565b6105ce612082565b6108486004803603602081101561083857600080fd5b50356001600160a01b0316612088565b6040805194151585526020850193909352838301919091526060830152519081900360800190f35b6105ce6004803603604081101561088657600080fd5b506001600160a01b0381351690602001356120b2565b61060f600480360360408110156108b257600080fd5b5080359060200135612112565b61060f61224d565b6105ce612628565b6108f5600480360360208110156108e557600080fd5b50356001600160a01b031661262e565b60408051938452602084019290925282820152519081900360600190f35b61093f6004803603604081101561092957600080fd5b506001600160a01b0381351690602001356126b7565b6040805192835260208301919091528051918290030190f35b6105ce6004803603602081101561096e57600080fd5b50356128bf565b6105ce6128e4565b6107576128ea565b6105ce6128f3565b6105ce600480360360208110156109a357600080fd5b50356128f9565b6105ce600480360360208110156109c057600080fd5b503561290b565b61060f600480360360208110156109dd57600080fd5b503561291d565b61060f6129b0565b61060f60048036036080811015610a0257600080fd5b5060408101612bf7565b61060f60048036036020811015610a2257600080fd5b50356001600160a01b0316612c59565b61060f612cc7565b6105ce612eb3565b61060f60048036036020811015610a5857600080fd5b50356001600160a01b0316612ef5565b6105ce613046565b61060f6004803603610100811015610a8757600080fd5b506080810161306a565b6105ce6130e0565b6105ce60048036036020811015610aaf57600080fd5b50356001600160a01b03166130e6565b61060f613585565b6105ce613812565b6105ce60048036036020811015610ae557600080fd5b5035613818565b6106f060048036036040811015610b0257600080fd5b508035906020013561382a565b6105ce613842565b61075760048036036040811015610b2d57600080fd5b50803590602001356001600160a01b031661385b565b6105ce613873565b6105ce613879565b6105ce61387f565b6108f560048036036020811015610b7157600080fd5b50356001600160a01b0316613885565b6105ce613936565b6105ce61393c565b6105ce613942565b6105ce60048036036020811015610baf57600080fd5b5035613947565b6105ce613965565b61060f60048036036020811015610bd457600080fd5b503561396b565b6106f0613b8d565b6105ce613b9c565b6105ce613ba2565b6105ce613ba8565b6105ce613bae565b6105ce613bb4565b6105ce60048036036020811015610c2157600080fd5b5035613bba565b61084860048036036020811015610c3e57600080fd5b50356001600160a01b0316613bd1565b6105ce613bfc565b61060f60048036036040811015610c6c57600080fd5b50803590602001356001600160a01b0316613c20565b6105ce613c79565b61060f60048036036020811015610ca057600080fd5b50356001600160a01b0316613c7f565b6106f060048036036020811015610cc657600080fd5b5035613cf2565b6106f0613d1c565b6105ce613d2b565b61060f60048036036040811015610cf357600080fd5b5080359060200135613d31565b6105ce613e6c565b61060f6004803603610160811015610d1f57600080fd5b50803590602081019060a081019060e001613e72565b610757613f93565b61060f60048036036040811015610d5357600080fd5b5080359060200135613f9c565b6106f060048036036020811015610d7657600080fd5b5035614096565b610da360048036036020811015610d9357600080fd5b50356001600160a01b03166140a6565b604080519315158452602084019290925282820152519081900360600190f35b60226020526000908152604090205481565b610dde336118ec565b610e195760405162461bcd60e51b81526004018080602001828103825260228152602001806149d56022913960400191505060405180910390fd5b8360008111610e62576040805162461bcd60e51b815260206004820152601060248201526f5075626c696353616c653a207a65726f60801b604482015290519081900360640190fd5b8360008111610eab576040805162461bcd60e51b815260206004820152601060248201526f5075626c696353616c653a207a65726f60801b604482015290519081900360640190fd5b8360008111610ef4576040805162461bcd60e51b815260206004820152601060248201526f5075626c696353616c653a207a65726f60801b604482015290519081900360640190fd5b8360008111610f3d576040805162461bcd60e51b815260206004820152601060248201526f5075626c696353616c653a207a65726f60801b604482015290519081900360640190fd5b6002541580610f5a57506000600254118015610f5a575060025442105b610f955760405162461bcd60e51b8152600401808060200182810382526027815260200180614c2f6027913960400191505060405180910390fd5b50505060029490945560039290925560045560055550565b60155481565b8060008111610ffc576040805162461bcd60e51b815260206004820152601060248201526f5075626c696353616c653a207a65726f60801b604482015290519081900360640190fd5b60165460008111611047576040805162461bcd60e51b815260206004820152601060248201526f5075626c696353616c653a207a65726f60801b604482015290519081900360640190fd5b6002602754141561109f576040805162461bcd60e51b815260206004820152601f60248201527f5265656e7472616e637947756172643a207265656e7472616e742063616c6c00604482015290519081900360640190fd5b60026027556004544210156110e55760405162461bcd60e51b815260040180806020018281038252602d8152602001806149a8602d913960400191505060405180910390fd5b60055442106111255760405162461bcd60e51b8152600401808060200182810382526021815260200180614ad86021913960400191505060405180910390fd5b336000908152601f60205260409020805460ff1615156001146111795760405162461bcd60e51b8152600401808060200182810382526027815260200180614b4a6027913960400191505060405180910390fd5b600061118485613947565b9050600061119133611376565b60038401549091506111a390836140cb565b8110156111e15760405162461bcd60e51b815260040180806020018281038252602c815260200180614a3f602c913960400191505060405180910390fd5b600283015461120d57600a546111f89060016140cb565b600a556009546112099060016140cb565b6009555b600283015461121c90876140cb565b6002840155600383015461123090836140cb565b6003840155600f5461124290876140cb565b600f55600e5461125290836140cb565b600e556000611260336130e6565b60008181526024602052604090205490915061127d9060016140cb565b600082815260246020526040902055601a546112a4906001600160a01b031633308a614125565b601854601a546112c1916001600160a01b039182169116896141ad565b60408051888152905133917fc2198f7273f3b4ab95a025cf1f853777ca45149bbc1c005496959a6da70fcb8d919081900360200190a2505060016027555050505050565b61130e336118ec565b6113495760405162461bcd60e51b81526004018080602001828103825260228152602001806149d56022913960400191505060405180910390fd5b6113737fdf8b4c520ffe197c5343c6f5aec59570151ef9a492f2c624fd45ddde6135ec4282611c70565b50565b6001600160a01b0381166000908152601f6020526040812081611398846130e6565b825490915060ff16151560011480156113b15750600081115b156113f75760008181526023602090815260408083205460259092528220546011546113ec92612710926113e6928391614232565b9061428b565b935061146092505050565b8015611459576000818152602360205260408120546114179060016140cb565b9050600061144d6127106113e6846113e6602560008981526020019081526020016000205460115461423290919063ffffffff16565b94506114609350505050565b6000925050505b919050565b61146e336118ec565b6114a95760405162461bcd60e51b81526004018080602001828103825260228152602001806149d56022913960400191505060405180910390fd5b83600081116114f2576040805162461bcd60e51b815260206004820152601060248201526f5075626c696353616c653a207a65726f60801b604482015290519081900360640190fd5b836000811161153b576040805162461bcd60e51b815260206004820152601060248201526f5075626c696353616c653a207a65726f60801b604482015290519081900360640190fd5b8360008111611584576040805162461bcd60e51b815260206004820152601060248201526f5075626c696353616c653a207a65726f60801b604482015290519081900360640190fd5b60025415806115a1575060006002541180156115a1575060025442105b6115dc5760405162461bcd60e51b8152600401808060200182810382526027815260200180614c2f6027913960400191505060405180910390fd5b505050600893909355601591909155601655601755565b60085481565b611602336118ec565b61163d5760405162461bcd60e51b81526004018080602001828103825260228152602001806149d56022913960400191505060405180910390fd5b8360008111611686576040805162461bcd60e51b815260206004820152601060248201526f5075626c696353616c653a207a65726f60801b604482015290519081900360640190fd5b83600081116116cf576040805162461bcd60e51b815260206004820152601060248201526f5075626c696353616c653a207a65726f60801b604482015290519081900360640190fd5b8360008111611718576040805162461bcd60e51b815260206004820152601060248201526f5075626c696353616c653a207a65726f60801b604482015290519081900360640190fd5b8360008111611761576040805162461bcd60e51b815260206004820152601060248201526f5075626c696353616c653a207a65726f60801b604482015290519081900360640190fd5b600254158061177e5750600060025411801561177e575060025442105b6117b95760405162461bcd60e51b8152600401808060200182810382526027815260200180614c2f6027913960400191505060405180910390fd5b6117cf856117c988818c8c6140cb565b906140cb565b61271014611824576040805162461bcd60e51b815260206004820152601f60248201527f5075626c696353616c653a2053756d2073686f756c6420626520313030303000604482015290519081900360640190fd5b5050602560205250507f20a3e2dd35f58e582c5288344c035e137cace924bb9daf3762b8ef5a58327e26939093557ff1da3aed71bcbd4afa246ea3711ddde93661ac45b913264dbc974ee389cd7a63919091557fc5fdd46c9592bee36fcfadca77466e8856c74a47731422467f212e3622f92e335560046000527fe989d989ab826b4af50f3a0825e35b4373879738db37bbacf10ace5a2114a7a955565b601a546001600160a01b031681565b60145481565b60009081526026602052604090206002015490565b60006119187fdf8b4c520ffe197c5343c6f5aec59570151ef9a492f2c624fd45ddde6135ec428361385b565b92915050565b7f9667e80708b6eeeb0053fa0cca44e028ff548e2a9f029edfeac87c118b08b7c881565b6000600554421015611957575060125461196e565b61196b611962613842565b601254906140cb565b90505b90565b60008061197f601054613947565b9050600061198b611942565b90508082101561199d5750905061196e565b915061196e9050565b6119af336118ec565b6119ea5760405162461bcd60e51b81526004018080602001828103825260228152602001806149d56022913960400191505060405180910390fd5b8360008111611a33576040805162461bcd60e51b815260206004820152601060248201526f5075626c696353616c653a207a65726f60801b604482015290519081900360640190fd5b8360008111611a7c576040805162461bcd60e51b815260206004820152601060248201526f5075626c696353616c653a207a65726f60801b604482015290519081900360640190fd5b8360008111611ac5576040805162461bcd60e51b815260206004820152601060248201526f5075626c696353616c653a207a65726f60801b604482015290519081900360640190fd5b8360008111611b0e576040805162461bcd60e51b815260206004820152601060248201526f5075626c696353616c653a207a65726f60801b604482015290519081900360640190fd5b6002541580611b2b57506000600254118015611b2b575060025442105b611b665760405162461bcd60e51b8152600401808060200182810382526027815260200180614c2f6027913960400191505060405180910390fd5b5050602260205250507fe39b43e4224876d80510ac9d8f190663bcce357e28a4aec26f3bf2e600bb40ec939093557f52978eb6718a0ed733b71dbb3c4781d6da146a41523832713c09679420d0cac5919091557f3f1c07aec4ba487306d5d4faaa1d9deb5d8db1e41c6130041b740cb07487a5975560046000527fd7343ae3d2c16eacc7c893fad12c1ec38efa5751e5cb5741a848035a232aa5e855565b600082815260266020526040902060020154611c2790611c226142cd565b61385b565b611c625760405162461bcd60e51b815260040180806020018281038252602f815260200180614979602f913960400191505060405180910390fd5b611c6c82826142d1565b5050565b611c786142cd565b6001600160a01b0316816001600160a01b031614611cc75760405162461bcd60e51b815260040180806020018281038252602f815260200180614c56602f913960400191505060405180910390fd5b611c6c828261433a565b601b546001600160a01b031681565b611ce9336118ec565b611d245760405162461bcd60e51b81526004018080602001828103825260228152602001806149d56022913960400191505060405180910390fd5b6007544211611ea957601954604080516370a0823160e01b815230600482015290516000926001600160a01b0316916370a08231916024808301926020929190829003018186803b158015611d7857600080fd5b505afa158015611d8c573d6000803e3d6000fd5b505050506040513d6020811015611da257600080fd5b5051601254601154919250611db791906140cb565b8111611df45760405162461bcd60e51b8152600401808060200182810382526022815260200180614b986022913960400191505060405180910390fd5b6000611e17611e106012546011546140cb90919063ffffffff16565b83906143a3565b905080611e555760405162461bcd60e51b8152600401808060200182810382526026815260200180614a916026913960400191505060405180910390fd5b601954611e6c906001600160a01b031633836141ad565b60408051828152905133917f7fcf532c15f0a6db0bd6d0e038bea71d30d808c7d98cb3bf7268a95bf5081b65919081900360200190a25050612080565b6007544211611eff576040805162461bcd60e51b815260206004820181905260248201527f5075626c696353616c653a20656e6420746865206f70656e53616c6554696d65604482015290519081900360640190fd5b601e5460ff1615611f57576040805162461bcd60e51b815260206004820152601d60248201527f616c72656164792061646d696e2063616c6c6564207769746864726177000000604482015290519081900360640190fd5b601e805460ff191660011790556000611f6e611971565b600e54909150611f7e90826140cb565b601254601154611f8d916140cb565b11611fc95760405162461bcd60e51b8152600401808060200182810382526026815260200180614a916026913960400191505060405180910390fd5b6000611ff282611fec600e54611fec6012546011546140cb90919063ffffffff16565b906143a3565b9050806120305760405162461bcd60e51b8152600401808060200182810382526026815260200180614a916026913960400191505060405180910390fd5b601954612047906001600160a01b031633836141ad565b60408051828152905133917f7fcf532c15f0a6db0bd6d0e038bea71d30d808c7d98cb3bf7268a95bf5081b65919081900360200190a250505b565b60075481565b6020805260009081526040902080546001820154600283015460039093015460ff90921692909184565b6001600160a01b03821660009081526020805260408120600181015482906120da90856140cb565b905060006121086120f6866010546140cb90919063ffffffff16565b6113e684612102611942565b90614232565b9695505050505050565b61211b336118ec565b6121565760405162461bcd60e51b81526004018080602001828103825260228152602001806149d56022913960400191505060405180910390fd5b816000811161219f576040805162461bcd60e51b815260206004820152601060248201526f5075626c696353616c653a207a65726f60801b604482015290519081900360640190fd5b81600081116121e8576040805162461bcd60e51b815260206004820152601060248201526f5075626c696353616c653a207a65726f60801b604482015290519081900360640190fd5b600254158061220557506000600254118015612205575060025442105b6122405760405162461bcd60e51b8152600401808060200182810382526027815260200180614c2f6027913960400191505060405180910390fd5b5050600691909155600755565b60085442101561228e5760405162461bcd60e51b8152600401808060200182810382526021815260200180614ab76021913960400191505060405180910390fd5b336000818152602160209081526040808320918052822090929091906122b39061262e565b509150506000806122c333613885565b92505091506000831161231d576040805162461bcd60e51b815260206004820152601e60248201527f5075626c696353616c653a206e6f20707572636861736520616d6f756e740000604482015290519081900360640190fd5b600061232a3360006126b7565b50905060008111612382576040805162461bcd60e51b815260206004820152601560248201527f5075626c696353616c653a206e6f207265776172640000000000000000000000604482015290519081900360640190fd5b8061239a8760010154866143a390919063ffffffff16565b10156123d75760405162461bcd60e51b8152600401808060200182810382526028815260200180614be46028913960400191505060405180910390fd5b601954604080516370a0823160e01b8152306004820152905183926001600160a01b0316916370a08231916024808301926020929190829003018186803b15801561242157600080fd5b505afa158015612435573d6000803e3d6000fd5b505050506040513d602081101561244b57600080fd5b5051101561248a5760405162461bcd60e51b8152600401808060200182810382526027815260200180614b716027913960400191505060405180910390fd5b600186015461249990826140cb565b60018701556019546124b5906001600160a01b031633836141ad565b855460ff161580156124c85750845460ff165b156124ea57600c546124db9060016140cb565b600c55855460ff191660011786555b6000821180156124fc57506002860154155b156125ea57601a54604080516370a0823160e01b815230600482015290516001600160a01b03909216916370a0823191602480820192602092909190829003018186803b15801561254c57600080fd5b505afa158015612560573d6000803e3d6000fd5b505050506040513d602081101561257657600080fd5b50518211156125cc576040805162461bcd60e51b815260206004820181905260248201527f5075626c696353616c653a20646f6e74206861766520726566756e6420746f6e604482015290519081900360640190fd5b60028601829055601a546125ea906001600160a01b031633846141ad565b60408051828152905133917fd8138f8a3f377c5259ca548e70e4c2de94f129f5a11036a15b69513cba2b426a919081900360200190a2505050505050565b60135481565b6001600160a01b0381166000908152601f6020526040812080548291829160ff161561269f57600080600061266288613885565b92509250925061267f8460020154846140cb90919063ffffffff16565b600385015461268f9084906140cb565b82965096509650505050506126b0565b6126a885613885565b935093509350505b9193909250565b6000806008544210156126cf575060009050806128b8565b6016548311156126e4575060009050806128b8565b6001600160a01b0384166000908152602160205260408120906127068661262e565b509150508061271d576000809350935050506128b8565b80826001015410612735576000935091506128b89050565b600061274c600854426143a390919063ffffffff16565b90506000829050600061276f60646113e66017548561423290919063ffffffff16565b9050600061279661278c60016016546143a390919063ffffffff16565b6113e685856143a3565b905088612852576015548410156127d15760006127c08760010154846143a390919063ffffffff16565b98509296506128b895505050505050565b60006127ea600160155487816127e357fe5b04906140cb565b9050601654811061282057600061280e8860010154866143a390919063ffffffff16565b99509397506128b89650505050505050565b600061280e8860010154611fec61284b6128446001876143a390919063ffffffff16565b8790614232565b87906140cb565b88600114156128695750955093506128b892505050565b6016548914156128a95760006127c06128a261289b61289460026016546143a390919063ffffffff16565b8590614232565b85906140cb565b85906143a3565b96509094506128b89350505050565b9250929050565b6000806128dd6014546113e66013548661423290919063ffffffff16565b9392505050565b600c5481565b60005460ff1681565b60055481565b60236020526000908152604090205481565b60256020526000908152604090205481565b612926336118ec565b6129615760405162461bcd60e51b81526004018080602001828103825260228152602001806149d56022913960400191505060405180910390fd5b80600081116129aa576040805162461bcd60e51b815260206004820152601060248201526f5075626c696353616c653a207a65726f60801b604482015290519081900360640190fd5b50600155565b6129b9336118ec565b6129f45760405162461bcd60e51b81526004018080602001828103825260228152602001806149d56022913960400191505060405180910390fd5b6007544211612a345760405162461bcd60e51b8152600401808060200182810382526027815260200180614a186027913960400191505060405180910390fd5b6000600c54600b541415612ac057601a54604080516370a0823160e01b815230600482015290516001600160a01b03909216916370a0823191602480820192602092909190829003018186803b158015612a8d57600080fd5b505afa158015612aa1573d6000803e3d6000fd5b505050506040513d6020811015612ab757600080fd5b50519050612ad7565b612ad4678ac7230489e80000611fec612eb3565b90505b601a54604080516370a0823160e01b815230600482015290516001600160a01b03909216916370a0823191602480820192602092909190829003018186803b158015612b2257600080fd5b505afa158015612b36573d6000803e3d6000fd5b505050506040513d6020811015612b4c57600080fd5b5051811115612ba2576040805162461bcd60e51b815260206004820152601f60248201527f5075626c696353616c653a206e6f20746f6b656e20746f207265636569766500604482015290519081900360640190fd5b601854601a54612bbf916001600160a01b039182169116836141ad565b60408051828152905133917ed9d3be50e60c788d65b203051d7997aea5a5d613164c998427e07fc74d9a0e919081900360200190a250565b612c00336118ec565b612c3b5760405162461bcd60e51b81526004018080602001828103825260228152602001806149d56022913960400191505060405180910390fd5b612c4a82356020840135613f9c565b611c6c81356020830135613d31565b612c62336118ec565b612c9d5760405162461bcd60e51b81526004018080602001828103825260228152602001806149d56022913960400191505060405180910390fd5b6113737fdf8b4c520ffe197c5343c6f5aec59570151ef9a492f2c624fd45ddde6135ec4282611c04565b612cd0336118ec565b612d0b5760405162461bcd60e51b81526004018080602001828103825260228152602001806149d56022913960400191505060405180910390fd5b60006002819055600d819055600e819055600f81905560108190555b601d54811015612dcf576000601f6000601d8481548110612d4457fe5b60009182526020808320909101546001600160a01b031683528201929092526040018120805460ff191681556002810182905560038101829055601d805491935060219183919086908110612d9557fe5b60009182526020808320909101546001600160a01b031683528201929092526040018120600190810191909155929092019150612d279050565b5060005b601c54811015612e8257600060206000601c8481548110612df057fe5b60009182526020808320909101546001600160a01b03168352820192909252604001812060018101829055805460ff191681556002810182905560038101829055601c805491935060219183919086908110612e4857fe5b60009182526020808320909101546001600160a01b031683528201929092526040018120600190810191909155929092019150612dd39050565b5060015b60058110156113735760008181526023602090815260408083208390556024909152812055600101612e86565b600080612ec1601054613947565b90506000612ecd611942565b905080821015612ee3576010549250505061196e565b612eec816128bf565b9250505061196e565b612efe336118ec565b612f395760405162461bcd60e51b81526004018080602001828103825260228152602001806149d56022913960400191505060405180910390fd5b6001600160a01b038116612f94576040805162461bcd60e51b815260206004820152601860248201527f41636365737369626c653a207a65726f20616464726573730000000000000000604482015290519081900360640190fd5b336001600160a01b0382161415612ff2576040805162461bcd60e51b815260206004820152601660248201527f41636365737369626c653a2073616d652061646d696e00000000000000000000604482015290519081900360640190fd5b61301c7fdf8b4c520ffe197c5343c6f5aec59570151ef9a492f2c624fd45ddde6135ec4282611c04565b6113737fdf8b4c520ffe197c5343c6f5aec59570151ef9a492f2c624fd45ddde6135ec4233611c70565b7fdf8b4c520ffe197c5343c6f5aec59570151ef9a492f2c624fd45ddde6135ec4281565b613073336118ec565b6130ae5760405162461bcd60e51b81526004018080602001828103825260228152602001806149d56022913960400191505060405180910390fd5b6130c782356020840135604085013560608601356119a6565b611c6c81356020830135604084013560608501356115f9565b60165481565b601b546000906001600160a01b031680613147576040805162461bcd60e51b815260206004820152601860248201527f5075626c696353616c653a207a65726f20616464726573730000000000000000604482015290519081900360640190fd5b600160005260226020527fe39b43e4224876d80510ac9d8f190663bcce357e28a4aec26f3bf2e600bb40ec54806131b8576040805162461bcd60e51b815260206004820152601060248201526f5075626c696353616c653a207a65726f60801b604482015290519081900360640190fd5b600260005260226020527f52978eb6718a0ed733b71dbb3c4781d6da146a41523832713c09679420d0cac55480613229576040805162461bcd60e51b815260206004820152601060248201526f5075626c696353616c653a207a65726f60801b604482015290519081900360640190fd5b600360005260226020527f3f1c07aec4ba487306d5d4faaa1d9deb5d8db1e41c6130041b740cb07487a597548061329a576040805162461bcd60e51b815260206004820152601060248201526f5075626c696353616c653a207a65726f60801b604482015290519081900360640190fd5b600460005260226020527fd7343ae3d2c16eacc7c893fad12c1ec38efa5751e5cb5741a848035a232aa5e8548061330b576040805162461bcd60e51b815260206004820152601060248201526f5075626c696353616c653a207a65726f60801b604482015290519081900360640190fd5b601b54600154604080517f4ee2cd7e0000000000000000000000000000000000000000000000000000000081526001600160a01b038b81166004830152602482019390935290516000939290921691634ee2cd7e91604480820192602092909190829003018186803b15801561338057600080fd5b505afa158015613394573d6000803e3d6000fd5b505050506040513d60208110156133aa57600080fd5b50516001600090815260226020527fe39b43e4224876d80510ac9d8f190663bcce357e28a4aec26f3bf2e600bb40ec549192509082108015906134175750600260005260226020527f52978eb6718a0ed733b71dbb3c4781d6da146a41523832713c09679420d0cac55482105b1561342457506001613579565b600260005260226020527f52978eb6718a0ed733b71dbb3c4781d6da146a41523832713c09679420d0cac55482108015906134895750600360005260226020527f3f1c07aec4ba487306d5d4faaa1d9deb5d8db1e41c6130041b740cb07487a5975482105b1561349657506002613579565b600360005260226020527f3f1c07aec4ba487306d5d4faaa1d9deb5d8db1e41c6130041b740cb07487a5975482108015906134fb5750600460005260226020527fd7343ae3d2c16eacc7c893fad12c1ec38efa5751e5cb5741a848035a232aa5e85482105b1561350857506003613579565b600460005260226020527fd7343ae3d2c16eacc7c893fad12c1ec38efa5751e5cb5741a848035a232aa5e854821061354257506004613579565b600160005260226020527fe39b43e4224876d80510ac9d8f190663bcce357e28a4aec26f3bf2e600bb40ec54821015613579575060005b98975050505050505050565b600260275414156135dd576040805162461bcd60e51b815260206004820152601f60248201527f5265656e7472616e637947756172643a207265656e7472616e742063616c6c00604482015290519081900360640190fd5b60026027819055544210156136235760405162461bcd60e51b815260040180806020018281038252602d815260200180614c85602d913960400191505060405180910390fd5b60035442106136635760405162461bcd60e51b81526004018080602001828103825260218152602001806149f76021913960400191505060405180910390fd5b600061366e336130e6565b905060018110156136c6576040805162461bcd60e51b815260206004820152601d60248201527f5075626c696353616c653a206e65656420746f206d6f72652073544f53000000604482015290519081900360640190fd5b336000908152601f60205260409020805460ff16151560011415613731576040805162461bcd60e51b815260206004820152601c60248201527f5075626c696353616c653a20616c726561647920617474656e64656400000000604482015290519081900360640190fd5b601d8054600181810183556000929092527f6d4407e7be21f808e6509aa9fa9143369579dd7d760fe20a2c09680fc146134f01805473ffffffffffffffffffffffffffffffffffffffff191633179055600d5461378d916140cb565b600d55805460ff191660019081178255818101839055600060038301819055838152602360205260409020546137c2916140cb565b600083815260236020908152604091829020929092558051848152905133927fffc1b88a1c7ff4b7c84aac62283195eb1a6e771eafe7f68ddc27c7539cb0a105928290030190a250506001602755565b60065481565b60246020526000908152604090205481565b60008281526026602052604081206128dd90836143e5565b600061196b600e546011546143a390919063ffffffff16565b60008281526026602052604081206128dd90836143f1565b600b5481565b60025481565b60015481565b6001600160a01b0381166000908152602080526040812080548291829160ff1615806138b357506001810154155b156138c9576000806000935093509350506126b0565b60006138d68660006120b2565b905060006138e3826128bf565b6001840154909150600080828410156139125761390083856143a3565b905061390b84613947565b9150613925565b8560010154935061392283613947565b91505b929990985091965090945050505050565b600a5481565b600d5481565b600081565b6000806128dd6013546113e66014548661423290919063ffffffff16565b600f5481565b600260275414156139c3576040805162461bcd60e51b815260206004820152601f60248201527f5265656e7472616e637947756172643a207265656e7472616e742063616c6c00604482015290519081900360640190fd5b6002602755600654421015613a095760405162461bcd60e51b8152600401808060200182810382526023815260200180614c0c6023913960400191505060405180910390fd5b6007544210613a5f576040805162461bcd60e51b815260206004820152601f60248201527f5075626c696353616c653a20656e6420746865206465706f73697454696d6500604482015290519081900360640190fd5b3360009081526020805260409020805460ff16613b0b57601c8054600181810183556000929092527f0e4562a10381dec21b205ed72637e6b1b523bdd0e4d4d50af5cd23dd4500a21101805473ffffffffffffffffffffffffffffffffffffffff191633179055815460ff191681178255600b54613adc916140cb565b600b55336000908152601f602052604090206002810154613b0957600954613b059060016140cb565b6009555b505b6001810154613b1a90836140cb565b600182015560006003820155601054613b3390836140cb565b601055601a54613b4e906001600160a01b0316333085614125565b60408051838152905133917f2da466a7b24304f47e87fa2e1e5a81b9831ce54fec19055ce277ca2f39ba42c4919081900360200190a250506001602755565b6018546001600160a01b031681565b60115481565b60125481565b60095481565b60035481565b60105481565b600081815260266020526040812061191890614406565b601f60205260009081526040902080546001820154600283015460039093015460ff90921692909184565b7ff0887ba65ee2024ea881d91b74c2450ef19e1557f03bed3ea9f16b037cbe2dc981565b600082815260266020526040902060020154613c3e90611c226142cd565b611cc75760405162461bcd60e51b8152600401808060200182810382526030815260200180614af96030913960400191505060405180910390fd5b60045481565b613c88336118ec565b613cc35760405162461bcd60e51b81526004018080602001828103825260228152602001806149d56022913960400191505060405180910390fd5b6018805473ffffffffffffffffffffffffffffffffffffffff19166001600160a01b0392909216919091179055565b601c8181548110613d0257600080fd5b6000918252602090912001546001600160a01b0316905081565b6019546001600160a01b031681565b60175481565b613d3a336118ec565b613d755760405162461bcd60e51b81526004018080602001828103825260228152602001806149d56022913960400191505060405180910390fd5b8160008111613dbe576040805162461bcd60e51b815260206004820152601060248201526f5075626c696353616c653a207a65726f60801b604482015290519081900360640190fd5b8160008111613e07576040805162461bcd60e51b815260206004820152601060248201526f5075626c696353616c653a207a65726f60801b604482015290519081900360640190fd5b6002541580613e2457506000600254118015613e24575060025442105b613e5f5760405162461bcd60e51b8152600401808060200182810382526027815260200180614c2f6027913960400191505060405180910390fd5b5050601391909155601455565b600e5481565b613e7b336118ec565b613eb65760405162461bcd60e51b81526004018080602001828103825260228152602001806149d56022913960400191505060405180910390fd5b6002541580613ed357506000600254118015613ed3575060025442105b613f0e5760405162461bcd60e51b8152600401808060200182810382526027815260200180614c2f6027913960400191505060405180910390fd5b60208301358335108015613f29575060608301356040840135105b613f3257600080fd5b6020820135823510613f4357600080fd5b613f4c8461291d565b613f658335602085013560408601356060870135610dd5565b613f7482356020840135612112565b613f8d8135602083013560408401356060850135611465565b50505050565b601e5460ff1681565b613fa5336118ec565b613fe05760405162461bcd60e51b81526004018080602001828103825260228152602001806149d56022913960400191505060405180910390fd5b613fea82826140cb565b60008111614032576040805162461bcd60e51b815260206004820152601060248201526f5075626c696353616c653a207a65726f60801b604482015290519081900360640190fd5b600254158061404f5750600060025411801561404f575060025442105b61408a5760405162461bcd60e51b8152600401808060200182810382526027815260200180614c2f6027913960400191505060405180910390fd5b50601191909155601255565b601d8181548110613d0257600080fd5b60216020526000908152604090208054600182015460029092015460ff909116919083565b6000828201838110156128dd576040805162461bcd60e51b815260206004820152601b60248201527f536166654d6174683a206164646974696f6e206f766572666c6f770000000000604482015290519081900360640190fd5b604080516001600160a01b0380861660248301528416604482015260648082018490528251808303909101815260849091019091526020810180517bffffffffffffffffffffffffffffffffffffffffffffffffffffffff167f23b872dd00000000000000000000000000000000000000000000000000000000179052613f8d908590614411565b604080516001600160a01b038416602482015260448082018490528251808303909101815260649091019091526020810180517bffffffffffffffffffffffffffffffffffffffffffffffffffffffff167fa9059cbb0000000000000000000000000000000000000000000000000000000017905261422d908490614411565b505050565b60008261424157506000611918565b8282028284828161424e57fe5b04146128dd5760405162461bcd60e51b8152600401808060200182810382526021815260200180614b296021913960400191505060405180910390fd5b60006128dd83836040518060400160405280601a81526020017f536166654d6174683a206469766973696f6e206279207a65726f0000000000008152506144c2565b3390565b60008281526026602052604090206142e99082614564565b15611c6c576142f66142cd565b6001600160a01b0316816001600160a01b0316837f2f8788117e7eff1d82e926ec794901d17c78024a50270940304540a733656f0d60405160405180910390a45050565b60008281526026602052604090206143529082614579565b15611c6c5761435f6142cd565b6001600160a01b0316816001600160a01b0316837ff6391f5c32d9c69d2a47ea670b442974b53935d1edc7fd64eb21e047a839171b60405160405180910390a45050565b60006128dd83836040518060400160405280601e81526020017f536166654d6174683a207375627472616374696f6e206f766572666c6f77000081525061458e565b60006128dd83836145e8565b60006128dd836001600160a01b03841661464c565b600061191882614664565b6000614466826040518060400160405280602081526020017f5361666545524332303a206c6f772d6c6576656c2063616c6c206661696c6564815250856001600160a01b03166146689092919063ffffffff16565b80519091501561422d5780806020019051602081101561448557600080fd5b505161422d5760405162461bcd60e51b815260040180806020018281038252602a815260200180614bba602a913960400191505060405180910390fd5b6000818361454e5760405162461bcd60e51b81526004018080602001828103825283818151815260200191508051906020019080838360005b838110156145135781810151838201526020016144fb565b50505050905090810190601f1680156145405780820380516001836020036101000a031916815260200191505b509250505060405180910390fd5b50600083858161455a57fe5b0495945050505050565b60006128dd836001600160a01b03841661467f565b60006128dd836001600160a01b0384166146c9565b600081848411156145e05760405162461bcd60e51b81526020600482018181528351602484015283519092839260449091019190850190808383600083156145135781810151838201526020016144fb565b505050900390565b8154600090821061462a5760405162461bcd60e51b81526004018080602001828103825260228152602001806149576022913960400191505060405180910390fd5b82600001828154811061463957fe5b9060005260206000200154905092915050565b60009081526001919091016020526040902054151590565b5490565b6060614677848460008561478f565b949350505050565b600061468b838361464c565b6146c157508154600181810184556000848152602080822090930184905584548482528286019093526040902091909155611918565b506000611918565b6000818152600183016020526040812054801561478557835460001980830191908101906000908790839081106146fc57fe5b906000526020600020015490508087600001848154811061471957fe5b60009182526020808320909101929092558281526001898101909252604090209084019055865487908061474957fe5b60019003818190600052602060002001600090559055866001016000878152602001908152602001600020600090556001945050505050611918565b6000915050611918565b6060824710156147d05760405162461bcd60e51b8152600401808060200182810382526026815260200180614a6b6026913960400191505060405180910390fd5b6147d9856148ea565b61482a576040805162461bcd60e51b815260206004820152601d60248201527f416464726573733a2063616c6c20746f206e6f6e2d636f6e7472616374000000604482015290519081900360640190fd5b600080866001600160a01b031685876040518082805190602001908083835b602083106148685780518252601f199092019160209182019101614849565b6001836020036101000a03801982511681845116808217855250505050505090500191505060006040518083038185875af1925050503d80600081146148ca576040519150601f19603f3d011682016040523d82523d6000602084013e6148cf565b606091505b50915091506148df8282866148f0565b979650505050505050565b3b151590565b606083156148ff5750816128dd565b82511561490f5782518084602001fd5b60405162461bcd60e51b81526020600482018181528451602484015284518593919283926044019190850190808383600083156145135781810151838201526020016144fb56fe456e756d657261626c655365743a20696e646578206f7574206f6620626f756e6473416363657373436f6e74726f6c3a2073656e646572206d75737420626520616e2061646d696e20746f206772616e745075626c696353616c653a206578636c7573697665537461727454696d6520686173206e6f742070617373656441636365737369626c653a2043616c6c6572206973206e6f7420616e2061646d696e5075626c696353616c653a20656e64207468652077686974656c69737454696d655075626c696353616c653a206e65656420746f20656e6420746865206465706f73697454696d655075626c696353616c653a206a757374206275792074696572277320616c6c6f636174656420616d6f756e74416464726573733a20696e73756666696369656e742062616c616e636520666f722063616c6c5075626c696353616c653a20646f6e2774206578697374207769746864726177416d6f756e745075626c696353616c653a20646f6e277420737461727420636c61696d54696d655075626c696353616c653a20656e6420746865206578636c757369766554696d65416363657373436f6e74726f6c3a2073656e646572206d75737420626520616e2061646d696e20746f207265766f6b65536166654d6174683a206d756c7469706c69636174696f6e206f766572666c6f775075626c696353616c653a206e6f74207265676973746572656420696e2077686974656c6973745075626c696353616c653a20646f6e7420686176652073616c65546f6b656e20696e20706f6f6c5075626c696353616c653a206e6f20776974686472617761626c6520616d6f756e745361666545524332303a204552433230206f7065726174696f6e20646964206e6f7420737563636565645075626c696353616c653a207573657220697320616c726561647920676574416c6c7265776172645075626c696353616c653a20646f6e2774207374617274206465706f73697454696d655075626c696353616c653a206e6f74206265666f72655374617274416464576869746554696d65416363657373436f6e74726f6c3a2063616e206f6e6c792072656e6f756e636520726f6c657320666f722073656c665075626c696353616c653a2077686974656c697374537461727454696d6520686173206e6f7420706173736564a2646970667358221220b98bb9f4f01bd0a8322c3d11e8acae94df81e8a2125956a6d304c67b6be2f46c64736f6c63430007060033",
  "linkReferences": {},
  "deployedLinkReferences": {}
}