{
  "_format": "hh-sol-artifact-1",
  "contractName": "PublicSale",
  "sourceName": "contracts/sale/PublicSale.sol",
  "abi": [
    {
      "anonymous": false,
      "inputs": [
        {
          "indexed": true,
          "internalType": "bytes32",
          "name": "role",
          "type": "bytes32"
        },
        {
          "indexed": true,
          "internalType": "bytes32",
          "name": "previousAdminRole",
          "type": "bytes32"
        },
        {
          "indexed": true,
          "internalType": "bytes32",
          "name": "newAdminRole",
          "type": "bytes32"
        }
      ],
      "name": "RoleAdminChanged",
      "type": "event"
    },
    {
      "anonymous": false,
      "inputs": [
        {
          "indexed": true,
          "internalType": "bytes32",
          "name": "role",
          "type": "bytes32"
        },
        {
          "indexed": true,
          "internalType": "address",
          "name": "account",
          "type": "address"
        },
        {
          "indexed": true,
          "internalType": "address",
          "name": "sender",
          "type": "address"
        }
      ],
      "name": "RoleGranted",
      "type": "event"
    },
    {
      "anonymous": false,
      "inputs": [
        {
          "indexed": true,
          "internalType": "bytes32",
          "name": "role",
          "type": "bytes32"
        },
        {
          "indexed": true,
          "internalType": "address",
          "name": "account",
          "type": "address"
        },
        {
          "indexed": true,
          "internalType": "address",
          "name": "sender",
          "type": "address"
        }
      ],
      "name": "RoleRevoked",
      "type": "event"
    },
    {
      "inputs": [],
      "name": "ADMIN_ROLE",
      "outputs": [
        {
          "internalType": "bytes32",
          "name": "",
          "type": "bytes32"
        }
      ],
      "stateMutability": "view",
      "type": "function"
    },
    {
      "inputs": [],
      "name": "BURNER_ROLE",
      "outputs": [
        {
          "internalType": "bytes32",
          "name": "",
          "type": "bytes32"
        }
      ],
      "stateMutability": "view",
      "type": "function"
    },
    {
      "inputs": [],
      "name": "DEFAULT_ADMIN_ROLE",
      "outputs": [
        {
          "internalType": "bytes32",
          "name": "",
          "type": "bytes32"
        }
      ],
      "stateMutability": "view",
      "type": "function"
    },
    {
      "inputs": [],
      "name": "MINTER_ROLE",
      "outputs": [
        {
          "internalType": "bytes32",
          "name": "",
          "type": "bytes32"
        }
      ],
      "stateMutability": "view",
      "type": "function"
    },
    {
      "inputs": [
        {
          "internalType": "address",
          "name": "account",
          "type": "address"
        }
      ],
      "name": "addAdmin",
      "outputs": [],
      "stateMutability": "nonpayable",
      "type": "function"
    },
    {
      "inputs": [],
      "name": "addWhiteList",
      "outputs": [],
      "stateMutability": "nonpayable",
      "type": "function"
    },
    {
      "inputs": [
        {
          "internalType": "address",
          "name": "_account",
          "type": "address"
        }
      ],
      "name": "calculCalimAmount",
      "outputs": [
        {
          "internalType": "uint256",
          "name": "",
          "type": "uint256"
        }
      ],
      "stateMutability": "view",
      "type": "function"
    },
    {
      "inputs": [
        {
          "internalType": "address",
          "name": "_account",
          "type": "address"
        },
        {
          "internalType": "uint256",
          "name": "_amount",
          "type": "uint256"
        }
      ],
      "name": "calculOpenSaleAmount",
      "outputs": [
        {
          "internalType": "uint256",
          "name": "",
          "type": "uint256"
        }
      ],
      "stateMutability": "view",
      "type": "function"
    },
    {
      "inputs": [
        {
          "internalType": "uint256",
          "name": "_amount",
          "type": "uint256"
        }
      ],
      "name": "calculPayToken",
      "outputs": [
        {
          "internalType": "uint256",
          "name": "",
          "type": "uint256"
        }
      ],
      "stateMutability": "view",
      "type": "function"
    },
    {
      "inputs": [
        {
          "internalType": "uint256",
          "name": "_amount",
          "type": "uint256"
        }
      ],
      "name": "calculSaleToken",
      "outputs": [
        {
          "internalType": "uint256",
          "name": "",
          "type": "uint256"
        }
      ],
      "stateMutability": "view",
      "type": "function"
    },
    {
      "inputs": [
        {
          "internalType": "address",
          "name": "_address",
          "type": "address"
        }
      ],
      "name": "calculTier",
      "outputs": [
        {
          "internalType": "uint256",
          "name": "",
          "type": "uint256"
        }
      ],
      "stateMutability": "view",
      "type": "function"
    },
    {
      "inputs": [
        {
          "internalType": "address",
          "name": "_address",
          "type": "address"
        }
      ],
      "name": "calculTierAmount",
      "outputs": [
        {
          "internalType": "uint256",
          "name": "",
          "type": "uint256"
        }
      ],
      "stateMutability": "view",
      "type": "function"
    },
    {
      "inputs": [],
      "name": "claim",
      "outputs": [],
      "stateMutability": "nonpayable",
      "type": "function"
    },
    {
      "inputs": [],
      "name": "claimInterval",
      "outputs": [
        {
          "internalType": "uint256",
          "name": "",
          "type": "uint256"
        }
      ],
      "stateMutability": "view",
      "type": "function"
    },
    {
      "inputs": [],
      "name": "claimPeriod",
      "outputs": [
        {
          "internalType": "uint256",
          "name": "",
          "type": "uint256"
        }
      ],
      "stateMutability": "view",
      "type": "function"
    },
    {
      "inputs": [
        {
          "internalType": "uint256",
          "name": "_amount",
          "type": "uint256"
        }
      ],
      "name": "deposit",
      "outputs": [],
      "stateMutability": "nonpayable",
      "type": "function"
    },
    {
      "inputs": [
        {
          "internalType": "uint256",
          "name": "",
          "type": "uint256"
        }
      ],
      "name": "depositors",
      "outputs": [
        {
          "internalType": "address",
          "name": "",
          "type": "address"
        }
      ],
      "stateMutability": "view",
      "type": "function"
    },
    {
      "inputs": [],
      "name": "endAddWhiteTime",
      "outputs": [
        {
          "internalType": "uint256",
          "name": "",
          "type": "uint256"
        }
      ],
      "stateMutability": "view",
      "type": "function"
    },
    {
      "inputs": [],
      "name": "endDepositTime",
      "outputs": [
        {
          "internalType": "uint256",
          "name": "",
          "type": "uint256"
        }
      ],
      "stateMutability": "view",
      "type": "function"
    },
    {
      "inputs": [],
      "name": "endExclusiveSale",
      "outputs": [],
      "stateMutability": "nonpayable",
      "type": "function"
    },
    {
      "inputs": [],
      "name": "endExclusiveTime",
      "outputs": [
        {
          "internalType": "uint256",
          "name": "",
          "type": "uint256"
        }
      ],
      "stateMutability": "view",
      "type": "function"
    },
    {
      "inputs": [],
      "name": "endOpenSaleTime",
      "outputs": [
        {
          "internalType": "uint256",
          "name": "",
          "type": "uint256"
        }
      ],
      "stateMutability": "view",
      "type": "function"
    },
    {
      "inputs": [
        {
          "internalType": "uint256",
          "name": "_amount",
          "type": "uint256"
        }
      ],
      "name": "exclusiveSale",
      "outputs": [],
      "stateMutability": "nonpayable",
      "type": "function"
    },
    {
      "inputs": [
        {
          "internalType": "bytes32",
          "name": "role",
          "type": "bytes32"
        }
      ],
      "name": "getRoleAdmin",
      "outputs": [
        {
          "internalType": "bytes32",
          "name": "",
          "type": "bytes32"
        }
      ],
      "stateMutability": "view",
      "type": "function"
    },
    {
      "inputs": [
        {
          "internalType": "bytes32",
          "name": "role",
          "type": "bytes32"
        },
        {
          "internalType": "uint256",
          "name": "index",
          "type": "uint256"
        }
      ],
      "name": "getRoleMember",
      "outputs": [
        {
          "internalType": "address",
          "name": "",
          "type": "address"
        }
      ],
      "stateMutability": "view",
      "type": "function"
    },
    {
      "inputs": [
        {
          "internalType": "bytes32",
          "name": "role",
          "type": "bytes32"
        }
      ],
      "name": "getRoleMemberCount",
      "outputs": [
        {
          "internalType": "uint256",
          "name": "",
          "type": "uint256"
        }
      ],
      "stateMutability": "view",
      "type": "function"
    },
    {
      "inputs": [],
      "name": "getToken",
      "outputs": [
        {
          "internalType": "contract IERC20",
          "name": "",
          "type": "address"
        }
      ],
      "stateMutability": "view",
      "type": "function"
    },
    {
      "inputs": [],
      "name": "getTokenOwner",
      "outputs": [
        {
          "internalType": "address",
          "name": "",
          "type": "address"
        }
      ],
      "stateMutability": "view",
      "type": "function"
    },
    {
      "inputs": [
        {
          "internalType": "bytes32",
          "name": "role",
          "type": "bytes32"
        },
        {
          "internalType": "address",
          "name": "account",
          "type": "address"
        }
      ],
      "name": "grantRole",
      "outputs": [],
      "stateMutability": "nonpayable",
      "type": "function"
    },
    {
      "inputs": [
        {
          "internalType": "bytes32",
          "name": "role",
          "type": "bytes32"
        },
        {
          "internalType": "address",
          "name": "account",
          "type": "address"
        }
      ],
      "name": "hasRole",
      "outputs": [
        {
          "internalType": "bool",
          "name": "",
          "type": "bool"
        }
      ],
      "stateMutability": "view",
      "type": "function"
    },
    {
      "inputs": [
        {
          "internalType": "address",
          "name": "account",
          "type": "address"
        }
      ],
      "name": "isAdmin",
      "outputs": [
        {
          "internalType": "bool",
          "name": "",
          "type": "bool"
        }
      ],
      "stateMutability": "view",
      "type": "function"
    },
    {
      "inputs": [],
      "name": "openSale",
      "outputs": [],
      "stateMutability": "nonpayable",
      "type": "function"
    },
    {
      "inputs": [],
      "name": "pauseProxy",
      "outputs": [
        {
          "internalType": "bool",
          "name": "",
          "type": "bool"
        }
      ],
      "stateMutability": "view",
      "type": "function"
    },
    {
      "inputs": [],
      "name": "payTokenPrice",
      "outputs": [
        {
          "internalType": "uint256",
          "name": "",
          "type": "uint256"
        }
      ],
      "stateMutability": "view",
      "type": "function"
    },
    {
      "inputs": [
        {
          "internalType": "address",
          "name": "account",
          "type": "address"
        }
      ],
      "name": "removeAdmin",
      "outputs": [],
      "stateMutability": "nonpayable",
      "type": "function"
    },
    {
      "inputs": [
        {
          "internalType": "bytes32",
          "name": "role",
          "type": "bytes32"
        },
        {
          "internalType": "address",
          "name": "account",
          "type": "address"
        }
      ],
      "name": "renounceRole",
      "outputs": [],
      "stateMutability": "nonpayable",
      "type": "function"
    },
    {
      "inputs": [
        {
          "internalType": "bytes32",
          "name": "role",
          "type": "bytes32"
        },
        {
          "internalType": "address",
          "name": "account",
          "type": "address"
        }
      ],
      "name": "revokeRole",
      "outputs": [],
      "stateMutability": "nonpayable",
      "type": "function"
    },
    {
      "inputs": [],
      "name": "sTOS",
      "outputs": [
        {
          "internalType": "contract ILockTOS",
          "name": "",
          "type": "address"
        }
      ],
      "stateMutability": "view",
      "type": "function"
    },
    {
      "inputs": [],
      "name": "saleToken",
      "outputs": [
        {
          "internalType": "contract IERC20",
          "name": "",
          "type": "address"
        }
      ],
      "stateMutability": "view",
      "type": "function"
    },
    {
      "inputs": [],
      "name": "saleTokenPrice",
      "outputs": [
        {
          "internalType": "uint256",
          "name": "",
          "type": "uint256"
        }
      ],
      "stateMutability": "view",
      "type": "function"
    },
    {
      "inputs": [
        {
          "internalType": "uint256",
          "name": "_startClaimTime",
          "type": "uint256"
        },
        {
          "internalType": "uint256",
          "name": "_claimInterval",
          "type": "uint256"
        },
        {
          "internalType": "uint256",
          "name": "_claimPeriod",
          "type": "uint256"
        }
      ],
      "name": "setClaim",
      "outputs": [],
      "stateMutability": "nonpayable",
      "type": "function"
    },
    {
      "inputs": [
        {
          "internalType": "uint256",
          "name": "_startAddWhiteTime",
          "type": "uint256"
        },
        {
          "internalType": "uint256",
          "name": "_endAddWhiteTime",
          "type": "uint256"
        },
        {
          "internalType": "uint256",
          "name": "_startExclusiveTime",
          "type": "uint256"
        },
        {
          "internalType": "uint256",
          "name": "_endExclusiveTime",
          "type": "uint256"
        }
      ],
      "name": "setExclusiveTime",
      "outputs": [],
      "stateMutability": "nonpayable",
      "type": "function"
    },
    {
      "inputs": [
        {
          "internalType": "uint256",
          "name": "_startDepositTime",
          "type": "uint256"
        },
        {
          "internalType": "uint256",
          "name": "_endDepositTime",
          "type": "uint256"
        },
        {
          "internalType": "uint256",
          "name": "_startOpenSaleTime",
          "type": "uint256"
        },
        {
          "internalType": "uint256",
          "name": "_endOpenSaleTime",
          "type": "uint256"
        }
      ],
      "name": "setOpenTime",
      "outputs": [],
      "stateMutability": "nonpayable",
      "type": "function"
    },
    {
      "inputs": [
        {
          "internalType": "uint256",
          "name": "_totalExpectSaleAmount",
          "type": "uint256"
        },
        {
          "internalType": "uint256",
          "name": "_totalExpectOpenSaleAmount",
          "type": "uint256"
        }
      ],
      "name": "setSaleAmount",
      "outputs": [],
      "stateMutability": "nonpayable",
      "type": "function"
    },
    {
      "inputs": [
        {
          "internalType": "uint256",
          "name": "_snapshot",
          "type": "uint256"
        }
      ],
      "name": "setSnapshot",
      "outputs": [],
      "stateMutability": "nonpayable",
      "type": "function"
    },
    {
      "inputs": [
        {
          "internalType": "uint256",
          "name": "_tier1",
          "type": "uint256"
        },
        {
          "internalType": "uint256",
          "name": "_tier2",
          "type": "uint256"
        },
        {
          "internalType": "uint256",
          "name": "_tier3",
          "type": "uint256"
        },
        {
          "internalType": "uint256",
          "name": "_tier4",
          "type": "uint256"
        }
      ],
      "name": "setTier",
      "outputs": [],
      "stateMutability": "nonpayable",
      "type": "function"
    },
    {
      "inputs": [
        {
          "internalType": "uint256",
          "name": "_tier1",
          "type": "uint256"
        },
        {
          "internalType": "uint256",
          "name": "_tier2",
          "type": "uint256"
        },
        {
          "internalType": "uint256",
          "name": "_tier3",
          "type": "uint256"
        },
        {
          "internalType": "uint256",
          "name": "_tier4",
          "type": "uint256"
        }
      ],
      "name": "setTierPercents",
      "outputs": [],
      "stateMutability": "nonpayable",
      "type": "function"
    },
    {
      "inputs": [
        {
          "internalType": "uint256",
          "name": "_saleTokenPrice",
          "type": "uint256"
        },
        {
          "internalType": "uint256",
          "name": "_payTokenPrice",
          "type": "uint256"
        }
      ],
      "name": "setTokenPrice",
      "outputs": [],
      "stateMutability": "nonpayable",
      "type": "function"
    },
    {
      "inputs": [],
      "name": "snapshot",
      "outputs": [
        {
          "internalType": "uint256",
          "name": "",
          "type": "uint256"
        }
      ],
      "stateMutability": "view",
      "type": "function"
    },
    {
      "inputs": [],
      "name": "startAddWhiteTime",
      "outputs": [
        {
          "internalType": "uint256",
          "name": "",
          "type": "uint256"
        }
      ],
      "stateMutability": "view",
      "type": "function"
    },
    {
      "inputs": [],
      "name": "startClaimTime",
      "outputs": [
        {
          "internalType": "uint256",
          "name": "",
          "type": "uint256"
        }
      ],
      "stateMutability": "view",
      "type": "function"
    },
    {
      "inputs": [],
      "name": "startDepositTime",
      "outputs": [
        {
          "internalType": "uint256",
          "name": "",
          "type": "uint256"
        }
      ],
      "stateMutability": "view",
      "type": "function"
    },
    {
      "inputs": [],
      "name": "startExclusiveTime",
      "outputs": [
        {
          "internalType": "uint256",
          "name": "",
          "type": "uint256"
        }
      ],
      "stateMutability": "view",
      "type": "function"
    },
    {
      "inputs": [],
      "name": "startOpenSaleTime",
      "outputs": [
        {
          "internalType": "uint256",
          "name": "",
          "type": "uint256"
        }
      ],
      "stateMutability": "view",
      "type": "function"
    },
    {
      "inputs": [
        {
          "internalType": "uint256",
          "name": "",
          "type": "uint256"
        }
      ],
      "name": "tiers",
      "outputs": [
        {
          "internalType": "uint256",
          "name": "",
          "type": "uint256"
        }
      ],
      "stateMutability": "view",
      "type": "function"
    },
    {
      "inputs": [
        {
          "internalType": "uint256",
          "name": "",
          "type": "uint256"
        }
      ],
      "name": "tiersAccount",
      "outputs": [
        {
          "internalType": "uint256",
          "name": "",
          "type": "uint256"
        }
      ],
      "stateMutability": "view",
      "type": "function"
    },
    {
      "inputs": [
        {
          "internalType": "uint256",
          "name": "",
          "type": "uint256"
        }
      ],
      "name": "tiersPercents",
      "outputs": [
        {
          "internalType": "uint256",
          "name": "",
          "type": "uint256"
        }
      ],
      "stateMutability": "view",
      "type": "function"
    },
    {
      "inputs": [],
      "name": "totalDepositAmount",
      "outputs": [
        {
          "internalType": "uint256",
          "name": "",
          "type": "uint256"
        }
      ],
      "stateMutability": "view",
      "type": "function"
    },
    {
      "inputs": [],
      "name": "totalExPurchasedAmount",
      "outputs": [
        {
          "internalType": "uint256",
          "name": "",
          "type": "uint256"
        }
      ],
      "stateMutability": "view",
      "type": "function"
    },
    {
      "inputs": [],
      "name": "totalExSaleAmount",
      "outputs": [
        {
          "internalType": "uint256",
          "name": "",
          "type": "uint256"
        }
      ],
      "stateMutability": "view",
      "type": "function"
    },
    {
      "inputs": [],
      "name": "totalExpectOpenSaleAmount",
      "outputs": [
        {
          "internalType": "uint256",
          "name": "",
          "type": "uint256"
        }
      ],
      "stateMutability": "view",
      "type": "function"
    },
    {
      "inputs": [],
      "name": "totalExpectSaleAmount",
      "outputs": [
        {
          "internalType": "uint256",
          "name": "",
          "type": "uint256"
        }
      ],
      "stateMutability": "view",
      "type": "function"
    },
    {
      "inputs": [],
      "name": "totalOpenPurchasedAmount",
      "outputs": [
        {
          "internalType": "uint256",
          "name": "",
          "type": "uint256"
        }
      ],
      "stateMutability": "view",
      "type": "function"
    },
    {
      "inputs": [],
      "name": "totalOpenSaleAmount",
      "outputs": [
        {
          "internalType": "uint256",
          "name": "",
          "type": "uint256"
        }
      ],
      "stateMutability": "view",
      "type": "function"
    },
    {
      "inputs": [],
      "name": "totalWhitelists",
      "outputs": [
        {
          "internalType": "uint256",
          "name": "",
          "type": "uint256"
        }
      ],
      "stateMutability": "view",
      "type": "function"
    },
    {
      "inputs": [
        {
          "internalType": "address",
          "name": "newAdmin",
          "type": "address"
        }
      ],
      "name": "transferAdmin",
      "outputs": [],
      "stateMutability": "nonpayable",
      "type": "function"
    },
    {
      "inputs": [
        {
          "internalType": "address",
          "name": "",
          "type": "address"
        }
      ],
      "name": "usersClaim",
      "outputs": [
        {
          "internalType": "uint256",
          "name": "totalClaimReward",
          "type": "uint256"
        },
        {
          "internalType": "uint256",
          "name": "periodReward",
          "type": "uint256"
        },
        {
          "internalType": "uint256",
          "name": "claimAmount",
          "type": "uint256"
        }
      ],
      "stateMutability": "view",
      "type": "function"
    },
    {
      "inputs": [
        {
          "internalType": "address",
          "name": "",
          "type": "address"
        }
      ],
      "name": "usersEx",
      "outputs": [
        {
          "internalType": "bool",
          "name": "join",
          "type": "bool"
        },
        {
          "internalType": "uint256",
          "name": "tier",
          "type": "uint256"
        },
        {
          "internalType": "uint256",
          "name": "payAmount",
          "type": "uint256"
        },
        {
          "internalType": "uint256",
          "name": "saleAmount",
          "type": "uint256"
        }
      ],
      "stateMutability": "view",
      "type": "function"
    },
    {
      "inputs": [
        {
          "internalType": "address",
          "name": "",
          "type": "address"
        }
      ],
      "name": "usersOpen",
      "outputs": [
        {
          "internalType": "bool",
          "name": "join",
          "type": "bool"
        },
        {
          "internalType": "uint256",
          "name": "depositAmount",
          "type": "uint256"
        },
        {
          "internalType": "uint256",
          "name": "payAmount",
          "type": "uint256"
        },
        {
          "internalType": "uint256",
          "name": "saleAmount",
          "type": "uint256"
        }
      ],
      "stateMutability": "view",
      "type": "function"
    }
  ],
  "bytecode": "0x60806040526000600155600060025560006003556000600455600060055560006006556000600755600060085560006009556000600a556000600b556000600c556000600d5534801561005157600080fd5b506001602355612ed0806100666000396000f3fe608060405234801561001057600080fd5b50600436106104575760003560e01c80637dc2cd9811610250578063bfc630b111610150578063e016bac4116100c8578063eb685c4711610097578063efe98afd1161007c578063efe98afd14610a56578063f3e16d4814610a7c578063ff6dac7614610a9f57610457565b8063eb685c4714610a2b578063eb8445f814610a4e57610457565b8063e016bac4146109d5578063e495544a146109dd578063e4b2fb7914610a06578063e985e36714610a2357610457565b8063cae9ce1b1161011f578063d539139311610104578063d539139314610999578063d547741f146109a1578063df74e09c146109cd57610457565b8063cae9ce1b14610944578063cb27419d1461096a57610457565b8063bfc630b11461090f578063c3e5763514610917578063c5408d501461091f578063ca15c8731461092757610457565b806395252692116101e3578063a38ffdea116101b2578063b6b55f2511610197578063b6b55f25146108e2578063b7182b95146108ff578063b960ca041461090757610457565b8063a38ffdea146108bd578063a55abb17146108da57610457565b8063952526921461089d5780639711715a146108a5578063a1b89b70146108ad578063a217fddf146108b557610457565b80638a0586c11161021f5780638a0586c11461083e5780638fa7e8e4146108465780639010d07c1461084e57806391d148541461087157610457565b80637dc2cd98146108005780637ecd5c70146108085780638181e8471461082e57806381a9f6d71461083657610457565b806336568abe1161035b57806363a8fd89116102ee5780636c230839116102bd57806370e5410a116102a257806370e5410a146107ca57806375829def146107d257806375b238fc146107f857610457565b80636c2308391461078757806370480275146107a457610457565b806363a8fd891461073d57806366ce72711461074557806367b399a51461074d578063690480051461076a57610457565b8063494600ea1161032a578063494600ea146106e45780634e71d92d1461071057806351d28a7e1461071857806360a2a25c1461072057610457565b806336568abe1461065a57806337bf0719146106865780633ef541b51461068e57806341c0cb771461069657610457565b8063218183a3116103ee57806324d7806c116103bd5780632cbf3188116103a25780632cbf3188146105f75780632dcdbfd3146105ff5780632f2ff15d1461062e57610457565b806324d7806c146105b5578063282c51f3146105ef57610457565b8063218183a31461053d57806321df0da71461056c578063226bf1a414610590578063248a9ca31461059857610457565b8063167ff46f1161042a578063167ff46f146104e15780631785f53c146104e95780631a1197e71461050f5780631bfc751e1461053557610457565b8063039af9eb1461045c5780630a8885501461048b5780630b433a12146104bc5780630e6e12b4146104c4575b600080fd5b6104796004803603602081101561047257600080fd5b5035610ae3565b60408051918252519081900360200190f35b6104ba600480360360808110156104a157600080fd5b5080359060208101359060408101359060600135610af5565b005b610479610b4d565b6104ba600480360360208110156104da57600080fd5b5035610b53565b6104ba610e29565b6104ba600480360360208110156104ff57600080fd5b50356001600160a01b0316611073565b6104796004803603602081101561052557600080fd5b50356001600160a01b03166110e4565b61047961119f565b6104ba6004803603608081101561055357600080fd5b50803590602081013590604081013590606001356111a5565b610574611283565b604080516001600160a01b039092168252519081900360200190f35b610479611292565b610479600480360360208110156105ae57600080fd5b5035611298565b6105db600480360360208110156105cb57600080fd5b50356001600160a01b03166112ad565b604080519115158252519081900360200190f35b6104796112df565b610479611303565b6104ba6004803603608081101561061557600080fd5b5080359060208101359060408101359060600135611309565b6104ba6004803603604081101561064457600080fd5b50803590602001356001600160a01b03166113e7565b6104ba6004803603604081101561067057600080fd5b50803590602001356001600160a01b0316611453565b6105746114b4565b6104796114c3565b6106bc600480360360208110156106ac57600080fd5b50356001600160a01b03166114c9565b6040805194151585526020850193909352838301919091526060830152519081900360800190f35b610479600480360360408110156106fa57600080fd5b506001600160a01b0381351690602001356114f4565b6104ba611550565b610479611778565b6104796004803603602081101561073657600080fd5b503561177e565b6105db6117a3565b6104796117ac565b6104796004803603602081101561076357600080fd5b50356117b2565b6104796004803603602081101561078057600080fd5b50356117c3565b6104ba6004803603602081101561079d57600080fd5b50356117d5565b6104ba600480360360208110156107ba57600080fd5b50356001600160a01b031661181e565b61047961188c565b6104ba600480360360208110156107e857600080fd5b50356001600160a01b0316611892565b6104796119e3565b610479611a07565b6104796004803603602081101561081e57600080fd5b50356001600160a01b0316611a0d565b6104ba611c7f565b610479611e8f565b610479611e95565b6104ba611e9b565b6105746004803603604081101561086457600080fd5b5080359060200135611f07565b6105db6004803603604081101561088757600080fd5b50803590602001356001600160a01b0316611f1f565b610479611f37565b610479611f3d565b610479611f43565b610479611f49565b610479600480360360208110156108d357600080fd5b5035611f4e565b610479611f6c565b6104ba600480360360208110156108f857600080fd5b5035611f72565b610574612136565b610479612145565b61047961214b565b610479612151565b610479612157565b6104796004803603602081101561093d57600080fd5b503561215d565b6106bc6004803603602081101561095a57600080fd5b50356001600160a01b0316612174565b6104ba6004803603608081101561098057600080fd5b508035906020810135906040810135906060013561219f565b6104796121f7565b6104ba600480360360408110156109b757600080fd5b50803590602001356001600160a01b031661221b565b610479612274565b61047961227a565b6104ba600480360360608110156109f357600080fd5b5080359060208101359060400135612280565b61057460048036036020811015610a1c57600080fd5b50356122d2565b6105746122fc565b6104ba60048036036040811015610a4157600080fd5b508035906020013561230b565b61047961235a565b61047960048036036020811015610a6c57600080fd5b50356001600160a01b0316612360565b6104ba60048036036040811015610a9257600080fd5b508035906020013561245c565b610ac560048036036020811015610ab557600080fd5b50356001600160a01b03166124ab565b60408051938452602084019290925282820152519081900360600190f35b601f6020526000908152604090205481565b610afe336112ad565b610b395760405162461bcd60e51b8152600401808060200182810382526022815260200180612da96022913960400191505060405180910390fd5b600293909355600391909155600455600555565b60155481565b60026023541415610bab576040805162461bcd60e51b815260206004820152601f60248201527f5265656e7472616e637947756172643a207265656e7472616e742063616c6c00604482015290519081900360640190fd5b6002602355600454421015610c07576040805162461bcd60e51b815260206004820152601a60248201527f6e65656420746f206578636c7573697665537461727454696d65000000000000604482015290519081900360640190fd5b6005544210610c5d576040805162461bcd60e51b815260206004820152601560248201527f656e6420746865206578636c757369766554696d650000000000000000000000604482015290519081900360640190fd5b336000908152601c60205260409020805460ff161515600114610cc7576040805162461bcd60e51b815260206004820152601c60248201527f6e65656420746f20617474656e64207468652077686974656c69737400000000604482015290519081900360640190fd5b6000610cd283611f4e565b90506000610cdf336110e4565b905081811015610d36576040805162461bcd60e51b815260206004820152601960248201527f6a757374206275792077686974656c69737420616d6f756e7400000000000000604482015290519081900360640190fd5b6003830154610d4590836124cc565b811015610d99576040805162461bcd60e51b815260206004820152601b60248201527f6a757374206275792077686974656c697374656420616d6f756e740000000000604482015290519081900360640190fd5b601954610db1906001600160a01b0316333087612526565b601754601954610dce916001600160a01b039182169116866125ae565b336000908152601e60205260408120600285018054870190556003850180548501905580548401808255601654919291610e089190612633565b60019283015550600d805490950190945550600c8054909101905550602355565b600854421015610e80576040805162461bcd60e51b815260206004820152601860248201527f646f6e2774207374617274206f70656e53616c6554696d650000000000000000604482015290519081900360640190fd5b6009544210610ed6576040805162461bcd60e51b815260206004820152601460248201527f656e6420746865206f70656e53616c6554696d65000000000000000000000000604482015290519081900360640190fd5b336000908152601d60209081526040808320601e909252909120815460ff161515600114610f4b576040805162461bcd60e51b815260206004820152601a60248201527f6e65656420746f20617474656e6420746865206465706f736974000000000000604482015290519081900360640190fd5b6000610f583360006114f4565b90506000610f658261177e565b90508360010154811015610ffb576001840154600090610f859083612675565b601954909150610f9f906001600160a01b031633836125ae565b601754601954610fbc916001600160a01b039182169116846125ae565b6002850180548301905560038501805484019055600f80548401905583548301808555601654600091610fee91612633565b60018601555061106d9050565b601754600185015460195461101e926001600160a01b03918216929116906125ae565b60018401546002850180548201905560009061103990611f4e565b60038601805482019055600f805482019055845481018086556016549192506000916110659190612633565b600186015550505b50505050565b61107c336112ad565b6110b75760405162461bcd60e51b8152600401808060200182810382526022815260200180612da96022913960400191505060405180910390fd5b6110e17fdf8b4c520ffe197c5343c6f5aec59570151ef9a492f2c624fd45ddde6135ec4282611453565b50565b6001600160a01b0381166000908152601c602052604081208161110684611a0d565b825490915060ff161515600114156111575760008181526020808052604080832054602190925282205460115461114c92612710926111469283916126b7565b90612633565b935061119a92505050565b6000818152602080805260408083205460219092528220546011546001909201929161118e916127109161114691869183916126b7565b945061119a9350505050565b919050565b600a5481565b6111ae336112ad565b6111e95760405162461bcd60e51b8152600401808060200182810382526022815260200180612da96022913960400191505060405180910390fd5b60216020527f2b59c9df127166d3570f589f0cb7377a6b175795e70ab275ebf42fa16c0a23f4939093557f914a2534c436de5a3f77164e6b9b90d20144139ce899b6a8d30a442e7b9ef533919091557fbae8fb7bb9008c9bfa6625328b7613a2bedfb2f936a7718f51173039a77c107c5560046000527f1ae06646c6742a506302a1833f6c3f508643fd4c5dcb1e323706d5c3441af29855565b6019546001600160a01b031681565b60145481565b60009081526022602052604090206002015490565b60006112d97fdf8b4c520ffe197c5343c6f5aec59570151ef9a492f2c624fd45ddde6135ec4283611f1f565b92915050565b7f9667e80708b6eeeb0053fa0cca44e028ff548e2a9f029edfeac87c118b08b7c881565b600f5481565b611312336112ad565b61134d5760405162461bcd60e51b8152600401808060200182810382526022815260200180612da96022913960400191505060405180910390fd5b601f6020527f820fef5837650fa3b8e45045b88059d8deaf0810350ec511c47ef768a28c2c9b939093557f5af4fb70d755f38349f04272636124ff9474fedf9ea09deea577daa305383b10919091557f9e71908050462d95d85d10ec71f33c35476f5af9a2363ff3b4f561b1ea6200505560046000527f44ef42eef5af19d25d4e44ae57c825e0d0624b9f37f2474ab961410a0aa295ff55565b60008281526022602052604090206002015461140a90611405612710565b611f1f565b6114455760405162461bcd60e51b815260040180806020018281038252602f815260200180612d7a602f913960400191505060405180910390fd5b61144f8282612714565b5050565b61145b612710565b6001600160a01b0316816001600160a01b0316146114aa5760405162461bcd60e51b815260040180806020018281038252602f815260200180612e6c602f913960400191505060405180910390fd5b61144f828261277d565b601a546001600160a01b031681565b60075481565b601d60205260009081526040902080546001820154600283015460039093015460ff90921692909184565b6001600160a01b0382166000908152601d602052604081206001810154829061151d90856124cc565b9050600061154661153986600e546124cc90919063ffffffff16565b60125461114690856126b7565b9695505050505050565b600a544210156115a7576040805162461bcd60e51b815260206004820152601560248201527f646f6e277420737461727420636c61696d54696d650000000000000000000000604482015290519081900360640190fd5b336000908152601e602052604090208054611609576040805162461bcd60e51b815260206004820152601660248201527f6e656564207468652070617274696369706174696f6e00000000000000000000604482015290519081900360640190fd5b600061161433612360565b90508082600201548360000154031015611675576040805162461bcd60e51b815260206004820152601c60248201527f7573657220697320616c726561647920676574416c6c72657761726400000000604482015290519081900360640190fd5b601854604080517f70a08231000000000000000000000000000000000000000000000000000000008152306004820152905183926001600160a01b0316916370a08231916024808301926020929190829003018186803b1580156116d857600080fd5b505afa1580156116ec573d6000803e3d6000fd5b505050506040513d602081101561170257600080fd5b50511015611757576040805162461bcd60e51b815260206004820152601b60248201527f646f6e7420686176652073616c65546f6b656e20696e20706f6f6c0000000000604482015290519081900360640190fd5b6002820180548201905560185461144f906001600160a01b031633836125ae565b60135481565b60008061179c601454611146601354866126b790919063ffffffff16565b9392505050565b60005460ff1681565b60055481565b602080526000908152604090205481565b60216020526000908152604090205481565b6117de336112ad565b6118195760405162461bcd60e51b8152600401808060200182810382526022815260200180612da96022913960400191505060405180910390fd5b600155565b611827336112ad565b6118625760405162461bcd60e51b8152600401808060200182810382526022815260200180612da96022913960400191505060405180910390fd5b6110e17fdf8b4c520ffe197c5343c6f5aec59570151ef9a492f2c624fd45ddde6135ec42826113e7565b60105481565b61189b336112ad565b6118d65760405162461bcd60e51b8152600401808060200182810382526022815260200180612da96022913960400191505060405180910390fd5b6001600160a01b038116611931576040805162461bcd60e51b815260206004820152601860248201527f41636365737369626c653a207a65726f20616464726573730000000000000000604482015290519081900360640190fd5b336001600160a01b038216141561198f576040805162461bcd60e51b815260206004820152601660248201527f41636365737369626c653a2073616d652061646d696e00000000000000000000604482015290519081900360640190fd5b6119b97fdf8b4c520ffe197c5343c6f5aec59570151ef9a492f2c624fd45ddde6135ec42826113e7565b6110e17fdf8b4c520ffe197c5343c6f5aec59570151ef9a492f2c624fd45ddde6135ec4233611453565b7fdf8b4c520ffe197c5343c6f5aec59570151ef9a492f2c624fd45ddde6135ec4281565b60165481565b601a54600154604080517f4ee2cd7e0000000000000000000000000000000000000000000000000000000081526001600160a01b0385811660048301526024820193909352905160009384931691634ee2cd7e916044808301926020929190829003018186803b158015611a8057600080fd5b505afa158015611a94573d6000803e3d6000fd5b505050506040513d6020811015611aaa57600080fd5b505160016000908152601f6020527f820fef5837650fa3b8e45045b88059d8deaf0810350ec511c47ef768a28c2c9b54919250908210801590611b1757506002600052601f6020527f5af4fb70d755f38349f04272636124ff9474fedf9ea09deea577daa305383b105482105b15611b245750600161179c565b6002600052601f6020527f5af4fb70d755f38349f04272636124ff9474fedf9ea09deea577daa305383b10548210801590611b8957506003600052601f6020527f9e71908050462d95d85d10ec71f33c35476f5af9a2363ff3b4f561b1ea6200505482105b15611b965750600261179c565b6003600052601f6020527f9e71908050462d95d85d10ec71f33c35476f5af9a2363ff3b4f561b1ea620050548210801590611bfb57506004600052601f6020527f44ef42eef5af19d25d4e44ae57c825e0d0624b9f37f2474ab961410a0aa295ff5482105b15611c085750600361179c565b6004600052601f6020527f44ef42eef5af19d25d4e44ae57c825e0d0624b9f37f2474ab961410a0aa295ff548210611c425750600461179c565b6001600052601f6020527f820fef5837650fa3b8e45045b88059d8deaf0810350ec511c47ef768a28c2c9b5482101561179c575060009392505050565b60026023541415611cd7576040805162461bcd60e51b815260206004820152601f60248201527f5265656e7472616e637947756172643a207265656e7472616e742063616c6c00604482015290519081900360640190fd5b6002602381905554421015611d33576040805162461bcd60e51b815260206004820152601a60248201527f6e65656420746f2077686974656c697374537461727454696d65000000000000604482015290519081900360640190fd5b6003544210611d89576040805162461bcd60e51b815260206004820152601560248201527f656e64207468652077686974656c69737454696d650000000000000000000000604482015290519081900360640190fd5b6000611d9433611a0d565b90506001811015611dec576040805162461bcd60e51b815260206004820152601960248201527f6e65656420746f206d6f72652073544f532062616c616e636500000000000000604482015290519081900360640190fd5b60008181526020808052604080832080546001908101909155338452601c9092529091208054909160ff90911615151415611e6e576040805162461bcd60e51b815260206004820152601c60248201527f616c726561647920796f7520617474656e642077686974656c69737400000000604482015290519081900360640190fd5b805460ff19166001908117825590810191909155600b805482019055602355565b60065481565b60085481565b611ea4336112ad565b611edf5760405162461bcd60e51b8152600401808060200182810382526022815260200180612da96022913960400191505060405180910390fd5b611f02600c54611efc6011546012546124cc90919063ffffffff16565b90612675565b601255565b600082815260226020526040812061179c90836127e6565b600082815260226020526040812061179c90836127f2565b60025481565b60015481565b600b5481565b600081565b60008061179c601354611146601454866126b790919063ffffffff16565b600d5481565b60026023541415611fca576040805162461bcd60e51b815260206004820152601f60248201527f5265656e7472616e637947756172643a207265656e7472616e742063616c6c00604482015290519081900360640190fd5b6002602355600654421015612026576040805162461bcd60e51b815260206004820152601760248201527f646f6e2774207374617274206465706f73697454696d65000000000000000000604482015290519081900360640190fd5b600754421061207c576040805162461bcd60e51b815260206004820152601360248201527f656e6420746865206465706f73697454696d6500000000000000000000000000604482015290519081900360640190fd5b336000818152601d6020526040902060195490916120a5916001600160a01b0316903085612526565b805460ff1916600190811782558101546120bf90836124cc565b6001820155600e546120d190836124cc565b600e555050601b8054600181810183556000929092527f3ad8aa4f87544323a9d1e5dd902f40c356527a7955687113db5f9a85ad579dc10180547fffffffffffffffffffffffff00000000000000000000000000000000000000001633179055602355565b6017546001600160a01b031681565b60115481565b60125481565b60035481565b600e5481565b60008181526022602052604081206112d990612807565b601c60205260009081526040902080546001820154600283015460039093015460ff90921692909184565b6121a8336112ad565b6121e35760405162461bcd60e51b8152600401808060200182810382526022815260200180612da96022913960400191505060405180910390fd5b600693909355600791909155600855600955565b7ff0887ba65ee2024ea881d91b74c2450ef19e1557f03bed3ea9f16b037cbe2dc981565b60008281526022602052604090206002015461223990611405612710565b6114aa5760405162461bcd60e51b8152600401808060200182810382526030815260200180612df16030913960400191505060405180910390fd5b60095481565b60045481565b612289336112ad565b6122c45760405162461bcd60e51b8152600401808060200182810382526022815260200180612da96022913960400191505060405180910390fd5b600a92909255601555601655565b601b81815481106122e257600080fd5b6000918252602090912001546001600160a01b0316905081565b6018546001600160a01b031681565b612314336112ad565b61234f5760405162461bcd60e51b8152600401808060200182810382526022815260200180612da96022913960400191505060405180910390fd5b601391909155601455565b600c5481565b6000600a544210156123b9576040805162461bcd60e51b815260206004820152601560248201527f646f6e277420737461727420636c61696d54696d650000000000000000000000604482015290519081900360640190fd5b6001600160a01b0382166000908152601e60205260409020600a5460155442919091039081101561240b57600060019050600061118e8460020154611efc8487600101546126b790919063ffffffff16565b6000601554828161241857fe5b046001019050601654811061243b576002830154835460009161118e9190612675565b600061118e8460020154611efc8487600101546126b790919063ffffffff16565b612465336112ad565b6124a05760405162461bcd60e51b8152600401808060200182810382526022815260200180612da96022913960400191505060405180910390fd5b601191909155601255565b601e6020526000908152604090208054600182015460029092015490919083565b60008282018381101561179c576040805162461bcd60e51b815260206004820152601b60248201527f536166654d6174683a206164646974696f6e206f766572666c6f770000000000604482015290519081900360640190fd5b604080516001600160a01b0380861660248301528416604482015260648082018490528251808303909101815260849091019091526020810180517bffffffffffffffffffffffffffffffffffffffffffffffffffffffff167f23b872dd0000000000000000000000000000000000000000000000000000000017905261106d908590612812565b604080516001600160a01b038416602482015260448082018490528251808303909101815260649091019091526020810180517bffffffffffffffffffffffffffffffffffffffffffffffffffffffff167fa9059cbb0000000000000000000000000000000000000000000000000000000017905261262e908490612812565b505050565b600061179c83836040518060400160405280601a81526020017f536166654d6174683a206469766973696f6e206279207a65726f0000000000008152506128c3565b600061179c83836040518060400160405280601e81526020017f536166654d6174683a207375627472616374696f6e206f766572666c6f770000815250612965565b6000826126c6575060006112d9565b828202828482816126d357fe5b041461179c5760405162461bcd60e51b8152600401808060200182810382526021815260200180612e216021913960400191505060405180910390fd5b3390565b600082815260226020526040902061272c90826129bf565b1561144f57612739612710565b6001600160a01b0316816001600160a01b0316837f2f8788117e7eff1d82e926ec794901d17c78024a50270940304540a733656f0d60405160405180910390a45050565b600082815260226020526040902061279590826129d4565b1561144f576127a2612710565b6001600160a01b0316816001600160a01b0316837ff6391f5c32d9c69d2a47ea670b442974b53935d1edc7fd64eb21e047a839171b60405160405180910390a45050565b600061179c83836129e9565b600061179c836001600160a01b038416612a4d565b60006112d982612a65565b6000612867826040518060400160405280602081526020017f5361666545524332303a206c6f772d6c6576656c2063616c6c206661696c6564815250856001600160a01b0316612a699092919063ffffffff16565b80519091501561262e5780806020019051602081101561288657600080fd5b505161262e5760405162461bcd60e51b815260040180806020018281038252602a815260200180612e42602a913960400191505060405180910390fd5b6000818361294f5760405162461bcd60e51b81526004018080602001828103825283818151815260200191508051906020019080838360005b838110156129145781810151838201526020016128fc565b50505050905090810190601f1680156129415780820380516001836020036101000a031916815260200191505b509250505060405180910390fd5b50600083858161295b57fe5b0495945050505050565b600081848411156129b75760405162461bcd60e51b81526020600482018181528351602484015283519092839260449091019190850190808383600083156129145781810151838201526020016128fc565b505050900390565b600061179c836001600160a01b038416612a80565b600061179c836001600160a01b038416612aca565b81546000908210612a2b5760405162461bcd60e51b8152600401808060200182810382526022815260200180612d586022913960400191505060405180910390fd5b826000018281548110612a3a57fe5b9060005260206000200154905092915050565b60009081526001919091016020526040902054151590565b5490565b6060612a788484600085612b90565b949350505050565b6000612a8c8383612a4d565b612ac2575081546001818101845560008481526020808220909301849055845484825282860190935260409020919091556112d9565b5060006112d9565b60008181526001830160205260408120548015612b865783546000198083019190810190600090879083908110612afd57fe5b9060005260206000200154905080876000018481548110612b1a57fe5b600091825260208083209091019290925582815260018981019092526040902090840190558654879080612b4a57fe5b600190038181906000526020600020016000905590558660010160008781526020019081526020016000206000905560019450505050506112d9565b60009150506112d9565b606082471015612bd15760405162461bcd60e51b8152600401808060200182810382526026815260200180612dcb6026913960400191505060405180910390fd5b612bda85612ceb565b612c2b576040805162461bcd60e51b815260206004820152601d60248201527f416464726573733a2063616c6c20746f206e6f6e2d636f6e7472616374000000604482015290519081900360640190fd5b600080866001600160a01b031685876040518082805190602001908083835b60208310612c695780518252601f199092019160209182019101612c4a565b6001836020036101000a03801982511681845116808217855250505050505090500191505060006040518083038185875af1925050503d8060008114612ccb576040519150601f19603f3d011682016040523d82523d6000602084013e612cd0565b606091505b5091509150612ce0828286612cf1565b979650505050505050565b3b151590565b60608315612d0057508161179c565b825115612d105782518084602001fd5b60405162461bcd60e51b81526020600482018181528451602484015284518593919283926044019190850190808383600083156129145781810151838201526020016128fc56fe456e756d657261626c655365743a20696e646578206f7574206f6620626f756e6473416363657373436f6e74726f6c3a2073656e646572206d75737420626520616e2061646d696e20746f206772616e7441636365737369626c653a2043616c6c6572206973206e6f7420616e2061646d696e416464726573733a20696e73756666696369656e742062616c616e636520666f722063616c6c416363657373436f6e74726f6c3a2073656e646572206d75737420626520616e2061646d696e20746f207265766f6b65536166654d6174683a206d756c7469706c69636174696f6e206f766572666c6f775361666545524332303a204552433230206f7065726174696f6e20646964206e6f742073756363656564416363657373436f6e74726f6c3a2063616e206f6e6c792072656e6f756e636520726f6c657320666f722073656c66a2646970667358221220cb9d4e8923e9df6beaf45d02d18d7cea6eda4163e53abb63f42122fb4a3fa79d64736f6c63430007060033",
  "linkReferences": {},
  "deployedLinkReferences": {}
}