{
  "_format": "hh-sol-artifact-1",
  "contractName": "PublicSale2",
  "sourceName": "contracts/sale/PublicSale2.sol",
  "abi": [
    {
      "anonymous": false,
      "inputs": [
        {
          "indexed": true,
          "internalType": "address",
          "name": "from",
          "type": "address"
        },
        {
          "indexed": false,
          "internalType": "uint256",
          "name": "tier",
          "type": "uint256"
        }
      ],
      "name": "AddedWhiteList",
      "type": "event"
    },
    {
      "anonymous": false,
      "inputs": [
        {
          "indexed": true,
          "internalType": "address",
          "name": "from",
          "type": "address"
        },
        {
          "indexed": false,
          "internalType": "uint256",
          "name": "amount",
          "type": "uint256"
        }
      ],
      "name": "Claimed",
      "type": "event"
    },
    {
      "anonymous": false,
      "inputs": [
        {
          "indexed": true,
          "internalType": "address",
          "name": "from",
          "type": "address"
        },
        {
          "indexed": false,
          "internalType": "uint256",
          "name": "amount",
          "type": "uint256"
        },
        {
          "indexed": false,
          "internalType": "uint256",
          "name": "liquidityAmount",
          "type": "uint256"
        }
      ],
      "name": "DepositWithdrawal",
      "type": "event"
    },
    {
      "anonymous": false,
      "inputs": [
        {
          "indexed": true,
          "internalType": "address",
          "name": "from",
          "type": "address"
        },
        {
          "indexed": false,
          "internalType": "uint256",
          "name": "amount",
          "type": "uint256"
        }
      ],
      "name": "Deposited",
      "type": "event"
    },
    {
      "anonymous": false,
      "inputs": [
        {
          "indexed": true,
          "internalType": "address",
          "name": "from",
          "type": "address"
        },
        {
          "indexed": false,
          "internalType": "uint256",
          "name": "amount",
          "type": "uint256"
        }
      ],
      "name": "ExclusiveSaled",
      "type": "event"
    },
    {
      "anonymous": false,
      "inputs": [
        {
          "indexed": true,
          "internalType": "address",
          "name": "from",
          "type": "address"
        },
        {
          "indexed": false,
          "internalType": "uint256",
          "name": "amount",
          "type": "uint256"
        }
      ],
      "name": "Refunded",
      "type": "event"
    },
    {
      "anonymous": false,
      "inputs": [
        {
          "indexed": true,
          "internalType": "bytes32",
          "name": "role",
          "type": "bytes32"
        },
        {
          "indexed": true,
          "internalType": "bytes32",
          "name": "previousAdminRole",
          "type": "bytes32"
        },
        {
          "indexed": true,
          "internalType": "bytes32",
          "name": "newAdminRole",
          "type": "bytes32"
        }
      ],
      "name": "RoleAdminChanged",
      "type": "event"
    },
    {
      "anonymous": false,
      "inputs": [
        {
          "indexed": true,
          "internalType": "bytes32",
          "name": "role",
          "type": "bytes32"
        },
        {
          "indexed": true,
          "internalType": "address",
          "name": "account",
          "type": "address"
        },
        {
          "indexed": true,
          "internalType": "address",
          "name": "sender",
          "type": "address"
        }
      ],
      "name": "RoleGranted",
      "type": "event"
    },
    {
      "anonymous": false,
      "inputs": [
        {
          "indexed": true,
          "internalType": "bytes32",
          "name": "role",
          "type": "bytes32"
        },
        {
          "indexed": true,
          "internalType": "address",
          "name": "account",
          "type": "address"
        },
        {
          "indexed": true,
          "internalType": "address",
          "name": "sender",
          "type": "address"
        }
      ],
      "name": "RoleRevoked",
      "type": "event"
    },
    {
      "anonymous": false,
      "inputs": [
        {
          "indexed": true,
          "internalType": "address",
          "name": "from",
          "type": "address"
        },
        {
          "indexed": false,
          "internalType": "uint256",
          "name": "amount",
          "type": "uint256"
        }
      ],
      "name": "Withdrawal",
      "type": "event"
    },
    {
      "inputs": [],
      "name": "ADMIN_ROLE",
      "outputs": [
        {
          "internalType": "bytes32",
          "name": "",
          "type": "bytes32"
        }
      ],
      "stateMutability": "view",
      "type": "function"
    },
    {
      "inputs": [],
      "name": "BURNER_ROLE",
      "outputs": [
        {
          "internalType": "bytes32",
          "name": "",
          "type": "bytes32"
        }
      ],
      "stateMutability": "view",
      "type": "function"
    },
    {
      "inputs": [],
      "name": "DEFAULT_ADMIN_ROLE",
      "outputs": [
        {
          "internalType": "bytes32",
          "name": "",
          "type": "bytes32"
        }
      ],
      "stateMutability": "view",
      "type": "function"
    },
    {
      "inputs": [],
      "name": "MINTER_ROLE",
      "outputs": [
        {
          "internalType": "bytes32",
          "name": "",
          "type": "bytes32"
        }
      ],
      "stateMutability": "view",
      "type": "function"
    },
    {
      "inputs": [],
      "name": "PROJECT_ADMIN_ROLE",
      "outputs": [
        {
          "internalType": "bytes32",
          "name": "",
          "type": "bytes32"
        }
      ],
      "stateMutability": "view",
      "type": "function"
    },
    {
      "inputs": [
        {
          "internalType": "bytes",
          "name": "data",
          "type": "bytes"
        }
      ],
      "name": "_decodeApproveData",
      "outputs": [
        {
          "internalType": "uint256",
          "name": "approveData",
          "type": "uint256"
        }
      ],
      "stateMutability": "pure",
      "type": "function"
    },
    {
      "inputs": [
        {
          "internalType": "uint256",
          "name": "v",
          "type": "uint256"
        }
      ],
      "name": "_toWAD",
      "outputs": [
        {
          "internalType": "uint256",
          "name": "",
          "type": "uint256"
        }
      ],
      "stateMutability": "pure",
      "type": "function"
    },
    {
      "inputs": [
        {
          "internalType": "address",
          "name": "account",
          "type": "address"
        }
      ],
      "name": "addAdmin",
      "outputs": [],
      "stateMutability": "nonpayable",
      "type": "function"
    },
    {
      "inputs": [
        {
          "internalType": "address",
          "name": "_owner",
          "type": "address"
        }
      ],
      "name": "addProxyAdmin",
      "outputs": [],
      "stateMutability": "nonpayable",
      "type": "function"
    },
    {
      "inputs": [],
      "name": "addWhiteList",
      "outputs": [],
      "stateMutability": "nonpayable",
      "type": "function"
    },
    {
      "inputs": [],
      "name": "adminWithdraw",
      "outputs": [
        {
          "internalType": "bool",
          "name": "",
          "type": "bool"
        }
      ],
      "stateMutability": "view",
      "type": "function"
    },
    {
      "inputs": [
        {
          "internalType": "address",
          "name": "_account",
          "type": "address"
        },
        {
          "internalType": "uint256",
          "name": "_round",
          "type": "uint256"
        }
      ],
      "name": "calculClaimAmount",
      "outputs": [
        {
          "internalType": "uint256",
          "name": "_reward",
          "type": "uint256"
        },
        {
          "internalType": "uint256",
          "name": "_totalClaim",
          "type": "uint256"
        },
        {
          "internalType": "uint256",
          "name": "_refundAmount",
          "type": "uint256"
        }
      ],
      "stateMutability": "view",
      "type": "function"
    },
    {
      "inputs": [
        {
          "internalType": "address",
          "name": "_account",
          "type": "address"
        },
        {
          "internalType": "uint256",
          "name": "_amount",
          "type": "uint256"
        }
      ],
      "name": "calculOpenSaleAmount",
      "outputs": [
        {
          "internalType": "uint256",
          "name": "",
          "type": "uint256"
        }
      ],
      "stateMutability": "view",
      "type": "function"
    },
    {
      "inputs": [
        {
          "internalType": "uint256",
          "name": "_amount",
          "type": "uint256"
        }
      ],
      "name": "calculPayToken",
      "outputs": [
        {
          "internalType": "uint256",
          "name": "",
          "type": "uint256"
        }
      ],
      "stateMutability": "view",
      "type": "function"
    },
    {
      "inputs": [
        {
          "internalType": "uint256",
          "name": "_amount",
          "type": "uint256"
        }
      ],
      "name": "calculSaleToken",
      "outputs": [
        {
          "internalType": "uint256",
          "name": "",
          "type": "uint256"
        }
      ],
      "stateMutability": "view",
      "type": "function"
    },
    {
      "inputs": [
        {
          "internalType": "address",
          "name": "_address",
          "type": "address"
        }
      ],
      "name": "calculTier",
      "outputs": [
        {
          "internalType": "uint256",
          "name": "",
          "type": "uint256"
        }
      ],
      "stateMutability": "view",
      "type": "function"
    },
    {
      "inputs": [
        {
          "internalType": "address",
          "name": "_address",
          "type": "address"
        }
      ],
      "name": "calculTierAmount",
      "outputs": [
        {
          "internalType": "uint256",
          "name": "",
          "type": "uint256"
        }
      ],
      "stateMutability": "view",
      "type": "function"
    },
    {
      "inputs": [
        {
          "internalType": "address",
          "name": "_address",
          "type": "address"
        }
      ],
      "name": "changeTONOwner",
      "outputs": [],
      "stateMutability": "nonpayable",
      "type": "function"
    },
    {
      "inputs": [],
      "name": "changeTOS",
      "outputs": [
        {
          "internalType": "uint256",
          "name": "",
          "type": "uint256"
        }
      ],
      "stateMutability": "view",
      "type": "function"
    },
    {
      "inputs": [],
      "name": "changeTick",
      "outputs": [
        {
          "internalType": "int24",
          "name": "",
          "type": "int24"
        }
      ],
      "stateMutability": "view",
      "type": "function"
    },
    {
      "inputs": [],
      "name": "claim",
      "outputs": [],
      "stateMutability": "nonpayable",
      "type": "function"
    },
    {
      "inputs": [],
      "name": "claimFirst",
      "outputs": [
        {
          "internalType": "uint256",
          "name": "",
          "type": "uint256"
        }
      ],
      "stateMutability": "view",
      "type": "function"
    },
    {
      "inputs": [],
      "name": "claimInterval",
      "outputs": [
        {
          "internalType": "uint256",
          "name": "",
          "type": "uint256"
        }
      ],
      "stateMutability": "view",
      "type": "function"
    },
    {
      "inputs": [
        {
          "internalType": "uint256",
          "name": "",
          "type": "uint256"
        }
      ],
      "name": "claimPercents",
      "outputs": [
        {
          "internalType": "uint256",
          "name": "",
          "type": "uint256"
        }
      ],
      "stateMutability": "view",
      "type": "function"
    },
    {
      "inputs": [],
      "name": "claimPeriod",
      "outputs": [
        {
          "internalType": "uint256",
          "name": "",
          "type": "uint256"
        }
      ],
      "stateMutability": "view",
      "type": "function"
    },
    {
      "inputs": [
        {
          "internalType": "uint256",
          "name": "",
          "type": "uint256"
        }
      ],
      "name": "claimTimes",
      "outputs": [
        {
          "internalType": "uint256",
          "name": "",
          "type": "uint256"
        }
      ],
      "stateMutability": "view",
      "type": "function"
    },
    {
      "inputs": [],
      "name": "currentRound",
      "outputs": [
        {
          "internalType": "uint256",
          "name": "round",
          "type": "uint256"
        }
      ],
      "stateMutability": "view",
      "type": "function"
    },
    {
      "inputs": [],
      "name": "delayTime",
      "outputs": [
        {
          "internalType": "uint256",
          "name": "",
          "type": "uint256"
        }
      ],
      "stateMutability": "view",
      "type": "function"
    },
    {
      "inputs": [],
      "name": "deployTime",
      "outputs": [
        {
          "internalType": "uint256",
          "name": "",
          "type": "uint256"
        }
      ],
      "stateMutability": "view",
      "type": "function"
    },
    {
      "inputs": [
        {
          "internalType": "address",
          "name": "_sender",
          "type": "address"
        },
        {
          "internalType": "uint256",
          "name": "_amount",
          "type": "uint256"
        }
      ],
      "name": "deposit",
      "outputs": [],
      "stateMutability": "nonpayable",
      "type": "function"
    },
    {
      "inputs": [],
      "name": "depositWithdraw",
      "outputs": [],
      "stateMutability": "nonpayable",
      "type": "function"
    },
    {
      "inputs": [
        {
          "internalType": "uint256",
          "name": "",
          "type": "uint256"
        }
      ],
      "name": "depositors",
      "outputs": [
        {
          "internalType": "address",
          "name": "",
          "type": "address"
        }
      ],
      "stateMutability": "view",
      "type": "function"
    },
    {
      "inputs": [],
      "name": "endAddWhiteTime",
      "outputs": [
        {
          "internalType": "uint256",
          "name": "",
          "type": "uint256"
        }
      ],
      "stateMutability": "view",
      "type": "function"
    },
    {
      "inputs": [],
      "name": "endDepositTime",
      "outputs": [
        {
          "internalType": "uint256",
          "name": "",
          "type": "uint256"
        }
      ],
      "stateMutability": "view",
      "type": "function"
    },
    {
      "inputs": [],
      "name": "endExclusiveTime",
      "outputs": [
        {
          "internalType": "uint256",
          "name": "",
          "type": "uint256"
        }
      ],
      "stateMutability": "view",
      "type": "function"
    },
    {
      "inputs": [],
      "name": "exchangeTOS",
      "outputs": [
        {
          "internalType": "bool",
          "name": "",
          "type": "bool"
        }
      ],
      "stateMutability": "view",
      "type": "function"
    },
    {
      "inputs": [
        {
          "internalType": "uint256",
          "name": "amountIn",
          "type": "uint256"
        },
        {
          "internalType": "address",
          "name": "poolAddress",
          "type": "address"
        }
      ],
      "name": "exchangeWTONtoTOS",
      "outputs": [],
      "stateMutability": "nonpayable",
      "type": "function"
    },
    {
      "inputs": [
        {
          "internalType": "address",
          "name": "_sender",
          "type": "address"
        },
        {
          "internalType": "uint256",
          "name": "_amount",
          "type": "uint256"
        }
      ],
      "name": "exclusiveSale",
      "outputs": [],
      "stateMutability": "nonpayable",
      "type": "function"
    },
    {
      "inputs": [
        {
          "internalType": "bytes32",
          "name": "role",
          "type": "bytes32"
        }
      ],
      "name": "getRoleAdmin",
      "outputs": [
        {
          "internalType": "bytes32",
          "name": "",
          "type": "bytes32"
        }
      ],
      "stateMutability": "view",
      "type": "function"
    },
    {
      "inputs": [
        {
          "internalType": "bytes32",
          "name": "role",
          "type": "bytes32"
        },
        {
          "internalType": "uint256",
          "name": "index",
          "type": "uint256"
        }
      ],
      "name": "getRoleMember",
      "outputs": [
        {
          "internalType": "address",
          "name": "",
          "type": "address"
        }
      ],
      "stateMutability": "view",
      "type": "function"
    },
    {
      "inputs": [
        {
          "internalType": "bytes32",
          "name": "role",
          "type": "bytes32"
        }
      ],
      "name": "getRoleMemberCount",
      "outputs": [
        {
          "internalType": "uint256",
          "name": "",
          "type": "uint256"
        }
      ],
      "stateMutability": "view",
      "type": "function"
    },
    {
      "inputs": [],
      "name": "getToken",
      "outputs": [
        {
          "internalType": "address",
          "name": "",
          "type": "address"
        }
      ],
      "stateMutability": "view",
      "type": "function"
    },
    {
      "inputs": [],
      "name": "getTokenOwner",
      "outputs": [
        {
          "internalType": "address",
          "name": "",
          "type": "address"
        }
      ],
      "stateMutability": "view",
      "type": "function"
    },
    {
      "inputs": [
        {
          "internalType": "bytes32",
          "name": "role",
          "type": "bytes32"
        },
        {
          "internalType": "address",
          "name": "account",
          "type": "address"
        }
      ],
      "name": "grantRole",
      "outputs": [],
      "stateMutability": "nonpayable",
      "type": "function"
    },
    {
      "inputs": [],
      "name": "hardCap",
      "outputs": [
        {
          "internalType": "uint256",
          "name": "",
          "type": "uint256"
        }
      ],
      "stateMutability": "view",
      "type": "function"
    },
    {
      "inputs": [],
      "name": "hardcapCalcul",
      "outputs": [
        {
          "internalType": "uint256",
          "name": "",
          "type": "uint256"
        }
      ],
      "stateMutability": "view",
      "type": "function"
    },
    {
      "inputs": [
        {
          "internalType": "bytes32",
          "name": "role",
          "type": "bytes32"
        },
        {
          "internalType": "address",
          "name": "account",
          "type": "address"
        }
      ],
      "name": "hasRole",
      "outputs": [
        {
          "internalType": "bool",
          "name": "",
          "type": "bool"
        }
      ],
      "stateMutability": "view",
      "type": "function"
    },
    {
      "inputs": [
        {
          "internalType": "address",
          "name": "account",
          "type": "address"
        }
      ],
      "name": "isAdmin",
      "outputs": [
        {
          "internalType": "bool",
          "name": "",
          "type": "bool"
        }
      ],
      "stateMutability": "view",
      "type": "function"
    },
    {
      "inputs": [
        {
          "internalType": "address",
          "name": "account",
          "type": "address"
        }
      ],
      "name": "isProxyAdmin",
      "outputs": [
        {
          "internalType": "bool",
          "name": "",
          "type": "bool"
        }
      ],
      "stateMutability": "view",
      "type": "function"
    },
    {
      "inputs": [],
      "name": "liquidityVaultAddress",
      "outputs": [
        {
          "internalType": "address",
          "name": "",
          "type": "address"
        }
      ],
      "stateMutability": "view",
      "type": "function"
    },
    {
      "inputs": [],
      "name": "maxPer",
      "outputs": [
        {
          "internalType": "uint256",
          "name": "",
          "type": "uint256"
        }
      ],
      "stateMutability": "view",
      "type": "function"
    },
    {
      "inputs": [],
      "name": "minPer",
      "outputs": [
        {
          "internalType": "uint256",
          "name": "",
          "type": "uint256"
        }
      ],
      "stateMutability": "view",
      "type": "function"
    },
    {
      "inputs": [
        {
          "internalType": "address",
          "name": "user",
          "type": "address"
        }
      ],
      "name": "openSaleUserAmount",
      "outputs": [
        {
          "internalType": "uint256",
          "name": "_realPayAmount",
          "type": "uint256"
        },
        {
          "internalType": "uint256",
          "name": "_realSaleAmount",
          "type": "uint256"
        },
        {
          "internalType": "uint256",
          "name": "_refundAmount",
          "type": "uint256"
        }
      ],
      "stateMutability": "view",
      "type": "function"
    },
    {
      "inputs": [],
      "name": "pauseProxy",
      "outputs": [
        {
          "internalType": "bool",
          "name": "",
          "type": "bool"
        }
      ],
      "stateMutability": "view",
      "type": "function"
    },
    {
      "inputs": [],
      "name": "payTokenPrice",
      "outputs": [
        {
          "internalType": "uint256",
          "name": "",
          "type": "uint256"
        }
      ],
      "stateMutability": "view",
      "type": "function"
    },
    {
      "inputs": [],
      "name": "poolFee",
      "outputs": [
        {
          "internalType": "uint24",
          "name": "",
          "type": "uint24"
        }
      ],
      "stateMutability": "view",
      "type": "function"
    },
    {
      "inputs": [],
      "name": "removeAdmin",
      "outputs": [],
      "stateMutability": "nonpayable",
      "type": "function"
    },
    {
      "inputs": [],
      "name": "removeProxyAdmin",
      "outputs": [],
      "stateMutability": "nonpayable",
      "type": "function"
    },
    {
      "inputs": [
        {
          "internalType": "bytes32",
          "name": "role",
          "type": "bytes32"
        },
        {
          "internalType": "address",
          "name": "account",
          "type": "address"
        }
      ],
      "name": "renounceRole",
      "outputs": [],
      "stateMutability": "nonpayable",
      "type": "function"
    },
    {
      "inputs": [
        {
          "internalType": "bytes32",
          "name": "role",
          "type": "bytes32"
        },
        {
          "internalType": "address",
          "name": "account",
          "type": "address"
        }
      ],
      "name": "revokeRole",
      "outputs": [],
      "stateMutability": "nonpayable",
      "type": "function"
    },
    {
      "inputs": [],
      "name": "sTOS",
      "outputs": [
        {
          "internalType": "contract ILockTOS",
          "name": "",
          "type": "address"
        }
      ],
      "stateMutability": "view",
      "type": "function"
    },
    {
      "inputs": [],
      "name": "saleToken",
      "outputs": [
        {
          "internalType": "contract IERC20",
          "name": "",
          "type": "address"
        }
      ],
      "stateMutability": "view",
      "type": "function"
    },
    {
      "inputs": [],
      "name": "saleTokenPrice",
      "outputs": [
        {
          "internalType": "uint256",
          "name": "",
          "type": "uint256"
        }
      ],
      "stateMutability": "view",
      "type": "function"
    },
    {
      "inputs": [
        {
          "internalType": "uint256",
          "name": "_totalExpectSaleAmount",
          "type": "uint256"
        },
        {
          "internalType": "uint256",
          "name": "_totalExpectOpenSaleAmount",
          "type": "uint256"
        },
        {
          "internalType": "uint256",
          "name": "_saleTokenPrice",
          "type": "uint256"
        },
        {
          "internalType": "uint256",
          "name": "_payTokenPrice",
          "type": "uint256"
        },
        {
          "internalType": "uint256",
          "name": "_hardcapAmount",
          "type": "uint256"
        },
        {
          "internalType": "uint256",
          "name": "_changePercent",
          "type": "uint256"
        }
      ],
      "name": "setAllAmount",
      "outputs": [],
      "stateMutability": "nonpayable",
      "type": "function"
    },
    {
      "inputs": [
        {
          "internalType": "uint256[4]",
          "name": "_tier",
          "type": "uint256[4]"
        },
        {
          "internalType": "uint256[4]",
          "name": "_tierPercent",
          "type": "uint256[4]"
        }
      ],
      "name": "setAllTier",
      "outputs": [],
      "stateMutability": "nonpayable",
      "type": "function"
    },
    {
      "inputs": [
        {
          "internalType": "uint256[8]",
          "name": "_Tier",
          "type": "uint256[8]"
        },
        {
          "internalType": "uint256[6]",
          "name": "_amount",
          "type": "uint256[6]"
        },
        {
          "internalType": "uint256[8]",
          "name": "_time",
          "type": "uint256[8]"
        },
        {
          "internalType": "uint256[]",
          "name": "_claimTimes",
          "type": "uint256[]"
        },
        {
          "internalType": "uint256[]",
          "name": "_claimPercents",
          "type": "uint256[]"
        }
      ],
      "name": "setAllsetting",
      "outputs": [],
      "stateMutability": "nonpayable",
      "type": "function"
    },
    {
      "inputs": [
        {
          "internalType": "uint256",
          "name": "_claimCounts",
          "type": "uint256"
        },
        {
          "internalType": "uint256[]",
          "name": "_claimTimes",
          "type": "uint256[]"
        },
        {
          "internalType": "uint256[]",
          "name": "_claimPercents",
          "type": "uint256[]"
        }
      ],
      "name": "setEachClaim",
      "outputs": [],
      "stateMutability": "nonpayable",
      "type": "function"
    },
    {
      "inputs": [
        {
          "internalType": "uint256",
          "name": "_startAddWhiteTime",
          "type": "uint256"
        },
        {
          "internalType": "uint256",
          "name": "_endAddWhiteTime",
          "type": "uint256"
        },
        {
          "internalType": "uint256",
          "name": "_startExclusiveTime",
          "type": "uint256"
        },
        {
          "internalType": "uint256",
          "name": "_endExclusiveTime",
          "type": "uint256"
        }
      ],
      "name": "setExclusiveTime",
      "outputs": [],
      "stateMutability": "nonpayable",
      "type": "function"
    },
    {
      "inputs": [
        {
          "internalType": "uint256",
          "name": "_snapshot",
          "type": "uint256"
        },
        {
          "internalType": "uint256",
          "name": "_startDepositTime",
          "type": "uint256"
        },
        {
          "internalType": "uint256",
          "name": "_endDepositTime",
          "type": "uint256"
        }
      ],
      "name": "setOpenTime",
      "outputs": [],
      "stateMutability": "nonpayable",
      "type": "function"
    },
    {
      "inputs": [
        {
          "internalType": "uint256",
          "name": "_tier1",
          "type": "uint256"
        },
        {
          "internalType": "uint256",
          "name": "_tier2",
          "type": "uint256"
        },
        {
          "internalType": "uint256",
          "name": "_tier3",
          "type": "uint256"
        },
        {
          "internalType": "uint256",
          "name": "_tier4",
          "type": "uint256"
        }
      ],
      "name": "setTier",
      "outputs": [],
      "stateMutability": "nonpayable",
      "type": "function"
    },
    {
      "inputs": [
        {
          "internalType": "uint256",
          "name": "_tier1",
          "type": "uint256"
        },
        {
          "internalType": "uint256",
          "name": "_tier2",
          "type": "uint256"
        },
        {
          "internalType": "uint256",
          "name": "_tier3",
          "type": "uint256"
        },
        {
          "internalType": "uint256",
          "name": "_tier4",
          "type": "uint256"
        }
      ],
      "name": "setTierPercents",
      "outputs": [],
      "stateMutability": "nonpayable",
      "type": "function"
    },
    {
      "inputs": [],
      "name": "snapshot",
      "outputs": [
        {
          "internalType": "uint256",
          "name": "",
          "type": "uint256"
        }
      ],
      "stateMutability": "view",
      "type": "function"
    },
    {
      "inputs": [],
      "name": "stanTier1",
      "outputs": [
        {
          "internalType": "uint256",
          "name": "",
          "type": "uint256"
        }
      ],
      "stateMutability": "view",
      "type": "function"
    },
    {
      "inputs": [],
      "name": "stanTier2",
      "outputs": [
        {
          "internalType": "uint256",
          "name": "",
          "type": "uint256"
        }
      ],
      "stateMutability": "view",
      "type": "function"
    },
    {
      "inputs": [],
      "name": "stanTier3",
      "outputs": [
        {
          "internalType": "uint256",
          "name": "",
          "type": "uint256"
        }
      ],
      "stateMutability": "view",
      "type": "function"
    },
    {
      "inputs": [],
      "name": "stanTier4",
      "outputs": [
        {
          "internalType": "uint256",
          "name": "",
          "type": "uint256"
        }
      ],
      "stateMutability": "view",
      "type": "function"
    },
    {
      "inputs": [],
      "name": "startAddWhiteTime",
      "outputs": [
        {
          "internalType": "uint256",
          "name": "",
          "type": "uint256"
        }
      ],
      "stateMutability": "view",
      "type": "function"
    },
    {
      "inputs": [],
      "name": "startClaimTime",
      "outputs": [
        {
          "internalType": "uint256",
          "name": "",
          "type": "uint256"
        }
      ],
      "stateMutability": "view",
      "type": "function"
    },
    {
      "inputs": [],
      "name": "startDepositTime",
      "outputs": [
        {
          "internalType": "uint256",
          "name": "",
          "type": "uint256"
        }
      ],
      "stateMutability": "view",
      "type": "function"
    },
    {
      "inputs": [],
      "name": "startExclusiveTime",
      "outputs": [
        {
          "internalType": "uint256",
          "name": "",
          "type": "uint256"
        }
      ],
      "stateMutability": "view",
      "type": "function"
    },
    {
      "inputs": [
        {
          "internalType": "int24",
          "name": "_tick",
          "type": "int24"
        }
      ],
      "name": "tickChange",
      "outputs": [],
      "stateMutability": "nonpayable",
      "type": "function"
    },
    {
      "inputs": [
        {
          "internalType": "uint256",
          "name": "",
          "type": "uint256"
        }
      ],
      "name": "tiers",
      "outputs": [
        {
          "internalType": "uint256",
          "name": "",
          "type": "uint256"
        }
      ],
      "stateMutability": "view",
      "type": "function"
    },
    {
      "inputs": [
        {
          "internalType": "uint256",
          "name": "",
          "type": "uint256"
        }
      ],
      "name": "tiersAccount",
      "outputs": [
        {
          "internalType": "uint256",
          "name": "",
          "type": "uint256"
        }
      ],
      "stateMutability": "view",
      "type": "function"
    },
    {
      "inputs": [
        {
          "internalType": "uint256",
          "name": "",
          "type": "uint256"
        }
      ],
      "name": "tiersExAccount",
      "outputs": [
        {
          "internalType": "uint256",
          "name": "",
          "type": "uint256"
        }
      ],
      "stateMutability": "view",
      "type": "function"
    },
    {
      "inputs": [
        {
          "internalType": "uint256",
          "name": "",
          "type": "uint256"
        }
      ],
      "name": "tiersPercents",
      "outputs": [
        {
          "internalType": "uint256",
          "name": "",
          "type": "uint256"
        }
      ],
      "stateMutability": "view",
      "type": "function"
    },
    {
      "inputs": [],
      "name": "tos",
      "outputs": [
        {
          "internalType": "contract IERC20",
          "name": "",
          "type": "address"
        }
      ],
      "stateMutability": "view",
      "type": "function"
    },
    {
      "inputs": [],
      "name": "totalClaimCounts",
      "outputs": [
        {
          "internalType": "uint256",
          "name": "",
          "type": "uint256"
        }
      ],
      "stateMutability": "view",
      "type": "function"
    },
    {
      "inputs": [],
      "name": "totalDepositAmount",
      "outputs": [
        {
          "internalType": "uint256",
          "name": "",
          "type": "uint256"
        }
      ],
      "stateMutability": "view",
      "type": "function"
    },
    {
      "inputs": [],
      "name": "totalExPurchasedAmount",
      "outputs": [
        {
          "internalType": "uint256",
          "name": "",
          "type": "uint256"
        }
      ],
      "stateMutability": "view",
      "type": "function"
    },
    {
      "inputs": [],
      "name": "totalExSaleAmount",
      "outputs": [
        {
          "internalType": "uint256",
          "name": "",
          "type": "uint256"
        }
      ],
      "stateMutability": "view",
      "type": "function"
    },
    {
      "inputs": [],
      "name": "totalExpectOpenSaleAmount",
      "outputs": [
        {
          "internalType": "uint256",
          "name": "",
          "type": "uint256"
        }
      ],
      "stateMutability": "view",
      "type": "function"
    },
    {
      "inputs": [],
      "name": "totalExpectOpenSaleAmountView",
      "outputs": [
        {
          "internalType": "uint256",
          "name": "",
          "type": "uint256"
        }
      ],
      "stateMutability": "view",
      "type": "function"
    },
    {
      "inputs": [],
      "name": "totalExpectSaleAmount",
      "outputs": [
        {
          "internalType": "uint256",
          "name": "",
          "type": "uint256"
        }
      ],
      "stateMutability": "view",
      "type": "function"
    },
    {
      "inputs": [],
      "name": "totalOpenPurchasedAmount",
      "outputs": [
        {
          "internalType": "uint256",
          "name": "",
          "type": "uint256"
        }
      ],
      "stateMutability": "view",
      "type": "function"
    },
    {
      "inputs": [],
      "name": "totalOpenSaleAmount",
      "outputs": [
        {
          "internalType": "uint256",
          "name": "",
          "type": "uint256"
        }
      ],
      "stateMutability": "view",
      "type": "function"
    },
    {
      "inputs": [],
      "name": "totalRound1NonSaleAmount",
      "outputs": [
        {
          "internalType": "uint256",
          "name": "",
          "type": "uint256"
        }
      ],
      "stateMutability": "view",
      "type": "function"
    },
    {
      "inputs": [],
      "name": "totalRound1Users",
      "outputs": [
        {
          "internalType": "uint256",
          "name": "",
          "type": "uint256"
        }
      ],
      "stateMutability": "view",
      "type": "function"
    },
    {
      "inputs": [],
      "name": "totalRound2Users",
      "outputs": [
        {
          "internalType": "uint256",
          "name": "",
          "type": "uint256"
        }
      ],
      "stateMutability": "view",
      "type": "function"
    },
    {
      "inputs": [],
      "name": "totalRound2UsersClaim",
      "outputs": [
        {
          "internalType": "uint256",
          "name": "",
          "type": "uint256"
        }
      ],
      "stateMutability": "view",
      "type": "function"
    },
    {
      "inputs": [
        {
          "internalType": "address",
          "name": "user",
          "type": "address"
        }
      ],
      "name": "totalSaleUserAmount",
      "outputs": [
        {
          "internalType": "uint256",
          "name": "_realPayAmount",
          "type": "uint256"
        },
        {
          "internalType": "uint256",
          "name": "_realSaleAmount",
          "type": "uint256"
        },
        {
          "internalType": "uint256",
          "name": "_refundAmount",
          "type": "uint256"
        }
      ],
      "stateMutability": "view",
      "type": "function"
    },
    {
      "inputs": [],
      "name": "totalUsers",
      "outputs": [
        {
          "internalType": "uint256",
          "name": "",
          "type": "uint256"
        }
      ],
      "stateMutability": "view",
      "type": "function"
    },
    {
      "inputs": [],
      "name": "totalWhitelists",
      "outputs": [
        {
          "internalType": "uint256",
          "name": "",
          "type": "uint256"
        }
      ],
      "stateMutability": "view",
      "type": "function"
    },
    {
      "inputs": [
        {
          "internalType": "address",
          "name": "newAdmin",
          "type": "address"
        }
      ],
      "name": "transferAdmin",
      "outputs": [],
      "stateMutability": "nonpayable",
      "type": "function"
    },
    {
      "inputs": [
        {
          "internalType": "address",
          "name": "newAdmin",
          "type": "address"
        }
      ],
      "name": "transferProxyAdmin",
      "outputs": [],
      "stateMutability": "nonpayable",
      "type": "function"
    },
    {
      "inputs": [],
      "name": "uniswapRouter",
      "outputs": [
        {
          "internalType": "contract ISwapRouter",
          "name": "",
          "type": "address"
        }
      ],
      "stateMutability": "view",
      "type": "function"
    },
    {
      "inputs": [
        {
          "internalType": "address",
          "name": "",
          "type": "address"
        }
      ],
      "name": "usersClaim",
      "outputs": [
        {
          "internalType": "bool",
          "name": "exec",
          "type": "bool"
        },
        {
          "internalType": "uint256",
          "name": "claimAmount",
          "type": "uint256"
        },
        {
          "internalType": "uint256",
          "name": "refundAmount",
          "type": "uint256"
        }
      ],
      "stateMutability": "view",
      "type": "function"
    },
    {
      "inputs": [
        {
          "internalType": "address",
          "name": "",
          "type": "address"
        }
      ],
      "name": "usersEx",
      "outputs": [
        {
          "internalType": "bool",
          "name": "join",
          "type": "bool"
        },
        {
          "internalType": "uint256",
          "name": "tier",
          "type": "uint256"
        },
        {
          "internalType": "uint256",
          "name": "payAmount",
          "type": "uint256"
        },
        {
          "internalType": "uint256",
          "name": "saleAmount",
          "type": "uint256"
        }
      ],
      "stateMutability": "view",
      "type": "function"
    },
    {
      "inputs": [
        {
          "internalType": "address",
          "name": "",
          "type": "address"
        }
      ],
      "name": "usersOpen",
      "outputs": [
        {
          "internalType": "bool",
          "name": "join",
          "type": "bool"
        },
        {
          "internalType": "uint256",
          "name": "depositAmount",
          "type": "uint256"
        },
        {
          "internalType": "uint256",
          "name": "payAmount",
          "type": "uint256"
        }
      ],
      "stateMutability": "view",
      "type": "function"
    },
    {
      "inputs": [
        {
          "internalType": "uint256",
          "name": "",
          "type": "uint256"
        }
      ],
      "name": "whitelists",
      "outputs": [
        {
          "internalType": "address",
          "name": "",
          "type": "address"
        }
      ],
      "stateMutability": "view",
      "type": "function"
    },
    {
      "inputs": [],
      "name": "wton",
      "outputs": [
        {
          "internalType": "address",
          "name": "",
          "type": "address"
        }
      ],
      "stateMutability": "view",
      "type": "function"
    }
  ],
  "bytecode": "0x608060405260006001556000600455600060055560006006556000600755600060085560006009556000600a556000600b556000600c556000600d556000600e556000600f55600060105534801561005657600080fd5b506001603855615f93806200006c6000396000f3fe608060405234801561001057600080fd5b50600436106104ea5760003560e01c80638a19c8bc1161028c5780638a19c8bc146108015780638d62d949146108095780638f68711a146108115780639010d07c14610824578063907784231461083757806391d148541461083f57806394f641d514610852578063952526921461085a57806396f1557c146108625780639711715a1461087557806397770b9a1461087d57806398d97da4146108905780639a202d47146108a35780639d18fde7146108ab5780639f87b77f146108b3578063a055e625146108bb578063a1b89b70146108c3578063a217fddf146108cb578063a389595f146108d3578063a38ffdea146108db578063a55abb17146108ee578063aa5bbf55146108f6578063b7182b9514610909578063b960ca0414610911578063be72f2d314610919578063bfc630b114610921578063bfc93b0c14610929578063bff1f9e11461093c578063c3e5763514610944578063c5408d501461094c578063ca15c87314610954578063cae9ce1b14610967578063cf437a8f1461098a578063d21eb9081461099f578063d5391393146109b2578063d547741f146109ba578063d8445781146109cd578063db849c18146109e0578063dc560fcd146109f3578063e016bac4146109fb578063e30821c614610a03578063e4b2fb7914610a16578063e801a9b714610a29578063e985e36714610a3c578063eaff056d14610a44578063eb8445f814610a4c578063ed5131f514610a54578063f0fbf32d14610a67578063f18d20be14610a7a578063f47f2f1d14610a82578063fb86a40414610a95578063fbd9070f14610a9d578063fe404c9614610aa5578063fe4d5add14610ab8578063ff6dac7614610acb576104ea565b8063039af9eb146104ef578063089fe6aa146105185780630a8885501461052d5780630b433a12146105425780631a1197e71461054a5780631bfc751e1461055d5780631c53f25614610565578063218183a31461056d57806321df0da714610580578063226bf1a414610595578063248a9ca31461059d57806324d7806c146105b0578063256019d6146105d0578063282c51f3146105d857806328e50f4b146105e05780632cbf3188146105e85780632dcdbfd3146105f05780632f2ff15d1461060357806336568abe1461061657806337bf0719146106295780633ef541b51461063157806341c04d5e1461063957806341c0cb771461064157806347e7ef2414610663578063494600ea146106765780634dd19921146106895780634e71d92d1461069157806351d28a7e1461069957806351ebde6d146106a1578063590088bc146106a95780635f1af712146106cb57806360a2a25c146106de57806361a33427146106f157806363a8fd89146106f957806366ce72711461070157806367b399a514610709578063690480051461071c5780636bbe48af1461072f5780636e0e0da214610742578063704802751461074a57806370e5410a1461075d578063735de9f71461076557806375829def1461076d57806375b238fc146107805780637676ee3214610788578063768b821f1461079b5780637a40624b146107a35780637dc2cd98146107ab5780637e2eee53146107b35780637ecd5c70146107bb5780638181e847146107ce57806381a9f6d7146107d6578063822754a3146107de5780638356ca4f146107e657806389f395de146107f9575b600080fd5b6105026104fd366004614e67565b610ade565b60405161050f9190615217565b60405180910390f35b610520610af0565b60405161050f9190615c69565b61054061053b36600461511d565b610af6565b005b610502610c89565b610502610558366004614d26565b610c8f565b610502610db0565b610502610db6565b61054061057b36600461511d565b610dbc565b610588610fd2565b60405161050f9190615190565b610502610fe1565b6105026105ab366004614e67565b610fe7565b6105c36105be366004614d26565b610ffc565b60405161050f91906151d7565b61050261101c565b610502611022565b610502611046565b610502611075565b6105406105fe36600461511d565b6110aa565b610540610611366004614e7f565b611254565b610540610624366004614e7f565b6112bb565b61058861131c565b61050261132b565b610502611331565b61065461064f366004614d26565b611343565b60405161050f939291906151e2565b610540610671366004614d42565b611368565b610502610684366004614d42565b6114e9565b610588611548565b610540611557565b61050261193f565b610502611945565b6106bc6106b7366004614d26565b61194b565b60405161050f93929190615cb8565b6106bc6106d9366004614d42565b611a05565b6105026106ec366004614e67565b611bff565b610502611c24565b6105c3611c2a565b610502611c33565b610502610717366004614e67565b611c39565b61050261072a366004614e67565b611c4b565b61050261073d366004614e67565b611c5d565b610540611c67565b610540610758366004614d26565b611f36565b610502611f95565b610588611fd7565b61054061077b366004614d26565b611fe6565b610502612116565b610540610796366004614d6d565b61213a565b610502612220565b610502612226565b61050261222c565b610502612232565b6105026107c9366004614d26565b612238565b61054061250d565b6105026126c1565b6105c36126c7565b6105406107f4366004614d26565b6126d0565b6105886127d7565b6105026127e6565b610588612853565b61050261081f366004614e67565b612862565b610588610832366004614eae565b612874565b61050261288c565b6105c361084d366004614e7f565b6128a5565b6105026128bd565b6105026128c3565b610540610870366004614d26565b6128c9565b610502612918565b61054061088b3660046150f2565b61291e565b6106bc61089e366004614d26565b612a6a565b610540612b45565b610502612bb2565b610502612bb8565b610502612bbe565b610502612bc4565b610502612bca565b610502612bcf565b6105026108e9366004614e67565b612bd5565b610502612bf3565b610502610904366004614ecf565b612bf9565b610588612c00565b610502612c0f565b610540612c15565b610502612c64565b610540610937366004615044565b612c6a565b610502612e40565b610502612e46565b610502612e4c565b610502610962366004614e67565b612e52565b61097a610975366004614d26565b612e69565b60405161050f94939291906151fa565b610992612e94565b60405161050f9190615220565b6105406109ad366004614da2565b612ea2565b610502613170565b6105406109c8366004614e7f565b613194565b6105406109db36600461514e565b6131ed565b6105406109ee366004614e7f565b613321565b6105026138c1565b6105026138c7565b610540610a11366004614d26565b6138cd565b610588610a24366004614e67565b613933565b610540610a37366004614f63565b61395d565b6105886139d4565b6105026139e3565b6105026139e9565b610502610a62366004614e67565b6139ef565b610540610a75366004614d42565b613a10565b6105c3613c30565b6105c3610a90366004614d26565b613c39565b610502613c45565b610502613c4b565b610502610ab3366004614e67565b613c95565b610588610ac6366004614e67565b613ca5565b610654610ad9366004614d26565b613cb5565b60326020526000908152604090205481565b610bb881565b610aff33610ffc565b80610b0e5750610b0e33613c39565b610b495760405162461bcd60e51b8152600401808060200182810382526022815260200180615d846022913960400191505060405180910390fd5b8360008111610b735760405162461bcd60e51b8152600401610b6a9061593b565b60405180910390fd5b8360008111610b945760405162461bcd60e51b8152600401610b6a9061593b565b8360008111610bb55760405162461bcd60e51b8152600401610b6a9061593b565b8360008111610bd65760405162461bcd60e51b8152600401610b6a9061593b565b6004541580610bf357506000600454118015610bf3575060045442105b610c0f5760405162461bcd60e51b8152600401610b6a90615aae565b60045415610c3c57610c2033613c39565b610c3c5760405162461bcd60e51b8152600401610b6a9061587d565b8688108015610c4a57508587105b8015610c5557508486105b610c715760405162461bcd60e51b8152600401610b6a906152b7565b50505060049490945560059290925560065560075550565b60165481565b6001600160a01b0381166000908152602f602090815260408083208151608081018352815460ff161515815260018201549381019390935260028101549183019190915260030154606082015281610ce684612238565b825190915015156001148015610cfc5750600081115b15610d42576000818152603360209081526040808320546035909252822054601254610d379261271092610d31928391613cda565b90613d33565b9350610dab92505050565b8015610da457600081815260336020526040812054610d62906001613d72565b90506000610d98612710610d3184610d316035600089815260200190815260200160002054601254613cda90919063ffffffff16565b9450610dab9350505050565b6000925050505b919050565b600a5481565b601c5481565b610dc533610ffc565b80610dd45750610dd433613c39565b610e0f5760405162461bcd60e51b8152600401808060200182810382526022815260200180615d846022913960400191505060405180910390fd5b8360008111610e305760405162461bcd60e51b8152600401610b6a9061593b565b8360008111610e515760405162461bcd60e51b8152600401610b6a9061593b565b8360008111610e725760405162461bcd60e51b8152600401610b6a9061593b565b8360008111610e935760405162461bcd60e51b8152600401610b6a9061593b565b6004541580610eb057506000600454118015610eb0575060045442105b610ecc5760405162461bcd60e51b8152600401610b6a90615aae565b60016000526035602052600080516020615ec58339815191525415610f1057610ef433613c39565b610f105760405162461bcd60e51b8152600401610b6a9061587d565b610f2685610f2088818c8c613d72565b90613d72565b61271014610f465760405162461bcd60e51b8152600401610b6a90615693565b505060356020525050600080516020615ec5833981519152939093557ff45abd214a7998af36d567f4bc75c5d50e868cf767d965b54d3b0f5c6200ab64919091557fe5602d426990c0b7b248ffeae167f30eba43086d790c7aa793e2bf3d0e5939195560046000527f80eb70dc00a20ebf6b218a7aea19e260b164cf97e49b31f047fca6f74f8ff9ad55565b6025546001600160a01b031681565b60155481565b60009081526036602052604090206002015490565b6000611016600080516020615d64833981519152836128a5565b92915050565b602c5481565b7f9667e80708b6eeeb0053fa0cca44e028ff548e2a9f029edfeac87c118b08b7c881565b600060075442101561105b5750601354611072565b61106f61106661288c565b60135490613d72565b90505b90565b600080611083601154612bd5565b9050600061108f611046565b9050808210156110a157509050611072565b91506110729050565b6110b333610ffc565b806110c257506110c233613c39565b6110fd5760405162461bcd60e51b8152600401808060200182810382526022815260200180615d846022913960400191505060405180910390fd5b836000811161111e5760405162461bcd60e51b8152600401610b6a9061593b565b836000811161113f5760405162461bcd60e51b8152600401610b6a9061593b565b83600081116111605760405162461bcd60e51b8152600401610b6a9061593b565b83600081116111815760405162461bcd60e51b8152600401610b6a9061593b565b600454158061119e5750600060045411801561119e575060045442105b6111ba5760405162461bcd60e51b8152600401610b6a90615aae565b60016000526032602052600080516020615da683398151915254156111fe576111e233613c39565b6111fe5760405162461bcd60e51b8152600401610b6a9061587d565b505060326020525050600080516020615da683398151915293909355600080516020615e6483398151915291909155600080516020615dc6833981519152556004600052600080516020615f0f83398151915255565b6000828152603660205260409020600201546112729061084d613dca565b6112ad5760405162461bcd60e51b815260040180806020018281038252602f815260200180615d15602f913960400191505060405180910390fd5b6112b78282613dce565b5050565b6112c3613dca565b6001600160a01b0316816001600160a01b0316146113125760405162461bcd60e51b815260040180806020018281038252602f815260200180615f2f602f913960400191505060405180910390fd5b6112b78282613e37565b6028546001600160a01b031681565b60095481565b600080516020615d6483398151915281565b60306020526000908152604090208054600182015460029092015460ff909116919083565b600260385414156113ae576040805162461bcd60e51b815260206004820152601f6024820152600080516020615d44833981519152604482015290519081900360640190fd5b60026038556008544210156113d55760405162461bcd60e51b8152600401610b6a906159cf565b60095442106113f65760405162461bcd60e51b8152600401610b6a90615778565b6001600160a01b0382166000908152603060205260409020805460ff166114b15760298054600180820183556000929092527fcb7c14ce178f56e2e8d86ab33ebc0ae081ba8556a00cd122038841867181caac0180546001600160a01b0319166001600160a01b038616179055815460ff191681178255600d5461147991613d72565b600d556001600160a01b0383166000908152602f6020526040902060028101546114af57600b546114ab906001613d72565b600b555b505b60018101546114c09083613d72565b60018201556011546114d29083613d72565b6011556114df8284613ea0565b5050600160385550565b6001600160a01b03821660009081526030602052604081206001015481906115119084613d72565b9050600061153f61152d85601154613d7290919063ffffffff16565b610d3184611539611046565b90613cda565b95945050505050565b6021546001600160a01b031681565b602d60008154811061156557fe5b906000526020600020015442101561158f5760405162461bcd60e51b8152600401610b6a90615572565b3360009081526030602090815260408083206031909252822090916115b2613c4b565b90508061166757815460ff161515600114156115e05760405162461bcd60e51b8152600401610b6a90615817565b336000908152602f602052604081206001850154600282015491929161160591613d72565b845460ff1916600117855560028501819055602554909150611631906001600160a01b0316338361432f565b336001600160a01b0316600080516020615ea5833981519152826040516116589190615217565b60405180910390a2505061193a565b6000806000611677336000611a05565b9250925092506000821161169d5760405162461bcd60e51b8152600401610b6a906155f4565b600083116116bd5760405162461bcd60e51b8152600401610b6a9061584e565b826116d586600101548461438190919063ffffffff16565b10156116f35760405162461bcd60e51b8152600401610b6a9061562b565b6026546040516370a0823160e01b815284916001600160a01b0316906370a0823190611723903090600401615190565b60206040518083038186803b15801561173b57600080fd5b505afa15801561174f573d6000803e3d6000fd5b505050506040513d601f19601f82011682018060405250810190611773919061502c565b10156117915760405162461bcd60e51b8152600401610b6a906158a7565b60018501546117a09084613d72565b60018601556026546117bc906001600160a01b0316338561432f565b845460ff161580156117cf5750855460ff165b156117f157600e546117e2906001613d72565b600e55845460ff191660011785555b60008111801561180357506002850154155b156118f5576025546040516370a0823160e01b81526001600160a01b03909116906370a0823190611838903090600401615190565b60206040518083038186803b15801561185057600080fd5b505afa158015611864573d6000803e3d6000fd5b505050506040513d601f19601f82011682018060405250810190611888919061502c565b8111156118a75760405162461bcd60e51b8152600401610b6a9061524b565b600285018190556025546118c5906001600160a01b0316338361432f565b336001600160a01b0316600080516020615ea5833981519152826040516118ec9190615217565b60405180910390a25b336001600160a01b03167fd8138f8a3f377c5259ca548e70e4c2de94f129f5a11036a15b69513cba2b426a8460405161192e9190615217565b60405180910390a25050505b505050565b60145481565b601f5481565b6001600160a01b0381166000908152602f602090815260408083208151608081018352815460ff16158015825260018301549482019490945260028201549281019290925260030154606082015282918291906119ed5760008060006119b088612a6a565b9250925092506119cd846040015184613d7290919063ffffffff16565b60608501516119dd908490613d72565b82965096509650505050506119fe565b6119f685612a6a565b935093509350505b9193909250565b6000806000600a54421015611a2257506000915081905080611bf8565b602c54841115611a3a57506000915081905080611bf8565b6001600160a01b03851660009081526031602090815260408083208151606081018352815460ff161515815260018201549381019390935260020154908201529080611a858861194b565b92509250508160001415611aa6576000806000955095509550505050611bf8565b81836020015110611ac4576000806000955095509550505050611bf8565b6000611ace6127e6565b9050600081602c54148015611ae1575088155b15611b07576020850151611af6908590614381565b9750929550909350611bf892505050565b88611b5e57611b456064610d31602e611b21866001614381565b81548110611b2b57fe5b906000526020600020015487613cda90919063ffffffff16565b9050611af685602001518261438190919063ffffffff16565b8860011415611b7d57611af66064610d31602e600081548110611b2b57fe5b6000611bd5602e611b8f8c6002614381565b81548110611b9957fe5b600091825260209091200154602e611bb28d6001614381565b81548110611bbc57fe5b906000526020600020015461438190919063ffffffff16565b9050611be66064610d318784613cda565b9850939650919450611bf89350505050565b9250925092565b600080611c1d601554610d3160145486613cda90919063ffffffff16565b9392505050565b600e5481565b60005460ff1681565b60075481565b60336020526000908152604090205481565b60356020526000908152604090205481565b633b9aca00900490565b602b5460ff161515600114801590611c86575060375460ff1615156001145b611ca25760405162461bcd60e51b8152600401610b6a90615bb9565b6000611cac613c4b565b90506000611cce82611cc8611cbf611f95565b60105490613d72565b90614381565b6025546040516370a0823160e01b81529192506001600160a01b0316906370a0823190611cff903090600401615190565b60206040518083038186803b158015611d1757600080fd5b505afa158015611d2b573d6000803e3d6000fd5b505050506040513d601f19601f82011682018060405250810190611d4f919061502c565b811115611d6e5760405162461bcd60e51b8152600401610b6a906157af565b602b805460ff19166001179055600f54600090611d9f90611cc8611d90611075565b601354601254611cc891613d72565b602654604051630852cd8d60e31b81529192506001600160a01b0316906342966c6890611dd0908490600401615217565b600060405180830381600087803b158015611dea57600080fd5b505af1158015611dfe573d6000803e3d6000fd5b505060255460235460405163095ea7b360e01b81526001600160a01b03928316945063095ea7b39350611e39929091169086906004016151be565b602060405180830381600087803b158015611e5357600080fd5b505af1158015611e67573d6000803e3d6000fd5b505050506040513d601f19601f82011682018060405250810190611e8b9190614e4d565b506023546040516392ca60c160e01b81526001600160a01b03909116906392ca60c190611ebc908590600401615217565b600060405180830381600087803b158015611ed657600080fd5b505af1158015611eea573d6000803e3d6000fd5b50505050336001600160a01b03167f27084c94a254e82dc8973b962810cb320efedce3c641c38244a13a32eb8fff088385604051611f29929190615caa565b60405180910390a2505050565b611f3f33613c39565b611f7a5760405162461bcd60e51b8152600401808060200182810382526028815260200180615de66028913960400191505060405180910390fd5b611f92600080516020615d6483398151915282611254565b50565b600080611fa3601154612bd5565b90506000611faf611046565b905080821015611fc55760115492505050611072565b611fce81611bff565b92505050611072565b6022546001600160a01b031681565b611fef33610ffc565b80611ffe5750611ffe33613c39565b6120395760405162461bcd60e51b8152600401808060200182810382526022815260200180615d846022913960400191505060405180910390fd5b6001600160a01b03811661208f576040805162461bcd60e51b815260206004820152601860248201527741636365737369626c653a207a65726f206164647265737360401b604482015290519081900360640190fd5b336001600160a01b03821614156120e6576040805162461bcd60e51b815260206004820152601660248201527520b1b1b2b9b9b4b136329d1039b0b6b29030b236b4b760511b604482015290519081900360640190fd5b6120fe600080516020615d6483398151915282611254565b611f92600080516020615d64833981519152336112bb565b7fdf8b4c520ffe197c5343c6f5aec59570151ef9a492f2c624fd45ddde6135ec4281565b61214333610ffc565b80612152575061215233613c39565b61218d5760405162461bcd60e51b8152600401808060200182810382526022815260200180615d846022913960400191505060405180910390fd5b601d548235108015906121a65750601e54602083013510155b80156121b85750601f54604083013510155b80156121ca5750602054606083013510155b6121e65760405162461bcd60e51b8152600401610b6a90615965565b6122038235602084013560408501358560035b60200201356110aa565b6112b78135602083013560408401358460035b6020020135610dbc565b601e5481565b60025481565b60175481565b60035481565b6028546000906001600160a01b0316806122645760405162461bcd60e51b8152600401610b6a906156ca565b60016000526032602052600080516020615da6833981519152548061229b5760405162461bcd60e51b8152600401610b6a9061593b565b60026000526032602052600080516020615e6483398151915254806122d25760405162461bcd60e51b8152600401610b6a9061593b565b60036000526032602052600080516020615dc683398151915254806123095760405162461bcd60e51b8152600401610b6a9061593b565b60046000526032602052600080516020615f0f83398151915254806123405760405162461bcd60e51b8152600401610b6a9061593b565b60285460015460405163277166bf60e11b81526000926001600160a01b031691634ee2cd7e91612374918c916004016151be565b60206040518083038186803b15801561238c57600080fd5b505afa1580156123a0573d6000803e3d6000fd5b505050506040513d601f19601f820116820180604052508101906123c4919061502c565b600160009081526032602052600080516020615da68339815191525491925090821080159061240b575060026000526032602052600080516020615e648339815191525482105b1561241857506001612501565b60026000526032602052600080516020615e64833981519152548210801590612459575060036000526032602052600080516020615dc68339815191525482105b1561246657506002612501565b60036000526032602052600080516020615dc68339815191525482108015906124a7575060046000526032602052600080516020615f0f8339815191525482105b156124b457506003612501565b60046000526032602052600080516020615f0f8339815191525482106124dc57506004612501565b60016000526032602052600080516020615da683398151915254821015612501575060005b98975050505050505050565b60026038541415612553576040805162461bcd60e51b815260206004820152601f6024820152600080516020615d44833981519152604482015290519081900360640190fd5b600260385560045442101561257a5760405162461bcd60e51b8152600401610b6a90615b6c565b600554421061259b5760405162461bcd60e51b8152600401610b6a906153f8565b60006125a633612238565b905060018110156125c95760405162461bcd60e51b8152600401610b6a90615280565b336000908152602f60205260409020805460ff161515600114156125ff5760405162461bcd60e51b8152600401610b6a90615a12565b602a805460018181019092557fbeced09521047d05b8960b7e7bcc1d1292cf3e4b2a6b63f48335cbde5f7545d20180546001600160a01b03191633179055815460ff1916811782558181018390556000600383018190558381526033602052604090205461266c91613d72565b60008381526033602052604090819020919091555133907fffc1b88a1c7ff4b7c84aac62283195eb1a6e771eafe7f68ddc27c7539cb0a105906126b0908590615217565b60405180910390a250506001603855565b60085481565b60375460ff1681565b6126d933613c39565b6127145760405162461bcd60e51b8152600401808060200182810382526028815260200180615de66028913960400191505060405180910390fd5b6001600160a01b03811661276a576040805162461bcd60e51b815260206004820152601860248201527741636365737369626c653a207a65726f206164647265737360401b604482015290519081900360640190fd5b336001600160a01b03821614156127c1576040805162461bcd60e51b815260206004820152601660248201527520b1b1b2b9b9b4b136329d1039b0b6b29030b236b4b760511b604482015290519081900360640190fd5b6127cc600082611254565b611f926000336112bb565b6027546001600160a01b031681565b6000602d6001602c5403815481106127fa57fe5b906000526020600020015442106128145750602c54611072565b60005b602c5481101561284f57602d818154811061282e57fe5b9060005260206000200154421015612847579050611072565b600101612817565b5090565b6024546001600160a01b031681565b60346020526000908152604090205481565b6000828152603660205260408120611c1d90836143c3565b600061106f600f5460125461438190919063ffffffff16565b6000828152603660205260408120611c1d90836143cf565b600d5481565b60045481565b6128d233613c39565b61290d5760405162461bcd60e51b8152600401808060200182810382526028815260200180615de66028913960400191505060405180910390fd5b611f926000826112ad565b60015481565b61292733610ffc565b80612936575061293633613c39565b6129715760405162461bcd60e51b8152600401808060200182810382526022815260200180615d846022913960400191505060405180910390fd5b82600081116129925760405162461bcd60e51b8152600401610b6a9061593b565b82600081116129b35760405162461bcd60e51b8152600401610b6a9061593b565b82600081116129d45760405162461bcd60e51b8152600401610b6a9061593b565b60045415806129f1575060006004541180156129f1575060045442105b612a0d5760405162461bcd60e51b8152600401610b6a90615aae565b60015415612a3a57612a1e33613c39565b612a3a5760405162461bcd60e51b8152600401610b6a9061587d565b838510612a595760405162461bcd60e51b8152600401610b6a906156fc565b505050600192909255600855600955565b6001600160a01b03811660009081526030602090815260408083208151606081018352815460ff16158015825260018301549482019490945260029091015491810191909152829182919080612ac257506020810151155b15612ad8576000806000935093509350506119fe565b6000612ae58660006114e9565b90506000612af282611bff565b602084015190915060008082841015612b2157612b0f8385614381565b9050612b1a84612bd5565b9150612b34565b85602001519350612b3183612bd5565b91505b929990985091965090945050505050565b612b4e33610ffc565b80612b5d5750612b5d33613c39565b612b985760405162461bcd60e51b8152600401808060200182810382526022815260200180615d846022913960400191505060405180910390fd5b612bb0600080516020615d64833981519152336112bb565b565b601a5481565b601d5481565b600c5481565b602a5490565b600081565b601b5481565b600080611c1d601454610d3160155486613cda90919063ffffffff16565b60105481565b6020015190565b6023546001600160a01b031681565b60125481565b612c1e33613c39565b612c595760405162461bcd60e51b8152600401808060200182810382526028815260200180615de66028913960400191505060405180910390fd5b612bb06000336112bb565b60135481565b612c7333610ffc565b80612c825750612c8233613c39565b612cbd5760405162461bcd60e51b8152600401808060200182810382526022815260200180615d846022913960400191505060405180910390fd5b6004541580612cda57506000600454118015612cda575060045442105b612cf65760405162461bcd60e51b8152600401610b6a90615aae565b602c5415612d2357612d0733613c39565b612d235760405162461bcd60e51b8152600401610b6a9061587d565b602c8590556000805b86821015612e1757602d868684818110612d4257fe5b835460018101855560009485526020948590209190940292909201359190920155508115612dba57602d8281548110612d7757fe5b9060005260206000200154602d6001840381548110612d9257fe5b906000526020600020015410612dba5760405162461bcd60e51b8152600401610b6a90615660565b838383818110612dc657fe5b602e80546001818101835560009290925260209092029390930135939093017f37fa166cbdbfbb1561ccd9ea985ec0218b5e68502e230525f544285b2bdf3d7e909301839055509190910190612d2c565b80606414612e375760405162461bcd60e51b8152600401610b6a906153cd565b50505050505050565b600b5481565b60055481565b60115481565b6000818152603660205260408120611016906143e4565b602f60205260009081526040902080546001820154600283015460039093015460ff90921692909184565b603754610100900460020b81565b612eab33610ffc565b80612eba5750612eba33613c39565b612ef55760405162461bcd60e51b8152600401808060200182810382526022815260200180615d846022913960400191505060405180910390fd5b6004541580612f1257506000600454118015612f12575060045442105b612f2e5760405162461bcd60e51b8152600401610b6a90615aae565b6026546040516370a0823160e01b81526000916001600160a01b0316906370a0823190612f5f903090600401615190565b60206040518083038186803b158015612f7757600080fd5b505afa158015612f8b573d6000803e3d6000fd5b505050506040513d601f19601f82011682018060405250810190612faf919061502c565b905086356020880135018110801590612fd0575080670de0b6b3a764000011155b612fec5760405162461bcd60e51b8152600401610b6a90615a48565b84846000818110612ff957fe5b905060200201358660066008811061300d57fe5b60200201351061302f5760405162461bcd60e51b8152600401610b6a90615919565b60035460025487359101106130565760405162461bcd60e51b8152600401610b6a90615545565b602086013586351061307a5760405162461bcd60e51b8152600401610b6a90615af5565b831580159061308857508382145b6130a45760405162461bcd60e51b8152600401610b6a906158ee565b600154156130d1576130b533613c39565b6130d15760405162461bcd60e51b8152600401610b6a9061587d565b6130e8883560208a013560408b01358b60036121f9565b613102608089013560a08a013560c08b01358b6007612216565b6131258735602089013560408a013560608b013560808c013560a08d01356131ed565b61314160208701356040880135606089013560808a0135610af6565b613155863560a088013560c089013561291e565b61316660e087013586868686612c6a565b5050505050505050565b7ff0887ba65ee2024ea881d91b74c2450ef19e1557f03bed3ea9f16b037cbe2dc981565b6000828152603660205260409020600201546131b29061084d613dca565b6113125760405162461bcd60e51b8152600401808060200182810382526030815260200180615e346030913960400191505060405180910390fd5b6131f633610ffc565b80613205575061320533613c39565b6132405760405162461bcd60e51b8152600401808060200182810382526022815260200180615d846022913960400191505060405180910390fd5b600454158061325d5750600060045411801561325d575060045442105b6132795760405162461bcd60e51b8152600401610b6a90615aae565b601254156132a65761328a33613c39565b6132a65760405162461bcd60e51b8152600401610b6a9061587d565b601c5481111580156132ba5750601b548110155b6132d65760405162461bcd60e51b8152600401610b6a90615480565b60128690556013859055601484905560158390556019829055601a8190556037546101009004600290810b900b613319576037805463ffffff0019166112001790555b505050505050565b600082116133415760405162461bcd60e51b8152600401610b6a906152ec565b60095442116133625760405162461bcd60e51b8152600401610b6a90615439565b600061336c613c4b565b90506000811161338e5760405162461bcd60e51b8152600401610b6a9061598d565b600080836001600160a01b0316633850c7bd6040518163ffffffff1660e01b815260040160e06040518083038186803b1580156133ca57600080fd5b505afa1580156133de573d6000803e3d6000fd5b505050506040513d601f19601f820116820180604052508101906134029190614f9b565b5050505050915091506000826001600160a01b0316116134345760405162461bcd60e51b8152600401610b6a906157e6565b60006134418560786143ef565b90508160020b73__$cdb73d92e4a7d03d5593382c56c14485ee$__6380e15efe83603c60086040518463ffffffff1660e01b81526004016134849392919061522e565b60206040518083038186803b15801561349c57600080fd5b505af41580156134b0573d6000803e3d6000fd5b505050506040513d601f19601f820116820180604052508101906134d49190614f7f565b60020b13158015613579575060405160016263114360e01b0319815273__$cdb73d92e4a7d03d5593382c56c14485ee$__9063ff9ceebd90613520908490603c9060089060040161522e565b60206040518083038186803b15801561353857600080fd5b505af415801561354c573d6000803e3d6000fd5b505050506040513d601f19601f820116820180604052508101906135709190614f7f565b60020b8260020b125b6135955760405162461bcd60e51b8152600401610b6a90615b28565b602454602754603754604051633e1644f160e11b8152600093849373__$cdb73d92e4a7d03d5593382c56c14485ee$__93637c2c89e2936135f6938e938e936001600160a01b03928316939190921691610100900460020b90600401615c79565b60606040518083038186803b15801561360e57600080fd5b505af4158015613622573d6000803e3d6000fd5b505050506040513d601f19601f8201168201806040525081019061364691906150ba565b6024546040516370a0823160e01b81529395509093506000926001600160a01b0390911691506370a0823190613680903090600401615190565b60206040518083038186803b15801561369857600080fd5b505afa1580156136ac573d6000803e3d6000fd5b505050506040513d601f19601f820116820180604052508101906136d0919061502c565b9050801580156136e8575060375460ff161515600114155b156137825760245460405163e34869d760e01b81526001600160a01b039091169063e34869d79061371d908a90600401615217565b602060405180830381600087803b15801561373757600080fd5b505af115801561374b573d6000803e3d6000fd5b505050506040513d601f19601f8201168201806040525081019061376f9190614e4d565b506037805460ff191660011790556137a2565b888110156137a25760405162461bcd60e51b8152600401610b6a90615503565b60408051610100810182526024546001600160a01b03908116825260275481166020830152610bb8828401526021548116606083015242608083015260a082018c905260c0820186905284811660e0830152602254925163414bf38960e01b8152919260009291169063414bf3899061381f908590600401615c00565b602060405180830381600087803b15801561383957600080fd5b505af115801561384d573d6000803e3d6000fd5b505050506040513d601f19601f82011682018060405250810190613871919061502c565b9050336001600160a01b03167f7fcf532c15f0a6db0bd6d0e038bea71d30d808c7d98cb3bf7268a95bf5081b65826040516138ac9190615217565b60405180910390a25050505050505050505050565b60205481565b60065481565b6138d633613c39565b6139115760405162461bcd60e51b8152600401808060200182810382526028815260200180615de66028913960400191505060405180910390fd5b602380546001600160a01b0319166001600160a01b0392909216919091179055565b6029818154811061394357600080fd5b6000918252602090912001546001600160a01b0316905081565b61396633610ffc565b80613975575061397533613c39565b6139b05760405162461bcd60e51b8152600401808060200182810382526022815260200180615d846022913960400191505060405180910390fd5b6037805460029290920b62ffffff166101000263ffffff0019909216919091179055565b6026546001600160a01b031681565b60185481565b600f5481565b602d81815481106139ff57600080fd5b600091825260209091200154905081565b8060008111613a315760405162461bcd60e51b8152600401610b6a9061593b565b602c5460008111613a545760405162461bcd60e51b8152600401610b6a9061593b565b60026038541415613a9a576040805162461bcd60e51b815260206004820152601f6024820152600080516020615d44833981519152604482015290519081900360640190fd5b6002603855600654421015613ac15760405162461bcd60e51b8152600401610b6a90615358565b6007544210613ae25760405162461bcd60e51b8152600401610b6a906155b3565b6001600160a01b0384166000908152602f60205260409020805460ff161515600114613b205760405162461bcd60e51b8152600401610b6a90615731565b6000613b2b85612bd5565b90506000613b3887610c8f565b6003840154909150613b4a9083613d72565b811015613b695760405162461bcd60e51b8152600401610b6a906154b7565b6000613b7488612238565b9050836002015460001415613bcf57600c54613b91906001613d72565b600c55600b54613ba2906001613d72565b600b55600081815260346020526040902054613bbf906001613d72565b6000828152603460205260409020555b6002840154613bde9088613d72565b60028501556003840154613bf29084613d72565b6003850155601054613c049088613d72565b601055600f54613c149084613d72565b600f55613c218789613ea0565b50506001603855505050505050565b602b5460ff1681565b600061101681836128a5565b60195481565b600080613c59611cbf611f95565b905060006019548210613c8a57613c806064610d31601a5485613cda90919063ffffffff16565b9250611072915050565b600092505050611072565b602e81815481106139ff57600080fd5b602a818154811061394357600080fd5b60316020526000908152604090208054600182015460029092015460ff909116919083565b600082613ce957506000611016565b82820282848281613cf657fe5b0414611c1d5760405162461bcd60e51b8152600401808060200182810382526021815260200180615e846021913960400191505060405180910390fd5b6000611c1d83836040518060400160405280601a815260200179536166654d6174683a206469766973696f6e206279207a65726f60301b8152506146eb565b600082820183811015611c1d576040805162461bcd60e51b815260206004820152601b60248201527a536166654d6174683a206164646974696f6e206f766572666c6f7760281b604482015290519081900360640190fd5b3390565b6000828152603660205260409020613de6908261478d565b156112b757613df3613dca565b6001600160a01b0316816001600160a01b0316837f2f8788117e7eff1d82e926ec794901d17c78024a50270940304540a733656f0d60405160405180910390a45050565b6000828152603660205260409020613e4f90826147a2565b156112b757613e5c613dca565b6001600160a01b0316816001600160a01b0316837ff6391f5c32d9c69d2a47ea670b442974b53935d1edc7fd64eb21e047a839171b60405160405180910390a45050565b8160008111613ec15760405162461bcd60e51b8152600401610b6a9061593b565b816001600160a01b038116613ee85760405162461bcd60e51b8152600401610b6a906156ca565b602554604051636eb1769f60e11b81526000916001600160a01b03169063dd62ed3e90613f1b90879030906004016151a4565b60206040518083038186803b158015613f3357600080fd5b505afa158015613f47573d6000803e3d6000fd5b505050506040513d601f19601f82011682018060405250810190613f6b919061502c565b6025546040516370a0823160e01b81529192506000916001600160a01b03909116906370a0823190613fa1908890600401615190565b60206040518083038186803b158015613fb957600080fd5b505afa158015613fcd573d6000803e3d6000fd5b505050506040513d601f19601f82011682018060405250810190613ff1919061502c565b905080821115613fff578091505b85821015614262576000806140148885614381565b905061401f816147b7565b602454604051636eb1769f60e11b815291935083916001600160a01b039091169063dd62ed3e90614056908b9030906004016151a4565b60206040518083038186803b15801561406e57600080fd5b505afa158015614082573d6000803e3d6000fd5b505050506040513d601f19601f820116820180604052508101906140a6919061502c565b10156140c45760405162461bcd60e51b8152600401610b6a90615a6c565b6024546040516370a0823160e01b815283916001600160a01b0316906370a08231906140f4908b90600401615190565b60206040518083038186803b15801561410c57600080fd5b505afa158015614120573d6000803e3d6000fd5b505050506040513d601f19601f82011682018060405250810190614144919061502c565b10156141625760405162461bcd60e51b8152600401610b6a906153a5565b60245461417a906001600160a01b03168830856147c0565b60245460405163f53fe70f60e01b81526001600160a01b039091169063f53fe70f906141aa908590600401615217565b602060405180830381600087803b1580156141c457600080fd5b505af11580156141d8573d6000803e3d6000fd5b505050506040513d601f19601f820116820180604052508101906141fc9190614e4d565b506142078882614381565b8410156142265760405162461bcd60e51b8152600401610b6a90615317565b60006142328983614381565b111561425b5761425b87306142478b85614381565b6025546001600160a01b03169291906147c0565b50506142a6565b8582101580156142725750858110155b61428e5760405162461bcd60e51b8152600401610b6a90615317565b6025546142a6906001600160a01b03168630896147c0565b6007544210156142f657846001600160a01b03167fc2198f7273f3b4ab95a025cf1f853777ca45149bbc1c005496959a6da70fcb8d876040516142e99190615217565b60405180910390a2613319565b846001600160a01b03167f2da466a7b24304f47e87fa2e1e5a81b9831ce54fec19055ce277ca2f39ba42c48760405161192e9190615217565b604080516001600160a01b038416602482015260448082018490528251808303909101815260649091019091526020810180516001600160e01b031663a9059cbb60e01b17905261193a908490614820565b6000611c1d83836040518060400160405280601e81526020017f536166654d6174683a207375627472616374696f6e206f766572666c6f7700008152506148d1565b6000611c1d838361492b565b6000611c1d836001600160a01b03841661498f565b6000611016826149a7565b600063ffffffff821661442e576040805162461bcd60e51b8152602060048201526002602482015261042560f41b604482015290519081900360640190fd5b604080516002808252606082018352600092602083019080368337019050509050828160008151811061445d57fe5b602002602001019063ffffffff16908163ffffffff168152505060008160018151811061448657fe5b63ffffffff90921660209283029190910182015260405163883bdbfd60e01b8152600481018281528351602483015283516000936001600160a01b0389169363883bdbfd938793909283926044019185820191028083838b5b838110156144f75781810151838201526020016144df565b505050509050019250505060006040518083038186803b15801561451a57600080fd5b505afa15801561452e573d6000803e3d6000fd5b505050506040513d6000823e601f3d908101601f19168201604090815281101561455757600080fd5b8101908080516040519392919084600160201b82111561457657600080fd5b90830190602082018581111561458b57600080fd5b82518660208202830111600160201b821117156145a757600080fd5b82525081516020918201928201910280838360005b838110156145d45781810151838201526020016145bc565b5050505090500160405260200180516040519392919084600160201b8211156145fc57600080fd5b90830190602082018581111561461157600080fd5b82518660208202830111600160201b8211171561462d57600080fd5b82525081516020918201928201910280838360005b8381101561465a578181015183820152602001614642565b5050505090500160405250505050905060008160008151811061467957fe5b60200260200101518260018151811061468e57fe5b60200260200101510390508460030b60060b8160060b816146ab57fe5b05935060008160060b1280156146d557508460030b60060b8160060b816146ce57fe5b0760060b15155b156146e257600019909301925b50505092915050565b600081836147775760405162461bcd60e51b81526004018080602001828103825283818151815260200191508051906020019080838360005b8381101561473c578181015183820152602001614724565b50505050905090810190601f1680156147695780820380516001836020036101000a031916815260200191505b509250505060405180910390fd5b50600083858161478357fe5b0495945050505050565b6000611c1d836001600160a01b0384166149ab565b6000611c1d836001600160a01b0384166149f5565b633b9aca000290565b604080516001600160a01b0380861660248301528416604482015260648082018490528251808303909101815260849091019091526020810180516001600160e01b03166323b872dd60e01b17905261481a908590614820565b50505050565b6000614875826040518060400160405280602081526020017f5361666545524332303a206c6f772d6c6576656c2063616c6c206661696c6564815250856001600160a01b0316614abb9092919063ffffffff16565b80519091501561193a5780806020019051602081101561489457600080fd5b505161193a5760405162461bcd60e51b815260040180806020018281038252602a815260200180615ee5602a913960400191505060405180910390fd5b600081848411156149235760405162461bcd60e51b815260206004820181815283516024840152835190928392604490910191908501908083836000831561473c578181015183820152602001614724565b505050900390565b8154600090821061496d5760405162461bcd60e51b8152600401808060200182810382526022815260200180615cf36022913960400191505060405180910390fd5b82600001828154811061497c57fe5b9060005260206000200154905092915050565b60009081526001919091016020526040902054151590565b5490565b60006149b7838361498f565b6149ed57508154600181810184556000848152602080822090930184905584548482528286019093526040902091909155611016565b506000611016565b60008181526001830160205260408120548015614ab15783546000198083019190810190600090879083908110614a2857fe5b9060005260206000200154905080876000018481548110614a4557fe5b600091825260208083209091019290925582815260018981019092526040902090840190558654879080614a7557fe5b60019003818190600052602060002001600090559055866001016000878152602001908152602001600020600090556001945050505050611016565b6000915050611016565b6060614aca8484600085614ad2565b949350505050565b606082471015614b135760405162461bcd60e51b8152600401808060200182810382526026815260200180615e0e6026913960400191505060405180910390fd5b614b1c85614c2d565b614b6d576040805162461bcd60e51b815260206004820152601d60248201527f416464726573733a2063616c6c20746f206e6f6e2d636f6e7472616374000000604482015290519081900360640190fd5b600080866001600160a01b031685876040518082805190602001908083835b60208310614bab5780518252601f199092019160209182019101614b8c565b6001836020036101000a03801982511681845116808217855250505050505090500191505060006040518083038185875af1925050503d8060008114614c0d576040519150601f19603f3d011682016040523d82523d6000602084013e614c12565b606091505b5091509150614c22828286614c33565b979650505050505050565b3b151590565b60608315614c42575081611c1d565b825115614c525782518084602001fd5b60405162461bcd60e51b815260206004820181815284516024840152845185939192839260440191908501908083836000831561473c578181015183820152602001614724565b806080810183101561101657600080fd5b80610100810183101561101657600080fd5b60008083601f840112614ccd578182fd5b5081356001600160401b03811115614ce3578182fd5b6020830191508360208083028501011115614cfd57600080fd5b9250929050565b80518015158114610dab57600080fd5b805161ffff81168114610dab57600080fd5b600060208284031215614d37578081fd5b8135611c1d81615cce565b60008060408385031215614d54578081fd5b8235614d5f81615cce565b946020939093013593505050565b6000806101008385031215614d80578182fd5b614d8a8484614c99565b9150614d998460808501614c99565b90509250929050565b6000806000806000806000610300888a031215614dbd578283fd5b614dc78989614caa565b96506101c0880189811115614dda578384fd5b61010089019650614deb8a82614caa565b9550506102c08801356001600160401b0380821115614e08578485fd5b614e148b838c01614cbc565b90965094506102e08a0135915080821115614e2d578384fd5b50614e3a8a828b01614cbc565b989b979a50959850939692959293505050565b600060208284031215614e5e578081fd5b611c1d82614d04565b600060208284031215614e78578081fd5b5035919050565b60008060408385031215614e91578182fd5b823591506020830135614ea381615cce565b809150509250929050565b60008060408385031215614ec0578182fd5b50508035926020909101359150565b60006020808385031215614ee1578182fd5b82356001600160401b0380821115614ef7578384fd5b818501915085601f830112614f0a578384fd5b813581811115614f1657fe5b604051601f8201601f1916810185018381118282101715614f3357fe5b6040528181528382018501881015614f49578586fd5b818585018683013790810190930193909352509392505050565b600060208284031215614f74578081fd5b8135611c1d81615ce3565b600060208284031215614f90578081fd5b8151611c1d81615ce3565b600080600080600080600060e0888a031215614fb5578081fd5b8751614fc081615cce565b6020890151909750614fd181615ce3565b9550614fdf60408901614d14565b9450614fed60608901614d14565b9350614ffb60808901614d14565b925060a088015160ff81168114615010578182fd5b915061501e60c08901614d04565b905092959891949750929550565b60006020828403121561503d578081fd5b5051919050565b60008060008060006060868803121561505b578283fd5b8535945060208601356001600160401b0380821115615078578485fd5b61508489838a01614cbc565b9096509450604088013591508082111561509c578283fd5b506150a988828901614cbc565b969995985093965092949392505050565b6000806000606084860312156150ce578081fd5b835192506020840151915060408401516150e781615cce565b809150509250925092565b600080600060608486031215615106578081fd5b505081359360208301359350604090920135919050565b60008060008060808587031215615132578182fd5b5050823594602084013594506040840135936060013592509050565b60008060008060008060c08789031215615166578384fd5b505084359660208601359650604086013595606081013595506080810135945060a0013592509050565b6001600160a01b0391909116815260200190565b6001600160a01b0392831681529116602082015260400190565b6001600160a01b03929092168252602082015260400190565b901515815260200190565b92151583526020830191909152604082015260600190565b931515845260208401929092526040830152606082015260800190565b90815260200190565b60029190910b815260200190565b600293840b815291830b602083015290910b604082015260600190565b6020808252818101527f5075626c696353616c653a20646f6e74206861766520726566756e6420746f6e604082015260600190565b6020808252601d908201527f5075626c696353616c653a206e65656420746f206d6f72652073544f53000000604082015260600190565b6020808252601b908201527a283ab13634b1a9b0b632901d102937bab73218ba34b6b29032b93960291b604082015260600190565b6020808252601190820152701e995c9bc81a5b9c1d5d08185b5bdd5b9d607a1b604082015260600190565b60208082526021908201527f5075626c696353616c653a20746f6e206578636565647320616c6c6f77616e636040820152606560f81b606082015260800190565b6020808252602d908201527f5075626c696353616c653a206578636c7573697665537461727454696d65206860408201526c185cc81b9bdd081c185cdcd959609a1b606082015260800190565b6020808252600e908201526d3732b2b21036b7b932903bba37b760911b604082015260600190565b60208082526011908201527031b630b4b6a832b931b2b73a399032b93960791b604082015260600190565b60208082526021908201527f5075626c696353616c653a20656e64207468652077686974656c69737454696d6040820152606560f81b606082015260800190565b60208082526027908201527f5075626c696353616c653a206e65656420746f20656e6420746865206465706f60408201526673697454696d6560c81b606082015260800190565b6020808252601f908201527f5075626c696353616c653a206e65656420746f20736574206d696e2c6d617800604082015260600190565b6020808252602c908201527f5075626c696353616c653a206a757374206275792074696572277320616c6c6f60408201526b18d85d195908185b5bdd5b9d60a21b606082015260800190565b60208082526022908201527f5075626c696353616c65203a20616d6f756e74496e20697320746f6f206c6172604082015261676560f01b606082015260800190565b60208082526013908201527239b730b839b437ba103732b2b2103630ba32b960691b604082015260600190565b60208082526021908201527f5075626c696353616c653a20646f6e277420737461727420636c61696d54696d6040820152606560f81b606082015260800190565b60208082526021908201527f5075626c696353616c653a20656e6420746865206578636c757369766554696d6040820152606560f81b606082015260800190565b6020808252601e908201527f5075626c696353616c653a206e6f20707572636861736520616d6f756e740000604082015260600190565b6020808252818101527f5075626c696353616c653a20616c726561647920676574416c6c726577617264604082015260600190565b602080825260199082015278283ab13634b1a9b0b6329d1031b630b4b6ba34b6b29032b93960391b604082015260600190565b6020808252601f908201527f5075626c696353616c653a2053756d2073686f756c6420626520313030303000604082015260600190565b6020808252601890820152775075626c696353616c653a207a65726f206164647265737360401b604082015260600190565b6020808252601b908201527a283ab13634b1a9b0b632901d102937bab732193a34b6b29032b93960291b604082015260600190565b60208082526027908201527f5075626c696353616c653a206e6f74207265676973746572656420696e2077686040820152661a5d195b1a5cdd60ca1b606082015260800190565b6020808252601f908201527f5075626c696353616c653a20656e6420746865206465706f73697454696d6500604082015260600190565b6020808252601f908201527f5075626c696353616c653a206e6f20746f6b656e20746f207265636569766500604082015260600190565b6020808252601790820152761c1bdbdb081a5cc81b9bdd081a5b9a5d1a585b1a5e9959604a1b604082015260600190565b6020808252601d908201527f5075626c696353616c653a20616c726561647920676574526566756e64000000604082015260600190565b602080825260159082015274141d589b1a58d4d85b194e881b9bc81c995dd85c99605a1b604082015260600190565b60208082526010908201526f1bdb9b1e48111053c818d85b881cd95d60821b604082015260600190565b60208082526027908201527f5075626c696353616c653a20646f6e7420686176652073616c65546f6b656e206040820152661a5b881c1bdbdb60ca1b606082015260800190565b6020808252601190820152701b995959081d1a194818db185a5b54d95d607a1b604082015260600190565b6020808252600890820152673a34b6b29032b93960c11b604082015260600190565b60208082526010908201526f5075626c696353616c653a207a65726f60801b604082015260600190565b6020808252600e908201526d3a34b2b91039b2ba1032b93937b960911b604082015260600190565b60208082526022908201527f5075626c696353616c653a20646f6e2774207061737320746865206861726443604082015261061760f41b606082015260800190565b60208082526023908201527f5075626c696353616c653a20646f6e2774207374617274206465706f73697454604082015262696d6560e81b606082015260800190565b6020808252601c908201527b141d589b1a58d4d85b194e88185b1c9958591e48185d1d195b99195960221b604082015260600190565b6020808252600a908201526930b6b7bab73a1032b93960b11b604082015260600190565b60208082526022908201527f5075626c696353616c653a2077746f6e206578636565647320616c6c6f77616e604082015261636560f01b606082015260800190565b60208082526027908201527f5075626c696353616c653a206e6f74206265666f72655374617274416464576860408201526669746554696d6560c81b606082015260800190565b6020808252601990820152781dda1a5d195b1a5cdd081899599bdc99481cdb985c1cda1bdd603a1b604082015260600190565b60208082526024908201527f49742773206e6f7420616c6c6f776564206368616e676564207469636b2072616040820152633733b29760e11b606082015260800190565b6020808252602d908201527f5075626c696353616c653a2077686974656c697374537461727454696d65206860408201526c185cc81b9bdd081c185cdcd959609a1b606082015260800190565b60208082526027908201527f5075626c696353616c65203a206e656564207468652065786368616e676557546040820152664f4e746f544f5360c81b606082015260800190565b81516001600160a01b03908116825260208084015182169083015260408084015162ffffff16908301526060808401518216908301526080808401519083015260a0838101519083015260c0808401519083015260e09283015116918101919091526101000190565b62ffffff91909116815260200190565b9485526001600160a01b0393841660208601529183166040850152909116606083015260020b608082015260a00190565b918252602082015260400190565b9283526020830191909152604082015260600190565b6001600160a01b0381168114611f9257600080fd5b8060020b8114611f9257600080fdfe456e756d657261626c655365743a20696e646578206f7574206f6620626f756e6473416363657373436f6e74726f6c3a2073656e646572206d75737420626520616e2061646d696e20746f206772616e745265656e7472616e637947756172643a207265656e7472616e742063616c6c0052eafc11f6f81f86878bffd31109a0d92f37506527754f00788853ff9f63b13041636365737369626c653a2043616c6c6572206973206e6f7420616e2061646d696e0d07fe408fa264e656a9c06e272928e4d4bb400d93cd5b5e74ac592f6170c2fd1f20ec30f5e9c102cf5806d0bb8118b98c797a37ea4ca5b5c306ba879366c77c41636365737369626c653a2043616c6c6572206973206e6f7420616e2070726f78792061646d696e416464726573733a20696e73756666696369656e742062616c616e636520666f722063616c6c416363657373436f6e74726f6c3a2073656e646572206d75737420626520616e2061646d696e20746f207265766f6b659ff19f865638bb86eeeae31c2a9ec896d92141edd461fe8f31e9e7484e4d2bb5536166654d6174683a206d756c7469706c69636174696f6e206f766572666c6f77d7dee2702d63ad89917b6a4da9981c90c4d24f8c2bdfd64c604ecae57d8d06518e3caac72b6c5bb0462da38c8c8c3b5fbc00a646bd75367c23c11d594c4e36c95361666545524332303a204552433230206f7065726174696f6e20646964206e6f7420737563636565643f52cf82629296489b84e1dbb72f035157400392aa100335795b652755f8cdda416363657373436f6e74726f6c3a2063616e206f6e6c792072656e6f756e636520726f6c657320666f722073656c66a2646970667358221220fbade3071e507eae37f8df1b6afcd5adf96b7f9b640a4dde9f0b3a8fbca6aa6464736f6c63430007060033",
  "linkReferences": {
    "contracts/libraries/LibPublicSale2.sol": {
      "LibPublicSale2": [
        {
          "length": 20,
          "start": 13493
        },
        {
          "length": 20,
          "start": 13662
        },
        {
          "length": 20,
          "start": 13854
        }
      ]
    }
  },
  "deployedLinkReferences": {
    "contracts/libraries/LibPublicSale2.sol": {
      "LibPublicSale2": [
        {
          "length": 20,
          "start": 13385
        },
        {
          "length": 20,
          "start": 13554
        },
        {
          "length": 20,
          "start": 13746
        }
      ]
    }
  }
}