{
  "_format": "hh-sol-artifact-1",
  "contractName": "PublicSaleProxyFactory",
  "sourceName": "contracts/factory/PublicSaleProxyFactory.sol",
  "abi": [
    {
      "inputs": [],
      "stateMutability": "nonpayable",
      "type": "constructor"
    },
    {
      "anonymous": false,
      "inputs": [
        {
          "indexed": false,
          "internalType": "address",
          "name": "contractAddress",
          "type": "address"
        },
        {
          "indexed": false,
          "internalType": "string",
          "name": "name",
          "type": "string"
        }
      ],
      "name": "CreatedPublicSaleProxy",
      "type": "event"
    },
    {
      "anonymous": false,
      "inputs": [
        {
          "indexed": true,
          "internalType": "bytes32",
          "name": "role",
          "type": "bytes32"
        },
        {
          "indexed": true,
          "internalType": "bytes32",
          "name": "previousAdminRole",
          "type": "bytes32"
        },
        {
          "indexed": true,
          "internalType": "bytes32",
          "name": "newAdminRole",
          "type": "bytes32"
        }
      ],
      "name": "RoleAdminChanged",
      "type": "event"
    },
    {
      "anonymous": false,
      "inputs": [
        {
          "indexed": true,
          "internalType": "bytes32",
          "name": "role",
          "type": "bytes32"
        },
        {
          "indexed": true,
          "internalType": "address",
          "name": "account",
          "type": "address"
        },
        {
          "indexed": true,
          "internalType": "address",
          "name": "sender",
          "type": "address"
        }
      ],
      "name": "RoleGranted",
      "type": "event"
    },
    {
      "anonymous": false,
      "inputs": [
        {
          "indexed": true,
          "internalType": "bytes32",
          "name": "role",
          "type": "bytes32"
        },
        {
          "indexed": true,
          "internalType": "address",
          "name": "account",
          "type": "address"
        },
        {
          "indexed": true,
          "internalType": "address",
          "name": "sender",
          "type": "address"
        }
      ],
      "name": "RoleRevoked",
      "type": "event"
    },
    {
      "inputs": [],
      "name": "ADMIN_ROLE",
      "outputs": [
        {
          "internalType": "bytes32",
          "name": "",
          "type": "bytes32"
        }
      ],
      "stateMutability": "view",
      "type": "function"
    },
    {
      "inputs": [],
      "name": "BURNER_ROLE",
      "outputs": [
        {
          "internalType": "bytes32",
          "name": "",
          "type": "bytes32"
        }
      ],
      "stateMutability": "view",
      "type": "function"
    },
    {
      "inputs": [],
      "name": "DEFAULT_ADMIN_ROLE",
      "outputs": [
        {
          "internalType": "bytes32",
          "name": "",
          "type": "bytes32"
        }
      ],
      "stateMutability": "view",
      "type": "function"
    },
    {
      "inputs": [],
      "name": "MINTER_ROLE",
      "outputs": [
        {
          "internalType": "bytes32",
          "name": "",
          "type": "bytes32"
        }
      ],
      "stateMutability": "view",
      "type": "function"
    },
    {
      "inputs": [],
      "name": "PROJECT_ADMIN_ROLE",
      "outputs": [
        {
          "internalType": "bytes32",
          "name": "",
          "type": "bytes32"
        }
      ],
      "stateMutability": "view",
      "type": "function"
    },
    {
      "inputs": [
        {
          "internalType": "address",
          "name": "account",
          "type": "address"
        }
      ],
      "name": "addAdmin",
      "outputs": [],
      "stateMutability": "nonpayable",
      "type": "function"
    },
    {
      "inputs": [
        {
          "internalType": "address[3]",
          "name": "_addr",
          "type": "address[3]"
        },
        {
          "internalType": "uint256[7]",
          "name": "_value",
          "type": "uint256[7]"
        }
      ],
      "name": "allSet",
      "outputs": [],
      "stateMutability": "nonpayable",
      "type": "function"
    },
    {
      "inputs": [
        {
          "internalType": "address[6]",
          "name": "_basicAddress",
          "type": "address[6]"
        }
      ],
      "name": "basicSet",
      "outputs": [],
      "stateMutability": "nonpayable",
      "type": "function"
    },
    {
      "inputs": [
        {
          "internalType": "string",
          "name": "name",
          "type": "string"
        },
        {
          "internalType": "address",
          "name": "_owner",
          "type": "address"
        },
        {
          "internalType": "address[3]",
          "name": "saleAddresses",
          "type": "address[3]"
        },
        {
          "internalType": "uint256",
          "name": "_index",
          "type": "uint256"
        }
      ],
      "name": "create",
      "outputs": [
        {
          "internalType": "address",
          "name": "",
          "type": "address"
        }
      ],
      "stateMutability": "nonpayable",
      "type": "function"
    },
    {
      "inputs": [
        {
          "internalType": "uint256",
          "name": "",
          "type": "uint256"
        }
      ],
      "name": "createdContracts",
      "outputs": [
        {
          "internalType": "address",
          "name": "contractAddress",
          "type": "address"
        },
        {
          "internalType": "string",
          "name": "name",
          "type": "string"
        }
      ],
      "stateMutability": "view",
      "type": "function"
    },
    {
      "inputs": [],
      "name": "delayTime",
      "outputs": [
        {
          "internalType": "uint256",
          "name": "",
          "type": "uint256"
        }
      ],
      "stateMutability": "view",
      "type": "function"
    },
    {
      "inputs": [
        {
          "internalType": "uint256",
          "name": "_index",
          "type": "uint256"
        }
      ],
      "name": "getContracts",
      "outputs": [
        {
          "internalType": "address",
          "name": "contractAddress",
          "type": "address"
        },
        {
          "internalType": "string",
          "name": "name",
          "type": "string"
        }
      ],
      "stateMutability": "view",
      "type": "function"
    },
    {
      "inputs": [
        {
          "internalType": "bytes32",
          "name": "role",
          "type": "bytes32"
        }
      ],
      "name": "getRoleAdmin",
      "outputs": [
        {
          "internalType": "bytes32",
          "name": "",
          "type": "bytes32"
        }
      ],
      "stateMutability": "view",
      "type": "function"
    },
    {
      "inputs": [
        {
          "internalType": "bytes32",
          "name": "role",
          "type": "bytes32"
        },
        {
          "internalType": "address",
          "name": "account",
          "type": "address"
        }
      ],
      "name": "grantRole",
      "outputs": [],
      "stateMutability": "nonpayable",
      "type": "function"
    },
    {
      "inputs": [
        {
          "internalType": "bytes32",
          "name": "role",
          "type": "bytes32"
        },
        {
          "internalType": "address",
          "name": "account",
          "type": "address"
        }
      ],
      "name": "hasRole",
      "outputs": [
        {
          "internalType": "bool",
          "name": "",
          "type": "bool"
        }
      ],
      "stateMutability": "view",
      "type": "function"
    },
    {
      "inputs": [
        {
          "internalType": "address",
          "name": "account",
          "type": "address"
        }
      ],
      "name": "isAdmin",
      "outputs": [
        {
          "internalType": "bool",
          "name": "",
          "type": "bool"
        }
      ],
      "stateMutability": "view",
      "type": "function"
    },
    {
      "inputs": [],
      "name": "lastestCreated",
      "outputs": [
        {
          "internalType": "address",
          "name": "contractAddress",
          "type": "address"
        },
        {
          "internalType": "string",
          "name": "name",
          "type": "string"
        }
      ],
      "stateMutability": "view",
      "type": "function"
    },
    {
      "inputs": [],
      "name": "logEventAddress",
      "outputs": [
        {
          "internalType": "address",
          "name": "",
          "type": "address"
        }
      ],
      "stateMutability": "view",
      "type": "function"
    },
    {
      "inputs": [],
      "name": "maxTOS",
      "outputs": [
        {
          "internalType": "uint256",
          "name": "",
          "type": "uint256"
        }
      ],
      "stateMutability": "view",
      "type": "function"
    },
    {
      "inputs": [],
      "name": "minTOS",
      "outputs": [
        {
          "internalType": "uint256",
          "name": "",
          "type": "uint256"
        }
      ],
      "stateMutability": "view",
      "type": "function"
    },
    {
      "inputs": [],
      "name": "publicLogic",
      "outputs": [
        {
          "internalType": "address",
          "name": "",
          "type": "address"
        }
      ],
      "stateMutability": "view",
      "type": "function"
    },
    {
      "inputs": [
        {
          "internalType": "address",
          "name": "account",
          "type": "address"
        }
      ],
      "name": "removeAdmin",
      "outputs": [],
      "stateMutability": "nonpayable",
      "type": "function"
    },
    {
      "inputs": [
        {
          "internalType": "bytes32",
          "name": "role",
          "type": "bytes32"
        },
        {
          "internalType": "address",
          "name": "account",
          "type": "address"
        }
      ],
      "name": "renounceRole",
      "outputs": [],
      "stateMutability": "nonpayable",
      "type": "function"
    },
    {
      "inputs": [
        {
          "internalType": "bytes32",
          "name": "role",
          "type": "bytes32"
        },
        {
          "internalType": "address",
          "name": "account",
          "type": "address"
        }
      ],
      "name": "revokeRole",
      "outputs": [],
      "stateMutability": "nonpayable",
      "type": "function"
    },
    {
      "inputs": [],
      "name": "sTOSAddress",
      "outputs": [
        {
          "internalType": "address",
          "name": "",
          "type": "address"
        }
      ],
      "stateMutability": "view",
      "type": "function"
    },
    {
      "inputs": [
        {
          "internalType": "uint256",
          "name": "_delay",
          "type": "uint256"
        }
      ],
      "name": "setDelay",
      "outputs": [],
      "stateMutability": "nonpayable",
      "type": "function"
    },
    {
      "inputs": [
        {
          "internalType": "address",
          "name": "_addr",
          "type": "address"
        }
      ],
      "name": "setEventLog",
      "outputs": [],
      "stateMutability": "nonpayable",
      "type": "function"
    },
    {
      "inputs": [
        {
          "internalType": "uint256",
          "name": "_min",
          "type": "uint256"
        },
        {
          "internalType": "uint256",
          "name": "_max",
          "type": "uint256"
        }
      ],
      "name": "setMaxMin",
      "outputs": [],
      "stateMutability": "nonpayable",
      "type": "function"
    },
    {
      "inputs": [
        {
          "internalType": "uint256",
          "name": "_tier1",
          "type": "uint256"
        },
        {
          "internalType": "uint256",
          "name": "_tier2",
          "type": "uint256"
        },
        {
          "internalType": "uint256",
          "name": "_tier3",
          "type": "uint256"
        },
        {
          "internalType": "uint256",
          "name": "_tier4",
          "type": "uint256"
        }
      ],
      "name": "setSTOS",
      "outputs": [],
      "stateMutability": "nonpayable",
      "type": "function"
    },
    {
      "inputs": [
        {
          "internalType": "address",
          "name": "addr",
          "type": "address"
        }
      ],
      "name": "setUpgradeAdmin",
      "outputs": [],
      "stateMutability": "nonpayable",
      "type": "function"
    },
    {
      "inputs": [
        {
          "internalType": "address",
          "name": "_vaultFactory",
          "type": "address"
        }
      ],
      "name": "setVault",
      "outputs": [],
      "stateMutability": "nonpayable",
      "type": "function"
    },
    {
      "inputs": [
        {
          "internalType": "bytes4",
          "name": "interfaceId",
          "type": "bytes4"
        }
      ],
      "name": "supportsInterface",
      "outputs": [
        {
          "internalType": "bool",
          "name": "",
          "type": "bool"
        }
      ],
      "stateMutability": "view",
      "type": "function"
    },
    {
      "inputs": [],
      "name": "tier1",
      "outputs": [
        {
          "internalType": "uint256",
          "name": "",
          "type": "uint256"
        }
      ],
      "stateMutability": "view",
      "type": "function"
    },
    {
      "inputs": [],
      "name": "tier2",
      "outputs": [
        {
          "internalType": "uint256",
          "name": "",
          "type": "uint256"
        }
      ],
      "stateMutability": "view",
      "type": "function"
    },
    {
      "inputs": [],
      "name": "tier3",
      "outputs": [
        {
          "internalType": "uint256",
          "name": "",
          "type": "uint256"
        }
      ],
      "stateMutability": "view",
      "type": "function"
    },
    {
      "inputs": [],
      "name": "tier4",
      "outputs": [
        {
          "internalType": "uint256",
          "name": "",
          "type": "uint256"
        }
      ],
      "stateMutability": "view",
      "type": "function"
    },
    {
      "inputs": [],
      "name": "tonAddress",
      "outputs": [
        {
          "internalType": "address",
          "name": "",
          "type": "address"
        }
      ],
      "stateMutability": "view",
      "type": "function"
    },
    {
      "inputs": [],
      "name": "tosAddress",
      "outputs": [
        {
          "internalType": "address",
          "name": "",
          "type": "address"
        }
      ],
      "stateMutability": "view",
      "type": "function"
    },
    {
      "inputs": [],
      "name": "totalCreatedContracts",
      "outputs": [
        {
          "internalType": "uint256",
          "name": "",
          "type": "uint256"
        }
      ],
      "stateMutability": "view",
      "type": "function"
    },
    {
      "inputs": [
        {
          "internalType": "address",
          "name": "newAdmin",
          "type": "address"
        }
      ],
      "name": "transferAdmin",
      "outputs": [],
      "stateMutability": "nonpayable",
      "type": "function"
    },
    {
      "inputs": [],
      "name": "uniRouterAddress",
      "outputs": [
        {
          "internalType": "address",
          "name": "",
          "type": "address"
        }
      ],
      "stateMutability": "view",
      "type": "function"
    },
    {
      "inputs": [],
      "name": "upgradeAdmin",
      "outputs": [
        {
          "internalType": "address",
          "name": "",
          "type": "address"
        }
      ],
      "stateMutability": "view",
      "type": "function"
    },
    {
      "inputs": [],
      "name": "vaultFactory",
      "outputs": [
        {
          "internalType": "address",
          "name": "",
          "type": "address"
        }
      ],
      "stateMutability": "view",
      "type": "function"
    },
    {
      "inputs": [],
      "name": "wtonAddress",
      "outputs": [
        {
          "internalType": "address",
          "name": "",
          "type": "address"
        }
      ],
      "stateMutability": "view",
      "type": "function"
    }
  ],
  "bytecode": "0x60806040523480156200001157600080fd5b5060006001556200003260008051602062004f818339815191528062000065565b6200004d60008051602062004f8183398151915233620000b0565b600c80546001600160a01b0319163317905562000160565b600082815260208190526040808220600101805490849055905190918391839186917fbd79b86ffe0ab8e8776151514217cd7cacd52c909f66475c3af44e129f0b00ff9190a4505050565b620000bc8282620000c0565b5050565b6000828152602081815260408083206001600160a01b038516845290915290205460ff16620000bc576000828152602081815260408083206001600160a01b03851684529091529020805460ff191660011790556200011c3390565b6001600160a01b0316816001600160a01b0316837f2f8788117e7eff1d82e926ec794901d17c78024a50270940304540a733656f0d60405160405180910390a45050565b614e1180620001706000396000f3fe60806040523480156200001157600080fd5b5060043610620002325760003560e01c806301ffc9a714620002375780630881139714620002635780630eec5ef1146200028a5780631042f08d14620002a35780631785f53c14620002c65780631b61aaab14620002dd578063248a9ca314620002f457806324d7806c146200031a578063282c51f314620003315780632f2ff15d1462000359578063338bad5f146200037057806333ae7166146200037a57806336568abe14620003845780633806153e146200039b57806341c04d5e14620003a5578063439e23fd14620003cd5780634a24005114620003e45780634b1740ad14620003f8578063520a63dc14620004025780636817031b146200040c578063693a090b14620004235780636a93d511146200043757806370480275146200044b57806375829def146200046257806375b238fc146200047957806377fc004514620004905780637e2eee5314620004a457806384d3bac314620004ae57806389ae153e14620004b8578063906a5c5a14620004cf57806391d1485414620004e65780639342f41714620004fd578063a217fddf1462000514578063b8ead735146200051d578063bb6b13a11462000531578063c4d5608a146200053b578063d0526187146200054f578063d53913931462000559578063d547741f1462000581578063d8a06f731462000598578063e177246e14620005ac578063eab73ca114620005c3578063eff616f014620005d7578063fc8c974514620005ee575b600080fd5b6200024e6200024836600462001cca565b62000605565b60405190151581526020015b60405180910390f35b6200027a6200027436600462001cf6565b6200063d565b6040516200025a92919062001d64565b620002a16200029b36600462001d92565b620006f4565b005b600754620002b7906001600160a01b031681565b6040516200025a919062001dbc565b620002a1620002d736600462001de6565b62000853565b620002a1620002ee36600462001e06565b6200089b565b6200030b6200030536600462001cf6565b62000933565b6040519081526020016200025a565b6200024e6200032b36600462001de6565b62000948565b6200030b7f9667e80708b6eeeb0053fa0cca44e028ff548e2a9f029edfeac87c118b08b7c881565b620002a16200036a36600462001e39565b62000965565b6200027a6200098c565b6200030b60105481565b620002a16200039536600462001e39565b62000aa5565b6200030b600e5481565b6200030b7f52eafc11f6f81f86878bffd31109a0d92f37506527754f00788853ff9f63b13081565b6200027a620003de36600462001cf6565b62000b27565b600b54620002b7906001600160a01b031681565b6200030b600f5481565b6200030b60025481565b620002a16200041d36600462001de6565b62000c0d565b600854620002b7906001600160a01b031681565b600454620002b7906001600160a01b031681565b620002a16200045c36600462001de6565b62000c8a565b620002a16200047336600462001de6565b62000ccf565b6200030b60008051602062004dbc83398151915281565b600654620002b7906001600160a01b031681565b6200030b60115481565b6200030b60035481565b620002a1620004c936600462001e6c565b62000dd5565b620002b7620004e036600462001ea1565b62000e4c565b6200024e620004f736600462001e39565b62001703565b620002a16200050e36600462001de6565b6200172c565b6200030b600081565b600554620002b7906001600160a01b031681565b6200030b600d5481565b600c54620002b7906001600160a01b031681565b6200030b60015481565b6200030b7ff0887ba65ee2024ea881d91b74c2450ef19e1557f03bed3ea9f16b037cbe2dc981565b620002a16200059236600462001e39565b620017d4565b600954620002b7906001600160a01b031681565b620002a1620005bd36600462001cf6565b620017f6565b600a54620002b7906001600160a01b031681565b620002a1620005e836600462001f44565b62001865565b620002a1620005ff36600462001de6565b6200190c565b60006001600160e01b03198216637965db0b60e01b14806200063757506301ffc9a760e01b6001600160e01b03198316145b92915050565b601260205260009081526040902080546001820180546001600160a01b0390921692916200066b9062001f86565b80601f0160208091040260200160405190810160405280929190818152602001828054620006999062001f86565b8015620006ea5780601f10620006be57610100808354040283529160200191620006ea565b820191906000526020600020905b815481529060010190602001808311620006cc57829003601f168201915b5050505050905082565b620006ff3362000948565b620007275760405162461bcd60e51b81526004016200071e9062001fbc565b60405180910390fd5b62000736602082018262001de6565b600480546001600160a01b0319166001600160a01b039290921691909117905562000768604082016020830162001de6565b600580546001600160a01b0319166001600160a01b03929092169190911790556200079a606082016040830162001de6565b600680546001600160a01b0319166001600160a01b0392909216919091179055620007cc608082016060830162001de6565b600780546001600160a01b0319166001600160a01b0392909216919091179055620007fe60a082016080830162001de6565b600880546001600160a01b0319166001600160a01b03929092169190911790556200083060c0820160a0830162001de6565b600b80546001600160a01b0319166001600160a01b039290921691909117905550565b6200085e3362000948565b6200087d5760405162461bcd60e51b81526004016200071e9062001fbc565b6200089860008051602062004dbc8339815191528262000aa5565b50565b620008a63362000948565b620008c55760405162461bcd60e51b81526004016200071e9062001fbc565b8284108015620008d457508183105b8015620008e057508082105b6200091f5760405162461bcd60e51b815260206004820152600e60248201526d3a34b2b91039b2ba1032b93937b960911b60448201526064016200071e565b600d93909355600e91909155600f55601055565b60009081526020819052604090206001015490565b60006200063760008051602062004dbc8339815191528362001703565b620009708262000933565b6200097b8162001989565b62000987838362001995565b505050565b600060606000600154111562000a90576012600060018054620009b091906200202a565b81526020810191909152604001600090812054600180546001600160a01b03909216926012929091620009e3916200202a565b815260200190815260200160002060010180805462000a029062001f86565b80601f016020809104026020016040519081016040528092919081815260200182805462000a309062001f86565b801562000a815780601f1062000a555761010080835404028352916020019162000a81565b820191906000526020600020905b81548152906001019060200180831162000a6357829003601f168201915b50505050509050915091509091565b50506040805160208101909152600080825291565b6001600160a01b038116331462000b175760405162461bcd60e51b815260206004820152602f60248201527f416363657373436f6e74726f6c3a2063616e206f6e6c792072656e6f756e636560448201526e103937b632b9903337b91039b2b63360891b60648201526084016200071e565b62000b23828262001a1d565b5050565b6000606060015483101562000bf55760008381526012602052604090208054600190910180546001600160a01b0390921691819062000b669062001f86565b80601f016020809104026020016040519081016040528092919081815260200182805462000b949062001f86565b801562000be55780601f1062000bb95761010080835404028352916020019162000be5565b820191906000526020600020905b81548152906001019060200180831162000bc757829003601f168201915b5050505050905091509150915091565b50506040805160208101909152600080825292909150565b62000c183362000948565b62000c375760405162461bcd60e51b81526004016200071e9062001fbc565b6009546001600160a01b039081169082160362000c685760405162461bcd60e51b81526004016200071e9062002040565b600980546001600160a01b0319166001600160a01b0392909216919091179055565b62000c953362000948565b62000cb45760405162461bcd60e51b81526004016200071e9062001fbc565b6200089860008051602062004dbc8339815191528262000965565b62000cda3362000948565b62000cf95760405162461bcd60e51b81526004016200071e9062001fbc565b6001600160a01b03811662000d4c5760405162461bcd60e51b815260206004820152601860248201527741636365737369626c653a207a65726f206164647265737360401b60448201526064016200071e565b6001600160a01b038116330362000d9f5760405162461bcd60e51b815260206004820152601660248201527520b1b1b2b9b9b4b136329d1039b0b6b29030b236b4b760511b60448201526064016200071e565b62000dba60008051602062004dbc8339815191528262000965565b6200089860008051602062004dbc8339815191523362000aa5565b62000de03362000948565b62000dff5760405162461bcd60e51b81526004016200071e9062001fbc565b80821062000e415760405162461bcd60e51b815260206004820152600e60248201526d0dccacac840dad2dc407840dac2f60931b60448201526064016200071e565b600291909155600355565b6000836001600160a01b03811662000e785760405162461bcd60e51b81526004016200071e9062002064565b62000e87602085018562001de6565b6001600160a01b03811662000eb05760405162461bcd60e51b81526004016200071e9062002064565b62000ec2604086016020870162001de6565b6001600160a01b03811662000eeb5760405162461bcd60e51b81526004016200071e9062002064565b62000efd606087016040880162001de6565b6001600160a01b03811662000f265760405162461bcd60e51b81526004016200071e9062002064565b8862000f655760405162461bcd60e51b815260206004820152600d60248201526c6e616d6520697320656d70747960981b60448201526064016200071e565b600060405162000f759062001cbc565b604051809103906000f08015801562000f92573d6000803e3d6000fd5b5090506001600160a01b03811662000fda5760405162461bcd60e51b815260206004820152600a60248201526970726f7879207a65726f60b01b60448201526064016200071e565b60095460405163439e23fd60e01b8152600481018990526000916001600160a01b03169063439e23fd90602401600060405180830381865afa15801562001025573d6000803e3d6000fd5b505050506040513d6000823e601f3d908101601f191682016040526200104f9190810190620020b0565b5090506200106460608a0160408b0162001de6565b6001600160a01b0316816001600160a01b031614620010bf5760405162461bcd60e51b8152602060048201526016602482015275185b9bdd1a195c881b1a5c5d5a591a5d1e55985d5b1d60521b60448201526064016200071e565b600c546040516325bc555f60e21b81526001600160a01b03848116926396f1557c92620010f3929091169060040162001dbc565b600060405180830381600087803b1580156200110e57600080fd5b505af115801562001123573d6000803e3d6000fd5b5050600c54604051637048027560e01b81526001600160a01b038087169450637048027593506200115992169060040162001dbc565b600060405180830381600087803b1580156200117457600080fd5b505af115801562001189573d6000803e3d6000fd5b5050604051637048027560e01b81526001600160a01b038516925063704802759150620011bb908d9060040162001dbc565b600060405180830381600087803b158015620011d657600080fd5b505af1158015620011eb573d6000803e3d6000fd5b5050600b54604051637cd5f66360e01b81526001600160a01b03918216600482015260006024820152600160448201529085169250637cd5f6639150606401600060405180830381600087803b1580156200124557600080fd5b505af11580156200125a573d6000803e3d6000fd5b5050506001600160a01b038316905063c0c53b8b6200127d60208c018c62001de6565b6200128f60408d0160208e0162001de6565b620012a160608e0160408f0162001de6565b60405160e085901b6001600160e01b03191681526001600160a01b03938416600482015291831660248301529091166044820152606401600060405180830381600087803b158015620012f357600080fd5b505af115801562001308573d6000803e3d6000fd5b505060048054600654600554600854600754604051636d9ff15760e01b81526001600160a01b039586169681019690965292841660248601529083166044850152821660648401528116608483015285169250636d9ff157915060a401600060405180830381600087803b1580156200138057600080fd5b505af115801562001395573d6000803e3d6000fd5b505060025460035460405163653a151b60e01b8152600481019290925260248201526001600160a01b038516925063653a151b9150604401600060405180830381600087803b158015620013e857600080fd5b505af1158015620013fd573d6000803e3d6000fd5b5050600d54600e54600f5460105460405163561e233b60e11b815260048101949094526024840192909252604483015260648201526001600160a01b038516925063ac3c46769150608401600060405180830381600087803b1580156200146357600080fd5b505af115801562001478573d6000803e3d6000fd5b505060115460405163112a3da360e31b815260048101919091526001600160a01b0385169250638951ed189150602401600060405180830381600087803b158015620014c357600080fd5b505af1158015620014d8573d6000803e3d6000fd5b50505050816001600160a01b0316639a202d476040518163ffffffff1660e01b8152600401600060405180830381600087803b1580156200151857600080fd5b505af11580156200152d573d6000803e3d6000fd5b505050506040518060400160405280836001600160a01b031681526020018d8d8080601f0160208091040260200160405190810160405280939291908181526020018383808284376000920182905250939094525050600180548252601260209081526040909220845181546001600160a01b0319166001600160a01b0390911617815591840151919250820190620015c79082620021d2565b50506001805491506000620015dc836200229e565b91905055506000828d8d604051602001620015fa93929190620022ba565b60408051601f1981840301815290829052600a5463beee31bf60e01b83529092506001600160a01b03169063beee31bf9062001681907f5f972b23217734c5c40aaa04980bc647314f310a8679234cf0bc9478803286f5907f28f876e0274a3093ecb1b6a264297d94e351fbdf53f265e39c0f76bb12efedf99030908790600401620022fa565b600060405180830381600087803b1580156200169c57600080fd5b505af1158015620016b1573d6000803e3d6000fd5b505050507fb5f4f34b25ae6ed4df40be765442ea13afd293618f4f3815fee7de7ed6244378838e8e604051620016ea93929190620022ba565b60405180910390a150909b9a5050505050505050505050565b6000918252602082815260408084206001600160a01b0393909316845291905290205460ff1690565b620017373362000948565b620017565760405162461bcd60e51b81526004016200071e9062001fbc565b806001600160a01b038116620017805760405162461bcd60e51b81526004016200071e9062002064565b600c546001600160a01b0390811690831603620017b15760405162461bcd60e51b81526004016200071e9062002040565b50600c80546001600160a01b0319166001600160a01b0392909216919091179055565b620017df8262000933565b620017ea8162001989565b62000987838362001a1d565b620018013362000948565b620018205760405162461bcd60e51b81526004016200071e9062001fbc565b8060115403620018605760405162461bcd60e51b815260206004820152600a60248201526973616d652076616c756560b01b60448201526064016200071e565b601155565b620018703362000948565b6200188f5760405162461bcd60e51b81526004016200071e9062001fbc565b620018a26200050e602084018462001de6565b620018b86200041d604084016020850162001de6565b620018ce620005ff606084016040850162001de6565b620018df8135602083013562000dd5565b620018fd60408201356060830135608084013560a08501356200089b565b62000b2360c0820135620017f6565b620019173362000948565b620019365760405162461bcd60e51b81526004016200071e9062001fbc565b600a546001600160a01b0390811690821603620019675760405162461bcd60e51b81526004016200071e9062002040565b600a80546001600160a01b0319166001600160a01b0392909216919091179055565b62000898813362001a85565b620019a1828262001703565b62000b23576000828152602081815260408083206001600160a01b03851684529091529020805460ff19166001179055620019d93390565b6001600160a01b0316816001600160a01b0316837f2f8788117e7eff1d82e926ec794901d17c78024a50270940304540a733656f0d60405160405180910390a45050565b62001a29828262001703565b1562000b23576000828152602081815260408083206001600160a01b0385168085529252808320805460ff1916905551339285917ff6391f5c32d9c69d2a47ea670b442974b53935d1edc7fd64eb21e047a839171b9190a45050565b62001a91828262001703565b62000b235762001aa18162001ae9565b62001aae83602062001afc565b60405160200162001ac192919062002333565b60408051601f198184030181529082905262461bcd60e51b82526200071e91600401620023a6565b6060620006376001600160a01b03831660145b6060600062001b0d836002620023bb565b62001b1a906002620023dd565b6001600160401b0381111562001b345762001b346200209a565b6040519080825280601f01601f19166020018201604052801562001b5f576020820181803683370190505b509050600360fc1b8160008151811062001b7d5762001b7d62001ffe565b60200101906001600160f81b031916908160001a905350600f60fb1b8160018151811062001baf5762001baf62001ffe565b60200101906001600160f81b031916908160001a905350600062001bd5846002620023bb565b62001be2906001620023dd565b90505b600181111562001c64576f181899199a1a9b1b9c1cb0b131b232b360811b85600f166010811062001c1a5762001c1a62001ffe565b1a60f81b82828151811062001c335762001c3362001ffe565b60200101906001600160f81b031916908160001a90535060049490941c9362001c5c81620023f3565b905062001be5565b50831562001cb55760405162461bcd60e51b815260206004820181905260248201527f537472696e67733a20686578206c656e67746820696e73756666696369656e7460448201526064016200071e565b9392505050565b6129ae806200240e83390190565b60006020828403121562001cdd57600080fd5b81356001600160e01b03198116811462001cb557600080fd5b60006020828403121562001d0957600080fd5b5035919050565b60005b8381101562001d2d57818101518382015260200162001d13565b50506000910152565b6000815180845262001d5081602086016020860162001d10565b601f01601f19169290920160200192915050565b6001600160a01b038316815260406020820181905260009062001d8a9083018462001d36565b949350505050565b600060c0828403121562001da557600080fd5b8260c08301111562001db657600080fd5b50919050565b6001600160a01b0391909116815260200190565b6001600160a01b03811681146200089857600080fd5b60006020828403121562001df957600080fd5b813562001cb58162001dd0565b6000806000806080858703121562001e1d57600080fd5b5050823594602084013594506040840135936060013592509050565b6000806040838503121562001e4d57600080fd5b82359150602083013562001e618162001dd0565b809150509250929050565b6000806040838503121562001e8057600080fd5b50508035926020909101359150565b80606081018310156200063757600080fd5b600080600080600060c0868803121562001eba57600080fd5b85356001600160401b038082111562001ed257600080fd5b818801915088601f83011262001ee757600080fd5b81358181111562001ef757600080fd5b89602082850101111562001f0a57600080fd5b6020928301975095505086013562001f228162001dd0565b925062001f33876040880162001e8f565b9497939650919460a0013592915050565b60008061014080848603121562001f5a57600080fd5b62001f66858562001e8f565b925084818501111562001f7857600080fd5b506060830190509250929050565b600181811c9082168062001f9b57607f821691505b60208210810362001db657634e487b7160e01b600052602260045260246000fd5b60208082526022908201527f41636365737369626c653a2043616c6c6572206973206e6f7420616e2061646d60408201526134b760f11b606082015260800190565b634e487b7160e01b600052603260045260246000fd5b634e487b7160e01b600052601160045260246000fd5b8181038181111562000637576200063762002014565b6020808252600a908201526973616d6520616464727360b01b604082015260600190565b6020808252601c908201527b5075626c696353616c6550726f7879466163746f72793a207a65726f60201b604082015260600190565b634e487b7160e01b600052604160045260246000fd5b60008060408385031215620020c457600080fd5b8251620020d18162001dd0565b60208401519092506001600160401b0380821115620020ef57600080fd5b818501915085601f8301126200210457600080fd5b8151818111156200211957620021196200209a565b604051601f8201601f19908116603f011681019083821181831017156200214457620021446200209a565b816040528281528860208487010111156200215e57600080fd5b6200217183602083016020880162001d10565b80955050505050509250929050565b601f8211156200098757600081815260208120601f850160051c81016020861015620021a95750805b601f850160051c820191505b81811015620021ca57828155600101620021b5565b505050505050565b81516001600160401b03811115620021ee57620021ee6200209a565b6200220681620021ff845462001f86565b8462002180565b602080601f8311600181146200223e5760008415620022255750858301515b600019600386901b1c1916600185901b178555620021ca565b600085815260208120601f198616915b828110156200226f578886015182559484019460019091019084016200224e565b50858210156200228e5787850151600019600388901b60f8161c191681555b5050505050600190811b01905550565b600060018201620022b357620022b362002014565b5060010190565b6001600160a01b03841681526040602082018190528101829052818360608301376000818301606090810191909152601f909201601f1916010192915050565b84815283602082015260018060a01b038316604082015260806060820152600062002329608083018462001d36565b9695505050505050565b76020b1b1b2b9b9a1b7b73a3937b61d1030b1b1b7bab73a1604d1b8152600083516200236781601785016020880162001d10565b7001034b99036b4b9b9b4b733903937b6329607d1b60179184019182015283516200239a81602884016020880162001d10565b01602801949350505050565b60208152600062001cb5602083018462001d36565b6000816000190483118215151615620023d857620023d862002014565b500290565b8082018082111562000637576200063762002014565b60008162002405576200240562002014565b50600019019056fe60806040526000805560006003556000600455600060055560006006556000600755600060085560006009556000600a556000600b556000600c556000600d556000600e556000600f553480156200005657600080fd5b50620000726000805160206200298e83398151915280620000cd565b6200008d6000805160206200298e8339815191523362000118565b6200009a60003362000118565b7f4273ca16e32229270629d776700e1c07e4a1080fc9b26d21f6608efc2b31dc4d620000c68162000128565b5062000250565b600082815260366020526040808220600101805490849055905190918391839186917fbd79b86ffe0ab8e8776151514217cd7cacd52c909f66475c3af44e129f0b00ff9190a4505050565b620001248282620001ac565b5050565b6001600160e01b03198082169003620001875760405162461bcd60e51b815260206004820152601c60248201527f4552433136353a20696e76616c696420696e7465726661636520696400000000604482015260640160405180910390fd5b6001600160e01b0319166000908152603b60205260409020805460ff19166001179055565b60008281526036602090815260408083206001600160a01b038516845290915290205460ff16620001245760008281526036602090815260408083206001600160a01b03851684529091529020805460ff191660011790556200020c3390565b6001600160a01b0316816001600160a01b0316837f2f8788117e7eff1d82e926ec794901d17c78024a50270940304540a733656f0d60405160405180910390a45050565b61272e80620002606000396000f3fe60806040526004361061041b5760003560e01c80638356ca4f1161021c5780638356ca4f14610a385780638951ed1814610a5857806389f395de14610a785780638b8f4a6514610a985780638d4fdb4014610ab85780638d62d94914610ad85780638f68711a14610af857806391d1485414610b2557806394f641d514610b455780639525269214610b5b57806396f1557c14610b715780639711715a14610b915780639a202d4714610ba75780639d18fde714610bbc5780639f87b77f14610bd2578063a055e62514610be8578063a217fddf14610bfe578063a389595f14610c13578063a55abb1714610c29578063ac3c467614610c3f578063b7182b9514610c5f578063b911135f14610c7f578063b960ca0414610cb5578063be72f2d314610ccb578063bfc630b114610ce0578063bff1f9e114610cf6578063c0c53b8b14610d0c578063c3e5763514610d2c578063c5408d5014610d42578063cae9ce1b14610d58578063cf437a8f14610dc0578063d539139314610df2578063d547741f14610e26578063dc560fcd14610e46578063e016bac414610e5c578063e4b2fb7914610e72578063e985e36714610e92578063eaff056d14610eb2578063eb8445f814610ec8578063ed5131f514610ede578063f18d20be14610efe578063f47f2f1d14610f18578063fb86a40414610f38578063fe404c9614610f4e578063fe4d5add14610f6e578063ff6dac7614610f8e57610422565b806301ffc9a71461042c578063039af9eb14610461578063089fe6aa1461049c5780630b433a12146104c65780631bfc751e146104dc5780631c53f256146104f257806321df0da714610508578063226bf1a414610540578063248a9ca31461055657806324d7806c14610576578063256019d614610596578063282c51f3146105ac5780632f2ff15d146105e057806336568abe146106005780633659cfe61461062057806337bf0719146106405780633ef541b51461066057806341c04d5e1461067657806341c0cb77146106985780634a5df50f146106f55780634dd199211461071557806350d2a2761461073557806351d28a7e1461076b57806351ebde6d14610781578063550d01a3146107975780635c60da1b146107c75780635cc797d8146107dc57806361a33427146107fc57806363a8fd8914610812578063653a151b1461082c57806366ce72711461084c57806367b399a514610862578063690480051461088f5780636d9ff157146108bc57806370480275146108dc578063735de9f7146108fc57806375829def1461091c57806375b238fc1461093c578063768b821f146109705780637a40624b146109865780637cb00d251461099c5780637cd5f663146109bc5780637dc2cd98146109dc5780637e2eee53146109f257806381a9f6d714610a08578063822754a314610a1e57610422565b3661042257005b61042a610fce565b005b34801561043857600080fd5b5061044c61044736600461212b565b61107c565b60405190151581526020015b60405180910390f35b34801561046d57600080fd5b5061048e61047c366004612155565b60316020526000908152604090205481565b604051908152602001610458565b3480156104a857600080fd5b506104b2610bb881565b60405162ffffff9091168152602001610458565b3480156104d257600080fd5b5061048e60155481565b3480156104e857600080fd5b5061048e60095481565b3480156104fe57600080fd5b5061048e601b5481565b34801561051457600080fd5b50602454610528906001600160a01b031681565b6040516001600160a01b039091168152602001610458565b34801561054c57600080fd5b5061048e60145481565b34801561056257600080fd5b5061048e610571366004612155565b61108d565b34801561058257600080fd5b5061044c610591366004612185565b6110a2565b3480156105a257600080fd5b5061048e602b5481565b3480156105b857600080fd5b5061048e7f9667e80708b6eeeb0053fa0cca44e028ff548e2a9f029edfeac87c118b08b7c881565b3480156105ec57600080fd5b5061042a6105fb3660046121a0565b6110bc565b34801561060c57600080fd5b5061042a61061b3660046121a0565b6110d8565b34801561062c57600080fd5b5061042a61063b366004612185565b611156565b34801561064c57600080fd5b50602754610528906001600160a01b031681565b34801561066c57600080fd5b5061048e60085481565b34801561068257600080fd5b5061048e6000805160206126b983398151915281565b3480156106a457600080fd5b506106d86106b3366004612185565b602f6020526000908152604090208054600182015460029092015460ff909116919083565b604080519315158452602084019290925290820152606001610458565b34801561070157600080fd5b5061042a6107103660046121cc565b61126a565b34801561072157600080fd5b50602054610528906001600160a01b031681565b34801561074157600080fd5b5061052861075036600461212b565b603a602052600090815260409020546001600160a01b031681565b34801561077757600080fd5b5061048e60135481565b34801561078d57600080fd5b5061048e601e5481565b3480156107a357600080fd5b5061044c6107b2366004612185565b60396020526000908152604090205460ff1681565b3480156107d357600080fd5b506105286114d6565b3480156107e857600080fd5b5061042a6107f736600461225d565b6114e7565b34801561080857600080fd5b5061048e600d5481565b34801561081e57600080fd5b5060375461044c9060ff1681565b34801561083857600080fd5b5061042a610847366004612294565b611525565b34801561085857600080fd5b5061048e60065481565b34801561086e57600080fd5b5061048e61087d366004612155565b60326020526000908152604090205481565b34801561089b57600080fd5b5061048e6108aa366004612155565b60346020526000908152604090205481565b3480156108c857600080fd5b5061042a6108d73660046122b6565b611595565b3480156108e857600080fd5b5061042a6108f7366004612185565b611723565b34801561090857600080fd5b50602154610528906001600160a01b031681565b34801561092857600080fd5b5061042a610937366004612185565b611763565b34801561094857600080fd5b5061048e7fdf8b4c520ffe197c5343c6f5aec59570151ef9a492f2c624fd45ddde6135ec4281565b34801561097c57600080fd5b5061048e601d5481565b34801561099257600080fd5b5061048e60015481565b3480156109a857600080fd5b5061042a6109b736600461231b565b611815565b3480156109c857600080fd5b5061042a6109d7366004612338565b61185c565b3480156109e857600080fd5b5061048e60165481565b3480156109fe57600080fd5b5061048e60025481565b348015610a1457600080fd5b5061048e60075481565b348015610a2a57600080fd5b5060355461044c9060ff1681565b348015610a4457600080fd5b5061042a610a53366004612185565b61189b565b348015610a6457600080fd5b5061042a610a73366004612155565b611924565b348015610a8457600080fd5b50602654610528906001600160a01b031681565b348015610aa457600080fd5b50610528610ab3366004612155565b61194e565b348015610ac457600080fd5b50610528610ad336600461212b565b611959565b348015610ae457600080fd5b50602354610528906001600160a01b031681565b348015610b0457600080fd5b5061048e610b13366004612155565b60336020526000908152604090205481565b348015610b3157600080fd5b5061044c610b403660046121a0565b611a31565b348015610b5157600080fd5b5061048e600c5481565b348015610b6757600080fd5b5061048e60035481565b348015610b7d57600080fd5b5061042a610b8c366004612185565b611a5c565b348015610b9d57600080fd5b5061048e60005481565b348015610bb357600080fd5b5061042a611a8c565b348015610bc857600080fd5b5061048e60195481565b348015610bde57600080fd5b5061048e601c5481565b348015610bf457600080fd5b5061048e600b5481565b348015610c0a57600080fd5b5061048e600081565b348015610c1f57600080fd5b5061048e601a5481565b348015610c3557600080fd5b5061048e600f5481565b348015610c4b57600080fd5b5061042a610c5a366004612378565b611ada565b348015610c6b57600080fd5b50602254610528906001600160a01b031681565b348015610c8b57600080fd5b50610528610c9a366004612155565b6038602052600090815260409020546001600160a01b031681565b348015610cc157600080fd5b5061048e60115481565b348015610cd757600080fd5b5061042a611b69565b348015610cec57600080fd5b5061048e60125481565b348015610d0257600080fd5b5061048e600a5481565b348015610d1857600080fd5b5061042a610d273660046123aa565b611b99565b348015610d3857600080fd5b5061048e60045481565b348015610d4e57600080fd5b5061048e60105481565b348015610d6457600080fd5b50610d9e610d73366004612185565b602e60205260009081526040902080546001820154600283015460039093015460ff90921692909184565b6040805194151585526020850193909352918301526060820152608001610458565b348015610dcc57600080fd5b50603554610ddf90610100900460020b81565b60405160029190910b8152602001610458565b348015610dfe57600080fd5b5061048e7ff0887ba65ee2024ea881d91b74c2450ef19e1557f03bed3ea9f16b037cbe2dc981565b348015610e3257600080fd5b5061042a610e413660046121a0565b611c21565b348015610e5257600080fd5b5061048e601f5481565b348015610e6857600080fd5b5061048e60055481565b348015610e7e57600080fd5b50610528610e8d366004612155565b611c3d565b348015610e9e57600080fd5b50602554610528906001600160a01b031681565b348015610ebe57600080fd5b5061048e60175481565b348015610ed457600080fd5b5061048e600e5481565b348015610eea57600080fd5b5061048e610ef9366004612155565b611c67565b348015610f0a57600080fd5b50602a5461044c9060ff1681565b348015610f2457600080fd5b5061044c610f33366004612185565b611c88565b348015610f4457600080fd5b5061048e60185481565b348015610f5a57600080fd5b5061048e610f69366004612155565b611c94565b348015610f7a57600080fd5b50610528610f89366004612155565b611ca4565b348015610f9a57600080fd5b506106d8610fa9366004612185565b60306020526000908152604090208054600182015460029092015460ff909116919083565b6000610fe56000356001600160e01b031916611959565b90506001600160a01b03811615801590611002575060375460ff16155b6110535760405162461bcd60e51b815260206004820152601d60248201527f50726f78793a20696d706c204f522070726f78792069732066616c736500000060448201526064015b60405180910390fd5b3660008037600080366000845af43d6000803e808015611072573d6000f35b3d6000fd5b505050565b600061108782611cb4565b92915050565b60009081526036602052604090206001015490565b60006110876000805160206126b983398151915283611a31565b6110c58261108d565b6110ce81611ce5565b6110778383611cef565b6001600160a01b03811633146111485760405162461bcd60e51b815260206004820152602f60248201527f416363657373436f6e74726f6c3a2063616e206f6e6c792072656e6f756e636560448201526e103937b632b9903337b91039b2b63360891b606482015260840161104a565b6111528282611d75565b5050565b61115f336110a2565b8061116e575061116e33611c88565b61118a5760405162461bcd60e51b815260040161104a906123e4565b6001600160a01b0381166111d05760405162461bcd60e51b815260206004820152600d60248201526c696e707574206973207a65726f60981b604482015260640161104a565b806001600160a01b03166111e46000611ddc565b6001600160a01b0316036112265760405162461bcd60e51b815260206004820152600960248201526839b0b6b29030b2323960b91b604482015260640161104a565b6112338160006001611df7565b6040516001600160a01b038216907fbc7cd75a20ee27fd9adebab32041f755214dbc6bffa90cc0225b39da2e5c2d3b90600090a250565b611273336110a2565b80611282575061128233611c88565b61129e5760405162461bcd60e51b815260040161104a906123e4565b816112eb5760405162461bcd60e51b815260206004820181905260248201527f50726f78793a205f73656c6563746f727327732073697a65206973207a65726f604482015260640161104a565b6001600160a01b03811660009081526039602052604090205460ff1661134e5760405162461bcd60e51b815260206004820152601860248201527750726f78793a205f696d70206973206e6f7420616c69766560401b604482015260640161104a565b60005b828110156114d057816001600160a01b0316603a600086868581811061137957611379612426565b905060200201602081019061138e919061212b565b6001600160e01b03191681526020810191909152604001600020546001600160a01b0316036113ff5760405162461bcd60e51b815260206004820152601d60248201527f4c69717569646974795661756c7450726f78793a2073616d6520696d70000000604482015260640161104a565b81603a600086868581811061141657611416612426565b905060200201602081019061142b919061212b565b6001600160e01b0319168152602081019190915260400160002080546001600160a01b0319166001600160a01b03928316179055821684848381811061147357611473612426565b9050602002016020810190611488919061212b565b6001600160e01b0319167f14ebc1c32aa68f4d766e89f3e546cee249f7df25183fc10ab1568d91c2ce9b7b60405160405180910390a3806114c881612452565b915050611351565b50505050565b60006114e26000611ddc565b905090565b6114f0336110a2565b806114ff57506114ff33611c88565b61151b5760405162461bcd60e51b815260040161104a906123e4565b6111528282611e80565b61152e33611c88565b61154a5760405162461bcd60e51b815260040161104a9061246b565b80821061158a5760405162461bcd60e51b815260206004820152600e60248201526d0dccacac840dad2dc407840dac2f60931b604482015260640161104a565b601a91909155601b55565b61159e33611c88565b6115ba5760405162461bcd60e51b815260040161104a9061246b565b600354156115da5760405162461bcd60e51b815260040161104a906124b3565b602480546001600160a01b038088166001600160a01b0319928316179092556027805487841690831617905560238054868416908316811790915560218054868516908416811790915560268054948616949093169390931790915560405163095ea7b360e01b8152909163095ea7b39161165c9190600019906004016124fb565b6020604051808303816000875af115801561167b573d6000803e3d6000fd5b505050506040513d601f19601f8201168201806040525081019061169f9190612514565b5060245460235460405163095ea7b360e01b81526001600160a01b039283169263095ea7b3926116d892911690600019906004016124fb565b6020604051808303816000875af11580156116f7573d6000803e3d6000fd5b505050506040513d601f19601f8201168201806040525081019061171b9190612514565b505050505050565b61172c33611c88565b6117485760405162461bcd60e51b815260040161104a9061246b565b6117606000805160206126b9833981519152826110bc565b50565b61176c336110a2565b8061177b575061177b33611c88565b6117975760405162461bcd60e51b815260040161104a906123e4565b6001600160a01b0381166117bd5760405162461bcd60e51b815260040161104a90612531565b6001600160a01b03811633036117e55760405162461bcd60e51b815260040161104a90612563565b6117fd6000805160206126b9833981519152826110bc565b6117606000805160206126b9833981519152336110d8565b61181e336110a2565b8061182d575061182d33611c88565b6118495760405162461bcd60e51b815260040161104a906123e4565b6037805460ff1916911515919091179055565b611865336110a2565b80611874575061187433611c88565b6118905760405162461bcd60e51b815260040161104a906123e4565b611077838383611df7565b6118a433611c88565b6118c05760405162461bcd60e51b815260040161104a9061246b565b6001600160a01b0381166118e65760405162461bcd60e51b815260040161104a90612531565b6001600160a01b038116330361190e5760405162461bcd60e51b815260040161104a90612563565b6119196000826110bc565b6117606000336110d8565b61192d33611c88565b6119495760405162461bcd60e51b815260040161104a9061246b565b600255565b600061108782611ddc565b6001600160e01b031981166000908152603a60205260408120546001600160a01b03166119a75750506000805260386020526000805160206126d9833981519152546001600160a01b031690565b6001600160e01b031982166000908152603a60209081526040808320546001600160a01b03168352603990915290205460ff1615611a0557506001600160e01b0319166000908152603a60205260409020546001600160a01b031690565b50506000805260386020526000805160206126d9833981519152546001600160a01b031690565b919050565b60009182526036602090815260408084206001600160a01b0393909316845291905290205460ff1690565b611a6533611c88565b611a815760405162461bcd60e51b815260040161104a9061246b565b611760600082611edf565b611a95336110a2565b80611aa45750611aa433611c88565b611ac05760405162461bcd60e51b815260040161104a906123e4565b611ad86000805160206126b9833981519152336110d8565b565b611ae333611c88565b611aff5760405162461bcd60e51b815260040161104a9061246b565b8284108015611b0d57508183105b8015611b1857508082105b611b555760405162461bcd60e51b815260206004820152600e60248201526d3a34b2b91039b2ba1032b93937b960911b604482015260640161104a565b601c93909355601d91909155601e55601f55565b611b7233611c88565b611b8e5760405162461bcd60e51b815260040161104a9061246b565b611ad86000336110d8565b611ba233611c88565b611bbe5760405162461bcd60e51b815260040161104a9061246b565b60035415611bde5760405162461bcd60e51b815260040161104a906124b3565b602580546001600160a01b039485166001600160a01b03199182161790915560228054938516938216939093179092556020805491909316911617905542600155565b611c2a8261108d565b611c3381611ce5565b6110778383611d75565b60288181548110611c4d57600080fd5b6000918252602090912001546001600160a01b0316905081565b602c8181548110611c7757600080fd5b600091825260209091200154905081565b60006110878183611a31565b602d8181548110611c7757600080fd5b60298181548110611c4d57600080fd5b6000611cbf82611ee9565b806110875750506001600160e01b0319166000908152603b602052604090205460ff1690565b6117608133611f1e565b611cf98282611a31565b6111525760008281526036602090815260408083206001600160a01b03851684529091529020805460ff19166001179055611d313390565b6001600160a01b0316816001600160a01b0316837f2f8788117e7eff1d82e926ec794901d17c78024a50270940304540a733656f0d60405160405180910390a45050565b611d7f8282611a31565b156111525760008281526036602090815260408083206001600160a01b0385168085529252808320805460ff1916905551339285917ff6391f5c32d9c69d2a47ea670b442974b53935d1edc7fd64eb21e047a839171b9190a45050565b6000908152603860205260409020546001600160a01b031690565b6001600160a01b0383163b611e4c5760405162461bcd60e51b815260206004820152601b60248201527a50726f78793a206e6f7420636f6e7472616374206164647265737360281b604482015260640161104a565b8015611e7a57600082815260386020526040902080546001600160a01b0319166001600160a01b0385161790555b61107783825b6001600160a01b038216600081815260396020908152604091829020805460ff191685151590811790915591519182527f72558d9bfba4210f9ef095c782589484151f6d90f7a81bb3cb9b33efc695d324910160405180910390a25050565b6111528282611cef565b60006001600160e01b03198216637965db0b60e01b148061108757506301ffc9a760e01b6001600160e01b0319831614611087565b611f288282611a31565b61115257611f3581611f77565b611f40836020611f89565b604051602001611f519291906125b7565b60408051601f198184030181529082905262461bcd60e51b825261104a91600401612626565b60606110876001600160a01b03831660145b60606000611f98836002612659565b611fa3906002612678565b6001600160401b03811115611fba57611fba61268b565b6040519080825280601f01601f191660200182016040528015611fe4576020820181803683370190505b509050600360fc1b81600081518110611fff57611fff612426565b60200101906001600160f81b031916908160001a905350600f60fb1b8160018151811061202e5761202e612426565b60200101906001600160f81b031916908160001a9053506000612052846002612659565b61205d906001612678565b90505b60018111156120d5576f181899199a1a9b1b9c1cb0b131b232b360811b85600f166010811061209157612091612426565b1a60f81b8282815181106120a7576120a7612426565b60200101906001600160f81b031916908160001a90535060049490941c936120ce816126a1565b9050612060565b5083156121245760405162461bcd60e51b815260206004820181905260248201527f537472696e67733a20686578206c656e67746820696e73756666696369656e74604482015260640161104a565b9392505050565b60006020828403121561213d57600080fd5b81356001600160e01b03198116811461212457600080fd5b60006020828403121561216757600080fd5b5035919050565b80356001600160a01b0381168114611a2c57600080fd5b60006020828403121561219757600080fd5b6121248261216e565b600080604083850312156121b357600080fd5b823591506121c36020840161216e565b90509250929050565b6000806000604084860312156121e157600080fd5b83356001600160401b03808211156121f857600080fd5b818601915086601f83011261220c57600080fd5b81358181111561221b57600080fd5b8760208260051b850101111561223057600080fd5b602092830195509350612246918601905061216e565b90509250925092565b801515811461176057600080fd5b6000806040838503121561227057600080fd5b6122798361216e565b915060208301356122898161224f565b809150509250929050565b600080604083850312156122a757600080fd5b50508035926020909101359150565b600080600080600060a086880312156122ce57600080fd5b6122d78661216e565b94506122e56020870161216e565b93506122f36040870161216e565b92506123016060870161216e565b915061230f6080870161216e565b90509295509295909350565b60006020828403121561232d57600080fd5b81356121248161224f565b60008060006060848603121561234d57600080fd5b6123568461216e565b925060208401359150604084013561236d8161224f565b809150509250925092565b6000806000806080858703121561238e57600080fd5b5050823594602084013594506040840135936060013592509050565b6000806000606084860312156123bf57600080fd5b6123c88461216e565b92506123d66020850161216e565b91506122466040850161216e565b60208082526022908201527f41636365737369626c653a2043616c6c6572206973206e6f7420616e2061646d60408201526134b760f11b606082015260800190565b634e487b7160e01b600052603260045260246000fd5b634e487b7160e01b600052601160045260246000fd5b6000600182016124645761246461243c565b5060010190565b60208082526028908201527f41636365737369626c653a2043616c6c6572206973206e6f7420616e2070726f6040820152673c3c9030b236b4b760c11b606082015260800190565b60208082526028908201527f706f737369626c6520746f2073657474696e672074686520776869746554696d60408201526765206265666f726560c01b606082015260800190565b6001600160a01b03929092168252602082015260400190565b60006020828403121561252657600080fd5b81516121248161224f565b60208082526018908201527741636365737369626c653a207a65726f206164647265737360401b604082015260600190565b60208082526016908201527520b1b1b2b9b9b4b136329d1039b0b6b29030b236b4b760511b604082015260600190565b60005b838110156125ae578181015183820152602001612596565b50506000910152565b76020b1b1b2b9b9a1b7b73a3937b61d1030b1b1b7bab73a1604d1b8152600083516125e9816017850160208801612593565b7001034b99036b4b9b9b4b733903937b6329607d1b601791840191820152835161261a816028840160208801612593565b01602801949350505050565b6020815260008251806020840152612645816040850160208701612593565b601f01601f19169190910160400192915050565b60008160001904831182151516156126735761267361243c565b500290565b808201808211156110875761108761243c565b634e487b7160e01b600052604160045260246000fd5b6000816126b0576126b061243c565b50600019019056fe52eafc11f6f81f86878bffd31109a0d92f37506527754f00788853ff9f63b130e14cf4d84b2ff434db2c3d715ad03acb36d95ed6f766d46660154cee72012d71a2646970667358221220ac58b2084d39d87a4bfb2257ed9b4445da2d045d65553dd6ee71745c337d36a064736f6c63430008100033df8b4c520ffe197c5343c6f5aec59570151ef9a492f2c624fd45ddde6135ec42df8b4c520ffe197c5343c6f5aec59570151ef9a492f2c624fd45ddde6135ec42a2646970667358221220714bd42bb217503cc2e0339f7580d0b0ba7048fdeb9278c644ceb828ee12881564736f6c63430008100033df8b4c520ffe197c5343c6f5aec59570151ef9a492f2c624fd45ddde6135ec42",
  "linkReferences": {},
  "deployedLinkReferences": {}
}