{
  "_format": "hh-sol-artifact-1",
  "contractName": "PublicSale",
  "sourceName": "contracts/sale/PublicSale.sol",
  "abi": [
    {
      "anonymous": false,
      "inputs": [
        {
          "indexed": true,
          "internalType": "address",
          "name": "from",
          "type": "address"
        },
        {
          "indexed": false,
          "internalType": "uint256",
          "name": "tier",
          "type": "uint256"
        }
      ],
      "name": "AddedWhiteList",
      "type": "event"
    },
    {
      "anonymous": false,
      "inputs": [
        {
          "indexed": true,
          "internalType": "address",
          "name": "from",
          "type": "address"
        },
        {
          "indexed": false,
          "internalType": "uint256",
          "name": "amount",
          "type": "uint256"
        }
      ],
      "name": "Claimed",
      "type": "event"
    },
    {
      "anonymous": false,
      "inputs": [
        {
          "indexed": true,
          "internalType": "address",
          "name": "from",
          "type": "address"
        },
        {
          "indexed": false,
          "internalType": "uint256",
          "name": "amount",
          "type": "uint256"
        }
      ],
      "name": "DepositWithdrawal",
      "type": "event"
    },
    {
      "anonymous": false,
      "inputs": [
        {
          "indexed": true,
          "internalType": "address",
          "name": "from",
          "type": "address"
        },
        {
          "indexed": false,
          "internalType": "uint256",
          "name": "amount",
          "type": "uint256"
        }
      ],
      "name": "Deposited",
      "type": "event"
    },
    {
      "anonymous": false,
      "inputs": [
        {
          "indexed": true,
          "internalType": "address",
          "name": "from",
          "type": "address"
        },
        {
          "indexed": false,
          "internalType": "uint256",
          "name": "amount",
          "type": "uint256"
        }
      ],
      "name": "ExclusiveSaled",
      "type": "event"
    },
    {
      "anonymous": false,
      "inputs": [
        {
          "indexed": true,
          "internalType": "address",
          "name": "from",
          "type": "address"
        },
        {
          "indexed": false,
          "internalType": "uint256",
          "name": "realPayAmount",
          "type": "uint256"
        },
        {
          "indexed": false,
          "internalType": "uint256",
          "name": "returnAmount",
          "type": "uint256"
        }
      ],
      "name": "OpenSaled",
      "type": "event"
    },
    {
      "anonymous": false,
      "inputs": [
        {
          "indexed": true,
          "internalType": "bytes32",
          "name": "role",
          "type": "bytes32"
        },
        {
          "indexed": true,
          "internalType": "bytes32",
          "name": "previousAdminRole",
          "type": "bytes32"
        },
        {
          "indexed": true,
          "internalType": "bytes32",
          "name": "newAdminRole",
          "type": "bytes32"
        }
      ],
      "name": "RoleAdminChanged",
      "type": "event"
    },
    {
      "anonymous": false,
      "inputs": [
        {
          "indexed": true,
          "internalType": "bytes32",
          "name": "role",
          "type": "bytes32"
        },
        {
          "indexed": true,
          "internalType": "address",
          "name": "account",
          "type": "address"
        },
        {
          "indexed": true,
          "internalType": "address",
          "name": "sender",
          "type": "address"
        }
      ],
      "name": "RoleGranted",
      "type": "event"
    },
    {
      "anonymous": false,
      "inputs": [
        {
          "indexed": true,
          "internalType": "bytes32",
          "name": "role",
          "type": "bytes32"
        },
        {
          "indexed": true,
          "internalType": "address",
          "name": "account",
          "type": "address"
        },
        {
          "indexed": true,
          "internalType": "address",
          "name": "sender",
          "type": "address"
        }
      ],
      "name": "RoleRevoked",
      "type": "event"
    },
    {
      "anonymous": false,
      "inputs": [
        {
          "indexed": true,
          "internalType": "address",
          "name": "from",
          "type": "address"
        },
        {
          "indexed": false,
          "internalType": "uint256",
          "name": "amount",
          "type": "uint256"
        }
      ],
      "name": "Withdrawal",
      "type": "event"
    },
    {
      "inputs": [],
      "name": "ADMIN_ROLE",
      "outputs": [
        {
          "internalType": "bytes32",
          "name": "",
          "type": "bytes32"
        }
      ],
      "stateMutability": "view",
      "type": "function"
    },
    {
      "inputs": [],
      "name": "BURNER_ROLE",
      "outputs": [
        {
          "internalType": "bytes32",
          "name": "",
          "type": "bytes32"
        }
      ],
      "stateMutability": "view",
      "type": "function"
    },
    {
      "inputs": [],
      "name": "DEFAULT_ADMIN_ROLE",
      "outputs": [
        {
          "internalType": "bytes32",
          "name": "",
          "type": "bytes32"
        }
      ],
      "stateMutability": "view",
      "type": "function"
    },
    {
      "inputs": [],
      "name": "MINTER_ROLE",
      "outputs": [
        {
          "internalType": "bytes32",
          "name": "",
          "type": "bytes32"
        }
      ],
      "stateMutability": "view",
      "type": "function"
    },
    {
      "inputs": [
        {
          "internalType": "address",
          "name": "account",
          "type": "address"
        }
      ],
      "name": "addAdmin",
      "outputs": [],
      "stateMutability": "nonpayable",
      "type": "function"
    },
    {
      "inputs": [],
      "name": "addWhiteList",
      "outputs": [],
      "stateMutability": "nonpayable",
      "type": "function"
    },
    {
      "inputs": [],
      "name": "adminWithdraw",
      "outputs": [
        {
          "internalType": "bool",
          "name": "",
          "type": "bool"
        }
      ],
      "stateMutability": "view",
      "type": "function"
    },
    {
      "inputs": [
        {
          "internalType": "address",
          "name": "_account",
          "type": "address"
        },
        {
          "internalType": "uint256",
          "name": "_period",
          "type": "uint256"
        }
      ],
      "name": "calculClaimAmount",
      "outputs": [
        {
          "internalType": "uint256",
          "name": "_reward",
          "type": "uint256"
        },
        {
          "internalType": "uint256",
          "name": "_totalClaim",
          "type": "uint256"
        }
      ],
      "stateMutability": "view",
      "type": "function"
    },
    {
      "inputs": [
        {
          "internalType": "address",
          "name": "_account",
          "type": "address"
        },
        {
          "internalType": "uint256",
          "name": "_amount",
          "type": "uint256"
        }
      ],
      "name": "calculOpenSaleAmount",
      "outputs": [
        {
          "internalType": "uint256",
          "name": "",
          "type": "uint256"
        }
      ],
      "stateMutability": "view",
      "type": "function"
    },
    {
      "inputs": [
        {
          "internalType": "uint256",
          "name": "_amount",
          "type": "uint256"
        }
      ],
      "name": "calculPayToken",
      "outputs": [
        {
          "internalType": "uint256",
          "name": "",
          "type": "uint256"
        }
      ],
      "stateMutability": "view",
      "type": "function"
    },
    {
      "inputs": [
        {
          "internalType": "uint256",
          "name": "_amount",
          "type": "uint256"
        }
      ],
      "name": "calculSaleToken",
      "outputs": [
        {
          "internalType": "uint256",
          "name": "",
          "type": "uint256"
        }
      ],
      "stateMutability": "view",
      "type": "function"
    },
    {
      "inputs": [
        {
          "internalType": "address",
          "name": "_address",
          "type": "address"
        }
      ],
      "name": "calculTier",
      "outputs": [
        {
          "internalType": "uint256",
          "name": "",
          "type": "uint256"
        }
      ],
      "stateMutability": "view",
      "type": "function"
    },
    {
      "inputs": [
        {
          "internalType": "address",
          "name": "_address",
          "type": "address"
        }
      ],
      "name": "calculTierAmount",
      "outputs": [
        {
          "internalType": "uint256",
          "name": "",
          "type": "uint256"
        }
      ],
      "stateMutability": "view",
      "type": "function"
    },
    {
      "inputs": [
        {
          "internalType": "address",
          "name": "_address",
          "type": "address"
        }
      ],
      "name": "changeTONOwner",
      "outputs": [],
      "stateMutability": "nonpayable",
      "type": "function"
    },
    {
      "inputs": [],
      "name": "claim",
      "outputs": [],
      "stateMutability": "nonpayable",
      "type": "function"
    },
    {
      "inputs": [],
      "name": "claimFirst",
      "outputs": [
        {
          "internalType": "uint256",
          "name": "",
          "type": "uint256"
        }
      ],
      "stateMutability": "view",
      "type": "function"
    },
    {
      "inputs": [],
      "name": "claimInterval",
      "outputs": [
        {
          "internalType": "uint256",
          "name": "",
          "type": "uint256"
        }
      ],
      "stateMutability": "view",
      "type": "function"
    },
    {
      "inputs": [],
      "name": "claimPeriod",
      "outputs": [
        {
          "internalType": "uint256",
          "name": "",
          "type": "uint256"
        }
      ],
      "stateMutability": "view",
      "type": "function"
    },
    {
      "inputs": [
        {
          "internalType": "uint256",
          "name": "_amount",
          "type": "uint256"
        }
      ],
      "name": "deposit",
      "outputs": [],
      "stateMutability": "nonpayable",
      "type": "function"
    },
    {
      "inputs": [
        {
          "internalType": "uint256",
          "name": "",
          "type": "uint256"
        }
      ],
      "name": "depositors",
      "outputs": [
        {
          "internalType": "address",
          "name": "",
          "type": "address"
        }
      ],
      "stateMutability": "view",
      "type": "function"
    },
    {
      "inputs": [],
      "name": "endAddWhiteTime",
      "outputs": [
        {
          "internalType": "uint256",
          "name": "",
          "type": "uint256"
        }
      ],
      "stateMutability": "view",
      "type": "function"
    },
    {
      "inputs": [],
      "name": "endDepositTime",
      "outputs": [
        {
          "internalType": "uint256",
          "name": "",
          "type": "uint256"
        }
      ],
      "stateMutability": "view",
      "type": "function"
    },
    {
      "inputs": [],
      "name": "endExclusiveTime",
      "outputs": [
        {
          "internalType": "uint256",
          "name": "",
          "type": "uint256"
        }
      ],
      "stateMutability": "view",
      "type": "function"
    },
    {
      "inputs": [
        {
          "internalType": "uint256",
          "name": "_amount",
          "type": "uint256"
        }
      ],
      "name": "exclusiveSale",
      "outputs": [],
      "stateMutability": "nonpayable",
      "type": "function"
    },
    {
      "inputs": [
        {
          "internalType": "bytes32",
          "name": "role",
          "type": "bytes32"
        }
      ],
      "name": "getRoleAdmin",
      "outputs": [
        {
          "internalType": "bytes32",
          "name": "",
          "type": "bytes32"
        }
      ],
      "stateMutability": "view",
      "type": "function"
    },
    {
      "inputs": [
        {
          "internalType": "bytes32",
          "name": "role",
          "type": "bytes32"
        },
        {
          "internalType": "uint256",
          "name": "index",
          "type": "uint256"
        }
      ],
      "name": "getRoleMember",
      "outputs": [
        {
          "internalType": "address",
          "name": "",
          "type": "address"
        }
      ],
      "stateMutability": "view",
      "type": "function"
    },
    {
      "inputs": [
        {
          "internalType": "bytes32",
          "name": "role",
          "type": "bytes32"
        }
      ],
      "name": "getRoleMemberCount",
      "outputs": [
        {
          "internalType": "uint256",
          "name": "",
          "type": "uint256"
        }
      ],
      "stateMutability": "view",
      "type": "function"
    },
    {
      "inputs": [],
      "name": "getToken",
      "outputs": [
        {
          "internalType": "contract IERC20",
          "name": "",
          "type": "address"
        }
      ],
      "stateMutability": "view",
      "type": "function"
    },
    {
      "inputs": [],
      "name": "getTokenOwner",
      "outputs": [
        {
          "internalType": "address",
          "name": "",
          "type": "address"
        }
      ],
      "stateMutability": "view",
      "type": "function"
    },
    {
      "inputs": [
        {
          "internalType": "bytes32",
          "name": "role",
          "type": "bytes32"
        },
        {
          "internalType": "address",
          "name": "account",
          "type": "address"
        }
      ],
      "name": "grantRole",
      "outputs": [],
      "stateMutability": "nonpayable",
      "type": "function"
    },
    {
      "inputs": [
        {
          "internalType": "bytes32",
          "name": "role",
          "type": "bytes32"
        },
        {
          "internalType": "address",
          "name": "account",
          "type": "address"
        }
      ],
      "name": "hasRole",
      "outputs": [
        {
          "internalType": "bool",
          "name": "",
          "type": "bool"
        }
      ],
      "stateMutability": "view",
      "type": "function"
    },
    {
      "inputs": [
        {
          "internalType": "address",
          "name": "account",
          "type": "address"
        }
      ],
      "name": "isAdmin",
      "outputs": [
        {
          "internalType": "bool",
          "name": "",
          "type": "bool"
        }
      ],
      "stateMutability": "view",
      "type": "function"
    },
    {
      "inputs": [
        {
          "internalType": "address",
          "name": "user",
          "type": "address"
        }
      ],
      "name": "openSaleUserAmount",
      "outputs": [
        {
          "internalType": "uint256",
          "name": "_realPayAmount",
          "type": "uint256"
        },
        {
          "internalType": "uint256",
          "name": "_realSaleAmount",
          "type": "uint256"
        },
        {
          "internalType": "uint256",
          "name": "_refundAmount",
          "type": "uint256"
        }
      ],
      "stateMutability": "view",
      "type": "function"
    },
    {
      "inputs": [],
      "name": "pauseProxy",
      "outputs": [
        {
          "internalType": "bool",
          "name": "",
          "type": "bool"
        }
      ],
      "stateMutability": "view",
      "type": "function"
    },
    {
      "inputs": [],
      "name": "payTokenPrice",
      "outputs": [
        {
          "internalType": "uint256",
          "name": "",
          "type": "uint256"
        }
      ],
      "stateMutability": "view",
      "type": "function"
    },
    {
      "inputs": [
        {
          "internalType": "address",
          "name": "account",
          "type": "address"
        }
      ],
      "name": "removeAdmin",
      "outputs": [],
      "stateMutability": "nonpayable",
      "type": "function"
    },
    {
      "inputs": [
        {
          "internalType": "bytes32",
          "name": "role",
          "type": "bytes32"
        },
        {
          "internalType": "address",
          "name": "account",
          "type": "address"
        }
      ],
      "name": "renounceRole",
      "outputs": [],
      "stateMutability": "nonpayable",
      "type": "function"
    },
    {
      "inputs": [],
      "name": "resetAllData",
      "outputs": [],
      "stateMutability": "nonpayable",
      "type": "function"
    },
    {
      "inputs": [
        {
          "internalType": "bytes32",
          "name": "role",
          "type": "bytes32"
        },
        {
          "internalType": "address",
          "name": "account",
          "type": "address"
        }
      ],
      "name": "revokeRole",
      "outputs": [],
      "stateMutability": "nonpayable",
      "type": "function"
    },
    {
      "inputs": [],
      "name": "sTOS",
      "outputs": [
        {
          "internalType": "contract ILockTOS",
          "name": "",
          "type": "address"
        }
      ],
      "stateMutability": "view",
      "type": "function"
    },
    {
      "inputs": [],
      "name": "saleToken",
      "outputs": [
        {
          "internalType": "contract IERC20",
          "name": "",
          "type": "address"
        }
      ],
      "stateMutability": "view",
      "type": "function"
    },
    {
      "inputs": [],
      "name": "saleTokenPrice",
      "outputs": [
        {
          "internalType": "uint256",
          "name": "",
          "type": "uint256"
        }
      ],
      "stateMutability": "view",
      "type": "function"
    },
    {
      "inputs": [
        {
          "internalType": "uint256[2]",
          "name": "_expectAmount",
          "type": "uint256[2]"
        },
        {
          "internalType": "uint256[2]",
          "name": "_priceAmount",
          "type": "uint256[2]"
        }
      ],
      "name": "setAllAmount",
      "outputs": [],
      "stateMutability": "nonpayable",
      "type": "function"
    },
    {
      "inputs": [
        {
          "internalType": "uint256[4]",
          "name": "_tier",
          "type": "uint256[4]"
        },
        {
          "internalType": "uint256[4]",
          "name": "_tierPercent",
          "type": "uint256[4]"
        }
      ],
      "name": "setAllTier",
      "outputs": [],
      "stateMutability": "nonpayable",
      "type": "function"
    },
    {
      "inputs": [
        {
          "internalType": "uint256",
          "name": "_snapshot",
          "type": "uint256"
        },
        {
          "internalType": "uint256[4]",
          "name": "_exclusiveTime",
          "type": "uint256[4]"
        },
        {
          "internalType": "uint256[2]",
          "name": "_openSaleTime",
          "type": "uint256[2]"
        },
        {
          "internalType": "uint256[4]",
          "name": "_claimTime",
          "type": "uint256[4]"
        }
      ],
      "name": "setAllValue",
      "outputs": [],
      "stateMutability": "nonpayable",
      "type": "function"
    },
    {
      "inputs": [
        {
          "internalType": "uint256",
          "name": "_startClaimTime",
          "type": "uint256"
        },
        {
          "internalType": "uint256",
          "name": "_claimInterval",
          "type": "uint256"
        },
        {
          "internalType": "uint256",
          "name": "_claimPeriod",
          "type": "uint256"
        },
        {
          "internalType": "uint256",
          "name": "_claimFirst",
          "type": "uint256"
        }
      ],
      "name": "setClaim",
      "outputs": [],
      "stateMutability": "nonpayable",
      "type": "function"
    },
    {
      "inputs": [
        {
          "internalType": "uint256",
          "name": "_startAddWhiteTime",
          "type": "uint256"
        },
        {
          "internalType": "uint256",
          "name": "_endAddWhiteTime",
          "type": "uint256"
        },
        {
          "internalType": "uint256",
          "name": "_startExclusiveTime",
          "type": "uint256"
        },
        {
          "internalType": "uint256",
          "name": "_endExclusiveTime",
          "type": "uint256"
        }
      ],
      "name": "setExclusiveTime",
      "outputs": [],
      "stateMutability": "nonpayable",
      "type": "function"
    },
    {
      "inputs": [
        {
          "internalType": "uint256",
          "name": "_startDepositTime",
          "type": "uint256"
        },
        {
          "internalType": "uint256",
          "name": "_endDepositTime",
          "type": "uint256"
        }
      ],
      "name": "setOpenTime",
      "outputs": [],
      "stateMutability": "nonpayable",
      "type": "function"
    },
    {
      "inputs": [
        {
          "internalType": "uint256",
          "name": "_totalExpectSaleAmount",
          "type": "uint256"
        },
        {
          "internalType": "uint256",
          "name": "_totalExpectOpenSaleAmount",
          "type": "uint256"
        }
      ],
      "name": "setSaleAmount",
      "outputs": [],
      "stateMutability": "nonpayable",
      "type": "function"
    },
    {
      "inputs": [
        {
          "internalType": "uint256",
          "name": "_snapshot",
          "type": "uint256"
        }
      ],
      "name": "setSnapshot",
      "outputs": [],
      "stateMutability": "nonpayable",
      "type": "function"
    },
    {
      "inputs": [
        {
          "internalType": "uint256",
          "name": "_tier1",
          "type": "uint256"
        },
        {
          "internalType": "uint256",
          "name": "_tier2",
          "type": "uint256"
        },
        {
          "internalType": "uint256",
          "name": "_tier3",
          "type": "uint256"
        },
        {
          "internalType": "uint256",
          "name": "_tier4",
          "type": "uint256"
        }
      ],
      "name": "setTier",
      "outputs": [],
      "stateMutability": "nonpayable",
      "type": "function"
    },
    {
      "inputs": [
        {
          "internalType": "uint256",
          "name": "_tier1",
          "type": "uint256"
        },
        {
          "internalType": "uint256",
          "name": "_tier2",
          "type": "uint256"
        },
        {
          "internalType": "uint256",
          "name": "_tier3",
          "type": "uint256"
        },
        {
          "internalType": "uint256",
          "name": "_tier4",
          "type": "uint256"
        }
      ],
      "name": "setTierPercents",
      "outputs": [],
      "stateMutability": "nonpayable",
      "type": "function"
    },
    {
      "inputs": [
        {
          "internalType": "uint256",
          "name": "_saleTokenPrice",
          "type": "uint256"
        },
        {
          "internalType": "uint256",
          "name": "_payTokenPrice",
          "type": "uint256"
        }
      ],
      "name": "setTokenPrice",
      "outputs": [],
      "stateMutability": "nonpayable",
      "type": "function"
    },
    {
      "inputs": [],
      "name": "snapshot",
      "outputs": [
        {
          "internalType": "uint256",
          "name": "",
          "type": "uint256"
        }
      ],
      "stateMutability": "view",
      "type": "function"
    },
    {
      "inputs": [],
      "name": "startAddWhiteTime",
      "outputs": [
        {
          "internalType": "uint256",
          "name": "",
          "type": "uint256"
        }
      ],
      "stateMutability": "view",
      "type": "function"
    },
    {
      "inputs": [],
      "name": "startClaimTime",
      "outputs": [
        {
          "internalType": "uint256",
          "name": "",
          "type": "uint256"
        }
      ],
      "stateMutability": "view",
      "type": "function"
    },
    {
      "inputs": [],
      "name": "startDepositTime",
      "outputs": [
        {
          "internalType": "uint256",
          "name": "",
          "type": "uint256"
        }
      ],
      "stateMutability": "view",
      "type": "function"
    },
    {
      "inputs": [],
      "name": "startExclusiveTime",
      "outputs": [
        {
          "internalType": "uint256",
          "name": "",
          "type": "uint256"
        }
      ],
      "stateMutability": "view",
      "type": "function"
    },
    {
      "inputs": [
        {
          "internalType": "uint256",
          "name": "",
          "type": "uint256"
        }
      ],
      "name": "tiers",
      "outputs": [
        {
          "internalType": "uint256",
          "name": "",
          "type": "uint256"
        }
      ],
      "stateMutability": "view",
      "type": "function"
    },
    {
      "inputs": [
        {
          "internalType": "uint256",
          "name": "",
          "type": "uint256"
        }
      ],
      "name": "tiersAccount",
      "outputs": [
        {
          "internalType": "uint256",
          "name": "",
          "type": "uint256"
        }
      ],
      "stateMutability": "view",
      "type": "function"
    },
    {
      "inputs": [
        {
          "internalType": "uint256",
          "name": "",
          "type": "uint256"
        }
      ],
      "name": "tiersExAccount",
      "outputs": [
        {
          "internalType": "uint256",
          "name": "",
          "type": "uint256"
        }
      ],
      "stateMutability": "view",
      "type": "function"
    },
    {
      "inputs": [
        {
          "internalType": "uint256",
          "name": "",
          "type": "uint256"
        }
      ],
      "name": "tiersPercents",
      "outputs": [
        {
          "internalType": "uint256",
          "name": "",
          "type": "uint256"
        }
      ],
      "stateMutability": "view",
      "type": "function"
    },
    {
      "inputs": [],
      "name": "totalDepositAmount",
      "outputs": [
        {
          "internalType": "uint256",
          "name": "",
          "type": "uint256"
        }
      ],
      "stateMutability": "view",
      "type": "function"
    },
    {
      "inputs": [],
      "name": "totalExPurchasedAmount",
      "outputs": [
        {
          "internalType": "uint256",
          "name": "",
          "type": "uint256"
        }
      ],
      "stateMutability": "view",
      "type": "function"
    },
    {
      "inputs": [],
      "name": "totalExSaleAmount",
      "outputs": [
        {
          "internalType": "uint256",
          "name": "",
          "type": "uint256"
        }
      ],
      "stateMutability": "view",
      "type": "function"
    },
    {
      "inputs": [],
      "name": "totalExpectOpenSaleAmount",
      "outputs": [
        {
          "internalType": "uint256",
          "name": "",
          "type": "uint256"
        }
      ],
      "stateMutability": "view",
      "type": "function"
    },
    {
      "inputs": [],
      "name": "totalExpectOpenSaleAmountView",
      "outputs": [
        {
          "internalType": "uint256",
          "name": "",
          "type": "uint256"
        }
      ],
      "stateMutability": "view",
      "type": "function"
    },
    {
      "inputs": [],
      "name": "totalExpectSaleAmount",
      "outputs": [
        {
          "internalType": "uint256",
          "name": "",
          "type": "uint256"
        }
      ],
      "stateMutability": "view",
      "type": "function"
    },
    {
      "inputs": [],
      "name": "totalOpenPurchasedAmount",
      "outputs": [
        {
          "internalType": "uint256",
          "name": "",
          "type": "uint256"
        }
      ],
      "stateMutability": "view",
      "type": "function"
    },
    {
      "inputs": [],
      "name": "totalOpenSaleAmount",
      "outputs": [
        {
          "internalType": "uint256",
          "name": "",
          "type": "uint256"
        }
      ],
      "stateMutability": "view",
      "type": "function"
    },
    {
      "inputs": [],
      "name": "totalRound1NonSaleAmount",
      "outputs": [
        {
          "internalType": "uint256",
          "name": "",
          "type": "uint256"
        }
      ],
      "stateMutability": "view",
      "type": "function"
    },
    {
      "inputs": [],
      "name": "totalRound1Users",
      "outputs": [
        {
          "internalType": "uint256",
          "name": "",
          "type": "uint256"
        }
      ],
      "stateMutability": "view",
      "type": "function"
    },
    {
      "inputs": [],
      "name": "totalRound2Users",
      "outputs": [
        {
          "internalType": "uint256",
          "name": "",
          "type": "uint256"
        }
      ],
      "stateMutability": "view",
      "type": "function"
    },
    {
      "inputs": [
        {
          "internalType": "address",
          "name": "user",
          "type": "address"
        }
      ],
      "name": "totalSaleUserAmount",
      "outputs": [
        {
          "internalType": "uint256",
          "name": "_realPayAmount",
          "type": "uint256"
        },
        {
          "internalType": "uint256",
          "name": "_realSaleAmount",
          "type": "uint256"
        },
        {
          "internalType": "uint256",
          "name": "_refundAmount",
          "type": "uint256"
        }
      ],
      "stateMutability": "view",
      "type": "function"
    },
    {
      "inputs": [],
      "name": "totalUsers",
      "outputs": [
        {
          "internalType": "uint256",
          "name": "",
          "type": "uint256"
        }
      ],
      "stateMutability": "view",
      "type": "function"
    },
    {
      "inputs": [],
      "name": "totalWhitelists",
      "outputs": [
        {
          "internalType": "uint256",
          "name": "",
          "type": "uint256"
        }
      ],
      "stateMutability": "view",
      "type": "function"
    },
    {
      "inputs": [
        {
          "internalType": "address",
          "name": "newAdmin",
          "type": "address"
        }
      ],
      "name": "transferAdmin",
      "outputs": [],
      "stateMutability": "nonpayable",
      "type": "function"
    },
    {
      "inputs": [
        {
          "internalType": "address",
          "name": "",
          "type": "address"
        }
      ],
      "name": "usersClaim",
      "outputs": [
        {
          "internalType": "bool",
          "name": "exec",
          "type": "bool"
        },
        {
          "internalType": "uint256",
          "name": "claimAmount",
          "type": "uint256"
        },
        {
          "internalType": "uint256",
          "name": "refundAmount",
          "type": "uint256"
        }
      ],
      "stateMutability": "view",
      "type": "function"
    },
    {
      "inputs": [
        {
          "internalType": "address",
          "name": "",
          "type": "address"
        }
      ],
      "name": "usersEx",
      "outputs": [
        {
          "internalType": "bool",
          "name": "join",
          "type": "bool"
        },
        {
          "internalType": "uint256",
          "name": "tier",
          "type": "uint256"
        },
        {
          "internalType": "uint256",
          "name": "payAmount",
          "type": "uint256"
        },
        {
          "internalType": "uint256",
          "name": "saleAmount",
          "type": "uint256"
        }
      ],
      "stateMutability": "view",
      "type": "function"
    },
    {
      "inputs": [
        {
          "internalType": "address",
          "name": "",
          "type": "address"
        }
      ],
      "name": "usersOpen",
      "outputs": [
        {
          "internalType": "bool",
          "name": "join",
          "type": "bool"
        },
        {
          "internalType": "uint256",
          "name": "depositAmount",
          "type": "uint256"
        },
        {
          "internalType": "uint256",
          "name": "payAmount",
          "type": "uint256"
        },
        {
          "internalType": "uint256",
          "name": "saleAmount",
          "type": "uint256"
        }
      ],
      "stateMutability": "view",
      "type": "function"
    },
    {
      "inputs": [
        {
          "internalType": "uint256",
          "name": "",
          "type": "uint256"
        }
      ],
      "name": "whitelists",
      "outputs": [
        {
          "internalType": "address",
          "name": "",
          "type": "address"
        }
      ],
      "stateMutability": "view",
      "type": "function"
    },
    {
      "inputs": [],
      "name": "withdraw",
      "outputs": [],
      "stateMutability": "nonpayable",
      "type": "function"
    }
  ],
  "bytecode": "0x60806040526000600155600060025560006003556000600455600060055560006006556000600755600060085560006009556000600a556000600b556000600c556000600d556000600e5534801561005657600080fd5b506001602655614b1d8061006b6000396000f3fe608060405234801561001057600080fd5b50600436106105965760003560e01c80637676ee32116102e2578063b960ca0411610191578063e30821c6116100ee578063eb8445f8116100a2578063f3e16d481161007c578063f3e16d4814610d17578063fe4d5add14610d3a578063ff6dac7614610d5757610596565b8063eb8445f814610cda578063ecf427bd14610ce2578063f18d20be14610d0f57610596565b8063e985e367116100d3578063e985e36714610ca7578063eaff056d14610caf578063eb685c4714610cb757610596565b8063e30821c614610c64578063e4b2fb7914610c8a57610596565b8063ca15c87311610145578063d53913931161012a578063d539139314610c28578063d547741f14610c30578063e016bac414610c5c57610596565b8063ca15c87314610be5578063cae9ce1b14610c0257610596565b8063bff1f9e111610176578063bff1f9e114610bcd578063c3e5763514610bd5578063c5408d5014610bdd57610596565b8063b960ca0414610bbd578063bfc630b114610bc557610596565b8063952526921161023f578063a217fddf116101f3578063a55abb17116101d8578063a55abb1714610b90578063b6b55f2514610b98578063b7182b9514610bb557610596565b8063a217fddf14610b6b578063a38ffdea14610b7357610596565b806398d97da41161022457806398d97da414610b35578063a055e62514610b5b578063a1b89b7014610b6357610596565b80639525269214610b255780639711715a14610b2d57610596565b80638f68711a11610296578063907784231161027b5780639077842314610ae957806391d1485414610af157806394f641d514610b1d57610596565b80638f68711a14610aa95780639010d07c14610ac657610596565b80637ecd5c70116102c75780637ecd5c7014610a735780638181e84714610a9957806381a9f6d714610aa157610596565b80637676ee3214610a4a5780637dc2cd9814610a6b57610596565b80633ccfd60b1161044957806363a8fd89116103a65780636e59abbb1161035a57806370e5410a1161033457806370e5410a14610a1457806375829def14610a1c57806375b238fc14610a4257610596565b80636e59abbb146109c657806370480275146109e657806370c6abf514610a0c57610596565b806367b399a51161038b57806367b399a51461096f578063690480051461098c5780636c230839146109a957610596565b806363a8fd891461095f57806366ce72711461096757610596565b80634e71d92d116103fd578063590088bc116103e2578063590088bc146108b95780635f1af712146108fd57806360a2a25c1461094257610596565b80634e71d92d146108a957806351d28a7e146108b157610596565b806341c0cb771161042e57806341c0cb771461080c578063494600ea1461085a5780634de389c41461088657610596565b80633ccfd60b146107fc5780633ef541b51461080457610596565b8063226bf1a4116104f75780632cbf3188116104ab5780632f2ff15d116104905780632f2ff15d1461079c57806336568abe146107c857806337bf0719146107f457610596565b80632cbf3188146107655780632dcdbfd31461076d57610596565b806324d7806c116104dc57806324d7806c1461071b578063282c51f31461075557806328e50f4b1461075d57610596565b8063226bf1a4146106f6578063248a9ca3146106fe57610596565b80631a1197e71161054e5780631bfc751e116105335780631bfc751e1461069b578063218183a3146106a357806321df0da7146106d257610596565b80631a1197e7146106465780631b0312321461066c57610596565b80630b433a121161057f5780630b433a12146105fb5780630e6e12b4146106035780631785f53c1461062057610596565b8063039af9eb1461059b5780630a888550146105ca575b600080fd5b6105b8600480360360208110156105b157600080fd5b5035610d9d565b60408051918252519081900360200190f35b6105f9600480360360808110156105e057600080fd5b5080359060208101359060408101359060600135610daf565b005b6105b8610f87565b6105f96004803603602081101561061957600080fd5b5035610f8d565b6105f96004803603602081101561063657600080fd5b50356001600160a01b03166112df565b6105b86004803603602081101561065c57600080fd5b50356001600160a01b0316611350565b6105f96004803603608081101561068257600080fd5b508035906020810135906040810135906060013561143f565b6105b86115cd565b6105f9600480360360808110156106b957600080fd5b50803590602081013590604081013590606001356115d3565b6106da61189c565b604080516001600160a01b039092168252519081900360200190f35b6105b86118ab565b6105b86004803603602081101561071457600080fd5b50356118b1565b6107416004803603602081101561073157600080fd5b50356001600160a01b03166118c6565b604080519115158252519081900360200190f35b6105b86118f8565b6105b861191c565b6105b861194b565b6105f96004803603608081101561078357600080fd5b5080359060208101359060408101359060600135611980565b6105f9600480360360408110156107b257600080fd5b50803590602001356001600160a01b0316611bde565b6105f9600480360360408110156107de57600080fd5b50803590602001356001600160a01b0316611c4a565b6106da611cab565b6105f9611cba565b6105b861205c565b6108326004803603602081101561082257600080fd5b50356001600160a01b0316612062565b6040805194151585526020850193909352838301919091526060830152519081900360800190f35b6105b86004803603604081101561087057600080fd5b506001600160a01b03813516906020013561208d565b6105f96004803603604081101561089c57600080fd5b50803590602001356120ee565b6105f9612229565b6105b86126cf565b6108df600480360360208110156108cf57600080fd5b50356001600160a01b03166126d5565b60408051938452602084019290925282820152519081900360600190f35b6109296004803603604081101561091357600080fd5b506001600160a01b03813516906020013561275e565b6040805192835260208301919091528051918290030190f35b6105b86004803603602081101561095857600080fd5b5035612965565b61074161298a565b6105b8612993565b6105b86004803603602081101561098557600080fd5b5035612999565b6105b8600480360360208110156109a257600080fd5b50356129ab565b6105f9600480360360208110156109bf57600080fd5b50356129bd565b6105f9600480360360808110156109dc57600080fd5b5060408101612a50565b6105f9600480360360208110156109fc57600080fd5b50356001600160a01b0316612ab2565b6105f9612b20565b6105b8612d10565b6105f960048036036020811015610a3257600080fd5b50356001600160a01b0316612d51565b6105b8612ea2565b6105f96004803603610100811015610a6157600080fd5b5060808101612ec6565b6105b8612f3c565b6105b860048036036020811015610a8957600080fd5b50356001600160a01b0316612f42565b6105f96133e1565b6105b861366e565b6105b860048036036020811015610abf57600080fd5b5035613674565b6106da60048036036040811015610adc57600080fd5b5080359060200135613686565b6105b861369e565b61074160048036036040811015610b0757600080fd5b50803590602001356001600160a01b03166136b7565b6105b86136cf565b6105b86136d5565b6105b86136db565b6108df60048036036020811015610b4b57600080fd5b50356001600160a01b03166136e1565b6105b8613793565b6105b8613799565b6105b861379f565b6105b860048036036020811015610b8957600080fd5b50356137a4565b6105b86137c2565b6105f960048036036020811015610bae57600080fd5b50356137c8565b6106da6139eb565b6105b86139fa565b6105b8613a00565b6105b8613a06565b6105b8613a0c565b6105b8613a12565b6105b860048036036020811015610bfb57600080fd5b5035613a18565b61083260048036036020811015610c1857600080fd5b50356001600160a01b0316613a2f565b6105b8613a5a565b6105f960048036036040811015610c4657600080fd5b50803590602001356001600160a01b0316613a7e565b6105b8613ad7565b6105f960048036036020811015610c7a57600080fd5b50356001600160a01b0316613add565b6106da60048036036020811015610ca057600080fd5b5035613b50565b6106da613b7a565b6105b8613b89565b6105f960048036036040811015610ccd57600080fd5b5080359060200135613b8f565b6105b8613cca565b6105f96004803603610160811015610cf957600080fd5b50803590602081019060a081019060e001613cd0565b610741613df1565b6105f960048036036040811015610d2d57600080fd5b5080359060200135613dfa565b6106da60048036036020811015610d5057600080fd5b5035613ef4565b610d7d60048036036020811015610d6d57600080fd5b50356001600160a01b0316613f04565b604080519315158452602084019290925282820152519081900360600190f35b60216020526000908152604090205481565b610db8336118c6565b610df35760405162461bcd60e51b81526004018080602001828103825260228152602001806148326022913960400191505060405180910390fd5b8360008111610e3c576040805162461bcd60e51b815260206004820152601060248201526f5075626c696353616c653a207a65726f60801b604482015290519081900360640190fd5b8360008111610e85576040805162461bcd60e51b815260206004820152601060248201526f5075626c696353616c653a207a65726f60801b604482015290519081900360640190fd5b8360008111610ece576040805162461bcd60e51b815260206004820152601060248201526f5075626c696353616c653a207a65726f60801b604482015290519081900360640190fd5b8360008111610f17576040805162461bcd60e51b815260206004820152601060248201526f5075626c696353616c653a207a65726f60801b604482015290519081900360640190fd5b6002541580610f3457506000600254118015610f34575060025442105b610f6f5760405162461bcd60e51b8152600401808060200182810382526027815260200180614a656027913960400191505060405180910390fd5b50505060029490945560039290925560045560055550565b60145481565b8060008111610fd6576040805162461bcd60e51b815260206004820152601060248201526f5075626c696353616c653a207a65726f60801b604482015290519081900360640190fd5b60155460008111611021576040805162461bcd60e51b815260206004820152601060248201526f5075626c696353616c653a207a65726f60801b604482015290519081900360640190fd5b60026026541415611079576040805162461bcd60e51b815260206004820152601f60248201527f5265656e7472616e637947756172643a207265656e7472616e742063616c6c00604482015290519081900360640190fd5b60026026556004544210156110bf5760405162461bcd60e51b815260040180806020018281038252602d815260200180614805602d913960400191505060405180910390fd5b60055442106110ff5760405162461bcd60e51b815260040180806020018281038252602181526020018061490e6021913960400191505060405180910390fd5b336000908152601e60205260409020805460ff1615156001146111535760405162461bcd60e51b81526004018080602001828103825260278152602001806149806027913960400191505060405180910390fd5b600061115e856137a4565b9050600061116b33611350565b600384015490915061117d9083613f28565b8110156111bb5760405162461bcd60e51b815260040180806020018281038252602c815260200180614875602c913960400191505060405180910390fd5b60028301546111e757600a546111d2906001613f28565b600a556009546111e3906001613f28565b6009555b60028301546111f69087613f28565b6002840155600383015461120a9083613f28565b6003840155600e5461121c9087613f28565b600e55600d5461122c9083613f28565b600d55600061123a33612f42565b600081815260236020526040902054909150611257906001613f28565b60008281526023602052604090205560195461127e906001600160a01b031633308a613f82565b60175460195461129b916001600160a01b0391821691168961400a565b60408051888152905133917fc2198f7273f3b4ab95a025cf1f853777ca45149bbc1c005496959a6da70fcb8d919081900360200190a2505060016026555050505050565b6112e8336118c6565b6113235760405162461bcd60e51b81526004018080602001828103825260228152602001806148326022913960400191505060405180910390fd5b61134d7fdf8b4c520ffe197c5343c6f5aec59570151ef9a492f2c624fd45ddde6135ec4282611c4a565b50565b6001600160a01b0381166000908152601e602052604081208161137284612f42565b825490915060ff161515600114801561138b5750600081115b156113d15760008181526022602090815260408083205460249092528220546010546113c692612710926113c092839161408f565b906140e8565b935061143a92505050565b8015611433576000818152602260205260408120546113f1906001613f28565b905060006114276127106113c0846113c0602460008981526020019081526020016000205460105461408f90919063ffffffff16565b945061143a9350505050565b6000925050505b919050565b611448336118c6565b6114835760405162461bcd60e51b81526004018080602001828103825260228152602001806148326022913960400191505060405180910390fd5b83600081116114cc576040805162461bcd60e51b815260206004820152601060248201526f5075626c696353616c653a207a65726f60801b604482015290519081900360640190fd5b8360008111611515576040805162461bcd60e51b815260206004820152601060248201526f5075626c696353616c653a207a65726f60801b604482015290519081900360640190fd5b836000811161155e576040805162461bcd60e51b815260206004820152601060248201526f5075626c696353616c653a207a65726f60801b604482015290519081900360640190fd5b600254158061157b5750600060025411801561157b575060025442105b6115b65760405162461bcd60e51b8152600401808060200182810382526027815260200180614a656027913960400191505060405180910390fd5b505050600893909355601491909155601555601655565b60085481565b6115dc336118c6565b6116175760405162461bcd60e51b81526004018080602001828103825260228152602001806148326022913960400191505060405180910390fd5b8360008111611660576040805162461bcd60e51b815260206004820152601060248201526f5075626c696353616c653a207a65726f60801b604482015290519081900360640190fd5b83600081116116a9576040805162461bcd60e51b815260206004820152601060248201526f5075626c696353616c653a207a65726f60801b604482015290519081900360640190fd5b83600081116116f2576040805162461bcd60e51b815260206004820152601060248201526f5075626c696353616c653a207a65726f60801b604482015290519081900360640190fd5b836000811161173b576040805162461bcd60e51b815260206004820152601060248201526f5075626c696353616c653a207a65726f60801b604482015290519081900360640190fd5b600254158061175857506000600254118015611758575060025442105b6117935760405162461bcd60e51b8152600401808060200182810382526027815260200180614a656027913960400191505060405180910390fd5b6117a9856117a388818c8c613f28565b90613f28565b612710146117fe576040805162461bcd60e51b815260206004820152601f60248201527f5075626c696353616c653a2053756d2073686f756c6420626520313030303000604482015290519081900360640190fd5b5050602460205250507fbbbb3b1da0cb0951f34c5e9db4606f934b7367b5284f29163e9e6fe67e1e97d6939093557f47bb5529a97e2b401b32950f6360fbc9e3f4e70b887dc0f9b9ad1f7402ca11da919091557f8a6809e43cef135a96df89aa3c0800baae7c497913adf6156625c15a6f57cdf05560046000527fe0059098054d65c76a17a4d86f8572395c4d366a1d067b0643b918330bac9e1555565b6019546001600160a01b031681565b60135481565b60009081526025602052604090206002015490565b60006118f27fdf8b4c520ffe197c5343c6f5aec59570151ef9a492f2c624fd45ddde6135ec42836136b7565b92915050565b7f9667e80708b6eeeb0053fa0cca44e028ff548e2a9f029edfeac87c118b08b7c881565b60006005544210156119315750601154611948565b61194561193c61369e565b60115490613f28565b90505b90565b600080611959600f546137a4565b9050600061196561191c565b90508082101561197757509050611948565b91506119489050565b611989336118c6565b6119c45760405162461bcd60e51b81526004018080602001828103825260228152602001806148326022913960400191505060405180910390fd5b8360008111611a0d576040805162461bcd60e51b815260206004820152601060248201526f5075626c696353616c653a207a65726f60801b604482015290519081900360640190fd5b8360008111611a56576040805162461bcd60e51b815260206004820152601060248201526f5075626c696353616c653a207a65726f60801b604482015290519081900360640190fd5b8360008111611a9f576040805162461bcd60e51b815260206004820152601060248201526f5075626c696353616c653a207a65726f60801b604482015290519081900360640190fd5b8360008111611ae8576040805162461bcd60e51b815260206004820152601060248201526f5075626c696353616c653a207a65726f60801b604482015290519081900360640190fd5b6002541580611b0557506000600254118015611b05575060025442105b611b405760405162461bcd60e51b8152600401808060200182810382526027815260200180614a656027913960400191505060405180910390fd5b5050602160205250507f2b59c9df127166d3570f589f0cb7377a6b175795e70ab275ebf42fa16c0a23f4939093557f914a2534c436de5a3f77164e6b9b90d20144139ce899b6a8d30a442e7b9ef533919091557fbae8fb7bb9008c9bfa6625328b7613a2bedfb2f936a7718f51173039a77c107c5560046000527f1ae06646c6742a506302a1833f6c3f508643fd4c5dcb1e323706d5c3441af29855565b600082815260256020526040902060020154611c0190611bfc61412a565b6136b7565b611c3c5760405162461bcd60e51b815260040180806020018281038252602f8152602001806147d6602f913960400191505060405180910390fd5b611c46828261412e565b5050565b611c5261412a565b6001600160a01b0316816001600160a01b031614611ca15760405162461bcd60e51b815260040180806020018281038252602f815260200180614a8c602f913960400191505060405180910390fd5b611c468282614197565b601a546001600160a01b031681565b611cc3336118c6565b611cfe5760405162461bcd60e51b81526004018080602001828103825260228152602001806148326022913960400191505060405180910390fd5b6007544211611e8357601854604080516370a0823160e01b815230600482015290516000926001600160a01b0316916370a08231916024808301926020929190829003018186803b158015611d5257600080fd5b505afa158015611d66573d6000803e3d6000fd5b505050506040513d6020811015611d7c57600080fd5b5051601154601054919250611d919190613f28565b8111611dce5760405162461bcd60e51b81526004018080602001828103825260228152602001806149ce6022913960400191505060405180910390fd5b6000611df1611dea601154601054613f2890919063ffffffff16565b8390614200565b905080611e2f5760405162461bcd60e51b81526004018080602001828103825260268152602001806148c76026913960400191505060405180910390fd5b601854611e46906001600160a01b0316338361400a565b60408051828152905133917f7fcf532c15f0a6db0bd6d0e038bea71d30d808c7d98cb3bf7268a95bf5081b65919081900360200190a2505061205a565b6007544211611ed9576040805162461bcd60e51b815260206004820181905260248201527f5075626c696353616c653a20656e6420746865206f70656e53616c6554696d65604482015290519081900360640190fd5b601d5460ff1615611f31576040805162461bcd60e51b815260206004820152601d60248201527f616c72656164792061646d696e2063616c6c6564207769746864726177000000604482015290519081900360640190fd5b601d805460ff191660011790556000611f4861194b565b600d54909150611f589082613f28565b601154601054611f6791613f28565b11611fa35760405162461bcd60e51b81526004018080602001828103825260268152602001806148c76026913960400191505060405180910390fd5b6000611fcc82611fc6600d54611fc6601154601054613f2890919063ffffffff16565b90614200565b90508061200a5760405162461bcd60e51b81526004018080602001828103825260268152602001806148c76026913960400191505060405180910390fd5b601854612021906001600160a01b0316338361400a565b60408051828152905133917f7fcf532c15f0a6db0bd6d0e038bea71d30d808c7d98cb3bf7268a95bf5081b65919081900360200190a250505b565b60075481565b601f60205260009081526040902080546001820154600283015460039093015460ff90921692909184565b6001600160a01b0382166000908152601f60205260408120600181015482906120b69085613f28565b905060006120e46120d286600f54613f2890919063ffffffff16565b6113c0846120de61191c565b9061408f565b9695505050505050565b6120f7336118c6565b6121325760405162461bcd60e51b81526004018080602001828103825260228152602001806148326022913960400191505060405180910390fd5b816000811161217b576040805162461bcd60e51b815260206004820152601060248201526f5075626c696353616c653a207a65726f60801b604482015290519081900360640190fd5b81600081116121c4576040805162461bcd60e51b815260206004820152601060248201526f5075626c696353616c653a207a65726f60801b604482015290519081900360640190fd5b60025415806121e1575060006002541180156121e1575060025442105b61221c5760405162461bcd60e51b8152600401808060200182810382526027815260200180614a656027913960400191505060405180910390fd5b5050600691909155600755565b60085442101561226a5760405162461bcd60e51b81526004018080602001828103825260218152602001806148ed6021913960400191505060405180910390fd5b33600081815260208080526040808320601f9092528220909290919061228f906126d5565b5091505060008061229f336136e1565b9250509150600083116122f9576040805162461bcd60e51b815260206004820152601e60248201527f5075626c696353616c653a206e6f20707572636861736520616d6f756e740000604482015290519081900360640190fd5b600061230633600061275e565b5090506000811161235e576040805162461bcd60e51b815260206004820152601560248201527f5075626c696353616c653a206e6f207265776172640000000000000000000000604482015290519081900360640190fd5b8061237687600101548661420090919063ffffffff16565b10156123b35760405162461bcd60e51b8152600401808060200182810382526028815260200180614a1a6028913960400191505060405180910390fd5b601854604080516370a0823160e01b8152306004820152905183926001600160a01b0316916370a08231916024808301926020929190829003018186803b1580156123fd57600080fd5b505afa158015612411573d6000803e3d6000fd5b505050506040513d602081101561242757600080fd5b505110156124665760405162461bcd60e51b81526004018080602001828103825260278152602001806149a76027913960400191505060405180910390fd5b60018601546124759082613f28565b6001870155601854612491906001600160a01b0316338361400a565b855460ff161580156124a45750845460ff165b1561259157601954604080516370a0823160e01b815230600482015290516001600160a01b03909216916370a0823191602480820192602092909190829003018186803b1580156124f457600080fd5b505afa158015612508573d6000803e3d6000fd5b505050506040513d602081101561251e57600080fd5b5051831115612574576040805162461bcd60e51b815260206004820152601960248201527f5075626c696353616c653a20646f6e74206861766520746f6e00000000000000604482015290519081900360640190fd5b601754601954612591916001600160a01b0391821691168561400a565b6000821180156125a357506002860154155b1561269157601954604080516370a0823160e01b815230600482015290516001600160a01b03909216916370a0823191602480820192602092909190829003018186803b1580156125f357600080fd5b505afa158015612607573d6000803e3d6000fd5b505050506040513d602081101561261d57600080fd5b5051821115612673576040805162461bcd60e51b815260206004820181905260248201527f5075626c696353616c653a20646f6e74206861766520726566756e6420746f6e604482015290519081900360640190fd5b60028601829055601954612691906001600160a01b0316338461400a565b60408051828152905133917fd8138f8a3f377c5259ca548e70e4c2de94f129f5a11036a15b69513cba2b426a919081900360200190a2505050505050565b60125481565b6001600160a01b0381166000908152601e6020526040812080548291829160ff1615612746576000806000612709886136e1565b925092509250612726846002015484613f2890919063ffffffff16565b6003850154612736908490613f28565b8296509650965050505050612757565b61274f856136e1565b935093509350505b9193909250565b6000806008544210156127765750600090508061295e565b60155483111561278b5750600090508061295e565b6001600160a01b03841660009081526020805260408120906127ac866126d5565b50915050806127c35760008093509350505061295e565b808260010154106127db5760009350915061295e9050565b60006127f26008544261420090919063ffffffff16565b90506000829050600061281560646113c06016548561408f90919063ffffffff16565b9050600061283c612832600160155461420090919063ffffffff16565b6113c08585614200565b9050886128f85760145484101561287757600061286687600101548461420090919063ffffffff16565b985092965061295e95505050505050565b60006128906001601454878161288957fe5b0490613f28565b905060155481106128c65760006128b488600101548661420090919063ffffffff16565b995093975061295e9650505050505050565b60006128b48860010154611fc66128f16128ea60018761420090919063ffffffff16565b879061408f565b8790613f28565b886001141561290f57509550935061295e92505050565b60155489141561294f57600061286661294861294161293a600260155461420090919063ffffffff16565b859061408f565b8590613f28565b8590614200565b965090945061295e9350505050565b9250929050565b6000806129836013546113c06012548661408f90919063ffffffff16565b9392505050565b60005460ff1681565b60055481565b60226020526000908152604090205481565b60246020526000908152604090205481565b6129c6336118c6565b612a015760405162461bcd60e51b81526004018080602001828103825260228152602001806148326022913960400191505060405180910390fd5b8060008111612a4a576040805162461bcd60e51b815260206004820152601060248201526f5075626c696353616c653a207a65726f60801b604482015290519081900360640190fd5b50600155565b612a59336118c6565b612a945760405162461bcd60e51b81526004018080602001828103825260228152602001806148326022913960400191505060405180910390fd5b612aa382356020840135613dfa565b611c4681356020830135613b8f565b612abb336118c6565b612af65760405162461bcd60e51b81526004018080602001828103825260228152602001806148326022913960400191505060405180910390fd5b61134d7fdf8b4c520ffe197c5343c6f5aec59570151ef9a492f2c624fd45ddde6135ec4282611bde565b612b29336118c6565b612b645760405162461bcd60e51b81526004018080602001828103825260228152602001806148326022913960400191505060405180910390fd5b60006002819055600c819055600d819055600e819055600f8190555b601c54811015612c2a576000601e6000601c8481548110612b9d57fe5b60009182526020808320909101546001600160a01b031683528281019390935260409091018120805460ff191681556002810182905560038101829055601c8054919450919291839186908110612bf057fe5b60009182526020808320909101546001600160a01b031683528201929092526040018120600190810191909155929092019150612b809050565b5060005b601b54811015612cdf576000601f6000601b8481548110612c4b57fe5b60009182526020808320909101546001600160a01b03168352828101939093526040909101812060018101829055805460ff191681556002810182905560038101829055601b8054919450919291839186908110612ca557fe5b60009182526020808320909101546001600160a01b031683528201929092526040018120600190810191909155929092019150612c2e9050565b5060015b600581101561134d5760008181526022602090815260408083208390556023909152812055600101612ce3565b600080612d1e600f546137a4565b90506000612d2a61191c565b905080821015612d4857612d3f600f54612965565b92505050611948565b612d3f81612965565b612d5a336118c6565b612d955760405162461bcd60e51b81526004018080602001828103825260228152602001806148326022913960400191505060405180910390fd5b6001600160a01b038116612df0576040805162461bcd60e51b815260206004820152601860248201527f41636365737369626c653a207a65726f20616464726573730000000000000000604482015290519081900360640190fd5b336001600160a01b0382161415612e4e576040805162461bcd60e51b815260206004820152601660248201527f41636365737369626c653a2073616d652061646d696e00000000000000000000604482015290519081900360640190fd5b612e787fdf8b4c520ffe197c5343c6f5aec59570151ef9a492f2c624fd45ddde6135ec4282611bde565b61134d7fdf8b4c520ffe197c5343c6f5aec59570151ef9a492f2c624fd45ddde6135ec4233611c4a565b7fdf8b4c520ffe197c5343c6f5aec59570151ef9a492f2c624fd45ddde6135ec4281565b612ecf336118c6565b612f0a5760405162461bcd60e51b81526004018080602001828103825260228152602001806148326022913960400191505060405180910390fd5b612f238235602084013560408501356060860135611980565b611c4681356020830135604084013560608501356115d3565b60155481565b601a546000906001600160a01b031680612fa3576040805162461bcd60e51b815260206004820152601860248201527f5075626c696353616c653a207a65726f20616464726573730000000000000000604482015290519081900360640190fd5b600160005260216020527f2b59c9df127166d3570f589f0cb7377a6b175795e70ab275ebf42fa16c0a23f45480613014576040805162461bcd60e51b815260206004820152601060248201526f5075626c696353616c653a207a65726f60801b604482015290519081900360640190fd5b600260005260216020527f914a2534c436de5a3f77164e6b9b90d20144139ce899b6a8d30a442e7b9ef5335480613085576040805162461bcd60e51b815260206004820152601060248201526f5075626c696353616c653a207a65726f60801b604482015290519081900360640190fd5b600360005260216020527fbae8fb7bb9008c9bfa6625328b7613a2bedfb2f936a7718f51173039a77c107c54806130f6576040805162461bcd60e51b815260206004820152601060248201526f5075626c696353616c653a207a65726f60801b604482015290519081900360640190fd5b600460005260216020527f1ae06646c6742a506302a1833f6c3f508643fd4c5dcb1e323706d5c3441af2985480613167576040805162461bcd60e51b815260206004820152601060248201526f5075626c696353616c653a207a65726f60801b604482015290519081900360640190fd5b601a54600154604080517f4ee2cd7e0000000000000000000000000000000000000000000000000000000081526001600160a01b038b81166004830152602482019390935290516000939290921691634ee2cd7e91604480820192602092909190829003018186803b1580156131dc57600080fd5b505afa1580156131f0573d6000803e3d6000fd5b505050506040513d602081101561320657600080fd5b50516001600090815260216020527f2b59c9df127166d3570f589f0cb7377a6b175795e70ab275ebf42fa16c0a23f4549192509082108015906132735750600260005260216020527f914a2534c436de5a3f77164e6b9b90d20144139ce899b6a8d30a442e7b9ef5335482105b15613280575060016133d5565b600260005260216020527f914a2534c436de5a3f77164e6b9b90d20144139ce899b6a8d30a442e7b9ef5335482108015906132e55750600360005260216020527fbae8fb7bb9008c9bfa6625328b7613a2bedfb2f936a7718f51173039a77c107c5482105b156132f2575060026133d5565b600360005260216020527fbae8fb7bb9008c9bfa6625328b7613a2bedfb2f936a7718f51173039a77c107c5482108015906133575750600460005260216020527f1ae06646c6742a506302a1833f6c3f508643fd4c5dcb1e323706d5c3441af2985482105b15613364575060036133d5565b600460005260216020527f1ae06646c6742a506302a1833f6c3f508643fd4c5dcb1e323706d5c3441af29854821061339e575060046133d5565b600160005260216020527f2b59c9df127166d3570f589f0cb7377a6b175795e70ab275ebf42fa16c0a23f4548210156133d5575060005b98975050505050505050565b60026026541415613439576040805162461bcd60e51b815260206004820152601f60248201527f5265656e7472616e637947756172643a207265656e7472616e742063616c6c00604482015290519081900360640190fd5b600260268190555442101561347f5760405162461bcd60e51b815260040180806020018281038252602d815260200180614abb602d913960400191505060405180910390fd5b60035442106134bf5760405162461bcd60e51b81526004018080602001828103825260218152602001806148546021913960400191505060405180910390fd5b60006134ca33612f42565b90506001811015613522576040805162461bcd60e51b815260206004820152601d60248201527f5075626c696353616c653a206e65656420746f206d6f72652073544f53000000604482015290519081900360640190fd5b336000908152601e60205260409020805460ff1615156001141561358d576040805162461bcd60e51b815260206004820152601c60248201527f5075626c696353616c653a20616c726561647920617474656e64656400000000604482015290519081900360640190fd5b601c8054600181810183556000929092527f0e4562a10381dec21b205ed72637e6b1b523bdd0e4d4d50af5cd23dd4500a21101805473ffffffffffffffffffffffffffffffffffffffff191633179055600c546135e991613f28565b600c55805460ff1916600190811782558181018390556000600383018190558381526022602052604090205461361e91613f28565b600083815260226020908152604091829020929092558051848152905133927fffc1b88a1c7ff4b7c84aac62283195eb1a6e771eafe7f68ddc27c7539cb0a105928290030190a250506001602655565b60065481565b60236020526000908152604090205481565b60008281526025602052604081206129839083614242565b6000611945600d5460105461420090919063ffffffff16565b6000828152602560205260408120612983908361424e565b600b5481565b60025481565b60015481565b6001600160a01b0381166000908152601f6020526040812080548291829160ff16158061371057506001810154155b1561372657600080600093509350935050612757565b600061373386600061208d565b9050600061374082612965565b60018401549091506000808284101561376f5761375d8385614200565b9050613768846137a4565b9150613782565b8560010154935061377f836137a4565b91505b929990985091965090945050505050565b600a5481565b600c5481565b600081565b6000806129836012546113c06013548661408f90919063ffffffff16565b600e5481565b60026026541415613820576040805162461bcd60e51b815260206004820152601f60248201527f5265656e7472616e637947756172643a207265656e7472616e742063616c6c00604482015290519081900360640190fd5b60026026556006544210156138665760405162461bcd60e51b8152600401808060200182810382526023815260200180614a426023913960400191505060405180910390fd5b60075442106138bc576040805162461bcd60e51b815260206004820152601f60248201527f5075626c696353616c653a20656e6420746865206465706f73697454696d6500604482015290519081900360640190fd5b336000908152601f60205260409020805460ff1661396957601b8054600181810183556000929092527f3ad8aa4f87544323a9d1e5dd902f40c356527a7955687113db5f9a85ad579dc101805473ffffffffffffffffffffffffffffffffffffffff191633179055815460ff191681178255600b5461393a91613f28565b600b55336000908152601e60205260409020600281015461396757600954613963906001613f28565b6009555b505b60018101546139789083613f28565b600182015560006003820155600f546139919083613f28565b600f556019546139ac906001600160a01b0316333085613f82565b60408051838152905133917f2da466a7b24304f47e87fa2e1e5a81b9831ce54fec19055ce277ca2f39ba42c4919081900360200190a250506001602655565b6017546001600160a01b031681565b60105481565b60115481565b60095481565b60035481565b600f5481565b60008181526025602052604081206118f290614263565b601e60205260009081526040902080546001820154600283015460039093015460ff90921692909184565b7ff0887ba65ee2024ea881d91b74c2450ef19e1557f03bed3ea9f16b037cbe2dc981565b600082815260256020526040902060020154613a9c90611bfc61412a565b611ca15760405162461bcd60e51b815260040180806020018281038252603081526020018061492f6030913960400191505060405180910390fd5b60045481565b613ae6336118c6565b613b215760405162461bcd60e51b81526004018080602001828103825260228152602001806148326022913960400191505060405180910390fd5b6017805473ffffffffffffffffffffffffffffffffffffffff19166001600160a01b0392909216919091179055565b601b8181548110613b6057600080fd5b6000918252602090912001546001600160a01b0316905081565b6018546001600160a01b031681565b60165481565b613b98336118c6565b613bd35760405162461bcd60e51b81526004018080602001828103825260228152602001806148326022913960400191505060405180910390fd5b8160008111613c1c576040805162461bcd60e51b815260206004820152601060248201526f5075626c696353616c653a207a65726f60801b604482015290519081900360640190fd5b8160008111613c65576040805162461bcd60e51b815260206004820152601060248201526f5075626c696353616c653a207a65726f60801b604482015290519081900360640190fd5b6002541580613c8257506000600254118015613c82575060025442105b613cbd5760405162461bcd60e51b8152600401808060200182810382526027815260200180614a656027913960400191505060405180910390fd5b5050601291909155601355565b600d5481565b613cd9336118c6565b613d145760405162461bcd60e51b81526004018080602001828103825260228152602001806148326022913960400191505060405180910390fd5b6002541580613d3157506000600254118015613d31575060025442105b613d6c5760405162461bcd60e51b8152600401808060200182810382526027815260200180614a656027913960400191505060405180910390fd5b60208301358335108015613d87575060608301356040840135105b613d9057600080fd5b6020820135823510613da157600080fd5b613daa846129bd565b613dc38335602085013560408601356060870135610daf565b613dd2823560208401356120ee565b613deb813560208301356040840135606085013561143f565b50505050565b601d5460ff1681565b613e03336118c6565b613e3e5760405162461bcd60e51b81526004018080602001828103825260228152602001806148326022913960400191505060405180910390fd5b613e488282613f28565b60008111613e90576040805162461bcd60e51b815260206004820152601060248201526f5075626c696353616c653a207a65726f60801b604482015290519081900360640190fd5b6002541580613ead57506000600254118015613ead575060025442105b613ee85760405162461bcd60e51b8152600401808060200182810382526027815260200180614a656027913960400191505060405180910390fd5b50601091909155601155565b601c8181548110613b6057600080fd5b602080526000908152604090208054600182015460029092015460ff909116919083565b600082820183811015612983576040805162461bcd60e51b815260206004820152601b60248201527f536166654d6174683a206164646974696f6e206f766572666c6f770000000000604482015290519081900360640190fd5b604080516001600160a01b0380861660248301528416604482015260648082018490528251808303909101815260849091019091526020810180517bffffffffffffffffffffffffffffffffffffffffffffffffffffffff167f23b872dd00000000000000000000000000000000000000000000000000000000179052613deb90859061426e565b604080516001600160a01b038416602482015260448082018490528251808303909101815260649091019091526020810180517bffffffffffffffffffffffffffffffffffffffffffffffffffffffff167fa9059cbb0000000000000000000000000000000000000000000000000000000017905261408a90849061426e565b505050565b60008261409e575060006118f2565b828202828482816140ab57fe5b04146129835760405162461bcd60e51b815260040180806020018281038252602181526020018061495f6021913960400191505060405180910390fd5b600061298383836040518060400160405280601a81526020017f536166654d6174683a206469766973696f6e206279207a65726f00000000000081525061431f565b3390565b600082815260256020526040902061414690826143c1565b15611c465761415361412a565b6001600160a01b0316816001600160a01b0316837f2f8788117e7eff1d82e926ec794901d17c78024a50270940304540a733656f0d60405160405180910390a45050565b60008281526025602052604090206141af90826143d6565b15611c46576141bc61412a565b6001600160a01b0316816001600160a01b0316837ff6391f5c32d9c69d2a47ea670b442974b53935d1edc7fd64eb21e047a839171b60405160405180910390a45050565b600061298383836040518060400160405280601e81526020017f536166654d6174683a207375627472616374696f6e206f766572666c6f7700008152506143eb565b60006129838383614445565b6000612983836001600160a01b0384166144a9565b60006118f2826144c1565b60006142c3826040518060400160405280602081526020017f5361666545524332303a206c6f772d6c6576656c2063616c6c206661696c6564815250856001600160a01b03166144c59092919063ffffffff16565b80519091501561408a578080602001905160208110156142e257600080fd5b505161408a5760405162461bcd60e51b815260040180806020018281038252602a8152602001806149f0602a913960400191505060405180910390fd5b600081836143ab5760405162461bcd60e51b81526004018080602001828103825283818151815260200191508051906020019080838360005b83811015614370578181015183820152602001614358565b50505050905090810190601f16801561439d5780820380516001836020036101000a031916815260200191505b509250505060405180910390fd5b5060008385816143b757fe5b0495945050505050565b6000612983836001600160a01b0384166144dc565b6000612983836001600160a01b038416614526565b6000818484111561443d5760405162461bcd60e51b8152602060048201818152835160248401528351909283926044909101919085019080838360008315614370578181015183820152602001614358565b505050900390565b815460009082106144875760405162461bcd60e51b81526004018080602001828103825260228152602001806147b46022913960400191505060405180910390fd5b82600001828154811061449657fe5b9060005260206000200154905092915050565b60009081526001919091016020526040902054151590565b5490565b60606144d484846000856145ec565b949350505050565b60006144e883836144a9565b61451e575081546001818101845560008481526020808220909301849055845484825282860190935260409020919091556118f2565b5060006118f2565b600081815260018301602052604081205480156145e2578354600019808301919081019060009087908390811061455957fe5b906000526020600020015490508087600001848154811061457657fe5b6000918252602080832090910192909255828152600189810190925260409020908401905586548790806145a657fe5b600190038181906000526020600020016000905590558660010160008781526020019081526020016000206000905560019450505050506118f2565b60009150506118f2565b60608247101561462d5760405162461bcd60e51b81526004018080602001828103825260268152602001806148a16026913960400191505060405180910390fd5b61463685614747565b614687576040805162461bcd60e51b815260206004820152601d60248201527f416464726573733a2063616c6c20746f206e6f6e2d636f6e7472616374000000604482015290519081900360640190fd5b600080866001600160a01b031685876040518082805190602001908083835b602083106146c55780518252601f1990920191602091820191016146a6565b6001836020036101000a03801982511681845116808217855250505050505090500191505060006040518083038185875af1925050503d8060008114614727576040519150601f19603f3d011682016040523d82523d6000602084013e61472c565b606091505b509150915061473c82828661474d565b979650505050505050565b3b151590565b6060831561475c575081612983565b82511561476c5782518084602001fd5b60405162461bcd60e51b815260206004820181815284516024840152845185939192839260440191908501908083836000831561437057818101518382015260200161435856fe456e756d657261626c655365743a20696e646578206f7574206f6620626f756e6473416363657373436f6e74726f6c3a2073656e646572206d75737420626520616e2061646d696e20746f206772616e745075626c696353616c653a206578636c7573697665537461727454696d6520686173206e6f742070617373656441636365737369626c653a2043616c6c6572206973206e6f7420616e2061646d696e5075626c696353616c653a20656e64207468652077686974656c69737454696d655075626c696353616c653a206a757374206275792074696572277320616c6c6f636174656420616d6f756e74416464726573733a20696e73756666696369656e742062616c616e636520666f722063616c6c5075626c696353616c653a20646f6e2774206578697374207769746864726177416d6f756e745075626c696353616c653a20646f6e277420737461727420636c61696d54696d655075626c696353616c653a20656e6420746865206578636c757369766554696d65416363657373436f6e74726f6c3a2073656e646572206d75737420626520616e2061646d696e20746f207265766f6b65536166654d6174683a206d756c7469706c69636174696f6e206f766572666c6f775075626c696353616c653a206e6f74207265676973746572656420696e2077686974656c6973745075626c696353616c653a20646f6e7420686176652073616c65546f6b656e20696e20706f6f6c5075626c696353616c653a206e6f20776974686472617761626c6520616d6f756e745361666545524332303a204552433230206f7065726174696f6e20646964206e6f7420737563636565645075626c696353616c653a207573657220697320616c726561647920676574416c6c7265776172645075626c696353616c653a20646f6e2774207374617274206465706f73697454696d655075626c696353616c653a206e6f74206265666f72655374617274416464576869746554696d65416363657373436f6e74726f6c3a2063616e206f6e6c792072656e6f756e636520726f6c657320666f722073656c665075626c696353616c653a2077686974656c697374537461727454696d6520686173206e6f7420706173736564a264697066735822122037d1e63983422ac5cdaca908a881fdaa23b63a3daa3907b8757d51deeea0727364736f6c63430007060033",
  "linkReferences": {},
  "deployedLinkReferences": {}
}