{
  "_format": "hh-sol-artifact-1",
  "contractName": "PublicSale",
  "sourceName": "contracts/sale/PublicSale.sol",
  "abi": [
    {
      "anonymous": false,
      "inputs": [
        {
          "indexed": true,
          "internalType": "address",
          "name": "from",
          "type": "address"
        },
        {
          "indexed": false,
          "internalType": "uint256",
          "name": "tier",
          "type": "uint256"
        }
      ],
      "name": "AddedWhiteList",
      "type": "event"
    },
    {
      "anonymous": false,
      "inputs": [
        {
          "indexed": true,
          "internalType": "address",
          "name": "from",
          "type": "address"
        },
        {
          "indexed": false,
          "internalType": "uint256",
          "name": "amount",
          "type": "uint256"
        }
      ],
      "name": "Claimed",
      "type": "event"
    },
    {
      "anonymous": false,
      "inputs": [
        {
          "indexed": true,
          "internalType": "address",
          "name": "from",
          "type": "address"
        },
        {
          "indexed": false,
          "internalType": "uint256",
          "name": "amount",
          "type": "uint256"
        },
        {
          "indexed": false,
          "internalType": "uint256",
          "name": "liquidityAmount",
          "type": "uint256"
        }
      ],
      "name": "DepositWithdrawal",
      "type": "event"
    },
    {
      "anonymous": false,
      "inputs": [
        {
          "indexed": true,
          "internalType": "address",
          "name": "from",
          "type": "address"
        },
        {
          "indexed": false,
          "internalType": "uint256",
          "name": "amount",
          "type": "uint256"
        }
      ],
      "name": "Deposited",
      "type": "event"
    },
    {
      "anonymous": false,
      "inputs": [
        {
          "indexed": true,
          "internalType": "address",
          "name": "from",
          "type": "address"
        },
        {
          "indexed": false,
          "internalType": "uint256",
          "name": "amount",
          "type": "uint256"
        }
      ],
      "name": "ExclusiveSaled",
      "type": "event"
    },
    {
      "anonymous": false,
      "inputs": [
        {
          "indexed": true,
          "internalType": "bytes32",
          "name": "role",
          "type": "bytes32"
        },
        {
          "indexed": true,
          "internalType": "bytes32",
          "name": "previousAdminRole",
          "type": "bytes32"
        },
        {
          "indexed": true,
          "internalType": "bytes32",
          "name": "newAdminRole",
          "type": "bytes32"
        }
      ],
      "name": "RoleAdminChanged",
      "type": "event"
    },
    {
      "anonymous": false,
      "inputs": [
        {
          "indexed": true,
          "internalType": "bytes32",
          "name": "role",
          "type": "bytes32"
        },
        {
          "indexed": true,
          "internalType": "address",
          "name": "account",
          "type": "address"
        },
        {
          "indexed": true,
          "internalType": "address",
          "name": "sender",
          "type": "address"
        }
      ],
      "name": "RoleGranted",
      "type": "event"
    },
    {
      "anonymous": false,
      "inputs": [
        {
          "indexed": true,
          "internalType": "bytes32",
          "name": "role",
          "type": "bytes32"
        },
        {
          "indexed": true,
          "internalType": "address",
          "name": "account",
          "type": "address"
        },
        {
          "indexed": true,
          "internalType": "address",
          "name": "sender",
          "type": "address"
        }
      ],
      "name": "RoleRevoked",
      "type": "event"
    },
    {
      "anonymous": false,
      "inputs": [
        {
          "indexed": true,
          "internalType": "address",
          "name": "from",
          "type": "address"
        },
        {
          "indexed": false,
          "internalType": "uint256",
          "name": "amount",
          "type": "uint256"
        }
      ],
      "name": "Withdrawal",
      "type": "event"
    },
    {
      "inputs": [],
      "name": "ADMIN_ROLE",
      "outputs": [
        {
          "internalType": "bytes32",
          "name": "",
          "type": "bytes32"
        }
      ],
      "stateMutability": "view",
      "type": "function"
    },
    {
      "inputs": [],
      "name": "BURNER_ROLE",
      "outputs": [
        {
          "internalType": "bytes32",
          "name": "",
          "type": "bytes32"
        }
      ],
      "stateMutability": "view",
      "type": "function"
    },
    {
      "inputs": [],
      "name": "DEFAULT_ADMIN_ROLE",
      "outputs": [
        {
          "internalType": "bytes32",
          "name": "",
          "type": "bytes32"
        }
      ],
      "stateMutability": "view",
      "type": "function"
    },
    {
      "inputs": [],
      "name": "MINTER_ROLE",
      "outputs": [
        {
          "internalType": "bytes32",
          "name": "",
          "type": "bytes32"
        }
      ],
      "stateMutability": "view",
      "type": "function"
    },
    {
      "inputs": [],
      "name": "PROJECT_ADMIN_ROLE",
      "outputs": [
        {
          "internalType": "bytes32",
          "name": "",
          "type": "bytes32"
        }
      ],
      "stateMutability": "view",
      "type": "function"
    },
    {
      "inputs": [
        {
          "internalType": "bytes",
          "name": "data",
          "type": "bytes"
        }
      ],
      "name": "_decodeApproveData",
      "outputs": [
        {
          "internalType": "uint256",
          "name": "approveData",
          "type": "uint256"
        }
      ],
      "stateMutability": "pure",
      "type": "function"
    },
    {
      "inputs": [
        {
          "internalType": "uint256",
          "name": "v",
          "type": "uint256"
        }
      ],
      "name": "_toWAD",
      "outputs": [
        {
          "internalType": "uint256",
          "name": "",
          "type": "uint256"
        }
      ],
      "stateMutability": "pure",
      "type": "function"
    },
    {
      "inputs": [
        {
          "internalType": "address",
          "name": "account",
          "type": "address"
        }
      ],
      "name": "addAdmin",
      "outputs": [],
      "stateMutability": "nonpayable",
      "type": "function"
    },
    {
      "inputs": [
        {
          "internalType": "address",
          "name": "_owner",
          "type": "address"
        }
      ],
      "name": "addProxyAdmin",
      "outputs": [],
      "stateMutability": "nonpayable",
      "type": "function"
    },
    {
      "inputs": [],
      "name": "addWhiteList",
      "outputs": [],
      "stateMutability": "nonpayable",
      "type": "function"
    },
    {
      "inputs": [],
      "name": "adminWithdraw",
      "outputs": [
        {
          "internalType": "bool",
          "name": "",
          "type": "bool"
        }
      ],
      "stateMutability": "view",
      "type": "function"
    },
    {
      "inputs": [
        {
          "internalType": "address",
          "name": "_account",
          "type": "address"
        },
        {
          "internalType": "uint256",
          "name": "_round",
          "type": "uint256"
        }
      ],
      "name": "calculClaimAmount",
      "outputs": [
        {
          "internalType": "uint256",
          "name": "_reward",
          "type": "uint256"
        },
        {
          "internalType": "uint256",
          "name": "_totalClaim",
          "type": "uint256"
        },
        {
          "internalType": "uint256",
          "name": "_refundAmount",
          "type": "uint256"
        }
      ],
      "stateMutability": "view",
      "type": "function"
    },
    {
      "inputs": [
        {
          "internalType": "address",
          "name": "_account",
          "type": "address"
        },
        {
          "internalType": "uint256",
          "name": "_amount",
          "type": "uint256"
        }
      ],
      "name": "calculOpenSaleAmount",
      "outputs": [
        {
          "internalType": "uint256",
          "name": "",
          "type": "uint256"
        }
      ],
      "stateMutability": "view",
      "type": "function"
    },
    {
      "inputs": [
        {
          "internalType": "uint256",
          "name": "_amount",
          "type": "uint256"
        }
      ],
      "name": "calculPayToken",
      "outputs": [
        {
          "internalType": "uint256",
          "name": "",
          "type": "uint256"
        }
      ],
      "stateMutability": "view",
      "type": "function"
    },
    {
      "inputs": [
        {
          "internalType": "uint256",
          "name": "_amount",
          "type": "uint256"
        }
      ],
      "name": "calculSaleToken",
      "outputs": [
        {
          "internalType": "uint256",
          "name": "",
          "type": "uint256"
        }
      ],
      "stateMutability": "view",
      "type": "function"
    },
    {
      "inputs": [
        {
          "internalType": "address",
          "name": "_address",
          "type": "address"
        }
      ],
      "name": "calculTier",
      "outputs": [
        {
          "internalType": "uint256",
          "name": "",
          "type": "uint256"
        }
      ],
      "stateMutability": "view",
      "type": "function"
    },
    {
      "inputs": [
        {
          "internalType": "address",
          "name": "_address",
          "type": "address"
        }
      ],
      "name": "calculTierAmount",
      "outputs": [
        {
          "internalType": "uint256",
          "name": "",
          "type": "uint256"
        }
      ],
      "stateMutability": "view",
      "type": "function"
    },
    {
      "inputs": [
        {
          "internalType": "address",
          "name": "_address",
          "type": "address"
        }
      ],
      "name": "changeTONOwner",
      "outputs": [],
      "stateMutability": "nonpayable",
      "type": "function"
    },
    {
      "inputs": [],
      "name": "changeTOS",
      "outputs": [
        {
          "internalType": "uint256",
          "name": "",
          "type": "uint256"
        }
      ],
      "stateMutability": "view",
      "type": "function"
    },
    {
      "inputs": [],
      "name": "claim",
      "outputs": [],
      "stateMutability": "nonpayable",
      "type": "function"
    },
    {
      "inputs": [],
      "name": "claimFirst",
      "outputs": [
        {
          "internalType": "uint256",
          "name": "",
          "type": "uint256"
        }
      ],
      "stateMutability": "view",
      "type": "function"
    },
    {
      "inputs": [],
      "name": "claimInterval",
      "outputs": [
        {
          "internalType": "uint256",
          "name": "",
          "type": "uint256"
        }
      ],
      "stateMutability": "view",
      "type": "function"
    },
    {
      "inputs": [
        {
          "internalType": "uint256",
          "name": "",
          "type": "uint256"
        }
      ],
      "name": "claimPercents",
      "outputs": [
        {
          "internalType": "uint256",
          "name": "",
          "type": "uint256"
        }
      ],
      "stateMutability": "view",
      "type": "function"
    },
    {
      "inputs": [],
      "name": "claimPeriod",
      "outputs": [
        {
          "internalType": "uint256",
          "name": "",
          "type": "uint256"
        }
      ],
      "stateMutability": "view",
      "type": "function"
    },
    {
      "inputs": [
        {
          "internalType": "uint256",
          "name": "",
          "type": "uint256"
        }
      ],
      "name": "claimTimes",
      "outputs": [
        {
          "internalType": "uint256",
          "name": "",
          "type": "uint256"
        }
      ],
      "stateMutability": "view",
      "type": "function"
    },
    {
      "inputs": [],
      "name": "currentRound",
      "outputs": [
        {
          "internalType": "uint256",
          "name": "round",
          "type": "uint256"
        }
      ],
      "stateMutability": "view",
      "type": "function"
    },
    {
      "inputs": [],
      "name": "delayTime",
      "outputs": [
        {
          "internalType": "uint256",
          "name": "",
          "type": "uint256"
        }
      ],
      "stateMutability": "view",
      "type": "function"
    },
    {
      "inputs": [],
      "name": "deployTime",
      "outputs": [
        {
          "internalType": "uint256",
          "name": "",
          "type": "uint256"
        }
      ],
      "stateMutability": "view",
      "type": "function"
    },
    {
      "inputs": [
        {
          "internalType": "address",
          "name": "_sender",
          "type": "address"
        },
        {
          "internalType": "uint256",
          "name": "_amount",
          "type": "uint256"
        }
      ],
      "name": "deposit",
      "outputs": [],
      "stateMutability": "nonpayable",
      "type": "function"
    },
    {
      "inputs": [],
      "name": "depositWithdraw",
      "outputs": [],
      "stateMutability": "nonpayable",
      "type": "function"
    },
    {
      "inputs": [
        {
          "internalType": "uint256",
          "name": "",
          "type": "uint256"
        }
      ],
      "name": "depositors",
      "outputs": [
        {
          "internalType": "address",
          "name": "",
          "type": "address"
        }
      ],
      "stateMutability": "view",
      "type": "function"
    },
    {
      "inputs": [
        {
          "internalType": "uint256",
          "name": "_round",
          "type": "uint256"
        }
      ],
      "name": "distributionByRound",
      "outputs": [
        {
          "internalType": "uint256",
          "name": "",
          "type": "uint256"
        }
      ],
      "stateMutability": "view",
      "type": "function"
    },
    {
      "inputs": [
        {
          "internalType": "uint256",
          "name": "startRound",
          "type": "uint256"
        },
        {
          "internalType": "uint256",
          "name": "endRound",
          "type": "uint256"
        }
      ],
      "name": "distributionByRounds",
      "outputs": [
        {
          "internalType": "uint256[]",
          "name": "",
          "type": "uint256[]"
        }
      ],
      "stateMutability": "view",
      "type": "function"
    },
    {
      "inputs": [],
      "name": "endAddWhiteTime",
      "outputs": [
        {
          "internalType": "uint256",
          "name": "",
          "type": "uint256"
        }
      ],
      "stateMutability": "view",
      "type": "function"
    },
    {
      "inputs": [],
      "name": "endDepositTime",
      "outputs": [
        {
          "internalType": "uint256",
          "name": "",
          "type": "uint256"
        }
      ],
      "stateMutability": "view",
      "type": "function"
    },
    {
      "inputs": [],
      "name": "endExclusiveTime",
      "outputs": [
        {
          "internalType": "uint256",
          "name": "",
          "type": "uint256"
        }
      ],
      "stateMutability": "view",
      "type": "function"
    },
    {
      "inputs": [
        {
          "internalType": "address",
          "name": "_sender",
          "type": "address"
        },
        {
          "internalType": "uint256",
          "name": "_amount",
          "type": "uint256"
        }
      ],
      "name": "exclusiveSale",
      "outputs": [],
      "stateMutability": "nonpayable",
      "type": "function"
    },
    {
      "inputs": [
        {
          "internalType": "bytes32",
          "name": "role",
          "type": "bytes32"
        }
      ],
      "name": "getRoleAdmin",
      "outputs": [
        {
          "internalType": "bytes32",
          "name": "",
          "type": "bytes32"
        }
      ],
      "stateMutability": "view",
      "type": "function"
    },
    {
      "inputs": [
        {
          "internalType": "bytes32",
          "name": "role",
          "type": "bytes32"
        },
        {
          "internalType": "uint256",
          "name": "index",
          "type": "uint256"
        }
      ],
      "name": "getRoleMember",
      "outputs": [
        {
          "internalType": "address",
          "name": "",
          "type": "address"
        }
      ],
      "stateMutability": "view",
      "type": "function"
    },
    {
      "inputs": [
        {
          "internalType": "bytes32",
          "name": "role",
          "type": "bytes32"
        }
      ],
      "name": "getRoleMemberCount",
      "outputs": [
        {
          "internalType": "uint256",
          "name": "",
          "type": "uint256"
        }
      ],
      "stateMutability": "view",
      "type": "function"
    },
    {
      "inputs": [],
      "name": "getToken",
      "outputs": [
        {
          "internalType": "address",
          "name": "",
          "type": "address"
        }
      ],
      "stateMutability": "view",
      "type": "function"
    },
    {
      "inputs": [],
      "name": "getTokenOwner",
      "outputs": [
        {
          "internalType": "address",
          "name": "",
          "type": "address"
        }
      ],
      "stateMutability": "view",
      "type": "function"
    },
    {
      "inputs": [
        {
          "internalType": "bytes32",
          "name": "role",
          "type": "bytes32"
        },
        {
          "internalType": "address",
          "name": "account",
          "type": "address"
        }
      ],
      "name": "grantRole",
      "outputs": [],
      "stateMutability": "nonpayable",
      "type": "function"
    },
    {
      "inputs": [],
      "name": "hardCap",
      "outputs": [
        {
          "internalType": "uint256",
          "name": "",
          "type": "uint256"
        }
      ],
      "stateMutability": "view",
      "type": "function"
    },
    {
      "inputs": [],
      "name": "hardcapCalcul",
      "outputs": [
        {
          "internalType": "uint256",
          "name": "",
          "type": "uint256"
        }
      ],
      "stateMutability": "view",
      "type": "function"
    },
    {
      "inputs": [
        {
          "internalType": "bytes32",
          "name": "role",
          "type": "bytes32"
        },
        {
          "internalType": "address",
          "name": "account",
          "type": "address"
        }
      ],
      "name": "hasRole",
      "outputs": [
        {
          "internalType": "bool",
          "name": "",
          "type": "bool"
        }
      ],
      "stateMutability": "view",
      "type": "function"
    },
    {
      "inputs": [
        {
          "internalType": "address",
          "name": "account",
          "type": "address"
        }
      ],
      "name": "isAdmin",
      "outputs": [
        {
          "internalType": "bool",
          "name": "",
          "type": "bool"
        }
      ],
      "stateMutability": "view",
      "type": "function"
    },
    {
      "inputs": [
        {
          "internalType": "address",
          "name": "account",
          "type": "address"
        }
      ],
      "name": "isProxyAdmin",
      "outputs": [
        {
          "internalType": "bool",
          "name": "",
          "type": "bool"
        }
      ],
      "stateMutability": "view",
      "type": "function"
    },
    {
      "inputs": [],
      "name": "liquidityVaultAddress",
      "outputs": [
        {
          "internalType": "address",
          "name": "",
          "type": "address"
        }
      ],
      "stateMutability": "view",
      "type": "function"
    },
    {
      "inputs": [],
      "name": "maxPer",
      "outputs": [
        {
          "internalType": "uint256",
          "name": "",
          "type": "uint256"
        }
      ],
      "stateMutability": "view",
      "type": "function"
    },
    {
      "inputs": [],
      "name": "minPer",
      "outputs": [
        {
          "internalType": "uint256",
          "name": "",
          "type": "uint256"
        }
      ],
      "stateMutability": "view",
      "type": "function"
    },
    {
      "inputs": [
        {
          "internalType": "address",
          "name": "user",
          "type": "address"
        }
      ],
      "name": "openSaleUserAmount",
      "outputs": [
        {
          "internalType": "uint256",
          "name": "_realPayAmount",
          "type": "uint256"
        },
        {
          "internalType": "uint256",
          "name": "_realSaleAmount",
          "type": "uint256"
        },
        {
          "internalType": "uint256",
          "name": "_refundAmount",
          "type": "uint256"
        }
      ],
      "stateMutability": "view",
      "type": "function"
    },
    {
      "inputs": [],
      "name": "pauseProxy",
      "outputs": [
        {
          "internalType": "bool",
          "name": "",
          "type": "bool"
        }
      ],
      "stateMutability": "view",
      "type": "function"
    },
    {
      "inputs": [],
      "name": "payTokenPrice",
      "outputs": [
        {
          "internalType": "uint256",
          "name": "",
          "type": "uint256"
        }
      ],
      "stateMutability": "view",
      "type": "function"
    },
    {
      "inputs": [],
      "name": "poolFee",
      "outputs": [
        {
          "internalType": "uint24",
          "name": "",
          "type": "uint24"
        }
      ],
      "stateMutability": "view",
      "type": "function"
    },
    {
      "inputs": [],
      "name": "removeAdmin",
      "outputs": [],
      "stateMutability": "nonpayable",
      "type": "function"
    },
    {
      "inputs": [],
      "name": "removeProxyAdmin",
      "outputs": [],
      "stateMutability": "nonpayable",
      "type": "function"
    },
    {
      "inputs": [
        {
          "internalType": "bytes32",
          "name": "role",
          "type": "bytes32"
        },
        {
          "internalType": "address",
          "name": "account",
          "type": "address"
        }
      ],
      "name": "renounceRole",
      "outputs": [],
      "stateMutability": "nonpayable",
      "type": "function"
    },
    {
      "inputs": [
        {
          "internalType": "bytes32",
          "name": "role",
          "type": "bytes32"
        },
        {
          "internalType": "address",
          "name": "account",
          "type": "address"
        }
      ],
      "name": "revokeRole",
      "outputs": [],
      "stateMutability": "nonpayable",
      "type": "function"
    },
    {
      "inputs": [],
      "name": "sTOS",
      "outputs": [
        {
          "internalType": "contract ILockTOS",
          "name": "",
          "type": "address"
        }
      ],
      "stateMutability": "view",
      "type": "function"
    },
    {
      "inputs": [],
      "name": "saleToken",
      "outputs": [
        {
          "internalType": "contract IERC20",
          "name": "",
          "type": "address"
        }
      ],
      "stateMutability": "view",
      "type": "function"
    },
    {
      "inputs": [],
      "name": "saleTokenPrice",
      "outputs": [
        {
          "internalType": "uint256",
          "name": "",
          "type": "uint256"
        }
      ],
      "stateMutability": "view",
      "type": "function"
    },
    {
      "inputs": [
        {
          "internalType": "uint256[2]",
          "name": "_expectAmount",
          "type": "uint256[2]"
        },
        {
          "internalType": "uint256[2]",
          "name": "_priceAmount",
          "type": "uint256[2]"
        }
      ],
      "name": "setAllAmount",
      "outputs": [],
      "stateMutability": "nonpayable",
      "type": "function"
    },
    {
      "inputs": [
        {
          "internalType": "uint256[4]",
          "name": "_tier",
          "type": "uint256[4]"
        },
        {
          "internalType": "uint256[4]",
          "name": "_tierPercent",
          "type": "uint256[4]"
        }
      ],
      "name": "setAllTier",
      "outputs": [],
      "stateMutability": "nonpayable",
      "type": "function"
    },
    {
      "inputs": [
        {
          "internalType": "uint256[8]",
          "name": "_Tier",
          "type": "uint256[8]"
        },
        {
          "internalType": "uint256[6]",
          "name": "_amount",
          "type": "uint256[6]"
        },
        {
          "internalType": "uint256[8]",
          "name": "_time",
          "type": "uint256[8]"
        },
        {
          "internalType": "uint256[]",
          "name": "_claimTimes",
          "type": "uint256[]"
        },
        {
          "internalType": "uint256[]",
          "name": "_claimPercents",
          "type": "uint256[]"
        }
      ],
      "name": "setAllsetting",
      "outputs": [],
      "stateMutability": "nonpayable",
      "type": "function"
    },
    {
      "inputs": [
        {
          "internalType": "uint256",
          "name": "_claimCounts",
          "type": "uint256"
        },
        {
          "internalType": "uint256[]",
          "name": "_claimTimes",
          "type": "uint256[]"
        },
        {
          "internalType": "uint256[]",
          "name": "_claimPercents",
          "type": "uint256[]"
        }
      ],
      "name": "setEachClaim",
      "outputs": [],
      "stateMutability": "nonpayable",
      "type": "function"
    },
    {
      "inputs": [
        {
          "internalType": "uint256",
          "name": "_startAddWhiteTime",
          "type": "uint256"
        },
        {
          "internalType": "uint256",
          "name": "_endAddWhiteTime",
          "type": "uint256"
        },
        {
          "internalType": "uint256",
          "name": "_startExclusiveTime",
          "type": "uint256"
        },
        {
          "internalType": "uint256",
          "name": "_endExclusiveTime",
          "type": "uint256"
        }
      ],
      "name": "setExclusiveTime",
      "outputs": [],
      "stateMutability": "nonpayable",
      "type": "function"
    },
    {
      "inputs": [
        {
          "internalType": "uint256",
          "name": "_hardcapAmount",
          "type": "uint256"
        },
        {
          "internalType": "uint256",
          "name": "_changePercent",
          "type": "uint256"
        }
      ],
      "name": "setHardcap",
      "outputs": [],
      "stateMutability": "nonpayable",
      "type": "function"
    },
    {
      "inputs": [
        {
          "internalType": "uint256",
          "name": "_startDepositTime",
          "type": "uint256"
        },
        {
          "internalType": "uint256",
          "name": "_endDepositTime",
          "type": "uint256"
        }
      ],
      "name": "setOpenTime",
      "outputs": [],
      "stateMutability": "nonpayable",
      "type": "function"
    },
    {
      "inputs": [
        {
          "internalType": "uint256",
          "name": "_totalExpectSaleAmount",
          "type": "uint256"
        },
        {
          "internalType": "uint256",
          "name": "_totalExpectOpenSaleAmount",
          "type": "uint256"
        }
      ],
      "name": "setSaleAmount",
      "outputs": [],
      "stateMutability": "nonpayable",
      "type": "function"
    },
    {
      "inputs": [
        {
          "internalType": "uint256",
          "name": "_snapshot",
          "type": "uint256"
        }
      ],
      "name": "setSnapshot",
      "outputs": [],
      "stateMutability": "nonpayable",
      "type": "function"
    },
    {
      "inputs": [
        {
          "internalType": "uint256",
          "name": "_tier1",
          "type": "uint256"
        },
        {
          "internalType": "uint256",
          "name": "_tier2",
          "type": "uint256"
        },
        {
          "internalType": "uint256",
          "name": "_tier3",
          "type": "uint256"
        },
        {
          "internalType": "uint256",
          "name": "_tier4",
          "type": "uint256"
        }
      ],
      "name": "setTier",
      "outputs": [],
      "stateMutability": "nonpayable",
      "type": "function"
    },
    {
      "inputs": [
        {
          "internalType": "uint256",
          "name": "_tier1",
          "type": "uint256"
        },
        {
          "internalType": "uint256",
          "name": "_tier2",
          "type": "uint256"
        },
        {
          "internalType": "uint256",
          "name": "_tier3",
          "type": "uint256"
        },
        {
          "internalType": "uint256",
          "name": "_tier4",
          "type": "uint256"
        }
      ],
      "name": "setTierPercents",
      "outputs": [],
      "stateMutability": "nonpayable",
      "type": "function"
    },
    {
      "inputs": [
        {
          "internalType": "uint256",
          "name": "_saleTokenPrice",
          "type": "uint256"
        },
        {
          "internalType": "uint256",
          "name": "_payTokenPrice",
          "type": "uint256"
        }
      ],
      "name": "setTokenPrice",
      "outputs": [],
      "stateMutability": "nonpayable",
      "type": "function"
    },
    {
      "inputs": [],
      "name": "snapshot",
      "outputs": [
        {
          "internalType": "uint256",
          "name": "",
          "type": "uint256"
        }
      ],
      "stateMutability": "view",
      "type": "function"
    },
    {
      "inputs": [],
      "name": "stanTier1",
      "outputs": [
        {
          "internalType": "uint256",
          "name": "",
          "type": "uint256"
        }
      ],
      "stateMutability": "view",
      "type": "function"
    },
    {
      "inputs": [],
      "name": "stanTier2",
      "outputs": [
        {
          "internalType": "uint256",
          "name": "",
          "type": "uint256"
        }
      ],
      "stateMutability": "view",
      "type": "function"
    },
    {
      "inputs": [],
      "name": "stanTier3",
      "outputs": [
        {
          "internalType": "uint256",
          "name": "",
          "type": "uint256"
        }
      ],
      "stateMutability": "view",
      "type": "function"
    },
    {
      "inputs": [],
      "name": "stanTier4",
      "outputs": [
        {
          "internalType": "uint256",
          "name": "",
          "type": "uint256"
        }
      ],
      "stateMutability": "view",
      "type": "function"
    },
    {
      "inputs": [],
      "name": "startAddWhiteTime",
      "outputs": [
        {
          "internalType": "uint256",
          "name": "",
          "type": "uint256"
        }
      ],
      "stateMutability": "view",
      "type": "function"
    },
    {
      "inputs": [],
      "name": "startClaimTime",
      "outputs": [
        {
          "internalType": "uint256",
          "name": "",
          "type": "uint256"
        }
      ],
      "stateMutability": "view",
      "type": "function"
    },
    {
      "inputs": [],
      "name": "startDepositTime",
      "outputs": [
        {
          "internalType": "uint256",
          "name": "",
          "type": "uint256"
        }
      ],
      "stateMutability": "view",
      "type": "function"
    },
    {
      "inputs": [],
      "name": "startExclusiveTime",
      "outputs": [
        {
          "internalType": "uint256",
          "name": "",
          "type": "uint256"
        }
      ],
      "stateMutability": "view",
      "type": "function"
    },
    {
      "inputs": [
        {
          "internalType": "uint256",
          "name": "",
          "type": "uint256"
        }
      ],
      "name": "tiers",
      "outputs": [
        {
          "internalType": "uint256",
          "name": "",
          "type": "uint256"
        }
      ],
      "stateMutability": "view",
      "type": "function"
    },
    {
      "inputs": [
        {
          "internalType": "uint256",
          "name": "",
          "type": "uint256"
        }
      ],
      "name": "tiersAccount",
      "outputs": [
        {
          "internalType": "uint256",
          "name": "",
          "type": "uint256"
        }
      ],
      "stateMutability": "view",
      "type": "function"
    },
    {
      "inputs": [
        {
          "internalType": "uint256",
          "name": "",
          "type": "uint256"
        }
      ],
      "name": "tiersExAccount",
      "outputs": [
        {
          "internalType": "uint256",
          "name": "",
          "type": "uint256"
        }
      ],
      "stateMutability": "view",
      "type": "function"
    },
    {
      "inputs": [
        {
          "internalType": "uint256",
          "name": "",
          "type": "uint256"
        }
      ],
      "name": "tiersPercents",
      "outputs": [
        {
          "internalType": "uint256",
          "name": "",
          "type": "uint256"
        }
      ],
      "stateMutability": "view",
      "type": "function"
    },
    {
      "inputs": [],
      "name": "tos",
      "outputs": [
        {
          "internalType": "contract IERC20",
          "name": "",
          "type": "address"
        }
      ],
      "stateMutability": "view",
      "type": "function"
    },
    {
      "inputs": [],
      "name": "totalClaimCounts",
      "outputs": [
        {
          "internalType": "uint256",
          "name": "",
          "type": "uint256"
        }
      ],
      "stateMutability": "view",
      "type": "function"
    },
    {
      "inputs": [],
      "name": "totalDepositAmount",
      "outputs": [
        {
          "internalType": "uint256",
          "name": "",
          "type": "uint256"
        }
      ],
      "stateMutability": "view",
      "type": "function"
    },
    {
      "inputs": [],
      "name": "totalExPurchasedAmount",
      "outputs": [
        {
          "internalType": "uint256",
          "name": "",
          "type": "uint256"
        }
      ],
      "stateMutability": "view",
      "type": "function"
    },
    {
      "inputs": [],
      "name": "totalExSaleAmount",
      "outputs": [
        {
          "internalType": "uint256",
          "name": "",
          "type": "uint256"
        }
      ],
      "stateMutability": "view",
      "type": "function"
    },
    {
      "inputs": [],
      "name": "totalExpectOpenSaleAmount",
      "outputs": [
        {
          "internalType": "uint256",
          "name": "",
          "type": "uint256"
        }
      ],
      "stateMutability": "view",
      "type": "function"
    },
    {
      "inputs": [],
      "name": "totalExpectOpenSaleAmountView",
      "outputs": [
        {
          "internalType": "uint256",
          "name": "",
          "type": "uint256"
        }
      ],
      "stateMutability": "view",
      "type": "function"
    },
    {
      "inputs": [],
      "name": "totalExpectSaleAmount",
      "outputs": [
        {
          "internalType": "uint256",
          "name": "",
          "type": "uint256"
        }
      ],
      "stateMutability": "view",
      "type": "function"
    },
    {
      "inputs": [],
      "name": "totalOpenPurchasedAmount",
      "outputs": [
        {
          "internalType": "uint256",
          "name": "",
          "type": "uint256"
        }
      ],
      "stateMutability": "view",
      "type": "function"
    },
    {
      "inputs": [],
      "name": "totalOpenSaleAmount",
      "outputs": [
        {
          "internalType": "uint256",
          "name": "",
          "type": "uint256"
        }
      ],
      "stateMutability": "view",
      "type": "function"
    },
    {
      "inputs": [],
      "name": "totalRound1NonSaleAmount",
      "outputs": [
        {
          "internalType": "uint256",
          "name": "",
          "type": "uint256"
        }
      ],
      "stateMutability": "view",
      "type": "function"
    },
    {
      "inputs": [],
      "name": "totalRound1Users",
      "outputs": [
        {
          "internalType": "uint256",
          "name": "",
          "type": "uint256"
        }
      ],
      "stateMutability": "view",
      "type": "function"
    },
    {
      "inputs": [],
      "name": "totalRound2Users",
      "outputs": [
        {
          "internalType": "uint256",
          "name": "",
          "type": "uint256"
        }
      ],
      "stateMutability": "view",
      "type": "function"
    },
    {
      "inputs": [],
      "name": "totalRound2UsersClaim",
      "outputs": [
        {
          "internalType": "uint256",
          "name": "",
          "type": "uint256"
        }
      ],
      "stateMutability": "view",
      "type": "function"
    },
    {
      "inputs": [
        {
          "internalType": "address",
          "name": "user",
          "type": "address"
        }
      ],
      "name": "totalSaleUserAmount",
      "outputs": [
        {
          "internalType": "uint256",
          "name": "_realPayAmount",
          "type": "uint256"
        },
        {
          "internalType": "uint256",
          "name": "_realSaleAmount",
          "type": "uint256"
        },
        {
          "internalType": "uint256",
          "name": "_refundAmount",
          "type": "uint256"
        }
      ],
      "stateMutability": "view",
      "type": "function"
    },
    {
      "inputs": [],
      "name": "totalUsers",
      "outputs": [
        {
          "internalType": "uint256",
          "name": "",
          "type": "uint256"
        }
      ],
      "stateMutability": "view",
      "type": "function"
    },
    {
      "inputs": [],
      "name": "totalWhitelists",
      "outputs": [
        {
          "internalType": "uint256",
          "name": "",
          "type": "uint256"
        }
      ],
      "stateMutability": "view",
      "type": "function"
    },
    {
      "inputs": [
        {
          "internalType": "address",
          "name": "newAdmin",
          "type": "address"
        }
      ],
      "name": "transferAdmin",
      "outputs": [],
      "stateMutability": "nonpayable",
      "type": "function"
    },
    {
      "inputs": [
        {
          "internalType": "address",
          "name": "newAdmin",
          "type": "address"
        }
      ],
      "name": "transferProxyAdmin",
      "outputs": [],
      "stateMutability": "nonpayable",
      "type": "function"
    },
    {
      "inputs": [],
      "name": "uniswapRouter",
      "outputs": [
        {
          "internalType": "contract ISwapRouter",
          "name": "",
          "type": "address"
        }
      ],
      "stateMutability": "view",
      "type": "function"
    },
    {
      "inputs": [
        {
          "internalType": "address",
          "name": "",
          "type": "address"
        }
      ],
      "name": "usersClaim",
      "outputs": [
        {
          "internalType": "bool",
          "name": "exec",
          "type": "bool"
        },
        {
          "internalType": "uint256",
          "name": "claimAmount",
          "type": "uint256"
        },
        {
          "internalType": "uint256",
          "name": "refundAmount",
          "type": "uint256"
        }
      ],
      "stateMutability": "view",
      "type": "function"
    },
    {
      "inputs": [
        {
          "internalType": "address",
          "name": "",
          "type": "address"
        }
      ],
      "name": "usersEx",
      "outputs": [
        {
          "internalType": "bool",
          "name": "join",
          "type": "bool"
        },
        {
          "internalType": "uint256",
          "name": "tier",
          "type": "uint256"
        },
        {
          "internalType": "uint256",
          "name": "payAmount",
          "type": "uint256"
        },
        {
          "internalType": "uint256",
          "name": "saleAmount",
          "type": "uint256"
        }
      ],
      "stateMutability": "view",
      "type": "function"
    },
    {
      "inputs": [
        {
          "internalType": "address",
          "name": "",
          "type": "address"
        }
      ],
      "name": "usersOpen",
      "outputs": [
        {
          "internalType": "bool",
          "name": "join",
          "type": "bool"
        },
        {
          "internalType": "uint256",
          "name": "depositAmount",
          "type": "uint256"
        },
        {
          "internalType": "uint256",
          "name": "payAmount",
          "type": "uint256"
        }
      ],
      "stateMutability": "view",
      "type": "function"
    },
    {
      "inputs": [
        {
          "internalType": "uint256",
          "name": "",
          "type": "uint256"
        }
      ],
      "name": "whitelists",
      "outputs": [
        {
          "internalType": "address",
          "name": "",
          "type": "address"
        }
      ],
      "stateMutability": "view",
      "type": "function"
    },
    {
      "inputs": [],
      "name": "wton",
      "outputs": [
        {
          "internalType": "address",
          "name": "",
          "type": "address"
        }
      ],
      "stateMutability": "view",
      "type": "function"
    }
  ],
  "bytecode": "0x608060405260006001556000600455600060055560006006556000600755600060085560006009556000600a556000600b556000600c556000600d556000600e556000600f55600060105534801561005657600080fd5b50600160375561592c806200006c6000396000f3fe608060405234801561001057600080fd5b50600436106105e05760003560e01c806389f395de11610307578063bfc630b11161019e578063e985e367116100ef578063f3e16d481161009d578063f3e16d4814610ba1578063f47f2f1d14610bb4578063fb86a40414610bc7578063fbd9070f14610bcf578063fe404c9614610bd7578063fe4d5add14610bea578063ff6dac7614610bfd576105e0565b8063e985e36714610b48578063eaff056d14610b50578063eb685c4714610b58578063eb8445f814610b6b578063ed5131f514610b73578063f0fbf32d14610b86578063f18d20be14610b99576105e0565b8063d21eb9081161014c578063d21eb90814610ae4578063d539139314610af7578063d547741f14610aff578063dc560fcd14610b12578063e016bac414610b1a578063e30821c614610b22578063e4b2fb7914610b35576105e0565b8063bfc630b114610a7b578063bfc93b0c14610a83578063bff1f9e114610a96578063c3e5763514610a9e578063c5408d5014610aa6578063ca15c87314610aae578063cae9ce1b14610ac1576105e0565b80639f87b77f11610258578063aa5bbf5511610206578063aa5bbf5514610a0a578063ae6fa04514610a1d578063b569176714610a30578063b7182b9514610a43578063b960ca0414610a4b578063be72f2d314610a53578063bf235a1514610a5b576105e0565b80639f87b77f146109c7578063a055e625146109cf578063a1b89b70146109d7578063a217fddf146109df578063a389595f146109e7578063a38ffdea146109ef578063a55abb1714610a02576105e0565b806394f641d5116102b557806394f641d514610979578063952526921461098157806396f1557c146109895780639711715a1461099c57806398d97da4146109a45780639a202d47146109b75780639d18fde7146109bf576105e0565b806389f395de146109205780638a19c8bc146109285780638d62d949146109305780638f68711a146109385780639010d07c1461094b578063907784231461095e57806391d1485414610966576105e0565b806351d28a7e1161047b57806370480275116103cc5780637a40624b1161037a5780637a40624b146108d25780637dc2cd98146108da5780637e2eee53146108e25780637ecd5c70146108ea5780638181e847146108fd57806381a9f6d7146109055780638356ca4f1461090d576105e0565b8063704802751461087957806370e5410a1461088c578063735de9f71461089457806375829def1461089c57806375b238fc146108af5780637676ee32146108b7578063768b821f146108ca576105e0565b806366ce72711161042957806366ce72711461080a57806367b399a51461081257806369048005146108255780636bbe48af146108385780636c2308391461084b5780636e0e0da21461085e5780636e59abbb14610866576105e0565b806351d28a7e146107a257806351ebde6d146107aa578063590088bc146107b25780635f1af712146107d457806360a2a25c146107e757806361a33427146107fa57806363a8fd8914610802576105e0565b806328e50f4b1161053557806341c04d5e116104e357806341c04d5e1461072f57806341c0cb771461073757806347e7ef2414610759578063494600ea1461076c5780634dd199211461077f5780634de389c4146107875780634e71d92d1461079a576105e0565b806328e50f4b146106d65780632cbf3188146106de5780632dcdbfd3146106e65780632f2ff15d146106f957806336568abe1461070c57806337bf07191461071f5780633ef541b514610727576105e0565b8063218183a311610592578063218183a31461066357806321df0da714610676578063226bf1a41461068b578063248a9ca31461069357806324d7806c146106a6578063256019d6146106c6578063282c51f3146106ce576105e0565b8063039af9eb146105e5578063089fe6aa1461060e5780630a888550146106235780630b433a12146106385780631a1197e7146106405780631bfc751e146106535780631c53f2561461065b575b600080fd5b6105f86105f3366004614b3f565b610c10565b6040516106059190614dba565b60405180910390f35b610616610c22565b60405161060591906156bd565b610636610631366004614cbe565b610c28565b005b6105f8610d8e565b6105f861064e3660046149d0565b610d94565b6105f8610e83565b6105f8610e89565b610636610671366004614cbe565b610e8f565b61067e611073565b6040516106059190614cef565b6105f8611082565b6105f86106a1366004614b3f565b611088565b6106b96106b43660046149d0565b61109d565b6040516106059190614d7a565b6105f86110bd565b6105f86110c3565b6105f86110e7565b6105f8611116565b6106366106f4366004614cbe565b61114b565b610636610707366004614b57565b6112b1565b61063661071a366004614b57565b611318565b61067e611379565b6105f8611388565b6105f861138e565b61074a6107453660046149d0565b6113a0565b60405161060593929190614d85565b6106366107673660046149ea565b6113c5565b6105f861077a3660046149ea565b611546565b61067e6115a7565b610636610795366004614b79565b6115b6565b6106366116b0565b6105f8611a32565b6105f8611a38565b6107c56107c03660046149d0565b611a3e565b604051610605939291906156db565b6107c56107e23660046149ea565b611ac7565b6105f86107f5366004614b3f565b611c5b565b6105f8611c80565b6106b9611c86565b6105f8611c8f565b6105f8610820366004614b3f565b611c95565b6105f8610833366004614b3f565b611ca7565b6105f8610846366004614b3f565b611cb9565b610636610859366004614b3f565b611cc3565b610636611d76565b610636610874366004614a13565b61227a565b6106366108873660046149d0565b6122f3565b6105f8612352565b61067e612394565b6106366108aa3660046149d0565b6123a3565b6105f86124d3565b6106366108c5366004614a47565b6124f7565b6105f86125dd565b6105f86125e3565b6105f86125e9565b6105f86125ef565b6105f86108f83660046149d0565b6125f5565b6106366128ca565b6105f8612a7e565b61063661091b3660046149d0565b612a84565b61067e612b8b565b6105f8612b9a565b61067e612c08565b6105f8610946366004614b3f565b612c17565b61067e610959366004614b79565b612c29565b6105f8612c41565b6106b9610974366004614b57565b612c5a565b6105f8612c72565b6105f8612c78565b6106366109973660046149d0565b612c7e565b6105f8612ccd565b6107c56109b23660046149d0565b612cd3565b610636612d85565b6105f8612df2565b6105f8612df8565b6105f8612dfe565b6105f8612e04565b6105f8612e0a565b6105f8612e0f565b6105f86109fd366004614b3f565b612e15565b6105f8612e33565b6105f8610a18366004614b9a565b612e39565b6105f8610a2b366004614b3f565b612e40565b610636610a3e366004614b79565b612e9d565b61067e612f86565b6105f8612f95565b610636612f9b565b610a6e610a69366004614b79565b612fea565b6040516106059190614d36565b6105f8613177565b610636610a91366004614c47565b61317d565b6105f861331d565b6105f8613323565b6105f8613329565b6105f8610abc366004614b3f565b61332f565b610ad4610acf3660046149d0565b613346565b6040516106059493929190614d9d565b610636610af2366004614a73565b613371565b6105f8613653565b610636610b0d366004614b57565b613677565b6105f86136d0565b6105f86136d6565b610636610b303660046149d0565b6136dc565b61067e610b43366004614b3f565b613751565b61067e61377b565b6105f861378a565b610636610b66366004614b79565b613790565b6105f861386b565b6105f8610b81366004614b3f565b613871565b610636610b943660046149ea565b613892565b6106b9613ab2565b610636610baf366004614b79565b613abb565b6106b9610bc23660046149d0565b613b74565b6105f8613b80565b6105f8613b86565b6105f8610be5366004614b3f565b613c72565b61067e610bf8366004614b3f565b613c82565b61074a610c0b3660046149d0565b613c92565b60326020526000908152604090205481565b610bb881565b610c313361109d565b80610c405750610c4033613b74565b610c7b5760405162461bcd60e51b81526004018080602001828103825260228152602001806157836022913960400191505060405180910390fd5b8360008111610ca55760405162461bcd60e51b8152600401610c9c90615419565b60405180910390fd5b8360008111610cc65760405162461bcd60e51b8152600401610c9c90615419565b8360008111610ce75760405162461bcd60e51b8152600401610c9c90615419565b8360008111610d085760405162461bcd60e51b8152600401610c9c90615419565b6004541580610d2557506000600454118015610d25575060045442105b610d415760405162461bcd60e51b8152600401610c9c9061558d565b8688108015610d4f57508587105b8015610d5a57508486105b610d765760405162461bcd60e51b8152600401610c9c90614e2f565b50505060049490945560059290925560065560075550565b60165481565b6001600160a01b0381166000908152602f6020526040812081610db6846125f5565b825490915060ff1615156001148015610dcf5750600081115b15610e15576000818152603360209081526040808320546035909252822054601254610e0a9261271092610e04928391613cb7565b90613d10565b9350610e7e92505050565b8015610e7757600081815260336020526040812054610e35906001613d52565b90506000610e6b612710610e0484610e046035600089815260200190815260200160002054601254613cb790919063ffffffff16565b9450610e7e9350505050565b6000925050505b919050565b600a5481565b601c5481565b610e983361109d565b80610ea75750610ea733613b74565b610ee25760405162461bcd60e51b81526004018080602001828103825260228152602001806157836022913960400191505060405180910390fd5b8360008111610f035760405162461bcd60e51b8152600401610c9c90615419565b8360008111610f245760405162461bcd60e51b8152600401610c9c90615419565b8360008111610f455760405162461bcd60e51b8152600401610c9c90615419565b8360008111610f665760405162461bcd60e51b8152600401610c9c90615419565b6004541580610f8357506000600454118015610f83575060045442105b610f9f5760405162461bcd60e51b8152600401610c9c9061558d565b610fb585610faf88818c8c613d52565b90613d52565b61271014610fd55760405162461bcd60e51b8152600401610c9c906151a0565b5050603560205250507f8e3caac72b6c5bb0462da38c8c8c3b5fbc00a646bd75367c23c11d594c4e36c9939093557ff45abd214a7998af36d567f4bc75c5d50e868cf767d965b54d3b0f5c6200ab64919091557fe5602d426990c0b7b248ffeae167f30eba43086d790c7aa793e2bf3d0e5939195560046000527f80eb70dc00a20ebf6b218a7aea19e260b164cf97e49b31f047fca6f74f8ff9ad55565b6025546001600160a01b031681565b60155481565b60009081526036602052604090206002015490565b60006110b760008051602061576383398151915283612c5a565b92915050565b602c5481565b7f9667e80708b6eeeb0053fa0cca44e028ff548e2a9f029edfeac87c118b08b7c881565b60006007544210156110fc5750601354611113565b611110611107612c41565b60135490613d52565b90505b90565b600080611124601154612e15565b905060006111306110e7565b90508082101561114257509050611113565b91506111139050565b6111543361109d565b80611163575061116333613b74565b61119e5760405162461bcd60e51b81526004018080602001828103825260228152602001806157836022913960400191505060405180910390fd5b83600081116111bf5760405162461bcd60e51b8152600401610c9c90615419565b83600081116111e05760405162461bcd60e51b8152600401610c9c90615419565b83600081116112015760405162461bcd60e51b8152600401610c9c90615419565b83600081116112225760405162461bcd60e51b8152600401610c9c90615419565b600454158061123f5750600060045411801561123f575060045442105b61125b5760405162461bcd60e51b8152600401610c9c9061558d565b5050603260205250506000805160206157a58339815191529390935560008051602061583d833981519152919091556000805160206157c58339815191525560046000526000805160206158a883398151915255565b6000828152603660205260409020600201546112cf90610974613dac565b61130a5760405162461bcd60e51b815260040180806020018281038252602f815260200180615714602f913960400191505060405180910390fd5b6113148282613db0565b5050565b611320613dac565b6001600160a01b0316816001600160a01b03161461136f5760405162461bcd60e51b815260040180806020018281038252602f8152602001806158c8602f913960400191505060405180910390fd5b6113148282613e19565b6028546001600160a01b031681565b60095481565b60008051602061576383398151915281565b60306020526000908152604090208054600182015460029092015460ff909116919083565b6002603754141561140b576040805162461bcd60e51b815260206004820152601f6024820152600080516020615743833981519152604482015290519081900360640190fd5b60026037556008544210156114325760405162461bcd60e51b8152600401610c9c906154ad565b60095442106114535760405162461bcd60e51b8152600401610c9c90615287565b6001600160a01b0382166000908152603060205260409020805460ff1661150e5760298054600180820183556000929092527fcb7c14ce178f56e2e8d86ab33ebc0ae081ba8556a00cd122038841867181caac0180546001600160a01b0319166001600160a01b038616179055815460ff191681178255600d546114d691613d52565b600d556001600160a01b0383166000908152602f60205260409020600281015461150c57600b54611508906001613d52565b600b555b505b600181015461151d9083613d52565b600182015560115461152f9083613d52565b60115561153c8284613e82565b5050600160375550565b6001600160a01b03821660009081526030602052604081206001810154829061156f9085613d52565b9050600061159d61158b86601154613d5290919063ffffffff16565b610e04846115976110e7565b90613cb7565b9695505050505050565b6021546001600160a01b031681565b6115bf3361109d565b806115ce57506115ce33613b74565b6116095760405162461bcd60e51b81526004018080602001828103825260228152602001806157836022913960400191505060405180910390fd5b816000811161162a5760405162461bcd60e51b8152600401610c9c90615419565b816000811161164b5760405162461bcd60e51b8152600401610c9c90615419565b600454158061166857506000600454118015611668575060045442105b6116845760405162461bcd60e51b8152600401610c9c9061558d565b8284106116a35760405162461bcd60e51b8152600401610c9c90615209565b5050600891909155600955565b602d6000815481106116be57fe5b90600052602060002001544210156116e85760405162461bcd60e51b8152600401610c9c9061507f565b33600090815260306020908152604080832060319092528220909161170b613b86565b90508061178a57815460ff161515600114156117395760405162461bcd60e51b8152600401610c9c906152f5565b336000908152602f602052604081206001850154600282015491929161175e91613d52565b845460ff19166001178555602554909150611783906001600160a01b0316338361431b565b5050611a2d565b600080600061179a336000611ac7565b925092509250600082116117c05760405162461bcd60e51b8152600401610c9c90615101565b600083116117e05760405162461bcd60e51b8152600401610c9c9061532c565b826117f886600101548461436d90919063ffffffff16565b10156118165760405162461bcd60e51b8152600401610c9c90615138565b6026546040516370a0823160e01b815284916001600160a01b0316906370a0823190611846903090600401614cef565b60206040518083038186803b15801561185e57600080fd5b505afa158015611872573d6000803e3d6000fd5b505050506040513d601f19601f820116820180604052508101906118969190614c2f565b10156118b45760405162461bcd60e51b8152600401610c9c90615385565b60018501546118c39084613d52565b60018601556026546118df906001600160a01b0316338561431b565b845460ff161580156118f25750855460ff165b1561191457600e54611905906001613d52565b600e55845460ff191660011785555b60008111801561192657506002850154155b156119e8576025546040516370a0823160e01b81526001600160a01b03909116906370a082319061195b903090600401614cef565b60206040518083038186803b15801561197357600080fd5b505afa158015611987573d6000803e3d6000fd5b505050506040513d601f19601f820116820180604052508101906119ab9190614c2f565b8111156119ca5760405162461bcd60e51b8152600401610c9c90614dc3565b600285018190556025546119e8906001600160a01b0316338361431b565b336001600160a01b03167fd8138f8a3f377c5259ca548e70e4c2de94f129f5a11036a15b69513cba2b426a84604051611a219190614dba565b60405180910390a25050505b505050565b60145481565b601f5481565b6001600160a01b0381166000908152602f6020526040812080548291829160ff1615611aaf576000806000611a7288612cd3565b925092509250611a8f846002015484613d5290919063ffffffff16565b6003850154611a9f908490613d52565b8296509650965050505050611ac0565b611ab885612cd3565b935093509350505b9193909250565b6000806000600a54421015611ae457506000915081905080611c54565b602c54841115611afc57506000915081905080611c54565b6001600160a01b03851660009081526031602052604081209080611b1f88611a3e565b92509250508160001415611b40576000806000955095509550505050611c54565b81836001015410611b5e576000806000955095509550505050611c54565b8615611bae576000611b9f6064610e04602e611b7b8c600161436d565b81548110611b8557fe5b906000526020600020015486613cb790919063ffffffff16565b96509194509250611c54915050565b6000611bb8612b9a565b905080602c54148015611bc9575087155b15611be257506001909201548103945092509050611c54565b6000805b82811015611c3157611c27611c206064610e04602e8581548110611c0657fe5b906000526020600020015489613cb790919063ffffffff16565b8390613d52565b9150600101611be6565b5088611c4e5760019094015490930395509093509150611c549050565b50505050505b9250925092565b600080611c79601554610e0460145486613cb790919063ffffffff16565b9392505050565b600e5481565b60005460ff1681565b60075481565b60336020526000908152604090205481565b60356020526000908152604090205481565b633b9aca00900490565b611ccc3361109d565b80611cdb5750611cdb33613b74565b611d165760405162461bcd60e51b81526004018080602001828103825260228152602001806157836022913960400191505060405180910390fd5b8060008111611d375760405162461bcd60e51b8152600401610c9c90615419565b6004541580611d5457506000600454118015611d54575060045442105b611d705760405162461bcd60e51b8152600401610c9c9061558d565b50600155565b6009544211611d975760405162461bcd60e51b8152600401610c9c90614f88565b6000611da1613b86565b90506000808211611dc45760405162461bcd60e51b8152600401610c9c9061546b565b600e54600d541415611e63576025546040516370a0823160e01b8152611e5c9184916001600160a01b03909116906370a0823190611e06903090600401614cef565b60206040518083038186803b158015611e1e57600080fd5b505afa158015611e32573d6000803e3d6000fd5b505050506040513d601f19601f82011682018060405250810190611e569190614c2f565b9061436d565b9050611e8a565b611e87678ac7230489e80000611e5684611e56611e7e612352565b60105490613d52565b90505b6025546040516370a0823160e01b81526001600160a01b03909116906370a0823190611eba903090600401614cef565b60206040518083038186803b158015611ed257600080fd5b505afa158015611ee6573d6000803e3d6000fd5b505050506040513d601f19601f82011682018060405250810190611f0a9190614c2f565b811115611f295760405162461bcd60e51b8152600401610c9c906152be565b60245460405163e34869d760e01b81526001600160a01b039091169063e34869d790611f59908590600401614dba565b602060405180830381600087803b158015611f7357600080fd5b505af1158015611f87573d6000803e3d6000fd5b505050506040513d601f19601f82011682018060405250810190611fab9190614b1f565b506024546040516370a0823160e01b81526000916001600160a01b0316906370a0823190611fdd903090600401614cef565b60206040518083038186803b158015611ff557600080fd5b505afa158015612009573d6000803e3d6000fd5b505050506040513d601f19601f8201168201806040525081019061202d9190614c2f565b60408051610100810182526024546001600160a01b03908116825260275481166020830152610bb88284015230606083015242608083015260a08201849052600060c0830181905260e0830152602254925163414bf38960e01b8152939450909291169063414bf389906120a5908490600401615654565b602060405180830381600087803b1580156120bf57600080fd5b505af11580156120d3573d6000803e3d6000fd5b505050506040513d601f19601f820116820180604052508101906120f79190614c2f565b50600061211a600f54611e5661210b611116565b601354601254611e5691613d52565b6027546040516370a0823160e01b81529192506000916001600160a01b03909116906370a0823190612150903090600401614cef565b60206040518083038186803b15801561216857600080fd5b505afa15801561217c573d6000803e3d6000fd5b505050506040513d601f19601f820116820180604052508101906121a09190614c2f565b6021546027549192506121c0916001600160a01b0390811691168361431b565b6023546025546121dd916001600160a01b0391821691168761431b565b602654604051630852cd8d60e31b81526001600160a01b03909116906342966c689061220d908590600401614dba565b600060405180830381600087803b15801561222757600080fd5b505af115801561223b573d6000803e3d6000fd5b50505050336001600160a01b03167f27084c94a254e82dc8973b962810cb320efedce3c641c38244a13a32eb8fff088688604051611a219291906156cd565b6122833361109d565b80612292575061229233613b74565b6122cd5760405162461bcd60e51b81526004018080602001828103825260228152602001806157836022913960400191505060405180910390fd5b6122e082358360015b6020020135613abb565b61131481358260015b6020020135613790565b6122fc33613b74565b6123375760405162461bcd60e51b81526004018080602001828103825260288152602001806157e56028913960400191505060405180910390fd5b61234f600080516020615763833981519152826112b1565b50565b600080612360601154612e15565b9050600061236c6110e7565b9050808210156123825760115492505050611113565b61238b81611c5b565b92505050611113565b6022546001600160a01b031681565b6123ac3361109d565b806123bb57506123bb33613b74565b6123f65760405162461bcd60e51b81526004018080602001828103825260228152602001806157836022913960400191505060405180910390fd5b6001600160a01b03811661244c576040805162461bcd60e51b815260206004820152601860248201527741636365737369626c653a207a65726f206164647265737360401b604482015290519081900360640190fd5b336001600160a01b03821614156124a3576040805162461bcd60e51b815260206004820152601660248201527520b1b1b2b9b9b4b136329d1039b0b6b29030b236b4b760511b604482015290519081900360640190fd5b6124bb600080516020615763833981519152826112b1565b61234f60008051602061576383398151915233611318565b7fdf8b4c520ffe197c5343c6f5aec59570151ef9a492f2c624fd45ddde6135ec4281565b6125003361109d565b8061250f575061250f33613b74565b61254a5760405162461bcd60e51b81526004018080602001828103825260228152602001806157836022913960400191505060405180910390fd5b601d548235108015906125635750601e54602083013510155b80156125755750601f54604083013510155b80156125875750602054606083013510155b6125a35760405162461bcd60e51b8152600401610c9c90615443565b6125c08235602084013560408501358560035b602002013561114b565b6113148135602083013560408401358460035b6020020135610e8f565b601e5481565b60025481565b60175481565b60035481565b6028546000906001600160a01b0316806126215760405162461bcd60e51b8152600401610c9c906151d7565b600160005260326020526000805160206157a583398151915254806126585760405162461bcd60e51b8152600401610c9c90615419565b6002600052603260205260008051602061583d833981519152548061268f5760405162461bcd60e51b8152600401610c9c90615419565b600360005260326020526000805160206157c583398151915254806126c65760405162461bcd60e51b8152600401610c9c90615419565b600460005260326020526000805160206158a883398151915254806126fd5760405162461bcd60e51b8152600401610c9c90615419565b60285460015460405163277166bf60e11b81526000926001600160a01b031691634ee2cd7e91612731918c91600401614d1d565b60206040518083038186803b15801561274957600080fd5b505afa15801561275d573d6000803e3d6000fd5b505050506040513d601f19601f820116820180604052508101906127819190614c2f565b6001600090815260326020526000805160206157a5833981519152549192509082108015906127c857506002600052603260205260008051602061583d8339815191525482105b156127d5575060016128be565b6002600052603260205260008051602061583d8339815191525482108015906128165750600360005260326020526000805160206157c58339815191525482105b15612823575060026128be565b600360005260326020526000805160206157c58339815191525482108015906128645750600460005260326020526000805160206158a88339815191525482105b15612871575060036128be565b600460005260326020526000805160206158a8833981519152548210612899575060046128be565b600160005260326020526000805160206157a5833981519152548210156128be575060005b98975050505050505050565b60026037541415612910576040805162461bcd60e51b815260206004820152601f6024820152600080516020615743833981519152604482015290519081900360640190fd5b60026037556004544210156129375760405162461bcd60e51b8152600401610c9c90615607565b60055442106129585760405162461bcd60e51b8152600401610c9c90614f47565b6000612963336125f5565b905060018110156129865760405162461bcd60e51b8152600401610c9c90614df8565b336000908152602f60205260409020805460ff161515600114156129bc5760405162461bcd60e51b8152600401610c9c906154f0565b602a805460018181019092557fbeced09521047d05b8960b7e7bcc1d1292cf3e4b2a6b63f48335cbde5f7545d20180546001600160a01b03191633179055815460ff19168117825581810183905560006003830181905583815260336020526040902054612a2991613d52565b60008381526033602052604090819020919091555133907fffc1b88a1c7ff4b7c84aac62283195eb1a6e771eafe7f68ddc27c7539cb0a10590612a6d908590614dba565b60405180910390a250506001603755565b60085481565b612a8d33613b74565b612ac85760405162461bcd60e51b81526004018080602001828103825260288152602001806157e56028913960400191505060405180910390fd5b6001600160a01b038116612b1e576040805162461bcd60e51b815260206004820152601860248201527741636365737369626c653a207a65726f206164647265737360401b604482015290519081900360640190fd5b336001600160a01b0382161415612b75576040805162461bcd60e51b815260206004820152601660248201527520b1b1b2b9b9b4b136329d1039b0b6b29030b236b4b760511b604482015290519081900360640190fd5b612b806000826112b1565b61234f600033611318565b6027546001600160a01b031681565b6000602d6001602c540381548110612bae57fe5b9060005260206000200154421115612bc95750602c54611113565b60005b602c54811015612c0457602d8181548110612be357fe5b9060005260206000200154421015612bfc579050611113565b600101612bcc565b5090565b6024546001600160a01b031681565b60346020526000908152604090205481565b6000828152603660205260408120611c7990836143af565b6000611110600f5460125461436d90919063ffffffff16565b6000828152603660205260408120611c7990836143bb565b600d5481565b60045481565b612c8733613b74565b612cc25760405162461bcd60e51b81526004018080602001828103825260288152602001806157e56028913960400191505060405180910390fd5b61234f60008261130a565b60015481565b6001600160a01b038116600090815260306020526040812080548291829160ff161580612d0257506001810154155b15612d1857600080600093509350935050611ac0565b6000612d25866000611546565b90506000612d3282611c5b565b600184015490915060008082841015612d6157612d4f838561436d565b9050612d5a84612e15565b9150612d74565b85600101549350612d7183612e15565b91505b929990985091965090945050505050565b612d8e3361109d565b80612d9d5750612d9d33613b74565b612dd85760405162461bcd60e51b81526004018080602001828103825260228152602001806157836022913960400191505060405180910390fd5b612df060008051602061576383398151915233611318565b565b601a5481565b601d5481565b600c5481565b602a5490565b600081565b601b5481565b600080611c79601454610e0460155486613cb790919063ffffffff16565b60105481565b6020015190565b600060075442118015612e5257508115155b15612e9557612e8e6064610e04602e6001860381548110612e6f57fe5b9060005260206000200154611597612e85611116565b600f5490613d52565b9050610e7e565b506000610e7e565b612ea63361109d565b80612eb55750612eb533613b74565b612ef05760405162461bcd60e51b81526004018080602001828103825260228152602001806157836022913960400191505060405180910390fd5b8060008111612f115760405162461bcd60e51b8152600401610c9c90615419565b6004541580612f2e57506000600454118015612f2e575060045442105b612f4a5760405162461bcd60e51b8152600401610c9c9061558d565b601c548211158015612f5e5750601b548210155b612f7a5760405162461bcd60e51b8152600401610c9c90614fcf565b50601991909155601a55565b6023546001600160a01b031681565b60125481565b612fa433613b74565b612fdf5760405162461bcd60e51b81526004018080602001828103825260288152602001806157e56028913960400191505060405180910390fd5b612df0600033611318565b606082612ff657600192505b82602c54101561300657602c5492505b82821015613012578291505b81602c541080613020575081155b1561302b57602c5491505b600061304261303b85600161436d565b849061436d565b905060008167ffffffffffffffff8111801561305d57600080fd5b50604051908082528060200260200182016040528015613087578160200160208202803683370190505b5090506007544211801561309a57508415155b156130f85760005b828110156130f25760006130cf6064610e04602e6130c56001611e568d89613d52565b81548110612e6f57fe5b9050808383815181106130de57fe5b6020908102919091010152506001016130a2565b5061316f565b60005b8281101561316d57600061314a6064610e04602e61311e6001611e568d89613d52565b8154811061312857fe5b9060005260206000200154611597601354601254613d5290919063ffffffff16565b90508083838151811061315957fe5b6020908102919091010152506001016130fb565b505b949350505050565b60135481565b6131863361109d565b80613195575061319533613b74565b6131d05760405162461bcd60e51b81526004018080602001828103825260228152602001806157836022913960400191505060405180910390fd5b60045415806131ed575060006004541180156131ed575060045442105b6132095760405162461bcd60e51b8152600401610c9c9061558d565b602c8590556000805b868210156132f457602d86868481811061322857fe5b8354600181018555600094855260209485902091909402929092013591909201555081156132a057602d828154811061325d57fe5b9060005260206000200154602d600184038154811061327857fe5b9060005260206000200154106132a05760405162461bcd60e51b8152600401610c9c9061516d565b602e8484848181106132ae57fe5b835460018101855560009485526020948590209190940292909201359190920155508383838181106132dc57fe5b90506020020135810190508180600101925050613212565b806064146133145760405162461bcd60e51b8152600401610c9c90614f1c565b50505050505050565b600b5481565b60055481565b60115481565b60008181526036602052604081206110b7906143d0565b602f60205260009081526040902080546001820154600283015460039093015460ff90921692909184565b61337a3361109d565b80613389575061338933613b74565b6133c45760405162461bcd60e51b81526004018080602001828103825260228152602001806157836022913960400191505060405180910390fd5b60045415806133e1575060006004541180156133e1575060045442105b6133fd5760405162461bcd60e51b8152600401610c9c9061558d565b6026546040516370a0823160e01b81526000916001600160a01b0316906370a082319061342e903090600401614cef565b60206040518083038186803b15801561344657600080fd5b505afa15801561345a573d6000803e3d6000fd5b505050506040513d601f19601f8201168201806040525081019061347e9190614c2f565b90508635602088013501811080159061349f575080670de0b6b3a764000011155b6134bb5760405162461bcd60e51b8152600401610c9c90615527565b848460008181106134c857fe5b90506020020135866006600881106134dc57fe5b6020020135106134fe5760405162461bcd60e51b8152600401610c9c906153f7565b60035460025487359101106135255760405162461bcd60e51b8152600401610c9c90615052565b60208601358635106135495760405162461bcd60e51b8152600401610c9c906155d4565b831580159061355757508382145b6135735760405162461bcd60e51b8152600401610c9c906153cc565b600154156135a05761358433613b74565b6135a05760405162461bcd60e51b8152600401610c9c9061535b565b6135b7883560208a013560408b01358b60036125b6565b6135d1608089013560a08a013560c08b01358b60076125d3565b6135de87358860016122d6565b6135ee60408801358860036122e9565b613600608088013560a0890135612e9d565b61360a8635611cc3565b61362660208701356040880135606089013560808a0135610c28565b61363860a087013560c08801356115b6565b61364960e08701358686868661317d565b5050505050505050565b7ff0887ba65ee2024ea881d91b74c2450ef19e1557f03bed3ea9f16b037cbe2dc981565b60008281526036602052604090206002015461369590610974613dac565b61136f5760405162461bcd60e51b815260040180806020018281038252603081526020018061580d6030913960400191505060405180910390fd5b60205481565b60065481565b6136e53361109d565b806136f457506136f433613b74565b61372f5760405162461bcd60e51b81526004018080602001828103825260228152602001806157836022913960400191505060405180910390fd5b602380546001600160a01b0319166001600160a01b0392909216919091179055565b6029818154811061376157600080fd5b6000918252602090912001546001600160a01b0316905081565b6026546001600160a01b031681565b60185481565b6137993361109d565b806137a857506137a833613b74565b6137e35760405162461bcd60e51b81526004018080602001828103825260228152602001806157836022913960400191505060405180910390fd5b81600081116138045760405162461bcd60e51b8152600401610c9c90615419565b81600081116138255760405162461bcd60e51b8152600401610c9c90615419565b600454158061384257506000600454118015613842575060045442105b61385e5760405162461bcd60e51b8152600401610c9c9061558d565b5050601491909155601555565b600f5481565b602d818154811061388157600080fd5b600091825260209091200154905081565b80600081116138b35760405162461bcd60e51b8152600401610c9c90615419565b602c54600081116138d65760405162461bcd60e51b8152600401610c9c90615419565b6002603754141561391c576040805162461bcd60e51b815260206004820152601f6024820152600080516020615743833981519152604482015290519081900360640190fd5b60026037556006544210156139435760405162461bcd60e51b8152600401610c9c90614ea7565b60075442106139645760405162461bcd60e51b8152600401610c9c906150c0565b6001600160a01b0384166000908152602f60205260409020805460ff1615156001146139a25760405162461bcd60e51b8152600401610c9c90615240565b60006139ad85612e15565b905060006139ba87610d94565b60038401549091506139cc9083613d52565b8110156139eb5760405162461bcd60e51b8152600401610c9c90615006565b60006139f6886125f5565b9050836002015460001415613a5157600c54613a13906001613d52565b600c55600b54613a24906001613d52565b600b55600081815260346020526040902054613a41906001613d52565b6000828152603460205260409020555b6002840154613a609088613d52565b60028501556003840154613a749084613d52565b6003850155601054613a869088613d52565b601055600f54613a969084613d52565b600f55613aa38789613e82565b50506001603755505050505050565b602b5460ff1681565b613ac43361109d565b80613ad35750613ad333613b74565b613b0e5760405162461bcd60e51b81526004018080602001828103825260228152602001806157836022913960400191505060405180910390fd5b8160008111613b2f5760405162461bcd60e51b8152600401610c9c90615419565b6004541580613b4c57506000600454118015613b4c575060045442105b613b685760405162461bcd60e51b8152600401610c9c9061558d565b50601291909155601355565b60006110b78183612c5a565b60195481565b600080613b94611e7e612352565b905060006019548210613c6757600e54600d541415613c4557601a546025546040516370a0823160e01b8152613c3b92606492610e04926001600160a01b03909116906370a0823190613beb903090600401614cef565b60206040518083038186803b158015613c0357600080fd5b505afa158015613c17573d6000803e3d6000fd5b505050506040513d601f19601f820116820180604052508101906115979190614c2f565b9250611113915050565b613c3b6064610e04601a54611597674563918244f40000611e56611e7e612352565b600092505050611113565b602e818154811061388157600080fd5b602a818154811061376157600080fd5b60316020526000908152604090208054600182015460029092015460ff909116919083565b600082613cc6575060006110b7565b82820282848281613cd357fe5b0414611c795760405162461bcd60e51b815260040180806020018281038252602181526020018061585d6021913960400191505060405180910390fd5b6000611c7983836040518060400160405280601a81526020017f536166654d6174683a206469766973696f6e206279207a65726f0000000000008152506143db565b600082820183811015611c79576040805162461bcd60e51b815260206004820152601b60248201527f536166654d6174683a206164646974696f6e206f766572666c6f770000000000604482015290519081900360640190fd5b3390565b6000828152603660205260409020613dc8908261447d565b1561131457613dd5613dac565b6001600160a01b0316816001600160a01b0316837f2f8788117e7eff1d82e926ec794901d17c78024a50270940304540a733656f0d60405160405180910390a45050565b6000828152603660205260409020613e319082614492565b1561131457613e3e613dac565b6001600160a01b0316816001600160a01b0316837ff6391f5c32d9c69d2a47ea670b442974b53935d1edc7fd64eb21e047a839171b60405160405180910390a45050565b8160008111613ea35760405162461bcd60e51b8152600401610c9c90615419565b816001600160a01b038116613eca5760405162461bcd60e51b8152600401610c9c906151d7565b602554604051636eb1769f60e11b81526000916001600160a01b03169063dd62ed3e90613efd9087903090600401614d03565b60206040518083038186803b158015613f1557600080fd5b505afa158015613f29573d6000803e3d6000fd5b505050506040513d601f19601f82011682018060405250810190613f4d9190614c2f565b6025546040516370a0823160e01b81529192506000916001600160a01b03909116906370a0823190613f83908890600401614cef565b60206040518083038186803b158015613f9b57600080fd5b505afa158015613faf573d6000803e3d6000fd5b505050506040513d601f19601f82011682018060405250810190613fd39190614c2f565b905080821115613fe1578091505b8582101561424657600080613ff6888561436d565b9050614001816144a7565b602454604051636eb1769f60e11b815291935083916001600160a01b039091169063dd62ed3e90614038908b903090600401614d03565b602060405180830381600087803b15801561405257600080fd5b505af1158015614066573d6000803e3d6000fd5b505050506040513d601f19601f8201168201806040525081019061408a9190614c2f565b10156140a85760405162461bcd60e51b8152600401610c9c9061554b565b6024546040516370a0823160e01b815283916001600160a01b0316906370a08231906140d8908b90600401614cef565b60206040518083038186803b1580156140f057600080fd5b505afa158015614104573d6000803e3d6000fd5b505050506040513d601f19601f820116820180604052508101906141289190614c2f565b10156141465760405162461bcd60e51b8152600401610c9c90614ef4565b60245461415e906001600160a01b03168830856144b0565b60245460405163f53fe70f60e01b81526001600160a01b039091169063f53fe70f9061418e908590600401614dba565b602060405180830381600087803b1580156141a857600080fd5b505af11580156141bc573d6000803e3d6000fd5b505050506040513d601f19601f820116820180604052508101906141e09190614b1f565b506141eb888261436d565b84101561420a5760405162461bcd60e51b8152600401610c9c90614e66565b6000614216898361436d565b111561423f5761423f873061422b8b8561436d565b6025546001600160a01b03169291906144b0565b505061428a565b8582101580156142565750858110155b6142725760405162461bcd60e51b8152600401610c9c90614e66565b60255461428a906001600160a01b03168630896144b0565b6007544210156142da57846001600160a01b03167fc2198f7273f3b4ab95a025cf1f853777ca45149bbc1c005496959a6da70fcb8d876040516142cd9190614dba565b60405180910390a2614313565b846001600160a01b03167f2da466a7b24304f47e87fa2e1e5a81b9831ce54fec19055ce277ca2f39ba42c487604051611a219190614dba565b505050505050565b604080516001600160a01b038416602482015260448082018490528251808303909101815260649091019091526020810180516001600160e01b031663a9059cbb60e01b179052611a2d908490614510565b6000611c7983836040518060400160405280601e81526020017f536166654d6174683a207375627472616374696f6e206f766572666c6f7700008152506145c1565b6000611c79838361461b565b6000611c79836001600160a01b03841661467f565b60006110b782614697565b600081836144675760405162461bcd60e51b81526004018080602001828103825283818151815260200191508051906020019080838360005b8381101561442c578181015183820152602001614414565b50505050905090810190601f1680156144595780820380516001836020036101000a031916815260200191505b509250505060405180910390fd5b50600083858161447357fe5b0495945050505050565b6000611c79836001600160a01b03841661469b565b6000611c79836001600160a01b0384166146e5565b633b9aca000290565b604080516001600160a01b0380861660248301528416604482015260648082018490528251808303909101815260849091019091526020810180516001600160e01b03166323b872dd60e01b17905261450a908590614510565b50505050565b6000614565826040518060400160405280602081526020017f5361666545524332303a206c6f772d6c6576656c2063616c6c206661696c6564815250856001600160a01b03166147ab9092919063ffffffff16565b805190915015611a2d5780806020019051602081101561458457600080fd5b5051611a2d5760405162461bcd60e51b815260040180806020018281038252602a81526020018061587e602a913960400191505060405180910390fd5b600081848411156146135760405162461bcd60e51b815260206004820181815283516024840152835190928392604490910191908501908083836000831561442c578181015183820152602001614414565b505050900390565b8154600090821061465d5760405162461bcd60e51b81526004018080602001828103825260228152602001806156f26022913960400191505060405180910390fd5b82600001828154811061466c57fe5b9060005260206000200154905092915050565b60009081526001919091016020526040902054151590565b5490565b60006146a7838361467f565b6146dd575081546001818101845560008481526020808220909301849055845484825282860190935260409020919091556110b7565b5060006110b7565b600081815260018301602052604081205480156147a1578354600019808301919081019060009087908390811061471857fe5b906000526020600020015490508087600001848154811061473557fe5b60009182526020808320909101929092558281526001898101909252604090209084019055865487908061476557fe5b600190038181906000526020600020016000905590558660010160008781526020019081526020016000206000905560019450505050506110b7565b60009150506110b7565b606061316f8484600085856147bf856148d0565b614810576040805162461bcd60e51b815260206004820152601d60248201527f416464726573733a2063616c6c20746f206e6f6e2d636f6e7472616374000000604482015290519081900360640190fd5b600080866001600160a01b031685876040518082805190602001908083835b6020831061484e5780518252601f19909201916020918201910161482f565b6001836020036101000a03801982511681845116808217855250505050505090500191505060006040518083038185875af1925050503d80600081146148b0576040519150601f19603f3d011682016040523d82523d6000602084013e6148b5565b606091505b50915091506148c58282866148d6565b979650505050505050565b3b151590565b606083156148e5575081611c79565b8251156148f55782518084602001fd5b60405162461bcd60e51b815260206004820181815284516024840152845185939192839260440191908501908083836000831561442c578181015183820152602001614414565b80356001600160a01b0381168114610e7e57600080fd5b80604081018310156110b757600080fd5b80608081018310156110b757600080fd5b8061010081018310156110b757600080fd5b60008083601f840112614998578182fd5b50813567ffffffffffffffff8111156149af578182fd5b60208301915083602080830285010111156149c957600080fd5b9250929050565b6000602082840312156149e1578081fd5b611c798261493c565b600080604083850312156149fc578081fd5b614a058361493c565b946020939093013593505050565b60008060808385031215614a25578182fd5b614a2f8484614953565b9150614a3e8460408501614953565b90509250929050565b6000806101008385031215614a5a578182fd5b614a648484614964565b9150614a3e8460808501614964565b6000806000806000806000610300888a031215614a8e578283fd5b614a988989614975565b96506101c0880189811115614aab578384fd5b61010089019650614abc8a82614975565b9550506102c088013567ffffffffffffffff80821115614ada578485fd5b614ae68b838c01614987565b90965094506102e08a0135915080821115614aff578384fd5b50614b0c8a828b01614987565b989b979a50959850939692959293505050565b600060208284031215614b30578081fd5b81518015158114611c79578182fd5b600060208284031215614b50578081fd5b5035919050565b60008060408385031215614b69578182fd5b82359150614a3e6020840161493c565b60008060408385031215614b8b578182fd5b50508035926020909101359150565b60006020808385031215614bac578182fd5b823567ffffffffffffffff80821115614bc3578384fd5b818501915085601f830112614bd6578384fd5b813581811115614be257fe5b604051601f8201601f1916810185018381118282101715614bff57fe5b6040528181528382018501881015614c15578586fd5b818585018683013790810190930193909352509392505050565b600060208284031215614c40578081fd5b5051919050565b600080600080600060608688031215614c5e578081fd5b85359450602086013567ffffffffffffffff80821115614c7c578283fd5b614c8889838a01614987565b90965094506040880135915080821115614ca0578283fd5b50614cad88828901614987565b969995985093965092949392505050565b60008060008060808587031215614cd3578182fd5b5050823594602084013594506040840135936060013592509050565b6001600160a01b0391909116815260200190565b6001600160a01b0392831681529116602082015260400190565b6001600160a01b03929092168252602082015260400190565b6020808252825182820181905260009190848201906040850190845b81811015614d6e57835183529284019291840191600101614d52565b50909695505050505050565b901515815260200190565b92151583526020830191909152604082015260600190565b931515845260208401929092526040830152606082015260800190565b90815260200190565b6020808252818101527f5075626c696353616c653a20646f6e74206861766520726566756e6420746f6e604082015260600190565b6020808252601d908201527f5075626c696353616c653a206e65656420746f206d6f72652073544f53000000604082015260600190565b6020808252601b908201527f5075626c696353616c65203a20526f756e643174696d65206572720000000000604082015260600190565b60208082526021908201527f5075626c696353616c653a20746f6e206578636565647320616c6c6f77616e636040820152606560f81b606082015260800190565b6020808252602d908201527f5075626c696353616c653a206578636c7573697665537461727454696d65206860408201526c185cc81b9bdd081c185cdcd959609a1b606082015260800190565b6020808252600e908201526d3732b2b21036b7b932903bba37b760911b604082015260600190565b60208082526011908201527031b630b4b6a832b931b2b73a399032b93960791b604082015260600190565b60208082526021908201527f5075626c696353616c653a20656e64207468652077686974656c69737454696d6040820152606560f81b606082015260800190565b60208082526027908201527f5075626c696353616c653a206e65656420746f20656e6420746865206465706f60408201526673697454696d6560c81b606082015260800190565b6020808252601f908201527f5075626c696353616c653a206e65656420746f20736574206d696e2c6d617800604082015260600190565b6020808252602c908201527f5075626c696353616c653a206a757374206275792074696572277320616c6c6f60408201526b18d85d195908185b5bdd5b9d60a21b606082015260800190565b60208082526013908201527239b730b839b437ba103732b2b2103630ba32b960691b604082015260600190565b60208082526021908201527f5075626c696353616c653a20646f6e277420737461727420636c61696d54696d6040820152606560f81b606082015260800190565b60208082526021908201527f5075626c696353616c653a20656e6420746865206578636c757369766554696d6040820152606560f81b606082015260800190565b6020808252601e908201527f5075626c696353616c653a206e6f20707572636861736520616d6f756e740000604082015260600190565b6020808252818101527f5075626c696353616c653a20616c726561647920676574416c6c726577617264604082015260600190565b602080825260199082015278283ab13634b1a9b0b6329d1031b630b4b6ba34b6b29032b93960391b604082015260600190565b6020808252601f908201527f5075626c696353616c653a2053756d2073686f756c6420626520313030303000604082015260600190565b6020808252601890820152775075626c696353616c653a207a65726f206164647265737360401b604082015260600190565b6020808252601b908201527f5075626c696353616c65203a20526f756e643274696d65206572720000000000604082015260600190565b60208082526027908201527f5075626c696353616c653a206e6f74207265676973746572656420696e2077686040820152661a5d195b1a5cdd60ca1b606082015260800190565b6020808252601f908201527f5075626c696353616c653a20656e6420746865206465706f73697454696d6500604082015260600190565b6020808252601f908201527f5075626c696353616c653a206e6f20746f6b656e20746f207265636569766500604082015260600190565b6020808252601d908201527f5075626c696353616c653a20616c726561647920676574526566756e64000000604082015260600190565b602080825260159082015274141d589b1a58d4d85b194e881b9bc81c995dd85c99605a1b604082015260600190565b60208082526010908201526f1bdb9b1e48111053c818d85b881cd95d60821b604082015260600190565b60208082526027908201527f5075626c696353616c653a20646f6e7420686176652073616c65546f6b656e206040820152661a5b881c1bdbdb60ca1b606082015260800190565b6020808252601190820152701b995959081d1a194818db185a5b54d95d607a1b604082015260600190565b6020808252600890820152673a34b6b29032b93960c11b604082015260600190565b60208082526010908201526f5075626c696353616c653a207a65726f60801b604082015260600190565b6020808252600e908201526d3a34b2b91039b2ba1032b93937b960911b604082015260600190565b60208082526022908201527f5075626c696353616c653a20646f6e2774207061737320746865206861726443604082015261061760f41b606082015260800190565b60208082526023908201527f5075626c696353616c653a20646f6e2774207374617274206465706f73697454604082015262696d6560e81b606082015260800190565b6020808252601c908201527f5075626c696353616c653a20616c726561647920617474656e64656400000000604082015260600190565b6020808252600a908201526930b6b7bab73a1032b93960b11b604082015260600190565b60208082526022908201527f5075626c696353616c653a2077746f6e206578636565647320616c6c6f77616e604082015261636560f01b606082015260800190565b60208082526027908201527f5075626c696353616c653a206e6f74206265666f72655374617274416464576860408201526669746554696d6560c81b606082015260800190565b6020808252601990820152781dda1a5d195b1a5cdd081899599bdc99481cdb985c1cda1bdd603a1b604082015260600190565b6020808252602d908201527f5075626c696353616c653a2077686974656c697374537461727454696d65206860408201526c185cc81b9bdd081c185cdcd959609a1b606082015260800190565b81516001600160a01b03908116825260208084015182169083015260408084015162ffffff16908301526060808401518216908301526080808401519083015260a0838101519083015260c0808401519083015260e09283015116918101919091526101000190565b62ffffff91909116815260200190565b918252602082015260400190565b928352602083019190915260408201526060019056fe456e756d657261626c655365743a20696e646578206f7574206f6620626f756e6473416363657373436f6e74726f6c3a2073656e646572206d75737420626520616e2061646d696e20746f206772616e745265656e7472616e637947756172643a207265656e7472616e742063616c6c0052eafc11f6f81f86878bffd31109a0d92f37506527754f00788853ff9f63b13041636365737369626c653a2043616c6c6572206973206e6f7420616e2061646d696e0d07fe408fa264e656a9c06e272928e4d4bb400d93cd5b5e74ac592f6170c2fd1f20ec30f5e9c102cf5806d0bb8118b98c797a37ea4ca5b5c306ba879366c77c41636365737369626c653a2043616c6c6572206973206e6f7420616e2070726f78792061646d696e416363657373436f6e74726f6c3a2073656e646572206d75737420626520616e2061646d696e20746f207265766f6b659ff19f865638bb86eeeae31c2a9ec896d92141edd461fe8f31e9e7484e4d2bb5536166654d6174683a206d756c7469706c69636174696f6e206f766572666c6f775361666545524332303a204552433230206f7065726174696f6e20646964206e6f7420737563636565643f52cf82629296489b84e1dbb72f035157400392aa100335795b652755f8cdda416363657373436f6e74726f6c3a2063616e206f6e6c792072656e6f756e636520726f6c657320666f722073656c66a26469706673582212202948c25c99de28289c19d20f93aadfd7e3b4ceb1e67fc1d533584b385b9b96b264736f6c63430007060033",
  "linkReferences": {},
  "deployedLinkReferences": {}
}