{
  "_format": "hh-sol-artifact-1",
  "contractName": "PublicSale",
  "sourceName": "contracts/sale/PublicSale.sol",
  "abi": [
    {
      "anonymous": false,
      "inputs": [
        {
          "indexed": true,
          "internalType": "address",
          "name": "from",
          "type": "address"
        },
        {
          "indexed": false,
          "internalType": "uint256",
          "name": "tier",
          "type": "uint256"
        }
      ],
      "name": "AddedWhiteList",
      "type": "event"
    },
    {
      "anonymous": false,
      "inputs": [
        {
          "indexed": true,
          "internalType": "address",
          "name": "from",
          "type": "address"
        },
        {
          "indexed": false,
          "internalType": "uint256",
          "name": "amount",
          "type": "uint256"
        }
      ],
      "name": "Claimed",
      "type": "event"
    },
    {
      "anonymous": false,
      "inputs": [
        {
          "indexed": true,
          "internalType": "address",
          "name": "from",
          "type": "address"
        },
        {
          "indexed": false,
          "internalType": "uint256",
          "name": "amount",
          "type": "uint256"
        },
        {
          "indexed": false,
          "internalType": "uint256",
          "name": "liquidityAmount",
          "type": "uint256"
        }
      ],
      "name": "DepositWithdrawal",
      "type": "event"
    },
    {
      "anonymous": false,
      "inputs": [
        {
          "indexed": true,
          "internalType": "address",
          "name": "from",
          "type": "address"
        },
        {
          "indexed": false,
          "internalType": "uint256",
          "name": "amount",
          "type": "uint256"
        }
      ],
      "name": "Deposited",
      "type": "event"
    },
    {
      "anonymous": false,
      "inputs": [
        {
          "indexed": true,
          "internalType": "address",
          "name": "from",
          "type": "address"
        },
        {
          "indexed": false,
          "internalType": "uint256",
          "name": "amount",
          "type": "uint256"
        }
      ],
      "name": "ExclusiveSaled",
      "type": "event"
    },
    {
      "anonymous": false,
      "inputs": [
        {
          "indexed": true,
          "internalType": "bytes32",
          "name": "role",
          "type": "bytes32"
        },
        {
          "indexed": true,
          "internalType": "bytes32",
          "name": "previousAdminRole",
          "type": "bytes32"
        },
        {
          "indexed": true,
          "internalType": "bytes32",
          "name": "newAdminRole",
          "type": "bytes32"
        }
      ],
      "name": "RoleAdminChanged",
      "type": "event"
    },
    {
      "anonymous": false,
      "inputs": [
        {
          "indexed": true,
          "internalType": "bytes32",
          "name": "role",
          "type": "bytes32"
        },
        {
          "indexed": true,
          "internalType": "address",
          "name": "account",
          "type": "address"
        },
        {
          "indexed": true,
          "internalType": "address",
          "name": "sender",
          "type": "address"
        }
      ],
      "name": "RoleGranted",
      "type": "event"
    },
    {
      "anonymous": false,
      "inputs": [
        {
          "indexed": true,
          "internalType": "bytes32",
          "name": "role",
          "type": "bytes32"
        },
        {
          "indexed": true,
          "internalType": "address",
          "name": "account",
          "type": "address"
        },
        {
          "indexed": true,
          "internalType": "address",
          "name": "sender",
          "type": "address"
        }
      ],
      "name": "RoleRevoked",
      "type": "event"
    },
    {
      "anonymous": false,
      "inputs": [
        {
          "indexed": true,
          "internalType": "address",
          "name": "from",
          "type": "address"
        },
        {
          "indexed": false,
          "internalType": "uint256",
          "name": "amount",
          "type": "uint256"
        }
      ],
      "name": "Withdrawal",
      "type": "event"
    },
    {
      "inputs": [],
      "name": "ADMIN_ROLE",
      "outputs": [
        {
          "internalType": "bytes32",
          "name": "",
          "type": "bytes32"
        }
      ],
      "stateMutability": "view",
      "type": "function"
    },
    {
      "inputs": [],
      "name": "BURNER_ROLE",
      "outputs": [
        {
          "internalType": "bytes32",
          "name": "",
          "type": "bytes32"
        }
      ],
      "stateMutability": "view",
      "type": "function"
    },
    {
      "inputs": [],
      "name": "DEFAULT_ADMIN_ROLE",
      "outputs": [
        {
          "internalType": "bytes32",
          "name": "",
          "type": "bytes32"
        }
      ],
      "stateMutability": "view",
      "type": "function"
    },
    {
      "inputs": [],
      "name": "MINTER_ROLE",
      "outputs": [
        {
          "internalType": "bytes32",
          "name": "",
          "type": "bytes32"
        }
      ],
      "stateMutability": "view",
      "type": "function"
    },
    {
      "inputs": [],
      "name": "PROJECT_ADMIN_ROLE",
      "outputs": [
        {
          "internalType": "bytes32",
          "name": "",
          "type": "bytes32"
        }
      ],
      "stateMutability": "view",
      "type": "function"
    },
    {
      "inputs": [
        {
          "internalType": "bytes",
          "name": "data",
          "type": "bytes"
        }
      ],
      "name": "_decodeApproveData",
      "outputs": [
        {
          "internalType": "uint256",
          "name": "approveData",
          "type": "uint256"
        }
      ],
      "stateMutability": "pure",
      "type": "function"
    },
    {
      "inputs": [
        {
          "internalType": "uint256",
          "name": "v",
          "type": "uint256"
        }
      ],
      "name": "_toWAD",
      "outputs": [
        {
          "internalType": "uint256",
          "name": "",
          "type": "uint256"
        }
      ],
      "stateMutability": "pure",
      "type": "function"
    },
    {
      "inputs": [
        {
          "internalType": "address",
          "name": "account",
          "type": "address"
        }
      ],
      "name": "addAdmin",
      "outputs": [],
      "stateMutability": "nonpayable",
      "type": "function"
    },
    {
      "inputs": [
        {
          "internalType": "address",
          "name": "_owner",
          "type": "address"
        }
      ],
      "name": "addProxyAdmin",
      "outputs": [],
      "stateMutability": "nonpayable",
      "type": "function"
    },
    {
      "inputs": [],
      "name": "addWhiteList",
      "outputs": [],
      "stateMutability": "nonpayable",
      "type": "function"
    },
    {
      "inputs": [],
      "name": "adminWithdraw",
      "outputs": [
        {
          "internalType": "bool",
          "name": "",
          "type": "bool"
        }
      ],
      "stateMutability": "view",
      "type": "function"
    },
    {
      "inputs": [
        {
          "internalType": "address",
          "name": "_account",
          "type": "address"
        },
        {
          "internalType": "uint256",
          "name": "_round",
          "type": "uint256"
        }
      ],
      "name": "calculClaimAmount",
      "outputs": [
        {
          "internalType": "uint256",
          "name": "_reward",
          "type": "uint256"
        },
        {
          "internalType": "uint256",
          "name": "_totalClaim",
          "type": "uint256"
        },
        {
          "internalType": "uint256",
          "name": "_refundAmount",
          "type": "uint256"
        }
      ],
      "stateMutability": "view",
      "type": "function"
    },
    {
      "inputs": [
        {
          "internalType": "address",
          "name": "_account",
          "type": "address"
        },
        {
          "internalType": "uint256",
          "name": "_amount",
          "type": "uint256"
        }
      ],
      "name": "calculOpenSaleAmount",
      "outputs": [
        {
          "internalType": "uint256",
          "name": "",
          "type": "uint256"
        }
      ],
      "stateMutability": "view",
      "type": "function"
    },
    {
      "inputs": [
        {
          "internalType": "uint256",
          "name": "_amount",
          "type": "uint256"
        }
      ],
      "name": "calculPayToken",
      "outputs": [
        {
          "internalType": "uint256",
          "name": "",
          "type": "uint256"
        }
      ],
      "stateMutability": "view",
      "type": "function"
    },
    {
      "inputs": [
        {
          "internalType": "uint256",
          "name": "_amount",
          "type": "uint256"
        }
      ],
      "name": "calculSaleToken",
      "outputs": [
        {
          "internalType": "uint256",
          "name": "",
          "type": "uint256"
        }
      ],
      "stateMutability": "view",
      "type": "function"
    },
    {
      "inputs": [
        {
          "internalType": "address",
          "name": "_address",
          "type": "address"
        }
      ],
      "name": "calculTier",
      "outputs": [
        {
          "internalType": "uint256",
          "name": "",
          "type": "uint256"
        }
      ],
      "stateMutability": "view",
      "type": "function"
    },
    {
      "inputs": [
        {
          "internalType": "address",
          "name": "_address",
          "type": "address"
        }
      ],
      "name": "calculTierAmount",
      "outputs": [
        {
          "internalType": "uint256",
          "name": "",
          "type": "uint256"
        }
      ],
      "stateMutability": "view",
      "type": "function"
    },
    {
      "inputs": [
        {
          "internalType": "address",
          "name": "_address",
          "type": "address"
        }
      ],
      "name": "changeTONOwner",
      "outputs": [],
      "stateMutability": "nonpayable",
      "type": "function"
    },
    {
      "inputs": [],
      "name": "changeTOS",
      "outputs": [
        {
          "internalType": "uint256",
          "name": "",
          "type": "uint256"
        }
      ],
      "stateMutability": "view",
      "type": "function"
    },
    {
      "inputs": [],
      "name": "claim",
      "outputs": [],
      "stateMutability": "nonpayable",
      "type": "function"
    },
    {
      "inputs": [],
      "name": "claimFirst",
      "outputs": [
        {
          "internalType": "uint256",
          "name": "",
          "type": "uint256"
        }
      ],
      "stateMutability": "view",
      "type": "function"
    },
    {
      "inputs": [],
      "name": "claimInterval",
      "outputs": [
        {
          "internalType": "uint256",
          "name": "",
          "type": "uint256"
        }
      ],
      "stateMutability": "view",
      "type": "function"
    },
    {
      "inputs": [
        {
          "internalType": "uint256",
          "name": "",
          "type": "uint256"
        }
      ],
      "name": "claimPercents",
      "outputs": [
        {
          "internalType": "uint256",
          "name": "",
          "type": "uint256"
        }
      ],
      "stateMutability": "view",
      "type": "function"
    },
    {
      "inputs": [],
      "name": "claimPeriod",
      "outputs": [
        {
          "internalType": "uint256",
          "name": "",
          "type": "uint256"
        }
      ],
      "stateMutability": "view",
      "type": "function"
    },
    {
      "inputs": [
        {
          "internalType": "uint256",
          "name": "",
          "type": "uint256"
        }
      ],
      "name": "claimTimes",
      "outputs": [
        {
          "internalType": "uint256",
          "name": "",
          "type": "uint256"
        }
      ],
      "stateMutability": "view",
      "type": "function"
    },
    {
      "inputs": [],
      "name": "currentRound",
      "outputs": [
        {
          "internalType": "uint256",
          "name": "round",
          "type": "uint256"
        }
      ],
      "stateMutability": "view",
      "type": "function"
    },
    {
      "inputs": [],
      "name": "delayTime",
      "outputs": [
        {
          "internalType": "uint256",
          "name": "",
          "type": "uint256"
        }
      ],
      "stateMutability": "view",
      "type": "function"
    },
    {
      "inputs": [],
      "name": "deployTime",
      "outputs": [
        {
          "internalType": "uint256",
          "name": "",
          "type": "uint256"
        }
      ],
      "stateMutability": "view",
      "type": "function"
    },
    {
      "inputs": [
        {
          "internalType": "address",
          "name": "_sender",
          "type": "address"
        },
        {
          "internalType": "uint256",
          "name": "_amount",
          "type": "uint256"
        }
      ],
      "name": "deposit",
      "outputs": [],
      "stateMutability": "nonpayable",
      "type": "function"
    },
    {
      "inputs": [],
      "name": "depositWithdraw",
      "outputs": [],
      "stateMutability": "nonpayable",
      "type": "function"
    },
    {
      "inputs": [
        {
          "internalType": "uint256",
          "name": "",
          "type": "uint256"
        }
      ],
      "name": "depositors",
      "outputs": [
        {
          "internalType": "address",
          "name": "",
          "type": "address"
        }
      ],
      "stateMutability": "view",
      "type": "function"
    },
    {
      "inputs": [
        {
          "internalType": "uint256",
          "name": "_round",
          "type": "uint256"
        }
      ],
      "name": "distributionByRound",
      "outputs": [
        {
          "internalType": "uint256",
          "name": "",
          "type": "uint256"
        }
      ],
      "stateMutability": "view",
      "type": "function"
    },
    {
      "inputs": [
        {
          "internalType": "uint256",
          "name": "startRound",
          "type": "uint256"
        },
        {
          "internalType": "uint256",
          "name": "endRound",
          "type": "uint256"
        }
      ],
      "name": "distributionByRounds",
      "outputs": [
        {
          "internalType": "uint256[]",
          "name": "",
          "type": "uint256[]"
        }
      ],
      "stateMutability": "view",
      "type": "function"
    },
    {
      "inputs": [],
      "name": "endAddWhiteTime",
      "outputs": [
        {
          "internalType": "uint256",
          "name": "",
          "type": "uint256"
        }
      ],
      "stateMutability": "view",
      "type": "function"
    },
    {
      "inputs": [],
      "name": "endDepositTime",
      "outputs": [
        {
          "internalType": "uint256",
          "name": "",
          "type": "uint256"
        }
      ],
      "stateMutability": "view",
      "type": "function"
    },
    {
      "inputs": [],
      "name": "endExclusiveTime",
      "outputs": [
        {
          "internalType": "uint256",
          "name": "",
          "type": "uint256"
        }
      ],
      "stateMutability": "view",
      "type": "function"
    },
    {
      "inputs": [
        {
          "internalType": "address",
          "name": "_sender",
          "type": "address"
        },
        {
          "internalType": "uint256",
          "name": "_amount",
          "type": "uint256"
        }
      ],
      "name": "exclusiveSale",
      "outputs": [],
      "stateMutability": "nonpayable",
      "type": "function"
    },
    {
      "inputs": [
        {
          "internalType": "bytes32",
          "name": "role",
          "type": "bytes32"
        }
      ],
      "name": "getRoleAdmin",
      "outputs": [
        {
          "internalType": "bytes32",
          "name": "",
          "type": "bytes32"
        }
      ],
      "stateMutability": "view",
      "type": "function"
    },
    {
      "inputs": [
        {
          "internalType": "bytes32",
          "name": "role",
          "type": "bytes32"
        },
        {
          "internalType": "uint256",
          "name": "index",
          "type": "uint256"
        }
      ],
      "name": "getRoleMember",
      "outputs": [
        {
          "internalType": "address",
          "name": "",
          "type": "address"
        }
      ],
      "stateMutability": "view",
      "type": "function"
    },
    {
      "inputs": [
        {
          "internalType": "bytes32",
          "name": "role",
          "type": "bytes32"
        }
      ],
      "name": "getRoleMemberCount",
      "outputs": [
        {
          "internalType": "uint256",
          "name": "",
          "type": "uint256"
        }
      ],
      "stateMutability": "view",
      "type": "function"
    },
    {
      "inputs": [],
      "name": "getToken",
      "outputs": [
        {
          "internalType": "address",
          "name": "",
          "type": "address"
        }
      ],
      "stateMutability": "view",
      "type": "function"
    },
    {
      "inputs": [],
      "name": "getTokenOwner",
      "outputs": [
        {
          "internalType": "address",
          "name": "",
          "type": "address"
        }
      ],
      "stateMutability": "view",
      "type": "function"
    },
    {
      "inputs": [
        {
          "internalType": "bytes32",
          "name": "role",
          "type": "bytes32"
        },
        {
          "internalType": "address",
          "name": "account",
          "type": "address"
        }
      ],
      "name": "grantRole",
      "outputs": [],
      "stateMutability": "nonpayable",
      "type": "function"
    },
    {
      "inputs": [],
      "name": "hardCap",
      "outputs": [
        {
          "internalType": "uint256",
          "name": "",
          "type": "uint256"
        }
      ],
      "stateMutability": "view",
      "type": "function"
    },
    {
      "inputs": [],
      "name": "hardcapCalcul",
      "outputs": [
        {
          "internalType": "uint256",
          "name": "",
          "type": "uint256"
        }
      ],
      "stateMutability": "view",
      "type": "function"
    },
    {
      "inputs": [
        {
          "internalType": "bytes32",
          "name": "role",
          "type": "bytes32"
        },
        {
          "internalType": "address",
          "name": "account",
          "type": "address"
        }
      ],
      "name": "hasRole",
      "outputs": [
        {
          "internalType": "bool",
          "name": "",
          "type": "bool"
        }
      ],
      "stateMutability": "view",
      "type": "function"
    },
    {
      "inputs": [
        {
          "internalType": "address",
          "name": "account",
          "type": "address"
        }
      ],
      "name": "isAdmin",
      "outputs": [
        {
          "internalType": "bool",
          "name": "",
          "type": "bool"
        }
      ],
      "stateMutability": "view",
      "type": "function"
    },
    {
      "inputs": [
        {
          "internalType": "address",
          "name": "account",
          "type": "address"
        }
      ],
      "name": "isProxyAdmin",
      "outputs": [
        {
          "internalType": "bool",
          "name": "",
          "type": "bool"
        }
      ],
      "stateMutability": "view",
      "type": "function"
    },
    {
      "inputs": [],
      "name": "liquidityVaultAddress",
      "outputs": [
        {
          "internalType": "address",
          "name": "",
          "type": "address"
        }
      ],
      "stateMutability": "view",
      "type": "function"
    },
    {
      "inputs": [],
      "name": "maxPer",
      "outputs": [
        {
          "internalType": "uint256",
          "name": "",
          "type": "uint256"
        }
      ],
      "stateMutability": "view",
      "type": "function"
    },
    {
      "inputs": [],
      "name": "minPer",
      "outputs": [
        {
          "internalType": "uint256",
          "name": "",
          "type": "uint256"
        }
      ],
      "stateMutability": "view",
      "type": "function"
    },
    {
      "inputs": [
        {
          "internalType": "address",
          "name": "user",
          "type": "address"
        }
      ],
      "name": "openSaleUserAmount",
      "outputs": [
        {
          "internalType": "uint256",
          "name": "_realPayAmount",
          "type": "uint256"
        },
        {
          "internalType": "uint256",
          "name": "_realSaleAmount",
          "type": "uint256"
        },
        {
          "internalType": "uint256",
          "name": "_refundAmount",
          "type": "uint256"
        }
      ],
      "stateMutability": "view",
      "type": "function"
    },
    {
      "inputs": [],
      "name": "pauseProxy",
      "outputs": [
        {
          "internalType": "bool",
          "name": "",
          "type": "bool"
        }
      ],
      "stateMutability": "view",
      "type": "function"
    },
    {
      "inputs": [],
      "name": "payTokenPrice",
      "outputs": [
        {
          "internalType": "uint256",
          "name": "",
          "type": "uint256"
        }
      ],
      "stateMutability": "view",
      "type": "function"
    },
    {
      "inputs": [],
      "name": "poolFee",
      "outputs": [
        {
          "internalType": "uint24",
          "name": "",
          "type": "uint24"
        }
      ],
      "stateMutability": "view",
      "type": "function"
    },
    {
      "inputs": [],
      "name": "removeAdmin",
      "outputs": [],
      "stateMutability": "nonpayable",
      "type": "function"
    },
    {
      "inputs": [],
      "name": "removeProxyAdmin",
      "outputs": [],
      "stateMutability": "nonpayable",
      "type": "function"
    },
    {
      "inputs": [
        {
          "internalType": "bytes32",
          "name": "role",
          "type": "bytes32"
        },
        {
          "internalType": "address",
          "name": "account",
          "type": "address"
        }
      ],
      "name": "renounceRole",
      "outputs": [],
      "stateMutability": "nonpayable",
      "type": "function"
    },
    {
      "inputs": [
        {
          "internalType": "bytes32",
          "name": "role",
          "type": "bytes32"
        },
        {
          "internalType": "address",
          "name": "account",
          "type": "address"
        }
      ],
      "name": "revokeRole",
      "outputs": [],
      "stateMutability": "nonpayable",
      "type": "function"
    },
    {
      "inputs": [],
      "name": "sTOS",
      "outputs": [
        {
          "internalType": "contract ILockTOS",
          "name": "",
          "type": "address"
        }
      ],
      "stateMutability": "view",
      "type": "function"
    },
    {
      "inputs": [],
      "name": "saleToken",
      "outputs": [
        {
          "internalType": "contract IERC20",
          "name": "",
          "type": "address"
        }
      ],
      "stateMutability": "view",
      "type": "function"
    },
    {
      "inputs": [],
      "name": "saleTokenPrice",
      "outputs": [
        {
          "internalType": "uint256",
          "name": "",
          "type": "uint256"
        }
      ],
      "stateMutability": "view",
      "type": "function"
    },
    {
      "inputs": [
        {
          "internalType": "uint256[2]",
          "name": "_expectAmount",
          "type": "uint256[2]"
        },
        {
          "internalType": "uint256[2]",
          "name": "_priceAmount",
          "type": "uint256[2]"
        }
      ],
      "name": "setAllAmount",
      "outputs": [],
      "stateMutability": "nonpayable",
      "type": "function"
    },
    {
      "inputs": [
        {
          "internalType": "uint256[4]",
          "name": "_tier",
          "type": "uint256[4]"
        },
        {
          "internalType": "uint256[4]",
          "name": "_tierPercent",
          "type": "uint256[4]"
        }
      ],
      "name": "setAllTier",
      "outputs": [],
      "stateMutability": "nonpayable",
      "type": "function"
    },
    {
      "inputs": [
        {
          "internalType": "uint256[8]",
          "name": "_Tier",
          "type": "uint256[8]"
        },
        {
          "internalType": "uint256[6]",
          "name": "_amount",
          "type": "uint256[6]"
        },
        {
          "internalType": "uint256[8]",
          "name": "_time",
          "type": "uint256[8]"
        },
        {
          "internalType": "uint256[]",
          "name": "_claimTimes",
          "type": "uint256[]"
        },
        {
          "internalType": "uint256[]",
          "name": "_claimPercents",
          "type": "uint256[]"
        }
      ],
      "name": "setAllsetting",
      "outputs": [],
      "stateMutability": "nonpayable",
      "type": "function"
    },
    {
      "inputs": [
        {
          "internalType": "uint256",
          "name": "_claimCounts",
          "type": "uint256"
        },
        {
          "internalType": "uint256[]",
          "name": "_claimTimes",
          "type": "uint256[]"
        },
        {
          "internalType": "uint256[]",
          "name": "_claimPercents",
          "type": "uint256[]"
        }
      ],
      "name": "setEachClaim",
      "outputs": [],
      "stateMutability": "nonpayable",
      "type": "function"
    },
    {
      "inputs": [
        {
          "internalType": "uint256",
          "name": "_startAddWhiteTime",
          "type": "uint256"
        },
        {
          "internalType": "uint256",
          "name": "_endAddWhiteTime",
          "type": "uint256"
        },
        {
          "internalType": "uint256",
          "name": "_startExclusiveTime",
          "type": "uint256"
        },
        {
          "internalType": "uint256",
          "name": "_endExclusiveTime",
          "type": "uint256"
        }
      ],
      "name": "setExclusiveTime",
      "outputs": [],
      "stateMutability": "nonpayable",
      "type": "function"
    },
    {
      "inputs": [
        {
          "internalType": "uint256",
          "name": "_hardcapAmount",
          "type": "uint256"
        },
        {
          "internalType": "uint256",
          "name": "_changePercent",
          "type": "uint256"
        }
      ],
      "name": "setHardcap",
      "outputs": [],
      "stateMutability": "nonpayable",
      "type": "function"
    },
    {
      "inputs": [
        {
          "internalType": "uint256",
          "name": "_startDepositTime",
          "type": "uint256"
        },
        {
          "internalType": "uint256",
          "name": "_endDepositTime",
          "type": "uint256"
        }
      ],
      "name": "setOpenTime",
      "outputs": [],
      "stateMutability": "nonpayable",
      "type": "function"
    },
    {
      "inputs": [
        {
          "internalType": "uint256",
          "name": "_totalExpectSaleAmount",
          "type": "uint256"
        },
        {
          "internalType": "uint256",
          "name": "_totalExpectOpenSaleAmount",
          "type": "uint256"
        }
      ],
      "name": "setSaleAmount",
      "outputs": [],
      "stateMutability": "nonpayable",
      "type": "function"
    },
    {
      "inputs": [
        {
          "internalType": "uint256",
          "name": "_snapshot",
          "type": "uint256"
        }
      ],
      "name": "setSnapshot",
      "outputs": [],
      "stateMutability": "nonpayable",
      "type": "function"
    },
    {
      "inputs": [
        {
          "internalType": "uint256",
          "name": "_tier1",
          "type": "uint256"
        },
        {
          "internalType": "uint256",
          "name": "_tier2",
          "type": "uint256"
        },
        {
          "internalType": "uint256",
          "name": "_tier3",
          "type": "uint256"
        },
        {
          "internalType": "uint256",
          "name": "_tier4",
          "type": "uint256"
        }
      ],
      "name": "setTier",
      "outputs": [],
      "stateMutability": "nonpayable",
      "type": "function"
    },
    {
      "inputs": [
        {
          "internalType": "uint256",
          "name": "_tier1",
          "type": "uint256"
        },
        {
          "internalType": "uint256",
          "name": "_tier2",
          "type": "uint256"
        },
        {
          "internalType": "uint256",
          "name": "_tier3",
          "type": "uint256"
        },
        {
          "internalType": "uint256",
          "name": "_tier4",
          "type": "uint256"
        }
      ],
      "name": "setTierPercents",
      "outputs": [],
      "stateMutability": "nonpayable",
      "type": "function"
    },
    {
      "inputs": [
        {
          "internalType": "uint256",
          "name": "_saleTokenPrice",
          "type": "uint256"
        },
        {
          "internalType": "uint256",
          "name": "_payTokenPrice",
          "type": "uint256"
        }
      ],
      "name": "setTokenPrice",
      "outputs": [],
      "stateMutability": "nonpayable",
      "type": "function"
    },
    {
      "inputs": [],
      "name": "snapshot",
      "outputs": [
        {
          "internalType": "uint256",
          "name": "",
          "type": "uint256"
        }
      ],
      "stateMutability": "view",
      "type": "function"
    },
    {
      "inputs": [],
      "name": "stanTier1",
      "outputs": [
        {
          "internalType": "uint256",
          "name": "",
          "type": "uint256"
        }
      ],
      "stateMutability": "view",
      "type": "function"
    },
    {
      "inputs": [],
      "name": "stanTier2",
      "outputs": [
        {
          "internalType": "uint256",
          "name": "",
          "type": "uint256"
        }
      ],
      "stateMutability": "view",
      "type": "function"
    },
    {
      "inputs": [],
      "name": "stanTier3",
      "outputs": [
        {
          "internalType": "uint256",
          "name": "",
          "type": "uint256"
        }
      ],
      "stateMutability": "view",
      "type": "function"
    },
    {
      "inputs": [],
      "name": "stanTier4",
      "outputs": [
        {
          "internalType": "uint256",
          "name": "",
          "type": "uint256"
        }
      ],
      "stateMutability": "view",
      "type": "function"
    },
    {
      "inputs": [],
      "name": "startAddWhiteTime",
      "outputs": [
        {
          "internalType": "uint256",
          "name": "",
          "type": "uint256"
        }
      ],
      "stateMutability": "view",
      "type": "function"
    },
    {
      "inputs": [],
      "name": "startClaimTime",
      "outputs": [
        {
          "internalType": "uint256",
          "name": "",
          "type": "uint256"
        }
      ],
      "stateMutability": "view",
      "type": "function"
    },
    {
      "inputs": [],
      "name": "startDepositTime",
      "outputs": [
        {
          "internalType": "uint256",
          "name": "",
          "type": "uint256"
        }
      ],
      "stateMutability": "view",
      "type": "function"
    },
    {
      "inputs": [],
      "name": "startExclusiveTime",
      "outputs": [
        {
          "internalType": "uint256",
          "name": "",
          "type": "uint256"
        }
      ],
      "stateMutability": "view",
      "type": "function"
    },
    {
      "inputs": [
        {
          "internalType": "uint256",
          "name": "",
          "type": "uint256"
        }
      ],
      "name": "tiers",
      "outputs": [
        {
          "internalType": "uint256",
          "name": "",
          "type": "uint256"
        }
      ],
      "stateMutability": "view",
      "type": "function"
    },
    {
      "inputs": [
        {
          "internalType": "uint256",
          "name": "",
          "type": "uint256"
        }
      ],
      "name": "tiersAccount",
      "outputs": [
        {
          "internalType": "uint256",
          "name": "",
          "type": "uint256"
        }
      ],
      "stateMutability": "view",
      "type": "function"
    },
    {
      "inputs": [
        {
          "internalType": "uint256",
          "name": "",
          "type": "uint256"
        }
      ],
      "name": "tiersExAccount",
      "outputs": [
        {
          "internalType": "uint256",
          "name": "",
          "type": "uint256"
        }
      ],
      "stateMutability": "view",
      "type": "function"
    },
    {
      "inputs": [
        {
          "internalType": "uint256",
          "name": "",
          "type": "uint256"
        }
      ],
      "name": "tiersPercents",
      "outputs": [
        {
          "internalType": "uint256",
          "name": "",
          "type": "uint256"
        }
      ],
      "stateMutability": "view",
      "type": "function"
    },
    {
      "inputs": [],
      "name": "tos",
      "outputs": [
        {
          "internalType": "contract IERC20",
          "name": "",
          "type": "address"
        }
      ],
      "stateMutability": "view",
      "type": "function"
    },
    {
      "inputs": [],
      "name": "totalClaimCounts",
      "outputs": [
        {
          "internalType": "uint256",
          "name": "",
          "type": "uint256"
        }
      ],
      "stateMutability": "view",
      "type": "function"
    },
    {
      "inputs": [],
      "name": "totalDepositAmount",
      "outputs": [
        {
          "internalType": "uint256",
          "name": "",
          "type": "uint256"
        }
      ],
      "stateMutability": "view",
      "type": "function"
    },
    {
      "inputs": [],
      "name": "totalExPurchasedAmount",
      "outputs": [
        {
          "internalType": "uint256",
          "name": "",
          "type": "uint256"
        }
      ],
      "stateMutability": "view",
      "type": "function"
    },
    {
      "inputs": [],
      "name": "totalExSaleAmount",
      "outputs": [
        {
          "internalType": "uint256",
          "name": "",
          "type": "uint256"
        }
      ],
      "stateMutability": "view",
      "type": "function"
    },
    {
      "inputs": [],
      "name": "totalExpectOpenSaleAmount",
      "outputs": [
        {
          "internalType": "uint256",
          "name": "",
          "type": "uint256"
        }
      ],
      "stateMutability": "view",
      "type": "function"
    },
    {
      "inputs": [],
      "name": "totalExpectOpenSaleAmountView",
      "outputs": [
        {
          "internalType": "uint256",
          "name": "",
          "type": "uint256"
        }
      ],
      "stateMutability": "view",
      "type": "function"
    },
    {
      "inputs": [],
      "name": "totalExpectSaleAmount",
      "outputs": [
        {
          "internalType": "uint256",
          "name": "",
          "type": "uint256"
        }
      ],
      "stateMutability": "view",
      "type": "function"
    },
    {
      "inputs": [],
      "name": "totalOpenPurchasedAmount",
      "outputs": [
        {
          "internalType": "uint256",
          "name": "",
          "type": "uint256"
        }
      ],
      "stateMutability": "view",
      "type": "function"
    },
    {
      "inputs": [],
      "name": "totalOpenSaleAmount",
      "outputs": [
        {
          "internalType": "uint256",
          "name": "",
          "type": "uint256"
        }
      ],
      "stateMutability": "view",
      "type": "function"
    },
    {
      "inputs": [],
      "name": "totalRound1NonSaleAmount",
      "outputs": [
        {
          "internalType": "uint256",
          "name": "",
          "type": "uint256"
        }
      ],
      "stateMutability": "view",
      "type": "function"
    },
    {
      "inputs": [],
      "name": "totalRound1Users",
      "outputs": [
        {
          "internalType": "uint256",
          "name": "",
          "type": "uint256"
        }
      ],
      "stateMutability": "view",
      "type": "function"
    },
    {
      "inputs": [],
      "name": "totalRound2Users",
      "outputs": [
        {
          "internalType": "uint256",
          "name": "",
          "type": "uint256"
        }
      ],
      "stateMutability": "view",
      "type": "function"
    },
    {
      "inputs": [],
      "name": "totalRound2UsersClaim",
      "outputs": [
        {
          "internalType": "uint256",
          "name": "",
          "type": "uint256"
        }
      ],
      "stateMutability": "view",
      "type": "function"
    },
    {
      "inputs": [
        {
          "internalType": "address",
          "name": "user",
          "type": "address"
        }
      ],
      "name": "totalSaleUserAmount",
      "outputs": [
        {
          "internalType": "uint256",
          "name": "_realPayAmount",
          "type": "uint256"
        },
        {
          "internalType": "uint256",
          "name": "_realSaleAmount",
          "type": "uint256"
        },
        {
          "internalType": "uint256",
          "name": "_refundAmount",
          "type": "uint256"
        }
      ],
      "stateMutability": "view",
      "type": "function"
    },
    {
      "inputs": [],
      "name": "totalUsers",
      "outputs": [
        {
          "internalType": "uint256",
          "name": "",
          "type": "uint256"
        }
      ],
      "stateMutability": "view",
      "type": "function"
    },
    {
      "inputs": [],
      "name": "totalWhitelists",
      "outputs": [
        {
          "internalType": "uint256",
          "name": "",
          "type": "uint256"
        }
      ],
      "stateMutability": "view",
      "type": "function"
    },
    {
      "inputs": [
        {
          "internalType": "address",
          "name": "newAdmin",
          "type": "address"
        }
      ],
      "name": "transferAdmin",
      "outputs": [],
      "stateMutability": "nonpayable",
      "type": "function"
    },
    {
      "inputs": [
        {
          "internalType": "address",
          "name": "newAdmin",
          "type": "address"
        }
      ],
      "name": "transferProxyAdmin",
      "outputs": [],
      "stateMutability": "nonpayable",
      "type": "function"
    },
    {
      "inputs": [],
      "name": "uniswapRouter",
      "outputs": [
        {
          "internalType": "contract ISwapRouter",
          "name": "",
          "type": "address"
        }
      ],
      "stateMutability": "view",
      "type": "function"
    },
    {
      "inputs": [
        {
          "internalType": "address",
          "name": "",
          "type": "address"
        }
      ],
      "name": "usersClaim",
      "outputs": [
        {
          "internalType": "bool",
          "name": "exec",
          "type": "bool"
        },
        {
          "internalType": "uint256",
          "name": "claimAmount",
          "type": "uint256"
        },
        {
          "internalType": "uint256",
          "name": "refundAmount",
          "type": "uint256"
        }
      ],
      "stateMutability": "view",
      "type": "function"
    },
    {
      "inputs": [
        {
          "internalType": "address",
          "name": "",
          "type": "address"
        }
      ],
      "name": "usersEx",
      "outputs": [
        {
          "internalType": "bool",
          "name": "join",
          "type": "bool"
        },
        {
          "internalType": "uint256",
          "name": "tier",
          "type": "uint256"
        },
        {
          "internalType": "uint256",
          "name": "payAmount",
          "type": "uint256"
        },
        {
          "internalType": "uint256",
          "name": "saleAmount",
          "type": "uint256"
        }
      ],
      "stateMutability": "view",
      "type": "function"
    },
    {
      "inputs": [
        {
          "internalType": "address",
          "name": "",
          "type": "address"
        }
      ],
      "name": "usersOpen",
      "outputs": [
        {
          "internalType": "bool",
          "name": "join",
          "type": "bool"
        },
        {
          "internalType": "uint256",
          "name": "depositAmount",
          "type": "uint256"
        },
        {
          "internalType": "uint256",
          "name": "payAmount",
          "type": "uint256"
        }
      ],
      "stateMutability": "view",
      "type": "function"
    },
    {
      "inputs": [
        {
          "internalType": "uint256",
          "name": "",
          "type": "uint256"
        }
      ],
      "name": "whitelists",
      "outputs": [
        {
          "internalType": "address",
          "name": "",
          "type": "address"
        }
      ],
      "stateMutability": "view",
      "type": "function"
    },
    {
      "inputs": [],
      "name": "wton",
      "outputs": [
        {
          "internalType": "address",
          "name": "",
          "type": "address"
        }
      ],
      "stateMutability": "view",
      "type": "function"
    }
  ],
  "bytecode": "0x608060405260006001556000600455600060055560006006556000600755600060085560006009556000600a556000600b556000600c556000600d556000600e556000600f55600060105534801561005657600080fd5b506001603755615983806200006c6000396000f3fe608060405234801561001057600080fd5b50600436106105e05760003560e01c806389f395de11610307578063bfc630b11161019e578063e985e367116100ef578063f3e16d481161009d578063f3e16d4814610ba1578063f47f2f1d14610bb4578063fb86a40414610bc7578063fbd9070f14610bcf578063fe404c9614610bd7578063fe4d5add14610bea578063ff6dac7614610bfd576105e0565b8063e985e36714610b48578063eaff056d14610b50578063eb685c4714610b58578063eb8445f814610b6b578063ed5131f514610b73578063f0fbf32d14610b86578063f18d20be14610b99576105e0565b8063d21eb9081161014c578063d21eb90814610ae4578063d539139314610af7578063d547741f14610aff578063dc560fcd14610b12578063e016bac414610b1a578063e30821c614610b22578063e4b2fb7914610b35576105e0565b8063bfc630b114610a7b578063bfc93b0c14610a83578063bff1f9e114610a96578063c3e5763514610a9e578063c5408d5014610aa6578063ca15c87314610aae578063cae9ce1b14610ac1576105e0565b80639f87b77f11610258578063aa5bbf5511610206578063aa5bbf5514610a0a578063ae6fa04514610a1d578063b569176714610a30578063b7182b9514610a43578063b960ca0414610a4b578063be72f2d314610a53578063bf235a1514610a5b576105e0565b80639f87b77f146109c7578063a055e625146109cf578063a1b89b70146109d7578063a217fddf146109df578063a389595f146109e7578063a38ffdea146109ef578063a55abb1714610a02576105e0565b806394f641d5116102b557806394f641d514610979578063952526921461098157806396f1557c146109895780639711715a1461099c57806398d97da4146109a45780639a202d47146109b75780639d18fde7146109bf576105e0565b806389f395de146109205780638a19c8bc146109285780638d62d949146109305780638f68711a146109385780639010d07c1461094b578063907784231461095e57806391d1485414610966576105e0565b806351d28a7e1161047b57806370480275116103cc5780637a40624b1161037a5780637a40624b146108d25780637dc2cd98146108da5780637e2eee53146108e25780637ecd5c70146108ea5780638181e847146108fd57806381a9f6d7146109055780638356ca4f1461090d576105e0565b8063704802751461087957806370e5410a1461088c578063735de9f71461089457806375829def1461089c57806375b238fc146108af5780637676ee32146108b7578063768b821f146108ca576105e0565b806366ce72711161042957806366ce72711461080a57806367b399a51461081257806369048005146108255780636bbe48af146108385780636c2308391461084b5780636e0e0da21461085e5780636e59abbb14610866576105e0565b806351d28a7e146107a257806351ebde6d146107aa578063590088bc146107b25780635f1af712146107d457806360a2a25c146107e757806361a33427146107fa57806363a8fd8914610802576105e0565b806328e50f4b1161053557806341c04d5e116104e357806341c04d5e1461072f57806341c0cb771461073757806347e7ef2414610759578063494600ea1461076c5780634dd199211461077f5780634de389c4146107875780634e71d92d1461079a576105e0565b806328e50f4b146106d65780632cbf3188146106de5780632dcdbfd3146106e65780632f2ff15d146106f957806336568abe1461070c57806337bf07191461071f5780633ef541b514610727576105e0565b8063218183a311610592578063218183a31461066357806321df0da714610676578063226bf1a41461068b578063248a9ca31461069357806324d7806c146106a6578063256019d6146106c6578063282c51f3146106ce576105e0565b8063039af9eb146105e5578063089fe6aa1461060e5780630a888550146106235780630b433a12146106385780631a1197e7146106405780631bfc751e146106535780631c53f2561461065b575b600080fd5b6105f86105f3366004614b70565b610c10565b6040516106059190614deb565b60405180910390f35b610616610c22565b6040516106059190615714565b610636610631366004614cef565b610c28565b005b6105f8610d8e565b6105f861064e366004614a01565b610d94565b6105f8610e83565b6105f8610e89565b610636610671366004614cef565b610e8f565b61067e611073565b6040516106059190614d20565b6105f8611082565b6105f86106a1366004614b70565b611088565b6106b96106b4366004614a01565b61109d565b6040516106059190614dab565b6105f86110bd565b6105f86110c3565b6105f86110e7565b6105f8611116565b6106366106f4366004614cef565b61114b565b610636610707366004614b88565b6112b1565b61063661071a366004614b88565b611318565b61067e611379565b6105f8611388565b6105f861138e565b61074a610745366004614a01565b6113a0565b60405161060593929190614db6565b610636610767366004614a1b565b6113c5565b6105f861077a366004614a1b565b611546565b61067e6115a7565b610636610795366004614baa565b6115b6565b6106366116b0565b6105f8611a32565b6105f8611a38565b6107c56107c0366004614a01565b611a3e565b60405161060593929190615732565b6107c56107e2366004614a1b565b611ac7565b6105f86107f5366004614b70565b611c5b565b6105f8611c80565b6106b9611c86565b6105f8611c8f565b6105f8610820366004614b70565b611c95565b6105f8610833366004614b70565b611ca7565b6105f8610846366004614b70565b611cb9565b610636610859366004614b70565b611cc3565b610636611d76565b610636610874366004614a44565b6122a2565b610636610887366004614a01565b61231b565b6105f861237a565b61067e6123bc565b6106366108aa366004614a01565b6123cb565b6105f86124fb565b6106366108c5366004614a78565b61251f565b6105f8612605565b6105f861260b565b6105f8612611565b6105f8612617565b6105f86108f8366004614a01565b61261d565b6106366128f2565b6105f8612aa6565b61063661091b366004614a01565b612aac565b61067e612bb3565b6105f8612bc2565b61067e612c30565b6105f8610946366004614b70565b612c3f565b61067e610959366004614baa565b612c51565b6105f8612c69565b6106b9610974366004614b88565b612c82565b6105f8612c9a565b6105f8612ca0565b610636610997366004614a01565b612ca6565b6105f8612cf5565b6107c56109b2366004614a01565b612cfb565b610636612dad565b6105f8612e1a565b6105f8612e20565b6105f8612e26565b6105f8612e2c565b6105f8612e32565b6105f8612e37565b6105f86109fd366004614b70565b612e3d565b6105f8612e5b565b6105f8610a18366004614bcb565b612e61565b6105f8610a2b366004614b70565b612e68565b610636610a3e366004614baa565b612ec5565b61067e612fae565b6105f8612fbd565b610636612fc3565b610a6e610a69366004614baa565b613012565b6040516106059190614d67565b6105f861319f565b610636610a91366004614c78565b6131a5565b6105f8613345565b6105f861334b565b6105f8613351565b6105f8610abc366004614b70565b613357565b610ad4610acf366004614a01565b61336e565b6040516106059493929190614dce565b610636610af2366004614aa4565b613399565b6105f861367b565b610636610b0d366004614b88565b61369f565b6105f86136f8565b6105f86136fe565b610636610b30366004614a01565b613704565b61067e610b43366004614b70565b613779565b61067e6137a3565b6105f86137b2565b610636610b66366004614baa565b6137b8565b6105f8613893565b6105f8610b81366004614b70565b613899565b610636610b94366004614a1b565b6138ba565b6106b9613ada565b610636610baf366004614baa565b613ae3565b6106b9610bc2366004614a01565b613ba5565b6105f8613bb1565b6105f8613bb7565b6105f8610be5366004614b70565b613ca3565b61067e610bf8366004614b70565b613cb3565b61074a610c0b366004614a01565b613cc3565b60326020526000908152604090205481565b610bb881565b610c313361109d565b80610c405750610c4033613ba5565b610c7b5760405162461bcd60e51b81526004018080602001828103825260228152602001806157da6022913960400191505060405180910390fd5b8360008111610ca55760405162461bcd60e51b8152600401610c9c90615470565b60405180910390fd5b8360008111610cc65760405162461bcd60e51b8152600401610c9c90615470565b8360008111610ce75760405162461bcd60e51b8152600401610c9c90615470565b8360008111610d085760405162461bcd60e51b8152600401610c9c90615470565b6004541580610d2557506000600454118015610d25575060045442105b610d415760405162461bcd60e51b8152600401610c9c906155e4565b8688108015610d4f57508587105b8015610d5a57508486105b610d765760405162461bcd60e51b8152600401610c9c90614e60565b50505060049490945560059290925560065560075550565b60165481565b6001600160a01b0381166000908152602f6020526040812081610db68461261d565b825490915060ff1615156001148015610dcf5750600081115b15610e15576000818152603360209081526040808320546035909252822054601254610e0a9261271092610e04928391613ce8565b90613d41565b9350610e7e92505050565b8015610e7757600081815260336020526040812054610e35906001613d83565b90506000610e6b612710610e0484610e046035600089815260200190815260200160002054601254613ce890919063ffffffff16565b9450610e7e9350505050565b6000925050505b919050565b600a5481565b601c5481565b610e983361109d565b80610ea75750610ea733613ba5565b610ee25760405162461bcd60e51b81526004018080602001828103825260228152602001806157da6022913960400191505060405180910390fd5b8360008111610f035760405162461bcd60e51b8152600401610c9c90615470565b8360008111610f245760405162461bcd60e51b8152600401610c9c90615470565b8360008111610f455760405162461bcd60e51b8152600401610c9c90615470565b8360008111610f665760405162461bcd60e51b8152600401610c9c90615470565b6004541580610f8357506000600454118015610f83575060045442105b610f9f5760405162461bcd60e51b8152600401610c9c906155e4565b610fb585610faf88818c8c613d83565b90613d83565b61271014610fd55760405162461bcd60e51b8152600401610c9c906151d1565b5050603560205250507f8e3caac72b6c5bb0462da38c8c8c3b5fbc00a646bd75367c23c11d594c4e36c9939093557ff45abd214a7998af36d567f4bc75c5d50e868cf767d965b54d3b0f5c6200ab64919091557fe5602d426990c0b7b248ffeae167f30eba43086d790c7aa793e2bf3d0e5939195560046000527f80eb70dc00a20ebf6b218a7aea19e260b164cf97e49b31f047fca6f74f8ff9ad55565b6025546001600160a01b031681565b60155481565b60009081526036602052604090206002015490565b60006110b76000805160206157ba83398151915283612c82565b92915050565b602c5481565b7f9667e80708b6eeeb0053fa0cca44e028ff548e2a9f029edfeac87c118b08b7c881565b60006007544210156110fc5750601354611113565b611110611107612c69565b60135490613d83565b90505b90565b600080611124601154612e3d565b905060006111306110e7565b90508082101561114257509050611113565b91506111139050565b6111543361109d565b80611163575061116333613ba5565b61119e5760405162461bcd60e51b81526004018080602001828103825260228152602001806157da6022913960400191505060405180910390fd5b83600081116111bf5760405162461bcd60e51b8152600401610c9c90615470565b83600081116111e05760405162461bcd60e51b8152600401610c9c90615470565b83600081116112015760405162461bcd60e51b8152600401610c9c90615470565b83600081116112225760405162461bcd60e51b8152600401610c9c90615470565b600454158061123f5750600060045411801561123f575060045442105b61125b5760405162461bcd60e51b8152600401610c9c906155e4565b5050603260205250506000805160206157fc833981519152939093556000805160206158948339815191529190915560008051602061581c8339815191525560046000526000805160206158ff83398151915255565b6000828152603660205260409020600201546112cf90610974613ddd565b61130a5760405162461bcd60e51b815260040180806020018281038252602f81526020018061576b602f913960400191505060405180910390fd5b6113148282613de1565b5050565b611320613ddd565b6001600160a01b0316816001600160a01b03161461136f5760405162461bcd60e51b815260040180806020018281038252602f81526020018061591f602f913960400191505060405180910390fd5b6113148282613e4a565b6028546001600160a01b031681565b60095481565b6000805160206157ba83398151915281565b60306020526000908152604090208054600182015460029092015460ff909116919083565b6002603754141561140b576040805162461bcd60e51b815260206004820152601f602482015260008051602061579a833981519152604482015290519081900360640190fd5b60026037556008544210156114325760405162461bcd60e51b8152600401610c9c90615504565b60095442106114535760405162461bcd60e51b8152600401610c9c906152b8565b6001600160a01b0382166000908152603060205260409020805460ff1661150e5760298054600180820183556000929092527fcb7c14ce178f56e2e8d86ab33ebc0ae081ba8556a00cd122038841867181caac0180546001600160a01b0319166001600160a01b038616179055815460ff191681178255600d546114d691613d83565b600d556001600160a01b0383166000908152602f60205260409020600281015461150c57600b54611508906001613d83565b600b555b505b600181015461151d9083613d83565b600182015560115461152f9083613d83565b60115561153c8284613eb3565b5050600160375550565b6001600160a01b03821660009081526030602052604081206001810154829061156f9085613d83565b9050600061159d61158b86601154613d8390919063ffffffff16565b610e04846115976110e7565b90613ce8565b9695505050505050565b6021546001600160a01b031681565b6115bf3361109d565b806115ce57506115ce33613ba5565b6116095760405162461bcd60e51b81526004018080602001828103825260228152602001806157da6022913960400191505060405180910390fd5b816000811161162a5760405162461bcd60e51b8152600401610c9c90615470565b816000811161164b5760405162461bcd60e51b8152600401610c9c90615470565b600454158061166857506000600454118015611668575060045442105b6116845760405162461bcd60e51b8152600401610c9c906155e4565b8284106116a35760405162461bcd60e51b8152600401610c9c9061523a565b5050600891909155600955565b602d6000815481106116be57fe5b90600052602060002001544210156116e85760405162461bcd60e51b8152600401610c9c906150b0565b33600090815260306020908152604080832060319092528220909161170b613bb7565b90508061178a57815460ff161515600114156117395760405162461bcd60e51b8152600401610c9c90615326565b336000908152602f602052604081206001850154600282015491929161175e91613d83565b845460ff19166001178555602554909150611783906001600160a01b0316338361434c565b5050611a2d565b600080600061179a336000611ac7565b925092509250600082116117c05760405162461bcd60e51b8152600401610c9c90615132565b600083116117e05760405162461bcd60e51b8152600401610c9c9061535d565b826117f886600101548461439e90919063ffffffff16565b10156118165760405162461bcd60e51b8152600401610c9c90615169565b6026546040516370a0823160e01b815284916001600160a01b0316906370a0823190611846903090600401614d20565b60206040518083038186803b15801561185e57600080fd5b505afa158015611872573d6000803e3d6000fd5b505050506040513d601f19601f820116820180604052508101906118969190614c60565b10156118b45760405162461bcd60e51b8152600401610c9c906153dc565b60018501546118c39084613d83565b60018601556026546118df906001600160a01b0316338561434c565b845460ff161580156118f25750855460ff165b1561191457600e54611905906001613d83565b600e55845460ff191660011785555b60008111801561192657506002850154155b156119e8576025546040516370a0823160e01b81526001600160a01b03909116906370a082319061195b903090600401614d20565b60206040518083038186803b15801561197357600080fd5b505afa158015611987573d6000803e3d6000fd5b505050506040513d601f19601f820116820180604052508101906119ab9190614c60565b8111156119ca5760405162461bcd60e51b8152600401610c9c90614df4565b600285018190556025546119e8906001600160a01b0316338361434c565b336001600160a01b03167fd8138f8a3f377c5259ca548e70e4c2de94f129f5a11036a15b69513cba2b426a84604051611a219190614deb565b60405180910390a25050505b505050565b60145481565b601f5481565b6001600160a01b0381166000908152602f6020526040812080548291829160ff1615611aaf576000806000611a7288612cfb565b925092509250611a8f846002015484613d8390919063ffffffff16565b6003850154611a9f908490613d83565b8296509650965050505050611ac0565b611ab885612cfb565b935093509350505b9193909250565b6000806000600a54421015611ae457506000915081905080611c54565b602c54841115611afc57506000915081905080611c54565b6001600160a01b03851660009081526031602052604081209080611b1f88611a3e565b92509250508160001415611b40576000806000955095509550505050611c54565b81836001015410611b5e576000806000955095509550505050611c54565b8615611bae576000611b9f6064610e04602e611b7b8c600161439e565b81548110611b8557fe5b906000526020600020015486613ce890919063ffffffff16565b96509194509250611c54915050565b6000611bb8612bc2565b905080602c54148015611bc9575087155b15611be257506001909201548103945092509050611c54565b6000805b82811015611c3157611c27611c206064610e04602e8581548110611c0657fe5b906000526020600020015489613ce890919063ffffffff16565b8390613d83565b9150600101611be6565b5088611c4e5760019094015490930395509093509150611c549050565b50505050505b9250925092565b600080611c79601554610e0460145486613ce890919063ffffffff16565b9392505050565b600e5481565b60005460ff1681565b60075481565b60336020526000908152604090205481565b60356020526000908152604090205481565b633b9aca00900490565b611ccc3361109d565b80611cdb5750611cdb33613ba5565b611d165760405162461bcd60e51b81526004018080602001828103825260228152602001806157da6022913960400191505060405180910390fd5b8060008111611d375760405162461bcd60e51b8152600401610c9c90615470565b6004541580611d5457506000600454118015611d54575060045442105b611d705760405162461bcd60e51b8152600401610c9c906155e4565b50600155565b6009544211611d975760405162461bcd60e51b8152600401610c9c90614fb9565b6000611da1613bb7565b90506000808211611dc45760405162461bcd60e51b8152600401610c9c906154c2565b600e54600d541415611e63576025546040516370a0823160e01b8152611e5c9184916001600160a01b03909116906370a0823190611e06903090600401614d20565b60206040518083038186803b158015611e1e57600080fd5b505afa158015611e32573d6000803e3d6000fd5b505050506040513d601f19601f82011682018060405250810190611e569190614c60565b9061439e565b9050611e8a565b611e87678ac7230489e80000611e5684611e56611e7e61237a565b60105490613d83565b90505b6025546040516370a0823160e01b81526001600160a01b03909116906370a0823190611eba903090600401614d20565b60206040518083038186803b158015611ed257600080fd5b505afa158015611ee6573d6000803e3d6000fd5b505050506040513d601f19601f82011682018060405250810190611f0a9190614c60565b811115611f295760405162461bcd60e51b8152600401610c9c906152ef565b60245460405163e34869d760e01b81526001600160a01b039091169063e34869d790611f59908590600401614deb565b602060405180830381600087803b158015611f7357600080fd5b505af1158015611f87573d6000803e3d6000fd5b505050506040513d601f19601f82011682018060405250810190611fab9190614b50565b506024546040516370a0823160e01b81526000916001600160a01b0316906370a0823190611fdd903090600401614d20565b60206040518083038186803b158015611ff557600080fd5b505afa158015612009573d6000803e3d6000fd5b505050506040513d601f19601f8201168201806040525081019061202d9190614c60565b60408051610100810182526024546001600160a01b03908116825260275481166020830152610bb88284015230606083015242608083015260a08201849052600060c0830181905260e0830152602254925163414bf38960e01b8152939450909291169063414bf389906120a59084906004016156ab565b602060405180830381600087803b1580156120bf57600080fd5b505af11580156120d3573d6000803e3d6000fd5b505050506040513d601f19601f820116820180604052508101906120f79190614c60565b50600061211a600f54611e5661210b611116565b601354601254611e5691613d83565b6027546040516370a0823160e01b81529192506000916001600160a01b03909116906370a0823190612150903090600401614d20565b60206040518083038186803b15801561216857600080fd5b505afa15801561217c573d6000803e3d6000fd5b505050506040513d601f19601f820116820180604052508101906121a09190614c60565b6021546027549192506121c0916001600160a01b0390811691168361434c565b6023546025546121dd916001600160a01b0391821691168761434c565b6026546001600160a01b03166122055760405162461bcd60e51b8152600401610c9c9061538c565b602654604051630852cd8d60e31b81526001600160a01b03909116906342966c6890612235908590600401614deb565b600060405180830381600087803b15801561224f57600080fd5b505af1158015612263573d6000803e3d6000fd5b50505050336001600160a01b03167f27084c94a254e82dc8973b962810cb320efedce3c641c38244a13a32eb8fff088688604051611a21929190615724565b6122ab3361109d565b806122ba57506122ba33613ba5565b6122f55760405162461bcd60e51b81526004018080602001828103825260228152602001806157da6022913960400191505060405180910390fd5b61230882358360015b6020020135613ae3565b61131481358260015b60200201356137b8565b61232433613ba5565b61235f5760405162461bcd60e51b815260040180806020018281038252602881526020018061583c6028913960400191505060405180910390fd5b6123776000805160206157ba833981519152826112b1565b50565b600080612388601154612e3d565b905060006123946110e7565b9050808210156123aa5760115492505050611113565b6123b381611c5b565b92505050611113565b6022546001600160a01b031681565b6123d43361109d565b806123e357506123e333613ba5565b61241e5760405162461bcd60e51b81526004018080602001828103825260228152602001806157da6022913960400191505060405180910390fd5b6001600160a01b038116612474576040805162461bcd60e51b815260206004820152601860248201527741636365737369626c653a207a65726f206164647265737360401b604482015290519081900360640190fd5b336001600160a01b03821614156124cb576040805162461bcd60e51b815260206004820152601660248201527520b1b1b2b9b9b4b136329d1039b0b6b29030b236b4b760511b604482015290519081900360640190fd5b6124e36000805160206157ba833981519152826112b1565b6123776000805160206157ba83398151915233611318565b7fdf8b4c520ffe197c5343c6f5aec59570151ef9a492f2c624fd45ddde6135ec4281565b6125283361109d565b80612537575061253733613ba5565b6125725760405162461bcd60e51b81526004018080602001828103825260228152602001806157da6022913960400191505060405180910390fd5b601d5482351080159061258b5750601e54602083013510155b801561259d5750601f54604083013510155b80156125af5750602054606083013510155b6125cb5760405162461bcd60e51b8152600401610c9c9061549a565b6125e88235602084013560408501358560035b602002013561114b565b6113148135602083013560408401358460035b6020020135610e8f565b601e5481565b60025481565b60175481565b60035481565b6028546000906001600160a01b0316806126495760405162461bcd60e51b8152600401610c9c90615208565b600160005260326020526000805160206157fc83398151915254806126805760405162461bcd60e51b8152600401610c9c90615470565b6002600052603260205260008051602061589483398151915254806126b75760405162461bcd60e51b8152600401610c9c90615470565b6003600052603260205260008051602061581c83398151915254806126ee5760405162461bcd60e51b8152600401610c9c90615470565b600460005260326020526000805160206158ff83398151915254806127255760405162461bcd60e51b8152600401610c9c90615470565b60285460015460405163277166bf60e11b81526000926001600160a01b031691634ee2cd7e91612759918c91600401614d4e565b60206040518083038186803b15801561277157600080fd5b505afa158015612785573d6000803e3d6000fd5b505050506040513d601f19601f820116820180604052508101906127a99190614c60565b6001600090815260326020526000805160206157fc833981519152549192509082108015906127f05750600260005260326020526000805160206158948339815191525482105b156127fd575060016128e6565b6002600052603260205260008051602061589483398151915254821080159061283e57506003600052603260205260008051602061581c8339815191525482105b1561284b575060026128e6565b6003600052603260205260008051602061581c83398151915254821080159061288c5750600460005260326020526000805160206158ff8339815191525482105b15612899575060036128e6565b600460005260326020526000805160206158ff8339815191525482106128c1575060046128e6565b600160005260326020526000805160206157fc833981519152548210156128e6575060005b98975050505050505050565b60026037541415612938576040805162461bcd60e51b815260206004820152601f602482015260008051602061579a833981519152604482015290519081900360640190fd5b600260375560045442101561295f5760405162461bcd60e51b8152600401610c9c9061565e565b60055442106129805760405162461bcd60e51b8152600401610c9c90614f78565b600061298b3361261d565b905060018110156129ae5760405162461bcd60e51b8152600401610c9c90614e29565b336000908152602f60205260409020805460ff161515600114156129e45760405162461bcd60e51b8152600401610c9c90615547565b602a805460018181019092557fbeced09521047d05b8960b7e7bcc1d1292cf3e4b2a6b63f48335cbde5f7545d20180546001600160a01b03191633179055815460ff19168117825581810183905560006003830181905583815260336020526040902054612a5191613d83565b60008381526033602052604090819020919091555133907fffc1b88a1c7ff4b7c84aac62283195eb1a6e771eafe7f68ddc27c7539cb0a10590612a95908590614deb565b60405180910390a250506001603755565b60085481565b612ab533613ba5565b612af05760405162461bcd60e51b815260040180806020018281038252602881526020018061583c6028913960400191505060405180910390fd5b6001600160a01b038116612b46576040805162461bcd60e51b815260206004820152601860248201527741636365737369626c653a207a65726f206164647265737360401b604482015290519081900360640190fd5b336001600160a01b0382161415612b9d576040805162461bcd60e51b815260206004820152601660248201527520b1b1b2b9b9b4b136329d1039b0b6b29030b236b4b760511b604482015290519081900360640190fd5b612ba86000826112b1565b612377600033611318565b6027546001600160a01b031681565b6000602d6001602c540381548110612bd657fe5b9060005260206000200154421115612bf15750602c54611113565b60005b602c54811015612c2c57602d8181548110612c0b57fe5b9060005260206000200154421015612c24579050611113565b600101612bf4565b5090565b6024546001600160a01b031681565b60346020526000908152604090205481565b6000828152603660205260408120611c7990836143e0565b6000611110600f5460125461439e90919063ffffffff16565b6000828152603660205260408120611c7990836143ec565b600d5481565b60045481565b612caf33613ba5565b612cea5760405162461bcd60e51b815260040180806020018281038252602881526020018061583c6028913960400191505060405180910390fd5b61237760008261130a565b60015481565b6001600160a01b038116600090815260306020526040812080548291829160ff161580612d2a57506001810154155b15612d4057600080600093509350935050611ac0565b6000612d4d866000611546565b90506000612d5a82611c5b565b600184015490915060008082841015612d8957612d77838561439e565b9050612d8284612e3d565b9150612d9c565b85600101549350612d9983612e3d565b91505b929990985091965090945050505050565b612db63361109d565b80612dc55750612dc533613ba5565b612e005760405162461bcd60e51b81526004018080602001828103825260228152602001806157da6022913960400191505060405180910390fd5b612e186000805160206157ba83398151915233611318565b565b601a5481565b601d5481565b600c5481565b602a5490565b600081565b601b5481565b600080611c79601454610e0460155486613ce890919063ffffffff16565b60105481565b6020015190565b600060075442118015612e7a57508115155b15612ebd57612eb66064610e04602e6001860381548110612e9757fe5b9060005260206000200154611597612ead611116565b600f5490613d83565b9050610e7e565b506000610e7e565b612ece3361109d565b80612edd5750612edd33613ba5565b612f185760405162461bcd60e51b81526004018080602001828103825260228152602001806157da6022913960400191505060405180910390fd5b8060008111612f395760405162461bcd60e51b8152600401610c9c90615470565b6004541580612f5657506000600454118015612f56575060045442105b612f725760405162461bcd60e51b8152600401610c9c906155e4565b601c548211158015612f865750601b548210155b612fa25760405162461bcd60e51b8152600401610c9c90615000565b50601991909155601a55565b6023546001600160a01b031681565b60125481565b612fcc33613ba5565b6130075760405162461bcd60e51b815260040180806020018281038252602881526020018061583c6028913960400191505060405180910390fd5b612e18600033611318565b60608261301e57600192505b82602c54101561302e57602c5492505b8282101561303a578291505b81602c541080613048575081155b1561305357602c5491505b600061306a61306385600161439e565b849061439e565b905060008167ffffffffffffffff8111801561308557600080fd5b506040519080825280602002602001820160405280156130af578160200160208202803683370190505b509050600754421180156130c257508415155b156131205760005b8281101561311a5760006130f76064610e04602e6130ed6001611e568d89613d83565b81548110612e9757fe5b90508083838151811061310657fe5b6020908102919091010152506001016130ca565b50613197565b60005b828110156131955760006131726064610e04602e6131466001611e568d89613d83565b8154811061315057fe5b9060005260206000200154611597601354601254613d8390919063ffffffff16565b90508083838151811061318157fe5b602090810291909101015250600101613123565b505b949350505050565b60135481565b6131ae3361109d565b806131bd57506131bd33613ba5565b6131f85760405162461bcd60e51b81526004018080602001828103825260228152602001806157da6022913960400191505060405180910390fd5b600454158061321557506000600454118015613215575060045442105b6132315760405162461bcd60e51b8152600401610c9c906155e4565b602c8590556000805b8682101561331c57602d86868481811061325057fe5b8354600181018555600094855260209485902091909402929092013591909201555081156132c857602d828154811061328557fe5b9060005260206000200154602d60018403815481106132a057fe5b9060005260206000200154106132c85760405162461bcd60e51b8152600401610c9c9061519e565b602e8484848181106132d657fe5b8354600181018555600094855260209485902091909402929092013591909201555083838381811061330457fe5b9050602002013581019050818060010192505061323a565b8060641461333c5760405162461bcd60e51b8152600401610c9c90614f4d565b50505050505050565b600b5481565b60055481565b60115481565b60008181526036602052604081206110b790614401565b602f60205260009081526040902080546001820154600283015460039093015460ff90921692909184565b6133a23361109d565b806133b157506133b133613ba5565b6133ec5760405162461bcd60e51b81526004018080602001828103825260228152602001806157da6022913960400191505060405180910390fd5b600454158061340957506000600454118015613409575060045442105b6134255760405162461bcd60e51b8152600401610c9c906155e4565b6026546040516370a0823160e01b81526000916001600160a01b0316906370a0823190613456903090600401614d20565b60206040518083038186803b15801561346e57600080fd5b505afa158015613482573d6000803e3d6000fd5b505050506040513d601f19601f820116820180604052508101906134a69190614c60565b9050863560208801350181108015906134c7575080670de0b6b3a764000011155b6134e35760405162461bcd60e51b8152600401610c9c9061557e565b848460008181106134f057fe5b905060200201358660066008811061350457fe5b6020020135106135265760405162461bcd60e51b8152600401610c9c9061544e565b600354600254873591011061354d5760405162461bcd60e51b8152600401610c9c90615083565b60208601358635106135715760405162461bcd60e51b8152600401610c9c9061562b565b831580159061357f57508382145b61359b5760405162461bcd60e51b8152600401610c9c90615423565b600154156135c8576135ac33613ba5565b6135c85760405162461bcd60e51b8152600401610c9c906153b2565b6135df883560208a013560408b01358b60036125de565b6135f9608089013560a08a013560c08b01358b60076125fb565b61360687358860016122fe565b6136166040880135886003612311565b613628608088013560a0890135612ec5565b6136328635611cc3565b61364e60208701356040880135606089013560808a0135610c28565b61366060a087013560c08801356115b6565b61367160e0870135868686866131a5565b5050505050505050565b7ff0887ba65ee2024ea881d91b74c2450ef19e1557f03bed3ea9f16b037cbe2dc981565b6000828152603660205260409020600201546136bd90610974613ddd565b61136f5760405162461bcd60e51b81526004018080602001828103825260308152602001806158646030913960400191505060405180910390fd5b60205481565b60065481565b61370d3361109d565b8061371c575061371c33613ba5565b6137575760405162461bcd60e51b81526004018080602001828103825260228152602001806157da6022913960400191505060405180910390fd5b602380546001600160a01b0319166001600160a01b0392909216919091179055565b6029818154811061378957600080fd5b6000918252602090912001546001600160a01b0316905081565b6026546001600160a01b031681565b60185481565b6137c13361109d565b806137d057506137d033613ba5565b61380b5760405162461bcd60e51b81526004018080602001828103825260228152602001806157da6022913960400191505060405180910390fd5b816000811161382c5760405162461bcd60e51b8152600401610c9c90615470565b816000811161384d5760405162461bcd60e51b8152600401610c9c90615470565b600454158061386a5750600060045411801561386a575060045442105b6138865760405162461bcd60e51b8152600401610c9c906155e4565b5050601491909155601555565b600f5481565b602d81815481106138a957600080fd5b600091825260209091200154905081565b80600081116138db5760405162461bcd60e51b8152600401610c9c90615470565b602c54600081116138fe5760405162461bcd60e51b8152600401610c9c90615470565b60026037541415613944576040805162461bcd60e51b815260206004820152601f602482015260008051602061579a833981519152604482015290519081900360640190fd5b600260375560065442101561396b5760405162461bcd60e51b8152600401610c9c90614ed8565b600754421061398c5760405162461bcd60e51b8152600401610c9c906150f1565b6001600160a01b0384166000908152602f60205260409020805460ff1615156001146139ca5760405162461bcd60e51b8152600401610c9c90615271565b60006139d585612e3d565b905060006139e287610d94565b60038401549091506139f49083613d83565b811015613a135760405162461bcd60e51b8152600401610c9c90615037565b6000613a1e8861261d565b9050836002015460001415613a7957600c54613a3b906001613d83565b600c55600b54613a4c906001613d83565b600b55600081815260346020526040902054613a69906001613d83565b6000828152603460205260409020555b6002840154613a889088613d83565b60028501556003840154613a9c9084613d83565b6003850155601054613aae9088613d83565b601055600f54613abe9084613d83565b600f55613acb8789613eb3565b50506001603755505050505050565b602b5460ff1681565b613aec3361109d565b80613afb5750613afb33613ba5565b613b365760405162461bcd60e51b81526004018080602001828103825260228152602001806157da6022913960400191505060405180910390fd5b613b408282613d83565b60008111613b605760405162461bcd60e51b8152600401610c9c90615470565b6004541580613b7d57506000600454118015613b7d575060045442105b613b995760405162461bcd60e51b8152600401610c9c906155e4565b50601291909155601355565b60006110b78183612c82565b60195481565b600080613bc5611e7e61237a565b905060006019548210613c9857600e54600d541415613c7657601a546025546040516370a0823160e01b8152613c6c92606492610e04926001600160a01b03909116906370a0823190613c1c903090600401614d20565b60206040518083038186803b158015613c3457600080fd5b505afa158015613c48573d6000803e3d6000fd5b505050506040513d601f19601f820116820180604052508101906115979190614c60565b9250611113915050565b613c6c6064610e04601a54611597674563918244f40000611e56611e7e61237a565b600092505050611113565b602e81815481106138a957600080fd5b602a818154811061378957600080fd5b60316020526000908152604090208054600182015460029092015460ff909116919083565b600082613cf7575060006110b7565b82820282848281613d0457fe5b0414611c795760405162461bcd60e51b81526004018080602001828103825260218152602001806158b46021913960400191505060405180910390fd5b6000611c7983836040518060400160405280601a81526020017f536166654d6174683a206469766973696f6e206279207a65726f00000000000081525061440c565b600082820183811015611c79576040805162461bcd60e51b815260206004820152601b60248201527f536166654d6174683a206164646974696f6e206f766572666c6f770000000000604482015290519081900360640190fd5b3390565b6000828152603660205260409020613df990826144ae565b1561131457613e06613ddd565b6001600160a01b0316816001600160a01b0316837f2f8788117e7eff1d82e926ec794901d17c78024a50270940304540a733656f0d60405160405180910390a45050565b6000828152603660205260409020613e6290826144c3565b1561131457613e6f613ddd565b6001600160a01b0316816001600160a01b0316837ff6391f5c32d9c69d2a47ea670b442974b53935d1edc7fd64eb21e047a839171b60405160405180910390a45050565b8160008111613ed45760405162461bcd60e51b8152600401610c9c90615470565b816001600160a01b038116613efb5760405162461bcd60e51b8152600401610c9c90615208565b602554604051636eb1769f60e11b81526000916001600160a01b03169063dd62ed3e90613f2e9087903090600401614d34565b60206040518083038186803b158015613f4657600080fd5b505afa158015613f5a573d6000803e3d6000fd5b505050506040513d601f19601f82011682018060405250810190613f7e9190614c60565b6025546040516370a0823160e01b81529192506000916001600160a01b03909116906370a0823190613fb4908890600401614d20565b60206040518083038186803b158015613fcc57600080fd5b505afa158015613fe0573d6000803e3d6000fd5b505050506040513d601f19601f820116820180604052508101906140049190614c60565b905080821115614012578091505b8582101561427757600080614027888561439e565b9050614032816144d8565b602454604051636eb1769f60e11b815291935083916001600160a01b039091169063dd62ed3e90614069908b903090600401614d34565b602060405180830381600087803b15801561408357600080fd5b505af1158015614097573d6000803e3d6000fd5b505050506040513d601f19601f820116820180604052508101906140bb9190614c60565b10156140d95760405162461bcd60e51b8152600401610c9c906155a2565b6024546040516370a0823160e01b815283916001600160a01b0316906370a0823190614109908b90600401614d20565b60206040518083038186803b15801561412157600080fd5b505afa158015614135573d6000803e3d6000fd5b505050506040513d601f19601f820116820180604052508101906141599190614c60565b10156141775760405162461bcd60e51b8152600401610c9c90614f25565b60245461418f906001600160a01b03168830856144e1565b60245460405163f53fe70f60e01b81526001600160a01b039091169063f53fe70f906141bf908590600401614deb565b602060405180830381600087803b1580156141d957600080fd5b505af11580156141ed573d6000803e3d6000fd5b505050506040513d601f19601f820116820180604052508101906142119190614b50565b5061421c888261439e565b84101561423b5760405162461bcd60e51b8152600401610c9c90614e97565b6000614247898361439e565b111561427057614270873061425c8b8561439e565b6025546001600160a01b03169291906144e1565b50506142bb565b8582101580156142875750858110155b6142a35760405162461bcd60e51b8152600401610c9c90614e97565b6025546142bb906001600160a01b03168630896144e1565b60075442101561430b57846001600160a01b03167fc2198f7273f3b4ab95a025cf1f853777ca45149bbc1c005496959a6da70fcb8d876040516142fe9190614deb565b60405180910390a2614344565b846001600160a01b03167f2da466a7b24304f47e87fa2e1e5a81b9831ce54fec19055ce277ca2f39ba42c487604051611a219190614deb565b505050505050565b604080516001600160a01b038416602482015260448082018490528251808303909101815260649091019091526020810180516001600160e01b031663a9059cbb60e01b179052611a2d908490614541565b6000611c7983836040518060400160405280601e81526020017f536166654d6174683a207375627472616374696f6e206f766572666c6f7700008152506145f2565b6000611c79838361464c565b6000611c79836001600160a01b0384166146b0565b60006110b7826146c8565b600081836144985760405162461bcd60e51b81526004018080602001828103825283818151815260200191508051906020019080838360005b8381101561445d578181015183820152602001614445565b50505050905090810190601f16801561448a5780820380516001836020036101000a031916815260200191505b509250505060405180910390fd5b5060008385816144a457fe5b0495945050505050565b6000611c79836001600160a01b0384166146cc565b6000611c79836001600160a01b038416614716565b633b9aca000290565b604080516001600160a01b0380861660248301528416604482015260648082018490528251808303909101815260849091019091526020810180516001600160e01b03166323b872dd60e01b17905261453b908590614541565b50505050565b6000614596826040518060400160405280602081526020017f5361666545524332303a206c6f772d6c6576656c2063616c6c206661696c6564815250856001600160a01b03166147dc9092919063ffffffff16565b805190915015611a2d578080602001905160208110156145b557600080fd5b5051611a2d5760405162461bcd60e51b815260040180806020018281038252602a8152602001806158d5602a913960400191505060405180910390fd5b600081848411156146445760405162461bcd60e51b815260206004820181815283516024840152835190928392604490910191908501908083836000831561445d578181015183820152602001614445565b505050900390565b8154600090821061468e5760405162461bcd60e51b81526004018080602001828103825260228152602001806157496022913960400191505060405180910390fd5b82600001828154811061469d57fe5b9060005260206000200154905092915050565b60009081526001919091016020526040902054151590565b5490565b60006146d883836146b0565b61470e575081546001818101845560008481526020808220909301849055845484825282860190935260409020919091556110b7565b5060006110b7565b600081815260018301602052604081205480156147d2578354600019808301919081019060009087908390811061474957fe5b906000526020600020015490508087600001848154811061476657fe5b60009182526020808320909101929092558281526001898101909252604090209084019055865487908061479657fe5b600190038181906000526020600020016000905590558660010160008781526020019081526020016000206000905560019450505050506110b7565b60009150506110b7565b60606131978484600085856147f085614901565b614841576040805162461bcd60e51b815260206004820152601d60248201527f416464726573733a2063616c6c20746f206e6f6e2d636f6e7472616374000000604482015290519081900360640190fd5b600080866001600160a01b031685876040518082805190602001908083835b6020831061487f5780518252601f199092019160209182019101614860565b6001836020036101000a03801982511681845116808217855250505050505090500191505060006040518083038185875af1925050503d80600081146148e1576040519150601f19603f3d011682016040523d82523d6000602084013e6148e6565b606091505b50915091506148f6828286614907565b979650505050505050565b3b151590565b60608315614916575081611c79565b8251156149265782518084602001fd5b60405162461bcd60e51b815260206004820181815284516024840152845185939192839260440191908501908083836000831561445d578181015183820152602001614445565b80356001600160a01b0381168114610e7e57600080fd5b80604081018310156110b757600080fd5b80608081018310156110b757600080fd5b8061010081018310156110b757600080fd5b60008083601f8401126149c9578182fd5b50813567ffffffffffffffff8111156149e0578182fd5b60208301915083602080830285010111156149fa57600080fd5b9250929050565b600060208284031215614a12578081fd5b611c798261496d565b60008060408385031215614a2d578081fd5b614a368361496d565b946020939093013593505050565b60008060808385031215614a56578182fd5b614a608484614984565b9150614a6f8460408501614984565b90509250929050565b6000806101008385031215614a8b578182fd5b614a958484614995565b9150614a6f8460808501614995565b6000806000806000806000610300888a031215614abf578283fd5b614ac989896149a6565b96506101c0880189811115614adc578384fd5b61010089019650614aed8a826149a6565b9550506102c088013567ffffffffffffffff80821115614b0b578485fd5b614b178b838c016149b8565b90965094506102e08a0135915080821115614b30578384fd5b50614b3d8a828b016149b8565b989b979a50959850939692959293505050565b600060208284031215614b61578081fd5b81518015158114611c79578182fd5b600060208284031215614b81578081fd5b5035919050565b60008060408385031215614b9a578182fd5b82359150614a6f6020840161496d565b60008060408385031215614bbc578182fd5b50508035926020909101359150565b60006020808385031215614bdd578182fd5b823567ffffffffffffffff80821115614bf4578384fd5b818501915085601f830112614c07578384fd5b813581811115614c1357fe5b604051601f8201601f1916810185018381118282101715614c3057fe5b6040528181528382018501881015614c46578586fd5b818585018683013790810190930193909352509392505050565b600060208284031215614c71578081fd5b5051919050565b600080600080600060608688031215614c8f578081fd5b85359450602086013567ffffffffffffffff80821115614cad578283fd5b614cb989838a016149b8565b90965094506040880135915080821115614cd1578283fd5b50614cde888289016149b8565b969995985093965092949392505050565b60008060008060808587031215614d04578182fd5b5050823594602084013594506040840135936060013592509050565b6001600160a01b0391909116815260200190565b6001600160a01b0392831681529116602082015260400190565b6001600160a01b03929092168252602082015260400190565b6020808252825182820181905260009190848201906040850190845b81811015614d9f57835183529284019291840191600101614d83565b50909695505050505050565b901515815260200190565b92151583526020830191909152604082015260600190565b931515845260208401929092526040830152606082015260800190565b90815260200190565b6020808252818101527f5075626c696353616c653a20646f6e74206861766520726566756e6420746f6e604082015260600190565b6020808252601d908201527f5075626c696353616c653a206e65656420746f206d6f72652073544f53000000604082015260600190565b6020808252601b908201527f5075626c696353616c65203a20526f756e643174696d65206572720000000000604082015260600190565b60208082526021908201527f5075626c696353616c653a20746f6e206578636565647320616c6c6f77616e636040820152606560f81b606082015260800190565b6020808252602d908201527f5075626c696353616c653a206578636c7573697665537461727454696d65206860408201526c185cc81b9bdd081c185cdcd959609a1b606082015260800190565b6020808252600e908201526d3732b2b21036b7b932903bba37b760911b604082015260600190565b60208082526011908201527031b630b4b6a832b931b2b73a399032b93960791b604082015260600190565b60208082526021908201527f5075626c696353616c653a20656e64207468652077686974656c69737454696d6040820152606560f81b606082015260800190565b60208082526027908201527f5075626c696353616c653a206e65656420746f20656e6420746865206465706f60408201526673697454696d6560c81b606082015260800190565b6020808252601f908201527f5075626c696353616c653a206e65656420746f20736574206d696e2c6d617800604082015260600190565b6020808252602c908201527f5075626c696353616c653a206a757374206275792074696572277320616c6c6f60408201526b18d85d195908185b5bdd5b9d60a21b606082015260800190565b60208082526013908201527239b730b839b437ba103732b2b2103630ba32b960691b604082015260600190565b60208082526021908201527f5075626c696353616c653a20646f6e277420737461727420636c61696d54696d6040820152606560f81b606082015260800190565b60208082526021908201527f5075626c696353616c653a20656e6420746865206578636c757369766554696d6040820152606560f81b606082015260800190565b6020808252601e908201527f5075626c696353616c653a206e6f20707572636861736520616d6f756e740000604082015260600190565b6020808252818101527f5075626c696353616c653a20616c726561647920676574416c6c726577617264604082015260600190565b602080825260199082015278283ab13634b1a9b0b6329d1031b630b4b6ba34b6b29032b93960391b604082015260600190565b6020808252601f908201527f5075626c696353616c653a2053756d2073686f756c6420626520313030303000604082015260600190565b6020808252601890820152775075626c696353616c653a207a65726f206164647265737360401b604082015260600190565b6020808252601b908201527f5075626c696353616c65203a20526f756e643274696d65206572720000000000604082015260600190565b60208082526027908201527f5075626c696353616c653a206e6f74207265676973746572656420696e2077686040820152661a5d195b1a5cdd60ca1b606082015260800190565b6020808252601f908201527f5075626c696353616c653a20656e6420746865206465706f73697454696d6500604082015260600190565b6020808252601f908201527f5075626c696353616c653a206e6f20746f6b656e20746f207265636569766500604082015260600190565b6020808252601d908201527f5075626c696353616c653a20616c726561647920676574526566756e64000000604082015260600190565b602080825260159082015274141d589b1a58d4d85b194e881b9bc81c995dd85c99605a1b604082015260600190565b6020808252600c908201526b61646472657373207a65726f60a01b604082015260600190565b60208082526010908201526f1bdb9b1e48111053c818d85b881cd95d60821b604082015260600190565b60208082526027908201527f5075626c696353616c653a20646f6e7420686176652073616c65546f6b656e206040820152661a5b881c1bdbdb60ca1b606082015260800190565b6020808252601190820152701b995959081d1a194818db185a5b54d95d607a1b604082015260600190565b6020808252600890820152673a34b6b29032b93960c11b604082015260600190565b60208082526010908201526f5075626c696353616c653a207a65726f60801b604082015260600190565b6020808252600e908201526d3a34b2b91039b2ba1032b93937b960911b604082015260600190565b60208082526022908201527f5075626c696353616c653a20646f6e2774207061737320746865206861726443604082015261061760f41b606082015260800190565b60208082526023908201527f5075626c696353616c653a20646f6e2774207374617274206465706f73697454604082015262696d6560e81b606082015260800190565b6020808252601c908201527f5075626c696353616c653a20616c726561647920617474656e64656400000000604082015260600190565b6020808252600a908201526930b6b7bab73a1032b93960b11b604082015260600190565b60208082526022908201527f5075626c696353616c653a2077746f6e206578636565647320616c6c6f77616e604082015261636560f01b606082015260800190565b60208082526027908201527f5075626c696353616c653a206e6f74206265666f72655374617274416464576860408201526669746554696d6560c81b606082015260800190565b6020808252601990820152781dda1a5d195b1a5cdd081899599bdc99481cdb985c1cda1bdd603a1b604082015260600190565b6020808252602d908201527f5075626c696353616c653a2077686974656c697374537461727454696d65206860408201526c185cc81b9bdd081c185cdcd959609a1b606082015260800190565b81516001600160a01b03908116825260208084015182169083015260408084015162ffffff16908301526060808401518216908301526080808401519083015260a0838101519083015260c0808401519083015260e09283015116918101919091526101000190565b62ffffff91909116815260200190565b918252602082015260400190565b928352602083019190915260408201526060019056fe456e756d657261626c655365743a20696e646578206f7574206f6620626f756e6473416363657373436f6e74726f6c3a2073656e646572206d75737420626520616e2061646d696e20746f206772616e745265656e7472616e637947756172643a207265656e7472616e742063616c6c0052eafc11f6f81f86878bffd31109a0d92f37506527754f00788853ff9f63b13041636365737369626c653a2043616c6c6572206973206e6f7420616e2061646d696e0d07fe408fa264e656a9c06e272928e4d4bb400d93cd5b5e74ac592f6170c2fd1f20ec30f5e9c102cf5806d0bb8118b98c797a37ea4ca5b5c306ba879366c77c41636365737369626c653a2043616c6c6572206973206e6f7420616e2070726f78792061646d696e416363657373436f6e74726f6c3a2073656e646572206d75737420626520616e2061646d696e20746f207265766f6b659ff19f865638bb86eeeae31c2a9ec896d92141edd461fe8f31e9e7484e4d2bb5536166654d6174683a206d756c7469706c69636174696f6e206f766572666c6f775361666545524332303a204552433230206f7065726174696f6e20646964206e6f7420737563636565643f52cf82629296489b84e1dbb72f035157400392aa100335795b652755f8cdda416363657373436f6e74726f6c3a2063616e206f6e6c792072656e6f756e636520726f6c657320666f722073656c66a2646970667358221220f635c09af52bca99f0cbd2567efb88b101bbd49f1088874141ebb2edec98916764736f6c63430007060033",
  "linkReferences": {},
  "deployedLinkReferences": {}
}