{
  "_format": "hh-sol-artifact-1",
  "contractName": "PublicSale",
  "sourceName": "contracts/sale/PublicSale.sol",
  "abi": [
    {
      "anonymous": false,
      "inputs": [
        {
          "indexed": true,
          "internalType": "address",
          "name": "from",
          "type": "address"
        },
        {
          "indexed": false,
          "internalType": "uint256",
          "name": "tier",
          "type": "uint256"
        }
      ],
      "name": "AddedWhiteList",
      "type": "event"
    },
    {
      "anonymous": false,
      "inputs": [
        {
          "indexed": true,
          "internalType": "address",
          "name": "from",
          "type": "address"
        },
        {
          "indexed": false,
          "internalType": "uint256",
          "name": "amount",
          "type": "uint256"
        }
      ],
      "name": "Claimed",
      "type": "event"
    },
    {
      "anonymous": false,
      "inputs": [
        {
          "indexed": true,
          "internalType": "address",
          "name": "from",
          "type": "address"
        },
        {
          "indexed": false,
          "internalType": "uint256",
          "name": "amount",
          "type": "uint256"
        },
        {
          "indexed": false,
          "internalType": "uint256",
          "name": "liquidityAmount",
          "type": "uint256"
        }
      ],
      "name": "DepositWithdrawal",
      "type": "event"
    },
    {
      "anonymous": false,
      "inputs": [
        {
          "indexed": true,
          "internalType": "address",
          "name": "from",
          "type": "address"
        },
        {
          "indexed": false,
          "internalType": "uint256",
          "name": "amount",
          "type": "uint256"
        }
      ],
      "name": "Deposited",
      "type": "event"
    },
    {
      "anonymous": false,
      "inputs": [
        {
          "indexed": true,
          "internalType": "address",
          "name": "from",
          "type": "address"
        },
        {
          "indexed": false,
          "internalType": "uint256",
          "name": "amountIn",
          "type": "uint256"
        },
        {
          "indexed": false,
          "internalType": "uint256",
          "name": "amountOut",
          "type": "uint256"
        }
      ],
      "name": "ExchangeSwap",
      "type": "event"
    },
    {
      "anonymous": false,
      "inputs": [
        {
          "indexed": true,
          "internalType": "address",
          "name": "from",
          "type": "address"
        },
        {
          "indexed": false,
          "internalType": "uint256",
          "name": "amount",
          "type": "uint256"
        }
      ],
      "name": "ExclusiveSaled",
      "type": "event"
    },
    {
      "anonymous": false,
      "inputs": [
        {
          "indexed": true,
          "internalType": "address",
          "name": "from",
          "type": "address"
        },
        {
          "indexed": false,
          "internalType": "uint256",
          "name": "amount",
          "type": "uint256"
        }
      ],
      "name": "Refunded",
      "type": "event"
    },
    {
      "anonymous": false,
      "inputs": [
        {
          "indexed": true,
          "internalType": "bytes32",
          "name": "role",
          "type": "bytes32"
        },
        {
          "indexed": true,
          "internalType": "bytes32",
          "name": "previousAdminRole",
          "type": "bytes32"
        },
        {
          "indexed": true,
          "internalType": "bytes32",
          "name": "newAdminRole",
          "type": "bytes32"
        }
      ],
      "name": "RoleAdminChanged",
      "type": "event"
    },
    {
      "anonymous": false,
      "inputs": [
        {
          "indexed": true,
          "internalType": "bytes32",
          "name": "role",
          "type": "bytes32"
        },
        {
          "indexed": true,
          "internalType": "address",
          "name": "account",
          "type": "address"
        },
        {
          "indexed": true,
          "internalType": "address",
          "name": "sender",
          "type": "address"
        }
      ],
      "name": "RoleGranted",
      "type": "event"
    },
    {
      "anonymous": false,
      "inputs": [
        {
          "indexed": true,
          "internalType": "bytes32",
          "name": "role",
          "type": "bytes32"
        },
        {
          "indexed": true,
          "internalType": "address",
          "name": "account",
          "type": "address"
        },
        {
          "indexed": true,
          "internalType": "address",
          "name": "sender",
          "type": "address"
        }
      ],
      "name": "RoleRevoked",
      "type": "event"
    },
    {
      "inputs": [],
      "name": "ADMIN_ROLE",
      "outputs": [
        {
          "internalType": "bytes32",
          "name": "",
          "type": "bytes32"
        }
      ],
      "stateMutability": "view",
      "type": "function"
    },
    {
      "inputs": [],
      "name": "BURNER_ROLE",
      "outputs": [
        {
          "internalType": "bytes32",
          "name": "",
          "type": "bytes32"
        }
      ],
      "stateMutability": "view",
      "type": "function"
    },
    {
      "inputs": [],
      "name": "DEFAULT_ADMIN_ROLE",
      "outputs": [
        {
          "internalType": "bytes32",
          "name": "",
          "type": "bytes32"
        }
      ],
      "stateMutability": "view",
      "type": "function"
    },
    {
      "inputs": [],
      "name": "MINTER_ROLE",
      "outputs": [
        {
          "internalType": "bytes32",
          "name": "",
          "type": "bytes32"
        }
      ],
      "stateMutability": "view",
      "type": "function"
    },
    {
      "inputs": [],
      "name": "PROJECT_ADMIN_ROLE",
      "outputs": [
        {
          "internalType": "bytes32",
          "name": "",
          "type": "bytes32"
        }
      ],
      "stateMutability": "view",
      "type": "function"
    },
    {
      "inputs": [
        {
          "internalType": "uint256",
          "name": "v",
          "type": "uint256"
        }
      ],
      "name": "_toWAD",
      "outputs": [
        {
          "internalType": "uint256",
          "name": "",
          "type": "uint256"
        }
      ],
      "stateMutability": "pure",
      "type": "function"
    },
    {
      "inputs": [
        {
          "internalType": "address",
          "name": "account",
          "type": "address"
        }
      ],
      "name": "addAdmin",
      "outputs": [],
      "stateMutability": "nonpayable",
      "type": "function"
    },
    {
      "inputs": [
        {
          "internalType": "address",
          "name": "_owner",
          "type": "address"
        }
      ],
      "name": "addProxyAdmin",
      "outputs": [],
      "stateMutability": "nonpayable",
      "type": "function"
    },
    {
      "inputs": [],
      "name": "addWhiteList",
      "outputs": [],
      "stateMutability": "nonpayable",
      "type": "function"
    },
    {
      "inputs": [],
      "name": "adminWithdraw",
      "outputs": [
        {
          "internalType": "bool",
          "name": "",
          "type": "bool"
        }
      ],
      "stateMutability": "view",
      "type": "function"
    },
    {
      "inputs": [
        {
          "internalType": "address",
          "name": "_addr",
          "type": "address"
        }
      ],
      "name": "availableInitializer",
      "outputs": [
        {
          "internalType": "bool",
          "name": "result",
          "type": "bool"
        }
      ],
      "stateMutability": "view",
      "type": "function"
    },
    {
      "inputs": [
        {
          "internalType": "address",
          "name": "_account",
          "type": "address"
        },
        {
          "internalType": "uint256",
          "name": "_round",
          "type": "uint256"
        }
      ],
      "name": "calculClaimAmount",
      "outputs": [
        {
          "internalType": "uint256",
          "name": "_reward",
          "type": "uint256"
        },
        {
          "internalType": "uint256",
          "name": "_totalClaim",
          "type": "uint256"
        },
        {
          "internalType": "uint256",
          "name": "_refundAmount",
          "type": "uint256"
        }
      ],
      "stateMutability": "view",
      "type": "function"
    },
    {
      "inputs": [
        {
          "internalType": "address",
          "name": "_account",
          "type": "address"
        },
        {
          "internalType": "uint256",
          "name": "_amount",
          "type": "uint256"
        }
      ],
      "name": "calculOpenSaleAmount",
      "outputs": [
        {
          "internalType": "uint256",
          "name": "",
          "type": "uint256"
        }
      ],
      "stateMutability": "view",
      "type": "function"
    },
    {
      "inputs": [
        {
          "internalType": "uint256",
          "name": "_amount",
          "type": "uint256"
        }
      ],
      "name": "calculPayToken",
      "outputs": [
        {
          "internalType": "uint256",
          "name": "",
          "type": "uint256"
        }
      ],
      "stateMutability": "view",
      "type": "function"
    },
    {
      "inputs": [
        {
          "internalType": "uint256",
          "name": "_amount",
          "type": "uint256"
        }
      ],
      "name": "calculSaleToken",
      "outputs": [
        {
          "internalType": "uint256",
          "name": "",
          "type": "uint256"
        }
      ],
      "stateMutability": "view",
      "type": "function"
    },
    {
      "inputs": [
        {
          "internalType": "address",
          "name": "_address",
          "type": "address"
        }
      ],
      "name": "calculTier",
      "outputs": [
        {
          "internalType": "uint256",
          "name": "",
          "type": "uint256"
        }
      ],
      "stateMutability": "view",
      "type": "function"
    },
    {
      "inputs": [
        {
          "internalType": "address",
          "name": "_address",
          "type": "address"
        }
      ],
      "name": "calculTierAmount",
      "outputs": [
        {
          "internalType": "uint256",
          "name": "",
          "type": "uint256"
        }
      ],
      "stateMutability": "view",
      "type": "function"
    },
    {
      "inputs": [
        {
          "internalType": "address",
          "name": "_address",
          "type": "address"
        }
      ],
      "name": "changeFund",
      "outputs": [],
      "stateMutability": "nonpayable",
      "type": "function"
    },
    {
      "inputs": [],
      "name": "changeTOS",
      "outputs": [
        {
          "internalType": "uint256",
          "name": "",
          "type": "uint256"
        }
      ],
      "stateMutability": "view",
      "type": "function"
    },
    {
      "inputs": [],
      "name": "changeTick",
      "outputs": [
        {
          "internalType": "int24",
          "name": "",
          "type": "int24"
        }
      ],
      "stateMutability": "view",
      "type": "function"
    },
    {
      "inputs": [],
      "name": "claim",
      "outputs": [],
      "stateMutability": "nonpayable",
      "type": "function"
    },
    {
      "inputs": [],
      "name": "claimFirst",
      "outputs": [
        {
          "internalType": "uint256",
          "name": "",
          "type": "uint256"
        }
      ],
      "stateMutability": "view",
      "type": "function"
    },
    {
      "inputs": [],
      "name": "claimInterval",
      "outputs": [
        {
          "internalType": "uint256",
          "name": "",
          "type": "uint256"
        }
      ],
      "stateMutability": "view",
      "type": "function"
    },
    {
      "inputs": [
        {
          "internalType": "uint256",
          "name": "",
          "type": "uint256"
        }
      ],
      "name": "claimPercents",
      "outputs": [
        {
          "internalType": "uint256",
          "name": "",
          "type": "uint256"
        }
      ],
      "stateMutability": "view",
      "type": "function"
    },
    {
      "inputs": [],
      "name": "claimPeriod",
      "outputs": [
        {
          "internalType": "uint256",
          "name": "",
          "type": "uint256"
        }
      ],
      "stateMutability": "view",
      "type": "function"
    },
    {
      "inputs": [
        {
          "internalType": "uint256",
          "name": "",
          "type": "uint256"
        }
      ],
      "name": "claimTimes",
      "outputs": [
        {
          "internalType": "uint256",
          "name": "",
          "type": "uint256"
        }
      ],
      "stateMutability": "view",
      "type": "function"
    },
    {
      "inputs": [],
      "name": "currentRound",
      "outputs": [
        {
          "internalType": "uint256",
          "name": "round",
          "type": "uint256"
        }
      ],
      "stateMutability": "view",
      "type": "function"
    },
    {
      "inputs": [],
      "name": "delayTime",
      "outputs": [
        {
          "internalType": "uint256",
          "name": "",
          "type": "uint256"
        }
      ],
      "stateMutability": "view",
      "type": "function"
    },
    {
      "inputs": [],
      "name": "deployTime",
      "outputs": [
        {
          "internalType": "uint256",
          "name": "",
          "type": "uint256"
        }
      ],
      "stateMutability": "view",
      "type": "function"
    },
    {
      "inputs": [
        {
          "internalType": "uint256",
          "name": "_amount",
          "type": "uint256"
        }
      ],
      "name": "deposit",
      "outputs": [],
      "stateMutability": "nonpayable",
      "type": "function"
    },
    {
      "inputs": [],
      "name": "depositWithdraw",
      "outputs": [],
      "stateMutability": "nonpayable",
      "type": "function"
    },
    {
      "inputs": [
        {
          "internalType": "uint256",
          "name": "",
          "type": "uint256"
        }
      ],
      "name": "depositors",
      "outputs": [
        {
          "internalType": "address",
          "name": "",
          "type": "address"
        }
      ],
      "stateMutability": "view",
      "type": "function"
    },
    {
      "inputs": [],
      "name": "endAddWhiteTime",
      "outputs": [
        {
          "internalType": "uint256",
          "name": "",
          "type": "uint256"
        }
      ],
      "stateMutability": "view",
      "type": "function"
    },
    {
      "inputs": [],
      "name": "endDepositTime",
      "outputs": [
        {
          "internalType": "uint256",
          "name": "",
          "type": "uint256"
        }
      ],
      "stateMutability": "view",
      "type": "function"
    },
    {
      "inputs": [],
      "name": "endExclusiveTime",
      "outputs": [
        {
          "internalType": "uint256",
          "name": "",
          "type": "uint256"
        }
      ],
      "stateMutability": "view",
      "type": "function"
    },
    {
      "inputs": [],
      "name": "exchangeTOS",
      "outputs": [
        {
          "internalType": "bool",
          "name": "",
          "type": "bool"
        }
      ],
      "stateMutability": "view",
      "type": "function"
    },
    {
      "inputs": [
        {
          "internalType": "uint256",
          "name": "amountIn",
          "type": "uint256"
        }
      ],
      "name": "exchangeWTONtoTOS",
      "outputs": [
        {
          "internalType": "uint256",
          "name": "amountOut",
          "type": "uint256"
        }
      ],
      "stateMutability": "nonpayable",
      "type": "function"
    },
    {
      "inputs": [
        {
          "internalType": "uint256",
          "name": "_amount",
          "type": "uint256"
        }
      ],
      "name": "exclusiveSale",
      "outputs": [],
      "stateMutability": "nonpayable",
      "type": "function"
    },
    {
      "inputs": [
        {
          "internalType": "bytes32",
          "name": "role",
          "type": "bytes32"
        }
      ],
      "name": "getRoleAdmin",
      "outputs": [
        {
          "internalType": "bytes32",
          "name": "",
          "type": "bytes32"
        }
      ],
      "stateMutability": "view",
      "type": "function"
    },
    {
      "inputs": [],
      "name": "getToken",
      "outputs": [
        {
          "internalType": "address",
          "name": "",
          "type": "address"
        }
      ],
      "stateMutability": "view",
      "type": "function"
    },
    {
      "inputs": [],
      "name": "getTokenOwner",
      "outputs": [
        {
          "internalType": "address",
          "name": "",
          "type": "address"
        }
      ],
      "stateMutability": "view",
      "type": "function"
    },
    {
      "inputs": [
        {
          "internalType": "bytes32",
          "name": "role",
          "type": "bytes32"
        },
        {
          "internalType": "address",
          "name": "account",
          "type": "address"
        }
      ],
      "name": "grantRole",
      "outputs": [],
      "stateMutability": "nonpayable",
      "type": "function"
    },
    {
      "inputs": [],
      "name": "hardCap",
      "outputs": [
        {
          "internalType": "uint256",
          "name": "",
          "type": "uint256"
        }
      ],
      "stateMutability": "view",
      "type": "function"
    },
    {
      "inputs": [],
      "name": "hardcapCalcul",
      "outputs": [
        {
          "internalType": "uint256",
          "name": "",
          "type": "uint256"
        }
      ],
      "stateMutability": "view",
      "type": "function"
    },
    {
      "inputs": [
        {
          "internalType": "bytes32",
          "name": "role",
          "type": "bytes32"
        },
        {
          "internalType": "address",
          "name": "account",
          "type": "address"
        }
      ],
      "name": "hasRole",
      "outputs": [
        {
          "internalType": "bool",
          "name": "",
          "type": "bool"
        }
      ],
      "stateMutability": "view",
      "type": "function"
    },
    {
      "inputs": [
        {
          "internalType": "address",
          "name": "account",
          "type": "address"
        }
      ],
      "name": "isAdmin",
      "outputs": [
        {
          "internalType": "bool",
          "name": "",
          "type": "bool"
        }
      ],
      "stateMutability": "view",
      "type": "function"
    },
    {
      "inputs": [
        {
          "internalType": "address",
          "name": "account",
          "type": "address"
        }
      ],
      "name": "isProxyAdmin",
      "outputs": [
        {
          "internalType": "bool",
          "name": "",
          "type": "bool"
        }
      ],
      "stateMutability": "view",
      "type": "function"
    },
    {
      "inputs": [],
      "name": "liquidityVaultAddress",
      "outputs": [
        {
          "internalType": "address",
          "name": "",
          "type": "address"
        }
      ],
      "stateMutability": "view",
      "type": "function"
    },
    {
      "inputs": [],
      "name": "maxPer",
      "outputs": [
        {
          "internalType": "uint256",
          "name": "",
          "type": "uint256"
        }
      ],
      "stateMutability": "view",
      "type": "function"
    },
    {
      "inputs": [],
      "name": "minPer",
      "outputs": [
        {
          "internalType": "uint256",
          "name": "",
          "type": "uint256"
        }
      ],
      "stateMutability": "view",
      "type": "function"
    },
    {
      "inputs": [
        {
          "internalType": "address",
          "name": "sender",
          "type": "address"
        },
        {
          "internalType": "address",
          "name": "spender",
          "type": "address"
        },
        {
          "internalType": "uint256",
          "name": "amount",
          "type": "uint256"
        },
        {
          "internalType": "bytes",
          "name": "data",
          "type": "bytes"
        }
      ],
      "name": "onApprove",
      "outputs": [
        {
          "internalType": "bool",
          "name": "",
          "type": "bool"
        }
      ],
      "stateMutability": "nonpayable",
      "type": "function"
    },
    {
      "inputs": [
        {
          "internalType": "address",
          "name": "user",
          "type": "address"
        }
      ],
      "name": "openSaleUserAmount",
      "outputs": [
        {
          "internalType": "uint256",
          "name": "_realPayAmount",
          "type": "uint256"
        },
        {
          "internalType": "uint256",
          "name": "_realSaleAmount",
          "type": "uint256"
        },
        {
          "internalType": "uint256",
          "name": "_refundAmount",
          "type": "uint256"
        }
      ],
      "stateMutability": "view",
      "type": "function"
    },
    {
      "inputs": [],
      "name": "payTokenPrice",
      "outputs": [
        {
          "internalType": "uint256",
          "name": "",
          "type": "uint256"
        }
      ],
      "stateMutability": "view",
      "type": "function"
    },
    {
      "inputs": [],
      "name": "poolFee",
      "outputs": [
        {
          "internalType": "uint24",
          "name": "",
          "type": "uint24"
        }
      ],
      "stateMutability": "view",
      "type": "function"
    },
    {
      "inputs": [],
      "name": "quoter",
      "outputs": [
        {
          "internalType": "address",
          "name": "",
          "type": "address"
        }
      ],
      "stateMutability": "view",
      "type": "function"
    },
    {
      "inputs": [],
      "name": "removeAdmin",
      "outputs": [],
      "stateMutability": "nonpayable",
      "type": "function"
    },
    {
      "inputs": [],
      "name": "removeProxyAdmin",
      "outputs": [],
      "stateMutability": "nonpayable",
      "type": "function"
    },
    {
      "inputs": [
        {
          "internalType": "bytes32",
          "name": "role",
          "type": "bytes32"
        },
        {
          "internalType": "address",
          "name": "account",
          "type": "address"
        }
      ],
      "name": "renounceRole",
      "outputs": [],
      "stateMutability": "nonpayable",
      "type": "function"
    },
    {
      "inputs": [
        {
          "internalType": "bytes32",
          "name": "role",
          "type": "bytes32"
        },
        {
          "internalType": "address",
          "name": "account",
          "type": "address"
        }
      ],
      "name": "revokeRole",
      "outputs": [],
      "stateMutability": "nonpayable",
      "type": "function"
    },
    {
      "inputs": [],
      "name": "sTOS",
      "outputs": [
        {
          "internalType": "contract ILockTOS",
          "name": "",
          "type": "address"
        }
      ],
      "stateMutability": "view",
      "type": "function"
    },
    {
      "inputs": [],
      "name": "saleToken",
      "outputs": [
        {
          "internalType": "contract IERC20",
          "name": "",
          "type": "address"
        }
      ],
      "stateMutability": "view",
      "type": "function"
    },
    {
      "inputs": [],
      "name": "saleTokenPrice",
      "outputs": [
        {
          "internalType": "uint256",
          "name": "",
          "type": "uint256"
        }
      ],
      "stateMutability": "view",
      "type": "function"
    },
    {
      "inputs": [
        {
          "internalType": "uint256",
          "name": "_totalExpectSaleAmount",
          "type": "uint256"
        },
        {
          "internalType": "uint256",
          "name": "_totalExpectOpenSaleAmount",
          "type": "uint256"
        },
        {
          "internalType": "uint256",
          "name": "_saleTokenPrice",
          "type": "uint256"
        },
        {
          "internalType": "uint256",
          "name": "_payTokenPrice",
          "type": "uint256"
        },
        {
          "internalType": "uint256",
          "name": "_hardcapAmount",
          "type": "uint256"
        },
        {
          "internalType": "uint256",
          "name": "_changePercent",
          "type": "uint256"
        }
      ],
      "name": "setAllAmount",
      "outputs": [],
      "stateMutability": "nonpayable",
      "type": "function"
    },
    {
      "inputs": [
        {
          "internalType": "uint256[4]",
          "name": "_tier",
          "type": "uint256[4]"
        },
        {
          "internalType": "uint256[4]",
          "name": "_tierPercent",
          "type": "uint256[4]"
        }
      ],
      "name": "setAllTier",
      "outputs": [],
      "stateMutability": "nonpayable",
      "type": "function"
    },
    {
      "inputs": [
        {
          "internalType": "uint256[8]",
          "name": "_Tier",
          "type": "uint256[8]"
        },
        {
          "internalType": "uint256[6]",
          "name": "_amount",
          "type": "uint256[6]"
        },
        {
          "internalType": "uint256[8]",
          "name": "_time",
          "type": "uint256[8]"
        },
        {
          "internalType": "uint256[]",
          "name": "_claimTimes",
          "type": "uint256[]"
        },
        {
          "internalType": "uint256[]",
          "name": "_claimPercents",
          "type": "uint256[]"
        }
      ],
      "name": "setAllsetting",
      "outputs": [],
      "stateMutability": "nonpayable",
      "type": "function"
    },
    {
      "inputs": [
        {
          "internalType": "uint256",
          "name": "_claimCounts",
          "type": "uint256"
        },
        {
          "internalType": "uint256[]",
          "name": "_claimTimes",
          "type": "uint256[]"
        },
        {
          "internalType": "uint256[]",
          "name": "_claimPercents",
          "type": "uint256[]"
        }
      ],
      "name": "setEachClaim",
      "outputs": [],
      "stateMutability": "nonpayable",
      "type": "function"
    },
    {
      "inputs": [
        {
          "internalType": "uint256",
          "name": "_startAddWhiteTime",
          "type": "uint256"
        },
        {
          "internalType": "uint256",
          "name": "_endAddWhiteTime",
          "type": "uint256"
        },
        {
          "internalType": "uint256",
          "name": "_startExclusiveTime",
          "type": "uint256"
        },
        {
          "internalType": "uint256",
          "name": "_endExclusiveTime",
          "type": "uint256"
        }
      ],
      "name": "setExclusiveTime",
      "outputs": [],
      "stateMutability": "nonpayable",
      "type": "function"
    },
    {
      "inputs": [
        {
          "internalType": "uint256",
          "name": "_snapshot",
          "type": "uint256"
        },
        {
          "internalType": "uint256",
          "name": "_startDepositTime",
          "type": "uint256"
        },
        {
          "internalType": "uint256",
          "name": "_endDepositTime",
          "type": "uint256"
        }
      ],
      "name": "setOpenTime",
      "outputs": [],
      "stateMutability": "nonpayable",
      "type": "function"
    },
    {
      "inputs": [
        {
          "internalType": "uint256",
          "name": "_tier1",
          "type": "uint256"
        },
        {
          "internalType": "uint256",
          "name": "_tier2",
          "type": "uint256"
        },
        {
          "internalType": "uint256",
          "name": "_tier3",
          "type": "uint256"
        },
        {
          "internalType": "uint256",
          "name": "_tier4",
          "type": "uint256"
        }
      ],
      "name": "setTier",
      "outputs": [],
      "stateMutability": "nonpayable",
      "type": "function"
    },
    {
      "inputs": [
        {
          "internalType": "uint256",
          "name": "_tier1",
          "type": "uint256"
        },
        {
          "internalType": "uint256",
          "name": "_tier2",
          "type": "uint256"
        },
        {
          "internalType": "uint256",
          "name": "_tier3",
          "type": "uint256"
        },
        {
          "internalType": "uint256",
          "name": "_tier4",
          "type": "uint256"
        }
      ],
      "name": "setTierPercents",
      "outputs": [],
      "stateMutability": "nonpayable",
      "type": "function"
    },
    {
      "inputs": [],
      "name": "snapshot",
      "outputs": [
        {
          "internalType": "uint256",
          "name": "",
          "type": "uint256"
        }
      ],
      "stateMutability": "view",
      "type": "function"
    },
    {
      "inputs": [],
      "name": "stanTier1",
      "outputs": [
        {
          "internalType": "uint256",
          "name": "",
          "type": "uint256"
        }
      ],
      "stateMutability": "view",
      "type": "function"
    },
    {
      "inputs": [],
      "name": "stanTier2",
      "outputs": [
        {
          "internalType": "uint256",
          "name": "",
          "type": "uint256"
        }
      ],
      "stateMutability": "view",
      "type": "function"
    },
    {
      "inputs": [],
      "name": "stanTier3",
      "outputs": [
        {
          "internalType": "uint256",
          "name": "",
          "type": "uint256"
        }
      ],
      "stateMutability": "view",
      "type": "function"
    },
    {
      "inputs": [],
      "name": "stanTier4",
      "outputs": [
        {
          "internalType": "uint256",
          "name": "",
          "type": "uint256"
        }
      ],
      "stateMutability": "view",
      "type": "function"
    },
    {
      "inputs": [],
      "name": "startAddWhiteTime",
      "outputs": [
        {
          "internalType": "uint256",
          "name": "",
          "type": "uint256"
        }
      ],
      "stateMutability": "view",
      "type": "function"
    },
    {
      "inputs": [],
      "name": "startClaimTime",
      "outputs": [
        {
          "internalType": "uint256",
          "name": "",
          "type": "uint256"
        }
      ],
      "stateMutability": "view",
      "type": "function"
    },
    {
      "inputs": [],
      "name": "startDepositTime",
      "outputs": [
        {
          "internalType": "uint256",
          "name": "",
          "type": "uint256"
        }
      ],
      "stateMutability": "view",
      "type": "function"
    },
    {
      "inputs": [],
      "name": "startExclusiveTime",
      "outputs": [
        {
          "internalType": "uint256",
          "name": "",
          "type": "uint256"
        }
      ],
      "stateMutability": "view",
      "type": "function"
    },
    {
      "inputs": [
        {
          "internalType": "bytes4",
          "name": "interfaceId",
          "type": "bytes4"
        }
      ],
      "name": "supportsInterface",
      "outputs": [
        {
          "internalType": "bool",
          "name": "",
          "type": "bool"
        }
      ],
      "stateMutability": "view",
      "type": "function"
    },
    {
      "inputs": [
        {
          "internalType": "int24",
          "name": "_tick",
          "type": "int24"
        }
      ],
      "name": "tickChange",
      "outputs": [],
      "stateMutability": "nonpayable",
      "type": "function"
    },
    {
      "inputs": [
        {
          "internalType": "uint256",
          "name": "",
          "type": "uint256"
        }
      ],
      "name": "tiers",
      "outputs": [
        {
          "internalType": "uint256",
          "name": "",
          "type": "uint256"
        }
      ],
      "stateMutability": "view",
      "type": "function"
    },
    {
      "inputs": [
        {
          "internalType": "uint256",
          "name": "",
          "type": "uint256"
        }
      ],
      "name": "tiersAccount",
      "outputs": [
        {
          "internalType": "uint256",
          "name": "",
          "type": "uint256"
        }
      ],
      "stateMutability": "view",
      "type": "function"
    },
    {
      "inputs": [
        {
          "internalType": "uint256",
          "name": "",
          "type": "uint256"
        }
      ],
      "name": "tiersExAccount",
      "outputs": [
        {
          "internalType": "uint256",
          "name": "",
          "type": "uint256"
        }
      ],
      "stateMutability": "view",
      "type": "function"
    },
    {
      "inputs": [
        {
          "internalType": "uint256",
          "name": "",
          "type": "uint256"
        }
      ],
      "name": "tiersPercents",
      "outputs": [
        {
          "internalType": "uint256",
          "name": "",
          "type": "uint256"
        }
      ],
      "stateMutability": "view",
      "type": "function"
    },
    {
      "inputs": [],
      "name": "tos",
      "outputs": [
        {
          "internalType": "contract IERC20",
          "name": "",
          "type": "address"
        }
      ],
      "stateMutability": "view",
      "type": "function"
    },
    {
      "inputs": [],
      "name": "totalClaimCounts",
      "outputs": [
        {
          "internalType": "uint256",
          "name": "",
          "type": "uint256"
        }
      ],
      "stateMutability": "view",
      "type": "function"
    },
    {
      "inputs": [],
      "name": "totalDepositAmount",
      "outputs": [
        {
          "internalType": "uint256",
          "name": "",
          "type": "uint256"
        }
      ],
      "stateMutability": "view",
      "type": "function"
    },
    {
      "inputs": [],
      "name": "totalExPurchasedAmount",
      "outputs": [
        {
          "internalType": "uint256",
          "name": "",
          "type": "uint256"
        }
      ],
      "stateMutability": "view",
      "type": "function"
    },
    {
      "inputs": [],
      "name": "totalExSaleAmount",
      "outputs": [
        {
          "internalType": "uint256",
          "name": "",
          "type": "uint256"
        }
      ],
      "stateMutability": "view",
      "type": "function"
    },
    {
      "inputs": [],
      "name": "totalExpectOpenSaleAmount",
      "outputs": [
        {
          "internalType": "uint256",
          "name": "",
          "type": "uint256"
        }
      ],
      "stateMutability": "view",
      "type": "function"
    },
    {
      "inputs": [],
      "name": "totalExpectOpenSaleAmountView",
      "outputs": [
        {
          "internalType": "uint256",
          "name": "",
          "type": "uint256"
        }
      ],
      "stateMutability": "view",
      "type": "function"
    },
    {
      "inputs": [],
      "name": "totalExpectSaleAmount",
      "outputs": [
        {
          "internalType": "uint256",
          "name": "",
          "type": "uint256"
        }
      ],
      "stateMutability": "view",
      "type": "function"
    },
    {
      "inputs": [],
      "name": "totalOpenPurchasedAmount",
      "outputs": [
        {
          "internalType": "uint256",
          "name": "",
          "type": "uint256"
        }
      ],
      "stateMutability": "view",
      "type": "function"
    },
    {
      "inputs": [],
      "name": "totalOpenSaleAmount",
      "outputs": [
        {
          "internalType": "uint256",
          "name": "",
          "type": "uint256"
        }
      ],
      "stateMutability": "view",
      "type": "function"
    },
    {
      "inputs": [],
      "name": "totalRound1NonSaleAmount",
      "outputs": [
        {
          "internalType": "uint256",
          "name": "",
          "type": "uint256"
        }
      ],
      "stateMutability": "view",
      "type": "function"
    },
    {
      "inputs": [],
      "name": "totalRound1Users",
      "outputs": [
        {
          "internalType": "uint256",
          "name": "",
          "type": "uint256"
        }
      ],
      "stateMutability": "view",
      "type": "function"
    },
    {
      "inputs": [],
      "name": "totalRound2Users",
      "outputs": [
        {
          "internalType": "uint256",
          "name": "",
          "type": "uint256"
        }
      ],
      "stateMutability": "view",
      "type": "function"
    },
    {
      "inputs": [],
      "name": "totalRound2UsersClaim",
      "outputs": [
        {
          "internalType": "uint256",
          "name": "",
          "type": "uint256"
        }
      ],
      "stateMutability": "view",
      "type": "function"
    },
    {
      "inputs": [
        {
          "internalType": "address",
          "name": "user",
          "type": "address"
        }
      ],
      "name": "totalSaleUserAmount",
      "outputs": [
        {
          "internalType": "uint256",
          "name": "_realPayAmount",
          "type": "uint256"
        },
        {
          "internalType": "uint256",
          "name": "_realSaleAmount",
          "type": "uint256"
        },
        {
          "internalType": "uint256",
          "name": "_refundAmount",
          "type": "uint256"
        }
      ],
      "stateMutability": "view",
      "type": "function"
    },
    {
      "inputs": [],
      "name": "totalUsers",
      "outputs": [
        {
          "internalType": "uint256",
          "name": "",
          "type": "uint256"
        }
      ],
      "stateMutability": "view",
      "type": "function"
    },
    {
      "inputs": [],
      "name": "totalWhitelists",
      "outputs": [
        {
          "internalType": "uint256",
          "name": "",
          "type": "uint256"
        }
      ],
      "stateMutability": "view",
      "type": "function"
    },
    {
      "inputs": [
        {
          "internalType": "address",
          "name": "newAdmin",
          "type": "address"
        }
      ],
      "name": "transferAdmin",
      "outputs": [],
      "stateMutability": "nonpayable",
      "type": "function"
    },
    {
      "inputs": [
        {
          "internalType": "address",
          "name": "newAdmin",
          "type": "address"
        }
      ],
      "name": "transferProxyAdmin",
      "outputs": [],
      "stateMutability": "nonpayable",
      "type": "function"
    },
    {
      "inputs": [],
      "name": "uniswapRouter",
      "outputs": [
        {
          "internalType": "contract ISwapRouter",
          "name": "",
          "type": "address"
        }
      ],
      "stateMutability": "view",
      "type": "function"
    },
    {
      "inputs": [
        {
          "internalType": "address",
          "name": "",
          "type": "address"
        }
      ],
      "name": "usersClaim",
      "outputs": [
        {
          "internalType": "bool",
          "name": "exec",
          "type": "bool"
        },
        {
          "internalType": "uint256",
          "name": "claimAmount",
          "type": "uint256"
        },
        {
          "internalType": "uint256",
          "name": "refundAmount",
          "type": "uint256"
        }
      ],
      "stateMutability": "view",
      "type": "function"
    },
    {
      "inputs": [
        {
          "internalType": "address",
          "name": "",
          "type": "address"
        }
      ],
      "name": "usersEx",
      "outputs": [
        {
          "internalType": "bool",
          "name": "join",
          "type": "bool"
        },
        {
          "internalType": "uint256",
          "name": "tier",
          "type": "uint256"
        },
        {
          "internalType": "uint256",
          "name": "payAmount",
          "type": "uint256"
        },
        {
          "internalType": "uint256",
          "name": "saleAmount",
          "type": "uint256"
        }
      ],
      "stateMutability": "view",
      "type": "function"
    },
    {
      "inputs": [
        {
          "internalType": "address",
          "name": "",
          "type": "address"
        }
      ],
      "name": "usersOpen",
      "outputs": [
        {
          "internalType": "bool",
          "name": "join",
          "type": "bool"
        },
        {
          "internalType": "uint256",
          "name": "depositAmount",
          "type": "uint256"
        },
        {
          "internalType": "uint256",
          "name": "payAmount",
          "type": "uint256"
        }
      ],
      "stateMutability": "view",
      "type": "function"
    },
    {
      "inputs": [],
      "name": "vestingFund",
      "outputs": [
        {
          "internalType": "address",
          "name": "",
          "type": "address"
        }
      ],
      "stateMutability": "view",
      "type": "function"
    },
    {
      "inputs": [
        {
          "internalType": "uint256",
          "name": "",
          "type": "uint256"
        }
      ],
      "name": "whitelists",
      "outputs": [
        {
          "internalType": "address",
          "name": "",
          "type": "address"
        }
      ],
      "stateMutability": "view",
      "type": "function"
    },
    {
      "inputs": [],
      "name": "wton",
      "outputs": [
        {
          "internalType": "address",
          "name": "",
          "type": "address"
        }
      ],
      "stateMutability": "view",
      "type": "function"
    }
  ],
  "bytecode": "0x60806040526000805560006003556000600455600060055560006006556000600755600060085560006009556000600a556000600b556000600c556000600d556000600e556000600f5573b27308f9f90d607463bb33ea1bebb41c27ce5ab6602260006101000a8154816001600160a01b0302191690836001600160a01b0316021790555034801561009057600080fd5b50615ff780620000a16000396000f3fe608060405234801561001057600080fd5b50600436106104f55760003560e01c80638181e847116102975780638181e8471461093157806381a9f6d714610939578063822754a3146109425780638356ca4f1461094f57806389f395de146109625780638a19c8bc146109755780638d62d9491461097d5780638f68711a1461099057806390778423146109b057806391d14854146109b857806394f641d5146109cb57806395252692146109d457806396f1557c146109dd5780639711715a146109f057806397770b9a146109f957806398d97da414610a0c5780639a202d4714610a1f5780639d18fde714610a275780639f87b77f14610a30578063a055e62514610a39578063a1b89b7014610a42578063a217fddf14610a4a578063a389595f14610a52578063a38ffdea14610a5b578063a55abb1714610a6e578063b6b55f2514610a77578063b7182b9514610a8a578063b960ca0414610a9d578063be72f2d314610aa6578063bfc630b114610aae578063bfc93b0c14610ab7578063bff1f9e114610aca578063c3e5763514610ad3578063c5408d5014610adc578063c6bbd5a714610ae5578063cae9ce1b14610af8578063cf437a8f14610b53578063d21eb90814610b78578063d539139314610b8b578063d547741f14610bb2578063d844578114610bc5578063dc560fcd14610bd8578063e016bac414610be1578063e4b2fb7914610bea578063e801a9b714610bfd578063e985e36714610c10578063eaff056d14610c23578063eb8445f814610c2c578063ed5131f514610c35578063f18d20be14610c48578063f47f2f1d14610c55578063fb86a40414610c68578063fbd9070f14610c71578063fe404c9614610c79578063fe4d5add14610c8c578063ff6dac7614610c9f57600080fd5b806301ffc9a7146104fa578063039af9eb14610522578063089fe6aa146105505780630a8885501461056d5780630b433a12146105825780630b7459eb1461058b5780630be4d5f0146105ab5780630e6e12b4146105be5780631a1197e7146105d15780631bfc751e146105e45780631c53f256146105ed578063218183a3146105f657806321df0da714610609578063226bf1a41461061c578063248a9ca31461062557806324d7806c14610638578063256019d61461064b578063282c51f31461065457806328e50f4b1461067b578063298fdd3f146106835780632cbf3188146106965780632dcdbfd31461069e5780632f2ff15d146106b157806336568abe146106c457806337bf0719146106d75780633ef541b5146106ea57806341c04d5e146106f357806341c0cb77146107085780634273ca1614610758578063494600ea1461076b5780634dd199211461077e5780634e71d92d1461079157806351d28a7e1461079957806351ebde6d146107a2578063590088bc146107ab5780635f1af712146107d957806360a2a25c146107ec57806361a33427146107ff57806366ce72711461080857806367b399a514610811578063681b742f1461083157806369048005146108445780636bbe48af146108645780636e0e0da214610877578063704802751461087f57806370e5410a14610892578063735de9f71461089a57806375829def146108ad57806375b238fc146108c05780637676ee32146108e7578063768b821f146108fa5780637a40624b146109035780637dc2cd981461090c5780637e2eee53146109155780637ecd5c701461091e575b600080fd5b61050d6105083660046151f9565b610cd2565b60405190151581526020015b60405180910390f35b610542610530366004615223565b60336020526000908152604090205481565b604051908152602001610519565b610559610bb881565b60405162ffffff9091168152602001610519565b61058061057b36600461523c565b610d09565b005b61054260155481565b60245461059e906001600160a01b031681565b604051610519919061526e565b6105426105b9366004615223565b610eab565b6105806105cc366004615223565b6116c5565b6105426105df366004615297565b6116d2565b61054260095481565b610542601b5481565b61058061060436600461523c565b6117ed565b60265461059e906001600160a01b031681565b61054260145481565b610542610633366004615223565b611a14565b61050d610646366004615297565b611a29565b610542602d5481565b6105427f9667e80708b6eeeb0053fa0cca44e028ff548e2a9f029edfeac87c118b08b7c881565b610542611a43565b61050d610691366004615297565b611a6f565b610542611a93565b6105806106ac36600461523c565b611abd565b6105806106bf3660046152b4565b611c48565b6105806106d23660046152b4565b611c69565b60295461059e906001600160a01b031681565b61054260085481565b610542600080516020615ee283398151915281565b61073b610716366004615297565b60316020526000908152604090208054600182015460029092015460ff909116919083565b604080519315158452602084019290925290820152606001610519565b61050d6107663660046152e4565b611ce7565b610542610779366004615382565b611f73565b60205461059e906001600160a01b031681565b610580611fc9565b61054260135481565b610542601e5481565b6107be6107b9366004615297565b6124d9565b60408051938452602084019290925290820152606001610519565b6107be6107e7366004615382565b612593565b6105426107fa366004615223565b6127a6565b610542600d5481565b61054260065481565b61054261081f366004615223565b60346020526000908152604090205481565b61058061083f366004615297565b6127cb565b610542610852366004615223565b60366020526000908152604090205481565b610542610872366004615223565b612867565b610580612877565b61058061088d366004615297565b612ba0565b610542612bdd565b60215461059e906001600160a01b031681565b6105806108bb366004615297565b612c1b565b6105427fdf8b4c520ffe197c5343c6f5aec59570151ef9a492f2c624fd45ddde6135ec4281565b6105806108f53660046153bf565b612ccd565b610542601d5481565b61054260015481565b61054260165481565b61054260025481565b61054261092c366004615297565b612db5565b61058061307c565b61054260075481565b60375461050d9060ff1681565b61058061095d366004615297565b6132b9565b60285461059e906001600160a01b031681565b610542613342565b60255461059e906001600160a01b031681565b61054261099e366004615223565b60356020526000908152604090205481565b6105426133ca565b61050d6109c63660046152b4565b6133e3565b610542600c5481565b61054260035481565b6105806109eb366004615297565b61340e565b61054260005481565b610580610a073660046153f5565b61343e565b6107be610a1a366004615297565b613599565b610580613674565b61054260195481565b610542601c5481565b610542600b5481565b602b54610542565b610542600081565b610542601a5481565b610542610a69366004615223565b6136c2565b610542600f5481565b610580610a85366004615223565b6136e0565b60235461059e906001600160a01b031681565b61054260115481565b6105806136ea565b61054260125481565b610580610ac536600461546c565b61371a565b610542600a5481565b61054260045481565b61054260105481565b60225461059e906001600160a01b031681565b610b31610b06366004615297565b603060205260009081526040902080546001820154600283015460039093015460ff90921692909184565b6040805194151585526020850193909352918301526060820152608001610519565b603754610b6590610100900460020b81565b60405160029190910b8152602001610519565b610580610b863660046154f7565b613964565b6105427ff0887ba65ee2024ea881d91b74c2450ef19e1557f03bed3ea9f16b037cbe2dc981565b610580610bc03660046152b4565b613cef565b610580610bd33660046155a6565b613d0b565b610542601f5481565b61054260055481565b61059e610bf8366004615223565b613e4f565b610580610c0b3660046155f8565b613e79565b60275461059e906001600160a01b031681565b61054260175481565b610542600e5481565b610542610c43366004615223565b613f23565b602c5461050d9060ff1681565b61050d610c63366004615297565b613f44565b61054260185481565b610542613f50565b610542610c87366004615223565b613f8e565b61059e610c9a366004615223565b613f9e565b61073b610cad366004615297565b60326020526000908152604090208054600182015460029092015460ff909116919083565b60006001600160e01b03198216637965db0b60e01b1480610d0357506301ffc9a760e01b6001600160e01b03198316145b92915050565b610d1233611a29565b80610d215750610d2133613f44565b610d465760405162461bcd60e51b8152600401610d3d90615615565b60405180910390fd5b8360008111610d675760405162461bcd60e51b8152600401610d3d90615657565b8360008111610d885760405162461bcd60e51b8152600401610d3d90615657565b8360008111610da95760405162461bcd60e51b8152600401610d3d90615657565b8360008111610dca5760405162461bcd60e51b8152600401610d3d90615657565b6003541580610de757506000600354118015610de7575060035442105b610e035760405162461bcd60e51b8152600401610d3d90615681565b60035415610e3057610e1433613f44565b610e305760405162461bcd60e51b8152600401610d3d906156c8565b8688108015610e3e57508587105b8015610e4957508486105b610e935760405162461bcd60e51b815260206004820152601b60248201527a283ab13634b1a9b0b632901d102937bab73218ba34b6b29032b93960291b6044820152606401610d3d565b50505060039490945560049290925560055560065550565b6000808211610ef05760405162461bcd60e51b81526020600482015260116024820152701e995c9bc81a5b9c1d5d08185b5bdd5b9d607a1b6044820152606401610d3d565b6008544211610f515760405162461bcd60e51b815260206004820152602760248201527f5075626c696353616c653a206e65656420746f20656e6420746865206465706f60448201526673697454696d6560c81b6064820152608401610d3d565b6000610f5b613f50565b905060008111610fb85760405162461bcd60e51b815260206004820152602260248201527f5075626c696353616c653a20646f6e2774207061737320746865206861726443604482015261061760f41b6064820152608401610d3d565b6025546028546040516307f43c1960e31b815260009273__$f3ae6e43c7542422f5e25ce98464524296$__92633fa1e0c892611004926001600160a01b039081169216906004016156f2565b602060405180830381865af4158015611021573d6000803e3d6000fd5b505050506040513d601f19601f82011682018060405250810190611045919061570c565b9050600080826001600160a01b0316633850c7bd6040518163ffffffff1660e01b815260040160e060405180830381865afa158015611088573d6000803e3d6000fd5b505050506040513d601f19601f820116820180604052508101906110ac919061574b565b5050505050915091506000826001600160a01b0316116111085760405162461bcd60e51b81526020600482015260176024820152761c1bdbdb081a5cc81b9bdd081a5b9a5d1a585b1a5e9959604a1b6044820152606401610d3d565b6000611115846078613fae565b60405160016263114360e01b03198152600282810b6004830152603c6024830152604482015290915073__$f3ae6e43c7542422f5e25ce98464524296$__9063ff9ceebd90606401602060405180830381865af415801561117a573d6000803e3d6000fd5b505050506040513d601f19601f8201168201806040525081019061119e91906157de565b60020b8260020b126111fe5760405162461bcd60e51b8152602060048201526024808201527f49742773206e6f7420616c6c6f776564206368616e676564207469636b2072616044820152633733b29760e11b6064820152608401610d3d565b602554602854603754604051633e1644f160e11b8152600481018b90526001600160a01b0380891660248301529384166044820152929091166064830152610100900460020b6084820152600090819073__$f3ae6e43c7542422f5e25ce98464524296$__90637c2c89e29060a401606060405180830381865af415801561128a573d6000803e3d6000fd5b505050506040513d601f19601f820116820180604052508101906112ae91906157fb565b6022546025546028546040516001600160a01b0392831660248201529082166044820152610bb86064820152608481018f9052600060a4820181905295975092955016915060c40160408051601f198184030181529181526020820180516001600160e01b031663f7729d4360e01b1790525161132b9190615858565b6000604051808303816000865af19150503d8060008114611368576040519150601f19603f3d011682016040523d82523d6000602084013e61136d565b606091505b50915050600061137c8261416d565b90506103e861138d826103e361588a565b61139791906158bf565b9050838110156113e95760405162461bcd60e51b815260206004820152601d60248201527f5075626c696353616c65203a207072696365496d70616374206f7665720000006044820152606401610d3d565b6025546040516370a0823160e01b81526000916001600160a01b0316906370a082319061141a90309060040161526e565b602060405180830381865afa158015611437573d6000803e3d6000fd5b505050506040513d601f19601f8201168201806040525081019061145b91906158d3565b905080158015611473575060375460ff161515600114155b156114fa5760255460405163e34869d760e01b8152600481018c90526001600160a01b039091169063e34869d7906024016020604051808303816000875af11580156114c3573d6000803e3d6000fd5b505050506040513d601f19601f820116820180604052508101906114e791906158ec565b506037805460ff19166001179055611555565b8b8110156115555760405162461bcd60e51b815260206004820152602260248201527f5075626c696353616c65203a20616d6f756e74496e20697320746f6f206c6172604482015261676560f01b6064820152608401610d3d565b60408051610100810182526025546001600160a01b0390811682526028548116602080840191909152610bb883850152548116606083015242608083015260a082018f905260c0820185905286811660e0830152602154925163414bf38960e01b81529192169063414bf3899061163490849060040181516001600160a01b03908116825260208084015182169083015260408084015162ffffff16908301526060808401518216908301526080808401519083015260a0838101519083015260c0808401519083015260e09283015116918101919091526101000190565b6020604051808303816000875af1158015611653573d6000803e3d6000fd5b505050506040513d601f19601f8201168201806040525081019061167791906158d3565b604080518f815260208101839052919d5033917f0c9a2dd9acbc08df51a9e48c1bff27243255a0fef48887e8a9e2382879f3e107910160405180910390a25050505050505050505050919050565b6116cf3382614204565b50565b6001600160a01b03811660009081526030602090815260408083208151608081018352815460ff16151581526001820154938101939093526002810154918301919091526003015460608201528161172984612db5565b82519091501515600114801561173f5750600081115b1561178357600081815260346020908152604080832054603690925282205460115461177a92612710926117749283916144ce565b906144da565b95945050505050565b80156117e3576000818152603460205260408120546117a39060016144e6565b905060006117d96127106117748461177460366000898152602001908152602001600020546011546144ce90919063ffffffff16565b9695505050505050565b5060009392505050565b6117f633611a29565b80611805575061180533613f44565b6118215760405162461bcd60e51b8152600401610d3d90615615565b83600081116118425760405162461bcd60e51b8152600401610d3d90615657565b83600081116118635760405162461bcd60e51b8152600401610d3d90615657565b83600081116118845760405162461bcd60e51b8152600401610d3d90615657565b83600081116118a55760405162461bcd60e51b8152600401610d3d90615657565b60035415806118c2575060006003541180156118c2575060035442105b6118de5760405162461bcd60e51b8152600401610d3d90615681565b60016000526036602052600080516020615f4283398151915254156119225761190633613f44565b6119225760405162461bcd60e51b8152600401610d3d906156c8565b6119388561193288818c8c6144e6565b906144e6565b612710146119885760405162461bcd60e51b815260206004820152601f60248201527f5075626c696353616c653a2053756d2073686f756c64206265203130303030006044820152606401610d3d565b505060366020525050600080516020615f42833981519152939093557f49d58ea9a5daf69ab79ed6bff1f0de709220367fa3b259710db785f85d2077eb919091557fbc2f57311c21670184a5dbcdfc5939827a8f57c97f69166be8694e2ce000cebc5560046000527f4c0bd942d17410ca1f6d3278a62feef7078602605466e37de958808f1454efbd55565b60009081526038602052604090206001015490565b6000610d03600080516020615ee2833981519152836133e3565b6000600654421015611a56575060125490565b611a6a611a616133ca565b601254906144e6565b905090565b6000805415801590611a855750611a8582611a29565b15611a8e575060015b919050565b600080611aa16010546136c2565b90506000611aad611a43565b905080821015610d035750919050565b611ac633611a29565b80611ad55750611ad533613f44565b611af15760405162461bcd60e51b8152600401610d3d90615615565b8360008111611b125760405162461bcd60e51b8152600401610d3d90615657565b8360008111611b335760405162461bcd60e51b8152600401610d3d90615657565b8360008111611b545760405162461bcd60e51b8152600401610d3d90615657565b8360008111611b755760405162461bcd60e51b8152600401610d3d90615657565b6003541580611b9257506000600354118015611b92575060035442105b611bae5760405162461bcd60e51b8152600401610d3d90615681565b60016000526033602052600080516020615f228339815191525415611bf257611bd633613f44565b611bf25760405162461bcd60e51b8152600401610d3d906156c8565b505060336020525050600080516020615f2283398151915293909355600080516020615f0283398151915291909155600080516020615fa2833981519152556004600052600080516020615f8283398151915255565b611c5182611a14565b611c5a816144f2565b611c6483836144fc565b505050565b6001600160a01b0381163314611cd95760405162461bcd60e51b815260206004820152602f60248201527f416363657373436f6e74726f6c3a2063616e206f6e6c792072656e6f756e636560448201526e103937b632b9903337b91039b2b63360891b6064820152608401610d3d565b611ce38282614582565b5050565b6026546000906001600160a01b0316331480611d0d57506025546001600160a01b031633145b611d775760405162461bcd60e51b815260206004820152603560248201527f5075626c696353616c653a206f6e6c792061636365707420544f4e20616e642060448201527457544f4e20617070726f76652063616c6c6261636b60581b6064820152608401610d3d565b6026546001600160a01b03163303611ee65760405163aa5bbf5560e01b815260009073__$f3ae6e43c7542422f5e25ce98464524296$__9063aa5bbf5590611dc59087908790600401615907565b602060405180830381865af4158015611de2573d6000803e3d6000fd5b505050506040513d601f19601f82011682018060405250810190611e0691906158d3565b905080600003611e70576005544210158015611e23575060065442105b15611e3757611e328786614204565b611ee0565b6007544210158015611e4a575060085442105b611e665760405162461bcd60e51b8152600401610d3d90615936565b611e3287866145e9565b6000611e7c8287615968565b90506005544210158015611e91575060065442105b15611ea557611ea08882614204565b611ede565b6007544210158015611eb8575060085442105b611ed45760405162461bcd60e51b8152600401610d3d90615936565b611ede88826145e9565b505b50611f67565b6025546001600160a01b03163303611f67576000611f0385612867565b90506005544210158015611f18575060065442105b15611f2c57611f278782614204565b611f65565b6007544210158015611f3f575060085442105b611f5b5760405162461bcd60e51b8152600401610d3d90615936565b611f6587826145e9565b505b50600195945050505050565b6001600160a01b0382166000908152603160205260408120600101548190611f9b90846144e6565b9050600061177a611fb7856010546144e690919063ffffffff16565b61177484611fc3611a43565b906144ce565b602e600081548110611fdd57611fdd61597b565b90600052602060002001544210156120415760405162461bcd60e51b815260206004820152602160248201527f5075626c696353616c653a20646f6e277420737461727420636c61696d54696d6044820152606560f81b6064820152608401610d3d565b336000908152603160209081526040808320603290925282209091612064613f50565b90508060000361213f57815460ff1615156001036120c45760405162461bcd60e51b815260206004820152601d60248201527f5075626c696353616c653a20616c726561647920676574526566756e640000006044820152606401610d3d565b336000908152603060205260408120600185015460028201549192916120e9916144e6565b845460ff1916600117855560028501819055602654909150612115906001600160a01b031633836147ab565b6040518181523390600080516020615f628339815191529060200160405180910390a25050505050565b600080600061214f336000612593565b925092509250600082116121a55760405162461bcd60e51b815260206004820152601e60248201527f5075626c696353616c653a206e6f20707572636861736520616d6f756e7400006044820152606401610d3d565b600083116121ed5760405162461bcd60e51b8152602060048201526015602482015274141d589b1a58d4d85b194e881b9bc81c995dd85c99605a1b6044820152606401610d3d565b8261220586600101548461480190919063ffffffff16565b10156122535760405162461bcd60e51b815260206004820181905260248201527f5075626c696353616c653a20616c726561647920676574416c6c7265776172646044820152606401610d3d565b6027546040516370a0823160e01b815284916001600160a01b0316906370a082319061228390309060040161526e565b602060405180830381865afa1580156122a0573d6000803e3d6000fd5b505050506040513d601f19601f820116820180604052508101906122c491906158d3565b10156123225760405162461bcd60e51b815260206004820152602760248201527f5075626c696353616c653a20646f6e7420686176652073616c65546f6b656e206044820152661a5b881c1bdbdb60ca1b6064820152608401610d3d565b600185015461233190846144e6565b600186015560275461234d906001600160a01b031633856147ab565b845460ff161580156123605750855460ff165b1561238257600d546123739060016144e6565b600d55845460ff191660011785555b60008111801561239457506002850154155b1561249b576026546040516370a0823160e01b81526001600160a01b03909116906370a08231906123c990309060040161526e565b602060405180830381865afa1580156123e6573d6000803e3d6000fd5b505050506040513d601f19601f8201168201806040525081019061240a91906158d3565b8111156124595760405162461bcd60e51b815260206004820181905260248201527f5075626c696353616c653a20646f6e74206861766520726566756e6420746f6e6044820152606401610d3d565b60028501819055602654612477906001600160a01b031633836147ab565b6040518181523390600080516020615f628339815191529060200160405180910390a25b60405183815233907fd8138f8a3f377c5259ca548e70e4c2de94f129f5a11036a15b69513cba2b426a906020015b60405180910390a2505050505050565b6001600160a01b03811660009081526030602090815260408083208151608081018352815460ff161580158252600183015494820194909452600282015492810192909252600301546060820152829182919061257b57600080600061253e88613599565b92509250925061255b8460400151846144e690919063ffffffff16565b606085015161256b9084906144e6565b829650965096505050505061258c565b61258485613599565b935093509350505b9193909250565b60008060006009544210156125b05750600091508190508061279f565b602d548411156125c85750600091508190508061279f565b6001600160a01b03851660009081526032602090815260408083208151606081018352815460ff161515815260018201549381019390935260020154908201529080612613886124d9565b92509250508160000361263357600080600095509550955050505061279f565b8183602001511061265157600080600095509550955050505061279f565b600061265b613342565b9050600081602d5414801561266e575088155b15612694576020850151612683908590614801565b975092955090935061279f92505050565b886000036126f4576126db6064611774602f6126b1866001614801565b815481106126c1576126c161597b565b9060005260206000200154876144ce90919063ffffffff16565b905061268385602001518261480190919063ffffffff16565b88600103612718576126836064611774602f6000815481106126c1576126c161597b565b600061277c602f61272a8c6002614801565b8154811061273a5761273a61597b565b600091825260209091200154602f6127538d6001614801565b815481106127635761276361597b565b906000526020600020015461480190919063ffffffff16565b905061278d606461177487846144ce565b985093965091945061279f9350505050565b9250925092565b6000806127c4601454611774601354866144ce90919063ffffffff16565b9392505050565b6127d433613f44565b6127f05760405162461bcd60e51b8152600401610d3d90615991565b6024546001600160a01b038083169116036128455760405162461bcd60e51b8152602060048201526015602482015274283ab13634b1a9b0b6329d1039b0b6b29030b2323960591b6044820152606401610d3d565b602480546001600160a01b0319166001600160a01b0392909216919091179055565b6000610d03633b9aca00836158bf565b602c5460ff161515600114801590612896575060375460ff1615156001145b6128f25760405162461bcd60e51b815260206004820152602760248201527f5075626c696353616c65203a206e656564207468652065786368616e676557546044820152664f4e746f544f5360c81b6064820152608401610d3d565b60006128fc613f50565b9050600061291e8261291861290f612bdd565b600f54906144e6565b90614801565b6026546040516370a0823160e01b81529192506001600160a01b0316906370a082319061294f90309060040161526e565b602060405180830381865afa15801561296c573d6000803e3d6000fd5b505050506040513d601f19601f8201168201806040525081019061299091906158d3565b8111156129df5760405162461bcd60e51b815260206004820152601f60248201527f5075626c696353616c653a206e6f20746f6b656e20746f2072656365697665006044820152606401610d3d565b602c805460ff19166001179055600e54600090612a1090612918612a01611a93565b601254601154612918916144e6565b90508015612a7757602754604051630852cd8d60e31b8152600481018390526001600160a01b03909116906342966c6890602401600060405180830381600087803b158015612a5e57600080fd5b505af1158015612a72573d6000803e3d6000fd5b505050505b6026546024546001600160a01b039182169163095ea7b39116612aa285678ac7230489e80000615968565b6040518363ffffffff1660e01b8152600401612abf9291906159d9565b6020604051808303816000875af1158015612ade573d6000803e3d6000fd5b505050506040513d601f19601f82011682018060405250810190612b0291906158ec565b50602480546040516392ca60c160e01b8152600481018590526001600160a01b03909116916392ca60c19101600060405180830381600087803b158015612b4857600080fd5b505af1158015612b5c573d6000803e3d6000fd5b505060408051858152602081018790523393507f27084c94a254e82dc8973b962810cb320efedce3c641c38244a13a32eb8fff0892500160405180910390a2505050565b612ba933613f44565b612bc55760405162461bcd60e51b8152600401610d3d90615991565b6116cf600080516020615ee283398151915282611c48565b600080612beb6010546136c2565b90506000612bf7611a43565b905080821015612c0b576010549250505090565b612c14816127a6565b9250505090565b612c2433611a29565b80612c335750612c3333613f44565b612c4f5760405162461bcd60e51b8152600401610d3d90615615565b6001600160a01b038116612c755760405162461bcd60e51b8152600401610d3d906159f2565b6001600160a01b0381163303612c9d5760405162461bcd60e51b8152600401610d3d90615a24565b612cb5600080516020615ee283398151915282611c48565b6116cf600080516020615ee283398151915233611c69565b612cd633611a29565b80612ce55750612ce533613f44565b612d015760405162461bcd60e51b8152600401610d3d90615615565b601c54823510801590612d1a5750601d54602083013510155b8015612d2c5750601e54604083013510155b8015612d3e5750601f54606083013510155b612d7b5760405162461bcd60e51b815260206004820152600e60248201526d3a34b2b91039b2ba1032b93937b960911b6044820152606401610d3d565b612d988235602084013560408501358560035b6020020135611abd565b611ce38135602083013560408401358460035b60200201356117ed565b6029546000906001600160a01b031680612de15760405162461bcd60e51b8152600401610d3d90615a54565b60016000526033602052600080516020615f228339815191525480612e185760405162461bcd60e51b8152600401610d3d90615657565b60026000526033602052600080516020615f028339815191525480612e4f5760405162461bcd60e51b8152600401610d3d90615657565b60036000526033602052600080516020615fa28339815191525480612e865760405162461bcd60e51b8152600401610d3d90615657565b60046000526033602052600080516020615f828339815191525480612ebd5760405162461bcd60e51b8152600401610d3d90615657565b6029546000805460405163277166bf60e11b815291926001600160a01b031691634ee2cd7e91612ef2918c91906004016159d9565b602060405180830381865afa158015612f0f573d6000803e3d6000fd5b505050506040513d601f19601f82011682018060405250810190612f3391906158d3565b600160009081526033602052600080516020615f2283398151915254919250908210801590612f7a575060026000526033602052600080516020615f028339815191525482105b15612f8757506001613070565b60026000526033602052600080516020615f02833981519152548210801590612fc8575060036000526033602052600080516020615fa28339815191525482105b15612fd557506002613070565b60036000526033602052600080516020615fa2833981519152548210801590613016575060046000526033602052600080516020615f828339815191525482105b1561302357506003613070565b60046000526033602052600080516020615f8283398151915254821061304b57506004613070565b60016000526033602052600080516020615f2283398151915254821015613070575060005b98975050505050505050565b6003544210156130e45760405162461bcd60e51b815260206004820152602d60248201527f5075626c696353616c653a2077686974656c697374537461727454696d65206860448201526c185cc81b9bdd081c185cdcd959609a1b6064820152608401610d3d565b600454421061313f5760405162461bcd60e51b815260206004820152602160248201527f5075626c696353616c653a20656e64207468652077686974656c69737454696d6044820152606560f81b6064820152608401610d3d565b600061314a33612db5565b9050600181101561319d5760405162461bcd60e51b815260206004820152601d60248201527f5075626c696353616c653a206e65656420746f206d6f72652073544f530000006044820152606401610d3d565b336000908152603060205260409020805460ff1615156001036132015760405162461bcd60e51b815260206004820152601c60248201527b141d589b1a58d4d85b194e88185b1c9958591e48185d1d195b99195960221b6044820152606401610d3d565b602b805460018181019092557f11c44e4875b74d31ff9fd779bf2566af7bd15b87fc985d01f5094b89e3669e4f0180546001600160a01b03191633179055815460ff1916811782558181018390556000600383018190558381526034602052604090205461326e916144e6565b600083815260346020908152604091829020929092555183815233917fffc1b88a1c7ff4b7c84aac62283195eb1a6e771eafe7f68ddc27c7539cb0a105910160405180910390a25050565b6132c233613f44565b6132de5760405162461bcd60e51b8152600401610d3d90615991565b6001600160a01b0381166133045760405162461bcd60e51b8152600401610d3d906159f2565b6001600160a01b038116330361332c5760405162461bcd60e51b8152600401610d3d90615a24565b613337600082611c48565b6116cf600033611c69565b6000602e6001602d546133559190615a86565b815481106133655761336561597b565b9060005260206000200154421061337d5750602d5490565b60005b602d548110156133c657602e818154811061339d5761339d61597b565b90600052602060002001544210156133b457919050565b806133be81615a99565b915050613380565b5090565b6000611a6a600e5460115461480190919063ffffffff16565b60009182526038602090815260408084206001600160a01b0393909316845291905290205460ff1690565b61341733613f44565b6134335760405162461bcd60e51b8152600401610d3d90615991565b6116cf60008261480d565b61344733611a29565b80613456575061345633613f44565b6134725760405162461bcd60e51b8152600401610d3d90615615565b82600081116134935760405162461bcd60e51b8152600401610d3d90615657565b82600081116134b45760405162461bcd60e51b8152600401610d3d90615657565b82600081116134d55760405162461bcd60e51b8152600401610d3d90615657565b60035415806134f2575060006003541180156134f2575060035442105b61350e5760405162461bcd60e51b8152600401610d3d90615681565b6000541561353b5761351f33613f44565b61353b5760405162461bcd60e51b8152600401610d3d906156c8565b8385106135885760405162461bcd60e51b815260206004820152601b60248201527a283ab13634b1a9b0b632901d102937bab732193a34b6b29032b93960291b6044820152606401610d3d565b505050600092909255600755600855565b6001600160a01b03811660009081526031602090815260408083208151606081018352815460ff161580158252600183015494820194909452600290910154918101919091528291829190806135f157506020810151155b156136075760008060009350935093505061258c565b6000613614866000611f73565b90506000613621826127a6565b6020840151909150600080828410156136505761363e8385614801565b9050613649846136c2565b9150613663565b85602001519350613660836136c2565b91505b929990985091965090945050505050565b61367d33611a29565b8061368c575061368c33613f44565b6136a85760405162461bcd60e51b8152600401610d3d90615615565b6136c0600080516020615ee283398151915233611c69565b565b6000806127c4601354611774601454866144ce90919063ffffffff16565b6116cf33826145e9565b6136f333613f44565b61370f5760405162461bcd60e51b8152600401610d3d90615991565b6136c0600033611c69565b61372333611a29565b80613732575061373233613f44565b61374e5760405162461bcd60e51b8152600401610d3d90615615565b600354158061376b5750600060035411801561376b575060035442105b6137875760405162461bcd60e51b8152600401610d3d90615681565b602d54156137cc5761379833613f44565b6137b45760405162461bcd60e51b8152600401610d3d906156c8565b6137c0602e60006151cb565b6137cc602f60006151cb565b602d8590556000805b8682101561391757602e8686848181106137f1576137f161597b565b8354600181018555600094855260209485902091909402929092013591909201555081156138aa57602e828154811061382c5761382c61597b565b9060005260206000200154602e6001846138469190615a86565b815481106138565761385661597b565b9060005260206000200154106138aa5760405162461bcd60e51b8152602060048201526019602482015278283ab13634b1a9b0b6329d1031b630b4b6ba34b6b29032b93960391b6044820152606401610d3d565b8383838181106138bc576138bc61597b565b90506020020135816138ce9190615968565b602f80546001810182556000919091527fa813484aef6fb598f9f753daf162068ff39ccea4075cb95e1a30f86995b5b7ee0181905590508161390f81615a99565b9250506137d5565b8060641461395b5760405162461bcd60e51b815260206004820152601160248201527031b630b4b6a832b931b2b73a399032b93960791b6044820152606401610d3d565b50505050505050565b61396d33611a29565b8061397c575061397c33613f44565b6139985760405162461bcd60e51b8152600401610d3d90615615565b60035415806139b5575060006003541180156139b5575060035442105b6139d15760405162461bcd60e51b8152600401610d3d90615681565b6027546040516370a0823160e01b81526000916001600160a01b0316906370a0823190613a0290309060040161526e565b602060405180830381865afa158015613a1f573d6000803e3d6000fd5b505050506040513d601f19601f82011682018060405250810190613a4391906158d3565b905080613a5560208901358935615968565b11158015613a6b575080670de0b6b3a764000011155b613aa45760405162461bcd60e51b815260206004820152600a60248201526930b6b7bab73a1032b93960b11b6044820152606401610d3d565b84846000818110613ab757613ab761597b565b9050602002013586600660088110613ad157613ad161597b565b602002013510613b0e5760405162461bcd60e51b81526020600482015260086024820152673a34b6b29032b93960c11b6044820152606401610d3d565b600254600154873591613b2091615968565b10613b635760405162461bcd60e51b815260206004820152601360248201527239b730b839b437ba103732b2b2103630ba32b960691b6044820152606401610d3d565b6020860135863510613bb35760405162461bcd60e51b81526020600482015260196024820152781dda1a5d195b1a5cdd081899599bdc99481cdb985c1cda1bdd603a1b6044820152606401610d3d565b8315801590613bc157508382145b613c015760405162461bcd60e51b81526020600482015260116024820152701b995959081d1a194818db185a5b54d95d607a1b6044820152606401610d3d565b60005415613c2e57613c1233613f44565b613c2e5760405162461bcd60e51b8152600401610d3d906156c8565b613c45883560208a013560408b01358b6003612d8e565b613c67604051806040016040528060018152602001603160f81b815250614817565b613c81608089013560a08a013560c08b01358b6007612dab565b613ca48735602089013560408a013560608b013560808c013560a08d0135613d0b565b613cc060208701356040880135606089013560808a0135610d09565b613cd4863560a088013560c089013561343e565b613ce560e08701358686868661371a565b5050505050505050565b613cf882611a14565b613d01816144f2565b611c648383614582565b613d1433611a29565b80613d235750613d2333613f44565b613d3f5760405162461bcd60e51b8152600401610d3d90615615565b6003541580613d5c57506000600354118015613d5c575060035442105b613d785760405162461bcd60e51b8152600401610d3d90615681565b60115415613da557613d8933613f44565b613da55760405162461bcd60e51b8152600401610d3d906156c8565b601b548111158015613db95750601a548110155b613e055760405162461bcd60e51b815260206004820152601f60248201527f5075626c696353616c653a206e65656420746f20736574206d696e2c6d6178006044820152606401610d3d565b601186905560128590556013849055601483905560188290556019819055603754610100900460020b600003613e47576037805463ffffff0019166112001790555b505050505050565b602a8181548110613e5f57600080fd5b6000918252602090912001546001600160a01b0316905081565b613e8233611a29565b80613e915750613e9133613f44565b613ead5760405162461bcd60e51b8152600401610d3d90615615565b603754600282810b610100909204900b03613f035760405162461bcd60e51b81526020600482015260166024820152755075626c696353616c653a2073616d652076616c756560501b6044820152606401610d3d565b6037805462ffffff9092166101000263ffffff0019909216919091179055565b602e8181548110613f3357600080fd5b600091825260209091200154905081565b6000610d0381836133e3565b600080613f5e61290f612bdd565b905060006018548210613f85576127c46064611774601954856144ce90919063ffffffff16565b60009250505090565b602f8181548110613f3357600080fd5b602b8181548110613e5f57600080fd5b60008163ffffffff16600003613feb5760405162461bcd60e51b8152602060048201526002602482015261042560f41b6044820152606401610d3d565b60408051600280825260608201835260009260208301908036833701905050905082816000815181106140205761402061597b565b602002602001019063ffffffff16908163ffffffff168152505060008160018151811061404f5761404f61597b565b63ffffffff9092166020928302919091019091015260405163883bdbfd60e01b81526000906001600160a01b0386169063883bdbfd90614093908590600401615ac8565b600060405180830381865afa1580156140b0573d6000803e3d6000fd5b505050506040513d6000823e601f3d908101601f191682016040526140d89190810190615bd9565b5090506000816000815181106140f0576140f061597b565b60200260200101518260018151811061410b5761410b61597b565b602002602001015161411d9190615ca4565b905061412d600386900b82615cd1565b935060008160060b128015614151575061414b600386900b82615d0f565b60060b15155b15614164578361416081615d31565b9450505b50505092915050565b600081516020146141f0576044825110156141bd5760405162461bcd60e51b815260206004820152601060248201526f2ab732bc3832b1ba32b21032b93937b960811b6044820152606401610d3d565b600482019150818060200190518101906141d79190615d54565b60405162461bcd60e51b8152600401610d3d9190615de7565b81806020019051810190610d0391906158d3565b80600081116142255760405162461bcd60e51b8152600401610d3d90615657565b602d54600081116142485760405162461bcd60e51b8152600401610d3d90615657565b6005544210156142b05760405162461bcd60e51b815260206004820152602d60248201527f5075626c696353616c653a206578636c7573697665537461727454696d65206860448201526c185cc81b9bdd081c185cdcd959609a1b6064820152608401610d3d565b600654421061430b5760405162461bcd60e51b815260206004820152602160248201527f5075626c696353616c653a20656e6420746865206578636c757369766554696d6044820152606560f81b6064820152608401610d3d565b6001600160a01b0384166000908152603060205260409020805460ff1615156001146143895760405162461bcd60e51b815260206004820152602760248201527f5075626c696353616c653a206e6f74207265676973746572656420696e2077686044820152661a5d195b1a5cdd60ca1b6064820152608401610d3d565b6000614394856136c2565b905060006143a1876116d2565b60038401549091506143b390836144e6565b8110156144175760405162461bcd60e51b815260206004820152602c60248201527f5075626c696353616c653a206a757374206275792074696572277320616c6c6f60448201526b18d85d195908185b5bdd5b9d60a21b6064820152608401610d3d565b600061442288612db5565b9050836002015460000361447c57600b5461443e9060016144e6565b600b55600a5461444f9060016144e6565b600a5560008181526035602052604090205461446c9060016144e6565b6000828152603560205260409020555b600284015461448b90886144e6565b6002850155600384015461449f90846144e6565b6003850155600f546144b190886144e6565b600f55600e546144c190846144e6565b600e55613ce5878961485a565b60006127c4828461588a565b60006127c482846158bf565b60006127c48284615968565b6116cf8133614cfa565b61450682826133e3565b611ce35760008281526038602090815260408083206001600160a01b03851684529091529020805460ff1916600117905561453e3390565b6001600160a01b0316816001600160a01b0316837f2f8788117e7eff1d82e926ec794901d17c78024a50270940304540a733656f0d60405160405180910390a45050565b61458c82826133e3565b15611ce35760008281526038602090815260408083206001600160a01b0385168085529252808320805460ff1916905551339285917ff6391f5c32d9c69d2a47ea670b442974b53935d1edc7fd64eb21e047a839171b9190a45050565b806000811161460a5760405162461bcd60e51b8152600401610d3d90615657565b6007544210156146685760405162461bcd60e51b815260206004820152602360248201527f5075626c696353616c653a20646f6e2774207374617274206465706f73697454604482015262696d6560e81b6064820152608401610d3d565b60085442106146b95760405162461bcd60e51b815260206004820152601f60248201527f5075626c696353616c653a20656e6420746865206465706f73697454696d65006044820152606401610d3d565b6001600160a01b0383166000908152603160205260409020805460ff1661477757602a8054600180820183556000929092527fbeced09521047d05b8960b7e7bcc1d1292cf3e4b2a6b63f48335cbde5f7545d20180546001600160a01b0319166001600160a01b038716179055815460ff191681178255600c5461473c916144e6565b600c556001600160a01b0384166000908152603060205260408120600281015490910361477557600a546147719060016144e6565b600a555b505b600181015461478690846144e6565b600182015560105461479890846144e6565b6010556147a5838561485a565b50505050565b611c648363a9059cbb60e01b84846040516024016147ca9291906159d9565b60408051601f198184030181529190526020810180516001600160e01b03166001600160e01b031990931692909217909152614d53565b60006127c48284615a86565b611ce382826144fc565b6116cf8160405160240161482b9190615de7565b60408051601f198184030181529190526020810180516001600160e01b031663104c13eb60e21b179052614e25565b816000811161487b5760405162461bcd60e51b8152600401610d3d90615657565b816001600160a01b0381166148a25760405162461bcd60e51b8152600401610d3d90615a54565b602654604051636eb1769f60e11b81526000916001600160a01b03169063dd62ed3e906148d590879030906004016156f2565b602060405180830381865afa1580156148f2573d6000803e3d6000fd5b505050506040513d601f19601f8201168201806040525081019061491691906158d3565b6026546040516370a0823160e01b81529192506000916001600160a01b03909116906370a082319061494c90889060040161526e565b602060405180830381865afa158015614969573d6000803e3d6000fd5b505050506040513d601f19601f8201168201806040525081019061498d91906158d3565b90508082111561499b578091505b85821015614c29576000806149b08885614801565b90506149bb81614e46565b602554604051636eb1769f60e11b815291935083916001600160a01b039091169063dd62ed3e906149f2908b9030906004016156f2565b602060405180830381865afa158015614a0f573d6000803e3d6000fd5b505050506040513d601f19601f82011682018060405250810190614a3391906158d3565b1015614a8c5760405162461bcd60e51b815260206004820152602260248201527f5075626c696353616c653a2077746f6e206578636565647320616c6c6f77616e604482015261636560f01b6064820152608401610d3d565b6025546040516370a0823160e01b815283916001600160a01b0316906370a0823190614abc908b9060040161526e565b602060405180830381865afa158015614ad9573d6000803e3d6000fd5b505050506040513d601f19601f82011682018060405250810190614afd91906158d3565b1015614b3c5760405162461bcd60e51b815260206004820152600e60248201526d3732b2b21036b7b932903bba37b760911b6044820152606401610d3d565b602554614b54906001600160a01b0316883085614e56565b60255460405163f53fe70f60e01b8152600481018490526001600160a01b039091169063f53fe70f906024016020604051808303816000875af1158015614b9f573d6000803e3d6000fd5b505050506040513d601f19601f82011682018060405250810190614bc391906158ec565b50614bce8882614801565b841015614bed5760405162461bcd60e51b8152600401610d3d90615e1a565b6000614bf98983614801565b1115614c2257614c228730614c0e8b85614801565b6026546001600160a01b0316929190614e56565b5050614c6d565b858210158015614c395750858110155b614c555760405162461bcd60e51b8152600401610d3d90615e1a565b602654614c6d906001600160a01b0316863089614e56565b600654421015614cbf57846001600160a01b03167fc2198f7273f3b4ab95a025cf1f853777ca45149bbc1c005496959a6da70fcb8d87604051614cb291815260200190565b60405180910390a2613e47565b846001600160a01b03167f2da466a7b24304f47e87fa2e1e5a81b9831ce54fec19055ce277ca2f39ba42c4876040516124c991815260200190565b614d0482826133e3565b611ce357614d1181614e8e565b614d1c836020614ea0565b604051602001614d2d929190615e5b565b60408051601f198184030181529082905262461bcd60e51b8252610d3d91600401615de7565b6000614da8826040518060400160405280602081526020017f5361666545524332303a206c6f772d6c6576656c2063616c6c206661696c6564815250856001600160a01b031661503b9092919063ffffffff16565b805190915015611c645780806020019051810190614dc691906158ec565b611c645760405162461bcd60e51b815260206004820152602a60248201527f5361666545524332303a204552433230206f7065726174696f6e20646964206e6044820152691bdd081cdd58d8d9595960b21b6064820152608401610d3d565b80516a636f6e736f6c652e6c6f67602083016000808483855afa5050505050565b6000610d0382633b9aca0061588a565b6040516001600160a01b03808516602483015283166044820152606481018290526147a59085906323b872dd60e01b906084016147ca565b6060610d036001600160a01b03831660145b60606000614eaf83600261588a565b614eba906002615968565b6001600160401b03811115614ed157614ed1615ab2565b6040519080825280601f01601f191660200182016040528015614efb576020820181803683370190505b509050600360fc1b81600081518110614f1657614f1661597b565b60200101906001600160f81b031916908160001a905350600f60fb1b81600181518110614f4557614f4561597b565b60200101906001600160f81b031916908160001a9053506000614f6984600261588a565b614f74906001615968565b90505b6001811115614fec576f181899199a1a9b1b9c1cb0b131b232b360811b85600f1660108110614fa857614fa861597b565b1a60f81b828281518110614fbe57614fbe61597b565b60200101906001600160f81b031916908160001a90535060049490941c93614fe581615eca565b9050614f77565b5083156127c45760405162461bcd60e51b815260206004820181905260248201527f537472696e67733a20686578206c656e67746820696e73756666696369656e746044820152606401610d3d565b606061504a8484600085615052565b949350505050565b6060824710156150b35760405162461bcd60e51b815260206004820152602660248201527f416464726573733a20696e73756666696369656e742062616c616e636520666f6044820152651c8818d85b1b60d21b6064820152608401610d3d565b600080866001600160a01b031685876040516150cf9190615858565b60006040518083038185875af1925050503d806000811461510c576040519150601f19603f3d011682016040523d82523d6000602084013e615111565b606091505b50915091506151228783838761512d565b979650505050505050565b6060831561519c578251600003615195576001600160a01b0385163b6151955760405162461bcd60e51b815260206004820152601d60248201527f416464726573733a2063616c6c20746f206e6f6e2d636f6e74726163740000006044820152606401610d3d565b508161504a565b61504a83838151156151b15781518083602001fd5b8060405162461bcd60e51b8152600401610d3d9190615de7565b50805460008255906000526020600020908101906116cf91905b808211156133c657600081556001016151e5565b60006020828403121561520b57600080fd5b81356001600160e01b0319811681146127c457600080fd5b60006020828403121561523557600080fd5b5035919050565b6000806000806080858703121561525257600080fd5b5050823594602084013594506040840135936060013592509050565b6001600160a01b0391909116815260200190565b6001600160a01b03811681146116cf57600080fd5b6000602082840312156152a957600080fd5b81356127c481615282565b600080604083850312156152c757600080fd5b8235915060208301356152d981615282565b809150509250929050565b6000806000806000608086880312156152fc57600080fd5b853561530781615282565b9450602086013561531781615282565b93506040860135925060608601356001600160401b038082111561533a57600080fd5b818801915088601f83011261534e57600080fd5b81358181111561535d57600080fd5b89602082850101111561536f57600080fd5b9699959850939650602001949392505050565b6000806040838503121561539557600080fd5b82356153a081615282565b946020939093013593505050565b8060808101831015610d0357600080fd5b60008061010083850312156153d357600080fd5b6153dd84846153ae565b91506153ec84608085016153ae565b90509250929050565b60008060006060848603121561540a57600080fd5b505081359360208301359350604090920135919050565b60008083601f84011261543357600080fd5b5081356001600160401b0381111561544a57600080fd5b6020830191508360208260051b850101111561546557600080fd5b9250929050565b60008060008060006060868803121561548457600080fd5b8535945060208601356001600160401b03808211156154a257600080fd5b6154ae89838a01615421565b909650945060408801359150808211156154c757600080fd5b506154d488828901615421565b969995985093965092949392505050565b806101008101831015610d0357600080fd5b6000806000806000806000610300888a03121561551357600080fd5b61551d89896154e5565b96506101c088018981111561553157600080fd5b610100890196506155428a826154e5565b9550506102c08801356001600160401b038082111561556057600080fd5b61556c8b838c01615421565b90965094506102e08a013591508082111561558657600080fd5b506155938a828b01615421565b989b979a50959850939692959293505050565b60008060008060008060c087890312156155bf57600080fd5b505084359660208601359650604086013595606081013595506080810135945060a0013592509050565b8060020b81146116cf57600080fd5b60006020828403121561560a57600080fd5b81356127c4816155e9565b60208082526022908201527f41636365737369626c653a2043616c6c6572206973206e6f7420616e2061646d60408201526134b760f11b606082015260800190565b60208082526010908201526f5075626c696353616c653a207a65726f60801b604082015260600190565b60208082526027908201527f5075626c696353616c653a206e6f74206265666f72655374617274416464576860408201526669746554696d6560c81b606082015260800190565b60208082526010908201526f1bdb9b1e48111053c818d85b881cd95d60821b604082015260600190565b6001600160a01b0392831681529116602082015260400190565b60006020828403121561571e57600080fd5b81516127c481615282565b805161ffff81168114611a8e57600080fd5b80518015158114611a8e57600080fd5b600080600080600080600060e0888a03121561576657600080fd5b875161577181615282565b6020890151909750615782816155e9565b955061579060408901615729565b945061579e60608901615729565b93506157ac60808901615729565b925060a088015160ff811681146157c257600080fd5b91506157d060c0890161573b565b905092959891949750929550565b6000602082840312156157f057600080fd5b81516127c4816155e9565b60008060006060848603121561581057600080fd5b8351925060208401519150604084015161582981615282565b809150509250925092565b60005b8381101561584f578181015183820152602001615837565b50506000910152565b6000825161586a818460208701615834565b9190910192915050565b634e487b7160e01b600052601160045260246000fd5b60008160001904831182151516156158a4576158a4615874565b500290565b634e487b7160e01b600052601260045260246000fd5b6000826158ce576158ce6158a9565b500490565b6000602082840312156158e557600080fd5b5051919050565b6000602082840312156158fe57600080fd5b6127c48261573b565b60208152816020820152818360408301376000818301604090810191909152601f909201601f19160101919050565b6020808252601890820152775075626c696353616c653a206e6f742053616c6554696d6560401b604082015260600190565b80820180821115610d0357610d03615874565b634e487b7160e01b600052603260045260246000fd5b60208082526028908201527f41636365737369626c653a2043616c6c6572206973206e6f7420616e2070726f6040820152673c3c9030b236b4b760c11b606082015260800190565b6001600160a01b03929092168252602082015260400190565b60208082526018908201527741636365737369626c653a207a65726f206164647265737360401b604082015260600190565b60208082526016908201527520b1b1b2b9b9b4b136329d1039b0b6b29030b236b4b760511b604082015260600190565b6020808252601890820152775075626c696353616c653a207a65726f206164647265737360401b604082015260600190565b81810381811115610d0357610d03615874565b600060018201615aab57615aab615874565b5060010190565b634e487b7160e01b600052604160045260246000fd5b6020808252825182820181905260009190848201906040850190845b81811015615b0657835163ffffffff1683529284019291840191600101615ae4565b50909695505050505050565b604051601f8201601f191681016001600160401b0381118282101715615b3a57615b3a615ab2565b604052919050565b60006001600160401b03821115615b5b57615b5b615ab2565b5060051b60200190565b600082601f830112615b7657600080fd5b81516020615b8b615b8683615b42565b615b12565b82815260059290921b84018101918181019086841115615baa57600080fd5b8286015b84811015615bce578051615bc181615282565b8352918301918301615bae565b509695505050505050565b60008060408385031215615bec57600080fd5b82516001600160401b0380821115615c0357600080fd5b818501915085601f830112615c1757600080fd5b81516020615c27615b8683615b42565b82815260059290921b84018101918181019089841115615c4657600080fd5b948201945b83861015615c745785518060060b8114615c655760008081fd5b82529482019490820190615c4b565b91880151919650909350505080821115615c8d57600080fd5b50615c9a85828601615b65565b9150509250929050565b600682810b9082900b03667fffffffffffff198112667fffffffffffff82131715610d0357610d03615874565b60008160060b8360060b80615ce857615ce86158a9565b667fffffffffffff19821460001982141615615d0657615d06615874565b90059392505050565b60008260060b80615d2257615d226158a9565b808360060b0791505092915050565b60008160020b627fffff198103615d4a57615d4a615874565b6000190192915050565b600060208284031215615d6657600080fd5b81516001600160401b0380821115615d7d57600080fd5b818401915084601f830112615d9157600080fd5b815181811115615da357615da3615ab2565b615db6601f8201601f1916602001615b12565b9150808252856020828501011115615dcd57600080fd5b615dde816020840160208601615834565b50949350505050565b6020815260008251806020840152615e06816040850160208701615834565b601f01601f19169190910160400192915050565b60208082526021908201527f5075626c696353616c653a20746f6e206578636565647320616c6c6f77616e636040820152606560f81b606082015260800190565b76020b1b1b2b9b9a1b7b73a3937b61d1030b1b1b7bab73a1604d1b815260008351615e8d816017850160208801615834565b7001034b99036b4b9b9b4b733903937b6329607d1b6017918401918201528351615ebe816028840160208801615834565b01602801949350505050565b600081615ed957615ed9615874565b50600019019056fe52eafc11f6f81f86878bffd31109a0d92f37506527754f00788853ff9f63b1304c61297e4655be30d3d195f2bd8fb04ca1887c13893ca54a860373a17c0d760410f6f77027d502f219862b0303542eb5dd005b06fa23ff4d1775aaa45bbf9477c082cfcdc2bfeeffb970c9772df3384f481b69fbc495624ec92a9254cc4b32f0d7dee2702d63ad89917b6a4da9981c90c4d24f8c2bdfd64c604ecae57d8d06518e74372a5a803b8823d5d52259104ada0d00f0ca9d3dba25fa4a81a5cdf28d30e88f4be96ed539661cee3b41510d312b428e0ad7225259b5c818476011acd4afa26469706673582212208d052e372947293398ea4829646072a52adf4e4f5e16bca879055ff06c4fbb2764736f6c63430008100033",
  "linkReferences": {
    "contracts/libraries/LibPublicSale.sol": {
      "LibPublicSale": [
        {
          "length": 20,
          "start": 4209
        },
        {
          "length": 20,
          "start": 4577
        },
        {
          "length": 20,
          "start": 4849
        },
        {
          "length": 20,
          "start": 7740
        }
      ]
    }
  },
  "deployedLinkReferences": {
    "contracts/libraries/LibPublicSale.sol": {
      "LibPublicSale": [
        {
          "length": 20,
          "start": 4048
        },
        {
          "length": 20,
          "start": 4416
        },
        {
          "length": 20,
          "start": 4688
        },
        {
          "length": 20,
          "start": 7579
        }
      ]
    }
  }
}