{
  "_format": "hh-sol-artifact-1",
  "contractName": "PublicSale",
  "sourceName": "contracts/sale/PublicSale.sol",
  "abi": [
    {
      "anonymous": false,
      "inputs": [
        {
          "indexed": true,
          "internalType": "address",
          "name": "from",
          "type": "address"
        },
        {
          "indexed": false,
          "internalType": "uint256",
          "name": "tier",
          "type": "uint256"
        }
      ],
      "name": "AddedWhiteList",
      "type": "event"
    },
    {
      "anonymous": false,
      "inputs": [
        {
          "indexed": true,
          "internalType": "address",
          "name": "from",
          "type": "address"
        },
        {
          "indexed": false,
          "internalType": "uint256",
          "name": "amount",
          "type": "uint256"
        }
      ],
      "name": "Claimed",
      "type": "event"
    },
    {
      "anonymous": false,
      "inputs": [
        {
          "indexed": true,
          "internalType": "address",
          "name": "from",
          "type": "address"
        },
        {
          "indexed": false,
          "internalType": "uint256",
          "name": "amount",
          "type": "uint256"
        }
      ],
      "name": "DepositWithdrawal",
      "type": "event"
    },
    {
      "anonymous": false,
      "inputs": [
        {
          "indexed": true,
          "internalType": "address",
          "name": "from",
          "type": "address"
        },
        {
          "indexed": false,
          "internalType": "uint256",
          "name": "amount",
          "type": "uint256"
        }
      ],
      "name": "Deposited",
      "type": "event"
    },
    {
      "anonymous": false,
      "inputs": [],
      "name": "EndedExclusiveSale",
      "type": "event"
    },
    {
      "anonymous": false,
      "inputs": [
        {
          "indexed": true,
          "internalType": "address",
          "name": "from",
          "type": "address"
        },
        {
          "indexed": false,
          "internalType": "uint256",
          "name": "amount",
          "type": "uint256"
        }
      ],
      "name": "ExclusiveSaled",
      "type": "event"
    },
    {
      "anonymous": false,
      "inputs": [
        {
          "indexed": true,
          "internalType": "address",
          "name": "from",
          "type": "address"
        },
        {
          "indexed": false,
          "internalType": "uint256",
          "name": "realPayAmount",
          "type": "uint256"
        },
        {
          "indexed": false,
          "internalType": "uint256",
          "name": "returnAmount",
          "type": "uint256"
        }
      ],
      "name": "OpenSaled",
      "type": "event"
    },
    {
      "anonymous": false,
      "inputs": [
        {
          "indexed": true,
          "internalType": "bytes32",
          "name": "role",
          "type": "bytes32"
        },
        {
          "indexed": true,
          "internalType": "bytes32",
          "name": "previousAdminRole",
          "type": "bytes32"
        },
        {
          "indexed": true,
          "internalType": "bytes32",
          "name": "newAdminRole",
          "type": "bytes32"
        }
      ],
      "name": "RoleAdminChanged",
      "type": "event"
    },
    {
      "anonymous": false,
      "inputs": [
        {
          "indexed": true,
          "internalType": "bytes32",
          "name": "role",
          "type": "bytes32"
        },
        {
          "indexed": true,
          "internalType": "address",
          "name": "account",
          "type": "address"
        },
        {
          "indexed": true,
          "internalType": "address",
          "name": "sender",
          "type": "address"
        }
      ],
      "name": "RoleGranted",
      "type": "event"
    },
    {
      "anonymous": false,
      "inputs": [
        {
          "indexed": true,
          "internalType": "bytes32",
          "name": "role",
          "type": "bytes32"
        },
        {
          "indexed": true,
          "internalType": "address",
          "name": "account",
          "type": "address"
        },
        {
          "indexed": true,
          "internalType": "address",
          "name": "sender",
          "type": "address"
        }
      ],
      "name": "RoleRevoked",
      "type": "event"
    },
    {
      "anonymous": false,
      "inputs": [
        {
          "indexed": true,
          "internalType": "address",
          "name": "from",
          "type": "address"
        },
        {
          "indexed": false,
          "internalType": "uint256",
          "name": "amount",
          "type": "uint256"
        }
      ],
      "name": "Withdrawal",
      "type": "event"
    },
    {
      "inputs": [],
      "name": "ADMIN_ROLE",
      "outputs": [
        {
          "internalType": "bytes32",
          "name": "",
          "type": "bytes32"
        }
      ],
      "stateMutability": "view",
      "type": "function"
    },
    {
      "inputs": [],
      "name": "BURNER_ROLE",
      "outputs": [
        {
          "internalType": "bytes32",
          "name": "",
          "type": "bytes32"
        }
      ],
      "stateMutability": "view",
      "type": "function"
    },
    {
      "inputs": [],
      "name": "DEFAULT_ADMIN_ROLE",
      "outputs": [
        {
          "internalType": "bytes32",
          "name": "",
          "type": "bytes32"
        }
      ],
      "stateMutability": "view",
      "type": "function"
    },
    {
      "inputs": [],
      "name": "MINTER_ROLE",
      "outputs": [
        {
          "internalType": "bytes32",
          "name": "",
          "type": "bytes32"
        }
      ],
      "stateMutability": "view",
      "type": "function"
    },
    {
      "inputs": [
        {
          "internalType": "address",
          "name": "account",
          "type": "address"
        }
      ],
      "name": "addAdmin",
      "outputs": [],
      "stateMutability": "nonpayable",
      "type": "function"
    },
    {
      "inputs": [],
      "name": "addWhiteList",
      "outputs": [],
      "stateMutability": "nonpayable",
      "type": "function"
    },
    {
      "inputs": [
        {
          "internalType": "address",
          "name": "_account",
          "type": "address"
        }
      ],
      "name": "calculClaimAmount",
      "outputs": [
        {
          "internalType": "uint256",
          "name": "",
          "type": "uint256"
        }
      ],
      "stateMutability": "view",
      "type": "function"
    },
    {
      "inputs": [
        {
          "internalType": "address",
          "name": "_account",
          "type": "address"
        },
        {
          "internalType": "uint256",
          "name": "_amount",
          "type": "uint256"
        }
      ],
      "name": "calculOpenSaleAmount",
      "outputs": [
        {
          "internalType": "uint256",
          "name": "",
          "type": "uint256"
        }
      ],
      "stateMutability": "view",
      "type": "function"
    },
    {
      "inputs": [
        {
          "internalType": "uint256",
          "name": "_amount",
          "type": "uint256"
        }
      ],
      "name": "calculPayToken",
      "outputs": [
        {
          "internalType": "uint256",
          "name": "",
          "type": "uint256"
        }
      ],
      "stateMutability": "view",
      "type": "function"
    },
    {
      "inputs": [
        {
          "internalType": "uint256",
          "name": "_amount",
          "type": "uint256"
        }
      ],
      "name": "calculSaleToken",
      "outputs": [
        {
          "internalType": "uint256",
          "name": "",
          "type": "uint256"
        }
      ],
      "stateMutability": "view",
      "type": "function"
    },
    {
      "inputs": [
        {
          "internalType": "address",
          "name": "_address",
          "type": "address"
        }
      ],
      "name": "calculTier",
      "outputs": [
        {
          "internalType": "uint256",
          "name": "",
          "type": "uint256"
        }
      ],
      "stateMutability": "view",
      "type": "function"
    },
    {
      "inputs": [
        {
          "internalType": "address",
          "name": "_address",
          "type": "address"
        }
      ],
      "name": "calculTierAmount",
      "outputs": [
        {
          "internalType": "uint256",
          "name": "",
          "type": "uint256"
        }
      ],
      "stateMutability": "view",
      "type": "function"
    },
    {
      "inputs": [
        {
          "internalType": "address",
          "name": "_address",
          "type": "address"
        }
      ],
      "name": "changeTONOwner",
      "outputs": [],
      "stateMutability": "nonpayable",
      "type": "function"
    },
    {
      "inputs": [],
      "name": "claim",
      "outputs": [],
      "stateMutability": "nonpayable",
      "type": "function"
    },
    {
      "inputs": [],
      "name": "claimInterval",
      "outputs": [
        {
          "internalType": "uint256",
          "name": "",
          "type": "uint256"
        }
      ],
      "stateMutability": "view",
      "type": "function"
    },
    {
      "inputs": [],
      "name": "claimPeriod",
      "outputs": [
        {
          "internalType": "uint256",
          "name": "",
          "type": "uint256"
        }
      ],
      "stateMutability": "view",
      "type": "function"
    },
    {
      "inputs": [
        {
          "internalType": "uint256",
          "name": "_amount",
          "type": "uint256"
        }
      ],
      "name": "deposit",
      "outputs": [],
      "stateMutability": "nonpayable",
      "type": "function"
    },
    {
      "inputs": [],
      "name": "depositWithdraw",
      "outputs": [],
      "stateMutability": "nonpayable",
      "type": "function"
    },
    {
      "inputs": [
        {
          "internalType": "uint256",
          "name": "",
          "type": "uint256"
        }
      ],
      "name": "depositors",
      "outputs": [
        {
          "internalType": "address",
          "name": "",
          "type": "address"
        }
      ],
      "stateMutability": "view",
      "type": "function"
    },
    {
      "inputs": [],
      "name": "endAddWhiteTime",
      "outputs": [
        {
          "internalType": "uint256",
          "name": "",
          "type": "uint256"
        }
      ],
      "stateMutability": "view",
      "type": "function"
    },
    {
      "inputs": [],
      "name": "endDepositTime",
      "outputs": [
        {
          "internalType": "uint256",
          "name": "",
          "type": "uint256"
        }
      ],
      "stateMutability": "view",
      "type": "function"
    },
    {
      "inputs": [],
      "name": "endExclusiveSale",
      "outputs": [],
      "stateMutability": "nonpayable",
      "type": "function"
    },
    {
      "inputs": [],
      "name": "endExclusiveSaleExec",
      "outputs": [
        {
          "internalType": "bool",
          "name": "",
          "type": "bool"
        }
      ],
      "stateMutability": "view",
      "type": "function"
    },
    {
      "inputs": [],
      "name": "endExclusiveTime",
      "outputs": [
        {
          "internalType": "uint256",
          "name": "",
          "type": "uint256"
        }
      ],
      "stateMutability": "view",
      "type": "function"
    },
    {
      "inputs": [],
      "name": "endOpenSaleTime",
      "outputs": [
        {
          "internalType": "uint256",
          "name": "",
          "type": "uint256"
        }
      ],
      "stateMutability": "view",
      "type": "function"
    },
    {
      "inputs": [
        {
          "internalType": "uint256",
          "name": "_amount",
          "type": "uint256"
        }
      ],
      "name": "exclusiveSale",
      "outputs": [],
      "stateMutability": "nonpayable",
      "type": "function"
    },
    {
      "inputs": [
        {
          "internalType": "bytes32",
          "name": "role",
          "type": "bytes32"
        }
      ],
      "name": "getRoleAdmin",
      "outputs": [
        {
          "internalType": "bytes32",
          "name": "",
          "type": "bytes32"
        }
      ],
      "stateMutability": "view",
      "type": "function"
    },
    {
      "inputs": [
        {
          "internalType": "bytes32",
          "name": "role",
          "type": "bytes32"
        },
        {
          "internalType": "uint256",
          "name": "index",
          "type": "uint256"
        }
      ],
      "name": "getRoleMember",
      "outputs": [
        {
          "internalType": "address",
          "name": "",
          "type": "address"
        }
      ],
      "stateMutability": "view",
      "type": "function"
    },
    {
      "inputs": [
        {
          "internalType": "bytes32",
          "name": "role",
          "type": "bytes32"
        }
      ],
      "name": "getRoleMemberCount",
      "outputs": [
        {
          "internalType": "uint256",
          "name": "",
          "type": "uint256"
        }
      ],
      "stateMutability": "view",
      "type": "function"
    },
    {
      "inputs": [],
      "name": "getToken",
      "outputs": [
        {
          "internalType": "contract IERC20",
          "name": "",
          "type": "address"
        }
      ],
      "stateMutability": "view",
      "type": "function"
    },
    {
      "inputs": [],
      "name": "getTokenOwner",
      "outputs": [
        {
          "internalType": "address",
          "name": "",
          "type": "address"
        }
      ],
      "stateMutability": "view",
      "type": "function"
    },
    {
      "inputs": [
        {
          "internalType": "bytes32",
          "name": "role",
          "type": "bytes32"
        },
        {
          "internalType": "address",
          "name": "account",
          "type": "address"
        }
      ],
      "name": "grantRole",
      "outputs": [],
      "stateMutability": "nonpayable",
      "type": "function"
    },
    {
      "inputs": [
        {
          "internalType": "bytes32",
          "name": "role",
          "type": "bytes32"
        },
        {
          "internalType": "address",
          "name": "account",
          "type": "address"
        }
      ],
      "name": "hasRole",
      "outputs": [
        {
          "internalType": "bool",
          "name": "",
          "type": "bool"
        }
      ],
      "stateMutability": "view",
      "type": "function"
    },
    {
      "inputs": [
        {
          "internalType": "address",
          "name": "account",
          "type": "address"
        }
      ],
      "name": "isAdmin",
      "outputs": [
        {
          "internalType": "bool",
          "name": "",
          "type": "bool"
        }
      ],
      "stateMutability": "view",
      "type": "function"
    },
    {
      "inputs": [],
      "name": "openSale",
      "outputs": [],
      "stateMutability": "nonpayable",
      "type": "function"
    },
    {
      "inputs": [],
      "name": "pauseProxy",
      "outputs": [
        {
          "internalType": "bool",
          "name": "",
          "type": "bool"
        }
      ],
      "stateMutability": "view",
      "type": "function"
    },
    {
      "inputs": [],
      "name": "payTokenPrice",
      "outputs": [
        {
          "internalType": "uint256",
          "name": "",
          "type": "uint256"
        }
      ],
      "stateMutability": "view",
      "type": "function"
    },
    {
      "inputs": [
        {
          "internalType": "address",
          "name": "account",
          "type": "address"
        }
      ],
      "name": "removeAdmin",
      "outputs": [],
      "stateMutability": "nonpayable",
      "type": "function"
    },
    {
      "inputs": [
        {
          "internalType": "bytes32",
          "name": "role",
          "type": "bytes32"
        },
        {
          "internalType": "address",
          "name": "account",
          "type": "address"
        }
      ],
      "name": "renounceRole",
      "outputs": [],
      "stateMutability": "nonpayable",
      "type": "function"
    },
    {
      "inputs": [],
      "name": "resetAllData",
      "outputs": [],
      "stateMutability": "nonpayable",
      "type": "function"
    },
    {
      "inputs": [
        {
          "internalType": "bytes32",
          "name": "role",
          "type": "bytes32"
        },
        {
          "internalType": "address",
          "name": "account",
          "type": "address"
        }
      ],
      "name": "revokeRole",
      "outputs": [],
      "stateMutability": "nonpayable",
      "type": "function"
    },
    {
      "inputs": [],
      "name": "sTOS",
      "outputs": [
        {
          "internalType": "contract ILockTOS",
          "name": "",
          "type": "address"
        }
      ],
      "stateMutability": "view",
      "type": "function"
    },
    {
      "inputs": [],
      "name": "saleToken",
      "outputs": [
        {
          "internalType": "contract IERC20",
          "name": "",
          "type": "address"
        }
      ],
      "stateMutability": "view",
      "type": "function"
    },
    {
      "inputs": [],
      "name": "saleTokenPrice",
      "outputs": [
        {
          "internalType": "uint256",
          "name": "",
          "type": "uint256"
        }
      ],
      "stateMutability": "view",
      "type": "function"
    },
    {
      "inputs": [
        {
          "internalType": "uint256[2]",
          "name": "_expectAmount",
          "type": "uint256[2]"
        },
        {
          "internalType": "uint256[2]",
          "name": "_priceAmount",
          "type": "uint256[2]"
        }
      ],
      "name": "setAllAmount",
      "outputs": [],
      "stateMutability": "nonpayable",
      "type": "function"
    },
    {
      "inputs": [
        {
          "internalType": "uint256[4]",
          "name": "_tier",
          "type": "uint256[4]"
        },
        {
          "internalType": "uint256[4]",
          "name": "_tierPercent",
          "type": "uint256[4]"
        }
      ],
      "name": "setAllTier",
      "outputs": [],
      "stateMutability": "nonpayable",
      "type": "function"
    },
    {
      "inputs": [
        {
          "internalType": "uint256",
          "name": "_snapshot",
          "type": "uint256"
        },
        {
          "internalType": "uint256[4]",
          "name": "_exclusiveTime",
          "type": "uint256[4]"
        },
        {
          "internalType": "uint256[4]",
          "name": "_openSaleTime",
          "type": "uint256[4]"
        },
        {
          "internalType": "uint256[3]",
          "name": "_claimTime",
          "type": "uint256[3]"
        }
      ],
      "name": "setAllValue",
      "outputs": [],
      "stateMutability": "nonpayable",
      "type": "function"
    },
    {
      "inputs": [
        {
          "internalType": "uint256",
          "name": "_startClaimTime",
          "type": "uint256"
        },
        {
          "internalType": "uint256",
          "name": "_claimInterval",
          "type": "uint256"
        },
        {
          "internalType": "uint256",
          "name": "_claimPeriod",
          "type": "uint256"
        }
      ],
      "name": "setClaim",
      "outputs": [],
      "stateMutability": "nonpayable",
      "type": "function"
    },
    {
      "inputs": [
        {
          "internalType": "uint256",
          "name": "_startAddWhiteTime",
          "type": "uint256"
        },
        {
          "internalType": "uint256",
          "name": "_endAddWhiteTime",
          "type": "uint256"
        },
        {
          "internalType": "uint256",
          "name": "_startExclusiveTime",
          "type": "uint256"
        },
        {
          "internalType": "uint256",
          "name": "_endExclusiveTime",
          "type": "uint256"
        }
      ],
      "name": "setExclusiveTime",
      "outputs": [],
      "stateMutability": "nonpayable",
      "type": "function"
    },
    {
      "inputs": [
        {
          "internalType": "uint256",
          "name": "_startDepositTime",
          "type": "uint256"
        },
        {
          "internalType": "uint256",
          "name": "_endDepositTime",
          "type": "uint256"
        },
        {
          "internalType": "uint256",
          "name": "_startOpenSaleTime",
          "type": "uint256"
        },
        {
          "internalType": "uint256",
          "name": "_endOpenSaleTime",
          "type": "uint256"
        }
      ],
      "name": "setOpenTime",
      "outputs": [],
      "stateMutability": "nonpayable",
      "type": "function"
    },
    {
      "inputs": [
        {
          "internalType": "uint256",
          "name": "_totalExpectSaleAmount",
          "type": "uint256"
        },
        {
          "internalType": "uint256",
          "name": "_totalExpectOpenSaleAmount",
          "type": "uint256"
        }
      ],
      "name": "setSaleAmount",
      "outputs": [],
      "stateMutability": "nonpayable",
      "type": "function"
    },
    {
      "inputs": [
        {
          "internalType": "uint256",
          "name": "_snapshot",
          "type": "uint256"
        }
      ],
      "name": "setSnapshot",
      "outputs": [],
      "stateMutability": "nonpayable",
      "type": "function"
    },
    {
      "inputs": [
        {
          "internalType": "uint256",
          "name": "_tier1",
          "type": "uint256"
        },
        {
          "internalType": "uint256",
          "name": "_tier2",
          "type": "uint256"
        },
        {
          "internalType": "uint256",
          "name": "_tier3",
          "type": "uint256"
        },
        {
          "internalType": "uint256",
          "name": "_tier4",
          "type": "uint256"
        }
      ],
      "name": "setTier",
      "outputs": [],
      "stateMutability": "nonpayable",
      "type": "function"
    },
    {
      "inputs": [
        {
          "internalType": "uint256",
          "name": "_tier1",
          "type": "uint256"
        },
        {
          "internalType": "uint256",
          "name": "_tier2",
          "type": "uint256"
        },
        {
          "internalType": "uint256",
          "name": "_tier3",
          "type": "uint256"
        },
        {
          "internalType": "uint256",
          "name": "_tier4",
          "type": "uint256"
        }
      ],
      "name": "setTierPercents",
      "outputs": [],
      "stateMutability": "nonpayable",
      "type": "function"
    },
    {
      "inputs": [
        {
          "internalType": "uint256",
          "name": "_saleTokenPrice",
          "type": "uint256"
        },
        {
          "internalType": "uint256",
          "name": "_payTokenPrice",
          "type": "uint256"
        }
      ],
      "name": "setTokenPrice",
      "outputs": [],
      "stateMutability": "nonpayable",
      "type": "function"
    },
    {
      "inputs": [],
      "name": "snapshot",
      "outputs": [
        {
          "internalType": "uint256",
          "name": "",
          "type": "uint256"
        }
      ],
      "stateMutability": "view",
      "type": "function"
    },
    {
      "inputs": [],
      "name": "startAddWhiteTime",
      "outputs": [
        {
          "internalType": "uint256",
          "name": "",
          "type": "uint256"
        }
      ],
      "stateMutability": "view",
      "type": "function"
    },
    {
      "inputs": [],
      "name": "startClaimTime",
      "outputs": [
        {
          "internalType": "uint256",
          "name": "",
          "type": "uint256"
        }
      ],
      "stateMutability": "view",
      "type": "function"
    },
    {
      "inputs": [],
      "name": "startDepositTime",
      "outputs": [
        {
          "internalType": "uint256",
          "name": "",
          "type": "uint256"
        }
      ],
      "stateMutability": "view",
      "type": "function"
    },
    {
      "inputs": [],
      "name": "startExclusiveTime",
      "outputs": [
        {
          "internalType": "uint256",
          "name": "",
          "type": "uint256"
        }
      ],
      "stateMutability": "view",
      "type": "function"
    },
    {
      "inputs": [],
      "name": "startOpenSaleTime",
      "outputs": [
        {
          "internalType": "uint256",
          "name": "",
          "type": "uint256"
        }
      ],
      "stateMutability": "view",
      "type": "function"
    },
    {
      "inputs": [
        {
          "internalType": "uint256",
          "name": "",
          "type": "uint256"
        }
      ],
      "name": "tiers",
      "outputs": [
        {
          "internalType": "uint256",
          "name": "",
          "type": "uint256"
        }
      ],
      "stateMutability": "view",
      "type": "function"
    },
    {
      "inputs": [
        {
          "internalType": "uint256",
          "name": "",
          "type": "uint256"
        }
      ],
      "name": "tiersAccount",
      "outputs": [
        {
          "internalType": "uint256",
          "name": "",
          "type": "uint256"
        }
      ],
      "stateMutability": "view",
      "type": "function"
    },
    {
      "inputs": [
        {
          "internalType": "uint256",
          "name": "",
          "type": "uint256"
        }
      ],
      "name": "tiersExAccount",
      "outputs": [
        {
          "internalType": "uint256",
          "name": "",
          "type": "uint256"
        }
      ],
      "stateMutability": "view",
      "type": "function"
    },
    {
      "inputs": [
        {
          "internalType": "uint256",
          "name": "",
          "type": "uint256"
        }
      ],
      "name": "tiersPercents",
      "outputs": [
        {
          "internalType": "uint256",
          "name": "",
          "type": "uint256"
        }
      ],
      "stateMutability": "view",
      "type": "function"
    },
    {
      "inputs": [],
      "name": "totalDepositAmount",
      "outputs": [
        {
          "internalType": "uint256",
          "name": "",
          "type": "uint256"
        }
      ],
      "stateMutability": "view",
      "type": "function"
    },
    {
      "inputs": [],
      "name": "totalExPurchasedAmount",
      "outputs": [
        {
          "internalType": "uint256",
          "name": "",
          "type": "uint256"
        }
      ],
      "stateMutability": "view",
      "type": "function"
    },
    {
      "inputs": [],
      "name": "totalExSaleAmount",
      "outputs": [
        {
          "internalType": "uint256",
          "name": "",
          "type": "uint256"
        }
      ],
      "stateMutability": "view",
      "type": "function"
    },
    {
      "inputs": [],
      "name": "totalExpectOpenSaleAmount",
      "outputs": [
        {
          "internalType": "uint256",
          "name": "",
          "type": "uint256"
        }
      ],
      "stateMutability": "view",
      "type": "function"
    },
    {
      "inputs": [],
      "name": "totalExpectOpenSaleAmountView",
      "outputs": [
        {
          "internalType": "uint256",
          "name": "",
          "type": "uint256"
        }
      ],
      "stateMutability": "view",
      "type": "function"
    },
    {
      "inputs": [],
      "name": "totalExpectSaleAmount",
      "outputs": [
        {
          "internalType": "uint256",
          "name": "",
          "type": "uint256"
        }
      ],
      "stateMutability": "view",
      "type": "function"
    },
    {
      "inputs": [],
      "name": "totalOpenPurchasedAmount",
      "outputs": [
        {
          "internalType": "uint256",
          "name": "",
          "type": "uint256"
        }
      ],
      "stateMutability": "view",
      "type": "function"
    },
    {
      "inputs": [],
      "name": "totalOpenSaleAmount",
      "outputs": [
        {
          "internalType": "uint256",
          "name": "",
          "type": "uint256"
        }
      ],
      "stateMutability": "view",
      "type": "function"
    },
    {
      "inputs": [],
      "name": "totalWhitelists",
      "outputs": [
        {
          "internalType": "uint256",
          "name": "",
          "type": "uint256"
        }
      ],
      "stateMutability": "view",
      "type": "function"
    },
    {
      "inputs": [
        {
          "internalType": "address",
          "name": "newAdmin",
          "type": "address"
        }
      ],
      "name": "transferAdmin",
      "outputs": [],
      "stateMutability": "nonpayable",
      "type": "function"
    },
    {
      "inputs": [
        {
          "internalType": "address",
          "name": "",
          "type": "address"
        }
      ],
      "name": "usersClaim",
      "outputs": [
        {
          "internalType": "uint256",
          "name": "totalClaimReward",
          "type": "uint256"
        },
        {
          "internalType": "uint256",
          "name": "periodReward",
          "type": "uint256"
        },
        {
          "internalType": "uint256",
          "name": "claimAmount",
          "type": "uint256"
        }
      ],
      "stateMutability": "view",
      "type": "function"
    },
    {
      "inputs": [
        {
          "internalType": "address",
          "name": "",
          "type": "address"
        }
      ],
      "name": "usersEx",
      "outputs": [
        {
          "internalType": "bool",
          "name": "join",
          "type": "bool"
        },
        {
          "internalType": "uint256",
          "name": "tier",
          "type": "uint256"
        },
        {
          "internalType": "uint256",
          "name": "payAmount",
          "type": "uint256"
        },
        {
          "internalType": "uint256",
          "name": "saleAmount",
          "type": "uint256"
        }
      ],
      "stateMutability": "view",
      "type": "function"
    },
    {
      "inputs": [
        {
          "internalType": "address",
          "name": "",
          "type": "address"
        }
      ],
      "name": "usersOpen",
      "outputs": [
        {
          "internalType": "bool",
          "name": "join",
          "type": "bool"
        },
        {
          "internalType": "uint256",
          "name": "depositAmount",
          "type": "uint256"
        },
        {
          "internalType": "uint256",
          "name": "payAmount",
          "type": "uint256"
        },
        {
          "internalType": "uint256",
          "name": "saleAmount",
          "type": "uint256"
        }
      ],
      "stateMutability": "view",
      "type": "function"
    },
    {
      "inputs": [
        {
          "internalType": "uint256",
          "name": "",
          "type": "uint256"
        }
      ],
      "name": "whitelists",
      "outputs": [
        {
          "internalType": "address",
          "name": "",
          "type": "address"
        }
      ],
      "stateMutability": "view",
      "type": "function"
    },
    {
      "inputs": [],
      "name": "withdraw",
      "outputs": [],
      "stateMutability": "nonpayable",
      "type": "function"
    }
  ],
  "bytecode": "0x60806040526000600155600060025560006003556000600455600060055560006006556000600755600060085560006009556000600a556000600b556000600c556000600d5534801561005157600080fd5b506001602655614dd9806100666000396000f3fe608060405234801561001057600080fd5b50600436106105805760003560e01c80637676ee32116102d7578063c3e5763511610186578063e30821c6116100e3578063eb8445f811610097578063f5af342b1161007c578063f5af342b14610c7c578063fe4d5add14610ca2578063ff6dac7614610cbf57610580565b8063eb8445f814610c51578063f3e16d4814610c5957610580565b8063e4b2fb79116100c8578063e4b2fb7914610c09578063e985e36714610c26578063eb685c4714610c2e57610580565b8063e30821c614610bba578063e495544a14610be057610580565b8063d53913931161013a578063dda4ac341161011f578063dda4ac3414610ba2578063df74e09c14610baa578063e016bac414610bb257610580565b8063d539139314610b6e578063d547741f14610b7657610580565b8063ca15c8731161016b578063ca15c87314610afc578063cae9ce1b14610b19578063cb27419d14610b3f57610580565b8063c3e5763514610aec578063c5408d5014610af457610580565b80639525269211610234578063a55abb17116101e8578063b7182b95116101cd578063b7182b9514610ad4578063b960ca0414610adc578063bfc630b114610ae457610580565b8063a55abb1714610aaf578063b6b55f2514610ab757610580565b8063a1b89b7011610219578063a1b89b7014610a82578063a217fddf14610a8a578063a38ffdea14610a9257610580565b80639525269214610a725780639711715a14610a7a57610580565b80638a0586c11161028b5780638fa7e8e4116102705780638fa7e8e414610a1b5780639010d07c14610a2357806391d1485414610a4657610580565b80638a0586c1146109f65780638f68711a146109fe57610580565b80637ecd5c70116102bc5780637ecd5c70146109c05780638181e847146109e657806381a9f6d7146109ee57610580565b80637676ee32146109975780637dc2cd98146109b857610580565b80633ccfd60b1161043357806367b399a511610390578063704802751161034457806370e5410a1161032957806370e5410a1461096157806375829def1461096957806375b238fc1461098f57610580565b8063704802751461093357806370c6abf51461095957610580565b80636c230839116103755780636c230839146108ee5780636e0e0da21461090b5780636e59abbb1461091357610580565b806367b399a5146108b457806369048005146108d157610580565b806351d28a7e116103e757806360a2a25c116103cc57806360a2a25c1461088757806363a8fd89146108a457806366ce7271146108ac57610580565b806351d28a7e1461085157806352c615481461085957610580565b806341c0cb771161041857806341c0cb77146107cf578063494600ea1461081d5780634e71d92d1461084957610580565b80633ccfd60b146107bf5780633ef541b5146107c757610580565b8063226bf1a4116104e15780632cbf3188116104955780632f2ff15d1161047a5780632f2ff15d1461075f57806336568abe1461078b57806337bf0719146107b757610580565b80632cbf3188146107285780632dcdbfd31461073057610580565b806324d7806c116104c657806324d7806c146106de578063282c51f31461071857806328e50f4b1461072057610580565b8063226bf1a4146106b9578063248a9ca3146106c157610580565b80631785f53c116105385780631bfc751e1161051d5780631bfc751e1461065e578063218183a31461066657806321df0da71461069557610580565b80631785f53c146106125780631a1197e71461063857610580565b80630b433a12116105695780630b433a12146105e55780630e6e12b4146105ed578063167ff46f1461060a57610580565b8063039af9eb146105855780630a888550146105b4575b600080fd5b6105a26004803603602081101561059b57600080fd5b5035610d03565b60408051918252519081900360200190f35b6105e3600480360360808110156105ca57600080fd5b5080359060208101359060408101359060600135610d15565b005b6105a2610eed565b6105e36004803603602081101561060357600080fd5b5035610ef3565b6105e3611251565b6105e36004803603602081101561062857600080fd5b50356001600160a01b0316611601565b6105a26004803603602081101561064e57600080fd5b50356001600160a01b0316611672565b6105a2611761565b6105e36004803603608081101561067c57600080fd5b5080359060208101359060408101359060600135611767565b61069d611a30565b604080516001600160a01b039092168252519081900360200190f35b6105a2611a3f565b6105a2600480360360208110156106d757600080fd5b5035611a45565b610704600480360360208110156106f457600080fd5b50356001600160a01b0316611a5a565b604080519115158252519081900360200190f35b6105a2611a8c565b6105a2611ab0565b6105a2611afb565b6105e36004803603608081101561074657600080fd5b5080359060208101359060408101359060600135611b01565b6105e36004803603604081101561077557600080fd5b50803590602001356001600160a01b0316611d5f565b6105e3600480360360408110156107a157600080fd5b50803590602001356001600160a01b0316611dcb565b61069d611e2c565b6105e3611e3b565b6105a2612178565b6107f5600480360360208110156107e557600080fd5b50356001600160a01b031661217e565b6040805194151585526020850193909352838301919091526060830152519081900360800190f35b6105a26004803603604081101561083357600080fd5b506001600160a01b0381351690602001356121a9565b6105e3612205565b6105a261245b565b6105e3600480360361018081101561087057600080fd5b50803590602081019060a081019061012001612461565b6105a26004803603602081101561089d57600080fd5b503561259a565b6107046125bf565b6105a26125c8565b6105a2600480360360208110156108ca57600080fd5b50356125ce565b6105a2600480360360208110156108e757600080fd5b50356125e0565b6105e36004803603602081101561090457600080fd5b50356125f2565b6105e3612685565b6105e36004803603608081101561092957600080fd5b50604081016127f1565b6105e36004803603602081101561094957600080fd5b50356001600160a01b031661284f565b6105e36128bd565b6105a2612ac9565b6105e36004803603602081101561097f57600080fd5b50356001600160a01b0316612acf565b6105a2612c20565b6105e360048036036101008110156109ae57600080fd5b5060808101612c44565b6105a2612dc2565b6105a2600480360360208110156109d657600080fd5b50356001600160a01b0316612dc8565b6105e3613267565b6105a26134ff565b6105a2613505565b6105a260048036036020811015610a1457600080fd5b503561350b565b6105e361351d565b61069d60048036036040811015610a3957600080fd5b50803590602001356135f9565b61070460048036036040811015610a5c57600080fd5b50803590602001356001600160a01b0316613611565b6105a2613629565b6105a261362f565b6105a2613635565b6105a261363b565b6105a260048036036020811015610aa857600080fd5b5035613640565b6105a261365e565b6105e360048036036020811015610acd57600080fd5b5035613664565b61069d61385e565b6105a261386d565b6105a2613873565b6105a2613879565b6105a261387f565b6105a260048036036020811015610b1257600080fd5b5035613885565b6107f560048036036020811015610b2f57600080fd5b50356001600160a01b031661389c565b6105e360048036036080811015610b5557600080fd5b50803590602081013590604081013590606001356138c7565b6105a2613a9f565b6105e360048036036040811015610b8c57600080fd5b50803590602001356001600160a01b0316613ac3565b610704613b1c565b6105a2613b25565b6105a2613b2b565b6105e360048036036020811015610bd057600080fd5b50356001600160a01b0316613b31565b6105e360048036036060811015610bf657600080fd5b5080359060208101359060400135613ba4565b61069d60048036036020811015610c1f57600080fd5b5035613d2c565b61069d613d56565b6105e360048036036040811015610c4457600080fd5b5080359060200135613d65565b6105a2613ea0565b6105e360048036036040811015610c6f57600080fd5b5080359060200135613ea6565b6105a260048036036020811015610c9257600080fd5b50356001600160a01b0316613fa0565b61069d60048036036020811015610cb857600080fd5b50356140c4565b610ce560048036036020811015610cd557600080fd5b50356001600160a01b03166140d4565b60408051938452602084019290925282820152519081900360600190f35b60216020526000908152604090205481565b610d1e33611a5a565b610d595760405162461bcd60e51b8152600401808060200182810382526022815260200180614a226022913960400191505060405180910390fd5b8360008111610da2576040805162461bcd60e51b815260206004820152601060248201526f5075626c696353616c653a207a65726f60801b604482015290519081900360640190fd5b8360008111610deb576040805162461bcd60e51b815260206004820152601060248201526f5075626c696353616c653a207a65726f60801b604482015290519081900360640190fd5b8360008111610e34576040805162461bcd60e51b815260206004820152601060248201526f5075626c696353616c653a207a65726f60801b604482015290519081900360640190fd5b8360008111610e7d576040805162461bcd60e51b815260206004820152601060248201526f5075626c696353616c653a207a65726f60801b604482015290519081900360640190fd5b6002541580610e9a57506000600254118015610e9a575060025442105b610ed55760405162461bcd60e51b8152600401808060200182810382526027815260200180614ce86027913960400191505060405180910390fd5b50505060029490945560039290925560045560055550565b60155481565b8060008111610f3c576040805162461bcd60e51b815260206004820152601060248201526f5075626c696353616c653a207a65726f60801b604482015290519081900360640190fd5b60165460008111610f87576040805162461bcd60e51b815260206004820152601060248201526f5075626c696353616c653a207a65726f60801b604482015290519081900360640190fd5b60026026541415610fdf576040805162461bcd60e51b815260206004820152601f60248201527f5265656e7472616e637947756172643a207265656e7472616e742063616c6c00604482015290519081900360640190fd5b60026026556004544210156110255760405162461bcd60e51b815260040180806020018281038252602d8152602001806149f5602d913960400191505060405180910390fd5b60055442106110655760405162461bcd60e51b8152600401808060200182810382526021815260200180614b206021913960400191505060405180910390fd5b336000908152601e60205260409020805460ff1615156001146110b95760405162461bcd60e51b8152600401808060200182810382526027815260200180614bbb6027913960400191505060405180910390fd5b60006110c485613640565b905060006110d133611672565b60038401549091506110e390836140f4565b8110156111215760405162461bcd60e51b815260040180806020018281038252602c815260200180614a87602c913960400191505060405180910390fd5b3360009081526020805260409020600284015461113e90886140f4565b6002850155600384015461115290846140f4565b6003850155805461116390846140f4565b8082556016546000916111759161414e565b60018301819055600d5490915061118c90896140f4565b600d55600c5461119c90856140f4565b600c5560006111aa33612dc8565b6000818152602360205260409020549091506111c79060016140f4565b6000828152602360205260409020556019546111ee906001600160a01b031633308c614190565b60175460195461120b916001600160a01b0391821691168b614218565b604080518a8152905133917fc2198f7273f3b4ab95a025cf1f853777ca45149bbc1c005496959a6da70fcb8d919081900360200190a25050600160265550505050505050565b6016546000811161129c576040805162461bcd60e51b815260206004820152601060248201526f5075626c696353616c653a207a65726f60801b604482015290519081900360640190fd5b6008544210156112dd5760405162461bcd60e51b81526004018080602001828103825260248152602001806149d16024913960400191505060405180910390fd5b6009544210611333576040805162461bcd60e51b815260206004820181905260248201527f5075626c696353616c653a20656e6420746865206f70656e53616c6554696d65604482015290519081900360640190fd5b336000908152601f60209081526040808320918052909120815460ff1615156001146113a6576040805162461bcd60e51b815260206004820152601760248201527f5075626c696353616c653a206e6f74206465706f736974000000000000000000604482015290519081900360640190fd5b6003820154156113e75760405162461bcd60e51b8152600401808060200182810382526024815260200180614be26024913960400191505060405180910390fd5b60006113f43360006121a9565b905060006114018261259a565b90508360010154811015611509576001840154600090611421908361429d565b600286015490915061143390836140f4565b600286015560105461144590836140f4565b601055600385015461145790846140f4565b6003860155600f5461146990846140f4565b600f55835461147890846140f4565b80855560165460009161148a9161414e565b600186018190556019549091506114ab906001600160a01b03163384614218565b6017546019546114c8916001600160a01b03918216911685614218565b6040805184815260208101849052815133927fab5af67e1fdcb45ef07e3822ceb6cf00962efac00cb9305c1e439d5d6fa95c21928290030190a250506115fa565b6001840154600285015461151c916140f4565b60028501556001840154601054611532916140f4565b601055600184015460009061154690613640565b600386015490915061155890826140f4565b6003860155600f5461156a90826140f4565b600f55835461157990826140f4565b80855560165460009161158b9161414e565b6001808701829055601754908801546019549293506115b7926001600160a01b03908116921690614218565b60018601546040805191825260006020830152805133927fab5af67e1fdcb45ef07e3822ceb6cf00962efac00cb9305c1e439d5d6fa95c2192908290030190a250505b5050505050565b61160a33611a5a565b6116455760405162461bcd60e51b8152600401808060200182810382526022815260200180614a226022913960400191505060405180910390fd5b61166f7fdf8b4c520ffe197c5343c6f5aec59570151ef9a492f2c624fd45ddde6135ec4282611dcb565b50565b6001600160a01b0381166000908152601e602052604081208161169484612dc8565b825490915060ff16151560011480156116ad5750600081115b156116f35760008181526022602090815260408083205460249092528220546011546116e892612710926116e29283916142df565b9061414e565b935061175c92505050565b8015611755576000818152602260205260408120546117139060016140f4565b905060006117496127106116e2846116e260246000898152602001908152602001600020546011546142df90919063ffffffff16565b945061175c9350505050565b6000925050505b919050565b600a5481565b61177033611a5a565b6117ab5760405162461bcd60e51b8152600401808060200182810382526022815260200180614a226022913960400191505060405180910390fd5b83600081116117f4576040805162461bcd60e51b815260206004820152601060248201526f5075626c696353616c653a207a65726f60801b604482015290519081900360640190fd5b836000811161183d576040805162461bcd60e51b815260206004820152601060248201526f5075626c696353616c653a207a65726f60801b604482015290519081900360640190fd5b8360008111611886576040805162461bcd60e51b815260206004820152601060248201526f5075626c696353616c653a207a65726f60801b604482015290519081900360640190fd5b83600081116118cf576040805162461bcd60e51b815260206004820152601060248201526f5075626c696353616c653a207a65726f60801b604482015290519081900360640190fd5b60025415806118ec575060006002541180156118ec575060025442105b6119275760405162461bcd60e51b8152600401808060200182810382526027815260200180614ce86027913960400191505060405180910390fd5b61193d8561193788818c8c6140f4565b906140f4565b61271014611992576040805162461bcd60e51b815260206004820152601f60248201527f5075626c696353616c653a2053756d2073686f756c6420626520313030303000604482015290519081900360640190fd5b5050602460205250507fbbbb3b1da0cb0951f34c5e9db4606f934b7367b5284f29163e9e6fe67e1e97d6939093557f47bb5529a97e2b401b32950f6360fbc9e3f4e70b887dc0f9b9ad1f7402ca11da919091557f8a6809e43cef135a96df89aa3c0800baae7c497913adf6156625c15a6f57cdf05560046000527fe0059098054d65c76a17a4d86f8572395c4d366a1d067b0643b918330bac9e1555565b6019546001600160a01b031681565b60145481565b60009081526025602052604090206002015490565b6000611a867fdf8b4c520ffe197c5343c6f5aec59570151ef9a492f2c624fd45ddde6135ec4283613611565b92915050565b7f9667e80708b6eeeb0053fa0cca44e028ff548e2a9f029edfeac87c118b08b7c881565b6000600554421080611ac45750601d5460ff165b15611ad25750601254611af8565b611af5600c54611aef6011546012546140f490919063ffffffff16565b9061429d565b90505b90565b600f5481565b611b0a33611a5a565b611b455760405162461bcd60e51b8152600401808060200182810382526022815260200180614a226022913960400191505060405180910390fd5b8360008111611b8e576040805162461bcd60e51b815260206004820152601060248201526f5075626c696353616c653a207a65726f60801b604482015290519081900360640190fd5b8360008111611bd7576040805162461bcd60e51b815260206004820152601060248201526f5075626c696353616c653a207a65726f60801b604482015290519081900360640190fd5b8360008111611c20576040805162461bcd60e51b815260206004820152601060248201526f5075626c696353616c653a207a65726f60801b604482015290519081900360640190fd5b8360008111611c69576040805162461bcd60e51b815260206004820152601060248201526f5075626c696353616c653a207a65726f60801b604482015290519081900360640190fd5b6002541580611c8657506000600254118015611c86575060025442105b611cc15760405162461bcd60e51b8152600401808060200182810382526027815260200180614ce86027913960400191505060405180910390fd5b5050602160205250507f2b59c9df127166d3570f589f0cb7377a6b175795e70ab275ebf42fa16c0a23f4939093557f914a2534c436de5a3f77164e6b9b90d20144139ce899b6a8d30a442e7b9ef533919091557fbae8fb7bb9008c9bfa6625328b7613a2bedfb2f936a7718f51173039a77c107c5560046000527f1ae06646c6742a506302a1833f6c3f508643fd4c5dcb1e323706d5c3441af29855565b600082815260256020526040902060020154611d8290611d7d614338565b613611565b611dbd5760405162461bcd60e51b815260040180806020018281038252602f8152602001806149a2602f913960400191505060405180910390fd5b611dc7828261433c565b5050565b611dd3614338565b6001600160a01b0316816001600160a01b031614611e225760405162461bcd60e51b815260040180806020018281038252602f815260200180614d0f602f913960400191505060405180910390fd5b611dc782826143a5565b601a546001600160a01b031681565b611e4433611a5a565b611e7f5760405162461bcd60e51b8152600401808060200182810382526022815260200180614a226022913960400191505060405180910390fd5b600954421161200457601854604080516370a0823160e01b815230600482015290516000926001600160a01b0316916370a08231916024808301926020929190829003018186803b158015611ed357600080fd5b505afa158015611ee7573d6000803e3d6000fd5b505050506040513d6020811015611efd57600080fd5b5051601254601154919250611f1291906140f4565b8111611f4f5760405162461bcd60e51b8152600401808060200182810382526022815260200180614c2d6022913960400191505060405180910390fd5b6000611f72611f6b6012546011546140f490919063ffffffff16565b839061429d565b905080611fb05760405162461bcd60e51b8152600401808060200182810382526026815260200180614ad96026913960400191505060405180910390fd5b601854611fc7906001600160a01b03163383614218565b60408051828152905133917f7fcf532c15f0a6db0bd6d0e038bea71d30d808c7d98cb3bf7268a95bf5081b65919081900360200190a25050612176565b600954421161205a576040805162461bcd60e51b815260206004820181905260248201527f5075626c696353616c653a20656e6420746865206f70656e53616c6554696d65604482015290519081900360640190fd5b600f54600c54612069916140f4565b601254601154612078916140f4565b116120b45760405162461bcd60e51b8152600401808060200182810382526026815260200180614ad96026913960400191505060405180910390fd5b60006120d9600f54611aef600c54611aef6012546011546140f490919063ffffffff16565b9050806121175760405162461bcd60e51b8152600401808060200182810382526026815260200180614ad96026913960400191505060405180910390fd5b601254612124908261429d565b60125560185461213e906001600160a01b03163383614218565b60408051828152905133917f7fcf532c15f0a6db0bd6d0e038bea71d30d808c7d98cb3bf7268a95bf5081b65919081900360200190a2505b565b60075481565b601f60205260009081526040902080546001820154600283015460039093015460ff90921692909184565b6001600160a01b0382166000908152601f60205260408120600181015482906121d290856140f4565b905060006121fb6121ee86600e546140f490919063ffffffff16565b6012546116e290856142df565b9695505050505050565b600a544210156122465760405162461bcd60e51b8152600401808060200182810382526021815260200180614aff6021913960400191505060405180910390fd5b336000908152602080526040902080546122915760405162461bcd60e51b8152600401808060200182810382526022815260200180614a656022913960400191505060405180910390fd5b600061229c33613fa0565b9050600081116122f3576040805162461bcd60e51b815260206004820152601560248201527f5075626c696353616c653a206e6f207265776172640000000000000000000000604482015290519081900360640190fd5b600282015482548291612306919061429d565b10156123435760405162461bcd60e51b8152600401808060200182810382526028815260200180614c796028913960400191505060405180910390fd5b601854604080516370a0823160e01b8152306004820152905183926001600160a01b0316916370a08231916024808301926020929190829003018186803b15801561238d57600080fd5b505afa1580156123a1573d6000803e3d6000fd5b505050506040513d60208110156123b757600080fd5b505110156123f65760405162461bcd60e51b8152600401808060200182810382526027815260200180614c066027913960400191505060405180910390fd5b600282015461240590826140f4565b6002830155601854612421906001600160a01b03163383614218565b60408051828152905133917fd8138f8a3f377c5259ca548e70e4c2de94f129f5a11036a15b69513cba2b426a919081900360200190a25050565b60135481565b61246a33611a5a565b6124a55760405162461bcd60e51b8152600401808060200182810382526022815260200180614a226022913960400191505060405180910390fd5b60025415806124c2575060006002541180156124c2575060025442105b6124fd5760405162461bcd60e51b8152600401808060200182810382526027815260200180614ce86027913960400191505060405180910390fd5b60208301358335108015612518575060608301356040840135105b61252157600080fd5b6020820135823510801561253c575060608201356040830135105b61254557600080fd5b61254e846125f2565b6125678335602085013560408601356060870135610d15565b61258082356020840135604085013560608601356138c7565b612594813560208301356040840135613ba4565b50505050565b6000806125b86014546116e2601354866142df90919063ffffffff16565b9392505050565b60005460ff1681565b60055481565b60226020526000908152604090205481565b60246020526000908152604090205481565b6125fb33611a5a565b6126365760405162461bcd60e51b8152600401808060200182810382526022815260200180614a226022913960400191505060405180910390fd5b806000811161267f576040805162461bcd60e51b815260206004820152601060248201526f5075626c696353616c653a207a65726f60801b604482015290519081900360640190fd5b50600155565b60095442116126db576040805162461bcd60e51b815260206004820152601e60248201527f5075626c696353616c653a20646f6e277420656e642073616c6554696d650000604482015290519081900360640190fd5b336000908152601f60205260409020805460ff161515600114801561270257506003810154155b61273d5760405162461bcd60e51b8152600401808060200182810382526039815260200180614d6b6039913960400191505060405180910390fd5b6000816001015411612796576040805162461bcd60e51b815260206004820152601f60248201527f5075626c696353616c653a206e6f206465706f736974656420616d6f756e7400604482015290519081900360640190fd5b60018101805460009091556019546127b8906001600160a01b03163383614218565b60408051828152905133917ed9d3be50e60c788d65b203051d7997aea5a5d613164c998427e07fc74d9a0e919081900360200190a25050565b6127fa33611a5a565b6128355760405162461bcd60e51b8152600401808060200182810382526022815260200180614a226022913960400191505060405180910390fd5b813560115560209182013560125580356013550135601455565b61285833611a5a565b6128935760405162461bcd60e51b8152600401808060200182810382526022815260200180614a226022913960400191505060405180910390fd5b61166f7fdf8b4c520ffe197c5343c6f5aec59570151ef9a492f2c624fd45ddde6135ec4282611d5f565b6128c633611a5a565b6129015760405162461bcd60e51b8152600401808060200182810382526022815260200180614a226022913960400191505060405180910390fd5b60006002819055600b819055600c819055600d819055600e819055600f81905560108190555b601c548110156129da576000601e6000601c848154811061294457fe5b60009182526020808320909101546001600160a01b031683528281019390935260409091018120805460ff191681556002810182905560038101829055601c805491945091929183918690811061299757fe5b60009182526020808320909101546001600160a01b0316835282019290925260400181206002810182905560018181018390559190559290920191506129279050565b5060005b601b54811015612a98576000601f6000601b84815481106129fb57fe5b60009182526020808320909101546001600160a01b03168352828101939093526040909101812060018101829055805460ff191681556002810182905560038101829055601b8054919450919291839186908110612a5557fe5b60009182526020808320909101546001600160a01b0316835282019290925260400181206002810182905560018181018390559190559290920191506129de9050565b5060015b600581101561166f5760008181526022602090815260408083208390556023909152812055600101612a9c565b60105481565b612ad833611a5a565b612b135760405162461bcd60e51b8152600401808060200182810382526022815260200180614a226022913960400191505060405180910390fd5b6001600160a01b038116612b6e576040805162461bcd60e51b815260206004820152601860248201527f41636365737369626c653a207a65726f20616464726573730000000000000000604482015290519081900360640190fd5b336001600160a01b0382161415612bcc576040805162461bcd60e51b815260206004820152601660248201527f41636365737369626c653a2073616d652061646d696e00000000000000000000604482015290519081900360640190fd5b612bf67fdf8b4c520ffe197c5343c6f5aec59570151ef9a492f2c624fd45ddde6135ec4282611d5f565b61166f7fdf8b4c520ffe197c5343c6f5aec59570151ef9a492f2c624fd45ddde6135ec4233611dcb565b7fdf8b4c520ffe197c5343c6f5aec59570151ef9a492f2c624fd45ddde6135ec4281565b612c4d33611a5a565b612c885760405162461bcd60e51b8152600401808060200182810382526022815260200180614a226022913960400191505060405180910390fd5b81357f2b59c9df127166d3570f589f0cb7377a6b175795e70ab275ebf42fa16c0a23f4556020808301357f914a2534c436de5a3f77164e6b9b90d20144139ce899b6a8d30a442e7b9ef533556040808401357fbae8fb7bb9008c9bfa6625328b7613a2bedfb2f936a7718f51173039a77c107c556060938401357f1ae06646c6742a506302a1833f6c3f508643fd4c5dcb1e323706d5c3441af298556024825282357fbbbb3b1da0cb0951f34c5e9db4606f934b7367b5284f29163e9e6fe67e1e97d655908201357f47bb5529a97e2b401b32950f6360fbc9e3f4e70b887dc0f9b9ad1f7402ca11da558101357f8a6809e43cef135a96df89aa3c0800baae7c497913adf6156625c15a6f57cdf055600460005201357fe0059098054d65c76a17a4d86f8572395c4d366a1d067b0643b918330bac9e1555565b60165481565b601a546000906001600160a01b031680612e29576040805162461bcd60e51b815260206004820152601860248201527f5075626c696353616c653a207a65726f20616464726573730000000000000000604482015290519081900360640190fd5b600160005260216020527f2b59c9df127166d3570f589f0cb7377a6b175795e70ab275ebf42fa16c0a23f45480612e9a576040805162461bcd60e51b815260206004820152601060248201526f5075626c696353616c653a207a65726f60801b604482015290519081900360640190fd5b600260005260216020527f914a2534c436de5a3f77164e6b9b90d20144139ce899b6a8d30a442e7b9ef5335480612f0b576040805162461bcd60e51b815260206004820152601060248201526f5075626c696353616c653a207a65726f60801b604482015290519081900360640190fd5b600360005260216020527fbae8fb7bb9008c9bfa6625328b7613a2bedfb2f936a7718f51173039a77c107c5480612f7c576040805162461bcd60e51b815260206004820152601060248201526f5075626c696353616c653a207a65726f60801b604482015290519081900360640190fd5b600460005260216020527f1ae06646c6742a506302a1833f6c3f508643fd4c5dcb1e323706d5c3441af2985480612fed576040805162461bcd60e51b815260206004820152601060248201526f5075626c696353616c653a207a65726f60801b604482015290519081900360640190fd5b601a54600154604080517f4ee2cd7e0000000000000000000000000000000000000000000000000000000081526001600160a01b038b81166004830152602482019390935290516000939290921691634ee2cd7e91604480820192602092909190829003018186803b15801561306257600080fd5b505afa158015613076573d6000803e3d6000fd5b505050506040513d602081101561308c57600080fd5b50516001600090815260216020527f2b59c9df127166d3570f589f0cb7377a6b175795e70ab275ebf42fa16c0a23f4549192509082108015906130f95750600260005260216020527f914a2534c436de5a3f77164e6b9b90d20144139ce899b6a8d30a442e7b9ef5335482105b156131065750600161325b565b600260005260216020527f914a2534c436de5a3f77164e6b9b90d20144139ce899b6a8d30a442e7b9ef53354821080159061316b5750600360005260216020527fbae8fb7bb9008c9bfa6625328b7613a2bedfb2f936a7718f51173039a77c107c5482105b156131785750600261325b565b600360005260216020527fbae8fb7bb9008c9bfa6625328b7613a2bedfb2f936a7718f51173039a77c107c5482108015906131dd5750600460005260216020527f1ae06646c6742a506302a1833f6c3f508643fd4c5dcb1e323706d5c3441af2985482105b156131ea5750600361325b565b600460005260216020527f1ae06646c6742a506302a1833f6c3f508643fd4c5dcb1e323706d5c3441af2985482106132245750600461325b565b600160005260216020527f2b59c9df127166d3570f589f0cb7377a6b175795e70ab275ebf42fa16c0a23f45482101561325b575060005b98975050505050505050565b600260265414156132bf576040805162461bcd60e51b815260206004820152601f60248201527f5265656e7472616e637947756172643a207265656e7472616e742063616c6c00604482015290519081900360640190fd5b60026026819055544210156133055760405162461bcd60e51b815260040180806020018281038252602d815260200180614d3e602d913960400191505060405180910390fd5b60035442106133455760405162461bcd60e51b8152600401808060200182810382526021815260200180614a446021913960400191505060405180910390fd5b600061335033612dc8565b905060018110156133a8576040805162461bcd60e51b815260206004820152601d60248201527f5075626c696353616c653a206e65656420746f206d6f72652073544f53000000604482015290519081900360640190fd5b336000908152601e60205260409020805460ff16151560011415613413576040805162461bcd60e51b815260206004820152601c60248201527f5075626c696353616c653a20616c726561647920617474656e64656400000000604482015290519081900360640190fd5b805460ff1661346c57601c80546001810182556000919091527f0e4562a10381dec21b205ed72637e6b1b523bdd0e4d4d50af5cd23dd4500a21101805473ffffffffffffffffffffffffffffffffffffffff1916331790555b805460ff19166001908117825581810183905560006003830155600b54613492916140f4565b600b556000828152602260205260409020546134af9060016140f4565b600083815260226020908152604091829020929092558051848152905133927fffc1b88a1c7ff4b7c84aac62283195eb1a6e771eafe7f68ddc27c7539cb0a105928290030190a250506001602655565b60065481565b60085481565b60236020526000908152604090205481565b601d5460ff161561355f5760405162461bcd60e51b8152600401808060200182810382526029815260200180614b926029913960400191505060405180910390fd5b6005544210156135a05760405162461bcd60e51b8152600401808060200182810382526024815260200180614cc46024913960400191505060405180910390fd5b601d805460ff19166001179055600c546011546012546135c59291611aef91906140f4565b601255600c546011556040517f55e49e2e4c4ed83b41344cdee051accb243c76141b101797d611a92a2103710590600090a1565b60008281526025602052604081206125b8908361440e565b60008281526025602052604081206125b8908361441a565b60025481565b60015481565b600b5481565b600081565b6000806125b86013546116e2601454866142df90919063ffffffff16565b600d5481565b600260265414156136bc576040805162461bcd60e51b815260206004820152601f60248201527f5265656e7472616e637947756172643a207265656e7472616e742063616c6c00604482015290519081900360640190fd5b60026026556006544210156137025760405162461bcd60e51b8152600401808060200182810382526023815260200180614ca16023913960400191505060405180910390fd5b6007544210613758576040805162461bcd60e51b815260206004820152601f60248201527f5075626c696353616c653a20656e6420746865206465706f73697454696d6500604482015290519081900360640190fd5b601d5460ff1661376a5761376a61351d565b336000908152601f60205260409020805460ff166137dc57601b8054600181810183556000929092527f3ad8aa4f87544323a9d1e5dd902f40c356527a7955687113db5f9a85ad579dc101805473ffffffffffffffffffffffffffffffffffffffff191633179055815460ff19161781555b60018101546137eb90836140f4565b600182015560006003820155600e5461380490836140f4565b600e5560195461381f906001600160a01b0316333085614190565b60408051838152905133917f2da466a7b24304f47e87fa2e1e5a81b9831ce54fec19055ce277ca2f39ba42c4919081900360200190a250506001602655565b6017546001600160a01b031681565b60115481565b60125481565b60035481565b600e5481565b6000818152602560205260408120611a869061442f565b601e60205260009081526040902080546001820154600283015460039093015460ff90921692909184565b6138d033611a5a565b61390b5760405162461bcd60e51b8152600401808060200182810382526022815260200180614a226022913960400191505060405180910390fd5b8360008111613954576040805162461bcd60e51b815260206004820152601060248201526f5075626c696353616c653a207a65726f60801b604482015290519081900360640190fd5b836000811161399d576040805162461bcd60e51b815260206004820152601060248201526f5075626c696353616c653a207a65726f60801b604482015290519081900360640190fd5b83600081116139e6576040805162461bcd60e51b815260206004820152601060248201526f5075626c696353616c653a207a65726f60801b604482015290519081900360640190fd5b8360008111613a2f576040805162461bcd60e51b815260206004820152601060248201526f5075626c696353616c653a207a65726f60801b604482015290519081900360640190fd5b6002541580613a4c57506000600254118015613a4c575060025442105b613a875760405162461bcd60e51b8152600401808060200182810382526027815260200180614ce86027913960400191505060405180910390fd5b50505060069490945560079290925560085560095550565b7ff0887ba65ee2024ea881d91b74c2450ef19e1557f03bed3ea9f16b037cbe2dc981565b600082815260256020526040902060020154613ae190611d7d614338565b611e225760405162461bcd60e51b8152600401808060200182810382526030815260200180614b416030913960400191505060405180910390fd5b601d5460ff1681565b60095481565b60045481565b613b3a33611a5a565b613b755760405162461bcd60e51b8152600401808060200182810382526022815260200180614a226022913960400191505060405180910390fd5b6017805473ffffffffffffffffffffffffffffffffffffffff19166001600160a01b0392909216919091179055565b613bad33611a5a565b613be85760405162461bcd60e51b8152600401808060200182810382526022815260200180614a226022913960400191505060405180910390fd5b8260008111613c31576040805162461bcd60e51b815260206004820152601060248201526f5075626c696353616c653a207a65726f60801b604482015290519081900360640190fd5b8260008111613c7a576040805162461bcd60e51b815260206004820152601060248201526f5075626c696353616c653a207a65726f60801b604482015290519081900360640190fd5b8260008111613cc3576040805162461bcd60e51b815260206004820152601060248201526f5075626c696353616c653a207a65726f60801b604482015290519081900360640190fd5b6002541580613ce057506000600254118015613ce0575060025442105b613d1b5760405162461bcd60e51b8152600401808060200182810382526027815260200180614ce86027913960400191505060405180910390fd5b505050600a92909255601555601655565b601b8181548110613d3c57600080fd5b6000918252602090912001546001600160a01b0316905081565b6018546001600160a01b031681565b613d6e33611a5a565b613da95760405162461bcd60e51b8152600401808060200182810382526022815260200180614a226022913960400191505060405180910390fd5b8160008111613df2576040805162461bcd60e51b815260206004820152601060248201526f5075626c696353616c653a207a65726f60801b604482015290519081900360640190fd5b8160008111613e3b576040805162461bcd60e51b815260206004820152601060248201526f5075626c696353616c653a207a65726f60801b604482015290519081900360640190fd5b6002541580613e5857506000600254118015613e58575060025442105b613e935760405162461bcd60e51b8152600401808060200182810382526027815260200180614ce86027913960400191505060405180910390fd5b5050601391909155601455565b600c5481565b613eaf33611a5a565b613eea5760405162461bcd60e51b8152600401808060200182810382526022815260200180614a226022913960400191505060405180910390fd5b613ef482826140f4565b60008111613f3c576040805162461bcd60e51b815260206004820152601060248201526f5075626c696353616c653a207a65726f60801b604482015290519081900360640190fd5b6002541580613f5957506000600254118015613f59575060025442105b613f945760405162461bcd60e51b8152600401808060200182810382526027815260200180614ce86027913960400191505060405180910390fd5b50601191909155601255565b6000600a54421015613fe35760405162461bcd60e51b8152600401808060200182810382526021815260200180614aff6021913960400191505060405180910390fd5b6001600160a01b03821660009081526020805260409020805461400a57600091505061175c565b60028101548154141561402157600091505061175c565b6000614038600a544261429d90919063ffffffff16565b905060155481101561406b5760006001905060006117498460020154611aef8487600101546142df90919063ffffffff16565b60006140846001601554848161407d57fe5b04906140f4565b905060165481106140a35760028301548354600091611749919061429d565b60006117498460020154611aef8487600101546142df90919063ffffffff16565b601c8181548110613d3c57600080fd5b602080526000908152604090208054600182015460029092015490919083565b6000828201838110156125b8576040805162461bcd60e51b815260206004820152601b60248201527f536166654d6174683a206164646974696f6e206f766572666c6f770000000000604482015290519081900360640190fd5b60006125b883836040518060400160405280601a81526020017f536166654d6174683a206469766973696f6e206279207a65726f00000000000081525061443a565b604080516001600160a01b0380861660248301528416604482015260648082018490528251808303909101815260849091019091526020810180517bffffffffffffffffffffffffffffffffffffffffffffffffffffffff167f23b872dd000000000000000000000000000000000000000000000000000000001790526125949085906144dc565b604080516001600160a01b038416602482015260448082018490528251808303909101815260649091019091526020810180517bffffffffffffffffffffffffffffffffffffffffffffffffffffffff167fa9059cbb000000000000000000000000000000000000000000000000000000001790526142989084906144dc565b505050565b60006125b883836040518060400160405280601e81526020017f536166654d6174683a207375627472616374696f6e206f766572666c6f77000081525061458d565b6000826142ee57506000611a86565b828202828482816142fb57fe5b04146125b85760405162461bcd60e51b8152600401808060200182810382526021815260200180614b716021913960400191505060405180910390fd5b3390565b600082815260256020526040902061435490826145e7565b15611dc757614361614338565b6001600160a01b0316816001600160a01b0316837f2f8788117e7eff1d82e926ec794901d17c78024a50270940304540a733656f0d60405160405180910390a45050565b60008281526025602052604090206143bd90826145fc565b15611dc7576143ca614338565b6001600160a01b0316816001600160a01b0316837ff6391f5c32d9c69d2a47ea670b442974b53935d1edc7fd64eb21e047a839171b60405160405180910390a45050565b60006125b88383614611565b60006125b8836001600160a01b038416614675565b6000611a868261468d565b600081836144c65760405162461bcd60e51b81526004018080602001828103825283818151815260200191508051906020019080838360005b8381101561448b578181015183820152602001614473565b50505050905090810190601f1680156144b85780820380516001836020036101000a031916815260200191505b509250505060405180910390fd5b5060008385816144d257fe5b0495945050505050565b6000614531826040518060400160405280602081526020017f5361666545524332303a206c6f772d6c6576656c2063616c6c206661696c6564815250856001600160a01b03166146919092919063ffffffff16565b8051909150156142985780806020019051602081101561455057600080fd5b50516142985760405162461bcd60e51b815260040180806020018281038252602a815260200180614c4f602a913960400191505060405180910390fd5b600081848411156145df5760405162461bcd60e51b815260206004820181815283516024840152835190928392604490910191908501908083836000831561448b578181015183820152602001614473565b505050900390565b60006125b8836001600160a01b0384166146a8565b60006125b8836001600160a01b0384166146f2565b815460009082106146535760405162461bcd60e51b81526004018080602001828103825260228152602001806149806022913960400191505060405180910390fd5b82600001828154811061466257fe5b9060005260206000200154905092915050565b60009081526001919091016020526040902054151590565b5490565b60606146a084846000856147b8565b949350505050565b60006146b48383614675565b6146ea57508154600181810184556000848152602080822090930184905584548482528286019093526040902091909155611a86565b506000611a86565b600081815260018301602052604081205480156147ae578354600019808301919081019060009087908390811061472557fe5b906000526020600020015490508087600001848154811061474257fe5b60009182526020808320909101929092558281526001898101909252604090209084019055865487908061477257fe5b60019003818190600052602060002001600090559055866001016000878152602001908152602001600020600090556001945050505050611a86565b6000915050611a86565b6060824710156147f95760405162461bcd60e51b8152600401808060200182810382526026815260200180614ab36026913960400191505060405180910390fd5b61480285614913565b614853576040805162461bcd60e51b815260206004820152601d60248201527f416464726573733a2063616c6c20746f206e6f6e2d636f6e7472616374000000604482015290519081900360640190fd5b600080866001600160a01b031685876040518082805190602001908083835b602083106148915780518252601f199092019160209182019101614872565b6001836020036101000a03801982511681845116808217855250505050505090500191505060006040518083038185875af1925050503d80600081146148f3576040519150601f19603f3d011682016040523d82523d6000602084013e6148f8565b606091505b5091509150614908828286614919565b979650505050505050565b3b151590565b606083156149285750816125b8565b8251156149385782518084602001fd5b60405162461bcd60e51b815260206004820181815284516024840152845185939192839260440191908501908083836000831561448b57818101518382015260200161447356fe456e756d657261626c655365743a20696e646578206f7574206f6620626f756e6473416363657373436f6e74726f6c3a2073656e646572206d75737420626520616e2061646d696e20746f206772616e745075626c696353616c653a20646f6e2774207374617274206f70656e53616c6554696d655075626c696353616c653a206578636c7573697665537461727454696d6520686173206e6f742070617373656441636365737369626c653a2043616c6c6572206973206e6f7420616e2061646d696e5075626c696353616c653a20656e64207468652077686974656c69737454696d655075626c696353616c653a206e656564207468652070617274696369706174696f6e5075626c696353616c653a206a757374206275792074696572277320616c6c6f636174656420616d6f756e74416464726573733a20696e73756666696369656e742062616c616e636520666f722063616c6c5075626c696353616c653a20646f6e2774206578697374207769746864726177416d6f756e745075626c696353616c653a20646f6e277420737461727420636c61696d54696d655075626c696353616c653a20656e6420746865206578636c757369766554696d65416363657373436f6e74726f6c3a2073656e646572206d75737420626520616e2061646d696e20746f207265766f6b65536166654d6174683a206d756c7469706c69636174696f6e206f766572666c6f775075626c696353616c653a20616c6c726561647920656e644578636c757369766553616c65457865635075626c696353616c653a206e6f74207265676973746572656420696e2077686974656c6973745075626c696353616c653a20616c72656164792065786563757465206f70656e53616c655075626c696353616c653a20646f6e7420686176652073616c65546f6b656e20696e20706f6f6c5075626c696353616c653a206e6f20776974686472617761626c6520616d6f756e745361666545524332303a204552433230206f7065726174696f6e20646964206e6f7420737563636565645075626c696353616c653a207573657220697320616c726561647920676574416c6c7265776172645075626c696353616c653a20646f6e2774207374617274206465706f73697454696d655075626c696353616c653a206469646e277420656e64206578636c757369766553616c655075626c696353616c653a206e6f74206265666f72655374617274416464576869746554696d65416363657373436f6e74726f6c3a2063616e206f6e6c792072656e6f756e636520726f6c657320666f722073656c665075626c696353616c653a2077686974656c697374537461727454696d6520686173206e6f74207061737365645075626c696353616c653a206e65656420746f206465706f73697420616e6420646f6e277420617474656e6420746865206f70656e53616c65a2646970667358221220229da5d830c0955fab7665668604b63df7da5089a93a339bc89791089a9ec24964736f6c63430007060033",
  "linkReferences": {},
  "deployedLinkReferences": {}
}