{
  "_format": "hh-sol-artifact-1",
  "contractName": "PublicSaleProxyFactory",
  "sourceName": "contracts/factory/PublicSaleProxyFactory.sol",
  "abi": [
    {
      "inputs": [],
      "stateMutability": "nonpayable",
      "type": "constructor"
    },
    {
      "anonymous": false,
      "inputs": [
        {
          "indexed": false,
          "internalType": "address",
          "name": "contractAddress",
          "type": "address"
        },
        {
          "indexed": false,
          "internalType": "string",
          "name": "name",
          "type": "string"
        }
      ],
      "name": "CreatedPublicSaleProxy",
      "type": "event"
    },
    {
      "anonymous": false,
      "inputs": [
        {
          "indexed": true,
          "internalType": "bytes32",
          "name": "role",
          "type": "bytes32"
        },
        {
          "indexed": true,
          "internalType": "bytes32",
          "name": "previousAdminRole",
          "type": "bytes32"
        },
        {
          "indexed": true,
          "internalType": "bytes32",
          "name": "newAdminRole",
          "type": "bytes32"
        }
      ],
      "name": "RoleAdminChanged",
      "type": "event"
    },
    {
      "anonymous": false,
      "inputs": [
        {
          "indexed": true,
          "internalType": "bytes32",
          "name": "role",
          "type": "bytes32"
        },
        {
          "indexed": true,
          "internalType": "address",
          "name": "account",
          "type": "address"
        },
        {
          "indexed": true,
          "internalType": "address",
          "name": "sender",
          "type": "address"
        }
      ],
      "name": "RoleGranted",
      "type": "event"
    },
    {
      "anonymous": false,
      "inputs": [
        {
          "indexed": true,
          "internalType": "bytes32",
          "name": "role",
          "type": "bytes32"
        },
        {
          "indexed": true,
          "internalType": "address",
          "name": "account",
          "type": "address"
        },
        {
          "indexed": true,
          "internalType": "address",
          "name": "sender",
          "type": "address"
        }
      ],
      "name": "RoleRevoked",
      "type": "event"
    },
    {
      "inputs": [],
      "name": "ADMIN_ROLE",
      "outputs": [
        {
          "internalType": "bytes32",
          "name": "",
          "type": "bytes32"
        }
      ],
      "stateMutability": "view",
      "type": "function"
    },
    {
      "inputs": [],
      "name": "BURNER_ROLE",
      "outputs": [
        {
          "internalType": "bytes32",
          "name": "",
          "type": "bytes32"
        }
      ],
      "stateMutability": "view",
      "type": "function"
    },
    {
      "inputs": [],
      "name": "DEFAULT_ADMIN_ROLE",
      "outputs": [
        {
          "internalType": "bytes32",
          "name": "",
          "type": "bytes32"
        }
      ],
      "stateMutability": "view",
      "type": "function"
    },
    {
      "inputs": [],
      "name": "MINTER_ROLE",
      "outputs": [
        {
          "internalType": "bytes32",
          "name": "",
          "type": "bytes32"
        }
      ],
      "stateMutability": "view",
      "type": "function"
    },
    {
      "inputs": [],
      "name": "PROJECT_ADMIN_ROLE",
      "outputs": [
        {
          "internalType": "bytes32",
          "name": "",
          "type": "bytes32"
        }
      ],
      "stateMutability": "view",
      "type": "function"
    },
    {
      "inputs": [
        {
          "internalType": "address",
          "name": "account",
          "type": "address"
        }
      ],
      "name": "addAdmin",
      "outputs": [],
      "stateMutability": "nonpayable",
      "type": "function"
    },
    {
      "inputs": [
        {
          "internalType": "address[4]",
          "name": "_addr",
          "type": "address[4]"
        },
        {
          "internalType": "uint256[7]",
          "name": "_value",
          "type": "uint256[7]"
        }
      ],
      "name": "allSet",
      "outputs": [],
      "stateMutability": "nonpayable",
      "type": "function"
    },
    {
      "inputs": [
        {
          "internalType": "address[6]",
          "name": "_basicAddress",
          "type": "address[6]"
        }
      ],
      "name": "basicSet",
      "outputs": [],
      "stateMutability": "nonpayable",
      "type": "function"
    },
    {
      "inputs": [
        {
          "internalType": "string",
          "name": "name",
          "type": "string"
        },
        {
          "internalType": "address",
          "name": "_owner",
          "type": "address"
        },
        {
          "internalType": "address[3]",
          "name": "saleAddresses",
          "type": "address[3]"
        },
        {
          "internalType": "uint256",
          "name": "_index",
          "type": "uint256"
        }
      ],
      "name": "create",
      "outputs": [
        {
          "internalType": "address",
          "name": "",
          "type": "address"
        }
      ],
      "stateMutability": "nonpayable",
      "type": "function"
    },
    {
      "inputs": [
        {
          "internalType": "uint256",
          "name": "",
          "type": "uint256"
        }
      ],
      "name": "createdContracts",
      "outputs": [
        {
          "internalType": "address",
          "name": "contractAddress",
          "type": "address"
        },
        {
          "internalType": "string",
          "name": "name",
          "type": "string"
        }
      ],
      "stateMutability": "view",
      "type": "function"
    },
    {
      "inputs": [],
      "name": "delayTime",
      "outputs": [
        {
          "internalType": "uint256",
          "name": "",
          "type": "uint256"
        }
      ],
      "stateMutability": "view",
      "type": "function"
    },
    {
      "inputs": [
        {
          "internalType": "uint256",
          "name": "_index",
          "type": "uint256"
        }
      ],
      "name": "getContracts",
      "outputs": [
        {
          "internalType": "address",
          "name": "contractAddress",
          "type": "address"
        },
        {
          "internalType": "string",
          "name": "name",
          "type": "string"
        }
      ],
      "stateMutability": "view",
      "type": "function"
    },
    {
      "inputs": [
        {
          "internalType": "bytes32",
          "name": "role",
          "type": "bytes32"
        }
      ],
      "name": "getRoleAdmin",
      "outputs": [
        {
          "internalType": "bytes32",
          "name": "",
          "type": "bytes32"
        }
      ],
      "stateMutability": "view",
      "type": "function"
    },
    {
      "inputs": [
        {
          "internalType": "bytes32",
          "name": "role",
          "type": "bytes32"
        },
        {
          "internalType": "address",
          "name": "account",
          "type": "address"
        }
      ],
      "name": "grantRole",
      "outputs": [],
      "stateMutability": "nonpayable",
      "type": "function"
    },
    {
      "inputs": [
        {
          "internalType": "bytes32",
          "name": "role",
          "type": "bytes32"
        },
        {
          "internalType": "address",
          "name": "account",
          "type": "address"
        }
      ],
      "name": "hasRole",
      "outputs": [
        {
          "internalType": "bool",
          "name": "",
          "type": "bool"
        }
      ],
      "stateMutability": "view",
      "type": "function"
    },
    {
      "inputs": [],
      "name": "initializerAddress",
      "outputs": [
        {
          "internalType": "address",
          "name": "",
          "type": "address"
        }
      ],
      "stateMutability": "view",
      "type": "function"
    },
    {
      "inputs": [
        {
          "internalType": "address",
          "name": "account",
          "type": "address"
        }
      ],
      "name": "isAdmin",
      "outputs": [
        {
          "internalType": "bool",
          "name": "",
          "type": "bool"
        }
      ],
      "stateMutability": "view",
      "type": "function"
    },
    {
      "inputs": [],
      "name": "lastestCreated",
      "outputs": [
        {
          "internalType": "address",
          "name": "contractAddress",
          "type": "address"
        },
        {
          "internalType": "string",
          "name": "name",
          "type": "string"
        }
      ],
      "stateMutability": "view",
      "type": "function"
    },
    {
      "inputs": [],
      "name": "logEventAddress",
      "outputs": [
        {
          "internalType": "address",
          "name": "",
          "type": "address"
        }
      ],
      "stateMutability": "view",
      "type": "function"
    },
    {
      "inputs": [],
      "name": "maxTOS",
      "outputs": [
        {
          "internalType": "uint256",
          "name": "",
          "type": "uint256"
        }
      ],
      "stateMutability": "view",
      "type": "function"
    },
    {
      "inputs": [],
      "name": "minTOS",
      "outputs": [
        {
          "internalType": "uint256",
          "name": "",
          "type": "uint256"
        }
      ],
      "stateMutability": "view",
      "type": "function"
    },
    {
      "inputs": [],
      "name": "publicLogic",
      "outputs": [
        {
          "internalType": "address",
          "name": "",
          "type": "address"
        }
      ],
      "stateMutability": "view",
      "type": "function"
    },
    {
      "inputs": [
        {
          "internalType": "address",
          "name": "account",
          "type": "address"
        }
      ],
      "name": "removeAdmin",
      "outputs": [],
      "stateMutability": "nonpayable",
      "type": "function"
    },
    {
      "inputs": [
        {
          "internalType": "bytes32",
          "name": "role",
          "type": "bytes32"
        },
        {
          "internalType": "address",
          "name": "account",
          "type": "address"
        }
      ],
      "name": "renounceRole",
      "outputs": [],
      "stateMutability": "nonpayable",
      "type": "function"
    },
    {
      "inputs": [
        {
          "internalType": "bytes32",
          "name": "role",
          "type": "bytes32"
        },
        {
          "internalType": "address",
          "name": "account",
          "type": "address"
        }
      ],
      "name": "revokeRole",
      "outputs": [],
      "stateMutability": "nonpayable",
      "type": "function"
    },
    {
      "inputs": [],
      "name": "sTOSAddress",
      "outputs": [
        {
          "internalType": "address",
          "name": "",
          "type": "address"
        }
      ],
      "stateMutability": "view",
      "type": "function"
    },
    {
      "inputs": [
        {
          "internalType": "uint256",
          "name": "_delay",
          "type": "uint256"
        }
      ],
      "name": "setDelay",
      "outputs": [],
      "stateMutability": "nonpayable",
      "type": "function"
    },
    {
      "inputs": [
        {
          "internalType": "address",
          "name": "_addr",
          "type": "address"
        }
      ],
      "name": "setEventLog",
      "outputs": [],
      "stateMutability": "nonpayable",
      "type": "function"
    },
    {
      "inputs": [
        {
          "internalType": "address",
          "name": "_addr",
          "type": "address"
        }
      ],
      "name": "setInitializer",
      "outputs": [],
      "stateMutability": "nonpayable",
      "type": "function"
    },
    {
      "inputs": [
        {
          "internalType": "uint256",
          "name": "_min",
          "type": "uint256"
        },
        {
          "internalType": "uint256",
          "name": "_max",
          "type": "uint256"
        }
      ],
      "name": "setMaxMin",
      "outputs": [],
      "stateMutability": "nonpayable",
      "type": "function"
    },
    {
      "inputs": [
        {
          "internalType": "uint256",
          "name": "_tier1",
          "type": "uint256"
        },
        {
          "internalType": "uint256",
          "name": "_tier2",
          "type": "uint256"
        },
        {
          "internalType": "uint256",
          "name": "_tier3",
          "type": "uint256"
        },
        {
          "internalType": "uint256",
          "name": "_tier4",
          "type": "uint256"
        }
      ],
      "name": "setSTOS",
      "outputs": [],
      "stateMutability": "nonpayable",
      "type": "function"
    },
    {
      "inputs": [
        {
          "internalType": "address",
          "name": "addr",
          "type": "address"
        }
      ],
      "name": "setUpgradeAdmin",
      "outputs": [],
      "stateMutability": "nonpayable",
      "type": "function"
    },
    {
      "inputs": [
        {
          "internalType": "address",
          "name": "_vaultFactory",
          "type": "address"
        }
      ],
      "name": "setVault",
      "outputs": [],
      "stateMutability": "nonpayable",
      "type": "function"
    },
    {
      "inputs": [
        {
          "internalType": "bytes4",
          "name": "interfaceId",
          "type": "bytes4"
        }
      ],
      "name": "supportsInterface",
      "outputs": [
        {
          "internalType": "bool",
          "name": "",
          "type": "bool"
        }
      ],
      "stateMutability": "view",
      "type": "function"
    },
    {
      "inputs": [],
      "name": "tier1",
      "outputs": [
        {
          "internalType": "uint256",
          "name": "",
          "type": "uint256"
        }
      ],
      "stateMutability": "view",
      "type": "function"
    },
    {
      "inputs": [],
      "name": "tier2",
      "outputs": [
        {
          "internalType": "uint256",
          "name": "",
          "type": "uint256"
        }
      ],
      "stateMutability": "view",
      "type": "function"
    },
    {
      "inputs": [],
      "name": "tier3",
      "outputs": [
        {
          "internalType": "uint256",
          "name": "",
          "type": "uint256"
        }
      ],
      "stateMutability": "view",
      "type": "function"
    },
    {
      "inputs": [],
      "name": "tier4",
      "outputs": [
        {
          "internalType": "uint256",
          "name": "",
          "type": "uint256"
        }
      ],
      "stateMutability": "view",
      "type": "function"
    },
    {
      "inputs": [],
      "name": "tonAddress",
      "outputs": [
        {
          "internalType": "address",
          "name": "",
          "type": "address"
        }
      ],
      "stateMutability": "view",
      "type": "function"
    },
    {
      "inputs": [],
      "name": "tosAddress",
      "outputs": [
        {
          "internalType": "address",
          "name": "",
          "type": "address"
        }
      ],
      "stateMutability": "view",
      "type": "function"
    },
    {
      "inputs": [],
      "name": "totalCreatedContracts",
      "outputs": [
        {
          "internalType": "uint256",
          "name": "",
          "type": "uint256"
        }
      ],
      "stateMutability": "view",
      "type": "function"
    },
    {
      "inputs": [
        {
          "internalType": "address",
          "name": "newAdmin",
          "type": "address"
        }
      ],
      "name": "transferAdmin",
      "outputs": [],
      "stateMutability": "nonpayable",
      "type": "function"
    },
    {
      "inputs": [],
      "name": "uniRouterAddress",
      "outputs": [
        {
          "internalType": "address",
          "name": "",
          "type": "address"
        }
      ],
      "stateMutability": "view",
      "type": "function"
    },
    {
      "inputs": [],
      "name": "upgradeAdmin",
      "outputs": [
        {
          "internalType": "address",
          "name": "",
          "type": "address"
        }
      ],
      "stateMutability": "view",
      "type": "function"
    },
    {
      "inputs": [],
      "name": "vaultFactory",
      "outputs": [
        {
          "internalType": "address",
          "name": "",
          "type": "address"
        }
      ],
      "stateMutability": "view",
      "type": "function"
    },
    {
      "inputs": [],
      "name": "wtonAddress",
      "outputs": [
        {
          "internalType": "address",
          "name": "",
          "type": "address"
        }
      ],
      "stateMutability": "view",
      "type": "function"
    }
  ],
  "bytecode": "0x60806040523480156200001157600080fd5b50600060015562000032600080516020620051458339815191528062000065565b6200004d6000805160206200514583398151915233620000b0565b600d80546001600160a01b0319163317905562000160565b600082815260208190526040808220600101805490849055905190918391839186917fbd79b86ffe0ab8e8776151514217cd7cacd52c909f66475c3af44e129f0b00ff9190a4505050565b620000bc8282620000c0565b5050565b6000828152602081815260408083206001600160a01b038516845290915290205460ff16620000bc576000828152602081815260408083206001600160a01b03851684529091529020805460ff191660011790556200011c3390565b6001600160a01b0316816001600160a01b0316837f2f8788117e7eff1d82e926ec794901d17c78024a50270940304540a733656f0d60405160405180910390a45050565b614fd580620001706000396000f3fe60806040523480156200001157600080fd5b50600436106200024a5760003560e01c806301ffc9a7146200024f57806308811397146200027b5780630eec5ef114620002a25780631042f08d14620002bb5780631785f53c14620002de5780631b61aaab14620002f5578063248a9ca3146200030c57806324d7806c1462000332578063282c51f314620003495780632f2ff15d1462000371578063338bad5f146200038857806333ae71661462000392578063347bfc62146200039c57806336568abe14620003b35780633806153e14620003ca57806341c04d5e14620003d4578063439e23fd14620003fc5780634a24005114620004135780634b1740ad1462000427578063520a63dc14620004315780635c24b074146200043b5780636817031b1462000452578063693a090b14620004695780636a93d511146200047d57806370480275146200049157806375829def14620004a857806375b238fc14620004bf57806377fc004514620004d65780637e2eee5314620004ea57806384d3bac314620004f457806389ae153e14620004fe578063906a5c5a146200051557806391d14854146200052c5780639342f4171462000543578063a217fddf146200055a578063b8ead7351462000563578063bb6b13a11462000577578063c4d5608a1462000581578063d05261871462000595578063d5391393146200059f578063d547741f14620005c7578063d6dc0b0d14620005de578063d8a06f7314620005f2578063e177246e1462000606578063eab73ca1146200061d578063fc8c97451462000631575b600080fd5b620002666200026036600462001e06565b62000648565b60405190151581526020015b60405180910390f35b620002926200028c36600462001e32565b62000680565b6040516200027292919062001ea0565b620002b9620002b336600462001ece565b62000737565b005b600754620002cf906001600160a01b031681565b60405162000272919062001ef8565b620002b9620002ef36600462001f22565b62000896565b620002b96200030636600462001f42565b620008de565b620003236200031d36600462001e32565b62000976565b60405190815260200162000272565b620002666200034336600462001f22565b6200098b565b620003237f9667e80708b6eeeb0053fa0cca44e028ff548e2a9f029edfeac87c118b08b7c881565b620002b96200038236600462001f75565b620009a8565b62000292620009cf565b6200032360115481565b620002b9620003ad36600462001fa8565b62000ae8565b620002b9620003c436600462001f75565b62000ba9565b62000323600f5481565b620003237f52eafc11f6f81f86878bffd31109a0d92f37506527754f00788853ff9f63b13081565b620002926200040d36600462001e32565b62000c27565b600c54620002cf906001600160a01b031681565b6200032360105481565b6200032360025481565b620002b96200044c36600462001f22565b62000d0d565b620002b96200046336600462001f22565b62000d8a565b600854620002cf906001600160a01b031681565b600454620002cf906001600160a01b031681565b620002b9620004a236600462001f22565b62000e07565b620002b9620004b936600462001f22565b62000e4c565b6200032360008051602062004f8083398151915281565b600654620002cf906001600160a01b031681565b6200032360125481565b6200032360035481565b620002b96200050f36600462001fef565b62000f52565b620002cf6200052636600462002012565b62000fc9565b620002666200053d36600462001f75565b620018e6565b620002b96200055436600462001f22565b6200190f565b62000323600081565b600554620002cf906001600160a01b031681565b62000323600e5481565b600d54620002cf906001600160a01b031681565b6200032360015481565b620003237ff0887ba65ee2024ea881d91b74c2450ef19e1557f03bed3ea9f16b037cbe2dc981565b620002b9620005d836600462001f75565b620019b7565b600b54620002cf906001600160a01b031681565b600954620002cf906001600160a01b031681565b620002b96200061736600462001e32565b620019d9565b600a54620002cf906001600160a01b031681565b620002b96200064236600462001f22565b62001a48565b60006001600160e01b03198216637965db0b60e01b14806200067a57506301ffc9a760e01b6001600160e01b03198316145b92915050565b601360205260009081526040902080546001820180546001600160a01b039092169291620006ae90620020b9565b80601f0160208091040260200160405190810160405280929190818152602001828054620006dc90620020b9565b80156200072d5780601f1062000701576101008083540402835291602001916200072d565b820191906000526020600020905b8154815290600101906020018083116200070f57829003601f168201915b5050505050905082565b62000742336200098b565b6200076a5760405162461bcd60e51b81526004016200076190620020ef565b60405180910390fd5b62000779602082018262001f22565b600480546001600160a01b0319166001600160a01b0392909216919091179055620007ab604082016020830162001f22565b600580546001600160a01b0319166001600160a01b0392909216919091179055620007dd606082016040830162001f22565b600680546001600160a01b0319166001600160a01b03929092169190911790556200080f608082016060830162001f22565b600780546001600160a01b0319166001600160a01b03929092169190911790556200084160a082016080830162001f22565b600880546001600160a01b0319166001600160a01b03929092169190911790556200087360c0820160a0830162001f22565b600c80546001600160a01b0319166001600160a01b039290921691909117905550565b620008a1336200098b565b620008c05760405162461bcd60e51b81526004016200076190620020ef565b620008db60008051602062004f808339815191528262000ba9565b50565b620008e9336200098b565b620009085760405162461bcd60e51b81526004016200076190620020ef565b82841080156200091757508183105b80156200092357508082105b620009625760405162461bcd60e51b815260206004820152600e60248201526d3a34b2b91039b2ba1032b93937b960911b604482015260640162000761565b600e93909355600f91909155601055601155565b60009081526020819052604090206001015490565b60006200067a60008051602062004f8083398151915283620018e6565b620009b38262000976565b620009be8162001ac5565b620009ca838362001ad1565b505050565b600060606000600154111562000ad3576013600060018054620009f391906200215d565b81526020810191909152604001600090812054600180546001600160a01b0390921692601392909162000a26916200215d565b815260200190815260200160002060010180805462000a4590620020b9565b80601f016020809104026020016040519081016040528092919081815260200182805462000a7390620020b9565b801562000ac45780601f1062000a985761010080835404028352916020019162000ac4565b820191906000526020600020905b81548152906001019060200180831162000aa657829003601f168201915b50505050509050915091509091565b50506040805160208101909152600080825291565b62000af3336200098b565b62000b125760405162461bcd60e51b81526004016200076190620020ef565b62000b2562000554602084018462001f22565b62000b3b62000463604084016020850162001f22565b62000b5162000642606084016040850162001f22565b62000b676200044c608084016060850162001f22565b62000b788135602083013562000f52565b62000b9660408201356060830135608084013560a0850135620008de565b62000ba560c0820135620019d9565b5050565b6001600160a01b038116331462000c1b5760405162461bcd60e51b815260206004820152602f60248201527f416363657373436f6e74726f6c3a2063616e206f6e6c792072656e6f756e636560448201526e103937b632b9903337b91039b2b63360891b606482015260840162000761565b62000ba5828262001b59565b6000606060015483101562000cf55760008381526013602052604090208054600190910180546001600160a01b0390921691819062000c6690620020b9565b80601f016020809104026020016040519081016040528092919081815260200182805462000c9490620020b9565b801562000ce55780601f1062000cb95761010080835404028352916020019162000ce5565b820191906000526020600020905b81548152906001019060200180831162000cc757829003601f168201915b5050505050905091509150915091565b50506040805160208101909152600080825292909150565b62000d18336200098b565b62000d375760405162461bcd60e51b81526004016200076190620020ef565b600b546001600160a01b039081169082160362000d685760405162461bcd60e51b8152600401620007619062002173565b600b80546001600160a01b0319166001600160a01b0392909216919091179055565b62000d95336200098b565b62000db45760405162461bcd60e51b81526004016200076190620020ef565b6009546001600160a01b039081169082160362000de55760405162461bcd60e51b8152600401620007619062002173565b600980546001600160a01b0319166001600160a01b0392909216919091179055565b62000e12336200098b565b62000e315760405162461bcd60e51b81526004016200076190620020ef565b620008db60008051602062004f8083398151915282620009a8565b62000e57336200098b565b62000e765760405162461bcd60e51b81526004016200076190620020ef565b6001600160a01b03811662000ec95760405162461bcd60e51b815260206004820152601860248201527741636365737369626c653a207a65726f206164647265737360401b604482015260640162000761565b6001600160a01b038116330362000f1c5760405162461bcd60e51b815260206004820152601660248201527520b1b1b2b9b9b4b136329d1039b0b6b29030b236b4b760511b604482015260640162000761565b62000f3760008051602062004f8083398151915282620009a8565b620008db60008051602062004f808339815191523362000ba9565b62000f5d336200098b565b62000f7c5760405162461bcd60e51b81526004016200076190620020ef565b80821062000fbe5760405162461bcd60e51b815260206004820152600e60248201526d0dccacac840dad2dc407840dac2f60931b604482015260640162000761565b600291909155600355565b6000836001600160a01b03811662000ff55760405162461bcd60e51b8152600401620007619062002197565b62001004602085018562001f22565b6001600160a01b0381166200102d5760405162461bcd60e51b8152600401620007619062002197565b6200103f604086016020870162001f22565b6001600160a01b038116620010685760405162461bcd60e51b8152600401620007619062002197565b6200107a606087016040880162001f22565b6001600160a01b038116620010a35760405162461bcd60e51b8152600401620007619062002197565b88620010e25760405162461bcd60e51b815260206004820152600d60248201526c6e616d6520697320656d70747960981b604482015260640162000761565b6000604051620010f29062001df8565b604051809103906000f0801580156200110f573d6000803e3d6000fd5b5090506001600160a01b038116620011575760405162461bcd60e51b815260206004820152600a60248201526970726f7879207a65726f60b01b604482015260640162000761565b60095460405163439e23fd60e01b8152600481018990526000916001600160a01b03169063439e23fd90602401600060405180830381865afa158015620011a2573d6000803e3d6000fd5b505050506040513d6000823e601f3d908101601f19168201604052620011cc9190810190620021e3565b509050620011e160608a0160408b0162001f22565b6001600160a01b0316816001600160a01b0316146200123c5760405162461bcd60e51b8152602060048201526016602482015275185b9bdd1a195c881b1a5c5d5a591a5d1e55985d5b1d60521b604482015260640162000761565b600d546040516325bc555f60e21b81526001600160a01b03848116926396f1557c9262001270929091169060040162001ef8565b600060405180830381600087803b1580156200128b57600080fd5b505af1158015620012a0573d6000803e3d6000fd5b5050600d54604051637048027560e01b81526001600160a01b03808716945063704802759350620012d692169060040162001ef8565b600060405180830381600087803b158015620012f157600080fd5b505af115801562001306573d6000803e3d6000fd5b5050604051637048027560e01b81526001600160a01b03851692506370480275915062001338908d9060040162001ef8565b600060405180830381600087803b1580156200135357600080fd5b505af115801562001368573d6000803e3d6000fd5b5050600b54604051637048027560e01b81526001600160a01b038087169450637048027593506200139e92169060040162001ef8565b600060405180830381600087803b158015620013b957600080fd5b505af1158015620013ce573d6000803e3d6000fd5b5050600c54604051637cd5f66360e01b81526001600160a01b03918216600482015260006024820152600160448201529085169250637cd5f6639150606401600060405180830381600087803b1580156200142857600080fd5b505af11580156200143d573d6000803e3d6000fd5b5050506001600160a01b038316905063c0c53b8b6200146060208c018c62001f22565b6200147260408d0160208e0162001f22565b6200148460608e0160408f0162001f22565b60405160e085901b6001600160e01b03191681526001600160a01b03938416600482015291831660248301529091166044820152606401600060405180830381600087803b158015620014d657600080fd5b505af1158015620014eb573d6000803e3d6000fd5b505060048054600654600554600854600754604051636d9ff15760e01b81526001600160a01b039586169681019690965292841660248601529083166044850152821660648401528116608483015285169250636d9ff157915060a401600060405180830381600087803b1580156200156357600080fd5b505af115801562001578573d6000803e3d6000fd5b505060025460035460405163653a151b60e01b8152600481019290925260248201526001600160a01b038516925063653a151b9150604401600060405180830381600087803b158015620015cb57600080fd5b505af1158015620015e0573d6000803e3d6000fd5b5050600e54600f5460105460115460405163561e233b60e11b815260048101949094526024840192909252604483015260648201526001600160a01b038516925063ac3c46769150608401600060405180830381600087803b1580156200164657600080fd5b505af11580156200165b573d6000803e3d6000fd5b505060125460405163112a3da360e31b815260048101919091526001600160a01b0385169250638951ed189150602401600060405180830381600087803b158015620016a657600080fd5b505af1158015620016bb573d6000803e3d6000fd5b50505050816001600160a01b0316639a202d476040518163ffffffff1660e01b8152600401600060405180830381600087803b158015620016fb57600080fd5b505af115801562001710573d6000803e3d6000fd5b505050506040518060400160405280836001600160a01b031681526020018d8d8080601f0160208091040260200160405190810160405280939291908181526020018383808284376000920182905250939094525050600180548252601360209081526040909220845181546001600160a01b0319166001600160a01b0390911617815591840151919250820190620017aa908262002305565b50506001805491506000620017bf83620023d1565b91905055506000828d8d604051602001620017dd93929190620023ed565b60408051601f1981840301815290829052600a5463beee31bf60e01b83529092506001600160a01b03169063beee31bf9062001864907f5f972b23217734c5c40aaa04980bc647314f310a8679234cf0bc9478803286f5907f28f876e0274a3093ecb1b6a264297d94e351fbdf53f265e39c0f76bb12efedf990309087906004016200242d565b600060405180830381600087803b1580156200187f57600080fd5b505af115801562001894573d6000803e3d6000fd5b505050507fb5f4f34b25ae6ed4df40be765442ea13afd293618f4f3815fee7de7ed6244378838e8e604051620018cd93929190620023ed565b60405180910390a150909b9a5050505050505050505050565b6000918252602082815260408084206001600160a01b0393909316845291905290205460ff1690565b6200191a336200098b565b620019395760405162461bcd60e51b81526004016200076190620020ef565b806001600160a01b038116620019635760405162461bcd60e51b8152600401620007619062002197565b600d546001600160a01b0390811690831603620019945760405162461bcd60e51b8152600401620007619062002173565b50600d80546001600160a01b0319166001600160a01b0392909216919091179055565b620019c28262000976565b620019cd8162001ac5565b620009ca838362001b59565b620019e4336200098b565b62001a035760405162461bcd60e51b81526004016200076190620020ef565b806012540362001a435760405162461bcd60e51b815260206004820152600a60248201526973616d652076616c756560b01b604482015260640162000761565b601255565b62001a53336200098b565b62001a725760405162461bcd60e51b81526004016200076190620020ef565b600a546001600160a01b039081169082160362001aa35760405162461bcd60e51b8152600401620007619062002173565b600a80546001600160a01b0319166001600160a01b0392909216919091179055565b620008db813362001bc1565b62001add8282620018e6565b62000ba5576000828152602081815260408083206001600160a01b03851684529091529020805460ff1916600117905562001b153390565b6001600160a01b0316816001600160a01b0316837f2f8788117e7eff1d82e926ec794901d17c78024a50270940304540a733656f0d60405160405180910390a45050565b62001b658282620018e6565b1562000ba5576000828152602081815260408083206001600160a01b0385168085529252808320805460ff1916905551339285917ff6391f5c32d9c69d2a47ea670b442974b53935d1edc7fd64eb21e047a839171b9190a45050565b62001bcd8282620018e6565b62000ba55762001bdd8162001c25565b62001bea83602062001c38565b60405160200162001bfd92919062002466565b60408051601f198184030181529082905262461bcd60e51b82526200076191600401620024d9565b60606200067a6001600160a01b03831660145b6060600062001c49836002620024ee565b62001c5690600262002510565b6001600160401b0381111562001c705762001c70620021cd565b6040519080825280601f01601f19166020018201604052801562001c9b576020820181803683370190505b509050600360fc1b8160008151811062001cb95762001cb962002131565b60200101906001600160f81b031916908160001a905350600f60fb1b8160018151811062001ceb5762001ceb62002131565b60200101906001600160f81b031916908160001a905350600062001d11846002620024ee565b62001d1e90600162002510565b90505b600181111562001da0576f181899199a1a9b1b9c1cb0b131b232b360811b85600f166010811062001d565762001d5662002131565b1a60f81b82828151811062001d6f5762001d6f62002131565b60200101906001600160f81b031916908160001a90535060049490941c9362001d988162002526565b905062001d21565b50831562001df15760405162461bcd60e51b815260206004820181905260248201527f537472696e67733a20686578206c656e67746820696e73756666696369656e74604482015260640162000761565b9392505050565b612a3f806200254183390190565b60006020828403121562001e1957600080fd5b81356001600160e01b03198116811462001df157600080fd5b60006020828403121562001e4557600080fd5b5035919050565b60005b8381101562001e6957818101518382015260200162001e4f565b50506000910152565b6000815180845262001e8c81602086016020860162001e4c565b601f01601f19169290920160200192915050565b6001600160a01b038316815260406020820181905260009062001ec69083018462001e72565b949350505050565b600060c0828403121562001ee157600080fd5b8260c08301111562001ef257600080fd5b50919050565b6001600160a01b0391909116815260200190565b6001600160a01b0381168114620008db57600080fd5b60006020828403121562001f3557600080fd5b813562001df18162001f0c565b6000806000806080858703121562001f5957600080fd5b5050823594602084013594506040840135936060013592509050565b6000806040838503121562001f8957600080fd5b82359150602083013562001f9d8162001f0c565b809150509250929050565b60008061016080848603121562001fbe57600080fd5b608084018581111562001fd057600080fd5b84935085828601111562001fe357600080fd5b80925050509250929050565b600080604083850312156200200357600080fd5b50508035926020909101359150565b600080600080600060c086880312156200202b57600080fd5b85356001600160401b03808211156200204357600080fd5b818801915088601f8301126200205857600080fd5b8135818111156200206857600080fd5b8960208285010111156200207b57600080fd5b60209283019750955050860135620020938162001f0c565b925060a0860187811115620020a757600080fd5b94979396509194604001933592915050565b600181811c90821680620020ce57607f821691505b60208210810362001ef257634e487b7160e01b600052602260045260246000fd5b60208082526022908201527f41636365737369626c653a2043616c6c6572206973206e6f7420616e2061646d60408201526134b760f11b606082015260800190565b634e487b7160e01b600052603260045260246000fd5b634e487b7160e01b600052601160045260246000fd5b818103818111156200067a576200067a62002147565b6020808252600a908201526973616d6520616464727360b01b604082015260600190565b6020808252601c908201527b5075626c696353616c6550726f7879466163746f72793a207a65726f60201b604082015260600190565b634e487b7160e01b600052604160045260246000fd5b60008060408385031215620021f757600080fd5b8251620022048162001f0c565b60208401519092506001600160401b03808211156200222257600080fd5b818501915085601f8301126200223757600080fd5b8151818111156200224c576200224c620021cd565b604051601f8201601f19908116603f01168101908382118183101715620022775762002277620021cd565b816040528281528860208487010111156200229157600080fd5b620022a483602083016020880162001e4c565b80955050505050509250929050565b601f821115620009ca57600081815260208120601f850160051c81016020861015620022dc5750805b601f850160051c820191505b81811015620022fd57828155600101620022e8565b505050505050565b81516001600160401b03811115620023215762002321620021cd565b6200233981620023328454620020b9565b84620022b3565b602080601f831160018114620023715760008415620023585750858301515b600019600386901b1c1916600185901b178555620022fd565b600085815260208120601f198616915b82811015620023a25788860151825594840194600190910190840162002381565b5085821015620023c15787850151600019600388901b60f8161c191681555b5050505050600190811b01905550565b600060018201620023e657620023e662002147565b5060010190565b6001600160a01b03841681526040602082018190528101829052818360608301376000818301606090810191909152601f909201601f1916010192915050565b84815283602082015260018060a01b03831660408201526080606082015260006200245c608083018462001e72565b9695505050505050565b76020b1b1b2b9b9a1b7b73a3937b61d1030b1b1b7bab73a1604d1b8152600083516200249a81601785016020880162001e4c565b7001034b99036b4b9b9b4b733903937b6329607d1b6017918401918201528351620024cd81602884016020880162001e4c565b01602801949350505050565b60208152600062001df1602083018462001e72565b60008160001904831182151516156200250b576200250b62002147565b500290565b808201808211156200067a576200067a62002147565b60008162002538576200253862002147565b50600019019056fe60806040526000805560006003556000600455600060055560006006556000600755600060085560006009556000600a556000600b556000600c556000600d556000600e556000600f5573b27308f9f90d607463bb33ea1bebb41c27ce5ab6602260006101000a8154816001600160a01b0302191690836001600160a01b031602179055503480156200009157600080fd5b50620000ad60008051602062002a1f8339815191528062000108565b620000c860008051602062002a1f8339815191523362000153565b620000d560003362000153565b7f4273ca16e32229270629d776700e1c07e4a1080fc9b26d21f6608efc2b31dc4d620001018162000163565b506200028b565b600082815260386020526040808220600101805490849055905190918391839186917fbd79b86ffe0ab8e8776151514217cd7cacd52c909f66475c3af44e129f0b00ff9190a4505050565b6200015f8282620001e7565b5050565b6001600160e01b03198082169003620001c25760405162461bcd60e51b815260206004820152601c60248201527f4552433136353a20696e76616c696420696e7465726661636520696400000000604482015260640160405180910390fd5b6001600160e01b0319166000908152603d60205260409020805460ff19166001179055565b60008281526038602090815260408083206001600160a01b038516845290915290205460ff166200015f5760008281526038602090815260408083206001600160a01b03851684529091529020805460ff19166001179055620002473390565b6001600160a01b0316816001600160a01b0316837f2f8788117e7eff1d82e926ec794901d17c78024a50270940304540a733656f0d60405160405180910390a45050565b612784806200029b6000396000f3fe6080604052600436106104315760003560e01c80638356ca4f116102275780638356ca4f14610a6e5780638951ed1814610a8e57806389f395de14610aae5780638b8f4a6514610ace5780638d4fdb4014610aee5780638d62d94914610b0e5780638f68711a14610b2e57806391d1485414610b5b57806394f641d514610b7b5780639525269214610b9157806396f1557c14610ba75780639711715a14610bc75780639a202d4714610bdd5780639d18fde714610bf25780639f87b77f14610c08578063a055e62514610c1e578063a217fddf14610c34578063a389595f14610c49578063a55abb1714610c5f578063ac3c467614610c75578063b7182b9514610c95578063b911135f14610cb5578063b960ca0414610ceb578063be72f2d314610d01578063bfc630b114610d16578063bff1f9e114610d2c578063c0c53b8b14610d42578063c3e5763514610d62578063c5408d5014610d78578063c6bbd5a714610d8e578063cae9ce1b14610dae578063cf437a8f14610e16578063d539139314610e48578063d547741f14610e7c578063dc560fcd14610e9c578063e016bac414610eb2578063e4b2fb7914610ec8578063e985e36714610ee8578063eaff056d14610f08578063eb8445f814610f1e578063ed5131f514610f34578063f18d20be14610f54578063f47f2f1d14610f6e578063fb86a40414610f8e578063fe404c9614610fa4578063fe4d5add14610fc4578063ff6dac7614610fe457610438565b806301ffc9a714610442578063039af9eb14610477578063089fe6aa146104b25780630b433a12146104dc5780630b7459eb146104f25780631bfc751e1461052a5780631c53f2561461054057806321df0da714610556578063226bf1a414610576578063248a9ca31461058c57806324d7806c146105ac578063256019d6146105cc578063282c51f3146105e25780632f2ff15d1461061657806336568abe146106365780633659cfe61461065657806337bf0719146106765780633ef541b51461069657806341c04d5e146106ac57806341c0cb77146106ce5780634a5df50f1461072b5780634dd199211461074b57806350d2a2761461076b57806351d28a7e146107a157806351ebde6d146107b7578063550d01a3146107cd5780635c60da1b146107fd5780635cc797d81461081257806361a334271461083257806363a8fd8914610848578063653a151b1461086257806366ce72711461088257806367b399a51461089857806369048005146108c55780636d9ff157146108f25780637048027514610912578063735de9f71461093257806375829def1461095257806375b238fc14610972578063768b821f146109a65780637a40624b146109bc5780637cb00d25146109d25780637cd5f663146109f25780637dc2cd9814610a125780637e2eee5314610a2857806381a9f6d714610a3e578063822754a314610a5457610438565b3661043857005b610440611024565b005b34801561044e57600080fd5b5061046261045d366004612181565b6110d2565b60405190151581526020015b60405180910390f35b34801561048357600080fd5b506104a46104923660046121ab565b60336020526000908152604090205481565b60405190815260200161046e565b3480156104be57600080fd5b506104c8610bb881565b60405162ffffff909116815260200161046e565b3480156104e857600080fd5b506104a460155481565b3480156104fe57600080fd5b50602454610512906001600160a01b031681565b6040516001600160a01b03909116815260200161046e565b34801561053657600080fd5b506104a460095481565b34801561054c57600080fd5b506104a4601b5481565b34801561056257600080fd5b50602654610512906001600160a01b031681565b34801561058257600080fd5b506104a460145481565b34801561059857600080fd5b506104a46105a73660046121ab565b6110e3565b3480156105b857600080fd5b506104626105c73660046121db565b6110f8565b3480156105d857600080fd5b506104a4602d5481565b3480156105ee57600080fd5b506104a47f9667e80708b6eeeb0053fa0cca44e028ff548e2a9f029edfeac87c118b08b7c881565b34801561062257600080fd5b506104406106313660046121f6565b611112565b34801561064257600080fd5b506104406106513660046121f6565b61112e565b34801561066257600080fd5b506104406106713660046121db565b6111ac565b34801561068257600080fd5b50602954610512906001600160a01b031681565b3480156106a257600080fd5b506104a460085481565b3480156106b857600080fd5b506104a460008051602061272f83398151915281565b3480156106da57600080fd5b5061070e6106e93660046121db565b60316020526000908152604090208054600182015460029092015460ff909116919083565b60408051931515845260208401929092529082015260600161046e565b34801561073757600080fd5b50610440610746366004612222565b6112c0565b34801561075757600080fd5b50602054610512906001600160a01b031681565b34801561077757600080fd5b50610512610786366004612181565b603c602052600090815260409020546001600160a01b031681565b3480156107ad57600080fd5b506104a460135481565b3480156107c357600080fd5b506104a4601e5481565b3480156107d957600080fd5b506104626107e83660046121db565b603b6020526000908152604090205460ff1681565b34801561080957600080fd5b5061051261152c565b34801561081e57600080fd5b5061044061082d3660046122b3565b61153d565b34801561083e57600080fd5b506104a4600d5481565b34801561085457600080fd5b506039546104629060ff1681565b34801561086e57600080fd5b5061044061087d3660046122ea565b61157b565b34801561088e57600080fd5b506104a460065481565b3480156108a457600080fd5b506104a46108b33660046121ab565b60346020526000908152604090205481565b3480156108d157600080fd5b506104a46108e03660046121ab565b60366020526000908152604090205481565b3480156108fe57600080fd5b5061044061090d36600461230c565b6115eb565b34801561091e57600080fd5b5061044061092d3660046121db565b611779565b34801561093e57600080fd5b50602154610512906001600160a01b031681565b34801561095e57600080fd5b5061044061096d3660046121db565b6117b9565b34801561097e57600080fd5b506104a47fdf8b4c520ffe197c5343c6f5aec59570151ef9a492f2c624fd45ddde6135ec4281565b3480156109b257600080fd5b506104a4601d5481565b3480156109c857600080fd5b506104a460015481565b3480156109de57600080fd5b506104406109ed366004612371565b61186b565b3480156109fe57600080fd5b50610440610a0d36600461238e565b6118b2565b348015610a1e57600080fd5b506104a460165481565b348015610a3457600080fd5b506104a460025481565b348015610a4a57600080fd5b506104a460075481565b348015610a6057600080fd5b506037546104629060ff1681565b348015610a7a57600080fd5b50610440610a893660046121db565b6118f1565b348015610a9a57600080fd5b50610440610aa93660046121ab565b61197a565b348015610aba57600080fd5b50602854610512906001600160a01b031681565b348015610ada57600080fd5b50610512610ae93660046121ab565b6119a4565b348015610afa57600080fd5b50610512610b09366004612181565b6119af565b348015610b1a57600080fd5b50602554610512906001600160a01b031681565b348015610b3a57600080fd5b506104a4610b493660046121ab565b60356020526000908152604090205481565b348015610b6757600080fd5b50610462610b763660046121f6565b611a87565b348015610b8757600080fd5b506104a4600c5481565b348015610b9d57600080fd5b506104a460035481565b348015610bb357600080fd5b50610440610bc23660046121db565b611ab2565b348015610bd357600080fd5b506104a460005481565b348015610be957600080fd5b50610440611ae2565b348015610bfe57600080fd5b506104a460195481565b348015610c1457600080fd5b506104a4601c5481565b348015610c2a57600080fd5b506104a4600b5481565b348015610c4057600080fd5b506104a4600081565b348015610c5557600080fd5b506104a4601a5481565b348015610c6b57600080fd5b506104a4600f5481565b348015610c8157600080fd5b50610440610c903660046123ce565b611b30565b348015610ca157600080fd5b50602354610512906001600160a01b031681565b348015610cc157600080fd5b50610512610cd03660046121ab565b603a602052600090815260409020546001600160a01b031681565b348015610cf757600080fd5b506104a460115481565b348015610d0d57600080fd5b50610440611bbf565b348015610d2257600080fd5b506104a460125481565b348015610d3857600080fd5b506104a4600a5481565b348015610d4e57600080fd5b50610440610d5d366004612400565b611bef565b348015610d6e57600080fd5b506104a460045481565b348015610d8457600080fd5b506104a460105481565b348015610d9a57600080fd5b50602254610512906001600160a01b031681565b348015610dba57600080fd5b50610df4610dc93660046121db565b603060205260009081526040902080546001820154600283015460039093015460ff90921692909184565b604080519415158552602085019390935291830152606082015260800161046e565b348015610e2257600080fd5b50603754610e3590610100900460020b81565b60405160029190910b815260200161046e565b348015610e5457600080fd5b506104a47ff0887ba65ee2024ea881d91b74c2450ef19e1557f03bed3ea9f16b037cbe2dc981565b348015610e8857600080fd5b50610440610e973660046121f6565b611c77565b348015610ea857600080fd5b506104a4601f5481565b348015610ebe57600080fd5b506104a460055481565b348015610ed457600080fd5b50610512610ee33660046121ab565b611c93565b348015610ef457600080fd5b50602754610512906001600160a01b031681565b348015610f1457600080fd5b506104a460175481565b348015610f2a57600080fd5b506104a4600e5481565b348015610f4057600080fd5b506104a4610f4f3660046121ab565b611cbd565b348015610f6057600080fd5b50602c546104629060ff1681565b348015610f7a57600080fd5b50610462610f893660046121db565b611cde565b348015610f9a57600080fd5b506104a460185481565b348015610fb057600080fd5b506104a4610fbf3660046121ab565b611cea565b348015610fd057600080fd5b50610512610fdf3660046121ab565b611cfa565b348015610ff057600080fd5b5061070e610fff3660046121db565b60326020526000908152604090208054600182015460029092015460ff909116919083565b600061103b6000356001600160e01b0319166119af565b90506001600160a01b03811615801590611058575060395460ff16155b6110a95760405162461bcd60e51b815260206004820152601d60248201527f50726f78793a20696d706c204f522070726f78792069732066616c736500000060448201526064015b60405180910390fd5b3660008037600080366000845af43d6000803e8080156110c8573d6000f35b3d6000fd5b505050565b60006110dd82611d0a565b92915050565b60009081526038602052604090206001015490565b60006110dd60008051602061272f83398151915283611a87565b61111b826110e3565b61112481611d3b565b6110cd8383611d45565b6001600160a01b038116331461119e5760405162461bcd60e51b815260206004820152602f60248201527f416363657373436f6e74726f6c3a2063616e206f6e6c792072656e6f756e636560448201526e103937b632b9903337b91039b2b63360891b60648201526084016110a0565b6111a88282611dcb565b5050565b6111b5336110f8565b806111c457506111c433611cde565b6111e05760405162461bcd60e51b81526004016110a09061243a565b6001600160a01b0381166112265760405162461bcd60e51b815260206004820152600d60248201526c696e707574206973207a65726f60981b60448201526064016110a0565b806001600160a01b031661123a6000611e32565b6001600160a01b03160361127c5760405162461bcd60e51b815260206004820152600960248201526839b0b6b29030b2323960b91b60448201526064016110a0565b6112898160006001611e4d565b6040516001600160a01b038216907fbc7cd75a20ee27fd9adebab32041f755214dbc6bffa90cc0225b39da2e5c2d3b90600090a250565b6112c9336110f8565b806112d857506112d833611cde565b6112f45760405162461bcd60e51b81526004016110a09061243a565b816113415760405162461bcd60e51b815260206004820181905260248201527f50726f78793a205f73656c6563746f727327732073697a65206973207a65726f60448201526064016110a0565b6001600160a01b0381166000908152603b602052604090205460ff166113a45760405162461bcd60e51b815260206004820152601860248201527750726f78793a205f696d70206973206e6f7420616c69766560401b60448201526064016110a0565b60005b8281101561152657816001600160a01b0316603c60008686858181106113cf576113cf61247c565b90506020020160208101906113e49190612181565b6001600160e01b03191681526020810191909152604001600020546001600160a01b0316036114555760405162461bcd60e51b815260206004820152601d60248201527f4c69717569646974795661756c7450726f78793a2073616d6520696d7000000060448201526064016110a0565b81603c600086868581811061146c5761146c61247c565b90506020020160208101906114819190612181565b6001600160e01b0319168152602081019190915260400160002080546001600160a01b0319166001600160a01b0392831617905582168484838181106114c9576114c961247c565b90506020020160208101906114de9190612181565b6001600160e01b0319167f14ebc1c32aa68f4d766e89f3e546cee249f7df25183fc10ab1568d91c2ce9b7b60405160405180910390a38061151e816124a8565b9150506113a7565b50505050565b60006115386000611e32565b905090565b611546336110f8565b80611555575061155533611cde565b6115715760405162461bcd60e51b81526004016110a09061243a565b6111a88282611ed6565b61158433611cde565b6115a05760405162461bcd60e51b81526004016110a0906124c1565b8082106115e05760405162461bcd60e51b815260206004820152600e60248201526d0dccacac840dad2dc407840dac2f60931b60448201526064016110a0565b601a91909155601b55565b6115f433611cde565b6116105760405162461bcd60e51b81526004016110a0906124c1565b600354156116305760405162461bcd60e51b81526004016110a090612509565b602680546001600160a01b038088166001600160a01b0319928316179092556029805487841690831617905560258054868416908316811790915560218054868516908416811790915560288054948616949093169390931790915560405163095ea7b360e01b8152909163095ea7b3916116b2919060001990600401612551565b6020604051808303816000875af11580156116d1573d6000803e3d6000fd5b505050506040513d601f19601f820116820180604052508101906116f5919061256a565b5060265460255460405163095ea7b360e01b81526001600160a01b039283169263095ea7b39261172e9291169060001990600401612551565b6020604051808303816000875af115801561174d573d6000803e3d6000fd5b505050506040513d601f19601f82011682018060405250810190611771919061256a565b505050505050565b61178233611cde565b61179e5760405162461bcd60e51b81526004016110a0906124c1565b6117b660008051602061272f83398151915282611112565b50565b6117c2336110f8565b806117d157506117d133611cde565b6117ed5760405162461bcd60e51b81526004016110a09061243a565b6001600160a01b0381166118135760405162461bcd60e51b81526004016110a090612587565b6001600160a01b038116330361183b5760405162461bcd60e51b81526004016110a0906125b9565b61185360008051602061272f83398151915282611112565b6117b660008051602061272f8339815191523361112e565b611874336110f8565b80611883575061188333611cde565b61189f5760405162461bcd60e51b81526004016110a09061243a565b6039805460ff1916911515919091179055565b6118bb336110f8565b806118ca57506118ca33611cde565b6118e65760405162461bcd60e51b81526004016110a09061243a565b6110cd838383611e4d565b6118fa33611cde565b6119165760405162461bcd60e51b81526004016110a0906124c1565b6001600160a01b03811661193c5760405162461bcd60e51b81526004016110a090612587565b6001600160a01b03811633036119645760405162461bcd60e51b81526004016110a0906125b9565b61196f600082611112565b6117b660003361112e565b61198333611cde565b61199f5760405162461bcd60e51b81526004016110a0906124c1565b600255565b60006110dd82611e32565b6001600160e01b031981166000908152603c60205260408120546001600160a01b03166119fd57505060008052603a60205260008051602061270f833981519152546001600160a01b031690565b6001600160e01b031982166000908152603c60209081526040808320546001600160a01b03168352603b90915290205460ff1615611a5b57506001600160e01b0319166000908152603c60205260409020546001600160a01b031690565b505060008052603a60205260008051602061270f833981519152546001600160a01b031690565b919050565b60009182526038602090815260408084206001600160a01b0393909316845291905290205460ff1690565b611abb33611cde565b611ad75760405162461bcd60e51b81526004016110a0906124c1565b6117b6600082611f35565b611aeb336110f8565b80611afa5750611afa33611cde565b611b165760405162461bcd60e51b81526004016110a09061243a565b611b2e60008051602061272f8339815191523361112e565b565b611b3933611cde565b611b555760405162461bcd60e51b81526004016110a0906124c1565b8284108015611b6357508183105b8015611b6e57508082105b611bab5760405162461bcd60e51b815260206004820152600e60248201526d3a34b2b91039b2ba1032b93937b960911b60448201526064016110a0565b601c93909355601d91909155601e55601f55565b611bc833611cde565b611be45760405162461bcd60e51b81526004016110a0906124c1565b611b2e60003361112e565b611bf833611cde565b611c145760405162461bcd60e51b81526004016110a0906124c1565b60035415611c345760405162461bcd60e51b81526004016110a090612509565b602780546001600160a01b039485166001600160a01b03199182161790915560248054938516938216939093179092556020805491909316911617905542600155565b611c80826110e3565b611c8981611d3b565b6110cd8383611dcb565b602a8181548110611ca357600080fd5b6000918252602090912001546001600160a01b0316905081565b602e8181548110611ccd57600080fd5b600091825260209091200154905081565b60006110dd8183611a87565b602f8181548110611ccd57600080fd5b602b8181548110611ca357600080fd5b6000611d1582611f3f565b806110dd5750506001600160e01b0319166000908152603d602052604090205460ff1690565b6117b68133611f74565b611d4f8282611a87565b6111a85760008281526038602090815260408083206001600160a01b03851684529091529020805460ff19166001179055611d873390565b6001600160a01b0316816001600160a01b0316837f2f8788117e7eff1d82e926ec794901d17c78024a50270940304540a733656f0d60405160405180910390a45050565b611dd58282611a87565b156111a85760008281526038602090815260408083206001600160a01b0385168085529252808320805460ff1916905551339285917ff6391f5c32d9c69d2a47ea670b442974b53935d1edc7fd64eb21e047a839171b9190a45050565b6000908152603a60205260409020546001600160a01b031690565b6001600160a01b0383163b611ea25760405162461bcd60e51b815260206004820152601b60248201527a50726f78793a206e6f7420636f6e7472616374206164647265737360281b60448201526064016110a0565b8015611ed0576000828152603a6020526040902080546001600160a01b0319166001600160a01b0385161790555b6110cd83825b6001600160a01b0382166000818152603b6020908152604091829020805460ff191685151590811790915591519182527f72558d9bfba4210f9ef095c782589484151f6d90f7a81bb3cb9b33efc695d324910160405180910390a25050565b6111a88282611d45565b60006001600160e01b03198216637965db0b60e01b14806110dd57506301ffc9a760e01b6001600160e01b03198316146110dd565b611f7e8282611a87565b6111a857611f8b81611fcd565b611f96836020611fdf565b604051602001611fa792919061260d565b60408051601f198184030181529082905262461bcd60e51b82526110a09160040161267c565b60606110dd6001600160a01b03831660145b60606000611fee8360026126af565b611ff99060026126ce565b6001600160401b03811115612010576120106126e1565b6040519080825280601f01601f19166020018201604052801561203a576020820181803683370190505b509050600360fc1b816000815181106120555761205561247c565b60200101906001600160f81b031916908160001a905350600f60fb1b816001815181106120845761208461247c565b60200101906001600160f81b031916908160001a90535060006120a88460026126af565b6120b39060016126ce565b90505b600181111561212b576f181899199a1a9b1b9c1cb0b131b232b360811b85600f16601081106120e7576120e761247c565b1a60f81b8282815181106120fd576120fd61247c565b60200101906001600160f81b031916908160001a90535060049490941c93612124816126f7565b90506120b6565b50831561217a5760405162461bcd60e51b815260206004820181905260248201527f537472696e67733a20686578206c656e67746820696e73756666696369656e7460448201526064016110a0565b9392505050565b60006020828403121561219357600080fd5b81356001600160e01b03198116811461217a57600080fd5b6000602082840312156121bd57600080fd5b5035919050565b80356001600160a01b0381168114611a8257600080fd5b6000602082840312156121ed57600080fd5b61217a826121c4565b6000806040838503121561220957600080fd5b82359150612219602084016121c4565b90509250929050565b60008060006040848603121561223757600080fd5b83356001600160401b038082111561224e57600080fd5b818601915086601f83011261226257600080fd5b81358181111561227157600080fd5b8760208260051b850101111561228657600080fd5b60209283019550935061229c91860190506121c4565b90509250925092565b80151581146117b657600080fd5b600080604083850312156122c657600080fd5b6122cf836121c4565b915060208301356122df816122a5565b809150509250929050565b600080604083850312156122fd57600080fd5b50508035926020909101359150565b600080600080600060a0868803121561232457600080fd5b61232d866121c4565b945061233b602087016121c4565b9350612349604087016121c4565b9250612357606087016121c4565b9150612365608087016121c4565b90509295509295909350565b60006020828403121561238357600080fd5b813561217a816122a5565b6000806000606084860312156123a357600080fd5b6123ac846121c4565b92506020840135915060408401356123c3816122a5565b809150509250925092565b600080600080608085870312156123e457600080fd5b5050823594602084013594506040840135936060013592509050565b60008060006060848603121561241557600080fd5b61241e846121c4565b925061242c602085016121c4565b915061229c604085016121c4565b60208082526022908201527f41636365737369626c653a2043616c6c6572206973206e6f7420616e2061646d60408201526134b760f11b606082015260800190565b634e487b7160e01b600052603260045260246000fd5b634e487b7160e01b600052601160045260246000fd5b6000600182016124ba576124ba612492565b5060010190565b60208082526028908201527f41636365737369626c653a2043616c6c6572206973206e6f7420616e2070726f6040820152673c3c9030b236b4b760c11b606082015260800190565b60208082526028908201527f706f737369626c6520746f2073657474696e672074686520776869746554696d60408201526765206265666f726560c01b606082015260800190565b6001600160a01b03929092168252602082015260400190565b60006020828403121561257c57600080fd5b815161217a816122a5565b60208082526018908201527741636365737369626c653a207a65726f206164647265737360401b604082015260600190565b60208082526016908201527520b1b1b2b9b9b4b136329d1039b0b6b29030b236b4b760511b604082015260600190565b60005b838110156126045781810151838201526020016125ec565b50506000910152565b76020b1b1b2b9b9a1b7b73a3937b61d1030b1b1b7bab73a1604d1b81526000835161263f8160178501602088016125e9565b7001034b99036b4b9b9b4b733903937b6329607d1b60179184019182015283516126708160288401602088016125e9565b01602801949350505050565b602081526000825180602084015261269b8160408501602087016125e9565b601f01601f19169190910160400192915050565b60008160001904831182151516156126c9576126c9612492565b500290565b808201808211156110dd576110dd612492565b634e487b7160e01b600052604160045260246000fd5b60008161270657612706612492565b50600019019056fe489cb750909c17c66c5ce6e12fc66200b1268a56adfccc87a74969633bf5706952eafc11f6f81f86878bffd31109a0d92f37506527754f00788853ff9f63b130a264697066735822122045a72570e005b6e4f11abf572d2fa0f361994db820e68a583e9da80364af75a664736f6c63430008100033df8b4c520ffe197c5343c6f5aec59570151ef9a492f2c624fd45ddde6135ec42df8b4c520ffe197c5343c6f5aec59570151ef9a492f2c624fd45ddde6135ec42a2646970667358221220b4cef42cd9082233f9e05360a53ae47fa344649e5aa80e545b4ccbe870cff21f64736f6c63430008100033df8b4c520ffe197c5343c6f5aec59570151ef9a492f2c624fd45ddde6135ec42",
  "linkReferences": {},
  "deployedLinkReferences": {}
}