{
  "contractName": "Stake1Vault",
  "abi": [
    {
      "inputs": [],
      "stateMutability": "nonpayable",
      "type": "constructor"
    },
    {
      "anonymous": false,
      "inputs": [
        {
          "indexed": true,
          "internalType": "address",
          "name": "from",
          "type": "address"
        },
        {
          "indexed": false,
          "internalType": "address",
          "name": "to",
          "type": "address"
        },
        {
          "indexed": false,
          "internalType": "uint256",
          "name": "amount",
          "type": "uint256"
        }
      ],
      "name": "ClaimedReward",
      "type": "event"
    },
    {
      "anonymous": false,
      "inputs": [
        {
          "indexed": false,
          "internalType": "uint256",
          "name": "amount",
          "type": "uint256"
        }
      ],
      "name": "ClosedSale",
      "type": "event"
    },
    {
      "anonymous": false,
      "inputs": [
        {
          "indexed": true,
          "internalType": "bytes32",
          "name": "role",
          "type": "bytes32"
        },
        {
          "indexed": true,
          "internalType": "bytes32",
          "name": "previousAdminRole",
          "type": "bytes32"
        },
        {
          "indexed": true,
          "internalType": "bytes32",
          "name": "newAdminRole",
          "type": "bytes32"
        }
      ],
      "name": "RoleAdminChanged",
      "type": "event"
    },
    {
      "anonymous": false,
      "inputs": [
        {
          "indexed": true,
          "internalType": "bytes32",
          "name": "role",
          "type": "bytes32"
        },
        {
          "indexed": true,
          "internalType": "address",
          "name": "account",
          "type": "address"
        },
        {
          "indexed": true,
          "internalType": "address",
          "name": "sender",
          "type": "address"
        }
      ],
      "name": "RoleGranted",
      "type": "event"
    },
    {
      "anonymous": false,
      "inputs": [
        {
          "indexed": true,
          "internalType": "bytes32",
          "name": "role",
          "type": "bytes32"
        },
        {
          "indexed": true,
          "internalType": "address",
          "name": "account",
          "type": "address"
        },
        {
          "indexed": true,
          "internalType": "address",
          "name": "sender",
          "type": "address"
        }
      ],
      "name": "RoleRevoked",
      "type": "event"
    },
    {
      "inputs": [],
      "name": "ADMIN_ROLE",
      "outputs": [
        {
          "internalType": "bytes32",
          "name": "",
          "type": "bytes32"
        }
      ],
      "stateMutability": "view",
      "type": "function"
    },
    {
      "inputs": [],
      "name": "CLAIMER_ROLE",
      "outputs": [
        {
          "internalType": "bytes32",
          "name": "",
          "type": "bytes32"
        }
      ],
      "stateMutability": "view",
      "type": "function"
    },
    {
      "inputs": [],
      "name": "DEFAULT_ADMIN_ROLE",
      "outputs": [
        {
          "internalType": "bytes32",
          "name": "",
          "type": "bytes32"
        }
      ],
      "stateMutability": "view",
      "type": "function"
    },
    {
      "inputs": [],
      "name": "MANAGER_ROLE",
      "outputs": [
        {
          "internalType": "bytes32",
          "name": "",
          "type": "bytes32"
        }
      ],
      "stateMutability": "view",
      "type": "function"
    },
    {
      "inputs": [],
      "name": "ZERO_HASH",
      "outputs": [
        {
          "internalType": "bytes32",
          "name": "",
          "type": "bytes32"
        }
      ],
      "stateMutability": "view",
      "type": "function"
    },
    {
      "inputs": [],
      "name": "blockTotalReward",
      "outputs": [
        {
          "internalType": "uint256",
          "name": "",
          "type": "uint256"
        }
      ],
      "stateMutability": "view",
      "type": "function"
    },
    {
      "inputs": [],
      "name": "cap",
      "outputs": [
        {
          "internalType": "uint256",
          "name": "",
          "type": "uint256"
        }
      ],
      "stateMutability": "view",
      "type": "function"
    },
    {
      "inputs": [],
      "name": "defiAddr",
      "outputs": [
        {
          "internalType": "address",
          "name": "",
          "type": "address"
        }
      ],
      "stateMutability": "view",
      "type": "function"
    },
    {
      "inputs": [],
      "name": "fld",
      "outputs": [
        {
          "internalType": "contract IFLD",
          "name": "",
          "type": "address"
        }
      ],
      "stateMutability": "view",
      "type": "function"
    },
    {
      "inputs": [
        {
          "internalType": "bytes32",
          "name": "role",
          "type": "bytes32"
        }
      ],
      "name": "getRoleAdmin",
      "outputs": [
        {
          "internalType": "bytes32",
          "name": "",
          "type": "bytes32"
        }
      ],
      "stateMutability": "view",
      "type": "function"
    },
    {
      "inputs": [
        {
          "internalType": "bytes32",
          "name": "role",
          "type": "bytes32"
        },
        {
          "internalType": "uint256",
          "name": "index",
          "type": "uint256"
        }
      ],
      "name": "getRoleMember",
      "outputs": [
        {
          "internalType": "address",
          "name": "",
          "type": "address"
        }
      ],
      "stateMutability": "view",
      "type": "function"
    },
    {
      "inputs": [
        {
          "internalType": "bytes32",
          "name": "role",
          "type": "bytes32"
        }
      ],
      "name": "getRoleMemberCount",
      "outputs": [
        {
          "internalType": "uint256",
          "name": "",
          "type": "uint256"
        }
      ],
      "stateMutability": "view",
      "type": "function"
    },
    {
      "inputs": [
        {
          "internalType": "bytes32",
          "name": "role",
          "type": "bytes32"
        },
        {
          "internalType": "address",
          "name": "account",
          "type": "address"
        }
      ],
      "name": "grantRole",
      "outputs": [],
      "stateMutability": "nonpayable",
      "type": "function"
    },
    {
      "inputs": [
        {
          "internalType": "bytes32",
          "name": "role",
          "type": "bytes32"
        },
        {
          "internalType": "address",
          "name": "account",
          "type": "address"
        }
      ],
      "name": "hasRole",
      "outputs": [
        {
          "internalType": "bool",
          "name": "",
          "type": "bool"
        }
      ],
      "stateMutability": "view",
      "type": "function"
    },
    {
      "inputs": [
        {
          "internalType": "uint256",
          "name": "",
          "type": "uint256"
        }
      ],
      "name": "orderedEndBlocks",
      "outputs": [
        {
          "internalType": "uint256",
          "name": "",
          "type": "uint256"
        }
      ],
      "stateMutability": "view",
      "type": "function"
    },
    {
      "inputs": [],
      "name": "paytoken",
      "outputs": [
        {
          "internalType": "address",
          "name": "",
          "type": "address"
        }
      ],
      "stateMutability": "view",
      "type": "function"
    },
    {
      "inputs": [
        {
          "internalType": "bytes32",
          "name": "role",
          "type": "bytes32"
        },
        {
          "internalType": "address",
          "name": "account",
          "type": "address"
        }
      ],
      "name": "renounceRole",
      "outputs": [],
      "stateMutability": "nonpayable",
      "type": "function"
    },
    {
      "inputs": [
        {
          "internalType": "bytes32",
          "name": "role",
          "type": "bytes32"
        },
        {
          "internalType": "address",
          "name": "account",
          "type": "address"
        }
      ],
      "name": "revokeRole",
      "outputs": [],
      "stateMutability": "nonpayable",
      "type": "function"
    },
    {
      "inputs": [],
      "name": "saleClosed",
      "outputs": [
        {
          "internalType": "bool",
          "name": "",
          "type": "bool"
        }
      ],
      "stateMutability": "view",
      "type": "function"
    },
    {
      "inputs": [],
      "name": "saleStartBlock",
      "outputs": [
        {
          "internalType": "uint256",
          "name": "",
          "type": "uint256"
        }
      ],
      "stateMutability": "view",
      "type": "function"
    },
    {
      "inputs": [
        {
          "internalType": "uint256",
          "name": "",
          "type": "uint256"
        }
      ],
      "name": "stakeAddresses",
      "outputs": [
        {
          "internalType": "address",
          "name": "",
          "type": "address"
        }
      ],
      "stateMutability": "view",
      "type": "function"
    },
    {
      "inputs": [],
      "name": "stakeEndBlock",
      "outputs": [
        {
          "internalType": "uint256",
          "name": "",
          "type": "uint256"
        }
      ],
      "stateMutability": "view",
      "type": "function"
    },
    {
      "inputs": [
        {
          "internalType": "uint256",
          "name": "",
          "type": "uint256"
        }
      ],
      "name": "stakeEndBlockTotal",
      "outputs": [
        {
          "internalType": "uint256",
          "name": "",
          "type": "uint256"
        }
      ],
      "stateMutability": "view",
      "type": "function"
    },
    {
      "inputs": [
        {
          "internalType": "address",
          "name": "",
          "type": "address"
        }
      ],
      "name": "stakeInfos",
      "outputs": [
        {
          "internalType": "string",
          "name": "name",
          "type": "string"
        },
        {
          "internalType": "uint256",
          "name": "startBlcok",
          "type": "uint256"
        },
        {
          "internalType": "uint256",
          "name": "endBlock",
          "type": "uint256"
        },
        {
          "internalType": "uint256",
          "name": "balance",
          "type": "uint256"
        },
        {
          "internalType": "uint256",
          "name": "totalRewardAmount",
          "type": "uint256"
        },
        {
          "internalType": "uint256",
          "name": "claimRewardAmount",
          "type": "uint256"
        }
      ],
      "stateMutability": "view",
      "type": "function"
    },
    {
      "inputs": [],
      "name": "stakeStartBlock",
      "outputs": [
        {
          "internalType": "uint256",
          "name": "",
          "type": "uint256"
        }
      ],
      "stateMutability": "view",
      "type": "function"
    },
    {
      "inputs": [],
      "name": "stakeType",
      "outputs": [
        {
          "internalType": "uint256",
          "name": "",
          "type": "uint256"
        }
      ],
      "stateMutability": "view",
      "type": "function"
    },
    {
      "stateMutability": "payable",
      "type": "receive"
    },
    {
      "inputs": [
        {
          "internalType": "address",
          "name": "_fld",
          "type": "address"
        },
        {
          "internalType": "address",
          "name": "_paytoken",
          "type": "address"
        },
        {
          "internalType": "uint256",
          "name": "_cap",
          "type": "uint256"
        },
        {
          "internalType": "uint256",
          "name": "_saleStartBlock",
          "type": "uint256"
        },
        {
          "internalType": "uint256",
          "name": "_stakeStartBlock",
          "type": "uint256"
        },
        {
          "internalType": "address",
          "name": "_stakefactory",
          "type": "address"
        },
        {
          "internalType": "uint256",
          "name": "_stakeType",
          "type": "uint256"
        },
        {
          "internalType": "address",
          "name": "_defiAddr",
          "type": "address"
        }
      ],
      "name": "initialize",
      "outputs": [],
      "stateMutability": "nonpayable",
      "type": "function"
    },
    {
      "inputs": [
        {
          "internalType": "address",
          "name": "_fld",
          "type": "address"
        }
      ],
      "name": "setFLD",
      "outputs": [],
      "stateMutability": "nonpayable",
      "type": "function"
    },
    {
      "inputs": [
        {
          "internalType": "uint256",
          "name": "_cap",
          "type": "uint256"
        }
      ],
      "name": "changeCap",
      "outputs": [],
      "stateMutability": "nonpayable",
      "type": "function"
    },
    {
      "inputs": [
        {
          "internalType": "uint256[]",
          "name": "_ordered",
          "type": "uint256[]"
        }
      ],
      "name": "changeOrderedEndBlocks",
      "outputs": [],
      "stateMutability": "nonpayable",
      "type": "function"
    },
    {
      "inputs": [
        {
          "internalType": "address",
          "name": "_defiAddr",
          "type": "address"
        }
      ],
      "name": "setDefiAddr",
      "outputs": [],
      "stateMutability": "nonpayable",
      "type": "function"
    },
    {
      "inputs": [
        {
          "internalType": "string",
          "name": "_name",
          "type": "string"
        },
        {
          "internalType": "address",
          "name": "stakeContract",
          "type": "address"
        },
        {
          "internalType": "uint256",
          "name": "periodBlocks",
          "type": "uint256"
        }
      ],
      "name": "addSubVaultOfStake",
      "outputs": [],
      "stateMutability": "nonpayable",
      "type": "function"
    },
    {
      "inputs": [],
      "name": "closeSale",
      "outputs": [],
      "stateMutability": "nonpayable",
      "type": "function"
    },
    {
      "inputs": [
        {
          "internalType": "address",
          "name": "_to",
          "type": "address"
        },
        {
          "internalType": "uint256",
          "name": "_amount",
          "type": "uint256"
        }
      ],
      "name": "claim",
      "outputs": [
        {
          "internalType": "bool",
          "name": "",
          "type": "bool"
        }
      ],
      "stateMutability": "nonpayable",
      "type": "function"
    },
    {
      "inputs": [
        {
          "internalType": "address",
          "name": "_to",
          "type": "address"
        },
        {
          "internalType": "uint256",
          "name": "_amount",
          "type": "uint256"
        }
      ],
      "name": "canClaim",
      "outputs": [
        {
          "internalType": "uint256",
          "name": "",
          "type": "uint256"
        }
      ],
      "stateMutability": "view",
      "type": "function"
    },
    {
      "inputs": [],
      "name": "balanceFLDAvailableAmount",
      "outputs": [
        {
          "internalType": "uint256",
          "name": "",
          "type": "uint256"
        }
      ],
      "stateMutability": "view",
      "type": "function"
    },
    {
      "inputs": [],
      "name": "stakeAddressesAll",
      "outputs": [
        {
          "internalType": "address[]",
          "name": "",
          "type": "address[]"
        }
      ],
      "stateMutability": "view",
      "type": "function"
    },
    {
      "inputs": [],
      "name": "orderedEndBlocksAll",
      "outputs": [
        {
          "internalType": "uint256[]",
          "name": "",
          "type": "uint256[]"
        }
      ],
      "stateMutability": "view",
      "type": "function"
    },
    {
      "inputs": [
        {
          "internalType": "address",
          "name": "_account",
          "type": "address"
        }
      ],
      "name": "totalRewardAmount",
      "outputs": [
        {
          "internalType": "uint256",
          "name": "",
          "type": "uint256"
        }
      ],
      "stateMutability": "view",
      "type": "function"
    },
    {
      "inputs": [],
      "name": "infos",
      "outputs": [
        {
          "internalType": "address",
          "name": "",
          "type": "address"
        },
        {
          "internalType": "uint256",
          "name": "",
          "type": "uint256"
        },
        {
          "internalType": "uint256",
          "name": "",
          "type": "uint256"
        },
        {
          "internalType": "uint256",
          "name": "",
          "type": "uint256"
        },
        {
          "internalType": "uint256",
          "name": "",
          "type": "uint256"
        },
        {
          "internalType": "uint256",
          "name": "",
          "type": "uint256"
        },
        {
          "internalType": "bool",
          "name": "",
          "type": "bool"
        }
      ],
      "stateMutability": "view",
      "type": "function"
    }
  ],
  "bytecode": "0x60806040523480156200001157600080fd5b506200002d60008051602062002ae48339815191528062000093565b6200005760008051602062002ac483398151915260008051602062002ae483398151915262000093565b6200007260008051602062002ae483398151915233620000e5565b6200008d60008051602062002ac483398151915233620000e5565b620001f9565b600082815260208190526040808220600201549051839285917fbd79b86ffe0ab8e8776151514217cd7cacd52c909f66475c3af44e129f0b00ff9190a460009182526020829052604090912060020155565b620000f18282620000f5565b5050565b6000828152602081815260409091206200011a91839062001a8a6200016e821b17901c565b15620000f1576200012a6200018e565b6001600160a01b0316816001600160a01b0316837f2f8788117e7eff1d82e926ec794901d17c78024a50270940304540a733656f0d60405160405180910390a45050565b600062000185836001600160a01b03841662000192565b90505b92915050565b3390565b6000620001a08383620001e1565b620001d85750815460018181018455600084815260208082209093018490558454848252828601909352604090209190915562000188565b50600062000188565b60009081526001919091016020526040902054151590565b6128bb80620002096000396000f3fe60806040526004361061023f5760003560e01c806398da0b611161012e578063cbdeb6c0116100ab578063dc999b941161006f578063dc999b941461063a578063dfbf9def1461065a578063ec87621c1461068c578063ee55efee146106a1578063fc5f18d3146106b657610246565b8063cbdeb6c0146105a3578063d007e896146105c3578063d105bf85146105e5578063d185a66b146105fa578063d547741f1461061a57610246565b8063aad3ec96116100f2578063aad3ec9614610517578063b8c766b814610537578063b97af0db1461054c578063c1b422fd14610561578063ca15c8731461058357610246565b806398da0b61146104a55780639a88be2f146104c55780639d84ca35146104ed578063a217fddf146103ce578063a69c95dc1461050257610246565b806340fc14f7116101bc578063652a643511610180578063652a64351461040357806375b238fc14610423578063800edb9d146104385780639010d07c1461045857806391d148541461047857610246565b806340fc14f71461038457806343b0934a146103a45780634b5e7cd5146103b95780634ce76a3c146103ce5780635f1bd62a146103e357610246565b80632f2ff15d116102035780632f2ff15d1461030557806333bd2a4914610325578063355274ea1461033a57806336568abe1461034f5780633a76eb371461036f57610246565b80630962ccfc1461024b578063153099d01461026d57806320027275146102a3578063248a9ca3146102b8578063294f5fa3146102d857610246565b3661024657005b600080fd5b34801561025757600080fd5b5061026b610266366004612043565b6106cb565b005b34801561027957600080fd5b5061028d610288366004611fdb565b610927565b60405161029a91906121f9565b60405180910390f35b3480156102af57600080fd5b5061028d610948565b3480156102c457600080fd5b5061028d6102d3366004611fdb565b61094e565b3480156102e457600080fd5b506102f86102f3366004611fdb565b610966565b60405161029a91906120ff565b34801561031157600080fd5b5061026b610320366004611ff3565b610990565b34801561033157600080fd5b506102f86109f7565b34801561034657600080fd5b5061028d610a06565b34801561035b57600080fd5b5061026b61036a366004611ff3565b610a0c565b34801561037b57600080fd5b5061028d610a6d565b34801561039057600080fd5b5061026b61039f366004611e2c565b610a73565b3480156103b057600080fd5b506102f8610b0b565b3480156103c557600080fd5b5061028d610b1a565b3480156103da57600080fd5b5061028d610b20565b3480156103ef57600080fd5b5061028d6103fe366004611fdb565b610b25565b34801561040f57600080fd5b5061026b61041e366004611f1a565b610b37565b34801561042f57600080fd5b5061028d610bba565b34801561044457600080fd5b5061026b610453366004611fdb565b610bcc565b34801561046457600080fd5b506102f8610473366004612022565b610c33565b34801561048457600080fd5b50610498610493366004611ff3565b610c54565b60405161029a91906121ee565b3480156104b157600080fd5b5061028d6104c0366004611eef565b610c6c565b3480156104d157600080fd5b506104da610df3565b60405161029a979695949392919061212c565b3480156104f957600080fd5b506102f8610e20565b34801561050e57600080fd5b5061028d610e2f565b34801561052357600080fd5b50610498610532366004611eef565b610eb5565b34801561054357600080fd5b50610498611117565b34801561055857600080fd5b5061028d611120565b34801561056d57600080fd5b50610576611126565b60405161029a91906121b6565b34801561058f57600080fd5b5061028d61059e366004611fdb565b61117e565b3480156105af57600080fd5b5061028d6105be366004611e2c565b611195565b3480156105cf57600080fd5b506105d86111b3565b60405161029a9190612169565b3480156105f157600080fd5b5061028d611214565b34801561060657600080fd5b5061026b610615366004611e2c565b61121a565b34801561062657600080fd5b5061026b610635366004611ff3565b611296565b34801561064657600080fd5b5061026b610655366004611e6b565b6112ef565b34801561066657600080fd5b5061067a610675366004611e2c565b61141d565b60405161029a96959493929190612202565b34801561069857600080fd5b5061028d6114dc565b3480156106ad57600080fd5b5061026b611500565b3480156106c257600080fd5b5061028d611a66565b6106e360008051602061283783398151915233610c54565b6107085760405162461bcd60e51b81526004016106ff906122df565b60405180910390fd5b6001600160a01b0382161580159061072257506000600354115b801561072e5750600081115b61074a5760405162461bcd60e51b81526004016106ff9061239a565b600554431061076b5760405162461bcd60e51b81526004016106ff9061229d565b60085460ff161561078e5760405162461bcd60e51b81526004016106ff90612597565b816001600160a01b03166343b0934a6040518163ffffffff1660e01b815260040160206040518083038186803b1580156107c757600080fd5b505afa1580156107db573d6000803e3d6000fd5b505050506040513d601f19601f820116820180604052508101906107ff9190611e4f565b6002546001600160a01b0390811691161461082c5760405162461bcd60e51b81526004016106ff90612677565b6001600160a01b0382166000908152600c602052604090206001810154156108665760405162461bcd60e51b81526004016106ff9061271a565b600b80546001810182556000919091527f0175b7a638427703f0dbe7bb9bbf987a2551717b34e79f33b5b1008d1fa01db90180546001600160a01b0319166001600160a01b0385161790556005548451908301906108ca9083906020880190611d46565b506005546001830155600282018190556006548111156108ea5760068190555b5050600654600d80546001810182556000919091527fd7b6990105719101dabeb77144f2a3385c8033acd3af97e9423a695e81ad1eb50155505050565b600d818154811061093757600080fd5b600091825260209091200154905081565b60045481565b6000818152602081905260409020600201545b919050565b600b818154811061097657600080fd5b6000918252602090912001546001600160a01b0316905081565b6000828152602081905260409020600201546109ae90610493611a9f565b6109e95760405162461bcd60e51b815260040180806020018281038252602f8152602001806127d8602f913960400191505060405180910390fd5b6109f38282611aa3565b5050565b6001546001600160a01b031681565b60035481565b610a14611a9f565b6001600160a01b0316816001600160a01b031614610a635760405162461bcd60e51b815260040180806020018281038252602f815260200180612857602f913960400191505060405180910390fd5b6109f38282611b0c565b60065481565b610a8b60008051602061283783398151915233610c54565b610aa75760405162461bcd60e51b81526004016106ff906122df565b6001600160a01b03811615801590610acd5750600a546001600160a01b03828116911614155b610ae95760405162461bcd60e51b81526004016106ff90612640565b600a80546001600160a01b0319166001600160a01b0392909216919091179055565b6002546001600160a01b031681565b60055481565b600081565b600e6020526000908152604090205481565b610b4f60008051602061283783398151915233610c54565b610b6b5760405162461bcd60e51b81526004016106ff906122df565b43600654108015610b7d5750600d5415155b8015610b8b57508051600d54145b610ba75760405162461bcd60e51b81526004016106ff906125ce565b80516109f390600d906020840190611dd2565b60008051602061283783398151915281565b610be460008051602061283783398151915233610c54565b610c005760405162461bcd60e51b81526004016106ff906122df565b600081118015610c1257508060035414155b610c2e5760405162461bcd60e51b81526004016106ff906124d0565b600355565b6000828152602081905260408120610c4b9083611b75565b90505b92915050565b6000828152602081905260408120610c4b9083611b81565b60085460009060ff16610c915760405162461bcd60e51b81526004016106ff906124ae565b6001546040516370a0823160e01b81526000916001600160a01b0316906370a0823190610cc29030906004016120ff565b60206040518083038186803b158015610cda57600080fd5b505afa158015610cee573d6000803e3d6000fd5b505050506040513d601f19601f82011682018060405250810190610d1291906120e7565b905082811015610d345760405162461bcd60e51b81526004016106ff9061248a565b6001600160a01b0384166000908152600c602052604090206001810154610d6d5760405162461bcd60e51b81526004016106ff906126a3565b6000816004015411610d915760405162461bcd60e51b81526004016106ff90612617565b8381600501540181600401541015610dbb5760405162461bcd60e51b81526004016106ff906126cf565b60008482600501548360040154030311610de75760405162461bcd60e51b81526004016106ff90612322565b60040154949350505050565b6002546003546004546005546006546007546008546001600160a01b039096169560ff1690919293949596565b600a546001600160a01b031681565b6001546040516370a0823160e01b81526000916001600160a01b0316906370a0823190610e609030906004016120ff565b60206040518083038186803b158015610e7857600080fd5b505afa158015610e8c573d6000803e3d6000fd5b505050506040513d601f19601f82011682018060405250810190610eb091906120e7565b905090565b60085460009060ff168015610eca5750600082115b610ee65760405162461bcd60e51b81526004016106ff90612276565b6001546040516370a0823160e01b81526000916001600160a01b0316906370a0823190610f179030906004016120ff565b60206040518083038186803b158015610f2f57600080fd5b505afa158015610f43573d6000803e3d6000fd5b505050506040513d601f19601f82011682018060405250810190610f6791906120e7565b905082811015610f895760405162461bcd60e51b81526004016106ff90612507565b336000908152600c602052604090206001810154610fb95760405162461bcd60e51b81526004016106ff9061237c565b8381600501540181600401541015610fe35760405162461bcd60e51b81526004016106ff9061234e565b600081600401541180156110035750600084826005015483600401540303115b61101f5760405162461bcd60e51b81526004016106ff90612617565b6005810180548501905560015460405163a9059cbb60e01b81526001600160a01b039091169063a9059cbb9061105b9088908890600401612113565b602060405180830381600087803b15801561107557600080fd5b505af1158015611089573d6000803e3d6000fd5b505050506040513d601f19601f820116820180604052508101906110ad9190611fbb565b6110c95760405162461bcd60e51b81526004016106ff9061245f565b336001600160a01b03167faee3654837b73cc93e61b5d33f82d45b1df4dbe682913819f5ce40de23518e728686604051611104929190612113565b60405180910390a2506001949350505050565b60085460ff1681565b60095481565b6060600d80548060200260200160405190810160405280929190818152602001828054801561117457602002820191906000526020600020905b815481526020019060010190808311611160575b5050505050905090565b6000818152602081905260408120610c4e90611b96565b6001600160a01b03166000908152600c602052604090206004015490565b6060600b80548060200260200160405190810160405280929190818152602001828054801561117457602002820191906000526020600020905b81546001600160a01b031681526001909101906020018083116111ed575050505050905090565b60075481565b61123260008051602061283783398151915233610c54565b61124e5760405162461bcd60e51b81526004016106ff906122df565b6001600160a01b0381166112745760405162461bcd60e51b81526004016106ff906123e2565b600180546001600160a01b0319166001600160a01b0392909216919091179055565b6000828152602081905260409020600201546112b490610493611a9f565b610a635760405162461bcd60e51b81526004018080602001828103825260308152602001806128076030913960400191505060405180910390fd5b61130760008051602061283783398151915233610c54565b6113235760405162461bcd60e51b81526004016106ff906122df565b6001600160a01b0388161580159061134357506001600160a01b03831615155b61135f5760405162461bcd60e51b81526004016106ff906123e2565b6000861161137f5760405162461bcd60e51b81526004016106ff90612533565b838510801561138e5750600084115b6113aa5760405162461bcd60e51b81526004016106ff90612419565b600180546001600160a01b03808b166001600160a01b0319928316179092556003889055600280548a8416908316179055600487905560058690556009849055600a80549284169290911691909117905561141360008051602061283783398151915284610990565b5050505050505050565b600c6020908152600091825260409182902080548351601f600260001961010060018616150201909316929092049182018490048402810184019094528084529092918391908301828280156114b45780601f10611489576101008083540402835291602001916114b4565b820191906000526020600020905b81548152906001019060200180831161149757829003601f168201915b5050505050908060010154908060020154908060030154908060040154908060050154905086565b7faf290d8680820aad922855f39b306097b20e28774d6c1ad35a20325630c3a02c81565b60085460ff16156115235760405162461bcd60e51b81526004016106ff90612751565b600060035411801561153757506000600554115b80156115465750600654600554105b8015611553575060055443115b8015611560575060065443105b61157c5760405162461bcd60e51b81526004016106ff9061256a565b600b5461159b5760405162461bcd60e51b81526004016106ff906126f7565b60055460065403600354816115ac57fe5b0460075560005b600b548110156116ea576000600c6000600b84815481106115d057fe5b60009182526020808320909101546001600160a01b03908116845290830193909352604090910190206002549092501661163157600b828154811061161157fe5b6000918252602090912001546001600160a01b03163160038201556116e1565b600254600b80546001600160a01b03909216916370a0823191908590811061165557fe5b6000918252602090912001546040516001600160e01b031960e084901b16815261168b916001600160a01b0316906004016120ff565b60206040518083038186803b1580156116a357600080fd5b505afa1580156116b7573d6000803e3d6000fd5b505050506040513d601f19601f820116820180604052508101906116db91906120e7565b60038201555b506001016115b3565b506000805b600b54811015611a1d576000600c6000600b848154811061170c57fe5b60009182526020808320909101546001600160a01b0316835282019290925260400181209150805b600b548110156117c8578260020154600c6000600b848154811061175457fe5b60009182526020808320909101546001600160a01b03168352820192909252604001902060020154106117c057600c6000600b838154811061179257fe5b60009182526020808320909101546001600160a01b0316835282019290925260400190206003015491909101905b600101611734565b5060028201546000908152600e6020526040812082905593810193835b801561190157600e6000600c6000600b858154811061180057fe5b9060005260206000200160009054906101000a90046001600160a01b03166001600160a01b03166001600160a01b03168152602001908152602001600020600201548152602001908152602001600020548460030154600754600c6000600b600187038154811061186d57fe5b9060005260206000200160009054906101000a90046001600160a01b03166001600160a01b03166001600160a01b0316815260200190815260200160002060020154600c6000600b87815481106118c057fe5b60009182526020808320909101546001600160a01b03168352820192909252604001902060020154030202816118f257fe5b049190910190600019016117e5565b50600e6000600c6000600b60008154811061191857fe5b9060005260206000200160009054906101000a90046001600160a01b03166001600160a01b03166001600160a01b03168152602001908152602001600020600201548152602001908152602001600020548360030154600754600c6000600b60008154811061198357fe5b9060005260206000200160009054906101000a90046001600160a01b03166001600160a01b03166001600160a01b0316815260200190815260200160002060010154600c6000600b6000815481106119d757fe5b60009182526020808320909101546001600160a01b0316835282019290925260400190206002015403020281611a0957fe5b0401600490920191909155506001016116ef565b506008805460ff191660011790556040517fb2d7ca775ec75524cd96d3b0549a390bf0a187f598f61e8a64ea092b6a667d7290611a5b9083906121f9565b60405180910390a150565b7fe5667d34d7ea8d6fdb3aa71a0a5b85e4cf7f68356dd003cd638556b0eea2bce581565b6000610c4b836001600160a01b038416611ba1565b3390565b6000828152602081905260409020611abb9082611a8a565b156109f357611ac8611a9f565b6001600160a01b0316816001600160a01b0316837f2f8788117e7eff1d82e926ec794901d17c78024a50270940304540a733656f0d60405160405180910390a45050565b6000828152602081905260409020611b249082611beb565b156109f357611b31611a9f565b6001600160a01b0316816001600160a01b0316837ff6391f5c32d9c69d2a47ea670b442974b53935d1edc7fd64eb21e047a839171b60405160405180910390a45050565b6000610c4b8383611c00565b6000610c4b836001600160a01b038416611c64565b6000610c4e82611c7c565b6000611bad8383611c64565b611be357508154600181810184556000848152602080822090930184905584548482528286019093526040902091909155610c4e565b506000610c4e565b6000610c4b836001600160a01b038416611c80565b81546000908210611c425760405162461bcd60e51b81526004018080602001828103825260228152602001806127b66022913960400191505060405180910390fd5b826000018281548110611c5157fe5b9060005260206000200154905092915050565b60009081526001919091016020526040902054151590565b5490565b60008181526001830160205260408120548015611d3c5783546000198083019190810190600090879083908110611cb357fe5b9060005260206000200154905080876000018481548110611cd057fe5b600091825260208083209091019290925582815260018981019092526040902090840190558654879080611d0057fe5b60019003818190600052602060002001600090559055866001016000878152602001908152602001600020600090556001945050505050610c4e565b6000915050610c4e565b828054600181600116156101000203166002900490600052602060002090601f016020900481019282611d7c5760008555611dc2565b82601f10611d9557805160ff1916838001178555611dc2565b82800160010185558215611dc2579182015b82811115611dc2578251825591602001919060010190611da7565b50611dce929150611e0c565b5090565b828054828255906000526020600020908101928215611dc25791602002820182811115611dc2578251825591602001919060010190611da7565b5b80821115611dce5760008155600101611e0d565b80356109618161279d565b600060208284031215611e3d578081fd5b8135611e488161279d565b9392505050565b600060208284031215611e60578081fd5b8151611e488161279d565b600080600080600080600080610100898b031215611e87578384fd5b8835611e928161279d565b97506020890135611ea28161279d565b965060408901359550606089013594506080890135935060a0890135611ec78161279d565b925060c0890135915060e0890135611ede8161279d565b809150509295985092959890939650565b60008060408385031215611f01578182fd5b8235611f0c8161279d565b946020939093013593505050565b60006020808385031215611f2c578182fd5b823567ffffffffffffffff80821115611f43578384fd5b818501915085601f830112611f56578384fd5b813581811115611f6257fe5b8381029150611f72848301612779565b8181528481019084860184860187018a1015611f8c578788fd5b8795505b83861015611fae578035835260019590950194918601918601611f90565b5098975050505050505050565b600060208284031215611fcc578081fd5b81518015158114611e48578182fd5b600060208284031215611fec578081fd5b5035919050565b60008060408385031215612005578182fd5b8235915060208301356120178161279d565b809150509250929050565b60008060408385031215612034578182fd5b50508035926020909101359150565b600080600060608486031215612057578283fd5b833567ffffffffffffffff8082111561206e578485fd5b818601915086601f830112612081578485fd5b813560208282111561208f57fe5b6120a1601f8301601f19168201612779565b925081835288818386010111156120b6578687fd5b8181850182850137868183850101528296506120d3818901611e21565b955050505050604084013590509250925092565b6000602082840312156120f8578081fd5b5051919050565b6001600160a01b0391909116815260200190565b6001600160a01b03929092168252602082015260400190565b6001600160a01b03979097168752602087019590955260408601939093526060850191909152608084015260a0830152151560c082015260e00190565b6020808252825182820181905260009190848201906040850190845b818110156121aa5783516001600160a01b031683529284019291840191600101612185565b50909695505050505050565b6020808252825182820181905260009190848201906040850190845b818110156121aa578351835292840192918401916001016121d2565b901515815260200190565b90815260200190565b600060c0825287518060c0840152815b8181101561222f576020818b0181015160e0868401015201612212565b81811115612240578260e083860101525b5060208301979097525060408101949094526060840192909252608083015260a082015260e0601f909201601f19160101919050565b6020808252600d908201526c646973636c6f73652073616c6560981b604082015260600190565b60208082526022908201527f5374616b65315661756c743a20416c72656164792073746172746564207374616040820152616b6560f01b606082015260800190565b60208082526023908201527f5374616b65315661756c743a2043616c6c6572206973206e6f7420616e20616460408201526236b4b760e91b606082015260800190565b6020808252601290820152715374616b65315661756c743a2077726f6e6760701b604082015260600190565b602080825260149082015273636c61696d20616d6f756e74206578636565647360601b604082015260600190565b6020808252600490820152637a65726f60e01b604082015260600190565b60208082526028908201527f5374616b65315661756c743a206164645374616b6572496e5661756c7420696e6040820152676974206661696c7360c01b606082015260800190565b6020808252601a908201527f5374616b65315661756c743a20696e707574206973207a65726f000000000000604082015260600190565b60208082526026908201527f5374616b65315661756c743a207374617274426c6f636b20697320756e617661604082015265696c61626c6560d01b606082015260800190565b602080825260119082015270119311081d1c985b9cd9995c8819985a5b607a1b604082015260600190565b6020808252600a90820152690dcdee840cadcdeeaced60b31b604082015260600190565b602080825260089082015267646973636c6f736560c01b604082015260600190565b6020808252601c908201527f5374616b65315661756c743a206368616e6765436170206661696c7300000000604082015260600190565b6020808252601290820152716e6f7420656e6f7567682062616c616e636560701b604082015260600190565b60208082526019908201527f5374616b65315661756c743a205f636170206973207a65726f00000000000000604082015260600190565b60208082526013908201527218db1bdcd954d85b19481a5b9a5d0819985a5b606a1b604082015260600190565b60208082526018908201527f5374616b65315661756c743a20636c6f7365642073616c650000000000000000604082015260600190565b60208082526029908201527f5374616b65315661756c743a206368616e67654f726465726564456e64426c6f604082015268636b73206661696c7360b81b606082015260800190565b6020808252600f908201526e616d6f756e742069732077726f6e6760881b604082015260600190565b6020808252601e908201527f5374616b65315661756c743a205f6465666941646472206973207a65726f0000604082015260600190565b6020808252601290820152712234b33332b932b73a103830bcba37b5b2b760711b604082015260600190565b6020808252601290820152717374617274426c636f6b206973207a65726f60701b604082015260600190565b6020808252600e908201526d616d6f756e74206578636565647360901b604082015260600190565b6020808252600990820152686e6f207374616b657360b81b604082015260600190565b6020808252601a908201527f5374616b65315661756c743a20416c7265616479206164646564000000000000604082015260600190565b6020808252600e908201526d185b1c9958591e4818db1bdcd95960921b604082015260600190565b60405181810167ffffffffffffffff8111828210171561279557fe5b604052919050565b6001600160a01b03811681146127b257600080fd5b5056fe456e756d657261626c655365743a20696e646578206f7574206f6620626f756e6473416363657373436f6e74726f6c3a2073656e646572206d75737420626520616e2061646d696e20746f206772616e74416363657373436f6e74726f6c3a2073656e646572206d75737420626520616e2061646d696e20746f207265766f6b65df8b4c520ffe197c5343c6f5aec59570151ef9a492f2c624fd45ddde6135ec42416363657373436f6e74726f6c3a2063616e206f6e6c792072656e6f756e636520726f6c657320666f722073656c66a2646970667358221220eb1b08abba4aa6a12c92add4f90e0250392754584c619a858638518d613126c864736f6c63430007060033e5667d34d7ea8d6fdb3aa71a0a5b85e4cf7f68356dd003cd638556b0eea2bce5df8b4c520ffe197c5343c6f5aec59570151ef9a492f2c624fd45ddde6135ec42",
  "immutableReferences": {},
  "source": "//SPDX-License-Identifier: Unlicense\npragma solidity ^0.7.6;\npragma abicoder v2;\n\nimport {IFLD} from \"../interfaces/IFLD.sol\";\nimport \"../interfaces/IStake1Vault.sol\";\nimport \"../interfaces/IStake1.sol\";\n\nimport \"../libraries/LibTokenStake1.sol\";\nimport \"@openzeppelin/contracts/access/AccessControl.sol\";\nimport {IERC20} from \"@openzeppelin/contracts/token/ERC20/IERC20.sol\";\n\n/// @title FLD Token's Vault - stores the fld for the period of time\n/// @notice A vault is associated with the set of stake contracts.\n/// Stake contracts can interact with the vault to claim fld tokens\ncontract Stake1Vault is AccessControl {\n    bytes32 public constant ADMIN_ROLE = keccak256(\"ADMIN\");\n    bytes32 public constant CLAIMER_ROLE = keccak256(\"CLAIMER\");\n    bytes32 public constant MANAGER_ROLE = keccak256(\"MANAGER\");\n    bytes32 public constant ZERO_HASH =\n        0x0000000000000000000000000000000000000000000000000000000000000000;\n\n    //address payable public self;\n\n    IFLD public fld;\n    address public paytoken;\n    uint256 public cap;\n    uint256 public saleStartBlock;\n    uint256 public stakeStartBlock;\n    uint256 public stakeEndBlock;\n    uint256 public blockTotalReward;\n    bool public saleClosed;\n    uint256 public stakeType; // 0 : StakeTON ( eth or ton) , 2 : StakeForStableCoin (stable coin)\n    address public defiAddr; // uniswapRouter or yraenV2Vault\n\n    address[] public stakeAddresses;\n    mapping(address => LibTokenStake1.StakeInfo) public stakeInfos;\n\n    uint256[] public orderedEndBlocks; // Ascending orders\n    mapping(uint256 => uint256) public stakeEndBlockTotal;\n\n    uint256 private _lock;\n\n    modifier onlyOwner() {\n        require(\n            hasRole(ADMIN_ROLE, msg.sender),\n            \"Stake1Vault: Caller is not an admin\"\n        );\n        _;\n    }\n\n    modifier onlyManager() {\n        require(\n            hasRole(MANAGER_ROLE, msg.sender),\n            \"Stake1Vault: Caller is not a manager\"\n        );\n        _;\n    }\n\n    modifier onlyClaimer() {\n        require(\n            hasRole(CLAIMER_ROLE, msg.sender),\n            \"Stake1Vault: Caller is not a claimer\"\n        );\n        _;\n    }\n\n    modifier lock() {\n        require(_lock == 0, \"Stake1Vault: LOCKED\");\n        _lock = 1;\n        _;\n        _lock = 0;\n    }\n\n    //////////////////////////////\n    // Events\n    //////////////////////////////\n    event ClosedSale(uint256 amount);\n    event ClaimedReward(address indexed from, address to, uint256 amount);\n\n    constructor() {\n        _setRoleAdmin(ADMIN_ROLE, ADMIN_ROLE);\n        _setRoleAdmin(CLAIMER_ROLE, ADMIN_ROLE);\n        _setupRole(ADMIN_ROLE, msg.sender);\n        _setupRole(CLAIMER_ROLE, msg.sender);\n    }\n\n    receive() external payable {}\n\n    /// @dev Initializes all variables\n    /// @param _fld - FLD token address\n    /// @param _paytoken - Tokens staked by users, can be used as ERC20 tokens.\n    //                     (In case of ETH, input address(0))\n    /// @param _cap - Maximum amount of rewards issued\n    /// @param _saleStartBlock - Sales start block\n    /// @param _stakeStartBlock - Staking start block\n    /// @param _stakefactory - factory address to create stakeContract\n    /// @param _stakeType - if paytokein is stable coin, it is true.\n    function initialize(\n        address _fld,\n        address _paytoken,\n        uint256 _cap,\n        uint256 _saleStartBlock,\n        uint256 _stakeStartBlock,\n        address _stakefactory,\n        uint256 _stakeType,\n        address _defiAddr\n    ) external onlyOwner {\n        require(\n            _fld != address(0) && _stakefactory != address(0),\n            \"Stake1Vault: input is zero\"\n        );\n        require(_cap > 0, \"Stake1Vault: _cap is zero\");\n        require(\n            _saleStartBlock < _stakeStartBlock && _stakeStartBlock > 0,\n            \"Stake1Vault: startBlock is unavailable\"\n        );\n\n        fld = IFLD(_fld);\n        cap = _cap;\n        paytoken = _paytoken;\n        saleStartBlock = _saleStartBlock;\n        stakeStartBlock = _stakeStartBlock;\n        stakeType = _stakeType;\n        defiAddr = _defiAddr;\n\n        grantRole(ADMIN_ROLE, _stakefactory);\n    }\n\n    /// @dev Sets FLD address\n    function setFLD(address _fld) external onlyOwner {\n        require(_fld != address(0), \"Stake1Vault: input is zero\");\n        fld = IFLD(_fld);\n    }\n\n    /// @dev Change cap of the vault\n    function changeCap(uint256 _cap) external onlyOwner {\n        require(_cap > 0 && cap != _cap, \"Stake1Vault: changeCap fails\");\n        cap = _cap;\n    }\n\n    /// @dev Change orders\n    function changeOrderedEndBlocks(uint256[] memory _ordered)\n        external\n        onlyOwner\n    {\n        // solhint-disable-next-line max-line-length\n        require(\n            stakeEndBlock < block.number &&\n                orderedEndBlocks.length > 0 &&\n                orderedEndBlocks.length == _ordered.length,\n            \"Stake1Vault: changeOrderedEndBlocks fails\"\n        );\n        orderedEndBlocks = _ordered;\n    }\n\n    /// @dev Set Defi Address\n    function setDefiAddr(address _defiAddr) external onlyOwner {\n        require(\n            _defiAddr != address(0) && defiAddr != _defiAddr,\n            \"Stake1Vault: _defiAddr is zero\"\n        );\n        defiAddr = _defiAddr;\n    }\n\n    /// @dev Add stake contract\n    function addSubVaultOfStake(\n        string memory _name,\n        address stakeContract,\n        uint256 periodBlocks\n    ) external onlyOwner {\n        require(\n            stakeContract != address(0) && cap > 0 && periodBlocks > 0,\n            \"Stake1Vault: addStakerInVault init fails\"\n        );\n        require(\n            block.number < stakeStartBlock,\n            \"Stake1Vault: Already started stake\"\n        );\n        require(saleClosed == false, \"Stake1Vault: closed sale\");\n        require(\n            paytoken == IStake1(stakeContract).paytoken(),\n            \"Different paytoken\"\n        );\n\n        LibTokenStake1.StakeInfo storage info = stakeInfos[stakeContract];\n        require(info.startBlcok == 0, \"Stake1Vault: Already added\");\n\n        stakeAddresses.push(stakeContract);\n        uint256 _endBlock = stakeStartBlock + periodBlocks;\n\n        info.name = _name;\n        info.startBlcok = stakeStartBlock;\n        info.endBlock = _endBlock;\n\n        if (stakeEndBlock < _endBlock) stakeEndBlock = _endBlock;\n        orderedEndBlocks.push(stakeEndBlock);\n    }\n\n    /// @dev Close sale\n    function closeSale() external {\n        require(saleClosed == false, \"already closed\");\n        require(\n            cap > 0 &&\n                stakeStartBlock > 0 &&\n                stakeStartBlock < stakeEndBlock &&\n                block.number > stakeStartBlock &&\n                block.number < stakeEndBlock,\n            \"closeSale init fail\"\n        );\n        require(stakeAddresses.length > 0, \"no stakes\");\n        blockTotalReward = cap / (stakeEndBlock - stakeStartBlock);\n\n        // update balance\n        for (uint256 i = 0; i < stakeAddresses.length; i++) {\n            //address stake = stakeAddresses[i];\n            LibTokenStake1.StakeInfo storage stakeInfo = stakeInfos[stakeAddresses[i]];\n            if (paytoken == address(0)) {\n                stakeInfo.balance = address(uint160(stakeAddresses[i])).balance;\n            } else {\n                stakeInfo.balance = IERC20(paytoken).balanceOf(stakeAddresses[i]);\n            }\n        }\n        uint256 sum = 0;\n        // update total\n        for (uint256 i = 0; i < stakeAddresses.length; i++) {\n            LibTokenStake1.StakeInfo storage totalcheck =\n                stakeInfos[stakeAddresses[i]];\n            uint256 total = 0;\n            for (uint256 j = 0; j < stakeAddresses.length; j++) {\n                if (\n                    stakeInfos[stakeAddresses[j]].endBlock >=\n                    totalcheck.endBlock\n                ) {\n                    total += stakeInfos[stakeAddresses[j]].balance;\n                }\n            }\n            stakeEndBlockTotal[totalcheck.endBlock] = total;\n            sum += total;\n\n            // reward total\n            uint256 totalReward = 0;\n            for (uint256 k = i; k > 0; k--) {\n                totalReward +=\n                    ((stakeInfos[stakeAddresses[k]].endBlock -\n                        stakeInfos[stakeAddresses[k - 1]].endBlock) *\n                        blockTotalReward *\n                        totalcheck.balance) /\n                    stakeEndBlockTotal[stakeInfos[stakeAddresses[k]].endBlock];\n            }\n            totalReward +=\n                ((stakeInfos[stakeAddresses[0]].endBlock -\n                    stakeInfos[stakeAddresses[0]].startBlcok) *\n                    blockTotalReward *\n                    totalcheck.balance) /\n                stakeEndBlockTotal[stakeInfos[stakeAddresses[0]].endBlock];\n\n            totalcheck.totalRewardAmount = totalReward;\n        }\n\n        saleClosed = true;\n        emit ClosedSale(sum);\n    }\n\n    /// @dev\n    /// sender is a staking contract.\n    /// A function that pays the amount(_amount) to _to by the staking contract.\n    /// A function that _to claim the amount(_amount) from the staking contract and gets the FLD in the vault.\n    function claim(address _to, uint256 _amount) external returns (bool) {\n        require(saleClosed && _amount > 0, \"disclose sale\");\n        uint256 fldBalance = fld.balanceOf(address(this));\n        require(\n            fldBalance >= _amount,\n            \"not enough balance\"\n        );\n\n        LibTokenStake1.StakeInfo storage stakeInfo = stakeInfos[msg.sender];\n        require(\n            stakeInfo.startBlcok > 0,\n            \"zero\"\n        );\n        require(\n            stakeInfo.totalRewardAmount >=\n                stakeInfo.claimRewardAmount + _amount,\n            \"claim amount exceeds\"\n        );\n        require(\n            stakeInfo.totalRewardAmount > 0 &&\n                (stakeInfo.totalRewardAmount -\n                    stakeInfo.claimRewardAmount -\n                    _amount) >\n                0,\n            \"amount is wrong\"\n        );\n\n        stakeInfo.claimRewardAmount += _amount;\n\n        require(fld.transfer(_to, _amount), \"FLD transfer fail\");\n\n        emit ClaimedReward(msg.sender, _to, _amount);\n        return true;\n    }\n\n    /// @dev How much you can claim\n    function canClaim(address _to, uint256 _amount)\n        external\n        view\n        returns (uint256)\n    {\n        require(saleClosed, \"disclose\");\n        uint256 fldBalance = fld.balanceOf(address(this));\n        require(\n            fldBalance >= _amount,\n            \"not enough\"\n        );\n\n        LibTokenStake1.StakeInfo storage stakeInfo = stakeInfos[_to];\n        require(\n            stakeInfo.startBlcok > 0,\n            \"startBlcok is zero\"\n        );\n\n        require(\n            stakeInfo.totalRewardAmount > 0,\n            \"amount is wrong\"\n        );\n        require(\n            stakeInfo.totalRewardAmount >=\n                stakeInfo.claimRewardAmount + _amount,\n            \"amount exceeds\"\n        );\n        require(\n            stakeInfo.totalRewardAmount -\n                stakeInfo.claimRewardAmount -\n                _amount >\n                0,\n            \"Stake1Vault: wrong\"\n        );\n        return stakeInfo.totalRewardAmount;\n    }\n\n    /// @dev Returns the FLD balance stored in the vault\n    function balanceFLDAvailableAmount()\n        external\n        view\n        returns (\n            // onlyClaimer\n            uint256\n        )\n    {\n        return fld.balanceOf(address(this));\n    }\n\n    /// @dev Returns all addresses\n    function stakeAddressesAll() external view returns (address[] memory) {\n        return stakeAddresses;\n    }\n\n    /// @dev Ordered end blocks\n    function orderedEndBlocksAll() external view returns (uint256[] memory) {\n        return orderedEndBlocks;\n    }\n\n    /// @dev Total reward amount\n    function totalRewardAmount(address _account)\n        external\n        view\n        returns (uint256)\n    {\n        return stakeInfos[_account].totalRewardAmount;\n    }\n\n    /// @dev Returns info\n    function infos()\n        external\n        view\n        returns (\n            address,\n            uint256,\n            uint256,\n            uint256,\n            uint256,\n            uint256,\n            bool\n        )\n    {\n        return (\n            paytoken,\n            cap,\n            saleStartBlock,\n            stakeStartBlock,\n            stakeEndBlock,\n            blockTotalReward,\n            saleClosed\n        );\n    }\n}\n",
  "sourcePath": "/Users/zena/ico2.0/ico20-contracts/contracts/stake/Stake1Vault.sol",
  "compiler": {
    "name": "solc",
    "version": "0.7.6+commit.7338295f.Emscripten.clang"
  },
  "schemaVersion": "3.3.4",
  "updatedAt": "2021-05-20T02:14:15.452Z",
  "devdoc": {
    "kind": "dev",
    "methods": {
      "addSubVaultOfStake(string,address,uint256)": {
        "details": "Add stake contract"
      },
      "balanceFLDAvailableAmount()": {
        "details": "Returns the FLD balance stored in the vault"
      },
      "canClaim(address,uint256)": {
        "details": "How much you can claim"
      },
      "changeCap(uint256)": {
        "details": "Change cap of the vault"
      },
      "changeOrderedEndBlocks(uint256[])": {
        "details": "Change orders"
      },
      "claim(address,uint256)": {
        "details": "sender is a staking contract. A function that pays the amount(_amount) to _to by the staking contract. A function that _to claim the amount(_amount) from the staking contract and gets the FLD in the vault."
      },
      "closeSale()": {
        "details": "Close sale"
      },
      "getRoleAdmin(bytes32)": {
        "details": "Returns the admin role that controls `role`. See {grantRole} and {revokeRole}. To change a role's admin, use {_setRoleAdmin}."
      },
      "getRoleMember(bytes32,uint256)": {
        "details": "Returns one of the accounts that have `role`. `index` must be a value between 0 and {getRoleMemberCount}, non-inclusive. Role bearers are not sorted in any particular way, and their ordering may change at any point. WARNING: When using {getRoleMember} and {getRoleMemberCount}, make sure you perform all queries on the same block. See the following https://forum.openzeppelin.com/t/iterating-over-elements-on-enumerableset-in-openzeppelin-contracts/2296[forum post] for more information."
      },
      "getRoleMemberCount(bytes32)": {
        "details": "Returns the number of accounts that have `role`. Can be used together with {getRoleMember} to enumerate all bearers of a role."
      },
      "grantRole(bytes32,address)": {
        "details": "Grants `role` to `account`. If `account` had not been already granted `role`, emits a {RoleGranted} event. Requirements: - the caller must have ``role``'s admin role."
      },
      "hasRole(bytes32,address)": {
        "details": "Returns `true` if `account` has been granted `role`."
      },
      "infos()": {
        "details": "Returns info"
      },
      "initialize(address,address,uint256,uint256,uint256,address,uint256,address)": {
        "params": {
          "_cap": "- Maximum amount of rewards issued",
          "_saleStartBlock": "- Sales start block",
          "_stakeStartBlock": "- Staking start block",
          "_stakeType": "- if paytokein is stable coin, it is true.",
          "_stakefactory": "- factory address to create stakeContract"
        }
      },
      "orderedEndBlocksAll()": {
        "details": "Ordered end blocks"
      },
      "renounceRole(bytes32,address)": {
        "details": "Revokes `role` from the calling account. Roles are often managed via {grantRole} and {revokeRole}: this function's purpose is to provide a mechanism for accounts to lose their privileges if they are compromised (such as when a trusted device is misplaced). If the calling account had been granted `role`, emits a {RoleRevoked} event. Requirements: - the caller must be `account`."
      },
      "revokeRole(bytes32,address)": {
        "details": "Revokes `role` from `account`. If `account` had been granted `role`, emits a {RoleRevoked} event. Requirements: - the caller must have ``role``'s admin role."
      },
      "setDefiAddr(address)": {
        "details": "Set Defi Address"
      },
      "setFLD(address)": {
        "details": "Sets FLD address"
      },
      "stakeAddressesAll()": {
        "details": "Returns all addresses"
      },
      "totalRewardAmount(address)": {
        "details": "Total reward amount"
      }
    },
    "title": "FLD Token's Vault - stores the fld for the period of time",
    "version": 1
  },
  "userdoc": {
    "kind": "user",
    "methods": {},
    "notice": "A vault is associated with the set of stake contracts. Stake contracts can interact with the vault to claim fld tokens",
    "version": 1
  }
}