{
  "contractName": "StakeTONStorage",
  "abi": [
    {
      "inputs": [],
      "name": "depositManager",
      "outputs": [
        {
          "internalType": "address",
          "name": "",
          "type": "address"
        }
      ],
      "stateMutability": "view",
      "type": "function"
    },
    {
      "inputs": [],
      "name": "endBlock",
      "outputs": [
        {
          "internalType": "uint256",
          "name": "",
          "type": "uint256"
        }
      ],
      "stateMutability": "view",
      "type": "function"
    },
    {
      "inputs": [],
      "name": "fromTokamak",
      "outputs": [
        {
          "internalType": "uint256",
          "name": "",
          "type": "uint256"
        }
      ],
      "stateMutability": "view",
      "type": "function"
    },
    {
      "inputs": [],
      "name": "paytoken",
      "outputs": [
        {
          "internalType": "address",
          "name": "",
          "type": "address"
        }
      ],
      "stateMutability": "view",
      "type": "function"
    },
    {
      "inputs": [],
      "name": "rewardClaimedTotal",
      "outputs": [
        {
          "internalType": "uint256",
          "name": "",
          "type": "uint256"
        }
      ],
      "stateMutability": "view",
      "type": "function"
    },
    {
      "inputs": [],
      "name": "saleStartBlock",
      "outputs": [
        {
          "internalType": "uint256",
          "name": "",
          "type": "uint256"
        }
      ],
      "stateMutability": "view",
      "type": "function"
    },
    {
      "inputs": [],
      "name": "seigManager",
      "outputs": [
        {
          "internalType": "address",
          "name": "",
          "type": "address"
        }
      ],
      "stateMutability": "view",
      "type": "function"
    },
    {
      "inputs": [],
      "name": "startBlock",
      "outputs": [
        {
          "internalType": "uint256",
          "name": "",
          "type": "uint256"
        }
      ],
      "stateMutability": "view",
      "type": "function"
    },
    {
      "inputs": [],
      "name": "toTokamak",
      "outputs": [
        {
          "internalType": "uint256",
          "name": "",
          "type": "uint256"
        }
      ],
      "stateMutability": "view",
      "type": "function"
    },
    {
      "inputs": [],
      "name": "toUniswapTON",
      "outputs": [
        {
          "internalType": "uint256",
          "name": "",
          "type": "uint256"
        }
      ],
      "stateMutability": "view",
      "type": "function"
    },
    {
      "inputs": [],
      "name": "tokamakLayer2",
      "outputs": [
        {
          "internalType": "address",
          "name": "",
          "type": "address"
        }
      ],
      "stateMutability": "view",
      "type": "function"
    },
    {
      "inputs": [],
      "name": "token",
      "outputs": [
        {
          "internalType": "address",
          "name": "",
          "type": "address"
        }
      ],
      "stateMutability": "view",
      "type": "function"
    },
    {
      "inputs": [],
      "name": "ton",
      "outputs": [
        {
          "internalType": "address",
          "name": "",
          "type": "address"
        }
      ],
      "stateMutability": "view",
      "type": "function"
    },
    {
      "inputs": [],
      "name": "totalStakedAmount",
      "outputs": [
        {
          "internalType": "uint256",
          "name": "",
          "type": "uint256"
        }
      ],
      "stateMutability": "view",
      "type": "function"
    },
    {
      "inputs": [
        {
          "internalType": "address",
          "name": "",
          "type": "address"
        }
      ],
      "name": "userStaked",
      "outputs": [
        {
          "internalType": "uint256",
          "name": "amount",
          "type": "uint256"
        },
        {
          "internalType": "uint256",
          "name": "claimedBlock",
          "type": "uint256"
        },
        {
          "internalType": "uint256",
          "name": "claimedAmount",
          "type": "uint256"
        },
        {
          "internalType": "uint256",
          "name": "releasedBlock",
          "type": "uint256"
        },
        {
          "internalType": "uint256",
          "name": "releasedAmount",
          "type": "uint256"
        },
        {
          "internalType": "bool",
          "name": "released",
          "type": "bool"
        }
      ],
      "stateMutability": "view",
      "type": "function"
    },
    {
      "inputs": [],
      "name": "vault",
      "outputs": [
        {
          "internalType": "address",
          "name": "",
          "type": "address"
        }
      ],
      "stateMutability": "view",
      "type": "function"
    },
    {
      "inputs": [],
      "name": "wton",
      "outputs": [
        {
          "internalType": "address",
          "name": "",
          "type": "address"
        }
      ],
      "stateMutability": "view",
      "type": "function"
    }
  ],
  "bytecode": "0x608060405234801561001057600080fd5b5061032f806100206000396000f3fe608060405234801561001057600080fd5b506004361061010b5760003560e01c80636fb7f558116100a2578063b2d4d6a311610071578063b2d4d6a3146101f1578063cc48b947146101f9578063fbfa77cf14610201578063fc0c546a14610209578063fd7fa460146102115761010b565b80636fb7f5581461017e5780638d62d9491461018657806392ea3b4c1461018e578063acc3a939146101965761010b565b806343b0934a116100de57806343b0934a1461014257806348cd4cb114610166578063567e98f91461016e5780636c7ac9d8146101765761010b565b8063083c6323146101105780630ac8e0f31461012a57806320027275146101325780632e0fac6b1461013a575b600080fd5b610118610219565b60408051918252519081900360200190f35b61011861021f565b610118610225565b61011861022b565b61014a610231565b604080516001600160a01b039092168252519081900360200190f35b610118610240565b610118610246565b61014a61024c565b61014a61025b565b61014a61026a565b61014a610279565b6101bc600480360360208110156101ac57600080fd5b50356001600160a01b0316610288565b6040805196875260208701959095528585019390935260608501919091526080840152151560a0830152519081900360c00190f35b6101186102c0565b61014a6102c6565b61014a6102d5565b61014a6102e4565b6101186102f3565b60055481565b60115481565b60035481565b60125481565b6001546001600160a01b031681565b60045481565b60075481565b600c546001600160a01b031681565b600d546001600160a01b031681565b600b546001600160a01b031681565b600e546001600160a01b031681565b600860205260009081526040902080546001820154600283015460038401546004850154600590950154939492939192909160ff1686565b60065481565b600a546001600160a01b031681565b6002546001600160a01b031681565b6000546001600160a01b031681565b6010548156fea26469706673582212209e2efb834680dfd0760183a6ae8af07a6bb1cd9d9f44bbcc74e8a327ac46502964736f6c63430007060033",
  "immutableReferences": {},
  "source": "//SPDX-License-Identifier: Unlicense\npragma solidity ^0.7.6;\n\n//import { IERC20 } from \"../interfaces/IERC20.sol\";\nimport \"../libraries/LibTokenStake1.sol\";\nimport \"./Stake1Storage.sol\";\n\ncontract StakeTONStorage is Stake1Storage {\n    address public ton;\n    address public wton;\n    address public depositManager;\n    address public seigManager;\n    address public tokamakLayer2;\n    address internal _uniswapRouter;\n\n    // from tokamak\n    uint256 public toTokamak;\n    uint256 public fromTokamak;\n    uint256 public toUniswapTON;\n}\n",
  "sourcePath": "/Users/zena/ico2.0/ico20-contracts/contracts/stake/StakeTONStorage.sol",
  "compiler": {
    "name": "solc",
    "version": "0.7.6+commit.7338295f.Emscripten.clang"
  },
  "schemaVersion": "3.3.4",
  "updatedAt": "2021-05-17T15:11:33.510Z",
  "devdoc": {
    "kind": "dev",
    "methods": {},
    "version": 1
  },
  "userdoc": {
    "kind": "user",
    "methods": {},
    "version": 1
  }
}