{
  "contractName": "StakeUniswapV3",
  "abi": [
    {
      "inputs": [],
      "stateMutability": "nonpayable",
      "type": "constructor"
    },
    {
      "anonymous": false,
      "inputs": [
        {
          "indexed": true,
          "internalType": "address",
          "name": "to",
          "type": "address"
        },
        {
          "indexed": false,
          "internalType": "uint256",
          "name": "amount",
          "type": "uint256"
        },
        {
          "indexed": false,
          "internalType": "uint256",
          "name": "claimBlock",
          "type": "uint256"
        }
      ],
      "name": "Claimed",
      "type": "event"
    },
    {
      "anonymous": false,
      "inputs": [
        {
          "indexed": true,
          "internalType": "bytes32",
          "name": "role",
          "type": "bytes32"
        },
        {
          "indexed": true,
          "internalType": "bytes32",
          "name": "previousAdminRole",
          "type": "bytes32"
        },
        {
          "indexed": true,
          "internalType": "bytes32",
          "name": "newAdminRole",
          "type": "bytes32"
        }
      ],
      "name": "RoleAdminChanged",
      "type": "event"
    },
    {
      "anonymous": false,
      "inputs": [
        {
          "indexed": true,
          "internalType": "bytes32",
          "name": "role",
          "type": "bytes32"
        },
        {
          "indexed": true,
          "internalType": "address",
          "name": "account",
          "type": "address"
        },
        {
          "indexed": true,
          "internalType": "address",
          "name": "sender",
          "type": "address"
        }
      ],
      "name": "RoleGranted",
      "type": "event"
    },
    {
      "anonymous": false,
      "inputs": [
        {
          "indexed": true,
          "internalType": "bytes32",
          "name": "role",
          "type": "bytes32"
        },
        {
          "indexed": true,
          "internalType": "address",
          "name": "account",
          "type": "address"
        },
        {
          "indexed": true,
          "internalType": "address",
          "name": "sender",
          "type": "address"
        }
      ],
      "name": "RoleRevoked",
      "type": "event"
    },
    {
      "anonymous": false,
      "inputs": [
        {
          "indexed": true,
          "internalType": "address",
          "name": "to",
          "type": "address"
        },
        {
          "indexed": false,
          "internalType": "uint256",
          "name": "amount",
          "type": "uint256"
        }
      ],
      "name": "Staked",
      "type": "event"
    },
    {
      "anonymous": false,
      "inputs": [
        {
          "indexed": true,
          "internalType": "address",
          "name": "to",
          "type": "address"
        },
        {
          "indexed": false,
          "internalType": "uint256",
          "name": "tokenId",
          "type": "uint256"
        }
      ],
      "name": "WithdrawalToken",
      "type": "event"
    },
    {
      "inputs": [],
      "name": "ADMIN_ROLE",
      "outputs": [
        {
          "internalType": "bytes32",
          "name": "",
          "type": "bytes32"
        }
      ],
      "stateMutability": "view",
      "type": "function"
    },
    {
      "inputs": [],
      "name": "BURNER_ROLE",
      "outputs": [
        {
          "internalType": "bytes32",
          "name": "",
          "type": "bytes32"
        }
      ],
      "stateMutability": "view",
      "type": "function"
    },
    {
      "inputs": [],
      "name": "DEFAULT_ADMIN_ROLE",
      "outputs": [
        {
          "internalType": "bytes32",
          "name": "",
          "type": "bytes32"
        }
      ],
      "stateMutability": "view",
      "type": "function"
    },
    {
      "inputs": [],
      "name": "MINTER_ROLE",
      "outputs": [
        {
          "internalType": "bytes32",
          "name": "",
          "type": "bytes32"
        }
      ],
      "stateMutability": "view",
      "type": "function"
    },
    {
      "inputs": [
        {
          "internalType": "address",
          "name": "account",
          "type": "address"
        }
      ],
      "name": "addAdmin",
      "outputs": [],
      "stateMutability": "nonpayable",
      "type": "function"
    },
    {
      "inputs": [],
      "name": "coinage",
      "outputs": [
        {
          "internalType": "address",
          "name": "",
          "type": "address"
        }
      ],
      "stateMutability": "view",
      "type": "function"
    },
    {
      "inputs": [],
      "name": "coinageMintBlock",
      "outputs": [
        {
          "internalType": "uint256",
          "name": "",
          "type": "uint256"
        }
      ],
      "stateMutability": "view",
      "type": "function"
    },
    {
      "inputs": [
        {
          "internalType": "uint256",
          "name": "",
          "type": "uint256"
        }
      ],
      "name": "depositTokens",
      "outputs": [
        {
          "internalType": "address",
          "name": "owner",
          "type": "address"
        },
        {
          "internalType": "uint256",
          "name": "idIndex",
          "type": "uint256"
        },
        {
          "internalType": "address",
          "name": "poolAddress",
          "type": "address"
        },
        {
          "internalType": "uint128",
          "name": "liquidity",
          "type": "uint128"
        },
        {
          "internalType": "int24",
          "name": "tickLower",
          "type": "int24"
        },
        {
          "internalType": "int24",
          "name": "tickUpper",
          "type": "int24"
        },
        {
          "internalType": "uint256",
          "name": "startTime",
          "type": "uint256"
        },
        {
          "internalType": "uint256",
          "name": "endTime",
          "type": "uint256"
        },
        {
          "internalType": "uint256",
          "name": "claimedTime",
          "type": "uint256"
        },
        {
          "internalType": "uint160",
          "name": "secondsPerLiquidityInsideX128Initial",
          "type": "uint160"
        },
        {
          "internalType": "uint160",
          "name": "secondsPerLiquidityInsideX128Last",
          "type": "uint160"
        }
      ],
      "stateMutability": "view",
      "type": "function"
    },
    {
      "inputs": [
        {
          "internalType": "bytes32",
          "name": "role",
          "type": "bytes32"
        }
      ],
      "name": "getRoleAdmin",
      "outputs": [
        {
          "internalType": "bytes32",
          "name": "",
          "type": "bytes32"
        }
      ],
      "stateMutability": "view",
      "type": "function"
    },
    {
      "inputs": [
        {
          "internalType": "bytes32",
          "name": "role",
          "type": "bytes32"
        },
        {
          "internalType": "uint256",
          "name": "index",
          "type": "uint256"
        }
      ],
      "name": "getRoleMember",
      "outputs": [
        {
          "internalType": "address",
          "name": "",
          "type": "address"
        }
      ],
      "stateMutability": "view",
      "type": "function"
    },
    {
      "inputs": [
        {
          "internalType": "bytes32",
          "name": "role",
          "type": "bytes32"
        }
      ],
      "name": "getRoleMemberCount",
      "outputs": [
        {
          "internalType": "uint256",
          "name": "",
          "type": "uint256"
        }
      ],
      "stateMutability": "view",
      "type": "function"
    },
    {
      "inputs": [
        {
          "internalType": "bytes32",
          "name": "role",
          "type": "bytes32"
        },
        {
          "internalType": "address",
          "name": "account",
          "type": "address"
        }
      ],
      "name": "grantRole",
      "outputs": [],
      "stateMutability": "nonpayable",
      "type": "function"
    },
    {
      "inputs": [
        {
          "internalType": "bytes32",
          "name": "role",
          "type": "bytes32"
        },
        {
          "internalType": "address",
          "name": "account",
          "type": "address"
        }
      ],
      "name": "hasRole",
      "outputs": [
        {
          "internalType": "bool",
          "name": "",
          "type": "bool"
        }
      ],
      "stateMutability": "view",
      "type": "function"
    },
    {
      "inputs": [
        {
          "internalType": "address",
          "name": "account",
          "type": "address"
        }
      ],
      "name": "isAdmin",
      "outputs": [
        {
          "internalType": "bool",
          "name": "",
          "type": "bool"
        }
      ],
      "stateMutability": "view",
      "type": "function"
    },
    {
      "inputs": [],
      "name": "nonfungiblePositionManager",
      "outputs": [
        {
          "internalType": "contract INonfungiblePositionManager",
          "name": "",
          "type": "address"
        }
      ],
      "stateMutability": "view",
      "type": "function"
    },
    {
      "inputs": [],
      "name": "pauseProxy",
      "outputs": [
        {
          "internalType": "bool",
          "name": "",
          "type": "bool"
        }
      ],
      "stateMutability": "view",
      "type": "function"
    },
    {
      "inputs": [],
      "name": "poolToken0",
      "outputs": [
        {
          "internalType": "address",
          "name": "",
          "type": "address"
        }
      ],
      "stateMutability": "view",
      "type": "function"
    },
    {
      "inputs": [],
      "name": "poolToken1",
      "outputs": [
        {
          "internalType": "address",
          "name": "",
          "type": "address"
        }
      ],
      "stateMutability": "view",
      "type": "function"
    },
    {
      "inputs": [
        {
          "internalType": "address",
          "name": "account",
          "type": "address"
        }
      ],
      "name": "removeAdmin",
      "outputs": [],
      "stateMutability": "nonpayable",
      "type": "function"
    },
    {
      "inputs": [
        {
          "internalType": "bytes32",
          "name": "role",
          "type": "bytes32"
        },
        {
          "internalType": "address",
          "name": "account",
          "type": "address"
        }
      ],
      "name": "renounceRole",
      "outputs": [],
      "stateMutability": "nonpayable",
      "type": "function"
    },
    {
      "inputs": [
        {
          "internalType": "bytes32",
          "name": "role",
          "type": "bytes32"
        },
        {
          "internalType": "address",
          "name": "account",
          "type": "address"
        }
      ],
      "name": "revokeRole",
      "outputs": [],
      "stateMutability": "nonpayable",
      "type": "function"
    },
    {
      "inputs": [],
      "name": "rewardClaimedTotal",
      "outputs": [
        {
          "internalType": "uint256",
          "name": "",
          "type": "uint256"
        }
      ],
      "stateMutability": "view",
      "type": "function"
    },
    {
      "inputs": [],
      "name": "rewardNonLiquidityClaimTotal",
      "outputs": [
        {
          "internalType": "uint256",
          "name": "",
          "type": "uint256"
        }
      ],
      "stateMutability": "view",
      "type": "function"
    },
    {
      "inputs": [],
      "name": "stakeRegistry",
      "outputs": [
        {
          "internalType": "address",
          "name": "",
          "type": "address"
        }
      ],
      "stateMutability": "view",
      "type": "function"
    },
    {
      "inputs": [
        {
          "internalType": "uint256",
          "name": "",
          "type": "uint256"
        }
      ],
      "name": "stakedCoinageTokens",
      "outputs": [
        {
          "internalType": "uint256",
          "name": "amount",
          "type": "uint256"
        },
        {
          "internalType": "uint256",
          "name": "startBlock",
          "type": "uint256"
        },
        {
          "internalType": "uint256",
          "name": "claimedBlock",
          "type": "uint256"
        },
        {
          "internalType": "uint256",
          "name": "claimedAmount",
          "type": "uint256"
        },
        {
          "internalType": "uint256",
          "name": "rewardNonLiquidityClaimAmount",
          "type": "uint256"
        }
      ],
      "stateMutability": "view",
      "type": "function"
    },
    {
      "inputs": [],
      "name": "token",
      "outputs": [
        {
          "internalType": "address",
          "name": "",
          "type": "address"
        }
      ],
      "stateMutability": "view",
      "type": "function"
    },
    {
      "inputs": [],
      "name": "totalStakedAmount",
      "outputs": [
        {
          "internalType": "uint256",
          "name": "",
          "type": "uint256"
        }
      ],
      "stateMutability": "view",
      "type": "function"
    },
    {
      "inputs": [],
      "name": "totalStakers",
      "outputs": [
        {
          "internalType": "uint256",
          "name": "",
          "type": "uint256"
        }
      ],
      "stateMutability": "view",
      "type": "function"
    },
    {
      "inputs": [
        {
          "internalType": "address",
          "name": "newAdmin",
          "type": "address"
        }
      ],
      "name": "transferAdmin",
      "outputs": [],
      "stateMutability": "nonpayable",
      "type": "function"
    },
    {
      "inputs": [],
      "name": "uniswapV3FactoryAddress",
      "outputs": [
        {
          "internalType": "address",
          "name": "",
          "type": "address"
        }
      ],
      "stateMutability": "view",
      "type": "function"
    },
    {
      "inputs": [
        {
          "internalType": "address",
          "name": "",
          "type": "address"
        },
        {
          "internalType": "uint256",
          "name": "",
          "type": "uint256"
        }
      ],
      "name": "userStakedTokenIds",
      "outputs": [
        {
          "internalType": "uint256",
          "name": "",
          "type": "uint256"
        }
      ],
      "stateMutability": "view",
      "type": "function"
    },
    {
      "inputs": [
        {
          "internalType": "address",
          "name": "",
          "type": "address"
        }
      ],
      "name": "userTotalStaked",
      "outputs": [
        {
          "internalType": "bool",
          "name": "staked",
          "type": "bool"
        },
        {
          "internalType": "uint256",
          "name": "totalDepositAmount",
          "type": "uint256"
        },
        {
          "internalType": "uint256",
          "name": "totalClaimedAmount",
          "type": "uint256"
        },
        {
          "internalType": "uint256",
          "name": "totalUnableClaimAmount",
          "type": "uint256"
        }
      ],
      "stateMutability": "view",
      "type": "function"
    },
    {
      "inputs": [],
      "name": "vault",
      "outputs": [
        {
          "internalType": "address",
          "name": "",
          "type": "address"
        }
      ],
      "stateMutability": "view",
      "type": "function"
    },
    {
      "stateMutability": "payable",
      "type": "receive"
    },
    {
      "inputs": [
        {
          "internalType": "uint256",
          "name": "tokenId",
          "type": "uint256"
        }
      ],
      "name": "stake",
      "outputs": [],
      "stateMutability": "nonpayable",
      "type": "function"
    },
    {
      "inputs": [
        {
          "internalType": "uint256",
          "name": "tokenId",
          "type": "uint256"
        }
      ],
      "name": "getClaimLiquidity",
      "outputs": [
        {
          "internalType": "uint256",
          "name": "realReward",
          "type": "uint256"
        },
        {
          "internalType": "uint256",
          "name": "unableClaimReward",
          "type": "uint256"
        },
        {
          "internalType": "uint160",
          "name": "secondsPerLiquidityInsideX128",
          "type": "uint160"
        },
        {
          "internalType": "uint256",
          "name": "balanceCoinageOfUser",
          "type": "uint256"
        },
        {
          "internalType": "uint256",
          "name": "_coinageReward",
          "type": "uint256"
        }
      ],
      "stateMutability": "view",
      "type": "function"
    },
    {
      "inputs": [
        {
          "internalType": "uint256",
          "name": "tokenId",
          "type": "uint256"
        }
      ],
      "name": "claim",
      "outputs": [],
      "stateMutability": "nonpayable",
      "type": "function"
    },
    {
      "inputs": [
        {
          "internalType": "uint256",
          "name": "tokenId",
          "type": "uint256"
        }
      ],
      "name": "withdraw",
      "outputs": [],
      "stateMutability": "nonpayable",
      "type": "function"
    },
    {
      "inputs": [
        {
          "internalType": "address",
          "name": "user",
          "type": "address"
        }
      ],
      "name": "getUserStakedTokenIds",
      "outputs": [
        {
          "internalType": "uint256[]",
          "name": "ids",
          "type": "uint256[]"
        }
      ],
      "stateMutability": "view",
      "type": "function"
    },
    {
      "inputs": [
        {
          "internalType": "uint256",
          "name": "tokenId",
          "type": "uint256"
        }
      ],
      "name": "getDepositToken",
      "outputs": [
        {
          "internalType": "address",
          "name": "poolAddress",
          "type": "address"
        },
        {
          "internalType": "int24[2]",
          "name": "tick",
          "type": "int24[2]"
        },
        {
          "internalType": "uint128",
          "name": "liquidity",
          "type": "uint128"
        },
        {
          "internalType": "uint256[6]",
          "name": "args",
          "type": "uint256[6]"
        },
        {
          "internalType": "uint160[2]",
          "name": "secondsPL",
          "type": "uint160[2]"
        }
      ],
      "stateMutability": "view",
      "type": "function"
    },
    {
      "inputs": [
        {
          "internalType": "address",
          "name": "user",
          "type": "address"
        }
      ],
      "name": "getUserStakedTotal",
      "outputs": [
        {
          "internalType": "uint256",
          "name": "totalDepositAmount",
          "type": "uint256"
        },
        {
          "internalType": "uint256",
          "name": "totalClaimedAmount",
          "type": "uint256"
        },
        {
          "internalType": "uint256",
          "name": "totalUnableClaimAmount",
          "type": "uint256"
        }
      ],
      "stateMutability": "view",
      "type": "function"
    },
    {
      "inputs": [],
      "name": "infos",
      "outputs": [
        {
          "internalType": "address[4]",
          "name": "",
          "type": "address[4]"
        },
        {
          "internalType": "address[4]",
          "name": "",
          "type": "address[4]"
        },
        {
          "internalType": "uint256[4]",
          "name": "",
          "type": "uint256[4]"
        }
      ],
      "stateMutability": "view",
      "type": "function"
    }
  ],
  "bytecode": "0x60806040523480156200001157600080fd5b506200002d60008051602062003549833981519152806200004e565b620000486000805160206200354983398151915233620000a0565b620001b6565b600082815260126020526040808220600201549051839285917fbd79b86ffe0ab8e8776151514217cd7cacd52c909f66475c3af44e129f0b00ff9190a460009182526012602052604090912060020155565b620000ac8282620000b0565b5050565b6000828152601260209081526040909120620000d7918390620024956200012b821b17901c565b15620000ac57620000e76200014b565b6001600160a01b0316816001600160a01b0316837f2f8788117e7eff1d82e926ec794901d17c78024a50270940304540a733656f0d60405160405180910390a45050565b600062000142836001600160a01b0384166200014f565b90505b92915050565b3390565b60006200015d83836200019e565b620001955750815460018181018455600084815260208082209093018490558454848252828601909352604090209190915562000145565b50600062000145565b60009081526001919091016020526040902054151590565b61338380620001c66000396000f3fe60806040526004361061024a5760003560e01c80637def1ca111610139578063a73bf6df116100b6578063ca15c8731161007a578063ca15c873146109de578063d539139314610a08578063d547741f14610a1d578063dd49756e14610a56578063fbfa77cf14610af7578063fc0c546a14610b0c57610254565b8063a73bf6df14610935578063ad1b39091461094a578063b2d4d6a31461095f578063b44a272214610974578063b8ebb1331461098957610254565b806391d14854116100fd57806391d148541461079457806399882202146107cd5780639a88be2f1461081e5780639c79c638146108c3578063a217fddf1461092057610254565b80637def1ca1146106a257806380f5db8c146106b75780638113d230146106cc578063869890381461074f5780639010d07c1461076457610254565b80634758af8a116101c7578063704802751161018b5780637048027514610587578063719de1ef146105ba57806374ff62f11461061557806375829def1461065a57806375b238fc1461068d57610254565b80634758af8a146104de57806349cba16c1461050f578063567e98f91461054857806363a8fd891461055d578063683048351461057257610254565b80632f2ff15d1161020e5780632f2ff15d146103505780632f90deab1461038957806336568abe1461039e578063379607f5146103d75780634372f61f1461040157610254565b80631785f53c14610259578063248a9ca31461028e57806324d7806c146102ca578063282c51f3146103115780632e1a7d4d1461032657610254565b3661025457600080fd5b600080fd5b34801561026557600080fd5b5061028c6004803603602081101561027c57600080fd5b50356001600160a01b0316610b21565b005b34801561029a57600080fd5b506102b8600480360360208110156102b157600080fd5b5035610b80565b60408051918252519081900360200190f35b3480156102d657600080fd5b506102fd600480360360208110156102ed57600080fd5b50356001600160a01b0316610b95565b604080519115158252519081900360200190f35b34801561031d57600080fd5b506102b8610bb5565b34801561033257600080fd5b5061028c6004803603602081101561034957600080fd5b5035610bd9565b34801561035c57600080fd5b5061028c6004803603604081101561037357600080fd5b50803590602001356001600160a01b0316610e37565b34801561039557600080fd5b506102b8610ea3565b3480156103aa57600080fd5b5061028c600480360360408110156103c157600080fd5b50803590602001356001600160a01b0316610ea9565b3480156103e357600080fd5b5061028c600480360360208110156103fa57600080fd5b5035610f0a565b34801561040d57600080fd5b5061042b6004803603602081101561042457600080fd5b503561112a565b60405180866001600160a01b0316815260200185600260200280838360005b8381101561046257818101518382015260200161044a565b50505050905001846001600160801b0316815260200183600660200280838360005b8381101561049c578181015183820152602001610484565b5050505090500182600260200280838360005b838110156104c75781810151838201526020016104af565b505050509050019550505050505060405180910390f35b3480156104ea57600080fd5b506104f36113db565b604080516001600160a01b039092168252519081900360200190f35b34801561051b57600080fd5b506102b86004803603604081101561053257600080fd5b506001600160a01b0381351690602001356113ea565b34801561055457600080fd5b506102b861141b565b34801561056957600080fd5b506102fd611421565b34801561057e57600080fd5b506104f361142a565b34801561059357600080fd5b5061028c600480360360208110156105aa57600080fd5b50356001600160a01b0316611439565b3480156105c657600080fd5b506105ed600480360360208110156105dd57600080fd5b50356001600160a01b0316611495565b6040805194151585526020850193909352838301919091526060830152519081900360800190f35b34801561062157600080fd5b5061028c600480360360a081101561063857600080fd5b5080359060208101359060ff60408201351690606081013590608001356114c0565b34801561066657600080fd5b5061028c6004803603602081101561067d57600080fd5b50356001600160a01b0316611ee7565b34801561069957600080fd5b506102b8612008565b3480156106ae57600080fd5b506102b861201a565b3480156106c357600080fd5b506104f3612020565b3480156106d857600080fd5b506106ff600480360360208110156106ef57600080fd5b50356001600160a01b031661202f565b60408051602080825283518183015283519192839290830191858101910280838360005b8381101561073b578181015183820152602001610723565b505050509050019250505060405180910390f35b34801561075b57600080fd5b506102b861209b565b34801561077057600080fd5b506104f36004803603604081101561078757600080fd5b50803590602001356120a1565b3480156107a057600080fd5b506102fd600480360360408110156107b757600080fd5b50803590602001356001600160a01b03166120c0565b3480156107d957600080fd5b50610800600480360360208110156107f057600080fd5b50356001600160a01b03166120d8565b60408051938452602084019290925282820152519081900360600190f35b34801561082a57600080fd5b50610833612103565b6040518084608080838360005b83811015610858578181015183820152602001610840565b5050505090500183600460200280838360005b8381101561088357818101518382015260200161086b565b5050505090500182600460200280838360005b838110156108ae578181015183820152602001610896565b50505050905001935050505060405180910390f35b3480156108cf57600080fd5b506108ed600480360360208110156108e657600080fd5b50356121be565b6040805195865260208601949094526001600160a01b039092168484015260608401526080830152519081900360a00190f35b34801561092c57600080fd5b506102b86122fe565b34801561094157600080fd5b506104f3612303565b34801561095657600080fd5b506104f3612317565b34801561096b57600080fd5b506102b8612326565b34801561098057600080fd5b506104f361232c565b34801561099557600080fd5b506109b3600480360360208110156109ac57600080fd5b503561233b565b6040805195865260208601949094528484019290925260608401526080830152519081900360a00190f35b3480156109ea57600080fd5b506102b860048036036020811015610a0157600080fd5b503561236a565b348015610a1457600080fd5b506102b8612381565b348015610a2957600080fd5b5061028c60048036036040811015610a4057600080fd5b50803590602001356001600160a01b03166123a5565b348015610a6257600080fd5b50610a8060048036036020811015610a7957600080fd5b50356123fe565b604080516001600160a01b039c8d168152602081019b909b52988b168a8a01526001600160801b0390971660608a0152600295860b60808a01529390940b60a088015260c087019190915260e086015261010085019190915284166101208401529092166101408201529051908190036101600190f35b348015610b0357600080fd5b506104f3612477565b348015610b1857600080fd5b506104f3612486565b610b2a33610b95565b610b655760405162461bcd60e51b81526004018080602001828103825260228152602001806131866022913960400191505060405180910390fd5b610b7d6000805160206132dc83398151915282610ea9565b50565b60009081526012602052604090206002015490565b6000610baf6000805160206132dc833981519152836120c0565b92915050565b7f9667e80708b6eeeb0053fa0cca44e028ff548e2a9f029edfeac87c118b08b7c881565b600081815260066020526040902080546001600160a01b03163314610c2f5760405162461bcd60e51b815260040180806020018281038252602e8152602001806132ae602e913960400191505060405180910390fd5b610c376124aa565b6003810154600480546001600160801b0390921690910390556000610c5b836121be565b5050505090506000811115610c7357610c7383610f0a565b6003820154610c8c9033906001600160801b0316612722565b610c9a838360010154612a53565b600083815260066020818152604080842080546001600160a01b0319908116825560018083018790556002808401805484169055600380850180546001600160b01b031916905560048086018a9055600586018a905597850189905560078086018054861690556008958601805490951690945592865284882088815580830189905590810188905580830188905590950186905533865292529092209184015490820180546001600160801b0390921690910390819055610d8a5760098054600019019055336000908152600860205260408120805460ff191681556001810182905560028101829055600301555b600d5460408051632142170760e11b81523060048201523360248201526044810187905290516001600160a01b03909216916342842e0e9160648082019260009290919082900301818387803b158015610de357600080fd5b505af1158015610df7573d6000803e3d6000fd5b50506040805187815290513393507fc7007e57228f610de89c329174bb69f87ecbecaf8e44c0e45ef6c83c21a8027992509081900360200190a250505050565b600082815260126020526040902060020154610e5a90610e55612b30565b6120c0565b610e955760405162461bcd60e51b815260040180806020018281038252602f815260200180613157602f913960400191505060405180910390fd5b610e9f8282612b34565b5050565b60115481565b610eb1612b30565b6001600160a01b0316816001600160a01b031614610f005760405162461bcd60e51b815260040180806020018281038252602f81526020018061331f602f913960400191505060405180910390fd5b610e9f8282612b9d565b600081815260066020526040902080546001600160a01b03163314610f605760405162461bcd60e51b815260040180806020018281038252602e8152602001806132ae602e913960400191505060405180910390fd5b610f686124aa565b600080600080610f77866121be565b94505093509350935060008411610fd5576040805162461bcd60e51b815260206004820152601e60248201527f5374616b65556e697377617056333a20726577617264206973207a65726f0000604482015290519081900360640190fd5b4260068601556008850180546001600160a01b0319166001600160a01b0384161790556110023382612722565b600086815260076020908152604080832043600280830191909155600380830180548b019055600480840180548b019055338088526008875285882080850180548e01905580840180548d01905583548d01909355601180548c01905592548551635569f64b60e11b815291820193909352602481018b90529351929590946001600160a01b039092169363aad3ec96936044808301949391928390030190829087803b1580156110b257600080fd5b505af11580156110c6573d6000803e3d6000fd5b505050506040513d60208110156110dc57600080fd5b50516110e757600080fd5b60408051878152436020820152815133927f987d620f307ff6b94d58743cb7a7509f24071586a77759b77c2d4e29f75a2f9a928290030190a25050505050505050565b60006111346130da565b600061113e6130f8565b6111466130da565b600060066000888152602001908152602001600020604051806101600160405290816000820160009054906101000a90046001600160a01b03166001600160a01b03166001600160a01b03168152602001600182015481526020016002820160009054906101000a90046001600160a01b03166001600160a01b03166001600160a01b031681526020016003820160009054906101000a90046001600160801b03166001600160801b03166001600160801b031681526020016003820160109054906101000a900460020b60020b60020b81526020016003820160139054906101000a900460020b60020b60020b81526020016004820154815260200160058201548152602001600682015481526020016007820160009054906101000a90046001600160a01b03166001600160a01b03166001600160a01b031681526020016008820160009054906101000a90046001600160a01b03166001600160a01b03166001600160a01b03168152505090506000600760008981526020019081526020016000206040518060a001604052908160008201548152602001600182015481526020016002820154815260200160038201548152602001600482015481525050905081604001516040518060400160405280846080015160020b60020b81526020018460a0015160020b60020b81525083606001516040518060c001604052808660c0015181526020018660e00151815260200186610100015181526020018560200151815260200185604001518152602001856060015181525060405180604001604052808761012001516001600160a01b03166001600160a01b031681526020018761014001516001600160a01b03166001600160a01b031681525096509650965096509650505091939590929450565b600c546001600160a01b031681565b6005602052816000526040600020818154811061140657600080fd5b90600052602060002001600091509150505481565b60045481565b600b5460ff1681565b6001546001600160a01b031681565b61144233610b95565b61147d5760405162461bcd60e51b81526004018080602001828103825260228152602001806131866022913960400191505060405180910390fd5b610b7d6000805160206132dc83398151915282610e37565b600860205260009081526040902080546001820154600283015460039093015460ff90921692909184565b6000546001600160a01b0316806115085760405162461bcd60e51b81526004018080602001828103825260238152602001806132126023913960400191505060405180910390fd5b6002546001600160a01b0316806115505760405162461bcd60e51b81526004018080602001828103825260238152602001806132126023913960400191505060405180910390fd5b6001546001600160a01b0316806115985760405162461bcd60e51b81526004018080602001828103825260238152602001806132126023913960400191505060405180910390fd5b600b5461010090046001600160a01b0316806115e55760405162461bcd60e51b81526004018080602001828103825260238152602001806132126023913960400191505060405180910390fd5b600c546001600160a01b03168061162d5760405162461bcd60e51b81526004018080602001828103825260238152602001806132126023913960400191505060405180910390fd5b600d546001600160a01b0316806116755760405162461bcd60e51b81526004018080602001828103825260238152602001806132126023913960400191505060405180910390fd5b600e546001600160a01b0316806116bd5760405162461bcd60e51b81526004018080602001828103825260238152602001806132126023913960400191505060405180910390fd5b600d54604080516331a9108f60e11b8152600481018f9052905133926001600160a01b031691636352211e916024808301926020929190829003018186803b15801561170857600080fd5b505afa15801561171c573d6000803e3d6000fd5b505050506040513d602081101561173257600080fd5b50516001600160a01b0316146117795760405162461bcd60e51b815260040180806020018281038252602d815260200180613260602d913960400191505060405180910390fd5b600d5460408051637ac2ff7b60e01b8152306004820152602481018f9052604481018e905260ff8d166064820152608481018c905260a481018b905290518e928e928e928e928e926001600160a01b0390911691637ac2ff7b9160c48082019260009290919082900301818387803b1580156117f457600080fd5b505af1158015611808573d6000803e3d6000fd5b5050600d546040805163133f757160e31b8152600481018a905290516000945084935083928392839283926001600160a01b0316916399fbab8891602480830192610180929190829003018186803b15801561186357600080fd5b505afa158015611877573d6000803e3d6000fd5b505050506040513d61018081101561188e57600080fd5b5060408101516060820151608083015160a084015160c085015160e090950151600b54949b5092995090975095509193509091506001600160a01b03808816610100909204161480156118ee5750600c546001600160a01b038681169116145b806119235750600c546001600160a01b0387811691161480156119235750600b546001600160a01b0386811661010090920416145b61195e5760405162461bcd60e51b815260040180806020018281038252602b815260200180613235602b913960400191505060405180910390fd5b6000816001600160801b0316116119a65760405162461bcd60e51b815260040180806020018281038252602181526020018061328d6021913960400191505060405180910390fd5b600e54604080516060810182526001600160a01b038981168252888116602083015262ffffff8816928201929092526000926119e3921690612c06565b90506001600160a01b038116611a2a5760405162461bcd60e51b81526004018080602001828103825260238152602001806132fc6023913960400191505060405180910390fd5b6000816001600160a01b031663a38807f286866040518363ffffffff1660e01b8152600401808360020b81526020018260020b81526020019250505060606040518083038186803b158015611a7e57600080fd5b505afa158015611a92573d6000803e3d6000fd5b505050506040513d6060811015611aa857600080fd5b810190808051906020019092919080519060200190929190805190602001909291905050505091505060008d9050600d60009054906101000a90046001600160a01b03166001600160a01b03166323b872dd3330846040518463ffffffff1660e01b815260040180846001600160a01b03168152602001836001600160a01b031681526020018281526020019350505050600060405180830381600087803b158015611b5357600080fd5b505af1158015611b67573d6000803e3d6000fd5b5050505060056000336001600160a01b03166001600160a01b031681526020019081526020016000208190806001815401808255809150506001900390600052602060002001600090919091909150556000600660008381526020019081526020016000209050338160000160006101000a8154816001600160a01b0302191690836001600160a01b0316021790555060056000336001600160a01b03166001600160a01b03168152602001908152602001600020805490508160010181905550838160020160006101000a8154816001600160a01b0302191690836001600160a01b03160217905550848160030160006101000a8154816001600160801b0302191690836001600160801b03160217905550868160030160106101000a81548162ffffff021916908360020b62ffffff160217905550858160030160136101000a81548162ffffff021916908360020b62ffffff1602179055504281600401819055506000816005018190555060008160060181905550828160070160006101000a8154816001600160a01b0302191690836001600160a01b0316021790555060008160080160006101000a8154816001600160a01b0302191690836001600160a01b031602179055506000600760008481526020019081526020016000209050856001600160801b03168160000181905550438160010181905550600081600201819055506000816003018190555060008160040181905550600060086000336001600160a01b03166001600160a01b0316815260200190815260200160002090508060000160009054906101000a900460ff16611dcb576009805460010190555b805460ff191660019081178255810180546001600160801b03808a16918201909255600480549091018155600f54604080516340c10f1960e01b81523393810193909352633b9aca008b02909316602483015291516001600160a01b03909216916340c10f19916044808201926020929091908290030181600087803b158015611e5457600080fd5b505af1158015611e68573d6000803e3d6000fd5b505050506040513d6020811015611e7e57600080fd5b50611e8990506124aa565b604080516001600160801b0389168152905133917f9e71bc8eea02a63969f509818f2dafb9254532904319f9dbda79b67bd34a5f3d919081900360200190a25050505050505050505050505050505050505050505050505050505050565b611ef033610b95565b611f2b5760405162461bcd60e51b81526004018080602001828103825260228152602001806131866022913960400191505060405180910390fd5b6001600160a01b038116611f81576040805162461bcd60e51b815260206004820152601860248201527741636365737369626c653a207a65726f206164647265737360401b604482015290519081900360640190fd5b336001600160a01b0382161415611fd8576040805162461bcd60e51b815260206004820152601660248201527520b1b1b2b9b9b4b136329d1039b0b6b29030b236b4b760511b604482015290519081900360640190fd5b611ff06000805160206132dc83398151915282610e37565b610b7d6000805160206132dc83398151915233610ea9565b6000805160206132dc83398151915281565b60105481565b600e546001600160a01b031681565b6001600160a01b03811660009081526005602090815260409182902080548351818402810184019094528084526060939283018282801561208f57602002820191906000526020600020905b81548152602001906001019080831161207b575b50505050509050919050565b60095481565b60008281526012602052604081206120b99083612cea565b9392505050565b60008281526012602052604081206120b99083612cf6565b6001600160a01b03166000908152600860205260409020600181015460028201546003909201549092565b61210b613116565b612113613116565b61211b613116565b505060408051608080820183526000546001600160a01b0390811683526002548116602080850191909152600154821684860152600f54821660608086019190915285518085018752600b54610100900484168152600c54841681840152600d54841681880152600e5490931683820152855193840186526009548452600454918401919091526003549483019490945260115493820193909352909250909192565b600081815260066020526040808220600280820154600383015484516351c403f960e11b8152600160801b8204840b840b6004820152600160981b909104830b90920b60248301529251849384938493849391926001600160a01b03169163a38807f291604480820192606092909190829003018186803b15801561224257600080fd5b505afa158015612256573d6000803e3d6000fd5b505050506040513d606081101561226c57600080fd5b50602001516007820154600483015460068401549296506001600160a01b0390911691156122ad575050600881015460068201546001600160a01b03909116905b60038301548287039042839003906122cf9033906001600160801b0316612d0b565b9097509550806001600160a01b038316816122e657fe5b04860299508986039850505050505091939590929450565b600081565b600b5461010090046001600160a01b031681565b600f546001600160a01b031681565b60035481565b600d546001600160a01b031681565b600760205260009081526040902080546001820154600283015460038401546004909401549293919290919085565b6000818152601260205260408120610baf90612df6565b7ff0887ba65ee2024ea881d91b74c2450ef19e1557f03bed3ea9f16b037cbe2dc981565b6000828152601260205260409020600201546123c390610e55612b30565b610f005760405162461bcd60e51b81526004018080602001828103825260308152602001806131e26030913960400191505060405180910390fd5b6006602081905260009182526040909120805460018201546002808401546003850154600486015460058701549787015460078801546008909801546001600160a01b03978816999698948816976001600160801b03851697600160801b8604880b97600160981b90960490950b95939493811691168b565b6002546001600160a01b031681565b6000546001600160a01b031681565b60006120b9836001600160a01b038416612e01565b60105443111561272057600254604080516322b8e72b60e21b815290516000926001600160a01b031691638ae39cac91600480830192602092919082900301818787803b1580156124fa57600080fd5b505af115801561250e573d6000803e3d6000fd5b505050506040513d602081101561252457600080fd5b505160105402430390508015610b7d57600f54604080516318160ddd60e01b815290516000926001600160a01b0316916318160ddd916004808301926020929190829003018186803b15801561257957600080fd5b505afa15801561258d573d6000803e3d6000fd5b505050506040513d60208110156125a357600080fd5b5051600f5460408051630a9ee07f60e31b81529051929350848401926001600160a01b039092169163817e9d3191612631918691869186916354f703f8916004808301926020929190829003018186803b15801561260057600080fd5b505afa158015612614573d6000803e3d6000fd5b505050506040513d602081101561262a57600080fd5b5051612e4b565b6040518263ffffffff1660e01b815260040180828152602001915050602060405180830381600087803b15801561266757600080fd5b505af115801561267b573d6000803e3d6000fd5b505050506040513d602081101561269157600080fd5b5050600f54604080516340c10f1960e01b8152336004820152633b9aca008602602482015290516001600160a01b03909216916340c10f19916044808201926020929091908290030181600087803b1580156126ec57600080fd5b505af1158015612700573d6000803e3d6000fd5b505050506040513d602081101561271657600080fd5b5050436010555050505b565b60008111612777576040805162461bcd60e51b815260206004820152601e60248201527f5374616b65556e697377617056333a20616d6f756e74206973207a65726f0000604482015290519081900360640190fd5b600f54604080516370a0823160e01b81526001600160a01b0385811660048301529151633b9aca0085029392909216916370a0823191602480820192602092909190829003018186803b1580156127cd57600080fd5b505afa1580156127e1573d6000803e3d6000fd5b505050506040513d60208110156127f757600080fd5b50518111156128375760405162461bcd60e51b815260040180806020018281038252603a8152602001806131a8603a913960400191505060405180910390fd5b600f54604080516318160ddd60e01b815290516000926001600160a01b0316916318160ddd916004808301926020929190829003018186803b15801561287c57600080fd5b505afa158015612890573d6000803e3d6000fd5b505050506040513d60208110156128a657600080fd5b5051600f546040805163079cc67960e41b81526001600160a01b0388811660048301526024820187905291519394509116916379cc67909160448082019260009290919082900301818387803b1580156128ff57600080fd5b505af1158015612913573d6000803e3d6000fd5b505050506000600f60009054906101000a90046001600160a01b03166001600160a01b03166318160ddd6040518163ffffffff1660e01b815260040160206040518083038186803b15801561296757600080fd5b505afa15801561297b573d6000803e3d6000fd5b505050506040513d602081101561299157600080fd5b5051600f5460408051630a9ee07f60e31b815290519293506001600160a01b039091169163817e9d31916129ea918691869186916354f703f8916004808301926020929190829003018186803b15801561260057600080fd5b6040518263ffffffff1660e01b815260040180828152602001915050602060405180830381600087803b158015612a2057600080fd5b505af1158015612a34573d6000803e3d6000fd5b505050506040513d6020811015612a4a57600080fd5b50505050505050565b336000908152600560205260408120805483908110612a6e57fe5b60009182526020808320909101543383526005909152604090912054909150600019018315801590612a9f57508382145b15612b2a5780831015612afb57336000908152600560205260409020805482908110612ac757fe5b600091825260208083209091015433835260059091526040909120805485908110612aee57fe5b6000918252602090912001555b336000908152600560205260409020805480612b1357fe5b600190038181906000526020600020016000905590555b50505050565b3390565b6000828152601260205260409020612b4c9082612495565b15610e9f57612b59612b30565b6001600160a01b0316816001600160a01b0316837f2f8788117e7eff1d82e926ec794901d17c78024a50270940304540a733656f0d60405160405180910390a45050565b6000828152601260205260409020612bb59082612e68565b15610e9f57612bc2612b30565b6001600160a01b0316816001600160a01b0316837ff6391f5c32d9c69d2a47ea670b442974b53935d1edc7fd64eb21e047a839171b60405160405180910390a45050565b600081602001516001600160a01b031682600001516001600160a01b031610612c2e57600080fd5b50805160208083015160409384015184516001600160a01b0394851681850152939091168385015262ffffff166060808401919091528351808403820181526080840185528051908301206001600160f81b031960a085015294901b6bffffffffffffffffffffffff191660a183015260b58201939093527fe34f199b19b2b4f47f68442619d555527d244f78a3297ea89325f843f87b8b5460d5808301919091528251808303909101815260f5909101909152805191012090565b60006120b98383612e7d565b60006120b9836001600160a01b038416612ee1565b6001600160a01b03821660009081526008602052604081206001810154829190841115612d3757600080fd5b600f54604080516370a0823160e01b81526001600160a01b038881166004830152915160009650869392909216916370a0823191602480820192602092909190829003018186803b158015612d8b57600080fd5b505afa158015612d9f573d6000803e3d6000fd5b505050506040513d6020811015612db557600080fd5b505190508015612ded57633b9aca00810493508160010154841115612ded5781600101548581612de157fe5b04826001015485030292505b50509250929050565b6000610baf82612ef9565b6000612e0d8383612ee1565b612e4357508154600181810184556000848152602080822090930184905584548482528286019093526040902091909155610baf565b506000610baf565b6000612e60612e5a8484612efd565b85612f3e565b949350505050565b60006120b9836001600160a01b038416612f62565b81546000908210612ebf5760405162461bcd60e51b81526004018080602001828103825260228152602001806131356022913960400191505060405180910390fd5b826000018281548110612ece57fe5b9060005260206000200154905092915050565b60009081526001919091016020526040902054151590565b5490565b60006b033b2e3c9fd0803ce8000000612f2f612f198585613028565b60026b033b2e3c9fd0803ce80000005b0461308b565b81612f3657fe5b049392505050565b600081612f2f612f5a856b033b2e3c9fd0803ce8000000613028565b600285612f29565b6000818152600183016020526040812054801561301e5783546000198083019190810190600090879083908110612f9557fe5b9060005260206000200154905080876000018481548110612fb257fe5b600091825260208083209091019290925582815260018981019092526040902090840190558654879080612fe257fe5b60019003818190600052602060002001600090559055866001016000878152602001908152602001600020600090556001945050505050610baf565b6000915050610baf565b60008115806130435750508082028282828161304057fe5b04145b610baf576040805162461bcd60e51b815260206004820152601460248201527364732d6d6174682d6d756c2d6f766572666c6f7760601b604482015290519081900360640190fd5b80820182811015610baf576040805162461bcd60e51b815260206004820152601460248201527364732d6d6174682d6164642d6f766572666c6f7760601b604482015290519081900360640190fd5b60405180604001604052806002906020820280368337509192915050565b6040518060c001604052806006906020820280368337509192915050565b6040518060800160405280600490602082028036833750919291505056fe456e756d657261626c655365743a20696e646578206f7574206f6620626f756e6473416363657373436f6e74726f6c3a2073656e646572206d75737420626520616e2061646d696e20746f206772616e7441636365737369626c653a2043616c6c6572206973206e6f7420616e2061646d696e5374616b65556e697377617056333a20636f696e616765732773207573657227732062616c616e63654f6620697320696e737566666963656e74416363657373436f6e74726f6c3a2073656e646572206d75737420626520616e2061646d696e20746f207265766f6b655374616b65556e6973776170563353746f726167653a207a65726f20616464726573735374616b65556e697377617056333a20706f6f6c277320746f6b656e732061726520646966666572656e745374616b65556e697377617056333a2043616c6c6572206973206e6f7420746f6b656e49642773206f776e65725374616b65556e697377617056333a206c6971756964697479206973207a65726f5374616b65556e697377617056333a2063616c6c6572206973206e6f7420746f6b656e49642773207374616b6572df8b4c520ffe197c5343c6f5aec59570151ef9a492f2c624fd45ddde6135ec425374616b65556e697377617056333a20706f6f6c41646472657373206973207a65726f416363657373436f6e74726f6c3a2063616e206f6e6c792072656e6f756e636520726f6c657320666f722073656c66a264697066735822122087568e3ea7aca4dbc658a0bb5b4c7879e7a4c9145a2d391405f680f0f3079fdd64736f6c63430007060033df8b4c520ffe197c5343c6f5aec59570151ef9a492f2c624fd45ddde6135ec42",
  "immutableReferences": {},
  "source": "// SPDX-License-Identifier: MIT\npragma solidity ^0.7.6;\n\nimport \"@uniswap/v3-core/contracts/interfaces/IUniswapV3Pool.sol\";\n\nimport \"@uniswap/v3-periphery/contracts/interfaces/INonfungiblePositionManager.sol\";\nimport \"@uniswap/v3-periphery/contracts/libraries/TransferHelper.sol\";\nimport \"@uniswap/v3-periphery/contracts/base/Multicall.sol\";\nimport \"@uniswap/v3-periphery/contracts/libraries/PoolAddress.sol\";\n\nimport \"@openzeppelin/contracts/token/ERC721/IERC721.sol\";\nimport \"../interfaces/IStakeRegistry.sol\";\nimport \"../interfaces/IStakeUniswapV3.sol\";\nimport \"../interfaces/AutoRefactorCoinageI.sol\";\nimport \"../interfaces/IIStake2Vault.sol\";\nimport \"../libraries/LibTokenStake1.sol\";\nimport {DSMath} from \"../libraries/DSMath.sol\";\nimport \"../common/AccessibleCommon.sol\";\nimport \"../stake/StakeUniswapV3Storage.sol\";\n\n/// @title Simple Stake Contract\n/// @notice Stake contracts can interact with the vault to claim tos tokens\ncontract StakeUniswapV3 is\n    StakeUniswapV3Storage,\n    AccessibleCommon,\n    IStakeUniswapV3,\n    DSMath\n{\n    modifier lock() {\n        require(_lock == 0, \"StakeUniswapV3: LOCKED\");\n        _lock = 1;\n        _;\n        _lock = 0;\n    }\n\n    /// @dev event on staking\n    /// @param to the sender\n    /// @param amount the amount of staking\n    event Staked(address indexed to, uint256 amount);\n\n    /// @dev event on claim\n    /// @param to the sender\n    /// @param amount the amount of claim\n    /// @param claimBlock the block of claim\n    event Claimed(address indexed to, uint256 amount, uint256 claimBlock);\n\n    /// @dev event on withdrawal\n    /// @param to the sender\n    /// @param tokenId the uniswapV3 Lp token\n    event WithdrawalToken(address indexed to, uint256 tokenId);\n\n    /// @dev constructor of StakeCoinage\n    constructor() {\n        _setRoleAdmin(ADMIN_ROLE, ADMIN_ROLE);\n        _setupRole(ADMIN_ROLE, msg.sender);\n    }\n\n    /// @dev receive ether - revert\n    receive() external payable {\n        revert();\n    }\n\n    function _calcNewFactor(\n        uint256 source,\n        uint256 target,\n        uint256 oldFactor\n    ) internal pure returns (uint256) {\n        return rdiv(rmul(target, oldFactor), source);\n    }\n\n    function mintRewardBlockCoinage() internal {\n        if (block.number > coinageMintBlock) {\n            uint256 rewardMintAmount =\n                block.number -\n                    (coinageMintBlock) *\n                    IIStake2Vault(vault).rewardPerBlock();\n\n            if (rewardMintAmount > 0) {\n                uint256 prevTotalSupply =\n                    AutoRefactorCoinageI(coinage).totalSupply();\n                uint256 afterTotalSupply = prevTotalSupply + rewardMintAmount;\n                AutoRefactorCoinageI(coinage).setFactor(\n                    _calcNewFactor(\n                        prevTotalSupply,\n                        afterTotalSupply,\n                        AutoRefactorCoinageI(coinage).factor()\n                    )\n                );\n                AutoRefactorCoinageI(coinage).mint(\n                    msg.sender,\n                    rewardMintAmount * (10**9)\n                );\n                coinageMintBlock = block.number;\n            }\n        }\n    }\n\n    function burnCoinage(address user, uint256 amount) internal {\n        require(amount > 0, \"StakeUniswapV3: amount is zero\");\n        uint256 _amount = amount * (10**9);\n        require(\n            _amount <= AutoRefactorCoinageI(coinage).balanceOf(user),\n            \"StakeUniswapV3: coinages's user's balanceOf is insufficent\"\n        );\n\n        uint256 prevTotalSupply = AutoRefactorCoinageI(coinage).totalSupply();\n        AutoRefactorCoinageI(coinage).burnFrom(user, _amount);\n\n        uint256 afterTotalSupply = AutoRefactorCoinageI(coinage).totalSupply();\n\n        AutoRefactorCoinageI(coinage).setFactor(\n            _calcNewFactor(\n                prevTotalSupply,\n                afterTotalSupply,\n                AutoRefactorCoinageI(coinage).factor()\n            )\n        );\n    }\n\n    //    ,  \n    function rewardAllocatedAmountCoinage(address user, uint256 amount)\n        internal\n        view\n        returns (uint256 balanceCoinageOfUser, uint256 remainReward)\n    {\n        LibUniswapV3Stake.StakedTotalTokenAmount storage _userStaked =\n            userTotalStaked[user];\n\n        require(amount <= _userStaked.totalDepositAmount);\n        balanceCoinageOfUser = 0;\n\n        uint256 balanceOfUserRay =\n            AutoRefactorCoinageI(coinage).balanceOf(user);\n        if (balanceOfUserRay > 0) {\n            balanceCoinageOfUser = balanceOfUserRay / (10**9);\n            if (balanceCoinageOfUser > _userStaked.totalDepositAmount) {\n                remainReward =\n                    (balanceCoinageOfUser - _userStaked.totalDepositAmount) *\n                    (amount / _userStaked.totalDepositAmount);\n            }\n        }\n    }\n\n    /*\n    //   \n    function setPool(\n        address token0,\n        address token1,\n        string calldata defiInfoName\n    )\n        external\n        override\n        onlyOwner\n        nonZeroAddress(stakeRegistry)\n        nonZeroAddress(token0)\n        nonZeroAddress(token1)\n    {\n        (   ,\n            ,\n            address _uniswapV3NonfungiblePositionManager,\n            address _uniswapV3FactoryAddress,\n            ,\n        ) =\n            IStakeRegistry(stakeRegistry).defiInfo(\n                keccak256(abi.encodePacked(defiInfoName))\n            );\n        require(\n            _uniswapV3NonfungiblePositionManager != address(0),\n            \"StakeUniswapV3Proxy: _uniswapV3NonfungiblePositionManager is zero\"\n        );\n        require(\n            _uniswapV3FactoryAddress != address(0),\n            \"StakeUniswapV3Proxy: _uniswapV3FactoryAddress is zero\"\n        );\n\n        nonfungiblePositionManager = INonfungiblePositionManager(\n            _uniswapV3NonfungiblePositionManager\n        );\n        uniswapV3FactoryAddress = _uniswapV3FactoryAddress;\n\n        poolToken0 = token0;\n        poolToken0 = token1;\n    }\n    */\n\n    function deleteUserToken(uint256 tokenId, uint256 _index) internal {\n        uint256 _tokenid = userStakedTokenIds[msg.sender][_index];\n        uint256 lastIndex = userStakedTokenIds[msg.sender].length - 1;\n        if (tokenId > 0 && _tokenid == tokenId) {\n            if (_index < lastIndex) {\n                userStakedTokenIds[msg.sender][_index] = userStakedTokenIds[\n                    msg.sender\n                ][lastIndex];\n            }\n            userStakedTokenIds[msg.sender].pop();\n        }\n    }\n\n    /// @dev Stake TokenId\n    /// @param tokenId  uniswapV3 LP token (ERC721)\n    function stake(\n        uint256 tokenId,\n        uint256 deadline,\n        uint8 v,\n        bytes32 r,\n        bytes32 s\n    )\n        external\n        override\n        nonZeroAddress(token)\n        nonZeroAddress(vault)\n        nonZeroAddress(stakeRegistry)\n        nonZeroAddress(poolToken0)\n        nonZeroAddress(poolToken1)\n        nonZeroAddress(address(nonfungiblePositionManager))\n        nonZeroAddress(uniswapV3FactoryAddress)\n    {\n        require(\n            nonfungiblePositionManager.ownerOf(tokenId) == msg.sender,\n            \"StakeUniswapV3: Caller is not tokenId's owner\"\n        );\n        uint256 _tokenId = tokenId;\n        uint256 _deadline = deadline;\n        uint8 _v = v;\n        bytes32 _r = r;\n        bytes32 _s = s;\n\n        //https://github.com/Uniswap/uniswap-v3-periphery/blob/main/contracts/interfaces/IERC721Permit.sol\n        nonfungiblePositionManager.permit(\n            address(this),\n            _tokenId,\n            _deadline,\n            _v,\n            _r,\n            _s\n        );\n\n        (\n            ,\n            ,\n            address token0,\n            address token1,\n            uint24 fee,\n            int24 tickLower,\n            int24 tickUpper,\n            uint128 liquidity,\n            ,\n            ,\n            ,\n\n        ) = nonfungiblePositionManager.positions(_tokenId);\n\n        require(\n            (token0 == poolToken0 && token1 == poolToken1) ||\n                (token0 == poolToken1 && token1 == poolToken0),\n            \"StakeUniswapV3: pool's tokens are different\"\n        );\n\n        require(liquidity > 0, \"StakeUniswapV3: liquidity is zero\");\n\n        address poolAddress =\n            PoolAddress.computeAddress(\n                uniswapV3FactoryAddress,\n                PoolAddress.PoolKey({token0: token0, token1: token1, fee: fee})\n            );\n        require(\n            poolAddress != address(0),\n            \"StakeUniswapV3: poolAddress is zero\"\n        );\n\n        (, uint160 secondsPerLiquidityInsideX128, ) =\n            IUniswapV3Pool(poolAddress).snapshotCumulativesInside(\n                tickLower,\n                tickUpper\n            );\n\n        uint256 tokenId_ = _tokenId;\n\n        nonfungiblePositionManager.transferFrom(\n            msg.sender,\n            address(this),\n            tokenId_\n        );\n\n        // save tokenid\n        userStakedTokenIds[msg.sender].push(tokenId_);\n\n        //depositTokens\n        LibUniswapV3Stake.StakeLiquidity storage _depositTokens =\n            depositTokens[tokenId_];\n        _depositTokens.owner = msg.sender;\n        _depositTokens.idIndex = userStakedTokenIds[msg.sender].length;\n        _depositTokens.poolAddress = poolAddress;\n        _depositTokens.liquidity = liquidity;\n        _depositTokens.tickLower = tickLower;\n        _depositTokens.tickUpper = tickUpper;\n        _depositTokens.startTime = block.timestamp;\n        _depositTokens.endTime = 0;\n        _depositTokens.claimedTime = 0;\n        _depositTokens\n            .secondsPerLiquidityInsideX128Initial = secondsPerLiquidityInsideX128;\n        _depositTokens.secondsPerLiquidityInsideX128Last = 0;\n\n        //stakedCoinageTokens\n        LibUniswapV3Stake.StakedTokenAmount storage _stakedCoinageTokens =\n            stakedCoinageTokens[tokenId_];\n        _stakedCoinageTokens.amount = liquidity;\n        _stakedCoinageTokens.startBlock = block.number;\n        _stakedCoinageTokens.claimedBlock = 0;\n        _stakedCoinageTokens.claimedAmount = 0;\n        _stakedCoinageTokens.rewardNonLiquidityClaimAmount = 0;\n\n        //StakedTotalTokenAmount\n        LibUniswapV3Stake.StakedTotalTokenAmount storage _userTotalStaked =\n            userTotalStaked[msg.sender];\n        if (!_userTotalStaked.staked) totalStakers++;\n        _userTotalStaked.staked = true;\n        _userTotalStaked.totalDepositAmount += liquidity;\n\n        totalStakedAmount += liquidity;\n        //mint coinage of user amount\n        AutoRefactorCoinageI(coinage).mint(msg.sender, liquidity * (10**9));\n\n        // coinage update reward\n        mintRewardBlockCoinage();\n\n        emit Staked(msg.sender, liquidity);\n    }\n\n    function getClaimLiquidity(uint256 tokenId)\n        public\n        view\n        override\n        returns (\n            uint256 realReward,\n            uint256 unableClaimReward,\n            uint160 secondsPerLiquidityInsideX128,\n            uint256 balanceCoinageOfUser,\n            uint256 _coinageReward\n        )\n    {\n        LibUniswapV3Stake.StakeLiquidity storage _depositTokens =\n            depositTokens[tokenId];\n        (, secondsPerLiquidityInsideX128, ) = IUniswapV3Pool(\n            _depositTokens\n                .poolAddress\n        )\n            .snapshotCumulativesInside(\n            _depositTokens.tickLower,\n            _depositTokens.tickUpper\n        );\n\n        uint160 secondsPerLiquidityInsideX128Last =\n            _depositTokens.secondsPerLiquidityInsideX128Initial;\n        uint256 claimedTime = _depositTokens.startTime;\n        if (_depositTokens.claimedTime > 0) {\n            secondsPerLiquidityInsideX128Last = _depositTokens\n                .secondsPerLiquidityInsideX128Last;\n            claimedTime = _depositTokens.claimedTime;\n        }\n\n        uint160 secondsPerLiquidity =\n            secondsPerLiquidityInsideX128 - secondsPerLiquidityInsideX128Last;\n        uint256 secondsAbsolute = block.timestamp - claimedTime;\n\n        (balanceCoinageOfUser, _coinageReward) = rewardAllocatedAmountCoinage(\n            msg.sender,\n            _depositTokens.liquidity\n        );\n        realReward = _coinageReward * (secondsPerLiquidity / secondsAbsolute);\n        unableClaimReward = _coinageReward - realReward;\n    }\n\n    /// @dev Claim for reward\n    function claim(uint256 tokenId) public override {\n        LibUniswapV3Stake.StakeLiquidity storage _depositTokens =\n            depositTokens[tokenId];\n\n        require(\n            _depositTokens.owner == msg.sender,\n            \"StakeUniswapV3: caller is not tokenId's staker\"\n        );\n        //      .\n        // coinage update reward\n        mintRewardBlockCoinage();\n\n        (\n            uint256 realReward,\n            uint256 unableClaimReward,\n            uint160 secondsPerLiquidityInsideX128,\n            ,\n            uint256 coinageReward\n        ) = getClaimLiquidity(tokenId);\n        require(realReward > 0, \"StakeUniswapV3: reward is zero\");\n\n        _depositTokens.claimedTime = block.timestamp;\n        _depositTokens\n            .secondsPerLiquidityInsideX128Last = secondsPerLiquidityInsideX128;\n\n        burnCoinage(msg.sender, coinageReward);\n\n        // storage  stakedCoinageTokens\n        LibUniswapV3Stake.StakedTokenAmount storage _stakedCoinageTokens =\n            stakedCoinageTokens[tokenId];\n        _stakedCoinageTokens.claimedBlock = block.number;\n        _stakedCoinageTokens.claimedAmount += realReward;\n        _stakedCoinageTokens.rewardNonLiquidityClaimAmount += unableClaimReward;\n\n        // storage  StakedTotalTokenAmount\n        LibUniswapV3Stake.StakedTotalTokenAmount storage _userTotalStaked =\n            userTotalStaked[msg.sender];\n        _userTotalStaked.totalClaimedAmount += realReward;\n        _userTotalStaked.totalUnableClaimAmount += unableClaimReward;\n\n        // total\n        rewardClaimedTotal += realReward;\n        rewardNonLiquidityClaimTotal += unableClaimReward;\n\n        //    .. \n\n        require(IIStake2Vault(vault).claim(msg.sender, realReward));\n        emit Claimed(msg.sender, realReward, block.number);\n    }\n\n    /// @dev withdraw\n    function withdraw(uint256 tokenId) external override {\n        LibUniswapV3Stake.StakeLiquidity storage _depositTokens =\n            depositTokens[tokenId];\n        require(\n            _depositTokens.owner == msg.sender,\n            \"StakeUniswapV3: caller is not tokenId's staker\"\n        );\n        // coinage update reward\n        mintRewardBlockCoinage();\n\n        totalStakedAmount -= _depositTokens.liquidity;\n        (uint256 realReward, , , , ) = getClaimLiquidity(tokenId);\n        if (realReward > 0) claim(tokenId);\n        burnCoinage(msg.sender, _depositTokens.liquidity);\n\n        /*\n        // storage  StakedTokenAmount\n        LibUniswapV3Stake.StakedTokenAmount storage _stakedCoinageToken = stakedCoinageTokens[tokenId];\n        _stakedCoinageToken.releasedBlock  = block.number;\n\n        // storage  StakedTotalTokenAmount\n        LibUniswapV3Stake.StakedTotalTokenAmount storage _userTotalStaked = userTotalStaked[msg.sender];\n        _userTotalStaked.totalDepositAmount -= _depositTokens.liquidity;\n        */\n        deleteUserToken(tokenId, _depositTokens.idIndex);\n        delete depositTokens[tokenId];\n        delete stakedCoinageTokens[tokenId];\n\n        LibUniswapV3Stake.StakedTotalTokenAmount storage _userTotalStaked =\n            userTotalStaked[msg.sender];\n        _userTotalStaked.totalDepositAmount -= _depositTokens.liquidity;\n        if (_userTotalStaked.totalDepositAmount == 0) {\n            //_userTotalStaked.staked = false;\n            totalStakers--;\n            delete userTotalStaked[msg.sender];\n        }\n\n        nonfungiblePositionManager.safeTransferFrom(\n            address(this),\n            msg.sender,\n            tokenId\n        );\n\n        emit WithdrawalToken(msg.sender, tokenId);\n    }\n\n    /// @dev\n    function getUserStakedTokenIds(address user)\n        external\n        view\n        override\n        returns (uint256[] memory ids)\n    {\n        return userStakedTokenIds[user];\n    }\n\n    /// @dev tokenId's deposited information\n    /// @param tokenId   tokenId\n    /// @return poolAddress   poolAddress\n    /// @return tick tick,\n    /// @return liquidity liquidity,\n    /// @return args liquidity,  startTime, endTime, claimedTime, startBlock, claimedBlock, claimedAmount\n    /// @return secondsPL secondsPerLiquidityInsideInitialX128, secondsPerLiquidityInsideX128Las\n    function getDepositToken(uint256 tokenId)\n        external\n        view\n        override\n        returns (\n            address poolAddress,\n            int24[2] memory tick,\n            uint128 liquidity,\n            uint256[6] memory args,\n            uint160[2] memory secondsPL\n        )\n    {\n        LibUniswapV3Stake.StakeLiquidity memory _depositTokens =\n            depositTokens[tokenId];\n        LibUniswapV3Stake.StakedTokenAmount memory _stakedCoinageTokens =\n            stakedCoinageTokens[tokenId];\n\n        return (\n            _depositTokens.poolAddress,\n            [_depositTokens.tickLower, _depositTokens.tickUpper],\n            _depositTokens.liquidity,\n            [\n                _depositTokens.startTime,\n                _depositTokens.endTime,\n                _depositTokens.claimedTime,\n                _stakedCoinageTokens.startBlock,\n                _stakedCoinageTokens.claimedBlock,\n                _stakedCoinageTokens.claimedAmount\n            ],\n            [\n                _depositTokens.secondsPerLiquidityInsideX128Initial,\n                _depositTokens.secondsPerLiquidityInsideX128Last\n            ]\n        );\n    }\n\n    function getUserStakedTotal(address user)\n        external\n        view\n        override\n        returns (\n            uint256 totalDepositAmount,\n            uint256 totalClaimedAmount,\n            uint256 totalUnableClaimAmount\n        )\n    {\n        return (\n            userTotalStaked[user].totalDepositAmount,\n            userTotalStaked[user].totalClaimedAmount,\n            userTotalStaked[user].totalUnableClaimAmount\n        );\n    }\n\n    /// @dev Give the infomation of this stakeContracts\n    /// @return return1  [token, vault, stakeRegistry, coinage]\n    /// @return return2  [poolToken0, poolToken1, nonfungiblePositionManager, uniswapV3FactoryAddress]\n    /// @return return3  [totalStakers, totalStakedAmount, rewardClaimedTotal,rewardNonLiquidityClaimTotal]\n    function infos()\n        external\n        view\n        override\n        returns (\n            address[4] memory,\n            address[4] memory,\n            uint256[4] memory\n        )\n    {\n        return (\n            [token, vault, stakeRegistry, coinage],\n            [\n                poolToken0,\n                poolToken1,\n                address(nonfungiblePositionManager),\n                uniswapV3FactoryAddress\n            ],\n            [\n                totalStakers,\n                totalStakedAmount,\n                rewardClaimedTotal,\n                rewardNonLiquidityClaimTotal\n            ]\n        );\n    }\n}\n",
  "sourcePath": "/Users/zena/ico2.0/ico20-contracts/contracts/stake/StakeUniswapV3.sol",
  "compiler": {
    "name": "solc",
    "version": "0.7.6+commit.7338295f.Emscripten.clang"
  },
  "schemaVersion": "3.3.4",
  "updatedAt": "2021-07-23T01:07:08.210Z",
  "devdoc": {
    "events": {
      "Claimed(address,uint256,uint256)": {
        "details": "event on claim",
        "params": {
          "amount": "the amount of claim",
          "claimBlock": "the block of claim",
          "to": "the sender"
        }
      },
      "Staked(address,uint256)": {
        "details": "event on staking",
        "params": {
          "amount": "the amount of staking",
          "to": "the sender"
        }
      },
      "WithdrawalToken(address,uint256)": {
        "details": "event on withdrawal",
        "params": {
          "to": "the sender",
          "tokenId": "the uniswapV3 Lp token"
        }
      }
    },
    "kind": "dev",
    "methods": {
      "addAdmin(address)": {
        "details": "add admin",
        "params": {
          "account": "address to add"
        }
      },
      "claim(uint256)": {
        "details": "Claim for reward"
      },
      "constructor": {
        "details": "constructor of StakeCoinage"
      },
      "getDepositToken(uint256)": {
        "details": "tokenId's deposited information",
        "params": {
          "tokenId": "tokenId"
        },
        "returns": {
          "args": "liquidity,  startTime, endTime, claimedTime, startBlock, claimedBlock, claimedAmount",
          "liquidity": "liquidity,",
          "poolAddress": "  poolAddress",
          "secondsPL": "secondsPerLiquidityInsideInitialX128, secondsPerLiquidityInsideX128Las",
          "tick": "tick,"
        }
      },
      "getRoleAdmin(bytes32)": {
        "details": "Returns the admin role that controls `role`. See {grantRole} and {revokeRole}. To change a role's admin, use {_setRoleAdmin}."
      },
      "getRoleMember(bytes32,uint256)": {
        "details": "Returns one of the accounts that have `role`. `index` must be a value between 0 and {getRoleMemberCount}, non-inclusive. Role bearers are not sorted in any particular way, and their ordering may change at any point. WARNING: When using {getRoleMember} and {getRoleMemberCount}, make sure you perform all queries on the same block. See the following https://forum.openzeppelin.com/t/iterating-over-elements-on-enumerableset-in-openzeppelin-contracts/2296[forum post] for more information."
      },
      "getRoleMemberCount(bytes32)": {
        "details": "Returns the number of accounts that have `role`. Can be used together with {getRoleMember} to enumerate all bearers of a role."
      },
      "grantRole(bytes32,address)": {
        "details": "Grants `role` to `account`. If `account` had not been already granted `role`, emits a {RoleGranted} event. Requirements: - the caller must have ``role``'s admin role."
      },
      "hasRole(bytes32,address)": {
        "details": "Returns `true` if `account` has been granted `role`."
      },
      "infos()": {
        "details": "Give the infomation of this stakeContracts",
        "returns": {
          "_0": "return1  [token, vault, stakeRegistry, coinage]",
          "_1": "return2  [poolToken0, poolToken1, nonfungiblePositionManager, uniswapV3FactoryAddress]",
          "_2": "return3  [totalStakers, totalStakedAmount, rewardClaimedTotal,rewardNonLiquidityClaimTotal]"
        }
      },
      "isAdmin(address)": {
        "details": "whether admin",
        "params": {
          "account": "address to check"
        }
      },
      "removeAdmin(address)": {
        "details": "remove admin",
        "params": {
          "account": "address to remove"
        }
      },
      "renounceRole(bytes32,address)": {
        "details": "Revokes `role` from the calling account. Roles are often managed via {grantRole} and {revokeRole}: this function's purpose is to provide a mechanism for accounts to lose their privileges if they are compromised (such as when a trusted device is misplaced). If the calling account had been granted `role`, emits a {RoleRevoked} event. Requirements: - the caller must be `account`."
      },
      "revokeRole(bytes32,address)": {
        "details": "Revokes `role` from `account`. If `account` had been granted `role`, emits a {RoleRevoked} event. Requirements: - the caller must have ``role``'s admin role."
      },
      "stake(uint256,uint256,uint8,bytes32,bytes32)": {
        "details": "Stake TokenId",
        "params": {
          "tokenId": "uniswapV3 LP token (ERC721)"
        }
      },
      "transferAdmin(address)": {
        "details": "transfer admin",
        "params": {
          "newAdmin": "new admin address"
        }
      },
      "withdraw(uint256)": {
        "details": "withdraw"
      }
    },
    "title": "Simple Stake Contract",
    "version": 1
  },
  "userdoc": {
    "kind": "user",
    "methods": {},
    "notice": "Stake contracts can interact with the vault to claim tos tokens",
    "version": 1
  }
}