{
  "contractName": "StakeForStableCoin",
  "abi": [
    {
      "inputs": [],
      "stateMutability": "nonpayable",
      "type": "constructor"
    },
    {
      "anonymous": false,
      "inputs": [
        {
          "indexed": true,
          "internalType": "address",
          "name": "from",
          "type": "address"
        },
        {
          "indexed": false,
          "internalType": "uint256",
          "name": "amount",
          "type": "uint256"
        },
        {
          "indexed": false,
          "internalType": "uint256",
          "name": "currentBlcok",
          "type": "uint256"
        }
      ],
      "name": "Claimed",
      "type": "event"
    },
    {
      "anonymous": false,
      "inputs": [
        {
          "indexed": true,
          "internalType": "bytes32",
          "name": "role",
          "type": "bytes32"
        },
        {
          "indexed": true,
          "internalType": "bytes32",
          "name": "previousAdminRole",
          "type": "bytes32"
        },
        {
          "indexed": true,
          "internalType": "bytes32",
          "name": "newAdminRole",
          "type": "bytes32"
        }
      ],
      "name": "RoleAdminChanged",
      "type": "event"
    },
    {
      "anonymous": false,
      "inputs": [
        {
          "indexed": true,
          "internalType": "bytes32",
          "name": "role",
          "type": "bytes32"
        },
        {
          "indexed": true,
          "internalType": "address",
          "name": "account",
          "type": "address"
        },
        {
          "indexed": true,
          "internalType": "address",
          "name": "sender",
          "type": "address"
        }
      ],
      "name": "RoleGranted",
      "type": "event"
    },
    {
      "anonymous": false,
      "inputs": [
        {
          "indexed": true,
          "internalType": "bytes32",
          "name": "role",
          "type": "bytes32"
        },
        {
          "indexed": true,
          "internalType": "address",
          "name": "account",
          "type": "address"
        },
        {
          "indexed": true,
          "internalType": "address",
          "name": "sender",
          "type": "address"
        }
      ],
      "name": "RoleRevoked",
      "type": "event"
    },
    {
      "anonymous": false,
      "inputs": [
        {
          "indexed": true,
          "internalType": "address",
          "name": "from",
          "type": "address"
        },
        {
          "indexed": true,
          "internalType": "address",
          "name": "to",
          "type": "address"
        },
        {
          "indexed": false,
          "internalType": "uint256",
          "name": "amount",
          "type": "uint256"
        },
        {
          "indexed": false,
          "internalType": "uint256",
          "name": "currentBlcok",
          "type": "uint256"
        }
      ],
      "name": "Withdrawal",
      "type": "event"
    },
    {
      "inputs": [],
      "name": "ADMIN_ROLE",
      "outputs": [
        {
          "internalType": "bytes32",
          "name": "",
          "type": "bytes32"
        }
      ],
      "stateMutability": "view",
      "type": "function"
    },
    {
      "inputs": [],
      "name": "DEFAULT_ADMIN_ROLE",
      "outputs": [
        {
          "internalType": "bytes32",
          "name": "",
          "type": "bytes32"
        }
      ],
      "stateMutability": "view",
      "type": "function"
    },
    {
      "inputs": [
        {
          "internalType": "uint256",
          "name": "amount",
          "type": "uint256"
        }
      ],
      "name": "approveYearnV2Vault",
      "outputs": [],
      "stateMutability": "nonpayable",
      "type": "function"
    },
    {
      "inputs": [],
      "name": "endBlock",
      "outputs": [
        {
          "internalType": "uint256",
          "name": "",
          "type": "uint256"
        }
      ],
      "stateMutability": "view",
      "type": "function"
    },
    {
      "inputs": [
        {
          "internalType": "bytes32",
          "name": "role",
          "type": "bytes32"
        }
      ],
      "name": "getRoleAdmin",
      "outputs": [
        {
          "internalType": "bytes32",
          "name": "",
          "type": "bytes32"
        }
      ],
      "stateMutability": "view",
      "type": "function"
    },
    {
      "inputs": [
        {
          "internalType": "bytes32",
          "name": "role",
          "type": "bytes32"
        },
        {
          "internalType": "uint256",
          "name": "index",
          "type": "uint256"
        }
      ],
      "name": "getRoleMember",
      "outputs": [
        {
          "internalType": "address",
          "name": "",
          "type": "address"
        }
      ],
      "stateMutability": "view",
      "type": "function"
    },
    {
      "inputs": [
        {
          "internalType": "bytes32",
          "name": "role",
          "type": "bytes32"
        }
      ],
      "name": "getRoleMemberCount",
      "outputs": [
        {
          "internalType": "uint256",
          "name": "",
          "type": "uint256"
        }
      ],
      "stateMutability": "view",
      "type": "function"
    },
    {
      "inputs": [
        {
          "internalType": "bytes32",
          "name": "role",
          "type": "bytes32"
        },
        {
          "internalType": "address",
          "name": "account",
          "type": "address"
        }
      ],
      "name": "grantRole",
      "outputs": [],
      "stateMutability": "nonpayable",
      "type": "function"
    },
    {
      "inputs": [
        {
          "internalType": "bytes32",
          "name": "role",
          "type": "bytes32"
        },
        {
          "internalType": "address",
          "name": "account",
          "type": "address"
        }
      ],
      "name": "hasRole",
      "outputs": [
        {
          "internalType": "bool",
          "name": "",
          "type": "bool"
        }
      ],
      "stateMutability": "view",
      "type": "function"
    },
    {
      "inputs": [],
      "name": "paytoken",
      "outputs": [
        {
          "internalType": "address",
          "name": "",
          "type": "address"
        }
      ],
      "stateMutability": "view",
      "type": "function"
    },
    {
      "inputs": [
        {
          "internalType": "bytes32",
          "name": "role",
          "type": "bytes32"
        },
        {
          "internalType": "address",
          "name": "account",
          "type": "address"
        }
      ],
      "name": "renounceRole",
      "outputs": [],
      "stateMutability": "nonpayable",
      "type": "function"
    },
    {
      "inputs": [
        {
          "internalType": "bytes32",
          "name": "role",
          "type": "bytes32"
        },
        {
          "internalType": "address",
          "name": "account",
          "type": "address"
        }
      ],
      "name": "revokeRole",
      "outputs": [],
      "stateMutability": "nonpayable",
      "type": "function"
    },
    {
      "inputs": [],
      "name": "rewardClaimedTotal",
      "outputs": [
        {
          "internalType": "uint256",
          "name": "",
          "type": "uint256"
        }
      ],
      "stateMutability": "view",
      "type": "function"
    },
    {
      "inputs": [],
      "name": "saleStartBlock",
      "outputs": [
        {
          "internalType": "uint256",
          "name": "",
          "type": "uint256"
        }
      ],
      "stateMutability": "view",
      "type": "function"
    },
    {
      "inputs": [
        {
          "internalType": "address",
          "name": "_vault",
          "type": "address"
        }
      ],
      "name": "setYearnV2",
      "outputs": [],
      "stateMutability": "nonpayable",
      "type": "function"
    },
    {
      "inputs": [],
      "name": "startBlock",
      "outputs": [
        {
          "internalType": "uint256",
          "name": "",
          "type": "uint256"
        }
      ],
      "stateMutability": "view",
      "type": "function"
    },
    {
      "inputs": [],
      "name": "token",
      "outputs": [
        {
          "internalType": "address",
          "name": "",
          "type": "address"
        }
      ],
      "stateMutability": "view",
      "type": "function"
    },
    {
      "inputs": [],
      "name": "totalStakedAmount",
      "outputs": [
        {
          "internalType": "uint256",
          "name": "",
          "type": "uint256"
        }
      ],
      "stateMutability": "view",
      "type": "function"
    },
    {
      "inputs": [
        {
          "internalType": "address",
          "name": "",
          "type": "address"
        }
      ],
      "name": "userStaked",
      "outputs": [
        {
          "internalType": "uint256",
          "name": "amount",
          "type": "uint256"
        },
        {
          "internalType": "uint256",
          "name": "claimedBlock",
          "type": "uint256"
        },
        {
          "internalType": "uint256",
          "name": "claimedAmount",
          "type": "uint256"
        },
        {
          "internalType": "uint256",
          "name": "releasedBlock",
          "type": "uint256"
        },
        {
          "internalType": "uint256",
          "name": "releasedAmount",
          "type": "uint256"
        },
        {
          "internalType": "bool",
          "name": "released",
          "type": "bool"
        }
      ],
      "stateMutability": "view",
      "type": "function"
    },
    {
      "inputs": [],
      "name": "vault",
      "outputs": [
        {
          "internalType": "address",
          "name": "",
          "type": "address"
        }
      ],
      "stateMutability": "view",
      "type": "function"
    },
    {
      "inputs": [],
      "name": "yearnV2Vault",
      "outputs": [
        {
          "internalType": "address",
          "name": "",
          "type": "address"
        }
      ],
      "stateMutability": "view",
      "type": "function"
    },
    {
      "inputs": [],
      "name": "yearnV2_calcTotalValue",
      "outputs": [
        {
          "internalType": "uint256",
          "name": "underlyingAmount",
          "type": "uint256"
        }
      ],
      "stateMutability": "nonpayable",
      "type": "function"
    },
    {
      "inputs": [],
      "name": "yearnV2_claim",
      "outputs": [],
      "stateMutability": "nonpayable",
      "type": "function"
    },
    {
      "inputs": [
        {
          "internalType": "uint256",
          "name": "amount",
          "type": "uint256"
        }
      ],
      "name": "yearnV2_deposit",
      "outputs": [],
      "stateMutability": "nonpayable",
      "type": "function"
    },
    {
      "inputs": [
        {
          "internalType": "address",
          "name": "user",
          "type": "address"
        }
      ],
      "name": "yearnV2_unclaimedProfit",
      "outputs": [
        {
          "internalType": "uint256",
          "name": "",
          "type": "uint256"
        }
      ],
      "stateMutability": "view",
      "type": "function"
    },
    {
      "inputs": [],
      "name": "yearnV2_underlyingYield",
      "outputs": [
        {
          "internalType": "uint256",
          "name": "",
          "type": "uint256"
        }
      ],
      "stateMutability": "nonpayable",
      "type": "function"
    },
    {
      "inputs": [
        {
          "internalType": "uint256",
          "name": "amount",
          "type": "uint256"
        }
      ],
      "name": "yearnV2_withdraw",
      "outputs": [],
      "stateMutability": "nonpayable",
      "type": "function"
    },
    {
      "stateMutability": "payable",
      "type": "receive"
    },
    {
      "inputs": [
        {
          "internalType": "address",
          "name": "_token",
          "type": "address"
        },
        {
          "internalType": "address",
          "name": "_paytoken",
          "type": "address"
        },
        {
          "internalType": "address",
          "name": "_vault",
          "type": "address"
        },
        {
          "internalType": "uint256",
          "name": "_saleStartBlock",
          "type": "uint256"
        },
        {
          "internalType": "uint256",
          "name": "_startBlock",
          "type": "uint256"
        },
        {
          "internalType": "uint256",
          "name": "_period",
          "type": "uint256"
        }
      ],
      "name": "initialize",
      "outputs": [],
      "stateMutability": "nonpayable",
      "type": "function"
    },
    {
      "inputs": [
        {
          "internalType": "uint256",
          "name": "_amount",
          "type": "uint256"
        }
      ],
      "name": "stake",
      "outputs": [],
      "stateMutability": "payable",
      "type": "function"
    },
    {
      "inputs": [],
      "name": "withdraw",
      "outputs": [],
      "stateMutability": "nonpayable",
      "type": "function"
    },
    {
      "inputs": [],
      "name": "claim",
      "outputs": [],
      "stateMutability": "nonpayable",
      "type": "function"
    },
    {
      "inputs": [
        {
          "internalType": "address",
          "name": "account",
          "type": "address"
        }
      ],
      "name": "canRewardAmount",
      "outputs": [
        {
          "internalType": "uint256",
          "name": "",
          "type": "uint256"
        }
      ],
      "stateMutability": "view",
      "type": "function"
    }
  ],
  "bytecode": "0x60806040523480156200001157600080fd5b506200002d6000805160206200246a833981519152806200004e565b620000486000805160206200246a83398151915233620000a0565b620001b6565b6000828152600b6020526040808220600201549051839285917fbd79b86ffe0ab8e8776151514217cd7cacd52c909f66475c3af44e129f0b00ff9190a46000918252600b602052604090912060020155565b620000ac8282620000b0565b5050565b6000828152600b60209081526040909120620000d791839062001d396200012b821b17901c565b15620000ac57620000e76200014b565b6001600160a01b0316816001600160a01b0316837f2f8788117e7eff1d82e926ec794901d17c78024a50270940304540a733656f0d60405160405180910390a45050565b600062000142836001600160a01b0384166200014f565b90505b92915050565b3390565b60006200015d83836200019e565b620001955750815460018181018455600084815260208082209093018490558454848252828601909352604090209190915562000145565b50600062000145565b60009081526001919091016020526040902054151590565b6122a480620001c66000396000f3fe6080604052600436106101e75760003560e01c806375b238fc11610102578063b2d4d6a311610095578063e6d3bc6e11610064578063e6d3bc6e14610662578063f17f32751461068c578063fbfa77cf146106b6578063fc0c546a146106cb576101ee565b8063b2d4d6a3146105d5578063c7f0b455146105ea578063ca15c873146105ff578063d547741f14610629576101ee565b8063a2095f29116100d1578063a2095f2914610526578063a217fddf1461053b578063a694fc3a14610550578063acc3a9391461056d576101ee565b806375b238fc1461046157806385fb34ce146104765780639010d07c146104a957806391d14854146104d9576101ee565b806343b0934a1161017a578063567e98f911610149578063567e98f91461039a5780635c826abb146103af578063610b0663146103d9578063728cdbca1461040c576101ee565b806343b0934a1461030c57806348cd4cb11461033d5780634e71d92d14610352578063501afa7514610367576101ee565b80632f2ff15d116101b65780632f2ff15d1461026e57806336568abe146102a95780633aadeaf8146102e25780633ccfd60b146102f7576101ee565b8063083c6323146101f3578063200272751461021a578063248a9ca31461022f5780632bf8290314610259576101ee565b366101ee57005b600080fd5b3480156101ff57600080fd5b506102086106e0565b60408051918252519081900360200190f35b34801561022657600080fd5b506102086106e6565b34801561023b57600080fd5b506102086004803603602081101561025257600080fd5b50356106ec565b34801561026557600080fd5b50610208610701565b34801561027a57600080fd5b506102a76004803603604081101561029157600080fd5b50803590602001356001600160a01b0316610824565b005b3480156102b557600080fd5b506102a7600480360360408110156102cc57600080fd5b50803590602001356001600160a01b0316610890565b3480156102ee57600080fd5b506102a76108f1565b34801561030357600080fd5b506102a76109fb565b34801561031857600080fd5b50610321610c70565b604080516001600160a01b039092168252519081900360200190f35b34801561034957600080fd5b50610208610c7f565b34801561035e57600080fd5b506102a7610c85565b34801561037357600080fd5b506102086004803603602081101561038a57600080fd5b50356001600160a01b0316610ff5565b3480156103a657600080fd5b50610208611116565b3480156103bb57600080fd5b506102a7600480360360208110156103d257600080fd5b503561111c565b3480156103e557600080fd5b50610208600480360360208110156103fc57600080fd5b50356001600160a01b0316611224565b34801561041857600080fd5b506102a7600480360360c081101561042f57600080fd5b506001600160a01b03813581169160208101358216916040820135169060608101359060808101359060a001356115b0565b34801561046d57600080fd5b506102086116ab565b34801561048257600080fd5b506102a76004803603602081101561049957600080fd5b50356001600160a01b03166116bd565b3480156104b557600080fd5b50610321600480360360408110156104cc57600080fd5b50803590602001356117d1565b3480156104e557600080fd5b50610512600480360360408110156104fc57600080fd5b50803590602001356001600160a01b03166117f0565b604080519115158252519081900360200190f35b34801561053257600080fd5b50610321611808565b34801561054757600080fd5b50610208611817565b6102a76004803603602081101561056657600080fd5b503561181c565b34801561057957600080fd5b506105a06004803603602081101561059057600080fd5b50356001600160a01b03166119b7565b6040805196875260208701959095528585019390935260608501919091526080840152151560a0830152519081900360c00190f35b3480156105e157600080fd5b506102086119ef565b3480156105f657600080fd5b506102086119f5565b34801561060b57600080fd5b506102086004803603602081101561062257600080fd5b5035611ae6565b34801561063557600080fd5b506102a76004803603604081101561064c57600080fd5b50803590602001356001600160a01b0316611afd565b34801561066e57600080fd5b506102a76004803603602081101561068557600080fd5b5035611b56565b34801561069857600080fd5b506102a7600480360360208110156106af57600080fd5b5035611c42565b3480156106c257600080fd5b50610321611d1b565b3480156106d757600080fd5b50610321611d2a565b60055481565b60035481565b6000908152600b602052604090206002015490565b600061071b60008051602061212d833981519152336117f0565b6107565760405162461bcd60e51b81526004018080602001828103825260258152602001806121f66025913960400191505060405180910390fd5b600a546001600160a01b0316806107a2576040805162461bcd60e51b815260206004820152601b60248201526000805160206120eb833981519152604482015290519081900360640190fd5b600a60009054906101000a90046001600160a01b03166001600160a01b0316633d8bb5176040518163ffffffff1660e01b8152600401602060405180830381600087803b1580156107f257600080fd5b505af1158015610806573d6000803e3d6000fd5b505050506040513d602081101561081c57600080fd5b505191505090565b6000828152600b602052604090206002015461084790610842611d4e565b6117f0565b6108825760405162461bcd60e51b815260040180806020018281038252602f815260200180612018602f913960400191505060405180910390fd5b61088c8282611d52565b5050565b610898611d4e565b6001600160a01b0316816001600160a01b0316146108e75760405162461bcd60e51b815260040180806020018281038252602f815260200180612240602f913960400191505060405180910390fd5b61088c8282611dbb565b61090960008051602061212d833981519152336117f0565b6109445760405162461bcd60e51b81526004018080602001828103825260258152602001806121f66025913960400191505060405180910390fd5b600a546001600160a01b031680610990576040805162461bcd60e51b815260206004820152601b60248201526000805160206120eb833981519152604482015290519081900360640190fd5b600a60009054906101000a90046001600160a01b03166001600160a01b0316634e71d92d6040518163ffffffff1660e01b8152600401600060405180830381600087803b1580156109e057600080fd5b505af11580156109f4573d6000803e3d6000fd5b5050505050565b6000600554118015610a0e575043600554105b610a495760405162461bcd60e51b815260040180806020018281038252602581526020018061221b6025913960400191505060405180910390fd5b33600090815260086020526040902080548015801590610a6e57508154600483015411155b610aa95760405162461bcd60e51b815260040180806020018281038252603181526020018061216f6031913960400191505060405180910390fd5b8154600483015543600383015560058201805460ff19166001908117909155546001600160a01b0316610b7357308031821115610ae557600080fd5b604051600090339084908381818185875af1925050503d8060008114610b27576040519150601f19603f3d011682016040523d82523d6000602084013e610b2c565b606091505b5050905080610b6c5760405162461bcd60e51b815260040180806020018281038252602d8152602001806121a0602d913960400191505060405180910390fd5b5050610c2e565b6001546040805163a9059cbb60e01b81523360048201526024810184905290516001600160a01b039092169163a9059cbb916044808201926020929091908290030181600087803b158015610bc757600080fd5b505af1158015610bdb573d6000803e3d6000fd5b505050506040513d6020811015610bf157600080fd5b5051610c2e5760405162461bcd60e51b815260040180806020018281038252602a8152602001806120c1602a913960400191505060405180910390fd5b604080518281524360208201528151339230927fc2b4a290c20fb28939d29f102514fbffd2b73c059ffba8b78250c94161d5fcc6929081900390910190a35050565b6001546001600160a01b031681565b60045481565b60095415610cda576040805162461bcd60e51b815260206004820152601a60248201527f5374616b65466f72537461626c65436f696e3a204c4f434b4544000000000000604482015290519081900360640190fd5b600160095560025460408051631718ecd760e31b815290516001600160a01b039092169163b8c766b891600480820192602092909190829003018186803b158015610d2457600080fd5b505afa158015610d38573d6000803e3d6000fd5b505050506040513d6020811015610d4e57600080fd5b50511515600114610d905760405162461bcd60e51b815260040180806020018281038252602281526020018061210b6022913960400191505060405180910390fd5b336000818152600860205260408120600554600182015443929111610dfc576040805162461bcd60e51b815260206004820152601b60248201527f5374616b65466f72537461626c65436f696e3a20636c61696d65640000000000604482015290519081900360640190fd5b610e0584611224565b925060008311610e465760405162461bcd60e51b815260040180806020018281038252602281526020018061214d6022913960400191505060405180910390fd5b6002546040805163032f7adb60e61b815230600482015290516000926001600160a01b03169163cbdeb6c0916024808301926020929190829003018186803b158015610e9157600080fd5b505afa158015610ea5573d6000803e3d6000fd5b505050506040513d6020811015610ebb57600080fd5b50516006549091508401811015610f035760405162461bcd60e51b81526004018080602001828103825260288152602001806120696028913960400191505060405180910390fd5b60018201839055600280830180548601905560068054860190555460408051635569f64b60e11b81526001600160a01b038881166004830152602482018890529151919092169163aad3ec969160448083019260209291908290030181600087803b158015610f7157600080fd5b505af1158015610f85573d6000803e3d6000fd5b505050506040513d6020811015610f9b57600080fd5b5051610fa657600080fd5b604080518581526020810185905281516001600160a01b038816927f987d620f307ff6b94d58743cb7a7509f24071586a77759b77c2d4e29f75a2f9a928290030190a250506000600955505050565b600061100f60008051602061212d833981519152336117f0565b61104a5760405162461bcd60e51b81526004018080602001828103825260258152602001806121f66025913960400191505060405180910390fd5b600a546001600160a01b031680611096576040805162461bcd60e51b815260206004820152601b60248201526000805160206120eb833981519152604482015290519081900360640190fd5b600a54604080516301678afb60e31b81526001600160a01b03868116600483015291519190921691630b3c57d8916024808301926020929190829003018186803b1580156110e357600080fd5b505afa1580156110f7573d6000803e3d6000fd5b505050506040513d602081101561110d57600080fd5b50519392505050565b60075481565b61113460008051602061212d833981519152336117f0565b61116f5760405162461bcd60e51b81526004018080602001828103825260258152602001806121f66025913960400191505060405180910390fd5b600a546001600160a01b0316806111bb576040805162461bcd60e51b815260206004820152601b60248201526000805160206120eb833981519152604482015290519081900360640190fd5b600a5460408051632e1a7d4d60e01b81526004810185905290516001600160a01b0390921691632e1a7d4d9160248082019260009290919082900301818387803b15801561120857600080fd5b505af115801561121c573d6000803e3d6000fd5b505050505050565b600454600090819043108061124f57506001600160a01b038316600090815260086020526040902054155b8061127657506005546001600160a01b038416600090815260086020526040902060010154115b8061129b57506001600160a01b03831660009081526008602052604090206001015443105b156112a8575060006115aa565b6004546005546001600160a01b0385166000908152600860205260409020600101548210156112f0576001600160a01b03851660009081526008602052604090206001015491505b804310156112fb5750435b6002546040805163c1b422fd60e01b815290516000926001600160a01b03169163c1b422fd9160048083019286929190829003018186803b15801561133f57600080fd5b505afa158015611353573d6000803e3d6000fd5b505050506040513d6000823e601f3d908101601f19168201604052602081101561137c57600080fd5b810190808051604051939291908464010000000082111561139c57600080fd5b9083019060208201858111156113b157600080fd5b82518660208202830111640100000000821117156113ce57600080fd5b82525081516020918201928201910280838360005b838110156113fb5781810151838201526020016113e3565b5050505090500160405250505090506000815111156115a6576000806000600260009054906101000a90046001600160a01b03166001600160a01b031663d105bf856040518163ffffffff1660e01b815260040160206040518083038186803b15801561146757600080fd5b505afa15801561147b573d6000803e3d6000fd5b505050506040513d602081101561149157600080fd5b5051905060005b84518110156115a1578481815181106114ad57fe5b60209081029190910181015160025460408051632f8deb1560e11b81526004810184905290519297506001600160a01b0390911692635f1bd62a92602480840193829003018186803b15801561150257600080fd5b505afa158015611516573d6000803e3d6000fd5b505050506040513d602081101561152c57600080fd5b50519250838611611569576001600160a01b038a1660009081526008602052604090205483908888038402028161155f57fe5b04880197506115a1565b6001600160a01b038a1660009081526008602052604090205483908886038402028161159157fe5b0488019750839650600101611498565b505050505b5050505b92915050565b6115c860008051602061212d833981519152336117f0565b6116035760405162461bcd60e51b81526004018080602001828103825260258152602001806121f66025913960400191505060405180910390fd5b6001600160a01b0386161580159061162357506001600160a01b03841615155b801561162f5750818311155b61163857600080fd5b600080546001600160a01b038089166001600160a01b031992831617909255600180548884169083161790556002805492871692909116919091179055826116835743600355611689565b60038390555b81611697574360045561169d565b60048290555b600454016005555050505050565b60008051602061212d83398151915281565b6116d560008051602061212d833981519152336117f0565b6117105760405162461bcd60e51b81526004018080602001828103825260258152602001806121f66025913960400191505060405180910390fd5b6003544310611766576040805162461bcd60e51b815260206004820152601e60248201527f546f6b616d616b5374616b65723a20416c726561647920737461727465640000604482015290519081900360640190fd5b6001600160a01b0381166117af576040805162461bcd60e51b815260206004820152601b60248201526000805160206120eb833981519152604482015290519081900360640190fd5b600a80546001600160a01b0319166001600160a01b0392909216919091179055565b6000828152600b602052604081206117e99083611e24565b9392505050565b6000828152600b602052604081206117e99083611e30565b600a546001600160a01b031681565b600081565b6001546001600160a01b03161580156118355750600034115b8061185557506001546001600160a01b0316158015906118555750600081115b6118905760405162461bcd60e51b81526004018080602001828103825260228152602001806120476022913960400191505060405180910390fd5b60035443101580156118a55750600454600354105b6118e05760405162461bcd60e51b81526004018080602001828103825260298152602001806121cd6029913960400191505060405180910390fd5b60015481906001600160a01b03166118f55750345b33600090815260086020526040902080548201815560078054830190556001546001600160a01b0316156119b257600154604080516323b872dd60e01b81523360048201523060248201526044810185905290516001600160a01b03909216916323b872dd916064808201926020929091908290030181600087803b15801561197d57600080fd5b505af1158015611991573d6000803e3d6000fd5b505050506040513d60208110156119a757600080fd5b50516119b257600080fd5b505050565b600860205260009081526040902080546001820154600283015460038401546004850154600590950154939492939192909160ff1686565b60065481565b6000611a0f60008051602061212d833981519152336117f0565b611a4a5760405162461bcd60e51b81526004018080602001828103825260258152602001806121f66025913960400191505060405180910390fd5b600a546001600160a01b031680611a96576040805162461bcd60e51b815260206004820152601b60248201526000805160206120eb833981519152604482015290519081900360640190fd5b600a60009054906101000a90046001600160a01b03166001600160a01b031663a00251c66040518163ffffffff1660e01b8152600401602060405180830381600087803b1580156107f257600080fd5b6000818152600b602052604081206115aa90611e45565b6000828152600b6020526040902060020154611b1b90610842611d4e565b6108e75760405162461bcd60e51b81526004018080602001828103825260308152602001806120916030913960400191505060405180910390fd5b611b6e60008051602061212d833981519152336117f0565b611ba95760405162461bcd60e51b81526004018080602001828103825260258152602001806121f66025913960400191505060405180910390fd5b600a546001600160a01b031680611bf5576040805162461bcd60e51b815260206004820152601b60248201526000805160206120eb833981519152604482015290519081900360640190fd5b600a546040805163b6b55f2560e01b81526004810185905290516001600160a01b039092169163b6b55f259160248082019260009290919082900301818387803b15801561120857600080fd5b600154600a546040805163095ea7b360e01b81526001600160a01b039283166004820152602481018590529051919092169163095ea7b39160448083019260209291908290030181600087803b158015611c9b57600080fd5b505af1158015611caf573d6000803e3d6000fd5b505050506040513d6020811015611cc557600080fd5b5051611d18576040805162461bcd60e51b815260206004820152601b60248201527f596561726e56325374616b65723a20617070726f7665206661696c0000000000604482015290519081900360640190fd5b50565b6002546001600160a01b031681565b6000546001600160a01b031681565b60006117e9836001600160a01b038416611e50565b3390565b6000828152600b60205260409020611d6a9082611d39565b1561088c57611d77611d4e565b6001600160a01b0316816001600160a01b0316837f2f8788117e7eff1d82e926ec794901d17c78024a50270940304540a733656f0d60405160405180910390a45050565b6000828152600b60205260409020611dd39082611e9a565b1561088c57611de0611d4e565b6001600160a01b0316816001600160a01b0316837ff6391f5c32d9c69d2a47ea670b442974b53935d1edc7fd64eb21e047a839171b60405160405180910390a45050565b60006117e98383611eaf565b60006117e9836001600160a01b038416611f13565b60006115aa82611f2b565b6000611e5c8383611f13565b611e92575081546001818101845560008481526020808220909301849055845484825282860190935260409020919091556115aa565b5060006115aa565b60006117e9836001600160a01b038416611f2f565b81546000908210611ef15760405162461bcd60e51b8152600401808060200182810382526022815260200180611ff66022913960400191505060405180910390fd5b826000018281548110611f0057fe5b9060005260206000200154905092915050565b60009081526001919091016020526040902054151590565b5490565b60008181526001830160205260408120548015611feb5783546000198083019190810190600090879083908110611f6257fe5b9060005260206000200154905080876000018481548110611f7f57fe5b600091825260208083209091019290925582815260018981019092526040902090840190558654879080611faf57fe5b600190038181906000526020600020016000905590558660010160008781526020019081526020016000206000905560019450505050506115aa565b60009150506115aa56fe456e756d657261626c655365743a20696e646578206f7574206f6620626f756e6473416363657373436f6e74726f6c3a2073656e646572206d75737420626520616e2061646d696e20746f206772616e745374616b65466f72537461626c65436f696e3a20616d6f756e74206973207a65726f5374616b65466f72537461626c65436f696e3a20746f74616c207265776172642065786365656473416363657373436f6e74726f6c3a2073656e646572206d75737420626520616e2061646d696e20746f207265766f6b655374616b65466f72537461626c65436f696e3a207769746864726177207472616e73666572206661696c596561726e56325374616b65723a207a65726f206164647265737300000000005374616b65466f72537461626c65436f696e3a20646973636c6f73652073616c652edf8b4c520ffe197c5343c6f5aec59570151ef9a492f2c624fd45ddde6135ec425374616b65466f72537461626c65436f696e3a20726577617264206973207a65726f5374616b65466f72537461626c65436f696e3a2072656c6561736564416d6f756e74203e207374616b6564416d6f756e745374616b65466f72537461626c65436f696e3a207769746864726177206574682073656e64206661696c65642e5374616b65466f72537461626c65436f696e3a20706572696f6420697320756e617661696c61626c65596561726e56325374616b65723a2043616c6c6572206973206e6f7420616e2061646d696e5374616b65466f72537461626c65436f696e3a206f6e207374616b696e6720706572696f64416363657373436f6e74726f6c3a2063616e206f6e6c792072656e6f756e636520726f6c657320666f722073656c66a2646970667358221220c4fb8d04637a44dca7eb3ed4d7b4941c96bc626d10b871c0978b77643997b40f64736f6c63430007060033df8b4c520ffe197c5343c6f5aec59570151ef9a492f2c624fd45ddde6135ec42",
  "immutableReferences": {},
  "source": "//SPDX-License-Identifier: Unlicense\npragma solidity ^0.7.0;\n\nimport {IStake1Vault} from \"../interfaces/IStake1Vault.sol\";\nimport {IERC20} from \"@openzeppelin/contracts/token/ERC20/IERC20.sol\";\nimport \"../libraries/LibTokenStake1.sol\";\nimport \"../connection/YearnV2Staker.sol\";\nimport {\n    ERC165Checker\n} from \"@openzeppelin/contracts/introspection/ERC165Checker.sol\";\nimport {SafeERC20} from \"@openzeppelin/contracts/token/ERC20/SafeERC20.sol\";\n\ncontract StakeForStableCoin is YearnV2Staker {\n    using SafeERC20 for IERC20;\n\n    modifier lock() {\n        require(_lock == 0, \"StakeForStableCoin: LOCKED\");\n        _lock = 1;\n        _;\n        _lock = 0;\n    }\n\n    event Claimed(address indexed from, uint256 amount, uint256 currentBlcok);\n    event Withdrawal(\n        address indexed from,\n        address indexed to,\n        uint256 amount,\n        uint256 currentBlcok\n    );\n\n    constructor() {\n        _setRoleAdmin(ADMIN_ROLE, ADMIN_ROLE);\n        _setupRole(ADMIN_ROLE, msg.sender);\n    }\n\n    /// @dev Initialize\n    function initialize(\n        address _token,\n        address _paytoken,\n        address _vault,\n        uint256 _saleStartBlock,\n        uint256 _startBlock,\n        uint256 _period\n    ) external onlyOwner {\n        require(\n            _token != address(0) &&\n                _vault != address(0) &&\n                _saleStartBlock <= _startBlock\n        );\n        token = _token;\n        paytoken = _paytoken;\n        vault = _vault;\n        if (_saleStartBlock == 0) saleStartBlock = block.number;\n        else saleStartBlock = _saleStartBlock;\n        if (_startBlock == 0) startBlock = block.number;\n        else startBlock = _startBlock;\n        endBlock = startBlock + _period;\n    }\n\n    receive() external payable {\n        // stake(msg.value);\n    }\n\n    /// @dev Stake amount\n    function stake(uint256 _amount) public payable {\n        require(\n            (paytoken == address(0) && msg.value > 0) ||\n                (paytoken != address(0) && _amount > 0),\n            \"StakeForStableCoin: amount is zero\"\n        );\n        require(\n            block.number >= saleStartBlock && saleStartBlock < startBlock,\n            \"StakeForStableCoin: period is unavailable\"\n        );\n\n        uint256 amount = _amount;\n        if (paytoken == address(0)) amount = msg.value;\n\n        LibTokenStake1.StakedAmount storage staked = userStaked[msg.sender];\n        staked.amount += amount;\n        totalStakedAmount += amount;\n        if (paytoken != address(0))\n            require(\n                IERC20(paytoken).transferFrom(msg.sender, address(this), amount)\n            );\n    }\n\n    /// @dev To withdraw\n    function withdraw() external {\n        require(\n            endBlock > 0 && endBlock < block.number,\n            \"StakeForStableCoin: on staking period\"\n        );\n        LibTokenStake1.StakedAmount storage staked = userStaked[msg.sender];\n\n        uint256 amount = staked.amount;\n\n        // TODO: restaking reward\n        require(\n            staked.amount > 0 && staked.releasedAmount <= staked.amount,\n            \"StakeForStableCoin: releasedAmount > stakedAmount\"\n        );\n\n        staked.releasedAmount = staked.amount;\n        staked.releasedBlock = block.number;\n        staked.released = true;\n\n        // check if we send in ethers or in tokens\n        if (paytoken == address(0)) {\n            address payable self = address(uint160(address(this)));\n            require(self.balance >= amount);\n            (bool success, ) = msg.sender.call{value: amount}(\"\");\n            require(success, \"StakeForStableCoin: withdraw eth send failed.\");\n        } else {\n            require(\n                IERC20(paytoken).transfer(msg.sender, amount),\n                \"StakeForStableCoin: withdraw transfer fail\"\n            );\n        }\n\n        emit Withdrawal(address(this), msg.sender, amount, block.number);\n    }\n\n    /// @dev Claim for reward\n    function claim() external lock {\n        require(\n            IStake1Vault(vault).saleClosed() == true,\n            \"StakeForStableCoin: disclose sale.\"\n        );\n        address account = msg.sender;\n        uint256 rewardClaim = 0;\n        uint256 currentBlock = block.number;\n\n        LibTokenStake1.StakedAmount storage staked = userStaked[account];\n        require(staked.claimedBlock < endBlock, \"StakeForStableCoin: claimed\");\n\n        rewardClaim = canRewardAmount(account);\n\n        require(rewardClaim > 0, \"StakeForStableCoin: reward is zero\");\n\n        uint256 rewardTotal =\n            IStake1Vault(vault).totalRewardAmount(address(this));\n        require(\n            (rewardClaimedTotal + rewardClaim) <= rewardTotal,\n            \"StakeForStableCoin: total reward exceeds\"\n        );\n\n        staked.claimedBlock = currentBlock;\n        staked.claimedAmount += rewardClaim;\n        rewardClaimedTotal += rewardClaim;\n\n        require(IStake1Vault(vault).claim(account, rewardClaim));\n\n        emit Claimed(account, rewardClaim, currentBlock);\n    }\n\n    /// @dev Returns the amount that can be rewarded\n    function canRewardAmount(address account) public view returns (uint256) {\n        uint256 reward = 0;\n        if (\n            block.number < startBlock ||\n            userStaked[account].amount == 0 ||\n            userStaked[account].claimedBlock > endBlock ||\n            userStaked[account].claimedBlock > block.number\n        ) {\n            reward = 0;\n        } else {\n            uint256 startR = startBlock;\n            uint256 endR = endBlock;\n            if (startR < userStaked[account].claimedBlock)\n                startR = userStaked[account].claimedBlock;\n            if (block.number < endR) endR = block.number;\n\n            uint256[] memory orderedEndBlocks =\n                IStake1Vault(vault).orderedEndBlocksAll();\n\n            if (orderedEndBlocks.length > 0) {\n                uint256 _end = 0;\n                uint256 _total = 0;\n                uint256 blockTotalReward = 0;\n                blockTotalReward = IStake1Vault(vault).blockTotalReward();\n\n                for (uint256 i = 0; i < orderedEndBlocks.length; i++) {\n                    _end = orderedEndBlocks[i];\n                    _total = IStake1Vault(vault).stakeEndBlockTotal(_end);\n\n                    if (endR <= _end) {\n                        reward +=\n                            (blockTotalReward *\n                                (endR - startR) *\n                                userStaked[account].amount) /\n                            _total;\n                        break;\n                    } else {\n                        reward +=\n                            (blockTotalReward *\n                                (_end - startR) *\n                                userStaked[account].amount) /\n                            _total;\n                        startR = _end;\n                    }\n                }\n            }\n        }\n        return reward;\n    }\n}\n",
  "sourcePath": "/Users/zena/ico2.0/ico20-contracts/contracts/stake/StakeForStableCoin.sol",
  "compiler": {
    "name": "solc",
    "version": "0.7.6+commit.7338295f.Emscripten.clang"
  },
  "schemaVersion": "3.3.4",
  "updatedAt": "2021-05-17T15:11:33.459Z",
  "devdoc": {
    "kind": "dev",
    "methods": {
      "canRewardAmount(address)": {
        "details": "Returns the amount that can be rewarded"
      },
      "claim()": {
        "details": "Claim for reward"
      },
      "getRoleAdmin(bytes32)": {
        "details": "Returns the admin role that controls `role`. See {grantRole} and {revokeRole}. To change a role's admin, use {_setRoleAdmin}."
      },
      "getRoleMember(bytes32,uint256)": {
        "details": "Returns one of the accounts that have `role`. `index` must be a value between 0 and {getRoleMemberCount}, non-inclusive. Role bearers are not sorted in any particular way, and their ordering may change at any point. WARNING: When using {getRoleMember} and {getRoleMemberCount}, make sure you perform all queries on the same block. See the following https://forum.openzeppelin.com/t/iterating-over-elements-on-enumerableset-in-openzeppelin-contracts/2296[forum post] for more information."
      },
      "getRoleMemberCount(bytes32)": {
        "details": "Returns the number of accounts that have `role`. Can be used together with {getRoleMember} to enumerate all bearers of a role."
      },
      "grantRole(bytes32,address)": {
        "details": "Grants `role` to `account`. If `account` had not been already granted `role`, emits a {RoleGranted} event. Requirements: - the caller must have ``role``'s admin role."
      },
      "hasRole(bytes32,address)": {
        "details": "Returns `true` if `account` has been granted `role`."
      },
      "initialize(address,address,address,uint256,uint256,uint256)": {
        "details": "Initialize"
      },
      "renounceRole(bytes32,address)": {
        "details": "Revokes `role` from the calling account. Roles are often managed via {grantRole} and {revokeRole}: this function's purpose is to provide a mechanism for accounts to lose their privileges if they are compromised (such as when a trusted device is misplaced). If the calling account had been granted `role`, emits a {RoleRevoked} event. Requirements: - the caller must be `account`."
      },
      "revokeRole(bytes32,address)": {
        "details": "Revokes `role` from `account`. If `account` had been granted `role`, emits a {RoleRevoked} event. Requirements: - the caller must have ``role``'s admin role."
      },
      "stake(uint256)": {
        "details": "Stake amount"
      },
      "withdraw()": {
        "details": "To withdraw"
      }
    },
    "version": 1
  },
  "userdoc": {
    "kind": "user",
    "methods": {},
    "version": 1
  }
}