{
  "contractName": "StakeUniswapV3",
  "abi": [
    {
      "inputs": [],
      "stateMutability": "nonpayable",
      "type": "constructor"
    },
    {
      "anonymous": false,
      "inputs": [
        {
          "indexed": false,
          "internalType": "uint256",
          "name": "curTime",
          "type": "uint256"
        },
        {
          "indexed": false,
          "internalType": "uint256",
          "name": "tokenId",
          "type": "uint256"
        },
        {
          "indexed": false,
          "internalType": "uint256",
          "name": "burningAmount",
          "type": "uint256"
        },
        {
          "indexed": false,
          "internalType": "uint256",
          "name": "prevTotalSupply",
          "type": "uint256"
        },
        {
          "indexed": false,
          "internalType": "uint256",
          "name": "afterTotalSupply",
          "type": "uint256"
        }
      ],
      "name": "BurnedCoinage",
      "type": "event"
    },
    {
      "anonymous": false,
      "inputs": [
        {
          "indexed": true,
          "internalType": "address",
          "name": "to",
          "type": "address"
        },
        {
          "indexed": false,
          "internalType": "address",
          "name": "poolAddress",
          "type": "address"
        },
        {
          "indexed": false,
          "internalType": "uint256",
          "name": "tokenId",
          "type": "uint256"
        },
        {
          "indexed": false,
          "internalType": "uint256",
          "name": "miningAmount",
          "type": "uint256"
        },
        {
          "indexed": false,
          "internalType": "uint256",
          "name": "nonMiningAmount",
          "type": "uint256"
        }
      ],
      "name": "Claimed",
      "type": "event"
    },
    {
      "anonymous": false,
      "inputs": [
        {
          "indexed": false,
          "internalType": "uint256",
          "name": "curTime",
          "type": "uint256"
        },
        {
          "indexed": false,
          "internalType": "uint256",
          "name": "miningInterval",
          "type": "uint256"
        },
        {
          "indexed": false,
          "internalType": "uint256",
          "name": "miningAmount",
          "type": "uint256"
        },
        {
          "indexed": false,
          "internalType": "uint256",
          "name": "prevTotalSupply",
          "type": "uint256"
        },
        {
          "indexed": false,
          "internalType": "uint256",
          "name": "afterTotalSupply",
          "type": "uint256"
        },
        {
          "indexed": false,
          "internalType": "uint256",
          "name": "factor",
          "type": "uint256"
        }
      ],
      "name": "MinedCoinage",
      "type": "event"
    },
    {
      "anonymous": false,
      "inputs": [
        {
          "indexed": true,
          "internalType": "bytes32",
          "name": "role",
          "type": "bytes32"
        },
        {
          "indexed": true,
          "internalType": "bytes32",
          "name": "previousAdminRole",
          "type": "bytes32"
        },
        {
          "indexed": true,
          "internalType": "bytes32",
          "name": "newAdminRole",
          "type": "bytes32"
        }
      ],
      "name": "RoleAdminChanged",
      "type": "event"
    },
    {
      "anonymous": false,
      "inputs": [
        {
          "indexed": true,
          "internalType": "bytes32",
          "name": "role",
          "type": "bytes32"
        },
        {
          "indexed": true,
          "internalType": "address",
          "name": "account",
          "type": "address"
        },
        {
          "indexed": true,
          "internalType": "address",
          "name": "sender",
          "type": "address"
        }
      ],
      "name": "RoleGranted",
      "type": "event"
    },
    {
      "anonymous": false,
      "inputs": [
        {
          "indexed": true,
          "internalType": "bytes32",
          "name": "role",
          "type": "bytes32"
        },
        {
          "indexed": true,
          "internalType": "address",
          "name": "account",
          "type": "address"
        },
        {
          "indexed": true,
          "internalType": "address",
          "name": "sender",
          "type": "address"
        }
      ],
      "name": "RoleRevoked",
      "type": "event"
    },
    {
      "anonymous": false,
      "inputs": [
        {
          "indexed": true,
          "internalType": "address",
          "name": "to",
          "type": "address"
        },
        {
          "indexed": true,
          "internalType": "address",
          "name": "poolAddress",
          "type": "address"
        },
        {
          "indexed": false,
          "internalType": "uint256",
          "name": "tokenId",
          "type": "uint256"
        },
        {
          "indexed": false,
          "internalType": "uint256",
          "name": "amount",
          "type": "uint256"
        }
      ],
      "name": "Staked",
      "type": "event"
    },
    {
      "anonymous": false,
      "inputs": [
        {
          "indexed": true,
          "internalType": "address",
          "name": "to",
          "type": "address"
        },
        {
          "indexed": false,
          "internalType": "uint256",
          "name": "tokenId",
          "type": "uint256"
        },
        {
          "indexed": false,
          "internalType": "uint256",
          "name": "miningAmount",
          "type": "uint256"
        },
        {
          "indexed": false,
          "internalType": "uint256",
          "name": "nonMiningAmount",
          "type": "uint256"
        }
      ],
      "name": "WithdrawalToken",
      "type": "event"
    },
    {
      "inputs": [],
      "name": "ADMIN_ROLE",
      "outputs": [
        {
          "internalType": "bytes32",
          "name": "",
          "type": "bytes32"
        }
      ],
      "stateMutability": "view",
      "type": "function"
    },
    {
      "inputs": [],
      "name": "BURNER_ROLE",
      "outputs": [
        {
          "internalType": "bytes32",
          "name": "",
          "type": "bytes32"
        }
      ],
      "stateMutability": "view",
      "type": "function"
    },
    {
      "inputs": [],
      "name": "DEFAULT_ADMIN_ROLE",
      "outputs": [
        {
          "internalType": "bytes32",
          "name": "",
          "type": "bytes32"
        }
      ],
      "stateMutability": "view",
      "type": "function"
    },
    {
      "inputs": [],
      "name": "MINTER_ROLE",
      "outputs": [
        {
          "internalType": "bytes32",
          "name": "",
          "type": "bytes32"
        }
      ],
      "stateMutability": "view",
      "type": "function"
    },
    {
      "inputs": [
        {
          "internalType": "address",
          "name": "account",
          "type": "address"
        }
      ],
      "name": "addAdmin",
      "outputs": [],
      "stateMutability": "nonpayable",
      "type": "function"
    },
    {
      "inputs": [],
      "name": "coinage",
      "outputs": [
        {
          "internalType": "address",
          "name": "",
          "type": "address"
        }
      ],
      "stateMutability": "view",
      "type": "function"
    },
    {
      "inputs": [],
      "name": "coinageLastMintBlockTimetamp",
      "outputs": [
        {
          "internalType": "uint256",
          "name": "",
          "type": "uint256"
        }
      ],
      "stateMutability": "view",
      "type": "function"
    },
    {
      "inputs": [
        {
          "internalType": "uint256",
          "name": "",
          "type": "uint256"
        }
      ],
      "name": "depositTokens",
      "outputs": [
        {
          "internalType": "address",
          "name": "owner",
          "type": "address"
        },
        {
          "internalType": "uint256",
          "name": "idIndex",
          "type": "uint256"
        },
        {
          "internalType": "uint128",
          "name": "liquidity",
          "type": "uint128"
        },
        {
          "internalType": "int24",
          "name": "tickLower",
          "type": "int24"
        },
        {
          "internalType": "int24",
          "name": "tickUpper",
          "type": "int24"
        },
        {
          "internalType": "uint32",
          "name": "startTime",
          "type": "uint32"
        },
        {
          "internalType": "uint32",
          "name": "claimedTime",
          "type": "uint32"
        },
        {
          "internalType": "uint160",
          "name": "secondsInsideInitial",
          "type": "uint160"
        },
        {
          "internalType": "uint160",
          "name": "secondsInsideLast",
          "type": "uint160"
        }
      ],
      "stateMutability": "view",
      "type": "function"
    },
    {
      "inputs": [
        {
          "internalType": "bytes32",
          "name": "role",
          "type": "bytes32"
        }
      ],
      "name": "getRoleAdmin",
      "outputs": [
        {
          "internalType": "bytes32",
          "name": "",
          "type": "bytes32"
        }
      ],
      "stateMutability": "view",
      "type": "function"
    },
    {
      "inputs": [
        {
          "internalType": "bytes32",
          "name": "role",
          "type": "bytes32"
        },
        {
          "internalType": "uint256",
          "name": "index",
          "type": "uint256"
        }
      ],
      "name": "getRoleMember",
      "outputs": [
        {
          "internalType": "address",
          "name": "",
          "type": "address"
        }
      ],
      "stateMutability": "view",
      "type": "function"
    },
    {
      "inputs": [
        {
          "internalType": "bytes32",
          "name": "role",
          "type": "bytes32"
        }
      ],
      "name": "getRoleMemberCount",
      "outputs": [
        {
          "internalType": "uint256",
          "name": "",
          "type": "uint256"
        }
      ],
      "stateMutability": "view",
      "type": "function"
    },
    {
      "inputs": [
        {
          "internalType": "bytes32",
          "name": "role",
          "type": "bytes32"
        },
        {
          "internalType": "address",
          "name": "account",
          "type": "address"
        }
      ],
      "name": "grantRole",
      "outputs": [],
      "stateMutability": "nonpayable",
      "type": "function"
    },
    {
      "inputs": [
        {
          "internalType": "bytes32",
          "name": "role",
          "type": "bytes32"
        },
        {
          "internalType": "address",
          "name": "account",
          "type": "address"
        }
      ],
      "name": "hasRole",
      "outputs": [
        {
          "internalType": "bool",
          "name": "",
          "type": "bool"
        }
      ],
      "stateMutability": "view",
      "type": "function"
    },
    {
      "inputs": [
        {
          "internalType": "address",
          "name": "account",
          "type": "address"
        }
      ],
      "name": "isAdmin",
      "outputs": [
        {
          "internalType": "bool",
          "name": "",
          "type": "bool"
        }
      ],
      "stateMutability": "view",
      "type": "function"
    },
    {
      "inputs": [],
      "name": "migratedL2",
      "outputs": [
        {
          "internalType": "bool",
          "name": "",
          "type": "bool"
        }
      ],
      "stateMutability": "view",
      "type": "function"
    },
    {
      "inputs": [],
      "name": "miningAmountTotal",
      "outputs": [
        {
          "internalType": "uint256",
          "name": "",
          "type": "uint256"
        }
      ],
      "stateMutability": "view",
      "type": "function"
    },
    {
      "inputs": [],
      "name": "miningIntervalSeconds",
      "outputs": [
        {
          "internalType": "uint256",
          "name": "",
          "type": "uint256"
        }
      ],
      "stateMutability": "view",
      "type": "function"
    },
    {
      "inputs": [],
      "name": "nonMiningAmountTotal",
      "outputs": [
        {
          "internalType": "uint256",
          "name": "",
          "type": "uint256"
        }
      ],
      "stateMutability": "view",
      "type": "function"
    },
    {
      "inputs": [],
      "name": "nonfungiblePositionManager",
      "outputs": [
        {
          "internalType": "contract INonfungiblePositionManager",
          "name": "",
          "type": "address"
        }
      ],
      "stateMutability": "view",
      "type": "function"
    },
    {
      "inputs": [],
      "name": "pauseProxy",
      "outputs": [
        {
          "internalType": "bool",
          "name": "",
          "type": "bool"
        }
      ],
      "stateMutability": "view",
      "type": "function"
    },
    {
      "inputs": [],
      "name": "poolAddress",
      "outputs": [
        {
          "internalType": "address",
          "name": "",
          "type": "address"
        }
      ],
      "stateMutability": "view",
      "type": "function"
    },
    {
      "inputs": [],
      "name": "poolFee",
      "outputs": [
        {
          "internalType": "uint256",
          "name": "",
          "type": "uint256"
        }
      ],
      "stateMutability": "view",
      "type": "function"
    },
    {
      "inputs": [],
      "name": "poolToken0",
      "outputs": [
        {
          "internalType": "address",
          "name": "",
          "type": "address"
        }
      ],
      "stateMutability": "view",
      "type": "function"
    },
    {
      "inputs": [],
      "name": "poolToken1",
      "outputs": [
        {
          "internalType": "address",
          "name": "",
          "type": "address"
        }
      ],
      "stateMutability": "view",
      "type": "function"
    },
    {
      "inputs": [
        {
          "internalType": "address",
          "name": "account",
          "type": "address"
        }
      ],
      "name": "removeAdmin",
      "outputs": [],
      "stateMutability": "nonpayable",
      "type": "function"
    },
    {
      "inputs": [
        {
          "internalType": "bytes32",
          "name": "role",
          "type": "bytes32"
        },
        {
          "internalType": "address",
          "name": "account",
          "type": "address"
        }
      ],
      "name": "renounceRole",
      "outputs": [],
      "stateMutability": "nonpayable",
      "type": "function"
    },
    {
      "inputs": [
        {
          "internalType": "bytes32",
          "name": "role",
          "type": "bytes32"
        },
        {
          "internalType": "address",
          "name": "account",
          "type": "address"
        }
      ],
      "name": "revokeRole",
      "outputs": [],
      "stateMutability": "nonpayable",
      "type": "function"
    },
    {
      "inputs": [],
      "name": "saleStartTime",
      "outputs": [
        {
          "internalType": "uint256",
          "name": "",
          "type": "uint256"
        }
      ],
      "stateMutability": "view",
      "type": "function"
    },
    {
      "inputs": [],
      "name": "stakeRegistry",
      "outputs": [
        {
          "internalType": "address",
          "name": "",
          "type": "address"
        }
      ],
      "stateMutability": "view",
      "type": "function"
    },
    {
      "inputs": [],
      "name": "stakeStartTime",
      "outputs": [
        {
          "internalType": "uint256",
          "name": "",
          "type": "uint256"
        }
      ],
      "stateMutability": "view",
      "type": "function"
    },
    {
      "inputs": [
        {
          "internalType": "uint256",
          "name": "",
          "type": "uint256"
        }
      ],
      "name": "stakedCoinageTokens",
      "outputs": [
        {
          "internalType": "uint256",
          "name": "amount",
          "type": "uint256"
        },
        {
          "internalType": "uint32",
          "name": "startTime",
          "type": "uint32"
        },
        {
          "internalType": "uint32",
          "name": "claimedTime",
          "type": "uint32"
        },
        {
          "internalType": "uint256",
          "name": "claimedAmount",
          "type": "uint256"
        },
        {
          "internalType": "uint256",
          "name": "nonMiningAmount",
          "type": "uint256"
        }
      ],
      "stateMutability": "view",
      "type": "function"
    },
    {
      "inputs": [],
      "name": "token",
      "outputs": [
        {
          "internalType": "address",
          "name": "",
          "type": "address"
        }
      ],
      "stateMutability": "view",
      "type": "function"
    },
    {
      "inputs": [],
      "name": "totalStakedAmount",
      "outputs": [
        {
          "internalType": "uint256",
          "name": "",
          "type": "uint256"
        }
      ],
      "stateMutability": "view",
      "type": "function"
    },
    {
      "inputs": [],
      "name": "totalStakers",
      "outputs": [
        {
          "internalType": "uint256",
          "name": "",
          "type": "uint256"
        }
      ],
      "stateMutability": "view",
      "type": "function"
    },
    {
      "inputs": [],
      "name": "totalTokens",
      "outputs": [
        {
          "internalType": "uint256",
          "name": "",
          "type": "uint256"
        }
      ],
      "stateMutability": "view",
      "type": "function"
    },
    {
      "inputs": [
        {
          "internalType": "address",
          "name": "newAdmin",
          "type": "address"
        }
      ],
      "name": "transferAdmin",
      "outputs": [],
      "stateMutability": "nonpayable",
      "type": "function"
    },
    {
      "inputs": [],
      "name": "uniswapV3FactoryAddress",
      "outputs": [
        {
          "internalType": "address",
          "name": "",
          "type": "address"
        }
      ],
      "stateMutability": "view",
      "type": "function"
    },
    {
      "inputs": [
        {
          "internalType": "address",
          "name": "",
          "type": "address"
        },
        {
          "internalType": "uint256",
          "name": "",
          "type": "uint256"
        }
      ],
      "name": "userStakedTokenIds",
      "outputs": [
        {
          "internalType": "uint256",
          "name": "",
          "type": "uint256"
        }
      ],
      "stateMutability": "view",
      "type": "function"
    },
    {
      "inputs": [
        {
          "internalType": "address",
          "name": "",
          "type": "address"
        }
      ],
      "name": "userTotalStaked",
      "outputs": [
        {
          "internalType": "bool",
          "name": "staked",
          "type": "bool"
        },
        {
          "internalType": "uint256",
          "name": "totalDepositAmount",
          "type": "uint256"
        },
        {
          "internalType": "uint256",
          "name": "totalMiningAmount",
          "type": "uint256"
        },
        {
          "internalType": "uint256",
          "name": "totalNonMiningAmount",
          "type": "uint256"
        }
      ],
      "stateMutability": "view",
      "type": "function"
    },
    {
      "inputs": [],
      "name": "vault",
      "outputs": [
        {
          "internalType": "address",
          "name": "",
          "type": "address"
        }
      ],
      "stateMutability": "view",
      "type": "function"
    },
    {
      "stateMutability": "payable",
      "type": "receive"
    },
    {
      "inputs": [
        {
          "internalType": "uint256",
          "name": "_intervalSeconds",
          "type": "uint256"
        }
      ],
      "name": "setMiningIntervalSeconds",
      "outputs": [],
      "stateMutability": "nonpayable",
      "type": "function"
    },
    {
      "inputs": [],
      "name": "resetCoinageTime",
      "outputs": [],
      "stateMutability": "nonpayable",
      "type": "function"
    },
    {
      "inputs": [
        {
          "internalType": "uint256",
          "name": "_saleStartTime",
          "type": "uint256"
        }
      ],
      "name": "setSaleStartTime",
      "outputs": [],
      "stateMutability": "nonpayable",
      "type": "function"
    },
    {
      "inputs": [],
      "name": "miningCoinage",
      "outputs": [],
      "stateMutability": "nonpayable",
      "type": "function"
    },
    {
      "inputs": [
        {
          "internalType": "uint256",
          "name": "tokenId",
          "type": "uint256"
        }
      ],
      "name": "getMiningTokenId",
      "outputs": [
        {
          "internalType": "uint256",
          "name": "miningAmount",
          "type": "uint256"
        },
        {
          "internalType": "uint256",
          "name": "nonMiningAmount",
          "type": "uint256"
        },
        {
          "internalType": "uint256",
          "name": "minableAmount",
          "type": "uint256"
        },
        {
          "internalType": "uint160",
          "name": "secondsInside",
          "type": "uint160"
        },
        {
          "internalType": "uint256",
          "name": "secondsInsideDiff256",
          "type": "uint256"
        },
        {
          "internalType": "uint256",
          "name": "liquidity",
          "type": "uint256"
        },
        {
          "internalType": "uint256",
          "name": "balanceOfTokenIdRay",
          "type": "uint256"
        },
        {
          "internalType": "uint256",
          "name": "minableAmountRay",
          "type": "uint256"
        },
        {
          "internalType": "uint256",
          "name": "secondsInside256",
          "type": "uint256"
        },
        {
          "internalType": "uint256",
          "name": "secondsAbsolute256",
          "type": "uint256"
        }
      ],
      "stateMutability": "view",
      "type": "function"
    },
    {
      "inputs": [
        {
          "internalType": "uint256",
          "name": "tokenId",
          "type": "uint256"
        }
      ],
      "name": "setPoolAddress",
      "outputs": [],
      "stateMutability": "nonpayable",
      "type": "function"
    },
    {
      "inputs": [
        {
          "internalType": "uint256",
          "name": "tokenId",
          "type": "uint256"
        },
        {
          "internalType": "uint256",
          "name": "deadline",
          "type": "uint256"
        },
        {
          "internalType": "uint8",
          "name": "v",
          "type": "uint8"
        },
        {
          "internalType": "bytes32",
          "name": "r",
          "type": "bytes32"
        },
        {
          "internalType": "bytes32",
          "name": "s",
          "type": "bytes32"
        }
      ],
      "name": "stakePermit",
      "outputs": [],
      "stateMutability": "nonpayable",
      "type": "function"
    },
    {
      "inputs": [
        {
          "internalType": "uint256",
          "name": "tokenId",
          "type": "uint256"
        }
      ],
      "name": "stake",
      "outputs": [],
      "stateMutability": "nonpayable",
      "type": "function"
    },
    {
      "inputs": [
        {
          "internalType": "uint256",
          "name": "tokenId",
          "type": "uint256"
        }
      ],
      "name": "claim",
      "outputs": [],
      "stateMutability": "nonpayable",
      "type": "function"
    },
    {
      "inputs": [
        {
          "internalType": "uint256",
          "name": "tokenId",
          "type": "uint256"
        }
      ],
      "name": "withdraw",
      "outputs": [],
      "stateMutability": "nonpayable",
      "type": "function"
    },
    {
      "inputs": [
        {
          "internalType": "address",
          "name": "user",
          "type": "address"
        }
      ],
      "name": "getUserStakedTokenIds",
      "outputs": [
        {
          "internalType": "uint256[]",
          "name": "ids",
          "type": "uint256[]"
        }
      ],
      "stateMutability": "view",
      "type": "function"
    },
    {
      "inputs": [
        {
          "internalType": "uint256",
          "name": "tokenId",
          "type": "uint256"
        }
      ],
      "name": "getDepositToken",
      "outputs": [
        {
          "internalType": "address",
          "name": "_poolAddress",
          "type": "address"
        },
        {
          "internalType": "int24[2]",
          "name": "tick",
          "type": "int24[2]"
        },
        {
          "internalType": "uint128",
          "name": "liquidity",
          "type": "uint128"
        },
        {
          "internalType": "uint256[5]",
          "name": "args",
          "type": "uint256[5]"
        },
        {
          "internalType": "uint160[2]",
          "name": "secondsPL",
          "type": "uint160[2]"
        }
      ],
      "stateMutability": "view",
      "type": "function"
    },
    {
      "inputs": [
        {
          "internalType": "address",
          "name": "user",
          "type": "address"
        }
      ],
      "name": "getUserStakedTotal",
      "outputs": [
        {
          "internalType": "uint256",
          "name": "totalDepositAmount",
          "type": "uint256"
        },
        {
          "internalType": "uint256",
          "name": "totalMiningAmount",
          "type": "uint256"
        },
        {
          "internalType": "uint256",
          "name": "totalNonMiningAmount",
          "type": "uint256"
        }
      ],
      "stateMutability": "view",
      "type": "function"
    },
    {
      "inputs": [],
      "name": "totalSupplyCoinage",
      "outputs": [
        {
          "internalType": "uint256",
          "name": "",
          "type": "uint256"
        }
      ],
      "stateMutability": "view",
      "type": "function"
    },
    {
      "inputs": [
        {
          "internalType": "uint256",
          "name": "tokenId",
          "type": "uint256"
        }
      ],
      "name": "balanceOfCoinage",
      "outputs": [
        {
          "internalType": "uint256",
          "name": "",
          "type": "uint256"
        }
      ],
      "stateMutability": "view",
      "type": "function"
    },
    {
      "inputs": [],
      "name": "infos",
      "outputs": [
        {
          "internalType": "address[4]",
          "name": "",
          "type": "address[4]"
        },
        {
          "internalType": "address[4]",
          "name": "",
          "type": "address[4]"
        },
        {
          "internalType": "uint256[4]",
          "name": "",
          "type": "uint256[4]"
        }
      ],
      "stateMutability": "view",
      "type": "function"
    },
    {
      "inputs": [
        {
          "internalType": "uint256",
          "name": "tokenId",
          "type": "uint256"
        }
      ],
      "name": "canMiningAmountTokenId",
      "outputs": [
        {
          "internalType": "uint256",
          "name": "balanceOfRayTokenId",
          "type": "uint256"
        },
        {
          "internalType": "uint256",
          "name": "minableAmountRay",
          "type": "uint256"
        }
      ],
      "stateMutability": "view",
      "type": "function"
    },
    {
      "inputs": [],
      "name": "poolInfos",
      "outputs": [
        {
          "internalType": "address",
          "name": "factory",
          "type": "address"
        },
        {
          "internalType": "address",
          "name": "token0",
          "type": "address"
        },
        {
          "internalType": "address",
          "name": "token1",
          "type": "address"
        },
        {
          "internalType": "uint24",
          "name": "fee",
          "type": "uint24"
        },
        {
          "internalType": "int24",
          "name": "tickSpacing",
          "type": "int24"
        },
        {
          "internalType": "uint128",
          "name": "maxLiquidityPerTick",
          "type": "uint128"
        },
        {
          "internalType": "uint128",
          "name": "liquidity",
          "type": "uint128"
        }
      ],
      "stateMutability": "view",
      "type": "function"
    },
    {
      "inputs": [
        {
          "internalType": "bytes32",
          "name": "key",
          "type": "bytes32"
        }
      ],
      "name": "poolPositions",
      "outputs": [
        {
          "internalType": "uint128",
          "name": "_liquidity",
          "type": "uint128"
        },
        {
          "internalType": "uint256",
          "name": "feeGrowthInside0LastX128",
          "type": "uint256"
        },
        {
          "internalType": "uint256",
          "name": "feeGrowthInside1LastX128",
          "type": "uint256"
        },
        {
          "internalType": "uint128",
          "name": "tokensOwed0",
          "type": "uint128"
        },
        {
          "internalType": "uint128",
          "name": "tokensOwed1",
          "type": "uint128"
        }
      ],
      "stateMutability": "view",
      "type": "function"
    },
    {
      "inputs": [],
      "name": "poolSlot0",
      "outputs": [
        {
          "internalType": "uint160",
          "name": "sqrtPriceX96",
          "type": "uint160"
        },
        {
          "internalType": "int24",
          "name": "tick",
          "type": "int24"
        },
        {
          "internalType": "uint16",
          "name": "observationIndex",
          "type": "uint16"
        },
        {
          "internalType": "uint16",
          "name": "observationCardinality",
          "type": "uint16"
        },
        {
          "internalType": "uint16",
          "name": "observationCardinalityNext",
          "type": "uint16"
        },
        {
          "internalType": "uint8",
          "name": "feeProtocol",
          "type": "uint8"
        },
        {
          "internalType": "bool",
          "name": "unlocked",
          "type": "bool"
        }
      ],
      "stateMutability": "view",
      "type": "function"
    },
    {
      "inputs": [
        {
          "internalType": "uint256",
          "name": "_tokenId",
          "type": "uint256"
        }
      ],
      "name": "npmPositions",
      "outputs": [
        {
          "internalType": "uint96",
          "name": "nonce",
          "type": "uint96"
        },
        {
          "internalType": "address",
          "name": "operator",
          "type": "address"
        },
        {
          "internalType": "address",
          "name": "token0",
          "type": "address"
        },
        {
          "internalType": "address",
          "name": "token1",
          "type": "address"
        },
        {
          "internalType": "uint24",
          "name": "fee",
          "type": "uint24"
        },
        {
          "internalType": "int24",
          "name": "tickLower",
          "type": "int24"
        },
        {
          "internalType": "int24",
          "name": "tickUpper",
          "type": "int24"
        },
        {
          "internalType": "uint128",
          "name": "liquidity",
          "type": "uint128"
        },
        {
          "internalType": "uint256",
          "name": "feeGrowthInside0LastX128",
          "type": "uint256"
        },
        {
          "internalType": "uint256",
          "name": "feeGrowthInside1LastX128",
          "type": "uint256"
        },
        {
          "internalType": "uint128",
          "name": "tokensOwed0",
          "type": "uint128"
        },
        {
          "internalType": "uint128",
          "name": "tokensOwed1",
          "type": "uint128"
        }
      ],
      "stateMutability": "view",
      "type": "function"
    },
    {
      "inputs": [
        {
          "internalType": "int24",
          "name": "tickLower",
          "type": "int24"
        },
        {
          "internalType": "int24",
          "name": "tickUpper",
          "type": "int24"
        }
      ],
      "name": "snapshotCumulativesInside",
      "outputs": [
        {
          "internalType": "int56",
          "name": "tickCumulativeInside",
          "type": "int56"
        },
        {
          "internalType": "uint160",
          "name": "secondsPerLiquidityInsideX128",
          "type": "uint160"
        },
        {
          "internalType": "uint32",
          "name": "secondsInside",
          "type": "uint32"
        },
        {
          "internalType": "uint32",
          "name": "curTimestamps",
          "type": "uint32"
        }
      ],
      "stateMutability": "view",
      "type": "function"
    },
    {
      "inputs": [],
      "name": "miningEndTime",
      "outputs": [
        {
          "internalType": "uint256",
          "name": "",
          "type": "uint256"
        }
      ],
      "stateMutability": "view",
      "type": "function"
    },
    {
      "inputs": [
        {
          "internalType": "uint256",
          "name": "decimals",
          "type": "uint256"
        }
      ],
      "name": "getPrice",
      "outputs": [
        {
          "internalType": "uint256",
          "name": "price",
          "type": "uint256"
        }
      ],
      "stateMutability": "view",
      "type": "function"
    },
    {
      "inputs": [
        {
          "internalType": "uint256",
          "name": "tokenId",
          "type": "uint256"
        },
        {
          "internalType": "uint256",
          "name": "expectBlocktimestamp",
          "type": "uint256"
        }
      ],
      "name": "currentliquidityTokenId",
      "outputs": [
        {
          "internalType": "uint256",
          "name": "secondsAbsolute",
          "type": "uint256"
        },
        {
          "internalType": "uint256",
          "name": "secondsInsideDiff256",
          "type": "uint256"
        },
        {
          "internalType": "uint256",
          "name": "liquidity",
          "type": "uint256"
        }
      ],
      "stateMutability": "view",
      "type": "function"
    },
    {
      "inputs": [
        {
          "internalType": "uint256",
          "name": "tokenId",
          "type": "uint256"
        },
        {
          "internalType": "uint256",
          "name": "expectBlocktimestamp",
          "type": "uint256"
        }
      ],
      "name": "currentCoinageBalanceTokenId",
      "outputs": [
        {
          "internalType": "uint256",
          "name": "currentTotalCoinage",
          "type": "uint256"
        },
        {
          "internalType": "uint256",
          "name": "afterTotalCoinage",
          "type": "uint256"
        },
        {
          "internalType": "uint256",
          "name": "afterBalanceTokenId",
          "type": "uint256"
        }
      ],
      "stateMutability": "view",
      "type": "function"
    },
    {
      "inputs": [
        {
          "internalType": "uint256",
          "name": "tokenId",
          "type": "uint256"
        },
        {
          "internalType": "uint256",
          "name": "expectBlocktimestamp",
          "type": "uint256"
        }
      ],
      "name": "expectedPlusClaimableAmount",
      "outputs": [
        {
          "internalType": "uint256",
          "name": "miningAmount",
          "type": "uint256"
        },
        {
          "internalType": "uint256",
          "name": "nonMiningAmount",
          "type": "uint256"
        },
        {
          "internalType": "uint256",
          "name": "minableAmount",
          "type": "uint256"
        },
        {
          "internalType": "uint256",
          "name": "minableAmountRay",
          "type": "uint256"
        }
      ],
      "stateMutability": "view",
      "type": "function"
    }
  ],
  "bytecode": "0x60806040523480156200001157600080fd5b506200002d60008051602062005fe48339815191528062000053565b6200004860008051602062005fe483398151915233620000a5565b600d600f55620001bb565b6000828152601a6020526040808220600201549051839285917fbd79b86ffe0ab8e8776151514217cd7cacd52c909f66475c3af44e129f0b00ff9190a46000918252601a602052604090912060020155565b620000b18282620000b5565b5050565b6000828152601a60209081526040909120620000dc9183906200495c62000130821b17901c565b15620000b157620000ec62000150565b6001600160a01b0316816001600160a01b0316837f2f8788117e7eff1d82e926ec794901d17c78024a50270940304540a733656f0d60405160405180910390a45050565b600062000147836001600160a01b03841662000154565b90505b92915050565b3390565b6000620001628383620001a3565b6200019a575081546001818101845560008481526020808220909301849055845484825282860190935260409020919091556200014a565b5060006200014a565b60009081526001919091016020526040902054151590565b615e1980620001cb6000396000f3fe6080604052600436106103685760003560e01c806375b238fc116101c8578063ad1b3909116100f8578063d547741f1161009b578063d547741f14610f76578063dcfe138e14610faf578063dd49756e14610fdf578063dee712a314611075578063e75722301461108a578063ecce6c40146110b4578063fbfa77cf14611136578063fc0c546a1461114b578063fdfeb8c01461116057610372565b8063ad1b390914610e2d578063af182fce14610e42578063b44a272214610e57578063b8ebb13314610e6c578063b97db3dc14610eca578063ca15c87314610ef4578063d350de0314610f1e578063d539139314610f6157610372565b806391d148541161016b57806391d1485414610c2e5780639988220214610c675780639a88be2f14610c9a5780639c4b76a014610d3f578063a1f5f50e14610d54578063a217fddf14610d69578063a38807f214610d7e578063a694fc3a14610dee578063a73bf6df14610e1857610372565b806375b238fc14610a6b5780637e1c0c0914610a8057806380f5db8c14610a955780638113d23014610aaa57806384d1df1814610b2d5780638698903814610b835780638ae881ab14610b985780639010d07c14610bfe57610372565b806336568abe116102a3578063567e98f911610246578063567e98f9146108d25780635f139e3f146108e757806361f8e66f146108fc57806363a8fd891461096b57806368304835146109805780637048027514610995578063719de1ef146109c85780637419f19014610a2357806375829def14610a3857610372565b806336568abe14610634578063379607f51461066d5780633b143bcf146106975780633d0935ab146107535780634372f61f1461077d5780634758af8a1461085a57806349cba16c1461086f578063525f8a5c146108a857610372565b8063248a9ca31161030b578063248a9ca3146104f757806324d7806c146105215780632736b39114610568578063282c51f31461057d5780632867bb5b146105925780632e1a7d4d146105a75780632f2ff15d146105d157806334586e8b1461060a57610372565b806302ff153e1461037757806304f93b971461039e578063089fe6aa146103ec5780630a5b631d146104015780630f5d38ae146104185780631755ff211461047e5780631785f53c146104af5780631cbaee2d146104e257610372565b3661037257600080fd5b600080fd5b34801561038357600080fd5b5061038c6111a5565b60408051918252519081900360200190f35b3480156103aa57600080fd5b506103ce600480360360408110156103c157600080fd5b50803590602001356111ab565b60408051938452602084019290925282820152519081900360600190f35b3480156103f857600080fd5b5061038c6114f0565b34801561040d57600080fd5b506104166114f6565b005b34801561042457600080fd5b5061042d6118d5565b604080516001600160a01b03909816885260029690960b602088015261ffff9485168787015292841660608701529216608085015260ff90911660a0840152151560c0830152519081900360e00190f35b34801561048a57600080fd5b506104936119dc565b604080516001600160a01b039092168252519081900360200190f35b3480156104bb57600080fd5b50610416600480360360208110156104d257600080fd5b50356001600160a01b03166119eb565b3480156104ee57600080fd5b5061038c611a4a565b34801561050357600080fd5b5061038c6004803603602081101561051a57600080fd5b5035611a50565b34801561052d57600080fd5b506105546004803603602081101561054457600080fd5b50356001600160a01b0316611a65565b604080519115158252519081900360200190f35b34801561057457600080fd5b5061038c611a85565b34801561058957600080fd5b5061038c611b50565b34801561059e57600080fd5b5061038c611b74565b3480156105b357600080fd5b50610416600480360360208110156105ca57600080fd5b5035611b7a565b3480156105dd57600080fd5b50610416600480360360408110156105f457600080fd5b50803590602001356001600160a01b0316611f6e565b34801561061657600080fd5b506104166004803603602081101561062d57600080fd5b5035611fda565b34801561064057600080fd5b506104166004803603604081101561065757600080fd5b50803590602001356001600160a01b03166123da565b34801561067957600080fd5b506104166004803603602081101561069057600080fd5b503561243b565b3480156106a357600080fd5b506106c1600480360360208110156106ba57600080fd5b503561275c565b604080516bffffffffffffffffffffffff909d168d526001600160a01b039b8c1660208e0152998b168c8b01529790991660608b015262ffffff90951660808a0152600293840b60a08a01529190920b60c08801526001600160801b0391821660e088015261010087015261012086019190915292831661014085015290911661016083015251908190036101800190f35b34801561075f57600080fd5b5061038c6004803603602081101561077657600080fd5b5035612902565b34801561078957600080fd5b506107a7600480360360208110156107a057600080fd5b5035612980565b60405180866001600160a01b0316815260200185600260200280838360005b838110156107de5781810151838201526020016107c6565b50505050905001846001600160801b0316815260200183600560200280838360005b83811015610818578181015183820152602001610800565b5050505090500182600260200280838360005b8381101561084357818101518382015260200161082b565b505050509050019550505050505060405180910390f35b34801561086657600080fd5b50610493612c85565b34801561087b57600080fd5b5061038c6004803603604081101561089257600080fd5b506001600160a01b038135169060200135612c94565b3480156108b457600080fd5b50610416600480360360208110156108cb57600080fd5b5035612cc5565b3480156108de57600080fd5b5061038c612d5b565b3480156108f357600080fd5b5061038c612d61565b34801561090857600080fd5b50610911612d67565b604080516001600160a01b0398891681529688166020880152949096168585015262ffffff909216606085015260020b60808401526001600160801b0390811660a08401529290921660c082015290519081900360e00190f35b34801561097757600080fd5b50610554613100565b34801561098c57600080fd5b50610493613109565b3480156109a157600080fd5b50610416600480360360208110156109b857600080fd5b50356001600160a01b0316613118565b3480156109d457600080fd5b506109fb600480360360208110156109eb57600080fd5b50356001600160a01b0316613174565b6040805194151585526020850193909352838301919091526060830152519081900360800190f35b348015610a2f57600080fd5b5061038c61319f565b348015610a4457600080fd5b5061041660048036036020811015610a5b57600080fd5b50356001600160a01b03166131a5565b348015610a7757600080fd5b5061038c6132c6565b348015610a8c57600080fd5b5061038c6132d8565b348015610aa157600080fd5b506104936132de565b348015610ab657600080fd5b50610add60048036036020811015610acd57600080fd5b50356001600160a01b03166132ed565b60408051602080825283518183015283519192839290830191858101910280838360005b83811015610b19578181015183820152602001610b01565b505050509050019250505060405180910390f35b348015610b3957600080fd5b50610b5d60048036036040811015610b5057600080fd5b5080359060200135613359565b604080519485526020850193909352838301919091526060830152519081900360800190f35b348015610b8f57600080fd5b5061038c6134a0565b348015610ba457600080fd5b50610bc260048036036020811015610bbb57600080fd5b50356134a6565b604080516001600160801b0396871681526020810195909552848101939093529084166060840152909216608082015290519081900360a00190f35b348015610c0a57600080fd5b5061049360048036036040811015610c2157600080fd5b5080359060200135613599565b348015610c3a57600080fd5b5061055460048036036040811015610c5157600080fd5b50803590602001356001600160a01b03166135b8565b348015610c7357600080fd5b506103ce60048036036020811015610c8a57600080fd5b50356001600160a01b03166135d0565b348015610ca657600080fd5b50610caf6135fb565b6040518084608080838360005b83811015610cd4578181015183820152602001610cbc565b5050505090500183600460200280838360005b83811015610cff578181015183820152602001610ce7565b5050505090500182600460200280838360005b83811015610d2a578181015183820152602001610d12565b50505050905001935050505060405180910390f35b348015610d4b57600080fd5b5061038c6136b1565b348015610d6057600080fd5b50610554613727565b348015610d7557600080fd5b5061038c613730565b348015610d8a57600080fd5b50610db560048036036040811015610da157600080fd5b508035600290810b9160200135900b613735565b6040805160069590950b85526001600160a01b03909316602085015263ffffffff91821684840152166060830152519081900360800190f35b348015610dfa57600080fd5b5061041660048036036020811015610e1157600080fd5b5035613829565b348015610e2457600080fd5b50610493613be7565b348015610e3957600080fd5b50610493613bf6565b348015610e4e57600080fd5b5061038c613c05565b348015610e6357600080fd5b50610493613c0b565b348015610e7857600080fd5b50610e9660048036036020811015610e8f57600080fd5b5035613c1a565b6040805195865263ffffffff9485166020870152929093168483015260608401526080830191909152519081900360a00190f35b348015610ed657600080fd5b5061041660048036036020811015610eed57600080fd5b5035613c53565b348015610f0057600080fd5b5061038c60048036036020811015610f1757600080fd5b5035613c9c565b348015610f2a57600080fd5b50610f4860048036036020811015610f4157600080fd5b5035613cb3565b6040805192835260208301919091528051918290030190f35b348015610f6d57600080fd5b5061038c613d99565b348015610f8257600080fd5b5061041660048036036040811015610f9957600080fd5b50803590602001356001600160a01b0316613dbd565b348015610fbb57600080fd5b506103ce60048036036040811015610fd257600080fd5b5080359060200135613e16565b348015610feb57600080fd5b506110096004803603602081101561100257600080fd5b5035613ffd565b604080516001600160a01b039a8b16815260208101999099526001600160801b0390971688880152600295860b60608901529390940b608087015263ffffffff91821660a08701521660c085015290841660e08401529092166101008201529051908190036101200190f35b34801561108157600080fd5b50610416614071565b34801561109657600080fd5b5061038c600480360360208110156110ad57600080fd5b50356140bc565b3480156110c057600080fd5b506110de600480360360208110156110d757600080fd5b50356141a3565b604080519a8b5260208b0199909952898901979097526001600160a01b039095166060890152608088019390935260a087019190915260c086015260e085015261010084015261012083015251908190036101400190f35b34801561114257600080fd5b506104936144f3565b34801561115757600080fd5b50610493614502565b34801561116c57600080fd5b50610416600480360360a081101561118357600080fd5b5080359060208101359060ff6040820135169060608101359060800135614511565b60175481565b601254600090819081906001600160a01b0316806111fa5760405162461bcd60e51b8152600401808060200182810382526023815260200180615c126023913960400191505060405180910390fd5b600d54156114e857844281111561120e5750425b601660009054906101000a90046001600160a01b03166001600160a01b03166318160ddd6040518163ffffffff1660e01b815260040160206040518083038186803b15801561125c57600080fd5b505afa158015611270573d6000803e3d6000fd5b505050506040513d602081101561128657600080fd5b50516016546040805163c1211c4360e01b8152600481018b90529051929750600092839283926001600160a01b039091169163c1211c4391602480820192606092909190829003018186803b1580156112de57600080fd5b505afa1580156112f2573d6000803e3d6000fd5b505050506040513d606081101561130857600080fd5b50805160208201516040909201516017549195509193509091508061132c5750600d545b60006113388683614971565b90506000600f5411801561134d5750600f5481115b1561136357600f54611360908290614971565b90505b60006113e9600260009054906101000a90046001600160a01b03166001600160a01b0316634ce77abe6040518163ffffffff1660e01b815260040160206040518083038186803b1580156113b657600080fd5b505afa1580156113ca573d6000803e3d6000fd5b505050506040513d60208110156113e057600080fd5b505183906149b3565b90506114036113fc82633b9aca006149b3565b8c90614a0c565b9950600061148b8c8c601660009054906101000a90046001600160a01b03166001600160a01b03166354f703f86040518163ffffffff1660e01b815260040160206040518083038186803b15801561145a57600080fd5b505afa15801561146e573d6000803e3d6000fd5b505050506040513d602081101561148457600080fd5b5051614a66565b90506000815b6b204fce5e3e2502611000000081106114c3576114af826001614a0c565b91506114bc816002614a83565b9050611491565b6114cf89898385614ac5565b9b506114db8c88614a0c565b9b50505050505050505050505b509250925092565b60135481565b600b5415611544576040805162461bcd60e51b815260206004820152601660248201527514dd185ad9555b9a5cddd85c158cce881313d0d2d15160521b604482015290519081900360640190fd5b6001600b55600e541580611559575042600e54115b15611563576118ce565b600d541580611573575042600d54115b1561157d576118ce565b6002546040805162fc469360e11b8152905142926001600160a01b0316916301f88d26916004808301926020929190829003018186803b1580156115c057600080fd5b505afa1580156115d4573d6000803e3d6000fd5b505050506040513d60208110156115ea57600080fd5b50511180611665575060025460408051632736b39160e01b8152905142926001600160a01b031691632736b391916004808301926020929190829003018186803b15801561163757600080fd5b505afa15801561164b573d6000803e3d6000fd5b505050506040513d602081101561166157600080fd5b5051105b1561166f576118ce565b60175461167d57600d546017555b600f5460175461168c91614a0c565b4211156118ce5760006116aa6017544261497190919063ffffffff16565b905060006116ff600260009054906101000a90046001600160a01b03166001600160a01b0316634ce77abe6040518163ffffffff1660e01b815260040160206040518083038186803b1580156113b657600080fd5b90506000601660009054906101000a90046001600160a01b03166001600160a01b03166318160ddd6040518163ffffffff1660e01b815260040160206040518083038186803b15801561175157600080fd5b505afa158015611765573d6000803e3d6000fd5b505050506040513d602081101561177b57600080fd5b50519050811580159061178e5750600081115b156118ca5760006117ad6117a684633b9aca006149b3565b8390614a0c565b60165460408051630a9ee07f60e31b815290519293506000926001600160a01b039092169163817e9d3191611807918791879186916354f703f8916004808301926020929190829003018186803b15801561145a57600080fd5b6040518263ffffffff1660e01b815260040180828152602001915050602060405180830381600087803b15801561183d57600080fd5b505af1158015611851573d6000803e3d6000fd5b505050506040513d602081101561186757600080fd5b50514260178190556040805191825260208201889052818101879052606082018690526080820185905260a08201839052519192507fe8c31506e2202c904fc838af92d6a36a6a155eab78cc591af005df916d3ccaf8919081900360c00190a150505b5050505b6000600b55565b6012546000908190819081908190819081906001600160a01b03168061192c5760405162461bcd60e51b8152600401808060200182810382526023815260200180615c126023913960400191505060405180910390fd5b601260009054906101000a90046001600160a01b03166001600160a01b0316633850c7bd6040518163ffffffff1660e01b815260040160e06040518083038186803b15801561197a57600080fd5b505afa15801561198e573d6000803e3d6000fd5b505050506040513d60e08110156119a457600080fd5b508051602082015160408301516060840151608085015160a086015160c090960151949e939d50919b50995097509195509350915050565b6012546001600160a01b031681565b6119f433611a65565b611a2f5760405162461bcd60e51b8152600401808060200182810382526022815260200180615b9f6022913960400191505060405180910390fd5b611a47600080516020615d2d833981519152826123da565b50565b600e5481565b6000908152601a602052604090206002015490565b6000611a7f600080516020615d2d833981519152836135b8565b92915050565b6002546000906001600160a01b031680611ad05760405162461bcd60e51b8152600401808060200182810382526023815260200180615c126023913960400191505060405180910390fd5b600260009054906101000a90046001600160a01b03166001600160a01b0316632736b3916040518163ffffffff1660e01b815260040160206040518083038186803b158015611b1e57600080fd5b505afa158015611b32573d6000803e3d6000fd5b505050506040513d6020811015611b4857600080fd5b505191505090565b7f9667e80708b6eeeb0053fa0cca44e028ff548e2a9f029edfeac87c118b08b7c881565b600f5481565b600081815260076020526040902080546001600160a01b03163314611bd05760405162461bcd60e51b815260040180806020018281038252602e815260200180615cff602e913960400191505060405180910390fd5b60028101546005546001600160801b0390911611611c06576002810154600554611c02916001600160801b0316614971565b6005555b60185415611c2057601854611c1c906001614971565b6018555b6000806000611c2e856141a3565b50505050505050925092509250601660009054906101000a90046001600160a01b03166001600160a01b0316636621a02533876040518363ffffffff1660e01b815260040180836001600160a01b0316815260200182815260200192505050600060405180830381600087803b158015611ca757600080fd5b505af1158015611cbb573d6000803e3d6000fd5b505033600090815260096020526040902060028701546001820154919350611cec92506001600160801b0316614971565b60018201556002810154611d009085614a0c565b60028201556003810154611d149084614a0c565b60038083019190915554611d289085614a0c565b600355600454611d389084614a0c565b60045584546001860154611d57916001600160a01b0316908890614b02565b600086815260076020908152604080832080546001600160a01b031990811682556001808301869055600280840180546001600160f01b03191690556003808501805485169055600490940180549093169092556008909452918420848155808401805467ffffffffffffffff191690559182018490550191909155810154611e1557600a54611de8906001614971565b600a55336000908152600960205260408120805460ff191681556001810182905560028101829055600301555b8115611eb25760025460408051633c09d84560e21b815233600482015260248101859052604481018790526064810186905290516001600160a01b039092169163f0276114916084808201926020929091908290030181600087803b158015611e7d57600080fd5b505af1158015611e91573d6000803e3d6000fd5b505050506040513d6020811015611ea757600080fd5b5051611eb257600080fd5b60145460408051632142170760e11b81523060048201523360248201526044810189905290516001600160a01b03909216916342842e0e9160648082019260009290919082900301818387803b158015611f0b57600080fd5b505af1158015611f1f573d6000803e3d6000fd5b5050604080518981526020810188905280820187905290513393507faed5c5198ccd7615c0128c72fcfc060e97b14315cb791a46bf42b5b6f36c38b992509081900360600190a2505050505050565b6000828152601a6020526040902060020154611f9190611f8c614c6d565b6135b8565b611fcc5760405162461bcd60e51b815260040180806020018281038252602f815260200180615b49602f913960400191505060405180910390fd5b611fd68282614c71565b5050565b6000546001600160a01b0316806120225760405162461bcd60e51b8152600401808060200182810382526023815260200180615c126023913960400191505060405180910390fd5b6002546001600160a01b03168061206a5760405162461bcd60e51b8152600401808060200182810382526023815260200180615c126023913960400191505060405180910390fd5b6001546001600160a01b0316806120b25760405162461bcd60e51b8152600401808060200182810382526023815260200180615c126023913960400191505060405180910390fd5b6010546001600160a01b0316806120fa5760405162461bcd60e51b8152600401808060200182810382526023815260200180615c126023913960400191505060405180910390fd5b6011546001600160a01b0316806121425760405162461bcd60e51b8152600401808060200182810382526023815260200180615c126023913960400191505060405180910390fd5b6014546001600160a01b03168061218a5760405162461bcd60e51b8152600401808060200182810382526023815260200180615c126023913960400191505060405180910390fd5b6015546001600160a01b0316806121d25760405162461bcd60e51b8152600401808060200182810382526023815260200180615c126023913960400191505060405180910390fd5b6012546001600160a01b03161561221a5760405162461bcd60e51b8152600401808060200182810382526027815260200180615b786027913960400191505060405180910390fd5b6014546040805163133f757160e31b8152600481018b90529051600092839283926001600160a01b03909216916399fbab889160248082019261018092909190829003018186803b15801561226e57600080fd5b505afa158015612282573d6000803e3d6000fd5b505050506040513d61018081101561229957600080fd5b50604081015160608201516080909201516010549195509193509091506001600160a01b0380851691161480156122dd57506011546001600160a01b038381169116145b8061230d57506011546001600160a01b03848116911614801561230d57506010546001600160a01b038381169116145b6123485760405162461bcd60e51b815260040180806020018281038252602b815260200180615c35602b913960400191505060405180910390fd5b601080546001600160a01b038086166001600160a01b031992831681179093556011805486831693168317905560155460408051606081018252948552602085019390935262ffffff8516928401929092526123a692911690614cda565b601280546001600160a01b0319166001600160a01b039290921691909117905562ffffff1660135550505050505050505050565b6123e2614c6d565b6001600160a01b0316816001600160a01b0316146124315760405162461bcd60e51b815260040180806020018281038252602f815260200180615db5602f913960400191505060405180910390fd5b611fd68282614dbe565b600081815260076020526040902080546001600160a01b031633146124915760405162461bcd60e51b815260040180806020018281038252602e815260200180615cff602e913960400191505060405180910390fd5b6124996114f6565b60008060008060006124aa876141a3565b505097505050509450945094509450600085116124f85760405162461bcd60e51b8152600401808060200182810382526024815260200180615d4d6024913960400191505060405180910390fd5b60028601805463ffffffff60d01b1916600160d01b4263ffffffff1602179055600480870180546001600160a01b0319166001600160a01b038581169190911790915560165460408051637a94c56560e11b81523394810194909452602484018b9052604484018590525191169163f5298aca91606480830192600092919082900301818387803b15801561258c57600080fd5b505af11580156125a0573d6000803e3d6000fd5b505050600088815260086020526040902060018101805463ffffffff4281166401000000000267ffffffff00000000199092169190911790915560028201549192506125ef91908890614a0c16565b600282015560038101546126039086614a0c565b600382015533600090815260096020526040902060028101546126269088614a0c565b6002820155600381015461263a9087614a0c565b6003808301919091555461264e9088614a0c565b60035560045461265e9087614a0c565b600490815560025460408051633c09d84560e21b8152339381019390935260248301889052604483018a905260648301899052516001600160a01b039091169163f02761149160848083019260209291908290030181600087803b1580156126c557600080fd5b505af11580156126d9573d6000803e3d6000fd5b505050506040513d60208110156126ef57600080fd5b50516126fa57600080fd5b601254604080516001600160a01b03929092168252602082018b9052818101899052606082018890525133917fd795915374024be1f03204e052bd584b33bb85c9128ede9c54adbe0bbdc22095919081900360800190a2505050505050505050565b600080600080600080600080600080600080601460009054906101000a90046001600160a01b031660006001600160a01b0316816001600160a01b031614156127d65760405162461bcd60e51b8152600401808060200182810382526023815260200180615c126023913960400191505060405180910390fd5b601460009054906101000a90046001600160a01b03166001600160a01b03166399fbab888f6040518263ffffffff1660e01b8152600401808281526020019150506101806040518083038186803b15801561283057600080fd5b505afa158015612844573d6000803e3d6000fd5b505050506040513d61018081101561285b57600080fd5b810190808051906020019092919080519060200190929190805190602001909291908051906020019092919080519060200190929190805190602001909291908051906020019092919080519060200190929190805190602001909291908051906020019092919080519060200190929190805190602001909291905050509c509c509c509c509c509c509c509c509c509c509c509c505091939597999b5091939597999b565b60165460408051631398fee160e31b81526004810184905290516000926001600160a01b031691639cc7f708916024808301926020929190829003018186803b15801561294e57600080fd5b505afa158015612962573d6000803e3d6000fd5b505050506040513d602081101561297857600080fd5b505192915050565b600061298a615a74565b6000612994615a92565b61299c615a74565b600060076000888152602001908152602001600020604051806101200160405290816000820160009054906101000a90046001600160a01b03166001600160a01b03166001600160a01b03168152602001600182015481526020016002820160009054906101000a90046001600160801b03166001600160801b03166001600160801b031681526020016002820160109054906101000a900460020b60020b60020b81526020016002820160139054906101000a900460020b60020b60020b81526020016002820160169054906101000a900463ffffffff1663ffffffff1663ffffffff16815260200160028201601a9054906101000a900463ffffffff1663ffffffff1663ffffffff1681526020016003820160009054906101000a90046001600160a01b03166001600160a01b03166001600160a01b031681526020016004820160009054906101000a90046001600160a01b03166001600160a01b03166001600160a01b03168152505090506000600860008981526020019081526020016000206040518060a0016040529081600082015481526020016001820160009054906101000a900463ffffffff1663ffffffff1663ffffffff1681526020016001820160049054906101000a900463ffffffff1663ffffffff1663ffffffff168152602001600282015481526020016003820154815250509050601260009054906101000a90046001600160a01b03166040518060400160405280846060015160020b60020b8152602001846080015160020b60020b81525083604001516040518060a001604052808660a0015163ffffffff1681526020018660c0015163ffffffff168152602001856020015163ffffffff168152602001856040015163ffffffff168152602001856060015181525060405180604001604052808760e001516001600160a01b03166001600160a01b031681526020018761010001516001600160a01b03166001600160a01b031681525096509650965096509650505091939590929450565b6011546001600160a01b031681565b60066020528160005260406000208181548110612cb057600080fd5b90600052602060002001600091509150505481565b612cce33611a65565b612d095760405162461bcd60e51b8152600401808060200182810382526022815260200180615b9f6022913960400191505060405180910390fd5b600081118015612d1b575080600e5414155b612d565760405162461bcd60e51b815260040180806020018281038252602b815260200180615af1602b913960400191505060405180910390fd5b600e55565b60055481565b60035481565b6012546000908190819081908190819081906001600160a01b031680612dbe5760405162461bcd60e51b8152600401808060200182810382526023815260200180615c126023913960400191505060405180910390fd5b601260009054906101000a90046001600160a01b03166001600160a01b0316631a6865026040518163ffffffff1660e01b815260040160206040518083038186803b158015612e0c57600080fd5b505afa158015612e20573d6000803e3d6000fd5b505050506040513d6020811015612e3657600080fd5b50516012546040805163c45a015560e01b815290519294506001600160a01b039091169163c45a015591600480820192602092909190829003018186803b158015612e8057600080fd5b505afa158015612e94573d6000803e3d6000fd5b505050506040513d6020811015612eaa57600080fd5b505160125460408051630dfe168160e01b81529051929a506001600160a01b0390911691630dfe168191600480820192602092909190829003018186803b158015612ef457600080fd5b505afa158015612f08573d6000803e3d6000fd5b505050506040513d6020811015612f1e57600080fd5b50516012546040805163d21220a760e01b815290519299506001600160a01b039091169163d21220a791600480820192602092909190829003018186803b158015612f6857600080fd5b505afa158015612f7c573d6000803e3d6000fd5b505050506040513d6020811015612f9257600080fd5b50516012546040805163ddca3f4360e01b815290519298506001600160a01b039091169163ddca3f4391600480820192602092909190829003018186803b158015612fdc57600080fd5b505afa158015612ff0573d6000803e3d6000fd5b505050506040513d602081101561300657600080fd5b5051601254604080516334324e9f60e21b815290519297506001600160a01b039091169163d0c93a7c91600480820192602092909190829003018186803b15801561305057600080fd5b505afa158015613064573d6000803e3d6000fd5b505050506040513d602081101561307a57600080fd5b505160125460408051633867baa560e11b815290519296506001600160a01b03909116916370cf754a91600480820192602092909190829003018186803b1580156130c457600080fd5b505afa1580156130d8573d6000803e3d6000fd5b505050506040513d60208110156130ee57600080fd5b50519798969795969495939491925050565b600c5460ff1681565b6001546001600160a01b031681565b61312133611a65565b61315c5760405162461bcd60e51b8152600401808060200182810382526022815260200180615b9f6022913960400191505060405180910390fd5b611a47600080516020615d2d83398151915282611f6e565b600960205260009081526040902080546001820154600283015460039093015460ff90921692909184565b600d5481565b6131ae33611a65565b6131e95760405162461bcd60e51b8152600401808060200182810382526022815260200180615b9f6022913960400191505060405180910390fd5b6001600160a01b03811661323f576040805162461bcd60e51b815260206004820152601860248201527741636365737369626c653a207a65726f206164647265737360401b604482015290519081900360640190fd5b336001600160a01b0382161415613296576040805162461bcd60e51b815260206004820152601660248201527520b1b1b2b9b9b4b136329d1039b0b6b29030b236b4b760511b604482015290519081900360640190fd5b6132ae600080516020615d2d83398151915282611f6e565b611a47600080516020615d2d833981519152336123da565b600080516020615d2d83398151915281565b60185481565b6015546001600160a01b031681565b6001600160a01b03811660009081526006602090815260409182902080548351818402810184019094528084526060939283018282801561334d57602002820191906000526020600020905b815481526020019060010190808311613339575b50505050509050919050565b6012546000908190819081906001600160a01b0316806133aa5760405162461bcd60e51b8152600401808060200182810382526023815260200180615c126023913960400191505060405180910390fd5b600d5415613496574280871080156133c3575060175487115b156133cb5750855b60008060006133da8b85613e16565b92509250925060006133ec8c866111ab565b9250505060008211801561340c575061340982633b9aca006149b3565b81115b1561343c5761342961342283633b9aca006149b3565b8290614971565b965061343987633b9aca00614a83565b97505b60008811801561344c5750600084115b156134905783831080156134605750600083115b1561348c57613479846134738a866149b3565b90614a83565b9950613485888b614971565b9850613490565b8799505b50505050505b5092959194509250565b600a5481565b60125460009081908190819081906001600160a01b0316806134f95760405162461bcd60e51b8152600401808060200182810382526023815260200180615c126023913960400191505060405180910390fd5b6012546040805163514ea4bf60e01b8152600481018a905290516001600160a01b039092169163514ea4bf9160248082019260a092909190829003018186803b15801561354557600080fd5b505afa158015613559573d6000803e3d6000fd5b505050506040513d60a081101561356f57600080fd5b508051602082015160408301516060840151608090940151929b919a509850919650945092505050565b6000828152601a602052604081206135b19083614e27565b9392505050565b6000828152601a602052604081206135b19083614e33565b6001600160a01b03166000908152600960205260409020600181015460028201546003909201549092565b613603615ab0565b61360b615ab0565b613613615ab0565b505060408051608080820183526000546001600160a01b0390811683526002548116602080850191909152600154821684860152601654821660608086019190915285518085018752601054841681526011548416818401526014548416818801526015549093168382015285519384018652600a548452600554918401919091526003549483019490945260045493820193909352909250909192565b601654604080516318160ddd60e01b815290516000926001600160a01b0316916318160ddd916004808301926020929190829003018186803b1580156136f657600080fd5b505afa15801561370a573d6000803e3d6000fd5b505050506040513d602081101561372057600080fd5b5051905090565b60195460ff1681565b600081565b6012546000908190819081906001600160a01b0316806137865760405162461bcd60e51b8152600401808060200182810382526023815260200180615c126023913960400191505060405180910390fd5b601254604080516351c403f960e11b815260028a810b600483015289900b602482015290514294506001600160a01b039092169163a38807f291604480820192606092909190829003018186803b1580156137e057600080fd5b505afa1580156137f4573d6000803e3d6000fd5b505050506040513d606081101561380a57600080fd5b5080516020820151604090920151909991985096509194509092505050565b6000546001600160a01b0316806138715760405162461bcd60e51b8152600401808060200182810382526023815260200180615c126023913960400191505060405180910390fd5b6002546001600160a01b0316806138b95760405162461bcd60e51b8152600401808060200182810382526023815260200180615c126023913960400191505060405180910390fd5b6001546001600160a01b0316806139015760405162461bcd60e51b8152600401808060200182810382526023815260200180615c126023913960400191505060405180910390fd5b6010546001600160a01b0316806139495760405162461bcd60e51b8152600401808060200182810382526023815260200180615c126023913960400191505060405180910390fd5b6011546001600160a01b0316806139915760405162461bcd60e51b8152600401808060200182810382526023815260200180615c126023913960400191505060405180910390fd5b6014546001600160a01b0316806139d95760405162461bcd60e51b8152600401808060200182810382526023815260200180615c126023913960400191505060405180910390fd5b6015546001600160a01b031680613a215760405162461bcd60e51b8152600401808060200182810382526023815260200180615c126023913960400191505060405180910390fd5b42600e5410613a615760405162461bcd60e51b815260040180806020018281038252602d815260200180615b1c602d913960400191505060405180910390fd5b600260009054906101000a90046001600160a01b03166001600160a01b0316632736b3916040518163ffffffff1660e01b815260040160206040518083038186803b158015613aaf57600080fd5b505afa158015613ac3573d6000803e3d6000fd5b505050506040513d6020811015613ad957600080fd5b50514210613b185760405162461bcd60e51b8152600401808060200182810382526021815260200180615bc16021913960400191505060405180910390fd5b601454604080516331a9108f60e11b8152600481018b9052905133926001600160a01b031691636352211e916024808301926020929190829003018186803b158015613b6357600080fd5b505afa158015613b77573d6000803e3d6000fd5b505050506040513d6020811015613b8d57600080fd5b50516001600160a01b031614613bd45760405162461bcd60e51b815260040180806020018281038252602d815260200180615c90602d913960400191505060405180910390fd5b613bdd88614e48565b5050505050505050565b6010546001600160a01b031681565b6016546001600160a01b031681565b60045481565b6014546001600160a01b031681565b6008602052600090815260409020805460018201546002830154600390930154919263ffffffff80831693640100000000909304169185565b613c5c33611a65565b613c975760405162461bcd60e51b8152600401808060200182810382526022815260200180615b9f6022913960400191505060405180910390fd5b600f55565b6000818152601a60205260408120611a7f9061567e565b60008181526007602090815260408083206016548251631398fee160e31b8152600481018790529251859492936001600160a01b0390921692639cc7f7089260248082019391829003018186803b158015613d0d57600080fd5b505afa158015613d21573d6000803e3d6000fd5b505050506040513d6020811015613d3757600080fd5b505192508215801590613d6457506002810154613d61906001600160801b0316633b9aca006149b3565b83115b15613d93576002810154613d9090613d89906001600160801b0316633b9aca006149b3565b8490614971565b91505b50915091565b7ff0887ba65ee2024ea881d91b74c2450ef19e1557f03bed3ea9f16b037cbe2dc981565b6000828152601a6020526040902060020154613ddb90611f8c614c6d565b6124315760405162461bcd60e51b8152600401808060200182810382526030815260200180615be26030913960400191505060405180910390fd5b601254600090819081906001600160a01b031680613e655760405162461bcd60e51b8152600401808060200182810382526023815260200180615c126023913960400191505060405180910390fd5b600d54156114e8578442811115613e795750425b60008781526007602052604080822060125460028083015484516351c403f960e11b8152600160801b8204830b830b6004820152600160981b909104820b90910b602482015292519193926001600160a01b039091169163a38807f291604480820192606092909190829003018186803b158015613ef657600080fd5b505afa158015613f0a573d6000803e3d6000fd5b505050506040513d6060811015613f2057600080fd5b506040015160028301546001600160801b038116965063ffffffff9182169250600160d01b90041615613f75576002820154613f6e90849063ffffffff600160d01b90910481169061497116565b9650613f99565b6002820154613f9690849063ffffffff600160b01b90910481169061497116565b96505b8615613ff25760048201546001600160a01b031615613fd4576004820154613fcd906001600160a01b038381169116614971565b9550613ff2565b6003820154613fef906001600160a01b038381169116614971565b95505b505050509250925092565b60076020526000908152604090208054600182015460028084015460038501546004909501546001600160a01b039485169593946001600160801b03831694600160801b8404850b94600160981b8504900b9363ffffffff600160b01b8204811694600160d01b9092041692918216911689565b61407a33611a65565b6140b55760405162461bcd60e51b8152600401808060200182810382526022815260200180615b9f6022913960400191505060405180910390fd5b6000601755565b6012546000906001600160a01b0316806141075760405162461bcd60e51b8152600401808060200182810382526023815260200180615c126023913960400191505060405180910390fd5b60125460408051633850c7bd60e01b815290516000926001600160a01b031691633850c7bd9160048083019260e0929190829003018186803b15801561414c57600080fd5b505afa158015614160573d6000803e3d6000fd5b505050506040513d60e081101561417657600080fd5b5051905060c0614199856141936001600160a01b038516806149b3565b906149b3565b901c949350505050565b6012546000908190819081908190819081908190819081906001600160a01b0316806142005760405162461bcd60e51b8152600401808060200182810382526023815260200180615c126023913960400191505060405180910390fd5b42600d54108015614212575042600d54105b156144e5576000600760008e815260200190815260200160002090508060020160009054906101000a90046001600160801b03166001600160801b031696506000601660009054906101000a90046001600160a01b03166001600160a01b0316639cc7f7088f6040518263ffffffff1660e01b81526004018082815260200191505060206040518083038186803b1580156142ac57600080fd5b505afa1580156142c0573d6000803e3d6000fd5b505050506040513d60208110156142d657600080fd5b505160028301549097506001600160801b0316158015906142f75750600087115b156144e25761430a88633b9aca006149b3565b87111561433c5761432961432289633b9aca006149b3565b8890614971565b955061433986633b9aca00614a83565b9a505b8a156144e257601254600280840154604080516351c403f960e11b8152600160801b8304840b840b6004820152600160981b909204830b90920b602482015290516001600160a01b039092169163a38807f291604480820192606092909190829003018186803b1580156143af57600080fd5b505afa1580156143c3573d6000803e3d6000fd5b505050506040513d60608110156143d957600080fd5b5060400151600283015463ffffffff9182169b508b9650600160d01b9004161561442657600282015461441f9063ffffffff42811691600160d01b900481169061568916565b905061444b565b60028201546144489063ffffffff42811691600160b01b900481169061568916565b90505b63ffffffff8116935083156144e25760048201546001600160a01b03161561448d5760048201546144869086906001600160a01b0316614971565b98506144a9565b60038201546144a69086906001600160a01b0316614971565b98505b83891080156144b85750600089115b156144de576144cb846134738d8c6149b3565b9c506144d78b8e614971565b9b506144e2565b8a9c505b50505b509193959799509193959799565b6002546001600160a01b031681565b6000546001600160a01b031681565b6000546001600160a01b0316806145595760405162461bcd60e51b8152600401808060200182810382526023815260200180615c126023913960400191505060405180910390fd5b6002546001600160a01b0316806145a15760405162461bcd60e51b8152600401808060200182810382526023815260200180615c126023913960400191505060405180910390fd5b6001546001600160a01b0316806145e95760405162461bcd60e51b8152600401808060200182810382526023815260200180615c126023913960400191505060405180910390fd5b6010546001600160a01b0316806146315760405162461bcd60e51b8152600401808060200182810382526023815260200180615c126023913960400191505060405180910390fd5b6011546001600160a01b0316806146795760405162461bcd60e51b8152600401808060200182810382526023815260200180615c126023913960400191505060405180910390fd5b6014546001600160a01b0316806146c15760405162461bcd60e51b8152600401808060200182810382526023815260200180615c126023913960400191505060405180910390fd5b6015546001600160a01b0316806147095760405162461bcd60e51b8152600401808060200182810382526023815260200180615c126023913960400191505060405180910390fd5b42600e54106147495760405162461bcd60e51b815260040180806020018281038252602d815260200180615b1c602d913960400191505060405180910390fd5b600260009054906101000a90046001600160a01b03166001600160a01b0316632736b3916040518163ffffffff1660e01b815260040160206040518083038186803b15801561479757600080fd5b505afa1580156147ab573d6000803e3d6000fd5b505050506040513d60208110156147c157600080fd5b505142106148005760405162461bcd60e51b8152600401808060200182810382526021815260200180615bc16021913960400191505060405180910390fd5b601454604080516331a9108f60e11b8152600481018f9052905133926001600160a01b031691636352211e916024808301926020929190829003018186803b15801561484b57600080fd5b505afa15801561485f573d6000803e3d6000fd5b505050506040513d602081101561487557600080fd5b50516001600160a01b0316146148bc5760405162461bcd60e51b815260040180806020018281038252602d815260200180615c90602d913960400191505060405180910390fd5b60145460408051637ac2ff7b60e01b8152306004820152602481018f9052604481018e905260ff8d166064820152608481018c905260a481018b905290516001600160a01b0390921691637ac2ff7b9160c48082019260009290919082900301818387803b15801561492d57600080fd5b505af1158015614941573d6000803e3d6000fd5b5050505061494e8c614e48565b505050505050505050505050565b60006135b1836001600160a01b0384166156a7565b60006135b183836040518060400160405280601e81526020017f536166654d6174683a207375627472616374696f6e206f766572666c6f7700008152506156f1565b6000826149c257506000611a7f565b828202828482816149cf57fe5b04146135b15760405162461bcd60e51b8152600401808060200182810382526021815260200180615cbd6021913960400191505060405180910390fd5b6000828201838110156135b1576040805162461bcd60e51b815260206004820152601b60248201527f536166654d6174683a206164646974696f6e206f766572666c6f770000000000604482015290519081900360640190fd5b6000614a7b614a758484615788565b856157c7565b949350505050565b60006135b183836040518060400160405280601a81526020017f536166654d6174683a206469766973696f6e206279207a65726f0000000000008152506157ea565b600084614ad457506000614a7b565b614ade858461584f565b9450835b82811015614af857600290950294600101614ae2565b5093949350505050565b6001600160a01b0383166000908152600660205260408120805483908110614b2657fe5b90600052602060002001549050828114614b715760405162461bcd60e51b8152600401808060200182810382526030815260200180615c606030913960400191505060405180910390fd5b6001600160a01b038416600090815260066020526040902054600019018315801590614b9c57508382145b15614c665780831015614c2e576001600160a01b0385166000908152600660205260408120805483908110614bcd57fe5b906000526020600020015490508060066000886001600160a01b03166001600160a01b031681526020019081526020016000208581548110614c0b57fe5b600091825260208083209091019290925591825260079052604090206001018390555b6001600160a01b0385166000908152600660205260409020805480614c4f57fe5b600190038181906000526020600020016000905590555b5050505050565b3390565b6000828152601a60205260409020614c89908261495c565b15611fd657614c96614c6d565b6001600160a01b0316816001600160a01b0316837f2f8788117e7eff1d82e926ec794901d17c78024a50270940304540a733656f0d60405160405180910390a45050565b600081602001516001600160a01b031682600001516001600160a01b031610614d0257600080fd5b50805160208083015160409384015184516001600160a01b0394851681850152939091168385015262ffffff166060808401919091528351808403820181526080840185528051908301206001600160f81b031960a085015294901b6bffffffffffffffffffffffff191660a183015260b58201939093527fe34f199b19b2b4f47f68442619d555527d244f78a3297ea89325f843f87b8b5460d5808301919091528251808303909101815260f5909101909152805191012090565b6000828152601a60205260409020614dd69082615867565b15611fd657614de3614c6d565b6001600160a01b0316816001600160a01b0316837ff6391f5c32d9c69d2a47ea670b442974b53935d1edc7fd64eb21e047a839171b60405160405180910390a45050565b60006135b1838361587c565b60006135b1836001600160a01b0384166158e0565b6014546040805163133f757160e31b81526004810184905290518392600092839283928392839283926001600160a01b0316916399fbab8891602480830192610180929190829003018186803b158015614ea157600080fd5b505afa158015614eb5573d6000803e3d6000fd5b505050506040513d610180811015614ecc57600080fd5b5060408101516060820151608083015160a084015160c085015160e090950151601054949b5092995090975095509193509091506001600160a01b038088169116148015614f2757506011546001600160a01b038681169116145b80614f5757506011546001600160a01b038781169116148015614f5757506010546001600160a01b038681169116145b614f925760405162461bcd60e51b815260040180806020018281038252602b815260200180615c35602b913960400191505060405180910390fd5b6000816001600160801b031611614fda5760405162461bcd60e51b8152600401808060200182810382526021815260200180615cde6021913960400191505060405180910390fd5b6012546001600160a01b031661505b5761503a601560009054906101000a90046001600160a01b03166040518060600160405280896001600160a01b03168152602001886001600160a01b031681526020018762ffffff16815250614cda565b601280546001600160a01b0319166001600160a01b03929092169190911790555b6012546001600160a01b03166150a25760405162461bcd60e51b8152600401808060200182810382526023815260200180615d926023913960400191505060405180910390fd5b600080601260009054906101000a90046001600160a01b03166001600160a01b0316633850c7bd6040518163ffffffff1660e01b815260040160e06040518083038186803b1580156150f357600080fd5b505afa158015615107573d6000803e3d6000fd5b505050506040513d60e081101561511d57600080fd5b50602081015160c090910151909250905080615180576040805162461bcd60e51b815260206004820152601e60248201527f5374616b65556e697377617056333a20706f6f6c20697320636c6f7365640000604482015290519081900360640190fd5b8160020b8560020b12801561519a57508360020b8260020b125b6151d55760405162461bcd60e51b8152600401808060200182810382526021815260200180615d716021913960400191505060405180910390fd5b601254604080516351c403f960e11b8152600288810b600483015287900b602482015290516000926001600160a01b03169163a38807f2916044808301926060929190829003018186803b15801561522c57600080fd5b505afa158015615240573d6000803e3d6000fd5b505050506040513d606081101561525657600080fd5b5060409081015160145482516323b872dd60e01b8152336004820152306024820152604481018e905292519193508c926001600160a01b03909116916323b872dd9160648082019260009290919082900301818387803b1580156152b957600080fd5b505af11580156152cd573d6000803e3d6000fd5b50505050600d54600014156152e15742600d555b6000600760008381526020019081526020016000209050338160000160006101000a8154816001600160a01b0302191690836001600160a01b0316021790555060066000336001600160a01b03166001600160a01b03168152602001908152602001600020805490508160010181905550858160020160006101000a8154816001600160801b0302191690836001600160801b03160217905550878160020160106101000a81548162ffffff021916908360020b62ffffff160217905550868160020160136101000a81548162ffffff021916908360020b62ffffff160217905550428160020160166101000a81548163ffffffff021916908363ffffffff160217905550600081600201601a6101000a81548163ffffffff021916908363ffffffff1602179055508263ffffffff168160030160006101000a8154816001600160a01b0302191690836001600160a01b0316021790555060008160040160006101000a8154816001600160a01b0302191690836001600160a01b0316021790555060066000336001600160a01b03166001600160a01b031681526020019081526020016000208290806001815401808255809150506001900390600052602060002001600090919091909150556154cd866001600160801b0316600554614a0c90919063ffffffff16565b6005556018546154de906001614a0c565b601855336000908152600960205260409020805460ff1661550b57600a54615507906001614a0c565b600a555b805460ff19166001908117825581015461552e906001600160801b038916614a0c565b60018281019190915560008481526008602052604090206001600160801b038916808255918101805463ffffffff19164263ffffffff9081169190911790915560165491926001600160a01b039092169163156e29f6913391889161559a9190633b9aca00906149b316565b6040518463ffffffff1660e01b815260040180846001600160a01b031681526020018381526020018281526020019350505050602060405180830381600087803b1580156155e757600080fd5b505af11580156155fb573d6000803e3d6000fd5b505050506040513d602081101561561157600080fd5b5061561c90506114f6565b601254604080518681526001600160801b038b16602082015281516001600160a01b039093169233927f6c86f3fd5118b3aa8bb4f389a617046de0a3d3d477de1a1673d227f802f616dc928290030190a3505050505050505050505050505050565b6000611a7f826158f8565b60008263ffffffff168263ffffffff1611156156a157fe5b50900390565b60006156b383836158e0565b6156e957508154600181810184556000848152602080822090930184905584548482528286019093526040902091909155611a7f565b506000611a7f565b600081848411156157805760405162461bcd60e51b81526004018080602001828103825283818151815260200191508051906020019080838360005b8381101561574557818101518382015260200161572d565b50505050905090810190601f1680156157725780820380516001836020036101000a031916815260200191505b509250505060405180910390fd5b505050900390565b6000676765c793fa10079d601b1b6157b86157a385856158fc565b6002676765c793fa10079d601b1b5b0461595f565b816157bf57fe5b049392505050565b6000816157b86157e285676765c793fa10079d601b1b6158fc565b6002856157b2565b600081836158395760405162461bcd60e51b815260206004820181815283516024840152835190928392604490910191908501908083836000831561574557818101518382015260200161572d565b50600083858161584557fe5b0495945050505050565b6000676765c793fa10079d601b1b6157b884846158fc565b60006135b1836001600160a01b0384166159ae565b815460009082106158be5760405162461bcd60e51b8152600401808060200182810382526022815260200180615acf6022913960400191505060405180910390fd5b8260000182815481106158cd57fe5b9060005260206000200154905092915050565b60009081526001919091016020526040902054151590565b5490565b60008115806159175750508082028282828161591457fe5b04145b611a7f576040805162461bcd60e51b815260206004820152601460248201527364732d6d6174682d6d756c2d6f766572666c6f7760601b604482015290519081900360640190fd5b80820182811015611a7f576040805162461bcd60e51b815260206004820152601460248201527364732d6d6174682d6164642d6f766572666c6f7760601b604482015290519081900360640190fd5b60008181526001830160205260408120548015615a6a57835460001980830191908101906000908790839081106159e157fe5b90600052602060002001549050808760000184815481106159fe57fe5b600091825260208083209091019290925582815260018981019092526040902090840190558654879080615a2e57fe5b60019003818190600052602060002001600090559055866001016000878152602001908152602001600020600090556001945050505050611a7f565b6000915050611a7f565b60405180604001604052806002906020820280368337509192915050565b6040518060a001604052806005906020820280368337509192915050565b6040518060800160405280600490602082028036833750919291505056fe456e756d657261626c655365743a20696e646578206f7574206f6620626f756e64735374616b65556e697377617056333a207a65726f206f722073616d65205f73616c65537461727454696d655374616b65556e697377617056333a20617661696c61626c652061667465722073616c65537461727454696d65416363657373436f6e74726f6c3a2073656e646572206d75737420626520616e2061646d696e20746f206772616e745374616b65556e697377617056333a20616c72656164792073657420706f6f6c4164647265737341636365737369626c653a2043616c6c6572206973206e6f7420616e2061646d696e5374616b65556e697377617056333a20656e64206d696e696e6720706572696f64416363657373436f6e74726f6c3a2073656e646572206d75737420626520616e2061646d696e20746f207265766f6b655374616b65556e6973776170563353746f726167653a207a65726f20616464726573735374616b65556e697377617056333a20706f6f6c277320746f6b656e732061726520646966666572656e745374616b65556e697377617056333a2064656c65746555736572546f6b656e206d69736d6174636820746f6b656e49645374616b65556e697377617056333a2043616c6c6572206973206e6f7420746f6b656e49642773206f776e6572536166654d6174683a206d756c7469706c69636174696f6e206f766572666c6f775374616b65556e697377617056333a206c6971756964697479206973207a65726f5374616b65556e697377617056333a2063616c6c6572206973206e6f7420746f6b656e49642773207374616b6572df8b4c520ffe197c5343c6f5aec59570151ef9a492f2c624fd45ddde6135ec425374616b65556e697377617056333a206d696e696e67416d6f756e74206973207a65726f5374616b65556e697377617056333a206f7574206f66207469636b2072616e67655374616b65556e697377617056333a20706f6f6c41646472657373206973207a65726f416363657373436f6e74726f6c3a2063616e206f6e6c792072656e6f756e636520726f6c657320666f722073656c66a264697066735822122017e4948c8a804d5f588d4d736df93137aff75d0a38bba192fb0156cfbe7d3ea664736f6c63430007060033df8b4c520ffe197c5343c6f5aec59570151ef9a492f2c624fd45ddde6135ec42",
  "immutableReferences": {},
  "source": "// SPDX-License-Identifier: MIT\npragma solidity ^0.7.6;\n\nimport \"@uniswap/v3-core/contracts/interfaces/IUniswapV3Pool.sol\";\nimport \"@uniswap/v3-periphery/contracts/interfaces/INonfungiblePositionManager.sol\";\nimport \"@uniswap/v3-periphery/contracts/libraries/TransferHelper.sol\";\nimport \"@uniswap/v3-periphery/contracts/libraries/PoolAddress.sol\";\n\nimport \"@openzeppelin/contracts/token/ERC721/IERC721.sol\";\nimport \"../interfaces/IStakeRegistry.sol\";\nimport \"../interfaces/IStakeUniswapV3.sol\";\nimport \"../interfaces/IAutoRefactorCoinageWithTokenId.sol\";\nimport \"../interfaces/IIStake2Vault.sol\";\nimport \"../libraries/LibTokenStake1.sol\";\nimport {DSMath} from \"../libraries/DSMath.sol\";\nimport \"../common/AccessibleCommon.sol\";\nimport \"../stake/StakeUniswapV3Storage.sol\";\nimport \"@openzeppelin/contracts/math/SafeMath.sol\";\nimport \"../libraries/SafeMath32.sol\";\n\n/// @title StakeUniswapV3\n/// @notice Uniswap V3 Contract for staking LP and mining TOS\ncontract StakeUniswapV3 is\n    StakeUniswapV3Storage,\n    AccessibleCommon,\n    IStakeUniswapV3,\n    DSMath\n{\n    using SafeMath for uint256;\n    using SafeMath32 for uint32;\n\n    struct PositionInfo {\n        // the amount of liquidity owned by this position\n        uint128 liquidity;\n        // fee growth per unit of liquidity as of the last update to liquidity or fees owed\n        uint256 feeGrowthInside0LastX128;\n        uint256 feeGrowthInside1LastX128;\n        // the fees owed to the position owner in token0/token1\n        uint128 tokensOwed0;\n        uint128 tokensOwed1;\n    }\n\n    struct Slot0 {\n        // the current price\n        uint160 sqrtPriceX96;\n        // the current tick\n        int24 tick;\n        // the most-recently updated index of the observations array\n        uint16 observationIndex;\n        // the current maximum number of observations that are being stored\n        uint16 observationCardinality;\n        // the next maximum number of observations to store, triggered in observations.write\n        uint16 observationCardinalityNext;\n        // the current protocol fee as a percentage of the swap fee taken on withdrawal\n        // represented as an integer denominator (1/x)%\n        uint8 feeProtocol;\n        // whether the pool is locked\n        bool unlocked;\n    }\n    struct Balance {\n        uint256 balance;\n        uint256 refactoredCount;\n        uint256 remain;\n    }\n\n    modifier lock() {\n        require(_lock == 0, \"StakeUniswapV3: LOCKED\");\n        _lock = 1;\n        _;\n        _lock = 0;\n    }\n\n    /// @dev event on staking\n    /// @param to the sender\n    /// @param poolAddress the pool address of uniswapV3\n    /// @param tokenId the uniswapV3 Lp token\n    /// @param amount the amount of staking\n    event Staked(\n        address indexed to,\n        address indexed poolAddress,\n        uint256 tokenId,\n        uint256 amount\n    );\n\n    /// @dev event on claim\n    /// @param to the sender\n    /// @param poolAddress the pool address of uniswapV3\n    /// @param tokenId the uniswapV3 Lp token\n    /// @param miningAmount the amount of mining\n    /// @param nonMiningAmount the amount of non-mining\n    event Claimed(\n        address indexed to,\n        address poolAddress,\n        uint256 tokenId,\n        uint256 miningAmount,\n        uint256 nonMiningAmount\n    );\n\n    /// @dev event on withdrawal\n    /// @param to the sender\n    /// @param tokenId the uniswapV3 Lp token\n    /// @param miningAmount the amount of mining\n    /// @param nonMiningAmount the amount of non-mining\n    event WithdrawalToken(\n        address indexed to,\n        uint256 tokenId,\n        uint256 miningAmount,\n        uint256 nonMiningAmount\n    );\n\n    /// @dev event on mining in coinage\n    /// @param curTime the current time\n    /// @param miningInterval mining period (sec)\n    /// @param miningAmount the mining amount\n    /// @param prevTotalSupply Total amount of coinage before mining\n    /// @param afterTotalSupply Total amount of coinage after being mined\n    /// @param factor coinage's Factor\n    event MinedCoinage(\n        uint256 curTime,\n        uint256 miningInterval,\n        uint256 miningAmount,\n        uint256 prevTotalSupply,\n        uint256 afterTotalSupply,\n        uint256 factor\n    );\n\n    /// @dev event on burning in coinage\n    /// @param curTime the current time\n    /// @param tokenId the token id\n    /// @param burningAmount the buring amount\n    /// @param prevTotalSupply Total amount of coinage before mining\n    /// @param afterTotalSupply Total amount of coinage after being mined\n    event BurnedCoinage(\n        uint256 curTime,\n        uint256 tokenId,\n        uint256 burningAmount,\n        uint256 prevTotalSupply,\n        uint256 afterTotalSupply\n    );\n\n    /// @dev constructor of StakeCoinage\n    constructor() {\n        _setRoleAdmin(ADMIN_ROLE, ADMIN_ROLE);\n        _setupRole(ADMIN_ROLE, msg.sender);\n\n        miningIntervalSeconds = 13;\n    }\n\n    /// @dev receive ether - revert\n    receive() external payable {\n        revert();\n    }\n\n    /// @dev Mining interval setting (seconds)\n    /// @param _intervalSeconds the mining interval (sec)\n    function setMiningIntervalSeconds(uint256 _intervalSeconds)\n        external\n        onlyOwner\n    {\n        miningIntervalSeconds = _intervalSeconds;\n    }\n\n    /// @dev reset coinage's last mining time variable for tes\n    function resetCoinageTime() external onlyOwner {\n        // saleStartTime = 0;\n        // stakeStartTime = 0;\n        coinageLastMintBlockTimetamp = 0;\n    }\n\n    /// @dev set sale start time\n    /// @param _saleStartTime sale start time\n    function setSaleStartTime(uint256 _saleStartTime) external onlyOwner {\n        require(\n            _saleStartTime > 0 && saleStartTime != _saleStartTime,\n            \"StakeUniswapV3: zero or same _saleStartTime\"\n        );\n        saleStartTime = _saleStartTime;\n    }\n\n    /// @dev calculate the factor of coinage\n    /// @param source tsource\n    /// @param target target\n    /// @param oldFactor oldFactor\n    function _calcNewFactor(\n        uint256 source,\n        uint256 target,\n        uint256 oldFactor\n    ) internal pure returns (uint256) {\n        return rdiv(rmul(target, oldFactor), source);\n    }\n\n    /// @dev delete user's token storage of index place\n    /// @param _owner tokenId's owner\n    /// @param tokenId tokenId\n    /// @param _index owner's tokenId's index\n    function deleteUserToken(\n        address _owner,\n        uint256 tokenId,\n        uint256 _index\n    ) internal {\n        uint256 _tokenid = userStakedTokenIds[_owner][_index];\n        require(\n            _tokenid == tokenId,\n            \"StakeUniswapV3: deleteUserToken mismatch tokenId\"\n        );\n        uint256 lastIndex = userStakedTokenIds[_owner].length - 1;\n        if (tokenId > 0 && _tokenid == tokenId) {\n            if (_index < lastIndex) {\n                uint256 tokenId_lastIndex =\n                    userStakedTokenIds[_owner][lastIndex];\n                userStakedTokenIds[_owner][_index] = tokenId_lastIndex;\n                depositTokens[tokenId_lastIndex].idIndex = _index;\n            }\n            userStakedTokenIds[_owner].pop();\n        }\n    }\n\n    /// @dev mining on coinage, Mining conditions :  the sale start time must pass,\n    /// the stake start time must pass, the vault mining start time (sale start time) passes,\n    /// the mining interval passes, and the current total amount is not zero,\n    function miningCoinage() public lock {\n        if (saleStartTime == 0 || saleStartTime > block.timestamp) return;\n        if (stakeStartTime == 0 || stakeStartTime > block.timestamp) return;\n        if (\n            IIStake2Vault(vault).miningStartTime() > block.timestamp ||\n            IIStake2Vault(vault).miningEndTime() < block.timestamp\n        ) return;\n\n        if (coinageLastMintBlockTimetamp == 0)\n            coinageLastMintBlockTimetamp = stakeStartTime;\n\n        if (\n            block.timestamp >\n            (coinageLastMintBlockTimetamp.add(miningIntervalSeconds))\n        ) {\n            uint256 miningInterval =\n                block.timestamp.sub(coinageLastMintBlockTimetamp);\n            uint256 miningAmount =\n                miningInterval.mul(IIStake2Vault(vault).miningPerSecond());\n            uint256 prevTotalSupply =\n                IAutoRefactorCoinageWithTokenId(coinage).totalSupply();\n\n            if (miningAmount > 0 && prevTotalSupply > 0) {\n                uint256 afterTotalSupply =\n                    prevTotalSupply.add(miningAmount.mul(10**9));\n                uint256 factor =\n                    IAutoRefactorCoinageWithTokenId(coinage).setFactor(\n                        _calcNewFactor(\n                            prevTotalSupply,\n                            afterTotalSupply,\n                            IAutoRefactorCoinageWithTokenId(coinage).factor()\n                        )\n                    );\n                coinageLastMintBlockTimetamp = block.timestamp;\n\n                emit MinedCoinage(\n                    block.timestamp,\n                    miningInterval,\n                    miningAmount,\n                    prevTotalSupply,\n                    afterTotalSupply,\n                    factor\n                );\n            }\n        }\n    }\n\n    /// @dev view mining information of tokenId\n    /// @param tokenId  tokenId\n    function getMiningTokenId(uint256 tokenId)\n        public\n        view\n        override\n        nonZeroAddress(poolAddress)\n        returns (\n            uint256 miningAmount,\n            uint256 nonMiningAmount,\n            uint256 minableAmount,\n            uint160 secondsInside,\n            uint256 secondsInsideDiff256,\n            uint256 liquidity,\n            uint256 balanceOfTokenIdRay,\n            uint256 minableAmountRay,\n            uint256 secondsInside256,\n            uint256 secondsAbsolute256\n        )\n    {\n        if (\n            stakeStartTime < block.timestamp && stakeStartTime < block.timestamp\n        ) {\n            LibUniswapV3Stake.StakeLiquidity storage _depositTokens =\n                depositTokens[tokenId];\n            liquidity = _depositTokens.liquidity;\n\n            uint32 secondsAbsolute = 0;\n            balanceOfTokenIdRay = IAutoRefactorCoinageWithTokenId(coinage)\n                .balanceOf(tokenId);\n\n            if (_depositTokens.liquidity > 0 && balanceOfTokenIdRay > 0) {\n                if (balanceOfTokenIdRay > liquidity.mul(10**9)) {\n                    minableAmountRay = balanceOfTokenIdRay.sub(\n                        liquidity.mul(10**9)\n                    );\n                    minableAmount = minableAmountRay.div(10**9);\n                }\n                if (minableAmount > 0) {\n                    (, , secondsInside) = IUniswapV3Pool(poolAddress)\n                        .snapshotCumulativesInside(\n                        _depositTokens.tickLower,\n                        _depositTokens.tickUpper\n                    );\n                    secondsInside256 = uint256(secondsInside);\n\n                    if (_depositTokens.claimedTime > 0)\n                        secondsAbsolute = uint32(block.timestamp).sub(\n                            _depositTokens.claimedTime\n                        );\n                    else\n                        secondsAbsolute = uint32(block.timestamp).sub(\n                            _depositTokens.startTime\n                        );\n                    secondsAbsolute256 = uint256(secondsAbsolute);\n\n                    if (secondsAbsolute > 0) {\n                        if (_depositTokens.secondsInsideLast > 0) {\n                            secondsInsideDiff256 = secondsInside256.sub(\n                                uint256(_depositTokens.secondsInsideLast)\n                            );\n                        } else {\n                            secondsInsideDiff256 = secondsInside256.sub(\n                                uint256(_depositTokens.secondsInsideInitial)\n                            );\n                        }\n\n                        if (\n                            secondsInsideDiff256 < secondsAbsolute256 &&\n                            secondsInsideDiff256 > 0\n                        ) {\n                            miningAmount = minableAmount\n                                .mul(secondsInsideDiff256)\n                                .div(secondsAbsolute256);\n                            nonMiningAmount = minableAmount.sub(miningAmount);\n                        } else {\n                            miningAmount = minableAmount;\n                        }\n                    }\n                }\n            }\n        }\n    }\n\n    /// @dev With the given tokenId, information is retrieved from nonfungiblePositionManager,\n    ///      and the pool address is calculated and set.\n    /// @param tokenId  tokenId\n    function setPoolAddress(uint256 tokenId)\n        external\n        nonZeroAddress(token)\n        nonZeroAddress(vault)\n        nonZeroAddress(stakeRegistry)\n        nonZeroAddress(poolToken0)\n        nonZeroAddress(poolToken1)\n        nonZeroAddress(address(nonfungiblePositionManager))\n        nonZeroAddress(uniswapV3FactoryAddress)\n    {\n        require(\n            poolAddress == address(0),\n            \"StakeUniswapV3: already set poolAddress\"\n        );\n        (, , address token0, address token1, uint24 fee, , , , , , , ) =\n            nonfungiblePositionManager.positions(tokenId);\n\n        require(\n            (token0 == poolToken0 && token1 == poolToken1) ||\n                (token0 == poolToken1 && token1 == poolToken0),\n            \"StakeUniswapV3: pool's tokens are different\"\n        );\n        poolToken0 = token0;\n        poolToken1 = token1;\n\n        poolAddress = PoolAddress.computeAddress(\n            uniswapV3FactoryAddress,\n            PoolAddress.PoolKey({token0: token0, token1: token1, fee: fee})\n        );\n        poolFee = fee;\n    }\n\n    /// @dev stake tokenId of UniswapV3\n    /// @param tokenId  tokenId\n    /// @param deadline the deadline that valid the owner's signature\n    /// @param v the owner's signature - v\n    /// @param r the owner's signature - r\n    /// @param s the owner's signature - s\n    function stakePermit(\n        uint256 tokenId,\n        uint256 deadline,\n        uint8 v,\n        bytes32 r,\n        bytes32 s\n    )\n        external\n        override\n        nonZeroAddress(token)\n        nonZeroAddress(vault)\n        nonZeroAddress(stakeRegistry)\n        nonZeroAddress(poolToken0)\n        nonZeroAddress(poolToken1)\n        nonZeroAddress(address(nonfungiblePositionManager))\n        nonZeroAddress(uniswapV3FactoryAddress)\n    {\n        require(\n            saleStartTime < block.timestamp,\n            \"StakeUniswapV3: available after saleStartTime\"\n        );\n\n        require(\n            block.timestamp < IIStake2Vault(vault).miningEndTime(),\n            \"StakeUniswapV3: end mining period\"\n        );\n\n        require(\n            nonfungiblePositionManager.ownerOf(tokenId) == msg.sender,\n            \"StakeUniswapV3: Caller is not tokenId's owner\"\n        );\n\n        nonfungiblePositionManager.permit(\n            address(this),\n            tokenId,\n            deadline,\n            v,\n            r,\n            s\n        );\n\n        _stake(tokenId);\n    }\n\n    /// @dev stake tokenId of UniswapV3\n    /// @param tokenId  tokenId\n    function stake(uint256 tokenId)\n        external\n        override\n        nonZeroAddress(token)\n        nonZeroAddress(vault)\n        nonZeroAddress(stakeRegistry)\n        nonZeroAddress(poolToken0)\n        nonZeroAddress(poolToken1)\n        nonZeroAddress(address(nonfungiblePositionManager))\n        nonZeroAddress(uniswapV3FactoryAddress)\n    {\n        require(\n            saleStartTime < block.timestamp,\n            \"StakeUniswapV3: available after saleStartTime\"\n        );\n        require(\n            block.timestamp < IIStake2Vault(vault).miningEndTime(),\n            \"StakeUniswapV3: end mining period\"\n        );\n        require(\n            nonfungiblePositionManager.ownerOf(tokenId) == msg.sender,\n            \"StakeUniswapV3: Caller is not tokenId's owner\"\n        );\n\n        _stake(tokenId);\n    }\n\n    /// @dev stake tokenId of UniswapV3\n    /// @param tokenId  tokenId\n    function _stake(uint256 tokenId) internal {\n        uint256 _tokenId = tokenId;\n        (\n            ,\n            ,\n            address token0,\n            address token1,\n            uint24 fee,\n            int24 tickLower,\n            int24 tickUpper,\n            uint128 liquidity,\n            ,\n            ,\n            ,\n\n        ) = nonfungiblePositionManager.positions(_tokenId);\n\n        require(\n            (token0 == poolToken0 && token1 == poolToken1) ||\n                (token0 == poolToken1 && token1 == poolToken0),\n            \"StakeUniswapV3: pool's tokens are different\"\n        );\n\n        require(liquidity > 0, \"StakeUniswapV3: liquidity is zero\");\n\n        if (poolAddress == address(0)) {\n            poolAddress = PoolAddress.computeAddress(\n                uniswapV3FactoryAddress,\n                PoolAddress.PoolKey({token0: token0, token1: token1, fee: fee})\n            );\n        }\n\n        require(\n            poolAddress != address(0),\n            \"StakeUniswapV3: poolAddress is zero\"\n        );\n\n        (, int24 tick, , , , , bool unlocked) =\n            IUniswapV3Pool(poolAddress).slot0();\n        require(unlocked, \"StakeUniswapV3: pool is closed\");\n        require(\n            tickLower < tick && tick < tickUpper,\n            \"StakeUniswapV3: out of tick range\"\n        );\n\n        (, , uint32 secondsInside) =\n            IUniswapV3Pool(poolAddress).snapshotCumulativesInside(\n                tickLower,\n                tickUpper\n            );\n\n        uint256 tokenId_ = _tokenId;\n\n        nonfungiblePositionManager.transferFrom(\n            msg.sender,\n            address(this),\n            tokenId_\n        );\n\n        // initial start time\n        if (stakeStartTime == 0) stakeStartTime = block.timestamp;\n\n        //depositTokens   \n        LibUniswapV3Stake.StakeLiquidity storage _depositTokens =\n            depositTokens[tokenId_];\n        _depositTokens.owner = msg.sender;\n        _depositTokens.idIndex = userStakedTokenIds[msg.sender].length;\n        _depositTokens.liquidity = liquidity;\n        _depositTokens.tickLower = tickLower;\n        _depositTokens.tickUpper = tickUpper;\n        _depositTokens.startTime = uint32(block.timestamp);\n        _depositTokens.claimedTime = 0;\n        _depositTokens.secondsInsideInitial = secondsInside;\n        _depositTokens.secondsInsideLast = 0;\n\n        // save tokenid\n        userStakedTokenIds[msg.sender].push(tokenId_);\n\n        totalStakedAmount = totalStakedAmount.add(liquidity);\n        totalTokens = totalTokens.add(1);\n\n        LibUniswapV3Stake.StakedTotalTokenAmount storage _userTotalStaked =\n            userTotalStaked[msg.sender];\n        if (!_userTotalStaked.staked) totalStakers = totalStakers.add(1);\n        _userTotalStaked.staked = true;\n        _userTotalStaked.totalDepositAmount = _userTotalStaked\n            .totalDepositAmount\n            .add(liquidity);\n\n        LibUniswapV3Stake.StakedTokenAmount storage _stakedCoinageTokens =\n            stakedCoinageTokens[tokenId_];\n        _stakedCoinageTokens.amount = liquidity;\n        _stakedCoinageTokens.startTime = uint32(block.timestamp);\n\n        //mint coinage of user amount\n        IAutoRefactorCoinageWithTokenId(coinage).mint(\n            msg.sender,\n            tokenId_,\n            uint256(liquidity).mul(10**9)\n        );\n\n        miningCoinage();\n\n        emit Staked(msg.sender, poolAddress, tokenId_, liquidity);\n    }\n\n    /// @dev The amount mined with the deposited liquidity is claimed and taken.\n    ///      The amount of mining taken is changed in proportion to the amount of time liquidity\n    ///       has been provided since recent mining\n    /// @param tokenId  tokenId\n    function claim(uint256 tokenId) external override {\n        LibUniswapV3Stake.StakeLiquidity storage _depositTokens =\n            depositTokens[tokenId];\n\n        require(\n            _depositTokens.owner == msg.sender,\n            \"StakeUniswapV3: caller is not tokenId's staker\"\n        );\n\n        miningCoinage();\n\n        (\n            uint256 miningAmount,\n            uint256 nonMiningAmount,\n            uint256 minableAmount,\n            uint160 secondsInside,\n            ,\n            ,\n            ,\n            uint256 minableAmountRay,\n            ,\n\n        ) = getMiningTokenId(tokenId);\n\n        require(miningAmount > 0, \"StakeUniswapV3: miningAmount is zero\");\n\n        _depositTokens.claimedTime = uint32(block.timestamp);\n        _depositTokens.secondsInsideLast = secondsInside;\n\n        IAutoRefactorCoinageWithTokenId(coinage).burn(\n            msg.sender,\n            tokenId,\n            minableAmountRay\n        );\n\n        // storage  stakedCoinageTokens\n        LibUniswapV3Stake.StakedTokenAmount storage _stakedCoinageTokens =\n            stakedCoinageTokens[tokenId];\n        _stakedCoinageTokens.claimedTime = uint32(block.timestamp);\n        _stakedCoinageTokens.claimedAmount = _stakedCoinageTokens\n            .claimedAmount\n            .add(miningAmount);\n        _stakedCoinageTokens.nonMiningAmount = _stakedCoinageTokens\n            .nonMiningAmount\n            .add(nonMiningAmount);\n\n        // storage  StakedTotalTokenAmount\n        LibUniswapV3Stake.StakedTotalTokenAmount storage _userTotalStaked =\n            userTotalStaked[msg.sender];\n        _userTotalStaked.totalMiningAmount = _userTotalStaked\n            .totalMiningAmount\n            .add(miningAmount);\n        _userTotalStaked.totalNonMiningAmount = _userTotalStaked\n            .totalNonMiningAmount\n            .add(nonMiningAmount);\n\n        // total\n        miningAmountTotal = miningAmountTotal.add(miningAmount);\n        nonMiningAmountTotal = nonMiningAmountTotal.add(nonMiningAmount);\n\n        require(\n            IIStake2Vault(vault).claimMining(\n                msg.sender,\n                minableAmount,\n                miningAmount,\n                nonMiningAmount\n            )\n        );\n        emit Claimed(\n            msg.sender,\n            poolAddress,\n            tokenId,\n            miningAmount,\n            nonMiningAmount\n        );\n    }\n\n    /// @dev withdraw the deposited token.\n    ///      The amount mined with the deposited liquidity is claimed and taken.\n    ///      The amount of mining taken is changed in proportion to the amount of time liquidity\n    ///      has been provided since recent mining\n    /// @param tokenId  tokenId\n    function withdraw(uint256 tokenId) external override {\n        LibUniswapV3Stake.StakeLiquidity storage _depositTokens =\n            depositTokens[tokenId];\n        require(\n            _depositTokens.owner == msg.sender,\n            \"StakeUniswapV3: caller is not tokenId's staker\"\n        );\n\n        //miningCoinage();\n\n        if (totalStakedAmount >= _depositTokens.liquidity)\n            totalStakedAmount = totalStakedAmount.sub(_depositTokens.liquidity);\n\n        if (totalTokens > 0) totalTokens = totalTokens.sub(1);\n\n        (\n            uint256 miningAmount,\n            uint256 nonMiningAmount,\n            uint256 minableAmount,\n            ,\n            ,\n            ,\n            ,\n            ,\n            ,\n\n        ) = getMiningTokenId(tokenId);\n\n        IAutoRefactorCoinageWithTokenId(coinage).burnTokenId(\n            msg.sender,\n            tokenId\n        );\n\n        // storage  StakedTotalTokenAmount\n        LibUniswapV3Stake.StakedTotalTokenAmount storage _userTotalStaked =\n            userTotalStaked[msg.sender];\n        _userTotalStaked.totalDepositAmount = _userTotalStaked\n            .totalDepositAmount\n            .sub(_depositTokens.liquidity);\n        _userTotalStaked.totalMiningAmount = _userTotalStaked\n            .totalMiningAmount\n            .add(miningAmount);\n        _userTotalStaked.totalNonMiningAmount = _userTotalStaked\n            .totalNonMiningAmount\n            .add(nonMiningAmount);\n\n        // total\n        miningAmountTotal = miningAmountTotal.add(miningAmount);\n        nonMiningAmountTotal = nonMiningAmountTotal.add(nonMiningAmount);\n\n        deleteUserToken(_depositTokens.owner, tokenId, _depositTokens.idIndex);\n\n        delete depositTokens[tokenId];\n        delete stakedCoinageTokens[tokenId];\n\n        if (_userTotalStaked.totalDepositAmount == 0) {\n            totalStakers = totalStakers.sub(1);\n            delete userTotalStaked[msg.sender];\n        }\n\n        if (minableAmount > 0)\n            require(\n                IIStake2Vault(vault).claimMining(\n                    msg.sender,\n                    minableAmount,\n                    miningAmount,\n                    nonMiningAmount\n                )\n            );\n\n        nonfungiblePositionManager.safeTransferFrom(\n            address(this),\n            msg.sender,\n            tokenId\n        );\n\n        emit WithdrawalToken(\n            msg.sender,\n            tokenId,\n            miningAmount,\n            nonMiningAmount\n        );\n    }\n\n    /// @dev Get the list of staked tokens of the user\n    /// @param user  user address\n    function getUserStakedTokenIds(address user)\n        external\n        view\n        override\n        returns (uint256[] memory ids)\n    {\n        return userStakedTokenIds[user];\n    }\n\n    /// @dev tokenId's deposited information\n    /// @param tokenId   tokenId\n    /// @return _poolAddress   poolAddress\n    /// @return tick tick,\n    /// @return liquidity liquidity,\n    /// @return args liquidity,  startTime, claimedTime, startBlock, claimedBlock, claimedAmount\n    /// @return secondsPL secondsPerLiquidityInsideInitialX128, secondsPerLiquidityInsideX128Las\n    function getDepositToken(uint256 tokenId)\n        external\n        view\n        override\n        returns (\n            address _poolAddress,\n            int24[2] memory tick,\n            uint128 liquidity,\n            uint256[5] memory args,\n            uint160[2] memory secondsPL\n        )\n    {\n        LibUniswapV3Stake.StakeLiquidity memory _depositTokens =\n            depositTokens[tokenId];\n        LibUniswapV3Stake.StakedTokenAmount memory _stakedCoinageTokens =\n            stakedCoinageTokens[tokenId];\n\n        return (\n            poolAddress,\n            [_depositTokens.tickLower, _depositTokens.tickUpper],\n            _depositTokens.liquidity,\n            [\n                _depositTokens.startTime,\n                _depositTokens.claimedTime,\n                _stakedCoinageTokens.startTime,\n                _stakedCoinageTokens.claimedTime,\n                _stakedCoinageTokens.claimedAmount\n            ],\n            [\n                _depositTokens.secondsInsideInitial,\n                _depositTokens.secondsInsideLast\n            ]\n        );\n    }\n\n    /// @dev user's staked total infos\n    /// @param user  user address\n    /// @return totalDepositAmount  total deposited amount\n    /// @return totalMiningAmount total mining amount ,\n    /// @return totalNonMiningAmount total non-mining amount,\n    function getUserStakedTotal(address user)\n        external\n        view\n        override\n        returns (\n            uint256 totalDepositAmount,\n            uint256 totalMiningAmount,\n            uint256 totalNonMiningAmount\n        )\n    {\n        return (\n            userTotalStaked[user].totalDepositAmount,\n            userTotalStaked[user].totalMiningAmount,\n            userTotalStaked[user].totalNonMiningAmount\n        );\n    }\n\n    /// @dev totalSupply of coinage\n    function totalSupplyCoinage() external view returns (uint256) {\n        return IAutoRefactorCoinageWithTokenId(coinage).totalSupply();\n    }\n\n    /// @dev balanceOf of tokenId's coinage\n    function balanceOfCoinage(uint256 tokenId) external view returns (uint256) {\n        return IAutoRefactorCoinageWithTokenId(coinage).balanceOf(tokenId);\n    }\n\n    /// @dev Give the infomation of this stakeContracts\n    /// @return return1  [token, vault, stakeRegistry, coinage]\n    /// @return return2  [poolToken0, poolToken1, nonfungiblePositionManager, uniswapV3FactoryAddress]\n    /// @return return3  [totalStakers, totalStakedAmount, miningAmountTotal,nonMiningAmountTotal]\n    function infos()\n        external\n        view\n        override\n        returns (\n            address[4] memory,\n            address[4] memory,\n            uint256[4] memory\n        )\n    {\n        return (\n            [token, vault, stakeRegistry, coinage],\n            [\n                poolToken0,\n                poolToken1,\n                address(nonfungiblePositionManager),\n                uniswapV3FactoryAddress\n            ],\n            [\n                totalStakers,\n                totalStakedAmount,\n                miningAmountTotal,\n                nonMiningAmountTotal\n            ]\n        );\n    }\n\n    /// @dev minable amount of tokenId\n    /// @dev tokenId tokenId\n    /// @return balanceOfRayTokenId  balanceOf of tokenId with ray unit\n    /// @return minableAmountRay  minable amount of tokenId with ray unit\n    function canMiningAmountTokenId(uint256 tokenId)\n        external\n        view\n        override\n        returns (uint256 balanceOfRayTokenId, uint256 minableAmountRay)\n    {\n        LibUniswapV3Stake.StakeLiquidity storage _depositTokens =\n            depositTokens[tokenId];\n\n        balanceOfRayTokenId = IAutoRefactorCoinageWithTokenId(coinage)\n            .balanceOf(tokenId);\n\n        if (\n            balanceOfRayTokenId > 0 &&\n            balanceOfRayTokenId > uint256(_depositTokens.liquidity).mul(10**9)\n        ) {\n            minableAmountRay = balanceOfRayTokenId.sub(\n                uint256(_depositTokens.liquidity).mul(10**9)\n            );\n        }\n    }\n\n    /// @dev pool's infos\n    /// @return factory  pool's factory address\n    /// @return token0  token0 address\n    /// @return token1  token1 address\n    /// @return fee  fee\n    /// @return tickSpacing  tickSpacing\n    /// @return maxLiquidityPerTick  maxLiquidityPerTick\n    /// @return liquidity  pool's liquidity\n    function poolInfos()\n        external\n        view\n        override\n        nonZeroAddress(poolAddress)\n        returns (\n            address factory,\n            address token0,\n            address token1,\n            uint24 fee,\n            int24 tickSpacing,\n            uint128 maxLiquidityPerTick,\n            uint128 liquidity\n        )\n    {\n        liquidity = IUniswapV3Pool(poolAddress).liquidity();\n        factory = IUniswapV3Pool(poolAddress).factory();\n        token0 = IUniswapV3Pool(poolAddress).token0();\n        token1 = IUniswapV3Pool(poolAddress).token1();\n        fee = IUniswapV3Pool(poolAddress).fee();\n        tickSpacing = IUniswapV3Pool(poolAddress).tickSpacing();\n        maxLiquidityPerTick = IUniswapV3Pool(poolAddress).maxLiquidityPerTick();\n    }\n\n    /// @dev key's info\n    /// @param key hash(owner, tickLower, tickUpper)\n    /// @return _liquidity  key's liquidity\n    /// @return feeGrowthInside0LastX128  key's feeGrowthInside0LastX128\n    /// @return feeGrowthInside1LastX128  key's feeGrowthInside1LastX128\n    /// @return tokensOwed0  key's tokensOwed0\n    /// @return tokensOwed1  key's tokensOwed1\n    function poolPositions(bytes32 key)\n        external\n        view\n        override\n        nonZeroAddress(poolAddress)\n        returns (\n            uint128 _liquidity,\n            uint256 feeGrowthInside0LastX128,\n            uint256 feeGrowthInside1LastX128,\n            uint128 tokensOwed0,\n            uint128 tokensOwed1\n        )\n    {\n        (\n            _liquidity,\n            feeGrowthInside0LastX128,\n            feeGrowthInside1LastX128,\n            tokensOwed0,\n            tokensOwed1\n        ) = IUniswapV3Pool(poolAddress).positions(key);\n    }\n\n    /// @dev pool's slot0 (current position)\n    /// @return sqrtPriceX96  The current price of the pool as a sqrt(token1/token0) Q64.96 value\n    /// @return tick  The current tick of the pool\n    /// @return observationIndex  The index of the last oracle observation that was written,\n    /// @return observationCardinality  The current maximum number of observations stored in the pool,\n    /// @return observationCardinalityNext  The next maximum number of observations, to be updated when the observation.\n    /// @return feeProtocol  The protocol fee for both tokens of the pool\n    /// @return unlocked  Whether the pool is currently locked to reentrancy\n    function poolSlot0()\n        external\n        view\n        override\n        nonZeroAddress(poolAddress)\n        returns (\n            uint160 sqrtPriceX96,\n            int24 tick,\n            uint16 observationIndex,\n            uint16 observationCardinality,\n            uint16 observationCardinalityNext,\n            uint8 feeProtocol,\n            bool unlocked\n        )\n    {\n        (\n            sqrtPriceX96,\n            tick,\n            observationIndex,\n            observationCardinality,\n            observationCardinalityNext,\n            feeProtocol,\n            unlocked\n        ) = IUniswapV3Pool(poolAddress).slot0();\n    }\n\n    /// @dev _tokenId's position\n    /// @param _tokenId  tokenId\n    /// @return nonce  the nonce for permits\n    /// @return operator  the address that is approved for spending this token\n    /// @return token0  The address of the token0 for pool\n    /// @return token1  The address of the token1 for pool\n    /// @return fee  The fee associated with the pool\n    /// @return tickLower  The lower end of the tick range for the position\n    /// @return tickUpper  The higher end of the tick range for the position\n    /// @return liquidity  The liquidity of the position\n    /// @return feeGrowthInside0LastX128  The fee growth of token0 as of the last action on the individual position\n    /// @return feeGrowthInside1LastX128  The fee growth of token1 as of the last action on the individual position\n    /// @return tokensOwed0  The uncollected amount of token0 owed to the position as of the last computation\n    /// @return tokensOwed1  The uncollected amount of token1 owed to the position as of the last computation\n    function npmPositions(uint256 _tokenId)\n        external\n        view\n        override\n        nonZeroAddress(address(nonfungiblePositionManager))\n        returns (\n            uint96 nonce,\n            address operator,\n            address token0,\n            address token1,\n            uint24 fee,\n            int24 tickLower,\n            int24 tickUpper,\n            uint128 liquidity,\n            uint256 feeGrowthInside0LastX128,\n            uint256 feeGrowthInside1LastX128,\n            uint128 tokensOwed0,\n            uint128 tokensOwed1\n        )\n    {\n        return nonfungiblePositionManager.positions(_tokenId);\n    }\n\n    /// @dev snapshotCumulativesInside\n    /// @param tickLower  The lower tick of the range\n    /// @param tickUpper  The upper tick of the range\n    /// @return tickCumulativeInside  The snapshot of the tick accumulator for the range\n    /// @return secondsPerLiquidityInsideX128  The snapshot of seconds per liquidity for the range\n    /// @return secondsInside  The snapshot of seconds per liquidity for the range\n    /// @return curTimestamps  current Timestamps\n    function snapshotCumulativesInside(int24 tickLower, int24 tickUpper)\n        external\n        view\n        override\n        nonZeroAddress(poolAddress)\n        returns (\n            int56 tickCumulativeInside,\n            uint160 secondsPerLiquidityInsideX128,\n            uint32 secondsInside,\n            uint32 curTimestamps\n        )\n    {\n        tickCumulativeInside;\n        secondsPerLiquidityInsideX128;\n        secondsInside;\n        curTimestamps = uint32(block.timestamp);\n\n        (\n            tickCumulativeInside,\n            secondsPerLiquidityInsideX128,\n            secondsInside\n        ) = IUniswapV3Pool(poolAddress).snapshotCumulativesInside(\n            tickLower,\n            tickUpper\n        );\n    }\n\n    /// @dev mining end time\n    function miningEndTime()\n        external\n        view\n        override\n        nonZeroAddress(vault)\n        returns (uint256)\n    {\n        return IIStake2Vault(vault).miningEndTime();\n    }\n\n    /// @dev get price\n    function getPrice(uint256 decimals)\n        external\n        view\n        override\n        nonZeroAddress(poolAddress)\n        returns (uint256 price)\n    {\n        (uint160 sqrtPriceX96, , , , , , ) =\n            IUniswapV3Pool(poolAddress).slot0();\n\n        return\n            uint256(sqrtPriceX96).mul(uint256(sqrtPriceX96)).mul(decimals) >>\n            (96 * 2);\n    }\n\n\n    /// @dev current liquidity time of tokenId\n    function currentliquidityTokenId(uint256 tokenId, uint256 expectBlocktimestamp)\n        public\n        view\n        nonZeroAddress(poolAddress)\n        returns (\n            uint256 secondsAbsolute,\n            uint256 secondsInsideDiff256,\n            uint256 liquidity\n        )\n    {\n        if(stakeStartTime > 0){\n            uint256 expectTime = expectBlocktimestamp;\n            if(expectBlocktimestamp > block.timestamp ) expectTime = block.timestamp;\n\n            LibUniswapV3Stake.StakeLiquidity storage _depositTokens = depositTokens[tokenId];\n            (, ,uint160 secondsInside) = IUniswapV3Pool(poolAddress)\n                    .snapshotCumulativesInside(\n                    _depositTokens.tickLower,\n                    _depositTokens.tickUpper\n                );\n\n            liquidity = (uint256)(_depositTokens.liquidity);\n\n\n            if (_depositTokens.claimedTime > 0){\n                secondsAbsolute = expectTime.sub((uint256)(_depositTokens.claimedTime));\n            }\n            else{\n                secondsAbsolute = expectTime.sub((uint256)(_depositTokens.startTime));\n            }\n\n            if (secondsAbsolute > 0) {\n                if (_depositTokens.secondsInsideLast > 0) {\n                    secondsInsideDiff256 = uint256(secondsInside).sub(\n                        uint256(_depositTokens.secondsInsideLast)\n                    );\n                } else {\n                    secondsInsideDiff256 = uint256(secondsInside).sub(\n                        uint256(_depositTokens.secondsInsideInitial)\n                    );\n                }\n            }\n        }\n    }\n\n    /// @dev current liquidity time of tokenId\n    function currentCoinageBalanceTokenId(uint256 tokenId, uint256 expectBlocktimestamp)\n        public\n        view\n        nonZeroAddress(poolAddress)\n        returns (\n            uint256 currentTotalCoinage,\n            uint256 afterTotalCoinage,\n            uint256 afterBalanceTokenId\n        )\n    {\n        if(stakeStartTime > 0){\n            uint256 expectTime = expectBlocktimestamp;\n            if(expectBlocktimestamp > block.timestamp ) expectTime = block.timestamp;\n\n            currentTotalCoinage = IAutoRefactorCoinageWithTokenId(coinage).totalSupply();\n            (uint256 balance, uint256 refactoredCount, uint256 remain) = IAutoRefactorCoinageWithTokenId(coinage).balancesTokenId(tokenId);\n\n\n            uint256 coinageLastMintTime = coinageLastMintBlockTimetamp;\n            if (coinageLastMintTime == 0) coinageLastMintTime = stakeStartTime;\n\n            uint256 addIntervalTime = expectTime.sub(coinageLastMintTime);\n            if(miningIntervalSeconds > 0 && addIntervalTime > miningIntervalSeconds) addIntervalTime = addIntervalTime.sub(miningIntervalSeconds);\n\n            uint256 addAmountCoinage = addIntervalTime.mul(IIStake2Vault(vault).miningPerSecond());\n            afterTotalCoinage = currentTotalCoinage.add(addAmountCoinage.mul(10**9));\n\n            uint256 infactor = _calcNewFactor(currentTotalCoinage, afterTotalCoinage, IAutoRefactorCoinageWithTokenId(coinage).factor());\n\n            uint256 count = 0;\n            uint256 f = infactor;\n            for (; f >= 10**28; f = f.div(2)) {\n                count = count.add(1);\n            }\n            afterBalanceTokenId = applyCoinageFactor(balance, refactoredCount, f, count);\n            afterBalanceTokenId = afterBalanceTokenId.add(remain);\n        }\n    }\n\n    /// @dev expected claimable amount\n    function expectedPlusClaimableAmount(uint256 tokenId, uint256 expectBlocktimestamp)\n        external\n        view\n        nonZeroAddress(poolAddress)\n        returns (\n            uint256 miningAmount,\n            uint256 nonMiningAmount,\n            uint256 minableAmount,\n            uint256 minableAmountRay\n        )\n    {\n        if(stakeStartTime > 0){\n            //uint256 tokenId_ = tokenId;\n            uint256 expectTime = block.timestamp;\n            if(expectBlocktimestamp < expectTime\n            && expectBlocktimestamp > coinageLastMintBlockTimetamp ) expectTime = expectBlocktimestamp;\n\n            (\n                uint256 secondsAbsolute,\n                uint256 secondsInsideDiff256,\n                uint256 liquidity\n            ) = currentliquidityTokenId(tokenId, expectTime);\n\n            ( , ,\n                uint256 afterBalanceTokenId\n            ) = currentCoinageBalanceTokenId(tokenId, expectTime);\n\n            if ( liquidity > 0\n                && afterBalanceTokenId > liquidity.mul(10**9) ){\n                minableAmountRay = afterBalanceTokenId.sub(liquidity.mul(10**9));\n                minableAmount = minableAmountRay.div(10**9);\n            }\n            if (minableAmount > 0 &&  secondsAbsolute  > 0 ) {\n                if (\n                    secondsInsideDiff256 <  secondsAbsolute  &&\n                    secondsInsideDiff256 > 0\n                ) {\n                    miningAmount = minableAmount\n                        .mul(secondsInsideDiff256)\n                        .div(secondsAbsolute);\n                    nonMiningAmount = minableAmount.sub(miningAmount);\n                } else {\n                    miningAmount = minableAmount;\n                }\n            }\n        }\n    }\n\n    function applyCoinageFactor(uint256 v, uint256 refactoredCount, uint256 _factor, uint256 refactorCount)\n        internal\n        pure\n        returns (uint256)\n    {\n        if (v == 0) {\n            return 0;\n        }\n\n        v = rmul2(v, _factor);\n\n        for (uint256 i = refactoredCount; i < refactorCount; i++) {\n            v = v * (2);\n        }\n\n        return v;\n    }\n\n}\n",
  "sourcePath": "/Users/hwangjaeseung/workspace/tonstarter-contracts/contracts/stake/StakeUniswapV3.sol",
  "compiler": {
    "name": "solc",
    "version": "0.7.6+commit.7338295f.Emscripten.clang"
  },
  "schemaVersion": "3.2.4",
  "updatedAt": "2021-08-06T08:24:03.141Z",
  "devdoc": {
    "events": {
      "BurnedCoinage(uint256,uint256,uint256,uint256,uint256)": {
        "details": "event on burning in coinage",
        "params": {
          "afterTotalSupply": "Total amount of coinage after being mined",
          "burningAmount": "the buring amount",
          "curTime": "the current time",
          "prevTotalSupply": "Total amount of coinage before mining",
          "tokenId": "the token id"
        }
      },
      "Claimed(address,address,uint256,uint256,uint256)": {
        "details": "event on claim",
        "params": {
          "miningAmount": "the amount of mining",
          "nonMiningAmount": "the amount of non-mining",
          "poolAddress": "the pool address of uniswapV3",
          "to": "the sender",
          "tokenId": "the uniswapV3 Lp token"
        }
      },
      "MinedCoinage(uint256,uint256,uint256,uint256,uint256,uint256)": {
        "details": "event on mining in coinage",
        "params": {
          "afterTotalSupply": "Total amount of coinage after being mined",
          "curTime": "the current time",
          "factor": "coinage's Factor",
          "miningAmount": "the mining amount",
          "miningInterval": "mining period (sec)",
          "prevTotalSupply": "Total amount of coinage before mining"
        }
      },
      "Staked(address,address,uint256,uint256)": {
        "details": "event on staking",
        "params": {
          "amount": "the amount of staking",
          "poolAddress": "the pool address of uniswapV3",
          "to": "the sender",
          "tokenId": "the uniswapV3 Lp token"
        }
      },
      "WithdrawalToken(address,uint256,uint256,uint256)": {
        "details": "event on withdrawal",
        "params": {
          "miningAmount": "the amount of mining",
          "nonMiningAmount": "the amount of non-mining",
          "to": "the sender",
          "tokenId": "the uniswapV3 Lp token"
        }
      }
    },
    "kind": "dev",
    "methods": {
      "addAdmin(address)": {
        "details": "add admin",
        "params": {
          "account": "address to add"
        }
      },
      "balanceOfCoinage(uint256)": {
        "details": "balanceOf of tokenId's coinage"
      },
      "canMiningAmountTokenId(uint256)": {
        "details": "minable amount of tokenIdtokenId tokenId",
        "returns": {
          "balanceOfRayTokenId": " balanceOf of tokenId with ray unit",
          "minableAmountRay": " minable amount of tokenId with ray unit"
        }
      },
      "claim(uint256)": {
        "details": "The amount mined with the deposited liquidity is claimed and taken.      The amount of mining taken is changed in proportion to the amount of time liquidity       has been provided since recent mining",
        "params": {
          "tokenId": "tokenId"
        }
      },
      "constructor": {
        "details": "constructor of StakeCoinage"
      },
      "currentCoinageBalanceTokenId(uint256,uint256)": {
        "details": "current liquidity time of tokenId"
      },
      "currentliquidityTokenId(uint256,uint256)": {
        "details": "current liquidity time of tokenId"
      },
      "expectedPlusClaimableAmount(uint256,uint256)": {
        "details": "expected claimable amount"
      },
      "getDepositToken(uint256)": {
        "details": "tokenId's deposited information",
        "params": {
          "tokenId": "tokenId"
        },
        "returns": {
          "_poolAddress": "  poolAddress",
          "args": "liquidity,  startTime, claimedTime, startBlock, claimedBlock, claimedAmount",
          "liquidity": "liquidity,",
          "secondsPL": "secondsPerLiquidityInsideInitialX128, secondsPerLiquidityInsideX128Las",
          "tick": "tick,"
        }
      },
      "getMiningTokenId(uint256)": {
        "details": "view mining information of tokenId",
        "params": {
          "tokenId": "tokenId"
        }
      },
      "getPrice(uint256)": {
        "details": "get price"
      },
      "getRoleAdmin(bytes32)": {
        "details": "Returns the admin role that controls `role`. See {grantRole} and {revokeRole}. To change a role's admin, use {_setRoleAdmin}."
      },
      "getRoleMember(bytes32,uint256)": {
        "details": "Returns one of the accounts that have `role`. `index` must be a value between 0 and {getRoleMemberCount}, non-inclusive. Role bearers are not sorted in any particular way, and their ordering may change at any point. WARNING: When using {getRoleMember} and {getRoleMemberCount}, make sure you perform all queries on the same block. See the following https://forum.openzeppelin.com/t/iterating-over-elements-on-enumerableset-in-openzeppelin-contracts/2296[forum post] for more information."
      },
      "getRoleMemberCount(bytes32)": {
        "details": "Returns the number of accounts that have `role`. Can be used together with {getRoleMember} to enumerate all bearers of a role."
      },
      "getUserStakedTokenIds(address)": {
        "details": "Get the list of staked tokens of the user",
        "params": {
          "user": "user address"
        }
      },
      "getUserStakedTotal(address)": {
        "details": "user's staked total infos",
        "params": {
          "user": "user address"
        },
        "returns": {
          "totalDepositAmount": " total deposited amount",
          "totalMiningAmount": "total mining amount ,",
          "totalNonMiningAmount": "total non-mining amount,"
        }
      },
      "grantRole(bytes32,address)": {
        "details": "Grants `role` to `account`. If `account` had not been already granted `role`, emits a {RoleGranted} event. Requirements: - the caller must have ``role``'s admin role."
      },
      "hasRole(bytes32,address)": {
        "details": "Returns `true` if `account` has been granted `role`."
      },
      "infos()": {
        "details": "Give the infomation of this stakeContracts",
        "returns": {
          "_0": "return1  [token, vault, stakeRegistry, coinage]",
          "_1": "return2  [poolToken0, poolToken1, nonfungiblePositionManager, uniswapV3FactoryAddress]",
          "_2": "return3  [totalStakers, totalStakedAmount, miningAmountTotal,nonMiningAmountTotal]"
        }
      },
      "isAdmin(address)": {
        "details": "whether admin",
        "params": {
          "account": "address to check"
        }
      },
      "miningCoinage()": {
        "details": "mining on coinage, Mining conditions :  the sale start time must pass, the stake start time must pass, the vault mining start time (sale start time) passes, the mining interval passes, and the current total amount is not zero,"
      },
      "miningEndTime()": {
        "details": "mining end time"
      },
      "npmPositions(uint256)": {
        "details": "_tokenId's position",
        "params": {
          "_tokenId": "tokenId"
        },
        "returns": {
          "fee": " The fee associated with the pool",
          "feeGrowthInside0LastX128": " The fee growth of token0 as of the last action on the individual position",
          "feeGrowthInside1LastX128": " The fee growth of token1 as of the last action on the individual position",
          "liquidity": " The liquidity of the position",
          "nonce": " the nonce for permits",
          "operator": " the address that is approved for spending this token",
          "tickLower": " The lower end of the tick range for the position",
          "tickUpper": " The higher end of the tick range for the position",
          "token0": " The address of the token0 for pool",
          "token1": " The address of the token1 for pool",
          "tokensOwed0": " The uncollected amount of token0 owed to the position as of the last computation",
          "tokensOwed1": " The uncollected amount of token1 owed to the position as of the last computation"
        }
      },
      "poolInfos()": {
        "details": "pool's infos",
        "returns": {
          "factory": " pool's factory address",
          "fee": " fee",
          "liquidity": " pool's liquidity",
          "maxLiquidityPerTick": " maxLiquidityPerTick",
          "tickSpacing": " tickSpacing",
          "token0": " token0 address",
          "token1": " token1 address"
        }
      },
      "poolPositions(bytes32)": {
        "details": "key's info",
        "params": {
          "key": "hash(owner, tickLower, tickUpper)"
        },
        "returns": {
          "_liquidity": " key's liquidity",
          "feeGrowthInside0LastX128": " key's feeGrowthInside0LastX128",
          "feeGrowthInside1LastX128": " key's feeGrowthInside1LastX128",
          "tokensOwed0": " key's tokensOwed0",
          "tokensOwed1": " key's tokensOwed1"
        }
      },
      "poolSlot0()": {
        "details": "pool's slot0 (current position)",
        "returns": {
          "feeProtocol": " The protocol fee for both tokens of the pool",
          "observationCardinality": " The current maximum number of observations stored in the pool,",
          "observationCardinalityNext": " The next maximum number of observations, to be updated when the observation.",
          "observationIndex": " The index of the last oracle observation that was written,",
          "sqrtPriceX96": " The current price of the pool as a sqrt(token1/token0) Q64.96 value",
          "tick": " The current tick of the pool",
          "unlocked": " Whether the pool is currently locked to reentrancy"
        }
      },
      "removeAdmin(address)": {
        "details": "remove admin",
        "params": {
          "account": "address to remove"
        }
      },
      "renounceRole(bytes32,address)": {
        "details": "Revokes `role` from the calling account. Roles are often managed via {grantRole} and {revokeRole}: this function's purpose is to provide a mechanism for accounts to lose their privileges if they are compromised (such as when a trusted device is misplaced). If the calling account had been granted `role`, emits a {RoleRevoked} event. Requirements: - the caller must be `account`."
      },
      "resetCoinageTime()": {
        "details": "reset coinage's last mining time variable for tes"
      },
      "revokeRole(bytes32,address)": {
        "details": "Revokes `role` from `account`. If `account` had been granted `role`, emits a {RoleRevoked} event. Requirements: - the caller must have ``role``'s admin role."
      },
      "setMiningIntervalSeconds(uint256)": {
        "details": "Mining interval setting (seconds)",
        "params": {
          "_intervalSeconds": "the mining interval (sec)"
        }
      },
      "setPoolAddress(uint256)": {
        "details": "With the given tokenId, information is retrieved from nonfungiblePositionManager,      and the pool address is calculated and set.",
        "params": {
          "tokenId": "tokenId"
        }
      },
      "setSaleStartTime(uint256)": {
        "details": "set sale start time",
        "params": {
          "_saleStartTime": "sale start time"
        }
      },
      "snapshotCumulativesInside(int24,int24)": {
        "details": "snapshotCumulativesInside",
        "params": {
          "tickLower": "The lower tick of the range",
          "tickUpper": "The upper tick of the range"
        },
        "returns": {
          "curTimestamps": " current Timestamps",
          "secondsInside": " The snapshot of seconds per liquidity for the range",
          "secondsPerLiquidityInsideX128": " The snapshot of seconds per liquidity for the range",
          "tickCumulativeInside": " The snapshot of the tick accumulator for the range"
        }
      },
      "stake(uint256)": {
        "details": "stake tokenId of UniswapV3",
        "params": {
          "tokenId": "tokenId"
        }
      },
      "stakePermit(uint256,uint256,uint8,bytes32,bytes32)": {
        "details": "stake tokenId of UniswapV3",
        "params": {
          "deadline": "the deadline that valid the owner's signature",
          "r": "the owner's signature - r",
          "s": "the owner's signature - s",
          "tokenId": "tokenId",
          "v": "the owner's signature - v"
        }
      },
      "totalSupplyCoinage()": {
        "details": "totalSupply of coinage"
      },
      "transferAdmin(address)": {
        "details": "transfer admin",
        "params": {
          "newAdmin": "new admin address"
        }
      },
      "withdraw(uint256)": {
        "details": "withdraw the deposited token.      The amount mined with the deposited liquidity is claimed and taken.      The amount of mining taken is changed in proportion to the amount of time liquidity      has been provided since recent mining",
        "params": {
          "tokenId": "tokenId"
        }
      }
    },
    "title": "StakeUniswapV3",
    "version": 1
  },
  "userdoc": {
    "kind": "user",
    "methods": {},
    "notice": "Uniswap V3 Contract for staking LP and mining TOS",
    "version": 1
  }
}