{
  "contractName": "Stake1Vault",
  "abi": [
    {
      "inputs": [],
      "stateMutability": "nonpayable",
      "type": "constructor"
    },
    {
      "anonymous": false,
      "inputs": [
        {
          "indexed": true,
          "internalType": "address",
          "name": "from",
          "type": "address"
        },
        {
          "indexed": false,
          "internalType": "address",
          "name": "to",
          "type": "address"
        },
        {
          "indexed": false,
          "internalType": "uint256",
          "name": "amount",
          "type": "uint256"
        }
      ],
      "name": "ClaimedReward",
      "type": "event"
    },
    {
      "anonymous": false,
      "inputs": [
        {
          "indexed": false,
          "internalType": "uint256",
          "name": "amount",
          "type": "uint256"
        }
      ],
      "name": "ClosedSale",
      "type": "event"
    },
    {
      "anonymous": false,
      "inputs": [
        {
          "indexed": true,
          "internalType": "bytes32",
          "name": "role",
          "type": "bytes32"
        },
        {
          "indexed": true,
          "internalType": "bytes32",
          "name": "previousAdminRole",
          "type": "bytes32"
        },
        {
          "indexed": true,
          "internalType": "bytes32",
          "name": "newAdminRole",
          "type": "bytes32"
        }
      ],
      "name": "RoleAdminChanged",
      "type": "event"
    },
    {
      "anonymous": false,
      "inputs": [
        {
          "indexed": true,
          "internalType": "bytes32",
          "name": "role",
          "type": "bytes32"
        },
        {
          "indexed": true,
          "internalType": "address",
          "name": "account",
          "type": "address"
        },
        {
          "indexed": true,
          "internalType": "address",
          "name": "sender",
          "type": "address"
        }
      ],
      "name": "RoleGranted",
      "type": "event"
    },
    {
      "anonymous": false,
      "inputs": [
        {
          "indexed": true,
          "internalType": "bytes32",
          "name": "role",
          "type": "bytes32"
        },
        {
          "indexed": true,
          "internalType": "address",
          "name": "account",
          "type": "address"
        },
        {
          "indexed": true,
          "internalType": "address",
          "name": "sender",
          "type": "address"
        }
      ],
      "name": "RoleRevoked",
      "type": "event"
    },
    {
      "inputs": [],
      "name": "ADMIN_ROLE",
      "outputs": [
        {
          "internalType": "bytes32",
          "name": "",
          "type": "bytes32"
        }
      ],
      "stateMutability": "view",
      "type": "function"
    },
    {
      "inputs": [],
      "name": "DEFAULT_ADMIN_ROLE",
      "outputs": [
        {
          "internalType": "bytes32",
          "name": "",
          "type": "bytes32"
        }
      ],
      "stateMutability": "view",
      "type": "function"
    },
    {
      "inputs": [],
      "name": "ZERO_HASH",
      "outputs": [
        {
          "internalType": "bytes32",
          "name": "",
          "type": "bytes32"
        }
      ],
      "stateMutability": "view",
      "type": "function"
    },
    {
      "inputs": [],
      "name": "blockTotalReward",
      "outputs": [
        {
          "internalType": "uint256",
          "name": "",
          "type": "uint256"
        }
      ],
      "stateMutability": "view",
      "type": "function"
    },
    {
      "inputs": [],
      "name": "cap",
      "outputs": [
        {
          "internalType": "uint256",
          "name": "",
          "type": "uint256"
        }
      ],
      "stateMutability": "view",
      "type": "function"
    },
    {
      "inputs": [],
      "name": "defiAddr",
      "outputs": [
        {
          "internalType": "address",
          "name": "",
          "type": "address"
        }
      ],
      "stateMutability": "view",
      "type": "function"
    },
    {
      "inputs": [],
      "name": "fld",
      "outputs": [
        {
          "internalType": "contract IFLD",
          "name": "",
          "type": "address"
        }
      ],
      "stateMutability": "view",
      "type": "function"
    },
    {
      "inputs": [
        {
          "internalType": "bytes32",
          "name": "role",
          "type": "bytes32"
        }
      ],
      "name": "getRoleAdmin",
      "outputs": [
        {
          "internalType": "bytes32",
          "name": "",
          "type": "bytes32"
        }
      ],
      "stateMutability": "view",
      "type": "function"
    },
    {
      "inputs": [
        {
          "internalType": "bytes32",
          "name": "role",
          "type": "bytes32"
        },
        {
          "internalType": "uint256",
          "name": "index",
          "type": "uint256"
        }
      ],
      "name": "getRoleMember",
      "outputs": [
        {
          "internalType": "address",
          "name": "",
          "type": "address"
        }
      ],
      "stateMutability": "view",
      "type": "function"
    },
    {
      "inputs": [
        {
          "internalType": "bytes32",
          "name": "role",
          "type": "bytes32"
        }
      ],
      "name": "getRoleMemberCount",
      "outputs": [
        {
          "internalType": "uint256",
          "name": "",
          "type": "uint256"
        }
      ],
      "stateMutability": "view",
      "type": "function"
    },
    {
      "inputs": [
        {
          "internalType": "bytes32",
          "name": "role",
          "type": "bytes32"
        },
        {
          "internalType": "address",
          "name": "account",
          "type": "address"
        }
      ],
      "name": "grantRole",
      "outputs": [],
      "stateMutability": "nonpayable",
      "type": "function"
    },
    {
      "inputs": [
        {
          "internalType": "bytes32",
          "name": "role",
          "type": "bytes32"
        },
        {
          "internalType": "address",
          "name": "account",
          "type": "address"
        }
      ],
      "name": "hasRole",
      "outputs": [
        {
          "internalType": "bool",
          "name": "",
          "type": "bool"
        }
      ],
      "stateMutability": "view",
      "type": "function"
    },
    {
      "inputs": [
        {
          "internalType": "uint256",
          "name": "",
          "type": "uint256"
        }
      ],
      "name": "orderedEndBlocks",
      "outputs": [
        {
          "internalType": "uint256",
          "name": "",
          "type": "uint256"
        }
      ],
      "stateMutability": "view",
      "type": "function"
    },
    {
      "inputs": [],
      "name": "paytoken",
      "outputs": [
        {
          "internalType": "address",
          "name": "",
          "type": "address"
        }
      ],
      "stateMutability": "view",
      "type": "function"
    },
    {
      "inputs": [],
      "name": "realEndBlock",
      "outputs": [
        {
          "internalType": "uint256",
          "name": "",
          "type": "uint256"
        }
      ],
      "stateMutability": "view",
      "type": "function"
    },
    {
      "inputs": [
        {
          "internalType": "bytes32",
          "name": "role",
          "type": "bytes32"
        },
        {
          "internalType": "address",
          "name": "account",
          "type": "address"
        }
      ],
      "name": "renounceRole",
      "outputs": [],
      "stateMutability": "nonpayable",
      "type": "function"
    },
    {
      "inputs": [
        {
          "internalType": "bytes32",
          "name": "role",
          "type": "bytes32"
        },
        {
          "internalType": "address",
          "name": "account",
          "type": "address"
        }
      ],
      "name": "revokeRole",
      "outputs": [],
      "stateMutability": "nonpayable",
      "type": "function"
    },
    {
      "inputs": [],
      "name": "saleClosed",
      "outputs": [
        {
          "internalType": "bool",
          "name": "",
          "type": "bool"
        }
      ],
      "stateMutability": "view",
      "type": "function"
    },
    {
      "inputs": [],
      "name": "saleStartBlock",
      "outputs": [
        {
          "internalType": "uint256",
          "name": "",
          "type": "uint256"
        }
      ],
      "stateMutability": "view",
      "type": "function"
    },
    {
      "inputs": [
        {
          "internalType": "uint256",
          "name": "",
          "type": "uint256"
        }
      ],
      "name": "stakeAddresses",
      "outputs": [
        {
          "internalType": "address",
          "name": "",
          "type": "address"
        }
      ],
      "stateMutability": "view",
      "type": "function"
    },
    {
      "inputs": [],
      "name": "stakeEndBlock",
      "outputs": [
        {
          "internalType": "uint256",
          "name": "",
          "type": "uint256"
        }
      ],
      "stateMutability": "view",
      "type": "function"
    },
    {
      "inputs": [
        {
          "internalType": "uint256",
          "name": "",
          "type": "uint256"
        }
      ],
      "name": "stakeEndBlockTotal",
      "outputs": [
        {
          "internalType": "uint256",
          "name": "",
          "type": "uint256"
        }
      ],
      "stateMutability": "view",
      "type": "function"
    },
    {
      "inputs": [
        {
          "internalType": "address",
          "name": "",
          "type": "address"
        }
      ],
      "name": "stakeInfos",
      "outputs": [
        {
          "internalType": "string",
          "name": "name",
          "type": "string"
        },
        {
          "internalType": "uint256",
          "name": "startBlcok",
          "type": "uint256"
        },
        {
          "internalType": "uint256",
          "name": "endBlock",
          "type": "uint256"
        },
        {
          "internalType": "uint256",
          "name": "balance",
          "type": "uint256"
        },
        {
          "internalType": "uint256",
          "name": "totalRewardAmount",
          "type": "uint256"
        },
        {
          "internalType": "uint256",
          "name": "claimRewardAmount",
          "type": "uint256"
        }
      ],
      "stateMutability": "view",
      "type": "function"
    },
    {
      "inputs": [],
      "name": "stakeStartBlock",
      "outputs": [
        {
          "internalType": "uint256",
          "name": "",
          "type": "uint256"
        }
      ],
      "stateMutability": "view",
      "type": "function"
    },
    {
      "inputs": [],
      "name": "stakeType",
      "outputs": [
        {
          "internalType": "uint256",
          "name": "",
          "type": "uint256"
        }
      ],
      "stateMutability": "view",
      "type": "function"
    },
    {
      "stateMutability": "payable",
      "type": "receive"
    },
    {
      "inputs": [
        {
          "internalType": "address",
          "name": "_fld",
          "type": "address"
        },
        {
          "internalType": "address",
          "name": "_paytoken",
          "type": "address"
        },
        {
          "internalType": "uint256",
          "name": "_cap",
          "type": "uint256"
        },
        {
          "internalType": "uint256",
          "name": "_saleStartBlock",
          "type": "uint256"
        },
        {
          "internalType": "uint256",
          "name": "_stakeStartBlock",
          "type": "uint256"
        },
        {
          "internalType": "address",
          "name": "_stakefactory",
          "type": "address"
        },
        {
          "internalType": "uint256",
          "name": "_stakeType",
          "type": "uint256"
        },
        {
          "internalType": "address",
          "name": "_defiAddr",
          "type": "address"
        }
      ],
      "name": "initialize",
      "outputs": [],
      "stateMutability": "nonpayable",
      "type": "function"
    },
    {
      "inputs": [
        {
          "internalType": "address",
          "name": "_fld",
          "type": "address"
        }
      ],
      "name": "setFLD",
      "outputs": [],
      "stateMutability": "nonpayable",
      "type": "function"
    },
    {
      "inputs": [
        {
          "internalType": "uint256",
          "name": "_cap",
          "type": "uint256"
        }
      ],
      "name": "changeCap",
      "outputs": [],
      "stateMutability": "nonpayable",
      "type": "function"
    },
    {
      "inputs": [
        {
          "internalType": "uint256[]",
          "name": "_ordered",
          "type": "uint256[]"
        }
      ],
      "name": "changeOrderedEndBlocks",
      "outputs": [],
      "stateMutability": "nonpayable",
      "type": "function"
    },
    {
      "inputs": [
        {
          "internalType": "address",
          "name": "_defiAddr",
          "type": "address"
        }
      ],
      "name": "setDefiAddr",
      "outputs": [],
      "stateMutability": "nonpayable",
      "type": "function"
    },
    {
      "inputs": [
        {
          "internalType": "string",
          "name": "_name",
          "type": "string"
        },
        {
          "internalType": "address",
          "name": "stakeContract",
          "type": "address"
        },
        {
          "internalType": "uint256",
          "name": "periodBlocks",
          "type": "uint256"
        }
      ],
      "name": "addSubVaultOfStake",
      "outputs": [],
      "stateMutability": "nonpayable",
      "type": "function"
    },
    {
      "inputs": [],
      "name": "closeSale",
      "outputs": [],
      "stateMutability": "nonpayable",
      "type": "function"
    },
    {
      "inputs": [
        {
          "internalType": "address",
          "name": "_to",
          "type": "address"
        },
        {
          "internalType": "uint256",
          "name": "_amount",
          "type": "uint256"
        }
      ],
      "name": "claim",
      "outputs": [
        {
          "internalType": "bool",
          "name": "",
          "type": "bool"
        }
      ],
      "stateMutability": "nonpayable",
      "type": "function"
    },
    {
      "inputs": [
        {
          "internalType": "address",
          "name": "_to",
          "type": "address"
        },
        {
          "internalType": "uint256",
          "name": "_amount",
          "type": "uint256"
        }
      ],
      "name": "canClaim",
      "outputs": [
        {
          "internalType": "uint256",
          "name": "",
          "type": "uint256"
        }
      ],
      "stateMutability": "view",
      "type": "function"
    },
    {
      "inputs": [],
      "name": "balanceFLDAvailableAmount",
      "outputs": [
        {
          "internalType": "uint256",
          "name": "",
          "type": "uint256"
        }
      ],
      "stateMutability": "view",
      "type": "function"
    },
    {
      "inputs": [],
      "name": "stakeAddressesAll",
      "outputs": [
        {
          "internalType": "address[]",
          "name": "",
          "type": "address[]"
        }
      ],
      "stateMutability": "view",
      "type": "function"
    },
    {
      "inputs": [],
      "name": "orderedEndBlocksAll",
      "outputs": [
        {
          "internalType": "uint256[]",
          "name": "",
          "type": "uint256[]"
        }
      ],
      "stateMutability": "view",
      "type": "function"
    },
    {
      "inputs": [
        {
          "internalType": "address",
          "name": "_account",
          "type": "address"
        }
      ],
      "name": "totalRewardAmount",
      "outputs": [
        {
          "internalType": "uint256",
          "name": "",
          "type": "uint256"
        }
      ],
      "stateMutability": "view",
      "type": "function"
    },
    {
      "inputs": [],
      "name": "infos",
      "outputs": [
        {
          "internalType": "address",
          "name": "",
          "type": "address"
        },
        {
          "internalType": "uint256",
          "name": "",
          "type": "uint256"
        },
        {
          "internalType": "uint256",
          "name": "",
          "type": "uint256"
        },
        {
          "internalType": "uint256",
          "name": "",
          "type": "uint256"
        },
        {
          "internalType": "uint256",
          "name": "",
          "type": "uint256"
        },
        {
          "internalType": "uint256",
          "name": "",
          "type": "uint256"
        },
        {
          "internalType": "bool",
          "name": "",
          "type": "bool"
        }
      ],
      "stateMutability": "view",
      "type": "function"
    }
  ],
  "bytecode": "0x60806040523480156200001157600080fd5b506200002d60008051602062002f3b833981519152806200004e565b6200004860008051602062002f3b83398151915233620000a0565b620001b4565b600082815260208190526040808220600201549051839285917fbd79b86ffe0ab8e8776151514217cd7cacd52c909f66475c3af44e129f0b00ff9190a460009182526020829052604090912060020155565b620000ac8282620000b0565b5050565b600082815260208181526040909120620000d591839062001d0e62000129821b17901c565b15620000ac57620000e562000149565b6001600160a01b0316816001600160a01b0316837f2f8788117e7eff1d82e926ec794901d17c78024a50270940304540a733656f0d60405160405180910390a45050565b600062000140836001600160a01b0384166200014d565b90505b92915050565b3390565b60006200015b83836200019c565b620001935750815460018181018455600084815260208082209093018490558454848252828601909352604090209190915562000143565b50600062000143565b60009081526001919091016020526040902054151590565b612d7780620001c46000396000f3fe6080604052600436106102345760003560e01c806391d148541161012e578063c1b422fd116100ab578063d185a66b1161006f578063d185a66b14610604578063d547741f14610624578063dc999b9414610644578063dfbf9def14610664578063ee55efee146106965761023b565b8063c1b422fd1461056b578063ca15c8731461058d578063cbdeb6c0146105ad578063d007e896146105cd578063d105bf85146105ef5761023b565b8063a69c95dc116100f2578063a69c95dc146104f7578063aad3ec961461050c578063b03dc5141461052c578063b8c766b814610541578063b97af0db146105565761023b565b806391d148541461046d57806398da0b611461049a5780639a88be2f146104ba5780639d84ca35146104e2578063a217fddf146103c35761023b565b80633a76eb37116101bc5780635f1bd62a116101805780635f1bd62a146103d8578063652a6435146103f857806375b238fc14610418578063800edb9d1461042d5780639010d07c1461044d5761023b565b80633a76eb371461036457806340fc14f71461037957806343b0934a146103995780634b5e7cd5146103ae5780634ce76a3c146103c35761023b565b8063294f5fa311610203578063294f5fa3146102cd5780632f2ff15d146102fa57806333bd2a491461031a578063355274ea1461032f57806336568abe146103445761023b565b80630962ccfc14610240578063153099d0146102625780632002727514610298578063248a9ca3146102ad5761023b565b3661023b57005b600080fd5b34801561024c57600080fd5b5061026061025b3660046124f3565b6106ab565b005b34801561026e57600080fd5b5061028261027d36600461248b565b61092e565b60405161028f91906126a9565b60405180910390f35b3480156102a457600080fd5b5061028261094f565b3480156102b957600080fd5b506102826102c836600461248b565b610955565b3480156102d957600080fd5b506102ed6102e836600461248b565b61096d565b60405161028f91906125af565b34801561030657600080fd5b506102606103153660046124a3565b610997565b34801561032657600080fd5b506102ed6109fe565b34801561033b57600080fd5b50610282610a0d565b34801561035057600080fd5b5061026061035f3660046124a3565b610a13565b34801561037057600080fd5b50610282610a74565b34801561038557600080fd5b506102606103943660046122e3565b610a7a565b3480156103a557600080fd5b506102ed610b31565b3480156103ba57600080fd5b50610282610b40565b3480156103cf57600080fd5b50610282610b46565b3480156103e457600080fd5b506102826103f336600461248b565b610b4b565b34801561040457600080fd5b506102606104133660046123ca565b610b5d565b34801561042457600080fd5b50610282610bff565b34801561043957600080fd5b5061026061044836600461248b565b610c11565b34801561045957600080fd5b506102ed6104683660046124d2565b610c97565b34801561047957600080fd5b5061048d6104883660046124a3565b610cb8565b60405161028f919061269e565b3480156104a657600080fd5b506102826104b536600461239f565b610cd0565b3480156104c657600080fd5b506104cf610e33565b60405161028f97969594939291906125dc565b3480156104ee57600080fd5b506102ed610e60565b34801561050357600080fd5b50610282610e6f565b34801561051857600080fd5b5061048d61052736600461239f565b610ef5565b34801561053857600080fd5b50610282611151565b34801561054d57600080fd5b5061048d611157565b34801561056257600080fd5b50610282611160565b34801561057757600080fd5b50610580611166565b60405161028f9190612666565b34801561059957600080fd5b506102826105a836600461248b565b6111be565b3480156105b957600080fd5b506102826105c83660046122e3565b6111d5565b3480156105d957600080fd5b506105e26111f3565b60405161028f9190612619565b3480156105fb57600080fd5b50610282611254565b34801561061057600080fd5b5061026061061f3660046122e3565b61125a565b34801561063057600080fd5b5061026061063f3660046124a3565b6112f5565b34801561065057600080fd5b5061026061065f36600461231b565b61134e565b34801561067057600080fd5b5061068461067f3660046122e3565b61149b565b60405161028f969594939291906126b2565b3480156106a257600080fd5b5061026061155a565b6106c3600080516020612cf383398151915233610cb8565b6106fe5760405162461bcd60e51b8152600401808060200182810382526023815260200180612c7f6023913960400191505060405180910390fd5b6001600160a01b0382161580159061071857506000600354115b80156107245750600081115b6107495760405162461bcd60e51b8152600401610740906127db565b60405180910390fd5b600554431061076a5760405162461bcd60e51b81526004016107409061274d565b60095460ff161561078d5760405162461bcd60e51b815260040161074090612a0f565b816001600160a01b03166343b0934a6040518163ffffffff1660e01b815260040160206040518083038186803b1580156107c657600080fd5b505afa1580156107da573d6000803e3d6000fd5b505050506040513d601f19601f820116820180604052508101906107fe91906122ff565b6002546001600160a01b0390811691161461082b5760405162461bcd60e51b815260040161074090612aef565b6001600160a01b0382166000908152600d602052604090206001810154156108655760405162461bcd60e51b815260040161074090612b92565b600c805460018101825560009182527fdf6966c971051c3d54ec59162606531493a51404a002842f56009d7e5cf4a8c70180546001600160a01b0319166001600160a01b0386161790556005546108bc9084611d23565b85519091506108d190839060208801906121fd565b506005546001830155600282018190556006548111156108f15760068190555b5050600654600e80546001810182556000919091527fbb7b4a454dc3493923482f07822329ed19e8244eff582cc204f8554c3620c3fd0155505050565b600e818154811061093e57600080fd5b600091825260209091200154905081565b60045481565b6000818152602081905260409020600201545b919050565b600c818154811061097d57600080fd5b6000918252602090912001546001600160a01b0316905081565b6000828152602081905260409020600201546109b590610488611d7d565b6109f05760405162461bcd60e51b815260040180806020018281038252602f815260200180612c50602f913960400191505060405180910390fd5b6109fa8282611d81565b5050565b6001546001600160a01b031681565b60035481565b610a1b611d7d565b6001600160a01b0316816001600160a01b031614610a6a5760405162461bcd60e51b815260040180806020018281038252602f815260200180612d13602f913960400191505060405180910390fd5b6109fa8282611dea565b60065481565b610a92600080516020612cf383398151915233610cb8565b610acd5760405162461bcd60e51b8152600401808060200182810382526023815260200180612c7f6023913960400191505060405180910390fd5b6001600160a01b03811615801590610af35750600b546001600160a01b03828116911614155b610b0f5760405162461bcd60e51b815260040161074090612ab8565b600b80546001600160a01b0319166001600160a01b0392909216919091179055565b6002546001600160a01b031681565b60055481565b600081565b600f6020526000908152604090205481565b610b75600080516020612cf383398151915233610cb8565b610bb05760405162461bcd60e51b8152600401808060200182810382526023815260200180612c7f6023913960400191505060405180910390fd5b43600654108015610bc25750600e5415155b8015610bd057508051600e54145b610bec5760405162461bcd60e51b815260040161074090612a46565b80516109fa90600e906020840190612289565b600080516020612cf383398151915281565b610c29600080516020612cf383398151915233610cb8565b610c645760405162461bcd60e51b8152600401808060200182810382526023815260200180612c7f6023913960400191505060405180910390fd5b600081118015610c7657508060035414155b610c925760405162461bcd60e51b815260040161074090612911565b600355565b6000828152602081905260408120610caf9083611e53565b90505b92915050565b6000828152602081905260408120610caf9083611e5f565b60095460009060ff16610cf55760405162461bcd60e51b8152600401610740906128ef565b6001546040516370a0823160e01b81526000916001600160a01b0316906370a0823190610d269030906004016125af565b60206040518083038186803b158015610d3e57600080fd5b505afa158015610d52573d6000803e3d6000fd5b505050506040513d601f19601f82011682018060405250810190610d769190612597565b905082811015610d985760405162461bcd60e51b8152600401610740906128cb565b6001600160a01b0384166000908152600d602052604090206001810154610dd15760405162461bcd60e51b815260040161074090612b1b565b6000816004015411610df55760405162461bcd60e51b815260040161074090612a8f565b6005810154610e049085611d23565b81600401541015610e275760405162461bcd60e51b815260040161074090612b47565b60040154949350505050565b6002546003546004546005546006546008546009546001600160a01b039096169560ff1690919293949596565b600b546001600160a01b031681565b6001546040516370a0823160e01b81526000916001600160a01b0316906370a0823190610ea09030906004016125af565b60206040518083038186803b158015610eb857600080fd5b505afa158015610ecc573d6000803e3d6000fd5b505050506040513d601f19601f82011682018060405250810190610ef09190612597565b905090565b60095460009060ff168015610f0a5750600082115b610f265760405162461bcd60e51b815260040161074090612726565b6001546040516370a0823160e01b81526000916001600160a01b0316906370a0823190610f579030906004016125af565b60206040518083038186803b158015610f6f57600080fd5b505afa158015610f83573d6000803e3d6000fd5b505050506040513d601f19601f82011682018060405250810190610fa79190612597565b905082811015610fc95760405162461bcd60e51b815260040161074090612948565b336000908152600d602052604090206001810154610ff95760405162461bcd60e51b8152600401610740906127bd565b600081600401541161101d5760405162461bcd60e51b815260040161074090612974565b600581015461102c9085611d23565b8160040154101561104f5760405162461bcd60e51b81526004016107409061278f565b600581015461105e9085611d23565b600582015560015460405163a9059cbb60e01b81526001600160a01b039091169063a9059cbb9061109590889088906004016125c3565b602060405180830381600087803b1580156110af57600080fd5b505af11580156110c3573d6000803e3d6000fd5b505050506040513d601f19601f820116820180604052508101906110e7919061246b565b6111035760405162461bcd60e51b8152600401610740906128a0565b336001600160a01b03167faee3654837b73cc93e61b5d33f82d45b1df4dbe682913819f5ce40de23518e72868660405161113e9291906125c3565b60405180910390a2506001949350505050565b60075481565b60095460ff1681565b600a5481565b6060600e8054806020026020016040519081016040528092919081815260200182805480156111b457602002820191906000526020600020905b8154815260200190600101908083116111a0575b5050505050905090565b6000818152602081905260408120610cb290611e74565b6001600160a01b03166000908152600d602052604090206004015490565b6060600c8054806020026020016040519081016040528092919081815260200182805480156111b457602002820191906000526020600020905b81546001600160a01b0316815260019091019060200180831161122d575050505050905090565b60085481565b611272600080516020612cf383398151915233610cb8565b6112ad5760405162461bcd60e51b8152600401808060200182810382526023815260200180612c7f6023913960400191505060405180910390fd5b6001600160a01b0381166112d35760405162461bcd60e51b815260040161074090612823565b600180546001600160a01b0319166001600160a01b0392909216919091179055565b60008281526020819052604090206002015461131390610488611d7d565b610a6a5760405162461bcd60e51b8152600401808060200182810382526030815260200180612ca26030913960400191505060405180910390fd5b611366600080516020612cf383398151915233610cb8565b6113a15760405162461bcd60e51b8152600401808060200182810382526023815260200180612c7f6023913960400191505060405180910390fd5b6001600160a01b038816158015906113c157506001600160a01b03831615155b6113dd5760405162461bcd60e51b815260040161074090612823565b600086116113fd5760405162461bcd60e51b8152600401610740906129ab565b838510801561140c5750600084115b6114285760405162461bcd60e51b81526004016107409061285a565b600180546001600160a01b03808b166001600160a01b0319928316179092556003889055600280548a841690831617905560048790556005869055600a849055600b805492841692909116919091179055611491600080516020612cf383398151915284610997565b5050505050505050565b600d6020908152600091825260409182902080548351601f600260001961010060018616150201909316929092049182018490048402810184019094528084529092918391908301828280156115325780601f1061150757610100808354040283529160200191611532565b820191906000526020600020905b81548152906001019060200180831161151557829003601f168201915b5050505050908060010154908060020154908060030154908060040154908060050154905086565b60095460ff161561157d5760405162461bcd60e51b815260040161074090612bc9565b600060035411801561159157506000600554115b80156115a05750600654600554105b80156115ad575060055443115b6115c95760405162461bcd60e51b8152600401610740906129e2565b600c546115e85760405162461bcd60e51b815260040161074090612b6f565b600654600755600c54600019015b801561177d576000600d6000600c848154811061160f57fe5b60009182526020808320909101546001600160a01b03908116845290830193909352604090910190206002549092501661167057600c828154811061165057fe5b6000918252602090912001546001600160a01b0316316003820155611720565b600254600c80546001600160a01b03909216916370a0823191908590811061169457fe5b6000918252602090912001546040516001600160e01b031960e084901b1681526116ca916001600160a01b0316906004016125af565b60206040518083038186803b1580156116e257600080fd5b505afa1580156116f6573d6000803e3d6000fd5b505050506040513d601f19601f8201168201806040525081019061171a9190612597565b60038201555b600381015461176d57600d6000600c600185038154811061173d57fe5b60009182526020808320909101546001600160a01b03168352820192909252604001902060020154600755611773565b5061177d565b50600019016115f6565b506000600d6000600c60008154811061179257fe5b60009182526020808320909101546001600160a01b0390811684529083019390935260409091019020600254909250166117f457600c6000815481106117d457fe5b6000918252602090912001546001600160a01b03163160038201556118a3565b600254600c80546001600160a01b03909216916370a08231919060009061181757fe5b6000918252602090912001546040516001600160e01b031960e084901b16815261184d916001600160a01b0316906004016125af565b60206040518083038186803b15801561186557600080fd5b505afa158015611879573d6000803e3d6000fd5b505050506040513d601f19601f8201168201806040525081019061189d9190612597565b60038201555b6118c66118bd600554600754611e7f90919063ffffffff16565b60035490611ec1565b6008556000805b600c54811015611cc4576000600d6000600c84815481106118ea57fe5b60009182526020808320909101546001600160a01b0316835282019290925260400181209150805b600c548110156119ad578260020154600d6000600c848154811061193257fe5b60009182526020808320909101546001600160a01b03168352820192909252604001902060020154106119a5576119a2600d6000600c848154811061197357fe5b60009182526020808320909101546001600160a01b031683528201929092526040019020600301548390611d23565b91505b600101611912565b50600754826002015411611cba5760028201546000908152600f602052604090208190556119db8482611d23565b93506000835b8015611b6e576000600f6000600d6000600c86815481106119fe57fe5b60009182526020808320909101546001600160a01b0316835282810193909352604091820181206002015484529183019390935291019020541115611b6557611b62611b5b600f6000600d6000600c8781548110611a5857fe5b9060005260206000200160009054906101000a90046001600160a01b03166001600160a01b03166001600160a01b0316815260200190815260200160002060020154815260200190815260200160002054611b558760030154611b4f600854611b4f600d6000600c60018c0381548110611ace57fe5b9060005260206000200160009054906101000a90046001600160a01b03166001600160a01b03166001600160a01b0316815260200190815260200160002060020154600d6000600c8c81548110611b2157fe5b60009182526020808320909101546001600160a01b0316835282019290925260400190206002015490611e7f565b90611f03565b90611ec1565b8390611d23565b91505b600019016119e1565b506000600f6000600d6000600c600081548110611b8757fe5b60009182526020808320909101546001600160a01b0316835282810193909352604091820181206002015484529183019390935291019020541115611cb457611cb1611caa600f6000600d6000600c600081548110611be257fe5b9060005260206000200160009054906101000a90046001600160a01b03166001600160a01b03166001600160a01b0316815260200190815260200160002060020154815260200190815260200160002054611b558660030154611b4f600854611b4f600d6000600c600081548110611c5657fe5b9060005260206000200160009054906101000a90046001600160a01b03166001600160a01b03166001600160a01b0316815260200190815260200160002060010154600d6000600c600081548110611b2157fe5b8290611d23565b90505b60048301555b50506001016118cd565b506009805460ff191660011790556040517fb2d7ca775ec75524cd96d3b0549a390bf0a187f598f61e8a64ea092b6a667d7290611d029083906126a9565b60405180910390a15050565b6000610caf836001600160a01b038416611f5c565b600082820183811015610caf576040805162461bcd60e51b815260206004820152601b60248201527f536166654d6174683a206164646974696f6e206f766572666c6f770000000000604482015290519081900360640190fd5b3390565b6000828152602081905260409020611d999082611d0e565b156109fa57611da6611d7d565b6001600160a01b0316816001600160a01b0316837f2f8788117e7eff1d82e926ec794901d17c78024a50270940304540a733656f0d60405160405180910390a45050565b6000828152602081905260409020611e029082611fa6565b156109fa57611e0f611d7d565b6001600160a01b0316816001600160a01b0316837ff6391f5c32d9c69d2a47ea670b442974b53935d1edc7fd64eb21e047a839171b60405160405180910390a45050565b6000610caf8383611fbb565b6000610caf836001600160a01b03841661201f565b6000610cb282612037565b6000610caf83836040518060400160405280601e81526020017f536166654d6174683a207375627472616374696f6e206f766572666c6f77000081525061203b565b6000610caf83836040518060400160405280601a81526020017f536166654d6174683a206469766973696f6e206279207a65726f0000000000008152506120d2565b600082611f1257506000610cb2565b82820282848281611f1f57fe5b0414610caf5760405162461bcd60e51b8152600401808060200182810382526021815260200180612cd26021913960400191505060405180910390fd5b6000611f68838361201f565b611f9e57508154600181810184556000848152602080822090930184905584548482528286019093526040902091909155610cb2565b506000610cb2565b6000610caf836001600160a01b038416612137565b81546000908210611ffd5760405162461bcd60e51b8152600401808060200182810382526022815260200180612c2e6022913960400191505060405180910390fd5b82600001828154811061200c57fe5b9060005260206000200154905092915050565b60009081526001919091016020526040902054151590565b5490565b600081848411156120ca5760405162461bcd60e51b81526004018080602001828103825283818151815260200191508051906020019080838360005b8381101561208f578181015183820152602001612077565b50505050905090810190601f1680156120bc5780820380516001836020036101000a031916815260200191505b509250505060405180910390fd5b505050900390565b600081836121215760405162461bcd60e51b815260206004820181815283516024840152835190928392604490910191908501908083836000831561208f578181015183820152602001612077565b50600083858161212d57fe5b0495945050505050565b600081815260018301602052604081205480156121f3578354600019808301919081019060009087908390811061216a57fe5b906000526020600020015490508087600001848154811061218757fe5b6000918252602080832090910192909255828152600189810190925260409020908401905586548790806121b757fe5b60019003818190600052602060002001600090559055866001016000878152602001908152602001600020600090556001945050505050610cb2565b6000915050610cb2565b828054600181600116156101000203166002900490600052602060002090601f0160209004810192826122335760008555612279565b82601f1061224c57805160ff1916838001178555612279565b82800160010185558215612279579182015b8281111561227957825182559160200191906001019061225e565b506122859291506122c3565b5090565b828054828255906000526020600020908101928215612279579160200282018281111561227957825182559160200191906001019061225e565b5b8082111561228557600081556001016122c4565b803561096881612c15565b6000602082840312156122f4578081fd5b8135610caf81612c15565b600060208284031215612310578081fd5b8151610caf81612c15565b600080600080600080600080610100898b031215612337578384fd5b883561234281612c15565b9750602089013561235281612c15565b965060408901359550606089013594506080890135935060a089013561237781612c15565b925060c0890135915060e089013561238e81612c15565b809150509295985092959890939650565b600080604083850312156123b1578182fd5b82356123bc81612c15565b946020939093013593505050565b600060208083850312156123dc578182fd5b823567ffffffffffffffff808211156123f3578384fd5b818501915085601f830112612406578384fd5b81358181111561241257fe5b8381029150612422848301612bf1565b8181528481019084860184860187018a101561243c578788fd5b8795505b8386101561245e578035835260019590950194918601918601612440565b5098975050505050505050565b60006020828403121561247c578081fd5b81518015158114610caf578182fd5b60006020828403121561249c578081fd5b5035919050565b600080604083850312156124b5578182fd5b8235915060208301356124c781612c15565b809150509250929050565b600080604083850312156124e4578182fd5b50508035926020909101359150565b600080600060608486031215612507578283fd5b833567ffffffffffffffff8082111561251e578485fd5b818601915086601f830112612531578485fd5b813560208282111561253f57fe5b612551601f8301601f19168201612bf1565b92508183528881838601011115612566578687fd5b8181850182850137868183850101528296506125838189016122d8565b955050505050604084013590509250925092565b6000602082840312156125a8578081fd5b5051919050565b6001600160a01b0391909116815260200190565b6001600160a01b03929092168252602082015260400190565b6001600160a01b03979097168752602087019590955260408601939093526060850191909152608084015260a0830152151560c082015260e00190565b6020808252825182820181905260009190848201906040850190845b8181101561265a5783516001600160a01b031683529284019291840191600101612635565b50909695505050505050565b6020808252825182820181905260009190848201906040850190845b8181101561265a57835183529284019291840191600101612682565b901515815260200190565b90815260200190565b600060c0825287518060c0840152815b818110156126df576020818b0181015160e08684010152016126c2565b818111156126f0578260e083860101525b5060208301979097525060408101949094526060840192909252608083015260a082015260e0601f909201601f19160101919050565b6020808252600d908201526c646973636c6f73652073616c6560981b604082015260600190565b60208082526022908201527f5374616b65315661756c743a20416c72656164792073746172746564207374616040820152616b6560f01b606082015260800190565b602080825260149082015273636c61696d20616d6f756e74206578636565647360601b604082015260600190565b6020808252600490820152637a65726f60e01b604082015260600190565b60208082526028908201527f5374616b65315661756c743a206164645374616b6572496e5661756c7420696e6040820152676974206661696c7360c01b606082015260800190565b6020808252601a908201527f5374616b65315661756c743a20696e707574206973207a65726f000000000000604082015260600190565b60208082526026908201527f5374616b65315661756c743a207374617274426c6f636b20697320756e617661604082015265696c61626c6560d01b606082015260800190565b602080825260119082015270119311081d1c985b9cd9995c8819985a5b607a1b604082015260600190565b6020808252600a90820152690dcdee840cadcdeeaced60b31b604082015260600190565b602080825260089082015267646973636c6f736560c01b604082015260600190565b6020808252601c908201527f5374616b65315661756c743a206368616e6765436170206661696c7300000000604082015260600190565b6020808252601290820152716e6f7420656e6f7567682062616c616e636560701b604082015260600190565b60208082526019908201527f746f74616c526577617264416d6f756e74206973207a65726f00000000000000604082015260600190565b60208082526019908201527f5374616b65315661756c743a205f636170206973207a65726f00000000000000604082015260600190565b60208082526013908201527218db1bdcd954d85b19481a5b9a5d0819985a5b606a1b604082015260600190565b60208082526018908201527f5374616b65315661756c743a20636c6f7365642073616c650000000000000000604082015260600190565b60208082526029908201527f5374616b65315661756c743a206368616e67654f726465726564456e64426c6f604082015268636b73206661696c7360b81b606082015260800190565b6020808252600f908201526e616d6f756e742069732077726f6e6760881b604082015260600190565b6020808252601e908201527f5374616b65315661756c743a205f6465666941646472206973207a65726f0000604082015260600190565b6020808252601290820152712234b33332b932b73a103830bcba37b5b2b760711b604082015260600190565b6020808252601290820152717374617274426c636f6b206973207a65726f60701b604082015260600190565b6020808252600e908201526d616d6f756e74206578636565647360901b604082015260600190565b6020808252600990820152686e6f207374616b657360b81b604082015260600190565b6020808252601a908201527f5374616b65315661756c743a20416c7265616479206164646564000000000000604082015260600190565b6020808252600e908201526d185b1c9958591e4818db1bdcd95960921b604082015260600190565b60405181810167ffffffffffffffff81118282101715612c0d57fe5b604052919050565b6001600160a01b0381168114612c2a57600080fd5b5056fe456e756d657261626c655365743a20696e646578206f7574206f6620626f756e6473416363657373436f6e74726f6c3a2073656e646572206d75737420626520616e2061646d696e20746f206772616e745374616b65315661756c743a2043616c6c6572206973206e6f7420616e2061646d696e416363657373436f6e74726f6c3a2073656e646572206d75737420626520616e2061646d696e20746f207265766f6b65536166654d6174683a206d756c7469706c69636174696f6e206f766572666c6f77df8b4c520ffe197c5343c6f5aec59570151ef9a492f2c624fd45ddde6135ec42416363657373436f6e74726f6c3a2063616e206f6e6c792072656e6f756e636520726f6c657320666f722073656c66a264697066735822122022a0629d7d6ccbec1d1a1f9e29674536d170bd8f1dc6496bb287be64b137858d64736f6c63430007060033df8b4c520ffe197c5343c6f5aec59570151ef9a492f2c624fd45ddde6135ec42",
  "immutableReferences": {},
  "source": "//SPDX-License-Identifier: Unlicense\npragma solidity ^0.7.6;\npragma abicoder v2;\n\nimport {IFLD} from \"../interfaces/IFLD.sol\";\nimport {IERC20} from \"@openzeppelin/contracts/token/ERC20/IERC20.sol\";\nimport \"../interfaces/IStake1Vault.sol\";\nimport \"../interfaces/IStake1.sol\";\nimport \"../libraries/LibTokenStake1.sol\";\nimport {SafeMath} from \"../utils/math/SafeMath.sol\";\n//import \"@openzeppelin/contracts/access/AccessControl.sol\";\nimport \"./StakeVaultStorage.sol\";\n\n/// @title FLD Token's Vault - stores the fld for the period of time\n/// @notice A vault is associated with the set of stake contracts.\n/// Stake contracts can interact with the vault to claim fld tokens\ncontract Stake1Vault is StakeVaultStorage  {\n    using SafeMath for uint256;\n\n    bytes32 public constant ZERO_HASH =\n        0x0000000000000000000000000000000000000000000000000000000000000000;\n\n\n\n    //////////////////////////////\n    // Events\n    //////////////////////////////\n    event ClosedSale(uint256 amount);\n    event ClaimedReward(address indexed from, address to, uint256 amount);\n\n    constructor() {\n        _setRoleAdmin(ADMIN_ROLE, ADMIN_ROLE);\n        _setupRole(ADMIN_ROLE, msg.sender);\n    }\n\n    receive() external payable {}\n\n    /// @dev Initializes all variables\n    /// @param _fld - FLD token address\n    /// @param _paytoken - Tokens staked by users, can be used as ERC20 tokens.\n    //                     (In case of ETH, input address(0))\n    /// @param _cap - Maximum amount of rewards issued\n    /// @param _saleStartBlock - Sales start block\n    /// @param _stakeStartBlock - Staking start block\n    /// @param _stakefactory - factory address to create stakeContract\n    /// @param _stakeType - if paytokein is stable coin, it is true.\n    function initialize(\n        address _fld,\n        address _paytoken,\n        uint256 _cap,\n        uint256 _saleStartBlock,\n        uint256 _stakeStartBlock,\n        address _stakefactory,\n        uint256 _stakeType,\n        address _defiAddr\n    ) external onlyOwner {\n        require(\n            _fld != address(0) && _stakefactory != address(0),\n            \"Stake1Vault: input is zero\"\n        );\n        require(_cap > 0, \"Stake1Vault: _cap is zero\");\n        require(\n            _saleStartBlock < _stakeStartBlock && _stakeStartBlock > 0,\n            \"Stake1Vault: startBlock is unavailable\"\n        );\n\n        fld = IFLD(_fld);\n        cap = _cap;\n        paytoken = _paytoken;\n        saleStartBlock = _saleStartBlock;\n        stakeStartBlock = _stakeStartBlock;\n        stakeType = _stakeType;\n        defiAddr = _defiAddr;\n\n        grantRole(ADMIN_ROLE, _stakefactory);\n    }\n\n    /// @dev Sets FLD address\n    function setFLD(address _fld) external onlyOwner {\n        require(_fld != address(0), \"Stake1Vault: input is zero\");\n        fld = IFLD(_fld);\n    }\n\n    /// @dev Change cap of the vault\n    function changeCap(uint256 _cap) external onlyOwner {\n        require(_cap > 0 && cap != _cap, \"Stake1Vault: changeCap fails\");\n        cap = _cap;\n    }\n\n    /// @dev Change orders\n    function changeOrderedEndBlocks(uint256[] memory _ordered)\n        external\n        onlyOwner\n    {\n        // solhint-disable-next-line max-line-length\n        require(\n            stakeEndBlock < block.number &&\n                orderedEndBlocks.length > 0 &&\n                orderedEndBlocks.length == _ordered.length,\n            \"Stake1Vault: changeOrderedEndBlocks fails\"\n        );\n        orderedEndBlocks = _ordered;\n    }\n\n    /// @dev Set Defi Address\n    function setDefiAddr(address _defiAddr) external onlyOwner {\n        require(\n            _defiAddr != address(0) && defiAddr != _defiAddr,\n            \"Stake1Vault: _defiAddr is zero\"\n        );\n        defiAddr = _defiAddr;\n    }\n\n    /// @dev Add stake contract\n    function addSubVaultOfStake(\n        string memory _name,\n        address stakeContract,\n        uint256 periodBlocks\n    ) external onlyOwner {\n        require(\n            stakeContract != address(0) && cap > 0 && periodBlocks > 0,\n            \"Stake1Vault: addStakerInVault init fails\"\n        );\n        require(\n            block.number < stakeStartBlock,\n            \"Stake1Vault: Already started stake\"\n        );\n        require(saleClosed == false, \"Stake1Vault: closed sale\");\n        require(\n            paytoken == IStake1(stakeContract).paytoken(),\n            \"Different paytoken\"\n        );\n\n        LibTokenStake1.StakeInfo storage info = stakeInfos[stakeContract];\n        require(info.startBlcok == 0, \"Stake1Vault: Already added\");\n\n        stakeAddresses.push(stakeContract);\n        uint256 _endBlock = stakeStartBlock.add(periodBlocks);\n\n        info.name = _name;\n        info.startBlcok = stakeStartBlock;\n        info.endBlock = _endBlock;\n\n        if (stakeEndBlock < _endBlock) stakeEndBlock = _endBlock;\n        orderedEndBlocks.push(stakeEndBlock);\n    }\n\n    /// @dev Close sale\n    function closeSale() external {\n        require(saleClosed == false, \"already closed\");\n        require(\n            cap > 0 &&\n                stakeStartBlock > 0 &&\n                stakeStartBlock < stakeEndBlock &&\n                block.number > stakeStartBlock,\n            \"closeSale init fail\"\n        );\n        require(stakeAddresses.length > 0, \"no stakes\");\n\n        realEndBlock = stakeEndBlock;\n\n        // check balance, update balance\n        for (uint256 i = stakeAddresses.length-1; i > 0; i--) {\n            LibTokenStake1.StakeInfo storage stakeInfo = stakeInfos[stakeAddresses[i]];\n            if (paytoken == address(0)) {\n                stakeInfo.balance = address(uint160(stakeAddresses[i])).balance;\n            } else {\n                stakeInfo.balance = IERC20(paytoken).balanceOf(stakeAddresses[i]);\n            }\n            if(stakeInfo.balance == 0) realEndBlock = stakeInfos[stakeAddresses[i-1]].endBlock;\n            else break;\n        }\n\n        LibTokenStake1.StakeInfo storage stakeInfo1 = stakeInfos[stakeAddresses[0]];\n        if (paytoken == address(0)) {\n            stakeInfo1.balance = address(uint160(stakeAddresses[0])).balance;\n        } else {\n            stakeInfo1.balance = IERC20(paytoken).balanceOf(stakeAddresses[0]);\n        }\n        blockTotalReward = cap.div(realEndBlock.sub(stakeStartBlock));\n\n        uint256 sum = 0;\n        // update total\n        for (uint256 i = 0; i < stakeAddresses.length; i++) {\n            LibTokenStake1.StakeInfo storage totalcheck =\n                stakeInfos[stakeAddresses[i]];\n            uint256 total = 0;\n            for (uint256 j = 0; j < stakeAddresses.length; j++) {\n                if (\n                    stakeInfos[stakeAddresses[j]].endBlock >=\n                    totalcheck.endBlock\n                ) {\n                    total = total.add(stakeInfos[stakeAddresses[j]].balance);\n                }\n            }\n\n            if(totalcheck.endBlock <= realEndBlock ) {\n                stakeEndBlockTotal[totalcheck.endBlock] = total;\n\n                sum = sum.add(total);\n\n                // reward total\n                uint256 totalReward = 0;\n                for (uint256 k = i; k > 0; k--) {\n\n                    if(stakeEndBlockTotal[stakeInfos[stakeAddresses[k]].endBlock] > 0 ){\n                        totalReward = totalReward.add(\n                            stakeInfos[stakeAddresses[k]].endBlock\n                            .sub(stakeInfos[stakeAddresses[k - 1]].endBlock)\n                            .mul(blockTotalReward)\n                            .mul(totalcheck.balance)\n                            .div(stakeEndBlockTotal[stakeInfos[stakeAddresses[k]].endBlock])\n                        );\n                    }\n                }\n\n                if(stakeEndBlockTotal[stakeInfos[stakeAddresses[0]].endBlock] > 0 ){\n                    totalReward = totalReward.add(\n                        stakeInfos[stakeAddresses[0]].endBlock\n                            .sub(stakeInfos[stakeAddresses[0]].startBlcok)\n                            .mul(blockTotalReward)\n                            .mul(totalcheck.balance)\n                            .div(stakeEndBlockTotal[stakeInfos[stakeAddresses[0]].endBlock])\n                    );\n                }\n                totalcheck.totalRewardAmount = totalReward;\n            }\n        }\n\n        saleClosed = true;\n        emit ClosedSale(sum);\n    }\n\n    /// @dev\n    /// sender is a staking contract.\n    /// A function that pays the amount(_amount) to _to by the staking contract.\n    /// A function that _to claim the amount(_amount) from the staking contract and gets the FLD in the vault.\n    function claim(address _to, uint256 _amount) external returns (bool) {\n        require(saleClosed && _amount > 0, \"disclose sale\");\n        uint256 fldBalance = fld.balanceOf(address(this));\n        require(\n            fldBalance >= _amount,\n            \"not enough balance\"\n        );\n\n        LibTokenStake1.StakeInfo storage stakeInfo = stakeInfos[msg.sender];\n        require(\n            stakeInfo.startBlcok > 0,\n            \"zero\"\n        );\n        require(\n            stakeInfo.totalRewardAmount > 0,\n            \"totalRewardAmount is zero\"\n        );\n        require(\n            stakeInfo.totalRewardAmount >=\n                stakeInfo.claimRewardAmount.add(_amount),\n            \"claim amount exceeds\"\n        );\n\n        stakeInfo.claimRewardAmount = stakeInfo.claimRewardAmount.add(_amount);\n\n        require(fld.transfer(_to, _amount), \"FLD transfer fail\");\n\n        emit ClaimedReward(msg.sender, _to, _amount);\n        return true;\n    }\n\n    /// @dev How much you can claim\n    function canClaim(address _to, uint256 _amount)\n        external\n        view\n        returns (uint256)\n    {\n        require(saleClosed, \"disclose\");\n        uint256 fldBalance = fld.balanceOf(address(this));\n        require(\n            fldBalance >= _amount,\n            \"not enough\"\n        );\n\n        LibTokenStake1.StakeInfo storage stakeInfo = stakeInfos[_to];\n        require(\n            stakeInfo.startBlcok > 0,\n            \"startBlcok is zero\"\n        );\n\n        require(\n            stakeInfo.totalRewardAmount > 0,\n            \"amount is wrong\"\n        );\n        require(\n            stakeInfo.totalRewardAmount >=\n                stakeInfo.claimRewardAmount.add(_amount),\n            \"amount exceeds\"\n        );\n\n        return stakeInfo.totalRewardAmount;\n    }\n\n    /// @dev Returns the FLD balance stored in the vault\n    function balanceFLDAvailableAmount()\n        external\n        view\n        returns (\n            uint256\n        )\n    {\n        return fld.balanceOf(address(this));\n    }\n\n    /// @dev Returns all addresses\n    function stakeAddressesAll() external view returns (address[] memory) {\n        return stakeAddresses;\n    }\n\n    /// @dev Ordered end blocks\n    function orderedEndBlocksAll() external view returns (uint256[] memory) {\n        return orderedEndBlocks;\n    }\n\n    /// @dev Total reward amount\n    function totalRewardAmount(address _account)\n        external\n        view\n        returns (uint256)\n    {\n        return stakeInfos[_account].totalRewardAmount;\n    }\n\n    /// @dev Returns info\n    function infos()\n        external\n        view\n        returns (\n            address,\n            uint256,\n            uint256,\n            uint256,\n            uint256,\n            uint256,\n            bool\n        )\n    {\n        return (\n            paytoken,\n            cap,\n            saleStartBlock,\n            stakeStartBlock,\n            stakeEndBlock,\n            blockTotalReward,\n            saleClosed\n        );\n    }\n}\n",
  "sourcePath": "/Users/zena/ico2.0/ico20-contracts/contracts/stake/Stake1Vault.sol",
  "compiler": {
    "name": "solc",
    "version": "0.7.6+commit.7338295f.Emscripten.clang"
  },
  "schemaVersion": "3.3.4",
  "updatedAt": "2021-05-24T21:50:03.453Z",
  "devdoc": {
    "kind": "dev",
    "methods": {
      "addSubVaultOfStake(string,address,uint256)": {
        "details": "Add stake contract"
      },
      "balanceFLDAvailableAmount()": {
        "details": "Returns the FLD balance stored in the vault"
      },
      "canClaim(address,uint256)": {
        "details": "How much you can claim"
      },
      "changeCap(uint256)": {
        "details": "Change cap of the vault"
      },
      "changeOrderedEndBlocks(uint256[])": {
        "details": "Change orders"
      },
      "claim(address,uint256)": {
        "details": "sender is a staking contract. A function that pays the amount(_amount) to _to by the staking contract. A function that _to claim the amount(_amount) from the staking contract and gets the FLD in the vault."
      },
      "closeSale()": {
        "details": "Close sale"
      },
      "getRoleAdmin(bytes32)": {
        "details": "Returns the admin role that controls `role`. See {grantRole} and {revokeRole}. To change a role's admin, use {_setRoleAdmin}."
      },
      "getRoleMember(bytes32,uint256)": {
        "details": "Returns one of the accounts that have `role`. `index` must be a value between 0 and {getRoleMemberCount}, non-inclusive. Role bearers are not sorted in any particular way, and their ordering may change at any point. WARNING: When using {getRoleMember} and {getRoleMemberCount}, make sure you perform all queries on the same block. See the following https://forum.openzeppelin.com/t/iterating-over-elements-on-enumerableset-in-openzeppelin-contracts/2296[forum post] for more information."
      },
      "getRoleMemberCount(bytes32)": {
        "details": "Returns the number of accounts that have `role`. Can be used together with {getRoleMember} to enumerate all bearers of a role."
      },
      "grantRole(bytes32,address)": {
        "details": "Grants `role` to `account`. If `account` had not been already granted `role`, emits a {RoleGranted} event. Requirements: - the caller must have ``role``'s admin role."
      },
      "hasRole(bytes32,address)": {
        "details": "Returns `true` if `account` has been granted `role`."
      },
      "infos()": {
        "details": "Returns info"
      },
      "initialize(address,address,uint256,uint256,uint256,address,uint256,address)": {
        "params": {
          "_cap": "- Maximum amount of rewards issued",
          "_saleStartBlock": "- Sales start block",
          "_stakeStartBlock": "- Staking start block",
          "_stakeType": "- if paytokein is stable coin, it is true.",
          "_stakefactory": "- factory address to create stakeContract"
        }
      },
      "orderedEndBlocksAll()": {
        "details": "Ordered end blocks"
      },
      "renounceRole(bytes32,address)": {
        "details": "Revokes `role` from the calling account. Roles are often managed via {grantRole} and {revokeRole}: this function's purpose is to provide a mechanism for accounts to lose their privileges if they are compromised (such as when a trusted device is misplaced). If the calling account had been granted `role`, emits a {RoleRevoked} event. Requirements: - the caller must be `account`."
      },
      "revokeRole(bytes32,address)": {
        "details": "Revokes `role` from `account`. If `account` had been granted `role`, emits a {RoleRevoked} event. Requirements: - the caller must have ``role``'s admin role."
      },
      "setDefiAddr(address)": {
        "details": "Set Defi Address"
      },
      "setFLD(address)": {
        "details": "Sets FLD address"
      },
      "stakeAddressesAll()": {
        "details": "Returns all addresses"
      },
      "totalRewardAmount(address)": {
        "details": "Total reward amount"
      }
    },
    "title": "FLD Token's Vault - stores the fld for the period of time",
    "version": 1
  },
  "userdoc": {
    "kind": "user",
    "methods": {},
    "notice": "A vault is associated with the set of stake contracts. Stake contracts can interact with the vault to claim fld tokens",
    "version": 1
  }
}