{
  "contractName": "StakeTONUpgrade",
  "abi": [
    {
      "inputs": [],
      "stateMutability": "nonpayable",
      "type": "constructor"
    },
    {
      "anonymous": false,
      "inputs": [
        {
          "indexed": true,
          "internalType": "address",
          "name": "to",
          "type": "address"
        },
        {
          "indexed": false,
          "internalType": "uint256",
          "name": "amount",
          "type": "uint256"
        },
        {
          "indexed": false,
          "internalType": "uint256",
          "name": "claimBlock",
          "type": "uint256"
        }
      ],
      "name": "Claimed",
      "type": "event"
    },
    {
      "anonymous": false,
      "inputs": [
        {
          "indexed": false,
          "internalType": "address",
          "name": "caller",
          "type": "address"
        },
        {
          "indexed": false,
          "internalType": "uint256",
          "name": "amountIn",
          "type": "uint256"
        },
        {
          "indexed": false,
          "internalType": "uint256",
          "name": "amountOut",
          "type": "uint256"
        }
      ],
      "name": "ExchangedWTONtoTOS",
      "type": "event"
    },
    {
      "anonymous": false,
      "inputs": [
        {
          "indexed": true,
          "internalType": "bytes32",
          "name": "role",
          "type": "bytes32"
        },
        {
          "indexed": true,
          "internalType": "bytes32",
          "name": "previousAdminRole",
          "type": "bytes32"
        },
        {
          "indexed": true,
          "internalType": "bytes32",
          "name": "newAdminRole",
          "type": "bytes32"
        }
      ],
      "name": "RoleAdminChanged",
      "type": "event"
    },
    {
      "anonymous": false,
      "inputs": [
        {
          "indexed": true,
          "internalType": "bytes32",
          "name": "role",
          "type": "bytes32"
        },
        {
          "indexed": true,
          "internalType": "address",
          "name": "account",
          "type": "address"
        },
        {
          "indexed": true,
          "internalType": "address",
          "name": "sender",
          "type": "address"
        }
      ],
      "name": "RoleGranted",
      "type": "event"
    },
    {
      "anonymous": false,
      "inputs": [
        {
          "indexed": true,
          "internalType": "bytes32",
          "name": "role",
          "type": "bytes32"
        },
        {
          "indexed": true,
          "internalType": "address",
          "name": "account",
          "type": "address"
        },
        {
          "indexed": true,
          "internalType": "address",
          "name": "sender",
          "type": "address"
        }
      ],
      "name": "RoleRevoked",
      "type": "event"
    },
    {
      "anonymous": false,
      "inputs": [
        {
          "indexed": false,
          "internalType": "address",
          "name": "registry",
          "type": "address"
        }
      ],
      "name": "SetRegistry",
      "type": "event"
    },
    {
      "anonymous": false,
      "inputs": [
        {
          "indexed": false,
          "internalType": "address",
          "name": "layer2",
          "type": "address"
        }
      ],
      "name": "SetTokamakLayer2",
      "type": "event"
    },
    {
      "anonymous": false,
      "inputs": [
        {
          "indexed": true,
          "internalType": "address",
          "name": "to",
          "type": "address"
        },
        {
          "indexed": false,
          "internalType": "uint256",
          "name": "amount",
          "type": "uint256"
        }
      ],
      "name": "Staked",
      "type": "event"
    },
    {
      "anonymous": false,
      "inputs": [
        {
          "indexed": false,
          "internalType": "address",
          "name": "layer2",
          "type": "address"
        },
        {
          "indexed": false,
          "internalType": "uint256",
          "name": "rn",
          "type": "uint256"
        },
        {
          "indexed": false,
          "internalType": "bool",
          "name": "receiveTON",
          "type": "bool"
        }
      ],
      "name": "TokamakProcessedUnStaking",
      "type": "event"
    },
    {
      "anonymous": false,
      "inputs": [
        {
          "indexed": false,
          "internalType": "address",
          "name": "layer2",
          "type": "address"
        },
        {
          "indexed": false,
          "internalType": "uint256",
          "name": "amount",
          "type": "uint256"
        }
      ],
      "name": "TokamakRequestedUnStaking",
      "type": "event"
    },
    {
      "anonymous": false,
      "inputs": [
        {
          "indexed": false,
          "internalType": "address",
          "name": "layer2",
          "type": "address"
        }
      ],
      "name": "TokamakRequestedUnStakingAll",
      "type": "event"
    },
    {
      "anonymous": false,
      "inputs": [
        {
          "indexed": false,
          "internalType": "address",
          "name": "layer2",
          "type": "address"
        },
        {
          "indexed": false,
          "internalType": "uint256",
          "name": "amount",
          "type": "uint256"
        }
      ],
      "name": "TokamakStaked",
      "type": "event"
    },
    {
      "anonymous": false,
      "inputs": [
        {
          "indexed": true,
          "internalType": "address",
          "name": "to",
          "type": "address"
        },
        {
          "indexed": false,
          "internalType": "uint256",
          "name": "tonAmount",
          "type": "uint256"
        },
        {
          "indexed": false,
          "internalType": "uint256",
          "name": "tosAmount",
          "type": "uint256"
        }
      ],
      "name": "Withdrawal",
      "type": "event"
    },
    {
      "inputs": [],
      "name": "ADMIN_ROLE",
      "outputs": [
        {
          "internalType": "bytes32",
          "name": "",
          "type": "bytes32"
        }
      ],
      "stateMutability": "view",
      "type": "function"
    },
    {
      "inputs": [],
      "name": "BURNER_ROLE",
      "outputs": [
        {
          "internalType": "bytes32",
          "name": "",
          "type": "bytes32"
        }
      ],
      "stateMutability": "view",
      "type": "function"
    },
    {
      "inputs": [],
      "name": "DEFAULT_ADMIN_ROLE",
      "outputs": [
        {
          "internalType": "bytes32",
          "name": "",
          "type": "bytes32"
        }
      ],
      "stateMutability": "view",
      "type": "function"
    },
    {
      "inputs": [],
      "name": "MINTER_ROLE",
      "outputs": [
        {
          "internalType": "bytes32",
          "name": "",
          "type": "bytes32"
        }
      ],
      "stateMutability": "view",
      "type": "function"
    },
    {
      "inputs": [
        {
          "internalType": "address",
          "name": "account",
          "type": "address"
        }
      ],
      "name": "addAdmin",
      "outputs": [],
      "stateMutability": "nonpayable",
      "type": "function"
    },
    {
      "inputs": [
        {
          "internalType": "address",
          "name": "_layer2",
          "type": "address"
        }
      ],
      "name": "canTokamakRequestUnStaking",
      "outputs": [
        {
          "internalType": "uint256",
          "name": "canUnStakingAmount",
          "type": "uint256"
        }
      ],
      "stateMutability": "view",
      "type": "function"
    },
    {
      "inputs": [
        {
          "internalType": "address",
          "name": "_layer2",
          "type": "address"
        }
      ],
      "name": "canTokamakRequestUnStakingAll",
      "outputs": [
        {
          "internalType": "bool",
          "name": "can",
          "type": "bool"
        }
      ],
      "stateMutability": "view",
      "type": "function"
    },
    {
      "inputs": [
        {
          "internalType": "address",
          "name": "_layer2",
          "type": "address"
        }
      ],
      "name": "canTokamakRequestUnStakingAllBlock",
      "outputs": [
        {
          "internalType": "uint256",
          "name": "_block",
          "type": "uint256"
        }
      ],
      "stateMutability": "view",
      "type": "function"
    },
    {
      "inputs": [],
      "name": "checkTokamak",
      "outputs": [],
      "stateMutability": "nonpayable",
      "type": "function"
    },
    {
      "inputs": [],
      "name": "defiAddr",
      "outputs": [
        {
          "internalType": "address",
          "name": "",
          "type": "address"
        }
      ],
      "stateMutability": "view",
      "type": "function"
    },
    {
      "inputs": [],
      "name": "defiStatus",
      "outputs": [
        {
          "internalType": "uint256",
          "name": "",
          "type": "uint256"
        }
      ],
      "stateMutability": "view",
      "type": "function"
    },
    {
      "inputs": [],
      "name": "depositManager",
      "outputs": [
        {
          "internalType": "address",
          "name": "",
          "type": "address"
        }
      ],
      "stateMutability": "view",
      "type": "function"
    },
    {
      "inputs": [],
      "name": "endBlock",
      "outputs": [
        {
          "internalType": "uint256",
          "name": "",
          "type": "uint256"
        }
      ],
      "stateMutability": "view",
      "type": "function"
    },
    {
      "inputs": [
        {
          "internalType": "uint256",
          "name": "_amountIn",
          "type": "uint256"
        },
        {
          "internalType": "uint256",
          "name": "_amountOutMinimum",
          "type": "uint256"
        },
        {
          "internalType": "uint256",
          "name": "_deadline",
          "type": "uint256"
        },
        {
          "internalType": "uint160",
          "name": "_sqrtPriceLimitX96",
          "type": "uint160"
        },
        {
          "internalType": "uint256",
          "name": "_kind",
          "type": "uint256"
        }
      ],
      "name": "exchangeWTONtoTOS",
      "outputs": [
        {
          "internalType": "uint256",
          "name": "amountOut",
          "type": "uint256"
        }
      ],
      "stateMutability": "nonpayable",
      "type": "function"
    },
    {
      "inputs": [],
      "name": "finalBalanceTON",
      "outputs": [
        {
          "internalType": "uint256",
          "name": "",
          "type": "uint256"
        }
      ],
      "stateMutability": "view",
      "type": "function"
    },
    {
      "inputs": [],
      "name": "finalBalanceWTON",
      "outputs": [
        {
          "internalType": "uint256",
          "name": "",
          "type": "uint256"
        }
      ],
      "stateMutability": "view",
      "type": "function"
    },
    {
      "inputs": [],
      "name": "fromTokamak",
      "outputs": [
        {
          "internalType": "uint256",
          "name": "",
          "type": "uint256"
        }
      ],
      "stateMutability": "view",
      "type": "function"
    },
    {
      "inputs": [
        {
          "internalType": "bytes32",
          "name": "role",
          "type": "bytes32"
        }
      ],
      "name": "getRoleAdmin",
      "outputs": [
        {
          "internalType": "bytes32",
          "name": "",
          "type": "bytes32"
        }
      ],
      "stateMutability": "view",
      "type": "function"
    },
    {
      "inputs": [
        {
          "internalType": "bytes32",
          "name": "role",
          "type": "bytes32"
        },
        {
          "internalType": "uint256",
          "name": "index",
          "type": "uint256"
        }
      ],
      "name": "getRoleMember",
      "outputs": [
        {
          "internalType": "address",
          "name": "",
          "type": "address"
        }
      ],
      "stateMutability": "view",
      "type": "function"
    },
    {
      "inputs": [
        {
          "internalType": "bytes32",
          "name": "role",
          "type": "bytes32"
        }
      ],
      "name": "getRoleMemberCount",
      "outputs": [
        {
          "internalType": "uint256",
          "name": "",
          "type": "uint256"
        }
      ],
      "stateMutability": "view",
      "type": "function"
    },
    {
      "inputs": [],
      "name": "getUniswapInfo",
      "outputs": [
        {
          "internalType": "address",
          "name": "uniswapRouter",
          "type": "address"
        },
        {
          "internalType": "address",
          "name": "npm",
          "type": "address"
        },
        {
          "internalType": "address",
          "name": "ext",
          "type": "address"
        },
        {
          "internalType": "uint256",
          "name": "fee",
          "type": "uint256"
        },
        {
          "internalType": "address",
          "name": "uniswapRouterV2",
          "type": "address"
        }
      ],
      "stateMutability": "view",
      "type": "function"
    },
    {
      "inputs": [
        {
          "internalType": "address",
          "name": "user",
          "type": "address"
        }
      ],
      "name": "getUserStaked",
      "outputs": [
        {
          "internalType": "uint256",
          "name": "amount",
          "type": "uint256"
        },
        {
          "internalType": "uint256",
          "name": "claimedBlock",
          "type": "uint256"
        },
        {
          "internalType": "uint256",
          "name": "claimedAmount",
          "type": "uint256"
        },
        {
          "internalType": "uint256",
          "name": "releasedBlock",
          "type": "uint256"
        },
        {
          "internalType": "uint256",
          "name": "releasedAmount",
          "type": "uint256"
        },
        {
          "internalType": "uint256",
          "name": "releasedTOSAmount",
          "type": "uint256"
        },
        {
          "internalType": "bool",
          "name": "released",
          "type": "bool"
        }
      ],
      "stateMutability": "view",
      "type": "function"
    },
    {
      "inputs": [
        {
          "internalType": "bytes32",
          "name": "role",
          "type": "bytes32"
        },
        {
          "internalType": "address",
          "name": "account",
          "type": "address"
        }
      ],
      "name": "grantRole",
      "outputs": [],
      "stateMutability": "nonpayable",
      "type": "function"
    },
    {
      "inputs": [
        {
          "internalType": "bytes32",
          "name": "role",
          "type": "bytes32"
        },
        {
          "internalType": "address",
          "name": "account",
          "type": "address"
        }
      ],
      "name": "hasRole",
      "outputs": [
        {
          "internalType": "bool",
          "name": "",
          "type": "bool"
        }
      ],
      "stateMutability": "view",
      "type": "function"
    },
    {
      "inputs": [],
      "name": "infos",
      "outputs": [
        {
          "internalType": "address",
          "name": "",
          "type": "address"
        },
        {
          "internalType": "address",
          "name": "",
          "type": "address"
        },
        {
          "internalType": "uint256[3]",
          "name": "",
          "type": "uint256[3]"
        },
        {
          "internalType": "uint256",
          "name": "",
          "type": "uint256"
        },
        {
          "internalType": "uint256",
          "name": "",
          "type": "uint256"
        },
        {
          "internalType": "uint256",
          "name": "",
          "type": "uint256"
        }
      ],
      "stateMutability": "view",
      "type": "function"
    },
    {
      "inputs": [
        {
          "internalType": "address",
          "name": "account",
          "type": "address"
        }
      ],
      "name": "isAdmin",
      "outputs": [
        {
          "internalType": "bool",
          "name": "",
          "type": "bool"
        }
      ],
      "stateMutability": "view",
      "type": "function"
    },
    {
      "inputs": [],
      "name": "migratedL2",
      "outputs": [
        {
          "internalType": "bool",
          "name": "",
          "type": "bool"
        }
      ],
      "stateMutability": "view",
      "type": "function"
    },
    {
      "inputs": [],
      "name": "pauseProxy",
      "outputs": [
        {
          "internalType": "bool",
          "name": "",
          "type": "bool"
        }
      ],
      "stateMutability": "view",
      "type": "function"
    },
    {
      "inputs": [],
      "name": "paytoken",
      "outputs": [
        {
          "internalType": "address",
          "name": "",
          "type": "address"
        }
      ],
      "stateMutability": "view",
      "type": "function"
    },
    {
      "inputs": [
        {
          "internalType": "address",
          "name": "account",
          "type": "address"
        }
      ],
      "name": "removeAdmin",
      "outputs": [],
      "stateMutability": "nonpayable",
      "type": "function"
    },
    {
      "inputs": [
        {
          "internalType": "bytes32",
          "name": "role",
          "type": "bytes32"
        },
        {
          "internalType": "address",
          "name": "account",
          "type": "address"
        }
      ],
      "name": "renounceRole",
      "outputs": [],
      "stateMutability": "nonpayable",
      "type": "function"
    },
    {
      "inputs": [],
      "name": "requestNum",
      "outputs": [
        {
          "internalType": "uint256",
          "name": "",
          "type": "uint256"
        }
      ],
      "stateMutability": "view",
      "type": "function"
    },
    {
      "inputs": [
        {
          "internalType": "bytes32",
          "name": "role",
          "type": "bytes32"
        },
        {
          "internalType": "address",
          "name": "account",
          "type": "address"
        }
      ],
      "name": "revokeRole",
      "outputs": [],
      "stateMutability": "nonpayable",
      "type": "function"
    },
    {
      "inputs": [],
      "name": "rewardClaimedTotal",
      "outputs": [
        {
          "internalType": "uint256",
          "name": "",
          "type": "uint256"
        }
      ],
      "stateMutability": "view",
      "type": "function"
    },
    {
      "inputs": [],
      "name": "saleStartBlock",
      "outputs": [
        {
          "internalType": "uint256",
          "name": "",
          "type": "uint256"
        }
      ],
      "stateMutability": "view",
      "type": "function"
    },
    {
      "inputs": [],
      "name": "seigManager",
      "outputs": [
        {
          "internalType": "address",
          "name": "",
          "type": "address"
        }
      ],
      "stateMutability": "view",
      "type": "function"
    },
    {
      "inputs": [
        {
          "internalType": "address",
          "name": "_registry",
          "type": "address"
        }
      ],
      "name": "setRegistry",
      "outputs": [],
      "stateMutability": "nonpayable",
      "type": "function"
    },
    {
      "inputs": [
        {
          "internalType": "address",
          "name": "_layer2",
          "type": "address"
        }
      ],
      "name": "setTokamakLayer2",
      "outputs": [],
      "stateMutability": "nonpayable",
      "type": "function"
    },
    {
      "inputs": [],
      "name": "stakeRegistry",
      "outputs": [
        {
          "internalType": "address",
          "name": "",
          "type": "address"
        }
      ],
      "stateMutability": "view",
      "type": "function"
    },
    {
      "inputs": [],
      "name": "startBlock",
      "outputs": [
        {
          "internalType": "uint256",
          "name": "",
          "type": "uint256"
        }
      ],
      "stateMutability": "view",
      "type": "function"
    },
    {
      "inputs": [],
      "name": "swapProxy",
      "outputs": [
        {
          "internalType": "address",
          "name": "",
          "type": "address"
        }
      ],
      "stateMutability": "view",
      "type": "function"
    },
    {
      "inputs": [
        {
          "internalType": "uint256",
          "name": "amount",
          "type": "uint256"
        },
        {
          "internalType": "bool",
          "name": "toWTON",
          "type": "bool"
        }
      ],
      "name": "swapTONtoWTON",
      "outputs": [],
      "stateMutability": "nonpayable",
      "type": "function"
    },
    {
      "inputs": [],
      "name": "swappedAmountTOS",
      "outputs": [
        {
          "internalType": "uint256",
          "name": "",
          "type": "uint256"
        }
      ],
      "stateMutability": "view",
      "type": "function"
    },
    {
      "inputs": [],
      "name": "toTokamak",
      "outputs": [
        {
          "internalType": "uint256",
          "name": "",
          "type": "uint256"
        }
      ],
      "stateMutability": "view",
      "type": "function"
    },
    {
      "inputs": [],
      "name": "toUniswapWTON",
      "outputs": [
        {
          "internalType": "uint256",
          "name": "",
          "type": "uint256"
        }
      ],
      "stateMutability": "view",
      "type": "function"
    },
    {
      "inputs": [],
      "name": "tokamakLayer2",
      "outputs": [
        {
          "internalType": "address",
          "name": "",
          "type": "address"
        }
      ],
      "stateMutability": "view",
      "type": "function"
    },
    {
      "inputs": [
        {
          "internalType": "address",
          "name": "_layer2",
          "type": "address"
        }
      ],
      "name": "tokamakProcessUnStaking",
      "outputs": [],
      "stateMutability": "nonpayable",
      "type": "function"
    },
    {
      "inputs": [
        {
          "internalType": "address",
          "name": "_layer2",
          "type": "address"
        },
        {
          "internalType": "uint256",
          "name": "wtonAmount",
          "type": "uint256"
        }
      ],
      "name": "tokamakRequestUnStaking",
      "outputs": [],
      "stateMutability": "nonpayable",
      "type": "function"
    },
    {
      "inputs": [
        {
          "internalType": "address",
          "name": "_layer2",
          "type": "address"
        }
      ],
      "name": "tokamakRequestUnStakingAll",
      "outputs": [],
      "stateMutability": "nonpayable",
      "type": "function"
    },
    {
      "inputs": [
        {
          "internalType": "address",
          "name": "_layer2",
          "type": "address"
        },
        {
          "internalType": "uint256",
          "name": "stakeAmount",
          "type": "uint256"
        }
      ],
      "name": "tokamakStaking",
      "outputs": [],
      "stateMutability": "nonpayable",
      "type": "function"
    },
    {
      "inputs": [],
      "name": "token",
      "outputs": [
        {
          "internalType": "address",
          "name": "",
          "type": "address"
        }
      ],
      "stateMutability": "view",
      "type": "function"
    },
    {
      "inputs": [],
      "name": "ton",
      "outputs": [
        {
          "internalType": "address",
          "name": "",
          "type": "address"
        }
      ],
      "stateMutability": "view",
      "type": "function"
    },
    {
      "inputs": [],
      "name": "totalStakedAmount",
      "outputs": [
        {
          "internalType": "uint256",
          "name": "",
          "type": "uint256"
        }
      ],
      "stateMutability": "view",
      "type": "function"
    },
    {
      "inputs": [],
      "name": "totalStakers",
      "outputs": [
        {
          "internalType": "uint256",
          "name": "",
          "type": "uint256"
        }
      ],
      "stateMutability": "view",
      "type": "function"
    },
    {
      "inputs": [
        {
          "internalType": "address",
          "name": "newAdmin",
          "type": "address"
        }
      ],
      "name": "transferAdmin",
      "outputs": [],
      "stateMutability": "nonpayable",
      "type": "function"
    },
    {
      "inputs": [
        {
          "internalType": "address",
          "name": "",
          "type": "address"
        }
      ],
      "name": "userStaked",
      "outputs": [
        {
          "internalType": "uint256",
          "name": "amount",
          "type": "uint256"
        },
        {
          "internalType": "uint256",
          "name": "claimedBlock",
          "type": "uint256"
        },
        {
          "internalType": "uint256",
          "name": "claimedAmount",
          "type": "uint256"
        },
        {
          "internalType": "uint256",
          "name": "releasedBlock",
          "type": "uint256"
        },
        {
          "internalType": "uint256",
          "name": "releasedAmount",
          "type": "uint256"
        },
        {
          "internalType": "uint256",
          "name": "releasedTOSAmount",
          "type": "uint256"
        },
        {
          "internalType": "bool",
          "name": "released",
          "type": "bool"
        }
      ],
      "stateMutability": "view",
      "type": "function"
    },
    {
      "inputs": [],
      "name": "vault",
      "outputs": [
        {
          "internalType": "address",
          "name": "",
          "type": "address"
        }
      ],
      "stateMutability": "view",
      "type": "function"
    },
    {
      "inputs": [],
      "name": "version",
      "outputs": [
        {
          "internalType": "string",
          "name": "",
          "type": "string"
        }
      ],
      "stateMutability": "pure",
      "type": "function"
    },
    {
      "inputs": [],
      "name": "withdrawFlag",
      "outputs": [
        {
          "internalType": "bool",
          "name": "",
          "type": "bool"
        }
      ],
      "stateMutability": "view",
      "type": "function"
    },
    {
      "inputs": [],
      "name": "wton",
      "outputs": [
        {
          "internalType": "address",
          "name": "",
          "type": "address"
        }
      ],
      "stateMutability": "view",
      "type": "function"
    },
    {
      "stateMutability": "payable",
      "type": "receive"
    },
    {
      "inputs": [],
      "name": "withdraw",
      "outputs": [],
      "stateMutability": "nonpayable",
      "type": "function"
    },
    {
      "inputs": [],
      "name": "claim",
      "outputs": [],
      "stateMutability": "nonpayable",
      "type": "function"
    },
    {
      "inputs": [
        {
          "internalType": "address",
          "name": "account",
          "type": "address"
        },
        {
          "internalType": "uint256",
          "name": "specificBlock",
          "type": "uint256"
        }
      ],
      "name": "canRewardAmount",
      "outputs": [
        {
          "internalType": "uint256",
          "name": "",
          "type": "uint256"
        }
      ],
      "stateMutability": "view",
      "type": "function"
    }
  ],
  "bytecode": "0x608060405234801561001057600080fd5b50615bf580620000216000396000f3fe60806040526004361061033c5760003560e01c8063730464a9116101b2578063acc3a939116100ed578063e09974b911610090578063e09974b914610956578063e58e27471461096b578063e6a7bc8714610980578063f0cdfa5314610995578063fbfa77cf146109b5578063fc0c546a146109ca578063fd7fa460146109df578063ff758788146109f457610362565b8063acc3a93914610864578063b2d4d6a314610897578063ca15c873146108ac578063cc48b947146108cc578063ce681ce6146108e1578063d539139314610901578063d547741f14610916578063dac3fc3f1461093657610362565b806392ea3b4c1161015557806392ea3b4c146107895780639a88be2f1461079e5780639d84ca35146107c5578063a1f5f50e146107da578063a217fddf146107ef578063a6e8670e14610804578063a852175614610824578063a91ee0dc1461084457610362565b8063730464a9146106aa57806375829def146106ca57806375b238fc146106ea5780637df3f40c146106ff578063869890381461071f5780638d62d949146107345780639010d07c1461074957806391d148541461076957610362565b806343b0934a11610282578063687b53be11610225578063687b53be146105e15780636c7ac9d8146106015780636e7cf534146106165780636ec4be901461062b5780636fb7f55814610640578063704802751461065557806371def0b314610675578063722853261461069557610362565b806343b0934a1461051457806348cd4cb1146105365780634e71d92d1461054b57806354fd4d5014610560578063567e98f91461058257806363a8fd891461059757806367cf3e18146105ac57806368304835146105cc57610362565b80632335a6b2116102ea5780632335a6b214610428578063248a9ca31461045557806324d7806c14610475578063282c51f3146104955780632995fa0e146104aa5780632f2ff15d146104bf57806336568abe146104df5780633ccfd60b146104ff57610362565b806305871b7814610367578063065c431314610392578063083c6323146103b45780630ac8e0f3146103c95780630ea3d9c9146103de5780631785f53c146103f3578063200272751461041357610362565b366103625760405162461bcd60e51b8152600401610359906158dc565b60405180910390fd5b600080fd5b34801561037357600080fd5b5061037c610a1a565b6040516103899190614e58565b60405180910390f35b34801561039e57600080fd5b506103b26103ad366004614a7c565b610a20565b005b3480156103c057600080fd5b5061037c610fb3565b3480156103d557600080fd5b5061037c610fb9565b3480156103ea57600080fd5b5061037c610fbf565b3480156103ff57600080fd5b506103b261040e366004614990565b610fc5565b34801561041f57600080fd5b5061037c611024565b34801561043457600080fd5b50610448610443366004614990565b61102a565b6040516103899190614e4d565b34801561046157600080fd5b5061037c610470366004614b71565b6111cf565b34801561048157600080fd5b50610448610490366004614990565b6111e4565b3480156104a157600080fd5b5061037c611204565b3480156104b657600080fd5b506103b2611228565b3480156104cb57600080fd5b506103b26104da366004614b89565b6113ad565b3480156104eb57600080fd5b506103b26104fa366004614b89565b611414565b34801561050b57600080fd5b506103b2611475565b34801561052057600080fd5b50610529611c05565b6040516103899190614cfd565b34801561054257600080fd5b5061037c611c14565b34801561055757600080fd5b506103b2611c1a565b34801561056c57600080fd5b50610575611f06565b6040516103899190614e61565b34801561058e57600080fd5b5061037c611f30565b3480156105a357600080fd5b50610448611f36565b3480156105b857600080fd5b5061037c6105c7366004614a7c565b611f3f565b3480156105d857600080fd5b50610529612295565b3480156105ed57600080fd5b5061037c6105fc366004614990565b6122a4565b34801561060d57600080fd5b506105296123c6565b34801561062257600080fd5b506104486123d5565b34801561063757600080fd5b506105296123de565b34801561064c57600080fd5b506105296123ed565b34801561066157600080fd5b506103b2610670366004614990565b6123fc565b34801561068157600080fd5b506103b2610690366004614990565b612458565b3480156106a157600080fd5b5061037c6127e1565b3480156106b657600080fd5b506103b26106c5366004614990565b6127e7565b3480156106d657600080fd5b506103b26106e5366004614990565b612b39565b3480156106f657600080fd5b5061037c612c5a565b34801561070b57600080fd5b506103b261071a366004614bf1565b612c6c565b34801561072b57600080fd5b5061037c612f89565b34801561074057600080fd5b50610529612f8f565b34801561075557600080fd5b50610529610764366004614bb8565b612f9e565b34801561077557600080fd5b50610448610784366004614b89565b612fb6565b34801561079557600080fd5b50610529612fce565b3480156107aa57600080fd5b506107b3612fdd565b60405161038996959493929190614d95565b3480156107d157600080fd5b50610529613033565b3480156107e657600080fd5b50610448613047565b3480156107fb57600080fd5b5061037c613057565b34801561081057600080fd5b506103b261081f366004614990565b61305c565b34801561083057600080fd5b5061037c61083f366004614990565b613138565b34801561085057600080fd5b506103b261085f366004614990565b613236565b34801561087057600080fd5b5061088461087f366004614990565b6132fe565b6040516103899796959493929190615a57565b3480156108a357600080fd5b5061037c61333e565b3480156108b857600080fd5b5061037c6108c7366004614b71565b613344565b3480156108d857600080fd5b5061052961335b565b3480156108ed57600080fd5b506103b26108fc366004614a7c565b61336a565b34801561090d57600080fd5b5061037c6136a7565b34801561092257600080fd5b506103b2610931366004614b89565b6136cb565b34801561094257600080fd5b50610884610951366004614990565b613724565b34801561096257600080fd5b5061037c61376d565b34801561097757600080fd5b5061037c613773565b34801561098c57600080fd5b5061037c613779565b3480156109a157600080fd5b5061037c6109b0366004614c15565b61377f565b3480156109c157600080fd5b50610529613ff9565b3480156109d657600080fd5b50610529614008565b3480156109eb57600080fd5b5061037c614017565b348015610a0057600080fd5b50610a0961401d565b604051610389959493929190614d65565b60155481565b600b5415610a405760405162461bcd60e51b81526004016103599061525f565b6001600b819055546001600160a01b031680610a6e5760405162461bcd60e51b815260040161035990614e74565b826001600160a01b038116610a955760405162461bcd60e51b815260040161035990614e74565b600360009054906101000a90046001600160a01b03166001600160a01b031663b8c766b86040518163ffffffff1660e01b815260040160206040518083038186803b158015610ae357600080fd5b505afa158015610af7573d6000803e3d6000fd5b505050506040513d601f19601f82011682018060405250810190610b1b9190614b55565b610b375760405162461bcd60e51b8152600401610359906158a9565b600654431115610b595760405162461bcd60e51b815260040161035990615029565b60008311610b795760405162461bcd60e51b815260040161035990615653565b6002601955610b86611228565b60105460408051633761ead760e11b815290516000926001600160a01b031691636ec3d5ae916004808301926020929190829003018186803b158015610bcb57600080fd5b505afa158015610bdf573d6000803e3d6000fd5b505050506040513d601f19601f82011682018060405250810190610c039190614bd9565b600654909150610c1390826140bc565b4310610c315760405162461bcd60e51b815260040161035990615092565b6012546001600160a01b0316610c6157601280546001600160a01b0319166001600160a01b038716179055610de6565b600f546012546040516367265c3b60e11b81526000926001600160a01b039081169263ce4cb87692610c9b92909116903090600401614d4b565b60206040518083038186803b158015610cb357600080fd5b505afa158015610cc7573d6000803e3d6000fd5b505050506040513d601f19601f82011682018060405250810190610ceb9190614bd9565b1180610d7e5750601054601254604051632638fdf560e01b81526000926001600160a01b0390811692632638fdf592610d2c92909116903090600401614d4b565b60206040518083038186803b158015610d4457600080fd5b505afa158015610d58573d6000803e3d6000fd5b505050506040513d601f19601f82011682018060405250810190610d7c9190614bd9565b115b15610db5576012546001600160a01b03868116911614610db05760405162461bcd60e51b815260040161035990615433565b610de6565b6012546001600160a01b03868116911614610de657601280546001600160a01b0319166001600160a01b0387161790555b600d546040516370a0823160e01b815285916001600160a01b0316906370a0823190610e16903090600401614cfd565b60206040518083038186803b158015610e2e57600080fd5b505afa158015610e42573d6000803e3d6000fd5b505050506040513d601f19601f82011682018060405250810190610e669190614bd9565b1015610e845760405162461bcd60e51b81526004016103599061551e565b601354610e9190856140fe565b601355601054604051600091610eb7916001600160a01b03909116908890602001614d4b565b60408051601f1981840301815290829052600d54600e5463cae9ca5160e01b84529193506001600160a01b039081169263cae9ca5192610eff92169089908690600401614e1d565b602060405180830381600087803b158015610f1957600080fd5b505af1158015610f2d573d6000803e3d6000fd5b505050506040513d601f19601f82011682018060405250810190610f519190614b55565b610f6d5760405162461bcd60e51b815260040161035990615306565b7f36f1e081b7e687a2472c2fbd52bc97993ddc788b19c74010f11e25f3c917d2dd8686604051610f9e929190614d11565b60405180910390a150506000600b5550505050565b60065481565b60145481565b60165481565b610fce336111e4565b6110095760405162461bcd60e51b8152600401808060200182810382526022815260200180615afe6022913960400191505060405180910390fd5b611021600080516020615b7183398151915282611414565b50565b60045481565b6012546000906001600160a01b03161580159061105457506012546001600160a01b038381169116145b801561106a57506010546001600160a01b031615155b80156110805750600f546001600160a01b031615155b156111ca5760105460408051633761ead760e11b815290516000926001600160a01b031691636ec3d5ae916004808301926020929190829003018186803b1580156110ca57600080fd5b505afa1580156110de573d6000803e3d6000fd5b505050506040513d601f19601f820116820180604052508101906111029190614bd9565b600f546040516367265c3b60e11b8152919250600e8304916000916001600160a01b03169063ce4cb8769061113d9088903090600401614d4b565b60206040518083038186803b15801561115557600080fd5b505afa158015611169573d6000803e3d6000fd5b505050506040513d601f19601f8201168201806040525081019061118d9190614bd9565b90506000811180156111bc57506111b9826111b3856006546140bc90919063ffffffff16565b906140bc565b43115b156111c657600193505b5050505b919050565b6000908152601c602052604090206002015490565b60006111fe600080516020615b7183398151915283612fb6565b92915050565b7f9667e80708b6eeeb0053fa0cca44e028ff548e2a9f029edfeac87c118b08b7c881565b600d546001600160a01b0316611329576000806000806000600160009054906101000a90046001600160a01b03166001600160a01b031663a782ebd56040518163ffffffff1660e01b815260040160a06040518083038186803b15801561128e57600080fd5b505afa1580156112a2573d6000803e3d6000fd5b505050506040513d601f19601f820116820180604052508101906112c691906149ac565b600d80546001600160a01b03199081166001600160a01b0397881617909155600e805482169587169590951790945560108054851693861693909317909255600f8054841691851691909117905560118054909216921691909117905550505050505b600d546001600160a01b03161580159061134d5750600e546001600160a01b031615155b80156113635750600f546001600160a01b031615155b801561137957506010546001600160a01b031615155b801561138f57506011546001600160a01b031615155b6113ab5760405162461bcd60e51b81526004016103599061561c565b565b6000828152601c60205260409020600201546113cb90610784614158565b6114065760405162461bcd60e51b815260040180806020018281038252602f815260200180615acf602f913960400191505060405180910390fd5b611410828261415c565b5050565b61141c614158565b6001600160a01b0316816001600160a01b03161461146b5760405162461bcd60e51b815260040180806020018281038252602f815260200180615b91602f913960400191505060405180910390fd5b61141082826141c5565b6000600654118015611488575043600654105b6114a45760405162461bcd60e51b815260040161035990615810565b600080600080600160009054906101000a90046001600160a01b03166001600160a01b031663a782ebd56040518163ffffffff1660e01b815260040160a06040518083038186803b1580156114f857600080fd5b505afa15801561150c573d6000803e3d6000fd5b505050506040513d601f19601f8201168201806040525081019061153091906149ac565b50929650909450925090506001600160a01b0384161580159061155b57506001600160a01b03831615155b801561156f57506001600160a01b03821615155b801561158357506001600160a01b03811615155b61159f5760405162461bcd60e51b8152600401610359906150db565b6012546001600160a01b0316156116de576012546040516367265c3b60e11b81526001600160a01b038381169263ce4cb876926115e492909116903090600401614d4b565b60206040518083038186803b1580156115fc57600080fd5b505afa158015611610573d6000803e3d6000fd5b505050506040513d601f19601f820116820180604052508101906116349190614bd9565b1580156116c25750601254604051632638fdf560e01b81526001600160a01b0384811692632638fdf59261167092909116903090600401614d4b565b60206040518083038186803b15801561168857600080fd5b505afa15801561169c573d6000803e3d6000fd5b505050506040513d601f19601f820116820180604052508101906116c09190614bd9565b155b6116de5760405162461bcd60e51b81526004016103599061528d565b336000908152600960205260409020600681015460ff16156117125760405162461bcd60e51b815260040161035990614ee2565b601b5460ff1661190157601b805460ff191660011790556002546001600160a01b039081169086161415611901576000546040516370a0823160e01b81526001600160a01b03909116906370a0823190611770903090600401614cfd565b60206040518083038186803b15801561178857600080fd5b505afa15801561179c573d6000803e3d6000fd5b505050506040513d601f19601f820116820180604052508101906117c09190614bd9565b6016556040516370a0823160e01b81526001600160a01b038516906370a08231906117ef903090600401614cfd565b60206040518083038186803b15801561180757600080fd5b505afa15801561181b573d6000803e3d6000fd5b505050506040513d601f19601f8201168201806040525081019061183f9190614bd9565b6018556040516370a0823160e01b81526001600160a01b038616906370a082319061186e903090600401614cfd565b60206040518083038186803b15801561188657600080fd5b505afa15801561189a573d6000803e3d6000fd5b505050506040513d601f19601f820116820180604052508101906118be9190614bd9565b601781905560085460185490916118e3916118dd90633b9aca0061422e565b906140fe565b10156119015760405162461bcd60e51b8152600401610359906152cf565b8054806119205760405162461bcd60e51b8152600401610359906154ee565b43600383015560068201805460ff191660011790556002546001600160a01b039081169087161415611a1157600080600080601754111561197f5761197c6008546119768660175461427090919063ffffffff16565b9061422e565b92505b601854156119a5576119a26008546119768660185461427090919063ffffffff16565b91505b601654156119cb576119c86008546119768660165461427090919063ffffffff16565b90505b6005850181905581156119f4576119ea836118dd84633b9aca0061422e565b60048601556119fc565b600485018390555b611a0989898585856142c9565b505050611bbb565b6002546001600160a01b0316611af1578082600401541115611a455760405162461bcd60e51b8152600401610359906154ee565b60048201819055308031821115611a6e5760405162461bcd60e51b815260040161035990615694565b6000336001600160a01b031683604051611a8790614cfa565b60006040518083038185875af1925050503d8060008114611ac4576040519150601f19603f3d011682016040523d82523d6000602084013e611ac9565b606091505b5050905080611aea5760405162461bcd60e51b8152600401610359906153c5565b5050611bbb565b8082600401541115611b155760405162461bcd60e51b8152600401610359906154ee565b600480830182905560025460405163a9059cbb60e01b81526001600160a01b039091169163a9059cbb91611b4d913391869101614d11565b602060405180830381600087803b158015611b6757600080fd5b505af1158015611b7b573d6000803e3d6000fd5b505050506040513d601f19601f82011682018060405250810190611b9f9190614b55565b611bbb5760405162461bcd60e51b815260040161035990614fc1565b6004820154600583015460405133927fdf273cb619d95419a9cd0ec88123a0538c85064229baa6363788f743fff90deb92611bf592615a49565b60405180910390a2505050505050565b6002546001600160a01b031681565b60055481565b600b5415611c3a5760405162461bcd60e51b81526004016103599061525f565b6001600b5560035460408051631718ecd760e31b815290516001600160a01b039092169163b8c766b891600480820192602092909190829003018186803b158015611c8457600080fd5b505afa158015611c98573d6000803e3d6000fd5b505050506040513d601f19601f82011682018060405250810190611cbc9190614b55565b611cd85760405162461bcd60e51b815260040161035990615112565b336000908152600960205260408120600654600182015410611d0c5760405162461bcd60e51b81526004016103599061539a565b611d163343611f3f565b915060008211611d385760405162461bcd60e51b815260040161035990614f19565b60035460405163032f7adb60e61b81526000916001600160a01b03169063cbdeb6c090611d69903090600401614cfd565b60206040518083038186803b158015611d8157600080fd5b505afa158015611d95573d6000803e3d6000fd5b505050506040513d601f19601f82011682018060405250810190611db99190614bd9565b905080611dd1846007546140fe90919063ffffffff16565b1115611def5760405162461bcd60e51b815260040161035990615951565b4360018301556002820154611e0490846140fe565b6002830155600754611e1690846140fe565b600755600354604051635569f64b60e11b81526001600160a01b039091169063aad3ec9690611e4b9033908790600401614d11565b602060405180830381600087803b158015611e6557600080fd5b505af1158015611e79573d6000803e3d6000fd5b505050506040513d601f19601f82011682018060405250810190611e9d9190614b55565b611eb95760405162461bcd60e51b815260040161035990615568565b336001600160a01b03167f987d620f307ff6b94d58743cb7a7509f24071586a77759b77c2d4e29f75a2f9a8443604051611ef4929190615a49565b60405180910390a250506000600b5550565b60408051808201909152601081526f757067726164652e323032313038303360801b602082015290565b60085481565b600c5460ff1681565b6006546000908190831115611f545760065492505b600554831080611f7a57506001600160a01b038416600090815260096020526040902054155b80611fa157506006546001600160a01b038516600090815260096020526040902060010154115b80611fc657506001600160a01b03841660009081526009602052604090206001015483105b15611fd35750600061228e565b6005546006546001600160a01b03861660009081526009602052604090206001015482101561201b576001600160a01b03861660009081526009602052604090206001015491505b808510156120265750835b6003546040805163c1b422fd60e01b815290516000926001600160a01b03169163c1b422fd9160048083019286929190829003018186803b15801561206a57600080fd5b505afa15801561207e573d6000803e3d6000fd5b505050506040513d6000823e601f3d908101601f191682016040526120a69190810190614aa7565b80519091501561228a576003546040805163d105bf8560e01b815290516000928692849283926001600160a01b03169163d105bf85916004808301926020929190829003018186803b1580156120fb57600080fd5b505afa15801561210f573d6000803e3d6000fd5b505050506040513d601f19601f820116820180604052508101906121339190614bd9565b6001600160a01b038c166000908152600960205260408120549192508c91905b87518110156122825787818151811061216857fe5b6020908102919091010151600354604051632f8deb1560e11b81529198506001600160a01b031690635f1bd62a906121a4908a90600401614e58565b60206040518083038186803b1580156121bc57600080fd5b505afa1580156121d0573d6000803e3d6000fd5b505050506040513d601f19601f820116820180604052508101906121f49190614bd9565b9450868611156122035761227a565b86891161224957841561224457600061221c8a8c6140bc565b905061224061223987611976866122338a87614270565b90614270565b8d906140fe565b9b50505b612282565b841561227657600061225b888c6140bc565b905061227261223987611976866122338a87614270565b9b50505b8699505b600101612153565b505050505050505b5050505b9392505050565b6001546001600160a01b031681565b6012546000906001600160a01b0316158015906122ce57506012546001600160a01b038381169116145b80156122e45750600f546001600160a01b031615155b156111ca57600f546040516367265c3b60e11b81526000916001600160a01b03169063ce4cb8769061231c9086903090600401614d4b565b60206040518083038186803b15801561233457600080fd5b505afa158015612348573d6000803e3d6000fd5b505050506040513d601f19601f8201168201806040525081019061236c9190614bd9565b905060008111801561238057506000600854115b801561239c5750600854819061239a90633b9aca00614270565b105b156123c0576008546123bd906123b690633b9aca00614270565b82906140bc565b91505b50919050565b6010546001600160a01b031681565b601b5460ff1681565b6011546001600160a01b031681565b600f546001600160a01b031681565b612405336111e4565b6124405760405162461bcd60e51b8152600401808060200182810382526022815260200180615afe6022913960400191505060405180910390fd5b611021600080516020615b71833981519152826113ad565b600b54156124785760405162461bcd60e51b81526004016103599061525f565b6001600b819055546001600160a01b0316806124a65760405162461bcd60e51b815260040161035990614e74565b816001600160a01b0381166124cd5760405162461bcd60e51b815260040161035990614e74565b600360009054906101000a90046001600160a01b03166001600160a01b031663b8c766b86040518163ffffffff1660e01b815260040160206040518083038186803b15801561251b57600080fd5b505afa15801561252f573d6000803e3d6000fd5b505050506040513d601f19601f820116820180604052508101906125539190614b55565b61256f5760405162461bcd60e51b8152600401610359906158a9565b60125483906001600160a01b0380831691161461259e5760405162461bcd60e51b815260040161035990615433565b6003601955601a546125b19060016140fe565b601a556125bc611228565b60105460408051633761ead760e11b815290516000926001600160a01b031691636ec3d5ae916004808301926020929190829003018186803b15801561260157600080fd5b505afa158015612615573d6000803e3d6000fd5b505050506040513d601f19601f820116820180604052508101906126399190614bd9565b600f546040516367265c3b60e11b81529192506000916001600160a01b039091169063ce4cb876906126719089903090600401614d4b565b60206040518083038186803b15801561268957600080fd5b505afa15801561269d573d6000803e3d6000fd5b505050506040513d601f19601f820116820180604052508101906126c19190614bd9565b9050600081116126e35760405162461bcd60e51b815260040161035990614ff2565b600654600e8304906126fb9082906111b390866140bc565b43116127195760405162461bcd60e51b8152600401610359906156c6565b601054604051636b2160b760e01b81526001600160a01b0390911690636b2160b790612749908a90600401614cfd565b602060405180830381600087803b15801561276357600080fd5b505af1158015612777573d6000803e3d6000fd5b505050506040513d601f19601f8201168201806040525081019061279b9190614b55565b507fd1c4e96e0fd22936ea8aebe0b8e06b19f1c4a836b141a34cf9e925d2afb20523876040516127cb9190614cfd565b60405180910390a150506000600b555050505050565b60195481565b600b54156128075760405162461bcd60e51b81526004016103599061525f565b6001600b819055546001600160a01b0316806128355760405162461bcd60e51b815260040161035990614e74565b600360009054906101000a90046001600160a01b03166001600160a01b031663b8c766b86040518163ffffffff1660e01b815260040160206040518083038186803b15801561288357600080fd5b505afa158015612897573d6000803e3d6000fd5b505050506040513d601f19601f820116820180604052508101906128bb9190614b55565b6128d75760405162461bcd60e51b8152600401610359906158a9565b60125482906001600160a01b038083169116146129065760405162461bcd60e51b815260040161035990615433565b600560195414156129295760405162461bcd60e51b81526004016103599061559f565b6005601955601a8054600090915561293f611228565b600f546012546040516367265c3b60e11b81526001600160a01b039283169263ce4cb87692612975929116903090600401614d4b565b60206040518083038186803b15801561298d57600080fd5b505afa1580156129a1573d6000803e3d6000fd5b505050506040513d601f19601f820116820180604052508101906129c59190614bd9565b6129da57601280546001600160a01b03191690555b601054604051632638fdf560e01b8152612a67916001600160a01b031690632638fdf590612a0e9088903090600401614d4b565b60206040518083038186803b158015612a2657600080fd5b505afa158015612a3a573d6000803e3d6000fd5b505050506040513d601f19601f82011682018060405250810190612a5e9190614bd9565b601454906140fe565b60145560105460405163fb0713b160e01b81526001600160a01b039091169063fb0713b190612a9f9087908590600190600401614dfa565b602060405180830381600087803b158015612ab957600080fd5b505af1158015612acd573d6000803e3d6000fd5b505050506040513d601f19601f82011682018060405250810190612af19190614b55565b507f76d210b2dc3da8be1904d8b5da9feb5cdd21af436261626c4ec607e2123b417d84826001604051612b2693929190614dfa565b60405180910390a150506000600b555050565b612b42336111e4565b612b7d5760405162461bcd60e51b8152600401808060200182810382526022815260200180615afe6022913960400191505060405180910390fd5b6001600160a01b038116612bd3576040805162461bcd60e51b815260206004820152601860248201527741636365737369626c653a207a65726f206164647265737360401b604482015290519081900360640190fd5b336001600160a01b0382161415612c2a576040805162461bcd60e51b815260206004820152601660248201527520b1b1b2b9b9b4b136329d1039b0b6b29030b236b4b760511b604482015290519081900360640190fd5b612c42600080516020615b71833981519152826113ad565b611021600080516020615b7183398151915233611414565b600080516020615b7183398151915281565b600b5415612c8c5760405162461bcd60e51b81526004016103599061525f565b6001600b55612c99611228565b8015612e44576011546001600160a01b0316612cc75760405162461bcd60e51b815260040161035990614f8c565b600d546040516370a0823160e01b815283916001600160a01b0316906370a0823190612cf7903090600401614cfd565b60206040518083038186803b158015612d0f57600080fd5b505afa158015612d23573d6000803e3d6000fd5b505050506040513d601f19601f82011682018060405250810190612d479190614bd9565b1015612d655760405162461bcd60e51b815260040161035990615177565b601154604051600091612d88916001600160a01b03909116908190602001614d4b565b60408051601f1981840301815290829052600d54600e5463cae9ca5160e01b84529193506001600160a01b039081169263cae9ca5192612dd092169087908690600401614e1d565b602060405180830381600087803b158015612dea57600080fd5b505af1158015612dfe573d6000803e3d6000fd5b505050506040513d601f19601f82011682018060405250810190612e229190614b55565b612e3e5760405162461bcd60e51b81526004016103599061549f565b50612f80565b600e546040516370a0823160e01b815283916001600160a01b0316906370a0823190612e74903090600401614cfd565b60206040518083038186803b158015612e8c57600080fd5b505afa158015612ea0573d6000803e3d6000fd5b505050506040513d601f19601f82011682018060405250810190612ec49190614bd9565b1015612ee25760405162461bcd60e51b815260040161035990615206565b600e5460405163f53fe70f60e01b81526001600160a01b039091169063f53fe70f90612f12908590600401614e58565b602060405180830381600087803b158015612f2c57600080fd5b505af1158015612f40573d6000803e3d6000fd5b505050506040513d601f19601f82011682018060405250810190612f649190614b55565b612f805760405162461bcd60e51b8152600401610359906155e5565b50506000600b55565b600a5481565b600e546001600160a01b031681565b6000828152601c6020526040812061228e9083614690565b6000828152601c6020526040812061228e908361469c565b6012546001600160a01b031681565b600080612fe8614972565b5050600254600354604080516060810182526004548152600554602082015260065491810191909152600754600854600a546001600160a01b03958616979590941695509193909290565b600c5461010090046001600160a01b031681565b600c54600160a81b900460ff1681565b600081565b613065336111e4565b6130a05760405162461bcd60e51b8152600401808060200182810382526022815260200180615afe6022913960400191505060405180910390fd5b6001600160a01b038116158015906130c657506012546001600160a01b03828116911614155b6130e25760405162461bcd60e51b815260040161035990614f4b565b601280546001600160a01b0319166001600160a01b0383161790556040517fbcf2b04f5517cca822ae60e21bb6e3889b8d8307ea062c5266c63a014386c9909061312d908390614cfd565b60405180910390a150565b6012546000906001600160a01b03161580159061316257506012546001600160a01b038381169116145b801561317857506010546001600160a01b031615155b156111ca5760105460408051633761ead760e11b815290516000926001600160a01b031691636ec3d5ae916004808301926020929190829003018186803b1580156131c257600080fd5b505afa1580156131d6573d6000803e3d6000fd5b505050506040513d601f19601f820116820180604052508101906131fa9190614bd9565b9050600e810461320a82826140fe565b600654111561322f5761322c816111b3846006546140bc90919063ffffffff16565b92505b5050919050565b61323f336111e4565b61327a5760405162461bcd60e51b8152600401808060200182810382526022815260200180615afe6022913960400191505060405180910390fd5b806001600160a01b0381166132a15760405162461bcd60e51b815260040161035990614e74565b600180546001600160a01b0319166001600160a01b0384811691909117918290556040517f278c70ced5f3e0e5eeb385b5ff9cb735748ba00a625147e66065ed48fc1562cd926132f2921690614cfd565b60405180910390a15050565b6009602052600090815260409020805460018201546002830154600384015460048501546005860154600690960154949593949293919290919060ff1687565b60075481565b6000818152601c602052604081206111fe906146b1565b600d546001600160a01b031681565b600b541561338a5760405162461bcd60e51b81526004016103599061525f565b6001600b819055546001600160a01b0316806133b85760405162461bcd60e51b815260040161035990614e74565b826001600160a01b0381166133df5760405162461bcd60e51b815260040161035990614e74565b600360009054906101000a90046001600160a01b03166001600160a01b031663b8c766b86040518163ffffffff1660e01b815260040160206040518083038186803b15801561342d57600080fd5b505afa158015613441573d6000803e3d6000fd5b505050506040513d601f19601f820116820180604052508101906134659190614b55565b6134815760405162461bcd60e51b8152600401610359906158a9565b60125484906001600160a01b038083169116146134b05760405162461bcd60e51b815260040161035990615433565b6003601955601a546134c39060016140fe565b601a556134ce611228565b600f546040516367265c3b60e11b81526000916001600160a01b03169063ce4cb876906135019089903090600401614d4b565b60206040518083038186803b15801561351957600080fd5b505afa15801561352d573d6000803e3d6000fd5b505050506040513d601f19601f820116820180604052508101906135519190614bd9565b9050600081116135735760405162461bcd60e51b815260040161035990614ff2565b60085460009061358790633b9aca00614270565b9050600080821180156135a357506135a08360646140bc565b82105b156135ba576135b760646111b385856140bc565b90505b600081116135da5760405162461bcd60e51b81526004016103599061578f565b60105460405163da95ebf760e01b81526001600160a01b039091169063da95ebf79061360c908b908590600401614d11565b602060405180830381600087803b15801561362657600080fd5b505af115801561363a573d6000803e3d6000fd5b505050506040513d601f19601f8201168201806040525081019061365e9190614b55565b507f2a23e23c116b511f71c9f0c2648b0372e6bbcb1f559a7cbfaed5c55933ea6c4e8882604051613690929190614d11565b60405180910390a150506000600b55505050505050565b7ff0887ba65ee2024ea881d91b74c2450ef19e1557f03bed3ea9f16b037cbe2dc981565b6000828152601c60205260409020600201546136e990610784614158565b61146b5760405162461bcd60e51b8152600401808060200182810382526030815260200180615b206030913960400191505060405180910390fd5b6001600160a01b03166000908152600960205260409020805460018201546002830154600384015460048501546005860154600690960154949693959294919390929160ff1690565b601a5481565b60175481565b60185481565b6000600b546000146137a35760405162461bcd60e51b81526004016103599061525f565b6001600b5560035460408051631718ecd760e31b815290516001600160a01b039092169163b8c766b891600480820192602092909190829003018186803b1580156137ed57600080fd5b505afa158015613801573d6000803e3d6000fd5b505050506040513d601f19601f820116820180604052508101906138259190614b55565b6138415760405162461bcd60e51b8152600401610359906158a9565b6006544311156138635760405162461bcd60e51b8152600401610359906157dd565b600282106138835760405162461bcd60e51b81526004016103599061574e565b61388b611228565b600e546040516370a0823160e01b81526000916001600160a01b0316906370a08231906138bc903090600401614cfd565b60206040518083038186803b1580156138d457600080fd5b505afa1580156138e8573d6000803e3d6000fd5b505050506040513d601f19601f8201168201806040525081019061390c9190614bd9565b600d546040516370a0823160e01b81529192506000916001600160a01b03909116906370a0823190613942903090600401614cfd565b60206040518083038186803b15801561395a57600080fd5b505afa15801561396e573d6000803e3d6000fd5b505050506040513d601f19601f820116820180604052508101906139929190614bd9565b6012549091506000906001600160a01b031615613ac657600f546012546040516367265c3b60e11b81526001600160a01b039283169263ce4cb876926139df929116903090600401614d4b565b60206040518083038186803b1580156139f757600080fd5b505afa158015613a0b573d6000803e3d6000fd5b505050506040513d601f19601f82011682018060405250810190613a2f9190614bd9565b601054601254604051632638fdf560e01b8152929350613ac3926001600160a01b0392831692632638fdf592613a6c929116903090600401614d4b565b60206040518083038186803b158015613a8457600080fd5b505afa158015613a98573d6000803e3d6000fd5b505050506040513d601f19601f82011682018060405250810190613abc9190614bd9565b82906140fe565b90505b828215613ae157613ade613abc84633b9aca00614270565b90505b89811015613b015760405162461bcd60e51b81526004016103599061546a565b8115613b1457613b1181836140fe565b90505b600854613b2590633b9aca00614270565b81118015613b55575089613b52613b4b633b9aca0060085461427090919063ffffffff16565b83906140bc565b10155b613b715760405162461bcd60e51b8152600401610359906153fc565b89841015613c6d57601154604051600091613b9c916001600160a01b03909116908190602001614d4b565b60408051601f1981840301815291905290506000613bc2633b9aca006119768e896140bc565b600d54600e5460405163cae9ca5160e01b81529293506001600160a01b039182169263cae9ca5192613bfc92169085908790600401614e1d565b602060405180830381600087803b158015613c1657600080fd5b505af1158015613c2a573d6000803e3d6000fd5b505050506040513d601f19601f82011682018060405250810190613c4e9190614b55565b613c6a5760405162461bcd60e51b815260040161035990615347565b50505b5050601554613c7f92509050876140fe565b6015819055506000806000600160009054906101000a90046001600160a01b03166001600160a01b031663504563c06040518163ffffffff1660e01b815260040160a06040518083038186803b158015613cd857600080fd5b505afa158015613cec573d6000803e3d6000fd5b505050506040513d601f19601f82011682018060405250810190613d109190614a20565b509295509350909150506001600160a01b038316613d405760405162461bcd60e51b815260040161035990614eab565b600e5460405163095ea7b360e01b81526001600160a01b039091169063095ea7b390613d729086908d90600401614d11565b602060405180830381600087803b158015613d8c57600080fd5b505af1158015613da0573d6000803e3d6000fd5b505050506040513d601f19601f82011682018060405250810190613dc49190614b55565b613de05760405162461bcd60e51b815260040161035990615908565b84613eb6576040805161010081018252600e546001600160a01b0390811682526000548116602083015262ffffff841682840152306060830152608082018a905260a082018c905260c082018b905288811660e0830152915163414bf38960e01b8152909185169063414bf38990613e5c9084906004016159e0565b602060405180830381600087803b158015613e7657600080fd5b505af1158015613e8a573d6000803e3d6000fd5b505050506040513d601f19601f82011682018060405250810190613eae9190614bd9565b945050613fad565b8460011415613fad576040805160a08101909152600e54600080549092918291613ef6916001600160a01b03908116918791899183911660c08701614ca8565b6040516020818303038152906040528152602001306001600160a01b031681526020018981526020018b81526020018a8152509050836001600160a01b031663c04b8d59826040518263ffffffff1660e01b8152600401613f579190615988565b602060405180830381600087803b158015613f7157600080fd5b505af1158015613f85573d6000803e3d6000fd5b505050506040513d601f19601f82011682018060405250810190613fa99190614bd9565b9450505b7f6ad50db5d488c314f9077fc5c41c7d8bcdd86ddc409871512ddd009f21067d32338a86604051613fe093929190614d2a565b60405180910390a150506000600b555095945050505050565b6003546001600160a01b031681565b6000546001600160a01b031681565b60135481565b6000806000806000600160009054906101000a90046001600160a01b03166001600160a01b031663504563c06040518163ffffffff1660e01b815260040160a06040518083038186803b15801561407357600080fd5b505afa158015614087573d6000803e3d6000fd5b505050506040513d601f19601f820116820180604052508101906140ab9190614a20565b945094509450945094509091929394565b600061228e83836040518060400160405280601e81526020017f536166654d6174683a207375627472616374696f6e206f766572666c6f7700008152506146bc565b60008282018381101561228e576040805162461bcd60e51b815260206004820152601b60248201527f536166654d6174683a206164646974696f6e206f766572666c6f770000000000604482015290519081900360640190fd5b3390565b6000828152601c602052604090206141749082614753565b1561141057614181614158565b6001600160a01b0316816001600160a01b0316837f2f8788117e7eff1d82e926ec794901d17c78024a50270940304540a733656f0d60405160405180910390a45050565b6000828152601c602052604090206141dd9082614768565b15611410576141ea614158565b6001600160a01b0316816001600160a01b0316837ff6391f5c32d9c69d2a47ea670b442974b53935d1edc7fd64eb21e047a839171b60405160405180910390a45050565b600061228e83836040518060400160405280601a81526020017f536166654d6174683a206469766973696f6e206279207a65726f00000000000081525061477d565b60008261427f575060006111fe565b8282028284828161428c57fe5b041461228e5760405162461bcd60e51b8152600401808060200182810382526021815260200180615b506021913960400191505060405180910390fd5b8215614407576040516370a0823160e01b815283906001600160a01b038716906370a08231906142fd903090600401614cfd565b60206040518083038186803b15801561431557600080fd5b505afa158015614329573d6000803e3d6000fd5b505050506040513d601f19601f8201168201806040525081019061434d9190614bd9565b101561436b5760405162461bcd60e51b815260040161035990615872565b60405163a9059cbb60e01b81526001600160a01b0386169063a9059cbb906143999033908790600401614d11565b602060405180830381600087803b1580156143b357600080fd5b505af11580156143c7573d6000803e3d6000fd5b505050506040513d601f19601f820116820180604052508101906143eb9190614b55565b6144075760405162461bcd60e51b815260040161035990615140565b8115614545576040516370a0823160e01b815282906001600160a01b038616906370a082319061443b903090600401614cfd565b60206040518083038186803b15801561445357600080fd5b505afa158015614467573d6000803e3d6000fd5b505050506040513d601f19601f8201168201806040525081019061448b9190614bd9565b10156144a95760405162461bcd60e51b81526004016103599061583b565b60405163e3b99e8560e01b81526001600160a01b0385169063e3b99e85906144d79033908690600401614d11565b602060405180830381600087803b1580156144f157600080fd5b505af1158015614505573d6000803e3d6000fd5b505050506040513d601f19601f820116820180604052508101906145299190614b55565b6145455760405162461bcd60e51b8152600401610359906151cf565b8015614689576000546040516370a0823160e01b815282916001600160a01b0316906370a082319061457b903090600401614cfd565b60206040518083038186803b15801561459357600080fd5b505afa1580156145a7573d6000803e3d6000fd5b505050506040513d601f19601f820116820180604052508101906145cb9190614bd9565b10156145e95760405162461bcd60e51b815260040161035990615717565b60005460405163a9059cbb60e01b81526001600160a01b039091169063a9059cbb9061461b9033908590600401614d11565b602060405180830381600087803b15801561463557600080fd5b505af1158015614649573d6000803e3d6000fd5b505050506040513d601f19601f8201168201806040525081019061466d9190614b55565b6146895760405162461bcd60e51b81526004016103599061505b565b5050505050565b600061228e83836147e2565b600061228e836001600160a01b038416614846565b60006111fe8261485e565b6000818484111561474b5760405162461bcd60e51b81526004018080602001828103825283818151815260200191508051906020019080838360005b838110156147105781810151838201526020016146f8565b50505050905090810190601f16801561473d5780820380516001836020036101000a031916815260200191505b509250505060405180910390fd5b505050900390565b600061228e836001600160a01b038416614862565b600061228e836001600160a01b0384166148ac565b600081836147cc5760405162461bcd60e51b81526020600482018181528351602484015283519092839260449091019190850190808383600083156147105781810151838201526020016146f8565b5060008385816147d857fe5b0495945050505050565b815460009082106148245760405162461bcd60e51b8152600401808060200182810382526022815260200180615aad6022913960400191505060405180910390fd5b82600001828154811061483357fe5b9060005260206000200154905092915050565b60009081526001919091016020526040902054151590565b5490565b600061486e8383614846565b6148a4575081546001818101845560008481526020808220909301849055845484825282860190935260409020919091556111fe565b5060006111fe565b6000818152600183016020526040812054801561496857835460001980830191908101906000908790839081106148df57fe5b90600052602060002001549050808760000184815481106148fc57fe5b60009182526020808320909101929092558281526001898101909252604090209084019055865487908061492c57fe5b600190038181906000526020600020016000905590558660010160008781526020019081526020016000206000905560019450505050506111fe565b60009150506111fe565b60405180606001604052806003906020820280368337509192915050565b6000602082840312156149a1578081fd5b813561228e81615a89565b600080600080600060a086880312156149c3578081fd5b85516149ce81615a89565b60208701519095506149df81615a89565b60408701519094506149f081615a89565b6060870151909350614a0181615a89565b6080870151909250614a1281615a89565b809150509295509295909350565b600080600080600060a08688031215614a37578081fd5b8551614a4281615a89565b6020870151909550614a5381615a89565b6040870151909450614a6481615a89565b606087015160808801519194509250614a1281615a89565b60008060408385031215614a8e578182fd5b8235614a9981615a89565b946020939093013593505050565b60006020808385031215614ab9578182fd5b825167ffffffffffffffff80821115614ad0578384fd5b818501915085601f830112614ae3578384fd5b815181811115614aef57fe5b83810260405185828201018181108582111715614b0857fe5b604052828152858101935084860182860187018a1015614b26578788fd5b8795505b83861015614b48578051855260019590950194938601938601614b2a565b5098975050505050505050565b600060208284031215614b66578081fd5b815161228e81615a9e565b600060208284031215614b82578081fd5b5035919050565b60008060408385031215614b9b578182fd5b823591506020830135614bad81615a89565b809150509250929050565b60008060408385031215614bca578182fd5b50508035926020909101359150565b600060208284031215614bea578081fd5b5051919050565b60008060408385031215614c03578182fd5b823591506020830135614bad81615a9e565b600080600080600060a08688031215614c2c578081fd5b8535945060208601359350604086013592506060860135614c4c81615a89565b949793965091946080013592915050565b60008151808452815b81811015614c8257602081850181015186830182015201614c66565b81811115614c935782602083870101525b50601f01601f19169290920160200192915050565b6bffffffffffffffffffffffff19606096871b811682526001600160e81b031960e896871b8116601484015294871b811660178301529290941b909216602b840152921b909116602e82015260420190565b90565b6001600160a01b0391909116815260200190565b6001600160a01b03929092168252602082015260400190565b6001600160a01b039390931683526020830191909152604082015260600190565b6001600160a01b0392831681529116602082015260400190565b6001600160a01b039586168152938516602085015291841660408401526060830152909116608082015260a00190565b6001600160a01b038781168252861660208083019190915261010082019060408301908760005b6003811015614dd957815184529282019290820190600101614dbc565b505050508460a08301528360c08301528260e0830152979650505050505050565b6001600160a01b0393909316835260208301919091521515604082015260600190565b600060018060a01b038516825283602083015260606040830152614e446060830184614c5d565b95945050505050565b901515815260200190565b90815260200190565b60006020825261228e6020830184614c5d565b6020808252601b908201527f546f6b616d616b5374616b65723a207a65726f20616464726573730000000000604082015260600190565b6020808252601a908201527f546f6b616d616b5374616b65723a756e6973776170207a65726f000000000000604082015260600190565b6020808252601a908201527f5374616b65544f4e3a20416c7265616479207769746864726177000000000000604082015260600190565b6020808252601890820152775374616b65544f4e3a20726577617264206973207a65726f60401b604082015260600190565b60208082526021908201527f546f6b616d616b5374616b65723a746f6b616d616b4c6179657232207a65726f6040820152600160fd1b606082015260800190565b6020808252818101527f546f6b616d616b5374616b65723a207377617050726f7879206973207a65726f604082015260600190565b60208082526017908201527614dd185ad95513d38e881d1c985b9cd9995c8819985a5b604a1b604082015260600190565b6020808252601e908201527f546f6b616d616b5374616b65723a207374616b654f66206973207a65726f0000604082015260600190565b602080825260189082015277151bdad85b585ad4dd185ad95c8e9c195c9a5bd908195b9960421b604082015260600190565b6020808252601b908201527f5374616b65544f4e3a207472616e7366657220746f73206661696c0000000000604082015260600190565b60208082526029908201527f546f6b616d616b5374616b65723a706572696f64287769746864726177616c44604082015268195b185e4a48195b9960ba1b606082015260800190565b6020808252601f908201527f5374616b65544f4e3a2049546f6b616d616b5265676973747279207a65726f00604082015260600190565b60208082526014908201527314dd185ad95513d38e881b9bdd0818db1bdcd95960621b604082015260600190565b6020808252601b908201527f5374616b65544f4e3a207472616e7366657220746f6e206661696c0000000000604082015260600190565b60208082526038908201527f546f6b616d616b5374616b65723a2073776170544f4e746f57544f4e20746f6e6040820152770818985b185b98d9481a5cc81a5b9cdd59999a58da595b9d60421b606082015260800190565b6020808252601c908201527f5374616b65544f4e3a207472616e736665722077746f6e206661696c00000000604082015260600190565b60208082526039908201527f546f6b616d616b5374616b65723a2073776170544f4e746f57544f4e2077746f6040820152781b8818985b185b98d9481a5cc81a5b9cdd59999a58da595b9d603a1b606082015260800190565b602080825260149082015273151bdad85b585ad4dd185ad95c8e9313d0d2d15160621b604082015260600190565b60208082526022908201527f5374616b65544f4e3a2072656d61696e20616d6f756e7420696e20746f6b616d604082015261616b60f01b606082015260800190565b6020808252601e908201527f5374616b65544f4e3a2066696e616c42616c616e6365206973206c61636b0000604082015260600190565b60208082526021908201527f546f6b616d616b5374616b65723a617070726f7665416e6443616c6c206661696040820152601b60fa1b606082015260800190565b60208082526033908201527f546f6b616d616b5374616b65723a65786368616e676557544f4e746f544f5320604082015272185c1c1c9bdd99505b9910d85b1b0819985a5b606a1b606082015260800190565b60208082526011908201527014dd185ad95513d38e8818db185a5b5959607a1b604082015260600190565b6020808252601a908201527f5374616b65544f4e3a207769746864726177206661696c65642e000000000000604082015260600190565b6020808252601a908201527f546f6b616d616b5374616b65723a696e73756666696369656e74000000000000604082015260600190565b6020808252601d908201527f546f6b616d616b5374616b65723a646966666572656e74206c61796572000000604082015260600190565b6020808252818101527f546f6b616d616b5374616b65723a2077746f6e20696e73756666696369656e74604082015260600190565b6020808252602f908201527f546f6b616d616b5374616b65723a73776170544f4e746f57544f4e206170707260408201526e1bdd99505b9910d85b1b0819985a5b608a1b606082015260800190565b6020808252601690820152755374616b65544f4e3a20416d6f756e742077726f6e6760501b604082015260600190565b6020808252602a908201527f546f6b616d616b5374616b65723a20746f6e2062616c616e636520697320696e6040820152691cdd59999a58da595b9d60b21b606082015260800190565b6020808252601f908201527f5374616b65544f4e3a206661696c20636c61696d2066726f6d207661756c7400604082015260600190565b60208082526026908201527f546f6b616d616b5374616b65723a416c72656164792050726f63657373556e5360408201526574616b696e6760d01b606082015260800190565b6020808252601c908201527f546f6b616d616b5374616b65723a73776170546f544f4e206661696c00000000604082015260600190565b6020808252601a908201527f546f6b616d616b5374616b65723a746f6b616d616b207a65726f000000000000604082015260600190565b60208082526021908201527f546f6b616d616b5374616b65723a7374616b65416d6f756e74206973207a65726040820152606f60f81b606082015260800190565b6020808252601890820152770a6e8c2d6caa89e9c7440d2dce6eaccccd2cadce8408aa8960431b604082015260600190565b60208082526031908201527f546f6b616d616b5374616b65723a5468652065786563757461626c6520626c6f60408201527018dac81a185cc81b9bdd081c185cdcd959607a1b606082015260800190565b6020808252601d908201527f5374616b65544f4e3a20746f732062616c616e6365206973206c61636b000000604082015260600190565b60208082526021908201527f546f6b616d616b5374616b65723a206e6f7420617661696c61626c65206b696e6040820152601960fa1b606082015260800190565b6020808252602e908201527f546f6b616d616b5374616b65723a206e6f2077697468647261772d61626c652060408201526d185b5bdd5b9d081b9bdd081e595d60921b606082015260800190565b602080825260199082015278151bdad85b585ad4dd185ad95c8e881c195c9a5bd908195b99603a1b604082015260600190565b60208082526011908201527014dd185ad95513d38e881b9bdd08195b99607a1b604082015260600190565b6020808252601e908201527f5374616b65544f4e3a2077746f6e2062616c616e6365206973206c61636b0000604082015260600190565b6020808252601d908201527f5374616b65544f4e3a20746f6e2062616c616e6365206973206c61636b000000604082015260600190565b602080825260199082015278151bdad85b585ad4dd185ad95c8e881b9bdd0818db1bdcd959603a1b604082015260600190565b60208082526012908201527131b0b73737ba1039ba30b5b29022ba3432b960711b604082015260600190565b60208082526029908201527f546f6b616d616b5374616b65723a63616e277420617070726f766520756e69736040820152683bb0b82937baba32b960b91b606082015260800190565b6020808252601e908201527f5374616b65544f4e3a20746f74616c2072657761726420657863656564730000604082015260600190565b600060208252825160a060208401526159a460c0840182614c5d565b905060018060a01b0360208501511660408401526040840151606084015260608401516080840152608084015160a08401528091505092915050565b81516001600160a01b03908116825260208084015182169083015260408084015162ffffff16908301526060808401518216908301526080808401519083015260a0838101519083015260c0808401519083015260e09283015116918101919091526101000190565b918252602082015260400190565b968752602087019590955260408601939093526060850191909152608084015260a0830152151560c082015260e00190565b6001600160a01b038116811461102157600080fd5b801515811461102157600080fdfe456e756d657261626c655365743a20696e646578206f7574206f6620626f756e6473416363657373436f6e74726f6c3a2073656e646572206d75737420626520616e2061646d696e20746f206772616e7441636365737369626c653a2043616c6c6572206973206e6f7420616e2061646d696e416363657373436f6e74726f6c3a2073656e646572206d75737420626520616e2061646d696e20746f207265766f6b65536166654d6174683a206d756c7469706c69636174696f6e206f766572666c6f77df8b4c520ffe197c5343c6f5aec59570151ef9a492f2c624fd45ddde6135ec42416363657373436f6e74726f6c3a2063616e206f6e6c792072656e6f756e636520726f6c657320666f722073656c66a2646970667358221220f6091602a1aadc32663f21976d4f38709da4645632f6f50b6ae2778ef5158fc464736f6c63430007060033",
  "immutableReferences": {},
  "source": "//SPDX-License-Identifier: Unlicense\npragma solidity ^0.7.6;\npragma abicoder v2;\n\nimport \"../interfaces/IStakeTON.sol\";\nimport {IIStake1Vault} from \"../interfaces/IIStake1Vault.sol\";\nimport {IIERC20} from \"../interfaces/IIERC20.sol\";\nimport {IWTON} from \"../interfaces/IWTON.sol\";\n\nimport \"../libraries/LibTokenStake1.sol\";\nimport \"@openzeppelin/contracts/math/SafeMath.sol\";\n\nimport \"../connection/TokamakStakeUpgrade.sol\";\nimport {\n    ERC165Checker\n} from \"@openzeppelin/contracts/introspection/ERC165Checker.sol\";\nimport {SafeERC20} from \"@openzeppelin/contracts/token/ERC20/SafeERC20.sol\";\n\n/// @title Stake Contract\n/// @notice It can be staked in Tokamak. Can be swapped using Uniswap.\n/// Stake contracts can interact with the vault to claim tos tokens\ncontract StakeTONUpgrade is TokamakStakeUpgrade, IStakeTON {\n    using SafeMath for uint256;\n\n    /// @dev event on staking\n    /// @param to the sender\n    /// @param amount the amount of staking\n    event Staked(address indexed to, uint256 amount);\n\n    /// @dev event on claim\n    /// @param to the sender\n    /// @param amount the amount of claim\n    /// @param claimBlock the block of claim\n    event Claimed(address indexed to, uint256 amount, uint256 claimBlock);\n\n    /// @dev event on withdrawal\n    /// @param to the sender\n    /// @param tonAmount the amount of TON withdrawal\n    /// @param tosAmount the amount of TOS withdrawal\n    event Withdrawal(address indexed to, uint256 tonAmount, uint256 tosAmount);\n\n    /// @dev constructor of StakeTON\n    constructor() {}\n\n    /// @dev This contract cannot stake Ether.\n    receive() external payable {\n        revert(\"cannot stake Ether\");\n    }\n\n    /// @dev withdraw\n    function withdraw() external override {\n        require(endBlock > 0 && endBlock < block.number, \"StakeTON: not end\");\n        (\n            address ton,\n            address wton,\n            address depositManager,\n            address seigManager,\n\n        ) = ITokamakRegistry1(stakeRegistry).getTokamak();\n        require(\n            ton != address(0) &&\n                wton != address(0) &&\n                depositManager != address(0) &&\n                seigManager != address(0),\n            \"StakeTON: ITokamakRegistry zero\"\n        );\n        if (tokamakLayer2 != address(0)) {\n            require(\n                IISeigManager(seigManager).stakeOf(\n                    tokamakLayer2,\n                    address(this)\n                ) ==\n                    0 &&\n                    IIDepositManager(depositManager).pendingUnstaked(\n                        tokamakLayer2,\n                        address(this)\n                    ) ==\n                    0,\n                \"StakeTON: remain amount in tokamak\"\n            );\n        }\n        LibTokenStake1.StakedAmount storage staked = userStaked[msg.sender];\n        require(!staked.released, \"StakeTON: Already withdraw\");\n\n        if (!withdrawFlag) {\n            withdrawFlag = true;\n            if (paytoken == ton) {\n                swappedAmountTOS = IIERC20(token).balanceOf(address(this));\n                finalBalanceWTON = IIERC20(wton).balanceOf(address(this));\n                finalBalanceTON = IIERC20(ton).balanceOf(address(this));\n                require(\n                    finalBalanceWTON.div(10**9).add(finalBalanceTON) >=\n                        totalStakedAmount,\n                    \"StakeTON: finalBalance is lack\"\n                );\n            }\n        }\n\n        uint256 amount = staked.amount;\n        require(amount > 0, \"StakeTON: Amount wrong\");\n        staked.releasedBlock = block.number;\n        staked.released = true;\n\n        if (paytoken == ton) {\n            uint256 tonAmount = 0;\n            uint256 wtonAmount = 0;\n            uint256 tosAmount = 0;\n            if (finalBalanceTON > 0)\n                tonAmount = finalBalanceTON.mul(amount).div(totalStakedAmount);\n            if (finalBalanceWTON > 0)\n                wtonAmount = finalBalanceWTON.mul(amount).div(\n                    totalStakedAmount\n                );\n            if (swappedAmountTOS > 0)\n                tosAmount = swappedAmountTOS.mul(amount).div(totalStakedAmount);\n\n            staked.releasedTOSAmount = tosAmount;\n            if (wtonAmount > 0)\n                staked.releasedAmount = wtonAmount.div(10**9).add(tonAmount);\n            else staked.releasedAmount = tonAmount;\n\n            tonWithdraw(ton, wton, tonAmount, wtonAmount, tosAmount);\n        } else if (paytoken == address(0)) {\n            require(staked.releasedAmount <= amount, \"StakeTON: Amount wrong\");\n            staked.releasedAmount = amount;\n            address payable self = address(uint160(address(this)));\n            require(self.balance >= amount, \"StakeTON: insuffient ETH\");\n            (bool success, ) = msg.sender.call{value: amount}(\"\");\n            require(success, \"StakeTON: withdraw failed.\");\n        } else {\n            require(staked.releasedAmount <= amount, \"StakeTON: Amount wrong\");\n            staked.releasedAmount = amount;\n            require(\n                IIERC20(paytoken).transfer(msg.sender, amount),\n                \"StakeTON: transfer fail\"\n            );\n        }\n\n        emit Withdrawal(\n            msg.sender,\n            staked.releasedAmount,\n            staked.releasedTOSAmount\n        );\n    }\n\n    /// @dev withdraw TON\n    /// @param ton  TON address\n    /// @param wton  WTON address\n    /// @param tonAmount  the amount of TON to be withdrawn to msg.sender\n    /// @param wtonAmount  the amount of WTON to be withdrawn to msg.sender\n    /// @param tosAmount  the amount of TOS to be withdrawn to msg.sender\n    function tonWithdraw(\n        address ton,\n        address wton,\n        uint256 tonAmount,\n        uint256 wtonAmount,\n        uint256 tosAmount\n    ) internal {\n        if (tonAmount > 0) {\n            require(\n                IIERC20(ton).balanceOf(address(this)) >= tonAmount,\n                \"StakeTON: ton balance is lack\"\n            );\n\n            require(\n                IIERC20(ton).transfer(msg.sender, tonAmount),\n                \"StakeTON: transfer ton fail\"\n            );\n        }\n        if (wtonAmount > 0) {\n            require(\n                IIERC20(wton).balanceOf(address(this)) >= wtonAmount,\n                \"StakeTON: wton balance is lack\"\n            );\n            require(\n                IWTON(wton).swapToTONAndTransfer(msg.sender, wtonAmount),\n                \"StakeTON: transfer wton fail\"\n            );\n        }\n        if (tosAmount > 0) {\n            require(\n                IIERC20(token).balanceOf(address(this)) >= tosAmount,\n                \"StakeTON: tos balance is lack\"\n            );\n            require(\n                IIERC20(token).transfer(msg.sender, tosAmount),\n                \"StakeTON: transfer tos fail\"\n            );\n        }\n    }\n\n    /// @dev Claim for reward\n    function claim() external override lock {\n        require(IIStake1Vault(vault).saleClosed(), \"StakeTON: not closed\");\n        uint256 rewardClaim = 0;\n\n        LibTokenStake1.StakedAmount storage staked = userStaked[msg.sender];\n        require(staked.claimedBlock < endBlock, \"StakeTON: claimed\");\n\n        rewardClaim = canRewardAmount(msg.sender, block.number);\n\n        require(rewardClaim > 0, \"StakeTON: reward is zero\");\n\n        uint256 rewardTotal =\n            IIStake1Vault(vault).totalRewardAmount(address(this));\n        require(\n            rewardClaimedTotal.add(rewardClaim) <= rewardTotal,\n            \"StakeTON: total reward exceeds\"\n        );\n\n        staked.claimedBlock = block.number;\n        staked.claimedAmount = staked.claimedAmount.add(rewardClaim);\n        rewardClaimedTotal = rewardClaimedTotal.add(rewardClaim);\n\n        require(\n            IIStake1Vault(vault).claim(msg.sender, rewardClaim),\n            \"StakeTON: fail claim from vault\"\n        );\n\n        emit Claimed(msg.sender, rewardClaim, block.number);\n    }\n\n    /// @dev Returns the amount that can be rewarded\n    /// @param account  the account that claimed reward\n    /// @param specificBlock the block that claimed reward\n    /// @return reward the reward amount that can be taken\n    function canRewardAmount(address account, uint256 specificBlock)\n        public\n        view\n        override\n        returns (uint256)\n    {\n        uint256 reward = 0;\n        if (specificBlock > endBlock) specificBlock = endBlock;\n\n        if (\n            specificBlock < startBlock ||\n            userStaked[account].amount == 0 ||\n            userStaked[account].claimedBlock > endBlock ||\n            userStaked[account].claimedBlock > specificBlock\n        ) {\n            reward = 0;\n        } else {\n            uint256 startR = startBlock;\n            uint256 endR = endBlock;\n            if (startR < userStaked[account].claimedBlock)\n                startR = userStaked[account].claimedBlock;\n            if (specificBlock < endR) endR = specificBlock;\n\n            uint256[] memory orderedEndBlocks =\n                IIStake1Vault(vault).orderedEndBlocksAll();\n\n            if (orderedEndBlocks.length > 0) {\n                uint256 _end = 0;\n                uint256 _start = startR;\n                uint256 _total = 0;\n                uint256 blockTotalReward = 0;\n                blockTotalReward = IIStake1Vault(vault).blockTotalReward();\n\n                address user = account;\n                uint256 amount = userStaked[user].amount;\n\n                for (uint256 i = 0; i < orderedEndBlocks.length; i++) {\n                    _end = orderedEndBlocks[i];\n                    _total = IIStake1Vault(vault).stakeEndBlockTotal(_end);\n\n                    if (_start > _end) {} else if (endR <= _end) {\n                        if (_total > 0) {\n                            uint256 _period1 = endR.sub(startR);\n                            reward = reward.add(\n                                blockTotalReward.mul(_period1).mul(amount).div(\n                                    _total\n                                )\n                            );\n                        }\n                        break;\n                    } else {\n                        if (_total > 0) {\n                            uint256 _period2 = _end.sub(startR);\n                            reward = reward.add(\n                                blockTotalReward.mul(_period2).mul(amount).div(\n                                    _total\n                                )\n                            );\n                        }\n                        startR = _end;\n                    }\n                }\n            }\n        }\n        return reward;\n    }\n    /*\n    function canRewardAmountTest(address account, uint256 specificBlock)\n        public view\n        returns (uint256, uint256, uint256, uint256)\n    {\n        uint256 reward = 0;\n        uint256 startR = 0;\n        uint256 endR = 0;\n        uint256 blockTotalReward = 0;\n        if(specificBlock > endBlock ) specificBlock = endBlock;\n\n        if (\n            specificBlock < startBlock ||\n            userStaked[account].amount == 0 ||\n            userStaked[account].claimedBlock > endBlock ||\n            userStaked[account].claimedBlock > specificBlock\n        ) {\n            reward = 0;\n        } else {\n            startR = startBlock;\n            endR = endBlock;\n            if (startR < userStaked[account].claimedBlock)\n                startR = userStaked[account].claimedBlock;\n            if (specificBlock < endR) endR = specificBlock;\n\n            uint256[] memory orderedEndBlocks =\n                IIStake1Vault(vault).orderedEndBlocksAll();\n\n            if (orderedEndBlocks.length > 0) {\n                uint256 _end = 0;\n                uint256 _start = startR;\n                uint256 _total = 0;\n                //uint256 blockTotalReward = 0;\n                blockTotalReward = IIStake1Vault(vault).blockTotalReward();\n\n                address user = account;\n                uint256 amount = userStaked[user].amount;\n\n                for (uint256 i = 0; i < orderedEndBlocks.length; i++) {\n                    _end = orderedEndBlocks[i];\n                    _total = IIStake1Vault(vault).stakeEndBlockTotal(_end);\n\n                    if (_start > _end) {\n\n                    } else if (endR <= _end) {\n                        reward +=\n                            (blockTotalReward *\n                                (endR - startR) * amount) /\n                            _total;\n                        break;\n                    } else {\n                        reward +=\n                            (blockTotalReward *\n                                (_end - startR) *\n                                amount) /\n                            _total;\n                        startR = _end;\n                    }\n                }\n            }\n        }\n        return (reward, startR, endR, blockTotalReward);\n    }\n    */\n}\n",
  "sourcePath": "/Users/zena/ico2.0/ico20-contracts/contracts/stake/StakeTONUpgrade.sol",
  "compiler": {
    "name": "solc",
    "version": "0.7.6+commit.7338295f.Emscripten.clang"
  },
  "schemaVersion": "3.3.4",
  "updatedAt": "2021-08-04T05:37:12.539Z",
  "devdoc": {
    "events": {
      "Claimed(address,uint256,uint256)": {
        "details": "event on claim",
        "params": {
          "amount": "the amount of claim",
          "claimBlock": "the block of claim",
          "to": "the sender"
        }
      },
      "Staked(address,uint256)": {
        "details": "event on staking",
        "params": {
          "amount": "the amount of staking",
          "to": "the sender"
        }
      },
      "Withdrawal(address,uint256,uint256)": {
        "details": "event on withdrawal",
        "params": {
          "to": "the sender",
          "tonAmount": "the amount of TON withdrawal",
          "tosAmount": "the amount of TOS withdrawal"
        }
      }
    },
    "kind": "dev",
    "methods": {
      "addAdmin(address)": {
        "details": "add admin",
        "params": {
          "account": "address to add"
        }
      },
      "canRewardAmount(address,uint256)": {
        "details": "Returns the amount that can be rewarded",
        "params": {
          "account": "the account that claimed reward",
          "specificBlock": "the block that claimed reward"
        },
        "returns": {
          "_0": "reward the reward amount that can be taken"
        }
      },
      "canTokamakRequestUnStaking(address)": {
        "details": "Check whether unstaking is possible in layer2",
        "params": {
          "_layer2": "the layer2 address in tokamak"
        },
        "returns": {
          "canUnStakingAmount": "available unStaking amount"
        }
      },
      "canTokamakRequestUnStakingAll(address)": {
        "details": "Check whether unstakingAll is possible in layer2",
        "params": {
          "_layer2": "the layer2 address in tokamak"
        },
        "returns": {
          "can": "whether can tokamakRequestUnStakingAll"
        }
      },
      "canTokamakRequestUnStakingAllBlock(address)": {
        "details": "Check whether unstakingAll is possible in layer2",
        "params": {
          "_layer2": "the layer2 address in tokamak"
        },
        "returns": {
          "_block": " the block to can tokamakRequestUnStakingAll"
        }
      },
      "checkTokamak()": {
        "details": "If the tokamak addresses is not set, set the addresses."
      },
      "claim()": {
        "details": "Claim for reward"
      },
      "constructor": {
        "details": "constructor of StakeTON"
      },
      "exchangeWTONtoTOS(uint256,uint256,uint256,uint160,uint256)": {
        "details": "exchange holded WTON to TOS using uniswap",
        "params": {
          "_amountIn": "the input amount",
          "_amountOutMinimum": "the minimun output amount",
          "_deadline": "deadline",
          "_kind": "the function type, if 0, use exactInputSingle function, else if, use exactInput function",
          "_sqrtPriceLimitX96": "sqrtPriceLimitX96"
        },
        "returns": {
          "amountOut": "the amount of exchanged out token"
        }
      },
      "getRoleAdmin(bytes32)": {
        "details": "Returns the admin role that controls `role`. See {grantRole} and {revokeRole}. To change a role's admin, use {_setRoleAdmin}."
      },
      "getRoleMember(bytes32,uint256)": {
        "details": "Returns one of the accounts that have `role`. `index` must be a value between 0 and {getRoleMemberCount}, non-inclusive. Role bearers are not sorted in any particular way, and their ordering may change at any point. WARNING: When using {getRoleMember} and {getRoleMemberCount}, make sure you perform all queries on the same block. See the following https://forum.openzeppelin.com/t/iterating-over-elements-on-enumerableset-in-openzeppelin-contracts/2296[forum post] for more information."
      },
      "getRoleMemberCount(bytes32)": {
        "details": "Returns the number of accounts that have `role`. Can be used together with {getRoleMember} to enumerate all bearers of a role."
      },
      "getUniswapInfo()": {
        "details": "get the addresses that used in uniswap interfaces",
        "returns": {
          "ext": "the address of ext",
          "fee": "the amount of fee",
          "npm": "the address of positionManagerAddress",
          "uniswapRouter": "the address of uniswapRouter"
        }
      },
      "getUserStaked(address)": {
        "details": "user's staked information"
      },
      "grantRole(bytes32,address)": {
        "details": "Grants `role` to `account`. If `account` had not been already granted `role`, emits a {RoleGranted} event. Requirements: - the caller must have ``role``'s admin role."
      },
      "hasRole(bytes32,address)": {
        "details": "Returns `true` if `account` has been granted `role`."
      },
      "infos()": {
        "details": "Give the infomation of this stakeContracts",
        "returns": {
          "_0": "paytoken, vault, [saleStartBlock, startBlock, endBlock], rewardClaimedTotal, totalStakedAmount, totalStakers"
        }
      },
      "isAdmin(address)": {
        "details": "whether admin",
        "params": {
          "account": "address to check"
        }
      },
      "removeAdmin(address)": {
        "details": "remove admin",
        "params": {
          "account": "address to remove"
        }
      },
      "renounceRole(bytes32,address)": {
        "details": "Revokes `role` from the calling account. Roles are often managed via {grantRole} and {revokeRole}: this function's purpose is to provide a mechanism for accounts to lose their privileges if they are compromised (such as when a trusted device is misplaced). If the calling account had been granted `role`, emits a {RoleRevoked} event. Requirements: - the caller must be `account`."
      },
      "revokeRole(bytes32,address)": {
        "details": "Revokes `role` from `account`. If `account` had been granted `role`, emits a {RoleRevoked} event. Requirements: - the caller must have ``role``'s admin role."
      },
      "setRegistry(address)": {
        "details": "set registry address",
        "params": {
          "_registry": "new registry address"
        }
      },
      "setTokamakLayer2(address)": {
        "details": "set the tokamak Layer2 address",
        "params": {
          "_layer2": "new the tokamak Layer2 address"
        }
      },
      "swapTONtoWTON(uint256,bool)": {
        "details": "Change the TON holded in contract have to WTON, or change WTON to TON.",
        "params": {
          "amount": "the amount to be changed",
          "toWTON": "if it's true, TON->WTON , else WTON->TON"
        }
      },
      "tokamakProcessUnStaking(address)": {
        "details": "process unstaking in layer2 in tokamak",
        "params": {
          "_layer2": "the layer2 address in tokamak"
        }
      },
      "tokamakRequestUnStaking(address,uint256)": {
        "details": "request unstaking the amount excluding principal   in layer2 in tokamak",
        "params": {
          "_layer2": "the layer2 address in tokamak",
          "wtonAmount": "Exists for existing interfaces. not used."
        }
      },
      "tokamakRequestUnStakingAll(address)": {
        "details": "request unstaking the amount of all in layer2 in tokamak",
        "params": {
          "_layer2": "the layer2 address in tokamak"
        }
      },
      "tokamakStaking(address,uint256)": {
        "details": "staking the staked TON in layer2 in tokamak",
        "params": {
          "_layer2": "the layer2 address in tokamak",
          "stakeAmount": "the amount that stake to layer2"
        }
      },
      "transferAdmin(address)": {
        "details": "transfer admin",
        "params": {
          "newAdmin": "new admin address"
        }
      },
      "withdraw()": {
        "details": "withdraw"
      }
    },
    "title": "Stake Contract",
    "version": 1
  },
  "userdoc": {
    "kind": "user",
    "methods": {},
    "notice": "It can be staked in Tokamak. Can be swapped using Uniswap. Stake contracts can interact with the vault to claim tos tokens",
    "version": 1
  }
}