{
  "contractName": "StakeForStableCoinFactory",
  "abi": [
    {
      "inputs": [],
      "name": "ADMIN_ROLE",
      "outputs": [
        {
          "internalType": "bytes32",
          "name": "",
          "type": "bytes32"
        }
      ],
      "stateMutability": "view",
      "type": "function"
    },
    {
      "inputs": [
        {
          "internalType": "uint256",
          "name": "_pahse",
          "type": "uint256"
        },
        {
          "internalType": "address",
          "name": "_vault",
          "type": "address"
        },
        {
          "internalType": "address",
          "name": "_token",
          "type": "address"
        },
        {
          "internalType": "address",
          "name": "_paytoken",
          "type": "address"
        },
        {
          "internalType": "uint256",
          "name": "_period",
          "type": "uint256"
        },
        {
          "internalType": "address",
          "name": "owner",
          "type": "address"
        }
      ],
      "name": "deploy",
      "outputs": [
        {
          "internalType": "address",
          "name": "",
          "type": "address"
        }
      ],
      "stateMutability": "nonpayable",
      "type": "function"
    }
  ],
  "bytecode": "0x608060405234801561001057600080fd5b50613add806100206000396000f3fe608060405234801561001057600080fd5b50600436106100365760003560e01c806375b238fc1461003b578063c4fdc24c14610055575b600080fd5b6100436100bd565b60408051918252519081900360200190f35b6100a1600480360360c081101561006b57600080fd5b508035906001600160a01b0360208201358116916040810135821691606082013581169160808101359160a090910135166100e1565b604080516001600160a01b039092168252519081900360200190f35b7fdf8b4c520ffe197c5343c6f5aec59570151ef9a492f2c624fd45ddde6135ec4281565b60006001600160a01b038616158015906100fb5750866001145b6101365760405162461bcd60e51b815260040180806020018281038252602b815260200180613a57602b913960400191505060405180910390fd5b60008690506000816001600160a01b031663200272756040518163ffffffff1660e01b815260040160206040518083038186803b15801561017657600080fd5b505afa15801561018a573d6000803e3d6000fd5b505050506040513d60208110156101a057600080fd5b505160408051634b5e7cd560e01b815290519192506000916001600160a01b03851691634b5e7cd5916004808301926020929190829003018186803b1580156101e857600080fd5b505afa1580156101fc573d6000803e3d6000fd5b505050506040513d602081101561021257600080fd5b505160408051639d84ca3560e01b815290519192506000916001600160a01b03861691639d84ca35916004808301926020929190829003018186803b15801561025a57600080fd5b505afa15801561026e573d6000803e3d6000fd5b505050506040513d602081101561028457600080fd5b505190508682841080156102985750600083115b6102d35760405162461bcd60e51b8152600401808060200182810382526026815260200180613a826026913960400191505060405180910390fd5b60006040516102e1906105c3565b604051809103906000f0801580156102fd573d6000803e3d6000fd5b509050600060405161030e906105d0565b604051809103906000f08015801561032a573d6000803e3d6000fd5b509050816001600160a01b0316633659cfe6826040518263ffffffff1660e01b815260040180826001600160a01b03168152602001915050600060405180830381600087803b15801561037c57600080fd5b505af1158015610390573d6000803e3d6000fd5b50505050816001600160a01b031663728cdbca8d8d8a8a8a896040518763ffffffff1660e01b815260040180876001600160a01b03168152602001866001600160a01b03168152602001856001600160a01b031681526020018481526020018381526020018281526020019650505050505050600060405180830381600087803b15801561041d57600080fd5b505af1158015610431573d6000803e3d6000fd5b50505050816001600160a01b03166385fb34ce856040518263ffffffff1660e01b815260040180826001600160a01b03168152602001915050600060405180830381600087803b15801561048457600080fd5b505af1158015610498573d6000803e3d6000fd5b50505050816001600160a01b0316632f2ff15d7fdf8b4c520ffe197c5343c6f5aec59570151ef9a492f2c624fd45ddde6135ec428b6040518363ffffffff1660e01b815260040180838152602001826001600160a01b0316815260200192505050600060405180830381600087803b15801561051357600080fd5b505af1158015610527573d6000803e3d6000fd5b50506040805163d547741f60e01b81527fdf8b4c520ffe197c5343c6f5aec59570151ef9a492f2c624fd45ddde6135ec42600482015230602482015290516001600160a01b038616935063d547741f9250604480830192600092919082900301818387803b15801561059857600080fd5b505af11580156105ac573d6000803e3d6000fd5b509399505050505050505050509695505050505050565b610fef806105de83390190565b61248a806115cd8339019056fe60806040523480156200001157600080fd5b506200002d60008051602062000fcf8339815191528062000069565b6200004860008051602062000fcf83398151915233620000bb565b6200006360008051602062000fcf83398151915230620000bb565b620001d1565b6000828152600b6020526040808220600201549051839285917fbd79b86ffe0ab8e8776151514217cd7cacd52c909f66475c3af44e129f0b00ff9190a46000918252600b602052604090912060020155565b620000c78282620000cb565b5050565b6000828152600b60209081526040909120620000f29183906200081062000146821b17901c565b15620000c7576200010262000166565b6001600160a01b0316816001600160a01b0316837f2f8788117e7eff1d82e926ec794901d17c78024a50270940304540a733656f0d60405160405180910390a45050565b60006200015d836001600160a01b0384166200016a565b90505b92915050565b3390565b6000620001788383620001b9565b620001b05750815460018181018455600084815260208082209093018490558454848252828601909352604090209190915562000160565b50600062000160565b60009081526001919091016020526040902054151590565b610dee80620001e16000396000f3fe6080604052600436106101445760003560e01c806375b238fc116100b6578063acc3a9391161006f578063acc3a9391461033d578063b2d4d6a31461036f578063ca15c87314610384578063d547741f146103a4578063fbfa77cf146103c4578063fc0c546a146103d957610153565b806375b238fc1461029e5780637cb00d25146102b35780639010d07c146102d357806391d14854146102f3578063a2095f2914610313578063a217fddf1461032857610153565b80633659cfe6116101085780633659cfe6146101fb57806343b0934a1461021b57806348cd4cb11461023d578063567e98f9146102525780635c60da1b1461026757806363a8fd891461027c57610153565b8063083c63231461015b5780632002727514610186578063248a9ca31461019b5780632f2ff15d146101bb57806336568abe146101db57610153565b36610153576101516103ee565b005b6101516103ee565b34801561016757600080fd5b50610170610465565b60405161017d9190610ba7565b60405180910390f35b34801561019257600080fd5b5061017061046b565b3480156101a757600080fd5b506101706101b6366004610b24565b610471565b3480156101c757600080fd5b506101516101d6366004610b3c565b610489565b3480156101e757600080fd5b506101516101f6366004610b3c565b6104f0565b34801561020757600080fd5b50610151610216366004610ae3565b610551565b34801561022757600080fd5b50610230610635565b60405161017d9190610b88565b34801561024957600080fd5b50610170610644565b34801561025e57600080fd5b5061017061064a565b34801561027357600080fd5b50610230610650565b34801561028857600080fd5b5061029161065f565b60405161017d9190610b9c565b3480156102aa57600080fd5b5061017061066f565b3480156102bf57600080fd5b506101516102ce366004610afd565b610693565b3480156102df57600080fd5b506102306102ee366004610b67565b6106f7565b3480156102ff57600080fd5b5061029161030e366004610b3c565b610718565b34801561031f57600080fd5b50610230610730565b34801561033457600080fd5b5061017061073f565b34801561034957600080fd5b5061035d610358366004610ae3565b610744565b60405161017d96959493929190610cde565b34801561037b57600080fd5b5061017061077c565b34801561039057600080fd5b5061017061039f366004610b24565b610782565b3480156103b057600080fd5b506101516103bf366004610b3c565b610799565b3480156103d057600080fd5b506102306107f2565b3480156103e557600080fd5b50610230610801565b60006103f8610650565b90506001600160a01b0381161580159061041c5750600c54600160a01b900460ff16155b6104415760405162461bcd60e51b815260040161043890610c8f565b60405180910390fd5b3660008037600080366000845af43d6000803e808015610460573d6000f35b3d6000fd5b60055481565b60035481565b6000818152600b60205260409020600201545b919050565b6000828152600b60205260409020600201546104a79061030e610825565b6104e25760405162461bcd60e51b815260040180806020018281038252602f815260200180610d2b602f913960400191505060405180910390fd5b6104ec8282610829565b5050565b6104f8610825565b6001600160a01b0316816001600160a01b0316146105475760405162461bcd60e51b815260040180806020018281038252602f815260200180610d8a602f913960400191505060405180910390fd5b6104ec8282610892565b61057b7fdf8b4c520ffe197c5343c6f5aec59570151ef9a492f2c624fd45ddde6135ec4233610718565b6105975760405162461bcd60e51b815260040161043890610c44565b6001600160a01b0381166105bd5760405162461bcd60e51b815260040161043890610bb0565b600c546001600160a01b03828116911614156105eb5760405162461bcd60e51b815260040161043890610be7565b600c80546001600160a01b0319166001600160a01b0383169081179091556040517fbc7cd75a20ee27fd9adebab32041f755214dbc6bffa90cc0225b39da2e5c2d3b90600090a250565b6001546001600160a01b031681565b60045481565b60075481565b600c546001600160a01b031690565b600c54600160a01b900460ff1681565b7fdf8b4c520ffe197c5343c6f5aec59570151ef9a492f2c624fd45ddde6135ec4281565b6106bd7fdf8b4c520ffe197c5343c6f5aec59570151ef9a492f2c624fd45ddde6135ec4233610718565b6106d95760405162461bcd60e51b815260040161043890610c44565b600c8054911515600160a01b0260ff60a01b19909216919091179055565b6000828152600b6020526040812061070f90836108fb565b90505b92915050565b6000828152600b6020526040812061070f9083610907565b600a546001600160a01b031681565b600081565b600860205260009081526040902080546001820154600283015460038401546004850154600590950154939492939192909160ff1686565b60065481565b6000818152600b602052604081206107129061091c565b6000828152600b60205260409020600201546107b79061030e610825565b6105475760405162461bcd60e51b8152600401808060200182810382526030815260200180610d5a6030913960400191505060405180910390fd5b6002546001600160a01b031681565b6000546001600160a01b031681565b600061070f836001600160a01b038416610927565b3390565b6000828152600b602052604090206108419082610810565b156104ec5761084e610825565b6001600160a01b0316816001600160a01b0316837f2f8788117e7eff1d82e926ec794901d17c78024a50270940304540a733656f0d60405160405180910390a45050565b6000828152600b602052604090206108aa9082610971565b156104ec576108b7610825565b6001600160a01b0316816001600160a01b0316837ff6391f5c32d9c69d2a47ea670b442974b53935d1edc7fd64eb21e047a839171b60405160405180910390a45050565b600061070f8383610986565b600061070f836001600160a01b0384166109ea565b600061071282610a02565b600061093383836109ea565b61096957508154600181810184556000848152602080822090930184905584548482528286019093526040902091909155610712565b506000610712565b600061070f836001600160a01b038416610a06565b815460009082106109c85760405162461bcd60e51b8152600401808060200182810382526022815260200180610d096022913960400191505060405180910390fd5b8260000182815481106109d757fe5b9060005260206000200154905092915050565b60009081526001919091016020526040902054151590565b5490565b60008181526001830160205260408120548015610ac25783546000198083019190810190600090879083908110610a3957fe5b9060005260206000200154905080876000018481548110610a5657fe5b600091825260208083209091019290925582815260018981019092526040902090840190558654879080610a8657fe5b60019003818190600052602060002001600090559055866001016000878152602001908152602001600020600090556001945050505050610712565b6000915050610712565b80356001600160a01b038116811461048457600080fd5b600060208284031215610af4578081fd5b61070f82610acc565b600060208284031215610b0e578081fd5b81358015158114610b1d578182fd5b9392505050565b600060208284031215610b35578081fd5b5035919050565b60008060408385031215610b4e578081fd5b82359150610b5e60208401610acc565b90509250929050565b60008060408385031215610b79578182fd5b50508035926020909101359150565b6001600160a01b0391909116815260200190565b901515815260200190565b90815260200190565b6020808252601e908201527f5374616b65596561726e50726f78793a20696e707574206973207a65726f0000604082015260600190565b60208082526037908201527f5374616b65596561726e50726f78793a2054686520696e70757420616464726560408201527f73732069732073616d6520617320746865207374617465000000000000000000606082015260800190565b6020808252602b908201527f5374616b65596561726e50726f78793a206d73672e73656e646572206973206e60408201526a37ba1030b71030b236b4b760a91b606082015260800190565b6020808252602f908201527f5374616b65596561726e50726f78793a20696d706c206973207a65726f204f5260408201526e2070726f78792069732066616c736560881b606082015260800190565b9586526020860194909452604085019290925260608401526080830152151560a082015260c0019056fe456e756d657261626c655365743a20696e646578206f7574206f6620626f756e6473416363657373436f6e74726f6c3a2073656e646572206d75737420626520616e2061646d696e20746f206772616e74416363657373436f6e74726f6c3a2073656e646572206d75737420626520616e2061646d696e20746f207265766f6b65416363657373436f6e74726f6c3a2063616e206f6e6c792072656e6f756e636520726f6c657320666f722073656c66a2646970667358221220db0b6ef4c7085498ed2553d60433496d7933311e2c25fc69dca5b99bd1cd899964736f6c63430007060033df8b4c520ffe197c5343c6f5aec59570151ef9a492f2c624fd45ddde6135ec4260806040523480156200001157600080fd5b506200002d6000805160206200246a833981519152806200004e565b620000486000805160206200246a83398151915233620000a0565b620001b6565b6000828152600b6020526040808220600201549051839285917fbd79b86ffe0ab8e8776151514217cd7cacd52c909f66475c3af44e129f0b00ff9190a46000918252600b602052604090912060020155565b620000ac8282620000b0565b5050565b6000828152600b60209081526040909120620000d791839062001d396200012b821b17901c565b15620000ac57620000e76200014b565b6001600160a01b0316816001600160a01b0316837f2f8788117e7eff1d82e926ec794901d17c78024a50270940304540a733656f0d60405160405180910390a45050565b600062000142836001600160a01b0384166200014f565b90505b92915050565b3390565b60006200015d83836200019e565b620001955750815460018181018455600084815260208082209093018490558454848252828601909352604090209190915562000145565b50600062000145565b60009081526001919091016020526040902054151590565b6122a480620001c66000396000f3fe6080604052600436106101e75760003560e01c806375b238fc11610102578063b2d4d6a311610095578063e6d3bc6e11610064578063e6d3bc6e14610662578063f17f32751461068c578063fbfa77cf146106b6578063fc0c546a146106cb576101ee565b8063b2d4d6a3146105d5578063c7f0b455146105ea578063ca15c873146105ff578063d547741f14610629576101ee565b8063a2095f29116100d1578063a2095f2914610526578063a217fddf1461053b578063a694fc3a14610550578063acc3a9391461056d576101ee565b806375b238fc1461046157806385fb34ce146104765780639010d07c146104a957806391d14854146104d9576101ee565b806343b0934a1161017a578063567e98f911610149578063567e98f91461039a5780635c826abb146103af578063610b0663146103d9578063728cdbca1461040c576101ee565b806343b0934a1461030c57806348cd4cb11461033d5780634e71d92d14610352578063501afa7514610367576101ee565b80632f2ff15d116101b65780632f2ff15d1461026e57806336568abe146102a95780633aadeaf8146102e25780633ccfd60b146102f7576101ee565b8063083c6323146101f3578063200272751461021a578063248a9ca31461022f5780632bf8290314610259576101ee565b366101ee57005b600080fd5b3480156101ff57600080fd5b506102086106e0565b60408051918252519081900360200190f35b34801561022657600080fd5b506102086106e6565b34801561023b57600080fd5b506102086004803603602081101561025257600080fd5b50356106ec565b34801561026557600080fd5b50610208610701565b34801561027a57600080fd5b506102a76004803603604081101561029157600080fd5b50803590602001356001600160a01b0316610824565b005b3480156102b557600080fd5b506102a7600480360360408110156102cc57600080fd5b50803590602001356001600160a01b0316610890565b3480156102ee57600080fd5b506102a76108f1565b34801561030357600080fd5b506102a76109fb565b34801561031857600080fd5b50610321610c70565b604080516001600160a01b039092168252519081900360200190f35b34801561034957600080fd5b50610208610c7f565b34801561035e57600080fd5b506102a7610c85565b34801561037357600080fd5b506102086004803603602081101561038a57600080fd5b50356001600160a01b0316610ff5565b3480156103a657600080fd5b50610208611116565b3480156103bb57600080fd5b506102a7600480360360208110156103d257600080fd5b503561111c565b3480156103e557600080fd5b50610208600480360360208110156103fc57600080fd5b50356001600160a01b0316611224565b34801561041857600080fd5b506102a7600480360360c081101561042f57600080fd5b506001600160a01b03813581169160208101358216916040820135169060608101359060808101359060a001356115b0565b34801561046d57600080fd5b506102086116ab565b34801561048257600080fd5b506102a76004803603602081101561049957600080fd5b50356001600160a01b03166116bd565b3480156104b557600080fd5b50610321600480360360408110156104cc57600080fd5b50803590602001356117d1565b3480156104e557600080fd5b50610512600480360360408110156104fc57600080fd5b50803590602001356001600160a01b03166117f0565b604080519115158252519081900360200190f35b34801561053257600080fd5b50610321611808565b34801561054757600080fd5b50610208611817565b6102a76004803603602081101561056657600080fd5b503561181c565b34801561057957600080fd5b506105a06004803603602081101561059057600080fd5b50356001600160a01b03166119b7565b6040805196875260208701959095528585019390935260608501919091526080840152151560a0830152519081900360c00190f35b3480156105e157600080fd5b506102086119ef565b3480156105f657600080fd5b506102086119f5565b34801561060b57600080fd5b506102086004803603602081101561062257600080fd5b5035611ae6565b34801561063557600080fd5b506102a76004803603604081101561064c57600080fd5b50803590602001356001600160a01b0316611afd565b34801561066e57600080fd5b506102a76004803603602081101561068557600080fd5b5035611b56565b34801561069857600080fd5b506102a7600480360360208110156106af57600080fd5b5035611c42565b3480156106c257600080fd5b50610321611d1b565b3480156106d757600080fd5b50610321611d2a565b60055481565b60035481565b6000908152600b602052604090206002015490565b600061071b60008051602061212d833981519152336117f0565b6107565760405162461bcd60e51b81526004018080602001828103825260258152602001806121f66025913960400191505060405180910390fd5b600a546001600160a01b0316806107a2576040805162461bcd60e51b815260206004820152601b60248201526000805160206120eb833981519152604482015290519081900360640190fd5b600a60009054906101000a90046001600160a01b03166001600160a01b0316633d8bb5176040518163ffffffff1660e01b8152600401602060405180830381600087803b1580156107f257600080fd5b505af1158015610806573d6000803e3d6000fd5b505050506040513d602081101561081c57600080fd5b505191505090565b6000828152600b602052604090206002015461084790610842611d4e565b6117f0565b6108825760405162461bcd60e51b815260040180806020018281038252602f815260200180612018602f913960400191505060405180910390fd5b61088c8282611d52565b5050565b610898611d4e565b6001600160a01b0316816001600160a01b0316146108e75760405162461bcd60e51b815260040180806020018281038252602f815260200180612240602f913960400191505060405180910390fd5b61088c8282611dbb565b61090960008051602061212d833981519152336117f0565b6109445760405162461bcd60e51b81526004018080602001828103825260258152602001806121f66025913960400191505060405180910390fd5b600a546001600160a01b031680610990576040805162461bcd60e51b815260206004820152601b60248201526000805160206120eb833981519152604482015290519081900360640190fd5b600a60009054906101000a90046001600160a01b03166001600160a01b0316634e71d92d6040518163ffffffff1660e01b8152600401600060405180830381600087803b1580156109e057600080fd5b505af11580156109f4573d6000803e3d6000fd5b5050505050565b6000600554118015610a0e575043600554105b610a495760405162461bcd60e51b815260040180806020018281038252602581526020018061221b6025913960400191505060405180910390fd5b33600090815260086020526040902080548015801590610a6e57508154600483015411155b610aa95760405162461bcd60e51b815260040180806020018281038252603181526020018061216f6031913960400191505060405180910390fd5b8154600483015543600383015560058201805460ff19166001908117909155546001600160a01b0316610b7357308031821115610ae557600080fd5b604051600090339084908381818185875af1925050503d8060008114610b27576040519150601f19603f3d011682016040523d82523d6000602084013e610b2c565b606091505b5050905080610b6c5760405162461bcd60e51b815260040180806020018281038252602d8152602001806121a0602d913960400191505060405180910390fd5b5050610c2e565b6001546040805163a9059cbb60e01b81523360048201526024810184905290516001600160a01b039092169163a9059cbb916044808201926020929091908290030181600087803b158015610bc757600080fd5b505af1158015610bdb573d6000803e3d6000fd5b505050506040513d6020811015610bf157600080fd5b5051610c2e5760405162461bcd60e51b815260040180806020018281038252602a8152602001806120c1602a913960400191505060405180910390fd5b604080518281524360208201528151339230927fc2b4a290c20fb28939d29f102514fbffd2b73c059ffba8b78250c94161d5fcc6929081900390910190a35050565b6001546001600160a01b031681565b60045481565b60095415610cda576040805162461bcd60e51b815260206004820152601a60248201527f5374616b65466f72537461626c65436f696e3a204c4f434b4544000000000000604482015290519081900360640190fd5b600160095560025460408051631718ecd760e31b815290516001600160a01b039092169163b8c766b891600480820192602092909190829003018186803b158015610d2457600080fd5b505afa158015610d38573d6000803e3d6000fd5b505050506040513d6020811015610d4e57600080fd5b50511515600114610d905760405162461bcd60e51b815260040180806020018281038252602281526020018061210b6022913960400191505060405180910390fd5b336000818152600860205260408120600554600182015443929111610dfc576040805162461bcd60e51b815260206004820152601b60248201527f5374616b65466f72537461626c65436f696e3a20636c61696d65640000000000604482015290519081900360640190fd5b610e0584611224565b925060008311610e465760405162461bcd60e51b815260040180806020018281038252602281526020018061214d6022913960400191505060405180910390fd5b6002546040805163032f7adb60e61b815230600482015290516000926001600160a01b03169163cbdeb6c0916024808301926020929190829003018186803b158015610e9157600080fd5b505afa158015610ea5573d6000803e3d6000fd5b505050506040513d6020811015610ebb57600080fd5b50516006549091508401811015610f035760405162461bcd60e51b81526004018080602001828103825260288152602001806120696028913960400191505060405180910390fd5b60018201839055600280830180548601905560068054860190555460408051635569f64b60e11b81526001600160a01b038881166004830152602482018890529151919092169163aad3ec969160448083019260209291908290030181600087803b158015610f7157600080fd5b505af1158015610f85573d6000803e3d6000fd5b505050506040513d6020811015610f9b57600080fd5b5051610fa657600080fd5b604080518581526020810185905281516001600160a01b038816927f987d620f307ff6b94d58743cb7a7509f24071586a77759b77c2d4e29f75a2f9a928290030190a250506000600955505050565b600061100f60008051602061212d833981519152336117f0565b61104a5760405162461bcd60e51b81526004018080602001828103825260258152602001806121f66025913960400191505060405180910390fd5b600a546001600160a01b031680611096576040805162461bcd60e51b815260206004820152601b60248201526000805160206120eb833981519152604482015290519081900360640190fd5b600a54604080516301678afb60e31b81526001600160a01b03868116600483015291519190921691630b3c57d8916024808301926020929190829003018186803b1580156110e357600080fd5b505afa1580156110f7573d6000803e3d6000fd5b505050506040513d602081101561110d57600080fd5b50519392505050565b60075481565b61113460008051602061212d833981519152336117f0565b61116f5760405162461bcd60e51b81526004018080602001828103825260258152602001806121f66025913960400191505060405180910390fd5b600a546001600160a01b0316806111bb576040805162461bcd60e51b815260206004820152601b60248201526000805160206120eb833981519152604482015290519081900360640190fd5b600a5460408051632e1a7d4d60e01b81526004810185905290516001600160a01b0390921691632e1a7d4d9160248082019260009290919082900301818387803b15801561120857600080fd5b505af115801561121c573d6000803e3d6000fd5b505050505050565b600454600090819043108061124f57506001600160a01b038316600090815260086020526040902054155b8061127657506005546001600160a01b038416600090815260086020526040902060010154115b8061129b57506001600160a01b03831660009081526008602052604090206001015443105b156112a8575060006115aa565b6004546005546001600160a01b0385166000908152600860205260409020600101548210156112f0576001600160a01b03851660009081526008602052604090206001015491505b804310156112fb5750435b6002546040805163c1b422fd60e01b815290516000926001600160a01b03169163c1b422fd9160048083019286929190829003018186803b15801561133f57600080fd5b505afa158015611353573d6000803e3d6000fd5b505050506040513d6000823e601f3d908101601f19168201604052602081101561137c57600080fd5b810190808051604051939291908464010000000082111561139c57600080fd5b9083019060208201858111156113b157600080fd5b82518660208202830111640100000000821117156113ce57600080fd5b82525081516020918201928201910280838360005b838110156113fb5781810151838201526020016113e3565b5050505090500160405250505090506000815111156115a6576000806000600260009054906101000a90046001600160a01b03166001600160a01b031663d105bf856040518163ffffffff1660e01b815260040160206040518083038186803b15801561146757600080fd5b505afa15801561147b573d6000803e3d6000fd5b505050506040513d602081101561149157600080fd5b5051905060005b84518110156115a1578481815181106114ad57fe5b60209081029190910181015160025460408051632f8deb1560e11b81526004810184905290519297506001600160a01b0390911692635f1bd62a92602480840193829003018186803b15801561150257600080fd5b505afa158015611516573d6000803e3d6000fd5b505050506040513d602081101561152c57600080fd5b50519250838611611569576001600160a01b038a1660009081526008602052604090205483908888038402028161155f57fe5b04880197506115a1565b6001600160a01b038a1660009081526008602052604090205483908886038402028161159157fe5b0488019750839650600101611498565b505050505b5050505b92915050565b6115c860008051602061212d833981519152336117f0565b6116035760405162461bcd60e51b81526004018080602001828103825260258152602001806121f66025913960400191505060405180910390fd5b6001600160a01b0386161580159061162357506001600160a01b03841615155b801561162f5750818311155b61163857600080fd5b600080546001600160a01b038089166001600160a01b031992831617909255600180548884169083161790556002805492871692909116919091179055826116835743600355611689565b60038390555b81611697574360045561169d565b60048290555b600454016005555050505050565b60008051602061212d83398151915281565b6116d560008051602061212d833981519152336117f0565b6117105760405162461bcd60e51b81526004018080602001828103825260258152602001806121f66025913960400191505060405180910390fd5b6003544310611766576040805162461bcd60e51b815260206004820152601e60248201527f546f6b616d616b5374616b65723a20416c726561647920737461727465640000604482015290519081900360640190fd5b6001600160a01b0381166117af576040805162461bcd60e51b815260206004820152601b60248201526000805160206120eb833981519152604482015290519081900360640190fd5b600a80546001600160a01b0319166001600160a01b0392909216919091179055565b6000828152600b602052604081206117e99083611e24565b9392505050565b6000828152600b602052604081206117e99083611e30565b600a546001600160a01b031681565b600081565b6001546001600160a01b03161580156118355750600034115b8061185557506001546001600160a01b0316158015906118555750600081115b6118905760405162461bcd60e51b81526004018080602001828103825260228152602001806120476022913960400191505060405180910390fd5b60035443101580156118a55750600454600354105b6118e05760405162461bcd60e51b81526004018080602001828103825260298152602001806121cd6029913960400191505060405180910390fd5b60015481906001600160a01b03166118f55750345b33600090815260086020526040902080548201815560078054830190556001546001600160a01b0316156119b257600154604080516323b872dd60e01b81523360048201523060248201526044810185905290516001600160a01b03909216916323b872dd916064808201926020929091908290030181600087803b15801561197d57600080fd5b505af1158015611991573d6000803e3d6000fd5b505050506040513d60208110156119a757600080fd5b50516119b257600080fd5b505050565b600860205260009081526040902080546001820154600283015460038401546004850154600590950154939492939192909160ff1686565b60065481565b6000611a0f60008051602061212d833981519152336117f0565b611a4a5760405162461bcd60e51b81526004018080602001828103825260258152602001806121f66025913960400191505060405180910390fd5b600a546001600160a01b031680611a96576040805162461bcd60e51b815260206004820152601b60248201526000805160206120eb833981519152604482015290519081900360640190fd5b600a60009054906101000a90046001600160a01b03166001600160a01b031663a00251c66040518163ffffffff1660e01b8152600401602060405180830381600087803b1580156107f257600080fd5b6000818152600b602052604081206115aa90611e45565b6000828152600b6020526040902060020154611b1b90610842611d4e565b6108e75760405162461bcd60e51b81526004018080602001828103825260308152602001806120916030913960400191505060405180910390fd5b611b6e60008051602061212d833981519152336117f0565b611ba95760405162461bcd60e51b81526004018080602001828103825260258152602001806121f66025913960400191505060405180910390fd5b600a546001600160a01b031680611bf5576040805162461bcd60e51b815260206004820152601b60248201526000805160206120eb833981519152604482015290519081900360640190fd5b600a546040805163b6b55f2560e01b81526004810185905290516001600160a01b039092169163b6b55f259160248082019260009290919082900301818387803b15801561120857600080fd5b600154600a546040805163095ea7b360e01b81526001600160a01b039283166004820152602481018590529051919092169163095ea7b39160448083019260209291908290030181600087803b158015611c9b57600080fd5b505af1158015611caf573d6000803e3d6000fd5b505050506040513d6020811015611cc557600080fd5b5051611d18576040805162461bcd60e51b815260206004820152601b60248201527f596561726e56325374616b65723a20617070726f7665206661696c0000000000604482015290519081900360640190fd5b50565b6002546001600160a01b031681565b6000546001600160a01b031681565b60006117e9836001600160a01b038416611e50565b3390565b6000828152600b60205260409020611d6a9082611d39565b1561088c57611d77611d4e565b6001600160a01b0316816001600160a01b0316837f2f8788117e7eff1d82e926ec794901d17c78024a50270940304540a733656f0d60405160405180910390a45050565b6000828152600b60205260409020611dd39082611e9a565b1561088c57611de0611d4e565b6001600160a01b0316816001600160a01b0316837ff6391f5c32d9c69d2a47ea670b442974b53935d1edc7fd64eb21e047a839171b60405160405180910390a45050565b60006117e98383611eaf565b60006117e9836001600160a01b038416611f13565b60006115aa82611f2b565b6000611e5c8383611f13565b611e92575081546001818101845560008481526020808220909301849055845484825282860190935260409020919091556115aa565b5060006115aa565b60006117e9836001600160a01b038416611f2f565b81546000908210611ef15760405162461bcd60e51b8152600401808060200182810382526022815260200180611ff66022913960400191505060405180910390fd5b826000018281548110611f0057fe5b9060005260206000200154905092915050565b60009081526001919091016020526040902054151590565b5490565b60008181526001830160205260408120548015611feb5783546000198083019190810190600090879083908110611f6257fe5b9060005260206000200154905080876000018481548110611f7f57fe5b600091825260208083209091019290925582815260018981019092526040902090840190558654879080611faf57fe5b600190038181906000526020600020016000905590558660010160008781526020019081526020016000206000905560019450505050506115aa565b60009150506115aa56fe456e756d657261626c655365743a20696e646578206f7574206f6620626f756e6473416363657373436f6e74726f6c3a2073656e646572206d75737420626520616e2061646d696e20746f206772616e745374616b65466f72537461626c65436f696e3a20616d6f756e74206973207a65726f5374616b65466f72537461626c65436f696e3a20746f74616c207265776172642065786365656473416363657373436f6e74726f6c3a2073656e646572206d75737420626520616e2061646d696e20746f207265766f6b655374616b65466f72537461626c65436f696e3a207769746864726177207472616e73666572206661696c596561726e56325374616b65723a207a65726f206164647265737300000000005374616b65466f72537461626c65436f696e3a20646973636c6f73652073616c652edf8b4c520ffe197c5343c6f5aec59570151ef9a492f2c624fd45ddde6135ec425374616b65466f72537461626c65436f696e3a20726577617264206973207a65726f5374616b65466f72537461626c65436f696e3a2072656c6561736564416d6f756e74203e207374616b6564416d6f756e745374616b65466f72537461626c65436f696e3a207769746864726177206574682073656e64206661696c65642e5374616b65466f72537461626c65436f696e3a20706572696f6420697320756e617661696c61626c65596561726e56325374616b65723a2043616c6c6572206973206e6f7420616e2061646d696e5374616b65466f72537461626c65436f696e3a206f6e207374616b696e6720706572696f64416363657373436f6e74726f6c3a2063616e206f6e6c792072656e6f756e636520726f6c657320666f722073656c66a2646970667358221220c4fb8d04637a44dca7eb3ed4d7b4941c96bc626d10b871c0978b77643997b40f64736f6c63430007060033df8b4c520ffe197c5343c6f5aec59570151ef9a492f2c624fd45ddde6135ec425374616b65466f72537461626c65436f696e466163746f72793a206465706c6f7920696e6974206661696c5374616b65466f72537461626c65436f696e466163746f72793a207374617274206572726f72a26469706673582212203ff27b5690953da02c5ff5a6cc72cbbe1862545cd0d806c4b5f3cdd70762b30564736f6c63430007060033",
  "immutableReferences": {},
  "source": "// SPDX-License-Identifier: MIT\npragma solidity ^0.7.6;\n\nimport {IStake1Vault} from \"../interfaces/IStake1Vault.sol\";\nimport {IStakeForStableCoin} from \"../interfaces/IStakeForStableCoin.sol\";\n\nimport {StakeForStableCoin} from \"../stake/StakeForStableCoin.sol\";\nimport {StakeYearnProxy} from \"../stake/StakeYearnProxy.sol\";\n\ncontract StakeForStableCoinFactory {\n    bytes32 public constant ADMIN_ROLE = keccak256(\"ADMIN\");\n\n    function deploy(\n        uint256 _pahse,\n        address _vault,\n        address _token,\n        address _paytoken,\n        uint256 _period,\n        address owner\n    ) public returns (address) {\n        require(\n            _vault != address(0) && _pahse == 1,\n            \"StakeForStableCoinFactory: deploy init fail\"\n        );\n\n        IStake1Vault vault = IStake1Vault(_vault);\n        uint256 saleStart = vault.saleStartBlock();\n        uint256 stakeStart = vault.stakeStartBlock();\n        address defiAddr = vault.defiAddr();\n        uint256 period = _period;\n\n        require(\n            saleStart < stakeStart && stakeStart > 0,\n            \"StakeForStableCoinFactory: start error\"\n        );\n\n        // if paytoken is stable coin, stakeContract is YearnV2Staker\n        StakeYearnProxy proxy = new StakeYearnProxy();\n        StakeForStableCoin logic = new StakeForStableCoin();\n        proxy.upgradeTo(address(logic));\n\n        IStakeForStableCoin(address(proxy)).initialize(\n            _token,\n            _paytoken,\n            address(vault),\n            saleStart,\n            stakeStart,\n            period\n        );\n\n        IStakeForStableCoin(address(proxy)).setYearnV2(defiAddr);\n\n        // vault.addSubVaultOfStake(_name, address(proxy), period);\n        proxy.grantRole(ADMIN_ROLE, owner);\n        proxy.revokeRole(ADMIN_ROLE, address(this));\n        return address(proxy);\n    }\n}\n",
  "sourcePath": "/Users/zena/ico2.0/ico20-contracts/contracts/factory/StakeForStableCoinFactory.sol",
  "compiler": {
    "name": "solc",
    "version": "0.7.6+commit.7338295f.Emscripten.clang"
  },
  "schemaVersion": "3.3.4",
  "updatedAt": "2021-05-17T15:11:33.402Z",
  "devdoc": {
    "kind": "dev",
    "methods": {},
    "version": 1
  },
  "userdoc": {
    "kind": "user",
    "methods": {},
    "version": 1
  }
}