{
  "contractName": "StakeTON",
  "abi": [
    {
      "inputs": [],
      "stateMutability": "nonpayable",
      "type": "constructor"
    },
    {
      "anonymous": false,
      "inputs": [
        {
          "indexed": true,
          "internalType": "address",
          "name": "to",
          "type": "address"
        },
        {
          "indexed": false,
          "internalType": "uint256",
          "name": "amount",
          "type": "uint256"
        },
        {
          "indexed": false,
          "internalType": "uint256",
          "name": "currentBlcok",
          "type": "uint256"
        }
      ],
      "name": "Claimed",
      "type": "event"
    },
    {
      "anonymous": false,
      "inputs": [
        {
          "indexed": true,
          "internalType": "bytes32",
          "name": "role",
          "type": "bytes32"
        },
        {
          "indexed": true,
          "internalType": "bytes32",
          "name": "previousAdminRole",
          "type": "bytes32"
        },
        {
          "indexed": true,
          "internalType": "bytes32",
          "name": "newAdminRole",
          "type": "bytes32"
        }
      ],
      "name": "RoleAdminChanged",
      "type": "event"
    },
    {
      "anonymous": false,
      "inputs": [
        {
          "indexed": true,
          "internalType": "bytes32",
          "name": "role",
          "type": "bytes32"
        },
        {
          "indexed": true,
          "internalType": "address",
          "name": "account",
          "type": "address"
        },
        {
          "indexed": true,
          "internalType": "address",
          "name": "sender",
          "type": "address"
        }
      ],
      "name": "RoleGranted",
      "type": "event"
    },
    {
      "anonymous": false,
      "inputs": [
        {
          "indexed": true,
          "internalType": "bytes32",
          "name": "role",
          "type": "bytes32"
        },
        {
          "indexed": true,
          "internalType": "address",
          "name": "account",
          "type": "address"
        },
        {
          "indexed": true,
          "internalType": "address",
          "name": "sender",
          "type": "address"
        }
      ],
      "name": "RoleRevoked",
      "type": "event"
    },
    {
      "anonymous": false,
      "inputs": [
        {
          "indexed": false,
          "internalType": "address",
          "name": "registry",
          "type": "address"
        }
      ],
      "name": "SetRegistry",
      "type": "event"
    },
    {
      "anonymous": false,
      "inputs": [
        {
          "indexed": false,
          "internalType": "address",
          "name": "layer2",
          "type": "address"
        }
      ],
      "name": "SetTokamakLayer2",
      "type": "event"
    },
    {
      "anonymous": false,
      "inputs": [
        {
          "indexed": true,
          "internalType": "address",
          "name": "to",
          "type": "address"
        },
        {
          "indexed": false,
          "internalType": "uint256",
          "name": "amount",
          "type": "uint256"
        }
      ],
      "name": "Staked",
      "type": "event"
    },
    {
      "anonymous": false,
      "inputs": [
        {
          "indexed": true,
          "internalType": "address",
          "name": "to",
          "type": "address"
        },
        {
          "indexed": false,
          "internalType": "uint256",
          "name": "tonAmount",
          "type": "uint256"
        },
        {
          "indexed": false,
          "internalType": "uint256",
          "name": "fldAmount",
          "type": "uint256"
        }
      ],
      "name": "Withdrawal",
      "type": "event"
    },
    {
      "anonymous": false,
      "inputs": [
        {
          "indexed": false,
          "internalType": "address",
          "name": "caller",
          "type": "address"
        },
        {
          "indexed": false,
          "internalType": "uint256",
          "name": "amountIn",
          "type": "uint256"
        },
        {
          "indexed": false,
          "internalType": "uint256",
          "name": "amountOut",
          "type": "uint256"
        }
      ],
      "name": "exchangedWTONtoFLD",
      "type": "event"
    },
    {
      "anonymous": false,
      "inputs": [
        {
          "indexed": false,
          "internalType": "address",
          "name": "layer2",
          "type": "address"
        },
        {
          "indexed": false,
          "internalType": "uint256",
          "name": "rn",
          "type": "uint256"
        },
        {
          "indexed": false,
          "internalType": "bool",
          "name": "receiveTON",
          "type": "bool"
        }
      ],
      "name": "tokamakProcessedUnStaking",
      "type": "event"
    },
    {
      "anonymous": false,
      "inputs": [
        {
          "indexed": false,
          "internalType": "address",
          "name": "layer2",
          "type": "address"
        },
        {
          "indexed": false,
          "internalType": "uint256",
          "name": "amount",
          "type": "uint256"
        }
      ],
      "name": "tokamakRequestedUnStaking",
      "type": "event"
    },
    {
      "anonymous": false,
      "inputs": [
        {
          "indexed": false,
          "internalType": "address",
          "name": "layer2",
          "type": "address"
        },
        {
          "indexed": false,
          "internalType": "uint256",
          "name": "amount",
          "type": "uint256"
        },
        {
          "indexed": false,
          "internalType": "bool",
          "name": "isTON",
          "type": "bool"
        }
      ],
      "name": "tokamakStaked",
      "type": "event"
    },
    {
      "inputs": [],
      "name": "ADMIN_ROLE",
      "outputs": [
        {
          "internalType": "bytes32",
          "name": "",
          "type": "bytes32"
        }
      ],
      "stateMutability": "view",
      "type": "function"
    },
    {
      "inputs": [],
      "name": "DEFAULT_ADMIN_ROLE",
      "outputs": [
        {
          "internalType": "bytes32",
          "name": "",
          "type": "bytes32"
        }
      ],
      "stateMutability": "view",
      "type": "function"
    },
    {
      "inputs": [
        {
          "internalType": "uint256",
          "name": "amount",
          "type": "uint256"
        }
      ],
      "name": "approveUniswapRouter",
      "outputs": [],
      "stateMutability": "nonpayable",
      "type": "function"
    },
    {
      "inputs": [],
      "name": "defiStatus",
      "outputs": [
        {
          "internalType": "uint256",
          "name": "",
          "type": "uint256"
        }
      ],
      "stateMutability": "view",
      "type": "function"
    },
    {
      "inputs": [],
      "name": "depositManager",
      "outputs": [
        {
          "internalType": "address",
          "name": "",
          "type": "address"
        }
      ],
      "stateMutability": "view",
      "type": "function"
    },
    {
      "inputs": [],
      "name": "endBlock",
      "outputs": [
        {
          "internalType": "uint256",
          "name": "",
          "type": "uint256"
        }
      ],
      "stateMutability": "view",
      "type": "function"
    },
    {
      "inputs": [
        {
          "internalType": "uint256",
          "name": "_amountIn",
          "type": "uint256"
        },
        {
          "internalType": "uint256",
          "name": "_amountOutMinimum",
          "type": "uint256"
        },
        {
          "internalType": "uint256",
          "name": "_deadline",
          "type": "uint256"
        },
        {
          "internalType": "uint160",
          "name": "_sqrtPriceLimitX96",
          "type": "uint160"
        },
        {
          "internalType": "uint256",
          "name": "_kind",
          "type": "uint256"
        }
      ],
      "name": "exchangeWTONtoFLD",
      "outputs": [
        {
          "internalType": "uint256",
          "name": "amountOut",
          "type": "uint256"
        }
      ],
      "stateMutability": "nonpayable",
      "type": "function"
    },
    {
      "inputs": [
        {
          "internalType": "uint256",
          "name": "_amountIn",
          "type": "uint256"
        },
        {
          "internalType": "uint256",
          "name": "_amountOutMinimum",
          "type": "uint256"
        },
        {
          "internalType": "uint256",
          "name": "_deadline",
          "type": "uint256"
        },
        {
          "internalType": "uint256",
          "name": "_kind",
          "type": "uint256"
        }
      ],
      "name": "exchangeWTONtoFLDv2",
      "outputs": [
        {
          "internalType": "uint256",
          "name": "amountOut",
          "type": "uint256"
        }
      ],
      "stateMutability": "nonpayable",
      "type": "function"
    },
    {
      "inputs": [],
      "name": "finalBalanceTON",
      "outputs": [
        {
          "internalType": "uint256",
          "name": "",
          "type": "uint256"
        }
      ],
      "stateMutability": "view",
      "type": "function"
    },
    {
      "inputs": [],
      "name": "finalBalanceWTON",
      "outputs": [
        {
          "internalType": "uint256",
          "name": "",
          "type": "uint256"
        }
      ],
      "stateMutability": "view",
      "type": "function"
    },
    {
      "inputs": [],
      "name": "fromTokamak",
      "outputs": [
        {
          "internalType": "uint256",
          "name": "",
          "type": "uint256"
        }
      ],
      "stateMutability": "view",
      "type": "function"
    },
    {
      "inputs": [
        {
          "internalType": "bytes32",
          "name": "role",
          "type": "bytes32"
        }
      ],
      "name": "getRoleAdmin",
      "outputs": [
        {
          "internalType": "bytes32",
          "name": "",
          "type": "bytes32"
        }
      ],
      "stateMutability": "view",
      "type": "function"
    },
    {
      "inputs": [
        {
          "internalType": "bytes32",
          "name": "role",
          "type": "bytes32"
        },
        {
          "internalType": "uint256",
          "name": "index",
          "type": "uint256"
        }
      ],
      "name": "getRoleMember",
      "outputs": [
        {
          "internalType": "address",
          "name": "",
          "type": "address"
        }
      ],
      "stateMutability": "view",
      "type": "function"
    },
    {
      "inputs": [
        {
          "internalType": "bytes32",
          "name": "role",
          "type": "bytes32"
        }
      ],
      "name": "getRoleMemberCount",
      "outputs": [
        {
          "internalType": "uint256",
          "name": "",
          "type": "uint256"
        }
      ],
      "stateMutability": "view",
      "type": "function"
    },
    {
      "inputs": [],
      "name": "getUniswapInfo",
      "outputs": [
        {
          "internalType": "address",
          "name": "uniswapRouter",
          "type": "address"
        },
        {
          "internalType": "address",
          "name": "npm",
          "type": "address"
        },
        {
          "internalType": "address",
          "name": "ext",
          "type": "address"
        },
        {
          "internalType": "uint256",
          "name": "fee",
          "type": "uint256"
        },
        {
          "internalType": "address",
          "name": "uniswapRouterV2",
          "type": "address"
        }
      ],
      "stateMutability": "view",
      "type": "function"
    },
    {
      "inputs": [
        {
          "internalType": "address",
          "name": "user",
          "type": "address"
        }
      ],
      "name": "getUserStaked",
      "outputs": [
        {
          "internalType": "uint256",
          "name": "",
          "type": "uint256"
        },
        {
          "internalType": "uint256",
          "name": "",
          "type": "uint256"
        },
        {
          "internalType": "uint256",
          "name": "",
          "type": "uint256"
        },
        {
          "internalType": "uint256",
          "name": "",
          "type": "uint256"
        },
        {
          "internalType": "uint256",
          "name": "",
          "type": "uint256"
        },
        {
          "internalType": "uint256",
          "name": "",
          "type": "uint256"
        },
        {
          "internalType": "bool",
          "name": "",
          "type": "bool"
        }
      ],
      "stateMutability": "view",
      "type": "function"
    },
    {
      "inputs": [
        {
          "internalType": "bytes32",
          "name": "role",
          "type": "bytes32"
        },
        {
          "internalType": "address",
          "name": "account",
          "type": "address"
        }
      ],
      "name": "grantRole",
      "outputs": [],
      "stateMutability": "nonpayable",
      "type": "function"
    },
    {
      "inputs": [
        {
          "internalType": "bytes32",
          "name": "role",
          "type": "bytes32"
        },
        {
          "internalType": "address",
          "name": "account",
          "type": "address"
        }
      ],
      "name": "hasRole",
      "outputs": [
        {
          "internalType": "bool",
          "name": "",
          "type": "bool"
        }
      ],
      "stateMutability": "view",
      "type": "function"
    },
    {
      "inputs": [],
      "name": "paytoken",
      "outputs": [
        {
          "internalType": "address",
          "name": "",
          "type": "address"
        }
      ],
      "stateMutability": "view",
      "type": "function"
    },
    {
      "inputs": [
        {
          "internalType": "bytes32",
          "name": "role",
          "type": "bytes32"
        },
        {
          "internalType": "address",
          "name": "account",
          "type": "address"
        }
      ],
      "name": "renounceRole",
      "outputs": [],
      "stateMutability": "nonpayable",
      "type": "function"
    },
    {
      "inputs": [],
      "name": "requestNum",
      "outputs": [
        {
          "internalType": "uint256",
          "name": "",
          "type": "uint256"
        }
      ],
      "stateMutability": "view",
      "type": "function"
    },
    {
      "inputs": [
        {
          "internalType": "bytes32",
          "name": "role",
          "type": "bytes32"
        },
        {
          "internalType": "address",
          "name": "account",
          "type": "address"
        }
      ],
      "name": "revokeRole",
      "outputs": [],
      "stateMutability": "nonpayable",
      "type": "function"
    },
    {
      "inputs": [],
      "name": "rewardClaimedTotal",
      "outputs": [
        {
          "internalType": "uint256",
          "name": "",
          "type": "uint256"
        }
      ],
      "stateMutability": "view",
      "type": "function"
    },
    {
      "inputs": [],
      "name": "saleStartBlock",
      "outputs": [
        {
          "internalType": "uint256",
          "name": "",
          "type": "uint256"
        }
      ],
      "stateMutability": "view",
      "type": "function"
    },
    {
      "inputs": [],
      "name": "seigManager",
      "outputs": [
        {
          "internalType": "address",
          "name": "",
          "type": "address"
        }
      ],
      "stateMutability": "view",
      "type": "function"
    },
    {
      "inputs": [
        {
          "internalType": "address",
          "name": "_registry",
          "type": "address"
        }
      ],
      "name": "setRegistry",
      "outputs": [],
      "stateMutability": "nonpayable",
      "type": "function"
    },
    {
      "inputs": [
        {
          "internalType": "address",
          "name": "_layer2",
          "type": "address"
        }
      ],
      "name": "setTokamakLayer2",
      "outputs": [],
      "stateMutability": "nonpayable",
      "type": "function"
    },
    {
      "inputs": [],
      "name": "stakeRegistry",
      "outputs": [
        {
          "internalType": "address",
          "name": "",
          "type": "address"
        }
      ],
      "stateMutability": "view",
      "type": "function"
    },
    {
      "inputs": [],
      "name": "startBlock",
      "outputs": [
        {
          "internalType": "uint256",
          "name": "",
          "type": "uint256"
        }
      ],
      "stateMutability": "view",
      "type": "function"
    },
    {
      "inputs": [],
      "name": "swapProxy",
      "outputs": [
        {
          "internalType": "address",
          "name": "",
          "type": "address"
        }
      ],
      "stateMutability": "view",
      "type": "function"
    },
    {
      "inputs": [
        {
          "internalType": "uint256",
          "name": "amount",
          "type": "uint256"
        },
        {
          "internalType": "bool",
          "name": "toWTON",
          "type": "bool"
        }
      ],
      "name": "swapTONtoWTON",
      "outputs": [],
      "stateMutability": "nonpayable",
      "type": "function"
    },
    {
      "inputs": [],
      "name": "swappedAmountFLD",
      "outputs": [
        {
          "internalType": "uint256",
          "name": "",
          "type": "uint256"
        }
      ],
      "stateMutability": "view",
      "type": "function"
    },
    {
      "inputs": [],
      "name": "toTokamak",
      "outputs": [
        {
          "internalType": "uint256",
          "name": "",
          "type": "uint256"
        }
      ],
      "stateMutability": "view",
      "type": "function"
    },
    {
      "inputs": [],
      "name": "toUniswapWTON",
      "outputs": [
        {
          "internalType": "uint256",
          "name": "",
          "type": "uint256"
        }
      ],
      "stateMutability": "view",
      "type": "function"
    },
    {
      "inputs": [],
      "name": "tokamakLayer2",
      "outputs": [
        {
          "internalType": "address",
          "name": "",
          "type": "address"
        }
      ],
      "stateMutability": "view",
      "type": "function"
    },
    {
      "inputs": [
        {
          "internalType": "address",
          "name": "_layer2",
          "type": "address"
        }
      ],
      "name": "tokamakProcessUnStaking",
      "outputs": [],
      "stateMutability": "nonpayable",
      "type": "function"
    },
    {
      "inputs": [
        {
          "internalType": "address",
          "name": "_layer2",
          "type": "address"
        },
        {
          "internalType": "uint256",
          "name": "wtonAmount",
          "type": "uint256"
        }
      ],
      "name": "tokamakRequestUnStaking",
      "outputs": [],
      "stateMutability": "nonpayable",
      "type": "function"
    },
    {
      "inputs": [
        {
          "internalType": "address",
          "name": "_layer2",
          "type": "address"
        },
        {
          "internalType": "uint256",
          "name": "stakeAmount",
          "type": "uint256"
        },
        {
          "internalType": "bool",
          "name": "isTON",
          "type": "bool"
        }
      ],
      "name": "tokamakStaking",
      "outputs": [],
      "stateMutability": "nonpayable",
      "type": "function"
    },
    {
      "inputs": [],
      "name": "token",
      "outputs": [
        {
          "internalType": "address",
          "name": "",
          "type": "address"
        }
      ],
      "stateMutability": "view",
      "type": "function"
    },
    {
      "inputs": [],
      "name": "ton",
      "outputs": [
        {
          "internalType": "address",
          "name": "",
          "type": "address"
        }
      ],
      "stateMutability": "view",
      "type": "function"
    },
    {
      "inputs": [],
      "name": "totalStakedAmount",
      "outputs": [
        {
          "internalType": "uint256",
          "name": "",
          "type": "uint256"
        }
      ],
      "stateMutability": "view",
      "type": "function"
    },
    {
      "inputs": [],
      "name": "totalStakers",
      "outputs": [
        {
          "internalType": "uint256",
          "name": "",
          "type": "uint256"
        }
      ],
      "stateMutability": "view",
      "type": "function"
    },
    {
      "inputs": [
        {
          "internalType": "address",
          "name": "newOwner",
          "type": "address"
        }
      ],
      "name": "transferOwnership",
      "outputs": [],
      "stateMutability": "nonpayable",
      "type": "function"
    },
    {
      "inputs": [
        {
          "internalType": "address",
          "name": "",
          "type": "address"
        }
      ],
      "name": "userStaked",
      "outputs": [
        {
          "internalType": "uint256",
          "name": "amount",
          "type": "uint256"
        },
        {
          "internalType": "uint256",
          "name": "claimedBlock",
          "type": "uint256"
        },
        {
          "internalType": "uint256",
          "name": "claimedAmount",
          "type": "uint256"
        },
        {
          "internalType": "uint256",
          "name": "releasedBlock",
          "type": "uint256"
        },
        {
          "internalType": "uint256",
          "name": "releasedAmount",
          "type": "uint256"
        },
        {
          "internalType": "uint256",
          "name": "releasedFLDAmount",
          "type": "uint256"
        },
        {
          "internalType": "bool",
          "name": "released",
          "type": "bool"
        }
      ],
      "stateMutability": "view",
      "type": "function"
    },
    {
      "inputs": [],
      "name": "vault",
      "outputs": [
        {
          "internalType": "address",
          "name": "",
          "type": "address"
        }
      ],
      "stateMutability": "view",
      "type": "function"
    },
    {
      "inputs": [],
      "name": "withdrawFlag",
      "outputs": [
        {
          "internalType": "bool",
          "name": "",
          "type": "bool"
        }
      ],
      "stateMutability": "view",
      "type": "function"
    },
    {
      "inputs": [],
      "name": "wton",
      "outputs": [
        {
          "internalType": "address",
          "name": "",
          "type": "address"
        }
      ],
      "stateMutability": "view",
      "type": "function"
    },
    {
      "stateMutability": "payable",
      "type": "receive"
    },
    {
      "inputs": [
        {
          "internalType": "uint256",
          "name": "amount",
          "type": "uint256"
        }
      ],
      "name": "stake",
      "outputs": [],
      "stateMutability": "payable",
      "type": "function"
    },
    {
      "inputs": [],
      "name": "withdraw",
      "outputs": [],
      "stateMutability": "nonpayable",
      "type": "function"
    },
    {
      "inputs": [],
      "name": "claim",
      "outputs": [],
      "stateMutability": "nonpayable",
      "type": "function"
    },
    {
      "inputs": [
        {
          "internalType": "address",
          "name": "account",
          "type": "address"
        },
        {
          "internalType": "uint256",
          "name": "specificBlock",
          "type": "uint256"
        }
      ],
      "name": "canRewardAmount",
      "outputs": [
        {
          "internalType": "uint256",
          "name": "",
          "type": "uint256"
        }
      ],
      "stateMutability": "view",
      "type": "function"
    }
  ],
  "bytecode": "0x60806040523480156200001157600080fd5b506200002d60008051602062005ed9833981519152806200004e565b6200004860008051602062005ed983398151915233620000a0565b620001b6565b6000828152601b6020526040808220600201549051839285917fbd79b86ffe0ab8e8776151514217cd7cacd52c909f66475c3af44e129f0b00ff9190a46000918252601b602052604090912060020155565b620000ac8282620000b0565b5050565b6000828152601b60209081526040909120620000d7918390620041b36200012b821b17901c565b15620000ac57620000e76200014b565b6001600160a01b0316816001600160a01b0316837f2f8788117e7eff1d82e926ec794901d17c78024a50270940304540a733656f0d60405160405180910390a45050565b600062000142836001600160a01b0384166200014f565b90505b92915050565b3390565b60006200015d83836200019e565b620001955750815460018181018455600084815260208082209093018490558454848252828601909352604090209190915562000145565b50600062000145565b60009081526001919091016020526040902054151590565b615d1380620001c66000396000f3fe6080604052600436106102e85760003560e01c80638698903811610190578063ca15c873116100dc578063e58e274711610095578063fbfa77cf1161006f578063fbfa77cf146107f5578063fc0c546a1461080a578063fd7fa4601461081f578063ff75878814610834576102f8565b8063e58e2747146107ab578063e6a7bc87146107c0578063f2fde38b146107d5576102f8565b8063ca15c87314610701578063cc48b94714610721578063ce681ce614610736578063d547741f14610756578063dac3fc3f14610776578063e09974b914610796576102f8565b8063a217fddf11610149578063a91ee0dc11610123578063a91ee0dc14610684578063a938a605146106a4578063acc3a939146106b9578063b2d4d6a3146106ec576102f8565b8063a217fddf1461063c578063a694fc3a14610651578063a6e8670e14610664576102f8565b8063869890381461059d5780638b8292ec146105b25780638d62d949146105d25780639010d07c146105e757806391d148541461060757806392ea3b4c14610627576102f8565b8063567e98f91161024f5780636fb7f5581161020857806374da7890116101e257806374da78901461052857806375b238fc146105485780637df3f40c1461055d578063821f92671461057d576102f8565b80636fb7f558146104de57806372285326146104f3578063730464a914610508576102f8565b8063567e98f91461044857806367cf3e181461045d578063683048351461047d5780636c7ac9d8146104925780636e7cf534146104a75780636ec4be90146104c9576102f8565b806336568abe116102a157806336568abe146103a75780633ccfd60b146103c75780633cdcdbe7146103dc57806343b0934a146103fc57806348cd4cb11461041e5780634e71d92d14610433576102f8565b806305871b78146102fd578063083c6323146103285780630ac8e0f31461033d5780632002727514610352578063248a9ca3146103675780632f2ff15d14610387576102f8565b366102f8576102f63461085a565b005b600080fd5b34801561030957600080fd5b50610312610b68565b60405161031f9190614f62565b60405180910390f35b34801561033457600080fd5b50610312610b6e565b34801561034957600080fd5b50610312610b74565b34801561035e57600080fd5b50610312610b7a565b34801561037357600080fd5b50610312610382366004614c8b565b610b80565b34801561039357600080fd5b506102f66103a2366004614ca3565b610b95565b3480156103b357600080fd5b506102f66103c2366004614ca3565b610bfc565b3480156103d357600080fd5b506102f6610c5d565b3480156103e857600080fd5b506102f66103f7366004614c8b565b6113dc565b34801561040857600080fd5b5061041161159d565b60405161031f9190614e48565b34801561042a57600080fd5b506103126115ac565b34801561043f57600080fd5b506102f66115b2565b34801561045457600080fd5b50610312611890565b34801561046957600080fd5b50610312610478366004614b55565b611896565b34801561048957600080fd5b50610411611bee565b34801561049e57600080fd5b50610411611bfd565b3480156104b357600080fd5b506104bc611c0c565b60405161031f9190614f57565b3480156104d557600080fd5b50610411611c15565b3480156104ea57600080fd5b50610411611c24565b3480156104ff57600080fd5b50610312611c33565b34801561051457600080fd5b506102f6610523366004614a69565b611c39565b34801561053457600080fd5b506102f6610543366004614b80565b612073565b34801561055457600080fd5b50610312612964565b34801561056957600080fd5b506102f6610578366004614d0b565b612976565b34801561058957600080fd5b50610312610598366004614d2f565b612c98565b3480156105a957600080fd5b506103126132de565b3480156105be57600080fd5b506103126105cd366004614d77565b6132e4565b3480156105de57600080fd5b506104116139ca565b3480156105f357600080fd5b50610411610602366004614cd2565b6139d9565b34801561061357600080fd5b506104bc610622366004614ca3565b6139f1565b34801561063357600080fd5b50610411613a09565b34801561064857600080fd5b50610312613a18565b6102f661065f366004614c8b565b61085a565b34801561067057600080fd5b506102f661067f366004614a69565b613a1d565b34801561069057600080fd5b506102f661069f366004614a69565b613ae9565b3480156106b057600080fd5b50610312613ba1565b3480156106c557600080fd5b506106d96106d4366004614a69565b613ba7565b60405161031f9796959493929190615b97565b3480156106f857600080fd5b50610312613be7565b34801561070d57600080fd5b5061031261071c366004614c8b565b613bed565b34801561072d57600080fd5b50610411613c04565b34801561074257600080fd5b506102f6610751366004614b55565b613c13565b34801561076257600080fd5b506102f6610771366004614ca3565b613fac565b34801561078257600080fd5b506106d9610791366004614a69565b614005565b3480156107a257600080fd5b5061031261404e565b3480156107b757600080fd5b50610312614054565b3480156107cc57600080fd5b5061031261405a565b3480156107e157600080fd5b506102f66107f0366004614a69565b614060565b34801561080157600080fd5b506104116140f0565b34801561081657600080fd5b506104116140ff565b34801561082b57600080fd5b5061031261410e565b34801561084057600080fd5b50610849614114565b60405161031f959493929190614ed4565b6002546001600160a01b031615801561087257508034145b8061089257506002546001600160a01b0316158015906108925750600081115b6108b75760405162461bcd60e51b81526004016108ae90614fa2565b60405180910390fd5b60045443101580156108ca575060055443105b6108e65760405162461bcd60e51b81526004016108ae90615201565b600360009054906101000a90046001600160a01b03166001600160a01b031663b8c766b86040518163ffffffff1660e01b815260040160206040518083038186803b15801561093457600080fd5b505afa158015610948573d6000803e3d6000fd5b505050506040513d601f19601f8201168201806040525081019061096c9190614c6f565b156109895760405162461bcd60e51b81526004016108ae906158fd565b6002546001600160a01b03166109a0575034610a3e565b6002546040516370a0823160e01b815282916001600160a01b0316906370a08231906109d0903390600401614e48565b60206040518083038186803b1580156109e857600080fd5b505afa1580156109fc573d6000803e3d6000fd5b505050506040513d601f19601f82011682018060405250810190610a209190614cf3565b1015610a3e5760405162461bcd60e51b81526004016108ae90615295565b3360009081526009602052604090208054610a6557600a54610a619060016141c8565b600a555b8054610a7190836141c8565b8155600854610a8090836141c8565b6008556002546001600160a01b031615610b23576002546040516323b872dd60e01b81526001600160a01b03909116906323b872dd90610ac890339030908790600401614e5c565b602060405180830381600087803b158015610ae257600080fd5b505af1158015610af6573d6000803e3d6000fd5b505050506040513d601f19601f82011682018060405250810190610b1a9190614c6f565b610b2357600080fd5b336001600160a01b03167f9e71bc8eea02a63969f509818f2dafb9254532904319f9dbda79b67bd34a5f3d83604051610b5c9190614f62565b60405180910390a25050565b60145481565b60065481565b60135481565b60045481565b6000908152601b602052604090206002015490565b6000828152601b6020526040902060020154610bb390610622614222565b610bee5760405162461bcd60e51b815260040180806020018281038252602f815260200180615c0f602f913960400191505060405180910390fd5b610bf88282614226565b5050565b610c04614222565b6001600160a01b0316816001600160a01b031614610c535760405162461bcd60e51b815260040180806020018281038252602f815260200180615caf602f913960400191505060405180910390fd5b610bf8828261428f565b6000600654118015610c70575043600654105b610c8c5760405162461bcd60e51b81526004016108ae906158fd565b600080600080600160009054906101000a90046001600160a01b03166001600160a01b031663a782ebd56040518163ffffffff1660e01b815260040160a06040518083038186803b158015610ce057600080fd5b505afa158015610cf4573d6000803e3d6000fd5b505050506040513d601f19601f82011682018060405250810190610d189190614a85565b50929650909450925090506001600160a01b03841615801590610d4357506001600160a01b03831615155b8015610d5757506001600160a01b03821615155b8015610d6b57506001600160a01b03811615155b610d875760405162461bcd60e51b81526004016108ae90615230565b6011546001600160a01b031615610ec6576011546040516367265c3b60e11b81526001600160a01b038381169263ce4cb87692610dcc92909116903090600401614eba565b60206040518083038186803b158015610de457600080fd5b505afa158015610df8573d6000803e3d6000fd5b505050506040513d601f19601f82011682018060405250810190610e1c9190614cf3565b158015610eaa5750601154604051632638fdf560e01b81526001600160a01b0384811692632638fdf592610e5892909116903090600401614eba565b60206040518083038186803b158015610e7057600080fd5b505afa158015610e84573d6000803e3d6000fd5b505050506040513d601f19601f82011682018060405250810190610ea89190614cf3565b155b610ec65760405162461bcd60e51b81526004016108ae90615450565b336000908152600960205260409020600681015460ff1615610efa5760405162461bcd60e51b81526004016108ae90615001565b601a5460ff166110e957601a805460ff191660011790556002546001600160a01b0390811690861614156110e9576000546040516370a0823160e01b81526001600160a01b03909116906370a0823190610f58903090600401614e48565b60206040518083038186803b158015610f7057600080fd5b505afa158015610f84573d6000803e3d6000fd5b505050506040513d601f19601f82011682018060405250810190610fa89190614cf3565b6015556040516370a0823160e01b81526001600160a01b038516906370a0823190610fd7903090600401614e48565b60206040518083038186803b158015610fef57600080fd5b505afa158015611003573d6000803e3d6000fd5b505050506040513d601f19601f820116820180604052508101906110279190614cf3565b6017556040516370a0823160e01b81526001600160a01b038616906370a0823190611056903090600401614e48565b60206040518083038186803b15801561106e57600080fd5b505afa158015611082573d6000803e3d6000fd5b505050506040513d601f19601f820116820180604052508101906110a69190614cf3565b601681905560085460175490916110cb916110c590633b9aca006142f8565b906141c8565b10156110e95760405162461bcd60e51b81526004016108ae90615492565b8054806111085760405162461bcd60e51b81526004016108ae9061566c565b43600383015560068201805460ff191660011790556002546001600160a01b0390811690871614156111f95760008060008060165411156111675761116460085461115e8660165461433a90919063ffffffff16565b906142f8565b92505b6017541561118d5761118a60085461115e8660175461433a90919063ffffffff16565b91505b601554156111b3576111b060085461115e8660155461433a90919063ffffffff16565b90505b6005850181905581156111dc576111d2836110c584633b9aca006142f8565b60048601556111e4565b600485018390555b6111f18989858585614393565b505050611392565b6002546001600160a01b03166112c75781546004830154111561122e5760405162461bcd60e51b81526004016108ae9061566c565b6004820181905530803182111561124457600080fd5b6000336001600160a01b03168360405161125d90614e45565b60006040518083038185875af1925050503d806000811461129a576040519150601f19603f3d011682016040523d82523d6000602084013e61129f565b606091505b50509050806112c05760405162461bcd60e51b81526004016108ae90615578565b5050611392565b8154600483015411156112ec5760405162461bcd60e51b81526004016108ae9061566c565b600480830182905560025460405163a9059cbb60e01b81526001600160a01b039091169163a9059cbb91611324913391869101614e80565b602060405180830381600087803b15801561133e57600080fd5b505af1158015611352573d6000803e3d6000fd5b505050506040513d601f19601f820116820180604052508101906113769190614c6f565b6113925760405162461bcd60e51b81526004016108ae9061514a565b6004820154600583015460405133927fdf273cb619d95419a9cd0ec88123a0538c85064229baa6363788f743fff90deb926113cc92615b19565b60405180910390a2505050505050565b600080600160009054906101000a90046001600160a01b03166001600160a01b031663504563c06040518163ffffffff1660e01b815260040160a06040518083038186803b15801561142d57600080fd5b505afa158015611441573d6000803e3d6000fd5b505050506040513d601f19601f820116820180604052508101906114659190614af9565b5092945090925050506001600160a01b038216156115035760025460405163095ea7b360e01b81526001600160a01b039091169063095ea7b3906114af9085908790600401614e80565b602060405180830381600087803b1580156114c957600080fd5b505af11580156114dd573d6000803e3d6000fd5b505050506040513d601f19601f820116820180604052508101906115019190614c6f565b505b6001600160a01b038116156115985760025460405163095ea7b360e01b81526001600160a01b039091169063095ea7b3906115449084908790600401614e80565b602060405180830381600087803b15801561155e57600080fd5b505af1158015611572573d6000803e3d6000fd5b505050506040513d601f19601f820116820180604052508101906115969190614c6f565b505b505050565b6002546001600160a01b031681565b60055481565b600b54156115d25760405162461bcd60e51b81526004016108ae906153eb565b6001600b5560035460408051631718ecd760e31b815290516001600160a01b039092169163b8c766b891600480820192602092909190829003018186803b15801561161c57600080fd5b505afa158015611630573d6000803e3d6000fd5b505050506040513d601f19601f820116820180604052508101906116549190614c6f565b15156001146116755760405162461bcd60e51b81526004016108ae90615267565b3360009081526009602052604081206006546001820154106116a95760405162461bcd60e51b81526004016108ae9061554d565b6116b33343611896565b9150600082116116d55760405162461bcd60e51b81526004016108ae9061506f565b60035460405163032f7adb60e61b81526000916001600160a01b03169063cbdeb6c090611706903090600401614e48565b60206040518083038186803b15801561171e57600080fd5b505afa158015611732573d6000803e3d6000fd5b505050506040513d601f19601f820116820180604052508101906117569190614cf3565b90508061176e846007546141c890919063ffffffff16565b111561178c5760405162461bcd60e51b81526004016108ae90615a21565b43600183015560028201546117a190846141c8565b60028301556007546117b390846141c8565b600755600354604051635569f64b60e11b81526001600160a01b039091169063aad3ec96906117e89033908790600401614e80565b602060405180830381600087803b15801561180257600080fd5b505af1158015611816573d6000803e3d6000fd5b505050506040513d601f19601f8201168201806040525081019061183a9190614c6f565b61184357600080fd5b336001600160a01b03167f987d620f307ff6b94d58743cb7a7509f24071586a77759b77c2d4e29f75a2f9a844360405161187e929190615b19565b60405180910390a250506000600b5550565b60085481565b60065460009081908311156118ab5760065492505b6005548310806118d157506001600160a01b038416600090815260096020526040902054155b806118f857506006546001600160a01b038516600090815260096020526040902060010154115b8061191d57506001600160a01b03841660009081526009602052604090206001015483105b1561192a57506000611be5565b6005546006546001600160a01b038616600090815260096020526040902060010154821015611972576001600160a01b03861660009081526009602052604090206001015491505b8085101561197d5750835b6003546040805163c1b422fd60e01b815290516000926001600160a01b03169163c1b422fd9160048083019286929190829003018186803b1580156119c157600080fd5b505afa1580156119d5573d6000803e3d6000fd5b505050506040513d6000823e601f3d908101601f191682016040526119fd9190810190614bc1565b805190915015611be1576003546040805163d105bf8560e01b815290516000928692849283926001600160a01b03169163d105bf85916004808301926020929190829003018186803b158015611a5257600080fd5b505afa158015611a66573d6000803e3d6000fd5b505050506040513d601f19601f82011682018060405250810190611a8a9190614cf3565b6001600160a01b038c166000908152600960205260408120549192508c91905b8751811015611bd957878181518110611abf57fe5b6020908102919091010151600354604051632f8deb1560e11b81529198506001600160a01b031690635f1bd62a90611afb908a90600401614f62565b60206040518083038186803b158015611b1357600080fd5b505afa158015611b27573d6000803e3d6000fd5b505050506040513d601f19601f82011682018060405250810190611b4b9190614cf3565b945086861115611b5a57611bd1565b868911611ba0578415611b9b576000611b738a8c61475a565b9050611b97611b908761115e86611b8a8a8761433a565b9061433a565b8d906141c8565b9b50505b611bd9565b8415611bcd576000611bb2888c61475a565b9050611bc9611b908761115e86611b8a8a8761433a565b9b50505b8699505b600101611aaa565b505050505050505b5050505b90505b92915050565b6001546001600160a01b031681565b600f546001600160a01b031681565b601a5460ff1681565b6010546001600160a01b031681565b600e546001600160a01b031681565b60185481565b600b5415611c595760405162461bcd60e51b81526004016108ae906153eb565b6001600b819055546001600160a01b031680611c875760405162461bcd60e51b81526004016108ae90614f6b565b60115482906001600160a01b03808316911614611cb65760405162461bcd60e51b81526004016108ae906155e6565b60056018541415611cd95760405162461bcd60e51b81526004016108ae9061578e565b600360009054906101000a90046001600160a01b03166001600160a01b031663b8c766b86040518163ffffffff1660e01b815260040160206040518083038186803b158015611d2757600080fd5b505afa158015611d3b573d6000803e3d6000fd5b505050506040513d601f19601f82011682018060405250810190611d5f9190614c6f565b1515600114611d805760405162461bcd60e51b81526004016108ae90615419565b6005601855601980546000918290556001546040805163a782ebd560e01b815290519293928392839283926001600160a01b039092169163a782ebd59160048082019260a092909190829003018186803b158015611ddd57600080fd5b505afa158015611df1573d6000803e3d6000fd5b505050506040513d601f19601f82011682018060405250810190611e159190614a85565b50929650909450925090506001600160a01b03841615801590611e4057506001600160a01b03831615155b8015611e5457506001600160a01b03821615155b8015611e6857506001600160a01b03811615155b611e845760405162461bcd60e51b81526004016108ae9061550a565b6011546040516367265c3b60e11b81526001600160a01b038381169263ce4cb87692611eb892909116903090600401614eba565b60206040518083038186803b158015611ed057600080fd5b505afa158015611ee4573d6000803e3d6000fd5b505050506040513d601f19601f82011682018060405250810190611f089190614cf3565b611f1d57601180546001600160a01b03191690555b604051632638fdf560e01b81526001600160a01b03831690632638fdf590611f4b908b903090600401614eba565b60206040518083038186803b158015611f6357600080fd5b505afa158015611f77573d6000803e3d6000fd5b505050506040513d601f19601f82011682018060405250810190611f9b9190614cf3565b60138054909101905560405163fb0713b160e01b81526001600160a01b0383169063fb0713b190611fd5908b908990600190600401614f04565b602060405180830381600087803b158015611fef57600080fd5b505af1158015612003573d6000803e3d6000fd5b505050506040513d601f19601f820116820180604052508101906120279190614c6f565b507fd07c1a80bfc96d3611f58fc19165b875cdbc1bdc53d8189e649a74930d9e3d808886600160405161205c93929190614f04565b60405180910390a150506000600b55505050505050565b600b54156120935760405162461bcd60e51b81526004016108ae906153eb565b6001600b819055546001600160a01b0316806120c15760405162461bcd60e51b81526004016108ae90614f6b565b836001600160a01b0381166120e85760405162461bcd60e51b81526004016108ae90614f6b565b60065443111561210a5760405162461bcd60e51b81526004016108ae90615181565b6000841161212a5760405162461bcd60e51b81526004016108ae90615879565b600360009054906101000a90046001600160a01b03166001600160a01b031663b8c766b86040518163ffffffff1660e01b815260040160206040518083038186803b15801561217857600080fd5b505afa15801561218c573d6000803e3d6000fd5b505050506040513d601f19601f820116820180604052508101906121b09190614c6f565b15156001146121d15760405162461bcd60e51b81526004016108ae90615419565b6002601855600c546001600160a01b03166122d7576000806000806000600160009054906101000a90046001600160a01b03166001600160a01b031663a782ebd56040518163ffffffff1660e01b815260040160a06040518083038186803b15801561223c57600080fd5b505afa158015612250573d6000803e3d6000fd5b505050506040513d601f19601f820116820180604052508101906122749190614a85565b600c80546001600160a01b03199081166001600160a01b0397881617909155600d8054821695871695909517909455600f8054851693861693909317909255600e8054841691851691909117905560108054909216921691909117905550505050505b600c546001600160a01b0316158015906122fb5750600d546001600160a01b031615155b80156123115750600f546001600160a01b031615155b80156123275750600e546001600160a01b031615155b6123435760405162461bcd60e51b81526004016108ae9061550a565b600f5460408051633761ead760e11b815290516000926001600160a01b031691636ec3d5ae916004808301926020929190829003018186803b15801561238857600080fd5b505afa15801561239c573d6000803e3d6000fd5b505050506040513d601f19601f820116820180604052508101906123c09190614cf3565b9050806006540343106123e55760405162461bcd60e51b81526004016108ae906151b8565b6011546001600160a01b031661241557601180546001600160a01b0319166001600160a01b03881617905561259a565b600e546011546040516367265c3b60e11b81526000926001600160a01b039081169263ce4cb8769261244f92909116903090600401614eba565b60206040518083038186803b15801561246757600080fd5b505afa15801561247b573d6000803e3d6000fd5b505050506040513d601f19601f8201168201806040525081019061249f9190614cf3565b11806125325750600f54601154604051632638fdf560e01b81526000926001600160a01b0390811692632638fdf5926124e092909116903090600401614eba565b60206040518083038186803b1580156124f857600080fd5b505afa15801561250c573d6000803e3d6000fd5b505050506040513d601f19601f820116820180604052508101906125309190614cf3565b115b15612569576011546001600160a01b038781169116146125645760405162461bcd60e51b81526004016108ae906155e6565b61259a565b6011546001600160a01b0387811691161461259a57601180546001600160a01b0319166001600160a01b0388161790555b6000841561273357600c546040516370a0823160e01b81526001600160a01b03909116906370a08231906125d2903090600401614e48565b60206040518083038186803b1580156125ea57600080fd5b505afa1580156125fe573d6000803e3d6000fd5b505050506040513d601f19601f820116820180604052508101906126229190614cf3565b9050858110156126445760405162461bcd60e51b81526004016108ae90615928565b60125461265190876141c8565b601255600f54604051600091612677916001600160a01b03909116908a90602001614eba565b60408051601f1981840301815290829052600c54600d5463cae9ca5160e01b84529193506001600160a01b039081169263cae9ca51926126bf9216908b908690600401614f27565b602060405180830381600087803b1580156126d957600080fd5b505af11580156126ed573d6000803e3d6000fd5b505050506040513d601f19601f820116820180604052508101906127119190614c6f565b61272d5760405162461bcd60e51b81526004016108ae906154c9565b5061291b565b600d546040516370a0823160e01b81526001600160a01b03909116906370a0823190612763903090600401614e48565b60206040518083038186803b15801561277b57600080fd5b505afa15801561278f573d6000803e3d6000fd5b505050506040513d601f19601f820116820180604052508101906127b39190614cf3565b9050858110156127d55760405162461bcd60e51b81526004016108ae906158ba565b6127ef6127e687633b9aca006142f8565b601254906141c8565b601255600d54600f5460405163095ea7b360e01b81526001600160a01b039283169263095ea7b392612828929116908a90600401614e80565b602060405180830381600087803b15801561284257600080fd5b505af1158015612856573d6000803e3d6000fd5b505050506040513d601f19601f8201168201806040525081019061287a9190614c6f565b50600f546040516311f9fbc960e21b81526001600160a01b03909116906347e7ef24906128ad908a908a90600401614e80565b602060405180830381600087803b1580156128c757600080fd5b505af11580156128db573d6000803e3d6000fd5b505050506040513d601f19601f820116820180604052508101906128ff9190614c6f565b61291b5760405162461bcd60e51b81526004016108ae90615710565b7fdcf59b1ac32b9687e53bf488afd54ed8bde848663ee0f4f03bee2ad594617ccf87878760405161294e93929190614f04565b60405180910390a150506000600b555050505050565b600080516020615c8f83398151915281565b600b54156129965760405162461bcd60e51b81526004016108ae906153eb565b6001600b556010546001600160a01b0316806129c45760405162461bcd60e51b81526004016108ae90614f6b565b60008215612b4d57600c546040516370a0823160e01b81526001600160a01b03909116906370a08231906129fc903090600401614e48565b60206040518083038186803b158015612a1457600080fd5b505afa158015612a28573d6000803e3d6000fd5b505050506040513d601f19601f82011682018060405250810190612a4c9190614cf3565b905083811015612a6e5760405162461bcd60e51b81526004016108ae906152fa565b601054604051600091612a91916001600160a01b03909116908190602001614eba565b60408051601f1981840301815290829052600c54600d5463cae9ca5160e01b84529193506001600160a01b039081169263cae9ca5192612ad992169089908690600401614f27565b602060405180830381600087803b158015612af357600080fd5b505af1158015612b07573d6000803e3d6000fd5b505050506040513d601f19601f82011682018060405250810190612b2b9190614c6f565b612b475760405162461bcd60e51b81526004016108ae9061561d565b50612c8d565b600d546040516370a0823160e01b81526001600160a01b03909116906370a0823190612b7d903090600401614e48565b60206040518083038186803b158015612b9557600080fd5b505afa158015612ba9573d6000803e3d6000fd5b505050506040513d601f19601f82011682018060405250810190612bcd9190614cf3565b905083811015612bef5760405162461bcd60e51b81526004016108ae9061538e565b600d5460405163f53fe70f60e01b81526001600160a01b039091169063f53fe70f90612c1f908790600401614f62565b602060405180830381600087803b158015612c3957600080fd5b505af1158015612c4d573d6000803e3d6000fd5b505050506040513d601f19601f82011682018060405250810190612c719190614c6f565b612c8d5760405162461bcd60e51b81526004016108ae906157d4565b50506000600b555050565b6000600654431115612cbc5760405162461bcd60e51b81526004016108ae90615181565b600360009054906101000a90046001600160a01b03166001600160a01b031663b8c766b86040518163ffffffff1660e01b815260040160206040518083038186803b158015612d0a57600080fd5b505afa158015612d1e573d6000803e3d6000fd5b505050506040513d601f19601f82011682018060405250810190612d429190614c6f565b1515600114612d635760405162461bcd60e51b81526004016108ae90615419565b60028210612d835760405162461bcd60e51b81526004016108ae906156e1565b600c546001600160a01b031615801590612da75750600d546001600160a01b031615155b8015612dbd5750600e546001600160a01b031615155b612dd95760405162461bcd60e51b81526004016108ae9061580b565b600d546040516370a0823160e01b81526000916001600160a01b0316906370a0823190612e0a903090600401614e48565b60206040518083038186803b158015612e2257600080fd5b505afa158015612e36573d6000803e3d6000fd5b505050506040513d601f19601f82011682018060405250810190612e5a9190614cf3565b6011549091506000906001600160a01b031615612efa57600e546011546040516367265c3b60e11b81526001600160a01b039283169263ce4cb87692612ea7929116903090600401614eba565b60206040518083038186803b158015612ebf57600080fd5b505afa158015612ed3573d6000803e3d6000fd5b505050506040513d601f19601f82011682018060405250810190612ef79190614cf3565b90505b818115612f0e57612f0b82846141c8565b90505b600854612f1f90633b9aca0061433a565b81118015612f4f575088612f4c612f45633b9aca0060085461433a90919063ffffffff16565b839061475a565b10155b612f6b5760405162461bcd60e51b81526004016108ae906155af565b505060148054880190555060015460408051630141158f60e61b81529051600092839283926001600160a01b039092169163504563c09160048082019260a092909190829003018186803b158015612fc257600080fd5b505afa158015612fd6573d6000803e3d6000fd5b505050506040513d601f19601f82011682018060405250810190612ffa9190614af9565b509295509350909150506001600160a01b03831661302a5760405162461bcd60e51b81526004016108ae90614fca565b600d5460405163095ea7b360e01b81526001600160a01b039091169063095ea7b39061305c9086908d90600401614e80565b602060405180830381600087803b15801561307657600080fd5b505af115801561308a573d6000803e3d6000fd5b505050506040513d601f19601f820116820180604052508101906130ae9190614c6f565b6130ca5760405162461bcd60e51b81526004016108ae906159d8565b846131a0576040805161010081018252600d546001600160a01b0390811682526000548116602083015262ffffff841682840152306060830152608082018a905260a082018c905260c082018b905288811660e0830152915163414bf38960e01b8152909185169063414bf38990613146908490600401615ab0565b602060405180830381600087803b15801561316057600080fd5b505af1158015613174573d6000803e3d6000fd5b505050506040513d601f19601f820116820180604052508101906131989190614cf3565b945050613297565b8460011415613297576040805160a08101909152600d546000805490929182916131e0916001600160a01b03908116918791899183911660c08701614df3565b6040516020818303038152906040528152602001306001600160a01b031681526020018981526020018b81526020018a8152509050836001600160a01b031663c04b8d59826040518263ffffffff1660e01b81526004016132419190615a58565b602060405180830381600087803b15801561325b57600080fd5b505af115801561326f573d6000803e3d6000fd5b505050506040513d601f19601f820116820180604052508101906132939190614cf3565b9450505b7f74842f5cb50433259975dc03edd7aa489cadd26488ed7706ab593b9eb3d59101338a866040516132ca93929190614e99565b60405180910390a150505095945050505050565b600a5481565b60006006544311156133085760405162461bcd60e51b81526004016108ae90615181565b600360009054906101000a90046001600160a01b03166001600160a01b031663b8c766b86040518163ffffffff1660e01b815260040160206040518083038186803b15801561335657600080fd5b505afa15801561336a573d6000803e3d6000fd5b505050506040513d601f19601f8201168201806040525081019061338e9190614c6f565b15156001146133af5760405162461bcd60e51b81526004016108ae90615419565b600282106133cf5760405162461bcd60e51b81526004016108ae90615747565b600c546001600160a01b0316158015906133f35750600d546001600160a01b031615155b80156134095750600e546001600160a01b031615155b6134255760405162461bcd60e51b81526004016108ae9061580b565b600d546040516370a0823160e01b81526000916001600160a01b0316906370a0823190613456903090600401614e48565b60206040518083038186803b15801561346e57600080fd5b505afa158015613482573d6000803e3d6000fd5b505050506040513d601f19601f820116820180604052508101906134a69190614cf3565b6011549091506000906001600160a01b03161561354657600e546011546040516367265c3b60e11b81526001600160a01b039283169263ce4cb876926134f3929116903090600401614eba565b60206040518083038186803b15801561350b57600080fd5b505afa15801561351f573d6000803e3d6000fd5b505050506040513d601f19601f820116820180604052508101906135439190614cf3565b90505b81811561355a5761355782846141c8565b90505b60085461356b90633b9aca0061433a565b81118015613594575087613591612f45633b9aca0060085461433a90919063ffffffff16565b10155b6135b05760405162461bcd60e51b81526004016108ae906155af565b505060148054870190555060015460408051630141158f60e61b8152905160009283926001600160a01b039091169163504563c09160048082019260a092909190829003018186803b15801561360557600080fd5b505afa158015613619573d6000803e3d6000fd5b505050506040513d601f19601f8201168201806040525081019061363d9190614af9565b9195509093505050506001600160a01b03811661366c5760405162461bcd60e51b81526004016108ae90615768565b600d5460405163095ea7b360e01b81526001600160a01b039091169063095ea7b39061369e9084908b90600401614e80565b602060405180830381600087803b1580156136b857600080fd5b505af11580156136cc573d6000803e3d6000fd5b505050506040513d601f19601f820116820180604052508101906136f09190614c6f565b61370c5760405162461bcd60e51b81526004016108ae906159d8565b83613835576040805160028082526060820183526000926020830190803683375050600d5482519293506001600160a01b03169183915060009061374c57fe5b6001600160a01b03928316602091820292909201015260005482519116908290600190811061377757fe5b6001600160a01b0392831660209182029290920101526040516338ed173960e01b81526000918416906338ed1739906137bc908c908c90879030908e90600401615b27565b600060405180830381600087803b1580156137d657600080fd5b505af11580156137ea573d6000803e3d6000fd5b505050506040513d6000823e601f3d908101601f191682016040526138129190810190614bc1565b90508060018251038151811061382457fe5b602002602001015194505050613985565b60408051600380825260808201909252600091602082016060803683375050600d5482519293506001600160a01b03169183915060009061387257fe5b60200260200101906001600160a01b031690816001600160a01b03168152505082816001815181106138a057fe5b6001600160a01b0392831660209182029290920101526000548251911690829060029081106138cb57fe5b6001600160a01b0392831660209182029290920101526040516338ed173960e01b81526000918416906338ed173990613910908c908c90879030908e90600401615b27565b600060405180830381600087803b15801561392a57600080fd5b505af115801561393e573d6000803e3d6000fd5b505050506040513d6000823e601f3d908101601f191682016040526139669190810190614bc1565b90508060018251038151811061397857fe5b6020026020010151945050505b7f74842f5cb50433259975dc03edd7aa489cadd26488ed7706ab593b9eb3d591013388856040516139b893929190614e99565b60405180910390a15050949350505050565b600d546001600160a01b031681565b6000828152601b60205260408120611be5908361479c565b6000828152601b60205260408120611be590836147a8565b6011546001600160a01b031681565b600081565b613a35600080516020615c8f833981519152336139f1565b613a515760405162461bcd60e51b81526004016108ae9061569c565b6001600160a01b03811615801590613a7757506011546001600160a01b03828116911614155b613a935760405162461bcd60e51b81526004016108ae90615109565b601180546001600160a01b0319166001600160a01b0383161790556040517fbcf2b04f5517cca822ae60e21bb6e3889b8d8307ea062c5266c63a014386c99090613ade908390614e48565b60405180910390a150565b613b01600080516020615c8f833981519152336139f1565b613b1d5760405162461bcd60e51b81526004016108ae9061569c565b806001600160a01b038116613b445760405162461bcd60e51b81526004016108ae90614f6b565b600180546001600160a01b0319166001600160a01b0384811691909117918290556040517f278c70ced5f3e0e5eeb385b5ff9cb735748ba00a625147e66065ed48fc1562cd92613b95921690614e48565b60405180910390a15050565b60155481565b6009602052600090815260409020805460018201546002830154600384015460048501546005860154600690960154949593949293919290919060ff1687565b60075481565b6000818152601b60205260408120611be8906147bd565b600c546001600160a01b031681565b600b5415613c335760405162461bcd60e51b81526004016108ae906153eb565b6001600b819055546001600160a01b031680613c615760405162461bcd60e51b81526004016108ae90614f6b565b60115483906001600160a01b03808316911614613c905760405162461bcd60e51b81526004016108ae906155e6565b600360009054906101000a90046001600160a01b03166001600160a01b031663b8c766b86040518163ffffffff1660e01b815260040160206040518083038186803b158015613cde57600080fd5b505afa158015613cf2573d6000803e3d6000fd5b505050506040513d601f19601f82011682018060405250810190613d169190614c6f565b1515600114613d375760405162461bcd60e51b81526004016108ae90615419565b6003601855601954613d4a9060016141c8565b6019556001546040805163a782ebd560e01b815290516000928392839283926001600160a01b03169163a782ebd59160048083019260a0929190829003018186803b158015613d9857600080fd5b505afa158015613dac573d6000803e3d6000fd5b505050506040513d601f19601f82011682018060405250810190613dd09190614a85565b50929650909450925090506001600160a01b03841615801590613dfb57506001600160a01b03831615155b8015613e0f57506001600160a01b03821615155b8015613e2357506001600160a01b03811615155b613e3f5760405162461bcd60e51b81526004016108ae9061550a565b6040516367265c3b60e11b81526000906001600160a01b0383169063ce4cb87690613e70908c903090600401614eba565b60206040518083038186803b158015613e8857600080fd5b505afa158015613e9c573d6000803e3d6000fd5b505050506040513d601f19601f82011682018060405250810190613ec09190614cf3565b905087811015613ee25760405162461bcd60e51b81526004016108ae906150dd565b60405163da95ebf760e01b81526001600160a01b0384169063da95ebf790613f10908c908c90600401614e80565b602060405180830381600087803b158015613f2a57600080fd5b505af1158015613f3e573d6000803e3d6000fd5b505050506040513d601f19601f82011682018060405250810190613f629190614c6f565b507f1ac2a17d8d7ec451060cfbcbb66b61b7fd5fe7f887d9423102809f74bd207e828989604051613f94929190614e80565b60405180910390a150506000600b5550505050505050565b6000828152601b6020526040902060020154613fca90610622614222565b610c535760405162461bcd60e51b8152600401808060200182810382526030815260200180615c3e6030913960400191505060405180910390fd5b6001600160a01b03166000908152600960205260409020805460018201546002830154600384015460048501546005860154600690960154949693959294919390929160ff1690565b60195481565b60165481565b60175481565b614078600080516020615c8f833981519152336139f1565b6140945760405162461bcd60e51b81526004016108ae9061569c565b336001600160a01b03821614156140bd5760405162461bcd60e51b81526004016108ae90615038565b6140d5600080516020615c8f83398151915282610b95565b6140ed600080516020615c8f83398151915233613fac565b50565b6003546001600160a01b031681565b6000546001600160a01b031681565b60125481565b6000806000806000600160009054906101000a90046001600160a01b03166001600160a01b031663504563c06040518163ffffffff1660e01b815260040160a06040518083038186803b15801561416a57600080fd5b505afa15801561417e573d6000803e3d6000fd5b505050506040513d601f19601f820116820180604052508101906141a29190614af9565b945094509450945094509091929394565b6000611be5836001600160a01b0384166147c8565b600082820183811015611be5576040805162461bcd60e51b815260206004820152601b60248201527f536166654d6174683a206164646974696f6e206f766572666c6f770000000000604482015290519081900360640190fd5b3390565b6000828152601b6020526040902061423e90826141b3565b15610bf85761424b614222565b6001600160a01b0316816001600160a01b0316837f2f8788117e7eff1d82e926ec794901d17c78024a50270940304540a733656f0d60405160405180910390a45050565b6000828152601b602052604090206142a79082614812565b15610bf8576142b4614222565b6001600160a01b0316816001600160a01b0316837ff6391f5c32d9c69d2a47ea670b442974b53935d1edc7fd64eb21e047a839171b60405160405180910390a45050565b6000611be583836040518060400160405280601a81526020017f536166654d6174683a206469766973696f6e206279207a65726f000000000000815250614827565b60008261434957506000611be8565b8282028284828161435657fe5b0414611be55760405162461bcd60e51b8152600401808060200182810382526021815260200180615c6e6021913960400191505060405180910390fd5b82156144d1576040516370a0823160e01b815283906001600160a01b038716906370a08231906143c7903090600401614e48565b60206040518083038186803b1580156143df57600080fd5b505afa1580156143f3573d6000803e3d6000fd5b505050506040513d601f19601f820116820180604052508101906144179190614cf3565b10156144355760405162461bcd60e51b81526004016108ae906159a1565b60405163a9059cbb60e01b81526001600160a01b0386169063a9059cbb906144639033908790600401614e80565b602060405180830381600087803b15801561447d57600080fd5b505af1158015614491573d6000803e3d6000fd5b505050506040513d601f19601f820116820180604052508101906144b59190614c6f565b6144d15760405162461bcd60e51b81526004016108ae906152c3565b811561460f576040516370a0823160e01b815282906001600160a01b038616906370a0823190614505903090600401614e48565b60206040518083038186803b15801561451d57600080fd5b505afa158015614531573d6000803e3d6000fd5b505050506040513d601f19601f820116820180604052508101906145559190614cf3565b10156145735760405162461bcd60e51b81526004016108ae9061596a565b60405163e3b99e8560e01b81526001600160a01b0385169063e3b99e85906145a19033908690600401614e80565b602060405180830381600087803b1580156145bb57600080fd5b505af11580156145cf573d6000803e3d6000fd5b505050506040513d601f19601f820116820180604052508101906145f39190614c6f565b61460f5760405162461bcd60e51b81526004016108ae90615357565b8015614753576000546040516370a0823160e01b815282916001600160a01b0316906370a0823190614645903090600401614e48565b60206040518083038186803b15801561465d57600080fd5b505afa158015614671573d6000803e3d6000fd5b505050506040513d601f19601f820116820180604052508101906146959190614cf3565b10156146b35760405162461bcd60e51b81526004016108ae906150a6565b60005460405163a9059cbb60e01b81526001600160a01b039091169063a9059cbb906146e59033908590600401614e80565b602060405180830381600087803b1580156146ff57600080fd5b505af1158015614713573d6000803e3d6000fd5b505050506040513d601f19601f820116820180604052508101906147379190614c6f565b6147535760405162461bcd60e51b81526004016108ae90615842565b5050505050565b6000611be583836040518060400160405280601e81526020017f536166654d6174683a207375627472616374696f6e206f766572666c6f7700008152506148c9565b6000611be58383614923565b6000611be5836001600160a01b038416614987565b6000611be88261499f565b60006147d48383614987565b61480a57508154600181810184556000848152602080822090930184905584548482528286019093526040902091909155611be8565b506000611be8565b6000611be5836001600160a01b0384166149a3565b600081836148b35760405162461bcd60e51b81526004018080602001828103825283818151815260200191508051906020019080838360005b83811015614878578181015183820152602001614860565b50505050905090810190601f1680156148a55780820380516001836020036101000a031916815260200191505b509250505060405180910390fd5b5060008385816148bf57fe5b0495945050505050565b6000818484111561491b5760405162461bcd60e51b8152602060048201818152835160248401528351909283926044909101919085019080838360008315614878578181015183820152602001614860565b505050900390565b815460009082106149655760405162461bcd60e51b8152600401808060200182810382526022815260200180615bed6022913960400191505060405180910390fd5b82600001828154811061497457fe5b9060005260206000200154905092915050565b60009081526001919091016020526040902054151590565b5490565b60008181526001830160205260408120548015614a5f57835460001980830191908101906000908790839081106149d657fe5b90600052602060002001549050808760000184815481106149f357fe5b600091825260208083209091019290925582815260018981019092526040902090840190558654879080614a2357fe5b60019003818190600052602060002001600090559055866001016000878152602001908152602001600020600090556001945050505050611be8565b6000915050611be8565b600060208284031215614a7a578081fd5b8135611be581615bc9565b600080600080600060a08688031215614a9c578081fd5b8551614aa781615bc9565b6020870151909550614ab881615bc9565b6040870151909450614ac981615bc9565b6060870151909350614ada81615bc9565b6080870151909250614aeb81615bc9565b809150509295509295909350565b600080600080600060a08688031215614b10578081fd5b8551614b1b81615bc9565b6020870151909550614b2c81615bc9565b6040870151909450614b3d81615bc9565b606087015160808801519194509250614aeb81615bc9565b60008060408385031215614b67578182fd5b8235614b7281615bc9565b946020939093013593505050565b600080600060608486031215614b94578283fd5b8335614b9f81615bc9565b9250602084013591506040840135614bb681615bde565b809150509250925092565b60006020808385031215614bd3578182fd5b825167ffffffffffffffff80821115614bea578384fd5b818501915085601f830112614bfd578384fd5b815181811115614c0957fe5b83810260405185828201018181108582111715614c2257fe5b604052828152858101935084860182860187018a1015614c40578788fd5b8795505b83861015614c62578051855260019590950194938601938601614c44565b5098975050505050505050565b600060208284031215614c80578081fd5b8151611be581615bde565b600060208284031215614c9c578081fd5b5035919050565b60008060408385031215614cb5578182fd5b823591506020830135614cc781615bc9565b809150509250929050565b60008060408385031215614ce4578182fd5b50508035926020909101359150565b600060208284031215614d04578081fd5b5051919050565b60008060408385031215614d1d578182fd5b823591506020830135614cc781615bde565b600080600080600060a08688031215614d46578283fd5b8535945060208601359350604086013592506060860135614d6681615bc9565b949793965091946080013592915050565b60008060008060808587031215614d8c578182fd5b5050823594602084013594506040840135936060013592509050565b60008151808452815b81811015614dcd57602081850181015186830182015201614db1565b81811115614dde5782602083870101525b50601f01601f19169290920160200192915050565b6bffffffffffffffffffffffff19606096871b811682526001600160e81b031960e896871b8116601484015294871b811660178301529290941b909216602b840152921b909116602e82015260420190565b90565b6001600160a01b0391909116815260200190565b6001600160a01b039384168152919092166020820152604081019190915260600190565b6001600160a01b03929092168252602082015260400190565b6001600160a01b039390931683526020830191909152604082015260600190565b6001600160a01b0392831681529116602082015260400190565b6001600160a01b039586168152938516602085015291841660408401526060830152909116608082015260a00190565b6001600160a01b0393909316835260208301919091521515604082015260600190565b600060018060a01b038516825283602083015260606040830152614f4e6060830184614da8565b95945050505050565b901515815260200190565b90815260200190565b6020808252601b908201527f546f6b616d616b5374616b65723a207a65726f20616464726573730000000000604082015260600190565b6020808252600e908201526d5374616b65544f4e3a207a65726f60901b604082015260600190565b6020808252601a908201527f546f6b616d616b5374616b65723a756e6973776170207a65726f000000000000604082015260600190565b6020808252601a908201527f5374616b65544f4e3a20416c7265616479207769746864726177000000000000604082015260600190565b60208082526018908201527f546f6b616d616b5374616b65723a73616d65206f776e65720000000000000000604082015260600190565b60208082526018908201527f5374616b65544f4e3a20726577617264206973207a65726f0000000000000000604082015260600190565b6020808252601d908201527f5374616b65544f4e3a20666c642062616c616e6365206973206c61636b000000604082015260600190565b602080825260129082015271546f6b616d616b5374616b65723a6c61636b60701b604082015260600190565b60208082526021908201527f546f6b616d616b5374616b65723a746f6b616d616b4c6179657232207a65726f6040820152600160fd1b606082015260800190565b60208082526017908201527f5374616b65544f4e3a207472616e73666572206661696c000000000000000000604082015260600190565b60208082526018908201527f546f6b616d616b5374616b65723a706572696f6420656e640000000000000000604082015260600190565b60208082526029908201527f546f6b616d616b5374616b65723a706572696f64287769746864726177616c44604082015268195b185e4a48195b9960ba1b606082015260800190565b6020808252601590820152745374616b65544f4e3a20756e617661696c61626c6560581b604082015260600190565b6020808252601f908201527f5374616b65544f4e3a2049546f6b616d616b5265676973747279207a65726f00604082015260600190565b60208082526014908201527314dd185ad95513d38e881b9bdd0818db1bdcd95960621b604082015260600190565b60208082526014908201527314dd185ad95513d38e881a5b9cdd59999a595b9d60621b604082015260600190565b6020808252601b908201527f5374616b65544f4e3a207472616e7366657220746f6e206661696c0000000000604082015260600190565b60208082526038908201527f546f6b616d616b5374616b65723a2073776170544f4e746f57544f4e20746f6e60408201527f2062616c616e636520697320696e73756666696369656e740000000000000000606082015260800190565b6020808252601c908201527f5374616b65544f4e3a207472616e736665722077746f6e206661696c00000000604082015260600190565b60208082526039908201527f546f6b616d616b5374616b65723a2073776170544f4e746f57544f4e2077746f60408201527f6e2062616c616e636520697320696e73756666696369656e7400000000000000606082015260800190565b602080825260149082015273151bdad85b585ad4dd185ad95c8e9313d0d2d15160621b604082015260600190565b60208082526018908201527f546f6b616d616b5374616b65723a6e6f7420636c6f7365640000000000000000604082015260600190565b60208082526022908201527f5374616b65544f4e3a2072656d61696e20616d6f756e7420696e20746f6b616d604082015261616b60f01b606082015260800190565b6020808252601e908201527f5374616b65544f4e3a2066696e616c42616c616e6365206973206c61636b0000604082015260600190565b60208082526021908201527f546f6b616d616b5374616b65723a617070726f7665416e6443616c6c206661696040820152601b60fa1b606082015260800190565b60208082526023908201527f546f6b616d616b5374616b65723a49546f6b616d616b5265676973747279207a60408201526265726f60e81b606082015260800190565b60208082526011908201527014dd185ad95513d38e8818db185a5b5959607a1b604082015260600190565b6020808252601a908201527f5374616b65544f4e3a207769746864726177206661696c65642e000000000000604082015260600190565b6020808252601a908201527f546f6b616d616b5374616b65723a696e73756666696369656e74000000000000604082015260600190565b6020808252601d908201527f546f6b616d616b5374616b65723a646966666572656e74206c61796572000000604082015260600190565b6020808252602f908201527f546f6b616d616b5374616b65723a73776170544f4e746f57544f4e206170707260408201526e1bdd99505b9910d85b1b0819985a5b608a1b606082015260800190565b6020808252601690820152755374616b65544f4e3a20416d6f756e742077726f6e6760501b604082015260600190565b60208082526025908201527f546f6b616d616b5374616b65723a2043616c6c6572206973206e6f7420616e2060408201526430b236b4b760d91b606082015260800190565b602080825260159082015274151bdad85b585ad4dd185ad95c8e9b9bc81ada5b99605a1b604082015260600190565b6020808252601a908201527f546f6b616d616b5374616b65723a6465706f736974206661696c000000000000604082015260600190565b6020808252600790820152661b9bc81ada5b9960ca1b604082015260600190565b6020808252600c908201526b756e6973776170207a65726f60a01b604082015260600190565b60208082526026908201527f546f6b616d616b5374616b65723a416c72656164792050726f63657373556e5360408201526574616b696e6760d01b606082015260800190565b6020808252601c908201527f546f6b616d616b5374616b65723a73776170546f544f4e206661696c00000000604082015260600190565b6020808252601a908201527f546f6b616d616b5374616b65723a746f6b616d616b207a65726f000000000000604082015260600190565b6020808252601b908201527f5374616b65544f4e3a207472616e7366657220666c64206661696c0000000000604082015260600190565b60208082526021908201527f546f6b616d616b5374616b65723a7374616b65416d6f756e74206973207a65726040820152606f60f81b606082015260800190565b60208082526023908201527f546f6b616d616b5374616b65723a2077746f6e2062616c616e6365206973207a60408201526265726f60e81b606082015260800190565b60208082526011908201527014dd185ad95513d38e881b9bdd08195b99607a1b604082015260600190565b60208082526022908201527f546f6b616d616b5374616b65723a20746f6e2062616c616e6365206973207a65604082015261726f60f01b606082015260800190565b6020808252601e908201527f5374616b65544f4e3a2077746f6e2062616c616e6365206973206c61636b0000604082015260600190565b6020808252601d908201527f5374616b65544f4e3a20746f6e2062616c616e6365206973206c61636b000000604082015260600190565b60208082526029908201527f546f6b616d616b5374616b65723a63616e277420617070726f766520756e69736040820152683bb0b82937baba32b960b91b606082015260800190565b6020808252601e908201527f5374616b65544f4e3a20746f74616c2072657761726420657863656564730000604082015260600190565b600060208252825160a06020840152615a7460c0840182614da8565b905060018060a01b0360208501511660408401526040840151606084015260608401516080840152608084015160a08401528091505092915050565b81516001600160a01b03908116825260208084015182169083015260408084015162ffffff16908301526060808401518216908301526080808401519083015260a0838101519083015260c0808401519083015260e09283015116918101919091526101000190565b918252602082015260400190565b600060a082018783526020878185015260a0604085015281875180845260c0860191508289019350845b81811015615b765784516001600160a01b031683529383019391830191600101615b51565b50506001600160a01b03969096166060850152505050608001529392505050565b968752602087019590955260408601939093526060850191909152608084015260a0830152151560c082015260e00190565b6001600160a01b03811681146140ed57600080fd5b80151581146140ed57600080fdfe456e756d657261626c655365743a20696e646578206f7574206f6620626f756e6473416363657373436f6e74726f6c3a2073656e646572206d75737420626520616e2061646d696e20746f206772616e74416363657373436f6e74726f6c3a2073656e646572206d75737420626520616e2061646d696e20746f207265766f6b65536166654d6174683a206d756c7469706c69636174696f6e206f766572666c6f77df8b4c520ffe197c5343c6f5aec59570151ef9a492f2c624fd45ddde6135ec42416363657373436f6e74726f6c3a2063616e206f6e6c792072656e6f756e636520726f6c657320666f722073656c66a2646970667358221220df986c70199a8df4a30bdf581db6438a089c59157ed86c682ea978a52a4bbdb764736f6c63430007060033df8b4c520ffe197c5343c6f5aec59570151ef9a492f2c624fd45ddde6135ec42",
  "immutableReferences": {},
  "source": "//SPDX-License-Identifier: Unlicense\npragma solidity ^0.7.0;\npragma abicoder v2;\n\nimport \"../interfaces/IStakeTON.sol\";\nimport {IIStake1Vault} from \"../interfaces/IIStake1Vault.sol\";\nimport {IIERC20} from \"../interfaces/IIERC20.sol\";\nimport {IWTON} from \"../interfaces/IWTON.sol\";\n\nimport \"../libraries/LibTokenStake1.sol\";\nimport {SafeMath} from \"../utils/math/SafeMath.sol\";\nimport \"../connection/TokamakStaker.sol\";\nimport {\n    ERC165Checker\n} from \"@openzeppelin/contracts/introspection/ERC165Checker.sol\";\nimport {SafeERC20} from \"@openzeppelin/contracts/token/ERC20/SafeERC20.sol\";\n\n/// @title Stake Contract\n/// @notice It can be staked in Tokamak. Can be swapped using Uniswap.\n/// Stake contracts can interact with the vault to claim fld tokens\ncontract StakeTON is TokamakStaker, IStakeTON {\n    using SafeMath for uint256;\n\n    event Staked(address indexed to, uint256 amount);\n    event Claimed(address indexed to, uint256 amount, uint256 currentBlcok);\n    event Withdrawal(address indexed to, uint256 tonAmount, uint256 fldAmount);\n\n    /// @dev constructor of StakeTON\n    constructor() {\n        _setRoleAdmin(ADMIN_ROLE, ADMIN_ROLE);\n        _setupRole(ADMIN_ROLE, msg.sender);\n    }\n\n    /// @dev receive ether\n    /// @dev call stake function with msg.value\n    receive() external payable {\n        stake(msg.value);\n    }\n\n    /// @dev Initialize\n    // function initialize(\n    //     address _token,\n    //     address _paytoken,\n    //     address _vault,\n    //     uint256 _saleStartBlock,\n    //     uint256 _startBlock,\n    //     uint256 _period\n    // ) external onlyOwner {\n    //     require(\n    //         _token != address(0) &&\n    //             _vault != address(0) &&\n    //             _saleStartBlock < _startBlock, \"zero\"\n    //     );\n    //     token = _token;\n    //     paytoken = _paytoken;\n    //     vault = _vault;\n    //     saleStartBlock = _saleStartBlock;\n    //     startBlock = _startBlock;\n    //     endBlock = startBlock.add(_period);\n    // }\n\n    /// @dev Stake amount\n    /// @param amount  the amount of staked\n    function stake(uint256 amount) public payable override {\n        require(\n            (paytoken == address(0) && msg.value == amount) ||\n                (paytoken != address(0) && amount > 0),\n            \"StakeTON: zero\"\n        );\n        require(\n            block.number >= saleStartBlock && block.number < startBlock,\n            \"StakeTON: unavailable\"\n        );\n\n        require(!IIStake1Vault(vault).saleClosed(), \"StakeTON: not end\");\n\n        if (paytoken == address(0)) amount = msg.value;\n        else\n            require(\n                IIERC20(paytoken).balanceOf(msg.sender) >= amount,\n                \"StakeTON: insuffient\"\n            );\n\n        LibTokenStake1.StakedAmount storage staked = userStaked[msg.sender];\n        if (staked.amount == 0) totalStakers = totalStakers.add(1);\n        staked.amount = staked.amount.add(amount);\n        totalStakedAmount = totalStakedAmount.add(amount);\n        if (paytoken != address(0))\n            require(\n                IIERC20(paytoken).transferFrom(\n                    msg.sender,\n                    address(this),\n                    amount\n                )\n            );\n\n        emit Staked(msg.sender, amount);\n    }\n\n    /// @dev withdraw\n    function withdraw() external override {\n        require(endBlock > 0 && endBlock < block.number, \"StakeTON: not end\");\n        (\n            address ton,\n            address wton,\n            address depositManager,\n            address seigManager,\n        ) = ITokamakRegistry(stakeRegistry).getTokamak();\n        require(\n            ton != address(0) &&\n                wton != address(0) &&\n                depositManager != address(0) &&\n                seigManager != address(0),\n            \"StakeTON: ITokamakRegistry zero\"\n        );\n        if (tokamakLayer2 != address(0)) {\n            require(\n                IISeigManager(seigManager).stakeOf(\n                    tokamakLayer2,\n                    address(this)\n                ) ==\n                    0 &&\n                    IIDepositManager(depositManager).pendingUnstaked(\n                        tokamakLayer2,\n                        address(this)\n                    ) ==\n                    0,\n                \"StakeTON: remain amount in tokamak\"\n            );\n        }\n        LibTokenStake1.StakedAmount storage staked = userStaked[msg.sender];\n        require(staked.released == false, \"StakeTON: Already withdraw\");\n\n        if (withdrawFlag == false) {\n            withdrawFlag = true;\n            if (paytoken == ton) {\n                swappedAmountFLD = IIERC20(token).balanceOf(address(this));\n                finalBalanceWTON = IIERC20(wton).balanceOf(address(this));\n                finalBalanceTON = IIERC20(ton).balanceOf(address(this));\n                require(\n                    finalBalanceWTON.div(10**9).add(finalBalanceTON) >=\n                        totalStakedAmount,\n                    \"StakeTON: finalBalance is lack\"\n                );\n            }\n        }\n\n        uint256 amount = staked.amount;\n        require(amount > 0, \"StakeTON: Amount wrong\");\n        staked.releasedBlock = block.number;\n        staked.released = true;\n\n        if (paytoken == ton) {\n            uint256 tonAmount = 0;\n            uint256 wtonAmount = 0;\n            uint256 fldAmount = 0;\n            if (finalBalanceTON > 0)\n                tonAmount = finalBalanceTON.mul(amount).div(totalStakedAmount);\n            if (finalBalanceWTON > 0)\n                wtonAmount = finalBalanceWTON.mul(amount).div(\n                    totalStakedAmount\n                );\n            if (swappedAmountFLD > 0)\n                fldAmount = swappedAmountFLD.mul(amount).div(totalStakedAmount);\n\n            staked.releasedFLDAmount = fldAmount;\n            if (wtonAmount > 0)\n                staked.releasedAmount = wtonAmount.div(10**9).add(tonAmount);\n            else staked.releasedAmount = tonAmount;\n\n            tonWithdraw(ton, wton, tonAmount, wtonAmount, fldAmount);\n        } else if (paytoken == address(0)) {\n            require(\n                staked.releasedAmount <= staked.amount,\n                \"StakeTON: Amount wrong\"\n            );\n            staked.releasedAmount = amount;\n            address payable self = address(uint160(address(this)));\n            require(self.balance >= amount);\n            (bool success, ) = msg.sender.call{value: amount}(\"\");\n            require(success, \"StakeTON: withdraw failed.\");\n        } else {\n            require(\n                staked.releasedAmount <= staked.amount,\n                \"StakeTON: Amount wrong\"\n            );\n            staked.releasedAmount = amount;\n            require(\n                IIERC20(paytoken).transfer(msg.sender, amount),\n                \"StakeTON: transfer fail\"\n            );\n        }\n\n        emit Withdrawal(\n            msg.sender,\n            staked.releasedAmount,\n            staked.releasedFLDAmount\n        );\n    }\n\n    /// @dev withdraw TON\n    /// @param ton  TON address\n    /// @param wton  WTON address\n    /// @param tonAmount  the amount of TON to be withdrawn to msg.sender\n    /// @param wtonAmount  the amount of WTON to be withdrawn to msg.sender\n    /// @param fldAmount  the amount of FLD to be withdrawn to msg.sender\n    function tonWithdraw(\n        address ton,\n        address wton,\n        uint256 tonAmount,\n        uint256 wtonAmount,\n        uint256 fldAmount\n    ) internal {\n        if (tonAmount > 0) {\n            require(\n                IIERC20(ton).balanceOf(address(this)) >= tonAmount,\n                \"StakeTON: ton balance is lack\"\n            );\n\n            require(\n                IIERC20(ton).transfer(msg.sender, tonAmount),\n                \"StakeTON: transfer ton fail\"\n            );\n        }\n        if (wtonAmount > 0) {\n            require(\n                IIERC20(wton).balanceOf(address(this)) >= wtonAmount,\n                \"StakeTON: wton balance is lack\"\n            );\n            require(\n                IWTON(wton).swapToTONAndTransfer(msg.sender, wtonAmount),\n                \"StakeTON: transfer wton fail\"\n            );\n        }\n        if (fldAmount > 0) {\n            require(\n                IIERC20(token).balanceOf(address(this)) >= fldAmount,\n                \"StakeTON: fld balance is lack\"\n            );\n            require(\n                IIERC20(token).transfer(msg.sender, fldAmount),\n                \"StakeTON: transfer fld fail\"\n            );\n        }\n    }\n\n    /// @dev Claim for reward\n    function claim() external override lock {\n        require(\n            IIStake1Vault(vault).saleClosed() == true,\n            \"StakeTON: not closed\"\n        );\n        uint256 rewardClaim = 0;\n\n        LibTokenStake1.StakedAmount storage staked = userStaked[msg.sender];\n        require(staked.claimedBlock < endBlock, \"StakeTON: claimed\");\n\n        rewardClaim = canRewardAmount(msg.sender, block.number);\n\n        require(rewardClaim > 0, \"StakeTON: reward is zero\");\n\n        uint256 rewardTotal =\n            IIStake1Vault(vault).totalRewardAmount(address(this));\n        require(\n            rewardClaimedTotal.add(rewardClaim) <= rewardTotal,\n            \"StakeTON: total reward exceeds\"\n        );\n\n        staked.claimedBlock = block.number;\n        staked.claimedAmount = staked.claimedAmount.add(rewardClaim);\n        rewardClaimedTotal = rewardClaimedTotal.add(rewardClaim);\n\n        require(IIStake1Vault(vault).claim(msg.sender, rewardClaim));\n\n        emit Claimed(msg.sender, rewardClaim, block.number);\n    }\n\n    /// @dev Returns the amount that can be rewarded\n    /// @param account  the account that claimed reward\n    /// @param specificBlock the block that claimed reward\n    /// @return reward the reward amount that can be taken\n    function canRewardAmount(address account, uint256 specificBlock)\n        public\n        view\n        override\n        returns (uint256)\n    {\n        uint256 reward = 0;\n        if (specificBlock > endBlock) specificBlock = endBlock;\n\n        if (\n            specificBlock < startBlock ||\n            userStaked[account].amount == 0 ||\n            userStaked[account].claimedBlock > endBlock ||\n            userStaked[account].claimedBlock > specificBlock\n        ) {\n            reward = 0;\n        } else {\n            uint256 startR = startBlock;\n            uint256 endR = endBlock;\n            if (startR < userStaked[account].claimedBlock)\n                startR = userStaked[account].claimedBlock;\n            if (specificBlock < endR) endR = specificBlock;\n\n            uint256[] memory orderedEndBlocks =\n                IIStake1Vault(vault).orderedEndBlocksAll();\n\n            if (orderedEndBlocks.length > 0) {\n                uint256 _end = 0;\n                uint256 _start = startR;\n                uint256 _total = 0;\n                uint256 blockTotalReward = 0;\n                blockTotalReward = IIStake1Vault(vault).blockTotalReward();\n\n                address user = account;\n                uint256 amount = userStaked[user].amount;\n\n                for (uint256 i = 0; i < orderedEndBlocks.length; i++) {\n                    _end = orderedEndBlocks[i];\n                    _total = IIStake1Vault(vault).stakeEndBlockTotal(_end);\n\n                    if (_start > _end) {} else if (endR <= _end) {\n                        if (_total > 0) {\n                            uint256 _period1 = endR.sub(startR);\n                            reward = reward.add(\n                                blockTotalReward.mul(_period1).mul(amount).div(\n                                    _total\n                                )\n                            );\n                        }\n                        break;\n                    } else {\n                        if (_total > 0) {\n                            uint256 _period2 = _end.sub(startR);\n                            reward = reward.add(\n                                blockTotalReward.mul(_period2).mul(amount).div(\n                                    _total\n                                )\n                            );\n                        }\n                        startR = _end;\n                    }\n                }\n            }\n        }\n        return reward;\n    }\n    /*\n    function canRewardAmountTest(address account, uint256 specificBlock)\n        public view\n        returns (uint256, uint256, uint256, uint256)\n    {\n        uint256 reward = 0;\n        uint256 startR = 0;\n        uint256 endR = 0;\n        uint256 blockTotalReward = 0;\n        if(specificBlock > endBlock ) specificBlock = endBlock;\n\n        if (\n            specificBlock < startBlock ||\n            userStaked[account].amount == 0 ||\n            userStaked[account].claimedBlock > endBlock ||\n            userStaked[account].claimedBlock > specificBlock\n        ) {\n            reward = 0;\n        } else {\n            startR = startBlock;\n            endR = endBlock;\n            if (startR < userStaked[account].claimedBlock)\n                startR = userStaked[account].claimedBlock;\n            if (specificBlock < endR) endR = specificBlock;\n\n            uint256[] memory orderedEndBlocks =\n                IIStake1Vault(vault).orderedEndBlocksAll();\n\n            if (orderedEndBlocks.length > 0) {\n                uint256 _end = 0;\n                uint256 _start = startR;\n                uint256 _total = 0;\n                //uint256 blockTotalReward = 0;\n                blockTotalReward = IIStake1Vault(vault).blockTotalReward();\n\n                address user = account;\n                uint256 amount = userStaked[user].amount;\n\n                for (uint256 i = 0; i < orderedEndBlocks.length; i++) {\n                    _end = orderedEndBlocks[i];\n                    _total = IIStake1Vault(vault).stakeEndBlockTotal(_end);\n\n                    if (_start > _end) {\n\n                    } else if (endR <= _end) {\n                        reward +=\n                            (blockTotalReward *\n                                (endR - startR) * amount) /\n                            _total;\n                        break;\n                    } else {\n                        reward +=\n                            (blockTotalReward *\n                                (_end - startR) *\n                                amount) /\n                            _total;\n                        startR = _end;\n                    }\n                }\n            }\n        }\n        return (reward, startR, endR, blockTotalReward);\n    }\n    */\n}\n",
  "sourcePath": "/Users/zena/ico2.0/ico20-contracts/contracts/stake/StakeTON.sol",
  "compiler": {
    "name": "solc",
    "version": "0.7.6+commit.7338295f.Emscripten.clang"
  },
  "schemaVersion": "3.3.4",
  "updatedAt": "2021-06-02T10:02:34.846Z",
  "devdoc": {
    "kind": "dev",
    "methods": {
      "approveUniswapRouter(uint256)": {
        "details": "Amount approve for use with UniswapRouter",
        "params": {
          "amount": "the amount requested to aprove"
        }
      },
      "canRewardAmount(address,uint256)": {
        "details": "Returns the amount that can be rewarded",
        "params": {
          "account": "the account that claimed reward",
          "specificBlock": "the block that claimed reward"
        },
        "returns": {
          "_0": "reward the reward amount that can be taken"
        }
      },
      "claim()": {
        "details": "Claim for reward"
      },
      "constructor": {
        "details": "constructor of StakeTON"
      },
      "exchangeWTONtoFLD(uint256,uint256,uint256,uint160,uint256)": {
        "details": "exchange holded WTON to FLD using uniswap",
        "params": {
          "_amountIn": "the input amount",
          "_amountOutMinimum": "the minimun output amount",
          "_deadline": "deadline",
          "_kind": "the function type, if 0, use exactInputSingle function, else if, use exactInput function",
          "_sqrtPriceLimitX96": "sqrtPriceLimitX96"
        },
        "returns": {
          "amountOut": "the amount of exchanged out token"
        }
      },
      "exchangeWTONtoFLDv2(uint256,uint256,uint256,uint256)": {
        "details": "exchange holded WTON to FLD using uniswap-v2",
        "params": {
          "_amountIn": "the input amount",
          "_amountOutMinimum": "the minimun output amount",
          "_deadline": "deadline",
          "_kind": "the function type, if 0, use exactInputSingle function, else if, use exactInput function"
        }
      },
      "getRoleAdmin(bytes32)": {
        "details": "Returns the admin role that controls `role`. See {grantRole} and {revokeRole}. To change a role's admin, use {_setRoleAdmin}."
      },
      "getRoleMember(bytes32,uint256)": {
        "details": "Returns one of the accounts that have `role`. `index` must be a value between 0 and {getRoleMemberCount}, non-inclusive. Role bearers are not sorted in any particular way, and their ordering may change at any point. WARNING: When using {getRoleMember} and {getRoleMemberCount}, make sure you perform all queries on the same block. See the following https://forum.openzeppelin.com/t/iterating-over-elements-on-enumerableset-in-openzeppelin-contracts/2296[forum post] for more information."
      },
      "getRoleMemberCount(bytes32)": {
        "details": "Returns the number of accounts that have `role`. Can be used together with {getRoleMember} to enumerate all bearers of a role."
      },
      "getUniswapInfo()": {
        "details": "get the addresses that used in uniswap interfaces",
        "returns": {
          "ext": "the address of ext",
          "fee": "the amount of fee",
          "npm": "the address of positionManagerAddress",
          "uniswapRouter": "the address of uniswapRouter"
        }
      },
      "getUserStaked(address)": {
        "details": "user's staked information"
      },
      "grantRole(bytes32,address)": {
        "details": "Grants `role` to `account`. If `account` had not been already granted `role`, emits a {RoleGranted} event. Requirements: - the caller must have ``role``'s admin role."
      },
      "hasRole(bytes32,address)": {
        "details": "Returns `true` if `account` has been granted `role`."
      },
      "renounceRole(bytes32,address)": {
        "details": "Revokes `role` from the calling account. Roles are often managed via {grantRole} and {revokeRole}: this function's purpose is to provide a mechanism for accounts to lose their privileges if they are compromised (such as when a trusted device is misplaced). If the calling account had been granted `role`, emits a {RoleRevoked} event. Requirements: - the caller must be `account`."
      },
      "revokeRole(bytes32,address)": {
        "details": "Revokes `role` from `account`. If `account` had been granted `role`, emits a {RoleRevoked} event. Requirements: - the caller must have ``role``'s admin role."
      },
      "setRegistry(address)": {
        "details": "set registry address",
        "params": {
          "_registry": "new registry address"
        }
      },
      "setTokamakLayer2(address)": {
        "details": "set the tokamak Layer2 address",
        "params": {
          "_layer2": "new the tokamak Layer2 address"
        }
      },
      "stake(uint256)": {
        "details": "Stake amount",
        "params": {
          "amount": "the amount of staked"
        }
      },
      "tokamakProcessUnStaking(address)": {
        "details": "process unstaking in layer2 in tokamak",
        "params": {
          "_layer2": "the layer2 address in tokamak"
        }
      },
      "tokamakRequestUnStaking(address,uint256)": {
        "details": "request unstaking the wtonAmount in layer2 in tokamak",
        "params": {
          "_layer2": "the layer2 address in tokamak",
          "wtonAmount": "the amount requested to unstaking"
        }
      },
      "tokamakStaking(address,uint256,bool)": {
        "details": "staking the staked TON in layer2 in tokamak",
        "params": {
          "_layer2": "the layer2 address in tokamak",
          "isTON": "TON is true, WTON is false",
          "stakeAmount": "the amount that stake to layer2"
        }
      },
      "transferOwnership(address)": {
        "details": "transfer Ownership",
        "params": {
          "newOwner": "new owner address"
        }
      },
      "withdraw()": {
        "details": "withdraw"
      }
    },
    "title": "Stake Contract",
    "version": 1
  },
  "userdoc": {
    "kind": "user",
    "methods": {},
    "notice": "It can be staked in Tokamak. Can be swapped using Uniswap. Stake contracts can interact with the vault to claim fld tokens",
    "version": 1
  }
}