{
  "contractName": "StakeTONFactory",
  "abi": [
    {
      "inputs": [],
      "name": "ADMIN_ROLE",
      "outputs": [
        {
          "internalType": "bytes32",
          "name": "",
          "type": "bytes32"
        }
      ],
      "stateMutability": "view",
      "type": "function"
    },
    {
      "inputs": [
        {
          "internalType": "uint256",
          "name": "_pahse",
          "type": "uint256"
        },
        {
          "internalType": "address",
          "name": "_vault",
          "type": "address"
        },
        {
          "internalType": "address",
          "name": "_token",
          "type": "address"
        },
        {
          "internalType": "address",
          "name": "_paytoken",
          "type": "address"
        },
        {
          "internalType": "uint256",
          "name": "_period",
          "type": "uint256"
        },
        {
          "internalType": "address[4]",
          "name": "tokamakAddr",
          "type": "address[4]"
        },
        {
          "internalType": "address",
          "name": "owner",
          "type": "address"
        }
      ],
      "name": "deploy",
      "outputs": [
        {
          "internalType": "address",
          "name": "",
          "type": "address"
        }
      ],
      "stateMutability": "nonpayable",
      "type": "function"
    }
  ],
  "bytecode": "0x608060405234801561001057600080fd5b50615d8d806100206000396000f3fe608060405234801561001057600080fd5b50600436106100365760003560e01c8063267c1a811461003b57806375b238fc146100dc575b600080fd5b6100c0600480360361014081101561005257600080fd5b60408051608081810183528435946001600160a01b03602082013581169594820135811694606083013590911693838301359391830192916101208301919060a084019060049083908390808284376000920191909152509194505050356001600160a01b031690506100f6565b604080516001600160a01b039092168252519081900360200190f35b6100e4610650565b60408051918252519081900360200190f35b60006001600160a01b038716158015906101105750876001145b61014b5760405162461bcd60e51b8152600401808060200182810382526021815260200180615d376021913960400191505060405180910390fd5b60008790506000816001600160a01b031663200272756040518163ffffffff1660e01b815260040160206040518083038186803b15801561018b57600080fd5b505afa15801561019f573d6000803e3d6000fd5b505050506040513d60208110156101b557600080fd5b505160408051634b5e7cd560e01b815290519192506000916001600160a01b03851691634b5e7cd5916004808301926020929190829003018186803b1580156101fd57600080fd5b505afa158015610211573d6000803e3d6000fd5b505050506040513d602081101561022757600080fd5b505160408051639d84ca3560e01b815290519192506000916001600160a01b03861691639d84ca35916004808301926020929190829003018186803b15801561026f57600080fd5b505afa158015610283573d6000803e3d6000fd5b505050506040513d602081101561029957600080fd5b505190508782841080156102ad5750600083115b6102fe576040805162461bcd60e51b815260206004820152601c60248201527f5374616b65544f4e466163746f72793a207374617274206572726f7200000000604482015290519081900360640190fd5b600060405161030c90610674565b604051809103906000f080158015610328573d6000803e3d6000fd5b509050600060405161033990610681565b604051809103906000f080158015610355573d6000803e3d6000fd5b509050816001600160a01b0316633659cfe6826040518263ffffffff1660e01b815260040180826001600160a01b03168152602001915050600060405180830381600087803b1580156103a757600080fd5b505af11580156103bb573d6000803e3d6000fd5b50505050816001600160a01b031663728cdbca8e8e8a8a8a896040518763ffffffff1660e01b815260040180876001600160a01b03168152602001866001600160a01b03168152602001856001600160a01b031681526020018481526020018381526020018281526020019650505050505050600060405180830381600087803b15801561044857600080fd5b505af115801561045c573d6000803e3d6000fd5b5050506001600160a01b0383169050634b2e0ebd8b600060200201518c600160200201518d600260200201518e60036020020151896040518663ffffffff1660e01b815260040180866001600160a01b03168152602001856001600160a01b03168152602001846001600160a01b03168152602001836001600160a01b03168152602001826001600160a01b0316815260200195505050505050600060405180830381600087803b15801561051057600080fd5b505af1158015610524573d6000803e3d6000fd5b50505050816001600160a01b0316632f2ff15d7fdf8b4c520ffe197c5343c6f5aec59570151ef9a492f2c624fd45ddde6135ec428b6040518363ffffffff1660e01b815260040180838152602001826001600160a01b0316815260200192505050600060405180830381600087803b15801561059f57600080fd5b505af11580156105b3573d6000803e3d6000fd5b50506040805163d547741f60e01b81527fdf8b4c520ffe197c5343c6f5aec59570151ef9a492f2c624fd45ddde6135ec42600482015230602482015290516001600160a01b038616935063d547741f9250604480830192600092919082900301818387803b15801561062457600080fd5b505af1158015610638573d6000803e3d6000fd5b50939950505050505050505050979650505050505050565b7fdf8b4c520ffe197c5343c6f5aec59570151ef9a492f2c624fd45ddde6135ec4281565b6117168061068f83390190565b613f9280611da58339019056fe60806040523480156200001157600080fd5b50620000246301ffc9a760e01b6200008d565b62000036632139e50b60e11b6200008d565b62000051600080516020620016f68339815191528062000112565b6200006c600080516020620016f68339815191523362000164565b62000087600080516020620016f68339815191523062000164565b6200027a565b6001600160e01b03198082161415620000ed576040805162461bcd60e51b815260206004820152601c60248201527f4552433136353a20696e76616c696420696e7465726661636520696400000000604482015290519081900360640190fd5b6001600160e01b0319166000908152601460205260409020805460ff19166001179055565b600082815260136020526040808220600201549051839285917fbd79b86ffe0ab8e8776151514217cd7cacd52c909f66475c3af44e129f0b00ff9190a460009182526013602052604090912060020155565b62000170828262000174565b5050565b60008281526013602090815260409091206200019b91839062000bfa620001ef821b17901c565b156200017057620001ab6200020f565b6001600160a01b0316816001600160a01b0316837f2f8788117e7eff1d82e926ec794901d17c78024a50270940304540a733656f0d60405160405180910390a45050565b600062000206836001600160a01b03841662000213565b90505b92915050565b3390565b600062000221838362000262565b620002595750815460018181018455600084815260208082209093018490558454848252828601909352604090209190915562000209565b50600062000209565b60009081526001919091016020526040902054151590565b61146c806200028a6000396000f3fe6080604052600436106101f25760003560e01c80636c7ac9d81161010d578063a217fddf116100a0578063cc48b9471161006f578063cc48b9471461051b578063d547741f14610530578063fbfa77cf14610550578063fc0c546a14610565578063fd7fa4601461057a57610201565b8063a217fddf1461049f578063acc3a939146104b4578063b2d4d6a3146104e6578063ca15c873146104fb57610201565b80638d62d949116100dc5780638d62d949146104355780639010d07c1461044a57806391d148541461046a57806392ea3b4c1461048a57610201565b80636c7ac9d8146103d65780636fb7f558146103eb57806375b238fc146104005780637cb00d251461041557610201565b806336568abe1161018557806348cd4cb11161015457806348cd4cb114610382578063567e98f9146103975780635c60da1b146103ac57806363a8fd89146103c157610201565b806336568abe146103005780633659cfe6146103205780634273ca161461034057806343b0934a1461036057610201565b806320027275116101c15780632002727514610296578063248a9ca3146102ab5780632e0fac6b146102cb5780632f2ff15d146102e057610201565b806301ffc9a714610209578063083c63231461023f5780630ac8e0f3146102615780630bfb38411461027657610201565b36610201576101ff61058f565b005b6101ff61058f565b34801561021557600080fd5b506102296102243660046110a8565b610606565b6040516102369190611108565b60405180910390f35b34801561024b57600080fd5b50610254610625565b6040516102369190611113565b34801561026d57600080fd5b5061025461062b565b34801561028257600080fd5b50610229610291366004610f1e565b610631565b3480156102a257600080fd5b5061025461078b565b3480156102b757600080fd5b506102546102c6366004611040565b610791565b3480156102d757600080fd5b506102546107a6565b3480156102ec57600080fd5b506101ff6102fb366004611058565b6107ac565b34801561030c57600080fd5b506101ff61031b366004611058565b610813565b34801561032c57600080fd5b506101ff61033b366004610ed0565b610874565b34801561034c57600080fd5b5061022961035b366004610f6e565b610958565b34801561036c57600080fd5b506103756109dd565b60405161023691906110d0565b34801561038e57600080fd5b506102546109ec565b3480156103a357600080fd5b506102546109f2565b3480156103b857600080fd5b506103756109f8565b3480156103cd57600080fd5b50610229610a07565b3480156103e257600080fd5b50610375610a17565b3480156103f757600080fd5b50610375610a26565b34801561040c57600080fd5b50610254610a35565b34801561042157600080fd5b506101ff610430366004611008565b610a59565b34801561044157600080fd5b50610375610abd565b34801561045657600080fd5b50610375610465366004611087565b610acc565b34801561047657600080fd5b50610229610485366004611058565b610aed565b34801561049657600080fd5b50610375610b05565b3480156104ab57600080fd5b50610254610b14565b3480156104c057600080fd5b506104d46104cf366004610ed0565b610b19565b60405161023696959493929190611336565b3480156104f257600080fd5b50610254610b51565b34801561050757600080fd5b50610254610516366004611040565b610b57565b34801561052757600080fd5b50610375610b6e565b34801561053c57600080fd5b506101ff61054b366004611058565b610b7d565b34801561055c57600080fd5b50610375610bd6565b34801561057157600080fd5b50610375610be5565b34801561058657600080fd5b50610254610bf4565b60006105996109f8565b90506001600160a01b038116158015906105bd5750601554600160a01b900460ff16155b6105e25760405162461bcd60e51b81526004016105d9906112e9565b60405180910390fd5b3660008037600080366000845af43d6000803e808015610601573d6000f35b3d6000fd5b6001600160e01b03191660009081526014602052604090205460ff1690565b60055481565b60115481565b6001546000906001600160a01b0386811691161480156106515750600082115b801561066557506001600160a01b03831630145b6106815760405162461bcd60e51b81526004016105d9906112b2565b60035443101580156106965750600454600354105b80156106a3575060045443105b6106bf5760405162461bcd60e51b81526004016105d99061125c565b6001600160a01b0380851660009081526008602052604090819020805485018155600780548601905590516323b872dd60e01b815290918716906323b872dd90610711908890889088906004016110e4565b602060405180830381600087803b15801561072b57600080fd5b505af115801561073f573d6000803e3d6000fd5b505050506040513d601f19601f820116820180604052508101906107639190611024565b61077f5760405162461bcd60e51b81526004016105d99061128b565b50600195945050505050565b60035481565b60009081526013602052604090206002015490565b60125481565b6000828152601360205260409020600201546107ca90610485610c0f565b6108055760405162461bcd60e51b815260040180806020018281038252602f8152602001806113a9602f913960400191505060405180910390fd5b61080f8282610c13565b5050565b61081b610c0f565b6001600160a01b0316816001600160a01b03161461086a5760405162461bcd60e51b815260040180806020018281038252602f815260200180611408602f913960400191505060405180910390fd5b61080f8282610c7c565b61089e7fdf8b4c520ffe197c5343c6f5aec59570151ef9a492f2c624fd45ddde6135ec4233610aed565b6108ba5760405162461bcd60e51b81526004016105d990611160565b6001600160a01b0381166108e05760405162461bcd60e51b81526004016105d9906111d0565b6015546001600160a01b038281169116141561090e5760405162461bcd60e51b81526004016105d990611207565b601580546001600160a01b0319166001600160a01b0383169081179091556040517fbc7cd75a20ee27fd9adebab32041f755214dbc6bffa90cc0225b39da2e5c2d3b90600090a250565b60008060006109678585610ce5565b91509150808614801561098b5750816001600160a01b0316876001600160a01b0316145b6109a75760405162461bcd60e51b81526004016105d990611186565b6109b333898484610631565b6109cf5760405162461bcd60e51b81526004016105d99061111c565b506001979650505050505050565b6001546001600160a01b031681565b60045481565b60075481565b6015546001600160a01b031690565b601554600160a01b900460ff1681565b600c546001600160a01b031681565b600d546001600160a01b031681565b7fdf8b4c520ffe197c5343c6f5aec59570151ef9a492f2c624fd45ddde6135ec4281565b610a837fdf8b4c520ffe197c5343c6f5aec59570151ef9a492f2c624fd45ddde6135ec4233610aed565b610a9f5760405162461bcd60e51b81526004016105d990611160565b60158054911515600160a01b0260ff60a01b19909216919091179055565b600b546001600160a01b031681565b6000828152601360205260408120610ae49083610cff565b90505b92915050565b6000828152601360205260408120610ae49083610d0b565b600e546001600160a01b031681565b600081565b600860205260009081526040902080546001820154600283015460038401546004850154600590950154939492939192909160ff1686565b60065481565b6000818152601360205260408120610ae790610d20565b600a546001600160a01b031681565b600082815260136020526040902060020154610b9b90610485610c0f565b61086a5760405162461bcd60e51b81526004018080602001828103825260308152602001806113d86030913960400191505060405180910390fd5b6002546001600160a01b031681565b6000546001600160a01b031681565b60105481565b6000610ae4836001600160a01b038416610d2b565b3390565b6000828152601360205260409020610c2b9082610bfa565b1561080f57610c38610c0f565b6001600160a01b0316816001600160a01b0316837f2f8788117e7eff1d82e926ec794901d17c78024a50270940304540a733656f0d60405160405180910390a45050565b6000828152601360205260409020610c949082610d75565b1561080f57610ca1610c0f565b6001600160a01b0316816001600160a01b0316837ff6391f5c32d9c69d2a47ea670b442974b53935d1edc7fd64eb21e047a839171b60405160405180910390a45050565b600080610cf483850185610ef3565b909590945092505050565b6000610ae48383610d8a565b6000610ae4836001600160a01b038416610dee565b6000610ae782610e06565b6000610d378383610dee565b610d6d57508154600181810184556000848152602080822090930184905584548482528286019093526040902091909155610ae7565b506000610ae7565b6000610ae4836001600160a01b038416610e0a565b81546000908210610dcc5760405162461bcd60e51b81526004018080602001828103825260228152602001806113876022913960400191505060405180910390fd5b826000018281548110610ddb57fe5b9060005260206000200154905092915050565b60009081526001919091016020526040902054151590565b5490565b60008181526001830160205260408120548015610ec65783546000198083019190810190600090879083908110610e3d57fe5b9060005260206000200154905080876000018481548110610e5a57fe5b600091825260208083209091019290925582815260018981019092526040902090840190558654879080610e8a57fe5b60019003818190600052602060002001600090559055866001016000878152602001908152602001600020600090556001945050505050610ae7565b6000915050610ae7565b600060208284031215610ee1578081fd5b8135610eec81611360565b9392505050565b60008060408385031215610f05578081fd5b8235610f1081611360565b946020939093013593505050565b60008060008060808587031215610f33578182fd5b8435610f3e81611360565b93506020850135610f4e81611360565b92506040850135610f5e81611360565b9396929550929360600135925050565b600080600080600060808688031215610f85578081fd5b8535610f9081611360565b94506020860135610fa081611360565b935060408601359250606086013567ffffffffffffffff80821115610fc3578283fd5b818801915088601f830112610fd6578283fd5b813581811115610fe4578384fd5b896020828501011115610ff5578384fd5b9699959850939650602001949392505050565b600060208284031215611019578081fd5b8135610eec81611378565b600060208284031215611035578081fd5b8151610eec81611378565b600060208284031215611051578081fd5b5035919050565b6000806040838503121561106a578182fd5b82359150602083013561107c81611360565b809150509250929050565b60008060408385031215611099578182fd5b50508035926020909101359150565b6000602082840312156110b9578081fd5b81356001600160e01b031981168114610eec578182fd5b6001600160a01b0391909116815260200190565b6001600160a01b039384168152919092166020820152604081019190915260600190565b901515815260200190565b90815260200190565b60208082526024908201527f546f6b616d616b5374616b65723a207374616b654f6e417070726f7665206661604082015263034b639960e51b606082015260800190565b6020808252600c908201526b3737ba1030b71030b236b4b760a11b604082015260600190565b6020808252602a908201527f546f6b616d616b5374616b65723a20746f6e416d6f756e7420213d207374616b604082015269034b733a0b6b7bab73a160b51b606082015260800190565b6020808252601c908201527f5374616b65544f4e50726f78793a20696e707574206973207a65726f00000000604082015260600190565b60208082526035908201527f5374616b65544f4e50726f78793a2054686520696e70757420616464726573736040820152742069732073616d652061732074686520737461746560581b606082015260800190565b602080825260159082015274706572696f6420697320756e617661696c61626c6560581b604082015260600190565b6020808252600d908201526c1d1c985b9cd9995c8819985a5b609a1b604082015260600190565b60208082526018908201527f7374616b654f6e417070726f766520696e6974206661696c0000000000000000604082015260600190565b6020808252602d908201527f5374616b65544f4e50726f78793a20696d706c206973207a65726f204f52207060408201526c726f78792069732066616c736560981b606082015260800190565b9586526020860194909452604085019290925260608401526080830152151560a082015260c00190565b6001600160a01b038116811461137557600080fd5b50565b801515811461137557600080fdfe456e756d657261626c655365743a20696e646578206f7574206f6620626f756e6473416363657373436f6e74726f6c3a2073656e646572206d75737420626520616e2061646d696e20746f206772616e74416363657373436f6e74726f6c3a2073656e646572206d75737420626520616e2061646d696e20746f207265766f6b65416363657373436f6e74726f6c3a2063616e206f6e6c792072656e6f756e636520726f6c657320666f722073656c66a26469706673582212201ae342a56247631b9e374dd580130b09e322b2ae46ba6a2cbfc8472cd622d4e264736f6c63430007060033df8b4c520ffe197c5343c6f5aec59570151ef9a492f2c624fd45ddde6135ec4260806040523480156200001157600080fd5b506200002d60008051602062003f72833981519152806200004e565b6200004860008051602062003f7283398151915233620000a0565b620001b6565b600082815260136020526040808220600201549051839285917fbd79b86ffe0ab8e8776151514217cd7cacd52c909f66475c3af44e129f0b00ff9190a460009182526013602052604090912060020155565b620000ac8282620000b0565b5050565b6000828152601360209081526040909120620000d7918390620039a56200012b821b17901c565b15620000ac57620000e76200014b565b6001600160a01b0316816001600160a01b0316837f2f8788117e7eff1d82e926ec794901d17c78024a50270940304540a733656f0d60405160405180910390a45050565b600062000142836001600160a01b0384166200014f565b90505b92915050565b3390565b60006200015d83836200019e565b620001955750815460018181018455600084815260208082209093018490558454848252828601909352604090209190915562000145565b50600062000145565b60009081526001919091016020526040902054151590565b613dac80620001c66000396000f3fe60806040526004361061028c5760003560e01c80638caae1e31161015a578063ca15c873116100c1578063f30eb9581161007a578063f30eb95814610af5578063f5832e7214610b28578063fa3733d614610b5b578063fbfa77cf14610b96578063fc0c546a14610bab578063fd7fa46014610bc05761029c565b8063ca15c87314610997578063cc48b947146109c1578063d547741f146109d6578063e8e3370014610a0f578063e9ace83314610a8f578063eeb8112f14610ac25761029c565b8063a694fc3a11610113578063a694fc3a14610821578063acc3a9391461083e578063b2d4d6a3146108a6578063baa2abde146108bb578063bea9849e14610931578063c434d64d146109645761029c565b80638caae1e3146107325780638d62d949146107655780639010d07c1461077a57806391d14854146107aa57806392ea3b4c146107f7578063a217fddf1461080c5761029c565b806348cd4cb1116101fe5780636fb7f558116101b75780636fb7f558146105d557806371def0b3146105ea578063728cdbca1461061d578063735de9f71461067257806375b238fc146106875780638803dbee1461069c5761029c565b806348cd4cb1146104f95780634b2e0ebd1461050e5780634e71d92d14610563578063567e98f914610578578063610b06631461058d5780636c7ac9d8146105c05761029c565b80632f2ff15d116102505780632f2ff15d1461033157806336568abe1461036a57806338ed1739146103a35780633ccfd60b146104895780633cdcdbe71461049e57806343b0934a146104c85761029c565b8063083c6323146102a15780630ac8e0f3146102c857806320027275146102dd578063248a9ca3146102f25780632e0fac6b1461031c5761029c565b3661029c5761029a34610bd5565b005b600080fd5b3480156102ad57600080fd5b506102b6610f0f565b60408051918252519081900360200190f35b3480156102d457600080fd5b506102b6610f15565b3480156102e957600080fd5b506102b6610f1b565b3480156102fe57600080fd5b506102b66004803603602081101561031557600080fd5b5035610f21565b34801561032857600080fd5b506102b6610f36565b34801561033d57600080fd5b5061029a6004803603604081101561035457600080fd5b50803590602001356001600160a01b0316610f3c565b34801561037657600080fd5b5061029a6004803603604081101561038d57600080fd5b50803590602001356001600160a01b0316610fa8565b3480156103af57600080fd5b50610439600480360360a08110156103c657600080fd5b813591602081013591810190606081016040820135600160201b8111156103ec57600080fd5b8201836020820111156103fe57600080fd5b803590602001918460208302840111600160201b8311171561041f57600080fd5b91935091506001600160a01b038135169060200135611009565b60408051602080825283518183015283519192839290830191858101910280838360005b8381101561047557818101518382015260200161045d565b505050509050019250505060405180910390f35b34801561049557600080fd5b5061029a6111d1565b3480156104aa57600080fd5b5061029a600480360360208110156104c157600080fd5b503561164c565b3480156104d457600080fd5b506104dd611725565b604080516001600160a01b039092168252519081900360200190f35b34801561050557600080fd5b506102b6611734565b34801561051a57600080fd5b5061029a600480360360a081101561053157600080fd5b506001600160a01b0381358116916020810135821691604082013581169160608101358216916080909101351661173a565b34801561056f57600080fd5b5061029a611979565b34801561058457600080fd5b506102b6611cc1565b34801561059957600080fd5b506102b6600480360360208110156105b057600080fd5b50356001600160a01b0316611cc7565b3480156105cc57600080fd5b506104dd612051565b3480156105e157600080fd5b506104dd612060565b3480156105f657600080fd5b5061029a6004803603602081101561060d57600080fd5b50356001600160a01b031661206f565b34801561062957600080fd5b5061029a600480360360c081101561064057600080fd5b506001600160a01b03813581169160208101358216916040820135169060608101359060808101359060a001356121d9565b34801561067e57600080fd5b506104dd6122e3565b34801561069357600080fd5b506102b66122f2565b3480156106a857600080fd5b50610439600480360360a08110156106bf57600080fd5b813591602081013591810190606081016040820135600160201b8111156106e557600080fd5b8201836020820111156106f757600080fd5b803590602001918460208302840111600160201b8311171561071857600080fd5b91935091506001600160a01b038135169060200135612304565b34801561073e57600080fd5b5061029a6004803603602081101561075557600080fd5b50356001600160a01b03166123f9565b34801561077157600080fd5b506104dd61295c565b34801561078657600080fd5b506104dd6004803603604081101561079d57600080fd5b508035906020013561296b565b3480156107b657600080fd5b506107e3600480360360408110156107cd57600080fd5b50803590602001356001600160a01b031661298a565b604080519115158252519081900360200190f35b34801561080357600080fd5b506104dd6129a2565b34801561081857600080fd5b506102b66129b1565b61029a6004803603602081101561083757600080fd5b5035610bd5565b34801561084a57600080fd5b506108716004803603602081101561086157600080fd5b50356001600160a01b03166129b6565b6040805196875260208701959095528585019390935260608501919091526080840152151560a0830152519081900360c00190f35b3480156108b257600080fd5b506102b66129ee565b3480156108c757600080fd5b50610918600480360360e08110156108de57600080fd5b506001600160a01b038135811691602081013582169160408201359160608101359160808201359160a08101359091169060c001356129f4565b6040805192835260208301919091528051918290030190f35b34801561093d57600080fd5b5061029a6004803603602081101561095457600080fd5b50356001600160a01b0316612b04565b34801561097057600080fd5b5061029a6004803603602081101561098757600080fd5b50356001600160a01b0316612c66565b3480156109a357600080fd5b506102b6600480360360208110156109ba57600080fd5b5035612fb1565b3480156109cd57600080fd5b506104dd612fc8565b3480156109e257600080fd5b5061029a600480360360408110156109f957600080fd5b50803590602001356001600160a01b0316612fd7565b348015610a1b57600080fd5b50610a716004803603610100811015610a3357600080fd5b506001600160a01b038135811691602081013582169160408201359160608101359160808201359160a08101359160c0820135169060e00135613030565b60408051938452602084019290925282820152519081900360600190f35b348015610a9b57600080fd5b506102b660048036036020811015610ab257600080fd5b50356001600160a01b0316613155565b348015610ace57600080fd5b506102b660048036036020811015610ae557600080fd5b50356001600160a01b03166132bd565b348015610b0157600080fd5b506102b660048036036020811015610b1857600080fd5b50356001600160a01b03166133f2565b348015610b3457600080fd5b506102b660048036036020811015610b4b57600080fd5b50356001600160a01b0316613527565b348015610b6757600080fd5b5061029a60048036036040811015610b7e57600080fd5b506001600160a01b038135169060200135151561365c565b348015610ba257600080fd5b506104dd613981565b348015610bb757600080fd5b506104dd613990565b348015610bcc57600080fd5b506102b661399f565b6001546001600160a01b0316158015610bed57508034145b80610c0d57506001546001600160a01b031615801590610c0d5750600081115b610c47576040805162461bcd60e51b815260206004808301919091526024820152637a65726f60e01b604482015290519081900360640190fd5b6003544310158015610c5a575060045443105b610c99576040805162461bcd60e51b815260206004820152600b60248201526a756e617661696c61626c6560a81b604482015290519081900360640190fd5b600260009054906101000a90046001600160a01b03166001600160a01b031663b8c766b86040518163ffffffff1660e01b815260040160206040518083038186803b158015610ce757600080fd5b505afa158015610cfb573d6000803e3d6000fd5b505050506040513d6020811015610d1157600080fd5b505115610d4f576040805162461bcd60e51b81526020600482015260076024820152661b9bdd08195b9960ca1b604482015290519081900360640190fd5b6001546001600160a01b0316610d66575034610e18565b600154604080516370a0823160e01b8152336004820152905183926001600160a01b0316916370a08231916024808301926020929190829003018186803b158015610db057600080fd5b505afa158015610dc4573d6000803e3d6000fd5b505050506040513d6020811015610dda57600080fd5b50511015610e18576040805162461bcd60e51b815260206004808301919091526024820152636c61636b60e01b604482015290519081900360640190fd5b33600090815260086020526040902080548201815560078054830190556001546001600160a01b031615610ed557600154604080516323b872dd60e01b81523360048201523060248201526044810185905290516001600160a01b03909216916323b872dd916064808201926020929091908290030181600087803b158015610ea057600080fd5b505af1158015610eb4573d6000803e3d6000fd5b505050506040513d6020811015610eca57600080fd5b5051610ed557600080fd5b60408051838152905133917f9e71bc8eea02a63969f509818f2dafb9254532904319f9dbda79b67bd34a5f3d919081900360200190a25050565b60055481565b60115481565b60035481565b60009081526013602052604090206002015490565b60125481565b600082815260136020526040902060020154610f5f90610f5a6139ba565b61298a565b610f9a5760405162461bcd60e51b815260040180806020018281038252602f815260200180613c84602f913960400191505060405180910390fd5b610fa482826139be565b5050565b610fb06139ba565b6001600160a01b0316816001600160a01b031614610fff5760405162461bcd60e51b815260040180806020018281038252602f815260200180613d48602f913960400191505060405180910390fd5b610fa48282613a27565b6060611023600080516020613d038339815191523361298a565b61105e5760405162461bcd60e51b8152600401808060200182810382526025815260200180613d236025913960400191505060405180910390fd5b600f546040516338ed173960e01b815260048101898152602482018990526001600160a01b0386811660648401526084830186905260a06044840190815260a484018990529316926338ed1739928b928b928b928b928b928b9260c401866020870280828437600081840152601f19601f820116905080830192505050975050505050505050600060405180830381600087803b1580156110fe57600080fd5b505af1158015611112573d6000803e3d6000fd5b505050506040513d6000823e601f3d908101601f19168201604052602081101561113b57600080fd5b8101908080516040519392919084600160201b82111561115a57600080fd5b90830190602082018581111561116f57600080fd5b82518660208202830111600160201b8211171561118b57600080fd5b82525081516020918201928201910280838360005b838110156111b85781810151838201526020016111a0565b5050505090500160405250505090509695505050505050565b60006005541180156111e4575043600554105b61121f576040805162461bcd60e51b81526020600482015260076024820152661b9bdd08195b9960ca1b604482015290519081900360640190fd5b600e546001600160a01b03161561138f57600d54600e54604080516367265c3b60e11b81526001600160a01b0392831660048201523060248201529051919092169163ce4cb876916044808301926020929190829003018186803b15801561128657600080fd5b505afa15801561129a573d6000803e3d6000fd5b505050506040513d60208110156112b057600080fd5b505115801561133e5750600c54600e5460408051632638fdf560e01b81526001600160a01b03928316600482015230602482015290519190921691632638fdf5916044808301926020929190829003018186803b15801561131057600080fd5b505afa158015611324573d6000803e3d6000fd5b505050506040513d602081101561133a57600080fd5b5051155b61138f576040805162461bcd60e51b815260206004820152601860248201527f72656d61696e20616d6f756e7420696e20746f6b616d616b0000000000000000604482015290519081900360640190fd5b33600090815260086020526040902080546001546001600160a01b03166113fe578154600483015411156113f9576040805162461bcd60e51b815260206004820152600c60248201526b416d6f756e742077726f6e6760a01b604482015290519081900360640190fd5b61143a565b600a546001546001600160a01b039081169116141561143a576007548254601154633b9aca0090046010546007540301028161143657fe5b0490505b6000811161147e576040805162461bcd60e51b815260206004820152600c60248201526b416d6f756e742077726f6e6760a01b604482015290519081900360640190fd5b6004820181905543600383015560058201805460ff19166001908117909155546001600160a01b0316611551573080318211156114ba57600080fd5b604051600090339084908381818185875af1925050503d80600081146114fc576040519150601f19603f3d011682016040523d82523d6000602084013e611501565b606091505b505090508061154a576040805162461bcd60e51b815260206004820152601060248201526f3bb4ba34323930bb903330b4b632b21760811b604482015290519081900360640190fd5b5050611612565b6001546040805163a9059cbb60e01b81523360048201526024810184905290516001600160a01b039092169163a9059cbb916044808201926020929091908290030181600087803b1580156115a557600080fd5b505af11580156115b9573d6000803e3d6000fd5b505050506040513d60208110156115cf57600080fd5b5051611612576040805162461bcd60e51b815260206004820152600d60248201526c1d1c985b9cd9995c8819985a5b609a1b604482015290519081900360640190fd5b60408051828152905133917f7fcf532c15f0a6db0bd6d0e038bea71d30d808c7d98cb3bf7268a95bf5081b65919081900360200190a25050565b600154600f546040805163095ea7b360e01b81526001600160a01b039283166004820152602481018590529051919092169163095ea7b39160448083019260209291908290030181600087803b1580156116a557600080fd5b505af11580156116b9573d6000803e3d6000fd5b505050506040513d60208110156116cf57600080fd5b5051611722576040805162461bcd60e51b815260206004820152601b60248201527f546f6b616d616b5374616b65723a20617070726f7665206661696c0000000000604482015290519081900360640190fd5b50565b6001546001600160a01b031681565b60045481565b611752600080516020613d038339815191523361298a565b61178d5760405162461bcd60e51b8152600401808060200182810382526025815260200180613d236025913960400191505060405180910390fd5b846001600160a01b0381166117d7576040805162461bcd60e51b815260206004820152601b6024820152600080516020613ce3833981519152604482015290519081900360640190fd5b846001600160a01b038116611821576040805162461bcd60e51b815260206004820152601b6024820152600080516020613ce3833981519152604482015290519081900360640190fd5b846001600160a01b03811661186b576040805162461bcd60e51b815260206004820152601b6024820152600080516020613ce3833981519152604482015290519081900360640190fd5b846001600160a01b0381166118b5576040805162461bcd60e51b815260206004820152601b6024820152600080516020613ce3833981519152604482015290519081900360640190fd5b600a80546001600160a01b03808c166001600160a01b03199283161792839055600b80548c83169084161790819055600c80548c84169085161790819055600d80548c85169086161790819055600f80548c86169087168117909155600e805490961690955560408051968516875292841660208701529083168583015290911660608401526080830191909152517f46a53dd818efcc0314aabace01e93d87ceaacb400503f8ae380689193622edbc9181900360a00190a1505050505050505050565b600954156119b7576040805162461bcd60e51b81526020600482015260066024820152651313d0d2d15160d21b604482015290519081900360640190fd5b600160095560025460408051631718ecd760e31b815290516001600160a01b039092169163b8c766b891600480820192602092909190829003018186803b158015611a0157600080fd5b505afa158015611a15573d6000803e3d6000fd5b505050506040513d6020811015611a2b57600080fd5b50511515600114611a70576040805162461bcd60e51b815260206004820152600a6024820152691b9bdd0818db1bdcd95960b21b604482015290519081900360640190fd5b336000908152600860205260408120600554600182015410611ac3576040805162461bcd60e51b815260206004820152600760248201526618db185a5b595960ca1b604482015290519081900360640190fd5b611acc33611cc7565b915060008211611b14576040805162461bcd60e51b815260206004820152600e60248201526d726577617264206973207a65726f60901b604482015290519081900360640190fd5b6002546040805163032f7adb60e61b815230600482015290516000926001600160a01b03169163cbdeb6c0916024808301926020929190829003018186803b158015611b5f57600080fd5b505afa158015611b73573d6000803e3d6000fd5b505050506040513d6020811015611b8957600080fd5b50516006549091508301811015611bde576040805162461bcd60e51b8152602060048201526014602482015273746f74616c20726577617264206578636565647360601b604482015290519081900360640190fd5b436001830155600280830180548501905560068054850190555460408051635569f64b60e11b81523360048201526024810186905290516001600160a01b039092169163aad3ec96916044808201926020929091908290030181600087803b158015611c4957600080fd5b505af1158015611c5d573d6000803e3d6000fd5b505050506040513d6020811015611c7357600080fd5b5051611c7e57600080fd5b60408051848152436020820152815133927f987d620f307ff6b94d58743cb7a7509f24071586a77759b77c2d4e29f75a2f9a928290030190a25050600060095550565b60075481565b6004546000908190431080611cf257506001600160a01b038316600090815260086020526040902054155b80611d1957506005546001600160a01b038416600090815260086020526040902060010154115b80611d3e57506001600160a01b03831660009081526008602052604090206001015443105b15611d4b5750600061204b565b6004546005546001600160a01b038516600090815260086020526040902060010154821015611d93576001600160a01b03851660009081526008602052604090206001015491505b80431015611d9e5750435b6002546040805163c1b422fd60e01b815290516000926001600160a01b03169163c1b422fd9160048083019286929190829003018186803b158015611de257600080fd5b505afa158015611df6573d6000803e3d6000fd5b505050506040513d6000823e601f3d908101601f191682016040526020811015611e1f57600080fd5b8101908080516040519392919084600160201b821115611e3e57600080fd5b908301906020820185811115611e5357600080fd5b82518660208202830111600160201b82111715611e6f57600080fd5b82525081516020918201928201910280838360005b83811015611e9c578181015183820152602001611e84565b505050509050016040525050509050600081511115612047576000806000600260009054906101000a90046001600160a01b03166001600160a01b031663d105bf856040518163ffffffff1660e01b815260040160206040518083038186803b158015611f0857600080fd5b505afa158015611f1c573d6000803e3d6000fd5b505050506040513d6020811015611f3257600080fd5b5051905060005b845181101561204257848181518110611f4e57fe5b60209081029190910181015160025460408051632f8deb1560e11b81526004810184905290519297506001600160a01b0390911692635f1bd62a92602480840193829003018186803b158015611fa357600080fd5b505afa158015611fb7573d6000803e3d6000fd5b505050506040513d6020811015611fcd57600080fd5b5051925083861161200a576001600160a01b038a1660009081526008602052604090205483908888038402028161200057fe5b0488019750612042565b6001600160a01b038a1660009081526008602052604090205483908886038402028161203257fe5b0488019750839650600101611f39565b505050505b5050505b92915050565b600c546001600160a01b031681565b600d546001600160a01b031681565b600a546001600160a01b0316158015906120935750600b546001600160a01b031615155b80156120a95750600c546001600160a01b031615155b80156120bf5750600d546001600160a01b031615155b612104576040805162461bcd60e51b8152602060048201526011602482015270696e6974207a65726f206164647265737360781b604482015290519081900360640190fd5b600e5481906001600160a01b0380831691161461215a576040805162461bcd60e51b815260206004820152600f60248201526e3234b33332b932b73a103630bcb2b960891b604482015290519081900360640190fd5b600c5460408051636b2160b760e01b81526001600160a01b03858116600483015291519190921691636b2160b79160248083019260209291908290030181600087803b1580156121a957600080fd5b505af11580156121bd573d6000803e3d6000fd5b505050506040513d60208110156121d357600080fd5b50505050565b6121f1600080516020613d038339815191523361298a565b61222c5760405162461bcd60e51b8152600401808060200182810382526025815260200180613d236025913960400191505060405180910390fd5b6001600160a01b0386161580159061224c57506001600160a01b03841615155b801561225757508183105b612291576040805162461bcd60e51b815260206004808301919091526024820152637a65726f60e01b604482015290519081900360640190fd5b600080546001600160a01b03199081166001600160a01b039889161790915560018054821696881696909617909555600280549095169390951692909217909255600391909155600481905501600555565b600f546001600160a01b031690565b600080516020613d0383398151915281565b606061231e600080516020613d038339815191523361298a565b6123595760405162461bcd60e51b8152600401808060200182810382526025815260200180613d236025913960400191505060405180910390fd5b600f54604051634401edf760e11b815260048101898152602482018990526001600160a01b0386811660648401526084830186905260a06044840190815260a48401899052931692638803dbee928b928b928b928b928b928b9260c401866020870280828437600081840152601f19601f820116905080830192505050975050505050505050600060405180830381600087803b1580156110fe57600080fd5b600a546001600160a01b03161580159061241d5750600b546001600160a01b031615155b80156124335750600c546001600160a01b031615155b80156124495750600d546001600160a01b031615155b61248e576040805162461bcd60e51b8152602060048201526011602482015270696e6974207a65726f206164647265737360781b604482015290519081900360640190fd5b806001600160a01b0381166124d8576040805162461bcd60e51b815260206004820152601b6024820152600080516020613ce3833981519152604482015290519081900360640190fd5b600260009054906101000a90046001600160a01b03166001600160a01b031663b8c766b86040518163ffffffff1660e01b815260040160206040518083038186803b15801561252657600080fd5b505afa15801561253a573d6000803e3d6000fd5b505050506040513d602081101561255057600080fd5b50511515600114612595576040805162461bcd60e51b815260206004820152600a6024820152691b9bdd0818db1bdcd95960b21b604482015290519081900360640190fd5b600a54604080516370a0823160e01b815230600482015290516000926001600160a01b0316916370a08231916024808301926020929190829003018186803b1580156125e057600080fd5b505afa1580156125f4573d6000803e3d6000fd5b505050506040513d602081101561260a57600080fd5b5051905080612649576040805162461bcd60e51b815260206004808301919091526024820152637a65726f60e01b604482015290519081900360640190fd5b600e546001600160a01b031661267957600e80546001600160a01b0319166001600160a01b0385161790556127f3565b600d54600e54604080516367265c3b60e11b81526001600160a01b0392831660048201523060248201529051600093929092169163ce4cb87691604480820192602092909190829003018186803b1580156126d357600080fd5b505afa1580156126e7573d6000803e3d6000fd5b505050506040513d60208110156126fd57600080fd5b5051600c54600e5460408051632638fdf560e01b81526001600160a01b03928316600482015230602482015290519394506000939190921691632638fdf5916044808301926020929190829003018186803b15801561275b57600080fd5b505afa15801561276f573d6000803e3d6000fd5b505050506040513d602081101561278557600080fd5b50519050811515806127975750600081115b156127f057600e546001600160a01b038681169116146127f0576040805162461bcd60e51b815260206004820152600f60248201526e3234b33332b932b73a103630bcb2b960891b604482015290519081900360640190fd5b50505b6010805482019055600c54604080516001600160a01b0392831660208083019190915286841682840152825180830384018152606080840194859052600a54600b5463cae9ca5160e01b909652948616606485018181526084860189905260a48601928352835160c487015283519397969096169563cae9ca5195919489948994929360e4019185019080838360005b8381101561289b578181015183820152602001612883565b50505050905090810190601f1680156128c85780820380516001836020036101000a031916815260200191505b50945050505050602060405180830381600087803b1580156128e957600080fd5b505af11580156128fd573d6000803e3d6000fd5b505050506040513d602081101561291357600080fd5b50516121d3576040805162461bcd60e51b8152602060048201526013602482015272185c1c1c9bdd99505b9910d85b1b0819985a5b606a1b604482015290519081900360640190fd5b600b546001600160a01b031681565b60008281526013602052604081206129839083613a90565b9392505050565b60008281526013602052604081206129839083613a9c565b600e546001600160a01b031681565b600081565b600860205260009081526040902080546001820154600283015460038401546004850154600590950154939492939192909160ff1686565b60065481565b600080612a0f600080516020613d038339815191523361298a565b612a4a5760405162461bcd60e51b8152600401808060200182810382526025815260200180613d236025913960400191505060405180910390fd5b600f5460408051635d5155ef60e11b81526001600160a01b038c811660048301528b81166024830152604482018b9052606482018a90526084820189905287811660a483015260c48201879052825193169263baa2abde9260e4808401939192918290030181600087803b158015612ac157600080fd5b505af1158015612ad5573d6000803e3d6000fd5b505050506040513d6040811015612aeb57600080fd5b508051602090910151909a909950975050505050505050565b612b1c600080516020613d038339815191523361298a565b612b575760405162461bcd60e51b8152600401808060200182810382526025815260200180613d236025913960400191505060405180910390fd5b6003544310612bad576040805162461bcd60e51b815260206004820152601e60248201527f546f6b616d616b5374616b65723a20416c726561647920737461727465640000604482015290519081900360640190fd5b6001600160a01b03811615801590612bd35750600f546001600160a01b03828116911614155b612c12576040805162461bcd60e51b815260206004820152601b6024820152600080516020613ce3833981519152604482015290519081900360640190fd5b600f80546001600160a01b0383166001600160a01b0319909116811790915560408051918252517f62c2fdbe51fb234f5a19e26fd34a29b4d1f7f4b748fa3dfb5ee76bc69a30a7ce9181900360200190a150565b600a546001600160a01b031615801590612c8a5750600b546001600160a01b031615155b8015612ca05750600c546001600160a01b031615155b8015612cb65750600d546001600160a01b031615155b612cfb576040805162461bcd60e51b8152602060048201526011602482015270696e6974207a65726f206164647265737360781b604482015290519081900360640190fd5b600e5481906001600160a01b03808316911614612d51576040805162461bcd60e51b815260206004820152600f60248201526e3234b33332b932b73a103630bcb2b960891b604482015290519081900360640190fd5b600260009054906101000a90046001600160a01b03166001600160a01b031663b8c766b86040518163ffffffff1660e01b815260040160206040518083038186803b158015612d9f57600080fd5b505afa158015612db3573d6000803e3d6000fd5b505050506040513d6020811015612dc957600080fd5b50511515600114612e0e576040805162461bcd60e51b815260206004820152600a6024820152691b9bdd0818db1bdcd95960b21b604482015290519081900360640190fd5b600d54604080516367265c3b60e11b81526001600160a01b0385811660048301523060248301529151600093929092169163ce4cb87691604480820192602092909190829003018186803b158015612e6557600080fd5b505afa158015612e79573d6000803e3d6000fd5b505050506040513d6020811015612e8f57600080fd5b5051600754909150633b9aca00026001018111612edf576040805162461bcd60e51b81526020600482015260096024820152681d1bdbc81cdb585b1b60ba1b604482015290519081900360640190fd5b600754633b9aca000281036000190180612f29576040805162461bcd60e51b815260206004808301919091526024820152637a65726f60e01b604482015290519081900360640190fd5b600c546040805163da95ebf760e01b81526001600160a01b038781166004830152602482018590529151919092169163da95ebf79160448083019260209291908290030181600087803b158015612f7f57600080fd5b505af1158015612f93573d6000803e3d6000fd5b505050506040513d6020811015612fa957600080fd5b505050505050565b600081815260136020526040812061204b90613ab1565b600a546001600160a01b031681565b600082815260136020526040902060020154612ff590610f5a6139ba565b610fff5760405162461bcd60e51b8152600401808060200182810382526030815260200180613cb36030913960400191505060405180910390fd5b600080600061304d600080516020613d038339815191523361298a565b6130885760405162461bcd60e51b8152600401808060200182810382526025815260200180613d236025913960400191505060405180910390fd5b600f546040805162e8e33760e81b81526001600160a01b038e811660048301528d81166024830152604482018d9052606482018c9052608482018b905260a482018a905288811660c483015260e482018890529151919092169163e8e33700916101048083019260609291908290030181600087803b15801561310a57600080fd5b505af115801561311e573d6000803e3d6000fd5b505050506040513d606081101561313457600080fd5b5080516020820151604090920151909d919c509a5098505050505050505050565b600a546000906001600160a01b03161580159061317c5750600b546001600160a01b031615155b80156131925750600c546001600160a01b031615155b80156131a85750600d546001600160a01b031615155b6131ed576040805162461bcd60e51b8152602060048201526011602482015270696e6974207a65726f206164647265737360781b604482015290519081900360640190fd5b816001600160a01b038116613237576040805162461bcd60e51b815260206004820152601b6024820152600080516020613ce3833981519152604482015290519081900360640190fd5b600c5460408051632638fdf560e01b81526001600160a01b03868116600483015230602483015291519190921691632638fdf5916044808301926020929190829003018186803b15801561328a57600080fd5b505afa15801561329e573d6000803e3d6000fd5b505050506040513d60208110156132b457600080fd5b50519392505050565b600a546000906001600160a01b0316158015906132e45750600b546001600160a01b031615155b80156132fa5750600c546001600160a01b031615155b80156133105750600d546001600160a01b031615155b613355576040805162461bcd60e51b8152602060048201526011602482015270696e6974207a65726f206164647265737360781b604482015290519081900360640190fd5b816001600160a01b03811661339f576040805162461bcd60e51b815260206004820152601b6024820152600080516020613ce3833981519152604482015290519081900360640190fd5b600c5460408051639d91b87b60e01b81526001600160a01b03868116600483015230602483015291519190921691639d91b87b916044808301926020929190829003018186803b15801561328a57600080fd5b600a546000906001600160a01b0316158015906134195750600b546001600160a01b031615155b801561342f5750600c546001600160a01b031615155b80156134455750600d546001600160a01b031615155b61348a576040805162461bcd60e51b8152602060048201526011602482015270696e6974207a65726f206164647265737360781b604482015290519081900360640190fd5b816001600160a01b0381166134d4576040805162461bcd60e51b815260206004820152601b6024820152600080516020613ce3833981519152604482015290519081900360640190fd5b600d54604080516367265c3b60e11b81526001600160a01b0386811660048301523060248301529151919092169163ce4cb876916044808301926020929190829003018186803b15801561328a57600080fd5b600a546000906001600160a01b03161580159061354e5750600b546001600160a01b031615155b80156135645750600c546001600160a01b031615155b801561357a5750600d546001600160a01b031615155b6135bf576040805162461bcd60e51b8152602060048201526011602482015270696e6974207a65726f206164647265737360781b604482015290519081900360640190fd5b816001600160a01b038116613609576040805162461bcd60e51b815260206004820152601b6024820152600080516020613ce3833981519152604482015290519081900360640190fd5b600c5460408051630b4beae560e21b81526001600160a01b03868116600483015230602483015291519190921691632d2fab94916044808301926020929190829003018186803b15801561328a57600080fd5b600a546001600160a01b0316158015906136805750600b546001600160a01b031615155b80156136965750600c546001600160a01b031615155b80156136ac5750600d546001600160a01b031615155b6136f1576040805162461bcd60e51b8152602060048201526011602482015270696e6974207a65726f206164647265737360781b604482015290519081900360640190fd5b600e5482906001600160a01b03808316911614613747576040805162461bcd60e51b815260206004820152600f60248201526e3234b33332b932b73a103630bcb2b960891b604482015290519081900360640190fd5b600260009054906101000a90046001600160a01b03166001600160a01b031663b8c766b86040518163ffffffff1660e01b815260040160206040518083038186803b15801561379557600080fd5b505afa1580156137a9573d6000803e3d6000fd5b505050506040513d60208110156137bf57600080fd5b50511515600114613804576040805162461bcd60e51b815260206004820152600a6024820152691b9bdd0818db1bdcd95960b21b604482015290519081900360640190fd5b600d54600e54604080516367265c3b60e11b81526001600160a01b0392831660048201523060248201529051600093929092169163ce4cb87691604480820192602092909190829003018186803b15801561385e57600080fd5b505afa158015613872573d6000803e3d6000fd5b505050506040513d602081101561388857600080fd5b50519050806138a257600e80546001600160a01b03191690555b600c5460408051632638fdf560e01b81526001600160a01b03878116600483015230602483015291519190921691632638fdf5916044808301926020929190829003018186803b1580156138f557600080fd5b505afa158015613909573d6000803e3d6000fd5b505050506040513d602081101561391f57600080fd5b5051601180549091019055600c5460408051636105226360e11b81526001600160a01b03878116600483015286151560248301529151919092169163c20a44c69160448083019260209291908290030181600087803b158015612f7f57600080fd5b6002546001600160a01b031681565b6000546001600160a01b031681565b60105481565b6000612983836001600160a01b038416613abc565b3390565b60008281526013602052604090206139d690826139a5565b15610fa4576139e36139ba565b6001600160a01b0316816001600160a01b0316837f2f8788117e7eff1d82e926ec794901d17c78024a50270940304540a733656f0d60405160405180910390a45050565b6000828152601360205260409020613a3f9082613b06565b15610fa457613a4c6139ba565b6001600160a01b0316816001600160a01b0316837ff6391f5c32d9c69d2a47ea670b442974b53935d1edc7fd64eb21e047a839171b60405160405180910390a45050565b60006129838383613b1b565b6000612983836001600160a01b038416613b7f565b600061204b82613b97565b6000613ac88383613b7f565b613afe5750815460018181018455600084815260208082209093018490558454848252828601909352604090209190915561204b565b50600061204b565b6000612983836001600160a01b038416613b9b565b81546000908210613b5d5760405162461bcd60e51b8152600401808060200182810382526022815260200180613c626022913960400191505060405180910390fd5b826000018281548110613b6c57fe5b9060005260206000200154905092915050565b60009081526001919091016020526040902054151590565b5490565b60008181526001830160205260408120548015613c575783546000198083019190810190600090879083908110613bce57fe5b9060005260206000200154905080876000018481548110613beb57fe5b600091825260208083209091019290925582815260018981019092526040902090840190558654879080613c1b57fe5b6001900381819060005260206000200160009055905586600101600087815260200190815260200160002060009055600194505050505061204b565b600091505061204b56fe456e756d657261626c655365743a20696e646578206f7574206f6620626f756e6473416363657373436f6e74726f6c3a2073656e646572206d75737420626520616e2061646d696e20746f206772616e74416363657373436f6e74726f6c3a2073656e646572206d75737420626520616e2061646d696e20746f207265766f6b65546f6b616d616b5374616b65723a207a65726f20616464726573730000000000df8b4c520ffe197c5343c6f5aec59570151ef9a492f2c624fd45ddde6135ec42546f6b616d616b5374616b65723a2043616c6c6572206973206e6f7420616e2061646d696e416363657373436f6e74726f6c3a2063616e206f6e6c792072656e6f756e636520726f6c657320666f722073656c66a2646970667358221220d6af128f8933f260219f003e91fda488b02583131ddcd5127b15669511ae9e4b64736f6c63430007060033df8b4c520ffe197c5343c6f5aec59570151ef9a492f2c624fd45ddde6135ec425374616b65544f4e466163746f72793a206465706c6f7920696e6974206661696ca2646970667358221220e9f96ff412d974c8815de42792d972858e0e337f68982ede0544854ebb430d6364736f6c63430007060033",
  "immutableReferences": {},
  "source": "// SPDX-License-Identifier: MIT\npragma solidity ^0.7.6;\n\nimport {IStake1Vault} from \"../interfaces/IStake1Vault.sol\";\nimport {IStakeTON} from \"../interfaces/IStakeTON.sol\";\n\nimport {StakeTON} from \"../stake/StakeTON.sol\";\nimport {StakeTONProxy} from \"../stake/StakeTONProxy.sol\";\n\ncontract StakeTONFactory {\n    bytes32 public constant ADMIN_ROLE = keccak256(\"ADMIN\");\n\n    function deploy(\n        uint256 _pahse,\n        address _vault,\n        address _token,\n        address _paytoken,\n        uint256 _period,\n        address[4] memory tokamakAddr,\n        address owner\n    ) public returns (address) {\n        require(\n            _vault != address(0) && _pahse == 1,\n            \"StakeTONFactory: deploy init fail\"\n        );\n\n        IStake1Vault vault = IStake1Vault(_vault);\n        uint256 saleStart = vault.saleStartBlock();\n        uint256 stakeStart = vault.stakeStartBlock();\n        address defiAddr = vault.defiAddr();\n        uint256 period = _period;\n\n        require(\n            saleStart < stakeStart && stakeStart > 0,\n            \"StakeTONFactory: start error\"\n        );\n\n        StakeTONProxy proxy = new StakeTONProxy();\n        StakeTON logic = new StakeTON();\n        proxy.upgradeTo(address(logic));\n\n\n        IStakeTON(address(proxy)).initialize(\n            _token,\n            _paytoken,\n            address(vault),\n            saleStart,\n            stakeStart,\n            period\n        );\n        IStakeTON(address(proxy)).setTokamak(\n            tokamakAddr[0],\n            tokamakAddr[1],\n            tokamakAddr[2],\n            tokamakAddr[3],\n            defiAddr\n        );\n\n        // vault.addSubVaultOfStake(_name, address(proxy), period);\n        proxy.grantRole(ADMIN_ROLE, owner);\n        proxy.revokeRole(ADMIN_ROLE, address(this));\n        return address(proxy);\n    }\n}\n",
  "sourcePath": "/Users/zena/ico2.0/ico20-contracts/contracts/factory/StakeTONFactory.sol",
  "compiler": {
    "name": "solc",
    "version": "0.7.6+commit.7338295f.Emscripten.clang"
  },
  "schemaVersion": "3.3.4",
  "updatedAt": "2021-05-17T15:11:33.410Z",
  "devdoc": {
    "kind": "dev",
    "methods": {},
    "version": 1
  },
  "userdoc": {
    "kind": "user",
    "methods": {},
    "version": 1
  }
}