{
  "contractName": "StakeTON",
  "abi": [
    {
      "inputs": [],
      "stateMutability": "nonpayable",
      "type": "constructor"
    },
    {
      "anonymous": false,
      "inputs": [
        {
          "indexed": true,
          "internalType": "address",
          "name": "to",
          "type": "address"
        },
        {
          "indexed": false,
          "internalType": "uint256",
          "name": "amount",
          "type": "uint256"
        },
        {
          "indexed": false,
          "internalType": "uint256",
          "name": "currentBlcok",
          "type": "uint256"
        }
      ],
      "name": "Claimed",
      "type": "event"
    },
    {
      "anonymous": false,
      "inputs": [
        {
          "indexed": true,
          "internalType": "bytes32",
          "name": "role",
          "type": "bytes32"
        },
        {
          "indexed": true,
          "internalType": "bytes32",
          "name": "previousAdminRole",
          "type": "bytes32"
        },
        {
          "indexed": true,
          "internalType": "bytes32",
          "name": "newAdminRole",
          "type": "bytes32"
        }
      ],
      "name": "RoleAdminChanged",
      "type": "event"
    },
    {
      "anonymous": false,
      "inputs": [
        {
          "indexed": true,
          "internalType": "bytes32",
          "name": "role",
          "type": "bytes32"
        },
        {
          "indexed": true,
          "internalType": "address",
          "name": "account",
          "type": "address"
        },
        {
          "indexed": true,
          "internalType": "address",
          "name": "sender",
          "type": "address"
        }
      ],
      "name": "RoleGranted",
      "type": "event"
    },
    {
      "anonymous": false,
      "inputs": [
        {
          "indexed": true,
          "internalType": "bytes32",
          "name": "role",
          "type": "bytes32"
        },
        {
          "indexed": true,
          "internalType": "address",
          "name": "account",
          "type": "address"
        },
        {
          "indexed": true,
          "internalType": "address",
          "name": "sender",
          "type": "address"
        }
      ],
      "name": "RoleRevoked",
      "type": "event"
    },
    {
      "anonymous": false,
      "inputs": [
        {
          "indexed": false,
          "internalType": "address",
          "name": "registry",
          "type": "address"
        },
        {
          "indexed": false,
          "internalType": "address",
          "name": "defiAddr",
          "type": "address"
        }
      ],
      "name": "SetRegistryNDefi",
      "type": "event"
    },
    {
      "anonymous": false,
      "inputs": [
        {
          "indexed": false,
          "internalType": "address",
          "name": "layer2",
          "type": "address"
        }
      ],
      "name": "SetTokamakLayer2",
      "type": "event"
    },
    {
      "anonymous": false,
      "inputs": [
        {
          "indexed": false,
          "internalType": "address",
          "name": "router",
          "type": "address"
        }
      ],
      "name": "SetUniswapRouter",
      "type": "event"
    },
    {
      "anonymous": false,
      "inputs": [
        {
          "indexed": true,
          "internalType": "address",
          "name": "to",
          "type": "address"
        },
        {
          "indexed": false,
          "internalType": "uint256",
          "name": "amount",
          "type": "uint256"
        }
      ],
      "name": "Staked",
      "type": "event"
    },
    {
      "anonymous": false,
      "inputs": [
        {
          "indexed": true,
          "internalType": "address",
          "name": "to",
          "type": "address"
        },
        {
          "indexed": false,
          "internalType": "uint256",
          "name": "amount",
          "type": "uint256"
        }
      ],
      "name": "Withdrawal",
      "type": "event"
    },
    {
      "anonymous": false,
      "inputs": [
        {
          "indexed": false,
          "internalType": "address",
          "name": "layer2",
          "type": "address"
        },
        {
          "indexed": false,
          "internalType": "uint256",
          "name": "rn",
          "type": "uint256"
        },
        {
          "indexed": false,
          "internalType": "bool",
          "name": "receiveTON",
          "type": "bool"
        }
      ],
      "name": "tokamakProcessedUnStaking",
      "type": "event"
    },
    {
      "anonymous": false,
      "inputs": [
        {
          "indexed": false,
          "internalType": "address",
          "name": "layer2",
          "type": "address"
        }
      ],
      "name": "tokamakRequestedUnStakingAll",
      "type": "event"
    },
    {
      "anonymous": false,
      "inputs": [
        {
          "indexed": false,
          "internalType": "address",
          "name": "layer2",
          "type": "address"
        }
      ],
      "name": "tokamakRequestedUnStakingReward",
      "type": "event"
    },
    {
      "anonymous": false,
      "inputs": [
        {
          "indexed": false,
          "internalType": "address",
          "name": "layer2",
          "type": "address"
        },
        {
          "indexed": false,
          "internalType": "uint256",
          "name": "amount",
          "type": "uint256"
        }
      ],
      "name": "tokamakStaked",
      "type": "event"
    },
    {
      "inputs": [],
      "name": "ADMIN_ROLE",
      "outputs": [
        {
          "internalType": "bytes32",
          "name": "",
          "type": "bytes32"
        }
      ],
      "stateMutability": "view",
      "type": "function"
    },
    {
      "inputs": [],
      "name": "DEFAULT_ADMIN_ROLE",
      "outputs": [
        {
          "internalType": "bytes32",
          "name": "",
          "type": "bytes32"
        }
      ],
      "stateMutability": "view",
      "type": "function"
    },
    {
      "inputs": [
        {
          "internalType": "uint256",
          "name": "amount",
          "type": "uint256"
        }
      ],
      "name": "approveUniswapRouter",
      "outputs": [],
      "stateMutability": "nonpayable",
      "type": "function"
    },
    {
      "inputs": [],
      "name": "defiStatus",
      "outputs": [
        {
          "internalType": "uint256",
          "name": "",
          "type": "uint256"
        }
      ],
      "stateMutability": "view",
      "type": "function"
    },
    {
      "inputs": [],
      "name": "endBlock",
      "outputs": [
        {
          "internalType": "uint256",
          "name": "",
          "type": "uint256"
        }
      ],
      "stateMutability": "view",
      "type": "function"
    },
    {
      "inputs": [],
      "name": "fromTokamak",
      "outputs": [
        {
          "internalType": "uint256",
          "name": "",
          "type": "uint256"
        }
      ],
      "stateMutability": "view",
      "type": "function"
    },
    {
      "inputs": [
        {
          "internalType": "bytes32",
          "name": "role",
          "type": "bytes32"
        }
      ],
      "name": "getRoleAdmin",
      "outputs": [
        {
          "internalType": "bytes32",
          "name": "",
          "type": "bytes32"
        }
      ],
      "stateMutability": "view",
      "type": "function"
    },
    {
      "inputs": [
        {
          "internalType": "bytes32",
          "name": "role",
          "type": "bytes32"
        },
        {
          "internalType": "uint256",
          "name": "index",
          "type": "uint256"
        }
      ],
      "name": "getRoleMember",
      "outputs": [
        {
          "internalType": "address",
          "name": "",
          "type": "address"
        }
      ],
      "stateMutability": "view",
      "type": "function"
    },
    {
      "inputs": [
        {
          "internalType": "bytes32",
          "name": "role",
          "type": "bytes32"
        }
      ],
      "name": "getRoleMemberCount",
      "outputs": [
        {
          "internalType": "uint256",
          "name": "",
          "type": "uint256"
        }
      ],
      "stateMutability": "view",
      "type": "function"
    },
    {
      "inputs": [
        {
          "internalType": "bytes32",
          "name": "role",
          "type": "bytes32"
        },
        {
          "internalType": "address",
          "name": "account",
          "type": "address"
        }
      ],
      "name": "grantRole",
      "outputs": [],
      "stateMutability": "nonpayable",
      "type": "function"
    },
    {
      "inputs": [
        {
          "internalType": "bytes32",
          "name": "role",
          "type": "bytes32"
        },
        {
          "internalType": "address",
          "name": "account",
          "type": "address"
        }
      ],
      "name": "hasRole",
      "outputs": [
        {
          "internalType": "bool",
          "name": "",
          "type": "bool"
        }
      ],
      "stateMutability": "view",
      "type": "function"
    },
    {
      "inputs": [],
      "name": "paytoken",
      "outputs": [
        {
          "internalType": "address",
          "name": "",
          "type": "address"
        }
      ],
      "stateMutability": "view",
      "type": "function"
    },
    {
      "inputs": [
        {
          "internalType": "bytes32",
          "name": "role",
          "type": "bytes32"
        },
        {
          "internalType": "address",
          "name": "account",
          "type": "address"
        }
      ],
      "name": "renounceRole",
      "outputs": [],
      "stateMutability": "nonpayable",
      "type": "function"
    },
    {
      "inputs": [],
      "name": "requestNum",
      "outputs": [
        {
          "internalType": "uint256",
          "name": "",
          "type": "uint256"
        }
      ],
      "stateMutability": "view",
      "type": "function"
    },
    {
      "inputs": [
        {
          "internalType": "bytes32",
          "name": "role",
          "type": "bytes32"
        },
        {
          "internalType": "address",
          "name": "account",
          "type": "address"
        }
      ],
      "name": "revokeRole",
      "outputs": [],
      "stateMutability": "nonpayable",
      "type": "function"
    },
    {
      "inputs": [],
      "name": "rewardClaimedTotal",
      "outputs": [
        {
          "internalType": "uint256",
          "name": "",
          "type": "uint256"
        }
      ],
      "stateMutability": "view",
      "type": "function"
    },
    {
      "inputs": [],
      "name": "saleStartBlock",
      "outputs": [
        {
          "internalType": "uint256",
          "name": "",
          "type": "uint256"
        }
      ],
      "stateMutability": "view",
      "type": "function"
    },
    {
      "inputs": [
        {
          "internalType": "address",
          "name": "_registry",
          "type": "address"
        },
        {
          "internalType": "address",
          "name": "_defiAddr",
          "type": "address"
        }
      ],
      "name": "setRegistryNDefi",
      "outputs": [],
      "stateMutability": "nonpayable",
      "type": "function"
    },
    {
      "inputs": [
        {
          "internalType": "address",
          "name": "_layer2",
          "type": "address"
        }
      ],
      "name": "setTokamakLayer2",
      "outputs": [],
      "stateMutability": "nonpayable",
      "type": "function"
    },
    {
      "inputs": [
        {
          "internalType": "address",
          "name": "_router",
          "type": "address"
        }
      ],
      "name": "setUniswapRouter",
      "outputs": [],
      "stateMutability": "nonpayable",
      "type": "function"
    },
    {
      "inputs": [],
      "name": "stakeRegistry",
      "outputs": [
        {
          "internalType": "address",
          "name": "",
          "type": "address"
        }
      ],
      "stateMutability": "view",
      "type": "function"
    },
    {
      "inputs": [],
      "name": "startBlock",
      "outputs": [
        {
          "internalType": "uint256",
          "name": "",
          "type": "uint256"
        }
      ],
      "stateMutability": "view",
      "type": "function"
    },
    {
      "inputs": [],
      "name": "toTokamak",
      "outputs": [
        {
          "internalType": "uint256",
          "name": "",
          "type": "uint256"
        }
      ],
      "stateMutability": "view",
      "type": "function"
    },
    {
      "inputs": [],
      "name": "toUniswapTON",
      "outputs": [
        {
          "internalType": "uint256",
          "name": "",
          "type": "uint256"
        }
      ],
      "stateMutability": "view",
      "type": "function"
    },
    {
      "inputs": [],
      "name": "tokamakLayer2",
      "outputs": [
        {
          "internalType": "address",
          "name": "",
          "type": "address"
        }
      ],
      "stateMutability": "view",
      "type": "function"
    },
    {
      "inputs": [
        {
          "internalType": "address",
          "name": "_layer2",
          "type": "address"
        },
        {
          "internalType": "bool",
          "name": "receiveTON",
          "type": "bool"
        }
      ],
      "name": "tokamakProcessUnStaking",
      "outputs": [],
      "stateMutability": "nonpayable",
      "type": "function"
    },
    {
      "inputs": [
        {
          "internalType": "address",
          "name": "_layer2",
          "type": "address"
        }
      ],
      "name": "tokamakRequestUnStakingAll",
      "outputs": [],
      "stateMutability": "nonpayable",
      "type": "function"
    },
    {
      "inputs": [
        {
          "internalType": "address",
          "name": "_layer2",
          "type": "address"
        }
      ],
      "name": "tokamakRequestUnStakingReward",
      "outputs": [],
      "stateMutability": "nonpayable",
      "type": "function"
    },
    {
      "inputs": [
        {
          "internalType": "address",
          "name": "_layer2",
          "type": "address"
        }
      ],
      "name": "tokamakStaking",
      "outputs": [],
      "stateMutability": "nonpayable",
      "type": "function"
    },
    {
      "inputs": [],
      "name": "token",
      "outputs": [
        {
          "internalType": "address",
          "name": "",
          "type": "address"
        }
      ],
      "stateMutability": "view",
      "type": "function"
    },
    {
      "inputs": [],
      "name": "totalStakedAmount",
      "outputs": [
        {
          "internalType": "uint256",
          "name": "",
          "type": "uint256"
        }
      ],
      "stateMutability": "view",
      "type": "function"
    },
    {
      "inputs": [],
      "name": "totalStakers",
      "outputs": [
        {
          "internalType": "uint256",
          "name": "",
          "type": "uint256"
        }
      ],
      "stateMutability": "view",
      "type": "function"
    },
    {
      "inputs": [],
      "name": "uniswapRouter",
      "outputs": [
        {
          "internalType": "address",
          "name": "",
          "type": "address"
        }
      ],
      "stateMutability": "view",
      "type": "function"
    },
    {
      "inputs": [
        {
          "internalType": "address",
          "name": "",
          "type": "address"
        }
      ],
      "name": "userStaked",
      "outputs": [
        {
          "internalType": "uint256",
          "name": "amount",
          "type": "uint256"
        },
        {
          "internalType": "uint256",
          "name": "claimedBlock",
          "type": "uint256"
        },
        {
          "internalType": "uint256",
          "name": "claimedAmount",
          "type": "uint256"
        },
        {
          "internalType": "uint256",
          "name": "releasedBlock",
          "type": "uint256"
        },
        {
          "internalType": "uint256",
          "name": "releasedAmount",
          "type": "uint256"
        },
        {
          "internalType": "bool",
          "name": "released",
          "type": "bool"
        }
      ],
      "stateMutability": "view",
      "type": "function"
    },
    {
      "inputs": [],
      "name": "vault",
      "outputs": [
        {
          "internalType": "address",
          "name": "",
          "type": "address"
        }
      ],
      "stateMutability": "view",
      "type": "function"
    },
    {
      "stateMutability": "payable",
      "type": "receive"
    },
    {
      "inputs": [
        {
          "internalType": "uint256",
          "name": "amount",
          "type": "uint256"
        }
      ],
      "name": "stake",
      "outputs": [],
      "stateMutability": "payable",
      "type": "function"
    },
    {
      "inputs": [],
      "name": "withdraw",
      "outputs": [],
      "stateMutability": "nonpayable",
      "type": "function"
    },
    {
      "inputs": [],
      "name": "claim",
      "outputs": [],
      "stateMutability": "nonpayable",
      "type": "function"
    },
    {
      "inputs": [
        {
          "internalType": "address",
          "name": "account",
          "type": "address"
        },
        {
          "internalType": "uint256",
          "name": "specilaBlock",
          "type": "uint256"
        }
      ],
      "name": "canRewardAmount",
      "outputs": [
        {
          "internalType": "uint256",
          "name": "",
          "type": "uint256"
        }
      ],
      "stateMutability": "view",
      "type": "function"
    }
  ],
  "bytecode": "0x60806040523480156200001157600080fd5b506200002d60008051602062003a53833981519152806200004e565b6200004860008051602062003a5383398151915233620000a0565b620001b6565b600082815260136020526040808220600201549051839285917fbd79b86ffe0ab8e8776151514217cd7cacd52c909f66475c3af44e129f0b00ff9190a460009182526013602052604090912060020155565b620000ac8282620000b0565b5050565b6000828152601360209081526040909120620000d7918390620032326200012b821b17901c565b15620000ac57620000e76200014b565b6001600160a01b0316816001600160a01b0316837f2f8788117e7eff1d82e926ec794901d17c78024a50270940304540a733656f0d60405160405180910390a45050565b600062000142836001600160a01b0384166200014f565b90505b92915050565b3390565b60006200015d83836200019e565b620001955750815460018181018455600084815260208082209093018490558454848252828601909352604090209190915562000145565b50600062000145565b60009081526001919091016020526040902054151590565b61388d80620001c66000396000f3fe6080604052600436106102345760003560e01c8063869890381161012e578063bea9849e116100ab578063e09974b91161006f578063e09974b91461077a578063fa3733d61461078f578063fbfa77cf146107ca578063fc0c546a146107df578063fd7fa460146107f457610244565b8063bea9849e14610676578063c434d64d146106a9578063ca15c873146106dc578063cb3e0dfa14610706578063d547741f1461074157610244565b8063a217fddf116100f2578063a217fddf14610594578063a694fc3a146105a9578063a6e8670e146105c6578063acc3a939146105f9578063b2d4d6a31461066157610244565b806386989038146104ba5780638caae1e3146104cf5780639010d07c1461050257806391d148541461053257806392ea3b4c1461057f57610244565b806343b0934a116101bc5780636830483511610180578063683048351461043357806371def0b314610448578063722853261461047b578063735de9f71461049057806375b238fc146104a557610244565b806343b0934a1461038a57806348cd4cb1146103bb5780634e71d92d146103d0578063567e98f9146103e557806367cf3e18146103fa57610244565b80632e0fac6b116102035780632e0fac6b146102c45780632f2ff15d146102d957806336568abe146103125780633ccfd60b1461034b5780633cdcdbe71461036057610244565b8063083c6323146102495780630ac8e0f3146102705780632002727514610285578063248a9ca31461029a57610244565b366102445761024234610809565b005b600080fd5b34801561025557600080fd5b5061025e610b6b565b60408051918252519081900360200190f35b34801561027c57600080fd5b5061025e610b71565b34801561029157600080fd5b5061025e610b77565b3480156102a657600080fd5b5061025e600480360360208110156102bd57600080fd5b5035610b7d565b3480156102d057600080fd5b5061025e610b92565b3480156102e557600080fd5b50610242600480360360408110156102fc57600080fd5b50803590602001356001600160a01b0316610b98565b34801561031e57600080fd5b506102426004803603604081101561033557600080fd5b50803590602001356001600160a01b0316610c04565b34801561035757600080fd5b50610242610c65565b34801561036c57600080fd5b506102426004803603602081101561038357600080fd5b5035611285565b34801561039657600080fd5b5061039f61135e565b604080516001600160a01b039092168252519081900360200190f35b3480156103c757600080fd5b5061025e61136d565b3480156103dc57600080fd5b50610242611373565b3480156103f157600080fd5b5061025e6116d8565b34801561040657600080fd5b5061025e6004803603604081101561041d57600080fd5b506001600160a01b0381351690602001356116de565b34801561043f57600080fd5b5061039f611aaa565b34801561045457600080fd5b506102426004803603602081101561046b57600080fd5b50356001600160a01b0316611ab9565b34801561048757600080fd5b5061025e611d97565b34801561049c57600080fd5b5061039f611d9d565b3480156104b157600080fd5b5061025e611dac565b3480156104c657600080fd5b5061025e611dbe565b3480156104db57600080fd5b50610242600480360360208110156104f257600080fd5b50356001600160a01b0316611dc4565b34801561050e57600080fd5b5061039f6004803603604081101561052557600080fd5b50803590602001356124ce565b34801561053e57600080fd5b5061056b6004803603604081101561055557600080fd5b50803590602001356001600160a01b03166124e6565b604080519115158252519081900360200190f35b34801561058b57600080fd5b5061039f6124fe565b3480156105a057600080fd5b5061025e61250d565b610242600480360360208110156105bf57600080fd5b5035610809565b3480156105d257600080fd5b50610242600480360360208110156105e957600080fd5b50356001600160a01b0316612512565b34801561060557600080fd5b5061062c6004803603602081101561061c57600080fd5b50356001600160a01b0316612626565b6040805196875260208701959095528585019390935260608501919091526080840152151560a0830152519081900360c00190f35b34801561066d57600080fd5b5061025e61265e565b34801561068257600080fd5b506102426004803603602081101561069957600080fd5b50356001600160a01b0316612664565b3480156106b557600080fd5b50610242600480360360208110156106cc57600080fd5b50356001600160a01b03166127c6565b3480156106e857600080fd5b5061025e600480360360208110156106ff57600080fd5b5035612bc3565b34801561071257600080fd5b506102426004803603604081101561072957600080fd5b506001600160a01b0381358116916020013516612bda565b34801561074d57600080fd5b506102426004803603604081101561076457600080fd5b50803590602001356001600160a01b0316612ce7565b34801561078657600080fd5b5061025e612d40565b34801561079b57600080fd5b50610242600480360360408110156107b257600080fd5b506001600160a01b0381351690602001351515612d46565b3480156107d657600080fd5b5061039f61320e565b3480156107eb57600080fd5b5061039f61321d565b34801561080057600080fd5b5061025e61322c565b6001546001600160a01b031615801561082157508034145b8061084157506001546001600160a01b0316158015906108415750600081115b61087b576040805162461bcd60e51b815260206004808301919091526024820152637a65726f60e01b604482015290519081900360640190fd5b600354431015801561088e575060045443105b6108cd576040805162461bcd60e51b815260206004820152600b60248201526a756e617661696c61626c6560a81b604482015290519081900360640190fd5b600260009054906101000a90046001600160a01b03166001600160a01b031663b8c766b86040518163ffffffff1660e01b815260040160206040518083038186803b15801561091b57600080fd5b505afa15801561092f573d6000803e3d6000fd5b505050506040513d602081101561094557600080fd5b505115610983576040805162461bcd60e51b81526020600482015260076024820152661b9bdd08195b9960ca1b604482015290519081900360640190fd5b6001546001600160a01b031661099a575034610a4c565b600154604080516370a0823160e01b8152336004820152905183926001600160a01b0316916370a08231916024808301926020929190829003018186803b1580156109e457600080fd5b505afa1580156109f8573d6000803e3d6000fd5b505050506040513d6020811015610a0e57600080fd5b50511015610a4c576040805162461bcd60e51b815260206004808301919091526024820152636c61636b60e01b604482015290519081900360640190fd5b3360009081526008602052604090208054610a7357600954610a6f906001613247565b6009555b8054610a7f9083613247565b8155600754610a8e9083613247565b6007556001546001600160a01b031615610b3157600154604080516323b872dd60e01b81523360048201523060248201526044810185905290516001600160a01b03909216916323b872dd916064808201926020929091908290030181600087803b158015610afc57600080fd5b505af1158015610b10573d6000803e3d6000fd5b505050506040513d6020811015610b2657600080fd5b5051610b3157600080fd5b60408051838152905133917f9e71bc8eea02a63969f509818f2dafb9254532904319f9dbda79b67bd34a5f3d919081900360200190a25050565b60055481565b600f5481565b60035481565b60009081526013602052604090206002015490565b60105481565b600082815260136020526040902060020154610bbb90610bb66132a1565b6124e6565b610bf65760405162461bcd60e51b815260040180806020018281038252602f815260200180613744602f913960400191505060405180910390fd5b610c0082826132a5565b5050565b610c0c6132a1565b6001600160a01b0316816001600160a01b031614610c5b5760405162461bcd60e51b815260040180806020018281038252602f815260200180613829602f913960400191505060405180910390fd5b610c00828261330e565b6000600554118015610c78575043600554105b610cb3576040805162461bcd60e51b81526020600482015260076024820152661b9bdd08195b9960ca1b604482015290519081900360640190fd5b600080600080600b60009054906101000a90046001600160a01b03166001600160a01b031663a782ebd56040518163ffffffff1660e01b815260040160806040518083038186803b158015610d0757600080fd5b505afa158015610d1b573d6000803e3d6000fd5b505050506040513d6080811015610d3157600080fd5b50805160208201516040830151606090930151919650945090925090506001600160a01b03841615801590610d6e57506001600160a01b03831615155b8015610d8257506001600160a01b03821615155b8015610d9657506001600160a01b03811615155b610ddf576040805162461bcd60e51b815260206004820152601560248201527449546f6b616d616b5265676973747279207a65726f60581b604482015290519081900360640190fd5b600c546001600160a01b031615610f4957600c54604080516367265c3b60e11b81526001600160a01b03928316600482015230602482015290519183169163ce4cb87691604480820192602092909190829003018186803b158015610e4357600080fd5b505afa158015610e57573d6000803e3d6000fd5b505050506040513d6020811015610e6d57600080fd5b5051158015610ef85750600c5460408051632638fdf560e01b81526001600160a01b039283166004820152306024820152905191841691632638fdf591604480820192602092909190829003018186803b158015610eca57600080fd5b505afa158015610ede573d6000803e3d6000fd5b505050506040513d6020811015610ef457600080fd5b5051155b610f49576040805162461bcd60e51b815260206004820152601860248201527f72656d61696e20616d6f756e7420696e20746f6b616d616b0000000000000000604482015290519081900360640190fd5b336000908152600860205260409020600581015460ff1615610fa5576040805162461bcd60e51b815260206004820152601060248201526f416c726561647920776974686472617760801b604482015290519081900360640190fd5b805443600383015560058201805460ff19166001908117909155546001600160a01b03908116908716146110215781546004830154111561101c576040805162461bcd60e51b815260206004820152600c60248201526b416d6f756e742077726f6e6760a01b604482015290519081900360640190fd5b611085565b6001546001600160a01b03878116911614156110855761108260075461107c8460000154611076611061633b9aca00600f5461337790919063ffffffff16565b600e54600754611070916133b9565b90613247565b906133fb565b90613377565b90505b600081116110c9576040805162461bcd60e51b815260206004820152600c60248201526b416d6f756e742077726f6e6760a01b604482015290519081900360640190fd5b600482018190556001546001600160a01b0316611186573080318211156110ef57600080fd5b604051600090339084908381818185875af1925050503d8060008114611131576040519150601f19603f3d011682016040523d82523d6000602084013e611136565b606091505b505090508061117f576040805162461bcd60e51b815260206004820152601060248201526f3bb4ba34323930bb903330b4b632b21760811b604482015290519081900360640190fd5b5050611247565b6001546040805163a9059cbb60e01b81523360048201526024810184905290516001600160a01b039092169163a9059cbb916044808201926020929091908290030181600087803b1580156111da57600080fd5b505af11580156111ee573d6000803e3d6000fd5b505050506040513d602081101561120457600080fd5b5051611247576040805162461bcd60e51b815260206004820152600d60248201526c1d1c985b9cd9995c8819985a5b609a1b604482015290519081900360640190fd5b60408051828152905133917f7fcf532c15f0a6db0bd6d0e038bea71d30d808c7d98cb3bf7268a95bf5081b65919081900360200190a2505050505050565b600154600d546040805163095ea7b360e01b81526001600160a01b039283166004820152602481018590529051919092169163095ea7b39160448083019260209291908290030181600087803b1580156112de57600080fd5b505af11580156112f2573d6000803e3d6000fd5b505050506040513d602081101561130857600080fd5b505161135b576040805162461bcd60e51b815260206004820152601b60248201527f546f6b616d616b5374616b65723a20617070726f7665206661696c0000000000604482015290519081900360640190fd5b50565b6001546001600160a01b031681565b60045481565b600a54156113b1576040805162461bcd60e51b81526020600482015260066024820152651313d0d2d15160d21b604482015290519081900360640190fd5b6001600a5560025460408051631718ecd760e31b815290516001600160a01b039092169163b8c766b891600480820192602092909190829003018186803b1580156113fb57600080fd5b505afa15801561140f573d6000803e3d6000fd5b505050506040513d602081101561142557600080fd5b5051151560011461146a576040805162461bcd60e51b815260206004820152600a6024820152691b9bdd0818db1bdcd95960b21b604482015290519081900360640190fd5b3360009081526008602052604081206005546001820154106114bd576040805162461bcd60e51b815260206004820152600760248201526618db185a5b595960ca1b604482015290519081900360640190fd5b6114c733436116de565b91506000821161150f576040805162461bcd60e51b815260206004820152600e60248201526d726577617264206973207a65726f60901b604482015290519081900360640190fd5b6002546040805163032f7adb60e61b815230600482015290516000926001600160a01b03169163cbdeb6c0916024808301926020929190829003018186803b15801561155a57600080fd5b505afa15801561156e573d6000803e3d6000fd5b505050506040513d602081101561158457600080fd5b505160065490915081906115989085613247565b11156115e2576040805162461bcd60e51b8152602060048201526014602482015273746f74616c20726577617264206578636565647360601b604482015290519081900360640190fd5b43600183015560028201546115f79084613247565b60028301556006546116099084613247565b60065560025460408051635569f64b60e11b81523360048201526024810186905290516001600160a01b039092169163aad3ec96916044808201926020929091908290030181600087803b15801561166057600080fd5b505af1158015611674573d6000803e3d6000fd5b505050506040513d602081101561168a57600080fd5b505161169557600080fd5b60408051848152436020820152815133927f987d620f307ff6b94d58743cb7a7509f24071586a77759b77c2d4e29f75a2f9a928290030190a250506000600a5550565b60075481565b60055460009081908311156116f35760055492505b60045483108061171957506001600160a01b038416600090815260086020526040902054155b8061174057506005546001600160a01b038516600090815260086020526040902060010154115b8061176557506001600160a01b03841660009081526008602052604090206001015483105b1561177257506000611aa1565b6004546005546001600160a01b0386166000908152600860205260409020600101548210156117ba576001600160a01b03861660009081526008602052604090206001015491505b808510156117c55750835b6002546040805163c1b422fd60e01b815290516000926001600160a01b03169163c1b422fd9160048083019286929190829003018186803b15801561180957600080fd5b505afa15801561181d573d6000803e3d6000fd5b505050506040513d6000823e601f3d908101601f19168201604052602081101561184657600080fd5b810190808051604051939291908464010000000082111561186657600080fd5b90830190602082018581111561187b57600080fd5b825186602082028301116401000000008211171561189857600080fd5b82525081516020918201928201910280838360005b838110156118c55781810151838201526020016118ad565b505050509050016040525050509050600081511115611a9d576002546040805163d105bf8560e01b815290516000928692849283926001600160a01b03169163d105bf85916004808301926020929190829003018186803b15801561192957600080fd5b505afa15801561193d573d6000803e3d6000fd5b505050506040513d602081101561195357600080fd5b50516001600160a01b038c166000908152600860205260408120549192508c91905b8751811015611a955787818151811061198a57fe5b60209081029190910181015160025460408051632f8deb1560e11b8152600481018490529051929a506001600160a01b0390911692635f1bd62a92602480840193829003018186803b1580156119df57600080fd5b505afa1580156119f3573d6000803e3d6000fd5b505050506040513d6020811015611a0957600080fd5b505194506000611a198a8c6133b9565b90506000611a27898d6133b9565b905088881115611a3657611a8b565b888b11611a69578615611a6257611a5f611a588861107c876110768b886133fb565b8e90613247565b9c505b5050611a95565b8615611a8757611a84611a588861107c876110768b876133fb565b9c505b889b505b5050600101611975565b505050505050505b5050505b90505b92915050565b600b546001600160a01b031681565b600a5415611af7576040805162461bcd60e51b81526020600482015260066024820152651313d0d2d15160d21b604482015290519081900360640190fd5b6001600a55600b546001600160a01b031680611b48576040805162461bcd60e51b815260206004820152601b60248201526000805160206137c4833981519152604482015290519081900360640190fd5b600c5482906001600160a01b03808316911614611b9e576040805162461bcd60e51b815260206004820152600f60248201526e3234b33332b932b73a103630bcb2b960891b604482015290519081900360640190fd5b601254611bac906001613247565b601255600b546040805163a782ebd560e01b815290516000928392839283926001600160a01b03169163a782ebd5916004808301926080929190829003018186803b158015611bfa57600080fd5b505afa158015611c0e573d6000803e3d6000fd5b505050506040513d6080811015611c2457600080fd5b50805160208201516040830151606090930151919650945090925090506001600160a01b03841615801590611c6157506001600160a01b03831615155b8015611c7557506001600160a01b03821615155b8015611c8957506001600160a01b03811615155b611cd2576040805162461bcd60e51b815260206004820152601560248201527449546f6b616d616b5265676973747279207a65726f60581b604482015290519081900360640190fd5b816001600160a01b0316636b2160b7886040518263ffffffff1660e01b815260040180826001600160a01b03168152602001915050602060405180830381600087803b158015611d2157600080fd5b505af1158015611d35573d6000803e3d6000fd5b505050506040513d6020811015611d4b57600080fd5b5050604080516001600160a01b038916815290517ff5ce649f20a9ec3170091cbbbb6aff6a879655e0d7f20acae0ab8a66c2fcc8e89181900360200190a150506000600a555050505050565b60115481565b600d546001600160a01b031690565b6000805160206137e483398151915281565b60095481565b600a5415611e02576040805162461bcd60e51b81526020600482015260066024820152651313d0d2d15160d21b604482015290519081900360640190fd5b6001600a55600b546001600160a01b031680611e53576040805162461bcd60e51b815260206004820152601b60248201526000805160206137c4833981519152604482015290519081900360640190fd5b816001600160a01b038116611e9d576040805162461bcd60e51b815260206004820152601b60248201526000805160206137c4833981519152604482015290519081900360640190fd5b600554431115611ee1576040805162461bcd60e51b815260206004820152600a6024820152691c195c9a5bd908195b9960b21b604482015290519081900360640190fd5b600260009054906101000a90046001600160a01b03166001600160a01b031663b8c766b86040518163ffffffff1660e01b815260040160206040518083038186803b158015611f2f57600080fd5b505afa158015611f43573d6000803e3d6000fd5b505050506040513d6020811015611f5957600080fd5b50511515600114611f9e576040805162461bcd60e51b815260206004820152600a6024820152691b9bdd0818db1bdcd95960b21b604482015290519081900360640190fd5b600080600080600b60009054906101000a90046001600160a01b03166001600160a01b031663a782ebd56040518163ffffffff1660e01b815260040160806040518083038186803b158015611ff257600080fd5b505afa158015612006573d6000803e3d6000fd5b505050506040513d608081101561201c57600080fd5b50805160208201516040830151606090930151919650945090925090506001600160a01b0384161580159061205957506001600160a01b03831615155b801561206d57506001600160a01b03821615155b801561208157506001600160a01b03811615155b6120ca576040805162461bcd60e51b815260206004820152601560248201527449546f6b616d616b5265676973747279207a65726f60581b604482015290519081900360640190fd5b6000846001600160a01b03166370a08231306040518263ffffffff1660e01b815260040180826001600160a01b0316815260200191505060206040518083038186803b15801561211957600080fd5b505afa15801561212d573d6000803e3d6000fd5b505050506040513d602081101561214357600080fd5b5051905080612182576040805162461bcd60e51b815260206004808301919091526024820152637a65726f60e01b604482015290519081900360640190fd5b600c546001600160a01b03166121b257600c80546001600160a01b0319166001600160a01b038a16179055612314565b600c54604080516367265c3b60e11b81526001600160a01b039283166004820152306024820152905160009285169163ce4cb876916044808301926020929190829003018186803b15801561220657600080fd5b505afa15801561221a573d6000803e3d6000fd5b505050506040513d602081101561223057600080fd5b505111806122bb5750600c5460408051632638fdf560e01b81526001600160a01b0392831660048201523060248201529051600092861691632638fdf5916044808301926020929190829003018186803b15801561228d57600080fd5b505afa1580156122a1573d6000803e3d6000fd5b505050506040513d60208110156122b757600080fd5b5051115b1561231457600c546001600160a01b03898116911614612314576040805162461bcd60e51b815260206004820152600f60248201526e3234b33332b932b73a103630bcb2b960891b604482015290519081900360640190fd5b600e546123219082613247565b600e55604080516001600160a01b03808616602080840191909152818c168385015283518084038501815260608085019586905263cae9ca5160e01b909552888316606485019081526084850187905260a48501958652815160c486015281519195938b169463cae9ca51948b94899489949360e4019185019080838360005b838110156123b95781810151838201526020016123a1565b50505050905090810190601f1680156123e65780820380516001836020036101000a031916815260200191505b50945050505050602060405180830381600087803b15801561240757600080fd5b505af115801561241b573d6000803e3d6000fd5b505050506040513d602081101561243157600080fd5b505161247a576040805162461bcd60e51b8152602060048201526013602482015272185c1c1c9bdd99505b9910d85b1b0819985a5b606a1b604482015290519081900360640190fd5b604080516001600160a01b038b1681526020810184905281517fd706f7b85b6f270583513d8371d6264d347f648849b8c09e1630b2cc536dba5d929181900390910190a150506000600a5550505050505050565b6000828152601360205260408120611aa19083613454565b6000828152601360205260408120611aa19083613460565b600c546001600160a01b031681565b600081565b61252a6000805160206137e4833981519152336124e6565b6125655760405162461bcd60e51b81526004018080602001828103825260258152602001806138046025913960400191505060405180910390fd5b6001600160a01b0381161580159061258b5750600c546001600160a01b03828116911614155b6125d2576040805162461bcd60e51b815260206004820152601360248201527203a37b5b0b6b0b5a630bcb2b919103d32b9379606d1b604482015290519081900360640190fd5b600c80546001600160a01b0383166001600160a01b0319909116811790915560408051918252517fbcf2b04f5517cca822ae60e21bb6e3889b8d8307ea062c5266c63a014386c9909181900360200190a150565b600860205260009081526040902080546001820154600283015460038401546004850154600590950154939492939192909160ff1686565b60065481565b61267c6000805160206137e4833981519152336124e6565b6126b75760405162461bcd60e51b81526004018080602001828103825260258152602001806138046025913960400191505060405180910390fd5b600354431061270d576040805162461bcd60e51b815260206004820152601e60248201527f546f6b616d616b5374616b65723a20416c726561647920737461727465640000604482015290519081900360640190fd5b6001600160a01b038116158015906127335750600d546001600160a01b03828116911614155b612772576040805162461bcd60e51b815260206004820152601b60248201526000805160206137c4833981519152604482015290519081900360640190fd5b600d80546001600160a01b0383166001600160a01b0319909116811790915560408051918252517f62c2fdbe51fb234f5a19e26fd34a29b4d1f7f4b748fa3dfb5ee76bc69a30a7ce9181900360200190a150565b600a5415612804576040805162461bcd60e51b81526020600482015260066024820152651313d0d2d15160d21b604482015290519081900360640190fd5b6001600a55600b546001600160a01b031680612855576040805162461bcd60e51b815260206004820152601b60248201526000805160206137c4833981519152604482015290519081900360640190fd5b600c5482906001600160a01b038083169116146128ab576040805162461bcd60e51b815260206004820152600f60248201526e3234b33332b932b73a103630bcb2b960891b604482015290519081900360640190fd5b6012546128b9906001613247565b601255600b546040805163a782ebd560e01b815290516000928392839283926001600160a01b03169163a782ebd5916004808301926080929190829003018186803b15801561290757600080fd5b505afa15801561291b573d6000803e3d6000fd5b505050506040513d608081101561293157600080fd5b50805160208201516040830151606090930151919650945090925090506001600160a01b0384161580159061296e57506001600160a01b03831615155b801561298257506001600160a01b03821615155b801561299657506001600160a01b03811615155b6129df576040805162461bcd60e51b815260206004820152601560248201527449546f6b616d616b5265676973747279207a65726f60581b604482015290519081900360640190fd5b604080516367265c3b60e11b81526001600160a01b038981166004830152306024830152915160009284169163ce4cb876916044808301926020929190829003018186803b158015612a3057600080fd5b505afa158015612a44573d6000803e3d6000fd5b505050506040513d6020811015612a5a57600080fd5b5051600754909150633b9aca00026001018111612aaa576040805162461bcd60e51b81526020600482015260096024820152681d1bdbc81cdb585b1b60ba1b604482015290519081900360640190fd5b600754633b9aca000281036000190180612af4576040805162461bcd60e51b815260206004808301919091526024820152637a65726f60e01b604482015290519081900360640190fd5b836001600160a01b031663da95ebf78a836040518363ffffffff1660e01b815260040180836001600160a01b0316815260200182815260200192505050602060405180830381600087803b158015612b4b57600080fd5b505af1158015612b5f573d6000803e3d6000fd5b505050506040513d6020811015612b7557600080fd5b5050604080516001600160a01b038b16815290517f11b0a16d88220a3fec114cb9224b02a1a746abc2d19391688bc6722e7073352f9181900360200190a150506000600a5550505050505050565b6000818152601360205260408120611aa490613475565b612bf26000805160206137e4833981519152336124e6565b612c2d5760405162461bcd60e51b81526004018080602001828103825260258152602001806138046025913960400191505060405180910390fd5b816001600160a01b038116612c77576040805162461bcd60e51b815260206004820152601b60248201526000805160206137c4833981519152604482015290519081900360640190fd5b600b80546001600160a01b038086166001600160a01b03199283161792839055600d805486831693168317905560408051939091168352602083019190915280517f0e8aaf05b745af1c8f81b7d434f13476dc8ad14501ed72f38edb41e0781e49d09281900390910190a1505050565b600082815260136020526040902060020154612d0590610bb66132a1565b610c5b5760405162461bcd60e51b81526004018080602001828103825260308152602001806137736030913960400191505060405180910390fd5b60125481565b600a5415612d84576040805162461bcd60e51b81526020600482015260066024820152651313d0d2d15160d21b604482015290519081900360640190fd5b6001600a55600b546001600160a01b031680612dd5576040805162461bcd60e51b815260206004820152601b60248201526000805160206137c4833981519152604482015290519081900360640190fd5b600c5483906001600160a01b03808316911614612e2b576040805162461bcd60e51b815260206004820152600f60248201526e3234b33332b932b73a103630bcb2b960891b604482015290519081900360640190fd5b60128054600090915560025460408051631718ecd760e31b815290516001600160a01b039092169163b8c766b891600480820192602092909190829003018186803b158015612e7957600080fd5b505afa158015612e8d573d6000803e3d6000fd5b505050506040513d6020811015612ea357600080fd5b50511515600114612ee8576040805162461bcd60e51b815260206004820152600a6024820152691b9bdd0818db1bdcd95960b21b604482015290519081900360640190fd5b600080600080600b60009054906101000a90046001600160a01b03166001600160a01b031663a782ebd56040518163ffffffff1660e01b815260040160806040518083038186803b158015612f3c57600080fd5b505afa158015612f50573d6000803e3d6000fd5b505050506040513d6080811015612f6657600080fd5b50805160208201516040830151606090930151919650945090925090506001600160a01b03841615801590612fa357506001600160a01b03831615155b8015612fb757506001600160a01b03821615155b8015612fcb57506001600160a01b03811615155b613014576040805162461bcd60e51b815260206004820152601560248201527449546f6b616d616b5265676973747279207a65726f60581b604482015290519081900360640190fd5b600c54604080516367265c3b60e11b81526001600160a01b03928316600482015230602482015290519183169163ce4cb87691604480820192602092909190829003018186803b15801561306757600080fd5b505afa15801561307b573d6000803e3d6000fd5b505050506040513d602081101561309157600080fd5b50516130a857600c80546001600160a01b03191690555b60408051632638fdf560e01b81526001600160a01b038b81166004830152306024830152915191841691632638fdf591604480820192602092909190829003018186803b1580156130f857600080fd5b505afa15801561310c573d6000803e3d6000fd5b505050506040513d602081101561312257600080fd5b5051600f805490910190556040805163fb0713b160e01b81526001600160a01b038b81166004830152602482018890528a1515604483015291519184169163fb0713b1916064808201926020929091908290030181600087803b15801561318857600080fd5b505af115801561319c573d6000803e3d6000fd5b505050506040513d60208110156131b257600080fd5b5050604080516001600160a01b038b168152602081018790528915158183015290517fd07c1a80bfc96d3611f58fc19165b875cdbc1bdc53d8189e649a74930d9e3d809181900360600190a150506000600a5550505050505050565b6002546001600160a01b031681565b6000546001600160a01b031681565b600e5481565b6000611aa1836001600160a01b038416613480565b600082820183811015611aa1576040805162461bcd60e51b815260206004820152601b60248201527f536166654d6174683a206164646974696f6e206f766572666c6f770000000000604482015290519081900360640190fd5b3390565b60008281526013602052604090206132bd9082613232565b15610c00576132ca6132a1565b6001600160a01b0316816001600160a01b0316837f2f8788117e7eff1d82e926ec794901d17c78024a50270940304540a733656f0d60405160405180910390a45050565b600082815260136020526040902061332690826134ca565b15610c00576133336132a1565b6001600160a01b0316816001600160a01b0316837ff6391f5c32d9c69d2a47ea670b442974b53935d1edc7fd64eb21e047a839171b60405160405180910390a45050565b6000611aa183836040518060400160405280601a81526020017f536166654d6174683a206469766973696f6e206279207a65726f0000000000008152506134df565b6000611aa183836040518060400160405280601e81526020017f536166654d6174683a207375627472616374696f6e206f766572666c6f770000815250613581565b60008261340a57506000611aa4565b8282028284828161341757fe5b0414611aa15760405162461bcd60e51b81526004018080602001828103825260218152602001806137a36021913960400191505060405180910390fd5b6000611aa183836135db565b6000611aa1836001600160a01b03841661363f565b6000611aa482613657565b600061348c838361363f565b6134c257508154600181810184556000848152602080822090930184905584548482528286019093526040902091909155611aa4565b506000611aa4565b6000611aa1836001600160a01b03841661365b565b6000818361356b5760405162461bcd60e51b81526004018080602001828103825283818151815260200191508051906020019080838360005b83811015613530578181015183820152602001613518565b50505050905090810190601f16801561355d5780820380516001836020036101000a031916815260200191505b509250505060405180910390fd5b50600083858161357757fe5b0495945050505050565b600081848411156135d35760405162461bcd60e51b8152602060048201818152835160248401528351909283926044909101919085019080838360008315613530578181015183820152602001613518565b505050900390565b8154600090821061361d5760405162461bcd60e51b81526004018080602001828103825260228152602001806137226022913960400191505060405180910390fd5b82600001828154811061362c57fe5b9060005260206000200154905092915050565b60009081526001919091016020526040902054151590565b5490565b60008181526001830160205260408120548015613717578354600019808301919081019060009087908390811061368e57fe5b90600052602060002001549050808760000184815481106136ab57fe5b6000918252602080832090910192909255828152600189810190925260409020908401905586548790806136db57fe5b60019003818190600052602060002001600090559055866001016000878152602001908152602001600020600090556001945050505050611aa4565b6000915050611aa456fe456e756d657261626c655365743a20696e646578206f7574206f6620626f756e6473416363657373436f6e74726f6c3a2073656e646572206d75737420626520616e2061646d696e20746f206772616e74416363657373436f6e74726f6c3a2073656e646572206d75737420626520616e2061646d696e20746f207265766f6b65536166654d6174683a206d756c7469706c69636174696f6e206f766572666c6f77546f6b616d616b5374616b65723a207a65726f20616464726573730000000000df8b4c520ffe197c5343c6f5aec59570151ef9a492f2c624fd45ddde6135ec42546f6b616d616b5374616b65723a2043616c6c6572206973206e6f7420616e2061646d696e416363657373436f6e74726f6c3a2063616e206f6e6c792072656e6f756e636520726f6c657320666f722073656c66a264697066735822122003218119d197300f329561c34ec17090d99da343da253ac26877434837350e4f64736f6c63430007060033df8b4c520ffe197c5343c6f5aec59570151ef9a492f2c624fd45ddde6135ec42",
  "immutableReferences": {},
  "source": "//SPDX-License-Identifier: Unlicense\npragma solidity ^0.7.0;\n\nimport {IIStake1Vault} from \"../interfaces/IIStake1Vault.sol\";\nimport {IIERC20} from \"../interfaces/IIERC20.sol\";\nimport \"../libraries/LibTokenStake1.sol\";\nimport \"../libraries/LibUniswap.sol\";\nimport {SafeMath} from \"../utils/math/SafeMath.sol\";\nimport \"../connection/TokamakStaker.sol\";\n\n/// @title Stake Contract\n/// @notice It can be staked in Tokamak. Can be swapped using Uniswap.\n/// Stake contracts can interact with the vault to claim fld tokens\ncontract StakeTON is TokamakStaker {\n    using SafeMath for uint256;\n\n    //////////////////////////////\n    // Events\n    //////////////////////////////\n    event Staked(address indexed to, uint256 amount);\n    event Claimed(address indexed to, uint256 amount, uint256 currentBlcok);\n    event Withdrawal(address indexed to, uint256 amount);\n\n    constructor() {\n        _setRoleAdmin(ADMIN_ROLE, ADMIN_ROLE);\n        _setupRole(ADMIN_ROLE, msg.sender);\n    }\n\n    receive() external payable {\n        stake(msg.value);\n    }\n\n    /// @dev Initialize\n    // function initialize(\n    //     address _token,\n    //     address _paytoken,\n    //     address _vault,\n    //     uint256 _saleStartBlock,\n    //     uint256 _startBlock,\n    //     uint256 _period\n    // ) external onlyOwner {\n    //     require(\n    //         _token != address(0) &&\n    //             _vault != address(0) &&\n    //             _saleStartBlock < _startBlock, \"zero\"\n    //     );\n    //     token = _token;\n    //     paytoken = _paytoken;\n    //     vault = _vault;\n    //     saleStartBlock = _saleStartBlock;\n    //     startBlock = _startBlock;\n    //     endBlock = startBlock.add(_period);\n    // }\n\n    /// @dev Stake amount\n    function stake(uint256 amount) public payable {\n        require(\n            (paytoken == address(0) && msg.value == amount) ||\n                (paytoken != address(0) && amount > 0),\n            \"zero\"\n        );\n        require(\n            block.number >= saleStartBlock &&\n                block.number < startBlock,\n            \"unavailable\"\n        );\n\n        require(!IIStake1Vault(vault).saleClosed(), \"not end\");\n\n        if (paytoken == address(0)) amount = msg.value;\n        else\n            require(\n                IIERC20(paytoken).balanceOf(msg.sender) >= amount,\n                \"lack\"\n            );\n\n        LibTokenStake1.StakedAmount storage staked = userStaked[msg.sender];\n        if(staked.amount == 0) totalStakers = totalStakers.add(1);\n        staked.amount = staked.amount.add(amount);\n        totalStakedAmount = totalStakedAmount.add(amount);\n        if (paytoken != address(0))\n            require(\n                IIERC20(paytoken).transferFrom(msg.sender, address(this), amount)\n            );\n\n        emit Staked(msg.sender, amount);\n    } \n    \n    /// @dev To withdraw\n    function withdraw() external {\n        require(\n            endBlock > 0 && endBlock < block.number,\n            \"not end\"\n        );\n        (address ton, address wton, address depositManager, address seigManager) = ITokamakRegistry(stakeRegistry).getTokamak();\n        require(ton != address(0) && wton != address(0) && depositManager != address(0) && seigManager != address(0),\n            \"ITokamakRegistry zero\"\n        );\n        if (tokamakLayer2 != address(0)) {\n            require(\n                IISeigManager(seigManager).stakeOf(tokamakLayer2, address(this)) == 0 &&\n                IIDepositManager(depositManager).pendingUnstaked(tokamakLayer2, address(this)) == 0,\n                \"remain amount in tokamak\");\n        }\n\n        LibTokenStake1.StakedAmount storage staked = userStaked[msg.sender];\n        require(staked.released == false, \"Already withdraw\");\n\n        uint256 amount = staked.amount;\n        staked.releasedBlock = block.number;\n        staked.released = true;\n\n        if (paytoken != ton) {\n            require(staked.releasedAmount <= staked.amount,\"Amount wrong\");\n        } else if (paytoken == ton) {\n            //amount = ((totalStakedAmount - toTokamak) + (fromTokamak / 10 ** 9)) * staked.amount / totalStakedAmount;\n            amount = totalStakedAmount.sub(toTokamak).add(fromTokamak.div(10 ** 9)).mul(staked.amount).div(totalStakedAmount);\n        }\n        require(amount > 0 , \"Amount wrong\" );\n        staked.releasedAmount = amount;\n\n        // check if we send in ethers or in tokens\n        if (paytoken == address(0)) {\n            address payable self = address(uint160(address(this)));\n            require(self.balance >= amount);\n            (bool success, ) = msg.sender.call{value: amount}(\"\");\n            require(success, \"withdraw failed.\");\n\n        } else {\n            require(\n                IIERC20(paytoken).transfer(msg.sender, amount),\n                \"transfer fail\"\n            );\n        }\n\n        emit Withdrawal(msg.sender, amount);\n    } \n    \n    /// @dev Claim for reward\n    function claim() external lock {\n        require(\n            IIStake1Vault(vault).saleClosed() == true,\n            \"not closed\"\n        );\n        uint256 rewardClaim = 0;\n\n        LibTokenStake1.StakedAmount storage staked = userStaked[msg.sender];\n        require(staked.claimedBlock < endBlock, \"claimed\");\n\n        rewardClaim = canRewardAmount(msg.sender, block.number);\n\n        require(rewardClaim > 0, \"reward is zero\");\n\n        uint256 rewardTotal =\n            IIStake1Vault(vault).totalRewardAmount(address(this));\n        require(\n            rewardClaimedTotal.add(rewardClaim) <= rewardTotal,\n            \"total reward exceeds\"\n        );\n\n        staked.claimedBlock = block.number;\n        staked.claimedAmount = staked.claimedAmount.add(rewardClaim);\n        rewardClaimedTotal = rewardClaimedTotal.add(rewardClaim);\n\n        require(IIStake1Vault(vault).claim(msg.sender, rewardClaim));\n\n        emit Claimed(msg.sender, rewardClaim, block.number);\n    }\n      \n    /// @dev Returns the amount that can be rewarded\n    //function canRewardAmount(address account) public view returns (uint256) {\n    function canRewardAmount(address account, uint256 specilaBlock)\n        public view\n        returns (uint256)\n    {\n        uint256 reward = 0;\n        if(specilaBlock > endBlock ) specilaBlock = endBlock;\n\n        if (\n            specilaBlock < startBlock ||\n            userStaked[account].amount == 0 ||\n            userStaked[account].claimedBlock > endBlock ||\n            userStaked[account].claimedBlock > specilaBlock\n        ) {\n            reward = 0;\n        } else {\n            uint256 startR = startBlock;\n            uint256 endR = endBlock;\n            if (startR < userStaked[account].claimedBlock)\n                startR = userStaked[account].claimedBlock;\n            if (specilaBlock < endR) endR = specilaBlock;\n\n            uint256[] memory orderedEndBlocks =\n                IIStake1Vault(vault).orderedEndBlocksAll();\n\n            if (orderedEndBlocks.length > 0) {\n                uint256 _end = 0;\n                uint256 _start = startR;\n                uint256 _total = 0;\n                uint256 blockTotalReward = 0;\n                blockTotalReward = IIStake1Vault(vault).blockTotalReward();\n\n                address user = account;\n                uint256 amount = userStaked[user].amount;\n\n                for (uint256 i = 0; i < orderedEndBlocks.length; i++) {\n                    _end = orderedEndBlocks[i];\n                    _total = IIStake1Vault(vault).stakeEndBlockTotal(_end);\n                    uint256 _period1 = endR.sub(startR);\n                    uint256 _period2 = _end.sub(startR);\n                    if (_start > _end) {\n\n                    } else if (endR <= _end) {\n                        // reward +=\n                        //     (blockTotalReward *\n                        //         (endR - startR) * amount) /\n                        //     _total;\n                        if(_total > 0){ \n                            reward = reward.add(blockTotalReward.mul(_period1).mul(amount).div(_total));\n                        }\n                        break;\n                    } else {\n                        // reward +=\n                        //     (blockTotalReward *\n                        //         (_end - startR) *\n                        //         amount) /\n                        //     _total;\n                        if(_total > 0){ \n                            reward = reward.add(blockTotalReward.mul(_period2).mul(amount).div(_total));\n                        }\n                        startR = _end;\n                    }\n                }\n            }\n        }\n        return reward;\n    }\n    /* \n    function canRewardAmountTest(address account, uint256 specilaBlock)\n        public view\n        returns (uint256, uint256, uint256, uint256)\n    {\n        uint256 reward = 0;\n        uint256 startR = 0;\n        uint256 endR = 0;\n        uint256 blockTotalReward = 0;\n        if(specilaBlock > endBlock ) specilaBlock = endBlock;\n\n        if (\n            specilaBlock < startBlock ||\n            userStaked[account].amount == 0 ||\n            userStaked[account].claimedBlock > endBlock ||\n            userStaked[account].claimedBlock > specilaBlock\n        ) {\n            reward = 0;\n        } else {\n            startR = startBlock;\n            endR = endBlock;\n            if (startR < userStaked[account].claimedBlock)\n                startR = userStaked[account].claimedBlock;\n            if (specilaBlock < endR) endR = specilaBlock;\n\n            uint256[] memory orderedEndBlocks =\n                IIStake1Vault(vault).orderedEndBlocksAll();\n\n            if (orderedEndBlocks.length > 0) {\n                uint256 _end = 0;\n                uint256 _start = startR;\n                uint256 _total = 0;\n                //uint256 blockTotalReward = 0;\n                blockTotalReward = IIStake1Vault(vault).blockTotalReward();\n\n                address user = account;\n                uint256 amount = userStaked[user].amount;\n\n                for (uint256 i = 0; i < orderedEndBlocks.length; i++) {\n                    _end = orderedEndBlocks[i];\n                    _total = IIStake1Vault(vault).stakeEndBlockTotal(_end);\n\n                    if (_start > _end) {\n\n                    } else if (endR <= _end) {\n                        reward +=\n                            (blockTotalReward *\n                                (endR - startR) * amount) /\n                            _total;\n                        break;\n                    } else {\n                        reward +=\n                            (blockTotalReward *\n                                (_end - startR) *\n                                amount) /\n                            _total;\n                        startR = _end;\n                    }\n                }\n            }\n        }\n        return (reward, startR, endR, blockTotalReward);\n    }\n    */\n}\n",
  "sourcePath": "/Users/zena/ico2.0/ico20-contracts/contracts/stake/StakeTON.sol",
  "compiler": {
    "name": "solc",
    "version": "0.7.6+commit.7338295f.Emscripten.clang"
  },
  "schemaVersion": "3.3.4",
  "updatedAt": "2021-05-24T22:33:27.555Z",
  "devdoc": {
    "kind": "dev",
    "methods": {
      "canRewardAmount(address,uint256)": {
        "details": "Returns the amount that can be rewarded"
      },
      "claim()": {
        "details": "Claim for reward"
      },
      "getRoleAdmin(bytes32)": {
        "details": "Returns the admin role that controls `role`. See {grantRole} and {revokeRole}. To change a role's admin, use {_setRoleAdmin}."
      },
      "getRoleMember(bytes32,uint256)": {
        "details": "Returns one of the accounts that have `role`. `index` must be a value between 0 and {getRoleMemberCount}, non-inclusive. Role bearers are not sorted in any particular way, and their ordering may change at any point. WARNING: When using {getRoleMember} and {getRoleMemberCount}, make sure you perform all queries on the same block. See the following https://forum.openzeppelin.com/t/iterating-over-elements-on-enumerableset-in-openzeppelin-contracts/2296[forum post] for more information."
      },
      "getRoleMemberCount(bytes32)": {
        "details": "Returns the number of accounts that have `role`. Can be used together with {getRoleMember} to enumerate all bearers of a role."
      },
      "grantRole(bytes32,address)": {
        "details": "Grants `role` to `account`. If `account` had not been already granted `role`, emits a {RoleGranted} event. Requirements: - the caller must have ``role``'s admin role."
      },
      "hasRole(bytes32,address)": {
        "details": "Returns `true` if `account` has been granted `role`."
      },
      "renounceRole(bytes32,address)": {
        "details": "Revokes `role` from the calling account. Roles are often managed via {grantRole} and {revokeRole}: this function's purpose is to provide a mechanism for accounts to lose their privileges if they are compromised (such as when a trusted device is misplaced). If the calling account had been granted `role`, emits a {RoleRevoked} event. Requirements: - the caller must be `account`."
      },
      "revokeRole(bytes32,address)": {
        "details": "Revokes `role` from `account`. If `account` had been granted `role`, emits a {RoleRevoked} event. Requirements: - the caller must have ``role``'s admin role."
      },
      "stake(uint256)": {
        "details": "Stake amount"
      },
      "withdraw()": {
        "details": "To withdraw"
      }
    },
    "title": "Stake Contract",
    "version": 1
  },
  "userdoc": {
    "kind": "user",
    "methods": {},
    "notice": "It can be staked in Tokamak. Can be swapped using Uniswap. Stake contracts can interact with the vault to claim fld tokens",
    "version": 1
  }
}