{
  "contractName": "StakeTONProxy",
  "abi": [
    {
      "inputs": [],
      "stateMutability": "nonpayable",
      "type": "constructor"
    },
    {
      "anonymous": false,
      "inputs": [
        {
          "indexed": true,
          "internalType": "bytes32",
          "name": "role",
          "type": "bytes32"
        },
        {
          "indexed": true,
          "internalType": "bytes32",
          "name": "previousAdminRole",
          "type": "bytes32"
        },
        {
          "indexed": true,
          "internalType": "bytes32",
          "name": "newAdminRole",
          "type": "bytes32"
        }
      ],
      "name": "RoleAdminChanged",
      "type": "event"
    },
    {
      "anonymous": false,
      "inputs": [
        {
          "indexed": true,
          "internalType": "bytes32",
          "name": "role",
          "type": "bytes32"
        },
        {
          "indexed": true,
          "internalType": "address",
          "name": "account",
          "type": "address"
        },
        {
          "indexed": true,
          "internalType": "address",
          "name": "sender",
          "type": "address"
        }
      ],
      "name": "RoleGranted",
      "type": "event"
    },
    {
      "anonymous": false,
      "inputs": [
        {
          "indexed": true,
          "internalType": "bytes32",
          "name": "role",
          "type": "bytes32"
        },
        {
          "indexed": true,
          "internalType": "address",
          "name": "account",
          "type": "address"
        },
        {
          "indexed": true,
          "internalType": "address",
          "name": "sender",
          "type": "address"
        }
      ],
      "name": "RoleRevoked",
      "type": "event"
    },
    {
      "anonymous": false,
      "inputs": [
        {
          "indexed": true,
          "internalType": "address",
          "name": "implementation",
          "type": "address"
        }
      ],
      "name": "Upgraded",
      "type": "event"
    },
    {
      "stateMutability": "payable",
      "type": "fallback"
    },
    {
      "inputs": [],
      "name": "ADMIN_ROLE",
      "outputs": [
        {
          "internalType": "bytes32",
          "name": "",
          "type": "bytes32"
        }
      ],
      "stateMutability": "view",
      "type": "function"
    },
    {
      "inputs": [],
      "name": "DEFAULT_ADMIN_ROLE",
      "outputs": [
        {
          "internalType": "bytes32",
          "name": "",
          "type": "bytes32"
        }
      ],
      "stateMutability": "view",
      "type": "function"
    },
    {
      "inputs": [],
      "name": "depositManager",
      "outputs": [
        {
          "internalType": "address",
          "name": "",
          "type": "address"
        }
      ],
      "stateMutability": "view",
      "type": "function"
    },
    {
      "inputs": [],
      "name": "endBlock",
      "outputs": [
        {
          "internalType": "uint256",
          "name": "",
          "type": "uint256"
        }
      ],
      "stateMutability": "view",
      "type": "function"
    },
    {
      "inputs": [],
      "name": "fromTokamak",
      "outputs": [
        {
          "internalType": "uint256",
          "name": "",
          "type": "uint256"
        }
      ],
      "stateMutability": "view",
      "type": "function"
    },
    {
      "inputs": [
        {
          "internalType": "bytes32",
          "name": "role",
          "type": "bytes32"
        }
      ],
      "name": "getRoleAdmin",
      "outputs": [
        {
          "internalType": "bytes32",
          "name": "",
          "type": "bytes32"
        }
      ],
      "stateMutability": "view",
      "type": "function"
    },
    {
      "inputs": [
        {
          "internalType": "bytes32",
          "name": "role",
          "type": "bytes32"
        },
        {
          "internalType": "uint256",
          "name": "index",
          "type": "uint256"
        }
      ],
      "name": "getRoleMember",
      "outputs": [
        {
          "internalType": "address",
          "name": "",
          "type": "address"
        }
      ],
      "stateMutability": "view",
      "type": "function"
    },
    {
      "inputs": [
        {
          "internalType": "bytes32",
          "name": "role",
          "type": "bytes32"
        }
      ],
      "name": "getRoleMemberCount",
      "outputs": [
        {
          "internalType": "uint256",
          "name": "",
          "type": "uint256"
        }
      ],
      "stateMutability": "view",
      "type": "function"
    },
    {
      "inputs": [
        {
          "internalType": "bytes32",
          "name": "role",
          "type": "bytes32"
        },
        {
          "internalType": "address",
          "name": "account",
          "type": "address"
        }
      ],
      "name": "grantRole",
      "outputs": [],
      "stateMutability": "nonpayable",
      "type": "function"
    },
    {
      "inputs": [
        {
          "internalType": "bytes32",
          "name": "role",
          "type": "bytes32"
        },
        {
          "internalType": "address",
          "name": "account",
          "type": "address"
        }
      ],
      "name": "hasRole",
      "outputs": [
        {
          "internalType": "bool",
          "name": "",
          "type": "bool"
        }
      ],
      "stateMutability": "view",
      "type": "function"
    },
    {
      "inputs": [],
      "name": "pauseProxy",
      "outputs": [
        {
          "internalType": "bool",
          "name": "",
          "type": "bool"
        }
      ],
      "stateMutability": "view",
      "type": "function"
    },
    {
      "inputs": [],
      "name": "paytoken",
      "outputs": [
        {
          "internalType": "address",
          "name": "",
          "type": "address"
        }
      ],
      "stateMutability": "view",
      "type": "function"
    },
    {
      "inputs": [
        {
          "internalType": "bytes32",
          "name": "role",
          "type": "bytes32"
        },
        {
          "internalType": "address",
          "name": "account",
          "type": "address"
        }
      ],
      "name": "renounceRole",
      "outputs": [],
      "stateMutability": "nonpayable",
      "type": "function"
    },
    {
      "inputs": [
        {
          "internalType": "bytes32",
          "name": "role",
          "type": "bytes32"
        },
        {
          "internalType": "address",
          "name": "account",
          "type": "address"
        }
      ],
      "name": "revokeRole",
      "outputs": [],
      "stateMutability": "nonpayable",
      "type": "function"
    },
    {
      "inputs": [],
      "name": "rewardClaimedTotal",
      "outputs": [
        {
          "internalType": "uint256",
          "name": "",
          "type": "uint256"
        }
      ],
      "stateMutability": "view",
      "type": "function"
    },
    {
      "inputs": [],
      "name": "saleStartBlock",
      "outputs": [
        {
          "internalType": "uint256",
          "name": "",
          "type": "uint256"
        }
      ],
      "stateMutability": "view",
      "type": "function"
    },
    {
      "inputs": [],
      "name": "seigManager",
      "outputs": [
        {
          "internalType": "address",
          "name": "",
          "type": "address"
        }
      ],
      "stateMutability": "view",
      "type": "function"
    },
    {
      "inputs": [],
      "name": "startBlock",
      "outputs": [
        {
          "internalType": "uint256",
          "name": "",
          "type": "uint256"
        }
      ],
      "stateMutability": "view",
      "type": "function"
    },
    {
      "inputs": [
        {
          "internalType": "bytes4",
          "name": "interfaceId",
          "type": "bytes4"
        }
      ],
      "name": "supportsInterface",
      "outputs": [
        {
          "internalType": "bool",
          "name": "",
          "type": "bool"
        }
      ],
      "stateMutability": "view",
      "type": "function"
    },
    {
      "inputs": [],
      "name": "toTokamak",
      "outputs": [
        {
          "internalType": "uint256",
          "name": "",
          "type": "uint256"
        }
      ],
      "stateMutability": "view",
      "type": "function"
    },
    {
      "inputs": [],
      "name": "toUniswapTON",
      "outputs": [
        {
          "internalType": "uint256",
          "name": "",
          "type": "uint256"
        }
      ],
      "stateMutability": "view",
      "type": "function"
    },
    {
      "inputs": [],
      "name": "tokamakLayer2",
      "outputs": [
        {
          "internalType": "address",
          "name": "",
          "type": "address"
        }
      ],
      "stateMutability": "view",
      "type": "function"
    },
    {
      "inputs": [],
      "name": "token",
      "outputs": [
        {
          "internalType": "address",
          "name": "",
          "type": "address"
        }
      ],
      "stateMutability": "view",
      "type": "function"
    },
    {
      "inputs": [],
      "name": "ton",
      "outputs": [
        {
          "internalType": "address",
          "name": "",
          "type": "address"
        }
      ],
      "stateMutability": "view",
      "type": "function"
    },
    {
      "inputs": [],
      "name": "totalStakedAmount",
      "outputs": [
        {
          "internalType": "uint256",
          "name": "",
          "type": "uint256"
        }
      ],
      "stateMutability": "view",
      "type": "function"
    },
    {
      "inputs": [
        {
          "internalType": "address",
          "name": "",
          "type": "address"
        }
      ],
      "name": "userStaked",
      "outputs": [
        {
          "internalType": "uint256",
          "name": "amount",
          "type": "uint256"
        },
        {
          "internalType": "uint256",
          "name": "claimedBlock",
          "type": "uint256"
        },
        {
          "internalType": "uint256",
          "name": "claimedAmount",
          "type": "uint256"
        },
        {
          "internalType": "uint256",
          "name": "releasedBlock",
          "type": "uint256"
        },
        {
          "internalType": "uint256",
          "name": "releasedAmount",
          "type": "uint256"
        },
        {
          "internalType": "bool",
          "name": "released",
          "type": "bool"
        }
      ],
      "stateMutability": "view",
      "type": "function"
    },
    {
      "inputs": [],
      "name": "vault",
      "outputs": [
        {
          "internalType": "address",
          "name": "",
          "type": "address"
        }
      ],
      "stateMutability": "view",
      "type": "function"
    },
    {
      "inputs": [],
      "name": "wton",
      "outputs": [
        {
          "internalType": "address",
          "name": "",
          "type": "address"
        }
      ],
      "stateMutability": "view",
      "type": "function"
    },
    {
      "stateMutability": "payable",
      "type": "receive"
    },
    {
      "inputs": [
        {
          "internalType": "bool",
          "name": "_pause",
          "type": "bool"
        }
      ],
      "name": "setProxyPause",
      "outputs": [],
      "stateMutability": "nonpayable",
      "type": "function"
    },
    {
      "inputs": [
        {
          "internalType": "address",
          "name": "impl",
          "type": "address"
        }
      ],
      "name": "upgradeTo",
      "outputs": [],
      "stateMutability": "nonpayable",
      "type": "function"
    },
    {
      "inputs": [],
      "name": "implementation",
      "outputs": [
        {
          "internalType": "address",
          "name": "",
          "type": "address"
        }
      ],
      "stateMutability": "view",
      "type": "function"
    },
    {
      "inputs": [
        {
          "internalType": "address",
          "name": "owner",
          "type": "address"
        },
        {
          "internalType": "address",
          "name": "spender",
          "type": "address"
        },
        {
          "internalType": "uint256",
          "name": "tonAmount",
          "type": "uint256"
        },
        {
          "internalType": "bytes",
          "name": "data",
          "type": "bytes"
        }
      ],
      "name": "onApprove",
      "outputs": [
        {
          "internalType": "bool",
          "name": "",
          "type": "bool"
        }
      ],
      "stateMutability": "nonpayable",
      "type": "function"
    },
    {
      "inputs": [
        {
          "internalType": "address",
          "name": "from",
          "type": "address"
        },
        {
          "internalType": "address",
          "name": "_owner",
          "type": "address"
        },
        {
          "internalType": "address",
          "name": "_spender",
          "type": "address"
        },
        {
          "internalType": "uint256",
          "name": "_amount",
          "type": "uint256"
        }
      ],
      "name": "stakeOnApprove",
      "outputs": [
        {
          "internalType": "bool",
          "name": "",
          "type": "bool"
        }
      ],
      "stateMutability": "nonpayable",
      "type": "function"
    }
  ],
  "bytecode": "0x60806040523480156200001157600080fd5b50620000246301ffc9a760e01b6200008d565b62000036632139e50b60e11b6200008d565b62000051600080516020620016f68339815191528062000112565b6200006c600080516020620016f68339815191523362000164565b62000087600080516020620016f68339815191523062000164565b6200027a565b6001600160e01b03198082161415620000ed576040805162461bcd60e51b815260206004820152601c60248201527f4552433136353a20696e76616c696420696e7465726661636520696400000000604482015290519081900360640190fd5b6001600160e01b0319166000908152601460205260409020805460ff19166001179055565b600082815260136020526040808220600201549051839285917fbd79b86ffe0ab8e8776151514217cd7cacd52c909f66475c3af44e129f0b00ff9190a460009182526013602052604090912060020155565b62000170828262000174565b5050565b60008281526013602090815260409091206200019b91839062000bfa620001ef821b17901c565b156200017057620001ab6200020f565b6001600160a01b0316816001600160a01b0316837f2f8788117e7eff1d82e926ec794901d17c78024a50270940304540a733656f0d60405160405180910390a45050565b600062000206836001600160a01b03841662000213565b90505b92915050565b3390565b600062000221838362000262565b620002595750815460018181018455600084815260208082209093018490558454848252828601909352604090209190915562000209565b50600062000209565b60009081526001919091016020526040902054151590565b61146c806200028a6000396000f3fe6080604052600436106101f25760003560e01c80636c7ac9d81161010d578063a217fddf116100a0578063cc48b9471161006f578063cc48b9471461051b578063d547741f14610530578063fbfa77cf14610550578063fc0c546a14610565578063fd7fa4601461057a57610201565b8063a217fddf1461049f578063acc3a939146104b4578063b2d4d6a3146104e6578063ca15c873146104fb57610201565b80638d62d949116100dc5780638d62d949146104355780639010d07c1461044a57806391d148541461046a57806392ea3b4c1461048a57610201565b80636c7ac9d8146103d65780636fb7f558146103eb57806375b238fc146104005780637cb00d251461041557610201565b806336568abe1161018557806348cd4cb11161015457806348cd4cb114610382578063567e98f9146103975780635c60da1b146103ac57806363a8fd89146103c157610201565b806336568abe146103005780633659cfe6146103205780634273ca161461034057806343b0934a1461036057610201565b806320027275116101c15780632002727514610296578063248a9ca3146102ab5780632e0fac6b146102cb5780632f2ff15d146102e057610201565b806301ffc9a714610209578063083c63231461023f5780630ac8e0f3146102615780630bfb38411461027657610201565b36610201576101ff61058f565b005b6101ff61058f565b34801561021557600080fd5b506102296102243660046110a8565b610606565b6040516102369190611108565b60405180910390f35b34801561024b57600080fd5b50610254610625565b6040516102369190611113565b34801561026d57600080fd5b5061025461062b565b34801561028257600080fd5b50610229610291366004610f1e565b610631565b3480156102a257600080fd5b5061025461078b565b3480156102b757600080fd5b506102546102c6366004611040565b610791565b3480156102d757600080fd5b506102546107a6565b3480156102ec57600080fd5b506101ff6102fb366004611058565b6107ac565b34801561030c57600080fd5b506101ff61031b366004611058565b610813565b34801561032c57600080fd5b506101ff61033b366004610ed0565b610874565b34801561034c57600080fd5b5061022961035b366004610f6e565b610958565b34801561036c57600080fd5b506103756109dd565b60405161023691906110d0565b34801561038e57600080fd5b506102546109ec565b3480156103a357600080fd5b506102546109f2565b3480156103b857600080fd5b506103756109f8565b3480156103cd57600080fd5b50610229610a07565b3480156103e257600080fd5b50610375610a17565b3480156103f757600080fd5b50610375610a26565b34801561040c57600080fd5b50610254610a35565b34801561042157600080fd5b506101ff610430366004611008565b610a59565b34801561044157600080fd5b50610375610abd565b34801561045657600080fd5b50610375610465366004611087565b610acc565b34801561047657600080fd5b50610229610485366004611058565b610aed565b34801561049657600080fd5b50610375610b05565b3480156104ab57600080fd5b50610254610b14565b3480156104c057600080fd5b506104d46104cf366004610ed0565b610b19565b60405161023696959493929190611336565b3480156104f257600080fd5b50610254610b51565b34801561050757600080fd5b50610254610516366004611040565b610b57565b34801561052757600080fd5b50610375610b6e565b34801561053c57600080fd5b506101ff61054b366004611058565b610b7d565b34801561055c57600080fd5b50610375610bd6565b34801561057157600080fd5b50610375610be5565b34801561058657600080fd5b50610254610bf4565b60006105996109f8565b90506001600160a01b038116158015906105bd5750601554600160a01b900460ff16155b6105e25760405162461bcd60e51b81526004016105d9906112e9565b60405180910390fd5b3660008037600080366000845af43d6000803e808015610601573d6000f35b3d6000fd5b6001600160e01b03191660009081526014602052604090205460ff1690565b60055481565b60115481565b6001546000906001600160a01b0386811691161480156106515750600082115b801561066557506001600160a01b03831630145b6106815760405162461bcd60e51b81526004016105d9906112b2565b60035443101580156106965750600454600354105b80156106a3575060045443105b6106bf5760405162461bcd60e51b81526004016105d99061125c565b6001600160a01b0380851660009081526008602052604090819020805485018155600780548601905590516323b872dd60e01b815290918716906323b872dd90610711908890889088906004016110e4565b602060405180830381600087803b15801561072b57600080fd5b505af115801561073f573d6000803e3d6000fd5b505050506040513d601f19601f820116820180604052508101906107639190611024565b61077f5760405162461bcd60e51b81526004016105d99061128b565b50600195945050505050565b60035481565b60009081526013602052604090206002015490565b60125481565b6000828152601360205260409020600201546107ca90610485610c0f565b6108055760405162461bcd60e51b815260040180806020018281038252602f8152602001806113a9602f913960400191505060405180910390fd5b61080f8282610c13565b5050565b61081b610c0f565b6001600160a01b0316816001600160a01b03161461086a5760405162461bcd60e51b815260040180806020018281038252602f815260200180611408602f913960400191505060405180910390fd5b61080f8282610c7c565b61089e7fdf8b4c520ffe197c5343c6f5aec59570151ef9a492f2c624fd45ddde6135ec4233610aed565b6108ba5760405162461bcd60e51b81526004016105d990611160565b6001600160a01b0381166108e05760405162461bcd60e51b81526004016105d9906111d0565b6015546001600160a01b038281169116141561090e5760405162461bcd60e51b81526004016105d990611207565b601580546001600160a01b0319166001600160a01b0383169081179091556040517fbc7cd75a20ee27fd9adebab32041f755214dbc6bffa90cc0225b39da2e5c2d3b90600090a250565b60008060006109678585610ce5565b91509150808614801561098b5750816001600160a01b0316876001600160a01b0316145b6109a75760405162461bcd60e51b81526004016105d990611186565b6109b333898484610631565b6109cf5760405162461bcd60e51b81526004016105d99061111c565b506001979650505050505050565b6001546001600160a01b031681565b60045481565b60075481565b6015546001600160a01b031690565b601554600160a01b900460ff1681565b600c546001600160a01b031681565b600d546001600160a01b031681565b7fdf8b4c520ffe197c5343c6f5aec59570151ef9a492f2c624fd45ddde6135ec4281565b610a837fdf8b4c520ffe197c5343c6f5aec59570151ef9a492f2c624fd45ddde6135ec4233610aed565b610a9f5760405162461bcd60e51b81526004016105d990611160565b60158054911515600160a01b0260ff60a01b19909216919091179055565b600b546001600160a01b031681565b6000828152601360205260408120610ae49083610cff565b90505b92915050565b6000828152601360205260408120610ae49083610d0b565b600e546001600160a01b031681565b600081565b600860205260009081526040902080546001820154600283015460038401546004850154600590950154939492939192909160ff1686565b60065481565b6000818152601360205260408120610ae790610d20565b600a546001600160a01b031681565b600082815260136020526040902060020154610b9b90610485610c0f565b61086a5760405162461bcd60e51b81526004018080602001828103825260308152602001806113d86030913960400191505060405180910390fd5b6002546001600160a01b031681565b6000546001600160a01b031681565b60105481565b6000610ae4836001600160a01b038416610d2b565b3390565b6000828152601360205260409020610c2b9082610bfa565b1561080f57610c38610c0f565b6001600160a01b0316816001600160a01b0316837f2f8788117e7eff1d82e926ec794901d17c78024a50270940304540a733656f0d60405160405180910390a45050565b6000828152601360205260409020610c949082610d75565b1561080f57610ca1610c0f565b6001600160a01b0316816001600160a01b0316837ff6391f5c32d9c69d2a47ea670b442974b53935d1edc7fd64eb21e047a839171b60405160405180910390a45050565b600080610cf483850185610ef3565b909590945092505050565b6000610ae48383610d8a565b6000610ae4836001600160a01b038416610dee565b6000610ae782610e06565b6000610d378383610dee565b610d6d57508154600181810184556000848152602080822090930184905584548482528286019093526040902091909155610ae7565b506000610ae7565b6000610ae4836001600160a01b038416610e0a565b81546000908210610dcc5760405162461bcd60e51b81526004018080602001828103825260228152602001806113876022913960400191505060405180910390fd5b826000018281548110610ddb57fe5b9060005260206000200154905092915050565b60009081526001919091016020526040902054151590565b5490565b60008181526001830160205260408120548015610ec65783546000198083019190810190600090879083908110610e3d57fe5b9060005260206000200154905080876000018481548110610e5a57fe5b600091825260208083209091019290925582815260018981019092526040902090840190558654879080610e8a57fe5b60019003818190600052602060002001600090559055866001016000878152602001908152602001600020600090556001945050505050610ae7565b6000915050610ae7565b600060208284031215610ee1578081fd5b8135610eec81611360565b9392505050565b60008060408385031215610f05578081fd5b8235610f1081611360565b946020939093013593505050565b60008060008060808587031215610f33578182fd5b8435610f3e81611360565b93506020850135610f4e81611360565b92506040850135610f5e81611360565b9396929550929360600135925050565b600080600080600060808688031215610f85578081fd5b8535610f9081611360565b94506020860135610fa081611360565b935060408601359250606086013567ffffffffffffffff80821115610fc3578283fd5b818801915088601f830112610fd6578283fd5b813581811115610fe4578384fd5b896020828501011115610ff5578384fd5b9699959850939650602001949392505050565b600060208284031215611019578081fd5b8135610eec81611378565b600060208284031215611035578081fd5b8151610eec81611378565b600060208284031215611051578081fd5b5035919050565b6000806040838503121561106a578182fd5b82359150602083013561107c81611360565b809150509250929050565b60008060408385031215611099578182fd5b50508035926020909101359150565b6000602082840312156110b9578081fd5b81356001600160e01b031981168114610eec578182fd5b6001600160a01b0391909116815260200190565b6001600160a01b039384168152919092166020820152604081019190915260600190565b901515815260200190565b90815260200190565b60208082526024908201527f546f6b616d616b5374616b65723a207374616b654f6e417070726f7665206661604082015263034b639960e51b606082015260800190565b6020808252600c908201526b3737ba1030b71030b236b4b760a11b604082015260600190565b6020808252602a908201527f546f6b616d616b5374616b65723a20746f6e416d6f756e7420213d207374616b604082015269034b733a0b6b7bab73a160b51b606082015260800190565b6020808252601c908201527f5374616b65544f4e50726f78793a20696e707574206973207a65726f00000000604082015260600190565b60208082526035908201527f5374616b65544f4e50726f78793a2054686520696e70757420616464726573736040820152742069732073616d652061732074686520737461746560581b606082015260800190565b602080825260159082015274706572696f6420697320756e617661696c61626c6560581b604082015260600190565b6020808252600d908201526c1d1c985b9cd9995c8819985a5b609a1b604082015260600190565b60208082526018908201527f7374616b654f6e417070726f766520696e6974206661696c0000000000000000604082015260600190565b6020808252602d908201527f5374616b65544f4e50726f78793a20696d706c206973207a65726f204f52207060408201526c726f78792069732066616c736560981b606082015260800190565b9586526020860194909452604085019290925260608401526080830152151560a082015260c00190565b6001600160a01b038116811461137557600080fd5b50565b801515811461137557600080fdfe456e756d657261626c655365743a20696e646578206f7574206f6620626f756e6473416363657373436f6e74726f6c3a2073656e646572206d75737420626520616e2061646d696e20746f206772616e74416363657373436f6e74726f6c3a2073656e646572206d75737420626520616e2061646d696e20746f207265766f6b65416363657373436f6e74726f6c3a2063616e206f6e6c792072656e6f756e636520726f6c657320666f722073656c66a26469706673582212201ae342a56247631b9e374dd580130b09e322b2ae46ba6a2cbfc8472cd622d4e264736f6c63430007060033df8b4c520ffe197c5343c6f5aec59570151ef9a492f2c624fd45ddde6135ec42",
  "immutableReferences": {},
  "source": "// SPDX-License-Identifier: MIT\npragma solidity ^0.7.6;\npragma abicoder v2;\n\nimport {IERC20} from \"@openzeppelin/contracts/token/ERC20/IERC20.sol\";\nimport \"./StakeTONStorage.sol\";\nimport \"@openzeppelin/contracts/access/AccessControl.sol\";\nimport {OnApprove} from \"../tokens/OnApprove.sol\";\n\n/// @title Proxy for Stake contracts in Phase 1\n/// @notice\ncontract StakeTONProxy is StakeTONStorage, AccessControl, OnApprove {\n    bytes32 public constant ADMIN_ROLE = keccak256(\"ADMIN\");\n    address internal _implementation;\n    bool public pauseProxy;\n\n    event Upgraded(address indexed implementation);\n\n    modifier onlyOwner() {\n        require(\n            hasRole(ADMIN_ROLE, msg.sender),\n            \"not an admin\"\n        );\n        _;\n    }\n\n    constructor() {\n        _setRoleAdmin(ADMIN_ROLE, ADMIN_ROLE);\n        _setupRole(ADMIN_ROLE, msg.sender);\n        _setupRole(ADMIN_ROLE, address(this));\n    }\n\n    /// @notice Set pause state\n    /// @param _pause true:pause or false:resume\n    function setProxyPause(bool _pause) external onlyOwner {\n        pauseProxy = _pause;\n    }\n\n    /// @notice Set implementation contract\n    /// @param impl New implementation contract address\n    function upgradeTo(address impl) external onlyOwner {\n        require(impl != address(0), \"StakeTONProxy: input is zero\");\n        require(\n            _implementation != impl,\n            \"StakeTONProxy: The input address is same as the state\"\n        );\n        _implementation = impl;\n        emit Upgraded(impl);\n    }\n\n    /// @dev returns the implementation\n    function implementation() public view returns (address) {\n        return _implementation;\n    }\n\n    receive() external payable {\n        _fallback();\n    }\n\n    fallback() external payable {\n        _fallback();\n    }\n\n    function _fallback() internal {\n        address _impl = implementation();\n        require(\n            _impl != address(0) && !pauseProxy,\n            \"StakeTONProxy: impl is zero OR proxy is false\"\n        );\n\n        assembly {\n            // Copy msg.data. We take full control of memory in this inline assembly\n            // block because it will not return to Solidity code. We overwrite the\n            // Solidity scratch pad at memory position 0.\n            calldatacopy(0, 0, calldatasize())\n\n            // Call the implementation.\n            // out and outsize are 0 because we don't know the size yet.\n            let result := delegatecall(gas(), _impl, 0, calldatasize(), 0, 0)\n\n            // Copy the returned data.\n            returndatacopy(0, 0, returndatasize())\n\n            switch result\n                // delegatecall returns 0 on error.\n                case 0 {\n                    revert(0, returndatasize())\n                }\n                default {\n                    return(0, returndatasize())\n                }\n        }\n    }\n\n    /// @dev Approves\n    function onApprove(\n        address owner,\n        address spender,\n        uint256 tonAmount,\n        bytes calldata data\n    ) external override returns (bool) {\n        (address _spender, uint256 _amount) = _decodeStakeData(data);\n        require(\n            tonAmount == _amount && spender == _spender,\n            \"TokamakStaker: tonAmount != stakingAmount \"\n        );\n        require(\n            stakeOnApprove(msg.sender, owner, _spender, _amount),\n            \"TokamakStaker: stakeOnApprove fails \"\n        );\n        return true;\n    }\n\n    function _decodeStakeData(bytes calldata input)\n        internal\n        pure\n        returns (address spender, uint256 amount)\n    {\n        (spender, amount) = abi.decode(input, (address, uint256));\n    }\n\n    /// @dev stake with ton\n    function stakeOnApprove(\n        address from,\n        address _owner,\n        address _spender,\n        uint256 _amount\n    ) public returns (bool) {\n        require(\n            (paytoken == from && _amount > 0 && _spender == address(this)),\n            \"stakeOnApprove init fail\"\n        );\n        require(\n            block.number >= saleStartBlock && saleStartBlock < startBlock\n            && block.number < startBlock,\n            \"period is unavailable\"\n        );\n\n        LibTokenStake1.StakedAmount storage staked = userStaked[_owner];\n        staked.amount += _amount;\n        totalStakedAmount += _amount;\n        require(\n            IERC20(from).transferFrom(_owner, _spender, _amount),\n            \"transfer fail\"\n        );\n        return true;\n    }\n\n}\n",
  "sourcePath": "/Users/zena/ico2.0/ico20-contracts/contracts/stake/StakeTONProxy.sol",
  "compiler": {
    "name": "solc",
    "version": "0.7.6+commit.7338295f.Emscripten.clang"
  },
  "schemaVersion": "3.3.4",
  "updatedAt": "2021-05-17T15:11:33.504Z",
  "devdoc": {
    "kind": "dev",
    "methods": {
      "getRoleAdmin(bytes32)": {
        "details": "Returns the admin role that controls `role`. See {grantRole} and {revokeRole}. To change a role's admin, use {_setRoleAdmin}."
      },
      "getRoleMember(bytes32,uint256)": {
        "details": "Returns one of the accounts that have `role`. `index` must be a value between 0 and {getRoleMemberCount}, non-inclusive. Role bearers are not sorted in any particular way, and their ordering may change at any point. WARNING: When using {getRoleMember} and {getRoleMemberCount}, make sure you perform all queries on the same block. See the following https://forum.openzeppelin.com/t/iterating-over-elements-on-enumerableset-in-openzeppelin-contracts/2296[forum post] for more information."
      },
      "getRoleMemberCount(bytes32)": {
        "details": "Returns the number of accounts that have `role`. Can be used together with {getRoleMember} to enumerate all bearers of a role."
      },
      "grantRole(bytes32,address)": {
        "details": "Grants `role` to `account`. If `account` had not been already granted `role`, emits a {RoleGranted} event. Requirements: - the caller must have ``role``'s admin role."
      },
      "hasRole(bytes32,address)": {
        "details": "Returns `true` if `account` has been granted `role`."
      },
      "implementation()": {
        "details": "returns the implementation"
      },
      "onApprove(address,address,uint256,bytes)": {
        "details": "Approves"
      },
      "renounceRole(bytes32,address)": {
        "details": "Revokes `role` from the calling account. Roles are often managed via {grantRole} and {revokeRole}: this function's purpose is to provide a mechanism for accounts to lose their privileges if they are compromised (such as when a trusted device is misplaced). If the calling account had been granted `role`, emits a {RoleRevoked} event. Requirements: - the caller must be `account`."
      },
      "revokeRole(bytes32,address)": {
        "details": "Revokes `role` from `account`. If `account` had been granted `role`, emits a {RoleRevoked} event. Requirements: - the caller must have ``role``'s admin role."
      },
      "setProxyPause(bool)": {
        "params": {
          "_pause": "true:pause or false:resume"
        }
      },
      "stakeOnApprove(address,address,address,uint256)": {
        "details": "stake with ton"
      },
      "supportsInterface(bytes4)": {
        "details": "See {IERC165-supportsInterface}. Time complexity O(1), guaranteed to always use less than 30 000 gas."
      },
      "upgradeTo(address)": {
        "params": {
          "impl": "New implementation contract address"
        }
      }
    },
    "title": "Proxy for Stake contracts in Phase 1",
    "version": 1
  },
  "userdoc": {
    "kind": "user",
    "methods": {
      "setProxyPause(bool)": {
        "notice": "Set pause state"
      },
      "upgradeTo(address)": {
        "notice": "Set implementation contract"
      }
    },
    "version": 1
  }
}