{
  "contractName": "StakeRegistry",
  "abi": [
    {
      "inputs": [],
      "stateMutability": "nonpayable",
      "type": "constructor"
    },
    {
      "anonymous": false,
      "inputs": [
        {
          "indexed": true,
          "internalType": "address",
          "name": "vault",
          "type": "address"
        },
        {
          "indexed": true,
          "internalType": "address",
          "name": "stakeContract",
          "type": "address"
        }
      ],
      "name": "AddedStakeContract",
      "type": "event"
    },
    {
      "anonymous": false,
      "inputs": [
        {
          "indexed": true,
          "internalType": "address",
          "name": "vault",
          "type": "address"
        },
        {
          "indexed": false,
          "internalType": "uint256",
          "name": "phase",
          "type": "uint256"
        }
      ],
      "name": "AddedVault",
      "type": "event"
    },
    {
      "anonymous": false,
      "inputs": [
        {
          "indexed": true,
          "internalType": "bytes32",
          "name": "role",
          "type": "bytes32"
        },
        {
          "indexed": true,
          "internalType": "bytes32",
          "name": "previousAdminRole",
          "type": "bytes32"
        },
        {
          "indexed": true,
          "internalType": "bytes32",
          "name": "newAdminRole",
          "type": "bytes32"
        }
      ],
      "name": "RoleAdminChanged",
      "type": "event"
    },
    {
      "anonymous": false,
      "inputs": [
        {
          "indexed": true,
          "internalType": "bytes32",
          "name": "role",
          "type": "bytes32"
        },
        {
          "indexed": true,
          "internalType": "address",
          "name": "account",
          "type": "address"
        },
        {
          "indexed": true,
          "internalType": "address",
          "name": "sender",
          "type": "address"
        }
      ],
      "name": "RoleGranted",
      "type": "event"
    },
    {
      "anonymous": false,
      "inputs": [
        {
          "indexed": true,
          "internalType": "bytes32",
          "name": "role",
          "type": "bytes32"
        },
        {
          "indexed": true,
          "internalType": "address",
          "name": "account",
          "type": "address"
        },
        {
          "indexed": true,
          "internalType": "address",
          "name": "sender",
          "type": "address"
        }
      ],
      "name": "RoleRevoked",
      "type": "event"
    },
    {
      "inputs": [],
      "name": "ADMIN_ROLE",
      "outputs": [
        {
          "internalType": "bytes32",
          "name": "",
          "type": "bytes32"
        }
      ],
      "stateMutability": "view",
      "type": "function"
    },
    {
      "inputs": [],
      "name": "DEFAULT_ADMIN_ROLE",
      "outputs": [
        {
          "internalType": "bytes32",
          "name": "",
          "type": "bytes32"
        }
      ],
      "stateMutability": "view",
      "type": "function"
    },
    {
      "inputs": [],
      "name": "ZERO_HASH",
      "outputs": [
        {
          "internalType": "bytes32",
          "name": "",
          "type": "bytes32"
        }
      ],
      "stateMutability": "view",
      "type": "function"
    },
    {
      "inputs": [
        {
          "internalType": "bytes32",
          "name": "role",
          "type": "bytes32"
        }
      ],
      "name": "getRoleAdmin",
      "outputs": [
        {
          "internalType": "bytes32",
          "name": "",
          "type": "bytes32"
        }
      ],
      "stateMutability": "view",
      "type": "function"
    },
    {
      "inputs": [
        {
          "internalType": "bytes32",
          "name": "role",
          "type": "bytes32"
        },
        {
          "internalType": "uint256",
          "name": "index",
          "type": "uint256"
        }
      ],
      "name": "getRoleMember",
      "outputs": [
        {
          "internalType": "address",
          "name": "",
          "type": "address"
        }
      ],
      "stateMutability": "view",
      "type": "function"
    },
    {
      "inputs": [
        {
          "internalType": "bytes32",
          "name": "role",
          "type": "bytes32"
        }
      ],
      "name": "getRoleMemberCount",
      "outputs": [
        {
          "internalType": "uint256",
          "name": "",
          "type": "uint256"
        }
      ],
      "stateMutability": "view",
      "type": "function"
    },
    {
      "inputs": [
        {
          "internalType": "bytes32",
          "name": "role",
          "type": "bytes32"
        },
        {
          "internalType": "address",
          "name": "account",
          "type": "address"
        }
      ],
      "name": "grantRole",
      "outputs": [],
      "stateMutability": "nonpayable",
      "type": "function"
    },
    {
      "inputs": [
        {
          "internalType": "bytes32",
          "name": "role",
          "type": "bytes32"
        },
        {
          "internalType": "address",
          "name": "account",
          "type": "address"
        }
      ],
      "name": "hasRole",
      "outputs": [
        {
          "internalType": "bool",
          "name": "",
          "type": "bool"
        }
      ],
      "stateMutability": "view",
      "type": "function"
    },
    {
      "inputs": [
        {
          "internalType": "uint256",
          "name": "",
          "type": "uint256"
        },
        {
          "internalType": "uint256",
          "name": "",
          "type": "uint256"
        }
      ],
      "name": "phases",
      "outputs": [
        {
          "internalType": "address",
          "name": "",
          "type": "address"
        }
      ],
      "stateMutability": "view",
      "type": "function"
    },
    {
      "inputs": [
        {
          "internalType": "bytes32",
          "name": "role",
          "type": "bytes32"
        },
        {
          "internalType": "address",
          "name": "account",
          "type": "address"
        }
      ],
      "name": "renounceRole",
      "outputs": [],
      "stateMutability": "nonpayable",
      "type": "function"
    },
    {
      "inputs": [
        {
          "internalType": "bytes32",
          "name": "role",
          "type": "bytes32"
        },
        {
          "internalType": "address",
          "name": "account",
          "type": "address"
        }
      ],
      "name": "revokeRole",
      "outputs": [],
      "stateMutability": "nonpayable",
      "type": "function"
    },
    {
      "inputs": [
        {
          "internalType": "address",
          "name": "",
          "type": "address"
        }
      ],
      "name": "stakeContractVault",
      "outputs": [
        {
          "internalType": "address",
          "name": "",
          "type": "address"
        }
      ],
      "stateMutability": "view",
      "type": "function"
    },
    {
      "inputs": [
        {
          "internalType": "address",
          "name": "",
          "type": "address"
        },
        {
          "internalType": "uint256",
          "name": "",
          "type": "uint256"
        }
      ],
      "name": "stakeContractsOfVault",
      "outputs": [
        {
          "internalType": "address",
          "name": "",
          "type": "address"
        }
      ],
      "stateMutability": "view",
      "type": "function"
    },
    {
      "inputs": [
        {
          "internalType": "address",
          "name": "",
          "type": "address"
        }
      ],
      "name": "vaultNames",
      "outputs": [
        {
          "internalType": "bytes32",
          "name": "",
          "type": "bytes32"
        }
      ],
      "stateMutability": "view",
      "type": "function"
    },
    {
      "inputs": [
        {
          "internalType": "bytes32",
          "name": "",
          "type": "bytes32"
        }
      ],
      "name": "vaults",
      "outputs": [
        {
          "internalType": "address",
          "name": "",
          "type": "address"
        }
      ],
      "stateMutability": "view",
      "type": "function"
    },
    {
      "inputs": [
        {
          "internalType": "address",
          "name": "_vault",
          "type": "address"
        },
        {
          "internalType": "uint256",
          "name": "_phase",
          "type": "uint256"
        },
        {
          "internalType": "bytes32",
          "name": "_vaultName",
          "type": "bytes32"
        }
      ],
      "name": "addVault",
      "outputs": [],
      "stateMutability": "nonpayable",
      "type": "function"
    },
    {
      "inputs": [
        {
          "internalType": "address",
          "name": "_vault",
          "type": "address"
        },
        {
          "internalType": "address",
          "name": "_stakeContract",
          "type": "address"
        }
      ],
      "name": "addStakeContract",
      "outputs": [],
      "stateMutability": "nonpayable",
      "type": "function"
    },
    {
      "inputs": [
        {
          "internalType": "uint256",
          "name": "_index",
          "type": "uint256"
        }
      ],
      "name": "phasesAll",
      "outputs": [
        {
          "internalType": "address[]",
          "name": "",
          "type": "address[]"
        }
      ],
      "stateMutability": "view",
      "type": "function"
    },
    {
      "inputs": [
        {
          "internalType": "address",
          "name": "_vault",
          "type": "address"
        }
      ],
      "name": "stakeContractsOfVaultAll",
      "outputs": [
        {
          "internalType": "address[]",
          "name": "",
          "type": "address[]"
        }
      ],
      "stateMutability": "view",
      "type": "function"
    },
    {
      "inputs": [
        {
          "internalType": "uint256",
          "name": "_phase",
          "type": "uint256"
        },
        {
          "internalType": "address",
          "name": "_vault",
          "type": "address"
        }
      ],
      "name": "validVault",
      "outputs": [
        {
          "internalType": "bool",
          "name": "valid",
          "type": "bool"
        }
      ],
      "stateMutability": "view",
      "type": "function"
    }
  ],
  "bytecode": "0x60806040523480156200001157600080fd5b506200002d6000805160206200110d833981519152806200004e565b620000486000805160206200110d83398151915233620000a0565b620001b4565b600082815260208190526040808220600201549051839285917fbd79b86ffe0ab8e8776151514217cd7cacd52c909f66475c3af44e129f0b00ff9190a460009182526020829052604090912060020155565b620000ac8282620000b0565b5050565b600082815260208181526040909120620000d59183906200090d62000129821b17901c565b15620000ac57620000e562000149565b6001600160a01b0316816001600160a01b0316837f2f8788117e7eff1d82e926ec794901d17c78024a50270940304540a733656f0d60405160405180910390a45050565b600062000140836001600160a01b0384166200014d565b90505b92915050565b3390565b60006200015b83836200019c565b620001935750815460018181018455600084815260208082209093018490558454848252828601909352604090209190915562000143565b50600062000143565b60009081526001919091016020526040902054151590565b610f4980620001c46000396000f3fe608060405234801561001057600080fd5b506004361061012c5760003560e01c806391d14854116100ad578063cca23bf211610071578063cca23bf214610264578063d547741f14610277578063efc9f7461461028a578063f025a6571461029d578063faeb6b9f146102b05761012c565b806391d148541461020b578063a217fddf146101a2578063a8fcc09a1461021e578063a95031f11461023e578063ca15c873146102515761012c565b80636b7e2bd0116100f45780636b7e2bd0146101aa57806375b238fc146101ca5780638dea8fd7146101d25780639010d07c146101e5578063918dafa4146101f85761012c565b8063248a9ca3146101315780632f2ff15d1461015a57806336568abe1461016f5780634be8b116146101825780634ce76a3c146101a2575b600080fd5b61014461013f366004610c87565b6102c3565b6040516101519190610d4e565b60405180910390f35b61016d610168366004610c9f565b6102db565b005b61016d61017d366004610c9f565b610342565b610195610190366004610c2c565b6103a3565b6040516101519190610ce2565b6101446103db565b6101bd6101b8366004610c9f565b6103e0565b6040516101519190610d43565b61014461049f565b61016d6101e0366004610bfa565b6104c3565b6101956101f3366004610cc1565b6105e8565b610195610206366004610cc1565b610609565b6101bd610219366004610c9f565b610625565b61023161022c366004610be0565b61063d565b6040516101519190610cf6565b61023161024c366004610c87565b6106b3565b61014461025f366004610c87565b61071d565b610195610272366004610c87565b610734565b61016d610285366004610c9f565b61074f565b61016d610298366004610c55565b6107a8565b6101446102ab366004610be0565b6108e0565b6101956102be366004610be0565b6108f2565b6000818152602081905260409020600201545b919050565b6000828152602081905260409020600201546102f990610219610922565b6103345760405162461bcd60e51b815260040180806020018281038252602f815260200180610e86602f913960400191505060405180910390fd5b61033e8282610926565b5050565b61034a610922565b6001600160a01b0316816001600160a01b0316146103995760405162461bcd60e51b815260040180806020018281038252602f815260200180610ee5602f913960400191505060405180910390fd5b61033e828261098f565b600460205281600052604060002081815481106103bf57600080fd5b6000918252602090912001546001600160a01b03169150829050565b600081565b6000828152600160205260408120541580159061041457506001600160a01b03821660009081526003602052604090205415155b6104395760405162461bcd60e51b815260040161043090610d57565b60405180910390fd5b60005b60008481526001602052604090205481101561049857600084815260016020526040902080548290811061046c57fe5b6000918252602090912001546001600160a01b038481169116141561049057600191505b60010161043c565b5092915050565b7fdf8b4c520ffe197c5343c6f5aec59570151ef9a492f2c624fd45ddde6135ec4281565b6104ed7fdf8b4c520ffe197c5343c6f5aec59570151ef9a492f2c624fd45ddde6135ec4233610625565b6105095760405162461bcd60e51b815260040161043090610de7565b6001600160a01b0382166000908152600360205260409020541580159061054857506001600160a01b0381811660009081526005602052604090205416155b6105645760405162461bcd60e51b815260040161043090610e2c565b6001600160a01b03808216600081815260056020908152604080832080549588166001600160a01b031996871681179091558084526004835281842080546001810182559085529284209092018054909516841790945592519192917fe6584895e96f2ea505afcd22b465ea591aaa448ca2b1512ee7e6cf0a0b06bddb9190a35050565b600082815260208190526040812061060090836109f8565b90505b92915050565b600160205281600052604060002081815481106103bf57600080fd5b60008281526020819052604081206106009083610a04565b6001600160a01b0381166000908152600460209081526040918290208054835181840281018401909452808452606093928301828280156106a757602002820191906000526020600020905b81546001600160a01b03168152600190910190602001808311610689575b50505050509050919050565b6000818152600160209081526040918290208054835181840281018401909452808452606093928301828280156106a7576020028201919060005260206000209081546001600160a01b031681526001909101906020018083116106895750505050509050919050565b600081815260208190526040812061060390610a19565b6002602052600090815260409020546001600160a01b031681565b60008281526020819052604090206002015461076d90610219610922565b6103995760405162461bcd60e51b8152600401808060200182810382526030815260200180610eb56030913960400191505060405180910390fd5b6107d27fdf8b4c520ffe197c5343c6f5aec59570151ef9a492f2c624fd45ddde6135ec4233610625565b6107ee5760405162461bcd60e51b815260040161043090610de7565b6001600160a01b038316600090815260036020526040902054158061082857506000818152600260205260409020546001600160a01b0316155b6108445760405162461bcd60e51b815260040161043090610d98565b600081815260026020908152604080832080546001600160a01b0388166001600160a01b03199182168117909255818552600384528285208690558685526001808552838620805491820181558652939094209092018054909316821790925590517fdfaf8626b603a61190ccb047f953d17d6bb3bbe900c801d2b813ce3e526c59a7906108d3908590610d4e565b60405180910390a2505050565b60036020526000908152604090205481565b6005602052600090815260409020546001600160a01b031681565b6000610600836001600160a01b038416610a24565b3390565b600082815260208190526040902061093e908261090d565b1561033e5761094b610922565b6001600160a01b0316816001600160a01b0316837f2f8788117e7eff1d82e926ec794901d17c78024a50270940304540a733656f0d60405160405180910390a45050565b60008281526020819052604090206109a79082610a6e565b1561033e576109b4610922565b6001600160a01b0316816001600160a01b0316837ff6391f5c32d9c69d2a47ea670b442974b53935d1edc7fd64eb21e047a839171b60405160405180910390a45050565b60006106008383610a83565b6000610600836001600160a01b038416610ae7565b600061060382610aff565b6000610a308383610ae7565b610a6657508154600181810184556000848152602080822090930184905584548482528286019093526040902091909155610603565b506000610603565b6000610600836001600160a01b038416610b03565b81546000908210610ac55760405162461bcd60e51b8152600401808060200182810382526022815260200180610e646022913960400191505060405180910390fd5b826000018281548110610ad457fe5b9060005260206000200154905092915050565b60009081526001919091016020526040902054151590565b5490565b60008181526001830160205260408120548015610bbf5783546000198083019190810190600090879083908110610b3657fe5b9060005260206000200154905080876000018481548110610b5357fe5b600091825260208083209091019290925582815260018981019092526040902090840190558654879080610b8357fe5b60019003818190600052602060002001600090559055866001016000878152602001908152602001600020600090556001945050505050610603565b6000915050610603565b80356001600160a01b03811681146102d657600080fd5b600060208284031215610bf1578081fd5b61060082610bc9565b60008060408385031215610c0c578081fd5b610c1583610bc9565b9150610c2360208401610bc9565b90509250929050565b60008060408385031215610c3e578182fd5b610c4783610bc9565b946020939093013593505050565b600080600060608486031215610c69578081fd5b610c7284610bc9565b95602085013595506040909401359392505050565b600060208284031215610c98578081fd5b5035919050565b60008060408385031215610cb1578182fd5b82359150610c2360208401610bc9565b60008060408385031215610cd3578182fd5b50508035926020909101359150565b6001600160a01b0391909116815260200190565b6020808252825182820181905260009190848201906040850190845b81811015610d375783516001600160a01b031683529284019291840191600101610d12565b50909695505050505050565b901515815260200190565b90815260200190565b60208082526021908201527f5374616b6552656769737472793a2076616c69645661756c74206973206661696040820152601b60fa1b606082015260800190565b6020808252602f908201527f5374616b6552656769737472793a206164645661756c7420696e70757420766160408201526e6c7565206973206e6f74207a65726f60881b606082015260800190565b60208082526025908201527f5374616b6552656769737472793a2043616c6c6572206973206e6f7420616e2060408201526430b236b4b760d91b606082015260800190565b6020808252601c908201527f5374616b6552656769737472793a20696e707574206973207a65726f0000000060408201526060019056fe456e756d657261626c655365743a20696e646578206f7574206f6620626f756e6473416363657373436f6e74726f6c3a2073656e646572206d75737420626520616e2061646d696e20746f206772616e74416363657373436f6e74726f6c3a2073656e646572206d75737420626520616e2061646d696e20746f207265766f6b65416363657373436f6e74726f6c3a2063616e206f6e6c792072656e6f756e636520726f6c657320666f722073656c66a2646970667358221220a989e7fb90fd16c75abf1701c023de55ec5c0170e5776636ef5fbea6ee5ab52964736f6c63430007060033df8b4c520ffe197c5343c6f5aec59570151ef9a492f2c624fd45ddde6135ec42",
  "immutableReferences": {},
  "source": "//SPDX-License-Identifier: Unlicense\npragma solidity ^0.7.6;\npragma abicoder v2;\nimport \"@openzeppelin/contracts/access/AccessControl.sol\";\nimport {IFLD} from \"../interfaces/IFLD.sol\";\n\ncontract StakeRegistry is AccessControl {\n    bytes32 public constant ADMIN_ROLE = keccak256(\"ADMIN\");\n\n    bytes32 public constant ZERO_HASH =\n        0x0000000000000000000000000000000000000000000000000000000000000000;\n\n    mapping(uint256 => address[]) public phases;\n\n    mapping(bytes32 => address) public vaults;      // vaultNames - Vault\n    mapping(address => bytes32) public vaultNames;  // vault - vaultNames\n\n    mapping(address => address[]) public stakeContractsOfVault; // vault - stakeContracts[]\n    mapping(address => address) public stakeContractVault; // stakeContract - vault\n\n    modifier onlyOwner() {\n        require(\n            hasRole(ADMIN_ROLE, msg.sender),\n            \"StakeRegistry: Caller is not an admin\"\n        );\n        _;\n    }\n    //////////////////////////////\n    // Events\n    //////////////////////////////\n    event AddedVault(address indexed vault, uint256 phase);\n    event AddedStakeContract(address indexed vault, address indexed stakeContract);\n\n    constructor() {\n        _setRoleAdmin(ADMIN_ROLE, ADMIN_ROLE);\n        _setupRole(ADMIN_ROLE, msg.sender);\n    }\n\n    /// @dev Adds vault\n    function addVault(\n        address _vault,\n        uint256 _phase,\n        bytes32 _vaultName\n    ) external onlyOwner {\n        require(\n            vaultNames[_vault] == ZERO_HASH || vaults[_vaultName] == address(0),\n            \"StakeRegistry: addVault input value is not zero\"\n        );\n        vaults[_vaultName] = _vault;\n        vaultNames[_vault] = _vaultName;\n        phases[_phase].push(_vault);\n\n        emit AddedVault(_vault, _phase);\n    }\n\n    /// @dev Stores vault and stake, and maps them togethers\n    function addStakeContract(address _vault, address _stakeContract)\n        external\n        onlyOwner\n    {\n        require(\n            vaultNames[_vault] != ZERO_HASH &&\n                stakeContractVault[_stakeContract] == address(0),\n            \"StakeRegistry: input is zero\"\n        );\n        stakeContractVault[_stakeContract] = _vault;\n        stakeContractsOfVault[_vault].push(_stakeContract);\n\n        emit AddedStakeContract(_vault, _stakeContract);\n    }\n\n    function phasesAll(uint256 _index)\n        external\n        view\n        returns (address[] memory)\n    {\n        return phases[_index];\n    }\n\n    function stakeContractsOfVaultAll(address _vault)\n        external\n        view\n        returns (address[] memory)\n    {\n        return stakeContractsOfVault[_vault];\n    }\n\n    /// @dev Checks if a vault is withing the given phase\n    function validVault(uint256 _phase, address _vault)\n        external\n        view\n        returns (bool valid)\n    {\n        require(\n            phases[_phase].length > 0 && vaultNames[_vault] != ZERO_HASH,\n            \"StakeRegistry: validVault is fail\"\n        );\n\n        for (uint256 i = 0; i < phases[_phase].length; i++) {\n            if (_vault == phases[_phase][i]) valid = true;\n        }\n    }\n\n}\n",
  "sourcePath": "/Users/zena/ico2.0/ico20-contracts/contracts/stake/StakeRegistry.sol",
  "compiler": {
    "name": "solc",
    "version": "0.7.6+commit.7338295f.Emscripten.clang"
  },
  "schemaVersion": "3.3.4",
  "updatedAt": "2021-05-17T14:04:13.403Z",
  "devdoc": {
    "kind": "dev",
    "methods": {
      "addStakeContract(address,address)": {
        "details": "Stores vault and stake, and maps them togethers"
      },
      "addVault(address,uint256,bytes32)": {
        "details": "Adds vault"
      },
      "getRoleAdmin(bytes32)": {
        "details": "Returns the admin role that controls `role`. See {grantRole} and {revokeRole}. To change a role's admin, use {_setRoleAdmin}."
      },
      "getRoleMember(bytes32,uint256)": {
        "details": "Returns one of the accounts that have `role`. `index` must be a value between 0 and {getRoleMemberCount}, non-inclusive. Role bearers are not sorted in any particular way, and their ordering may change at any point. WARNING: When using {getRoleMember} and {getRoleMemberCount}, make sure you perform all queries on the same block. See the following https://forum.openzeppelin.com/t/iterating-over-elements-on-enumerableset-in-openzeppelin-contracts/2296[forum post] for more information."
      },
      "getRoleMemberCount(bytes32)": {
        "details": "Returns the number of accounts that have `role`. Can be used together with {getRoleMember} to enumerate all bearers of a role."
      },
      "grantRole(bytes32,address)": {
        "details": "Grants `role` to `account`. If `account` had not been already granted `role`, emits a {RoleGranted} event. Requirements: - the caller must have ``role``'s admin role."
      },
      "hasRole(bytes32,address)": {
        "details": "Returns `true` if `account` has been granted `role`."
      },
      "renounceRole(bytes32,address)": {
        "details": "Revokes `role` from the calling account. Roles are often managed via {grantRole} and {revokeRole}: this function's purpose is to provide a mechanism for accounts to lose their privileges if they are compromised (such as when a trusted device is misplaced). If the calling account had been granted `role`, emits a {RoleRevoked} event. Requirements: - the caller must be `account`."
      },
      "revokeRole(bytes32,address)": {
        "details": "Revokes `role` from `account`. If `account` had been granted `role`, emits a {RoleRevoked} event. Requirements: - the caller must have ``role``'s admin role."
      },
      "validVault(uint256,address)": {
        "details": "Checks if a vault is withing the given phase"
      }
    },
    "version": 1
  },
  "userdoc": {
    "kind": "user",
    "methods": {},
    "version": 1
  }
}