{
  "contractName": "StakeYearnProxy",
  "abi": [
    {
      "inputs": [],
      "stateMutability": "nonpayable",
      "type": "constructor"
    },
    {
      "anonymous": false,
      "inputs": [
        {
          "indexed": true,
          "internalType": "bytes32",
          "name": "role",
          "type": "bytes32"
        },
        {
          "indexed": true,
          "internalType": "bytes32",
          "name": "previousAdminRole",
          "type": "bytes32"
        },
        {
          "indexed": true,
          "internalType": "bytes32",
          "name": "newAdminRole",
          "type": "bytes32"
        }
      ],
      "name": "RoleAdminChanged",
      "type": "event"
    },
    {
      "anonymous": false,
      "inputs": [
        {
          "indexed": true,
          "internalType": "bytes32",
          "name": "role",
          "type": "bytes32"
        },
        {
          "indexed": true,
          "internalType": "address",
          "name": "account",
          "type": "address"
        },
        {
          "indexed": true,
          "internalType": "address",
          "name": "sender",
          "type": "address"
        }
      ],
      "name": "RoleGranted",
      "type": "event"
    },
    {
      "anonymous": false,
      "inputs": [
        {
          "indexed": true,
          "internalType": "bytes32",
          "name": "role",
          "type": "bytes32"
        },
        {
          "indexed": true,
          "internalType": "address",
          "name": "account",
          "type": "address"
        },
        {
          "indexed": true,
          "internalType": "address",
          "name": "sender",
          "type": "address"
        }
      ],
      "name": "RoleRevoked",
      "type": "event"
    },
    {
      "anonymous": false,
      "inputs": [
        {
          "indexed": true,
          "internalType": "address",
          "name": "implementation",
          "type": "address"
        }
      ],
      "name": "Upgraded",
      "type": "event"
    },
    {
      "stateMutability": "payable",
      "type": "fallback"
    },
    {
      "inputs": [],
      "name": "ADMIN_ROLE",
      "outputs": [
        {
          "internalType": "bytes32",
          "name": "",
          "type": "bytes32"
        }
      ],
      "stateMutability": "view",
      "type": "function"
    },
    {
      "inputs": [],
      "name": "DEFAULT_ADMIN_ROLE",
      "outputs": [
        {
          "internalType": "bytes32",
          "name": "",
          "type": "bytes32"
        }
      ],
      "stateMutability": "view",
      "type": "function"
    },
    {
      "inputs": [],
      "name": "endBlock",
      "outputs": [
        {
          "internalType": "uint256",
          "name": "",
          "type": "uint256"
        }
      ],
      "stateMutability": "view",
      "type": "function"
    },
    {
      "inputs": [
        {
          "internalType": "bytes32",
          "name": "role",
          "type": "bytes32"
        }
      ],
      "name": "getRoleAdmin",
      "outputs": [
        {
          "internalType": "bytes32",
          "name": "",
          "type": "bytes32"
        }
      ],
      "stateMutability": "view",
      "type": "function"
    },
    {
      "inputs": [
        {
          "internalType": "bytes32",
          "name": "role",
          "type": "bytes32"
        },
        {
          "internalType": "uint256",
          "name": "index",
          "type": "uint256"
        }
      ],
      "name": "getRoleMember",
      "outputs": [
        {
          "internalType": "address",
          "name": "",
          "type": "address"
        }
      ],
      "stateMutability": "view",
      "type": "function"
    },
    {
      "inputs": [
        {
          "internalType": "bytes32",
          "name": "role",
          "type": "bytes32"
        }
      ],
      "name": "getRoleMemberCount",
      "outputs": [
        {
          "internalType": "uint256",
          "name": "",
          "type": "uint256"
        }
      ],
      "stateMutability": "view",
      "type": "function"
    },
    {
      "inputs": [
        {
          "internalType": "bytes32",
          "name": "role",
          "type": "bytes32"
        },
        {
          "internalType": "address",
          "name": "account",
          "type": "address"
        }
      ],
      "name": "grantRole",
      "outputs": [],
      "stateMutability": "nonpayable",
      "type": "function"
    },
    {
      "inputs": [
        {
          "internalType": "bytes32",
          "name": "role",
          "type": "bytes32"
        },
        {
          "internalType": "address",
          "name": "account",
          "type": "address"
        }
      ],
      "name": "hasRole",
      "outputs": [
        {
          "internalType": "bool",
          "name": "",
          "type": "bool"
        }
      ],
      "stateMutability": "view",
      "type": "function"
    },
    {
      "inputs": [],
      "name": "pauseProxy",
      "outputs": [
        {
          "internalType": "bool",
          "name": "",
          "type": "bool"
        }
      ],
      "stateMutability": "view",
      "type": "function"
    },
    {
      "inputs": [],
      "name": "paytoken",
      "outputs": [
        {
          "internalType": "address",
          "name": "",
          "type": "address"
        }
      ],
      "stateMutability": "view",
      "type": "function"
    },
    {
      "inputs": [
        {
          "internalType": "bytes32",
          "name": "role",
          "type": "bytes32"
        },
        {
          "internalType": "address",
          "name": "account",
          "type": "address"
        }
      ],
      "name": "renounceRole",
      "outputs": [],
      "stateMutability": "nonpayable",
      "type": "function"
    },
    {
      "inputs": [
        {
          "internalType": "bytes32",
          "name": "role",
          "type": "bytes32"
        },
        {
          "internalType": "address",
          "name": "account",
          "type": "address"
        }
      ],
      "name": "revokeRole",
      "outputs": [],
      "stateMutability": "nonpayable",
      "type": "function"
    },
    {
      "inputs": [],
      "name": "rewardClaimedTotal",
      "outputs": [
        {
          "internalType": "uint256",
          "name": "",
          "type": "uint256"
        }
      ],
      "stateMutability": "view",
      "type": "function"
    },
    {
      "inputs": [],
      "name": "saleStartBlock",
      "outputs": [
        {
          "internalType": "uint256",
          "name": "",
          "type": "uint256"
        }
      ],
      "stateMutability": "view",
      "type": "function"
    },
    {
      "inputs": [],
      "name": "startBlock",
      "outputs": [
        {
          "internalType": "uint256",
          "name": "",
          "type": "uint256"
        }
      ],
      "stateMutability": "view",
      "type": "function"
    },
    {
      "inputs": [],
      "name": "token",
      "outputs": [
        {
          "internalType": "address",
          "name": "",
          "type": "address"
        }
      ],
      "stateMutability": "view",
      "type": "function"
    },
    {
      "inputs": [],
      "name": "totalStakedAmount",
      "outputs": [
        {
          "internalType": "uint256",
          "name": "",
          "type": "uint256"
        }
      ],
      "stateMutability": "view",
      "type": "function"
    },
    {
      "inputs": [
        {
          "internalType": "address",
          "name": "",
          "type": "address"
        }
      ],
      "name": "userStaked",
      "outputs": [
        {
          "internalType": "uint256",
          "name": "amount",
          "type": "uint256"
        },
        {
          "internalType": "uint256",
          "name": "claimedBlock",
          "type": "uint256"
        },
        {
          "internalType": "uint256",
          "name": "claimedAmount",
          "type": "uint256"
        },
        {
          "internalType": "uint256",
          "name": "releasedBlock",
          "type": "uint256"
        },
        {
          "internalType": "uint256",
          "name": "releasedAmount",
          "type": "uint256"
        },
        {
          "internalType": "bool",
          "name": "released",
          "type": "bool"
        }
      ],
      "stateMutability": "view",
      "type": "function"
    },
    {
      "inputs": [],
      "name": "vault",
      "outputs": [
        {
          "internalType": "address",
          "name": "",
          "type": "address"
        }
      ],
      "stateMutability": "view",
      "type": "function"
    },
    {
      "inputs": [],
      "name": "yearnV2Vault",
      "outputs": [
        {
          "internalType": "address",
          "name": "",
          "type": "address"
        }
      ],
      "stateMutability": "view",
      "type": "function"
    },
    {
      "stateMutability": "payable",
      "type": "receive"
    },
    {
      "inputs": [
        {
          "internalType": "bool",
          "name": "_pause",
          "type": "bool"
        }
      ],
      "name": "setProxyPause",
      "outputs": [],
      "stateMutability": "nonpayable",
      "type": "function"
    },
    {
      "inputs": [
        {
          "internalType": "address",
          "name": "impl",
          "type": "address"
        }
      ],
      "name": "upgradeTo",
      "outputs": [],
      "stateMutability": "nonpayable",
      "type": "function"
    },
    {
      "inputs": [],
      "name": "implementation",
      "outputs": [
        {
          "internalType": "address",
          "name": "",
          "type": "address"
        }
      ],
      "stateMutability": "view",
      "type": "function"
    }
  ],
  "bytecode": "0x60806040523480156200001157600080fd5b506200002d60008051602062000fcf8339815191528062000069565b6200004860008051602062000fcf83398151915233620000bb565b6200006360008051602062000fcf83398151915230620000bb565b620001d1565b6000828152600b6020526040808220600201549051839285917fbd79b86ffe0ab8e8776151514217cd7cacd52c909f66475c3af44e129f0b00ff9190a46000918252600b602052604090912060020155565b620000c78282620000cb565b5050565b6000828152600b60209081526040909120620000f29183906200081062000146821b17901c565b15620000c7576200010262000166565b6001600160a01b0316816001600160a01b0316837f2f8788117e7eff1d82e926ec794901d17c78024a50270940304540a733656f0d60405160405180910390a45050565b60006200015d836001600160a01b0384166200016a565b90505b92915050565b3390565b6000620001788383620001b9565b620001b05750815460018181018455600084815260208082209093018490558454848252828601909352604090209190915562000160565b50600062000160565b60009081526001919091016020526040902054151590565b610dee80620001e16000396000f3fe6080604052600436106101445760003560e01c806375b238fc116100b6578063acc3a9391161006f578063acc3a9391461033d578063b2d4d6a31461036f578063ca15c87314610384578063d547741f146103a4578063fbfa77cf146103c4578063fc0c546a146103d957610153565b806375b238fc1461029e5780637cb00d25146102b35780639010d07c146102d357806391d14854146102f3578063a2095f2914610313578063a217fddf1461032857610153565b80633659cfe6116101085780633659cfe6146101fb57806343b0934a1461021b57806348cd4cb11461023d578063567e98f9146102525780635c60da1b1461026757806363a8fd891461027c57610153565b8063083c63231461015b5780632002727514610186578063248a9ca31461019b5780632f2ff15d146101bb57806336568abe146101db57610153565b36610153576101516103ee565b005b6101516103ee565b34801561016757600080fd5b50610170610465565b60405161017d9190610ba7565b60405180910390f35b34801561019257600080fd5b5061017061046b565b3480156101a757600080fd5b506101706101b6366004610b24565b610471565b3480156101c757600080fd5b506101516101d6366004610b3c565b610489565b3480156101e757600080fd5b506101516101f6366004610b3c565b6104f0565b34801561020757600080fd5b50610151610216366004610ae3565b610551565b34801561022757600080fd5b50610230610635565b60405161017d9190610b88565b34801561024957600080fd5b50610170610644565b34801561025e57600080fd5b5061017061064a565b34801561027357600080fd5b50610230610650565b34801561028857600080fd5b5061029161065f565b60405161017d9190610b9c565b3480156102aa57600080fd5b5061017061066f565b3480156102bf57600080fd5b506101516102ce366004610afd565b610693565b3480156102df57600080fd5b506102306102ee366004610b67565b6106f7565b3480156102ff57600080fd5b5061029161030e366004610b3c565b610718565b34801561031f57600080fd5b50610230610730565b34801561033457600080fd5b5061017061073f565b34801561034957600080fd5b5061035d610358366004610ae3565b610744565b60405161017d96959493929190610cde565b34801561037b57600080fd5b5061017061077c565b34801561039057600080fd5b5061017061039f366004610b24565b610782565b3480156103b057600080fd5b506101516103bf366004610b3c565b610799565b3480156103d057600080fd5b506102306107f2565b3480156103e557600080fd5b50610230610801565b60006103f8610650565b90506001600160a01b0381161580159061041c5750600c54600160a01b900460ff16155b6104415760405162461bcd60e51b815260040161043890610c8f565b60405180910390fd5b3660008037600080366000845af43d6000803e808015610460573d6000f35b3d6000fd5b60055481565b60035481565b6000818152600b60205260409020600201545b919050565b6000828152600b60205260409020600201546104a79061030e610825565b6104e25760405162461bcd60e51b815260040180806020018281038252602f815260200180610d2b602f913960400191505060405180910390fd5b6104ec8282610829565b5050565b6104f8610825565b6001600160a01b0316816001600160a01b0316146105475760405162461bcd60e51b815260040180806020018281038252602f815260200180610d8a602f913960400191505060405180910390fd5b6104ec8282610892565b61057b7fdf8b4c520ffe197c5343c6f5aec59570151ef9a492f2c624fd45ddde6135ec4233610718565b6105975760405162461bcd60e51b815260040161043890610c44565b6001600160a01b0381166105bd5760405162461bcd60e51b815260040161043890610bb0565b600c546001600160a01b03828116911614156105eb5760405162461bcd60e51b815260040161043890610be7565b600c80546001600160a01b0319166001600160a01b0383169081179091556040517fbc7cd75a20ee27fd9adebab32041f755214dbc6bffa90cc0225b39da2e5c2d3b90600090a250565b6001546001600160a01b031681565b60045481565b60075481565b600c546001600160a01b031690565b600c54600160a01b900460ff1681565b7fdf8b4c520ffe197c5343c6f5aec59570151ef9a492f2c624fd45ddde6135ec4281565b6106bd7fdf8b4c520ffe197c5343c6f5aec59570151ef9a492f2c624fd45ddde6135ec4233610718565b6106d95760405162461bcd60e51b815260040161043890610c44565b600c8054911515600160a01b0260ff60a01b19909216919091179055565b6000828152600b6020526040812061070f90836108fb565b90505b92915050565b6000828152600b6020526040812061070f9083610907565b600a546001600160a01b031681565b600081565b600860205260009081526040902080546001820154600283015460038401546004850154600590950154939492939192909160ff1686565b60065481565b6000818152600b602052604081206107129061091c565b6000828152600b60205260409020600201546107b79061030e610825565b6105475760405162461bcd60e51b8152600401808060200182810382526030815260200180610d5a6030913960400191505060405180910390fd5b6002546001600160a01b031681565b6000546001600160a01b031681565b600061070f836001600160a01b038416610927565b3390565b6000828152600b602052604090206108419082610810565b156104ec5761084e610825565b6001600160a01b0316816001600160a01b0316837f2f8788117e7eff1d82e926ec794901d17c78024a50270940304540a733656f0d60405160405180910390a45050565b6000828152600b602052604090206108aa9082610971565b156104ec576108b7610825565b6001600160a01b0316816001600160a01b0316837ff6391f5c32d9c69d2a47ea670b442974b53935d1edc7fd64eb21e047a839171b60405160405180910390a45050565b600061070f8383610986565b600061070f836001600160a01b0384166109ea565b600061071282610a02565b600061093383836109ea565b61096957508154600181810184556000848152602080822090930184905584548482528286019093526040902091909155610712565b506000610712565b600061070f836001600160a01b038416610a06565b815460009082106109c85760405162461bcd60e51b8152600401808060200182810382526022815260200180610d096022913960400191505060405180910390fd5b8260000182815481106109d757fe5b9060005260206000200154905092915050565b60009081526001919091016020526040902054151590565b5490565b60008181526001830160205260408120548015610ac25783546000198083019190810190600090879083908110610a3957fe5b9060005260206000200154905080876000018481548110610a5657fe5b600091825260208083209091019290925582815260018981019092526040902090840190558654879080610a8657fe5b60019003818190600052602060002001600090559055866001016000878152602001908152602001600020600090556001945050505050610712565b6000915050610712565b80356001600160a01b038116811461048457600080fd5b600060208284031215610af4578081fd5b61070f82610acc565b600060208284031215610b0e578081fd5b81358015158114610b1d578182fd5b9392505050565b600060208284031215610b35578081fd5b5035919050565b60008060408385031215610b4e578081fd5b82359150610b5e60208401610acc565b90509250929050565b60008060408385031215610b79578182fd5b50508035926020909101359150565b6001600160a01b0391909116815260200190565b901515815260200190565b90815260200190565b6020808252601e908201527f5374616b65596561726e50726f78793a20696e707574206973207a65726f0000604082015260600190565b60208082526037908201527f5374616b65596561726e50726f78793a2054686520696e70757420616464726560408201527f73732069732073616d6520617320746865207374617465000000000000000000606082015260800190565b6020808252602b908201527f5374616b65596561726e50726f78793a206d73672e73656e646572206973206e60408201526a37ba1030b71030b236b4b760a91b606082015260800190565b6020808252602f908201527f5374616b65596561726e50726f78793a20696d706c206973207a65726f204f5260408201526e2070726f78792069732066616c736560881b606082015260800190565b9586526020860194909452604085019290925260608401526080830152151560a082015260c0019056fe456e756d657261626c655365743a20696e646578206f7574206f6620626f756e6473416363657373436f6e74726f6c3a2073656e646572206d75737420626520616e2061646d696e20746f206772616e74416363657373436f6e74726f6c3a2073656e646572206d75737420626520616e2061646d696e20746f207265766f6b65416363657373436f6e74726f6c3a2063616e206f6e6c792072656e6f756e636520726f6c657320666f722073656c66a2646970667358221220db0b6ef4c7085498ed2553d60433496d7933311e2c25fc69dca5b99bd1cd899964736f6c63430007060033df8b4c520ffe197c5343c6f5aec59570151ef9a492f2c624fd45ddde6135ec42",
  "immutableReferences": {},
  "source": "// SPDX-License-Identifier: MIT\npragma solidity ^0.7.6;\npragma abicoder v2;\n\nimport \"./StakeYearnStorage.sol\";\nimport \"@openzeppelin/contracts/access/AccessControl.sol\";\n\n/// @title Proxy for Stake contracts in Phase 1\n/// @notice\ncontract StakeYearnProxy is StakeYearnStorage, AccessControl {\n    bytes32 public constant ADMIN_ROLE = keccak256(\"ADMIN\");\n    address internal _implementation;\n    bool public pauseProxy;\n\n    event Upgraded(address indexed implementation);\n\n    modifier onlyOwner() {\n        require(\n            hasRole(ADMIN_ROLE, msg.sender),\n            \"StakeYearnProxy: msg.sender is not an admin\"\n        );\n        _;\n    }\n\n    constructor() {\n        _setRoleAdmin(ADMIN_ROLE, ADMIN_ROLE);\n        _setupRole(ADMIN_ROLE, msg.sender);\n        _setupRole(ADMIN_ROLE, address(this));\n    }\n\n    /// @notice Set pause state\n    /// @param _pause true:pause or false:resume\n    function setProxyPause(bool _pause) external onlyOwner {\n        pauseProxy = _pause;\n    }\n\n    /// @notice Set implementation contract\n    /// @param impl New implementation contract address\n    function upgradeTo(address impl) external onlyOwner {\n        require(impl != address(0), \"StakeYearnProxy: input is zero\");\n        require(\n            _implementation != impl,\n            \"StakeYearnProxy: The input address is same as the state\"\n        );\n        _implementation = impl;\n        emit Upgraded(impl);\n    }\n\n    /// @dev returns the implementation\n    function implementation() public view returns (address) {\n        return _implementation;\n    }\n\n    receive() external payable {\n        _fallback();\n    }\n\n    fallback() external payable {\n        _fallback();\n    }\n\n    function _fallback() internal {\n        address _impl = implementation();\n        require(\n            _impl != address(0) && !pauseProxy,\n            \"StakeYearnProxy: impl is zero OR proxy is false\"\n        );\n\n        assembly {\n            // Copy msg.data. We take full control of memory in this inline assembly\n            // block because it will not return to Solidity code. We overwrite the\n            // Solidity scratch pad at memory position 0.\n            calldatacopy(0, 0, calldatasize())\n\n            // Call the implementation.\n            // out and outsize are 0 because we don't know the size yet.\n            let result := delegatecall(gas(), _impl, 0, calldatasize(), 0, 0)\n\n            // Copy the returned data.\n            returndatacopy(0, 0, returndatasize())\n\n            switch result\n                // delegatecall returns 0 on error.\n                case 0 {\n                    revert(0, returndatasize())\n                }\n                default {\n                    return(0, returndatasize())\n                }\n        }\n    }\n}\n",
  "sourcePath": "/Users/zena/ico2.0/ico20-contracts/contracts/stake/StakeYearnProxy.sol",
  "compiler": {
    "name": "solc",
    "version": "0.7.6+commit.7338295f.Emscripten.clang"
  },
  "schemaVersion": "3.3.4",
  "updatedAt": "2021-05-17T15:11:33.513Z",
  "devdoc": {
    "kind": "dev",
    "methods": {
      "getRoleAdmin(bytes32)": {
        "details": "Returns the admin role that controls `role`. See {grantRole} and {revokeRole}. To change a role's admin, use {_setRoleAdmin}."
      },
      "getRoleMember(bytes32,uint256)": {
        "details": "Returns one of the accounts that have `role`. `index` must be a value between 0 and {getRoleMemberCount}, non-inclusive. Role bearers are not sorted in any particular way, and their ordering may change at any point. WARNING: When using {getRoleMember} and {getRoleMemberCount}, make sure you perform all queries on the same block. See the following https://forum.openzeppelin.com/t/iterating-over-elements-on-enumerableset-in-openzeppelin-contracts/2296[forum post] for more information."
      },
      "getRoleMemberCount(bytes32)": {
        "details": "Returns the number of accounts that have `role`. Can be used together with {getRoleMember} to enumerate all bearers of a role."
      },
      "grantRole(bytes32,address)": {
        "details": "Grants `role` to `account`. If `account` had not been already granted `role`, emits a {RoleGranted} event. Requirements: - the caller must have ``role``'s admin role."
      },
      "hasRole(bytes32,address)": {
        "details": "Returns `true` if `account` has been granted `role`."
      },
      "implementation()": {
        "details": "returns the implementation"
      },
      "renounceRole(bytes32,address)": {
        "details": "Revokes `role` from the calling account. Roles are often managed via {grantRole} and {revokeRole}: this function's purpose is to provide a mechanism for accounts to lose their privileges if they are compromised (such as when a trusted device is misplaced). If the calling account had been granted `role`, emits a {RoleRevoked} event. Requirements: - the caller must be `account`."
      },
      "revokeRole(bytes32,address)": {
        "details": "Revokes `role` from `account`. If `account` had been granted `role`, emits a {RoleRevoked} event. Requirements: - the caller must have ``role``'s admin role."
      },
      "setProxyPause(bool)": {
        "params": {
          "_pause": "true:pause or false:resume"
        }
      },
      "upgradeTo(address)": {
        "params": {
          "impl": "New implementation contract address"
        }
      }
    },
    "title": "Proxy for Stake contracts in Phase 1",
    "version": 1
  },
  "userdoc": {
    "kind": "user",
    "methods": {
      "setProxyPause(bool)": {
        "notice": "Set pause state"
      },
      "upgradeTo(address)": {
        "notice": "Set implementation contract"
      }
    },
    "version": 1
  }
}