{
    "_format": "hh-sol-artifact-1",
    "contractName": "TokenDistribute",
    "sourceName": "contracts/TokenDistribute.sol",
    "abi": [
        {
            "inputs": [],
            "stateMutability": "nonpayable",
            "type": "constructor"
        },
        {
            "anonymous": false,
            "inputs": [
                {
                    "indexed": false,
                    "internalType": "address",
                    "name": "projectToken_",
                    "type": "address"
                },
                {
                    "indexed": false,
                    "internalType": "uint256",
                    "name": "totalDistributeAmount_",
                    "type": "uint256"
                },
                {
                    "components": [
                        {
                            "internalType": "address",
                            "name": "to",
                            "type": "address"
                        },
                        {
                            "internalType": "uint256",
                            "name": "amount",
                            "type": "uint256"
                        }
                    ],
                    "indexed": false,
                    "internalType": "struct TokenDistribute.DistributeInfo[]",
                    "name": "tokens_",
                    "type": "tuple[]"
                }
            ],
            "name": "Distributed",
            "type": "event"
        },
        {
            "anonymous": false,
            "inputs": [
                {
                    "indexed": false,
                    "internalType": "address",
                    "name": "projectToken_",
                    "type": "address"
                },
                {
                    "indexed": false,
                    "internalType": "uint256",
                    "name": "totalDistributeAmount_",
                    "type": "uint256"
                },
                {
                    "indexed": false,
                    "internalType": "bytes",
                    "name": "tokens_",
                    "type": "bytes"
                }
            ],
            "name": "DistributedApproveAndCall",
            "type": "event"
        },
        {
            "inputs": [
                {
                    "internalType": "address",
                    "name": "projectToken",
                    "type": "address"
                },
                {
                    "internalType": "uint256",
                    "name": "totalDistributeAmount",
                    "type": "uint256"
                },
                {
                    "components": [
                        {
                            "internalType": "address",
                            "name": "to",
                            "type": "address"
                        },
                        {
                            "internalType": "uint256",
                            "name": "amount",
                            "type": "uint256"
                        }
                    ],
                    "internalType": "struct TokenDistribute.DistributeInfo[]",
                    "name": "tokens",
                    "type": "tuple[]"
                }
            ],
            "name": "distribute",
            "outputs": [],
            "stateMutability": "nonpayable",
            "type": "function"
        },
        {
            "inputs": [
                {
                    "internalType": "address",
                    "name": "sender",
                    "type": "address"
                },
                {
                    "internalType": "address",
                    "name": "spender",
                    "type": "address"
                },
                {
                    "internalType": "uint256",
                    "name": "amount",
                    "type": "uint256"
                },
                {
                    "internalType": "bytes",
                    "name": "data",
                    "type": "bytes"
                }
            ],
            "name": "onApprove",
            "outputs": [
                {
                    "internalType": "bool",
                    "name": "",
                    "type": "bool"
                }
            ],
            "stateMutability": "nonpayable",
            "type": "function"
        },
        {
            "inputs": [
                {
                    "internalType": "bytes4",
                    "name": "interfaceId",
                    "type": "bytes4"
                }
            ],
            "name": "supportsInterface",
            "outputs": [
                {
                    "internalType": "bool",
                    "name": "",
                    "type": "bool"
                }
            ],
            "stateMutability": "view",
            "type": "function"
        }
    ],
    "bytecode": "0x608060405234801561001057600080fd5b50610021632139e50b60e11b610036565b6100316301ffc9a760e01b610036565b6100b9565b6001600160e01b031980821614156100945760405162461bcd60e51b815260206004820152601c60248201527f4552433136353a20696e76616c696420696e7465726661636520696400000000604482015260640160405180910390fd5b6001600160e01b0319166000908152602081905260409020805460ff19166001179055565b610e01806100c86000396000f3fe608060405234801561001057600080fd5b50600436106100415760003560e01c806301ffc9a7146100465780634273ca1614610087578063b4b49d331461009a575b600080fd5b610073610054366004610bf1565b6001600160e01b03191660009081526020819052604090205460ff1690565b604051901515815260200160405180910390f35b610073610095366004610ab6565b6100af565b6100ad6100a8366004610b4c565b61019c565b005b60006001600160a01b03851630146100f35760405162461bcd60e51b8152602060048201526002602482015261454160f01b60448201526064015b60405180910390fd5b610190863361013c600087878080601f01602080910402602001604051908101604052809392919081815260200183838082843760009201919091525092939250506103979050565b61018b602061014b8189610d57565b89898080601f0160208091040260200160405190810160405280939291908181526020018383808284376000920191909152509294939250506104449050565b61055b565b50600195945050505050565b826101b95760405162461bcd60e51b81526004016100ea90610ce4565b80806101d75760405162461bcd60e51b81526004016100ea90610cac565b6000805b828110156102c057600085858381811061020557634e487b7160e01b600052603260045260246000fd5b61021b9260206040909202019081019150610a9c565b6001600160a01b03161415801561025b5750600085858381811061024f57634e487b7160e01b600052603260045260246000fd5b90506040020160200135115b6102775760405162461bcd60e51b81526004016100ea90610c68565b84848281811061029757634e487b7160e01b600052603260045260246000fd5b90506040020160200135826102ac9190610d00565b9150806102b881610d9a565b9150506101db565b508481146102e05760405162461bcd60e51b81526004016100ea90610cc8565b6102f56001600160a01b0387163330886106dc565b60005b8281101561038e5761037c85858381811061032357634e487b7160e01b600052603260045260246000fd5b6103399260206040909202019081019150610a9c565b86868481811061035957634e487b7160e01b600052603260045260246000fd5b90506040020160200135896001600160a01b031661074d9092919063ffffffff16565b8061038681610d9a565b9150506102f8565b50505050505050565b6000816103a5816020610d00565b10156103e85760405162461bcd60e51b8152602060048201526012602482015271746f55696e743235365f6f766572666c6f7760701b60448201526064016100ea565b6103f3826020610d00565b8351101561043b5760405162461bcd60e51b8152602060048201526015602482015274746f55696e743235365f6f75744f66426f756e647360581b60448201526064016100ea565b50016020015190565b60608161045281601f610d00565b10156104705760405162461bcd60e51b81526004016100ea90610c84565b8261047b8382610d00565b10156104995760405162461bcd60e51b81526004016100ea90610c84565b6104a38284610d00565b845110156104e75760405162461bcd60e51b8152602060048201526011602482015270736c6963655f6f75744f66426f756e647360781b60448201526064016100ea565b6060821580156105065760405191506000825260208201604052610550565b6040519150601f8416801560200281840101858101878315602002848b0101015b8183101561053f578051835260209283019201610527565b5050858452601f01601f1916604052505b5090505b9392505050565b816105785760405162461bcd60e51b81526004016100ea90610ce4565b6000603482516105889190610d18565b9050806105a75760405162461bcd60e51b81526004016100ea90610cac565b6000805b828110156106415760006105d56105c3603484610d38565b6105ce906014610d00565b8690610397565b905060006105ee6105e7603485610d38565b8790610782565b6001600160a01b0316141580156106055750600081115b6106215760405162461bcd60e51b81526004016100ea90610c68565b61062b8184610d00565b925050808061063990610d9a565b9150506105ab565b508381146106615760405162461bcd60e51b81526004016100ea90610cc8565b6106766001600160a01b0386168730876106dc565b60005b8281101561038e576106ca610699610692603484610d38565b8690610782565b6106b96106a7603485610d38565b6106b2906014610d00565b8790610397565b6001600160a01b038916919061074d565b806106d481610d9a565b915050610679565b6040516001600160a01b03808516602483015283166044820152606481018290526107479085906323b872dd60e01b906084015b60408051601f198184030181529190526020810180516001600160e01b03166001600160e01b031990931692909217909152610836565b50505050565b6040516001600160a01b03831660248201526044810182905261077d90849063a9059cbb60e01b90606401610710565b505050565b600081610790816014610d00565b10156107d35760405162461bcd60e51b8152602060048201526012602482015271746f416464726573735f6f766572666c6f7760701b60448201526064016100ea565b6107de826014610d00565b835110156108265760405162461bcd60e51b8152602060048201526015602482015274746f416464726573735f6f75744f66426f756e647360581b60448201526064016100ea565b500160200151600160601b900490565b600061088b826040518060400160405280602081526020017f5361666545524332303a206c6f772d6c6576656c2063616c6c206661696c6564815250856001600160a01b03166109089092919063ffffffff16565b80519091501561077d57808060200190518101906108a99190610bd1565b61077d5760405162461bcd60e51b815260206004820152602a60248201527f5361666545524332303a204552433230206f7065726174696f6e20646964206e6044820152691bdd081cdd58d8d9595960b21b60648201526084016100ea565b6060610917848460008561091f565b949350505050565b6060824710156109805760405162461bcd60e51b815260206004820152602660248201527f416464726573733a20696e73756666696369656e742062616c616e636520666f6044820152651c8818d85b1b60d21b60648201526084016100ea565b843b6109ce5760405162461bcd60e51b815260206004820152601d60248201527f416464726573733a2063616c6c20746f206e6f6e2d636f6e747261637400000060448201526064016100ea565b600080866001600160a01b031685876040516109ea9190610c19565b60006040518083038185875af1925050503d8060008114610a27576040519150601f19603f3d011682016040523d82523d6000602084013e610a2c565b606091505b5091509150610a3c828286610a47565b979650505050505050565b60608315610a56575081610554565b825115610a665782518084602001fd5b8160405162461bcd60e51b81526004016100ea9190610c35565b80356001600160a01b0381168114610a9757600080fd5b919050565b600060208284031215610aad578081fd5b61055482610a80565b600080600080600060808688031215610acd578081fd5b610ad686610a80565b9450610ae460208701610a80565b935060408601359250606086013567ffffffffffffffff80821115610b07578283fd5b818801915088601f830112610b1a578283fd5b813581811115610b28578384fd5b896020828501011115610b39578384fd5b9699959850939650602001949392505050565b60008060008060608587031215610b61578384fd5b610b6a85610a80565b935060208501359250604085013567ffffffffffffffff80821115610b8d578384fd5b818701915087601f830112610ba0578384fd5b813581811115610bae578485fd5b8860208260061b8501011115610bc2578485fd5b95989497505060200194505050565b600060208284031215610be2578081fd5b81518015158114610554578182fd5b600060208284031215610c02578081fd5b81356001600160e01b031981168114610554578182fd5b60008251610c2b818460208701610d6e565b9190910192915050565b6020815260008251806020840152610c54816040850160208701610d6e565b601f01601f19169190910160400192915050565b602080825260029082015261229960f11b604082015260600190565b6020808252600e908201526d736c6963655f6f766572666c6f7760901b604082015260600190565b602080825260029082015261453160f01b604082015260600190565b602080825260029082015261114d60f21b604082015260600190565b602080825260029082015261045360f41b604082015260600190565b60008219821115610d1357610d13610db5565b500190565b600082610d3357634e487b7160e01b81526012600452602481fd5b500490565b6000816000190483118215151615610d5257610d52610db5565b500290565b600082821015610d6957610d69610db5565b500390565b60005b83811015610d89578181015183820152602001610d71565b838111156107475750506000910152565b6000600019821415610dae57610dae610db5565b5060010190565b634e487b7160e01b600052601160045260246000fdfea26469706673582212208bbd3af89653321031ce31276d72b7e42eb1143d06333c42741ffbd43be9e70e64736f6c63430008040033",
    "linkReferences": {},
    "deployedLinkReferences": {}
}