{
  "_format": "hh-sol-artifact-1",
  "contractName": "TONVault",
  "sourceName": "contracts/TONVault/TONVault.sol",
  "abi": [
    {
      "inputs": [],
      "stateMutability": "nonpayable",
      "type": "constructor"
    },
    {
      "anonymous": false,
      "inputs": [
        {
          "indexed": true,
          "internalType": "address",
          "name": "caller",
          "type": "address"
        },
        {
          "indexed": false,
          "internalType": "uint256",
          "name": "amount",
          "type": "uint256"
        },
        {
          "indexed": false,
          "internalType": "uint256",
          "name": "totalClaimedAmount",
          "type": "uint256"
        }
      ],
      "name": "Claimed",
      "type": "event"
    },
    {
      "anonymous": false,
      "inputs": [
        {
          "indexed": true,
          "internalType": "bytes32",
          "name": "role",
          "type": "bytes32"
        },
        {
          "indexed": true,
          "internalType": "bytes32",
          "name": "previousAdminRole",
          "type": "bytes32"
        },
        {
          "indexed": true,
          "internalType": "bytes32",
          "name": "newAdminRole",
          "type": "bytes32"
        }
      ],
      "name": "RoleAdminChanged",
      "type": "event"
    },
    {
      "anonymous": false,
      "inputs": [
        {
          "indexed": true,
          "internalType": "bytes32",
          "name": "role",
          "type": "bytes32"
        },
        {
          "indexed": true,
          "internalType": "address",
          "name": "account",
          "type": "address"
        },
        {
          "indexed": true,
          "internalType": "address",
          "name": "sender",
          "type": "address"
        }
      ],
      "name": "RoleGranted",
      "type": "event"
    },
    {
      "anonymous": false,
      "inputs": [
        {
          "indexed": true,
          "internalType": "bytes32",
          "name": "role",
          "type": "bytes32"
        },
        {
          "indexed": true,
          "internalType": "address",
          "name": "account",
          "type": "address"
        },
        {
          "indexed": true,
          "internalType": "address",
          "name": "sender",
          "type": "address"
        }
      ],
      "name": "RoleRevoked",
      "type": "event"
    },
    {
      "inputs": [],
      "name": "DEFAULT_ADMIN_ROLE",
      "outputs": [
        {
          "internalType": "bytes32",
          "name": "",
          "type": "bytes32"
        }
      ],
      "stateMutability": "view",
      "type": "function"
    },
    {
      "inputs": [],
      "name": "PROJECT_ADMIN_ROLE",
      "outputs": [
        {
          "internalType": "bytes32",
          "name": "",
          "type": "bytes32"
        }
      ],
      "stateMutability": "view",
      "type": "function"
    },
    {
      "inputs": [
        {
          "internalType": "address",
          "name": "account",
          "type": "address"
        }
      ],
      "name": "addAdmin",
      "outputs": [],
      "stateMutability": "nonpayable",
      "type": "function"
    },
    {
      "inputs": [
        {
          "internalType": "address",
          "name": "_owner",
          "type": "address"
        }
      ],
      "name": "addProxyAdmin",
      "outputs": [],
      "stateMutability": "nonpayable",
      "type": "function"
    },
    {
      "inputs": [
        {
          "internalType": "address",
          "name": "",
          "type": "address"
        }
      ],
      "name": "aliveImplementation",
      "outputs": [
        {
          "internalType": "bool",
          "name": "",
          "type": "bool"
        }
      ],
      "stateMutability": "view",
      "type": "function"
    },
    {
      "inputs": [],
      "name": "allClaimInfos",
      "outputs": [
        {
          "internalType": "uint256",
          "name": "",
          "type": "uint256"
        },
        {
          "internalType": "uint256[]",
          "name": "",
          "type": "uint256[]"
        },
        {
          "internalType": "uint256[]",
          "name": "",
          "type": "uint256[]"
        },
        {
          "internalType": "uint256",
          "name": "",
          "type": "uint256"
        }
      ],
      "stateMutability": "view",
      "type": "function"
    },
    {
      "inputs": [],
      "name": "boolLogEvent",
      "outputs": [
        {
          "internalType": "bool",
          "name": "",
          "type": "bool"
        }
      ],
      "stateMutability": "view",
      "type": "function"
    },
    {
      "inputs": [
        {
          "internalType": "uint256",
          "name": "_round",
          "type": "uint256"
        }
      ],
      "name": "calculClaimAmount",
      "outputs": [
        {
          "internalType": "uint256",
          "name": "amount",
          "type": "uint256"
        }
      ],
      "stateMutability": "view",
      "type": "function"
    },
    {
      "inputs": [
        {
          "internalType": "address",
          "name": "_token",
          "type": "address"
        },
        {
          "internalType": "address",
          "name": "_dividedPool",
          "type": "address"
        }
      ],
      "name": "changeAddr",
      "outputs": [],
      "stateMutability": "nonpayable",
      "type": "function"
    },
    {
      "inputs": [],
      "name": "claim",
      "outputs": [],
      "stateMutability": "nonpayable",
      "type": "function"
    },
    {
      "inputs": [
        {
          "internalType": "uint256",
          "name": "",
          "type": "uint256"
        }
      ],
      "name": "claimAmounts",
      "outputs": [
        {
          "internalType": "uint256",
          "name": "",
          "type": "uint256"
        }
      ],
      "stateMutability": "view",
      "type": "function"
    },
    {
      "inputs": [
        {
          "internalType": "uint256",
          "name": "",
          "type": "uint256"
        }
      ],
      "name": "claimTimes",
      "outputs": [
        {
          "internalType": "uint256",
          "name": "",
          "type": "uint256"
        }
      ],
      "stateMutability": "view",
      "type": "function"
    },
    {
      "inputs": [],
      "name": "currentRound",
      "outputs": [
        {
          "internalType": "uint256",
          "name": "round",
          "type": "uint256"
        }
      ],
      "stateMutability": "view",
      "type": "function"
    },
    {
      "inputs": [],
      "name": "dividiedPool",
      "outputs": [
        {
          "internalType": "address",
          "name": "",
          "type": "address"
        }
      ],
      "stateMutability": "view",
      "type": "function"
    },
    {
      "inputs": [
        {
          "internalType": "bytes32",
          "name": "role",
          "type": "bytes32"
        }
      ],
      "name": "getRoleAdmin",
      "outputs": [
        {
          "internalType": "bytes32",
          "name": "",
          "type": "bytes32"
        }
      ],
      "stateMutability": "view",
      "type": "function"
    },
    {
      "inputs": [
        {
          "internalType": "bytes32",
          "name": "role",
          "type": "bytes32"
        },
        {
          "internalType": "address",
          "name": "account",
          "type": "address"
        }
      ],
      "name": "grantRole",
      "outputs": [],
      "stateMutability": "nonpayable",
      "type": "function"
    },
    {
      "inputs": [
        {
          "internalType": "bytes32",
          "name": "role",
          "type": "bytes32"
        },
        {
          "internalType": "address",
          "name": "account",
          "type": "address"
        }
      ],
      "name": "hasRole",
      "outputs": [
        {
          "internalType": "bool",
          "name": "",
          "type": "bool"
        }
      ],
      "stateMutability": "view",
      "type": "function"
    },
    {
      "inputs": [
        {
          "internalType": "uint256",
          "name": "_totalAllocatedAmount",
          "type": "uint256"
        },
        {
          "internalType": "uint256",
          "name": "_claimCounts",
          "type": "uint256"
        },
        {
          "internalType": "uint256[]",
          "name": "_claimTimes",
          "type": "uint256[]"
        },
        {
          "internalType": "uint256[]",
          "name": "_claimAmounts",
          "type": "uint256[]"
        }
      ],
      "name": "initialize",
      "outputs": [],
      "stateMutability": "nonpayable",
      "type": "function"
    },
    {
      "inputs": [
        {
          "internalType": "address",
          "name": "account",
          "type": "address"
        }
      ],
      "name": "isAdmin",
      "outputs": [
        {
          "internalType": "bool",
          "name": "",
          "type": "bool"
        }
      ],
      "stateMutability": "view",
      "type": "function"
    },
    {
      "inputs": [
        {
          "internalType": "address",
          "name": "account",
          "type": "address"
        }
      ],
      "name": "isProxyAdmin",
      "outputs": [
        {
          "internalType": "bool",
          "name": "",
          "type": "bool"
        }
      ],
      "stateMutability": "view",
      "type": "function"
    },
    {
      "inputs": [],
      "name": "logEventAddress",
      "outputs": [
        {
          "internalType": "address",
          "name": "",
          "type": "address"
        }
      ],
      "stateMutability": "view",
      "type": "function"
    },
    {
      "inputs": [],
      "name": "name",
      "outputs": [
        {
          "internalType": "string",
          "name": "",
          "type": "string"
        }
      ],
      "stateMutability": "view",
      "type": "function"
    },
    {
      "inputs": [],
      "name": "nowClaimRound",
      "outputs": [
        {
          "internalType": "uint256",
          "name": "",
          "type": "uint256"
        }
      ],
      "stateMutability": "view",
      "type": "function"
    },
    {
      "inputs": [],
      "name": "owner",
      "outputs": [
        {
          "internalType": "address",
          "name": "",
          "type": "address"
        }
      ],
      "stateMutability": "view",
      "type": "function"
    },
    {
      "inputs": [
        {
          "internalType": "uint256",
          "name": "_totalAllocatedAmount",
          "type": "uint256"
        },
        {
          "internalType": "uint256",
          "name": "_claimCounts",
          "type": "uint256"
        },
        {
          "internalType": "uint256[]",
          "name": "_claimTimes",
          "type": "uint256[]"
        },
        {
          "internalType": "uint256[]",
          "name": "_claimAmounts",
          "type": "uint256[]"
        }
      ],
      "name": "ownerSetting",
      "outputs": [],
      "stateMutability": "nonpayable",
      "type": "function"
    },
    {
      "inputs": [],
      "name": "pauseProxy",
      "outputs": [
        {
          "internalType": "bool",
          "name": "",
          "type": "bool"
        }
      ],
      "stateMutability": "view",
      "type": "function"
    },
    {
      "inputs": [
        {
          "internalType": "uint256",
          "name": "",
          "type": "uint256"
        }
      ],
      "name": "proxyImplementation",
      "outputs": [
        {
          "internalType": "address",
          "name": "",
          "type": "address"
        }
      ],
      "stateMutability": "view",
      "type": "function"
    },
    {
      "inputs": [],
      "name": "removeAdmin",
      "outputs": [],
      "stateMutability": "nonpayable",
      "type": "function"
    },
    {
      "inputs": [],
      "name": "removeProxyAdmin",
      "outputs": [],
      "stateMutability": "nonpayable",
      "type": "function"
    },
    {
      "inputs": [
        {
          "internalType": "bytes32",
          "name": "role",
          "type": "bytes32"
        },
        {
          "internalType": "address",
          "name": "account",
          "type": "address"
        }
      ],
      "name": "renounceRole",
      "outputs": [],
      "stateMutability": "nonpayable",
      "type": "function"
    },
    {
      "inputs": [
        {
          "internalType": "bytes32",
          "name": "role",
          "type": "bytes32"
        },
        {
          "internalType": "address",
          "name": "account",
          "type": "address"
        }
      ],
      "name": "revokeRole",
      "outputs": [],
      "stateMutability": "nonpayable",
      "type": "function"
    },
    {
      "inputs": [
        {
          "internalType": "bytes4",
          "name": "",
          "type": "bytes4"
        }
      ],
      "name": "selectorImplementation",
      "outputs": [
        {
          "internalType": "address",
          "name": "",
          "type": "address"
        }
      ],
      "stateMutability": "view",
      "type": "function"
    },
    {
      "inputs": [],
      "name": "settingCheck",
      "outputs": [
        {
          "internalType": "bool",
          "name": "",
          "type": "bool"
        }
      ],
      "stateMutability": "view",
      "type": "function"
    },
    {
      "inputs": [
        {
          "internalType": "bytes4",
          "name": "interfaceId",
          "type": "bytes4"
        }
      ],
      "name": "supportsInterface",
      "outputs": [
        {
          "internalType": "bool",
          "name": "",
          "type": "bool"
        }
      ],
      "stateMutability": "view",
      "type": "function"
    },
    {
      "inputs": [],
      "name": "token",
      "outputs": [
        {
          "internalType": "address",
          "name": "",
          "type": "address"
        }
      ],
      "stateMutability": "view",
      "type": "function"
    },
    {
      "inputs": [],
      "name": "totalAllocatedAmount",
      "outputs": [
        {
          "internalType": "uint256",
          "name": "",
          "type": "uint256"
        }
      ],
      "stateMutability": "view",
      "type": "function"
    },
    {
      "inputs": [],
      "name": "totalClaimCounts",
      "outputs": [
        {
          "internalType": "uint256",
          "name": "",
          "type": "uint256"
        }
      ],
      "stateMutability": "view",
      "type": "function"
    },
    {
      "inputs": [],
      "name": "totalClaimsAmount",
      "outputs": [
        {
          "internalType": "uint256",
          "name": "",
          "type": "uint256"
        }
      ],
      "stateMutability": "view",
      "type": "function"
    },
    {
      "inputs": [
        {
          "internalType": "address",
          "name": "newAdmin",
          "type": "address"
        }
      ],
      "name": "transferAdmin",
      "outputs": [],
      "stateMutability": "nonpayable",
      "type": "function"
    },
    {
      "inputs": [
        {
          "internalType": "address",
          "name": "newAdmin",
          "type": "address"
        }
      ],
      "name": "transferProxyAdmin",
      "outputs": [],
      "stateMutability": "nonpayable",
      "type": "function"
    }
  ],
  "bytecode": "0x6080604052600060065534801561001557600080fd5b50611be8806100256000396000f3fe608060405234801561001057600080fd5b50600436106102485760003560e01c8063704802751161013b578063a4de9179116100b8578063d547741f1161007c578063d547741f14610503578063eab73ca114610516578063ed5131f51461052e578063f47f2f1d14610541578063fc0c546a1461055457600080fd5b8063a4de9179146104a3578063a77a29fc146104b6578063b911135f146104c9578063be72f2d3146104f2578063cfc412be146104fa57600080fd5b80638da5cb5b116100ff5780638da5cb5b1461045a57806391d148541461046d57806396f1557c146104805780639a202d4714610493578063a217fddf1461049b57600080fd5b8063704802751461040657806375829def14610419578063784330c01461042c5780638356ca4f1461043f5780638a19c8bc1461045257600080fd5b806334b38cc3116101c957806350d2a2761161018d57806350d2a27614610384578063550d01a3146103ba57806355640008146103dd5780635a34f1ea146103e657806363a8fd89146103f957600080fd5b806334b38cc31461032957806334d10d471461034157806336568abe1461035457806341c04d5e146103675780634e71d92d1461037c57600080fd5b806321cf43701161021057806321cf4370146102c1578063248a9ca3146102d557806324d7806c146102f8578063256019d61461030b5780632f2ff15d1461031457600080fd5b806301ffc9a71461024d57806306fdde03146102755780630a59fa081461028a5780630f4388c014610297578063117ab874146102b8575b600080fd5b61026061025b366004611787565b610567565b60405190151581526020015b60405180910390f35b61027d61059e565b60405161026c9190611904565b600e546102609060ff1681565b6102aa6102a536600461174d565b61062c565b60405190815260200161026c565b6102aa60065481565b60005461026090600160a01b900460ff1681565b6102aa6102e336600461174d565b6000908152600f602052604090206001015490565b6102606103063660046116e1565b61064d565b6102aa60055481565b610327610322366004611765565b610667565b005b610331610692565b60405161026c9493929190611a54565b61032761034f3660046116fb565b610755565b610327610362366004611765565b6107b1565b6102aa600080516020611b9383398151915281565b61032761082f565b6103ad610392366004611787565b600d602052600090815260409020546001600160a01b031681565b60405161026c91906118f0565b6102606103c83660046116e1565b600c6020526000908152604090205460ff1681565b6102aa60045481565b6103276103f43660046117c7565b610a98565b600a546102609060ff1681565b6103276104143660046116e1565b610d2b565b6103276104273660046116e1565b610d6b565b6002546103ad906001600160a01b031681565b61032761044d3660046116e1565b610e1e565b6102aa610ea8565b6001546103ad906001600160a01b031681565b61026061047b366004611765565b610f93565b61032761048e3660046116e1565b610fbe565b610327610fee565b6102aa600081565b6102aa6104b136600461174d565b61103c565b6103276104c43660046117c7565b6110c6565b6103ad6104d736600461174d565b600b602052600090815260409020546001600160a01b031681565b6103276112ca565b6102aa60075481565b610327610511366004611765565b6112fa565b600e546103ad9061010090046001600160a01b031681565b6102aa61053c36600461174d565b611320565b61026061054f3660046116e1565b611330565b6000546103ad906001600160a01b031681565b60006001600160e01b03198216637965db0b60e01b148061059857506301ffc9a760e01b6001600160e01b03198316145b92915050565b600380546105ab90611b26565b80601f01602080910402602001604051908101604052809291908181526020018280546105d790611b26565b80156106245780601f106105f957610100808354040283529160200191610624565b820191906000526020600020905b81548152906001019060200180831161060757829003601f168201915b505050505081565b6009818154811061063c57600080fd5b600091825260209091200154905081565b6000610598600080516020611b9383398151915283610f93565b6000828152600f6020526040902060010154610683813361133c565b61068d83836113a0565b505050565b6000606080600060055460086009600654828054806020026020016040519081016040528092919081815260200182805480156106ee57602002820191906000526020600020905b8154815260200190600101908083116106da575b505050505092508180548060200260200160405190810160405280929190818152602001828054801561074057602002820191906000526020600020905b81548152602001906001019080831161072c575b50505050509150935093509350935090919293565b61075e33611330565b6107835760405162461bcd60e51b815260040161077a906119ab565b60405180910390fd5b600080546001600160a01b039384166001600160a01b03199182161790915560028054929093169116179055565b6001600160a01b03811633146108215760405162461bcd60e51b815260206004820152602f60248201527f416363657373436f6e74726f6c3a2063616e206f6e6c792072656e6f756e636560448201526e103937b632b9903337b91039b2b63360891b606482015260840161077a565b61082b8282611426565b5050565b600860008154811061085157634e487b7160e01b600052603260045260246000fd5b906000526020600020015442116108a35760405162461bcd60e51b815260206004820152601660248201527515985d5b1d0e881b9bdd081cdd185c9d1959081e595d60521b604482015260640161077a565b600754600454116108ef5760405162461bcd60e51b815260206004820152601660248201527515985d5b1d0e88185b1c9958591e48105b1b0819d95d60521b604482015260640161077a565b60006108f9610ea8565b905060006109068261103c565b6000546040516370a0823160e01b815291925082916001600160a01b03909116906370a082319061093b9030906004016118f0565b60206040518083038186803b15801561095357600080fd5b505afa158015610967573d6000803e3d6000fd5b505050506040513d601f19601f8201168201806040525081019061098b91906117af565b10156109d25760405162461bcd60e51b81526020600482015260166024820152752b30bab63a1d103237b73a103430bb32903a37b5b2b760511b604482015260640161077a565b60068290556007546109e5908290611a91565b600755600254600054604051631f72642160e31b81526001600160a01b0391821660048201526024810184905291169063fb93210890604401600060405180830381600087803b158015610a3857600080fd5b505af1158015610a4c573d6000803e3d6000fd5b50506007546040513393507f987d620f307ff6b94d58743cb7a7509f24071586a77759b77c2d4e29f75a2f9a9250610a8c91858252602082015260400190565b60405180910390a25050565b610aa133611330565b610abd5760405162461bcd60e51b815260040161077a906119ab565b6000546040516370a0823160e01b81526001600160a01b03909116906370a0823190610aed9030906004016118f0565b60206040518083038186803b158015610b0557600080fd5b505afa158015610b19573d6000803e3d6000fd5b505050506040513d601f19601f82011682018060405250810190610b3d91906117af565b861115610b5c5760405162461bcd60e51b815260040161077a90611a23565b600486905560058590556000805b86821015610c40576008868684818110610b9457634e487b7160e01b600052603260045260246000fd5b835460018101855560009485526020948590209190940292909201359190920155506009848484818110610bd857634e487b7160e01b600052603260045260246000fd5b83546001810185556000948552602094859020919094029290920135919092015550838383818110610c1a57634e487b7160e01b600052603260045260246000fd5b9050602002013581610c2c9190611a91565b905081610c3881611b61565b925050610b6a565b808814610c825760405162461bcd60e51b815260206004820152601060248201526f191a5999881d1bdd185b105b5bdd5b9d60821b604482015260640161077a565b60008054600160a01b60ff60a01b198216179091556002546004805460405163095ea7b360e01b81526001600160a01b0393841692810192909252602482015291169063095ea7b390604401602060405180830381600087803b158015610ce857600080fd5b505af1158015610cfc573d6000803e3d6000fd5b505050506040513d601f19601f82011682018060405250810190610d20919061172d565b505050505050505050565b610d3433611330565b610d505760405162461bcd60e51b815260040161077a906119ab565b610d68600080516020611b9383398151915282610667565b50565b610d743361064d565b80610d835750610d8333611330565b610d9f5760405162461bcd60e51b815260040161077a90611937565b6001600160a01b038116610dc55760405162461bcd60e51b815260040161077a90611979565b336001600160a01b0382161415610dee5760405162461bcd60e51b815260040161077a906119f3565b610e06600080516020611b9383398151915282610667565b610d68600080516020611b93833981519152336107b1565b610e2733611330565b610e435760405162461bcd60e51b815260040161077a906119ab565b6001600160a01b038116610e695760405162461bcd60e51b815260040161077a90611979565b336001600160a01b0382161415610e925760405162461bcd60e51b815260040161077a906119f3565b610e9d600082610667565b610d686000336107b1565b60006008600081548110610ecc57634e487b7160e01b600052603260045260246000fd5b9060005260206000200154421015610ee2575060005b60086001600554610ef39190611ac8565b81548110610f1157634e487b7160e01b600052603260045260246000fd5b9060005260206000200154421115610f2857506005545b6005545b8015610f8f576008610f3f600183611ac8565b81548110610f5d57634e487b7160e01b600052603260045260246000fd5b9060005260206000200154421015610f7d57610f7a600182611ac8565b91505b80610f8781611b0f565b915050610f2c565b5090565b6000918252600f602090815260408084206001600160a01b0393909316845291905290205460ff1690565b610fc733611330565b610fe35760405162461bcd60e51b815260040161077a906119ab565b610d6860008261148d565b610ff73361064d565b80611006575061100633611330565b6110225760405162461bcd60e51b815260040161077a90611937565b61103a600080516020611b93833981519152336107b1565b565b6000816005541415611058576007546004546105989190611ac8565b6000805b838110156110af576009818154811061108557634e487b7160e01b600052603260045260246000fd5b90600052602060002001548261109b9190611a91565b9150806110a781611b61565b91505061105c565b506007546110bd9082611ac8565b9150505b919050565b6110cf3361064d565b806110de57506110de33611330565b6110fa5760405162461bcd60e51b815260040161077a90611937565b6000546040516370a0823160e01b81526001600160a01b03909116906370a082319061112a9030906004016118f0565b60206040518083038186803b15801561114257600080fd5b505afa158015611156573d6000803e3d6000fd5b505050506040513d601f19601f8201168201806040525081019061117a91906117af565b8611156111995760405162461bcd60e51b815260040161077a90611a23565b600054600160a01b900460ff161515600114156111e65760405162461bcd60e51b815260206004820152600b60248201526a185b1c9958591e481cd95d60aa1b604482015260640161077a565b600486905560058590556000805b86821015610c4057600886868481811061121e57634e487b7160e01b600052603260045260246000fd5b83546001810185556000948552602094859020919094029290920135919092015550600984848481811061126257634e487b7160e01b600052603260045260246000fd5b835460018101855560009485526020948590209190940292909201359190920155508383838181106112a457634e487b7160e01b600052603260045260246000fd5b90506020020135816112b69190611a91565b9050816112c281611b61565b9250506111f4565b6112d333611330565b6112ef5760405162461bcd60e51b815260040161077a906119ab565b61103a6000336107b1565b6000828152600f6020526040902060010154611316813361133c565b61068d8383611426565b6008818154811061063c57600080fd5b60006105988183610f93565b6113468282610f93565b61082b5761135e816001600160a01b03166014611497565b611369836020611497565b60405160200161137a929190611881565b60408051601f198184030181529082905262461bcd60e51b825261077a91600401611904565b6113aa8282610f93565b61082b576000828152600f602090815260408083206001600160a01b03851684529091529020805460ff191660011790556113e23390565b6001600160a01b0316816001600160a01b0316837f2f8788117e7eff1d82e926ec794901d17c78024a50270940304540a733656f0d60405160405180910390a45050565b6114308282610f93565b1561082b576000828152600f602090815260408083206001600160a01b0385168085529252808320805460ff1916905551339285917ff6391f5c32d9c69d2a47ea670b442974b53935d1edc7fd64eb21e047a839171b9190a45050565b61082b82826113a0565b606060006114a6836002611aa9565b6114b1906002611a91565b67ffffffffffffffff8111156114d757634e487b7160e01b600052604160045260246000fd5b6040519080825280601f01601f191660200182016040528015611501576020820181803683370190505b509050600360fc1b8160008151811061152a57634e487b7160e01b600052603260045260246000fd5b60200101906001600160f81b031916908160001a905350600f60fb1b8160018151811061156757634e487b7160e01b600052603260045260246000fd5b60200101906001600160f81b031916908160001a905350600061158b846002611aa9565b611596906001611a91565b90505b600181111561162a576f181899199a1a9b1b9c1cb0b131b232b360811b85600f16601081106115d857634e487b7160e01b600052603260045260246000fd5b1a60f81b8282815181106115fc57634e487b7160e01b600052603260045260246000fd5b60200101906001600160f81b031916908160001a90535060049490941c9361162381611b0f565b9050611599565b5083156116795760405162461bcd60e51b815260206004820181905260248201527f537472696e67733a20686578206c656e67746820696e73756666696369656e74604482015260640161077a565b9392505050565b80356001600160a01b03811681146110c157600080fd5b60008083601f8401126116a8578182fd5b50813567ffffffffffffffff8111156116bf578182fd5b6020830191508360208260051b85010111156116da57600080fd5b9250929050565b6000602082840312156116f2578081fd5b61167982611680565b6000806040838503121561170d578081fd5b61171683611680565b915061172460208401611680565b90509250929050565b60006020828403121561173e578081fd5b81518015158114611679578182fd5b60006020828403121561175e578081fd5b5035919050565b60008060408385031215611777578182fd5b8235915061172460208401611680565b600060208284031215611798578081fd5b81356001600160e01b031981168114611679578182fd5b6000602082840312156117c0578081fd5b5051919050565b600080600080600080608087890312156117df578182fd5b8635955060208701359450604087013567ffffffffffffffff80821115611804578384fd5b6118108a838b01611697565b90965094506060890135915080821115611828578384fd5b5061183589828a01611697565b979a9699509497509295939492505050565b6000815180845260208085019450808401835b838110156118765781518752958201959082019060010161185a565b509495945050505050565b76020b1b1b2b9b9a1b7b73a3937b61d1030b1b1b7bab73a1604d1b8152600083516118b3816017850160208801611adf565b7001034b99036b4b9b9b4b733903937b6329607d1b60179184019182015283516118e4816028840160208801611adf565b01602801949350505050565b6001600160a01b0391909116815260200190565b6020815260008251806020840152611923816040850160208701611adf565b601f01601f19169190910160400192915050565b60208082526022908201527f41636365737369626c653a2043616c6c6572206973206e6f7420616e2061646d60408201526134b760f11b606082015260800190565b60208082526018908201527741636365737369626c653a207a65726f206164647265737360401b604082015260600190565b60208082526028908201527f41636365737369626c653a2043616c6c6572206973206e6f7420616e2070726f6040820152673c3c9030b236b4b760c11b606082015260800190565b60208082526016908201527520b1b1b2b9b9b4b136329d1039b0b6b29030b236b4b760511b604082015260600190565b6020808252601790820152763732b2b2103a379034b7383aba103a3432903a37b5b2b760491b604082015260600190565b848152608060208201526000611a6d6080830186611847565b8281036040840152611a7f8186611847565b91505082606083015295945050505050565b60008219821115611aa457611aa4611b7c565b500190565b6000816000190483118215151615611ac357611ac3611b7c565b500290565b600082821015611ada57611ada611b7c565b500390565b60005b83811015611afa578181015183820152602001611ae2565b83811115611b09576000848401525b50505050565b600081611b1e57611b1e611b7c565b506000190190565b600181811c90821680611b3a57607f821691505b60208210811415611b5b57634e487b7160e01b600052602260045260246000fd5b50919050565b6000600019821415611b7557611b75611b7c565b5060010190565b634e487b7160e01b600052601160045260246000fdfe52eafc11f6f81f86878bffd31109a0d92f37506527754f00788853ff9f63b130a26469706673582212204f9a116cf7fb6c50a4b343c046e1f80bf172c58ed39b50f076f76d44ab372c9f64736f6c63430008040033",
  "linkReferences": {},
  "deployedLinkReferences": {}
}