{
  "contractName": "TOS",
  "abi": [
    {
      "inputs": [
        {
          "internalType": "string",
          "name": "name_",
          "type": "string"
        },
        {
          "internalType": "string",
          "name": "symbol_",
          "type": "string"
        },
        {
          "internalType": "string",
          "name": "version_",
          "type": "string"
        }
      ],
      "stateMutability": "nonpayable",
      "type": "constructor"
    },
    {
      "anonymous": false,
      "inputs": [
        {
          "indexed": true,
          "internalType": "address",
          "name": "owner",
          "type": "address"
        },
        {
          "indexed": true,
          "internalType": "address",
          "name": "spender",
          "type": "address"
        },
        {
          "indexed": false,
          "internalType": "uint256",
          "name": "value",
          "type": "uint256"
        }
      ],
      "name": "Approval",
      "type": "event"
    },
    {
      "anonymous": false,
      "inputs": [
        {
          "indexed": true,
          "internalType": "bytes32",
          "name": "role",
          "type": "bytes32"
        },
        {
          "indexed": true,
          "internalType": "bytes32",
          "name": "previousAdminRole",
          "type": "bytes32"
        },
        {
          "indexed": true,
          "internalType": "bytes32",
          "name": "newAdminRole",
          "type": "bytes32"
        }
      ],
      "name": "RoleAdminChanged",
      "type": "event"
    },
    {
      "anonymous": false,
      "inputs": [
        {
          "indexed": true,
          "internalType": "bytes32",
          "name": "role",
          "type": "bytes32"
        },
        {
          "indexed": true,
          "internalType": "address",
          "name": "account",
          "type": "address"
        },
        {
          "indexed": true,
          "internalType": "address",
          "name": "sender",
          "type": "address"
        }
      ],
      "name": "RoleGranted",
      "type": "event"
    },
    {
      "anonymous": false,
      "inputs": [
        {
          "indexed": true,
          "internalType": "bytes32",
          "name": "role",
          "type": "bytes32"
        },
        {
          "indexed": true,
          "internalType": "address",
          "name": "account",
          "type": "address"
        },
        {
          "indexed": true,
          "internalType": "address",
          "name": "sender",
          "type": "address"
        }
      ],
      "name": "RoleRevoked",
      "type": "event"
    },
    {
      "anonymous": false,
      "inputs": [
        {
          "indexed": true,
          "internalType": "address",
          "name": "from",
          "type": "address"
        },
        {
          "indexed": true,
          "internalType": "address",
          "name": "to",
          "type": "address"
        },
        {
          "indexed": false,
          "internalType": "uint256",
          "name": "value",
          "type": "uint256"
        }
      ],
      "name": "Transfer",
      "type": "event"
    },
    {
      "inputs": [],
      "name": "ADMIN_ROLE",
      "outputs": [
        {
          "internalType": "bytes32",
          "name": "",
          "type": "bytes32"
        }
      ],
      "stateMutability": "view",
      "type": "function"
    },
    {
      "inputs": [],
      "name": "BURNER_ROLE",
      "outputs": [
        {
          "internalType": "bytes32",
          "name": "",
          "type": "bytes32"
        }
      ],
      "stateMutability": "view",
      "type": "function"
    },
    {
      "inputs": [],
      "name": "DEFAULT_ADMIN_ROLE",
      "outputs": [
        {
          "internalType": "bytes32",
          "name": "",
          "type": "bytes32"
        }
      ],
      "stateMutability": "view",
      "type": "function"
    },
    {
      "inputs": [],
      "name": "MINTER_ROLE",
      "outputs": [
        {
          "internalType": "bytes32",
          "name": "",
          "type": "bytes32"
        }
      ],
      "stateMutability": "view",
      "type": "function"
    },
    {
      "inputs": [],
      "name": "PERMIT_TYPEHASH",
      "outputs": [
        {
          "internalType": "bytes32",
          "name": "",
          "type": "bytes32"
        }
      ],
      "stateMutability": "view",
      "type": "function"
    },
    {
      "inputs": [
        {
          "internalType": "address",
          "name": "owner",
          "type": "address"
        },
        {
          "internalType": "address",
          "name": "spender",
          "type": "address"
        }
      ],
      "name": "allowance",
      "outputs": [
        {
          "internalType": "uint256",
          "name": "",
          "type": "uint256"
        }
      ],
      "stateMutability": "view",
      "type": "function"
    },
    {
      "inputs": [
        {
          "internalType": "address",
          "name": "spender",
          "type": "address"
        },
        {
          "internalType": "uint256",
          "name": "amount",
          "type": "uint256"
        }
      ],
      "name": "approve",
      "outputs": [
        {
          "internalType": "bool",
          "name": "",
          "type": "bool"
        }
      ],
      "stateMutability": "nonpayable",
      "type": "function"
    },
    {
      "inputs": [
        {
          "internalType": "address",
          "name": "account",
          "type": "address"
        }
      ],
      "name": "balanceOf",
      "outputs": [
        {
          "internalType": "uint256",
          "name": "",
          "type": "uint256"
        }
      ],
      "stateMutability": "view",
      "type": "function"
    },
    {
      "inputs": [],
      "name": "decimals",
      "outputs": [
        {
          "internalType": "uint8",
          "name": "",
          "type": "uint8"
        }
      ],
      "stateMutability": "view",
      "type": "function"
    },
    {
      "inputs": [
        {
          "internalType": "address",
          "name": "spender",
          "type": "address"
        },
        {
          "internalType": "uint256",
          "name": "subtractedValue",
          "type": "uint256"
        }
      ],
      "name": "decreaseAllowance",
      "outputs": [
        {
          "internalType": "bool",
          "name": "",
          "type": "bool"
        }
      ],
      "stateMutability": "nonpayable",
      "type": "function"
    },
    {
      "inputs": [
        {
          "internalType": "bytes32",
          "name": "role",
          "type": "bytes32"
        }
      ],
      "name": "getRoleAdmin",
      "outputs": [
        {
          "internalType": "bytes32",
          "name": "",
          "type": "bytes32"
        }
      ],
      "stateMutability": "view",
      "type": "function"
    },
    {
      "inputs": [
        {
          "internalType": "bytes32",
          "name": "role",
          "type": "bytes32"
        },
        {
          "internalType": "uint256",
          "name": "index",
          "type": "uint256"
        }
      ],
      "name": "getRoleMember",
      "outputs": [
        {
          "internalType": "address",
          "name": "",
          "type": "address"
        }
      ],
      "stateMutability": "view",
      "type": "function"
    },
    {
      "inputs": [
        {
          "internalType": "bytes32",
          "name": "role",
          "type": "bytes32"
        }
      ],
      "name": "getRoleMemberCount",
      "outputs": [
        {
          "internalType": "uint256",
          "name": "",
          "type": "uint256"
        }
      ],
      "stateMutability": "view",
      "type": "function"
    },
    {
      "inputs": [
        {
          "internalType": "bytes32",
          "name": "role",
          "type": "bytes32"
        },
        {
          "internalType": "address",
          "name": "account",
          "type": "address"
        }
      ],
      "name": "grantRole",
      "outputs": [],
      "stateMutability": "nonpayable",
      "type": "function"
    },
    {
      "inputs": [
        {
          "internalType": "bytes32",
          "name": "role",
          "type": "bytes32"
        },
        {
          "internalType": "address",
          "name": "account",
          "type": "address"
        }
      ],
      "name": "hasRole",
      "outputs": [
        {
          "internalType": "bool",
          "name": "",
          "type": "bool"
        }
      ],
      "stateMutability": "view",
      "type": "function"
    },
    {
      "inputs": [
        {
          "internalType": "address",
          "name": "spender",
          "type": "address"
        },
        {
          "internalType": "uint256",
          "name": "addedValue",
          "type": "uint256"
        }
      ],
      "name": "increaseAllowance",
      "outputs": [
        {
          "internalType": "bool",
          "name": "",
          "type": "bool"
        }
      ],
      "stateMutability": "nonpayable",
      "type": "function"
    },
    {
      "inputs": [],
      "name": "name",
      "outputs": [
        {
          "internalType": "string",
          "name": "",
          "type": "string"
        }
      ],
      "stateMutability": "view",
      "type": "function"
    },
    {
      "inputs": [
        {
          "internalType": "address",
          "name": "",
          "type": "address"
        }
      ],
      "name": "nonces",
      "outputs": [
        {
          "internalType": "uint256",
          "name": "",
          "type": "uint256"
        }
      ],
      "stateMutability": "view",
      "type": "function"
    },
    {
      "inputs": [
        {
          "internalType": "bytes32",
          "name": "role",
          "type": "bytes32"
        },
        {
          "internalType": "address",
          "name": "account",
          "type": "address"
        }
      ],
      "name": "renounceRole",
      "outputs": [],
      "stateMutability": "nonpayable",
      "type": "function"
    },
    {
      "inputs": [
        {
          "internalType": "bytes32",
          "name": "role",
          "type": "bytes32"
        },
        {
          "internalType": "address",
          "name": "account",
          "type": "address"
        }
      ],
      "name": "revokeRole",
      "outputs": [],
      "stateMutability": "nonpayable",
      "type": "function"
    },
    {
      "inputs": [],
      "name": "symbol",
      "outputs": [
        {
          "internalType": "string",
          "name": "",
          "type": "string"
        }
      ],
      "stateMutability": "view",
      "type": "function"
    },
    {
      "inputs": [],
      "name": "totalSupply",
      "outputs": [
        {
          "internalType": "uint256",
          "name": "",
          "type": "uint256"
        }
      ],
      "stateMutability": "view",
      "type": "function"
    },
    {
      "inputs": [
        {
          "internalType": "address",
          "name": "recipient",
          "type": "address"
        },
        {
          "internalType": "uint256",
          "name": "amount",
          "type": "uint256"
        }
      ],
      "name": "transfer",
      "outputs": [
        {
          "internalType": "bool",
          "name": "",
          "type": "bool"
        }
      ],
      "stateMutability": "nonpayable",
      "type": "function"
    },
    {
      "inputs": [
        {
          "internalType": "address",
          "name": "sender",
          "type": "address"
        },
        {
          "internalType": "address",
          "name": "recipient",
          "type": "address"
        },
        {
          "internalType": "uint256",
          "name": "amount",
          "type": "uint256"
        }
      ],
      "name": "transferFrom",
      "outputs": [
        {
          "internalType": "bool",
          "name": "",
          "type": "bool"
        }
      ],
      "stateMutability": "nonpayable",
      "type": "function"
    },
    {
      "inputs": [],
      "name": "DOMAIN_SEPARATOR",
      "outputs": [
        {
          "internalType": "bytes32",
          "name": "",
          "type": "bytes32"
        }
      ],
      "stateMutability": "view",
      "type": "function"
    },
    {
      "inputs": [
        {
          "internalType": "address",
          "name": "newOwner",
          "type": "address"
        }
      ],
      "name": "transferOwnership",
      "outputs": [],
      "stateMutability": "nonpayable",
      "type": "function"
    },
    {
      "inputs": [
        {
          "internalType": "address",
          "name": "to",
          "type": "address"
        },
        {
          "internalType": "uint256",
          "name": "amount",
          "type": "uint256"
        }
      ],
      "name": "mint",
      "outputs": [
        {
          "internalType": "bool",
          "name": "",
          "type": "bool"
        }
      ],
      "stateMutability": "nonpayable",
      "type": "function"
    },
    {
      "inputs": [
        {
          "internalType": "address",
          "name": "from",
          "type": "address"
        },
        {
          "internalType": "uint256",
          "name": "amount",
          "type": "uint256"
        }
      ],
      "name": "burn",
      "outputs": [
        {
          "internalType": "bool",
          "name": "",
          "type": "bool"
        }
      ],
      "stateMutability": "nonpayable",
      "type": "function"
    },
    {
      "inputs": [
        {
          "internalType": "address",
          "name": "owner",
          "type": "address"
        },
        {
          "internalType": "address",
          "name": "spender",
          "type": "address"
        },
        {
          "internalType": "uint256",
          "name": "value",
          "type": "uint256"
        },
        {
          "internalType": "uint256",
          "name": "deadline",
          "type": "uint256"
        },
        {
          "internalType": "uint8",
          "name": "v",
          "type": "uint8"
        },
        {
          "internalType": "bytes32",
          "name": "r",
          "type": "bytes32"
        },
        {
          "internalType": "bytes32",
          "name": "s",
          "type": "bytes32"
        }
      ],
      "name": "permit",
      "outputs": [],
      "stateMutability": "nonpayable",
      "type": "function"
    },
    {
      "inputs": [
        {
          "internalType": "address",
          "name": "signer",
          "type": "address"
        },
        {
          "internalType": "address",
          "name": "owner",
          "type": "address"
        },
        {
          "internalType": "address",
          "name": "spender",
          "type": "address"
        },
        {
          "internalType": "uint256",
          "name": "value",
          "type": "uint256"
        },
        {
          "internalType": "uint256",
          "name": "deadline",
          "type": "uint256"
        },
        {
          "internalType": "uint256",
          "name": "_nounce",
          "type": "uint256"
        },
        {
          "internalType": "bytes32",
          "name": "sigR",
          "type": "bytes32"
        },
        {
          "internalType": "bytes32",
          "name": "sigS",
          "type": "bytes32"
        },
        {
          "internalType": "uint8",
          "name": "sigV",
          "type": "uint8"
        }
      ],
      "name": "verify",
      "outputs": [
        {
          "internalType": "bool",
          "name": "",
          "type": "bool"
        }
      ],
      "stateMutability": "view",
      "type": "function"
    },
    {
      "inputs": [
        {
          "internalType": "address",
          "name": "owner",
          "type": "address"
        },
        {
          "internalType": "address",
          "name": "spender",
          "type": "address"
        },
        {
          "internalType": "uint256",
          "name": "value",
          "type": "uint256"
        },
        {
          "internalType": "uint256",
          "name": "deadline",
          "type": "uint256"
        },
        {
          "internalType": "uint256",
          "name": "_nounce",
          "type": "uint256"
        }
      ],
      "name": "hashPermit",
      "outputs": [
        {
          "internalType": "bytes32",
          "name": "",
          "type": "bytes32"
        }
      ],
      "stateMutability": "view",
      "type": "function"
    }
  ],
  "bytecode": "0x60c06040523480156200001157600080fd5b506040516200225738038062002257833981810160405260608110156200003757600080fd5b81019080805160405193929190846401000000008211156200005857600080fd5b9083019060208201858111156200006e57600080fd5b82516401000000008111828201881017156200008957600080fd5b82525081516020918201929091019080838360005b83811015620000b85781810151838201526020016200009e565b50505050905090810190601f168015620000e65780820380516001836020036101000a031916815260200191505b50604052602001805160405193929190846401000000008211156200010a57600080fd5b9083019060208201858111156200012057600080fd5b82516401000000008111828201881017156200013b57600080fd5b82525081516020918201929091019080838360005b838110156200016a57818101518382015260200162000150565b50505050905090810190601f168015620001985780820380516001836020036101000a031916815260200191505b5060405260200180516040519392919084640100000000821115620001bc57600080fd5b908301906020820185811115620001d257600080fd5b8251640100000000811182820188101715620001ed57600080fd5b82525081516020918201929091019080838360005b838110156200021c57818101518382015260200162000202565b50505050905090810190601f1680156200024a5780820380516001836020036101000a031916815260200191505b506040525050835184915083906200026a906003906020850190620004fa565b50805162000280906004906020840190620004fa565b50506005805460ff1916601217905550825160208085019190912060805281519082012060a052620002c2600080516020620022378339815191528062000392565b620002fd7f9667e80708b6eeeb0053fa0cca44e028ff548e2a9f029edfeac87c118b08b7c86000805160206200223783398151915262000392565b62000327600080516020620022178339815191526000805160206200223783398151915262000392565b620003426000805160206200223783398151915233620003e4565b6200036e7f9667e80708b6eeeb0053fa0cca44e028ff548e2a9f029edfeac87c118b08b7c833620003e4565b620003896000805160206200221783398151915233620003e4565b505050620005a6565b600082815260066020526040808220600201549051839285917fbd79b86ffe0ab8e8776151514217cd7cacd52c909f66475c3af44e129f0b00ff9190a460009182526006602052604090912060020155565b620003f08282620003f4565b5050565b60008281526006602090815260409091206200041b918390620011d26200046f821b17901c565b15620003f0576200042b6200048f565b6001600160a01b0316816001600160a01b0316837f2f8788117e7eff1d82e926ec794901d17c78024a50270940304540a733656f0d60405160405180910390a45050565b600062000486836001600160a01b03841662000493565b90505b92915050565b3390565b6000620004a18383620004e2565b620004d95750815460018181018455600084815260208082209093018490558454848252828601909352604090209190915562000489565b50600062000489565b60009081526001919091016020526040902054151590565b828054600181600116156101000203166002900490600052602060002090601f0160209004810192826200053257600085556200057d565b82601f106200054d57805160ff19168380011785556200057d565b828001600101855582156200057d579182015b828111156200057d57825182559160200191906001019062000560565b506200058b9291506200058f565b5090565b5b808211156200058b576000815560010162000590565b60805160a051611c4d620005ca600039806108fd5250806108d85250611c4d6000f3fe608060405234801561001057600080fd5b50600436106101a55760003560e01c80637ecebe00116100ef578063b77c6c2a11610092578063b77c6c2a1461050f578063ca15c8731461056f578063d505accf1461058c578063d5391393146105dd578063d547741f146105e5578063dcdd8a0414610611578063dd62ed3e14610653578063f2fde38b14610681576101a5565b80637ecebe00146103ea5780639010d07c1461041057806391d148541461044f57806395d89b411461047b5780639dc29fac14610483578063a217fddf146104af578063a457c2d7146104b7578063a9059cbb146104e3576101a5565b806330adf81f1161015757806330adf81f1461030a578063313ce567146103125780633644e5151461033057806336568abe14610338578063395093511461036457806340c10f191461039057806370a08231146103bc57806375b238fc146103e2576101a5565b806306fdde03146101aa578063095ea7b31461022757806318160ddd1461026757806323b872dd14610281578063248a9ca3146102b7578063282c51f3146102d45780632f2ff15d146102dc575b600080fd5b6101b26106a7565b6040805160208082528351818301528351919283929083019185019080838360005b838110156101ec5781810151838201526020016101d4565b50505050905090810190601f1680156102195780820380516001836020036101000a031916815260200191505b509250505060405180910390f35b6102536004803603604081101561023d57600080fd5b506001600160a01b03813516906020013561073d565b604080519115158252519081900360200190f35b61026f61075b565b60408051918252519081900360200190f35b6102536004803603606081101561029757600080fd5b506001600160a01b03813581169160208101359091169060400135610761565b61026f600480360360208110156102cd57600080fd5b50356107e8565b61026f6107fd565b610308600480360360408110156102f257600080fd5b50803590602001356001600160a01b0316610821565b005b61026f61088d565b61031a61089f565b6040805160ff9092168252519081900360200190f35b61026f6108a8565b6103086004803603604081101561034e57600080fd5b50803590602001356001600160a01b031661094b565b6102536004803603604081101561037a57600080fd5b506001600160a01b0381351690602001356109ac565b610253600480360360408110156103a657600080fd5b506001600160a01b0381351690602001356109fa565b61026f600480360360208110156103d257600080fd5b50356001600160a01b0316610a81565b61026f610a9c565b61026f6004803603602081101561040057600080fd5b50356001600160a01b0316610aae565b6104336004803603604081101561042657600080fd5b5080359060200135610ac0565b604080516001600160a01b039092168252519081900360200190f35b6102536004803603604081101561046557600080fd5b50803590602001356001600160a01b0316610adf565b6101b2610af7565b6102536004803603604081101561049957600080fd5b506001600160a01b038135169060200135610b58565b61026f610bdf565b610253600480360360408110156104cd57600080fd5b506001600160a01b038135169060200135610be4565b610253600480360360408110156104f957600080fd5b506001600160a01b038135169060200135610c4c565b610253600480360361012081101561052657600080fd5b5080356001600160a01b039081169160208101358216916040820135169060608101359060808101359060a08101359060c08101359060e081013590610100013560ff16610c60565b61026f6004803603602081101561058557600080fd5b5035610cf5565b610308600480360360e08110156105a257600080fd5b506001600160a01b03813581169160208101359091169060408101359060608101359060ff6080820135169060a08101359060c00135610d0c565b61026f610f95565b610308600480360360408110156105fb57600080fd5b50803590602001356001600160a01b0316610fb9565b61026f600480360360a081101561062757600080fd5b506001600160a01b03813581169160208101359091169060408101359060608101359060800135611012565b61026f6004803603604081101561066957600080fd5b506001600160a01b03813581169160200135166110bc565b6103086004803603602081101561069757600080fd5b50356001600160a01b03166110e7565b60038054604080516020601f60026000196101006001881615020190951694909404938401819004810282018101909252828152606093909290918301828280156107335780601f1061070857610100808354040283529160200191610733565b820191906000526020600020905b81548152906001019060200180831161071657829003601f168201915b5050505050905090565b600061075161074a6111e7565b84846111eb565b5060015b92915050565b60025490565b600061076e8484846112d7565b6107de8461077a6111e7565b6107d985604051806060016040528060288152602001611ad2602891396001600160a01b038a166000908152600160205260408120906107b86111e7565b6001600160a01b031681526020810191909152604001600020549190611420565b6111eb565b5060019392505050565b60009081526006602052604090206002015490565b7f9667e80708b6eeeb0053fa0cca44e028ff548e2a9f029edfeac87c118b08b7c881565b6000828152600660205260409020600201546108449061083f6111e7565b610adf565b61087f5760405162461bcd60e51b815260040180806020018281038252602f815260200180611a09602f913960400191505060405180910390fd5b61088982826114b7565b5050565b600080516020611b5b83398151915281565b60055460ff1690565b604080517f8b73c3c69bb8fe3d512ecc4cf759cc79239f7b179b0ffacaa9a75d522b39400f6020808301919091527f0000000000000000000000000000000000000000000000000000000000000000828401527f000000000000000000000000000000000000000000000000000000000000000060608301524660808301523060a0808401919091528351808403909101815260c0909201909252805191012090565b6109536111e7565b6001600160a01b0316816001600160a01b0316146109a25760405162461bcd60e51b815260040180806020018281038252602f815260200180611be9602f913960400191505060405180910390fd5b6108898282611520565b60006107516109b96111e7565b846107d985600160006109ca6111e7565b6001600160a01b03908116825260208083019390935260409182016000908120918c168152925290205490611589565b6000610a267ff0887ba65ee2024ea881d91b74c2450ef19e1557f03bed3ea9f16b037cbe2dc933610adf565b610a77576040805162461bcd60e51b815260206004820152601b60248201527f544f533a2043616c6c6572206973206e6f742061206d696e7465720000000000604482015290519081900360640190fd5b61075183836115e3565b6001600160a01b031660009081526020819052604090205490565b600080516020611afa83398151915281565b60076020526000908152604090205481565b6000828152600660205260408120610ad890836116c1565b9392505050565b6000828152600660205260408120610ad890836116cd565b60048054604080516020601f60026000196101006001881615020190951694909404938401819004810282018101909252828152606093909290918301828280156107335780601f1061070857610100808354040283529160200191610733565b6000610b847f9667e80708b6eeeb0053fa0cca44e028ff548e2a9f029edfeac87c118b08b7c833610adf565b610bd5576040805162461bcd60e51b815260206004820152601b60248201527f544f533a2043616c6c6572206973206e6f742061206275726e65720000000000604482015290519081900360640190fd5b61075183836116e2565b600081565b6000610751610bf16111e7565b846107d985604051806060016040528060258152602001611bc46025913960016000610c1b6111e7565b6001600160a01b03908116825260208083019390935260409182016000908120918d16815292529020549190611420565b6000610751610c596111e7565b84846112d7565b60006001610c718a8a8a8a8a611012565b83868660405160008152602001604052604051808581526020018460ff1681526020018381526020018281526020019450505050506020604051602081039080840390855afa158015610cc8573d6000803e3d6000fd5b505050602060405103516001600160a01b03168a6001600160a01b03161490509998505050505050505050565b6000818152600660205260408120610755906117cc565b42841015610d57576040805162461bcd60e51b81526020600482015260136024820152721513d4ce881c195c9b5a5d0811561412549151606a1b604482015290519081900360640190fd5b6000610d616108a8565b6001600160a01b03808a166000818152600760209081526040918290208054600181019091558251600080516020611b5b83398151915281840152808401859052948d1660608601819052608086018d905260a086019190915260c08086018c90528351808703909101815260e08601845280519083012061190160f01b6101008701526101028601969096526101228086019690965282518086039096018652610142909401909152835193019290922092501415610e68576040805162461bcd60e51b815260206004820152601e60248201527f544f533a20617070726f76616c20746f2063757272656e74206f776e65720000604482015290519081900360640190fd5b600060018286868660405160008152602001604052604051808581526020018460ff1681526020018381526020018281526020019450505050506020604051602081039080840390855afa158015610ec4573d6000803e3d6000fd5b5050604051601f1901519150506001600160a01b038116610f25576040805162461bcd60e51b8152602060048201526016602482015275544f533a20496e76616c6964207369676e617475726560501b604482015290519081900360640190fd5b886001600160a01b0316816001600160a01b031614610f7f576040805162461bcd60e51b81526020600482015260116024820152701513d4ce88155b985d5d1a1bdc9a5e9959607a1b604482015290519081900360640190fd5b610f8a8989896111eb565b505050505050505050565b7ff0887ba65ee2024ea881d91b74c2450ef19e1557f03bed3ea9f16b037cbe2dc981565b600082815260066020526040902060020154610fd79061083f6111e7565b6109a25760405162461bcd60e51b8152600401808060200182810382526030815260200180611aa26030913960400191505060405180910390fd5b600061101c6108a8565b60408051600080516020611b5b8339815191526020808301919091526001600160a01b03808b1683850152891660608301526080820188905260a0820186905260c08083018890528351808403909101815260e08301845280519082012061190160f01b61010084015261010283019490945261012280830194909452825180830390940184526101429091019091528151910120905095945050505050565b6001600160a01b03918216600090815260016020908152604080832093909416825291909152205490565b6110ff600080516020611afa83398151915233610adf565b611150576040805162461bcd60e51b815260206004820152601b60248201527f544f533a2043616c6c6572206973206e6f7420616e2061646d696e0000000000604482015290519081900360640190fd5b336001600160a01b038216141561119f576040805162461bcd60e51b815260206004820152600e60248201526d2a27a99d39b0b6b29037bbb732b960911b604482015290519081900360640190fd5b6111b7600080516020611afa83398151915282610821565b6111cf600080516020611afa83398151915233610fb9565b50565b6000610ad8836001600160a01b0384166117d7565b3390565b6001600160a01b0383166112305760405162461bcd60e51b8152600401808060200182810382526024815260200180611ba06024913960400191505060405180910390fd5b6001600160a01b0382166112755760405162461bcd60e51b8152600401808060200182810382526022815260200180611a5a6022913960400191505060405180910390fd5b6001600160a01b03808416600081815260016020908152604080832094871680845294825291829020859055815185815291517f8c5be1e5ebec7d5bd14f71427d1e84f3dd0314c0f7b2291e5b200ac8c7c3b9259281900390910190a3505050565b6001600160a01b03831661131c5760405162461bcd60e51b8152600401808060200182810382526025815260200180611b7b6025913960400191505060405180910390fd5b6001600160a01b0382166113615760405162461bcd60e51b81526004018080602001828103825260238152602001806119e66023913960400191505060405180910390fd5b61136c838383611821565b6113a981604051806060016040528060268152602001611a7c602691396001600160a01b0386166000908152602081905260409020549190611420565b6001600160a01b0380851660009081526020819052604080822093909355908416815220546113d89082611589565b6001600160a01b03808416600081815260208181526040918290209490945580518581529051919392871692600080516020611b1a83398151915292918290030190a3505050565b600081848411156114af5760405162461bcd60e51b81526004018080602001828103825283818151815260200191508051906020019080838360005b8381101561147457818101518382015260200161145c565b50505050905090810190601f1680156114a15780820380516001836020036101000a031916815260200191505b509250505060405180910390fd5b505050900390565b60008281526006602052604090206114cf90826111d2565b15610889576114dc6111e7565b6001600160a01b0316816001600160a01b0316837f2f8788117e7eff1d82e926ec794901d17c78024a50270940304540a733656f0d60405160405180910390a45050565b60008281526006602052604090206115389082611826565b15610889576115456111e7565b6001600160a01b0316816001600160a01b0316837ff6391f5c32d9c69d2a47ea670b442974b53935d1edc7fd64eb21e047a839171b60405160405180910390a45050565b600082820183811015610ad8576040805162461bcd60e51b815260206004820152601b60248201527f536166654d6174683a206164646974696f6e206f766572666c6f770000000000604482015290519081900360640190fd5b6001600160a01b03821661163e576040805162461bcd60e51b815260206004820152601f60248201527f45524332303a206d696e7420746f20746865207a65726f206164647265737300604482015290519081900360640190fd5b61164a60008383611821565b6002546116579082611589565b6002556001600160a01b03821660009081526020819052604090205461167d9082611589565b6001600160a01b038316600081815260208181526040808320949094558351858152935192939192600080516020611b1a8339815191529281900390910190a35050565b6000610ad8838361183b565b6000610ad8836001600160a01b03841661189f565b6001600160a01b0382166117275760405162461bcd60e51b8152600401808060200182810382526021815260200180611b3a6021913960400191505060405180910390fd5b61173382600083611821565b61177081604051806060016040528060228152602001611a38602291396001600160a01b0385166000908152602081905260409020549190611420565b6001600160a01b03831660009081526020819052604090205560025461179690826118b7565b6002556040805182815290516000916001600160a01b03851691600080516020611b1a8339815191529181900360200190a35050565b6000610755826118f9565b60006117e3838361189f565b61181957508154600181810184556000848152602080822090930184905584548482528286019093526040902091909155610755565b506000610755565b505050565b6000610ad8836001600160a01b0384166118fd565b8154600090821061187d5760405162461bcd60e51b81526004018080602001828103825260228152602001806119c46022913960400191505060405180910390fd5b82600001828154811061188c57fe5b9060005260206000200154905092915050565b60009081526001919091016020526040902054151590565b6000610ad883836040518060400160405280601e81526020017f536166654d6174683a207375627472616374696f6e206f766572666c6f770000815250611420565b5490565b600081815260018301602052604081205480156119b9578354600019808301919081019060009087908390811061193057fe5b906000526020600020015490508087600001848154811061194d57fe5b60009182526020808320909101929092558281526001898101909252604090209084019055865487908061197d57fe5b60019003818190600052602060002001600090559055866001016000878152602001908152602001600020600090556001945050505050610755565b600091505061075556fe456e756d657261626c655365743a20696e646578206f7574206f6620626f756e647345524332303a207472616e7366657220746f20746865207a65726f2061646472657373416363657373436f6e74726f6c3a2073656e646572206d75737420626520616e2061646d696e20746f206772616e7445524332303a206275726e20616d6f756e7420657863656564732062616c616e636545524332303a20617070726f766520746f20746865207a65726f206164647265737345524332303a207472616e7366657220616d6f756e7420657863656564732062616c616e6365416363657373436f6e74726f6c3a2073656e646572206d75737420626520616e2061646d696e20746f207265766f6b6545524332303a207472616e7366657220616d6f756e74206578636565647320616c6c6f77616e6365df8b4c520ffe197c5343c6f5aec59570151ef9a492f2c624fd45ddde6135ec42ddf252ad1be2c89b69c2b068fc378daa952ba7f163c4a11628f55a4df523b3ef45524332303a206275726e2066726f6d20746865207a65726f20616464726573736e71edae12b1b97f4d1f60370fef10105fa2faae0126114a169c64845d6126c945524332303a207472616e736665722066726f6d20746865207a65726f206164647265737345524332303a20617070726f76652066726f6d20746865207a65726f206164647265737345524332303a2064656372656173656420616c6c6f77616e63652062656c6f77207a65726f416363657373436f6e74726f6c3a2063616e206f6e6c792072656e6f756e636520726f6c657320666f722073656c66a2646970667358221220e07b4d15247625d7d703a925b159f3398fc99835934da6d93cf222c3e2078c9a64736f6c63430007060033f0887ba65ee2024ea881d91b74c2450ef19e1557f03bed3ea9f16b037cbe2dc9df8b4c520ffe197c5343c6f5aec59570151ef9a492f2c624fd45ddde6135ec42",
  "immutableReferences": {
    "10317": [
      {
        "length": 32,
        "start": 2264
      }
    ],
    "10320": [
      {
        "length": 32,
        "start": 2301
      }
    ]
  },
  "source": "//SPDX-License-Identifier: Unlicense\npragma solidity ^0.7.6;\n\nimport \"../interfaces/ITOS.sol\";\nimport \"../libraries/ChainId.sol\";\nimport {ERC20} from \"@openzeppelin/contracts/token/ERC20/ERC20.sol\";\nimport \"@openzeppelin/contracts/access/AccessControl.sol\";\n\n/// @title the platform token. TOS token\ncontract TOS is ERC20, AccessControl, ITOS {\n    bytes32 public constant ADMIN_ROLE = keccak256(\"ADMIN\");\n    bytes32 public constant MINTER_ROLE = keccak256(\"MINTER\");\n    bytes32 public constant BURNER_ROLE = keccak256(\"BURNER\");\n\n    /// @dev The hash of the name used in the permit signature verification\n    bytes32 private immutable nameHash;\n\n    /// @dev The hash of the version string used in the permit signature verification\n    bytes32 private immutable versionHash;\n\n    //bytes32 public override DOMAIN_SEPARATOR;\n    mapping(address => uint256) public override nonces;\n\n    /// @dev Value is equal to keccak256(\"Permit(address owner,address spender,uint256 value,uint256 nonce,uint256 deadline)\");\n    bytes32 public constant PERMIT_TYPEHASH =\n        0x6e71edae12b1b97f4d1f60370fef10105fa2faae0126114a169c64845d6126c9;\n\n    struct Permit {\n        address owner;\n        address spender;\n        address value;\n        address nonce;\n        address deadline;\n    }\n\n    modifier onlyOwner() {\n        require(hasRole(ADMIN_ROLE, msg.sender), \"TOS: Caller is not an admin\");\n        _;\n    }\n\n    /// @dev constructor of TOS, ERC20 Token\n    constructor(\n        string memory name_,\n        string memory symbol_,\n        string memory version_\n    ) ERC20(name_, symbol_) {\n        nameHash = keccak256(bytes(name_));\n        versionHash = keccak256(bytes(version_));\n\n        _setRoleAdmin(ADMIN_ROLE, ADMIN_ROLE);\n        _setRoleAdmin(BURNER_ROLE, ADMIN_ROLE);\n        _setRoleAdmin(MINTER_ROLE, ADMIN_ROLE);\n\n        _setupRole(ADMIN_ROLE, msg.sender);\n        _setupRole(BURNER_ROLE, msg.sender);\n        _setupRole(MINTER_ROLE, msg.sender);\n    }\n\n    function DOMAIN_SEPARATOR() public view override returns (bytes32) {\n        uint256 chainId;\n        assembly {\n            chainId := chainid()\n        }\n\n        return\n            keccak256(\n                abi.encode(\n                    // keccak256('EIP712Domain(string name,string version,uint256 chainId,address verifyingContract)')\n                    0x8b73c3c69bb8fe3d512ecc4cf759cc79239f7b179b0ffacaa9a75d522b39400f,\n                    nameHash,\n                    versionHash,\n                    chainId,\n                    address(this)\n                )\n            );\n    }\n\n    /// @dev transfer Ownership\n    /// @param newOwner new owner address\n    function transferOwnership(address newOwner) external onlyOwner {\n        require(msg.sender != newOwner, \"TOS:same owner\");\n        grantRole(ADMIN_ROLE, newOwner);\n        revokeRole(ADMIN_ROLE, msg.sender);\n    }\n\n    /// @dev Issue a token.\n    /// @param to  who takes the issue\n    /// @param amount the amount to issue\n    function mint(address to, uint256 amount) external override returns (bool) {\n        require(\n            hasRole(MINTER_ROLE, msg.sender),\n            \"TOS: Caller is not a minter\"\n        );\n        _mint(to, amount);\n        return true;\n    }\n\n    /// @dev burn a token.\n    /// @param from Whose tokens are burned\n    /// @param amount the amount to burn\n    function burn(address from, uint256 amount)\n        external\n        override\n        returns (bool)\n    {\n        require(\n            hasRole(BURNER_ROLE, msg.sender),\n            \"TOS: Caller is not a burner\"\n        );\n        _burn(from, amount);\n        return true;\n    }\n\n    /// @dev Authorizes the owner's token to be used by the spender as much as the value.\n    /// @dev The signature must have the owner's signature.\n    /// @param owner the token's owner\n    /// @param spender the account that spend owner's token\n    /// @param value the amount to be approve to spend\n    /// @param deadline the deadline that vaild the owner's signature\n    /// @param v the owner's signature - v\n    /// @param r the owner's signature - r\n    /// @param s the owner's signature - s\n    function permit(\n        address owner,\n        address spender,\n        uint256 value,\n        uint256 deadline,\n        uint8 v,\n        bytes32 r,\n        bytes32 s\n    ) external override {\n        require(deadline >= block.timestamp, \"TOS: permit EXPIRED\");\n\n        bytes32 digest =\n            keccak256(\n                abi.encodePacked(\n                    \"\\x19\\x01\",\n                    DOMAIN_SEPARATOR(),\n                    keccak256(\n                        abi.encode(\n                            PERMIT_TYPEHASH,\n                            owner,\n                            spender,\n                            value,\n                            nonces[owner]++,\n                            deadline\n                        )\n                    )\n                )\n            );\n\n        require(owner != spender, \"TOS: approval to current owner\");\n\n        // if (Address.isContract(owner)) {\n        //     require(IERC1271(owner).isValidSignature(digest, abi.encodePacked(r, s, v)) == 0x1626ba7e, 'Unauthorized');\n        // } else {\n        address recoveredAddress = ecrecover(digest, v, r, s);\n        require(recoveredAddress != address(0), \"TOS: Invalid signature\");\n        require(recoveredAddress == owner, \"TOS: Unauthorized\");\n        // }\n        _approve(owner, spender, value);\n    }\n\n    /// @dev verify the signature\n    /// @param signer the signer address\n    /// @param owner the token's owner\n    /// @param spender the account that spend owner's token\n    /// @param value the amount to be approve to spend\n    /// @param deadline the deadline that vaild the owner's signature\n    /// @param _nounce the _nounce\n    /// @param sigR the owner's signature - r\n    /// @param sigS the owner's signature - s\n    /// @param sigV the owner's signature - v\n    function verify(\n        address signer,\n        address owner,\n        address spender,\n        uint256 value,\n        uint256 deadline,\n        uint256 _nounce,\n        bytes32 sigR,\n        bytes32 sigS,\n        uint8 sigV\n    ) public view override returns (bool) {\n        return\n            signer ==\n            ecrecover(\n                hashPermit(owner, spender, value, deadline, _nounce),\n                sigV,\n                sigR,\n                sigS\n            );\n    }\n\n    /// @dev the hash of Permit\n    /// @param owner the token's owner\n    /// @param spender the account that spend owner's token\n    /// @param value the amount to be approve to spend\n    /// @param deadline the deadline that vaild the owner's signature\n    /// @param _nounce the _nounce\n    function hashPermit(\n        address owner,\n        address spender,\n        uint256 value,\n        uint256 deadline,\n        uint256 _nounce\n    ) public view override returns (bytes32) {\n        return\n            keccak256(\n                abi.encodePacked(\n                    \"\\x19\\x01\",\n                    DOMAIN_SEPARATOR(),\n                    keccak256(\n                        abi.encode(\n                            PERMIT_TYPEHASH,\n                            owner,\n                            spender,\n                            value,\n                            _nounce,\n                            deadline\n                        )\n                    )\n                )\n            );\n    }\n}\n",
  "sourcePath": "/Users/zena/ico2.0/ico20-contracts/contracts/tokens/TOS.sol",
  "compiler": {
    "name": "solc",
    "version": "0.7.6+commit.7338295f.Emscripten.clang"
  },
  "schemaVersion": "3.3.4",
  "updatedAt": "2021-06-16T06:01:43.796Z",
  "devdoc": {
    "kind": "dev",
    "methods": {
      "allowance(address,address)": {
        "details": "See {IERC20-allowance}."
      },
      "approve(address,uint256)": {
        "details": "See {IERC20-approve}. Requirements: - `spender` cannot be the zero address."
      },
      "balanceOf(address)": {
        "details": "See {IERC20-balanceOf}."
      },
      "burn(address,uint256)": {
        "details": "burn a token.",
        "params": {
          "amount": "the amount to burn",
          "from": "Whose tokens are burned"
        }
      },
      "constructor": {
        "details": "constructor of TOS, ERC20 Token"
      },
      "decimals()": {
        "details": "Returns the number of decimals used to get its user representation. For example, if `decimals` equals `2`, a balance of `505` tokens should be displayed to a user as `5,05` (`505 / 10 ** 2`). Tokens usually opt for a value of 18, imitating the relationship between Ether and Wei. This is the value {ERC20} uses, unless {_setupDecimals} is called. NOTE: This information is only used for _display_ purposes: it in no way affects any of the arithmetic of the contract, including {IERC20-balanceOf} and {IERC20-transfer}."
      },
      "decreaseAllowance(address,uint256)": {
        "details": "Atomically decreases the allowance granted to `spender` by the caller. This is an alternative to {approve} that can be used as a mitigation for problems described in {IERC20-approve}. Emits an {Approval} event indicating the updated allowance. Requirements: - `spender` cannot be the zero address. - `spender` must have allowance for the caller of at least `subtractedValue`."
      },
      "getRoleAdmin(bytes32)": {
        "details": "Returns the admin role that controls `role`. See {grantRole} and {revokeRole}. To change a role's admin, use {_setRoleAdmin}."
      },
      "getRoleMember(bytes32,uint256)": {
        "details": "Returns one of the accounts that have `role`. `index` must be a value between 0 and {getRoleMemberCount}, non-inclusive. Role bearers are not sorted in any particular way, and their ordering may change at any point. WARNING: When using {getRoleMember} and {getRoleMemberCount}, make sure you perform all queries on the same block. See the following https://forum.openzeppelin.com/t/iterating-over-elements-on-enumerableset-in-openzeppelin-contracts/2296[forum post] for more information."
      },
      "getRoleMemberCount(bytes32)": {
        "details": "Returns the number of accounts that have `role`. Can be used together with {getRoleMember} to enumerate all bearers of a role."
      },
      "grantRole(bytes32,address)": {
        "details": "Grants `role` to `account`. If `account` had not been already granted `role`, emits a {RoleGranted} event. Requirements: - the caller must have ``role``'s admin role."
      },
      "hasRole(bytes32,address)": {
        "details": "Returns `true` if `account` has been granted `role`."
      },
      "hashPermit(address,address,uint256,uint256,uint256)": {
        "details": "the hash of Permit",
        "params": {
          "_nounce": "the _nounce",
          "deadline": "the deadline that vaild the owner's signature",
          "owner": "the token's owner",
          "spender": "the account that spend owner's token",
          "value": "the amount to be approve to spend"
        }
      },
      "increaseAllowance(address,uint256)": {
        "details": "Atomically increases the allowance granted to `spender` by the caller. This is an alternative to {approve} that can be used as a mitigation for problems described in {IERC20-approve}. Emits an {Approval} event indicating the updated allowance. Requirements: - `spender` cannot be the zero address."
      },
      "mint(address,uint256)": {
        "details": "Issue a token.",
        "params": {
          "amount": "the amount to issue",
          "to": "who takes the issue"
        }
      },
      "name()": {
        "details": "Returns the name of the token."
      },
      "permit(address,address,uint256,uint256,uint8,bytes32,bytes32)": {
        "details": "Authorizes the owner's token to be used by the spender as much as the value.The signature must have the owner's signature.",
        "params": {
          "deadline": "the deadline that vaild the owner's signature",
          "owner": "the token's owner",
          "r": "the owner's signature - r",
          "s": "the owner's signature - s",
          "spender": "the account that spend owner's token",
          "v": "the owner's signature - v",
          "value": "the amount to be approve to spend"
        }
      },
      "renounceRole(bytes32,address)": {
        "details": "Revokes `role` from the calling account. Roles are often managed via {grantRole} and {revokeRole}: this function's purpose is to provide a mechanism for accounts to lose their privileges if they are compromised (such as when a trusted device is misplaced). If the calling account had been granted `role`, emits a {RoleRevoked} event. Requirements: - the caller must be `account`."
      },
      "revokeRole(bytes32,address)": {
        "details": "Revokes `role` from `account`. If `account` had been granted `role`, emits a {RoleRevoked} event. Requirements: - the caller must have ``role``'s admin role."
      },
      "symbol()": {
        "details": "Returns the symbol of the token, usually a shorter version of the name."
      },
      "totalSupply()": {
        "details": "See {IERC20-totalSupply}."
      },
      "transfer(address,uint256)": {
        "details": "See {IERC20-transfer}. Requirements: - `recipient` cannot be the zero address. - the caller must have a balance of at least `amount`."
      },
      "transferFrom(address,address,uint256)": {
        "details": "See {IERC20-transferFrom}. Emits an {Approval} event indicating the updated allowance. This is not required by the EIP. See the note at the beginning of {ERC20}. Requirements: - `sender` and `recipient` cannot be the zero address. - `sender` must have a balance of at least `amount`. - the caller must have allowance for ``sender``'s tokens of at least `amount`."
      },
      "transferOwnership(address)": {
        "details": "transfer Ownership",
        "params": {
          "newOwner": "new owner address"
        }
      },
      "verify(address,address,address,uint256,uint256,uint256,bytes32,bytes32,uint8)": {
        "details": "verify the signature",
        "params": {
          "_nounce": "the _nounce",
          "deadline": "the deadline that vaild the owner's signature",
          "owner": "the token's owner",
          "sigR": "the owner's signature - r",
          "sigS": "the owner's signature - s",
          "sigV": "the owner's signature - v",
          "signer": "the signer address",
          "spender": "the account that spend owner's token",
          "value": "the amount to be approve to spend"
        }
      }
    },
    "stateVariables": {
      "PERMIT_TYPEHASH": {
        "details": "Value is equal to keccak256(\"Permit(address owner,address spender,uint256 value,uint256 nonce,uint256 deadline)\");"
      },
      "nameHash": {
        "details": "The hash of the name used in the permit signature verification"
      },
      "versionHash": {
        "details": "The hash of the version string used in the permit signature verification"
      }
    },
    "title": "the platform token. TOS token",
    "version": 1
  },
  "userdoc": {
    "kind": "user",
    "methods": {},
    "version": 1
  }
}