{
  "_format": "hh-sol-artifact-1",
  "contractName": "TOSVault",
  "sourceName": "contracts/TOSVault/TOSVault.sol",
  "abi": [
    {
      "inputs": [],
      "stateMutability": "nonpayable",
      "type": "constructor"
    },
    {
      "anonymous": false,
      "inputs": [
        {
          "indexed": true,
          "internalType": "address",
          "name": "caller",
          "type": "address"
        },
        {
          "indexed": false,
          "internalType": "uint256",
          "name": "amount",
          "type": "uint256"
        },
        {
          "indexed": false,
          "internalType": "uint256",
          "name": "totalClaimedAmount",
          "type": "uint256"
        }
      ],
      "name": "Claimed",
      "type": "event"
    },
    {
      "anonymous": false,
      "inputs": [
        {
          "indexed": true,
          "internalType": "bytes32",
          "name": "role",
          "type": "bytes32"
        },
        {
          "indexed": true,
          "internalType": "bytes32",
          "name": "previousAdminRole",
          "type": "bytes32"
        },
        {
          "indexed": true,
          "internalType": "bytes32",
          "name": "newAdminRole",
          "type": "bytes32"
        }
      ],
      "name": "RoleAdminChanged",
      "type": "event"
    },
    {
      "anonymous": false,
      "inputs": [
        {
          "indexed": true,
          "internalType": "bytes32",
          "name": "role",
          "type": "bytes32"
        },
        {
          "indexed": true,
          "internalType": "address",
          "name": "account",
          "type": "address"
        },
        {
          "indexed": true,
          "internalType": "address",
          "name": "sender",
          "type": "address"
        }
      ],
      "name": "RoleGranted",
      "type": "event"
    },
    {
      "anonymous": false,
      "inputs": [
        {
          "indexed": true,
          "internalType": "bytes32",
          "name": "role",
          "type": "bytes32"
        },
        {
          "indexed": true,
          "internalType": "address",
          "name": "account",
          "type": "address"
        },
        {
          "indexed": true,
          "internalType": "address",
          "name": "sender",
          "type": "address"
        }
      ],
      "name": "RoleRevoked",
      "type": "event"
    },
    {
      "inputs": [],
      "name": "DEFAULT_ADMIN_ROLE",
      "outputs": [
        {
          "internalType": "bytes32",
          "name": "",
          "type": "bytes32"
        }
      ],
      "stateMutability": "view",
      "type": "function"
    },
    {
      "inputs": [],
      "name": "PROJECT_ADMIN_ROLE",
      "outputs": [
        {
          "internalType": "bytes32",
          "name": "",
          "type": "bytes32"
        }
      ],
      "stateMutability": "view",
      "type": "function"
    },
    {
      "inputs": [
        {
          "internalType": "address",
          "name": "account",
          "type": "address"
        }
      ],
      "name": "addAdmin",
      "outputs": [],
      "stateMutability": "nonpayable",
      "type": "function"
    },
    {
      "inputs": [
        {
          "internalType": "address",
          "name": "_owner",
          "type": "address"
        }
      ],
      "name": "addProxyAdmin",
      "outputs": [],
      "stateMutability": "nonpayable",
      "type": "function"
    },
    {
      "inputs": [
        {
          "internalType": "address",
          "name": "",
          "type": "address"
        }
      ],
      "name": "aliveImplementation",
      "outputs": [
        {
          "internalType": "bool",
          "name": "",
          "type": "bool"
        }
      ],
      "stateMutability": "view",
      "type": "function"
    },
    {
      "inputs": [
        {
          "internalType": "uint256",
          "name": "_round",
          "type": "uint256"
        }
      ],
      "name": "calculClaimAmount",
      "outputs": [
        {
          "internalType": "uint256",
          "name": "amount",
          "type": "uint256"
        }
      ],
      "stateMutability": "view",
      "type": "function"
    },
    {
      "inputs": [
        {
          "internalType": "address",
          "name": "_token",
          "type": "address"
        }
      ],
      "name": "changeToken",
      "outputs": [],
      "stateMutability": "nonpayable",
      "type": "function"
    },
    {
      "inputs": [],
      "name": "claim",
      "outputs": [],
      "stateMutability": "nonpayable",
      "type": "function"
    },
    {
      "inputs": [
        {
          "internalType": "uint256",
          "name": "",
          "type": "uint256"
        }
      ],
      "name": "claimAmounts",
      "outputs": [
        {
          "internalType": "uint256",
          "name": "",
          "type": "uint256"
        }
      ],
      "stateMutability": "view",
      "type": "function"
    },
    {
      "inputs": [
        {
          "internalType": "uint256",
          "name": "",
          "type": "uint256"
        }
      ],
      "name": "claimTimes",
      "outputs": [
        {
          "internalType": "uint256",
          "name": "",
          "type": "uint256"
        }
      ],
      "stateMutability": "view",
      "type": "function"
    },
    {
      "inputs": [],
      "name": "currentRound",
      "outputs": [
        {
          "internalType": "uint256",
          "name": "round",
          "type": "uint256"
        }
      ],
      "stateMutability": "view",
      "type": "function"
    },
    {
      "inputs": [],
      "name": "dividiedPool",
      "outputs": [
        {
          "internalType": "address",
          "name": "",
          "type": "address"
        }
      ],
      "stateMutability": "view",
      "type": "function"
    },
    {
      "inputs": [
        {
          "internalType": "bytes32",
          "name": "role",
          "type": "bytes32"
        }
      ],
      "name": "getRoleAdmin",
      "outputs": [
        {
          "internalType": "bytes32",
          "name": "",
          "type": "bytes32"
        }
      ],
      "stateMutability": "view",
      "type": "function"
    },
    {
      "inputs": [
        {
          "internalType": "bytes32",
          "name": "role",
          "type": "bytes32"
        },
        {
          "internalType": "address",
          "name": "account",
          "type": "address"
        }
      ],
      "name": "grantRole",
      "outputs": [],
      "stateMutability": "nonpayable",
      "type": "function"
    },
    {
      "inputs": [
        {
          "internalType": "bytes32",
          "name": "role",
          "type": "bytes32"
        },
        {
          "internalType": "address",
          "name": "account",
          "type": "address"
        }
      ],
      "name": "hasRole",
      "outputs": [
        {
          "internalType": "bool",
          "name": "",
          "type": "bool"
        }
      ],
      "stateMutability": "view",
      "type": "function"
    },
    {
      "inputs": [
        {
          "internalType": "uint256",
          "name": "_totalAllocatedAmount",
          "type": "uint256"
        },
        {
          "internalType": "uint256",
          "name": "_claimCounts",
          "type": "uint256"
        },
        {
          "internalType": "uint256[]",
          "name": "_claimTimes",
          "type": "uint256[]"
        },
        {
          "internalType": "uint256[]",
          "name": "_claimAmounts",
          "type": "uint256[]"
        }
      ],
      "name": "initialize",
      "outputs": [],
      "stateMutability": "nonpayable",
      "type": "function"
    },
    {
      "inputs": [
        {
          "internalType": "address",
          "name": "account",
          "type": "address"
        }
      ],
      "name": "isAdmin",
      "outputs": [
        {
          "internalType": "bool",
          "name": "",
          "type": "bool"
        }
      ],
      "stateMutability": "view",
      "type": "function"
    },
    {
      "inputs": [
        {
          "internalType": "address",
          "name": "account",
          "type": "address"
        }
      ],
      "name": "isProxyAdmin",
      "outputs": [
        {
          "internalType": "bool",
          "name": "",
          "type": "bool"
        }
      ],
      "stateMutability": "view",
      "type": "function"
    },
    {
      "inputs": [],
      "name": "name",
      "outputs": [
        {
          "internalType": "string",
          "name": "",
          "type": "string"
        }
      ],
      "stateMutability": "view",
      "type": "function"
    },
    {
      "inputs": [],
      "name": "nowClaimRound",
      "outputs": [
        {
          "internalType": "uint256",
          "name": "",
          "type": "uint256"
        }
      ],
      "stateMutability": "view",
      "type": "function"
    },
    {
      "inputs": [],
      "name": "owner",
      "outputs": [
        {
          "internalType": "address",
          "name": "",
          "type": "address"
        }
      ],
      "stateMutability": "view",
      "type": "function"
    },
    {
      "inputs": [],
      "name": "pauseProxy",
      "outputs": [
        {
          "internalType": "bool",
          "name": "",
          "type": "bool"
        }
      ],
      "stateMutability": "view",
      "type": "function"
    },
    {
      "inputs": [
        {
          "internalType": "uint256",
          "name": "",
          "type": "uint256"
        }
      ],
      "name": "proxyImplementation",
      "outputs": [
        {
          "internalType": "address",
          "name": "",
          "type": "address"
        }
      ],
      "stateMutability": "view",
      "type": "function"
    },
    {
      "inputs": [],
      "name": "removeAdmin",
      "outputs": [],
      "stateMutability": "nonpayable",
      "type": "function"
    },
    {
      "inputs": [],
      "name": "removeProxyAdmin",
      "outputs": [],
      "stateMutability": "nonpayable",
      "type": "function"
    },
    {
      "inputs": [
        {
          "internalType": "bytes32",
          "name": "role",
          "type": "bytes32"
        },
        {
          "internalType": "address",
          "name": "account",
          "type": "address"
        }
      ],
      "name": "renounceRole",
      "outputs": [],
      "stateMutability": "nonpayable",
      "type": "function"
    },
    {
      "inputs": [
        {
          "internalType": "bytes32",
          "name": "role",
          "type": "bytes32"
        },
        {
          "internalType": "address",
          "name": "account",
          "type": "address"
        }
      ],
      "name": "revokeRole",
      "outputs": [],
      "stateMutability": "nonpayable",
      "type": "function"
    },
    {
      "inputs": [
        {
          "internalType": "bytes4",
          "name": "",
          "type": "bytes4"
        }
      ],
      "name": "selectorImplementation",
      "outputs": [
        {
          "internalType": "address",
          "name": "",
          "type": "address"
        }
      ],
      "stateMutability": "view",
      "type": "function"
    },
    {
      "inputs": [],
      "name": "settingCheck",
      "outputs": [
        {
          "internalType": "bool",
          "name": "",
          "type": "bool"
        }
      ],
      "stateMutability": "view",
      "type": "function"
    },
    {
      "inputs": [
        {
          "internalType": "bytes4",
          "name": "interfaceId",
          "type": "bytes4"
        }
      ],
      "name": "supportsInterface",
      "outputs": [
        {
          "internalType": "bool",
          "name": "",
          "type": "bool"
        }
      ],
      "stateMutability": "view",
      "type": "function"
    },
    {
      "inputs": [],
      "name": "token",
      "outputs": [
        {
          "internalType": "address",
          "name": "",
          "type": "address"
        }
      ],
      "stateMutability": "view",
      "type": "function"
    },
    {
      "inputs": [],
      "name": "totalAllocatedAmount",
      "outputs": [
        {
          "internalType": "uint256",
          "name": "",
          "type": "uint256"
        }
      ],
      "stateMutability": "view",
      "type": "function"
    },
    {
      "inputs": [],
      "name": "totalClaimCounts",
      "outputs": [
        {
          "internalType": "uint256",
          "name": "",
          "type": "uint256"
        }
      ],
      "stateMutability": "view",
      "type": "function"
    },
    {
      "inputs": [],
      "name": "totalClaimsAmount",
      "outputs": [
        {
          "internalType": "uint256",
          "name": "",
          "type": "uint256"
        }
      ],
      "stateMutability": "view",
      "type": "function"
    },
    {
      "inputs": [
        {
          "internalType": "address",
          "name": "newAdmin",
          "type": "address"
        }
      ],
      "name": "transferAdmin",
      "outputs": [],
      "stateMutability": "nonpayable",
      "type": "function"
    },
    {
      "inputs": [
        {
          "internalType": "address",
          "name": "newAdmin",
          "type": "address"
        }
      ],
      "name": "transferProxyAdmin",
      "outputs": [],
      "stateMutability": "nonpayable",
      "type": "function"
    },
    {
      "inputs": [
        {
          "internalType": "address",
          "name": "_account",
          "type": "address"
        },
        {
          "internalType": "uint256",
          "name": "_amount",
          "type": "uint256"
        }
      ],
      "name": "withdraw",
      "outputs": [],
      "stateMutability": "nonpayable",
      "type": "function"
    }
  ],
  "bytecode": "0x6080604052600060065534801561001557600080fd5b50611be5806100256000396000f3fe608060405234801561001057600080fd5b50600436106101f75760003560e01c806375829def11610120578063a4de9179116100b8578063d547741f1161007c578063d547741f1461047a578063ed5131f51461048d578063f3fef3a3146104a0578063f47f2f1d146104b3578063fc0c546a146104c657600080fd5b8063a4de91791461041a578063a77a29fc1461042d578063b911135f14610440578063be72f2d314610469578063cfc412be1461047157600080fd5b806375829def14610390578063784330c0146103a35780638356ca4f146103b65780638a19c8bc146103c95780638da5cb5b146103d157806391d14854146103e457806396f1557c146103f75780639a202d471461040a578063a217fddf1461041257600080fd5b806336568abe1161019357806336568abe146102cb57806341c04d5e146102de5780634e71d92d146102f357806350d2a276146102fb578063550d01a314610331578063556400081461035457806363a8fd891461035d57806366829b161461036a578063704802751461037d57600080fd5b806301ffc9a7146101fc57806306fdde03146102245780630f4388c014610239578063117ab8741461025a57806321cf437014610263578063248a9ca31461027757806324d7806c1461029a578063256019d6146102ad5780632f2ff15d146102b6575b600080fd5b61020f61020a3660046117c7565b6104d9565b60405190151581526020015b60405180910390f35b61022c610510565b60405161021b919061193f565b61024c610247366004611784565b61059e565b60405190815260200161021b565b61024c60065481565b60005461020f90600160a01b900460ff1681565b61024c610285366004611784565b6000908152600e602052604090206001015490565b61020f6102a8366004611721565b6105bf565b61024c60055481565b6102c96102c436600461179c565b6105d9565b005b6102c96102d936600461179c565b610604565b61024c600080516020611b9083398151915281565b6102c9610687565b6103246103093660046117c7565b600d602052600090815260409020546001600160a01b031681565b60405161021b9190611912565b61020f61033f366004611721565b600c6020526000908152604090205460ff1681565b61024c60045481565b600a5461020f9060ff1681565b6102c9610378366004611721565b6108c7565b6102c961038b366004611721565b61091d565b6102c961039e366004611721565b61095d565b600254610324906001600160a01b031681565b6102c96103c4366004611721565b610a10565b61024c610a9a565b600154610324906001600160a01b031681565b61020f6103f236600461179c565b610b85565b6102c9610405366004611721565b610bb0565b6102c9610be0565b61024c600081565b61024c610428366004611784565b610c2e565b6102c961043b366004611807565b610cb9565b61032461044e366004611784565b600b602052600090815260409020546001600160a01b031681565b6102c9610f83565b61024c60075481565b6102c961048836600461179c565b610fb3565b61024c61049b366004611784565b610fd9565b6102c96104ae36600461173b565b610fe9565b61020f6104c1366004611721565b6110d2565b600054610324906001600160a01b031681565b60006001600160e01b03198216637965db0b60e01b148061050a57506301ffc9a760e01b6001600160e01b03198316145b92915050565b6003805461051d90611b23565b80601f016020809104026020016040519081016040528092919081815260200182805461054990611b23565b80156105965780601f1061056b57610100808354040283529160200191610596565b820191906000526020600020905b81548152906001019060200180831161057957829003601f168201915b505050505081565b600981815481106105ae57600080fd5b600091825260209091200154905081565b600061050a600080516020611b9083398151915283610b85565b6000828152600e60205260409020600101546105f581336110de565b6105ff8383611142565b505050565b6001600160a01b03811633146106795760405162461bcd60e51b815260206004820152602f60248201527f416363657373436f6e74726f6c3a2063616e206f6e6c792072656e6f756e636560448201526e103937b632b9903337b91039b2b63360891b60648201526084015b60405180910390fd5b61068382826111c8565b5050565b60086000815481106106a957634e487b7160e01b600052603260045260246000fd5b906000526020600020015442116106fb5760405162461bcd60e51b815260206004820152601660248201527515985d5b1d0e881b9bdd081cdd185c9d1959081e595d60521b6044820152606401610670565b600754600454116107475760405162461bcd60e51b815260206004820152601660248201527515985d5b1d0e88185b1c9958591e48105b1b0819d95d60521b6044820152606401610670565b6000610751610a9a565b9050600061075e82610c2e565b6000546040516370a0823160e01b815291925082916001600160a01b03909116906370a0823190610793903090600401611912565b60206040518083038186803b1580156107ab57600080fd5b505afa1580156107bf573d6000803e3d6000fd5b505050506040513d601f19601f820116820180604052508101906107e391906117ef565b10156108015760405162461bcd60e51b815260040161067090611a5e565b6006829055600754610814908290611a8e565b600755600254600054604051631f72642160e31b81526001600160a01b039283169263fb9321089261084d929116908590600401611926565b600060405180830381600087803b15801561086757600080fd5b505af115801561087b573d6000803e3d6000fd5b50506007546040513393507f987d620f307ff6b94d58743cb7a7509f24071586a77759b77c2d4e29f75a2f9a92506108bb91858252602082015260400190565b60405180910390a25050565b6108d0336105bf565b806108df57506108df336110d2565b6108fb5760405162461bcd60e51b815260040161067090611972565b600080546001600160a01b0319166001600160a01b0392909216919091179055565b610926336110d2565b6109425760405162461bcd60e51b8152600401610670906119e6565b61095a600080516020611b90833981519152826105d9565b50565b610966336105bf565b806109755750610975336110d2565b6109915760405162461bcd60e51b815260040161067090611972565b6001600160a01b0381166109b75760405162461bcd60e51b8152600401610670906119b4565b336001600160a01b03821614156109e05760405162461bcd60e51b815260040161067090611a2e565b6109f8600080516020611b90833981519152826105d9565b61095a600080516020611b9083398151915233610604565b610a19336110d2565b610a355760405162461bcd60e51b8152600401610670906119e6565b6001600160a01b038116610a5b5760405162461bcd60e51b8152600401610670906119b4565b336001600160a01b0382161415610a845760405162461bcd60e51b815260040161067090611a2e565b610a8f6000826105d9565b61095a600033610604565b60006008600081548110610abe57634e487b7160e01b600052603260045260246000fd5b9060005260206000200154421015610ad4575060005b60086001600554610ae59190611ac5565b81548110610b0357634e487b7160e01b600052603260045260246000fd5b9060005260206000200154421115610b1a57506005545b6005545b8015610b81576008610b31600183611ac5565b81548110610b4f57634e487b7160e01b600052603260045260246000fd5b9060005260206000200154421015610b6f57610b6c600182611ac5565b91505b80610b7981611b0c565b915050610b1e565b5090565b6000918252600e602090815260408084206001600160a01b0393909316845291905290205460ff1690565b610bb9336110d2565b610bd55760405162461bcd60e51b8152600401610670906119e6565b61095a60008261122f565b610be9336105bf565b80610bf85750610bf8336110d2565b610c145760405162461bcd60e51b815260040161067090611972565b610c2c600080516020611b9083398151915233610604565b565b6000816005541415610c4d57600754600454610c4a9190611ac5565b90505b6000805b83811015610ca45760098181548110610c7a57634e487b7160e01b600052603260045260246000fd5b906000526020600020015482610c909190611a8e565b915080610c9c81611b5e565b915050610c51565b50600754610cb29082611ac5565b9392505050565b610cc2336105bf565b80610cd15750610cd1336110d2565b610ced5760405162461bcd60e51b815260040161067090611972565b6000546040516370a0823160e01b81526001600160a01b03909116906370a0823190610d1d903090600401611912565b60206040518083038186803b158015610d3557600080fd5b505afa158015610d49573d6000803e3d6000fd5b505050506040513d601f19601f82011682018060405250810190610d6d91906117ef565b861115610db65760405162461bcd60e51b81526020600482015260176024820152763732b2b2103a379034b7383aba103a3432903a37b5b2b760491b6044820152606401610670565b600054600160a01b900460ff16151560011415610e2f5783836000818110610dee57634e487b7160e01b600052603260045260246000fd5b905060200201354210610e2f5760405162461bcd60e51b81526020600482015260096024820152686f7665722074696d6560b81b6044820152606401610670565b6004869055600585905560005b85811015610ede576008858583818110610e6657634e487b7160e01b600052603260045260246000fd5b835460018101855560009485526020948590209190940292909201359190920155506009838383818110610eaa57634e487b7160e01b600052603260045260246000fd5b8354600181018555600094855260209485902091909402929092013591909201555080610ed681611b5e565b915050610e3c565b6000805460ff60a01b198116600160a01b179091556002546004805460405163095ea7b360e01b81526001600160a01b039485169463095ea7b394610f27949116929101611926565b602060405180830381600087803b158015610f4157600080fd5b505af1158015610f55573d6000803e3d6000fd5b505050506040513d601f19601f82011682018060405250810190610f799190611764565b5050505050505050565b610f8c336110d2565b610fa85760405162461bcd60e51b8152600401610670906119e6565b610c2c600033610604565b6000828152600e6020526040902060010154610fcf81336110de565b6105ff83836111c8565b600881815481106105ae57600080fd5b610ff2336105bf565b806110015750611001336110d2565b61101d5760405162461bcd60e51b815260040161067090611972565b6000546040516370a0823160e01b815282916001600160a01b0316906370a082319061104d903090600401611912565b60206040518083038186803b15801561106557600080fd5b505afa158015611079573d6000803e3d6000fd5b505050506040513d601f19601f8201168201806040525081019061109d91906117ef565b10156110bb5760405162461bcd60e51b815260040161067090611a5e565b600054610683906001600160a01b03168383611239565b600061050a8183610b85565b6110e88282610b85565b61068357611100816001600160a01b0316601461128f565b61110b83602061128f565b60405160200161111c9291906118a3565b60408051601f198184030181529082905262461bcd60e51b82526106709160040161193f565b61114c8282610b85565b610683576000828152600e602090815260408083206001600160a01b03851684529091529020805460ff191660011790556111843390565b6001600160a01b0316816001600160a01b0316837f2f8788117e7eff1d82e926ec794901d17c78024a50270940304540a733656f0d60405160405180910390a45050565b6111d28282610b85565b15610683576000828152600e602090815260408083206001600160a01b0385168085529252808320805460ff1916905551339285917ff6391f5c32d9c69d2a47ea670b442974b53935d1edc7fd64eb21e047a839171b9190a45050565b6106838282611142565b6105ff8363a9059cbb60e01b8484604051602401611258929190611926565b60408051601f198184030181529190526020810180516001600160e01b03166001600160e01b031990931692909217909152611471565b6060600061129e836002611aa6565b6112a9906002611a8e565b67ffffffffffffffff8111156112cf57634e487b7160e01b600052604160045260246000fd5b6040519080825280601f01601f1916602001820160405280156112f9576020820181803683370190505b509050600360fc1b8160008151811061132257634e487b7160e01b600052603260045260246000fd5b60200101906001600160f81b031916908160001a905350600f60fb1b8160018151811061135f57634e487b7160e01b600052603260045260246000fd5b60200101906001600160f81b031916908160001a9053506000611383846002611aa6565b61138e906001611a8e565b90505b6001811115611422576f181899199a1a9b1b9c1cb0b131b232b360811b85600f16601081106113d057634e487b7160e01b600052603260045260246000fd5b1a60f81b8282815181106113f457634e487b7160e01b600052603260045260246000fd5b60200101906001600160f81b031916908160001a90535060049490941c9361141b81611b0c565b9050611391565b508315610cb25760405162461bcd60e51b815260206004820181905260248201527f537472696e67733a20686578206c656e67746820696e73756666696369656e746044820152606401610670565b60006114c6826040518060400160405280602081526020017f5361666545524332303a206c6f772d6c6576656c2063616c6c206661696c6564815250856001600160a01b03166115439092919063ffffffff16565b8051909150156105ff57808060200190518101906114e49190611764565b6105ff5760405162461bcd60e51b815260206004820152602a60248201527f5361666545524332303a204552433230206f7065726174696f6e20646964206e6044820152691bdd081cdd58d8d9595960b21b6064820152608401610670565b6060611552848460008561155a565b949350505050565b6060824710156115bb5760405162461bcd60e51b815260206004820152602660248201527f416464726573733a20696e73756666696369656e742062616c616e636520666f6044820152651c8818d85b1b60d21b6064820152608401610670565b843b6116095760405162461bcd60e51b815260206004820152601d60248201527f416464726573733a2063616c6c20746f206e6f6e2d636f6e74726163740000006044820152606401610670565b600080866001600160a01b031685876040516116259190611887565b60006040518083038185875af1925050503d8060008114611662576040519150601f19603f3d011682016040523d82523d6000602084013e611667565b606091505b5091509150611677828286611682565b979650505050505050565b60608315611691575081610cb2565b8251156116a15782518084602001fd5b8160405162461bcd60e51b8152600401610670919061193f565b80356001600160a01b03811681146116d257600080fd5b919050565b60008083601f8401126116e8578182fd5b50813567ffffffffffffffff8111156116ff578182fd5b6020830191508360208260051b850101111561171a57600080fd5b9250929050565b600060208284031215611732578081fd5b610cb2826116bb565b6000806040838503121561174d578081fd5b611756836116bb565b946020939093013593505050565b600060208284031215611775578081fd5b81518015158114610cb2578182fd5b600060208284031215611795578081fd5b5035919050565b600080604083850312156117ae578182fd5b823591506117be602084016116bb565b90509250929050565b6000602082840312156117d8578081fd5b81356001600160e01b031981168114610cb2578182fd5b600060208284031215611800578081fd5b5051919050565b6000806000806000806080878903121561181f578182fd5b8635955060208701359450604087013567ffffffffffffffff80821115611844578384fd5b6118508a838b016116d7565b90965094506060890135915080821115611868578384fd5b5061187589828a016116d7565b979a9699509497509295939492505050565b60008251611899818460208701611adc565b9190910192915050565b76020b1b1b2b9b9a1b7b73a3937b61d1030b1b1b7bab73a1604d1b8152600083516118d5816017850160208801611adc565b7001034b99036b4b9b9b4b733903937b6329607d1b6017918401918201528351611906816028840160208801611adc565b01602801949350505050565b6001600160a01b0391909116815260200190565b6001600160a01b03929092168252602082015260400190565b602081526000825180602084015261195e816040850160208701611adc565b601f01601f19169190910160400192915050565b60208082526022908201527f41636365737369626c653a2043616c6c6572206973206e6f7420616e2061646d60408201526134b760f11b606082015260800190565b60208082526018908201527741636365737369626c653a207a65726f206164647265737360401b604082015260600190565b60208082526028908201527f41636365737369626c653a2043616c6c6572206973206e6f7420616e2070726f6040820152673c3c9030b236b4b760c11b606082015260800190565b60208082526016908201527520b1b1b2b9b9b4b136329d1039b0b6b29030b236b4b760511b604082015260600190565b6020808252601690820152752b30bab63a1d103237b73a103430bb32903a37b5b2b760511b604082015260600190565b60008219821115611aa157611aa1611b79565b500190565b6000816000190483118215151615611ac057611ac0611b79565b500290565b600082821015611ad757611ad7611b79565b500390565b60005b83811015611af7578181015183820152602001611adf565b83811115611b06576000848401525b50505050565b600081611b1b57611b1b611b79565b506000190190565b600181811c90821680611b3757607f821691505b60208210811415611b5857634e487b7160e01b600052602260045260246000fd5b50919050565b6000600019821415611b7257611b72611b79565b5060010190565b634e487b7160e01b600052601160045260246000fdfe52eafc11f6f81f86878bffd31109a0d92f37506527754f00788853ff9f63b130a2646970667358221220b53cd3681e87d488d3b0b83867858c131b008e5450683519cc548cbb30e5f08464736f6c63430008040033",
  "linkReferences": {},
  "deployedLinkReferences": {}
}