{
    "_format": "hh-sol-artifact-1",
    "contractName": "TypeBVault",
    "sourceName": "contracts/TypeBVault/TypeBVault.sol",
    "abi": [
        {
            "inputs": [],
            "stateMutability": "nonpayable",
            "type": "constructor"
        },
        {
            "anonymous": false,
            "inputs": [
                {
                    "indexed": true,
                    "internalType": "bytes32",
                    "name": "role",
                    "type": "bytes32"
                },
                {
                    "indexed": true,
                    "internalType": "bytes32",
                    "name": "previousAdminRole",
                    "type": "bytes32"
                },
                {
                    "indexed": true,
                    "internalType": "bytes32",
                    "name": "newAdminRole",
                    "type": "bytes32"
                }
            ],
            "name": "RoleAdminChanged",
            "type": "event"
        },
        {
            "anonymous": false,
            "inputs": [
                {
                    "indexed": true,
                    "internalType": "bytes32",
                    "name": "role",
                    "type": "bytes32"
                },
                {
                    "indexed": true,
                    "internalType": "address",
                    "name": "account",
                    "type": "address"
                },
                {
                    "indexed": true,
                    "internalType": "address",
                    "name": "sender",
                    "type": "address"
                }
            ],
            "name": "RoleGranted",
            "type": "event"
        },
        {
            "anonymous": false,
            "inputs": [
                {
                    "indexed": true,
                    "internalType": "bytes32",
                    "name": "role",
                    "type": "bytes32"
                },
                {
                    "indexed": true,
                    "internalType": "address",
                    "name": "account",
                    "type": "address"
                },
                {
                    "indexed": true,
                    "internalType": "address",
                    "name": "sender",
                    "type": "address"
                }
            ],
            "name": "RoleRevoked",
            "type": "event"
        },
        {
            "inputs": [],
            "name": "DEFAULT_ADMIN_ROLE",
            "outputs": [
                {
                    "internalType": "bytes32",
                    "name": "",
                    "type": "bytes32"
                }
            ],
            "stateMutability": "view",
            "type": "function"
        },
        {
            "inputs": [],
            "name": "PROJECT_ADMIN_ROLE",
            "outputs": [
                {
                    "internalType": "bytes32",
                    "name": "",
                    "type": "bytes32"
                }
            ],
            "stateMutability": "view",
            "type": "function"
        },
        {
            "inputs": [
                {
                    "internalType": "address",
                    "name": "account",
                    "type": "address"
                }
            ],
            "name": "addAdmin",
            "outputs": [],
            "stateMutability": "nonpayable",
            "type": "function"
        },
        {
            "inputs": [
                {
                    "internalType": "address",
                    "name": "_owner",
                    "type": "address"
                }
            ],
            "name": "addProxyAdmin",
            "outputs": [],
            "stateMutability": "nonpayable",
            "type": "function"
        },
        {
            "inputs": [
                {
                    "internalType": "address",
                    "name": "",
                    "type": "address"
                }
            ],
            "name": "aliveImplementation",
            "outputs": [
                {
                    "internalType": "bool",
                    "name": "",
                    "type": "bool"
                }
            ],
            "stateMutability": "view",
            "type": "function"
        },
        {
            "inputs": [],
            "name": "boolLogEvent",
            "outputs": [
                {
                    "internalType": "bool",
                    "name": "",
                    "type": "bool"
                }
            ],
            "stateMutability": "view",
            "type": "function"
        },
        {
            "inputs": [
                {
                    "internalType": "address",
                    "name": "_to",
                    "type": "address"
                },
                {
                    "internalType": "uint256",
                    "name": "_amount",
                    "type": "uint256"
                }
            ],
            "name": "claim",
            "outputs": [],
            "stateMutability": "nonpayable",
            "type": "function"
        },
        {
            "inputs": [
                {
                    "internalType": "uint256",
                    "name": "",
                    "type": "uint256"
                }
            ],
            "name": "claimAmounts",
            "outputs": [
                {
                    "internalType": "uint256",
                    "name": "",
                    "type": "uint256"
                }
            ],
            "stateMutability": "view",
            "type": "function"
        },
        {
            "inputs": [
                {
                    "internalType": "uint256",
                    "name": "",
                    "type": "uint256"
                }
            ],
            "name": "claimTimes",
            "outputs": [
                {
                    "internalType": "uint256",
                    "name": "",
                    "type": "uint256"
                }
            ],
            "stateMutability": "view",
            "type": "function"
        },
        {
            "inputs": [
                {
                    "internalType": "bytes32",
                    "name": "role",
                    "type": "bytes32"
                }
            ],
            "name": "getRoleAdmin",
            "outputs": [
                {
                    "internalType": "bytes32",
                    "name": "",
                    "type": "bytes32"
                }
            ],
            "stateMutability": "view",
            "type": "function"
        },
        {
            "inputs": [
                {
                    "internalType": "bytes32",
                    "name": "role",
                    "type": "bytes32"
                },
                {
                    "internalType": "address",
                    "name": "account",
                    "type": "address"
                }
            ],
            "name": "grantRole",
            "outputs": [],
            "stateMutability": "nonpayable",
            "type": "function"
        },
        {
            "inputs": [
                {
                    "internalType": "bytes32",
                    "name": "role",
                    "type": "bytes32"
                },
                {
                    "internalType": "address",
                    "name": "account",
                    "type": "address"
                }
            ],
            "name": "hasRole",
            "outputs": [
                {
                    "internalType": "bool",
                    "name": "",
                    "type": "bool"
                }
            ],
            "stateMutability": "view",
            "type": "function"
        },
        {
            "inputs": [
                {
                    "internalType": "address",
                    "name": "account",
                    "type": "address"
                }
            ],
            "name": "isAdmin",
            "outputs": [
                {
                    "internalType": "bool",
                    "name": "",
                    "type": "bool"
                }
            ],
            "stateMutability": "view",
            "type": "function"
        },
        {
            "inputs": [
                {
                    "internalType": "address",
                    "name": "account",
                    "type": "address"
                }
            ],
            "name": "isProxyAdmin",
            "outputs": [
                {
                    "internalType": "bool",
                    "name": "",
                    "type": "bool"
                }
            ],
            "stateMutability": "view",
            "type": "function"
        },
        {
            "inputs": [],
            "name": "logEventAddress",
            "outputs": [
                {
                    "internalType": "address",
                    "name": "",
                    "type": "address"
                }
            ],
            "stateMutability": "view",
            "type": "function"
        },
        {
            "inputs": [],
            "name": "name",
            "outputs": [
                {
                    "internalType": "string",
                    "name": "",
                    "type": "string"
                }
            ],
            "stateMutability": "view",
            "type": "function"
        },
        {
            "inputs": [],
            "name": "nowClaimRound",
            "outputs": [
                {
                    "internalType": "uint256",
                    "name": "",
                    "type": "uint256"
                }
            ],
            "stateMutability": "view",
            "type": "function"
        },
        {
            "inputs": [],
            "name": "owner",
            "outputs": [
                {
                    "internalType": "address",
                    "name": "",
                    "type": "address"
                }
            ],
            "stateMutability": "view",
            "type": "function"
        },
        {
            "inputs": [],
            "name": "pauseProxy",
            "outputs": [
                {
                    "internalType": "bool",
                    "name": "",
                    "type": "bool"
                }
            ],
            "stateMutability": "view",
            "type": "function"
        },
        {
            "inputs": [
                {
                    "internalType": "uint256",
                    "name": "",
                    "type": "uint256"
                }
            ],
            "name": "proxyImplementation",
            "outputs": [
                {
                    "internalType": "address",
                    "name": "",
                    "type": "address"
                }
            ],
            "stateMutability": "view",
            "type": "function"
        },
        {
            "inputs": [],
            "name": "removeAdmin",
            "outputs": [],
            "stateMutability": "nonpayable",
            "type": "function"
        },
        {
            "inputs": [],
            "name": "removeProxyAdmin",
            "outputs": [],
            "stateMutability": "nonpayable",
            "type": "function"
        },
        {
            "inputs": [
                {
                    "internalType": "bytes32",
                    "name": "role",
                    "type": "bytes32"
                },
                {
                    "internalType": "address",
                    "name": "account",
                    "type": "address"
                }
            ],
            "name": "renounceRole",
            "outputs": [],
            "stateMutability": "nonpayable",
            "type": "function"
        },
        {
            "inputs": [
                {
                    "internalType": "bytes32",
                    "name": "role",
                    "type": "bytes32"
                },
                {
                    "internalType": "address",
                    "name": "account",
                    "type": "address"
                }
            ],
            "name": "revokeRole",
            "outputs": [],
            "stateMutability": "nonpayable",
            "type": "function"
        },
        {
            "inputs": [
                {
                    "internalType": "bytes4",
                    "name": "",
                    "type": "bytes4"
                }
            ],
            "name": "selectorImplementation",
            "outputs": [
                {
                    "internalType": "address",
                    "name": "",
                    "type": "address"
                }
            ],
            "stateMutability": "view",
            "type": "function"
        },
        {
            "inputs": [
                {
                    "internalType": "bytes4",
                    "name": "interfaceId",
                    "type": "bytes4"
                }
            ],
            "name": "supportsInterface",
            "outputs": [
                {
                    "internalType": "bool",
                    "name": "",
                    "type": "bool"
                }
            ],
            "stateMutability": "view",
            "type": "function"
        },
        {
            "inputs": [],
            "name": "token",
            "outputs": [
                {
                    "internalType": "address",
                    "name": "",
                    "type": "address"
                }
            ],
            "stateMutability": "view",
            "type": "function"
        },
        {
            "inputs": [],
            "name": "totalAllocatedAmount",
            "outputs": [
                {
                    "internalType": "uint256",
                    "name": "",
                    "type": "uint256"
                }
            ],
            "stateMutability": "view",
            "type": "function"
        },
        {
            "inputs": [],
            "name": "totalClaimCounts",
            "outputs": [
                {
                    "internalType": "uint256",
                    "name": "",
                    "type": "uint256"
                }
            ],
            "stateMutability": "view",
            "type": "function"
        },
        {
            "inputs": [],
            "name": "totalClaimsAmount",
            "outputs": [
                {
                    "internalType": "uint256",
                    "name": "",
                    "type": "uint256"
                }
            ],
            "stateMutability": "view",
            "type": "function"
        },
        {
            "inputs": [
                {
                    "internalType": "address",
                    "name": "newAdmin",
                    "type": "address"
                }
            ],
            "name": "transferAdmin",
            "outputs": [],
            "stateMutability": "nonpayable",
            "type": "function"
        },
        {
            "inputs": [
                {
                    "internalType": "address",
                    "name": "newAdmin",
                    "type": "address"
                }
            ],
            "name": "transferProxyAdmin",
            "outputs": [],
            "stateMutability": "nonpayable",
            "type": "function"
        }
    ],
    "bytecode": "0x6080604052600060055534801561001557600080fd5b50611353806100256000396000f3fe608060405234801561001057600080fd5b50600436106101b05760003560e01c806375829def116100ef578063b911135f11610092578063b911135f146103b4578063be72f2d3146103dd578063cfc412be146103e5578063d547741f146103ee578063eab73ca114610401578063ed5131f514610419578063f47f2f1d1461042c578063fc0c546a1461043f57600080fd5b806375829def146103325780638356ca4f146103455780638da5cb5b1461035857806391d148541461036b57806396f1557c1461037e5780639a202d4714610391578063a217fddf14610399578063aad3ec96146103a157600080fd5b80632f2ff15d116101575780632f2ff15d1461026857806336568abe1461027d57806341c04d5e1461029057806350d2a276146102a5578063550d01a3146102e6578063556400081461030957806363a8fd8914610312578063704802751461031f57600080fd5b806301ffc9a7146101b557806306fdde03146101dd5780630a59fa08146101f25780630f4388c0146101ff578063117ab87414610220578063248a9ca31461022957806324d7806c1461024c578063256019d61461025f575b600080fd5b6101c86101c3366004611044565b610452565b60405190151581526020015b60405180910390f35b6101e5610489565b6040516101d4919061110f565b600d546101c89060ff1681565b61021261020d366004611001565b610517565b6040519081526020016101d4565b61021260055481565b610212610237366004611001565b6000908152600e602052604090206001015490565b6101c861025a366004610f9e565b610538565b61021260045481565b61027b610276366004611019565b610552565b005b61027b61028b366004611019565b61057d565b6102126000805160206112fe83398151915281565b6102ce6102b3366004611044565b600c602052600090815260409020546001600160a01b031681565b6040516001600160a01b0390911681526020016101d4565b6101c86102f4366004610f9e565b600b6020526000908152604090205460ff1681565b61021260035481565b6009546101c89060ff1681565b61027b61032d366004610f9e565b610600565b61027b610340366004610f9e565b610640565b61027b610353366004610f9e565b6106f3565b6001546102ce906001600160a01b031681565b6101c8610379366004611019565b61077d565b61027b61038c366004610f9e565b6107a8565b61027b6107d8565b610212600081565b61027b6103af366004610fb8565b610826565b6102ce6103c2366004611001565b600a602052600090815260409020546001600160a01b031681565b61027b610930565b61021260065481565b61027b6103fc366004611019565b610960565b600d546102ce9061010090046001600160a01b031681565b610212610427366004611001565b610986565b6101c861043a366004610f9e565b610996565b6000546102ce906001600160a01b031681565b60006001600160e01b03198216637965db0b60e01b148061048357506301ffc9a760e01b6001600160e01b03198316145b92915050565b60028054610496906112ac565b80601f01602080910402602001604051908101604052809291908181526020018280546104c2906112ac565b801561050f5780601f106104e45761010080835404028352916020019161050f565b820191906000526020600020905b8154815290600101906020018083116104f257829003601f168201915b505050505081565b6008818154811061052757600080fd5b600091825260209091200154905081565b60006104836000805160206112fe8339815191528361077d565b6000828152600e602052604090206001015461056e81336109a2565b6105788383610a06565b505050565b6001600160a01b03811633146105f25760405162461bcd60e51b815260206004820152602f60248201527f416363657373436f6e74726f6c3a2063616e206f6e6c792072656e6f756e636560448201526e103937b632b9903337b91039b2b63360891b60648201526084015b60405180910390fd5b6105fc8282610a8c565b5050565b61060933610996565b6106255760405162461bcd60e51b81526004016105e9906111b6565b61063d6000805160206112fe83398151915282610552565b50565b61064933610538565b80610658575061065833610996565b6106745760405162461bcd60e51b81526004016105e990611142565b6001600160a01b03811661069a5760405162461bcd60e51b81526004016105e990611184565b336001600160a01b03821614156106c35760405162461bcd60e51b81526004016105e9906111fe565b6106db6000805160206112fe83398151915282610552565b61063d6000805160206112fe8339815191523361057d565b6106fc33610996565b6107185760405162461bcd60e51b81526004016105e9906111b6565b6001600160a01b03811661073e5760405162461bcd60e51b81526004016105e990611184565b336001600160a01b03821614156107675760405162461bcd60e51b81526004016105e9906111fe565b610772600082610552565b61063d60003361057d565b6000918252600e602090815260408084206001600160a01b0393909316845291905290205460ff1690565b6107b133610996565b6107cd5760405162461bcd60e51b81526004016105e9906111b6565b61063d600082610af3565b6107e133610538565b806107f057506107f033610996565b61080c5760405162461bcd60e51b81526004016105e990611142565b6108246000805160206112fe8339815191523361057d565b565b61082f33610538565b8061083e575061083e33610996565b61085a5760405162461bcd60e51b81526004016105e990611142565b6000546040516370a0823160e01b815230600482015282916001600160a01b0316906370a082319060240160206040518083038186803b15801561089d57600080fd5b505afa1580156108b1573d6000803e3d6000fd5b505050506040513d601f19601f820116820180604052508101906108d5919061106c565b10156109195760405162461bcd60e51b815260206004820152601360248201527215985d5b1d0e881a5b9cdd59999a58da595b9d606a1b60448201526064016105e9565b6000546105fc906001600160a01b03168383610afd565b61093933610996565b6109555760405162461bcd60e51b81526004016105e9906111b6565b61082460003361057d565b6000828152600e602052604090206001015461097c81336109a2565b6105788383610a8c565b6007818154811061052757600080fd5b6000610483818361077d565b6109ac828261077d565b6105fc576109c4816001600160a01b03166014610b4f565b6109cf836020610b4f565b6040516020016109e09291906110a0565b60408051601f198184030181529082905262461bcd60e51b82526105e99160040161110f565b610a10828261077d565b6105fc576000828152600e602090815260408083206001600160a01b03851684529091529020805460ff19166001179055610a483390565b6001600160a01b0316816001600160a01b0316837f2f8788117e7eff1d82e926ec794901d17c78024a50270940304540a733656f0d60405160405180910390a45050565b610a96828261077d565b156105fc576000828152600e602090815260408083206001600160a01b0385168085529252808320805460ff1916905551339285917ff6391f5c32d9c69d2a47ea670b442974b53935d1edc7fd64eb21e047a839171b9190a45050565b6105fc8282610a06565b604080516001600160a01b038416602482015260448082018490528251808303909101815260649091019091526020810180516001600160e01b031663a9059cbb60e01b179052610578908490610d38565b60606000610b5e836002611246565b610b6990600261122e565b67ffffffffffffffff811115610b8f57634e487b7160e01b600052604160045260246000fd5b6040519080825280601f01601f191660200182016040528015610bb9576020820181803683370190505b509050600360fc1b81600081518110610be257634e487b7160e01b600052603260045260246000fd5b60200101906001600160f81b031916908160001a905350600f60fb1b81600181518110610c1f57634e487b7160e01b600052603260045260246000fd5b60200101906001600160f81b031916908160001a9053506000610c43846002611246565b610c4e90600161122e565b90505b6001811115610ce2576f181899199a1a9b1b9c1cb0b131b232b360811b85600f1660108110610c9057634e487b7160e01b600052603260045260246000fd5b1a60f81b828281518110610cb457634e487b7160e01b600052603260045260246000fd5b60200101906001600160f81b031916908160001a90535060049490941c93610cdb81611295565b9050610c51565b508315610d315760405162461bcd60e51b815260206004820181905260248201527f537472696e67733a20686578206c656e67746820696e73756666696369656e7460448201526064016105e9565b9392505050565b6000610d8d826040518060400160405280602081526020017f5361666545524332303a206c6f772d6c6576656c2063616c6c206661696c6564815250856001600160a01b0316610e0a9092919063ffffffff16565b8051909150156105785780806020019051810190610dab9190610fe1565b6105785760405162461bcd60e51b815260206004820152602a60248201527f5361666545524332303a204552433230206f7065726174696f6e20646964206e6044820152691bdd081cdd58d8d9595960b21b60648201526084016105e9565b6060610e198484600085610e21565b949350505050565b606082471015610e825760405162461bcd60e51b815260206004820152602660248201527f416464726573733a20696e73756666696369656e742062616c616e636520666f6044820152651c8818d85b1b60d21b60648201526084016105e9565b843b610ed05760405162461bcd60e51b815260206004820152601d60248201527f416464726573733a2063616c6c20746f206e6f6e2d636f6e747261637400000060448201526064016105e9565b600080866001600160a01b03168587604051610eec9190611084565b60006040518083038185875af1925050503d8060008114610f29576040519150601f19603f3d011682016040523d82523d6000602084013e610f2e565b606091505b5091509150610f3e828286610f49565b979650505050505050565b60608315610f58575081610d31565b825115610f685782518084602001fd5b8160405162461bcd60e51b81526004016105e9919061110f565b80356001600160a01b0381168114610f9957600080fd5b919050565b600060208284031215610faf578081fd5b610d3182610f82565b60008060408385031215610fca578081fd5b610fd383610f82565b946020939093013593505050565b600060208284031215610ff2578081fd5b81518015158114610d31578182fd5b600060208284031215611012578081fd5b5035919050565b6000806040838503121561102b578182fd5b8235915061103b60208401610f82565b90509250929050565b600060208284031215611055578081fd5b81356001600160e01b031981168114610d31578182fd5b60006020828403121561107d578081fd5b5051919050565b60008251611096818460208701611265565b9190910192915050565b76020b1b1b2b9b9a1b7b73a3937b61d1030b1b1b7bab73a1604d1b8152600083516110d2816017850160208801611265565b7001034b99036b4b9b9b4b733903937b6329607d1b6017918401918201528351611103816028840160208801611265565b01602801949350505050565b602081526000825180602084015261112e816040850160208701611265565b601f01601f19169190910160400192915050565b60208082526022908201527f41636365737369626c653a2043616c6c6572206973206e6f7420616e2061646d60408201526134b760f11b606082015260800190565b60208082526018908201527741636365737369626c653a207a65726f206164647265737360401b604082015260600190565b60208082526028908201527f41636365737369626c653a2043616c6c6572206973206e6f7420616e2070726f6040820152673c3c9030b236b4b760c11b606082015260800190565b60208082526016908201527520b1b1b2b9b9b4b136329d1039b0b6b29030b236b4b760511b604082015260600190565b60008219821115611241576112416112e7565b500190565b6000816000190483118215151615611260576112606112e7565b500290565b60005b83811015611280578181015183820152602001611268565b8381111561128f576000848401525b50505050565b6000816112a4576112a46112e7565b506000190190565b600181811c908216806112c057607f821691505b602082108114156112e157634e487b7160e01b600052602260045260246000fd5b50919050565b634e487b7160e01b600052601160045260246000fdfe52eafc11f6f81f86878bffd31109a0d92f37506527754f00788853ff9f63b130a26469706673582212205cec25cdfdd37986bf3704ac858756ae4984ea0d46926bd5c12d5f4b5f346e1464736f6c63430008040033",
    "linkReferences": {},
    "deployedLinkReferences": {}
}