{
  "_format": "hh-sol-artifact-1",
  "contractName": "TypeBVault",
  "sourceName": "contracts/TypeBVault/TypeBVault.sol",
  "abi": [
    {
      "inputs": [],
      "stateMutability": "nonpayable",
      "type": "constructor"
    },
    {
      "anonymous": false,
      "inputs": [
        {
          "indexed": true,
          "internalType": "bytes32",
          "name": "role",
          "type": "bytes32"
        },
        {
          "indexed": true,
          "internalType": "bytes32",
          "name": "previousAdminRole",
          "type": "bytes32"
        },
        {
          "indexed": true,
          "internalType": "bytes32",
          "name": "newAdminRole",
          "type": "bytes32"
        }
      ],
      "name": "RoleAdminChanged",
      "type": "event"
    },
    {
      "anonymous": false,
      "inputs": [
        {
          "indexed": true,
          "internalType": "bytes32",
          "name": "role",
          "type": "bytes32"
        },
        {
          "indexed": true,
          "internalType": "address",
          "name": "account",
          "type": "address"
        },
        {
          "indexed": true,
          "internalType": "address",
          "name": "sender",
          "type": "address"
        }
      ],
      "name": "RoleGranted",
      "type": "event"
    },
    {
      "anonymous": false,
      "inputs": [
        {
          "indexed": true,
          "internalType": "bytes32",
          "name": "role",
          "type": "bytes32"
        },
        {
          "indexed": true,
          "internalType": "address",
          "name": "account",
          "type": "address"
        },
        {
          "indexed": true,
          "internalType": "address",
          "name": "sender",
          "type": "address"
        }
      ],
      "name": "RoleRevoked",
      "type": "event"
    },
    {
      "inputs": [],
      "name": "DEFAULT_ADMIN_ROLE",
      "outputs": [
        {
          "internalType": "bytes32",
          "name": "",
          "type": "bytes32"
        }
      ],
      "stateMutability": "view",
      "type": "function"
    },
    {
      "inputs": [],
      "name": "PROJECT_ADMIN_ROLE",
      "outputs": [
        {
          "internalType": "bytes32",
          "name": "",
          "type": "bytes32"
        }
      ],
      "stateMutability": "view",
      "type": "function"
    },
    {
      "inputs": [
        {
          "internalType": "address",
          "name": "account",
          "type": "address"
        }
      ],
      "name": "addAdmin",
      "outputs": [],
      "stateMutability": "nonpayable",
      "type": "function"
    },
    {
      "inputs": [
        {
          "internalType": "address",
          "name": "_owner",
          "type": "address"
        }
      ],
      "name": "addProxyAdmin",
      "outputs": [],
      "stateMutability": "nonpayable",
      "type": "function"
    },
    {
      "inputs": [
        {
          "internalType": "address",
          "name": "",
          "type": "address"
        }
      ],
      "name": "aliveImplementation",
      "outputs": [
        {
          "internalType": "bool",
          "name": "",
          "type": "bool"
        }
      ],
      "stateMutability": "view",
      "type": "function"
    },
    {
      "inputs": [],
      "name": "allClaimInfos",
      "outputs": [
        {
          "internalType": "uint256",
          "name": "",
          "type": "uint256"
        },
        {
          "internalType": "uint256[]",
          "name": "",
          "type": "uint256[]"
        },
        {
          "internalType": "uint256[]",
          "name": "",
          "type": "uint256[]"
        },
        {
          "internalType": "uint256",
          "name": "",
          "type": "uint256"
        }
      ],
      "stateMutability": "view",
      "type": "function"
    },
    {
      "inputs": [],
      "name": "boolLogEvent",
      "outputs": [
        {
          "internalType": "bool",
          "name": "",
          "type": "bool"
        }
      ],
      "stateMutability": "view",
      "type": "function"
    },
    {
      "inputs": [
        {
          "internalType": "address",
          "name": "_to",
          "type": "address"
        },
        {
          "internalType": "uint256",
          "name": "_amount",
          "type": "uint256"
        }
      ],
      "name": "claim",
      "outputs": [],
      "stateMutability": "nonpayable",
      "type": "function"
    },
    {
      "inputs": [
        {
          "internalType": "uint256",
          "name": "",
          "type": "uint256"
        }
      ],
      "name": "claimAmounts",
      "outputs": [
        {
          "internalType": "uint256",
          "name": "",
          "type": "uint256"
        }
      ],
      "stateMutability": "view",
      "type": "function"
    },
    {
      "inputs": [
        {
          "internalType": "uint256",
          "name": "",
          "type": "uint256"
        }
      ],
      "name": "claimTimes",
      "outputs": [
        {
          "internalType": "uint256",
          "name": "",
          "type": "uint256"
        }
      ],
      "stateMutability": "view",
      "type": "function"
    },
    {
      "inputs": [
        {
          "internalType": "bytes32",
          "name": "role",
          "type": "bytes32"
        }
      ],
      "name": "getRoleAdmin",
      "outputs": [
        {
          "internalType": "bytes32",
          "name": "",
          "type": "bytes32"
        }
      ],
      "stateMutability": "view",
      "type": "function"
    },
    {
      "inputs": [
        {
          "internalType": "bytes32",
          "name": "role",
          "type": "bytes32"
        },
        {
          "internalType": "address",
          "name": "account",
          "type": "address"
        }
      ],
      "name": "grantRole",
      "outputs": [],
      "stateMutability": "nonpayable",
      "type": "function"
    },
    {
      "inputs": [
        {
          "internalType": "bytes32",
          "name": "role",
          "type": "bytes32"
        },
        {
          "internalType": "address",
          "name": "account",
          "type": "address"
        }
      ],
      "name": "hasRole",
      "outputs": [
        {
          "internalType": "bool",
          "name": "",
          "type": "bool"
        }
      ],
      "stateMutability": "view",
      "type": "function"
    },
    {
      "inputs": [
        {
          "internalType": "address",
          "name": "account",
          "type": "address"
        }
      ],
      "name": "isAdmin",
      "outputs": [
        {
          "internalType": "bool",
          "name": "",
          "type": "bool"
        }
      ],
      "stateMutability": "view",
      "type": "function"
    },
    {
      "inputs": [
        {
          "internalType": "address",
          "name": "account",
          "type": "address"
        }
      ],
      "name": "isProxyAdmin",
      "outputs": [
        {
          "internalType": "bool",
          "name": "",
          "type": "bool"
        }
      ],
      "stateMutability": "view",
      "type": "function"
    },
    {
      "inputs": [],
      "name": "logEventAddress",
      "outputs": [
        {
          "internalType": "address",
          "name": "",
          "type": "address"
        }
      ],
      "stateMutability": "view",
      "type": "function"
    },
    {
      "inputs": [],
      "name": "name",
      "outputs": [
        {
          "internalType": "string",
          "name": "",
          "type": "string"
        }
      ],
      "stateMutability": "view",
      "type": "function"
    },
    {
      "inputs": [],
      "name": "nowClaimRound",
      "outputs": [
        {
          "internalType": "uint256",
          "name": "",
          "type": "uint256"
        }
      ],
      "stateMutability": "view",
      "type": "function"
    },
    {
      "inputs": [],
      "name": "owner",
      "outputs": [
        {
          "internalType": "address",
          "name": "",
          "type": "address"
        }
      ],
      "stateMutability": "view",
      "type": "function"
    },
    {
      "inputs": [],
      "name": "pauseProxy",
      "outputs": [
        {
          "internalType": "bool",
          "name": "",
          "type": "bool"
        }
      ],
      "stateMutability": "view",
      "type": "function"
    },
    {
      "inputs": [
        {
          "internalType": "uint256",
          "name": "",
          "type": "uint256"
        }
      ],
      "name": "proxyImplementation",
      "outputs": [
        {
          "internalType": "address",
          "name": "",
          "type": "address"
        }
      ],
      "stateMutability": "view",
      "type": "function"
    },
    {
      "inputs": [],
      "name": "removeAdmin",
      "outputs": [],
      "stateMutability": "nonpayable",
      "type": "function"
    },
    {
      "inputs": [],
      "name": "removeProxyAdmin",
      "outputs": [],
      "stateMutability": "nonpayable",
      "type": "function"
    },
    {
      "inputs": [
        {
          "internalType": "bytes32",
          "name": "role",
          "type": "bytes32"
        },
        {
          "internalType": "address",
          "name": "account",
          "type": "address"
        }
      ],
      "name": "renounceRole",
      "outputs": [],
      "stateMutability": "nonpayable",
      "type": "function"
    },
    {
      "inputs": [
        {
          "internalType": "bytes32",
          "name": "role",
          "type": "bytes32"
        },
        {
          "internalType": "address",
          "name": "account",
          "type": "address"
        }
      ],
      "name": "revokeRole",
      "outputs": [],
      "stateMutability": "nonpayable",
      "type": "function"
    },
    {
      "inputs": [
        {
          "internalType": "bytes4",
          "name": "",
          "type": "bytes4"
        }
      ],
      "name": "selectorImplementation",
      "outputs": [
        {
          "internalType": "address",
          "name": "",
          "type": "address"
        }
      ],
      "stateMutability": "view",
      "type": "function"
    },
    {
      "inputs": [
        {
          "internalType": "bytes4",
          "name": "interfaceId",
          "type": "bytes4"
        }
      ],
      "name": "supportsInterface",
      "outputs": [
        {
          "internalType": "bool",
          "name": "",
          "type": "bool"
        }
      ],
      "stateMutability": "view",
      "type": "function"
    },
    {
      "inputs": [],
      "name": "token",
      "outputs": [
        {
          "internalType": "address",
          "name": "",
          "type": "address"
        }
      ],
      "stateMutability": "view",
      "type": "function"
    },
    {
      "inputs": [],
      "name": "totalAllocatedAmount",
      "outputs": [
        {
          "internalType": "uint256",
          "name": "",
          "type": "uint256"
        }
      ],
      "stateMutability": "view",
      "type": "function"
    },
    {
      "inputs": [],
      "name": "totalClaimCounts",
      "outputs": [
        {
          "internalType": "uint256",
          "name": "",
          "type": "uint256"
        }
      ],
      "stateMutability": "view",
      "type": "function"
    },
    {
      "inputs": [],
      "name": "totalClaimsAmount",
      "outputs": [
        {
          "internalType": "uint256",
          "name": "",
          "type": "uint256"
        }
      ],
      "stateMutability": "view",
      "type": "function"
    },
    {
      "inputs": [
        {
          "internalType": "address",
          "name": "newAdmin",
          "type": "address"
        }
      ],
      "name": "transferAdmin",
      "outputs": [],
      "stateMutability": "nonpayable",
      "type": "function"
    },
    {
      "inputs": [
        {
          "internalType": "address",
          "name": "newAdmin",
          "type": "address"
        }
      ],
      "name": "transferProxyAdmin",
      "outputs": [],
      "stateMutability": "nonpayable",
      "type": "function"
    }
  ],
  "bytecode": "0x6080604052600060055534801561001557600080fd5b506114b0806100256000396000f3fe608060405234801561001057600080fd5b50600436106101bb5760003560e01c806370480275116100fa578063aad3ec961161009d578063aad3ec96146103c4578063b911135f146103d7578063be72f2d314610400578063cfc412be14610408578063d547741f14610411578063eab73ca114610424578063ed5131f51461043c578063f47f2f1d1461044f578063fc0c546a1461046257600080fd5b8063704802751461034257806375829def146103555780638356ca4f146103685780638da5cb5b1461037b57806391d148541461038e57806396f1557c146103a15780639a202d47146103b4578063a217fddf146103bc57600080fd5b80632f2ff15d116101625780632f2ff15d1461027357806334b38cc31461028857806336568abe146102a057806341c04d5e146102b357806350d2a276146102c8578063550d01a314610309578063556400081461032c57806363a8fd891461033557600080fd5b806301ffc9a7146101c057806306fdde03146101e85780630a59fa08146101fd5780630f4388c01461020a578063117ab8741461022b578063248a9ca31461023457806324d7806c14610257578063256019d61461026a575b600080fd5b6101d36101ce36600461112a565b610475565b60405190151581526020015b60405180910390f35b6101f06104ac565b6040516101df919061122f565b600d546101d39060ff1681565b61021d6102183660046110e7565b61053a565b6040519081526020016101df565b61021d60055481565b61021d6102423660046110e7565b6000908152600e602052604090206001015490565b6101d3610265366004611084565b61055b565b61021d60045481565b6102866102813660046110ff565b610575565b005b6102906105a0565b6040516101df949392919061134e565b6102866102ae3660046110ff565b610663565b61021d60008051602061145b83398151915281565b6102f16102d636600461112a565b600c602052600090815260409020546001600160a01b031681565b6040516001600160a01b0390911681526020016101df565b6101d3610317366004611084565b600b6020526000908152604090205460ff1681565b61021d60035481565b6009546101d39060ff1681565b610286610350366004611084565b6106e6565b610286610363366004611084565b610726565b610286610376366004611084565b6107d9565b6001546102f1906001600160a01b031681565b6101d361039c3660046110ff565b610863565b6102866103af366004611084565b61088e565b6102866108be565b61021d600081565b6102866103d236600461109e565b61090c565b6102f16103e53660046110e7565b600a602052600090815260409020546001600160a01b031681565b610286610a16565b61021d60065481565b61028661041f3660046110ff565b610a46565b600d546102f19061010090046001600160a01b031681565b61021d61044a3660046110e7565b610a6c565b6101d361045d366004611084565b610a7c565b6000546102f1906001600160a01b031681565b60006001600160e01b03198216637965db0b60e01b14806104a657506301ffc9a760e01b6001600160e01b03198316145b92915050565b600280546104b990611409565b80601f01602080910402602001604051908101604052809291908181526020018280546104e590611409565b80156105325780601f1061050757610100808354040283529160200191610532565b820191906000526020600020905b81548152906001019060200180831161051557829003601f168201915b505050505081565b6008818154811061054a57600080fd5b600091825260209091200154905081565b60006104a660008051602061145b83398151915283610863565b6000828152600e60205260409020600101546105918133610a88565b61059b8383610aec565b505050565b6000606080600060045460076008600554828054806020026020016040519081016040528092919081815260200182805480156105fc57602002820191906000526020600020905b8154815260200190600101908083116105e8575b505050505092508180548060200260200160405190810160405280929190818152602001828054801561064e57602002820191906000526020600020905b81548152602001906001019080831161063a575b50505050509150935093509350935090919293565b6001600160a01b03811633146106d85760405162461bcd60e51b815260206004820152602f60248201527f416363657373436f6e74726f6c3a2063616e206f6e6c792072656e6f756e636560448201526e103937b632b9903337b91039b2b63360891b60648201526084015b60405180910390fd5b6106e28282610b72565b5050565b6106ef33610a7c565b61070b5760405162461bcd60e51b81526004016106cf906112d6565b61072360008051602061145b83398151915282610575565b50565b61072f3361055b565b8061073e575061073e33610a7c565b61075a5760405162461bcd60e51b81526004016106cf90611262565b6001600160a01b0381166107805760405162461bcd60e51b81526004016106cf906112a4565b336001600160a01b03821614156107a95760405162461bcd60e51b81526004016106cf9061131e565b6107c160008051602061145b83398151915282610575565b61072360008051602061145b83398151915233610663565b6107e233610a7c565b6107fe5760405162461bcd60e51b81526004016106cf906112d6565b6001600160a01b0381166108245760405162461bcd60e51b81526004016106cf906112a4565b336001600160a01b038216141561084d5760405162461bcd60e51b81526004016106cf9061131e565b610858600082610575565b610723600033610663565b6000918252600e602090815260408084206001600160a01b0393909316845291905290205460ff1690565b61089733610a7c565b6108b35760405162461bcd60e51b81526004016106cf906112d6565b610723600082610bd9565b6108c73361055b565b806108d657506108d633610a7c565b6108f25760405162461bcd60e51b81526004016106cf90611262565b61090a60008051602061145b83398151915233610663565b565b6109153361055b565b80610924575061092433610a7c565b6109405760405162461bcd60e51b81526004016106cf90611262565b6000546040516370a0823160e01b815230600482015282916001600160a01b0316906370a082319060240160206040518083038186803b15801561098357600080fd5b505afa158015610997573d6000803e3d6000fd5b505050506040513d601f19601f820116820180604052508101906109bb9190611152565b10156109ff5760405162461bcd60e51b815260206004820152601360248201527215985d5b1d0e881a5b9cdd59999a58da595b9d606a1b60448201526064016106cf565b6000546106e2906001600160a01b03168383610be3565b610a1f33610a7c565b610a3b5760405162461bcd60e51b81526004016106cf906112d6565b61090a600033610663565b6000828152600e6020526040902060010154610a628133610a88565b61059b8383610b72565b6007818154811061054a57600080fd5b60006104a68183610863565b610a928282610863565b6106e257610aaa816001600160a01b03166014610c35565b610ab5836020610c35565b604051602001610ac69291906111c0565b60408051601f198184030181529082905262461bcd60e51b82526106cf9160040161122f565b610af68282610863565b6106e2576000828152600e602090815260408083206001600160a01b03851684529091529020805460ff19166001179055610b2e3390565b6001600160a01b0316816001600160a01b0316837f2f8788117e7eff1d82e926ec794901d17c78024a50270940304540a733656f0d60405160405180910390a45050565b610b7c8282610863565b156106e2576000828152600e602090815260408083206001600160a01b0385168085529252808320805460ff1916905551339285917ff6391f5c32d9c69d2a47ea670b442974b53935d1edc7fd64eb21e047a839171b9190a45050565b6106e28282610aec565b604080516001600160a01b038416602482015260448082018490528251808303909101815260649091019091526020810180516001600160e01b031663a9059cbb60e01b17905261059b908490610e1e565b60606000610c448360026113a3565b610c4f90600261138b565b67ffffffffffffffff811115610c7557634e487b7160e01b600052604160045260246000fd5b6040519080825280601f01601f191660200182016040528015610c9f576020820181803683370190505b509050600360fc1b81600081518110610cc857634e487b7160e01b600052603260045260246000fd5b60200101906001600160f81b031916908160001a905350600f60fb1b81600181518110610d0557634e487b7160e01b600052603260045260246000fd5b60200101906001600160f81b031916908160001a9053506000610d298460026113a3565b610d3490600161138b565b90505b6001811115610dc8576f181899199a1a9b1b9c1cb0b131b232b360811b85600f1660108110610d7657634e487b7160e01b600052603260045260246000fd5b1a60f81b828281518110610d9a57634e487b7160e01b600052603260045260246000fd5b60200101906001600160f81b031916908160001a90535060049490941c93610dc1816113f2565b9050610d37565b508315610e175760405162461bcd60e51b815260206004820181905260248201527f537472696e67733a20686578206c656e67746820696e73756666696369656e7460448201526064016106cf565b9392505050565b6000610e73826040518060400160405280602081526020017f5361666545524332303a206c6f772d6c6576656c2063616c6c206661696c6564815250856001600160a01b0316610ef09092919063ffffffff16565b80519091501561059b5780806020019051810190610e9191906110c7565b61059b5760405162461bcd60e51b815260206004820152602a60248201527f5361666545524332303a204552433230206f7065726174696f6e20646964206e6044820152691bdd081cdd58d8d9595960b21b60648201526084016106cf565b6060610eff8484600085610f07565b949350505050565b606082471015610f685760405162461bcd60e51b815260206004820152602660248201527f416464726573733a20696e73756666696369656e742062616c616e636520666f6044820152651c8818d85b1b60d21b60648201526084016106cf565b843b610fb65760405162461bcd60e51b815260206004820152601d60248201527f416464726573733a2063616c6c20746f206e6f6e2d636f6e747261637400000060448201526064016106cf565b600080866001600160a01b03168587604051610fd291906111a4565b60006040518083038185875af1925050503d806000811461100f576040519150601f19603f3d011682016040523d82523d6000602084013e611014565b606091505b509150915061102482828661102f565b979650505050505050565b6060831561103e575081610e17565b82511561104e5782518084602001fd5b8160405162461bcd60e51b81526004016106cf919061122f565b80356001600160a01b038116811461107f57600080fd5b919050565b600060208284031215611095578081fd5b610e1782611068565b600080604083850312156110b0578081fd5b6110b983611068565b946020939093013593505050565b6000602082840312156110d8578081fd5b81518015158114610e17578182fd5b6000602082840312156110f8578081fd5b5035919050565b60008060408385031215611111578182fd5b8235915061112160208401611068565b90509250929050565b60006020828403121561113b578081fd5b81356001600160e01b031981168114610e17578182fd5b600060208284031215611163578081fd5b5051919050565b6000815180845260208085019450808401835b838110156111995781518752958201959082019060010161117d565b509495945050505050565b600082516111b68184602087016113c2565b9190910192915050565b76020b1b1b2b9b9a1b7b73a3937b61d1030b1b1b7bab73a1604d1b8152600083516111f28160178501602088016113c2565b7001034b99036b4b9b9b4b733903937b6329607d1b60179184019182015283516112238160288401602088016113c2565b01602801949350505050565b602081526000825180602084015261124e8160408501602087016113c2565b601f01601f19169190910160400192915050565b60208082526022908201527f41636365737369626c653a2043616c6c6572206973206e6f7420616e2061646d60408201526134b760f11b606082015260800190565b60208082526018908201527741636365737369626c653a207a65726f206164647265737360401b604082015260600190565b60208082526028908201527f41636365737369626c653a2043616c6c6572206973206e6f7420616e2070726f6040820152673c3c9030b236b4b760c11b606082015260800190565b60208082526016908201527520b1b1b2b9b9b4b136329d1039b0b6b29030b236b4b760511b604082015260600190565b848152608060208201526000611367608083018661116a565b8281036040840152611379818661116a565b91505082606083015295945050505050565b6000821982111561139e5761139e611444565b500190565b60008160001904831182151516156113bd576113bd611444565b500290565b60005b838110156113dd5781810151838201526020016113c5565b838111156113ec576000848401525b50505050565b60008161140157611401611444565b506000190190565b600181811c9082168061141d57607f821691505b6020821081141561143e57634e487b7160e01b600052602260045260246000fd5b50919050565b634e487b7160e01b600052601160045260246000fdfe52eafc11f6f81f86878bffd31109a0d92f37506527754f00788853ff9f63b130a2646970667358221220b87bd2a7aa292508e9421bf73802e9e31557f6d067bb1b887365561455a311f364736f6c63430008040033",
  "linkReferences": {},
  "deployedLinkReferences": {}
}