{
  "_format": "hh-sol-artifact-1",
  "contractName": "TypeCVault",
  "sourceName": "contracts/TypeCVault/TypeCVault.sol",
  "abi": [
    {
      "inputs": [],
      "stateMutability": "nonpayable",
      "type": "constructor"
    },
    {
      "anonymous": false,
      "inputs": [
        {
          "indexed": true,
          "internalType": "address",
          "name": "caller",
          "type": "address"
        },
        {
          "indexed": false,
          "internalType": "uint256",
          "name": "amount",
          "type": "uint256"
        },
        {
          "indexed": false,
          "internalType": "uint256",
          "name": "totalClaimedAmount",
          "type": "uint256"
        }
      ],
      "name": "Claimed",
      "type": "event"
    },
    {
      "anonymous": false,
      "inputs": [
        {
          "indexed": true,
          "internalType": "bytes32",
          "name": "role",
          "type": "bytes32"
        },
        {
          "indexed": true,
          "internalType": "bytes32",
          "name": "previousAdminRole",
          "type": "bytes32"
        },
        {
          "indexed": true,
          "internalType": "bytes32",
          "name": "newAdminRole",
          "type": "bytes32"
        }
      ],
      "name": "RoleAdminChanged",
      "type": "event"
    },
    {
      "anonymous": false,
      "inputs": [
        {
          "indexed": true,
          "internalType": "bytes32",
          "name": "role",
          "type": "bytes32"
        },
        {
          "indexed": true,
          "internalType": "address",
          "name": "account",
          "type": "address"
        },
        {
          "indexed": true,
          "internalType": "address",
          "name": "sender",
          "type": "address"
        }
      ],
      "name": "RoleGranted",
      "type": "event"
    },
    {
      "anonymous": false,
      "inputs": [
        {
          "indexed": true,
          "internalType": "bytes32",
          "name": "role",
          "type": "bytes32"
        },
        {
          "indexed": true,
          "internalType": "address",
          "name": "account",
          "type": "address"
        },
        {
          "indexed": true,
          "internalType": "address",
          "name": "sender",
          "type": "address"
        }
      ],
      "name": "RoleRevoked",
      "type": "event"
    },
    {
      "inputs": [],
      "name": "DEFAULT_ADMIN_ROLE",
      "outputs": [
        {
          "internalType": "bytes32",
          "name": "",
          "type": "bytes32"
        }
      ],
      "stateMutability": "view",
      "type": "function"
    },
    {
      "inputs": [],
      "name": "PROJECT_ADMIN_ROLE",
      "outputs": [
        {
          "internalType": "bytes32",
          "name": "",
          "type": "bytes32"
        }
      ],
      "stateMutability": "view",
      "type": "function"
    },
    {
      "inputs": [
        {
          "internalType": "address",
          "name": "account",
          "type": "address"
        }
      ],
      "name": "addAdmin",
      "outputs": [],
      "stateMutability": "nonpayable",
      "type": "function"
    },
    {
      "inputs": [
        {
          "internalType": "address",
          "name": "_owner",
          "type": "address"
        }
      ],
      "name": "addProxyAdmin",
      "outputs": [],
      "stateMutability": "nonpayable",
      "type": "function"
    },
    {
      "inputs": [
        {
          "internalType": "address",
          "name": "",
          "type": "address"
        }
      ],
      "name": "aliveImplementation",
      "outputs": [
        {
          "internalType": "bool",
          "name": "",
          "type": "bool"
        }
      ],
      "stateMutability": "view",
      "type": "function"
    },
    {
      "inputs": [],
      "name": "allClaimInfos",
      "outputs": [
        {
          "internalType": "uint256",
          "name": "",
          "type": "uint256"
        },
        {
          "internalType": "uint256[]",
          "name": "",
          "type": "uint256[]"
        },
        {
          "internalType": "uint256[]",
          "name": "",
          "type": "uint256[]"
        },
        {
          "internalType": "uint256",
          "name": "",
          "type": "uint256"
        }
      ],
      "stateMutability": "view",
      "type": "function"
    },
    {
      "inputs": [],
      "name": "boolLogEvent",
      "outputs": [
        {
          "internalType": "bool",
          "name": "",
          "type": "bool"
        }
      ],
      "stateMutability": "view",
      "type": "function"
    },
    {
      "inputs": [
        {
          "internalType": "uint256",
          "name": "_round",
          "type": "uint256"
        }
      ],
      "name": "calcalClaimAmount",
      "outputs": [
        {
          "internalType": "uint256",
          "name": "amount",
          "type": "uint256"
        }
      ],
      "stateMutability": "view",
      "type": "function"
    },
    {
      "inputs": [
        {
          "internalType": "address",
          "name": "_token",
          "type": "address"
        }
      ],
      "name": "changeAddr",
      "outputs": [],
      "stateMutability": "nonpayable",
      "type": "function"
    },
    {
      "inputs": [
        {
          "internalType": "address",
          "name": "_receive",
          "type": "address"
        }
      ],
      "name": "changeReceiveAddr",
      "outputs": [],
      "stateMutability": "nonpayable",
      "type": "function"
    },
    {
      "inputs": [],
      "name": "claim",
      "outputs": [],
      "stateMutability": "nonpayable",
      "type": "function"
    },
    {
      "inputs": [
        {
          "internalType": "uint256",
          "name": "",
          "type": "uint256"
        }
      ],
      "name": "claimAmounts",
      "outputs": [
        {
          "internalType": "uint256",
          "name": "",
          "type": "uint256"
        }
      ],
      "stateMutability": "view",
      "type": "function"
    },
    {
      "inputs": [
        {
          "internalType": "uint256",
          "name": "",
          "type": "uint256"
        }
      ],
      "name": "claimTimes",
      "outputs": [
        {
          "internalType": "uint256",
          "name": "",
          "type": "uint256"
        }
      ],
      "stateMutability": "view",
      "type": "function"
    },
    {
      "inputs": [],
      "name": "currentRound",
      "outputs": [
        {
          "internalType": "uint256",
          "name": "round",
          "type": "uint256"
        }
      ],
      "stateMutability": "view",
      "type": "function"
    },
    {
      "inputs": [
        {
          "internalType": "bytes32",
          "name": "role",
          "type": "bytes32"
        }
      ],
      "name": "getRoleAdmin",
      "outputs": [
        {
          "internalType": "bytes32",
          "name": "",
          "type": "bytes32"
        }
      ],
      "stateMutability": "view",
      "type": "function"
    },
    {
      "inputs": [
        {
          "internalType": "bytes32",
          "name": "role",
          "type": "bytes32"
        },
        {
          "internalType": "address",
          "name": "account",
          "type": "address"
        }
      ],
      "name": "grantRole",
      "outputs": [],
      "stateMutability": "nonpayable",
      "type": "function"
    },
    {
      "inputs": [
        {
          "internalType": "bytes32",
          "name": "role",
          "type": "bytes32"
        },
        {
          "internalType": "address",
          "name": "account",
          "type": "address"
        }
      ],
      "name": "hasRole",
      "outputs": [
        {
          "internalType": "bool",
          "name": "",
          "type": "bool"
        }
      ],
      "stateMutability": "view",
      "type": "function"
    },
    {
      "inputs": [
        {
          "internalType": "uint256",
          "name": "_totalAllocatedAmount",
          "type": "uint256"
        },
        {
          "internalType": "uint256",
          "name": "_claimCounts",
          "type": "uint256"
        },
        {
          "internalType": "uint256[]",
          "name": "_claimTimes",
          "type": "uint256[]"
        },
        {
          "internalType": "uint256[]",
          "name": "_claimAmounts",
          "type": "uint256[]"
        }
      ],
      "name": "initialize",
      "outputs": [],
      "stateMutability": "nonpayable",
      "type": "function"
    },
    {
      "inputs": [
        {
          "internalType": "address",
          "name": "account",
          "type": "address"
        }
      ],
      "name": "isAdmin",
      "outputs": [
        {
          "internalType": "bool",
          "name": "",
          "type": "bool"
        }
      ],
      "stateMutability": "view",
      "type": "function"
    },
    {
      "inputs": [
        {
          "internalType": "address",
          "name": "account",
          "type": "address"
        }
      ],
      "name": "isProxyAdmin",
      "outputs": [
        {
          "internalType": "bool",
          "name": "",
          "type": "bool"
        }
      ],
      "stateMutability": "view",
      "type": "function"
    },
    {
      "inputs": [],
      "name": "logEventAddress",
      "outputs": [
        {
          "internalType": "address",
          "name": "",
          "type": "address"
        }
      ],
      "stateMutability": "view",
      "type": "function"
    },
    {
      "inputs": [],
      "name": "name",
      "outputs": [
        {
          "internalType": "string",
          "name": "",
          "type": "string"
        }
      ],
      "stateMutability": "view",
      "type": "function"
    },
    {
      "inputs": [],
      "name": "nowClaimRound",
      "outputs": [
        {
          "internalType": "uint256",
          "name": "",
          "type": "uint256"
        }
      ],
      "stateMutability": "view",
      "type": "function"
    },
    {
      "inputs": [],
      "name": "owner",
      "outputs": [
        {
          "internalType": "address",
          "name": "",
          "type": "address"
        }
      ],
      "stateMutability": "view",
      "type": "function"
    },
    {
      "inputs": [
        {
          "internalType": "uint256",
          "name": "_totalAllocatedAmount",
          "type": "uint256"
        },
        {
          "internalType": "uint256",
          "name": "_claimCounts",
          "type": "uint256"
        },
        {
          "internalType": "uint256[]",
          "name": "_claimTimes",
          "type": "uint256[]"
        },
        {
          "internalType": "uint256[]",
          "name": "_claimAmounts",
          "type": "uint256[]"
        }
      ],
      "name": "ownerSetting",
      "outputs": [],
      "stateMutability": "nonpayable",
      "type": "function"
    },
    {
      "inputs": [],
      "name": "pauseProxy",
      "outputs": [
        {
          "internalType": "bool",
          "name": "",
          "type": "bool"
        }
      ],
      "stateMutability": "view",
      "type": "function"
    },
    {
      "inputs": [
        {
          "internalType": "uint256",
          "name": "",
          "type": "uint256"
        }
      ],
      "name": "proxyImplementation",
      "outputs": [
        {
          "internalType": "address",
          "name": "",
          "type": "address"
        }
      ],
      "stateMutability": "view",
      "type": "function"
    },
    {
      "inputs": [],
      "name": "removeAdmin",
      "outputs": [],
      "stateMutability": "nonpayable",
      "type": "function"
    },
    {
      "inputs": [],
      "name": "removeProxyAdmin",
      "outputs": [],
      "stateMutability": "nonpayable",
      "type": "function"
    },
    {
      "inputs": [
        {
          "internalType": "bytes32",
          "name": "role",
          "type": "bytes32"
        },
        {
          "internalType": "address",
          "name": "account",
          "type": "address"
        }
      ],
      "name": "renounceRole",
      "outputs": [],
      "stateMutability": "nonpayable",
      "type": "function"
    },
    {
      "inputs": [
        {
          "internalType": "bytes32",
          "name": "role",
          "type": "bytes32"
        },
        {
          "internalType": "address",
          "name": "account",
          "type": "address"
        }
      ],
      "name": "revokeRole",
      "outputs": [],
      "stateMutability": "nonpayable",
      "type": "function"
    },
    {
      "inputs": [
        {
          "internalType": "bytes4",
          "name": "",
          "type": "bytes4"
        }
      ],
      "name": "selectorImplementation",
      "outputs": [
        {
          "internalType": "address",
          "name": "",
          "type": "address"
        }
      ],
      "stateMutability": "view",
      "type": "function"
    },
    {
      "inputs": [],
      "name": "set",
      "outputs": [
        {
          "internalType": "bool",
          "name": "",
          "type": "bool"
        }
      ],
      "stateMutability": "view",
      "type": "function"
    },
    {
      "inputs": [
        {
          "internalType": "bytes4",
          "name": "interfaceId",
          "type": "bytes4"
        }
      ],
      "name": "supportsInterface",
      "outputs": [
        {
          "internalType": "bool",
          "name": "",
          "type": "bool"
        }
      ],
      "stateMutability": "view",
      "type": "function"
    },
    {
      "inputs": [],
      "name": "token",
      "outputs": [
        {
          "internalType": "address",
          "name": "",
          "type": "address"
        }
      ],
      "stateMutability": "view",
      "type": "function"
    },
    {
      "inputs": [],
      "name": "totalAllocatedAmount",
      "outputs": [
        {
          "internalType": "uint256",
          "name": "",
          "type": "uint256"
        }
      ],
      "stateMutability": "view",
      "type": "function"
    },
    {
      "inputs": [],
      "name": "totalClaimCounts",
      "outputs": [
        {
          "internalType": "uint256",
          "name": "",
          "type": "uint256"
        }
      ],
      "stateMutability": "view",
      "type": "function"
    },
    {
      "inputs": [],
      "name": "totalClaimsAmount",
      "outputs": [
        {
          "internalType": "uint256",
          "name": "",
          "type": "uint256"
        }
      ],
      "stateMutability": "view",
      "type": "function"
    },
    {
      "inputs": [
        {
          "internalType": "address",
          "name": "newAdmin",
          "type": "address"
        }
      ],
      "name": "transferAdmin",
      "outputs": [],
      "stateMutability": "nonpayable",
      "type": "function"
    },
    {
      "inputs": [
        {
          "internalType": "address",
          "name": "newAdmin",
          "type": "address"
        }
      ],
      "name": "transferProxyAdmin",
      "outputs": [],
      "stateMutability": "nonpayable",
      "type": "function"
    }
  ],
  "bytecode": "0x6080604052600060055534801561001557600080fd5b50611f5b806100256000396000f3fe608060405234801561001057600080fd5b50600436106102485760003560e01c8063704802751161013b578063a77a29fc116100b8578063d547741f1161007c578063d547741f14610503578063eab73ca114610516578063ed5131f51461052e578063f47f2f1d14610541578063fc0c546a1461055457600080fd5b8063a77a29fc146104a2578063b8e010de146104b5578063b911135f146104c9578063be72f2d3146104f2578063cfc412be146104fa57600080fd5b806391d14854116100ff57806391d14854146104595780639259eaed1461046c57806396f1557c1461047f5780639a202d4714610492578063a217fddf1461049a57600080fd5b8063704802751461040557806375829def146104185780638356ca4f1461042b5780638a19c8bc1461043e5780638da5cb5b1461044657600080fd5b806334b38cc3116101c9578063550d01a31161018d578063550d01a3146103a657806355640008146103c95780635a34f1ea146103d25780635a635faf146103e557806363a8fd89146103f857600080fd5b806334b38cc31461032857806336568abe1461034057806341c04d5e146103535780634e71d92d1461036857806350d2a2761461037057600080fd5b8063117ab87411610210578063117ab874146102cd578063248a9ca3146102d657806324d7806c146102f9578063256019d61461030c5780632f2ff15d1461031557600080fd5b806301ffc9a71461024d57806306fdde03146102755780630a59fa081461028a5780630e6c5f93146102975780630f4388c0146102ac575b600080fd5b61026061025b366004611a83565b610567565b60405190151581526020015b60405180910390f35b61027d61059e565b60405161026c9190611c1c565b600d546102609060ff1681565b6102aa6102a5366004611a06565b61062c565b005b6102bf6102ba366004611a40565b61067c565b60405190815260200161026c565b6102bf60055481565b6102bf6102e4366004611a40565b6000908152600e602052604090206001015490565b610260610307366004611a06565b61069d565b6102bf60045481565b6102aa610323366004611a58565b6106b7565b6103306106e2565b60405161026c9493929190611dcd565b6102aa61034e366004611a58565b6107a5565b6102bf600080516020611f0683398151915281565b6102aa610823565b61039961037e366004611a83565b600c602052600090815260409020546001600160a01b031681565b60405161026c9190611c08565b6102606103b4366004611a06565b600b6020526000908152604090205460ff1681565b6102bf60035481565b6102aa6103e0366004611ac3565b610a41565b6102aa6103f3366004611a06565b610c68565b6009546102609060ff1681565b6102aa610413366004611a06565b610cbe565b6102aa610426366004611a06565b610cfe565b6102aa610439366004611a06565b610db1565b6102bf610e3b565b600154610399906001600160a01b031681565b610260610467366004611a58565b610f3c565b6102bf61047a366004611a40565b610f67565b6102aa61048d366004611a06565b61103b565b6102aa61106b565b6102bf600081565b6102aa6104b0366004611ac3565b6110b9565b60015461026090600160a01b900460ff1681565b6103996104d7366004611a40565b600a602052600090815260409020546001600160a01b031681565b6102aa611320565b6102bf60065481565b6102aa610511366004611a58565b611350565b600d546103999061010090046001600160a01b031681565b6102bf61053c366004611a40565b611376565b61026061054f366004611a06565b611386565b600054610399906001600160a01b031681565b60006001600160e01b03198216637965db0b60e01b148061059857506301ffc9a760e01b6001600160e01b03198316145b92915050565b600280546105ab90611e9f565b80601f01602080910402602001604051908101604052809291908181526020018280546105d790611e9f565b80156106245780601f106105f957610100808354040283529160200191610624565b820191906000526020600020905b81548152906001019060200180831161060757829003601f168201915b505050505081565b61063533611386565b61065a5760405162461bcd60e51b815260040161065190611ced565b60405180910390fd5b600080546001600160a01b0319166001600160a01b0392909216919091179055565b6008818154811061068c57600080fd5b600091825260209091200154905081565b6000610598600080516020611f0683398151915283610f3c565b6000828152600e60205260409020600101546106d38133611392565b6106dd83836113f6565b505050565b60006060806000600454600760086005548280548060200260200160405190810160405280929190818152602001828054801561073e57602002820191906000526020600020905b81548152602001906001019080831161072a575b505050505092508180548060200260200160405190810160405280929190818152602001828054801561079057602002820191906000526020600020905b81548152602001906001019080831161077c575b50505050509150935093509350935090919293565b6001600160a01b03811633146108155760405162461bcd60e51b815260206004820152602f60248201527f416363657373436f6e74726f6c3a2063616e206f6e6c792072656e6f756e636560448201526e103937b632b9903337b91039b2b63360891b6064820152608401610651565b61081f828261147c565b5050565b600760008154811061084557634e487b7160e01b600052603260045260246000fd5b906000526020600020015442116108975760405162461bcd60e51b815260206004820152601660248201527515985d5b1d0e881b9bdd081cdd185c9d1959081e595d60521b6044820152606401610651565b600654600354116108e35760405162461bcd60e51b815260206004820152601660248201527515985d5b1d0e88185b1c9958591e48105b1b0819d95d60521b6044820152606401610651565b60006108ed610e3b565b905060006108fa82610f67565b6000546040516370a0823160e01b815291925082916001600160a01b03909116906370a082319061092f903090600401611c08565b60206040518083038186803b15801561094757600080fd5b505afa15801561095b573d6000803e3d6000fd5b505050506040513d601f19601f8201168201806040525081019061097f9190611aab565b10156109c65760405162461bcd60e51b81526020600482015260166024820152752b30bab63a1d103237b73a103430bb32903a37b5b2b760511b6044820152606401610651565b60058290556006546109d9908290611e0a565b6006556001546000546109f9916001600160a01b039182169116836114e3565b60065460405133917f987d620f307ff6b94d58743cb7a7509f24071586a77759b77c2d4e29f75a2f9a91610a3591858252602082015260400190565b60405180910390a25050565b610a4a33611386565b610a665760405162461bcd60e51b815260040161065190611ced565b85670de0b6b3a76400001115610a8e5760405162461bcd60e51b815260040161065190611d35565b6000546040516370a0823160e01b81526001600160a01b03909116906370a0823190610abe903090600401611c08565b60206040518083038186803b158015610ad657600080fd5b505afa158015610aea573d6000803e3d6000fd5b505050506040513d601f19601f82011682018060405250810190610b0e9190611aab565b861115610b2d5760405162461bcd60e51b815260040161065190611d9c565b60018054600160a01b900460ff1615151415610b5b57610b4f60076000611972565b610b5b60086000611972565b600386905560048590556000805b86821015610c3f576007868684818110610b9357634e487b7160e01b600052603260045260246000fd5b835460018101855560009485526020948590209190940292909201359190920155506008848484818110610bd757634e487b7160e01b600052603260045260246000fd5b83546001810185556000948552602094859020919094029290920135919092015550838383818110610c1957634e487b7160e01b600052603260045260246000fd5b9050602002013581610c2b9190611e0a565b905081610c3781611ed4565b925050610b69565b808814610c5e5760405162461bcd60e51b815260040161065190611c4f565b5050505050505050565b610c713361069d565b80610c805750610c8033611386565b610c9c5760405162461bcd60e51b815260040161065190611c79565b600180546001600160a01b0319166001600160a01b0392909216919091179055565b610cc733611386565b610ce35760405162461bcd60e51b815260040161065190611ced565b610cfb600080516020611f06833981519152826106b7565b50565b610d073361069d565b80610d165750610d1633611386565b610d325760405162461bcd60e51b815260040161065190611c79565b6001600160a01b038116610d585760405162461bcd60e51b815260040161065190611cbb565b336001600160a01b0382161415610d815760405162461bcd60e51b815260040161065190611d6c565b610d99600080516020611f06833981519152826106b7565b610cfb600080516020611f06833981519152336107a5565b610dba33611386565b610dd65760405162461bcd60e51b815260040161065190611ced565b6001600160a01b038116610dfc5760405162461bcd60e51b815260040161065190611cbb565b336001600160a01b0382161415610e255760405162461bcd60e51b815260040161065190611d6c565b610e306000826106b7565b610cfb6000336107a5565b6004546000905b8015610f38576007600081548110610e6a57634e487b7160e01b600052603260045260246000fd5b9060005260206000200154421015610e855760009150610f26565b6007610e92600183611e41565b81548110610eb057634e487b7160e01b600052603260045260246000fd5b906000526020600020015442108015610ec857508015155b15610edf57610ed8600182611e41565b9150610f26565b60076001600454610ef09190611e41565b81548110610f0e57634e487b7160e01b600052603260045260246000fd5b9060005260206000200154421115610f265760045491505b80610f3081611e88565b915050610e42565b5090565b6000918252600e602090815260408084206001600160a01b0393909316845291905290205460ff1690565b60008060005b83811015610fc05760088181548110610f9657634e487b7160e01b600052603260045260246000fd5b906000526020600020015482610fac9190611e0a565b915080610fb881611ed4565b915050610f6d565b50826001141561100b576006546008600081548110610fef57634e487b7160e01b600052603260045260246000fd5b90600052602060002001546110049190611e41565b9150611035565b826004541415611025576006546003546110049190611e41565b6006546110329082611e41565b91505b50919050565b61104433611386565b6110605760405162461bcd60e51b815260040161065190611ced565b610cfb600082611535565b6110743361069d565b80611083575061108333611386565b61109f5760405162461bcd60e51b815260040161065190611c79565b6110b7600080516020611f06833981519152336107a5565b565b6110c23361069d565b806110d157506110d133611386565b6110ed5760405162461bcd60e51b815260040161065190611c79565b85670de0b6b3a764000011156111155760405162461bcd60e51b815260040161065190611d35565b6000546040516370a0823160e01b81526001600160a01b03909116906370a0823190611145903090600401611c08565b60206040518083038186803b15801561115d57600080fd5b505afa158015611171573d6000803e3d6000fd5b505050506040513d601f19601f820116820180604052508101906111959190611aab565b8611156111b45760405162461bcd60e51b815260040161065190611d9c565b60018054600160a01b900460ff16151514156112005760405162461bcd60e51b815260206004820152600b60248201526a185b1c9958591e481cd95d60aa1b6044820152606401610651565b600386905560048590556000805b868210156112e457600786868481811061123857634e487b7160e01b600052603260045260246000fd5b83546001810185556000948552602094859020919094029290920135919092015550600884848481811061127c57634e487b7160e01b600052603260045260246000fd5b835460018101855560009485526020948590209190940292909201359190920155508383838181106112be57634e487b7160e01b600052603260045260246000fd5b90506020020135816112d09190611e0a565b9050816112dc81611ed4565b92505061120e565b8088146113035760405162461bcd60e51b815260040161065190611c4f565b50506001805460ff60a01b1916600160a01b179055505050505050565b61132933611386565b6113455760405162461bcd60e51b815260040161065190611ced565b6110b76000336107a5565b6000828152600e602052604090206001015461136c8133611392565b6106dd838361147c565b6007818154811061068c57600080fd5b60006105988183610f3c565b61139c8282610f3c565b61081f576113b4816001600160a01b0316601461153f565b6113bf83602061153f565b6040516020016113d0929190611b99565b60408051601f198184030181529082905262461bcd60e51b825261065191600401611c1c565b6114008282610f3c565b61081f576000828152600e602090815260408083206001600160a01b03851684529091529020805460ff191660011790556114383390565b6001600160a01b0316816001600160a01b0316837f2f8788117e7eff1d82e926ec794901d17c78024a50270940304540a733656f0d60405160405180910390a45050565b6114868282610f3c565b1561081f576000828152600e602090815260408083206001600160a01b0385168085529252808320805460ff1916905551339285917ff6391f5c32d9c69d2a47ea670b442974b53935d1edc7fd64eb21e047a839171b9190a45050565b604080516001600160a01b038416602482015260448082018490528251808303909101815260649091019091526020810180516001600160e01b031663a9059cbb60e01b1790526106dd908490611728565b61081f82826113f6565b6060600061154e836002611e22565b611559906002611e0a565b67ffffffffffffffff81111561157f57634e487b7160e01b600052604160045260246000fd5b6040519080825280601f01601f1916602001820160405280156115a9576020820181803683370190505b509050600360fc1b816000815181106115d257634e487b7160e01b600052603260045260246000fd5b60200101906001600160f81b031916908160001a905350600f60fb1b8160018151811061160f57634e487b7160e01b600052603260045260246000fd5b60200101906001600160f81b031916908160001a9053506000611633846002611e22565b61163e906001611e0a565b90505b60018111156116d2576f181899199a1a9b1b9c1cb0b131b232b360811b85600f166010811061168057634e487b7160e01b600052603260045260246000fd5b1a60f81b8282815181106116a457634e487b7160e01b600052603260045260246000fd5b60200101906001600160f81b031916908160001a90535060049490941c936116cb81611e88565b9050611641565b5083156117215760405162461bcd60e51b815260206004820181905260248201527f537472696e67733a20686578206c656e67746820696e73756666696369656e746044820152606401610651565b9392505050565b600061177d826040518060400160405280602081526020017f5361666545524332303a206c6f772d6c6576656c2063616c6c206661696c6564815250856001600160a01b03166117fa9092919063ffffffff16565b8051909150156106dd578080602001905181019061179b9190611a20565b6106dd5760405162461bcd60e51b815260206004820152602a60248201527f5361666545524332303a204552433230206f7065726174696f6e20646964206e6044820152691bdd081cdd58d8d9595960b21b6064820152608401610651565b60606118098484600085611811565b949350505050565b6060824710156118725760405162461bcd60e51b815260206004820152602660248201527f416464726573733a20696e73756666696369656e742062616c616e636520666f6044820152651c8818d85b1b60d21b6064820152608401610651565b843b6118c05760405162461bcd60e51b815260206004820152601d60248201527f416464726573733a2063616c6c20746f206e6f6e2d636f6e74726163740000006044820152606401610651565b600080866001600160a01b031685876040516118dc9190611b7d565b60006040518083038185875af1925050503d8060008114611919576040519150601f19603f3d011682016040523d82523d6000602084013e61191e565b606091505b509150915061192e828286611939565b979650505050505050565b60608315611948575081611721565b8251156119585782518084602001fd5b8160405162461bcd60e51b81526004016106519190611c1c565b5080546000825590600052602060002090810190610cfb91905b80821115610f38576000815560010161198c565b80356001600160a01b03811681146119b757600080fd5b919050565b60008083601f8401126119cd578182fd5b50813567ffffffffffffffff8111156119e4578182fd5b6020830191508360208260051b85010111156119ff57600080fd5b9250929050565b600060208284031215611a17578081fd5b611721826119a0565b600060208284031215611a31578081fd5b81518015158114611721578182fd5b600060208284031215611a51578081fd5b5035919050565b60008060408385031215611a6a578081fd5b82359150611a7a602084016119a0565b90509250929050565b600060208284031215611a94578081fd5b81356001600160e01b031981168114611721578182fd5b600060208284031215611abc578081fd5b5051919050565b60008060008060008060808789031215611adb578182fd5b8635955060208701359450604087013567ffffffffffffffff80821115611b00578384fd5b611b0c8a838b016119bc565b90965094506060890135915080821115611b24578384fd5b50611b3189828a016119bc565b979a9699509497509295939492505050565b6000815180845260208085019450808401835b83811015611b7257815187529582019590820190600101611b56565b509495945050505050565b60008251611b8f818460208701611e58565b9190910192915050565b76020b1b1b2b9b9a1b7b73a3937b61d1030b1b1b7bab73a1604d1b815260008351611bcb816017850160208801611e58565b7001034b99036b4b9b9b4b733903937b6329607d1b6017918401918201528351611bfc816028840160208801611e58565b01602801949350505050565b6001600160a01b0391909116815260200190565b6020815260008251806020840152611c3b816040850160208701611e58565b601f01601f19169190910160400192915050565b60208082526010908201526f191a5999881d1bdd185b105b5bdd5b9d60821b604082015260600190565b60208082526022908201527f41636365737369626c653a2043616c6c6572206973206e6f7420616e2061646d60408201526134b760f11b606082015260800190565b60208082526018908201527741636365737369626c653a207a65726f206164647265737360401b604082015260600190565b60208082526028908201527f41636365737369626c653a2043616c6c6572206973206e6f7420616e2070726f6040820152673c3c9030b236b4b760c11b606082015260800190565b6020808252601c908201527f6e6565642074686520746f74616c416d6f756e74203120746f6b656e00000000604082015260600190565b60208082526016908201527520b1b1b2b9b9b4b136329d1039b0b6b29030b236b4b760511b604082015260600190565b6020808252601790820152763732b2b2103a379034b7383aba103a3432903a37b5b2b760491b604082015260600190565b848152608060208201526000611de66080830186611b43565b8281036040840152611df88186611b43565b91505082606083015295945050505050565b60008219821115611e1d57611e1d611eef565b500190565b6000816000190483118215151615611e3c57611e3c611eef565b500290565b600082821015611e5357611e53611eef565b500390565b60005b83811015611e73578181015183820152602001611e5b565b83811115611e82576000848401525b50505050565b600081611e9757611e97611eef565b506000190190565b600181811c90821680611eb357607f821691505b6020821081141561103557634e487b7160e01b600052602260045260246000fd5b6000600019821415611ee857611ee8611eef565b5060010190565b634e487b7160e01b600052601160045260246000fdfe52eafc11f6f81f86878bffd31109a0d92f37506527754f00788853ff9f63b130a2646970667358221220f8c12c18ed46544e0e96fbe5f8a12f576156d1dce2424c4df1192cd78d05d98b64736f6c63430008040033",
  "linkReferences": {},
  "deployedLinkReferences": {}
}