{
  "_format": "hh-sol-artifact-1",
  "contractName": "InitialLiquidityVault",
  "sourceName": "contracts/typeFVault/InitialLiquidityVault.sol",
  "abi": [
    {
      "inputs": [],
      "stateMutability": "nonpayable",
      "type": "constructor"
    },
    {
      "anonymous": false,
      "inputs": [
        {
          "indexed": false,
          "internalType": "address",
          "name": "token",
          "type": "address"
        }
      ],
      "name": "ChangedToken",
      "type": "event"
    },
    {
      "anonymous": false,
      "inputs": [
        {
          "indexed": true,
          "internalType": "uint256",
          "name": "tokenId",
          "type": "uint256"
        },
        {
          "indexed": false,
          "internalType": "uint256",
          "name": "amount0",
          "type": "uint256"
        },
        {
          "indexed": false,
          "internalType": "uint256",
          "name": "amount1",
          "type": "uint256"
        }
      ],
      "name": "CollectInVault",
      "type": "event"
    },
    {
      "anonymous": false,
      "inputs": [
        {
          "indexed": true,
          "internalType": "uint256",
          "name": "tokenId",
          "type": "uint256"
        },
        {
          "indexed": false,
          "internalType": "uint128",
          "name": "liquidity",
          "type": "uint128"
        },
        {
          "indexed": false,
          "internalType": "uint256",
          "name": "amount0",
          "type": "uint256"
        },
        {
          "indexed": false,
          "internalType": "uint256",
          "name": "amount1",
          "type": "uint256"
        }
      ],
      "name": "IncreaseLiquidityInVault",
      "type": "event"
    },
    {
      "anonymous": false,
      "inputs": [
        {
          "indexed": false,
          "internalType": "uint256",
          "name": "_totalAllocatedAmount",
          "type": "uint256"
        }
      ],
      "name": "Initialized",
      "type": "event"
    },
    {
      "anonymous": false,
      "inputs": [
        {
          "indexed": true,
          "internalType": "address",
          "name": "caller",
          "type": "address"
        },
        {
          "indexed": false,
          "internalType": "uint256",
          "name": "tokenId",
          "type": "uint256"
        },
        {
          "indexed": false,
          "internalType": "uint128",
          "name": "liquidity",
          "type": "uint128"
        },
        {
          "indexed": false,
          "internalType": "uint256",
          "name": "amount0",
          "type": "uint256"
        },
        {
          "indexed": false,
          "internalType": "uint256",
          "name": "amount1",
          "type": "uint256"
        }
      ],
      "name": "MintedInVault",
      "type": "event"
    },
    {
      "anonymous": false,
      "inputs": [
        {
          "indexed": true,
          "internalType": "bytes32",
          "name": "role",
          "type": "bytes32"
        },
        {
          "indexed": true,
          "internalType": "bytes32",
          "name": "previousAdminRole",
          "type": "bytes32"
        },
        {
          "indexed": true,
          "internalType": "bytes32",
          "name": "newAdminRole",
          "type": "bytes32"
        }
      ],
      "name": "RoleAdminChanged",
      "type": "event"
    },
    {
      "anonymous": false,
      "inputs": [
        {
          "indexed": true,
          "internalType": "bytes32",
          "name": "role",
          "type": "bytes32"
        },
        {
          "indexed": true,
          "internalType": "address",
          "name": "account",
          "type": "address"
        },
        {
          "indexed": true,
          "internalType": "address",
          "name": "sender",
          "type": "address"
        }
      ],
      "name": "RoleGranted",
      "type": "event"
    },
    {
      "anonymous": false,
      "inputs": [
        {
          "indexed": true,
          "internalType": "bytes32",
          "name": "role",
          "type": "bytes32"
        },
        {
          "indexed": true,
          "internalType": "address",
          "name": "account",
          "type": "address"
        },
        {
          "indexed": true,
          "internalType": "address",
          "name": "sender",
          "type": "address"
        }
      ],
      "name": "RoleRevoked",
      "type": "event"
    },
    {
      "anonymous": false,
      "inputs": [
        {
          "indexed": false,
          "internalType": "string",
          "name": "name",
          "type": "string"
        },
        {
          "indexed": false,
          "internalType": "address",
          "name": "token",
          "type": "address"
        },
        {
          "indexed": false,
          "internalType": "address",
          "name": "owner",
          "type": "address"
        }
      ],
      "name": "SetBaseInfo",
      "type": "event"
    },
    {
      "anonymous": false,
      "inputs": [
        {
          "indexed": false,
          "internalType": "bool",
          "name": "boolReadyToCreatePool",
          "type": "bool"
        }
      ],
      "name": "SetBoolReadyToCreatePool",
      "type": "event"
    },
    {
      "anonymous": false,
      "inputs": [
        {
          "indexed": false,
          "internalType": "uint256",
          "name": "tosPrice",
          "type": "uint256"
        },
        {
          "indexed": false,
          "internalType": "uint256",
          "name": "tokenPrice",
          "type": "uint256"
        },
        {
          "indexed": false,
          "internalType": "uint160",
          "name": "initSqrtPrice",
          "type": "uint160"
        }
      ],
      "name": "SetInitialPrice",
      "type": "event"
    },
    {
      "anonymous": false,
      "inputs": [
        {
          "indexed": false,
          "internalType": "address",
          "name": "pool",
          "type": "address"
        },
        {
          "indexed": false,
          "internalType": "address",
          "name": "token0",
          "type": "address"
        },
        {
          "indexed": false,
          "internalType": "address",
          "name": "token1",
          "type": "address"
        }
      ],
      "name": "SetPool",
      "type": "event"
    },
    {
      "anonymous": false,
      "inputs": [
        {
          "indexed": false,
          "internalType": "uint160",
          "name": "inSqrtPriceX96",
          "type": "uint160"
        }
      ],
      "name": "SetPoolInitialized",
      "type": "event"
    },
    {
      "anonymous": false,
      "inputs": [
        {
          "indexed": false,
          "internalType": "address",
          "name": "tos",
          "type": "address"
        },
        {
          "indexed": false,
          "internalType": "uint24",
          "name": "fee",
          "type": "uint24"
        },
        {
          "indexed": false,
          "internalType": "int24",
          "name": "tickSpacings",
          "type": "int24"
        }
      ],
      "name": "SetTokens",
      "type": "event"
    },
    {
      "anonymous": false,
      "inputs": [
        {
          "indexed": false,
          "internalType": "address",
          "name": "poolfactory",
          "type": "address"
        },
        {
          "indexed": false,
          "internalType": "address",
          "name": "npm",
          "type": "address"
        }
      ],
      "name": "SetUniswapInfo",
      "type": "event"
    },
    {
      "anonymous": false,
      "inputs": [
        {
          "indexed": false,
          "internalType": "address",
          "name": "caller",
          "type": "address"
        },
        {
          "indexed": false,
          "internalType": "address",
          "name": "tokenAddress",
          "type": "address"
        },
        {
          "indexed": false,
          "internalType": "address",
          "name": "to",
          "type": "address"
        },
        {
          "indexed": false,
          "internalType": "uint256",
          "name": "amount",
          "type": "uint256"
        }
      ],
      "name": "WithdrawalInVault",
      "type": "event"
    },
    {
      "inputs": [],
      "name": "DEFAULT_ADMIN_ROLE",
      "outputs": [
        {
          "internalType": "bytes32",
          "name": "",
          "type": "bytes32"
        }
      ],
      "stateMutability": "view",
      "type": "function"
    },
    {
      "inputs": [],
      "name": "NonfungiblePositionManager",
      "outputs": [
        {
          "internalType": "contract INonfungiblePositionManager",
          "name": "",
          "type": "address"
        }
      ],
      "stateMutability": "view",
      "type": "function"
    },
    {
      "inputs": [],
      "name": "PROJECT_ADMIN_ROLE",
      "outputs": [
        {
          "internalType": "bytes32",
          "name": "",
          "type": "bytes32"
        }
      ],
      "stateMutability": "view",
      "type": "function"
    },
    {
      "inputs": [],
      "name": "TOS",
      "outputs": [
        {
          "internalType": "contract IERC20",
          "name": "",
          "type": "address"
        }
      ],
      "stateMutability": "view",
      "type": "function"
    },
    {
      "inputs": [],
      "name": "UniswapV3Factory",
      "outputs": [
        {
          "internalType": "contract IUniswapV3Factory",
          "name": "",
          "type": "address"
        }
      ],
      "stateMutability": "view",
      "type": "function"
    },
    {
      "inputs": [
        {
          "internalType": "address",
          "name": "account",
          "type": "address"
        }
      ],
      "name": "addAdmin",
      "outputs": [],
      "stateMutability": "nonpayable",
      "type": "function"
    },
    {
      "inputs": [
        {
          "internalType": "address",
          "name": "_owner",
          "type": "address"
        }
      ],
      "name": "addProxyAdmin",
      "outputs": [],
      "stateMutability": "nonpayable",
      "type": "function"
    },
    {
      "inputs": [
        {
          "internalType": "address",
          "name": "",
          "type": "address"
        }
      ],
      "name": "aliveImplementation",
      "outputs": [
        {
          "internalType": "bool",
          "name": "",
          "type": "bool"
        }
      ],
      "stateMutability": "view",
      "type": "function"
    },
    {
      "inputs": [],
      "name": "boolLogEvent",
      "outputs": [
        {
          "internalType": "bool",
          "name": "",
          "type": "bool"
        }
      ],
      "stateMutability": "view",
      "type": "function"
    },
    {
      "inputs": [],
      "name": "boolReadyToCreatePool",
      "outputs": [
        {
          "internalType": "bool",
          "name": "",
          "type": "bool"
        }
      ],
      "stateMutability": "view",
      "type": "function"
    },
    {
      "inputs": [
        {
          "internalType": "address",
          "name": "_token",
          "type": "address"
        }
      ],
      "name": "changeToken",
      "outputs": [],
      "stateMutability": "nonpayable",
      "type": "function"
    },
    {
      "inputs": [
        {
          "internalType": "uint256",
          "name": "",
          "type": "uint256"
        }
      ],
      "name": "claimAmounts",
      "outputs": [
        {
          "internalType": "uint256",
          "name": "",
          "type": "uint256"
        }
      ],
      "stateMutability": "view",
      "type": "function"
    },
    {
      "inputs": [
        {
          "internalType": "uint256",
          "name": "",
          "type": "uint256"
        }
      ],
      "name": "claimTimes",
      "outputs": [
        {
          "internalType": "uint256",
          "name": "",
          "type": "uint256"
        }
      ],
      "stateMutability": "view",
      "type": "function"
    },
    {
      "inputs": [],
      "name": "collect",
      "outputs": [],
      "stateMutability": "nonpayable",
      "type": "function"
    },
    {
      "inputs": [
        {
          "internalType": "address",
          "name": "tokenA",
          "type": "address"
        },
        {
          "internalType": "address",
          "name": "tokenB",
          "type": "address"
        },
        {
          "internalType": "uint24",
          "name": "_fee",
          "type": "uint24"
        }
      ],
      "name": "computePoolAddress",
      "outputs": [
        {
          "internalType": "address",
          "name": "pool",
          "type": "address"
        },
        {
          "internalType": "address",
          "name": "token0",
          "type": "address"
        },
        {
          "internalType": "address",
          "name": "token1",
          "type": "address"
        }
      ],
      "stateMutability": "view",
      "type": "function"
    },
    {
      "inputs": [],
      "name": "fee",
      "outputs": [
        {
          "internalType": "uint24",
          "name": "",
          "type": "uint24"
        }
      ],
      "stateMutability": "view",
      "type": "function"
    },
    {
      "inputs": [],
      "name": "getMaxTick",
      "outputs": [
        {
          "internalType": "int24",
          "name": "",
          "type": "int24"
        }
      ],
      "stateMutability": "view",
      "type": "function"
    },
    {
      "inputs": [],
      "name": "getMinTick",
      "outputs": [
        {
          "internalType": "int24",
          "name": "",
          "type": "int24"
        }
      ],
      "stateMutability": "view",
      "type": "function"
    },
    {
      "inputs": [
        {
          "internalType": "bytes32",
          "name": "role",
          "type": "bytes32"
        }
      ],
      "name": "getRoleAdmin",
      "outputs": [
        {
          "internalType": "bytes32",
          "name": "",
          "type": "bytes32"
        }
      ],
      "stateMutability": "view",
      "type": "function"
    },
    {
      "inputs": [
        {
          "internalType": "int24",
          "name": "tick",
          "type": "int24"
        }
      ],
      "name": "getSqrtRatioAtTick",
      "outputs": [
        {
          "internalType": "uint160",
          "name": "",
          "type": "uint160"
        }
      ],
      "stateMutability": "pure",
      "type": "function"
    },
    {
      "inputs": [
        {
          "internalType": "uint160",
          "name": "sqrtPriceX96",
          "type": "uint160"
        }
      ],
      "name": "getTickAtSqrtRatio",
      "outputs": [
        {
          "internalType": "int24",
          "name": "",
          "type": "int24"
        }
      ],
      "stateMutability": "pure",
      "type": "function"
    },
    {
      "inputs": [
        {
          "internalType": "bytes32",
          "name": "role",
          "type": "bytes32"
        },
        {
          "internalType": "address",
          "name": "account",
          "type": "address"
        }
      ],
      "name": "grantRole",
      "outputs": [],
      "stateMutability": "nonpayable",
      "type": "function"
    },
    {
      "inputs": [
        {
          "internalType": "bytes32",
          "name": "role",
          "type": "bytes32"
        },
        {
          "internalType": "address",
          "name": "account",
          "type": "address"
        }
      ],
      "name": "hasRole",
      "outputs": [
        {
          "internalType": "bool",
          "name": "",
          "type": "bool"
        }
      ],
      "stateMutability": "view",
      "type": "function"
    },
    {
      "inputs": [],
      "name": "initSqrtPriceX96",
      "outputs": [
        {
          "internalType": "uint160",
          "name": "",
          "type": "uint160"
        }
      ],
      "stateMutability": "view",
      "type": "function"
    },
    {
      "inputs": [],
      "name": "initialTokenPrice",
      "outputs": [
        {
          "internalType": "uint256",
          "name": "",
          "type": "uint256"
        }
      ],
      "stateMutability": "view",
      "type": "function"
    },
    {
      "inputs": [],
      "name": "initialTosPrice",
      "outputs": [
        {
          "internalType": "uint256",
          "name": "",
          "type": "uint256"
        }
      ],
      "stateMutability": "view",
      "type": "function"
    },
    {
      "inputs": [
        {
          "internalType": "uint256",
          "name": "_totalAllocatedAmount",
          "type": "uint256"
        }
      ],
      "name": "initialize",
      "outputs": [],
      "stateMutability": "nonpayable",
      "type": "function"
    },
    {
      "inputs": [
        {
          "internalType": "address",
          "name": "account",
          "type": "address"
        }
      ],
      "name": "isAdmin",
      "outputs": [
        {
          "internalType": "bool",
          "name": "",
          "type": "bool"
        }
      ],
      "stateMutability": "view",
      "type": "function"
    },
    {
      "inputs": [
        {
          "internalType": "address",
          "name": "account",
          "type": "address"
        }
      ],
      "name": "isProxyAdmin",
      "outputs": [
        {
          "internalType": "bool",
          "name": "",
          "type": "bool"
        }
      ],
      "stateMutability": "view",
      "type": "function"
    },
    {
      "inputs": [],
      "name": "logEventAddress",
      "outputs": [
        {
          "internalType": "address",
          "name": "",
          "type": "address"
        }
      ],
      "stateMutability": "view",
      "type": "function"
    },
    {
      "inputs": [],
      "name": "lpToken",
      "outputs": [
        {
          "internalType": "uint256",
          "name": "",
          "type": "uint256"
        }
      ],
      "stateMutability": "view",
      "type": "function"
    },
    {
      "inputs": [],
      "name": "mint",
      "outputs": [],
      "stateMutability": "nonpayable",
      "type": "function"
    },
    {
      "inputs": [],
      "name": "name",
      "outputs": [
        {
          "internalType": "string",
          "name": "",
          "type": "string"
        }
      ],
      "stateMutability": "view",
      "type": "function"
    },
    {
      "inputs": [],
      "name": "nowClaimRound",
      "outputs": [
        {
          "internalType": "uint256",
          "name": "",
          "type": "uint256"
        }
      ],
      "stateMutability": "view",
      "type": "function"
    },
    {
      "inputs": [],
      "name": "pauseProxy",
      "outputs": [
        {
          "internalType": "bool",
          "name": "",
          "type": "bool"
        }
      ],
      "stateMutability": "view",
      "type": "function"
    },
    {
      "inputs": [],
      "name": "pool",
      "outputs": [
        {
          "internalType": "contract IUniswapV3Pool",
          "name": "",
          "type": "address"
        }
      ],
      "stateMutability": "view",
      "type": "function"
    },
    {
      "inputs": [
        {
          "internalType": "uint256",
          "name": "",
          "type": "uint256"
        }
      ],
      "name": "proxyImplementation",
      "outputs": [
        {
          "internalType": "address",
          "name": "",
          "type": "address"
        }
      ],
      "stateMutability": "view",
      "type": "function"
    },
    {
      "inputs": [],
      "name": "removeAdmin",
      "outputs": [],
      "stateMutability": "nonpayable",
      "type": "function"
    },
    {
      "inputs": [],
      "name": "removeProxyAdmin",
      "outputs": [],
      "stateMutability": "nonpayable",
      "type": "function"
    },
    {
      "inputs": [
        {
          "internalType": "bytes32",
          "name": "role",
          "type": "bytes32"
        },
        {
          "internalType": "address",
          "name": "account",
          "type": "address"
        }
      ],
      "name": "renounceRole",
      "outputs": [],
      "stateMutability": "nonpayable",
      "type": "function"
    },
    {
      "inputs": [
        {
          "internalType": "bytes32",
          "name": "role",
          "type": "bytes32"
        },
        {
          "internalType": "address",
          "name": "account",
          "type": "address"
        }
      ],
      "name": "revokeRole",
      "outputs": [],
      "stateMutability": "nonpayable",
      "type": "function"
    },
    {
      "inputs": [
        {
          "internalType": "bytes4",
          "name": "",
          "type": "bytes4"
        }
      ],
      "name": "selectorImplementation",
      "outputs": [
        {
          "internalType": "address",
          "name": "",
          "type": "address"
        }
      ],
      "stateMutability": "view",
      "type": "function"
    },
    {
      "inputs": [
        {
          "internalType": "string",
          "name": "_name",
          "type": "string"
        },
        {
          "internalType": "address",
          "name": "_token",
          "type": "address"
        },
        {
          "internalType": "address",
          "name": "_owner",
          "type": "address"
        }
      ],
      "name": "setBaseInfo",
      "outputs": [],
      "stateMutability": "nonpayable",
      "type": "function"
    },
    {
      "inputs": [
        {
          "internalType": "bool",
          "name": "_boolReadyToCreatePool",
          "type": "bool"
        }
      ],
      "name": "setBoolReadyToCreatePool",
      "outputs": [],
      "stateMutability": "nonpayable",
      "type": "function"
    },
    {
      "inputs": [
        {
          "internalType": "uint256",
          "name": "tosPrice",
          "type": "uint256"
        },
        {
          "internalType": "uint256",
          "name": "tokenPrice",
          "type": "uint256"
        },
        {
          "internalType": "uint160",
          "name": "initSqrtPrice",
          "type": "uint160"
        }
      ],
      "name": "setInitialPrice",
      "outputs": [],
      "stateMutability": "nonpayable",
      "type": "function"
    },
    {
      "inputs": [
        {
          "internalType": "uint256",
          "name": "tosPrice",
          "type": "uint256"
        },
        {
          "internalType": "uint256",
          "name": "tokenPrice",
          "type": "uint256"
        },
        {
          "internalType": "uint160",
          "name": "initSqrtPrice",
          "type": "uint160"
        }
      ],
      "name": "setInitialPriceAndCreatePool",
      "outputs": [],
      "stateMutability": "nonpayable",
      "type": "function"
    },
    {
      "inputs": [],
      "name": "setPool",
      "outputs": [],
      "stateMutability": "nonpayable",
      "type": "function"
    },
    {
      "inputs": [
        {
          "internalType": "uint160",
          "name": "inSqrtPriceX96",
          "type": "uint160"
        }
      ],
      "name": "setPoolInitialize",
      "outputs": [],
      "stateMutability": "nonpayable",
      "type": "function"
    },
    {
      "inputs": [
        {
          "internalType": "address",
          "name": "tos",
          "type": "address"
        },
        {
          "internalType": "uint24",
          "name": "_fee",
          "type": "uint24"
        }
      ],
      "name": "setTokens",
      "outputs": [],
      "stateMutability": "nonpayable",
      "type": "function"
    },
    {
      "inputs": [
        {
          "internalType": "address",
          "name": "poolfactory",
          "type": "address"
        },
        {
          "internalType": "address",
          "name": "npm",
          "type": "address"
        }
      ],
      "name": "setUniswapInfo",
      "outputs": [],
      "stateMutability": "nonpayable",
      "type": "function"
    },
    {
      "inputs": [
        {
          "internalType": "bytes4",
          "name": "interfaceId",
          "type": "bytes4"
        }
      ],
      "name": "supportsInterface",
      "outputs": [
        {
          "internalType": "bool",
          "name": "",
          "type": "bool"
        }
      ],
      "stateMutability": "view",
      "type": "function"
    },
    {
      "inputs": [],
      "name": "tickIntervalMinimum",
      "outputs": [
        {
          "internalType": "int24",
          "name": "",
          "type": "int24"
        }
      ],
      "stateMutability": "view",
      "type": "function"
    },
    {
      "inputs": [],
      "name": "token",
      "outputs": [
        {
          "internalType": "contract IERC20",
          "name": "",
          "type": "address"
        }
      ],
      "stateMutability": "view",
      "type": "function"
    },
    {
      "inputs": [],
      "name": "token0Address",
      "outputs": [
        {
          "internalType": "address",
          "name": "",
          "type": "address"
        }
      ],
      "stateMutability": "view",
      "type": "function"
    },
    {
      "inputs": [],
      "name": "token1Address",
      "outputs": [
        {
          "internalType": "address",
          "name": "",
          "type": "address"
        }
      ],
      "stateMutability": "view",
      "type": "function"
    },
    {
      "inputs": [],
      "name": "totalAllocatedAmount",
      "outputs": [
        {
          "internalType": "uint256",
          "name": "",
          "type": "uint256"
        }
      ],
      "stateMutability": "view",
      "type": "function"
    },
    {
      "inputs": [],
      "name": "totalClaimCounts",
      "outputs": [
        {
          "internalType": "uint256",
          "name": "",
          "type": "uint256"
        }
      ],
      "stateMutability": "view",
      "type": "function"
    },
    {
      "inputs": [],
      "name": "totalClaimsAmount",
      "outputs": [
        {
          "internalType": "uint256",
          "name": "",
          "type": "uint256"
        }
      ],
      "stateMutability": "view",
      "type": "function"
    },
    {
      "inputs": [
        {
          "internalType": "address",
          "name": "newAdmin",
          "type": "address"
        }
      ],
      "name": "transferAdmin",
      "outputs": [],
      "stateMutability": "nonpayable",
      "type": "function"
    },
    {
      "inputs": [
        {
          "internalType": "address",
          "name": "newAdmin",
          "type": "address"
        }
      ],
      "name": "transferProxyAdmin",
      "outputs": [],
      "stateMutability": "nonpayable",
      "type": "function"
    }
  ],
  "bytecode": "0x6080604052600060105534801561001557600080fd5b5060016000556145738061002a6000396000f3fe608060405234801561001057600080fd5b50600436106103245760003560e01c806366829b16116101a9578063a217fddf116100ef578063e52253811161009d578063e522538114610723578063eab73ca11461072b578063eb582d1314610743578063ed5131f514610756578063f47f2f1d14610769578063f86464081461077c578063fc0c546a1461078f578063fe4b84df146107a257600080fd5b8063a217fddf14610691578063b911135f14610699578063be72f2d3146106c2578063cfc412be146106ca578063d547741f146106d3578063d7cb416f146106e6578063ddca3f43146106f957600080fd5b806381f41eb21161015757806381f41eb2146106045780638356ca4f1461061757806384963f9e1461062a5780638eee461a1461063d57806391d148541461065057806396f1557c14610663578063986cfba3146106765780639a202d471461068957600080fd5b806366829b1614610595578063671884fe146105a857806370480275146105b057806375829def146105c3578063771ff381146105d65780637ff36fbe146105de5780638158f0c0146105f157600080fd5b8063251df7a21161026e57806350d2a2761161021c57806350d2a276146104e1578063526aef941461050a57806352a1d8291461051e578063550d01a314610531578063556400081461055457806355ecf5a81461055d5780635fcbd2851461057f57806363a8fd891461058857600080fd5b8063251df7a21461046e578063256019d6146104815780632ca0228a1461048a5780632f2ff15d1461049357806336568abe146104a657806341c04d5e146104b95780634f76c058146104ce57600080fd5b80630f4388c0116102d65780630f4388c0146103d3578063117ab874146103e65780631249c58b146103ef578063166f46cf146103f757806316daa6631461040a57806316f0115b14610425578063248a9ca31461043857806324d7806c1461045b57600080fd5b806301ffc9a7146103295780630284ec8f146103515780630411b9491461036557806306fdde03146103855780630724e61c1461039a5780630a59fa08146103af5780630a6aae11146103bc575b600080fd5b61033c6103373660046139ca565b6107b5565b60405190151581526020015b60405180910390f35b600a5461033c90600160b81b900460ff1681565b600354610378906001600160a01b031681565b6040516103489190613dc2565b61038d6107ec565b6040516103489190613e3b565b6103ad6103a83660046138a7565b61087a565b005b60185461033c9060ff1681565b6103c560085481565b604051908152602001610348565b6103c56103e136600461398e565b6109ed565b6103c560105481565b6103ad610a0e565b6103ad610405366004613c1b565b610bd9565b610412610e20565b60405160029190910b8152602001610348565b600554610378906001600160a01b031681565b6103c561044636600461398e565b60009081526019602052604090206001015490565b61033c61046936600461386f565b610e50565b6103ad61047c366004613929565b610e6a565b6103c5600f5481565b6103c560095481565b6103ad6104a13660046139a6565b61101d565b6103ad6104b43660046139a6565b611048565b6103c560008051602061451e83398151915281565b6104126104dc36600461386f565b6110c6565b6103786104ef3660046139ca565b6017602052600090815260409020546001600160a01b031681565b600a5461041290600160a01b900460020b81565b6103ad61052c366004613a0e565b6110d1565b61033c61053f36600461386f565b60166020526000908152604090205460ff1681565b6103c5600e5481565b61057061056b3660046138df565b61120d565b60405161034893929190613df0565b6103c5600b5481565b60145461033c9060ff1681565b6103ad6105a336600461386f565b6112f2565b6104126113a6565b6103ad6105be36600461386f565b6113bd565b6103ad6105d136600461386f565b6113fd565b6103ad6114b0565b600654610378906001600160a01b031681565b6103ad6105ff36600461386f565b61186b565b600a54610378906001600160a01b031681565b6103ad61062536600461386f565b6119e5565b6103ad610638366004613c1b565b611a6f565b6103ad61064b366004613956565b611b34565b61033c61065e3660046139a6565b611c16565b6103ad61067136600461386f565b611c41565b6103786106843660046139f2565b611c71565b6103ad611c7c565b6103c5600081565b6103786106a736600461398e565b6015602052600090815260409020546001600160a01b031681565b6103ad611cca565b6103c560115481565b6103ad6106e13660046139a6565b611cfa565b600754610378906001600160a01b031681565b60045461070f90600160a01b900462ffffff1681565b60405162ffffff9091168152602001610348565b6103ad611d20565b6018546103789061010090046001600160a01b031681565b600454610378906001600160a01b031681565b6103c561076436600461398e565b611fb2565b61033c61077736600461386f565b611fc2565b600254610378906001600160a01b031681565b600154610378906001600160a01b031681565b6103ad6107b036600461398e565b611fce565b60006001600160e01b03198216637965db0b60e01b14806107e657506301ffc9a760e01b6001600160e01b03198316145b92915050565b600d80546107f99061440e565b80601f01602080910402602001604051908101604052809291908181526020018280546108259061440e565b80156108725780601f1061084757610100808354040283529160200191610872565b820191906000526020600020905b81548152906001019060200180831161085557829003601f168201915b505050505081565b61088333611fc2565b6108a85760405162461bcd60e51b815260040161089f90613f50565b60405180910390fd5b6001600160a01b038216158015906108ce57506003546001600160a01b03838116911614155b61091a5760405162461bcd60e51b815260206004820152601d60248201527f7a65726f206f722073616d6520556e69737761705633466163746f7279000000604482015260640161089f565b6001600160a01b0381161580159061094057506004546001600160a01b03828116911614155b61097f5760405162461bcd60e51b815260206004820152601060248201526f7a65726f206f722073616d65206e706d60801b604482015260640161089f565b600380546001600160a01b038085166001600160a01b03199283161790925560048054928416929091169190911790556040517f5fc0ec65c13a954263aac9f4f69b985fb5882ef912527cb4010c8ffd07be6172906109e19084908490613dd6565b60405180910390a15050565b601381815481106109fd57600080fd5b600091825260209091200154905081565b600a54600160b81b900460ff16610a375760405162461bcd60e51b815260040161089f90613fc8565b60026000541415610a5a5760405162461bcd60e51b815260040161089f906140a4565b60026000556005546001600160a01b031680610a885760405162461bcd60e51b815260040161089f90613e81565b6006546001600160a01b031680610ab15760405162461bcd60e51b815260040161089f90613e81565b6007546001600160a01b031680610ada5760405162461bcd60e51b815260040161089f90613e81565b60055460408051633850c7bd60e01b815290516000926001600160a01b031691633850c7bd9160048083019260e0929190829003018186803b158015610b1f57600080fd5b505afa158015610b33573d6000803e3d6000fd5b505050506040513d601f19601f82011682018060405250810190610b579190613b0f565b50505050505090506000816001600160a01b031611610bb25760405162461bcd60e51b81526020600482015260176024820152761c1bdbdb081a5cc81b9bdd081a5b9a5d1a585b1a5e9959604a1b604482015260640161089f565b600b54610bc657610bc1612156565b610bce565b610bce6124d4565b505060016000555050565b610be233610e50565b80610bf15750610bf133611fc2565b610c0d5760405162461bcd60e51b815260040161089f90613eae565b600a54600160b81b900460ff1615610c375760405162461bcd60e51b815260040161089f90614062565b610c42838383611a6f565b610c4c6001611b34565b610c546114b0565b60035460025460015460048054604051630b4c774160e11b81526000956001600160a01b0390811695631698ee8295610ca29591831694921692600160a01b90920462ffffff169101613e13565b60206040518083038186803b158015610cba57600080fd5b505afa158015610cce573d6000803e3d6000fd5b505050506040513d601f19601f82011682018060405250810190610cf2919061388b565b6005549091506001600160a01b03808316911614610d4b5760405162461bcd60e51b8152602060048201526016602482015275646966666572656e7420706f6f6c206164647265737360501b604482015260640161089f565b60055460408051633850c7bd60e01b815290516000926001600160a01b031691633850c7bd9160048083019260e0929190829003018186803b158015610d9057600080fd5b505afa158015610da4573d6000803e3d6000fd5b505050506040513d601f19601f82011682018060405250810190610dc89190613b0f565b50505050505090506000816001600160a01b031611610e195760405162461bcd60e51b815260206004820152600d60248201526c7072696365206973207a65726f60981b604482015260640161089f565b5050505050565b600c5460009060020b80610e37620d89e71961445d565b610e4191906141f8565b610e4b9190614246565b905090565b60006107e660008051602061451e83398151915283611c16565b610e7333611fc2565b610e8f5760405162461bcd60e51b815260040161089f90613f50565b600a54600160b81b900460ff1615610eb95760405162461bcd60e51b815260040161089f90614062565b6001600160a01b03821615801590610edf57506002546001600160a01b03838116911614155b610f165760405162461bcd60e51b815260206004820152600860248201526773616d6520746f7360c01b604482015260640161089f565b600280546001600160a01b0319166001600160a01b0384161790556004805462ffffff60a01b1916600160a01b62ffffff84811682029290921792839055909104166101f41415610f7557600c805462ffffff1916600a179055610fc9565b600454600160a01b900462ffffff16610bb81415610fa157600c805462ffffff1916603c179055610fc9565b600454600160a01b900462ffffff166127101415610fc957600c805462ffffff191660c81790555b600c54604080516001600160a01b038516815262ffffff84166020820152600292830b90920b908201527fa5edbc8e8d441c0b1b4f4791110f6ba4ea2e5feaee81d0c3ac25ac9011cf1e31906060016109e1565b60008281526019602052604090206001015461103981336127bd565b6110438383612821565b505050565b6001600160a01b03811633146110b85760405162461bcd60e51b815260206004820152602f60248201527f416363657373436f6e74726f6c3a2063616e206f6e6c792072656e6f756e636560448201526e103937b632b9903337b91039b2b63360891b606482015260840161089f565b6110c282826128a7565b5050565b60006107e68261290e565b6110da33610e50565b806110e957506110e933611fc2565b6111055760405162461bcd60e51b815260040161089f90613eae565b600a54600160b81b900460ff161561112f5760405162461bcd60e51b815260040161089f90614062565b600d805461113c9061440e565b1590506111795760405162461bcd60e51b815260206004820152600b60248201526a185b1c9958591e481cd95d60aa1b604482015260640161089f565b825161118c90600d90602086019061377c565b50600180546001600160a01b0319166001600160a01b0384161790556111b181610e50565b6111cd576111cd60008051602061451e83398151915282612c48565b7fb3339816308632da1d741d52460a9100d0cc3768e3bc357b03cba9fccaac38fd83838360405161120093929190613e4e565b60405180910390a1505050565b600083837fe34f199b19b2b4f47f68442619d555527d244f78a3297ea89325f843f87b8b546001600160a01b03808316908416111561124d578592508691505b6003546040516001600160a01b039091169061127190859085908990602001613e13565b60405160208183030381529060405280519060200120826040516020016112cd939291906001600160f81b0319815260609390931b6bffffffffffffffffffffffff191660018401526015830191909152603582015260550190565b6040516020818303038152906040528051906020012060001c93505093509350939050565b6112fb33610e50565b8061130a575061130a33611fc2565b6113265760405162461bcd60e51b815260040161089f90613eae565b600a54600160b81b900460ff16156113505760405162461bcd60e51b815260040161089f90614062565b600180546001600160a01b0319166001600160a01b0383161790556040517f72d0261c3befe2241e8198d47b6093163fa025dbdf8e170ff5163a03e62a6b5b9061139b908390613dc2565b60405180910390a150565b600c5460009060020b610e4181620d89e7196141f8565b6113c633611fc2565b6113e25760405162461bcd60e51b815260040161089f90613f50565b6113fa60008051602061451e8339815191528261101d565b50565b61140633610e50565b80611415575061141533611fc2565b6114315760405162461bcd60e51b815260040161089f90613eae565b6001600160a01b0381166114575760405162461bcd60e51b815260040161089f90613ef0565b336001600160a01b03821614156114805760405162461bcd60e51b815260040161089f90613f98565b61149860008051602061451e8339815191528261101d565b6113fa60008051602061451e83398151915233611048565b6003546001600160a01b0316158015906114d457506004546001600160a01b031615155b80156114ea57506002546001600160a01b031615155b6115065760405162461bcd60e51b815260040161089f90614030565b600a54600160b81b900460ff1661152f5760405162461bcd60e51b815260040161089f90613fc8565b60035460025460015460048054604051630b4c774160e11b81526000956001600160a01b0390811695631698ee829561157d9591831694921692600160a01b90920462ffffff169101613e13565b60206040518083038186803b15801561159557600080fd5b505afa1580156115a9573d6000803e3d6000fd5b505050506040513d601f19601f820116820180604052508101906115cd919061388b565b90506001600160a01b0381166116ca576003546002546001546004805460405163a167129560e01b81526000956001600160a01b039081169563a16712959561162b9591831694921692600160a01b90920462ffffff169101613e13565b602060405180830381600087803b15801561164557600080fd5b505af1158015611659573d6000803e3d6000fd5b505050506040513d601f19601f8201168201806040525081019061167d919061388b565b90506001600160a01b0381166116c75760405162461bcd60e51b815260206004820152600f60248201526e18dc99585d19541bdbdb0819985a5b608a1b604482015260640161089f565b90505b600580546001600160a01b0319166001600160a01b03831690811790915560408051630dfe168160e01b81529051630dfe168191600480820192602092909190829003018186803b15801561171e57600080fd5b505afa158015611732573d6000803e3d6000fd5b505050506040513d601f19601f82011682018060405250810190611756919061388b565b600680546001600160a01b0319166001600160a01b039283161790556005546040805163d21220a760e01b81529051919092169163d21220a7916004808301926020929190829003018186803b1580156117af57600080fd5b505afa1580156117c3573d6000803e3d6000fd5b505050506040513d601f19601f820116820180604052508101906117e7919061388b565b600780546001600160a01b0319166001600160a01b03928316179055600a54161561182157600a54611821906001600160a01b031661186b565b6005546006546007546040517f87686ebed73b2bf2a483156cdc52a73ebd37e11a1e0adb90f09e4216e0dd54159361139b936001600160a01b039182169390821692911690613df0565b6005546001600160a01b0316806118945760405162461bcd60e51b815260040161089f90613e81565b600a54600160b81b900460ff166118bd5760405162461bcd60e51b815260040161089f90613fc8565b60055460408051633850c7bd60e01b815290516000926001600160a01b031691633850c7bd9160048083019260e0929190829003018186803b15801561190257600080fd5b505afa158015611916573d6000803e3d6000fd5b505050506040513d601f19601f8201168201806040525081019061193a9190613b0f565b5050505050509050806001600160a01b0316600014156110435760055460405163f637731d60e01b81526001600160a01b039091169063f637731d90611984908690600401613dc2565b600060405180830381600087803b15801561199e57600080fd5b505af11580156119b2573d6000803e3d6000fd5b505050507fd4a3cdac99f6deac6f6631c09a884550f28be2e33585b71c2b777ebdc6bcc482836040516112009190613dc2565b6119ee33611fc2565b611a0a5760405162461bcd60e51b815260040161089f90613f50565b6001600160a01b038116611a305760405162461bcd60e51b815260040161089f90613ef0565b336001600160a01b0382161415611a595760405162461bcd60e51b815260040161089f90613f98565b611a6460008261101d565b6113fa600033611048565b611a7833610e50565b80611a875750611a8733611fc2565b611aa35760405162461bcd60e51b815260040161089f90613eae565b600a54600160b81b900460ff1615611acd5760405162461bcd60e51b815260040161089f90614062565b60088390556009829055600a80546001600160a01b0319166001600160a01b0383169081179091556040805185815260208101859052908101919091527fc6bad1b6d2fd191de5848ad7eaaf2ddc559c9b96622381e15bd4b2f1175d1cb790606001611200565b611b3d33610e50565b80611b4c5750611b4c33611fc2565b611b685760405162461bcd60e51b815260040161089f90613eae565b600a5460ff600160b81b9091041615158115151415611bc95760405162461bcd60e51b815260206004820152601a60248201527f73616d6520626f6f6c5265616479546f437265617465506f6f6c000000000000604482015260640161089f565b600a8054821515600160b81b0260ff60b81b199091161790556040517fb617cf12ee2262dc406f2998cca847640b8b72357f6032b86e6821ccd05a896b9061139b90831515815260200190565b60009182526019602090815260408084206001600160a01b0393909316845291905290205460ff1690565b611c4a33611fc2565b611c665760405162461bcd60e51b815260040161089f90613f50565b6113fa600082612c48565b60006107e682612c52565b611c8533610e50565b80611c945750611c9433611fc2565b611cb05760405162461bcd60e51b815260040161089f90613eae565b611cc860008051602061451e83398151915233611048565b565b611cd333611fc2565b611cef5760405162461bcd60e51b815260040161089f90613f50565b611cc8600033611048565b600082815260196020526040902060010154611d1681336127bd565b61104383836128a7565b6005546001600160a01b031680611d495760405162461bcd60e51b815260040161089f90613e81565b60026000541415611d6c5760405162461bcd60e51b815260040161089f906140a4565b6002600055600b54611d905760405162461bcd60e51b815260040161089f90613f22565b60048054600b5460405163133f757160e31b81529283015260009182916001600160a01b0316906399fbab88906024016101806040518083038186803b158015611dd957600080fd5b505afa158015611ded573d6000803e3d6000fd5b505050506040513d601f19601f82011682018060405250810190611e119190613c48565b9b509b50505050505050505050506000826001600160801b03161180611e4057506000816001600160801b0316115b611e8c5760405162461bcd60e51b815260206004820152601e60248201527f7468657265206973206e6f20636f6c6c65637461626c6520616d6f756e740000604482015260640161089f565b6004805460408051608081018252600b54815230602082019081526001600160801b0387811683850190815287821660608501908152945163fc6f786560e01b815293519684019690965290516001600160a01b039081166024840152945181166044830152915190911660648201526000928392169063fc6f7865906084016040805180830381600087803b158015611f2557600080fd5b505af1158015611f39573d6000803e3d6000fd5b505050506040513d601f19601f82011682018060405250810190611f5d9190613bf8565b91509150600b547f59943dc7329fdfb15044f95cef4cae4efe6e3b1b8a4e0858bf7f7f3515090f358383604051611f9e929190918252602082015260400190565b60405180910390a250506001600055505050565b601281815481106109fd57600080fd5b60006107e68183611c16565b611fd733610e50565b80611fe65750611fe633611fc2565b6120025760405162461bcd60e51b815260040161089f90613eae565b6003546001600160a01b03161580159061202657506004546001600160a01b031615155b801561203c57506002546001600160a01b031615155b6120585760405162461bcd60e51b815260040161089f90614030565b6001546040516370a0823160e01b81526001600160a01b03909116906370a0823190612088903090600401613dc2565b60206040518083038186803b1580156120a057600080fd5b505afa1580156120b4573d6000803e3d6000fd5b505050506040513d601f19601f820116820180604052508101906120d89190613ba5565b8111156121215760405162461bcd60e51b81526020600482015260176024820152763732b2b2103a379034b7383aba103a3432903a37b5b2b760491b604482015260640161089f565b600e8190556040518181527fbe9b076dc5b65990cca9dd9d7366682482e7817a6f6bc7f4faf4dc32af497f329060200161139b565b600b54156121975760405162461bcd60e51b815260206004820152600e60248201526d185b1c9958591e481b5a5b9d195960921b604482015260640161089f565b6002546040516370a0823160e01b81526000916001600160a01b0316906370a08231906121c8903090600401613dc2565b60206040518083038186803b1580156121e057600080fd5b505afa1580156121f4573d6000803e3d6000fd5b505050506040513d601f19601f820116820180604052508101906122189190613ba5565b6001546040516370a0823160e01b81529192506000916001600160a01b03909116906370a082319061224e903090600401613dc2565b60206040518083038186803b15801561226657600080fd5b505afa15801561227a573d6000803e3d6000fd5b505050506040513d601f19601f8201168201806040525081019061229e9190613ba5565b9050670de0b6b3a7640000821180156122be5750670de0b6b3a764000081115b6122da5760405162461bcd60e51b815260040161089f90613fff565b6122e48282613065565b60006122ee6113a6565b905060006122fa610e20565b600254600654919250859185916001600160a01b0391821691161461231f5750839050845b60045460408051610160810182526006546001600160a01b0390811682526007548116602083015262ffffff600160a01b85041692820192909252600287810b606083015286900b608082015260a0810185905260c08101849052600060e0820181905261010082018190523061012083015292839283928392919091169063883164569061014081016123b642620186a06141e0565b8152506040518263ffffffff1660e01b81526004016123d591906140db565b608060405180830381600087803b1580156123ef57600080fd5b505af1158015612403573d6000803e3d6000fd5b505050506040513d601f19601f820116820180604052508101906124279190613bbd565b9350935093509350600084116124715760405162461bcd60e51b815260206004820152600f60248201526e746f6b656e4964206973207a65726f60881b604482015260640161089f565b600b849055604080518581526001600160801b03851660208201529081018390526060810182905233907f7e4faa9ec81dd9000071b6dbc47dedaad9cd0745b9f0243f2b474b916f6229f39060800160405180910390a250505050505050505050565b6000600b54116124f65760405162461bcd60e51b815260040161089f90613f22565b6002546040516370a0823160e01b81526000916001600160a01b0316906370a0823190612527903090600401613dc2565b60206040518083038186803b15801561253f57600080fd5b505afa158015612553573d6000803e3d6000fd5b505050506040513d601f19601f820116820180604052508101906125779190613ba5565b6001546040516370a0823160e01b81529192506000916001600160a01b03909116906370a08231906125ad903090600401613dc2565b60206040518083038186803b1580156125c557600080fd5b505afa1580156125d9573d6000803e3d6000fd5b505050506040513d601f19601f820116820180604052508101906125fd9190613ba5565b9050670de0b6b3a764000082118061261c5750670de0b6b3a764000081115b6126385760405162461bcd60e51b815260040161089f90613fff565b6126428282613065565b600254600654839183916001600160a01b039081169116146126645750819050825b6004546040805160c081018252600b548152602081018590529081018390526000606082018190526080820181905291829182916001600160a01b03169063219f5d179060a081016126b942620186a06141e0565b9052604080516001600160e01b031960e085901b1681528251600482015260208301516024820152908201516044820152606082015160648201526080820151608482015260a09091015160a482015260c401606060405180830381600087803b15801561272657600080fd5b505af115801561273a573d6000803e3d6000fd5b505050506040513d601f19601f8201168201806040525081019061275e9190613adb565b600b54604080516001600160801b0386168152602081018590529081018390529396509194509250907fa88ed384c96385e07d5f3ba9385866f17995177886d1a5601601d8c8d69872519060600160405180910390a250505050505050565b6127c78282611c16565b6110c2576127df816001600160a01b03166014613593565b6127ea836020613593565b6040516020016127fb929190613d53565b60408051601f198184030181529082905262461bcd60e51b825261089f91600401613e3b565b61282b8282611c16565b6110c25760008281526019602090815260408083206001600160a01b03851684529091529020805460ff191660011790556128633390565b6001600160a01b0316816001600160a01b0316837f2f8788117e7eff1d82e926ec794901d17c78024a50270940304540a733656f0d60405160405180910390a45050565b6128b18282611c16565b156110c25760008281526019602090815260408083206001600160a01b0385168085529252808320805460ff1916905551339285917ff6391f5c32d9c69d2a47ea670b442974b53935d1edc7fd64eb21e047a839171b9190a45050565b60006401000276a36001600160a01b0383161080159061294a575073fffd8963efd1fc6a506488495d951d5263988d266001600160a01b038316105b61297a5760405162461bcd60e51b81526020600482015260016024820152602960f91b604482015260640161089f565b640100000000600160c01b03602083901b166001600160801b03811160071b81811c67ffffffffffffffff811160061b90811c63ffffffff811160051b90811c61ffff811160041b90811c60ff8111600390811b91821c600f811160021b90811c918211600190811b92831c97908811961790941790921717909117171760808110612a1557612a0b607f826143b0565b83901c9150612a26565b612a2081607f6143b0565b83901b91505b60006040612a35608084614371565b901b9050828302607f1c92508260801c80603f1b8217915083811c935050828302607f1c92508260801c80603e1b8217915083811c935050828302607f1c92508260801c80603d1b8217915083811c935050828302607f1c92508260801c80603c1b8217915083811c935050828302607f1c92508260801c80603b1b8217915083811c935050828302607f1c92508260801c80603a1b8217915083811c935050828302607f1c92508260801c8060391b8217915083811c935050828302607f1c92508260801c8060381b8217915083811c935050828302607f1c92508260801c8060371b8217915083811c935050828302607f1c92508260801c8060361b8217915083811c935050828302607f1c92508260801c8060351b8217915083811c935050828302607f1c92508260801c8060341b8217915083811c935050828302607f1c92508260801c8060331b8217915083811c935050828302607f1c92508260801c8060321b8217915050600081693627a301d71055774c85612bb891906142cf565b905060006080612bd86f028f6481ab7f045a5af012a19d003aaa84614371565b901d905060006080612bfa846fdb2df09e81959a81455e260799a0632f61419f565b901d90508060020b8260020b14612c3957886001600160a01b0316612c1e82612c52565b6001600160a01b03161115612c335781612c3b565b80612c3b565b815b9998505050505050505050565b6110c28282612821565b60008060008360020b12612c69578260020b612c76565b8260020b612c769061447e565b9050612c85620d89e71961445d565b60020b811115612cbb5760405162461bcd60e51b81526020600482015260016024820152601560fa1b604482015260640161089f565b600060018216612ccf57600160801b612ce1565b6ffffcb933bd6fad37aa2d162d1a5940015b6001600160881b031690506002821615612d16576080612d11826ffff97272373d413259a46990580e213a614352565b901c90505b6004821615612d40576080612d3b826ffff2e50f5f656932ef12357cf3c7fdcc614352565b901c90505b6008821615612d6a576080612d65826fffe5caca7e10e4e61c3624eaa0941cd0614352565b901c90505b6010821615612d94576080612d8f826fffcb9843d60f6159c9db58835c926644614352565b901c90505b6020821615612dbe576080612db9826fff973b41fa98c081472e6896dfb254c0614352565b901c90505b6040821615612de8576080612de3826fff2ea16466c96a3843ec78b326b52861614352565b901c90505b6080821615612e12576080612e0d826ffe5dee046a99a2a811c461f1969c3053614352565b901c90505b610100821615612e3d576080612e38826ffcbe86c7900a88aedcffc83b479aa3a4614352565b901c90505b610200821615612e68576080612e63826ff987a7253ac413176f2b074cf7815e54614352565b901c90505b610400821615612e93576080612e8e826ff3392b0822b70005940c7a398e4b70f3614352565b901c90505b610800821615612ebe576080612eb9826fe7159475a2c29b7443b29c7fa6e889d9614352565b901c90505b611000821615612ee9576080612ee4826fd097f3bdfd2022b8845ad8f792aa5825614352565b901c90505b612000821615612f14576080612f0f826fa9f746462d870fdf8a65dc1f90e061e5614352565b901c90505b614000821615612f3f576080612f3a826f70d869a156d2a1b890bb3df62baf32f7614352565b901c90505b618000821615612f6a576080612f65826f31be135f97d08fd981231505542fcfa6614352565b901c90505b62010000821615612f96576080612f91826f09aa508b5b7a84e1c677de54f3e99bc9614352565b901c90505b62020000821615612fc1576080612fbc826e5d6af8dedb81196699c329225ee604614352565b901c90505b62040000821615612feb576080612fe6826d2216e584f5fa1ea926041bedfe98614352565b901c90505b6208000082161561301357608061300e826b048a170391f7dc42444e8fa2614352565b901c90505b60008460020b131561302e5761302b81600019614232565b90505b61303d64010000000082614449565b1561304957600161304c565b60005b61305d9060ff16602083901c6141e0565b949350505050565b6002546040516370a0823160e01b815283916001600160a01b0316906370a0823190613095903090600401613dc2565b60206040518083038186803b1580156130ad57600080fd5b505afa1580156130c1573d6000803e3d6000fd5b505050506040513d601f19601f820116820180604052508101906130e59190613ba5565b101561312a5760405162461bcd60e51b81526020600482015260146024820152733a37b99034b99034b739bab33334b1b4b2b73a1760611b604482015260640161089f565b6001546040516370a0823160e01b815282916001600160a01b0316906370a082319061315a903090600401613dc2565b60206040518083038186803b15801561317257600080fd5b505afa158015613186573d6000803e3d6000fd5b505050506040513d601f19601f820116820180604052508101906131aa9190613ba5565b10156131f15760405162461bcd60e51b81526020600482015260166024820152753a37b5b2b71034b99034b739bab33334b1b4b2b73a1760511b604482015260640161089f565b60025460048054604051636eb1769f60e11b81526001600160a01b039384169363dd62ed3e9361322693309392169101613dd6565b60206040518083038186803b15801561323e57600080fd5b505afa158015613252573d6000803e3d6000fd5b505050506040513d601f19601f820116820180604052508101906132769190613ba5565b8211156133c15760025460048054604080516318160ddd60e01b815290516001600160a01b039485169463095ea7b39493169285926318160ddd9281830192602092829003018186803b1580156132cc57600080fd5b505afa1580156132e0573d6000803e3d6000fd5b505050506040513d601f19601f820116820180604052508101906133049190613ba5565b6040516001600160e01b031960e085901b1681526001600160a01b0390921660048301526024820152604401602060405180830381600087803b15801561334a57600080fd5b505af115801561335e573d6000803e3d6000fd5b505050506040513d601f19601f820116820180604052508101906133829190613972565b6133c15760405162461bcd60e51b815260206004820152601060248201526f1513d4c8185c1c1c9bdd994819985a5b60821b604482015260640161089f565b60015460048054604051636eb1769f60e11b81526001600160a01b039384169363dd62ed3e936133f693309392169101613dd6565b60206040518083038186803b15801561340e57600080fd5b505afa158015613422573d6000803e3d6000fd5b505050506040513d601f19601f820116820180604052508101906134469190613ba5565b8111156110c25760015460048054604080516318160ddd60e01b815290516001600160a01b039485169463095ea7b39493169285926318160ddd9281830192602092829003018186803b15801561349c57600080fd5b505afa1580156134b0573d6000803e3d6000fd5b505050506040513d601f19601f820116820180604052508101906134d49190613ba5565b6040516001600160e01b031960e085901b1681526001600160a01b0390921660048301526024820152604401602060405180830381600087803b15801561351a57600080fd5b505af115801561352e573d6000803e3d6000fd5b505050506040513d601f19601f820116820180604052508101906135529190613972565b6110c25760405162461bcd60e51b81526020600482015260126024820152711d1bdad95b88185c1c1c9bdd994819985a5b60721b604482015260640161089f565b606060006135a2836002614352565b6135ad9060026141e0565b67ffffffffffffffff8111156135d357634e487b7160e01b600052604160045260246000fd5b6040519080825280601f01601f1916602001820160405280156135fd576020820181803683370190505b509050600360fc1b8160008151811061362657634e487b7160e01b600052603260045260246000fd5b60200101906001600160f81b031916908160001a905350600f60fb1b8160018151811061366357634e487b7160e01b600052603260045260246000fd5b60200101906001600160f81b031916908160001a9053506000613687846002614352565b6136929060016141e0565b90505b6001811115613726576f181899199a1a9b1b9c1cb0b131b232b360811b85600f16601081106136d457634e487b7160e01b600052603260045260246000fd5b1a60f81b8282815181106136f857634e487b7160e01b600052603260045260246000fd5b60200101906001600160f81b031916908160001a90535060049490941c9361371f816143f7565b9050613695565b5083156137755760405162461bcd60e51b815260206004820181905260248201527f537472696e67733a20686578206c656e67746820696e73756666696369656e74604482015260640161089f565b9392505050565b8280546137889061440e565b90600052602060002090601f0160209004810192826137aa57600085556137f0565b82601f106137c357805160ff19168380011785556137f0565b828001600101855582156137f0579182015b828111156137f05782518255916020019190600101906137d5565b506137fc929150613800565b5090565b5b808211156137fc5760008155600101613801565b8035613820816144da565b919050565b8051613820816144da565b8051613820816144fd565b80516001600160801b038116811461382057600080fd5b805161ffff8116811461382057600080fd5b80516138208161450c565b600060208284031215613880578081fd5b8135613775816144da565b60006020828403121561389c578081fd5b8151613775816144da565b600080604083850312156138b9578081fd5b82356138c4816144da565b915060208301356138d4816144da565b809150509250929050565b6000806000606084860312156138f3578081fd5b83356138fe816144da565b9250602084013561390e816144da565b9150604084013561391e8161450c565b809150509250925092565b6000806040838503121561393b578182fd5b8235613946816144da565b915060208301356138d48161450c565b600060208284031215613967578081fd5b8135613775816144ef565b600060208284031215613983578081fd5b8151613775816144ef565b60006020828403121561399f578081fd5b5035919050565b600080604083850312156139b8578182fd5b8235915060208301356138d4816144da565b6000602082840312156139db578081fd5b81356001600160e01b031981168114613775578182fd5b600060208284031215613a03578081fd5b8135613775816144fd565b600080600060608486031215613a22578081fd5b833567ffffffffffffffff80821115613a39578283fd5b818601915086601f830112613a4c578283fd5b813581811115613a5e57613a5e6144c4565b604051601f8201601f19908116603f01168101908382118183101715613a8657613a866144c4565b81604052828152896020848701011115613a9e578586fd5b8260208601602083013785602084830101528097505050505050613ac460208501613815565b9150613ad260408501613815565b90509250925092565b600080600060608486031215613aef578081fd5b613af88461383b565b925060208401519150604084015190509250925092565b600080600080600080600060e0888a031215613b29578485fd5b8751613b34816144da565b6020890151909750613b45816144fd565b9550613b5360408901613852565b9450613b6160608901613852565b9350613b6f60808901613852565b925060a088015160ff81168114613b84578283fd5b60c0890151909250613b95816144ef565b8091505092959891949750929550565b600060208284031215613bb6578081fd5b5051919050565b60008060008060808587031215613bd2578182fd5b84519350613be26020860161383b565b6040860151606090960151949790965092505050565b60008060408385031215613c0a578182fd5b505080516020909101519092909150565b600080600060608486031215613c2f578081fd5b8335925060208401359150604084013561391e816144da565b6000806000806000806000806000806000806101808d8f031215613c6a578586fd5b8c516bffffffffffffffffffffffff81168114613c85578687fd5b9b50613c9360208e01613825565b9a50613ca160408e01613825565b9950613caf60608e01613825565b9850613cbd60808e01613864565b9750613ccb60a08e01613830565b9650613cd960c08e01613830565b9550613ce760e08e0161383b565b94506101008d015193506101208d01519250613d066101408e0161383b565b9150613d156101608e0161383b565b90509295989b509295989b509295989b565b60008151808452613d3f8160208601602086016143c7565b601f01601f19169290920160200192915050565b76020b1b1b2b9b9a1b7b73a3937b61d1030b1b1b7bab73a1604d1b815260008351613d858160178501602088016143c7565b7001034b99036b4b9b9b4b733903937b6329607d1b6017918401918201528351613db68160288401602088016143c7565b01602801949350505050565b6001600160a01b0391909116815260200190565b6001600160a01b0392831681529116602082015260400190565b6001600160a01b0393841681529183166020830152909116604082015260600190565b6001600160a01b03938416815291909216602082015262ffffff909116604082015260600190565b6020815260006137756020830184613d27565b606081526000613e616060830186613d27565b6001600160a01b0394851660208401529290931660409091015292915050565b6020808252601390820152725661756c743a207a65726f206164647265737360681b604082015260600190565b60208082526022908201527f41636365737369626c653a2043616c6c6572206973206e6f7420616e2061646d60408201526134b760f11b606082015260800190565b60208082526018908201527741636365737369626c653a207a65726f206164647265737360401b604082015260600190565b602080825260149082015273125d081a5cc81b9bdd081b5a5b9d1959081e595d60621b604082015260600190565b60208082526028908201527f41636365737369626c653a2043616c6c6572206973206e6f7420616e2070726f6040820152673c3c9030b236b4b760c11b606082015260800190565b60208082526016908201527520b1b1b2b9b9b4b136329d1039b0b6b29030b236b4b760511b604082015260600190565b6020808252601e908201527f5661756c743a206e6f7420726561647920746f20437265617465506f6f6c0000604082015260600190565b60208082526017908201527618985b185b98d9481a5cc81a5b9cdd59999a58da595b9d604a1b604082015260600190565b60208082526018908201527705661756c743a206265666f726520736574556e69737761760441b604082015260600190565b60208082526022908201527f5661756c743a20616c726561647920726561647920746f20437265617465506f6040820152611bdb60f21b606082015260800190565b6020808252601f908201527f5265656e7472616e637947756172643a207265656e7472616e742063616c6c00604082015260600190565b81516001600160a01b031681526101608101602083015161410760208401826001600160a01b03169052565b50604083015161411e604084018262ffffff169052565b506060830151614133606084018260020b9052565b506080830151614148608084018260020b9052565b5060a083015160a083015260c083015160c083015260e083015160e08301526101008084015181840152506101208084015161418e828501826001600160a01b03169052565b505061014092830151919092015290565b600080821280156001600160ff1b03849003851316156141c1576141c1614498565b600160ff1b83900384128116156141da576141da614498565b50500190565b600082198211156141f3576141f3614498565b500190565b60008160020b8360020b8061420f5761420f6144ae565b627fffff1982146000198214161561422957614229614498565b90059392505050565b600082614241576142416144ae565b500490565b60008160020b8360020b627fffff8382138484138383048511828216161561427057614270614498565b627fffff198685128281168783058712161561428e5761428e614498565b8787129250858205871284841616156142a9576142a9614498565b858505871281841616156142bf576142bf614498565b5050509290910295945050505050565b60006001600160ff1b03818413828413808216868404861116156142f5576142f5614498565b600160ff1b8487128281168783058912161561431357614313614498565b85871292508782058712848416161561432e5761432e614498565b8785058712818416161561434457614344614498565b505050929093029392505050565b600081600019048311821515161561436c5761436c614498565b500290565b60008083128015600160ff1b85018412161561438f5761438f614498565b6001600160ff1b03840183138116156143aa576143aa614498565b50500390565b6000828210156143c2576143c2614498565b500390565b60005b838110156143e25781810151838201526020016143ca565b838111156143f1576000848401525b50505050565b60008161440657614406614498565b506000190190565b600181811c9082168061442257607f821691505b6020821081141561444357634e487b7160e01b600052602260045260246000fd5b50919050565b600082614458576144586144ae565b500690565b60008160020b627fffff1981141561447757614477614498565b9003919050565b6000600160ff1b82141561449457614494614498565b0390565b634e487b7160e01b600052601160045260246000fd5b634e487b7160e01b600052601260045260246000fd5b634e487b7160e01b600052604160045260246000fd5b6001600160a01b03811681146113fa57600080fd5b80151581146113fa57600080fd5b8060020b81146113fa57600080fd5b62ffffff811681146113fa57600080fdfe52eafc11f6f81f86878bffd31109a0d92f37506527754f00788853ff9f63b130a2646970667358221220136ddf81099ac6694bb8f1444121e10a995a15ec5bc4b9af422c49483192152864736f6c63430008040033",
  "linkReferences": {},
  "deployedLinkReferences": {}
}