{
  "_format": "hh-sol-artifact-1",
  "contractName": "TypeCVaultFactory",
  "sourceName": "contracts/TypeCVaultFactory.sol",
  "abi": [
    {
      "anonymous": false,
      "inputs": [
        {
          "indexed": false,
          "internalType": "address",
          "name": "contractAddress",
          "type": "address"
        },
        {
          "indexed": false,
          "internalType": "string",
          "name": "name",
          "type": "string"
        }
      ],
      "name": "CreatedTypeCVault",
      "type": "event"
    },
    {
      "anonymous": false,
      "inputs": [
        {
          "indexed": true,
          "internalType": "bytes32",
          "name": "role",
          "type": "bytes32"
        },
        {
          "indexed": true,
          "internalType": "bytes32",
          "name": "previousAdminRole",
          "type": "bytes32"
        },
        {
          "indexed": true,
          "internalType": "bytes32",
          "name": "newAdminRole",
          "type": "bytes32"
        }
      ],
      "name": "RoleAdminChanged",
      "type": "event"
    },
    {
      "anonymous": false,
      "inputs": [
        {
          "indexed": true,
          "internalType": "bytes32",
          "name": "role",
          "type": "bytes32"
        },
        {
          "indexed": true,
          "internalType": "address",
          "name": "account",
          "type": "address"
        },
        {
          "indexed": true,
          "internalType": "address",
          "name": "sender",
          "type": "address"
        }
      ],
      "name": "RoleGranted",
      "type": "event"
    },
    {
      "anonymous": false,
      "inputs": [
        {
          "indexed": true,
          "internalType": "bytes32",
          "name": "role",
          "type": "bytes32"
        },
        {
          "indexed": true,
          "internalType": "address",
          "name": "account",
          "type": "address"
        },
        {
          "indexed": true,
          "internalType": "address",
          "name": "sender",
          "type": "address"
        }
      ],
      "name": "RoleRevoked",
      "type": "event"
    },
    {
      "inputs": [],
      "name": "ADMIN_ROLE",
      "outputs": [
        {
          "internalType": "bytes32",
          "name": "",
          "type": "bytes32"
        }
      ],
      "stateMutability": "view",
      "type": "function"
    },
    {
      "inputs": [],
      "name": "BURNER_ROLE",
      "outputs": [
        {
          "internalType": "bytes32",
          "name": "",
          "type": "bytes32"
        }
      ],
      "stateMutability": "view",
      "type": "function"
    },
    {
      "inputs": [],
      "name": "CLAIMER_ROLE",
      "outputs": [
        {
          "internalType": "bytes32",
          "name": "",
          "type": "bytes32"
        }
      ],
      "stateMutability": "view",
      "type": "function"
    },
    {
      "inputs": [],
      "name": "DEFAULT_ADMIN_ROLE",
      "outputs": [
        {
          "internalType": "bytes32",
          "name": "",
          "type": "bytes32"
        }
      ],
      "stateMutability": "view",
      "type": "function"
    },
    {
      "inputs": [],
      "name": "MINTER_ROLE",
      "outputs": [
        {
          "internalType": "bytes32",
          "name": "",
          "type": "bytes32"
        }
      ],
      "stateMutability": "view",
      "type": "function"
    },
    {
      "inputs": [
        {
          "internalType": "address",
          "name": "account",
          "type": "address"
        }
      ],
      "name": "addAdmin",
      "outputs": [],
      "stateMutability": "nonpayable",
      "type": "function"
    },
    {
      "inputs": [
        {
          "internalType": "string",
          "name": "_name",
          "type": "string"
        },
        {
          "internalType": "address",
          "name": "_token",
          "type": "address"
        },
        {
          "internalType": "address",
          "name": "_owner",
          "type": "address"
        }
      ],
      "name": "createTypeC",
      "outputs": [
        {
          "internalType": "address",
          "name": "",
          "type": "address"
        }
      ],
      "stateMutability": "nonpayable",
      "type": "function"
    },
    {
      "inputs": [
        {
          "internalType": "uint256",
          "name": "",
          "type": "uint256"
        }
      ],
      "name": "createdContracts",
      "outputs": [
        {
          "internalType": "address",
          "name": "contractAddress",
          "type": "address"
        },
        {
          "internalType": "string",
          "name": "name",
          "type": "string"
        }
      ],
      "stateMutability": "view",
      "type": "function"
    },
    {
      "inputs": [
        {
          "internalType": "uint256",
          "name": "_index",
          "type": "uint256"
        }
      ],
      "name": "getContracts",
      "outputs": [
        {
          "internalType": "address",
          "name": "contractAddress",
          "type": "address"
        },
        {
          "internalType": "string",
          "name": "name",
          "type": "string"
        }
      ],
      "stateMutability": "view",
      "type": "function"
    },
    {
      "inputs": [
        {
          "internalType": "bytes32",
          "name": "role",
          "type": "bytes32"
        }
      ],
      "name": "getRoleAdmin",
      "outputs": [
        {
          "internalType": "bytes32",
          "name": "",
          "type": "bytes32"
        }
      ],
      "stateMutability": "view",
      "type": "function"
    },
    {
      "inputs": [
        {
          "internalType": "bytes32",
          "name": "role",
          "type": "bytes32"
        },
        {
          "internalType": "address",
          "name": "account",
          "type": "address"
        }
      ],
      "name": "grantRole",
      "outputs": [],
      "stateMutability": "nonpayable",
      "type": "function"
    },
    {
      "inputs": [
        {
          "internalType": "bytes32",
          "name": "role",
          "type": "bytes32"
        },
        {
          "internalType": "address",
          "name": "account",
          "type": "address"
        }
      ],
      "name": "hasRole",
      "outputs": [
        {
          "internalType": "bool",
          "name": "",
          "type": "bool"
        }
      ],
      "stateMutability": "view",
      "type": "function"
    },
    {
      "inputs": [
        {
          "internalType": "address",
          "name": "account",
          "type": "address"
        }
      ],
      "name": "isAdmin",
      "outputs": [
        {
          "internalType": "bool",
          "name": "",
          "type": "bool"
        }
      ],
      "stateMutability": "view",
      "type": "function"
    },
    {
      "inputs": [],
      "name": "lastestCreated",
      "outputs": [
        {
          "internalType": "address",
          "name": "contractAddress",
          "type": "address"
        },
        {
          "internalType": "string",
          "name": "name",
          "type": "string"
        }
      ],
      "stateMutability": "view",
      "type": "function"
    },
    {
      "inputs": [],
      "name": "logEventAddress",
      "outputs": [
        {
          "internalType": "address",
          "name": "",
          "type": "address"
        }
      ],
      "stateMutability": "view",
      "type": "function"
    },
    {
      "inputs": [
        {
          "internalType": "address",
          "name": "account",
          "type": "address"
        }
      ],
      "name": "removeAdmin",
      "outputs": [],
      "stateMutability": "nonpayable",
      "type": "function"
    },
    {
      "inputs": [
        {
          "internalType": "bytes32",
          "name": "role",
          "type": "bytes32"
        },
        {
          "internalType": "address",
          "name": "account",
          "type": "address"
        }
      ],
      "name": "renounceRole",
      "outputs": [],
      "stateMutability": "nonpayable",
      "type": "function"
    },
    {
      "inputs": [
        {
          "internalType": "bytes32",
          "name": "role",
          "type": "bytes32"
        },
        {
          "internalType": "address",
          "name": "account",
          "type": "address"
        }
      ],
      "name": "revokeRole",
      "outputs": [],
      "stateMutability": "nonpayable",
      "type": "function"
    },
    {
      "inputs": [
        {
          "internalType": "address",
          "name": "addr",
          "type": "address"
        }
      ],
      "name": "setLogEventAddress",
      "outputs": [],
      "stateMutability": "nonpayable",
      "type": "function"
    },
    {
      "inputs": [
        {
          "internalType": "address",
          "name": "_logic",
          "type": "address"
        }
      ],
      "name": "setLogic",
      "outputs": [],
      "stateMutability": "nonpayable",
      "type": "function"
    },
    {
      "inputs": [
        {
          "internalType": "address",
          "name": "addr",
          "type": "address"
        }
      ],
      "name": "setUpgradeAdmin",
      "outputs": [],
      "stateMutability": "nonpayable",
      "type": "function"
    },
    {
      "inputs": [
        {
          "internalType": "bytes4",
          "name": "interfaceId",
          "type": "bytes4"
        }
      ],
      "name": "supportsInterface",
      "outputs": [
        {
          "internalType": "bool",
          "name": "",
          "type": "bool"
        }
      ],
      "stateMutability": "view",
      "type": "function"
    },
    {
      "inputs": [],
      "name": "totalCreatedContracts",
      "outputs": [
        {
          "internalType": "uint256",
          "name": "",
          "type": "uint256"
        }
      ],
      "stateMutability": "view",
      "type": "function"
    },
    {
      "inputs": [
        {
          "internalType": "address",
          "name": "newAdmin",
          "type": "address"
        }
      ],
      "name": "transferAdmin",
      "outputs": [],
      "stateMutability": "nonpayable",
      "type": "function"
    },
    {
      "inputs": [],
      "name": "upgradeAdmin",
      "outputs": [
        {
          "internalType": "address",
          "name": "",
          "type": "address"
        }
      ],
      "stateMutability": "view",
      "type": "function"
    },
    {
      "inputs": [
        {
          "internalType": "address",
          "name": "_contract",
          "type": "address"
        },
        {
          "internalType": "bytes4[]",
          "name": "_selectors",
          "type": "bytes4[]"
        },
        {
          "internalType": "address",
          "name": "_imp",
          "type": "address"
        }
      ],
      "name": "upgradeContractFunction",
      "outputs": [],
      "stateMutability": "nonpayable",
      "type": "function"
    },
    {
      "inputs": [
        {
          "internalType": "address",
          "name": "_contract",
          "type": "address"
        },
        {
          "internalType": "address",
          "name": "_logic",
          "type": "address"
        },
        {
          "internalType": "uint256",
          "name": "_index",
          "type": "uint256"
        },
        {
          "internalType": "bool",
          "name": "_alive",
          "type": "bool"
        }
      ],
      "name": "upgradeContractLogic",
      "outputs": [],
      "stateMutability": "nonpayable",
      "type": "function"
    },
    {
      "inputs": [],
      "name": "vaultLogic",
      "outputs": [
        {
          "internalType": "address",
          "name": "",
          "type": "address"
        }
      ],
      "stateMutability": "view",
      "type": "function"
    }
  ],
  "bytecode": "0x60806040523480156200001157600080fd5b5060006001556200003260008051602062003fda8339815191528062000065565b6200004d60008051602062003fda83398151915233620000b0565b600380546001600160a01b0319163317905562000160565b600082815260208190526040808220600101805490849055905190918391839186917fbd79b86ffe0ab8e8776151514217cd7cacd52c909f66475c3af44e129f0b00ff9190a4505050565b620000bc8282620000c0565b5050565b6000828152602081815260408083206001600160a01b038516845290915290205460ff16620000bc576000828152602081815260408083206001600160a01b03851684529091529020805460ff191660011790556200011c3390565b6001600160a01b0316816001600160a01b0316837f2f8788117e7eff1d82e926ec794901d17c78024a50270940304540a733656f0d60405160405180910390a45050565b613e6a80620001706000396000f3fe60806040523480156200001157600080fd5b5060043610620001a55760003560e01c806375829def11620000eb578063b4d402801162000092578063b4d4028014620003d4578063c4d5608a14620003eb578063d052618714620003ff578063d53913931462000409578063d547741f1462000431578063eab73ca11462000448578063fc5f18d3146200045c57600080fd5b806375829def146200034457806375b238fc146200035b5780637e2826f6146200037257806391d1485414620003895780639342f41714620003a0578063a217fddf14620003b7578063b078147a14620003c057600080fd5b8063338bad5f1162000150578063338bad5f14620002a157806336568abe14620002ab578063439e23fd14620002c257806367c5f8de14620002d95780637048027514620002f0578063718570001462000307578063743d558e146200031e57600080fd5b806301ffc9a714620001aa5780630881139714620001d65780631785f53c14620001fd578063248a9ca3146200021657806324d7806c146200024b578063282c51f314620002625780632f2ff15d146200028a575b600080fd5b620001c1620001bb366004620017b3565b62000484565b60405190151581526020015b60405180910390f35b620001ed620001e73660046200176c565b620004bc565b604051620001cd9291906200198c565b620002146200020e3660046200165c565b62000573565b005b6200023c620002273660046200176c565b60009081526020819052604090206001015490565b604051908152602001620001cd565b620001c16200025c3660046200165c565b620005c4565b6200023c7f9667e80708b6eeeb0053fa0cca44e028ff548e2a9f029edfeac87c118b08b7c881565b620002146200029b36600462001785565b620005e1565b620001ed62000610565b62000214620002bc36600462001785565b62000729565b620001ed620002d33660046200176c565b620007ab565b62000214620002ea36600462001679565b62000891565b62000214620003013660046200165c565b62000952565b62000214620003183660046200165c565b62000997565b620003356200032f366004620017d0565b62000a69565b604051620001cd919062001925565b62000214620003553660046200165c565b62000ee6565b6200023c60008051602062003e1583398151915281565b62000214620003833660046200165c565b62000fed565b620001c16200039a36600462001785565b62001095565b62000214620003b13660046200165c565b620010be565b6200023c600081565b60045462000335906001600160a01b031681565b62000214620003e5366004620016d1565b62001166565b60035462000335906001600160a01b031681565b6200023c60015481565b6200023c7ff0887ba65ee2024ea881d91b74c2450ef19e1557f03bed3ea9f16b037cbe2dc981565b620002146200044236600462001785565b620011ec565b60055462000335906001600160a01b031681565b6200023c7fe5667d34d7ea8d6fdb3aa71a0a5b85e4cf7f68356dd003cd638556b0eea2bce581565b60006001600160e01b03198216637965db0b60e01b1480620004b657506301ffc9a760e01b6001600160e01b03198316145b92915050565b600260205260009081526040902080546001820180546001600160a01b039092169291620004ea9062001bdb565b80601f0160208091040260200160405190810160405280929190818152602001828054620005189062001bdb565b8015620005695780601f106200053d5761010080835404028352916020019162000569565b820191906000526020600020905b8154815290600101906020018083116200054b57829003601f168201915b5050505050905082565b6200057e33620005c4565b620005a65760405162461bcd60e51b81526004016200059d9062001af5565b60405180910390fd5b620005c160008051602062003e158339815191528262000729565b50565b6000620004b660008051602062003e158339815191528362001095565b600082815260208190526040902060010154620005ff813362001216565b6200060b838362001285565b505050565b60006060600060015411156200071457600260006001805462000634919062001b74565b81526020810191909152604001600090812054600180546001600160a01b03909216926002929091620006679162001b74565b8152602001908152602001600020600101808054620006869062001bdb565b80601f0160208091040260200160405190810160405280929190818152602001828054620006b49062001bdb565b8015620007055780601f10620006d95761010080835404028352916020019162000705565b820191906000526020600020905b815481529060010190602001808311620006e757829003601f168201915b50505050509050915091509091565b50506040805160208101909152600080825291565b6001600160a01b03811633146200079b5760405162461bcd60e51b815260206004820152602f60248201527f416363657373436f6e74726f6c3a2063616e206f6e6c792072656e6f756e636560448201526e103937b632b9903337b91039b2b63360891b60648201526084016200059d565b620007a782826200130d565b5050565b60006060600154831015620008795760008381526002602052604090208054600190910180546001600160a01b03909216918190620007ea9062001bdb565b80601f0160208091040260200160405190810160405280929190818152602001828054620008189062001bdb565b8015620008695780601f106200083d5761010080835404028352916020019162000869565b820191906000526020600020905b8154815290600101906020018083116200084b57829003601f168201915b5050505050905091509150915091565b50506040805160208101909152600080825292909150565b6200089c33620005c4565b620008bb5760405162461bcd60e51b81526004016200059d9062001af5565b836001600160a01b038116620008e55760405162461bcd60e51b81526004016200059d9062001ac9565b604051637cd5f66360e01b81526001600160a01b03861690637cd5f66390620009179087908790879060040162001939565b600060405180830381600087803b1580156200093257600080fd5b505af115801562000947573d6000803e3d6000fd5b505050505050505050565b6200095d33620005c4565b6200097c5760405162461bcd60e51b81526004016200059d9062001af5565b620005c160008051602062003e1583398151915282620005e1565b806001600160a01b038116620009c15760405162461bcd60e51b81526004016200059d9062001ac9565b620009cc33620005c4565b620009eb5760405162461bcd60e51b81526004016200059d9062001af5565b6004546001600160a01b038381169116141562000a465760405162461bcd60e51b815260206004820152601860248201527730b63932b0b23c9039b2ba103a3434b9903b32b939b4b7b760411b60448201526064016200059d565b50600480546001600160a01b0319166001600160a01b0392909216919091179055565b60008362000aaa5760405162461bcd60e51b815260206004820152600d60248201526c6e616d6520697320656d70747960981b60448201526064016200059d565b600060405162000aba9062001572565b604051809103906000f08015801562000ad7573d6000803e3d6000fd5b5090506001600160a01b03811662000b1f5760405162461bcd60e51b815260206004820152600a6024820152697479706543207a65726f60b01b60448201526064016200059d565b6003546040516325bc555f60e21b81526001600160a01b03838116926396f1557c9262000b53929091169060040162001925565b600060405180830381600087803b15801562000b6e57600080fd5b505af115801562000b83573d6000803e3d6000fd5b5050600354604051637048027560e01b81526001600160a01b0380861694506370480275935062000bb992169060040162001925565b600060405180830381600087803b15801562000bd457600080fd5b505af115801562000be9573d6000803e3d6000fd5b505060048054604051637cd5f66360e01b81526001600160a01b038087169550637cd5f663945062000c25939216916000916001910162001939565b600060405180830381600087803b15801562000c4057600080fd5b505af115801562000c55573d6000803e3d6000fd5b505060405163927c0dd560e01b81526001600160a01b038416925063927c0dd5915062000c8d90899089908990899060040162001a59565b600060405180830381600087803b15801562000ca857600080fd5b505af115801562000cbd573d6000803e3d6000fd5b50505050806001600160a01b0316639a202d476040518163ffffffff1660e01b8152600401600060405180830381600087803b15801562000cfd57600080fd5b505af115801562000d12573d6000803e3d6000fd5b505050506040518060400160405280826001600160a01b0316815260200187878080601f0160208091040260200160405190810160405280939291908181526020018383808284376000920182905250939094525050600180548252600260209081526040909220845181546001600160a01b0319166001600160a01b0390911617815584830151805191945062000db09392850192019062001580565b5050600180549150600062000dc58362001c18565b90915550506005546040516001600160a01b039091169063beee31bf907fb5acdc76937a3b5a5501b88fb6bc10e1f706d7291e62ee3769c997ff5c744c68907f1b7d21ada19cf93d67929a951c112b12da5250f402400e6d8772105608df2af090309062000e3c9087908d908d906020016200195c565b6040516020818303038152906040526040518563ffffffff1660e01b815260040162000e6c949392919062001a20565b600060405180830381600087803b15801562000e8757600080fd5b505af115801562000e9c573d6000803e3d6000fd5b505050507f9fa45dffe898f9c11aa8a19154eb381438bf868899c9ad3d04c6fe7340620d6081878760405162000ed5939291906200195c565b60405180910390a195945050505050565b62000ef133620005c4565b62000f105760405162461bcd60e51b81526004016200059d9062001af5565b6001600160a01b03811662000f635760405162461bcd60e51b815260206004820152601860248201527741636365737369626c653a207a65726f206164647265737360401b60448201526064016200059d565b336001600160a01b038216141562000fb75760405162461bcd60e51b815260206004820152601660248201527520b1b1b2b9b9b4b136329d1039b0b6b29030b236b4b760511b60448201526064016200059d565b62000fd260008051602062003e1583398151915282620005e1565b620005c160008051602062003e158339815191523362000729565b62000ff833620005c4565b620010175760405162461bcd60e51b81526004016200059d9062001af5565b806001600160a01b038116620010415760405162461bcd60e51b81526004016200059d9062001ac9565b6005546001600160a01b0383811691161415620010725760405162461bcd60e51b81526004016200059d9062001aa5565b50600580546001600160a01b0319166001600160a01b0392909216919091179055565b6000918252602082815260408084206001600160a01b0393909316845291905290205460ff1690565b620010c933620005c4565b620010e85760405162461bcd60e51b81526004016200059d9062001af5565b806001600160a01b038116620011125760405162461bcd60e51b81526004016200059d9062001ac9565b6003546001600160a01b0383811691161415620011435760405162461bcd60e51b81526004016200059d9062001aa5565b50600380546001600160a01b0319166001600160a01b0392909216919091179055565b6200117133620005c4565b620011905760405162461bcd60e51b81526004016200059d9062001af5565b836001600160a01b038116620011ba5760405162461bcd60e51b81526004016200059d9062001ac9565b604051634a5df50f60e01b81526001600160a01b03861690634a5df50f906200091790879087908790600401620019ba565b6000828152602081905260409020600101546200120a813362001216565b6200060b83836200130d565b62001222828262001095565b620007a7576200123d816001600160a01b0316601462001375565b6200124a83602062001375565b6040516020016200125d929190620018b2565b60408051601f198184030181529082905262461bcd60e51b82526200059d9160040162001a90565b62001291828262001095565b620007a7576000828152602081815260408083206001600160a01b03851684529091529020805460ff19166001179055620012c93390565b6001600160a01b0316816001600160a01b0316837f2f8788117e7eff1d82e926ec794901d17c78024a50270940304540a733656f0d60405160405180910390a45050565b62001319828262001095565b15620007a7576000828152602081815260408083206001600160a01b0385168085529252808320805460ff1916905551339285917ff6391f5c32d9c69d2a47ea670b442974b53935d1edc7fd64eb21e047a839171b9190a45050565b606060006200138683600262001b52565b6200139390600262001b37565b67ffffffffffffffff811115620013ba57634e487b7160e01b600052604160045260246000fd5b6040519080825280601f01601f191660200182016040528015620013e5576020820181803683370190505b509050600360fc1b816000815181106200140f57634e487b7160e01b600052603260045260246000fd5b60200101906001600160f81b031916908160001a905350600f60fb1b816001815181106200144d57634e487b7160e01b600052603260045260246000fd5b60200101906001600160f81b031916908160001a90535060006200147384600262001b52565b6200148090600162001b37565b90505b60018111156200151a576f181899199a1a9b1b9c1cb0b131b232b360811b85600f1660108110620014c457634e487b7160e01b600052603260045260246000fd5b1a60f81b828281518110620014e957634e487b7160e01b600052603260045260246000fd5b60200101906001600160f81b031916908160001a90535060049490941c93620015128162001bc1565b905062001483565b5083156200156b5760405162461bcd60e51b815260206004820181905260248201527f537472696e67733a20686578206c656e67746820696e73756666696369656e7460448201526064016200059d565b9392505050565b6121c88062001c4d83390190565b8280546200158e9062001bdb565b90600052602060002090601f016020900481019282620015b25760008555620015fd565b82601f10620015cd57805160ff1916838001178555620015fd565b82800160010185558215620015fd579182015b82811115620015fd578251825591602001919060010190620015e0565b506200160b9291506200160f565b5090565b5b808211156200160b576000815560010162001610565b80356001600160a01b03811681146200163e57600080fd5b919050565b80356001600160e01b0319811681146200163e57600080fd5b6000602082840312156200166e578081fd5b6200156b8262001626565b600080600080608085870312156200168f578283fd5b6200169a8562001626565b9350620016aa6020860162001626565b92506040850135915060608501358015158114620016c6578182fd5b939692955090935050565b60008060008060608587031215620016e7578384fd5b620016f28562001626565b9350602085013567ffffffffffffffff808211156200170f578485fd5b818701915087601f83011262001723578485fd5b81358181111562001732578586fd5b8860208260051b850101111562001747578586fd5b602083019550809450505050620017616040860162001626565b905092959194509250565b6000602082840312156200177e578081fd5b5035919050565b6000806040838503121562001798578182fd5b82359150620017aa6020840162001626565b90509250929050565b600060208284031215620017c5578081fd5b6200156b8262001643565b60008060008060608587031215620017e6578384fd5b843567ffffffffffffffff80821115620017fe578586fd5b818701915087601f83011262001812578586fd5b81358181111562001821578687fd5b88602082850101111562001833578687fd5b6020928301965094506200184b918701905062001626565b9150620017616040860162001626565b600081518084526200187581602086016020860162001b8e565b601f01601f19169290920160200192915050565b81835281816020850137506000828201602090810191909152601f909101601f19169091010190565b76020b1b1b2b9b9a1b7b73a3937b61d1030b1b1b7bab73a1604d1b815260008351620018e681601785016020880162001b8e565b7001034b99036b4b9b9b4b733903937b6329607d1b60179184019182015283516200191981602884016020880162001b8e565b01602801949350505050565b6001600160a01b0391909116815260200190565b6001600160a01b0393909316835260208301919091521515604082015260600190565b6001600160a01b038416815260406020820181905260009062001983908301848662001889565b95945050505050565b6001600160a01b0383168152604060208201819052600090620019b2908301846200185b565b949350505050565b6040808252810183905260008460608301825b8681101562001a00576001600160e01b0319620019ea8462001643565b16825260209283019290910190600101620019cd565b506001600160a01b03949094166020939093019290925250909392505050565b84815283602082015260018060a01b038316604082015260806060820152600062001a4f60808301846200185b565b9695505050505050565b60608152600062001a6f60608301868862001889565b6001600160a01b039485166020840152929093166040909101529392505050565b6020815260006200156b60208301846200185b565b6020808252600a908201526973616d6520616464727360b01b604082015260600190565b6020808252601290820152715661756c74466163746f72793a207a65726f60701b604082015260600190565b60208082526022908201527f41636365737369626c653a2043616c6c6572206973206e6f7420616e2061646d60408201526134b760f11b606082015260800190565b6000821982111562001b4d5762001b4d62001c36565b500190565b600081600019048311821515161562001b6f5762001b6f62001c36565b500290565b60008282101562001b895762001b8962001c36565b500390565b60005b8381101562001bab57818101518382015260200162001b91565b8381111562001bbb576000848401525b50505050565b60008162001bd35762001bd362001c36565b506000190190565b600181811c9082168062001bf057607f821691505b6020821081141562001c1257634e487b7160e01b600052602260045260246000fd5b50919050565b600060001982141562001c2f5762001c2f62001c36565b5060010190565b634e487b7160e01b600052601160045260246000fdfe608060405260006005553480156200001657600080fd5b50620000437f52eafc11f6f81f86878bffd31109a0d92f37506527754f00788853ff9f63b1308062000082565b6200006f7f52eafc11f6f81f86878bffd31109a0d92f37506527754f00788853ff9f63b13033620000cd565b6200007c600033620000cd565b62000181565b6000828152600e6020526040808220600101805490849055905190918391839186917fbd79b86ffe0ab8e8776151514217cd7cacd52c909f66475c3af44e129f0b00ff9190a4505050565b620000d98282620000dd565b5050565b6000828152600e602090815260408083206001600160a01b038516845290915290205460ff16620000d9576000828152600e602090815260408083206001600160a01b03851684529091529020805460ff191660011790556200013d3390565b6001600160a01b0316816001600160a01b0316837f2f8788117e7eff1d82e926ec794901d17c78024a50270940304540a733656f0d60405160405180910390a45050565b61203780620001916000396000f3fe60806040526004361061026b5760003560e01c806370480275116101445780639a202d47116100b6578063cfc412be1161007a578063cfc412be146107b9578063d547741f146107cf578063eab73ca1146107ef578063ed5131f514610814578063f47f2f1d14610834578063fc0c546a14610854576102b4565b80639a202d4714610723578063a217fddf14610738578063b8e010de1461074d578063b911135f1461076e578063be72f2d3146107a4576102b4565b80638b8f4a65116101085780638b8f4a65146106635780638d4fdb40146106835780638da5cb5b146106a357806391d14854146106c3578063927c0dd5146106e357806396f1557c14610703576102b4565b806370480275146105c357806375829def146105e35780637cb00d25146106035780637cd5f663146106235780638356ca4f14610643576102b4565b806336568abe116101dd578063550d01a3116101a1578063550d01a31461050e578063556400081461053e5780635c60da1b146105545780635cc797d81461056957806363a8fd89146105895780636befec3f146105a3576102b4565b806336568abe1461043e5780633659cfe61461045e57806341c04d5e1461047e5780634a5df50f146104a057806350d2a276146104c0576102b4565b8063170e2fee1161022f578063170e2fee14610373578063248a9ca31461039357806324d7806c146103c3578063256019d6146103e35780632f2ff15d146103f957806334b38cc314610419576102b4565b806301ffc9a7146102be57806306fdde03146102f35780630a59fa08146103155780630f4388c01461032f578063117ab8741461035d576102b4565b366102b45760405162461bcd60e51b815260206004820152601460248201527331b0b73737ba103932b1b2b4bb329022ba3432b960611b60448201526064015b60405180910390fd5b6102bc610874565b005b3480156102ca57600080fd5b506102de6102d9366004611bf4565b61091d565b60405190151581526020015b60405180910390f35b3480156102ff57600080fd5b50610308610954565b6040516102ea9190611d89565b34801561032157600080fd5b50600d546102de9060ff1681565b34801561033b57600080fd5b5061034f61034a366004611bba565b6109e2565b6040519081526020016102ea565b34801561036957600080fd5b5061034f60055481565b34801561037f57600080fd5b506102bc61038e366004611abd565b610a03565b34801561039f57600080fd5b5061034f6103ae366004611bba565b6000908152600e602052604090206001015490565b3480156103cf57600080fd5b506102de6103de366004611aa3565b610adc565b3480156103ef57600080fd5b5061034f60045481565b34801561040557600080fd5b506102bc610414366004611bd2565b610af6565b34801561042557600080fd5b5061042e610b1c565b6040516102ea9493929190611ea8565b34801561044a57600080fd5b506102bc610459366004611bd2565b610bdf565b34801561046a57600080fd5b506102bc610479366004611aa3565b610c59565b34801561048a57600080fd5b5061034f600080516020611fe283398151915281565b3480156104ac57600080fd5b506102bc6104bb366004611b2a565b610d5f565b3480156104cc57600080fd5b506104f66104db366004611bf4565b600c602052600090815260409020546001600160a01b031681565b6040516001600160a01b0390911681526020016102ea565b34801561051a57600080fd5b506102de610529366004611aa3565b600b6020526000908152604090205460ff1681565b34801561054a57600080fd5b5061034f60035481565b34801561056057600080fd5b506104f6610fe7565b34801561057557600080fd5b506102bc610584366004611abd565b610ff8565b34801561059557600080fd5b506009546102de9060ff1681565b3480156105af57600080fd5b506102bc6105be366004611ba0565b611027565b3480156105cf57600080fd5b506102bc6105de366004611aa3565b6110ff565b3480156105ef57600080fd5b506102bc6105fe366004611aa3565b61113f565b34801561060f57600080fd5b506102bc61061e366004611ba0565b6111f2565b34801561062f57600080fd5b506102bc61063e366004611aef565b611239565b34801561064f57600080fd5b506102bc61065e366004611aa3565b611269565b34801561066f57600080fd5b506104f661067e366004611bba565b6112f3565b34801561068f57600080fd5b506104f661069e366004611bf4565b6112fe565b3480156106af57600080fd5b506001546104f6906001600160a01b031681565b3480156106cf57600080fd5b506102de6106de366004611bd2565b6113fa565b3480156106ef57600080fd5b506102bc6106fe366004611c1c565b611425565b34801561070f57600080fd5b506102bc61071e366004611aa3565b6114b3565b34801561072f57600080fd5b506102bc6114e3565b34801561074457600080fd5b5061034f600081565b34801561075957600080fd5b506001546102de90600160a01b900460ff1681565b34801561077a57600080fd5b506104f6610789366004611bba565b600a602052600090815260409020546001600160a01b031681565b3480156107b057600080fd5b506102bc611531565b3480156107c557600080fd5b5061034f60065481565b3480156107db57600080fd5b506102bc6107ea366004611bd2565b611561565b3480156107fb57600080fd5b50600d546104f69061010090046001600160a01b031681565b34801561082057600080fd5b5061034f61082f366004611bba565b611587565b34801561084057600080fd5b506102de61084f366004611aa3565b611597565b34801561086057600080fd5b506000546104f6906001600160a01b031681565b600061088b6000356001600160e01b0319166112fe565b90506001600160a01b038116158015906108a8575060095460ff16155b6108f45760405162461bcd60e51b815260206004820152601d60248201527f50726f78793a20696d706c204f522070726f78792069732066616c736500000060448201526064016102ab565b3660008037600080366000845af43d6000803e808015610913573d6000f35b3d6000fd5b505050565b60006001600160e01b03198216637965db0b60e01b148061094e57506301ffc9a760e01b6001600160e01b03198316145b92915050565b6002805461096190611f5f565b80601f016020809104026020016040519081016040528092919081815260200182805461098d90611f5f565b80156109da5780601f106109af576101008083540402835291602001916109da565b820191906000526020600020905b8154815290600101906020018083116109bd57829003601f168201915b505050505081565b600881815481106109f257600080fd5b600091825260209091200154905081565b610a0c33611597565b610a285760405162461bcd60e51b81526004016102ab90611e30565b600d546001600160a01b038381166101009092041614801590610a5357506001600160a01b03821615155b610a945760405162461bcd60e51b815260206004820152601260248201527173616d652076616c7565206f72207a65726f60701b60448201526064016102ab565b600d80546001600160a01b03841661010002610100600160a81b03198216811790925560ff918216911617151581151514610ad857600d805460ff19168215151790555b5050565b600061094e600080516020611fe2833981519152836113fa565b6000828152600e6020526040902060010154610b1281336115a3565b6109188383611607565b600060608060006004546007600860055482805480602002602001604051908101604052809291908181526020018280548015610b7857602002820191906000526020600020905b815481526020019060010190808311610b64575b5050505050925081805480602002602001604051908101604052809291908181526020018280548015610bca57602002820191906000526020600020905b815481526020019060010190808311610bb6575b50505050509150935093509350935090919293565b6001600160a01b0381163314610c4f5760405162461bcd60e51b815260206004820152602f60248201527f416363657373436f6e74726f6c3a2063616e206f6e6c792072656e6f756e636560448201526e103937b632b9903337b91039b2b63360891b60648201526084016102ab565b610ad8828261168d565b610c6233611597565b610c7e5760405162461bcd60e51b81526004016102ab90611e30565b6001600160a01b038116610cc45760405162461bcd60e51b815260206004820152600d60248201526c696e707574206973207a65726f60981b60448201526064016102ab565b806001600160a01b0316610cd860006116f4565b6001600160a01b03161415610d1b5760405162461bcd60e51b815260206004820152600960248201526839b0b6b29030b2323960b91b60448201526064016102ab565b610d28816000600161170f565b6040516001600160a01b038216907fbc7cd75a20ee27fd9adebab32041f755214dbc6bffa90cc0225b39da2e5c2d3b90600090a250565b610d6833611597565b610d845760405162461bcd60e51b81526004016102ab90611e30565b81610dd15760405162461bcd60e51b815260206004820181905260248201527f50726f78793a205f73656c6563746f727327732073697a65206973207a65726f60448201526064016102ab565b6001600160a01b0381166000908152600b602052604090205460ff16610e345760405162461bcd60e51b815260206004820152601860248201527750726f78793a205f696d70206973206e6f7420616c69766560401b60448201526064016102ab565b60005b82811015610fe157816001600160a01b0316600c6000868685818110610e6d57634e487b7160e01b600052603260045260246000fd5b9050602002016020810190610e829190611bf4565b6001600160e01b03191681526020810191909152604001600020546001600160a01b03161415610ef45760405162461bcd60e51b815260206004820152601d60248201527f4c69717569646974795661756c7450726f78793a2073616d6520696d7000000060448201526064016102ab565b81600c6000868685818110610f1957634e487b7160e01b600052603260045260246000fd5b9050602002016020810190610f2e9190611bf4565b6001600160e01b0319168152602081019190915260400160002080546001600160a01b0319166001600160a01b039283161790558216848483818110610f8457634e487b7160e01b600052603260045260246000fd5b9050602002016020810190610f999190611bf4565b6001600160e01b0319167f14ebc1c32aa68f4d766e89f3e546cee249f7df25183fc10ab1568d91c2ce9b7b60405160405180910390a380610fd981611f9a565b915050610e37565b50505050565b6000610ff360006116f4565b905090565b61100133611597565b61101d5760405162461bcd60e51b81526004016102ab90611e30565b610ad88282611791565b61103033611597565b61104c5760405162461bcd60e51b81526004016102ab90611e30565b600d5460ff16151581151514156110925760405162461bcd60e51b815260206004820152600a60248201526973616d652076616c756560b01b60448201526064016102ab565b80156110ec57600d5461010090046001600160a01b03166110ec5760405162461bcd60e51b81526020600482015260146024820152737a65726f206c6f674576656e744164647265737360601b60448201526064016102ab565b600d805460ff1916911515919091179055565b61110833611597565b6111245760405162461bcd60e51b81526004016102ab90611e30565b61113c600080516020611fe283398151915282610af6565b50565b61114833610adc565b80611157575061115733611597565b6111735760405162461bcd60e51b81526004016102ab90611dbc565b6001600160a01b0381166111995760405162461bcd60e51b81526004016102ab90611dfe565b336001600160a01b03821614156111c25760405162461bcd60e51b81526004016102ab90611e78565b6111da600080516020611fe283398151915282610af6565b61113c600080516020611fe283398151915233610bdf565b6111fb33610adc565b8061120a575061120a33611597565b6112265760405162461bcd60e51b81526004016102ab90611dbc565b6009805460ff1916911515919091179055565b61124233611597565b61125e5760405162461bcd60e51b81526004016102ab90611e30565b61091883838361170f565b61127233611597565b61128e5760405162461bcd60e51b81526004016102ab90611e30565b6001600160a01b0381166112b45760405162461bcd60e51b81526004016102ab90611dfe565b336001600160a01b03821614156112dd5760405162461bcd60e51b81526004016102ab90611e78565b6112e8600082610af6565b61113c600033610bdf565b600061094e826116f4565b6001600160e01b031981166000908152600c60205260408120546001600160a01b031661135e57505060008052600a6020527f13da86008ba1c6922daee3e07db95305ef49ebced9f5467a0b8613fcc6b343e3546001600160a01b031690565b6001600160e01b031982166000908152600c60209081526040808320546001600160a01b03168352600b90915290205460ff16156113bc57506001600160e01b0319166000908152600c60205260409020546001600160a01b031690565b505060008052600a6020527f13da86008ba1c6922daee3e07db95305ef49ebced9f5467a0b8613fcc6b343e3546001600160a01b031690565b919050565b6000918252600e602090815260408084206001600160a01b0393909316845291905290205460ff1690565b61142e33611597565b61144a5760405162461bcd60e51b81526004016102ab90611e30565b825161145d9060029060208601906119e3565b50600080546001600160a01b038085166001600160a01b031992831617909255600180549284169290911691909117905561149781610adc565b61091857610918600080516020611fe2833981519152826117f0565b6114bc33611597565b6114d85760405162461bcd60e51b81526004016102ab90611e30565b61113c6000826117f0565b6114ec33610adc565b806114fb57506114fb33611597565b6115175760405162461bcd60e51b81526004016102ab90611dbc565b61152f600080516020611fe283398151915233610bdf565b565b61153a33611597565b6115565760405162461bcd60e51b81526004016102ab90611e30565b61152f600033610bdf565b6000828152600e602052604090206001015461157d81336115a3565b610918838361168d565b600781815481106109f257600080fd5b600061094e81836113fa565b6115ad82826113fa565b610ad8576115c5816001600160a01b031660146117fa565b6115d08360206117fa565b6040516020016115e1929190611d1a565b60408051601f198184030181529082905262461bcd60e51b82526102ab91600401611d89565b61161182826113fa565b610ad8576000828152600e602090815260408083206001600160a01b03851684529091529020805460ff191660011790556116493390565b6001600160a01b0316816001600160a01b0316837f2f8788117e7eff1d82e926ec794901d17c78024a50270940304540a733656f0d60405160405180910390a45050565b61169782826113fa565b15610ad8576000828152600e602090815260408083206001600160a01b0385168085529252808320805460ff1916905551339285917ff6391f5c32d9c69d2a47ea670b442974b53935d1edc7fd64eb21e047a839171b9190a45050565b6000908152600a60205260409020546001600160a01b031690565b823b61175d5760405162461bcd60e51b815260206004820152601b60248201527f50726f78793a206e6f7420636f6e74726163742061646472657373000000000060448201526064016102ab565b801561178b576000828152600a6020526040902080546001600160a01b0319166001600160a01b0385161790555b61091883825b6001600160a01b0382166000818152600b6020908152604091829020805460ff191685151590811790915591519182527f72558d9bfba4210f9ef095c782589484151f6d90f7a81bb3cb9b33efc695d324910160405180910390a25050565b610ad88282611607565b60606000611809836002611efd565b611814906002611ee5565b67ffffffffffffffff81111561183a57634e487b7160e01b600052604160045260246000fd5b6040519080825280601f01601f191660200182016040528015611864576020820181803683370190505b509050600360fc1b8160008151811061188d57634e487b7160e01b600052603260045260246000fd5b60200101906001600160f81b031916908160001a905350600f60fb1b816001815181106118ca57634e487b7160e01b600052603260045260246000fd5b60200101906001600160f81b031916908160001a90535060006118ee846002611efd565b6118f9906001611ee5565b90505b600181111561198d576f181899199a1a9b1b9c1cb0b131b232b360811b85600f166010811061193b57634e487b7160e01b600052603260045260246000fd5b1a60f81b82828151811061195f57634e487b7160e01b600052603260045260246000fd5b60200101906001600160f81b031916908160001a90535060049490941c9361198681611f48565b90506118fc565b5083156119dc5760405162461bcd60e51b815260206004820181905260248201527f537472696e67733a20686578206c656e67746820696e73756666696369656e7460448201526064016102ab565b9392505050565b8280546119ef90611f5f565b90600052602060002090601f016020900481019282611a115760008555611a57565b82601f10611a2a57805160ff1916838001178555611a57565b82800160010185558215611a57579182015b82811115611a57578251825591602001919060010190611a3c565b50611a63929150611a67565b5090565b5b80821115611a635760008155600101611a68565b80356001600160a01b03811681146113f557600080fd5b803580151581146113f557600080fd5b600060208284031215611ab4578081fd5b6119dc82611a7c565b60008060408385031215611acf578081fd5b611ad883611a7c565b9150611ae660208401611a93565b90509250929050565b600080600060608486031215611b03578081fd5b611b0c84611a7c565b925060208401359150611b2160408501611a93565b90509250925092565b600080600060408486031215611b3e578283fd5b833567ffffffffffffffff80821115611b55578485fd5b818601915086601f830112611b68578485fd5b813581811115611b76578586fd5b8760208260051b8501011115611b8a578586fd5b602092830195509350611b219186019050611a7c565b600060208284031215611bb1578081fd5b6119dc82611a93565b600060208284031215611bcb578081fd5b5035919050565b60008060408385031215611be4578182fd5b82359150611ae660208401611a7c565b600060208284031215611c05578081fd5b81356001600160e01b0319811681146119dc578182fd5b600080600060608486031215611c30578283fd5b833567ffffffffffffffff80821115611c47578485fd5b818601915086601f830112611c5a578485fd5b813581811115611c6c57611c6c611fcb565b604051601f8201601f19908116603f01168101908382118183101715611c9457611c94611fcb565b81604052828152896020848701011115611cac578788fd5b8260208601602083013787602084830101528097505050505050611cd260208501611a7c565b9150611b2160408501611a7c565b6000815180845260208085019450808401835b83811015611d0f57815187529582019590820190600101611cf3565b509495945050505050565b76020b1b1b2b9b9a1b7b73a3937b61d1030b1b1b7bab73a1604d1b815260008351611d4c816017850160208801611f1c565b7001034b99036b4b9b9b4b733903937b6329607d1b6017918401918201528351611d7d816028840160208801611f1c565b01602801949350505050565b6020815260008251806020840152611da8816040850160208701611f1c565b601f01601f19169190910160400192915050565b60208082526022908201527f41636365737369626c653a2043616c6c6572206973206e6f7420616e2061646d60408201526134b760f11b606082015260800190565b60208082526018908201527741636365737369626c653a207a65726f206164647265737360401b604082015260600190565b60208082526028908201527f41636365737369626c653a2043616c6c6572206973206e6f7420616e2070726f6040820152673c3c9030b236b4b760c11b606082015260800190565b60208082526016908201527520b1b1b2b9b9b4b136329d1039b0b6b29030b236b4b760511b604082015260600190565b848152608060208201526000611ec16080830186611ce0565b8281036040840152611ed38186611ce0565b91505082606083015295945050505050565b60008219821115611ef857611ef8611fb5565b500190565b6000816000190483118215151615611f1757611f17611fb5565b500290565b60005b83811015611f37578181015183820152602001611f1f565b83811115610fe15750506000910152565b600081611f5757611f57611fb5565b506000190190565b600181811c90821680611f7357607f821691505b60208210811415611f9457634e487b7160e01b600052602260045260246000fd5b50919050565b6000600019821415611fae57611fae611fb5565b5060010190565b634e487b7160e01b600052601160045260246000fd5b634e487b7160e01b600052604160045260246000fdfe52eafc11f6f81f86878bffd31109a0d92f37506527754f00788853ff9f63b130a2646970667358221220c52e90916b8e3f734d1ffacf8a4d4639a74c249030a18efe8b764f078c13773864736f6c63430008040033df8b4c520ffe197c5343c6f5aec59570151ef9a492f2c624fd45ddde6135ec42a2646970667358221220c7083d564fe8c133f23248c5cc966c86d80411163756f4b8e8127ccf19c9cdd864736f6c63430008040033df8b4c520ffe197c5343c6f5aec59570151ef9a492f2c624fd45ddde6135ec42",
  "linkReferences": {},
  "deployedLinkReferences": {}
}