{
  "_format": "hh-sol-artifact-1",
  "contractName": "TypeCVaultFactory",
  "sourceName": "contracts/TypeCVaultFactory.sol",
  "abi": [
    {
      "anonymous": false,
      "inputs": [
        {
          "indexed": false,
          "internalType": "address",
          "name": "contractAddress",
          "type": "address"
        },
        {
          "indexed": false,
          "internalType": "string",
          "name": "name",
          "type": "string"
        }
      ],
      "name": "CreatedTypeCVault",
      "type": "event"
    },
    {
      "anonymous": false,
      "inputs": [
        {
          "indexed": true,
          "internalType": "bytes32",
          "name": "role",
          "type": "bytes32"
        },
        {
          "indexed": true,
          "internalType": "bytes32",
          "name": "previousAdminRole",
          "type": "bytes32"
        },
        {
          "indexed": true,
          "internalType": "bytes32",
          "name": "newAdminRole",
          "type": "bytes32"
        }
      ],
      "name": "RoleAdminChanged",
      "type": "event"
    },
    {
      "anonymous": false,
      "inputs": [
        {
          "indexed": true,
          "internalType": "bytes32",
          "name": "role",
          "type": "bytes32"
        },
        {
          "indexed": true,
          "internalType": "address",
          "name": "account",
          "type": "address"
        },
        {
          "indexed": true,
          "internalType": "address",
          "name": "sender",
          "type": "address"
        }
      ],
      "name": "RoleGranted",
      "type": "event"
    },
    {
      "anonymous": false,
      "inputs": [
        {
          "indexed": true,
          "internalType": "bytes32",
          "name": "role",
          "type": "bytes32"
        },
        {
          "indexed": true,
          "internalType": "address",
          "name": "account",
          "type": "address"
        },
        {
          "indexed": true,
          "internalType": "address",
          "name": "sender",
          "type": "address"
        }
      ],
      "name": "RoleRevoked",
      "type": "event"
    },
    {
      "inputs": [],
      "name": "ADMIN_ROLE",
      "outputs": [
        {
          "internalType": "bytes32",
          "name": "",
          "type": "bytes32"
        }
      ],
      "stateMutability": "view",
      "type": "function"
    },
    {
      "inputs": [],
      "name": "BURNER_ROLE",
      "outputs": [
        {
          "internalType": "bytes32",
          "name": "",
          "type": "bytes32"
        }
      ],
      "stateMutability": "view",
      "type": "function"
    },
    {
      "inputs": [],
      "name": "CLAIMER_ROLE",
      "outputs": [
        {
          "internalType": "bytes32",
          "name": "",
          "type": "bytes32"
        }
      ],
      "stateMutability": "view",
      "type": "function"
    },
    {
      "inputs": [],
      "name": "DEFAULT_ADMIN_ROLE",
      "outputs": [
        {
          "internalType": "bytes32",
          "name": "",
          "type": "bytes32"
        }
      ],
      "stateMutability": "view",
      "type": "function"
    },
    {
      "inputs": [],
      "name": "MINTER_ROLE",
      "outputs": [
        {
          "internalType": "bytes32",
          "name": "",
          "type": "bytes32"
        }
      ],
      "stateMutability": "view",
      "type": "function"
    },
    {
      "inputs": [
        {
          "internalType": "address",
          "name": "account",
          "type": "address"
        }
      ],
      "name": "addAdmin",
      "outputs": [],
      "stateMutability": "nonpayable",
      "type": "function"
    },
    {
      "inputs": [
        {
          "internalType": "string",
          "name": "_name",
          "type": "string"
        },
        {
          "internalType": "address",
          "name": "_token",
          "type": "address"
        },
        {
          "internalType": "address",
          "name": "_owner",
          "type": "address"
        }
      ],
      "name": "createTypeC",
      "outputs": [
        {
          "internalType": "address",
          "name": "",
          "type": "address"
        }
      ],
      "stateMutability": "nonpayable",
      "type": "function"
    },
    {
      "inputs": [
        {
          "internalType": "uint256",
          "name": "",
          "type": "uint256"
        }
      ],
      "name": "createdContracts",
      "outputs": [
        {
          "internalType": "address",
          "name": "contractAddress",
          "type": "address"
        },
        {
          "internalType": "string",
          "name": "name",
          "type": "string"
        }
      ],
      "stateMutability": "view",
      "type": "function"
    },
    {
      "inputs": [
        {
          "internalType": "uint256",
          "name": "_index",
          "type": "uint256"
        }
      ],
      "name": "getContracts",
      "outputs": [
        {
          "internalType": "address",
          "name": "contractAddress",
          "type": "address"
        },
        {
          "internalType": "string",
          "name": "name",
          "type": "string"
        }
      ],
      "stateMutability": "view",
      "type": "function"
    },
    {
      "inputs": [
        {
          "internalType": "bytes32",
          "name": "role",
          "type": "bytes32"
        }
      ],
      "name": "getRoleAdmin",
      "outputs": [
        {
          "internalType": "bytes32",
          "name": "",
          "type": "bytes32"
        }
      ],
      "stateMutability": "view",
      "type": "function"
    },
    {
      "inputs": [
        {
          "internalType": "bytes32",
          "name": "role",
          "type": "bytes32"
        },
        {
          "internalType": "address",
          "name": "account",
          "type": "address"
        }
      ],
      "name": "grantRole",
      "outputs": [],
      "stateMutability": "nonpayable",
      "type": "function"
    },
    {
      "inputs": [
        {
          "internalType": "bytes32",
          "name": "role",
          "type": "bytes32"
        },
        {
          "internalType": "address",
          "name": "account",
          "type": "address"
        }
      ],
      "name": "hasRole",
      "outputs": [
        {
          "internalType": "bool",
          "name": "",
          "type": "bool"
        }
      ],
      "stateMutability": "view",
      "type": "function"
    },
    {
      "inputs": [
        {
          "internalType": "address",
          "name": "account",
          "type": "address"
        }
      ],
      "name": "isAdmin",
      "outputs": [
        {
          "internalType": "bool",
          "name": "",
          "type": "bool"
        }
      ],
      "stateMutability": "view",
      "type": "function"
    },
    {
      "inputs": [],
      "name": "lastestCreated",
      "outputs": [
        {
          "internalType": "address",
          "name": "contractAddress",
          "type": "address"
        },
        {
          "internalType": "string",
          "name": "name",
          "type": "string"
        }
      ],
      "stateMutability": "view",
      "type": "function"
    },
    {
      "inputs": [],
      "name": "logEventAddress",
      "outputs": [
        {
          "internalType": "address",
          "name": "",
          "type": "address"
        }
      ],
      "stateMutability": "view",
      "type": "function"
    },
    {
      "inputs": [
        {
          "internalType": "address",
          "name": "account",
          "type": "address"
        }
      ],
      "name": "removeAdmin",
      "outputs": [],
      "stateMutability": "nonpayable",
      "type": "function"
    },
    {
      "inputs": [
        {
          "internalType": "bytes32",
          "name": "role",
          "type": "bytes32"
        },
        {
          "internalType": "address",
          "name": "account",
          "type": "address"
        }
      ],
      "name": "renounceRole",
      "outputs": [],
      "stateMutability": "nonpayable",
      "type": "function"
    },
    {
      "inputs": [
        {
          "internalType": "bytes32",
          "name": "role",
          "type": "bytes32"
        },
        {
          "internalType": "address",
          "name": "account",
          "type": "address"
        }
      ],
      "name": "revokeRole",
      "outputs": [],
      "stateMutability": "nonpayable",
      "type": "function"
    },
    {
      "inputs": [
        {
          "internalType": "address",
          "name": "addr",
          "type": "address"
        }
      ],
      "name": "setLogEventAddress",
      "outputs": [],
      "stateMutability": "nonpayable",
      "type": "function"
    },
    {
      "inputs": [
        {
          "internalType": "address",
          "name": "_logic",
          "type": "address"
        }
      ],
      "name": "setLogic",
      "outputs": [],
      "stateMutability": "nonpayable",
      "type": "function"
    },
    {
      "inputs": [
        {
          "internalType": "address",
          "name": "addr",
          "type": "address"
        }
      ],
      "name": "setUpgradeAdmin",
      "outputs": [],
      "stateMutability": "nonpayable",
      "type": "function"
    },
    {
      "inputs": [
        {
          "internalType": "bytes4",
          "name": "interfaceId",
          "type": "bytes4"
        }
      ],
      "name": "supportsInterface",
      "outputs": [
        {
          "internalType": "bool",
          "name": "",
          "type": "bool"
        }
      ],
      "stateMutability": "view",
      "type": "function"
    },
    {
      "inputs": [],
      "name": "totalCreatedContracts",
      "outputs": [
        {
          "internalType": "uint256",
          "name": "",
          "type": "uint256"
        }
      ],
      "stateMutability": "view",
      "type": "function"
    },
    {
      "inputs": [
        {
          "internalType": "address",
          "name": "newAdmin",
          "type": "address"
        }
      ],
      "name": "transferAdmin",
      "outputs": [],
      "stateMutability": "nonpayable",
      "type": "function"
    },
    {
      "inputs": [],
      "name": "upgradeAdmin",
      "outputs": [
        {
          "internalType": "address",
          "name": "",
          "type": "address"
        }
      ],
      "stateMutability": "view",
      "type": "function"
    },
    {
      "inputs": [
        {
          "internalType": "address",
          "name": "_contract",
          "type": "address"
        },
        {
          "internalType": "bytes4[]",
          "name": "_selectors",
          "type": "bytes4[]"
        },
        {
          "internalType": "address",
          "name": "_imp",
          "type": "address"
        }
      ],
      "name": "upgradeContractFunction",
      "outputs": [],
      "stateMutability": "nonpayable",
      "type": "function"
    },
    {
      "inputs": [
        {
          "internalType": "address",
          "name": "_contract",
          "type": "address"
        },
        {
          "internalType": "address",
          "name": "_logic",
          "type": "address"
        },
        {
          "internalType": "uint256",
          "name": "_index",
          "type": "uint256"
        },
        {
          "internalType": "bool",
          "name": "_alive",
          "type": "bool"
        }
      ],
      "name": "upgradeContractLogic",
      "outputs": [],
      "stateMutability": "nonpayable",
      "type": "function"
    },
    {
      "inputs": [],
      "name": "vaultLogic",
      "outputs": [
        {
          "internalType": "address",
          "name": "",
          "type": "address"
        }
      ],
      "stateMutability": "view",
      "type": "function"
    }
  ],
  "bytecode": "0x60806040523480156200001157600080fd5b5060006001556200003260008051602062003aa18339815191528062000065565b6200004d60008051602062003aa183398151915233620000b0565b600380546001600160a01b0319163317905562000160565b600082815260208190526040808220600101805490849055905190918391839186917fbd79b86ffe0ab8e8776151514217cd7cacd52c909f66475c3af44e129f0b00ff9190a4505050565b620000bc8282620000c0565b5050565b6000828152602081815260408083206001600160a01b038516845290915290205460ff16620000bc576000828152602081815260408083206001600160a01b03851684529091529020805460ff191660011790556200011c3390565b6001600160a01b0316816001600160a01b0316837f2f8788117e7eff1d82e926ec794901d17c78024a50270940304540a733656f0d60405160405180910390a45050565b61393180620001706000396000f3fe60806040523480156200001157600080fd5b5060043610620001a55760003560e01c806375829def11620000eb578063b4d402801162000092578063b4d4028014620003d4578063c4d5608a14620003eb578063d052618714620003ff578063d53913931462000409578063d547741f1462000431578063eab73ca11462000448578063fc5f18d3146200045c57600080fd5b806375829def146200034457806375b238fc146200035b5780637e2826f6146200037257806391d1485414620003895780639342f41714620003a0578063a217fddf14620003b7578063b078147a14620003c057600080fd5b8063338bad5f1162000150578063338bad5f14620002a157806336568abe14620002ab578063439e23fd14620002c257806367c5f8de14620002d95780637048027514620002f0578063718570001462000307578063743d558e146200031e57600080fd5b806301ffc9a714620001aa5780630881139714620001d65780631785f53c14620001fd578063248a9ca3146200021657806324d7806c146200024b578063282c51f314620002625780632f2ff15d146200028a575b600080fd5b620001c1620001bb366004620017b3565b62000484565b60405190151581526020015b60405180910390f35b620001ed620001e73660046200176c565b620004bc565b604051620001cd9291906200198c565b620002146200020e3660046200165c565b62000573565b005b6200023c620002273660046200176c565b60009081526020819052604090206001015490565b604051908152602001620001cd565b620001c16200025c3660046200165c565b620005c4565b6200023c7f9667e80708b6eeeb0053fa0cca44e028ff548e2a9f029edfeac87c118b08b7c881565b620002146200029b36600462001785565b620005e1565b620001ed62000610565b62000214620002bc36600462001785565b62000729565b620001ed620002d33660046200176c565b620007ab565b62000214620002ea36600462001679565b62000891565b62000214620003013660046200165c565b62000952565b62000214620003183660046200165c565b62000997565b620003356200032f366004620017d0565b62000a69565b604051620001cd919062001925565b62000214620003553660046200165c565b62000ee6565b6200023c600080516020620038dc83398151915281565b62000214620003833660046200165c565b62000fed565b620001c16200039a36600462001785565b62001095565b62000214620003b13660046200165c565b620010be565b6200023c600081565b60045462000335906001600160a01b031681565b62000214620003e5366004620016d1565b62001166565b60035462000335906001600160a01b031681565b6200023c60015481565b6200023c7ff0887ba65ee2024ea881d91b74c2450ef19e1557f03bed3ea9f16b037cbe2dc981565b620002146200044236600462001785565b620011ec565b60055462000335906001600160a01b031681565b6200023c7fe5667d34d7ea8d6fdb3aa71a0a5b85e4cf7f68356dd003cd638556b0eea2bce581565b60006001600160e01b03198216637965db0b60e01b1480620004b657506301ffc9a760e01b6001600160e01b03198316145b92915050565b600260205260009081526040902080546001820180546001600160a01b039092169291620004ea9062001bdb565b80601f0160208091040260200160405190810160405280929190818152602001828054620005189062001bdb565b8015620005695780601f106200053d5761010080835404028352916020019162000569565b820191906000526020600020905b8154815290600101906020018083116200054b57829003601f168201915b5050505050905082565b6200057e33620005c4565b620005a65760405162461bcd60e51b81526004016200059d9062001af5565b60405180910390fd5b620005c1600080516020620038dc8339815191528262000729565b50565b6000620004b6600080516020620038dc8339815191528362001095565b600082815260208190526040902060010154620005ff813362001216565b6200060b838362001285565b505050565b60006060600060015411156200071457600260006001805462000634919062001b74565b81526020810191909152604001600090812054600180546001600160a01b03909216926002929091620006679162001b74565b8152602001908152602001600020600101808054620006869062001bdb565b80601f0160208091040260200160405190810160405280929190818152602001828054620006b49062001bdb565b8015620007055780601f10620006d95761010080835404028352916020019162000705565b820191906000526020600020905b815481529060010190602001808311620006e757829003601f168201915b50505050509050915091509091565b50506040805160208101909152600080825291565b6001600160a01b03811633146200079b5760405162461bcd60e51b815260206004820152602f60248201527f416363657373436f6e74726f6c3a2063616e206f6e6c792072656e6f756e636560448201526e103937b632b9903337b91039b2b63360891b60648201526084016200059d565b620007a782826200130d565b5050565b60006060600154831015620008795760008381526002602052604090208054600190910180546001600160a01b03909216918190620007ea9062001bdb565b80601f0160208091040260200160405190810160405280929190818152602001828054620008189062001bdb565b8015620008695780601f106200083d5761010080835404028352916020019162000869565b820191906000526020600020905b8154815290600101906020018083116200084b57829003601f168201915b5050505050905091509150915091565b50506040805160208101909152600080825292909150565b6200089c33620005c4565b620008bb5760405162461bcd60e51b81526004016200059d9062001af5565b836001600160a01b038116620008e55760405162461bcd60e51b81526004016200059d9062001ac9565b604051637cd5f66360e01b81526001600160a01b03861690637cd5f66390620009179087908790879060040162001939565b600060405180830381600087803b1580156200093257600080fd5b505af115801562000947573d6000803e3d6000fd5b505050505050505050565b6200095d33620005c4565b6200097c5760405162461bcd60e51b81526004016200059d9062001af5565b620005c1600080516020620038dc83398151915282620005e1565b806001600160a01b038116620009c15760405162461bcd60e51b81526004016200059d9062001ac9565b620009cc33620005c4565b620009eb5760405162461bcd60e51b81526004016200059d9062001af5565b6004546001600160a01b038381169116141562000a465760405162461bcd60e51b815260206004820152601860248201527730b63932b0b23c9039b2ba103a3434b9903b32b939b4b7b760411b60448201526064016200059d565b50600480546001600160a01b0319166001600160a01b0392909216919091179055565b60008362000aaa5760405162461bcd60e51b815260206004820152600d60248201526c6e616d6520697320656d70747960981b60448201526064016200059d565b600060405162000aba9062001572565b604051809103906000f08015801562000ad7573d6000803e3d6000fd5b5090506001600160a01b03811662000b1f5760405162461bcd60e51b815260206004820152600a6024820152697479706543207a65726f60b01b60448201526064016200059d565b6003546040516325bc555f60e21b81526001600160a01b03838116926396f1557c9262000b53929091169060040162001925565b600060405180830381600087803b15801562000b6e57600080fd5b505af115801562000b83573d6000803e3d6000fd5b5050600354604051637048027560e01b81526001600160a01b0380861694506370480275935062000bb992169060040162001925565b600060405180830381600087803b15801562000bd457600080fd5b505af115801562000be9573d6000803e3d6000fd5b505060048054604051637cd5f66360e01b81526001600160a01b038087169550637cd5f663945062000c25939216916000916001910162001939565b600060405180830381600087803b15801562000c4057600080fd5b505af115801562000c55573d6000803e3d6000fd5b505060405163927c0dd560e01b81526001600160a01b038416925063927c0dd5915062000c8d90899089908990899060040162001a59565b600060405180830381600087803b15801562000ca857600080fd5b505af115801562000cbd573d6000803e3d6000fd5b50505050806001600160a01b0316639a202d476040518163ffffffff1660e01b8152600401600060405180830381600087803b15801562000cfd57600080fd5b505af115801562000d12573d6000803e3d6000fd5b505050506040518060400160405280826001600160a01b0316815260200187878080601f0160208091040260200160405190810160405280939291908181526020018383808284376000920182905250939094525050600180548252600260209081526040909220845181546001600160a01b0319166001600160a01b0390911617815584830151805191945062000db09392850192019062001580565b5050600180549150600062000dc58362001c18565b90915550506005546040516001600160a01b039091169063beee31bf907fb5acdc76937a3b5a5501b88fb6bc10e1f706d7291e62ee3769c997ff5c744c68907f1b7d21ada19cf93d67929a951c112b12da5250f402400e6d8772105608df2af090309062000e3c9087908d908d906020016200195c565b6040516020818303038152906040526040518563ffffffff1660e01b815260040162000e6c949392919062001a20565b600060405180830381600087803b15801562000e8757600080fd5b505af115801562000e9c573d6000803e3d6000fd5b505050507f9fa45dffe898f9c11aa8a19154eb381438bf868899c9ad3d04c6fe7340620d6081878760405162000ed5939291906200195c565b60405180910390a195945050505050565b62000ef133620005c4565b62000f105760405162461bcd60e51b81526004016200059d9062001af5565b6001600160a01b03811662000f635760405162461bcd60e51b815260206004820152601860248201527741636365737369626c653a207a65726f206164647265737360401b60448201526064016200059d565b336001600160a01b038216141562000fb75760405162461bcd60e51b815260206004820152601660248201527520b1b1b2b9b9b4b136329d1039b0b6b29030b236b4b760511b60448201526064016200059d565b62000fd2600080516020620038dc83398151915282620005e1565b620005c1600080516020620038dc8339815191523362000729565b62000ff833620005c4565b620010175760405162461bcd60e51b81526004016200059d9062001af5565b806001600160a01b038116620010415760405162461bcd60e51b81526004016200059d9062001ac9565b6005546001600160a01b0383811691161415620010725760405162461bcd60e51b81526004016200059d9062001aa5565b50600580546001600160a01b0319166001600160a01b0392909216919091179055565b6000918252602082815260408084206001600160a01b0393909316845291905290205460ff1690565b620010c933620005c4565b620010e85760405162461bcd60e51b81526004016200059d9062001af5565b806001600160a01b038116620011125760405162461bcd60e51b81526004016200059d9062001ac9565b6003546001600160a01b0383811691161415620011435760405162461bcd60e51b81526004016200059d9062001aa5565b50600380546001600160a01b0319166001600160a01b0392909216919091179055565b6200117133620005c4565b620011905760405162461bcd60e51b81526004016200059d9062001af5565b836001600160a01b038116620011ba5760405162461bcd60e51b81526004016200059d9062001ac9565b604051634a5df50f60e01b81526001600160a01b03861690634a5df50f906200091790879087908790600401620019ba565b6000828152602081905260409020600101546200120a813362001216565b6200060b83836200130d565b62001222828262001095565b620007a7576200123d816001600160a01b0316601462001375565b6200124a83602062001375565b6040516020016200125d929190620018b2565b60408051601f198184030181529082905262461bcd60e51b82526200059d9160040162001a90565b62001291828262001095565b620007a7576000828152602081815260408083206001600160a01b03851684529091529020805460ff19166001179055620012c93390565b6001600160a01b0316816001600160a01b0316837f2f8788117e7eff1d82e926ec794901d17c78024a50270940304540a733656f0d60405160405180910390a45050565b62001319828262001095565b15620007a7576000828152602081815260408083206001600160a01b0385168085529252808320805460ff1916905551339285917ff6391f5c32d9c69d2a47ea670b442974b53935d1edc7fd64eb21e047a839171b9190a45050565b606060006200138683600262001b52565b6200139390600262001b37565b67ffffffffffffffff811115620013ba57634e487b7160e01b600052604160045260246000fd5b6040519080825280601f01601f191660200182016040528015620013e5576020820181803683370190505b509050600360fc1b816000815181106200140f57634e487b7160e01b600052603260045260246000fd5b60200101906001600160f81b031916908160001a905350600f60fb1b816001815181106200144d57634e487b7160e01b600052603260045260246000fd5b60200101906001600160f81b031916908160001a90535060006200147384600262001b52565b6200148090600162001b37565b90505b60018111156200151a576f181899199a1a9b1b9c1cb0b131b232b360811b85600f1660108110620014c457634e487b7160e01b600052603260045260246000fd5b1a60f81b828281518110620014e957634e487b7160e01b600052603260045260246000fd5b60200101906001600160f81b031916908160001a90535060049490941c93620015128162001bc1565b905062001483565b5083156200156b5760405162461bcd60e51b815260206004820181905260248201527f537472696e67733a20686578206c656e67746820696e73756666696369656e7460448201526064016200059d565b9392505050565b611c8f8062001c4d83390190565b8280546200158e9062001bdb565b90600052602060002090601f016020900481019282620015b25760008555620015fd565b82601f10620015cd57805160ff1916838001178555620015fd565b82800160010185558215620015fd579182015b82811115620015fd578251825591602001919060010190620015e0565b506200160b9291506200160f565b5090565b5b808211156200160b576000815560010162001610565b80356001600160a01b03811681146200163e57600080fd5b919050565b80356001600160e01b0319811681146200163e57600080fd5b6000602082840312156200166e578081fd5b6200156b8262001626565b600080600080608085870312156200168f578283fd5b6200169a8562001626565b9350620016aa6020860162001626565b92506040850135915060608501358015158114620016c6578182fd5b939692955090935050565b60008060008060608587031215620016e7578384fd5b620016f28562001626565b9350602085013567ffffffffffffffff808211156200170f578485fd5b818701915087601f83011262001723578485fd5b81358181111562001732578586fd5b8860208260051b850101111562001747578586fd5b602083019550809450505050620017616040860162001626565b905092959194509250565b6000602082840312156200177e578081fd5b5035919050565b6000806040838503121562001798578182fd5b82359150620017aa6020840162001626565b90509250929050565b600060208284031215620017c5578081fd5b6200156b8262001643565b60008060008060608587031215620017e6578384fd5b843567ffffffffffffffff80821115620017fe578586fd5b818701915087601f83011262001812578586fd5b81358181111562001821578687fd5b88602082850101111562001833578687fd5b6020928301965094506200184b918701905062001626565b9150620017616040860162001626565b600081518084526200187581602086016020860162001b8e565b601f01601f19169290920160200192915050565b81835281816020850137506000828201602090810191909152601f909101601f19169091010190565b76020b1b1b2b9b9a1b7b73a3937b61d1030b1b1b7bab73a1604d1b815260008351620018e681601785016020880162001b8e565b7001034b99036b4b9b9b4b733903937b6329607d1b60179184019182015283516200191981602884016020880162001b8e565b01602801949350505050565b6001600160a01b0391909116815260200190565b6001600160a01b0393909316835260208301919091521515604082015260600190565b6001600160a01b038416815260406020820181905260009062001983908301848662001889565b95945050505050565b6001600160a01b0383168152604060208201819052600090620019b2908301846200185b565b949350505050565b6040808252810183905260008460608301825b8681101562001a00576001600160e01b0319620019ea8462001643565b16825260209283019290910190600101620019cd565b506001600160a01b03949094166020939093019290925250909392505050565b84815283602082015260018060a01b038316604082015260806060820152600062001a4f60808301846200185b565b9695505050505050565b60608152600062001a6f60608301868862001889565b6001600160a01b039485166020840152929093166040909101529392505050565b6020815260006200156b60208301846200185b565b6020808252600a908201526973616d6520616464727360b01b604082015260600190565b6020808252601290820152715661756c74466163746f72793a207a65726f60701b604082015260600190565b60208082526022908201527f41636365737369626c653a2043616c6c6572206973206e6f7420616e2061646d60408201526134b760f11b606082015260800190565b6000821982111562001b4d5762001b4d62001c36565b500190565b600081600019048311821515161562001b6f5762001b6f62001c36565b500290565b60008282101562001b895762001b8962001c36565b500390565b60005b8381101562001bab57818101518382015260200162001b91565b8381111562001bbb576000848401525b50505050565b60008162001bd35762001bd362001c36565b506000190190565b600181811c9082168062001bf057607f821691505b6020821081141562001c1257634e487b7160e01b600052602260045260246000fd5b50919050565b600060001982141562001c2f5762001c2f62001c36565b5060010190565b634e487b7160e01b600052601160045260246000fdfe608060405260006005553480156200001657600080fd5b50620000437f52eafc11f6f81f86878bffd31109a0d92f37506527754f00788853ff9f63b1308062000082565b6200006f7f52eafc11f6f81f86878bffd31109a0d92f37506527754f00788853ff9f63b13033620000cd565b6200007c600033620000cd565b62000181565b6000828152600d6020526040808220600101805490849055905190918391839186917fbd79b86ffe0ab8e8776151514217cd7cacd52c909f66475c3af44e129f0b00ff9190a4505050565b620000d98282620000dd565b5050565b6000828152600d602090815260408083206001600160a01b038516845290915290205460ff16620000d9576000828152600d602090815260408083206001600160a01b03851684529091529020805460ff191660011790556200013d3390565b6001600160a01b0316816001600160a01b0316837f2f8788117e7eff1d82e926ec794901d17c78024a50270940304540a733656f0d60405160405180910390a45050565b611afe80620001916000396000f3fe6080604052600436106102095760003560e01c80637cb00d25116101135780639a202d47116100ab578063cfc412be1161006f578063cfc412be146106c3578063d547741f146106d9578063ed5131f5146106f9578063f47f2f1d14610719578063fc0c546a1461073957610252565b80639a202d471461062d578063a217fddf14610642578063b8e010de14610657578063b911135f14610678578063be72f2d3146106ae57610252565b80637cb00d251461050d5780637cd5f6631461052d5780638356ca4f1461054d5780638b8f4a651461056d5780638d4fdb401461058d5780638da5cb5b146105ad57806391d14854146105cd578063927c0dd5146105ed57806396f1557c1461060d57610252565b80633659cfe6116101a15780635564000811610165578063556400081461047d5780635cc797d81461049357806363a8fd89146104b357806370480275146104cd57806375829def146104ed57610252565b80633659cfe61461039d57806341c04d5e146103bd5780634a5df50f146103df57806350d2a276146103ff578063550d01a31461044d57610252565b806301ffc9a71461025c57806306fdde03146102915780630f4388c0146102b3578063117ab874146102e1578063248a9ca3146102f757806324d7806c14610327578063256019d6146103475780632f2ff15d1461035d57806336568abe1461037d57610252565b366102525760405162461bcd60e51b815260206004820152601460248201527331b0b73737ba103932b1b2b4bb329022ba3432b960611b60448201526064015b60405180910390fd5b61025a610759565b005b34801561026857600080fd5b5061027c610277366004611712565b6107f1565b60405190151581526020015b60405180910390f35b34801561029d57600080fd5b506102a6610828565b604051610288919061186d565b3480156102bf57600080fd5b506102d36102ce3660046116d8565b6108b6565b604051908152602001610288565b3480156102ed57600080fd5b506102d360055481565b34801561030357600080fd5b506102d36103123660046116d8565b6000908152600d602052604090206001015490565b34801561033357600080fd5b5061027c6103423660046115c1565b6108d7565b34801561035357600080fd5b506102d360045481565b34801561036957600080fd5b5061025a6103783660046116f0565b6108f1565b34801561038957600080fd5b5061025a6103983660046116f0565b610917565b3480156103a957600080fd5b5061025a6103b83660046115c1565b610995565b3480156103c957600080fd5b506102d3600080516020611a8983398151915281565b3480156103eb57600080fd5b5061025a6103fa366004611648565b610a93565b34801561040b57600080fd5b5061043561041a366004611712565b600c602052600090815260409020546001600160a01b031681565b6040516001600160a01b039091168152602001610288565b34801561045957600080fd5b5061027c6104683660046115c1565b600b6020526000908152604090205460ff1681565b34801561048957600080fd5b506102d360035481565b34801561049f57600080fd5b5061025a6104ae3660046115db565b610c5d565b3480156104bf57600080fd5b5060095461027c9060ff1681565b3480156104d957600080fd5b5061025a6104e83660046115c1565b610c8c565b3480156104f957600080fd5b5061025a6105083660046115c1565b610cc9565b34801561051957600080fd5b5061025a6105283660046116be565b610d7c565b34801561053957600080fd5b5061025a61054836600461160d565b610dc3565b34801561055957600080fd5b5061025a6105683660046115c1565b610df3565b34801561057957600080fd5b506104356105883660046116d8565b610e7d565b34801561059957600080fd5b506104356105a8366004611712565b610e9a565b3480156105b957600080fd5b50600154610435906001600160a01b031681565b3480156105d957600080fd5b5061027c6105e83660046116f0565b610f72565b3480156105f957600080fd5b5061025a61060836600461173a565b610f9d565b34801561061957600080fd5b5061025a6106283660046115c1565b61103a565b34801561063957600080fd5b5061025a61106a565b34801561064e57600080fd5b506102d3600081565b34801561066357600080fd5b5060015461027c90600160a01b900460ff1681565b34801561068457600080fd5b506104356106933660046116d8565b600a602052600090815260409020546001600160a01b031681565b3480156106ba57600080fd5b5061025a6110b8565b3480156106cf57600080fd5b506102d360065481565b3480156106e557600080fd5b5061025a6106f43660046116f0565b6110e8565b34801561070557600080fd5b506102d36107143660046116d8565b61110e565b34801561072557600080fd5b5061027c6107343660046115c1565b61111e565b34801561074557600080fd5b50600054610435906001600160a01b031681565b60006107706000356001600160e01b031916610e9a565b90506001600160a01b0381161580159061078d575060095460ff16155b6107c85760405162461bcd60e51b815260206004820152600c60248201526b50726f78793a2066616c736560a01b6044820152606401610249565b3660008037600080366000845af43d6000803e8080156107e7573d6000f35b3d6000fd5b505050565b60006001600160e01b03198216637965db0b60e01b148061082257506301ffc9a760e01b6001600160e01b03198316145b92915050565b6002805461083590611a06565b80601f016020809104026020016040519081016040528092919081815260200182805461086190611a06565b80156108ae5780601f10610883576101008083540402835291602001916108ae565b820191906000526020600020905b81548152906001019060200180831161089157829003601f168201915b505050505081565b600881815481106108c657600080fd5b600091825260209091200154905081565b6000610822600080516020611a8983398151915283610f72565b6000828152600d602052604090206001015461090d813361112a565b6107ec838361118e565b6001600160a01b03811633146109875760405162461bcd60e51b815260206004820152602f60248201527f416363657373436f6e74726f6c3a2063616e206f6e6c792072656e6f756e636560448201526e103937b632b9903337b91039b2b63360891b6064820152608401610249565b6109918282611214565b5050565b61099e3361111e565b6109ba5760405162461bcd60e51b815260040161024990611914565b6001600160a01b038116610a005760405162461bcd60e51b815260206004820152600d60248201526c696e707574206973207a65726f60981b6044820152606401610249565b60008052600a602052600080516020611aa9833981519152546001600160a01b0382811691161415610a835760405162461bcd60e51b815260206004820152602660248201527f54686520696e70757420616464726573732069732073616d652061732074686560448201526520737461746560d01b6064820152608401610249565b610a90816000600161127b565b50565b610a9c3361111e565b610ab85760405162461bcd60e51b815260040161024990611914565b60005b82811015610c5757816001600160a01b0316600c6000868685818110610af157634e487b7160e01b600052603260045260246000fd5b9050602002016020810190610b069190611712565b6001600160e01b03191681526020810191909152604001600020546001600160a01b03161415610b6a5760405162461bcd60e51b815260206004820152600f60248201526e050726f78793a2073616d6520696d7608c1b6044820152606401610249565b81600c6000868685818110610b8f57634e487b7160e01b600052603260045260246000fd5b9050602002016020810190610ba49190611712565b6001600160e01b0319168152602081019190915260400160002080546001600160a01b0319166001600160a01b039283161790558216848483818110610bfa57634e487b7160e01b600052603260045260246000fd5b9050602002016020810190610c0f9190611712565b6001600160e01b0319167f14ebc1c32aa68f4d766e89f3e546cee249f7df25183fc10ab1568d91c2ce9b7b60405160405180910390a380610c4f81611a41565b915050610abb565b50505050565b610c663361111e565b610c825760405162461bcd60e51b815260040161024990611914565b61099182826112af565b610c953361111e565b610cb15760405162461bcd60e51b815260040161024990611914565b610a90600080516020611a89833981519152826108f1565b610cd2336108d7565b80610ce15750610ce13361111e565b610cfd5760405162461bcd60e51b8152600401610249906118a0565b6001600160a01b038116610d235760405162461bcd60e51b8152600401610249906118e2565b336001600160a01b0382161415610d4c5760405162461bcd60e51b81526004016102499061195c565b610d64600080516020611a89833981519152826108f1565b610a90600080516020611a8983398151915233610917565b610d85336108d7565b80610d945750610d943361111e565b610db05760405162461bcd60e51b8152600401610249906118a0565b6009805460ff1916911515919091179055565b610dcc3361111e565b610de85760405162461bcd60e51b815260040161024990611914565b6107ec83838361127b565b610dfc3361111e565b610e185760405162461bcd60e51b815260040161024990611914565b6001600160a01b038116610e3e5760405162461bcd60e51b8152600401610249906118e2565b336001600160a01b0382161415610e675760405162461bcd60e51b81526004016102499061195c565b610e726000826108f1565b610a90600033610917565b6000818152600a60205260408120546001600160a01b0316610822565b6001600160e01b031981166000908152600c60205260408120546001600160a01b0316610ee857505060008052600a602052600080516020611aa9833981519152546001600160a01b031690565b6001600160e01b031982166000908152600c60209081526040808320546001600160a01b03168352600b90915290205460ff1615610f4657506001600160e01b0319166000908152600c60205260409020546001600160a01b031690565b505060008052600a602052600080516020611aa9833981519152546001600160a01b031690565b919050565b6000918252600d602090815260408084206001600160a01b0393909316845291905290205460ff1690565b610fa6336108d7565b80610fb55750610fb53361111e565b610fd15760405162461bcd60e51b8152600401610249906118a0565b8251610fe4906002906020860190611501565b50600080546001600160a01b038085166001600160a01b031992831617909255600180549284169290911691909117905561101e816108d7565b6107ec576107ec600080516020611a898339815191528261130e565b6110433361111e565b61105f5760405162461bcd60e51b815260040161024990611914565b610a9060008261130e565b611073336108d7565b8061108257506110823361111e565b61109e5760405162461bcd60e51b8152600401610249906118a0565b6110b6600080516020611a8983398151915233610917565b565b6110c13361111e565b6110dd5760405162461bcd60e51b815260040161024990611914565b6110b6600033610917565b6000828152600d6020526040902060010154611104813361112a565b6107ec8383611214565b600781815481106108c657600080fd5b60006108228183610f72565b6111348282610f72565b6109915761114c816001600160a01b03166014611318565b611157836020611318565b6040516020016111689291906117fe565b60408051601f198184030181529082905262461bcd60e51b82526102499160040161186d565b6111988282610f72565b610991576000828152600d602090815260408083206001600160a01b03851684529091529020805460ff191660011790556111d03390565b6001600160a01b0316816001600160a01b0316837f2f8788117e7eff1d82e926ec794901d17c78024a50270940304540a733656f0d60405160405180910390a45050565b61121e8282610f72565b15610991576000828152600d602090815260408083206001600160a01b0385168085529252808320805460ff1916905551339285917ff6391f5c32d9c69d2a47ea670b442974b53935d1edc7fd64eb21e047a839171b9190a45050565b80156112a9576000828152600a6020526040902080546001600160a01b0319166001600160a01b0385161790555b6107ec83825b6001600160a01b0382166000818152600b6020908152604091829020805460ff191685151590811790915591519182527f72558d9bfba4210f9ef095c782589484151f6d90f7a81bb3cb9b33efc695d324910160405180910390a25050565b610991828261118e565b606060006113278360026119a4565b61133290600261198c565b67ffffffffffffffff81111561135857634e487b7160e01b600052604160045260246000fd5b6040519080825280601f01601f191660200182016040528015611382576020820181803683370190505b509050600360fc1b816000815181106113ab57634e487b7160e01b600052603260045260246000fd5b60200101906001600160f81b031916908160001a905350600f60fb1b816001815181106113e857634e487b7160e01b600052603260045260246000fd5b60200101906001600160f81b031916908160001a905350600061140c8460026119a4565b61141790600161198c565b90505b60018111156114ab576f181899199a1a9b1b9c1cb0b131b232b360811b85600f166010811061145957634e487b7160e01b600052603260045260246000fd5b1a60f81b82828151811061147d57634e487b7160e01b600052603260045260246000fd5b60200101906001600160f81b031916908160001a90535060049490941c936114a4816119ef565b905061141a565b5083156114fa5760405162461bcd60e51b815260206004820181905260248201527f537472696e67733a20686578206c656e67746820696e73756666696369656e746044820152606401610249565b9392505050565b82805461150d90611a06565b90600052602060002090601f01602090048101928261152f5760008555611575565b82601f1061154857805160ff1916838001178555611575565b82800160010185558215611575579182015b8281111561157557825182559160200191906001019061155a565b50611581929150611585565b5090565b5b808211156115815760008155600101611586565b80356001600160a01b0381168114610f6d57600080fd5b80358015158114610f6d57600080fd5b6000602082840312156115d2578081fd5b6114fa8261159a565b600080604083850312156115ed578081fd5b6115f68361159a565b9150611604602084016115b1565b90509250929050565b600080600060608486031215611621578081fd5b61162a8461159a565b92506020840135915061163f604085016115b1565b90509250925092565b60008060006040848603121561165c578283fd5b833567ffffffffffffffff80821115611673578485fd5b818601915086601f830112611686578485fd5b813581811115611694578586fd5b8760208260051b85010111156116a8578586fd5b60209283019550935061163f918601905061159a565b6000602082840312156116cf578081fd5b6114fa826115b1565b6000602082840312156116e9578081fd5b5035919050565b60008060408385031215611702578182fd5b823591506116046020840161159a565b600060208284031215611723578081fd5b81356001600160e01b0319811681146114fa578182fd5b60008060006060848603121561174e578283fd5b833567ffffffffffffffff80821115611765578485fd5b818601915086601f830112611778578485fd5b81358181111561178a5761178a611a72565b604051601f8201601f19908116603f011681019083821181831017156117b2576117b2611a72565b816040528281528960208487010111156117ca578788fd5b82602086016020830137876020848301015280975050505050506117f06020850161159a565b915061163f6040850161159a565b76020b1b1b2b9b9a1b7b73a3937b61d1030b1b1b7bab73a1604d1b8152600083516118308160178501602088016119c3565b7001034b99036b4b9b9b4b733903937b6329607d1b60179184019182015283516118618160288401602088016119c3565b01602801949350505050565b602081526000825180602084015261188c8160408501602087016119c3565b601f01601f19169190910160400192915050565b60208082526022908201527f41636365737369626c653a2043616c6c6572206973206e6f7420616e2061646d60408201526134b760f11b606082015260800190565b60208082526018908201527741636365737369626c653a207a65726f206164647265737360401b604082015260600190565b60208082526028908201527f41636365737369626c653a2043616c6c6572206973206e6f7420616e2070726f6040820152673c3c9030b236b4b760c11b606082015260800190565b60208082526016908201527520b1b1b2b9b9b4b136329d1039b0b6b29030b236b4b760511b604082015260600190565b6000821982111561199f5761199f611a5c565b500190565b60008160001904831182151516156119be576119be611a5c565b500290565b60005b838110156119de5781810151838201526020016119c6565b83811115610c575750506000910152565b6000816119fe576119fe611a5c565b506000190190565b600181811c90821680611a1a57607f821691505b60208210811415611a3b57634e487b7160e01b600052602260045260246000fd5b50919050565b6000600019821415611a5557611a55611a5c565b5060010190565b634e487b7160e01b600052601160045260246000fd5b634e487b7160e01b600052604160045260246000fdfe52eafc11f6f81f86878bffd31109a0d92f37506527754f00788853ff9f63b13013da86008ba1c6922daee3e07db95305ef49ebced9f5467a0b8613fcc6b343e3a2646970667358221220e8ea32bba27456b463c1cd8b4a7da6ca975d8a818561a24d221f67b0a000fcb364736f6c63430008040033df8b4c520ffe197c5343c6f5aec59570151ef9a492f2c624fd45ddde6135ec42a2646970667358221220ef0f5b51e2f2a3603ea8438f8e139b1dbd59a347861ae45fc3d3c004bccb414164736f6c63430008040033df8b4c520ffe197c5343c6f5aec59570151ef9a492f2c624fd45ddde6135ec42",
  "linkReferences": {},
  "deployedLinkReferences": {}
}