{
  "_format": "hh-sol-artifact-1",
  "contractName": "TypeCVault",
  "sourceName": "contracts/TypeCVault/TypeCVault.sol",
  "abi": [
    {
      "inputs": [],
      "stateMutability": "nonpayable",
      "type": "constructor"
    },
    {
      "anonymous": false,
      "inputs": [
        {
          "indexed": true,
          "internalType": "address",
          "name": "caller",
          "type": "address"
        },
        {
          "indexed": false,
          "internalType": "uint256",
          "name": "amount",
          "type": "uint256"
        },
        {
          "indexed": false,
          "internalType": "uint256",
          "name": "totalClaimedAmount",
          "type": "uint256"
        }
      ],
      "name": "Claimed",
      "type": "event"
    },
    {
      "anonymous": false,
      "inputs": [
        {
          "indexed": true,
          "internalType": "bytes32",
          "name": "role",
          "type": "bytes32"
        },
        {
          "indexed": true,
          "internalType": "bytes32",
          "name": "previousAdminRole",
          "type": "bytes32"
        },
        {
          "indexed": true,
          "internalType": "bytes32",
          "name": "newAdminRole",
          "type": "bytes32"
        }
      ],
      "name": "RoleAdminChanged",
      "type": "event"
    },
    {
      "anonymous": false,
      "inputs": [
        {
          "indexed": true,
          "internalType": "bytes32",
          "name": "role",
          "type": "bytes32"
        },
        {
          "indexed": true,
          "internalType": "address",
          "name": "account",
          "type": "address"
        },
        {
          "indexed": true,
          "internalType": "address",
          "name": "sender",
          "type": "address"
        }
      ],
      "name": "RoleGranted",
      "type": "event"
    },
    {
      "anonymous": false,
      "inputs": [
        {
          "indexed": true,
          "internalType": "bytes32",
          "name": "role",
          "type": "bytes32"
        },
        {
          "indexed": true,
          "internalType": "address",
          "name": "account",
          "type": "address"
        },
        {
          "indexed": true,
          "internalType": "address",
          "name": "sender",
          "type": "address"
        }
      ],
      "name": "RoleRevoked",
      "type": "event"
    },
    {
      "inputs": [],
      "name": "DEFAULT_ADMIN_ROLE",
      "outputs": [
        {
          "internalType": "bytes32",
          "name": "",
          "type": "bytes32"
        }
      ],
      "stateMutability": "view",
      "type": "function"
    },
    {
      "inputs": [],
      "name": "PROJECT_ADMIN_ROLE",
      "outputs": [
        {
          "internalType": "bytes32",
          "name": "",
          "type": "bytes32"
        }
      ],
      "stateMutability": "view",
      "type": "function"
    },
    {
      "inputs": [
        {
          "internalType": "address",
          "name": "account",
          "type": "address"
        }
      ],
      "name": "addAdmin",
      "outputs": [],
      "stateMutability": "nonpayable",
      "type": "function"
    },
    {
      "inputs": [
        {
          "internalType": "address",
          "name": "_owner",
          "type": "address"
        }
      ],
      "name": "addProxyAdmin",
      "outputs": [],
      "stateMutability": "nonpayable",
      "type": "function"
    },
    {
      "inputs": [
        {
          "internalType": "address",
          "name": "",
          "type": "address"
        }
      ],
      "name": "aliveImplementation",
      "outputs": [
        {
          "internalType": "bool",
          "name": "",
          "type": "bool"
        }
      ],
      "stateMutability": "view",
      "type": "function"
    },
    {
      "inputs": [
        {
          "internalType": "uint256",
          "name": "_round",
          "type": "uint256"
        }
      ],
      "name": "calcalClaimAmount",
      "outputs": [
        {
          "internalType": "uint256",
          "name": "amount",
          "type": "uint256"
        }
      ],
      "stateMutability": "view",
      "type": "function"
    },
    {
      "inputs": [
        {
          "internalType": "address",
          "name": "_token",
          "type": "address"
        }
      ],
      "name": "changeToken",
      "outputs": [],
      "stateMutability": "nonpayable",
      "type": "function"
    },
    {
      "inputs": [
        {
          "internalType": "address",
          "name": "_account",
          "type": "address"
        }
      ],
      "name": "claim",
      "outputs": [],
      "stateMutability": "nonpayable",
      "type": "function"
    },
    {
      "inputs": [
        {
          "internalType": "uint256",
          "name": "",
          "type": "uint256"
        }
      ],
      "name": "claimAmounts",
      "outputs": [
        {
          "internalType": "uint256",
          "name": "",
          "type": "uint256"
        }
      ],
      "stateMutability": "view",
      "type": "function"
    },
    {
      "inputs": [
        {
          "internalType": "uint256",
          "name": "",
          "type": "uint256"
        }
      ],
      "name": "claimTimes",
      "outputs": [
        {
          "internalType": "uint256",
          "name": "",
          "type": "uint256"
        }
      ],
      "stateMutability": "view",
      "type": "function"
    },
    {
      "inputs": [],
      "name": "currentRound",
      "outputs": [
        {
          "internalType": "uint256",
          "name": "round",
          "type": "uint256"
        }
      ],
      "stateMutability": "view",
      "type": "function"
    },
    {
      "inputs": [
        {
          "internalType": "bytes32",
          "name": "role",
          "type": "bytes32"
        }
      ],
      "name": "getRoleAdmin",
      "outputs": [
        {
          "internalType": "bytes32",
          "name": "",
          "type": "bytes32"
        }
      ],
      "stateMutability": "view",
      "type": "function"
    },
    {
      "inputs": [
        {
          "internalType": "bytes32",
          "name": "role",
          "type": "bytes32"
        },
        {
          "internalType": "address",
          "name": "account",
          "type": "address"
        }
      ],
      "name": "grantRole",
      "outputs": [],
      "stateMutability": "nonpayable",
      "type": "function"
    },
    {
      "inputs": [
        {
          "internalType": "bytes32",
          "name": "role",
          "type": "bytes32"
        },
        {
          "internalType": "address",
          "name": "account",
          "type": "address"
        }
      ],
      "name": "hasRole",
      "outputs": [
        {
          "internalType": "bool",
          "name": "",
          "type": "bool"
        }
      ],
      "stateMutability": "view",
      "type": "function"
    },
    {
      "inputs": [
        {
          "internalType": "uint256",
          "name": "_totalAllocatedAmount",
          "type": "uint256"
        },
        {
          "internalType": "uint256",
          "name": "_claimCounts",
          "type": "uint256"
        },
        {
          "internalType": "uint256[]",
          "name": "_claimTimes",
          "type": "uint256[]"
        },
        {
          "internalType": "uint256[]",
          "name": "_claimAmounts",
          "type": "uint256[]"
        }
      ],
      "name": "initialize",
      "outputs": [],
      "stateMutability": "nonpayable",
      "type": "function"
    },
    {
      "inputs": [
        {
          "internalType": "address",
          "name": "account",
          "type": "address"
        }
      ],
      "name": "isAdmin",
      "outputs": [
        {
          "internalType": "bool",
          "name": "",
          "type": "bool"
        }
      ],
      "stateMutability": "view",
      "type": "function"
    },
    {
      "inputs": [
        {
          "internalType": "address",
          "name": "account",
          "type": "address"
        }
      ],
      "name": "isProxyAdmin",
      "outputs": [
        {
          "internalType": "bool",
          "name": "",
          "type": "bool"
        }
      ],
      "stateMutability": "view",
      "type": "function"
    },
    {
      "inputs": [],
      "name": "name",
      "outputs": [
        {
          "internalType": "string",
          "name": "",
          "type": "string"
        }
      ],
      "stateMutability": "view",
      "type": "function"
    },
    {
      "inputs": [],
      "name": "nowClaimRound",
      "outputs": [
        {
          "internalType": "uint256",
          "name": "",
          "type": "uint256"
        }
      ],
      "stateMutability": "view",
      "type": "function"
    },
    {
      "inputs": [],
      "name": "owner",
      "outputs": [
        {
          "internalType": "address",
          "name": "",
          "type": "address"
        }
      ],
      "stateMutability": "view",
      "type": "function"
    },
    {
      "inputs": [],
      "name": "pauseProxy",
      "outputs": [
        {
          "internalType": "bool",
          "name": "",
          "type": "bool"
        }
      ],
      "stateMutability": "view",
      "type": "function"
    },
    {
      "inputs": [
        {
          "internalType": "uint256",
          "name": "",
          "type": "uint256"
        }
      ],
      "name": "proxyImplementation",
      "outputs": [
        {
          "internalType": "address",
          "name": "",
          "type": "address"
        }
      ],
      "stateMutability": "view",
      "type": "function"
    },
    {
      "inputs": [],
      "name": "removeAdmin",
      "outputs": [],
      "stateMutability": "nonpayable",
      "type": "function"
    },
    {
      "inputs": [],
      "name": "removeProxyAdmin",
      "outputs": [],
      "stateMutability": "nonpayable",
      "type": "function"
    },
    {
      "inputs": [
        {
          "internalType": "bytes32",
          "name": "role",
          "type": "bytes32"
        },
        {
          "internalType": "address",
          "name": "account",
          "type": "address"
        }
      ],
      "name": "renounceRole",
      "outputs": [],
      "stateMutability": "nonpayable",
      "type": "function"
    },
    {
      "inputs": [
        {
          "internalType": "bytes32",
          "name": "role",
          "type": "bytes32"
        },
        {
          "internalType": "address",
          "name": "account",
          "type": "address"
        }
      ],
      "name": "revokeRole",
      "outputs": [],
      "stateMutability": "nonpayable",
      "type": "function"
    },
    {
      "inputs": [
        {
          "internalType": "bytes4",
          "name": "",
          "type": "bytes4"
        }
      ],
      "name": "selectorImplementation",
      "outputs": [
        {
          "internalType": "address",
          "name": "",
          "type": "address"
        }
      ],
      "stateMutability": "view",
      "type": "function"
    },
    {
      "inputs": [],
      "name": "set",
      "outputs": [
        {
          "internalType": "bool",
          "name": "",
          "type": "bool"
        }
      ],
      "stateMutability": "view",
      "type": "function"
    },
    {
      "inputs": [
        {
          "internalType": "bytes4",
          "name": "interfaceId",
          "type": "bytes4"
        }
      ],
      "name": "supportsInterface",
      "outputs": [
        {
          "internalType": "bool",
          "name": "",
          "type": "bool"
        }
      ],
      "stateMutability": "view",
      "type": "function"
    },
    {
      "inputs": [],
      "name": "token",
      "outputs": [
        {
          "internalType": "address",
          "name": "",
          "type": "address"
        }
      ],
      "stateMutability": "view",
      "type": "function"
    },
    {
      "inputs": [],
      "name": "totalAllocatedAmount",
      "outputs": [
        {
          "internalType": "uint256",
          "name": "",
          "type": "uint256"
        }
      ],
      "stateMutability": "view",
      "type": "function"
    },
    {
      "inputs": [],
      "name": "totalClaimCounts",
      "outputs": [
        {
          "internalType": "uint256",
          "name": "",
          "type": "uint256"
        }
      ],
      "stateMutability": "view",
      "type": "function"
    },
    {
      "inputs": [],
      "name": "totalClaimsAmount",
      "outputs": [
        {
          "internalType": "uint256",
          "name": "",
          "type": "uint256"
        }
      ],
      "stateMutability": "view",
      "type": "function"
    },
    {
      "inputs": [
        {
          "internalType": "address",
          "name": "newAdmin",
          "type": "address"
        }
      ],
      "name": "transferAdmin",
      "outputs": [],
      "stateMutability": "nonpayable",
      "type": "function"
    },
    {
      "inputs": [
        {
          "internalType": "address",
          "name": "newAdmin",
          "type": "address"
        }
      ],
      "name": "transferProxyAdmin",
      "outputs": [],
      "stateMutability": "nonpayable",
      "type": "function"
    },
    {
      "inputs": [
        {
          "internalType": "address",
          "name": "_account",
          "type": "address"
        },
        {
          "internalType": "uint256",
          "name": "_amount",
          "type": "uint256"
        }
      ],
      "name": "withdraw",
      "outputs": [],
      "stateMutability": "nonpayable",
      "type": "function"
    }
  ],
  "bytecode": "0x6080604052600060055534801561001557600080fd5b50611b62806100256000396000f3fe608060405234801561001057600080fd5b50600436106101dc5760003560e01c80638356ca4f11610105578063b8e010de1161009d578063b8e010de14610409578063b911135f1461041d578063be72f2d314610446578063cfc412be1461044e578063d547741f14610457578063ed5131f51461046a578063f3fef3a31461047d578063f47f2f1d14610490578063fc0c546a146104a357600080fd5b80638356ca4f1461037f5780638a19c8bc146103925780638da5cb5b1461039a57806391d14854146103ad5780639259eaed146103c057806396f1557c146103d35780639a202d47146103e6578063a217fddf146103ee578063a77a29fc146103f657600080fd5b806336568abe1161017857806336568abe146102af57806341c04d5e146102c257806350d2a276146102d7578063550d01a31461030d578063556400081461033057806363a8fd891461033957806366829b1614610346578063704802751461035957806375829def1461036c57600080fd5b806301ffc9a7146101e157806306fdde03146102095780630f4388c01461021e578063117ab8741461023f5780631e83409a14610248578063248a9ca31461025d57806324d7806c14610280578063256019d6146102935780632f2ff15d1461029c575b600080fd5b6101f46101ef366004611763565b6104b6565b60405190151581526020015b60405180910390f35b6102116104ed565b60405161020091906118c2565b61023161022c366004611720565b61057b565b604051908152602001610200565b61023160055481565b61025b6102563660046116bd565b61059c565b005b61023161026b366004611720565b6000908152600d602052604090206001015490565b6101f461028e3660046116bd565b6107c9565b61023160045481565b61025b6102aa366004611738565b6107e3565b61025b6102bd366004611738565b61080e565b610231600080516020611b0d83398151915281565b6103006102e5366004611763565b600c602052600090815260409020546001600160a01b031681565b60405161020091906118ae565b6101f461031b3660046116bd565b600b6020526000908152604090205460ff1681565b61023160035481565b6009546101f49060ff1681565b61025b6103543660046116bd565b61088c565b61025b6103673660046116bd565b6108e2565b61025b61037a3660046116bd565b610922565b61025b61038d3660046116bd565b6109d5565b610231610a5f565b600154610300906001600160a01b031681565b6101f46103bb366004611738565b610b60565b6102316103ce366004611720565b610b8b565b61025b6103e13660046116bd565b610c59565b61025b610c89565b610231600081565b61025b6104043660046117a3565b610cd7565b6001546101f490600160a01b900460ff1681565b61030061042b366004611720565b600a602052600090815260409020546001600160a01b031681565b61025b610f1c565b61023160065481565b61025b610465366004611738565b610f4c565b610231610478366004611720565b610f72565b61025b61048b3660046116d7565b610f82565b6101f461049e3660046116bd565b61106b565b600054610300906001600160a01b031681565b60006001600160e01b03198216637965db0b60e01b14806104e757506301ffc9a760e01b6001600160e01b03198316145b92915050565b600280546104fa90611aa6565b80601f016020809104026020016040519081016040528092919081815260200182805461052690611aa6565b80156105735780601f1061054857610100808354040283529160200191610573565b820191906000526020600020905b81548152906001019060200180831161055657829003601f168201915b505050505081565b6008818154811061058b57600080fd5b600091825260209091200154905081565b6105a5336107c9565b806105b457506105b43361106b565b6105d95760405162461bcd60e51b81526004016105d0906118f5565b60405180910390fd5b60076000815481106105fb57634e487b7160e01b600052603260045260246000fd5b9060005260206000200154421161064d5760405162461bcd60e51b815260206004820152601660248201527515985d5b1d0e881b9bdd081cdd185c9d1959081e595d60521b60448201526064016105d0565b600654600354116106995760405162461bcd60e51b815260206004820152601660248201527515985d5b1d0e88185b1c9958591e48105b1b0819d95d60521b60448201526064016105d0565b60006106a3610a5f565b905060006106b082610b8b565b6000546040516370a0823160e01b815291925082916001600160a01b03909116906370a08231906106e59030906004016118ae565b60206040518083038186803b1580156106fd57600080fd5b505afa158015610711573d6000803e3d6000fd5b505050506040513d601f19601f82011682018060405250810190610735919061178b565b10156107535760405162461bcd60e51b81526004016105d0906119e1565b6005829055600654610766908290611a11565b600655600054610780906001600160a01b03168483611077565b60065460405133917f987d620f307ff6b94d58743cb7a7509f24071586a77759b77c2d4e29f75a2f9a916107bc91858252602082015260400190565b60405180910390a2505050565b60006104e7600080516020611b0d83398151915283610b60565b6000828152600d60205260409020600101546107ff81336110c9565b610809838361112d565b505050565b6001600160a01b038116331461087e5760405162461bcd60e51b815260206004820152602f60248201527f416363657373436f6e74726f6c3a2063616e206f6e6c792072656e6f756e636560448201526e103937b632b9903337b91039b2b63360891b60648201526084016105d0565b61088882826111b3565b5050565b610895336107c9565b806108a457506108a43361106b565b6108c05760405162461bcd60e51b81526004016105d0906118f5565b600080546001600160a01b0319166001600160a01b0392909216919091179055565b6108eb3361106b565b6109075760405162461bcd60e51b81526004016105d090611969565b61091f600080516020611b0d833981519152826107e3565b50565b61092b336107c9565b8061093a575061093a3361106b565b6109565760405162461bcd60e51b81526004016105d0906118f5565b6001600160a01b03811661097c5760405162461bcd60e51b81526004016105d090611937565b336001600160a01b03821614156109a55760405162461bcd60e51b81526004016105d0906119b1565b6109bd600080516020611b0d833981519152826107e3565b61091f600080516020611b0d8339815191523361080e565b6109de3361106b565b6109fa5760405162461bcd60e51b81526004016105d090611969565b6001600160a01b038116610a205760405162461bcd60e51b81526004016105d090611937565b336001600160a01b0382161415610a495760405162461bcd60e51b81526004016105d0906119b1565b610a546000826107e3565b61091f60003361080e565b6004546000905b8015610b5c576007600081548110610a8e57634e487b7160e01b600052603260045260246000fd5b9060005260206000200154421015610aa95760009150610b4a565b6007610ab6600183611a48565b81548110610ad457634e487b7160e01b600052603260045260246000fd5b906000526020600020015442108015610aec57508015155b15610b0357610afc600182611a48565b9150610b4a565b60076001600454610b149190611a48565b81548110610b3257634e487b7160e01b600052603260045260246000fd5b9060005260206000200154421115610b4a5760045491505b80610b5481611a8f565b915050610a66565b5090565b6000918252600d602090815260408084206001600160a01b0393909316845291905290205460ff1690565b60008060005b83811015610be45760088181548110610bba57634e487b7160e01b600052603260045260246000fd5b906000526020600020015482610bd09190611a11565b915080610bdc81611adb565b915050610b91565b508260011415610c22576008600081548110610c1057634e487b7160e01b600052603260045260246000fd5b90600052602060002001549150610c53565b826004541415610c4357600654600354610c3c9190611a48565b9150610c53565b600654610c509082611a48565b91505b50919050565b610c623361106b565b610c7e5760405162461bcd60e51b81526004016105d090611969565b61091f60008261121a565b610c92336107c9565b80610ca15750610ca13361106b565b610cbd5760405162461bcd60e51b81526004016105d0906118f5565b610cd5600080516020611b0d8339815191523361080e565b565b610ce0336107c9565b80610cef5750610cef3361106b565b610d0b5760405162461bcd60e51b81526004016105d0906118f5565b6000546040516370a0823160e01b81526001600160a01b03909116906370a0823190610d3b9030906004016118ae565b60206040518083038186803b158015610d5357600080fd5b505afa158015610d67573d6000803e3d6000fd5b505050506040513d601f19601f82011682018060405250810190610d8b919061178b565b861115610dd45760405162461bcd60e51b81526020600482015260176024820152763732b2b2103a379034b7383aba103a3432903a37b5b2b760491b60448201526064016105d0565b60018054600160a01b900460ff1615151415610e51576007600081548110610e0c57634e487b7160e01b600052603260045260246000fd5b90600052602060002001544210610e515760405162461bcd60e51b81526020600482015260096024820152686f7665722074696d6560b81b60448201526064016105d0565b6003869055600485905560005b85811015610f00576007858583818110610e8857634e487b7160e01b600052603260045260246000fd5b835460018101855560009485526020948590209190940292909201359190920155506008838383818110610ecc57634e487b7160e01b600052603260045260246000fd5b8354600181018555600094855260209485902091909402929092013591909201555080610ef881611adb565b915050610e5e565b50506001805460ff60a01b1916600160a01b1790555050505050565b610f253361106b565b610f415760405162461bcd60e51b81526004016105d090611969565b610cd560003361080e565b6000828152600d6020526040902060010154610f6881336110c9565b61080983836111b3565b6007818154811061058b57600080fd5b610f8b336107c9565b80610f9a5750610f9a3361106b565b610fb65760405162461bcd60e51b81526004016105d0906118f5565b6000546040516370a0823160e01b815282916001600160a01b0316906370a0823190610fe69030906004016118ae565b60206040518083038186803b158015610ffe57600080fd5b505afa158015611012573d6000803e3d6000fd5b505050506040513d601f19601f82011682018060405250810190611036919061178b565b10156110545760405162461bcd60e51b81526004016105d0906119e1565b600054610888906001600160a01b03168383611077565b60006104e78183610b60565b604080516001600160a01b038416602482015260448082018490528251808303909101815260649091019091526020810180516001600160e01b031663a9059cbb60e01b179052610809908490611224565b6110d38282610b60565b610888576110eb816001600160a01b031660146112f6565b6110f68360206112f6565b60405160200161110792919061183f565b60408051601f198184030181529082905262461bcd60e51b82526105d0916004016118c2565b6111378282610b60565b610888576000828152600d602090815260408083206001600160a01b03851684529091529020805460ff1916600117905561116f3390565b6001600160a01b0316816001600160a01b0316837f2f8788117e7eff1d82e926ec794901d17c78024a50270940304540a733656f0d60405160405180910390a45050565b6111bd8282610b60565b15610888576000828152600d602090815260408083206001600160a01b0385168085529252808320805460ff1916905551339285917ff6391f5c32d9c69d2a47ea670b442974b53935d1edc7fd64eb21e047a839171b9190a45050565b610888828261112d565b6000611279826040518060400160405280602081526020017f5361666545524332303a206c6f772d6c6576656c2063616c6c206661696c6564815250856001600160a01b03166114df9092919063ffffffff16565b80519091501561080957808060200190518101906112979190611700565b6108095760405162461bcd60e51b815260206004820152602a60248201527f5361666545524332303a204552433230206f7065726174696f6e20646964206e6044820152691bdd081cdd58d8d9595960b21b60648201526084016105d0565b60606000611305836002611a29565b611310906002611a11565b67ffffffffffffffff81111561133657634e487b7160e01b600052604160045260246000fd5b6040519080825280601f01601f191660200182016040528015611360576020820181803683370190505b509050600360fc1b8160008151811061138957634e487b7160e01b600052603260045260246000fd5b60200101906001600160f81b031916908160001a905350600f60fb1b816001815181106113c657634e487b7160e01b600052603260045260246000fd5b60200101906001600160f81b031916908160001a90535060006113ea846002611a29565b6113f5906001611a11565b90505b6001811115611489576f181899199a1a9b1b9c1cb0b131b232b360811b85600f166010811061143757634e487b7160e01b600052603260045260246000fd5b1a60f81b82828151811061145b57634e487b7160e01b600052603260045260246000fd5b60200101906001600160f81b031916908160001a90535060049490941c9361148281611a8f565b90506113f8565b5083156114d85760405162461bcd60e51b815260206004820181905260248201527f537472696e67733a20686578206c656e67746820696e73756666696369656e7460448201526064016105d0565b9392505050565b60606114ee84846000856114f6565b949350505050565b6060824710156115575760405162461bcd60e51b815260206004820152602660248201527f416464726573733a20696e73756666696369656e742062616c616e636520666f6044820152651c8818d85b1b60d21b60648201526084016105d0565b843b6115a55760405162461bcd60e51b815260206004820152601d60248201527f416464726573733a2063616c6c20746f206e6f6e2d636f6e747261637400000060448201526064016105d0565b600080866001600160a01b031685876040516115c19190611823565b60006040518083038185875af1925050503d80600081146115fe576040519150601f19603f3d011682016040523d82523d6000602084013e611603565b606091505b509150915061161382828661161e565b979650505050505050565b6060831561162d5750816114d8565b82511561163d5782518084602001fd5b8160405162461bcd60e51b81526004016105d091906118c2565b80356001600160a01b038116811461166e57600080fd5b919050565b60008083601f840112611684578182fd5b50813567ffffffffffffffff81111561169b578182fd5b6020830191508360208260051b85010111156116b657600080fd5b9250929050565b6000602082840312156116ce578081fd5b6114d882611657565b600080604083850312156116e9578081fd5b6116f283611657565b946020939093013593505050565b600060208284031215611711578081fd5b815180151581146114d8578182fd5b600060208284031215611731578081fd5b5035919050565b6000806040838503121561174a578182fd5b8235915061175a60208401611657565b90509250929050565b600060208284031215611774578081fd5b81356001600160e01b0319811681146114d8578182fd5b60006020828403121561179c578081fd5b5051919050565b600080600080600080608087890312156117bb578182fd5b8635955060208701359450604087013567ffffffffffffffff808211156117e0578384fd5b6117ec8a838b01611673565b90965094506060890135915080821115611804578384fd5b5061181189828a01611673565b979a9699509497509295939492505050565b60008251611835818460208701611a5f565b9190910192915050565b76020b1b1b2b9b9a1b7b73a3937b61d1030b1b1b7bab73a1604d1b815260008351611871816017850160208801611a5f565b7001034b99036b4b9b9b4b733903937b6329607d1b60179184019182015283516118a2816028840160208801611a5f565b01602801949350505050565b6001600160a01b0391909116815260200190565b60208152600082518060208401526118e1816040850160208701611a5f565b601f01601f19169190910160400192915050565b60208082526022908201527f41636365737369626c653a2043616c6c6572206973206e6f7420616e2061646d60408201526134b760f11b606082015260800190565b60208082526018908201527741636365737369626c653a207a65726f206164647265737360401b604082015260600190565b60208082526028908201527f41636365737369626c653a2043616c6c6572206973206e6f7420616e2070726f6040820152673c3c9030b236b4b760c11b606082015260800190565b60208082526016908201527520b1b1b2b9b9b4b136329d1039b0b6b29030b236b4b760511b604082015260600190565b6020808252601690820152752b30bab63a1d103237b73a103430bb32903a37b5b2b760511b604082015260600190565b60008219821115611a2457611a24611af6565b500190565b6000816000190483118215151615611a4357611a43611af6565b500290565b600082821015611a5a57611a5a611af6565b500390565b60005b83811015611a7a578181015183820152602001611a62565b83811115611a89576000848401525b50505050565b600081611a9e57611a9e611af6565b506000190190565b600181811c90821680611aba57607f821691505b60208210811415610c5357634e487b7160e01b600052602260045260246000fd5b6000600019821415611aef57611aef611af6565b5060010190565b634e487b7160e01b600052601160045260246000fdfe52eafc11f6f81f86878bffd31109a0d92f37506527754f00788853ff9f63b130a264697066735822122098c0f93c33860db23b331a1f72cb924dd2d234294ef9ee6f13cbd8619926631b64736f6c63430008040033",
  "linkReferences": {},
  "deployedLinkReferences": {}
}