{
  "_format": "hh-sol-artifact-1",
  "contractName": "TypeCVault",
  "sourceName": "contracts/TypeCVault/TypeCVault.sol",
  "abi": [
    {
      "inputs": [],
      "stateMutability": "nonpayable",
      "type": "constructor"
    },
    {
      "anonymous": false,
      "inputs": [
        {
          "indexed": true,
          "internalType": "address",
          "name": "caller",
          "type": "address"
        },
        {
          "indexed": false,
          "internalType": "uint256",
          "name": "amount",
          "type": "uint256"
        },
        {
          "indexed": false,
          "internalType": "uint256",
          "name": "totalClaimedAmount",
          "type": "uint256"
        }
      ],
      "name": "Claimed",
      "type": "event"
    },
    {
      "anonymous": false,
      "inputs": [
        {
          "indexed": true,
          "internalType": "bytes32",
          "name": "role",
          "type": "bytes32"
        },
        {
          "indexed": true,
          "internalType": "bytes32",
          "name": "previousAdminRole",
          "type": "bytes32"
        },
        {
          "indexed": true,
          "internalType": "bytes32",
          "name": "newAdminRole",
          "type": "bytes32"
        }
      ],
      "name": "RoleAdminChanged",
      "type": "event"
    },
    {
      "anonymous": false,
      "inputs": [
        {
          "indexed": true,
          "internalType": "bytes32",
          "name": "role",
          "type": "bytes32"
        },
        {
          "indexed": true,
          "internalType": "address",
          "name": "account",
          "type": "address"
        },
        {
          "indexed": true,
          "internalType": "address",
          "name": "sender",
          "type": "address"
        }
      ],
      "name": "RoleGranted",
      "type": "event"
    },
    {
      "anonymous": false,
      "inputs": [
        {
          "indexed": true,
          "internalType": "bytes32",
          "name": "role",
          "type": "bytes32"
        },
        {
          "indexed": true,
          "internalType": "address",
          "name": "account",
          "type": "address"
        },
        {
          "indexed": true,
          "internalType": "address",
          "name": "sender",
          "type": "address"
        }
      ],
      "name": "RoleRevoked",
      "type": "event"
    },
    {
      "inputs": [],
      "name": "DEFAULT_ADMIN_ROLE",
      "outputs": [
        {
          "internalType": "bytes32",
          "name": "",
          "type": "bytes32"
        }
      ],
      "stateMutability": "view",
      "type": "function"
    },
    {
      "inputs": [],
      "name": "PROJECT_ADMIN_ROLE",
      "outputs": [
        {
          "internalType": "bytes32",
          "name": "",
          "type": "bytes32"
        }
      ],
      "stateMutability": "view",
      "type": "function"
    },
    {
      "inputs": [
        {
          "internalType": "address",
          "name": "account",
          "type": "address"
        }
      ],
      "name": "addAdmin",
      "outputs": [],
      "stateMutability": "nonpayable",
      "type": "function"
    },
    {
      "inputs": [
        {
          "internalType": "address",
          "name": "_owner",
          "type": "address"
        }
      ],
      "name": "addProxyAdmin",
      "outputs": [],
      "stateMutability": "nonpayable",
      "type": "function"
    },
    {
      "inputs": [
        {
          "internalType": "address",
          "name": "",
          "type": "address"
        }
      ],
      "name": "aliveImplementation",
      "outputs": [
        {
          "internalType": "bool",
          "name": "",
          "type": "bool"
        }
      ],
      "stateMutability": "view",
      "type": "function"
    },
    {
      "inputs": [],
      "name": "allClaimInfos",
      "outputs": [
        {
          "internalType": "uint256",
          "name": "",
          "type": "uint256"
        },
        {
          "internalType": "uint256[]",
          "name": "",
          "type": "uint256[]"
        },
        {
          "internalType": "uint256[]",
          "name": "",
          "type": "uint256[]"
        },
        {
          "internalType": "uint256",
          "name": "",
          "type": "uint256"
        }
      ],
      "stateMutability": "view",
      "type": "function"
    },
    {
      "inputs": [],
      "name": "boolLogEvent",
      "outputs": [
        {
          "internalType": "bool",
          "name": "",
          "type": "bool"
        }
      ],
      "stateMutability": "view",
      "type": "function"
    },
    {
      "inputs": [
        {
          "internalType": "uint256",
          "name": "_round",
          "type": "uint256"
        }
      ],
      "name": "calcalClaimAmount",
      "outputs": [
        {
          "internalType": "uint256",
          "name": "amount",
          "type": "uint256"
        }
      ],
      "stateMutability": "view",
      "type": "function"
    },
    {
      "inputs": [
        {
          "internalType": "address",
          "name": "_token",
          "type": "address"
        }
      ],
      "name": "changeAddr",
      "outputs": [],
      "stateMutability": "nonpayable",
      "type": "function"
    },
    {
      "inputs": [
        {
          "internalType": "address",
          "name": "_account",
          "type": "address"
        }
      ],
      "name": "claim",
      "outputs": [],
      "stateMutability": "nonpayable",
      "type": "function"
    },
    {
      "inputs": [
        {
          "internalType": "uint256",
          "name": "",
          "type": "uint256"
        }
      ],
      "name": "claimAmounts",
      "outputs": [
        {
          "internalType": "uint256",
          "name": "",
          "type": "uint256"
        }
      ],
      "stateMutability": "view",
      "type": "function"
    },
    {
      "inputs": [
        {
          "internalType": "uint256",
          "name": "",
          "type": "uint256"
        }
      ],
      "name": "claimTimes",
      "outputs": [
        {
          "internalType": "uint256",
          "name": "",
          "type": "uint256"
        }
      ],
      "stateMutability": "view",
      "type": "function"
    },
    {
      "inputs": [],
      "name": "currentRound",
      "outputs": [
        {
          "internalType": "uint256",
          "name": "round",
          "type": "uint256"
        }
      ],
      "stateMutability": "view",
      "type": "function"
    },
    {
      "inputs": [
        {
          "internalType": "bytes32",
          "name": "role",
          "type": "bytes32"
        }
      ],
      "name": "getRoleAdmin",
      "outputs": [
        {
          "internalType": "bytes32",
          "name": "",
          "type": "bytes32"
        }
      ],
      "stateMutability": "view",
      "type": "function"
    },
    {
      "inputs": [
        {
          "internalType": "bytes32",
          "name": "role",
          "type": "bytes32"
        },
        {
          "internalType": "address",
          "name": "account",
          "type": "address"
        }
      ],
      "name": "grantRole",
      "outputs": [],
      "stateMutability": "nonpayable",
      "type": "function"
    },
    {
      "inputs": [
        {
          "internalType": "bytes32",
          "name": "role",
          "type": "bytes32"
        },
        {
          "internalType": "address",
          "name": "account",
          "type": "address"
        }
      ],
      "name": "hasRole",
      "outputs": [
        {
          "internalType": "bool",
          "name": "",
          "type": "bool"
        }
      ],
      "stateMutability": "view",
      "type": "function"
    },
    {
      "inputs": [
        {
          "internalType": "uint256",
          "name": "_totalAllocatedAmount",
          "type": "uint256"
        },
        {
          "internalType": "uint256",
          "name": "_claimCounts",
          "type": "uint256"
        },
        {
          "internalType": "uint256[]",
          "name": "_claimTimes",
          "type": "uint256[]"
        },
        {
          "internalType": "uint256[]",
          "name": "_claimAmounts",
          "type": "uint256[]"
        }
      ],
      "name": "initialize",
      "outputs": [],
      "stateMutability": "nonpayable",
      "type": "function"
    },
    {
      "inputs": [
        {
          "internalType": "address",
          "name": "account",
          "type": "address"
        }
      ],
      "name": "isAdmin",
      "outputs": [
        {
          "internalType": "bool",
          "name": "",
          "type": "bool"
        }
      ],
      "stateMutability": "view",
      "type": "function"
    },
    {
      "inputs": [
        {
          "internalType": "address",
          "name": "account",
          "type": "address"
        }
      ],
      "name": "isProxyAdmin",
      "outputs": [
        {
          "internalType": "bool",
          "name": "",
          "type": "bool"
        }
      ],
      "stateMutability": "view",
      "type": "function"
    },
    {
      "inputs": [],
      "name": "logEventAddress",
      "outputs": [
        {
          "internalType": "address",
          "name": "",
          "type": "address"
        }
      ],
      "stateMutability": "view",
      "type": "function"
    },
    {
      "inputs": [],
      "name": "name",
      "outputs": [
        {
          "internalType": "string",
          "name": "",
          "type": "string"
        }
      ],
      "stateMutability": "view",
      "type": "function"
    },
    {
      "inputs": [],
      "name": "nowClaimRound",
      "outputs": [
        {
          "internalType": "uint256",
          "name": "",
          "type": "uint256"
        }
      ],
      "stateMutability": "view",
      "type": "function"
    },
    {
      "inputs": [],
      "name": "owner",
      "outputs": [
        {
          "internalType": "address",
          "name": "",
          "type": "address"
        }
      ],
      "stateMutability": "view",
      "type": "function"
    },
    {
      "inputs": [
        {
          "internalType": "uint256",
          "name": "_totalAllocatedAmount",
          "type": "uint256"
        },
        {
          "internalType": "uint256",
          "name": "_claimCounts",
          "type": "uint256"
        },
        {
          "internalType": "uint256[]",
          "name": "_claimTimes",
          "type": "uint256[]"
        },
        {
          "internalType": "uint256[]",
          "name": "_claimAmounts",
          "type": "uint256[]"
        }
      ],
      "name": "ownerSetting",
      "outputs": [],
      "stateMutability": "nonpayable",
      "type": "function"
    },
    {
      "inputs": [],
      "name": "pauseProxy",
      "outputs": [
        {
          "internalType": "bool",
          "name": "",
          "type": "bool"
        }
      ],
      "stateMutability": "view",
      "type": "function"
    },
    {
      "inputs": [
        {
          "internalType": "uint256",
          "name": "",
          "type": "uint256"
        }
      ],
      "name": "proxyImplementation",
      "outputs": [
        {
          "internalType": "address",
          "name": "",
          "type": "address"
        }
      ],
      "stateMutability": "view",
      "type": "function"
    },
    {
      "inputs": [],
      "name": "removeAdmin",
      "outputs": [],
      "stateMutability": "nonpayable",
      "type": "function"
    },
    {
      "inputs": [],
      "name": "removeProxyAdmin",
      "outputs": [],
      "stateMutability": "nonpayable",
      "type": "function"
    },
    {
      "inputs": [
        {
          "internalType": "bytes32",
          "name": "role",
          "type": "bytes32"
        },
        {
          "internalType": "address",
          "name": "account",
          "type": "address"
        }
      ],
      "name": "renounceRole",
      "outputs": [],
      "stateMutability": "nonpayable",
      "type": "function"
    },
    {
      "inputs": [
        {
          "internalType": "bytes32",
          "name": "role",
          "type": "bytes32"
        },
        {
          "internalType": "address",
          "name": "account",
          "type": "address"
        }
      ],
      "name": "revokeRole",
      "outputs": [],
      "stateMutability": "nonpayable",
      "type": "function"
    },
    {
      "inputs": [
        {
          "internalType": "bytes4",
          "name": "",
          "type": "bytes4"
        }
      ],
      "name": "selectorImplementation",
      "outputs": [
        {
          "internalType": "address",
          "name": "",
          "type": "address"
        }
      ],
      "stateMutability": "view",
      "type": "function"
    },
    {
      "inputs": [],
      "name": "set",
      "outputs": [
        {
          "internalType": "bool",
          "name": "",
          "type": "bool"
        }
      ],
      "stateMutability": "view",
      "type": "function"
    },
    {
      "inputs": [
        {
          "internalType": "bytes4",
          "name": "interfaceId",
          "type": "bytes4"
        }
      ],
      "name": "supportsInterface",
      "outputs": [
        {
          "internalType": "bool",
          "name": "",
          "type": "bool"
        }
      ],
      "stateMutability": "view",
      "type": "function"
    },
    {
      "inputs": [],
      "name": "token",
      "outputs": [
        {
          "internalType": "address",
          "name": "",
          "type": "address"
        }
      ],
      "stateMutability": "view",
      "type": "function"
    },
    {
      "inputs": [],
      "name": "totalAllocatedAmount",
      "outputs": [
        {
          "internalType": "uint256",
          "name": "",
          "type": "uint256"
        }
      ],
      "stateMutability": "view",
      "type": "function"
    },
    {
      "inputs": [],
      "name": "totalClaimCounts",
      "outputs": [
        {
          "internalType": "uint256",
          "name": "",
          "type": "uint256"
        }
      ],
      "stateMutability": "view",
      "type": "function"
    },
    {
      "inputs": [],
      "name": "totalClaimsAmount",
      "outputs": [
        {
          "internalType": "uint256",
          "name": "",
          "type": "uint256"
        }
      ],
      "stateMutability": "view",
      "type": "function"
    },
    {
      "inputs": [
        {
          "internalType": "address",
          "name": "newAdmin",
          "type": "address"
        }
      ],
      "name": "transferAdmin",
      "outputs": [],
      "stateMutability": "nonpayable",
      "type": "function"
    },
    {
      "inputs": [
        {
          "internalType": "address",
          "name": "newAdmin",
          "type": "address"
        }
      ],
      "name": "transferProxyAdmin",
      "outputs": [],
      "stateMutability": "nonpayable",
      "type": "function"
    }
  ],
  "bytecode": "0x6080604052600060055534801561001557600080fd5b50611df8806100256000396000f3fe608060405234801561001057600080fd5b506004361061022d5760003560e01c8063704802751161013b578063a77a29fc116100b8578063d547741f1161007c578063d547741f146104e0578063eab73ca1146104f3578063ed5131f51461050b578063f47f2f1d1461051e578063fc0c546a1461053157600080fd5b8063a77a29fc1461047f578063b8e010de14610492578063b911135f146104a6578063be72f2d3146104cf578063cfc412be146104d757600080fd5b806391d14854116100ff57806391d14854146104365780639259eaed1461044957806396f1557c1461045c5780639a202d471461046f578063a217fddf1461047757600080fd5b806370480275146103e257806375829def146103f55780638356ca4f146104085780638a19c8bc1461041b5780638da5cb5b1461042357600080fd5b8063256019d6116101c957806350d2a2761161018d57806350d2a27614610360578063550d01a31461039657806355640008146103b95780635a34f1ea146103c257806363a8fd89146103d557600080fd5b8063256019d6146103045780632f2ff15d1461030d57806334b38cc31461032057806336568abe1461033857806341c04d5e1461034b57600080fd5b806301ffc9a71461023257806306fdde031461025a5780630a59fa081461026f5780630e6c5f931461027c5780630f4388c014610291578063117ab874146102b25780631e83409a146102bb578063248a9ca3146102ce57806324d7806c146102f1575b600080fd5b610245610240366004611981565b610544565b60405190151581526020015b60405180910390f35b61026261057b565b6040516102519190611b1a565b600d546102459060ff1681565b61028f61028a366004611904565b610609565b005b6102a461029f36600461193e565b610659565b604051908152602001610251565b6102a460055481565b61028f6102c9366004611904565b61067a565b6102a46102dc36600461193e565b6000908152600e602052604090206001015490565b6102456102ff366004611904565b6108c7565b6102a460045481565b61028f61031b366004611956565b6108e1565b61032861090c565b6040516102519493929190611c6a565b61028f610346366004611956565b6109cf565b6102a4600080516020611da383398151915281565b61038961036e366004611981565b600c602052600090815260409020546001600160a01b031681565b6040516102519190611b06565b6102456103a4366004611904565b600b6020526000908152604090205460ff1681565b6102a460035481565b61028f6103d03660046119c1565b610a4d565b6009546102459060ff1681565b61028f6103f0366004611904565b610c54565b61028f610403366004611904565b610c94565b61028f610416366004611904565b610d47565b6102a4610dd1565b600154610389906001600160a01b031681565b610245610444366004611956565b610ed2565b6102a461045736600461193e565b610efd565b61028f61046a366004611904565b610fcb565b61028f610ffb565b6102a4600081565b61028f61048d3660046119c1565b611049565b60015461024590600160a01b900460ff1681565b6103896104b436600461193e565b600a602052600090815260409020546001600160a01b031681565b61028f61124c565b6102a460065481565b61028f6104ee366004611956565b61127c565b600d546103899061010090046001600160a01b031681565b6102a461051936600461193e565b6112a2565b61024561052c366004611904565b6112b2565b600054610389906001600160a01b031681565b60006001600160e01b03198216637965db0b60e01b148061057557506301ffc9a760e01b6001600160e01b03198316145b92915050565b6002805461058890611d3c565b80601f01602080910402602001604051908101604052809291908181526020018280546105b490611d3c565b80156106015780601f106105d657610100808354040283529160200191610601565b820191906000526020600020905b8154815290600101906020018083116105e457829003601f168201915b505050505081565b610612336112b2565b6106375760405162461bcd60e51b815260040161062e90611bc1565b60405180910390fd5b600080546001600160a01b0319166001600160a01b0392909216919091179055565b6008818154811061066957600080fd5b600091825260209091200154905081565b610683336108c7565b806106925750610692336112b2565b6106ae5760405162461bcd60e51b815260040161062e90611b4d565b60076000815481106106d057634e487b7160e01b600052603260045260246000fd5b906000526020600020015442116107225760405162461bcd60e51b815260206004820152601660248201527515985d5b1d0e881b9bdd081cdd185c9d1959081e595d60521b604482015260640161062e565b6006546003541161076e5760405162461bcd60e51b815260206004820152601660248201527515985d5b1d0e88185b1c9958591e48105b1b0819d95d60521b604482015260640161062e565b6000610778610dd1565b9050600061078582610efd565b6000546040516370a0823160e01b815291925082916001600160a01b03909116906370a08231906107ba903090600401611b06565b60206040518083038186803b1580156107d257600080fd5b505afa1580156107e6573d6000803e3d6000fd5b505050506040513d601f19601f8201168201806040525081019061080a91906119a9565b10156108515760405162461bcd60e51b81526020600482015260166024820152752b30bab63a1d103237b73a103430bb32903a37b5b2b760511b604482015260640161062e565b6005829055600654610864908290611ca7565b60065560005461087e906001600160a01b031684836112be565b60065460405133917f987d620f307ff6b94d58743cb7a7509f24071586a77759b77c2d4e29f75a2f9a916108ba91858252602082015260400190565b60405180910390a2505050565b6000610575600080516020611da383398151915283610ed2565b6000828152600e60205260409020600101546108fd8133611310565b6109078383611374565b505050565b60006060806000600454600760086005548280548060200260200160405190810160405280929190818152602001828054801561096857602002820191906000526020600020905b815481526020019060010190808311610954575b50505050509250818054806020026020016040519081016040528092919081815260200182805480156109ba57602002820191906000526020600020905b8154815260200190600101908083116109a6575b50505050509150935093509350935090919293565b6001600160a01b0381163314610a3f5760405162461bcd60e51b815260206004820152602f60248201527f416363657373436f6e74726f6c3a2063616e206f6e6c792072656e6f756e636560448201526e103937b632b9903337b91039b2b63360891b606482015260840161062e565b610a4982826113fa565b5050565b610a56336112b2565b610a725760405162461bcd60e51b815260040161062e90611bc1565b6000546040516370a0823160e01b81526001600160a01b03909116906370a0823190610aa2903090600401611b06565b60206040518083038186803b158015610aba57600080fd5b505afa158015610ace573d6000803e3d6000fd5b505050506040513d601f19601f82011682018060405250810190610af291906119a9565b861115610b115760405162461bcd60e51b815260040161062e90611c39565b600386905560048590556000805b86821015610bf5576007868684818110610b4957634e487b7160e01b600052603260045260246000fd5b835460018101855560009485526020948590209190940292909201359190920155506008848484818110610b8d57634e487b7160e01b600052603260045260246000fd5b83546001810185556000948552602094859020919094029290920135919092015550838383818110610bcf57634e487b7160e01b600052603260045260246000fd5b9050602002013581610be19190611ca7565b905081610bed81611d71565b925050610b1f565b808814610c375760405162461bcd60e51b815260206004820152601060248201526f191a5999881d1bdd185b105b5bdd5b9d60821b604482015260640161062e565b50506001805460ff60a01b1916600160a01b179055505050505050565b610c5d336112b2565b610c795760405162461bcd60e51b815260040161062e90611bc1565b610c91600080516020611da3833981519152826108e1565b50565b610c9d336108c7565b80610cac5750610cac336112b2565b610cc85760405162461bcd60e51b815260040161062e90611b4d565b6001600160a01b038116610cee5760405162461bcd60e51b815260040161062e90611b8f565b336001600160a01b0382161415610d175760405162461bcd60e51b815260040161062e90611c09565b610d2f600080516020611da3833981519152826108e1565b610c91600080516020611da3833981519152336109cf565b610d50336112b2565b610d6c5760405162461bcd60e51b815260040161062e90611bc1565b6001600160a01b038116610d925760405162461bcd60e51b815260040161062e90611b8f565b336001600160a01b0382161415610dbb5760405162461bcd60e51b815260040161062e90611c09565b610dc66000826108e1565b610c916000336109cf565b6004546000905b8015610ece576007600081548110610e0057634e487b7160e01b600052603260045260246000fd5b9060005260206000200154421015610e1b5760009150610ebc565b6007610e28600183611cde565b81548110610e4657634e487b7160e01b600052603260045260246000fd5b906000526020600020015442108015610e5e57508015155b15610e7557610e6e600182611cde565b9150610ebc565b60076001600454610e869190611cde565b81548110610ea457634e487b7160e01b600052603260045260246000fd5b9060005260206000200154421115610ebc5760045491505b80610ec681611d25565b915050610dd8565b5090565b6000918252600e602090815260408084206001600160a01b0393909316845291905290205460ff1690565b60008060005b83811015610f565760088181548110610f2c57634e487b7160e01b600052603260045260246000fd5b906000526020600020015482610f429190611ca7565b915080610f4e81611d71565b915050610f03565b508260011415610f94576008600081548110610f8257634e487b7160e01b600052603260045260246000fd5b90600052602060002001549150610fc5565b826004541415610fb557600654600354610fae9190611cde565b9150610fc5565b600654610fc29082611cde565b91505b50919050565b610fd4336112b2565b610ff05760405162461bcd60e51b815260040161062e90611bc1565b610c91600082611461565b611004336108c7565b806110135750611013336112b2565b61102f5760405162461bcd60e51b815260040161062e90611b4d565b611047600080516020611da3833981519152336109cf565b565b611052336108c7565b806110615750611061336112b2565b61107d5760405162461bcd60e51b815260040161062e90611b4d565b6000546040516370a0823160e01b81526001600160a01b03909116906370a08231906110ad903090600401611b06565b60206040518083038186803b1580156110c557600080fd5b505afa1580156110d9573d6000803e3d6000fd5b505050506040513d601f19601f820116820180604052508101906110fd91906119a9565b86111561111c5760405162461bcd60e51b815260040161062e90611c39565b60018054600160a01b900460ff16151514156111685760405162461bcd60e51b815260206004820152600b60248201526a185b1c9958591e481cd95d60aa1b604482015260640161062e565b600386905560048590556000805b86821015610bf55760078686848181106111a057634e487b7160e01b600052603260045260246000fd5b8354600181018555600094855260209485902091909402929092013591909201555060088484848181106111e457634e487b7160e01b600052603260045260246000fd5b8354600181018555600094855260209485902091909402929092013591909201555083838381811061122657634e487b7160e01b600052603260045260246000fd5b90506020020135816112389190611ca7565b90508161124481611d71565b925050611176565b611255336112b2565b6112715760405162461bcd60e51b815260040161062e90611bc1565b6110476000336109cf565b6000828152600e60205260409020600101546112988133611310565b61090783836113fa565b6007818154811061066957600080fd5b60006105758183610ed2565b604080516001600160a01b038416602482015260448082018490528251808303909101815260649091019091526020810180516001600160e01b031663a9059cbb60e01b17905261090790849061146b565b61131a8282610ed2565b610a4957611332816001600160a01b0316601461153d565b61133d83602061153d565b60405160200161134e929190611a97565b60408051601f198184030181529082905262461bcd60e51b825261062e91600401611b1a565b61137e8282610ed2565b610a49576000828152600e602090815260408083206001600160a01b03851684529091529020805460ff191660011790556113b63390565b6001600160a01b0316816001600160a01b0316837f2f8788117e7eff1d82e926ec794901d17c78024a50270940304540a733656f0d60405160405180910390a45050565b6114048282610ed2565b15610a49576000828152600e602090815260408083206001600160a01b0385168085529252808320805460ff1916905551339285917ff6391f5c32d9c69d2a47ea670b442974b53935d1edc7fd64eb21e047a839171b9190a45050565b610a498282611374565b60006114c0826040518060400160405280602081526020017f5361666545524332303a206c6f772d6c6576656c2063616c6c206661696c6564815250856001600160a01b03166117269092919063ffffffff16565b80519091501561090757808060200190518101906114de919061191e565b6109075760405162461bcd60e51b815260206004820152602a60248201527f5361666545524332303a204552433230206f7065726174696f6e20646964206e6044820152691bdd081cdd58d8d9595960b21b606482015260840161062e565b6060600061154c836002611cbf565b611557906002611ca7565b67ffffffffffffffff81111561157d57634e487b7160e01b600052604160045260246000fd5b6040519080825280601f01601f1916602001820160405280156115a7576020820181803683370190505b509050600360fc1b816000815181106115d057634e487b7160e01b600052603260045260246000fd5b60200101906001600160f81b031916908160001a905350600f60fb1b8160018151811061160d57634e487b7160e01b600052603260045260246000fd5b60200101906001600160f81b031916908160001a9053506000611631846002611cbf565b61163c906001611ca7565b90505b60018111156116d0576f181899199a1a9b1b9c1cb0b131b232b360811b85600f166010811061167e57634e487b7160e01b600052603260045260246000fd5b1a60f81b8282815181106116a257634e487b7160e01b600052603260045260246000fd5b60200101906001600160f81b031916908160001a90535060049490941c936116c981611d25565b905061163f565b50831561171f5760405162461bcd60e51b815260206004820181905260248201527f537472696e67733a20686578206c656e67746820696e73756666696369656e74604482015260640161062e565b9392505050565b6060611735848460008561173d565b949350505050565b60608247101561179e5760405162461bcd60e51b815260206004820152602660248201527f416464726573733a20696e73756666696369656e742062616c616e636520666f6044820152651c8818d85b1b60d21b606482015260840161062e565b843b6117ec5760405162461bcd60e51b815260206004820152601d60248201527f416464726573733a2063616c6c20746f206e6f6e2d636f6e7472616374000000604482015260640161062e565b600080866001600160a01b031685876040516118089190611a7b565b60006040518083038185875af1925050503d8060008114611845576040519150601f19603f3d011682016040523d82523d6000602084013e61184a565b606091505b509150915061185a828286611865565b979650505050505050565b6060831561187457508161171f565b8251156118845782518084602001fd5b8160405162461bcd60e51b815260040161062e9190611b1a565b80356001600160a01b03811681146118b557600080fd5b919050565b60008083601f8401126118cb578182fd5b50813567ffffffffffffffff8111156118e2578182fd5b6020830191508360208260051b85010111156118fd57600080fd5b9250929050565b600060208284031215611915578081fd5b61171f8261189e565b60006020828403121561192f578081fd5b8151801515811461171f578182fd5b60006020828403121561194f578081fd5b5035919050565b60008060408385031215611968578081fd5b823591506119786020840161189e565b90509250929050565b600060208284031215611992578081fd5b81356001600160e01b03198116811461171f578182fd5b6000602082840312156119ba578081fd5b5051919050565b600080600080600080608087890312156119d9578182fd5b8635955060208701359450604087013567ffffffffffffffff808211156119fe578384fd5b611a0a8a838b016118ba565b90965094506060890135915080821115611a22578384fd5b50611a2f89828a016118ba565b979a9699509497509295939492505050565b6000815180845260208085019450808401835b83811015611a7057815187529582019590820190600101611a54565b509495945050505050565b60008251611a8d818460208701611cf5565b9190910192915050565b76020b1b1b2b9b9a1b7b73a3937b61d1030b1b1b7bab73a1604d1b815260008351611ac9816017850160208801611cf5565b7001034b99036b4b9b9b4b733903937b6329607d1b6017918401918201528351611afa816028840160208801611cf5565b01602801949350505050565b6001600160a01b0391909116815260200190565b6020815260008251806020840152611b39816040850160208701611cf5565b601f01601f19169190910160400192915050565b60208082526022908201527f41636365737369626c653a2043616c6c6572206973206e6f7420616e2061646d60408201526134b760f11b606082015260800190565b60208082526018908201527741636365737369626c653a207a65726f206164647265737360401b604082015260600190565b60208082526028908201527f41636365737369626c653a2043616c6c6572206973206e6f7420616e2070726f6040820152673c3c9030b236b4b760c11b606082015260800190565b60208082526016908201527520b1b1b2b9b9b4b136329d1039b0b6b29030b236b4b760511b604082015260600190565b6020808252601790820152763732b2b2103a379034b7383aba103a3432903a37b5b2b760491b604082015260600190565b848152608060208201526000611c836080830186611a41565b8281036040840152611c958186611a41565b91505082606083015295945050505050565b60008219821115611cba57611cba611d8c565b500190565b6000816000190483118215151615611cd957611cd9611d8c565b500290565b600082821015611cf057611cf0611d8c565b500390565b60005b83811015611d10578181015183820152602001611cf8565b83811115611d1f576000848401525b50505050565b600081611d3457611d34611d8c565b506000190190565b600181811c90821680611d5057607f821691505b60208210811415610fc557634e487b7160e01b600052602260045260246000fd5b6000600019821415611d8557611d85611d8c565b5060010190565b634e487b7160e01b600052601160045260246000fdfe52eafc11f6f81f86878bffd31109a0d92f37506527754f00788853ff9f63b130a2646970667358221220daa166a15de8dcc5470ef15eaf49fa68e5efc87beb497e85dbdd9d82dee08f5564736f6c63430008040033",
  "linkReferences": {},
  "deployedLinkReferences": {}
}