{
  "_format": "hh-sol-artifact-1",
  "contractName": "RewardProgramVault",
  "sourceName": "contracts/typeEVault/RewardProgramVault.sol",
  "abi": [
    {
      "inputs": [],
      "stateMutability": "nonpayable",
      "type": "constructor"
    },
    {
      "anonymous": false,
      "inputs": [
        {
          "indexed": false,
          "internalType": "uint256",
          "name": "idx",
          "type": "uint256"
        },
        {
          "indexed": true,
          "internalType": "address",
          "name": "rewardToken",
          "type": "address"
        },
        {
          "indexed": true,
          "internalType": "address",
          "name": "pool",
          "type": "address"
        },
        {
          "indexed": false,
          "internalType": "uint256",
          "name": "startTime",
          "type": "uint256"
        },
        {
          "indexed": false,
          "internalType": "uint256",
          "name": "endTime",
          "type": "uint256"
        },
        {
          "indexed": false,
          "internalType": "address",
          "name": "refundee",
          "type": "address"
        },
        {
          "indexed": false,
          "internalType": "uint256",
          "name": "reward",
          "type": "uint256"
        }
      ],
      "name": "IncentiveCreatedByRewardProgram",
      "type": "event"
    },
    {
      "anonymous": false,
      "inputs": [
        {
          "indexed": true,
          "internalType": "address",
          "name": "rewardToken",
          "type": "address"
        },
        {
          "indexed": true,
          "internalType": "address",
          "name": "pool",
          "type": "address"
        },
        {
          "indexed": false,
          "internalType": "uint256",
          "name": "startTime",
          "type": "uint256"
        },
        {
          "indexed": false,
          "internalType": "uint256",
          "name": "endTime",
          "type": "uint256"
        },
        {
          "indexed": false,
          "internalType": "address",
          "name": "refundee",
          "type": "address"
        },
        {
          "indexed": false,
          "internalType": "uint256",
          "name": "refund",
          "type": "uint256"
        }
      ],
      "name": "IncentiveEndedByRewardProgram",
      "type": "event"
    },
    {
      "anonymous": false,
      "inputs": [
        {
          "indexed": false,
          "internalType": "uint256",
          "name": "_totalAllocatedAmount",
          "type": "uint256"
        },
        {
          "indexed": false,
          "internalType": "uint256",
          "name": "_claimCounts",
          "type": "uint256"
        },
        {
          "indexed": false,
          "internalType": "uint256[]",
          "name": "_claimTimes",
          "type": "uint256[]"
        },
        {
          "indexed": false,
          "internalType": "uint256[]",
          "name": "_claimAmounts",
          "type": "uint256[]"
        }
      ],
      "name": "Initialized",
      "type": "event"
    },
    {
      "anonymous": false,
      "inputs": [
        {
          "indexed": true,
          "internalType": "bytes32",
          "name": "role",
          "type": "bytes32"
        },
        {
          "indexed": true,
          "internalType": "bytes32",
          "name": "previousAdminRole",
          "type": "bytes32"
        },
        {
          "indexed": true,
          "internalType": "bytes32",
          "name": "newAdminRole",
          "type": "bytes32"
        }
      ],
      "name": "RoleAdminChanged",
      "type": "event"
    },
    {
      "anonymous": false,
      "inputs": [
        {
          "indexed": true,
          "internalType": "bytes32",
          "name": "role",
          "type": "bytes32"
        },
        {
          "indexed": true,
          "internalType": "address",
          "name": "account",
          "type": "address"
        },
        {
          "indexed": true,
          "internalType": "address",
          "name": "sender",
          "type": "address"
        }
      ],
      "name": "RoleGranted",
      "type": "event"
    },
    {
      "anonymous": false,
      "inputs": [
        {
          "indexed": true,
          "internalType": "bytes32",
          "name": "role",
          "type": "bytes32"
        },
        {
          "indexed": true,
          "internalType": "address",
          "name": "account",
          "type": "address"
        },
        {
          "indexed": true,
          "internalType": "address",
          "name": "sender",
          "type": "address"
        }
      ],
      "name": "RoleRevoked",
      "type": "event"
    },
    {
      "inputs": [],
      "name": "DEFAULT_ADMIN_ROLE",
      "outputs": [
        {
          "internalType": "bytes32",
          "name": "",
          "type": "bytes32"
        }
      ],
      "stateMutability": "view",
      "type": "function"
    },
    {
      "inputs": [
        {
          "internalType": "uint256",
          "name": "idx",
          "type": "uint256"
        },
        {
          "internalType": "uint256[]",
          "name": "tokenIds",
          "type": "uint256[]"
        }
      ],
      "name": "IncentiveEnded",
      "outputs": [],
      "stateMutability": "nonpayable",
      "type": "function"
    },
    {
      "inputs": [],
      "name": "PROJECT_ADMIN_ROLE",
      "outputs": [
        {
          "internalType": "bytes32",
          "name": "",
          "type": "bytes32"
        }
      ],
      "stateMutability": "view",
      "type": "function"
    },
    {
      "inputs": [
        {
          "internalType": "address",
          "name": "account",
          "type": "address"
        }
      ],
      "name": "addAdmin",
      "outputs": [],
      "stateMutability": "nonpayable",
      "type": "function"
    },
    {
      "inputs": [
        {
          "internalType": "address",
          "name": "_owner",
          "type": "address"
        }
      ],
      "name": "addProxyAdmin",
      "outputs": [],
      "stateMutability": "nonpayable",
      "type": "function"
    },
    {
      "inputs": [
        {
          "internalType": "address",
          "name": "",
          "type": "address"
        }
      ],
      "name": "aliveImplementation",
      "outputs": [
        {
          "internalType": "bool",
          "name": "",
          "type": "bool"
        }
      ],
      "stateMutability": "view",
      "type": "function"
    },
    {
      "inputs": [
        {
          "internalType": "uint256",
          "name": "_round",
          "type": "uint256"
        }
      ],
      "name": "availableUseAmount",
      "outputs": [
        {
          "internalType": "uint256",
          "name": "amount",
          "type": "uint256"
        }
      ],
      "stateMutability": "view",
      "type": "function"
    },
    {
      "inputs": [],
      "name": "boolLogEvent",
      "outputs": [
        {
          "internalType": "bool",
          "name": "",
          "type": "bool"
        }
      ],
      "stateMutability": "view",
      "type": "function"
    },
    {
      "inputs": [
        {
          "internalType": "address",
          "name": "_pool",
          "type": "address"
        }
      ],
      "name": "changePool",
      "outputs": [],
      "stateMutability": "nonpayable",
      "type": "function"
    },
    {
      "inputs": [
        {
          "internalType": "uint256",
          "name": "_startWaitTime",
          "type": "uint256"
        }
      ],
      "name": "changeSetting",
      "outputs": [],
      "stateMutability": "nonpayable",
      "type": "function"
    },
    {
      "inputs": [
        {
          "internalType": "address",
          "name": "_staker",
          "type": "address"
        }
      ],
      "name": "changeStaker",
      "outputs": [],
      "stateMutability": "nonpayable",
      "type": "function"
    },
    {
      "inputs": [
        {
          "internalType": "address",
          "name": "_token",
          "type": "address"
        }
      ],
      "name": "changeToken",
      "outputs": [],
      "stateMutability": "nonpayable",
      "type": "function"
    },
    {
      "inputs": [
        {
          "internalType": "uint256",
          "name": "",
          "type": "uint256"
        }
      ],
      "name": "claimAmounts",
      "outputs": [
        {
          "internalType": "uint256",
          "name": "",
          "type": "uint256"
        }
      ],
      "stateMutability": "view",
      "type": "function"
    },
    {
      "inputs": [
        {
          "internalType": "uint256",
          "name": "",
          "type": "uint256"
        }
      ],
      "name": "claimTimes",
      "outputs": [
        {
          "internalType": "uint256",
          "name": "",
          "type": "uint256"
        }
      ],
      "stateMutability": "view",
      "type": "function"
    },
    {
      "inputs": [],
      "name": "createProgram",
      "outputs": [],
      "stateMutability": "nonpayable",
      "type": "function"
    },
    {
      "inputs": [],
      "name": "currentRound",
      "outputs": [
        {
          "internalType": "uint256",
          "name": "round",
          "type": "uint256"
        }
      ],
      "stateMutability": "view",
      "type": "function"
    },
    {
      "inputs": [],
      "name": "getClaimInfo",
      "outputs": [
        {
          "internalType": "uint256",
          "name": "_totalClaimCounts",
          "type": "uint256"
        },
        {
          "internalType": "uint256[]",
          "name": "_claimTimes",
          "type": "uint256[]"
        },
        {
          "internalType": "uint256[]",
          "name": "_claimAmounts",
          "type": "uint256[]"
        },
        {
          "internalType": "uint256",
          "name": "_totalClaimsAmount",
          "type": "uint256"
        }
      ],
      "stateMutability": "view",
      "type": "function"
    },
    {
      "inputs": [
        {
          "internalType": "uint256",
          "name": "_round",
          "type": "uint256"
        }
      ],
      "name": "getProgramDuration",
      "outputs": [
        {
          "internalType": "uint256",
          "name": "period",
          "type": "uint256"
        }
      ],
      "stateMutability": "view",
      "type": "function"
    },
    {
      "inputs": [
        {
          "internalType": "bytes32",
          "name": "role",
          "type": "bytes32"
        }
      ],
      "name": "getRoleAdmin",
      "outputs": [
        {
          "internalType": "bytes32",
          "name": "",
          "type": "bytes32"
        }
      ],
      "stateMutability": "view",
      "type": "function"
    },
    {
      "inputs": [
        {
          "internalType": "bytes32",
          "name": "role",
          "type": "bytes32"
        },
        {
          "internalType": "address",
          "name": "account",
          "type": "address"
        }
      ],
      "name": "grantRole",
      "outputs": [],
      "stateMutability": "nonpayable",
      "type": "function"
    },
    {
      "inputs": [
        {
          "internalType": "bytes32",
          "name": "role",
          "type": "bytes32"
        },
        {
          "internalType": "address",
          "name": "account",
          "type": "address"
        }
      ],
      "name": "hasRole",
      "outputs": [
        {
          "internalType": "bool",
          "name": "",
          "type": "bool"
        }
      ],
      "stateMutability": "view",
      "type": "function"
    },
    {
      "inputs": [
        {
          "internalType": "uint256",
          "name": "_totalAllocatedAmount",
          "type": "uint256"
        },
        {
          "internalType": "uint256",
          "name": "_claimCounts",
          "type": "uint256"
        },
        {
          "internalType": "uint256[]",
          "name": "_claimTimes",
          "type": "uint256[]"
        },
        {
          "internalType": "uint256[]",
          "name": "_claimAmounts",
          "type": "uint256[]"
        }
      ],
      "name": "initialize",
      "outputs": [],
      "stateMutability": "nonpayable",
      "type": "function"
    },
    {
      "inputs": [
        {
          "internalType": "address",
          "name": "account",
          "type": "address"
        }
      ],
      "name": "isAdmin",
      "outputs": [
        {
          "internalType": "bool",
          "name": "",
          "type": "bool"
        }
      ],
      "stateMutability": "view",
      "type": "function"
    },
    {
      "inputs": [
        {
          "internalType": "address",
          "name": "account",
          "type": "address"
        }
      ],
      "name": "isProxyAdmin",
      "outputs": [
        {
          "internalType": "bool",
          "name": "",
          "type": "bool"
        }
      ],
      "stateMutability": "view",
      "type": "function"
    },
    {
      "inputs": [],
      "name": "logEventAddress",
      "outputs": [
        {
          "internalType": "address",
          "name": "",
          "type": "address"
        }
      ],
      "stateMutability": "view",
      "type": "function"
    },
    {
      "inputs": [],
      "name": "name",
      "outputs": [
        {
          "internalType": "string",
          "name": "",
          "type": "string"
        }
      ],
      "stateMutability": "view",
      "type": "function"
    },
    {
      "inputs": [],
      "name": "nowClaimRound",
      "outputs": [
        {
          "internalType": "uint256",
          "name": "",
          "type": "uint256"
        }
      ],
      "stateMutability": "view",
      "type": "function"
    },
    {
      "inputs": [],
      "name": "pauseProxy",
      "outputs": [
        {
          "internalType": "bool",
          "name": "",
          "type": "bool"
        }
      ],
      "stateMutability": "view",
      "type": "function"
    },
    {
      "inputs": [],
      "name": "pool",
      "outputs": [
        {
          "internalType": "contract IUniswapV3Pool",
          "name": "",
          "type": "address"
        }
      ],
      "stateMutability": "view",
      "type": "function"
    },
    {
      "inputs": [
        {
          "internalType": "uint256",
          "name": "",
          "type": "uint256"
        }
      ],
      "name": "programs",
      "outputs": [
        {
          "components": [
            {
              "internalType": "contract IERC20Minimal",
              "name": "rewardToken",
              "type": "address"
            },
            {
              "internalType": "contract IUniswapV3Pool",
              "name": "pool",
              "type": "address"
            },
            {
              "internalType": "uint256",
              "name": "startTime",
              "type": "uint256"
            },
            {
              "internalType": "uint256",
              "name": "endTime",
              "type": "uint256"
            },
            {
              "internalType": "address",
              "name": "refundee",
              "type": "address"
            }
          ],
          "internalType": "struct IUniswapV3Staker.IncentiveKey",
          "name": "key",
          "type": "tuple"
        },
        {
          "internalType": "uint256",
          "name": "reward",
          "type": "uint256"
        },
        {
          "internalType": "bool",
          "name": "end",
          "type": "bool"
        }
      ],
      "stateMutability": "view",
      "type": "function"
    },
    {
      "inputs": [
        {
          "internalType": "uint256",
          "name": "",
          "type": "uint256"
        }
      ],
      "name": "proxyImplementation",
      "outputs": [
        {
          "internalType": "address",
          "name": "",
          "type": "address"
        }
      ],
      "stateMutability": "view",
      "type": "function"
    },
    {
      "inputs": [],
      "name": "removeAdmin",
      "outputs": [],
      "stateMutability": "nonpayable",
      "type": "function"
    },
    {
      "inputs": [],
      "name": "removeProxyAdmin",
      "outputs": [],
      "stateMutability": "nonpayable",
      "type": "function"
    },
    {
      "inputs": [
        {
          "internalType": "bytes32",
          "name": "role",
          "type": "bytes32"
        },
        {
          "internalType": "address",
          "name": "account",
          "type": "address"
        }
      ],
      "name": "renounceRole",
      "outputs": [],
      "stateMutability": "nonpayable",
      "type": "function"
    },
    {
      "inputs": [
        {
          "internalType": "bytes32",
          "name": "role",
          "type": "bytes32"
        },
        {
          "internalType": "address",
          "name": "account",
          "type": "address"
        }
      ],
      "name": "revokeRole",
      "outputs": [],
      "stateMutability": "nonpayable",
      "type": "function"
    },
    {
      "inputs": [
        {
          "internalType": "bytes4",
          "name": "",
          "type": "bytes4"
        }
      ],
      "name": "selectorImplementation",
      "outputs": [
        {
          "internalType": "address",
          "name": "",
          "type": "address"
        }
      ],
      "stateMutability": "view",
      "type": "function"
    },
    {
      "inputs": [],
      "name": "staker",
      "outputs": [
        {
          "internalType": "contract IUniswapV3Staker",
          "name": "",
          "type": "address"
        }
      ],
      "stateMutability": "view",
      "type": "function"
    },
    {
      "inputs": [],
      "name": "startWaitTime",
      "outputs": [
        {
          "internalType": "uint256",
          "name": "",
          "type": "uint256"
        }
      ],
      "stateMutability": "view",
      "type": "function"
    },
    {
      "inputs": [
        {
          "internalType": "bytes4",
          "name": "interfaceId",
          "type": "bytes4"
        }
      ],
      "name": "supportsInterface",
      "outputs": [
        {
          "internalType": "bool",
          "name": "",
          "type": "bool"
        }
      ],
      "stateMutability": "view",
      "type": "function"
    },
    {
      "inputs": [],
      "name": "token",
      "outputs": [
        {
          "internalType": "contract IERC20Minimal",
          "name": "",
          "type": "address"
        }
      ],
      "stateMutability": "view",
      "type": "function"
    },
    {
      "inputs": [],
      "name": "totalAllocatedAmount",
      "outputs": [
        {
          "internalType": "uint256",
          "name": "",
          "type": "uint256"
        }
      ],
      "stateMutability": "view",
      "type": "function"
    },
    {
      "inputs": [],
      "name": "totalClaimCounts",
      "outputs": [
        {
          "internalType": "uint256",
          "name": "",
          "type": "uint256"
        }
      ],
      "stateMutability": "view",
      "type": "function"
    },
    {
      "inputs": [],
      "name": "totalClaimsAmount",
      "outputs": [
        {
          "internalType": "uint256",
          "name": "",
          "type": "uint256"
        }
      ],
      "stateMutability": "view",
      "type": "function"
    },
    {
      "inputs": [],
      "name": "totalProgramCount",
      "outputs": [
        {
          "internalType": "uint256",
          "name": "",
          "type": "uint256"
        }
      ],
      "stateMutability": "view",
      "type": "function"
    },
    {
      "inputs": [
        {
          "internalType": "address",
          "name": "newAdmin",
          "type": "address"
        }
      ],
      "name": "transferAdmin",
      "outputs": [],
      "stateMutability": "nonpayable",
      "type": "function"
    },
    {
      "inputs": [
        {
          "internalType": "address",
          "name": "newAdmin",
          "type": "address"
        }
      ],
      "name": "transferProxyAdmin",
      "outputs": [],
      "stateMutability": "nonpayable",
      "type": "function"
    }
  ],
  "bytecode": "0x60806040526000600a5534801561001557600080fd5b506001600055612c2a8061002a6000396000f3fe608060405234801561001057600080fd5b506004361061028a5760003560e01c80637a6072af1161015c578063a77a29fc116100ce578063d547741f11610087578063d547741f14610601578063e37c6df214610614578063eab73ca114610627578063ed5131f51461063f578063f47f2f1d14610652578063fc0c546a1461066557600080fd5b8063a77a29fc1461058e578063ab55979d146105a1578063b911135f146105b4578063be72f2d3146105dd578063c5db7049146105e5578063cfc412be146105f857600080fd5b806391d148541161012057806391d14854146104c057806392db2816146104d357806396f1557c1461055857806397aca93b1461056b5780639a202d471461057e578063a217fddf1461058657600080fd5b80637a6072af14610471578063824038131461047a5780638356ca4f1461048d57806385182416146104a05780638a19c8bc146104b857600080fd5b806336568abe116102005780635ebaf1db116101b95780635ebaf1db1461040f5780635f41e81d1461042257806363a8fd891461042b57806366829b1614610438578063704802751461044b57806375829def1461045e57600080fd5b806336568abe1461037f57806341c04d5e146103925780634339bc30146103a757806350d2a276146103ba578063550d01a3146103e3578063556400081461040657600080fd5b806316f0115b1161025257806316f0115b14610303578063248a9ca31461032357806324d7806c14610346578063256019d61461035957806327377051146103625780632f2ff15d1461036c57600080fd5b806301ffc9a71461028f57806306fdde03146102b75780630a59fa08146102cc5780630f4388c0146102d9578063117ab874146102fa575b600080fd5b6102a261029d3660046124a1565b610678565b60405190151581526020015b60405180910390f35b6102bf6106af565b6040516102ae9190612847565b6012546102a29060ff1681565b6102ec6102e736600461245a565b61073d565b6040519081526020016102ae565b6102ec600a5481565b600254610316906001600160a01b031681565b6040516102ae91906127fc565b6102ec61033136600461245a565b60009081526013602052604090206001015490565b6102a261035436600461241e565b61075e565b6102ec60095481565b61036a610778565b005b61036a61037a366004612472565b61093e565b61036a61038d366004612472565b610969565b6102ec600080516020612bd583398151915281565b61036a6103b536600461241e565b6109e7565b6103166103c83660046124a1565b6011602052600090815260409020546001600160a01b031681565b6102a26103f136600461241e565b60106020526000908152604090205460ff1681565b6102ec60085481565b600354610316906001600160a01b031681565b6102ec60065481565b600e546102a29060ff1681565b61036a61044636600461241e565b610a84565b61036a61045936600461241e565b610b86565b61036a61046c36600461241e565b610bc6565b6102ec60055481565b61036a6104883660046124e1565b610c79565b61036a61049b36600461241e565b611215565b6104a861129f565b6040516102ae9493929190612a2b565b6102ec611362565b6102a26104ce366004612472565b61145d565b6105496104e136600461245a565b600460208181526000928352604092839020835160a08101855281546001600160a01b03908116825260018301548116938201939093526002820154948101949094526003810154606085015291820154166080830152600581015460069091015460ff1683565b6040516102ae939291906129eb565b61036a61056636600461241e565b611488565b6102ec61057936600461245a565b6114b8565b61036a6115d7565b6102ec600081565b61036a61059c3660046125fa565b611625565b61036a6105af36600461241e565b6119f9565b6103166105c236600461245a565b600f602052600090815260409020546001600160a01b031681565b61036a611a96565b61036a6105f336600461245a565b611ac6565b6102ec600b5481565b61036a61060f366004612472565b611b45565b6102ec61062236600461245a565b611b6b565b6012546103169061010090046001600160a01b031681565b6102ec61064d36600461245a565b611c83565b6102a261066036600461241e565b611c93565b600154610316906001600160a01b031681565b60006001600160e01b03198216637965db0b60e01b14806106a957506301ffc9a760e01b6001600160e01b03198316145b92915050565b600780546106bc90612b3d565b80601f01602080910402602001604051908101604052809291908181526020018280546106e890612b3d565b80156107355780601f1061070a57610100808354040283529160200191610735565b820191906000526020600020905b81548152906001019060200180831161071857829003601f168201915b505050505081565b600d818154811061074d57600080fd5b600091825260209091200154905081565b60006106a9600080516020612bd58339815191528361145d565b600260005414156107a45760405162461bcd60e51b815260040161079b90612999565b60405180910390fd5b60026000819055546001600160a01b0316806107d25760405162461bcd60e51b815260040161079b9061285a565b600b546008541161081e5760405162461bcd60e51b815260206004820152601660248201527515985d5b1d0e88185b1c9958591e48105b1b0819d95d60521b604482015260640161079b565b6000610828611362565b90506000610835826114b8565b90506000811161087d5760405162461bcd60e51b81526020600482015260136024820152721b9bc818db185a5b58589b1948185b5bdd5b9d606a1b604482015260640161079b565b600a829055600061088d83611b6b565b9050600081116108cf5760405162461bcd60e51b815260206004820152600d60248201526c3d32b93790323ab930ba34b7b760991b604482015260640161079b565b6040805160a0810182526001546001600160a01b039081168252600254166020820152600654610933928201906109069042612aa8565b8152602001836006544261091a9190612aa8565b6109249190612aa8565b81523060209091015283611c9f565b505060016000555050565b60008281526013602052604090206001015461095a8133611ff5565b6109648383612059565b505050565b6001600160a01b03811633146109d95760405162461bcd60e51b815260206004820152602f60248201527f416363657373436f6e74726f6c3a2063616e206f6e6c792072656e6f756e636560448201526e103937b632b9903337b91039b2b63360891b606482015260840161079b565b6109e382826120df565b5050565b6109f033611c93565b610a0c5760405162461bcd60e51b815260040161079b906128fb565b806001600160a01b038116610a335760405162461bcd60e51b815260040161079b9061285a565b6002546001600160a01b0383811691161415610a615760405162461bcd60e51b815260040161079b90612973565b50600280546001600160a01b0319166001600160a01b0392909216919091179055565b610a8d33611c93565b610aa95760405162461bcd60e51b815260040161079b906128fb565b806001600160a01b038116610ad05760405162461bcd60e51b815260040161079b9061285a565b60095415610b355760405162461bcd60e51b815260206004820152602c60248201527f616c72656164792073657420636c61696d20696e666f2c2063616e6e6f74206360448201526b3430b733b2903a37b5b2b71760a11b606482015260840161079b565b6001546001600160a01b0383811691161415610b635760405162461bcd60e51b815260040161079b90612973565b50600180546001600160a01b0319166001600160a01b0392909216919091179055565b610b8f33611c93565b610bab5760405162461bcd60e51b815260040161079b906128fb565b610bc3600080516020612bd58339815191528261093e565b50565b610bcf3361075e565b80610bde5750610bde33611c93565b610bfa5760405162461bcd60e51b815260040161079b90612887565b6001600160a01b038116610c205760405162461bcd60e51b815260040161079b906128c9565b336001600160a01b0382161415610c495760405162461bcd60e51b815260040161079b90612943565b610c61600080516020612bd58339815191528261093e565b610bc3600080516020612bd583398151915233610969565b60026000541415610c9c5760405162461bcd60e51b815260040161079b90612999565b60026000819055546001600160a01b031680610cca5760405162461bcd60e51b815260040161079b9061285a565b600060055411610d0a5760405162461bcd60e51b815260206004820152600b60248201526a6e6f2070726f6772616d7360a81b604482015260640161079b565b6005548310610d4b5760405162461bcd60e51b815260206004820152600d60248201526c0d2dcecc2d8d2c840d2dcc8caf609b1b604482015260640161079b565b60008381526004602052604090206006015460ff1615610d9b5760405162461bcd60e51b815260206004820152600b60248201526a185b1c9958591e48195b9960aa1b604482015260640161079b565b600083815260046020908152604080832060068101805460ff191660011790559051610dc79201612a0f565b60408051808303601f19018152908290528051602090910120600354636077779560e01b8352600483018290529092506000916001600160a01b039091169063607777959060240160606040518083038186803b158015610e2757600080fd5b505afa158015610e3b573d6000803e3d6000fd5b505050506040513d601f19601f82011682018060405250810190610e5f91906125ad565b925050506001600160601b03811615610eb8576000845111610eb85760405162461bcd60e51b81526020600482015260126024820152713a3432b9329030b9329039ba30b5b2b9399760711b604482015260640161079b565b60005b8451811015610f7457600354600087815260046020526040902086516001600160a01b039092169163f549ab429190889085908110610f0a57634e487b7160e01b600052603260045260246000fd5b60200260200101516040518363ffffffff1660e01b8152600401610f2f929190612a1d565b600060405180830381600087803b158015610f4957600080fd5b505af1158015610f5d573d6000803e3d6000fd5b505050508080610f6c90612b78565b915050610ebb565b50600354604051636077779560e01b8152600481018490526000916001600160a01b03169063607777959060240160606040518083038186803b158015610fba57600080fd5b505afa158015610fce573d6000803e3d6000fd5b505050506040513d601f19601f82011682018060405250810190610ff291906125ad565b925050506001600160601b038116156110585760405162461bcd60e51b815260206004820152602260248201527f616674657220756e7374616b65732c20746865726520617265207374616b6572604482015261399760f11b606482015260840161079b565b60035460008781526004602081905260408083209051632d6b69b960e21b815292936001600160a01b03169263b5ada6e492611095929101612a0f565b602060405180830381600087803b1580156110af57600080fd5b505af11580156110c3573d6000803e3d6000fd5b505050506040513d601f19601f820116820180604052508101906110e791906124c9565b6000888152600460208181526040928390208054600182015460028301546003840154939095015486516001600160a01b03938416958101959095529082169584019590955260608301939093526080820152911660a082015260c08101829052909150611189907fa81d40165204de032a953644848be4b374f4d0037964248eb0006d0f30fb58b79060e0015b604051602081830303815290604052612146565b600087815260046020818152604092839020600181015481546002830154600384015493909501548651958652938501929092526001600160a01b0392831684860152606084018690529351938216939116917ff004ab52f939a9f312e63b42fec19eee6d90d9f47aeb3700af75135790256433919081900360800190a3505060016000555050505050565b61121e33611c93565b61123a5760405162461bcd60e51b815260040161079b906128fb565b6001600160a01b0381166112605760405162461bcd60e51b815260040161079b906128c9565b336001600160a01b03821614156112895760405162461bcd60e51b815260040161079b90612943565b61129460008261093e565b610bc3600033610969565b60006060806000600954600c600d600b54828054806020026020016040519081016040528092919081815260200182805480156112fb57602002820191906000526020600020905b8154815260200190600101908083116112e7575b505050505092508180548060200260200160405190810160405280929190818152602001828054801561134d57602002820191906000526020600020905b815481526020019060010190808311611339575b50505050509150935093509350935090919293565b6000600954600014806113a05750600c60008154811061139257634e487b7160e01b600052603260045260246000fd5b906000526020600020015442105b156113ab5750600090565b60006009541180156113f65750600c60016009546113c99190612adf565b815481106113e757634e487b7160e01b600052603260045260246000fd5b90600052602060002001544210155b15611402575060095490565b60015b60095481101561145957600c818154811061143057634e487b7160e01b600052603260045260246000fd5b906000526020600020015442101561144757919050565b8061145181612b78565b915050611405565b5090565b60009182526013602090815260408084206001600160a01b0393909316845291905290205460ff1690565b61149133611c93565b6114ad5760405162461bcd60e51b815260040161079b906128fb565b610bc36000826121e1565b60008115806114c85750600d5482115b156114d557506000919050565b6001546040516370a0823160e01b81526000916001600160a01b0316906370a08231906115069030906004016127fc565b60206040518083038186803b15801561151e57600080fd5b505afa158015611532573d6000803e3d6000fd5b505050506040513d601f19601f8201168201806040525081019061155691906124c9565b90506000835b600d548110156115b157600d818154811061158757634e487b7160e01b600052603260045260246000fd5b90600052602060002001548261159d9190612aa8565b9150806115a981612b78565b91505061155c565b50808211156115cb576115c48183612adf565b92506115d0565b600092505b5050919050565b6115e03361075e565b806115ef57506115ef33611c93565b61160b5760405162461bcd60e51b815260040161079b90612887565b611623600080516020612bd583398151915233610969565b565b61162e3361075e565b8061163d575061163d33611c93565b6116595760405162461bcd60e51b815260040161079b90612887565b600954158061169f5750600c541580159061169f5750600c60008154811061169157634e487b7160e01b600052603260045260246000fd5b906000526020600020015442105b6116d95760405162461bcd60e51b815260206004820152600b60248201526a185b1c9958591e481cd95d60aa1b604482015260640161079b565b6000851180156116e857508285145b80156116f357508085145b6117325760405162461bcd60e51b815260206004820152601060248201526f77726f6e6720636c61696d206461746160801b604482015260640161079b565b6001546040516370a0823160e01b81526001600160a01b03909116906370a08231906117629030906004016127fc565b60206040518083038186803b15801561177a57600080fd5b505afa15801561178e573d6000803e3d6000fd5b505050506040513d601f19601f820116820180604052508101906117b291906124c9565b8611156117fb5760405162461bcd60e51b81526020600482015260176024820152763732b2b2103a379034b7383aba103a3432903a37b5b2b760491b604482015260640161079b565b6008869055600985905560005b8581101561197057600c54811061186257600c85858381811061183b57634e487b7160e01b600052603260045260246000fd5b835460018101855560009485526020948590209190940292909201359190920155506118b7565b84848281811061188257634e487b7160e01b600052603260045260246000fd5b90506020020135600c82815481106118aa57634e487b7160e01b600052603260045260246000fd5b6000918252602090912001555b600d54811061190957600d8383838181106118e257634e487b7160e01b600052603260045260246000fd5b8354600181018555600094855260209485902091909402929092013591909201555061195e565b82828281811061192957634e487b7160e01b600052603260045260246000fd5b90506020020135600d828154811061195157634e487b7160e01b600052603260045260246000fd5b6000918252602090912001555b8061196881612b78565b915050611808565b506119b07fd2a9b5158cff4d129f58e3e9cb6a13e2414f0ef74f94537777267284c43bba3b87878787878760405160200161117596959493929190612a68565b7f71f6556aa6e2b0794b08114e76e8b43767586d3c024af0f9ff122b38f0efb0b38686868686866040516119e996959493929190612a68565b60405180910390a1505050505050565b611a0233611c93565b611a1e5760405162461bcd60e51b815260040161079b906128fb565b806001600160a01b038116611a455760405162461bcd60e51b815260040161079b9061285a565b6003546001600160a01b0383811691161415611a735760405162461bcd60e51b815260040161079b90612973565b50600380546001600160a01b0319166001600160a01b0392909216919091179055565b611a9f33611c93565b611abb5760405162461bcd60e51b815260040161079b906128fb565b611623600033610969565b611acf3361075e565b80611ade5750611ade33611c93565b611afa5760405162461bcd60e51b815260040161079b90612887565b8060008111611b3f5760405162461bcd60e51b81526020600482015260116024820152705661756c743a207a65726f2076616c756560781b604482015260640161079b565b50600655565b600082815260136020526040902060010154611b618133611ff5565b61096483836120df565b60006001821015611b7e57506000919050565b600954821415611c1a5760095460011415611b9d575062015180919050565b600c8054611bad90600290612adf565b81548110611bcb57634e487b7160e01b600052603260045260246000fd5b600091825260209091200154600c8054611be790600190612adf565b81548110611c0557634e487b7160e01b600052603260045260246000fd5b90600052602060002001546106a99190612adf565b600c54821015611c7b57600c611c31600184612adf565b81548110611c4f57634e487b7160e01b600052603260045260246000fd5b9060005260206000200154600c8381548110611c0557634e487b7160e01b600052603260045260246000fd5b506000919050565b600c818154811061074d57600080fd5b60006106a9818361145d565b600154600354604051636eb1769f60e11b81523060048201526001600160a01b0391821660248201528392919091169063dd62ed3e9060440160206040518083038186803b158015611cf057600080fd5b505afa158015611d04573d6000803e3d6000fd5b505050506040513d601f19601f82011682018060405250810190611d2891906124c9565b1015611dbc5760015460035460085460405163095ea7b360e01b81526001600160a01b039283166004820152602481019190915291169063095ea7b390604401602060405180830381600087803b158015611d8257600080fd5b505af1158015611d96573d6000803e3d6000fd5b505050506040513d601f19601f82011682018060405250810190611dba919061243a565b505b80600b6000828254611dce9190612aa8565b90915550506005805460408051606080820183528682526020808301878152600084860181815287825260048085528783209651805188546001600160a01b03199081166001600160a01b03928316178a559682015160018a018054891691831691909117905598810151600289015595860151600388015560809095015194860180549094169490961693909317909155518286015591516006909101805460ff19169115159190911790558254919290611e8983612b78565b9091555050600354604051635cc5e3d960e01b81526001600160a01b0390911690635cc5e3d990611ec090869086906004016129d0565b600060405180830381600087803b158015611eda57600080fd5b505af1158015611eee573d6000803e3d6000fd5b50505050611f7d7fea0fcb5ebcf0a4e9e25929cd6bfee599590f36d40fe389fb3c9bbf7fbe0869fe82856000015186602001518760400151886060015189608001518960405160200161117597969594939291909687526001600160a01b03958616602088015293851660408701526060860192909252608085015290911660a083015260c082015260e00190565b60208084015184516040808701516060808901516080808b015185518a815298890194909452938701526001600160a01b0391821690860152908401869052918216929116907f3e20e2fe976b54d05e21a488ed708fe20f7d9613447272c19e75a311e321de679060a00160405180910390a3505050565b611fff828261145d565b6109e357612017816001600160a01b031660146121eb565b6120228360206121eb565b60405160200161203392919061278d565b60408051601f198184030181529082905262461bcd60e51b825261079b91600401612847565b612063828261145d565b6109e35760008281526013602090815260408083206001600160a01b03851684529091529020805460ff1916600117905561209b3390565b6001600160a01b0316816001600160a01b0316837f2f8788117e7eff1d82e926ec794901d17c78024a50270940304540a733656f0d60405160405180910390a45050565b6120e9828261145d565b156109e35760008281526013602090815260408083206001600160a01b0385168085529252808320805460ff1916905551339285917ff6391f5c32d9c69d2a47ea670b442974b53935d1edc7fd64eb21e047a839171b9190a45050565b60125460ff16156109e35760125460405163beee31bf60e01b81526101009091046001600160a01b03169063beee31bf906121ab907f0f511e2c213f149e16447d9bc7efa827e53ed9ad3c06cc55db79f52a18b6b5e090869030908790600401612810565b600060405180830381600087803b1580156121c557600080fd5b505af11580156121d9573d6000803e3d6000fd5b505050505050565b6109e38282612059565b606060006121fa836002612ac0565b612205906002612aa8565b67ffffffffffffffff81111561222b57634e487b7160e01b600052604160045260246000fd5b6040519080825280601f01601f191660200182016040528015612255576020820181803683370190505b509050600360fc1b8160008151811061227e57634e487b7160e01b600052603260045260246000fd5b60200101906001600160f81b031916908160001a905350600f60fb1b816001815181106122bb57634e487b7160e01b600052603260045260246000fd5b60200101906001600160f81b031916908160001a90535060006122df846002612ac0565b6122ea906001612aa8565b90505b600181111561237e576f181899199a1a9b1b9c1cb0b131b232b360811b85600f166010811061232c57634e487b7160e01b600052603260045260246000fd5b1a60f81b82828151811061235057634e487b7160e01b600052603260045260246000fd5b60200101906001600160f81b031916908160001a90535060049490941c9361237781612b26565b90506122ed565b5083156123cd5760405162461bcd60e51b815260206004820181905260248201527f537472696e67733a20686578206c656e67746820696e73756666696369656e74604482015260640161079b565b9392505050565b60008083601f8401126123e5578081fd5b50813567ffffffffffffffff8111156123fc578182fd5b6020830191508360208260051b850101111561241757600080fd5b9250929050565b60006020828403121561242f578081fd5b81356123cd81612bbf565b60006020828403121561244b578081fd5b815180151581146123cd578182fd5b60006020828403121561246b578081fd5b5035919050565b60008060408385031215612484578081fd5b82359150602083013561249681612bbf565b809150509250929050565b6000602082840312156124b2578081fd5b81356001600160e01b0319811681146123cd578182fd5b6000602082840312156124da578081fd5b5051919050565b600080604083850312156124f3578182fd5b8235915060208084013567ffffffffffffffff80821115612512578384fd5b818601915086601f830112612525578384fd5b81358181111561253757612537612ba9565b8060051b604051601f19603f8301168101818110858211171561255c5761255c612ba9565b604052828152858101935084860182860187018b101561257a578788fd5b8795505b8386101561259c57803585526001959095019493860193860161257e565b508096505050505050509250929050565b6000806000606084860312156125c1578081fd5b8351925060208401516125d381612bbf565b60408501519092506001600160601b03811681146125ef578182fd5b809150509250925092565b60008060008060008060808789031215612612578182fd5b8635955060208701359450604087013567ffffffffffffffff80821115612637578384fd5b6126438a838b016123d4565b9096509450606089013591508082111561265b578384fd5b5061266889828a016123d4565b979a9699509497509295939492505050565b81835260006001600160fb1b03831115612692578081fd5b8260051b80836020870137939093016020019283525090919050565b6000815180845260208085019450808401835b838110156126dd578151875295820195908201906001016126c1565b509495945050505050565b60008151808452612700816020860160208601612af6565b601f01601f19169290920160200192915050565b80516001600160a01b039081168352602080830151821690840152604080830151908401526060808301519084015260809182015116910152565b80546001600160a01b039081168352600182015481166020840152600282015460408401526003820154606084015260049091015416608090910152565b76020b1b1b2b9b9a1b7b73a3937b61d1030b1b1b7bab73a1604d1b8152600083516127bf816017850160208801612af6565b7001034b99036b4b9b9b4b733903937b6329607d1b60179184019182015283516127f0816028840160208801612af6565b01602801949350505050565b6001600160a01b0391909116815260200190565b84815283602082015260018060a01b038316604082015260806060820152600061283d60808301846126e8565b9695505050505050565b6020815260006123cd60208301846126e8565b6020808252601390820152725661756c743a207a65726f206164647265737360681b604082015260600190565b60208082526022908201527f41636365737369626c653a2043616c6c6572206973206e6f7420616e2061646d60408201526134b760f11b606082015260800190565b60208082526018908201527741636365737369626c653a207a65726f206164647265737360401b604082015260600190565b60208082526028908201527f41636365737369626c653a2043616c6c6572206973206e6f7420616e2070726f6040820152673c3c9030b236b4b760c11b606082015260800190565b60208082526016908201527520b1b1b2b9b9b4b136329d1039b0b6b29030b236b4b760511b604082015260600190565b6020808252600c908201526b73616d65206164647265737360a01b604082015260600190565b6020808252601f908201527f5265656e7472616e637947756172643a207265656e7472616e742063616c6c00604082015260600190565b60c081016129de8285612714565b8260a08301529392505050565b60e081016129f98286612714565b8360a083015282151560c0830152949350505050565b60a081016106a9828461274f565b60c081016129de828561274f565b848152608060208201526000612a4460808301866126ae565b8281036040840152612a5681866126ae565b91505082606083015295945050505050565b868152856020820152608060408201526000612a8860808301868861267a565b8281036060840152612a9b81858761267a565b9998505050505050505050565b60008219821115612abb57612abb612b93565b500190565b6000816000190483118215151615612ada57612ada612b93565b500290565b600082821015612af157612af1612b93565b500390565b60005b83811015612b11578181015183820152602001612af9565b83811115612b20576000848401525b50505050565b600081612b3557612b35612b93565b506000190190565b600181811c90821680612b5157607f821691505b60208210811415612b7257634e487b7160e01b600052602260045260246000fd5b50919050565b6000600019821415612b8c57612b8c612b93565b5060010190565b634e487b7160e01b600052601160045260246000fd5b634e487b7160e01b600052604160045260246000fd5b6001600160a01b0381168114610bc357600080fdfe52eafc11f6f81f86878bffd31109a0d92f37506527754f00788853ff9f63b130a2646970667358221220e0d69fd05a0f47029c37764fe620300077f4d49cfc93d20f95b2e176d3f82cfe64736f6c63430008040033",
  "linkReferences": {},
  "deployedLinkReferences": {}
}