{
  "_format": "hh-sol-artifact-1",
  "contractName": "VestingPublicFund",
  "sourceName": "contracts/VestingPublicFund/VestingPublicFund.sol",
  "abi": [
    {
      "inputs": [],
      "stateMutability": "nonpayable",
      "type": "constructor"
    },
    {
      "anonymous": false,
      "inputs": [
        {
          "indexed": false,
          "internalType": "address",
          "name": "caller",
          "type": "address"
        },
        {
          "indexed": false,
          "internalType": "address",
          "name": "to",
          "type": "address"
        },
        {
          "indexed": false,
          "internalType": "uint256",
          "name": "amount",
          "type": "uint256"
        }
      ],
      "name": "Claimed",
      "type": "event"
    },
    {
      "anonymous": false,
      "inputs": [
        {
          "indexed": false,
          "internalType": "address",
          "name": "from",
          "type": "address"
        },
        {
          "indexed": false,
          "internalType": "uint256",
          "name": "amount",
          "type": "uint256"
        }
      ],
      "name": "Funded",
      "type": "event"
    },
    {
      "anonymous": false,
      "inputs": [
        {
          "indexed": false,
          "internalType": "uint256",
          "name": "_claimCounts",
          "type": "uint256"
        },
        {
          "indexed": false,
          "internalType": "uint256[]",
          "name": "_claimTimes",
          "type": "uint256[]"
        },
        {
          "indexed": false,
          "internalType": "uint256[]",
          "name": "_claimAmounts",
          "type": "uint256[]"
        }
      ],
      "name": "Initialized",
      "type": "event"
    },
    {
      "anonymous": false,
      "inputs": [
        {
          "indexed": true,
          "internalType": "bytes32",
          "name": "role",
          "type": "bytes32"
        },
        {
          "indexed": true,
          "internalType": "bytes32",
          "name": "previousAdminRole",
          "type": "bytes32"
        },
        {
          "indexed": true,
          "internalType": "bytes32",
          "name": "newAdminRole",
          "type": "bytes32"
        }
      ],
      "name": "RoleAdminChanged",
      "type": "event"
    },
    {
      "anonymous": false,
      "inputs": [
        {
          "indexed": true,
          "internalType": "bytes32",
          "name": "role",
          "type": "bytes32"
        },
        {
          "indexed": true,
          "internalType": "address",
          "name": "account",
          "type": "address"
        },
        {
          "indexed": true,
          "internalType": "address",
          "name": "sender",
          "type": "address"
        }
      ],
      "name": "RoleGranted",
      "type": "event"
    },
    {
      "anonymous": false,
      "inputs": [
        {
          "indexed": true,
          "internalType": "bytes32",
          "name": "role",
          "type": "bytes32"
        },
        {
          "indexed": true,
          "internalType": "address",
          "name": "account",
          "type": "address"
        },
        {
          "indexed": true,
          "internalType": "address",
          "name": "sender",
          "type": "address"
        }
      ],
      "name": "RoleRevoked",
      "type": "event"
    },
    {
      "anonymous": false,
      "inputs": [
        {
          "indexed": false,
          "internalType": "bool",
          "name": "_pause",
          "type": "bool"
        }
      ],
      "name": "SetVestingPaused",
      "type": "event"
    },
    {
      "anonymous": false,
      "inputs": [],
      "name": "SetVestingStopped",
      "type": "event"
    },
    {
      "anonymous": false,
      "inputs": [
        {
          "indexed": false,
          "internalType": "address",
          "name": "to",
          "type": "address"
        },
        {
          "indexed": false,
          "internalType": "uint256",
          "name": "amount",
          "type": "uint256"
        }
      ],
      "name": "Withdrawals",
      "type": "event"
    },
    {
      "inputs": [],
      "name": "DEFAULT_ADMIN_ROLE",
      "outputs": [
        {
          "internalType": "bytes32",
          "name": "",
          "type": "bytes32"
        }
      ],
      "stateMutability": "view",
      "type": "function"
    },
    {
      "inputs": [],
      "name": "PROJECT_ADMIN_ROLE",
      "outputs": [
        {
          "internalType": "bytes32",
          "name": "",
          "type": "bytes32"
        }
      ],
      "stateMutability": "view",
      "type": "function"
    },
    {
      "inputs": [
        {
          "internalType": "address",
          "name": "account",
          "type": "address"
        }
      ],
      "name": "addAdmin",
      "outputs": [],
      "stateMutability": "nonpayable",
      "type": "function"
    },
    {
      "inputs": [
        {
          "internalType": "address",
          "name": "_owner",
          "type": "address"
        }
      ],
      "name": "addProxyAdmin",
      "outputs": [],
      "stateMutability": "nonpayable",
      "type": "function"
    },
    {
      "inputs": [
        {
          "internalType": "address",
          "name": "",
          "type": "address"
        }
      ],
      "name": "aliveImplementation",
      "outputs": [
        {
          "internalType": "bool",
          "name": "",
          "type": "bool"
        }
      ],
      "stateMutability": "view",
      "type": "function"
    },
    {
      "inputs": [],
      "name": "allClaimInfos",
      "outputs": [
        {
          "internalType": "uint256",
          "name": "",
          "type": "uint256"
        },
        {
          "internalType": "uint256[]",
          "name": "",
          "type": "uint256[]"
        },
        {
          "internalType": "uint256[]",
          "name": "",
          "type": "uint256[]"
        },
        {
          "internalType": "uint256",
          "name": "",
          "type": "uint256"
        }
      ],
      "stateMutability": "view",
      "type": "function"
    },
    {
      "inputs": [],
      "name": "boolLogEvent",
      "outputs": [
        {
          "internalType": "bool",
          "name": "",
          "type": "bool"
        }
      ],
      "stateMutability": "view",
      "type": "function"
    },
    {
      "inputs": [
        {
          "internalType": "uint256",
          "name": "_round",
          "type": "uint256"
        }
      ],
      "name": "calculClaimAmount",
      "outputs": [
        {
          "internalType": "uint256",
          "name": "amount",
          "type": "uint256"
        }
      ],
      "stateMutability": "view",
      "type": "function"
    },
    {
      "inputs": [
        {
          "internalType": "address",
          "name": "_token",
          "type": "address"
        },
        {
          "internalType": "address",
          "name": "_tosToken",
          "type": "address"
        },
        {
          "internalType": "address",
          "name": "_receivedAddress",
          "type": "address"
        },
        {
          "internalType": "address",
          "name": "_publicSaleVaultAddress",
          "type": "address"
        },
        {
          "internalType": "address",
          "name": "_projectToken",
          "type": "address"
        },
        {
          "internalType": "uint24",
          "name": "_fee",
          "type": "uint24"
        }
      ],
      "name": "changeAddr",
      "outputs": [],
      "stateMutability": "nonpayable",
      "type": "function"
    },
    {
      "inputs": [],
      "name": "claim",
      "outputs": [],
      "stateMutability": "nonpayable",
      "type": "function"
    },
    {
      "inputs": [
        {
          "internalType": "uint256",
          "name": "",
          "type": "uint256"
        }
      ],
      "name": "claimAmounts",
      "outputs": [
        {
          "internalType": "uint256",
          "name": "",
          "type": "uint256"
        }
      ],
      "stateMutability": "view",
      "type": "function"
    },
    {
      "inputs": [
        {
          "internalType": "uint256",
          "name": "",
          "type": "uint256"
        }
      ],
      "name": "claimTimes",
      "outputs": [
        {
          "internalType": "uint256",
          "name": "",
          "type": "uint256"
        }
      ],
      "stateMutability": "view",
      "type": "function"
    },
    {
      "inputs": [],
      "name": "currentRound",
      "outputs": [
        {
          "internalType": "uint256",
          "name": "round",
          "type": "uint256"
        }
      ],
      "stateMutability": "view",
      "type": "function"
    },
    {
      "inputs": [],
      "name": "currentSqrtPriceX96",
      "outputs": [
        {
          "internalType": "uint160",
          "name": "sqrtPriceX96",
          "type": "uint160"
        }
      ],
      "stateMutability": "view",
      "type": "function"
    },
    {
      "inputs": [],
      "name": "fee",
      "outputs": [
        {
          "internalType": "uint24",
          "name": "",
          "type": "uint24"
        }
      ],
      "stateMutability": "view",
      "type": "function"
    },
    {
      "inputs": [
        {
          "internalType": "uint256",
          "name": "amount",
          "type": "uint256"
        }
      ],
      "name": "funding",
      "outputs": [],
      "stateMutability": "nonpayable",
      "type": "function"
    },
    {
      "inputs": [],
      "name": "getPoolAddress",
      "outputs": [
        {
          "internalType": "address",
          "name": "pool",
          "type": "address"
        }
      ],
      "stateMutability": "view",
      "type": "function"
    },
    {
      "inputs": [
        {
          "internalType": "bytes32",
          "name": "role",
          "type": "bytes32"
        }
      ],
      "name": "getRoleAdmin",
      "outputs": [
        {
          "internalType": "bytes32",
          "name": "",
          "type": "bytes32"
        }
      ],
      "stateMutability": "view",
      "type": "function"
    },
    {
      "inputs": [
        {
          "internalType": "bytes32",
          "name": "role",
          "type": "bytes32"
        },
        {
          "internalType": "address",
          "name": "account",
          "type": "address"
        }
      ],
      "name": "grantRole",
      "outputs": [],
      "stateMutability": "nonpayable",
      "type": "function"
    },
    {
      "inputs": [
        {
          "internalType": "bytes32",
          "name": "role",
          "type": "bytes32"
        },
        {
          "internalType": "address",
          "name": "account",
          "type": "address"
        }
      ],
      "name": "hasRole",
      "outputs": [
        {
          "internalType": "bool",
          "name": "",
          "type": "bool"
        }
      ],
      "stateMutability": "view",
      "type": "function"
    },
    {
      "inputs": [
        {
          "internalType": "address",
          "name": "_publicSaleVault",
          "type": "address"
        },
        {
          "internalType": "address",
          "name": "_projectToken",
          "type": "address"
        },
        {
          "internalType": "uint256[]",
          "name": "_claimTimes",
          "type": "uint256[]"
        },
        {
          "internalType": "uint256[]",
          "name": "_claimAmounts",
          "type": "uint256[]"
        },
        {
          "internalType": "uint24",
          "name": "_fee",
          "type": "uint24"
        }
      ],
      "name": "initialize",
      "outputs": [],
      "stateMutability": "nonpayable",
      "type": "function"
    },
    {
      "inputs": [
        {
          "internalType": "address",
          "name": "account",
          "type": "address"
        }
      ],
      "name": "isAdmin",
      "outputs": [
        {
          "internalType": "bool",
          "name": "",
          "type": "bool"
        }
      ],
      "stateMutability": "view",
      "type": "function"
    },
    {
      "inputs": [
        {
          "internalType": "address",
          "name": "_addr",
          "type": "address"
        }
      ],
      "name": "isContract",
      "outputs": [
        {
          "internalType": "bool",
          "name": "_isContract",
          "type": "bool"
        }
      ],
      "stateMutability": "view",
      "type": "function"
    },
    {
      "inputs": [
        {
          "internalType": "address",
          "name": "account",
          "type": "address"
        }
      ],
      "name": "isProxyAdmin",
      "outputs": [
        {
          "internalType": "bool",
          "name": "",
          "type": "bool"
        }
      ],
      "stateMutability": "view",
      "type": "function"
    },
    {
      "inputs": [],
      "name": "logEventAddress",
      "outputs": [
        {
          "internalType": "address",
          "name": "",
          "type": "address"
        }
      ],
      "stateMutability": "view",
      "type": "function"
    },
    {
      "inputs": [],
      "name": "name",
      "outputs": [
        {
          "internalType": "string",
          "name": "",
          "type": "string"
        }
      ],
      "stateMutability": "view",
      "type": "function"
    },
    {
      "inputs": [],
      "name": "nowClaimRound",
      "outputs": [
        {
          "internalType": "uint256",
          "name": "",
          "type": "uint256"
        }
      ],
      "stateMutability": "view",
      "type": "function"
    },
    {
      "inputs": [
        {
          "internalType": "uint256[]",
          "name": "_claimTimes",
          "type": "uint256[]"
        },
        {
          "internalType": "uint256[]",
          "name": "_claimAmounts",
          "type": "uint256[]"
        }
      ],
      "name": "ownerSetting",
      "outputs": [],
      "stateMutability": "nonpayable",
      "type": "function"
    },
    {
      "inputs": [],
      "name": "pauseProxy",
      "outputs": [
        {
          "internalType": "bool",
          "name": "",
          "type": "bool"
        }
      ],
      "stateMutability": "view",
      "type": "function"
    },
    {
      "inputs": [],
      "name": "projectToken",
      "outputs": [
        {
          "internalType": "address",
          "name": "",
          "type": "address"
        }
      ],
      "stateMutability": "view",
      "type": "function"
    },
    {
      "inputs": [
        {
          "internalType": "uint256",
          "name": "",
          "type": "uint256"
        }
      ],
      "name": "proxyImplementation",
      "outputs": [
        {
          "internalType": "address",
          "name": "",
          "type": "address"
        }
      ],
      "stateMutability": "view",
      "type": "function"
    },
    {
      "inputs": [],
      "name": "publicSaleVaultAddress",
      "outputs": [
        {
          "internalType": "address",
          "name": "",
          "type": "address"
        }
      ],
      "stateMutability": "view",
      "type": "function"
    },
    {
      "inputs": [],
      "name": "receivedAddress",
      "outputs": [
        {
          "internalType": "address",
          "name": "",
          "type": "address"
        }
      ],
      "stateMutability": "view",
      "type": "function"
    },
    {
      "inputs": [],
      "name": "removeAdmin",
      "outputs": [],
      "stateMutability": "nonpayable",
      "type": "function"
    },
    {
      "inputs": [],
      "name": "removeProxyAdmin",
      "outputs": [],
      "stateMutability": "nonpayable",
      "type": "function"
    },
    {
      "inputs": [
        {
          "internalType": "bytes32",
          "name": "role",
          "type": "bytes32"
        },
        {
          "internalType": "address",
          "name": "account",
          "type": "address"
        }
      ],
      "name": "renounceRole",
      "outputs": [],
      "stateMutability": "nonpayable",
      "type": "function"
    },
    {
      "inputs": [
        {
          "internalType": "bytes32",
          "name": "role",
          "type": "bytes32"
        },
        {
          "internalType": "address",
          "name": "account",
          "type": "address"
        }
      ],
      "name": "revokeRole",
      "outputs": [],
      "stateMutability": "nonpayable",
      "type": "function"
    },
    {
      "inputs": [
        {
          "internalType": "bytes4",
          "name": "",
          "type": "bytes4"
        }
      ],
      "name": "selectorImplementation",
      "outputs": [
        {
          "internalType": "address",
          "name": "",
          "type": "address"
        }
      ],
      "stateMutability": "view",
      "type": "function"
    },
    {
      "inputs": [],
      "name": "settingCheck",
      "outputs": [
        {
          "internalType": "bool",
          "name": "",
          "type": "bool"
        }
      ],
      "stateMutability": "view",
      "type": "function"
    },
    {
      "inputs": [
        {
          "internalType": "bytes4",
          "name": "interfaceId",
          "type": "bytes4"
        }
      ],
      "name": "supportsInterface",
      "outputs": [
        {
          "internalType": "bool",
          "name": "",
          "type": "bool"
        }
      ],
      "stateMutability": "view",
      "type": "function"
    },
    {
      "inputs": [],
      "name": "token",
      "outputs": [
        {
          "internalType": "address",
          "name": "",
          "type": "address"
        }
      ],
      "stateMutability": "view",
      "type": "function"
    },
    {
      "inputs": [],
      "name": "tosToken",
      "outputs": [
        {
          "internalType": "address",
          "name": "",
          "type": "address"
        }
      ],
      "stateMutability": "view",
      "type": "function"
    },
    {
      "inputs": [],
      "name": "totalAllocatedAmount",
      "outputs": [
        {
          "internalType": "uint256",
          "name": "",
          "type": "uint256"
        }
      ],
      "stateMutability": "view",
      "type": "function"
    },
    {
      "inputs": [],
      "name": "totalClaimCounts",
      "outputs": [
        {
          "internalType": "uint256",
          "name": "",
          "type": "uint256"
        }
      ],
      "stateMutability": "view",
      "type": "function"
    },
    {
      "inputs": [],
      "name": "totalClaimsAmount",
      "outputs": [
        {
          "internalType": "uint256",
          "name": "",
          "type": "uint256"
        }
      ],
      "stateMutability": "view",
      "type": "function"
    },
    {
      "inputs": [
        {
          "internalType": "address",
          "name": "newAdmin",
          "type": "address"
        }
      ],
      "name": "transferAdmin",
      "outputs": [],
      "stateMutability": "nonpayable",
      "type": "function"
    },
    {
      "inputs": [
        {
          "internalType": "address",
          "name": "newAdmin",
          "type": "address"
        }
      ],
      "name": "transferProxyAdmin",
      "outputs": [],
      "stateMutability": "nonpayable",
      "type": "function"
    },
    {
      "inputs": [],
      "name": "uniswapV3Factory",
      "outputs": [
        {
          "internalType": "address",
          "name": "",
          "type": "address"
        }
      ],
      "stateMutability": "view",
      "type": "function"
    }
  ],
  "bytecode": "0x6080604052600060095534801561001557600080fd5b50612914806100256000396000f3fe608060405234801561001057600080fd5b50600436106102605760003560e01c80637048027511610147578063b8d041eb116100be578063b8d041eb14610529578063b911135f1461053c578063be72f2d314610565578063cfc412be1461056d578063d547741f14610576578063ddca3f4314610589578063eab73ca1146105b3578063ed5131f5146105cb578063f47f2f1d146105de578063f586c6d9146105f1578063fab878a4146105f9578063fc0c546a1461060c57600080fd5b8063704802751461046657806375829def146104795780638356ca4f1461048c578063877aaf4f1461049f5780638a19c8bc146104b257806391d14854146104ba57806392ca60c1146104cd578063956f72cd146104e057806396f1557c146104f35780639a202d4714610506578063a217fddf1461050e578063a4de91791461051657600080fd5b806334b38cc3116101db57806334b38cc31461036e57806336568abe1461038657806341c04d5e1461039957806347fd03d9146103ae5780634b60ce77146103c35780634e71d92d146103d657806350d2a276146103de578063550d01a314610407578063556400081461042a5780635b5491821461043357806363a8fd89146104465780636545eb1c1461045357600080fd5b806301ffc9a71461026557806306fdde031461028d5780630a59fa08146102a25780630f4388c0146102af578063117ab874146102d057806316279055146102d957806321cf4370146102f3578063248a9ca31461030757806324d7806c1461032a578063256019d61461033d5780632ed44d60146103465780632f2ff15d1461035b575b600080fd5b61027861027336600461239f565b61061f565b60405190151581526020015b60405180910390f35b610295610656565b6040516102849190612570565b6011546102789060ff1681565b6102c26102bd366004612358565b6106e4565b604051908152602001610284565b6102c260095481565b6102786102e73660046121af565b3b63ffffffff16151590565b60055461027890600160b81b900460ff1681565b6102c2610315366004612358565b60009081526012602052604090206001015490565b6102786103383660046121af565b610705565b6102c260085481565b610359610354366004612248565b61071f565b005b610359610369366004612370565b61088c565b6103766108b7565b6040516102849493929190612735565b610359610394366004612370565b61097a565b6102c26000805160206128bf83398151915281565b6103b66109f8565b604051610284919061251f565b6002546103b6906001600160a01b031681565b610359610aa7565b6103b66103ec36600461239f565b6010602052600090815260409020546001600160a01b031681565b6102786104153660046121af565b600f6020526000908152604090205460ff1681565b6102c260075481565b6003546103b6906001600160a01b031681565b600d546102789060ff1681565b6004546103b6906001600160a01b031681565b6103596104743660046121af565b610bd7565b6103596104873660046121af565b610c17565b61035961049a3660046121af565b610cca565b6001546103b6906001600160a01b031681565b6102c2610d54565b6102786104c8366004612370565b610e3f565b6103596104db366004612358565b610e6a565b6103596104ee3660046121cb565b611132565b6103596105013660046121af565b61129a565b6103596112ca565b6102c2600081565b6102c2610524366004612358565b611316565b6103596105373660046122de565b6113c3565b6103b661054a366004612358565b600e602052600090815260409020546001600160a01b031681565b61035961144e565b6102c2600a5481565b610359610584366004612370565b61147e565b60055461059f90600160a01b900462ffffff1681565b60405162ffffff9091168152602001610284565b6011546103b69061010090046001600160a01b031681565b6102c26105d9366004612358565b6114a4565b6102786105ec3660046121af565b6114b4565b6103b66114c0565b6005546103b6906001600160a01b031681565b6000546103b6906001600160a01b031681565b60006001600160e01b03198216637965db0b60e01b148061065057506301ffc9a760e01b6001600160e01b03198316145b92915050565b6006805461066390612827565b80601f016020809104026020016040519081016040528092919081815260200182805461068f90612827565b80156106dc5780601f106106b1576101008083540402835291602001916106dc565b820191906000526020600020905b8154815290600101906020018083116106bf57829003601f168201915b505050505081565b600c81815481106106f457600080fd5b600091825260209091200154905081565b60006106506000805160206128bf83398151915283610e3f565b846001600160a01b03811661074f5760405162461bcd60e51b8152600401610746906125a3565b60405180910390fd5b846001600160a01b0381166107765760405162461bcd60e51b8152600401610746906125a3565b6004546001600160a01b031633146107d05760405162461bcd60e51b815260206004820152601d60248201527f63616c6c6572206973206e6f74207265636569766564416464726573730000006044820152606401610746565b600554600160b81b900460ff161515600114156108245760405162461bcd60e51b8152602060048201526012602482015271105b1c9958591e481a5b9a5d185b1a5e995960721b6044820152606401610746565b60058054600280546001600160a01b0319166001600160a01b038a81169190911790915589166001600160b81b031990911617600160a01b62ffffff8616021790556108708585611624565b50506005805460ff60b81b1916600160b81b1790555050505050565b6000828152601260205260409020600101546108a88133611b0a565b6108b28383611b6e565b505050565b60006060806000600854600b600c6009548280548060200260200160405190810160405280929190818152602001828054801561091357602002820191906000526020600020905b8154815260200190600101908083116108ff575b505050505092508180548060200260200160405190810160405280929190818152602001828054801561096557602002820191906000526020600020905b815481526020019060010190808311610951575b50505050509150935093509350935090919293565b6001600160a01b03811633146109ea5760405162461bcd60e51b815260206004820152602f60248201527f416363657373436f6e74726f6c3a2063616e206f6e6c792072656e6f756e636560448201526e103937b632b9903337b91039b2b63360891b6064820152608401610746565b6109f48282611bf4565b5050565b600080610a036114c0565b90506001600160a01b03811615801590610a235750803b63ffffffff1615155b15610aa357806001600160a01b0316633850c7bd6040518163ffffffff1660e01b815260040160e06040518083038186803b158015610a6157600080fd5b505afa158015610a75573d6000803e3d6000fd5b505050506040513d601f19601f82011682018060405250810190610a9991906123c7565b5094965050505050505b5090565b610aaf6109f8565b6001600160a01b0316610ad45760405162461bcd60e51b81526004016107469061268c565b600b600081548110610af657634e487b7160e01b600052603260045260246000fd5b9060005260206000200154600014158015610b3c5750600b600081548110610b2e57634e487b7160e01b600052603260045260246000fd5b906000526020600020015442115b610b815760405162461bcd60e51b815260206004820152601660248201527515985d5b1d0e881b9bdd081cdd185c9d1959081e595d60521b6044820152606401610746565b600a5460075411610bcd5760405162461bcd60e51b815260206004820152601660248201527515985d5b1d0e88185b1c9958591e48105b1b0819d95d60521b6044820152606401610746565b610bd5611c5b565b565b610be0336114b4565b610bfc5760405162461bcd60e51b815260040161074690612644565b610c146000805160206128bf8339815191528261088c565b50565b610c2033610705565b80610c2f5750610c2f336114b4565b610c4b5760405162461bcd60e51b8152600401610746906125d0565b6001600160a01b038116610c715760405162461bcd60e51b815260040161074690612612565b336001600160a01b0382161415610c9a5760405162461bcd60e51b8152600401610746906126d0565b610cb26000805160206128bf8339815191528261088c565b610c146000805160206128bf8339815191523361097a565b610cd3336114b4565b610cef5760405162461bcd60e51b815260040161074690612644565b6001600160a01b038116610d155760405162461bcd60e51b815260040161074690612612565b336001600160a01b0382161415610d3e5760405162461bcd60e51b8152600401610746906126d0565b610d4960008261088c565b610c1460003361097a565b600b54600090610d645750600090565b600b600081548110610d8657634e487b7160e01b600052603260045260246000fd5b9060005260206000200154421015610d9c575060005b600b6001600854610dad91906127c9565b81548110610dcb57634e487b7160e01b600052603260045260246000fd5b90600052602060002001544210610de157506008545b60005b600854811015610aa35742600b8281548110610e1057634e487b7160e01b600052603260045260246000fd5b906000526020600020015411610aa357610e2b816001612772565b915080610e3781612862565b915050610de4565b60009182526012602090815260408084206001600160a01b0393909316845291905290205460ff1690565b610e726109f8565b6001600160a01b0316610e975760405162461bcd60e51b81526004016107469061268c565b600b54610ee65760405162461bcd60e51b815260206004820181905260248201527f736574207570206120636c61696d20726f756e6420666f722076657374696e676044820152606401610746565b6005546001600160a01b03163314610f405760405162461bcd60e51b815260206004820152601e60248201527f63616c6c6572206973206e6f74207075626c696353616c655661756c742e00006044820152606401610746565b600054600554604051636eb1769f60e11b81526001600160a01b0391821660048201523060248201528392919091169063dd62ed3e9060440160206040518083038186803b158015610f9157600080fd5b505afa158015610fa5573d6000803e3d6000fd5b505050506040513d601f19601f82011682018060405250810190610fc9919061245e565b10156110175760405162461bcd60e51b815260206004820152601f60248201527f66756e64696e673a20696e73756666696369656e7420616c6c6f77616e6365006044820152606401610746565b80600760008282546110299190612772565b90915550506000546005546040516323b872dd60e01b81526001600160a01b03928316926323b872dd926110669291169030908690600401612533565b602060405180830381600087803b15801561108057600080fd5b505af1158015611094573d6000803e3d6000fd5b505050506040513d601f19601f820116820180604052508101906110b8919061233e565b507f5af8184bef8e4b45eb9f6ed7734d04da38ced226495548f46e0c8ff8d7d9a52433826040516110ea929190612557565b60405180910390a160006110fc610d54565b90506000811180156111165750600061111482611316565b115b80156111255750600a54600754115b156109f4576109f4611c5b565b61113b336114b4565b6111575760405162461bcd60e51b815260040161074690612644565b856001600160a01b03811661117e5760405162461bcd60e51b8152600401610746906125a3565b856001600160a01b0381166111a55760405162461bcd60e51b8152600401610746906125a3565b856001600160a01b0381166111cc5760405162461bcd60e51b8152600401610746906125a3565b856001600160a01b0381166111f35760405162461bcd60e51b8152600401610746906125a3565b856001600160a01b03811661121a5760405162461bcd60e51b8152600401610746906125a3565b5050600080546001600160a01b039a8b166001600160a01b03199182161790915560018054998b1699821699909917909855505060048054958816958716959095179094556005805460028054948916949097169390931790955562ffffff16600160a01b026001600160b81b0319909116919094161792909217905550565b6112a3336114b4565b6112bf5760405162461bcd60e51b815260040161074690612644565b610c14600082611e75565b6112d333610705565b806112e257506112e2336114b4565b6112fe5760405162461bcd60e51b8152600401610746906125d0565b610bd56000805160206128bf8339815191523361097a565b6000611320610d54565b61132c57506000919050565b600854158061133b5750600754155b1561134857506000919050565b81600854141561136257600a5460075461065091906127c9565b600a546064600c6113746001866127c9565b8154811061139257634e487b7160e01b600052603260045260246000fd5b90600052602060002001546007546113aa91906127aa565b6113b4919061278a565b61065091906127c9565b919050565b6113cc336114b4565b6113e85760405162461bcd60e51b815260040161074690612644565b600554600160b81b900460ff161515600114156114175761140b600b6000612067565b611417600c6000612067565b6114218282611624565b600554600160b81b900460ff1615156001146109f4576005805460ff60b81b1916600160b81b1790555050565b611457336114b4565b6114735760405162461bcd60e51b815260040161074690612644565b610bd560003361097a565b60008281526012602052604090206001015461149a8133611b0a565b6108b28383611bf4565b600b81815481106106f457600080fd5b60006106508183610e3f565b6001546000907fe34f199b19b2b4f47f68442619d555527d244f78a3297ea89325f843f87b8b54906001600160a01b0316158061150657506002546001600160a01b0316155b8061151d5750600554600160a01b900462ffffff16155b8061153157506003546001600160a01b0316155b1561153e57600091505090565b6001546002546001600160a01b0391821691168082111561156f5750506002546001546001600160a01b0391821691165b600354600554604080516001600160a01b03868116602083015285811692820192909252600160a01b90920462ffffff166060830152909116906080016040516020818303038152906040528051906020012084604051602001611603939291906001600160f81b0319815260609390931b6001600160601b03191660018401526015830191909152603582015260550190565b6040516020818303038152906040528051906020012060001c935050505090565b81516116805760405162461bcd60e51b815260206004820152602560248201527f636c61696d436f756e7473206d7573742062652067726561746572207468616e604482015264207a65726f60d81b6064820152608401610746565b80518251146116eb5760405162461bcd60e51b815260206004820152603160248201527f5f636c61696d54696d657320616e64205f636c61696d416d6f756e7473206c656044820152700dccee8d040c8de40dcdee840dac2e8c6d607b1b6064820152608401610746565b8151816116f96001836127c9565b8151811061171757634e487b7160e01b600052603260045260246000fd5b602002602001015160641461176e5760405162461bcd60e51b815260206004820152601e60248201527f46696e616c20636c61696d416d6f756e7473206973206e6f74203130302500006044820152606401610746565b60015b8181101561192f5742846117866001846127c9565b815181106117a457634e487b7160e01b600052603260045260246000fd5b60200260200101511180156118105750836117c06001836127c9565b815181106117de57634e487b7160e01b600052603260045260246000fd5b602002602001015184828151811061180657634e487b7160e01b600052603260045260246000fd5b6020026020010151115b6118685760405162461bcd60e51b815260206004820152602360248201527f636c61696d54696d65732073686f756c64206e6f742062652064656372656173604482015262696e6760e81b6064820152608401610746565b826118746001836127c9565b8151811061189257634e487b7160e01b600052603260045260246000fd5b60200260200101518382815181106118ba57634e487b7160e01b600052603260045260246000fd5b60200260200101511161191d5760405162461bcd60e51b815260206004820152602560248201527f636c61696d416d6f756e74732073686f756c64206e6f742062652064656372656044820152646173696e6760d81b6064820152608401610746565b8061192781612862565b915050611771565b6008829055816001600160401b0381111561195a57634e487b7160e01b600052604160045260246000fd5b604051908082528060200260200182016040528015611983578160200160208202803683370190505b50805161199891600b91602090910190612085565b50816001600160401b038111156119bf57634e487b7160e01b600052604160045260246000fd5b6040519080825280602002602001820160405280156119e8578160200160208202803683370190505b5080516119fd91600c91602090910190612085565b50600090505b81811015611ac957838181518110611a2b57634e487b7160e01b600052603260045260246000fd5b6020026020010151600b8281548110611a5457634e487b7160e01b600052603260045260246000fd5b9060005260206000200181905550828181518110611a8257634e487b7160e01b600052603260045260246000fd5b6020026020010151600c8281548110611aab57634e487b7160e01b600052603260045260246000fd5b60009182526020909120015580611ac181612862565b915050611a03565b7f12873a1ba5439c01ce32f029af47fb34c77d83bb82778dc104901021ac0a73e0828585604051611afc93929190612700565b60405180910390a150505050565b611b148282610e3f565b6109f457611b2c816001600160a01b03166014611e7f565b611b37836020611e7f565b604051602001611b489291906124b0565b60408051601f198184030181529082905262461bcd60e51b825261074691600401612570565b611b788282610e3f565b6109f45760008281526012602090815260408083206001600160a01b03851684529091529020805460ff19166001179055611bb03390565b6001600160a01b0316816001600160a01b0316837f2f8788117e7eff1d82e926ec794901d17c78024a50270940304540a733656f0d60405160405180910390a45050565b611bfe8282610e3f565b156109f45760008281526012602090815260408083206001600160a01b0385168085529252808320805460ff1916905551339285917ff6391f5c32d9c69d2a47ea670b442974b53935d1edc7fd64eb21e047a839171b9190a45050565b6000611c65610d54565b90506000611c7282611316565b905060008111611cbf5760405162461bcd60e51b8152602060048201526018602482015277636c61696d61626c6520616d6f756e74206973207a65726f60401b6044820152606401610746565b6000546040516370a0823160e01b815282916001600160a01b0316906370a0823190611cef90309060040161251f565b60206040518083038186803b158015611d0757600080fd5b505afa158015611d1b573d6000803e3d6000fd5b505050506040513d601f19601f82011682018060405250810190611d3f919061245e565b1015611d8b5760405162461bcd60e51b815260206004820152601b60248201527a5661756c743a20696e73756666696369656e742062616c616e636560281b6044820152606401610746565b6009829055600a54611d9e908290612772565b600a556000546004805460405163a9059cbb60e01b81526001600160a01b039384169363a9059cbb93611dd79390911691869101612557565b602060405180830381600087803b158015611df157600080fd5b505af1158015611e05573d6000803e3d6000fd5b505050506040513d601f19601f82011682018060405250810190611e29919061233e565b506004546040517ff7a40077ff7a04c7e61f6f26fb13774259ddf1b6bce9ecf26a8276cdd399268391611e699133916001600160a01b0316908590612533565b60405180910390a15050565b6109f48282611b6e565b60606000611e8e8360026127aa565b611e99906002612772565b6001600160401b03811115611ebe57634e487b7160e01b600052604160045260246000fd5b6040519080825280601f01601f191660200182016040528015611ee8576020820181803683370190505b509050600360fc1b81600081518110611f1157634e487b7160e01b600052603260045260246000fd5b60200101906001600160f81b031916908160001a905350600f60fb1b81600181518110611f4e57634e487b7160e01b600052603260045260246000fd5b60200101906001600160f81b031916908160001a9053506000611f728460026127aa565b611f7d906001612772565b90505b6001811115612011576f181899199a1a9b1b9c1cb0b131b232b360811b85600f1660108110611fbf57634e487b7160e01b600052603260045260246000fd5b1a60f81b828281518110611fe357634e487b7160e01b600052603260045260246000fd5b60200101906001600160f81b031916908160001a90535060049490941c9361200a81612810565b9050611f80565b5083156120605760405162461bcd60e51b815260206004820181905260248201527f537472696e67733a20686578206c656e67746820696e73756666696369656e746044820152606401610746565b9392505050565b5080546000825590600052602060002090810190610c1491906120c8565b8280548282559060005260206000209081019282156120c0579160200282015b828111156120c05782518255916020019190600101906120a5565b50610aa39291505b5b80821115610aa357600081556001016120c9565b600082601f8301126120ed578081fd5b813560206001600160401b038083111561210957612109612893565b8260051b604051601f19603f8301168101818110848211171561212e5761212e612893565b6040528481528381019250868401828801850189101561214c578687fd5b8692505b8583101561216e578035845292840192600192909201918401612150565b50979650505050505050565b805180151581146113be57600080fd5b805161ffff811681146113be57600080fd5b803562ffffff811681146113be57600080fd5b6000602082840312156121c0578081fd5b8135612060816128a9565b60008060008060008060c087890312156121e3578182fd5b86356121ee816128a9565b955060208701356121fe816128a9565b9450604087013561220e816128a9565b9350606087013561221e816128a9565b9250608087013561222e816128a9565b915061223c60a0880161219c565b90509295509295509295565b600080600080600060a0868803121561225f578081fd5b853561226a816128a9565b9450602086013561227a816128a9565b935060408601356001600160401b0380821115612295578283fd5b6122a189838a016120dd565b945060608801359150808211156122b6578283fd5b506122c3888289016120dd565b9250506122d26080870161219c565b90509295509295909350565b600080604083850312156122f0578182fd5b82356001600160401b0380821115612306578384fd5b612312868387016120dd565b93506020850135915080821115612327578283fd5b50612334858286016120dd565b9150509250929050565b60006020828403121561234f578081fd5b6120608261217a565b600060208284031215612369578081fd5b5035919050565b60008060408385031215612382578182fd5b823591506020830135612394816128a9565b809150509250929050565b6000602082840312156123b0578081fd5b81356001600160e01b031981168114612060578182fd5b600080600080600080600060e0888a0312156123e1578081fd5b87516123ec816128a9565b8097505060208801518060020b8114612403578182fd5b95506124116040890161218a565b945061241f6060890161218a565b935061242d6080890161218a565b925060a088015160ff81168114612442578182fd5b915061245060c0890161217a565b905092959891949750929550565b60006020828403121561246f578081fd5b5051919050565b6000815180845260208085019450808401835b838110156124a557815187529582019590820190600101612489565b509495945050505050565b76020b1b1b2b9b9a1b7b73a3937b61d1030b1b1b7bab73a1604d1b8152600083516124e28160178501602088016127e0565b7001034b99036b4b9b9b4b733903937b6329607d1b60179184019182015283516125138160288401602088016127e0565b01602801949350505050565b6001600160a01b0391909116815260200190565b6001600160a01b039384168152919092166020820152604081019190915260600190565b6001600160a01b03929092168252602082015260400190565b602081526000825180602084015261258f8160408501602087016127e0565b601f01601f19169190910160400192915050565b6020808252601390820152725661756c743a207a65726f206164647265737360681b604082015260600190565b60208082526022908201527f41636365737369626c653a2043616c6c6572206973206e6f7420616e2061646d60408201526134b760f11b606082015260800190565b60208082526018908201527741636365737369626c653a207a65726f206164647265737360401b604082015260600190565b60208082526028908201527f41636365737369626c653a2043616c6c6572206973206e6f7420616e2070726f6040820152673c3c9030b236b4b760c11b606082015260800190565b60208082526024908201527f706f6f6c27732063757272656e7420737172745072696365583936206973207a60408201526332b9379760e11b606082015260800190565b60208082526016908201527520b1b1b2b9b9b4b136329d1039b0b6b29030b236b4b760511b604082015260600190565b8381526060602082015260006127196060830185612476565b828103604084015261272b8185612476565b9695505050505050565b84815260806020820152600061274e6080830186612476565b82810360408401526127608186612476565b91505082606083015295945050505050565b600082198211156127855761278561287d565b500190565b6000826127a557634e487b7160e01b81526012600452602481fd5b500490565b60008160001904831182151516156127c4576127c461287d565b500290565b6000828210156127db576127db61287d565b500390565b60005b838110156127fb5781810151838201526020016127e3565b8381111561280a576000848401525b50505050565b60008161281f5761281f61287d565b506000190190565b600181811c9082168061283b57607f821691505b6020821081141561285c57634e487b7160e01b600052602260045260246000fd5b50919050565b60006000198214156128765761287661287d565b5060010190565b634e487b7160e01b600052601160045260246000fd5b634e487b7160e01b600052604160045260246000fd5b6001600160a01b0381168114610c1457600080fdfe52eafc11f6f81f86878bffd31109a0d92f37506527754f00788853ff9f63b130a2646970667358221220e775bb8776dc0b51cc827fcd8658c1e80f348ecd9af6600ce417372d609a6f7264736f6c63430008040033",
  "linkReferences": {},
  "deployedLinkReferences": {}
}