{
  "_format": "hh-sol-artifact-1",
  "contractName": "VestingPublicFundFactory",
  "sourceName": "contracts/VestingPublicFundFactory.sol",
  "abi": [
    {
      "inputs": [],
      "stateMutability": "nonpayable",
      "type": "constructor"
    },
    {
      "anonymous": false,
      "inputs": [
        {
          "indexed": false,
          "internalType": "address",
          "name": "contractAddress",
          "type": "address"
        },
        {
          "indexed": false,
          "internalType": "string",
          "name": "name",
          "type": "string"
        }
      ],
      "name": "CreatedVestingPublicFund",
      "type": "event"
    },
    {
      "anonymous": false,
      "inputs": [
        {
          "indexed": true,
          "internalType": "bytes32",
          "name": "role",
          "type": "bytes32"
        },
        {
          "indexed": true,
          "internalType": "bytes32",
          "name": "previousAdminRole",
          "type": "bytes32"
        },
        {
          "indexed": true,
          "internalType": "bytes32",
          "name": "newAdminRole",
          "type": "bytes32"
        }
      ],
      "name": "RoleAdminChanged",
      "type": "event"
    },
    {
      "anonymous": false,
      "inputs": [
        {
          "indexed": true,
          "internalType": "bytes32",
          "name": "role",
          "type": "bytes32"
        },
        {
          "indexed": true,
          "internalType": "address",
          "name": "account",
          "type": "address"
        },
        {
          "indexed": true,
          "internalType": "address",
          "name": "sender",
          "type": "address"
        }
      ],
      "name": "RoleGranted",
      "type": "event"
    },
    {
      "anonymous": false,
      "inputs": [
        {
          "indexed": true,
          "internalType": "bytes32",
          "name": "role",
          "type": "bytes32"
        },
        {
          "indexed": true,
          "internalType": "address",
          "name": "account",
          "type": "address"
        },
        {
          "indexed": true,
          "internalType": "address",
          "name": "sender",
          "type": "address"
        }
      ],
      "name": "RoleRevoked",
      "type": "event"
    },
    {
      "inputs": [],
      "name": "ADMIN_ROLE",
      "outputs": [
        {
          "internalType": "bytes32",
          "name": "",
          "type": "bytes32"
        }
      ],
      "stateMutability": "view",
      "type": "function"
    },
    {
      "inputs": [],
      "name": "BURNER_ROLE",
      "outputs": [
        {
          "internalType": "bytes32",
          "name": "",
          "type": "bytes32"
        }
      ],
      "stateMutability": "view",
      "type": "function"
    },
    {
      "inputs": [],
      "name": "CLAIMER_ROLE",
      "outputs": [
        {
          "internalType": "bytes32",
          "name": "",
          "type": "bytes32"
        }
      ],
      "stateMutability": "view",
      "type": "function"
    },
    {
      "inputs": [],
      "name": "DEFAULT_ADMIN_ROLE",
      "outputs": [
        {
          "internalType": "bytes32",
          "name": "",
          "type": "bytes32"
        }
      ],
      "stateMutability": "view",
      "type": "function"
    },
    {
      "inputs": [],
      "name": "MINTER_ROLE",
      "outputs": [
        {
          "internalType": "bytes32",
          "name": "",
          "type": "bytes32"
        }
      ],
      "stateMutability": "view",
      "type": "function"
    },
    {
      "inputs": [
        {
          "internalType": "address",
          "name": "account",
          "type": "address"
        }
      ],
      "name": "addAdmin",
      "outputs": [],
      "stateMutability": "nonpayable",
      "type": "function"
    },
    {
      "inputs": [
        {
          "internalType": "string",
          "name": "_name",
          "type": "string"
        },
        {
          "internalType": "address",
          "name": "receivedAddress",
          "type": "address"
        }
      ],
      "name": "create",
      "outputs": [
        {
          "internalType": "address",
          "name": "",
          "type": "address"
        }
      ],
      "stateMutability": "nonpayable",
      "type": "function"
    },
    {
      "inputs": [
        {
          "internalType": "uint256",
          "name": "",
          "type": "uint256"
        }
      ],
      "name": "createdContracts",
      "outputs": [
        {
          "internalType": "address",
          "name": "contractAddress",
          "type": "address"
        },
        {
          "internalType": "string",
          "name": "name",
          "type": "string"
        }
      ],
      "stateMutability": "view",
      "type": "function"
    },
    {
      "inputs": [],
      "name": "daoAddress",
      "outputs": [
        {
          "internalType": "address",
          "name": "",
          "type": "address"
        }
      ],
      "stateMutability": "view",
      "type": "function"
    },
    {
      "inputs": [
        {
          "internalType": "uint256",
          "name": "_index",
          "type": "uint256"
        }
      ],
      "name": "getContracts",
      "outputs": [
        {
          "internalType": "address",
          "name": "contractAddress",
          "type": "address"
        },
        {
          "internalType": "string",
          "name": "name",
          "type": "string"
        }
      ],
      "stateMutability": "view",
      "type": "function"
    },
    {
      "inputs": [
        {
          "internalType": "bytes32",
          "name": "role",
          "type": "bytes32"
        }
      ],
      "name": "getRoleAdmin",
      "outputs": [
        {
          "internalType": "bytes32",
          "name": "",
          "type": "bytes32"
        }
      ],
      "stateMutability": "view",
      "type": "function"
    },
    {
      "inputs": [
        {
          "internalType": "bytes32",
          "name": "role",
          "type": "bytes32"
        },
        {
          "internalType": "address",
          "name": "account",
          "type": "address"
        }
      ],
      "name": "grantRole",
      "outputs": [],
      "stateMutability": "nonpayable",
      "type": "function"
    },
    {
      "inputs": [
        {
          "internalType": "bytes32",
          "name": "role",
          "type": "bytes32"
        },
        {
          "internalType": "address",
          "name": "account",
          "type": "address"
        }
      ],
      "name": "hasRole",
      "outputs": [
        {
          "internalType": "bool",
          "name": "",
          "type": "bool"
        }
      ],
      "stateMutability": "view",
      "type": "function"
    },
    {
      "inputs": [
        {
          "internalType": "address",
          "name": "account",
          "type": "address"
        }
      ],
      "name": "isAdmin",
      "outputs": [
        {
          "internalType": "bool",
          "name": "",
          "type": "bool"
        }
      ],
      "stateMutability": "view",
      "type": "function"
    },
    {
      "inputs": [],
      "name": "lastestCreated",
      "outputs": [
        {
          "internalType": "address",
          "name": "contractAddress",
          "type": "address"
        },
        {
          "internalType": "string",
          "name": "name",
          "type": "string"
        }
      ],
      "stateMutability": "view",
      "type": "function"
    },
    {
      "inputs": [],
      "name": "logEventAddress",
      "outputs": [
        {
          "internalType": "address",
          "name": "",
          "type": "address"
        }
      ],
      "stateMutability": "view",
      "type": "function"
    },
    {
      "inputs": [
        {
          "internalType": "address",
          "name": "account",
          "type": "address"
        }
      ],
      "name": "removeAdmin",
      "outputs": [],
      "stateMutability": "nonpayable",
      "type": "function"
    },
    {
      "inputs": [
        {
          "internalType": "bytes32",
          "name": "role",
          "type": "bytes32"
        },
        {
          "internalType": "address",
          "name": "account",
          "type": "address"
        }
      ],
      "name": "renounceRole",
      "outputs": [],
      "stateMutability": "nonpayable",
      "type": "function"
    },
    {
      "inputs": [
        {
          "internalType": "bytes32",
          "name": "role",
          "type": "bytes32"
        },
        {
          "internalType": "address",
          "name": "account",
          "type": "address"
        }
      ],
      "name": "revokeRole",
      "outputs": [],
      "stateMutability": "nonpayable",
      "type": "function"
    },
    {
      "inputs": [
        {
          "internalType": "address[4]",
          "name": "addrs",
          "type": "address[4]"
        }
      ],
      "name": "setBaseInfo",
      "outputs": [],
      "stateMutability": "nonpayable",
      "type": "function"
    },
    {
      "inputs": [
        {
          "internalType": "address",
          "name": "addr",
          "type": "address"
        }
      ],
      "name": "setLogEventAddress",
      "outputs": [],
      "stateMutability": "nonpayable",
      "type": "function"
    },
    {
      "inputs": [
        {
          "internalType": "address",
          "name": "_logic",
          "type": "address"
        }
      ],
      "name": "setLogic",
      "outputs": [],
      "stateMutability": "nonpayable",
      "type": "function"
    },
    {
      "inputs": [
        {
          "internalType": "address",
          "name": "addr",
          "type": "address"
        }
      ],
      "name": "setUpgradeAdmin",
      "outputs": [],
      "stateMutability": "nonpayable",
      "type": "function"
    },
    {
      "inputs": [
        {
          "internalType": "bytes4",
          "name": "interfaceId",
          "type": "bytes4"
        }
      ],
      "name": "supportsInterface",
      "outputs": [
        {
          "internalType": "bool",
          "name": "",
          "type": "bool"
        }
      ],
      "stateMutability": "view",
      "type": "function"
    },
    {
      "inputs": [],
      "name": "token",
      "outputs": [
        {
          "internalType": "address",
          "name": "",
          "type": "address"
        }
      ],
      "stateMutability": "view",
      "type": "function"
    },
    {
      "inputs": [],
      "name": "tosToken",
      "outputs": [
        {
          "internalType": "address",
          "name": "",
          "type": "address"
        }
      ],
      "stateMutability": "view",
      "type": "function"
    },
    {
      "inputs": [],
      "name": "totalCreatedContracts",
      "outputs": [
        {
          "internalType": "uint256",
          "name": "",
          "type": "uint256"
        }
      ],
      "stateMutability": "view",
      "type": "function"
    },
    {
      "inputs": [
        {
          "internalType": "address",
          "name": "newAdmin",
          "type": "address"
        }
      ],
      "name": "transferAdmin",
      "outputs": [],
      "stateMutability": "nonpayable",
      "type": "function"
    },
    {
      "inputs": [],
      "name": "uniswapV3Factory",
      "outputs": [
        {
          "internalType": "address",
          "name": "",
          "type": "address"
        }
      ],
      "stateMutability": "view",
      "type": "function"
    },
    {
      "inputs": [],
      "name": "upgradeAdmin",
      "outputs": [
        {
          "internalType": "address",
          "name": "",
          "type": "address"
        }
      ],
      "stateMutability": "view",
      "type": "function"
    },
    {
      "inputs": [
        {
          "internalType": "address",
          "name": "_contract",
          "type": "address"
        },
        {
          "internalType": "bytes4[]",
          "name": "_selectors",
          "type": "bytes4[]"
        },
        {
          "internalType": "address",
          "name": "_imp",
          "type": "address"
        }
      ],
      "name": "upgradeContractFunction",
      "outputs": [],
      "stateMutability": "nonpayable",
      "type": "function"
    },
    {
      "inputs": [
        {
          "internalType": "address",
          "name": "_contract",
          "type": "address"
        },
        {
          "internalType": "address",
          "name": "_logic",
          "type": "address"
        },
        {
          "internalType": "uint256",
          "name": "_index",
          "type": "uint256"
        },
        {
          "internalType": "bool",
          "name": "_alive",
          "type": "bool"
        }
      ],
      "name": "upgradeContractLogic",
      "outputs": [],
      "stateMutability": "nonpayable",
      "type": "function"
    },
    {
      "inputs": [],
      "name": "vaultLogic",
      "outputs": [
        {
          "internalType": "address",
          "name": "",
          "type": "address"
        }
      ],
      "stateMutability": "view",
      "type": "function"
    }
  ],
  "bytecode": "0x60806040523480156200001157600080fd5b506000600155620000326000805160206200457c8339815191528062000065565b6200004d6000805160206200457c83398151915233620000b0565b600380546001600160a01b0319163317905562000160565b600082815260208190526040808220600101805490849055905190918391839186917fbd79b86ffe0ab8e8776151514217cd7cacd52c909f66475c3af44e129f0b00ff9190a4505050565b620000bc8282620000c0565b5050565b6000828152602081815260408083206001600160a01b038516845290915290205460ff16620000bc576000828152602081815260408083206001600160a01b03851684529091529020805460ff191660011790556200011c3390565b6001600160a01b0316816001600160a01b0316837f2f8788117e7eff1d82e926ec794901d17c78024a50270940304540a733656f0d60405160405180910390a45050565b61440c80620001706000396000f3fe60806040523480156200001157600080fd5b5060043610620001e15760003560e01c806375b238fc116200010f578063b078147a11620000aa578063b078147a146200044f578063b4d402801462000463578063c4d5608a146200047a578063d0526187146200048e578063d53913931462000498578063d547741f14620004c0578063eab73ca114620004d7578063fc0c546a14620004eb578063fc5f18d314620004ff57600080fd5b806375b238fc14620003a85780637e2826f614620003bf57806384b47b0f14620003d6578063877aaf4f14620003ed57806390d8308a146200040157806391d1485414620004185780639342f417146200042f578063a217fddf146200044657600080fd5b8063338bad5f1162000180578063338bad5f146200030057806336568abe146200030a578063439e23fd14620003215780635b549182146200033857806367c5f8de146200034c57806370480275146200036357806371857000146200037a57806375829def146200039157600080fd5b806301ffc9a714620001e65780630881139714620002125780631785f53c14620002395780632131c68c1462000252578063248a9ca3146200027557806324d7806c14620002aa578063282c51f314620002c15780632f2ff15d14620002e9575b600080fd5b620001fd620001f736600462001b9c565b62000527565b60405190151581526020015b60405180910390f35b620002296200022336600462001b55565b6200055f565b6040516200020992919062001d6d565b620002506200024a36600462001a1d565b62000616565b005b60085462000266906001600160a01b031681565b60405162000209919062001d06565b6200029b6200028636600462001b55565b60009081526020819052604090206001015490565b60405190815260200162000209565b620001fd620002bb36600462001a1d565b62000667565b6200029b7f9667e80708b6eeeb0053fa0cca44e028ff548e2a9f029edfeac87c118b08b7c881565b62000250620002fa36600462001b6e565b62000684565b62000229620006b3565b620002506200031b36600462001b6e565b620007cc565b620002296200033236600462001b55565b6200084e565b60095462000266906001600160a01b031681565b620002506200035d36600462001a3a565b62000934565b620002506200037436600462001a1d565b620009f5565b620002506200038b36600462001a1d565b62000a3a565b62000250620003a236600462001a1d565b62000b0c565b6200029b600080516020620043b783398151915281565b62000250620003d036600462001a1d565b62000c13565b62000266620003e736600462001bb9565b62000cbb565b60075462000266906001600160a01b031681565b620002506200041236600462001b2d565b62001277565b620001fd6200042936600462001b6e565b62001456565b620002506200044036600462001a1d565b6200147f565b6200029b600081565b60045462000266906001600160a01b031681565b620002506200047436600462001a92565b62001527565b60035462000266906001600160a01b031681565b6200029b60015481565b6200029b7ff0887ba65ee2024ea881d91b74c2450ef19e1557f03bed3ea9f16b037cbe2dc981565b62000250620004d136600462001b6e565b620015ad565b60055462000266906001600160a01b031681565b60065462000266906001600160a01b031681565b6200029b7fe5667d34d7ea8d6fdb3aa71a0a5b85e4cf7f68356dd003cd638556b0eea2bce581565b60006001600160e01b03198216637965db0b60e01b14806200055957506301ffc9a760e01b6001600160e01b03198316145b92915050565b600260205260009081526040902080546001820180546001600160a01b0390921692916200058d9062001fd6565b80601f0160208091040260200160405190810160405280929190818152602001828054620005bb9062001fd6565b80156200060c5780601f10620005e0576101008083540402835291602001916200060c565b820191906000526020600020905b815481529060010190602001808311620005ee57829003601f168201915b5050505050905082565b620006213362000667565b620006495760405162461bcd60e51b8152600401620006409062001ef0565b60405180910390fd5b62000664600080516020620043b783398151915282620007cc565b50565b600062000559600080516020620043b78339815191528362001456565b600082815260208190526040902060010154620006a28133620015d7565b620006ae838362001646565b505050565b6000606060006001541115620007b7576002600060018054620006d7919062001f6f565b81526020810191909152604001600090812054600180546001600160a01b039092169260029290916200070a9162001f6f565b8152602001908152602001600020600101808054620007299062001fd6565b80601f0160208091040260200160405190810160405280929190818152602001828054620007579062001fd6565b8015620007a85780601f106200077c57610100808354040283529160200191620007a8565b820191906000526020600020905b8154815290600101906020018083116200078a57829003601f168201915b50505050509050915091509091565b50506040805160208101909152600080825291565b6001600160a01b03811633146200083e5760405162461bcd60e51b815260206004820152602f60248201527f416363657373436f6e74726f6c3a2063616e206f6e6c792072656e6f756e636560448201526e103937b632b9903337b91039b2b63360891b606482015260840162000640565b6200084a8282620016ce565b5050565b600060606001548310156200091c5760008381526002602052604090208054600190910180546001600160a01b039092169181906200088d9062001fd6565b80601f0160208091040260200160405190810160405280929190818152602001828054620008bb9062001fd6565b80156200090c5780601f10620008e0576101008083540402835291602001916200090c565b820191906000526020600020905b815481529060010190602001808311620008ee57829003601f168201915b5050505050905091509150915091565b50506040805160208101909152600080825292909150565b6200093f3362000667565b6200095e5760405162461bcd60e51b8152600401620006409062001ef0565b836001600160a01b038116620009885760405162461bcd60e51b8152600401620006409062001ec4565b604051637cd5f66360e01b81526001600160a01b03861690637cd5f66390620009ba9087908790879060040162001d1a565b600060405180830381600087803b158015620009d557600080fd5b505af1158015620009ea573d6000803e3d6000fd5b505050505050505050565b62000a003362000667565b62000a1f5760405162461bcd60e51b8152600401620006409062001ef0565b62000664600080516020620043b78339815191528262000684565b806001600160a01b03811662000a645760405162461bcd60e51b8152600401620006409062001ec4565b62000a6f3362000667565b62000a8e5760405162461bcd60e51b8152600401620006409062001ef0565b6004546001600160a01b038381169116141562000ae95760405162461bcd60e51b815260206004820152601860248201527730b63932b0b23c9039b2ba103a3434b9903b32b939b4b7b760411b604482015260640162000640565b50600480546001600160a01b0319166001600160a01b0392909216919091179055565b62000b173362000667565b62000b365760405162461bcd60e51b8152600401620006409062001ef0565b6001600160a01b03811662000b895760405162461bcd60e51b815260206004820152601860248201527741636365737369626c653a207a65726f206164647265737360401b604482015260640162000640565b336001600160a01b038216141562000bdd5760405162461bcd60e51b815260206004820152601660248201527520b1b1b2b9b9b4b136329d1039b0b6b29030b236b4b760511b604482015260640162000640565b62000bf8600080516020620043b78339815191528262000684565b62000664600080516020620043b783398151915233620007cc565b62000c1e3362000667565b62000c3d5760405162461bcd60e51b8152600401620006409062001ef0565b806001600160a01b03811662000c675760405162461bcd60e51b8152600401620006409062001ec4565b6005546001600160a01b038381169116141562000c985760405162461bcd60e51b8152600401620006409062001ea0565b50600580546001600160a01b0319166001600160a01b0392909216919091179055565b60008262000cfc5760405162461bcd60e51b815260206004820152600d60248201526c6e616d6520697320656d70747960981b604482015260640162000640565b6006546001600160a01b03161580159062000d2157506008546001600160a01b031615155b801562000d3857506004546001600160a01b031615155b801562000d4f57506003546001600160a01b031615155b801562000d6457506001600160a01b03821615155b62000da95760405162461bcd60e51b8152602060048201526014602482015273736f6d652061646472657373206973207a65726f60601b604482015260640162000640565b600060405162000db99062001933565b604051809103906000f08015801562000dd6573d6000803e3d6000fd5b5090506001600160a01b03811662000e2f5760405162461bcd60e51b815260206004820152601b60248201527a56657374696e675075626c696346756e6450726f7879207a65726f60281b604482015260640162000640565b6003546040516325bc555f60e21b81526001600160a01b03838116926396f1557c9262000e63929091169060040162001d06565b600060405180830381600087803b15801562000e7e57600080fd5b505af115801562000e93573d6000803e3d6000fd5b5050600354604051637048027560e01b81526001600160a01b0380861694506370480275935062000ec992169060040162001d06565b600060405180830381600087803b15801562000ee457600080fd5b505af115801562000ef9573d6000803e3d6000fd5b505060048054604051637cd5f66360e01b81526001600160a01b038087169550637cd5f663945062000f35939216916000916001910162001d1a565b600060405180830381600087803b15801562000f5057600080fd5b505af115801562000f65573d6000803e3d6000fd5b5050600554604051630b8717f760e11b81526001600160a01b03918216600482015260016024820152908416925063170e2fee9150604401600060405180830381600087803b15801562000fb857600080fd5b505af115801562000fcd573d6000803e3d6000fd5b5050600654600754600854600954604051637ba55ab160e01b81526001600160a01b038089169750637ba55ab196506200101f958d958d959183169490831693918316928d9291169060040162001e3a565b600060405180830381600087803b1580156200103a57600080fd5b505af11580156200104f573d6000803e3d6000fd5b50505050806001600160a01b031663be72f2d36040518163ffffffff1660e01b8152600401600060405180830381600087803b1580156200108f57600080fd5b505af1158015620010a4573d6000803e3d6000fd5b505050506040518060400160405280826001600160a01b0316815260200186868080601f0160208091040260200160405190810160405280939291908181526020018383808284376000920182905250939094525050600180548252600260209081526040909220845181546001600160a01b0319166001600160a01b03909116178155848301518051919450620011429392850192019062001941565b5050600180549150600062001157836200200d565b90915550506005546040516001600160a01b039091169063beee31bf907f4588b6e126fef4a2d4bbbd0e0ac55095582563c9be28e8a5ff0d1e78e1e09b0f907f40f46bf4443f90ffeab6fa7b455ce7d86edd010fd44ec7ec62afaed1254a0295903090620011ce9087908c908c9060200162001d3d565b6040516020818303038152906040526040518563ffffffff1660e01b8152600401620011fe949392919062001e01565b600060405180830381600087803b1580156200121957600080fd5b505af11580156200122e573d6000803e3d6000fd5b505050507fd3627a4b6003ef29cef20aa68e9c9403369a12866b9aa218f8452ab355dc4ba9818686604051620012679392919062001d3d565b60405180910390a1949350505050565b620012823362000667565b620012a15760405162461bcd60e51b8152600401620006409062001ef0565b620012b0602082018262001a1d565b6001600160a01b038116620012d95760405162461bcd60e51b8152600401620006409062001ec4565b620012eb604083016020840162001a1d565b6001600160a01b038116620013145760405162461bcd60e51b8152600401620006409062001ec4565b62001326606084016040850162001a1d565b6001600160a01b0381166200134f5760405162461bcd60e51b8152600401620006409062001ec4565b62001361608085016060860162001a1d565b6001600160a01b0381166200138a5760405162461bcd60e51b8152600401620006409062001ec4565b62001399602086018662001a1d565b600680546001600160a01b0319166001600160a01b0392909216919091179055620013cb604086016020870162001a1d565b600780546001600160a01b0319166001600160a01b0392909216919091179055620013fd606086016040870162001a1d565b600880546001600160a01b0319166001600160a01b03929092169190911790556200142f608086016060870162001a1d565b600980546001600160a01b0319166001600160a01b03929092169190911790555050505050565b6000918252602082815260408084206001600160a01b0393909316845291905290205460ff1690565b6200148a3362000667565b620014a95760405162461bcd60e51b8152600401620006409062001ef0565b806001600160a01b038116620014d35760405162461bcd60e51b8152600401620006409062001ec4565b6003546001600160a01b0383811691161415620015045760405162461bcd60e51b8152600401620006409062001ea0565b50600380546001600160a01b0319166001600160a01b0392909216919091179055565b620015323362000667565b620015515760405162461bcd60e51b8152600401620006409062001ef0565b836001600160a01b0381166200157b5760405162461bcd60e51b8152600401620006409062001ec4565b604051634a5df50f60e01b81526001600160a01b03861690634a5df50f90620009ba9087908790879060040162001d9b565b600082815260208190526040902060010154620015cb8133620015d7565b620006ae8383620016ce565b620015e3828262001456565b6200084a57620015fe816001600160a01b0316601462001736565b6200160b83602062001736565b6040516020016200161e92919062001c93565b60408051601f198184030181529082905262461bcd60e51b8252620006409160040162001e8b565b62001652828262001456565b6200084a576000828152602081815260408083206001600160a01b03851684529091529020805460ff191660011790556200168a3390565b6001600160a01b0316816001600160a01b0316837f2f8788117e7eff1d82e926ec794901d17c78024a50270940304540a733656f0d60405160405180910390a45050565b620016da828262001456565b156200084a576000828152602081815260408083206001600160a01b0385168085529252808320805460ff1916905551339285917ff6391f5c32d9c69d2a47ea670b442974b53935d1edc7fd64eb21e047a839171b9190a45050565b606060006200174783600262001f4d565b6200175490600262001f32565b67ffffffffffffffff8111156200177b57634e487b7160e01b600052604160045260246000fd5b6040519080825280601f01601f191660200182016040528015620017a6576020820181803683370190505b509050600360fc1b81600081518110620017d057634e487b7160e01b600052603260045260246000fd5b60200101906001600160f81b031916908160001a905350600f60fb1b816001815181106200180e57634e487b7160e01b600052603260045260246000fd5b60200101906001600160f81b031916908160001a90535060006200183484600262001f4d565b6200184190600162001f32565b90505b6001811115620018db576f181899199a1a9b1b9c1cb0b131b232b360811b85600f16601081106200188557634e487b7160e01b600052603260045260246000fd5b1a60f81b828281518110620018aa57634e487b7160e01b600052603260045260246000fd5b60200101906001600160f81b031916908160001a90535060049490941c93620018d38162001fbc565b905062001844565b5083156200192c5760405162461bcd60e51b815260206004820181905260248201527f537472696e67733a20686578206c656e67746820696e73756666696369656e74604482015260640162000640565b9392505050565b612375806200204283390190565b8280546200194f9062001fd6565b90600052602060002090601f016020900481019282620019735760008555620019be565b82601f106200198e57805160ff1916838001178555620019be565b82800160010185558215620019be579182015b82811115620019be578251825591602001919060010190620019a1565b50620019cc929150620019d0565b5090565b5b80821115620019cc5760008155600101620019d1565b80356001600160a01b0381168114620019ff57600080fd5b919050565b80356001600160e01b031981168114620019ff57600080fd5b60006020828403121562001a2f578081fd5b6200192c82620019e7565b6000806000806080858703121562001a50578283fd5b62001a5b85620019e7565b935062001a6b60208601620019e7565b9250604085013591506060850135801515811462001a87578182fd5b939692955090935050565b6000806000806060858703121562001aa8578384fd5b62001ab385620019e7565b9350602085013567ffffffffffffffff8082111562001ad0578485fd5b818701915087601f83011262001ae4578485fd5b81358181111562001af3578586fd5b8860208260051b850101111562001b08578586fd5b60208301955080945050505062001b2260408601620019e7565b905092959194509250565b60006080828403121562001b3f578081fd5b8260808301111562001b4f578081fd5b50919050565b60006020828403121562001b67578081fd5b5035919050565b6000806040838503121562001b81578182fd5b8235915062001b9360208401620019e7565b90509250929050565b60006020828403121562001bae578081fd5b6200192c8262001a04565b60008060006040848603121562001bce578283fd5b833567ffffffffffffffff8082111562001be6578485fd5b818601915086601f83011262001bfa578485fd5b81358181111562001c09578586fd5b87602082850101111562001c1b578586fd5b60209283019550935062001c339186019050620019e7565b90509250925092565b6000815180845262001c5681602086016020860162001f89565b601f01601f19169290920160200192915050565b81835281816020850137506000828201602090810191909152601f909101601f19169091010190565b76020b1b1b2b9b9a1b7b73a3937b61d1030b1b1b7bab73a1604d1b81526000835162001cc781601785016020880162001f89565b7001034b99036b4b9b9b4b733903937b6329607d1b601791840191820152835162001cfa81602884016020880162001f89565b01602801949350505050565b6001600160a01b0391909116815260200190565b6001600160a01b0393909316835260208301919091521515604082015260600190565b6001600160a01b038416815260406020820181905260009062001d64908301848662001c6a565b95945050505050565b6001600160a01b038316815260406020820181905260009062001d939083018462001c3c565b949350505050565b6040808252810183905260008460608301825b8681101562001de1576001600160e01b031962001dcb8462001a04565b1682526020928301929091019060010162001dae565b506001600160a01b03949094166020939093019290925250909392505050565b84815283602082015260018060a01b038316604082015260806060820152600062001e30608083018462001c3c565b9695505050505050565b60c08152600062001e5060c08301898b62001c6a565b6001600160a01b0397881660208401529587166040830152509285166060840152908416608083015290921660a09092019190915292915050565b6020815260006200192c602083018462001c3c565b6020808252600a908201526973616d6520616464727360b01b604082015260600190565b6020808252601290820152715661756c74466163746f72793a207a65726f60701b604082015260600190565b60208082526022908201527f41636365737369626c653a2043616c6c6572206973206e6f7420616e2061646d60408201526134b760f11b606082015260800190565b6000821982111562001f485762001f486200202b565b500190565b600081600019048311821515161562001f6a5762001f6a6200202b565b500290565b60008282101562001f845762001f846200202b565b500390565b60005b8381101562001fa657818101518382015260200162001f8c565b8381111562001fb6576000848401525b50505050565b60008162001fce5762001fce6200202b565b506000190190565b600181811c9082168062001feb57607f821691505b6020821081141562001b4f57634e487b7160e01b600052602260045260246000fd5b60006000198214156200202457620020246200202b565b5060010190565b634e487b7160e01b600052601160045260246000fdfe608060405260006009553480156200001657600080fd5b50620000437f52eafc11f6f81f86878bffd31109a0d92f37506527754f00788853ff9f63b1308062000082565b6200006f7f52eafc11f6f81f86878bffd31109a0d92f37506527754f00788853ff9f63b13033620000cd565b6200007c600033620000cd565b62000181565b600082815260126020526040808220600101805490849055905190918391839186917fbd79b86ffe0ab8e8776151514217cd7cacd52c909f66475c3af44e129f0b00ff9190a4505050565b620000d98282620000dd565b5050565b60008281526012602090815260408083206001600160a01b038516845290915290205460ff16620000d95760008281526012602090815260408083206001600160a01b03851684529091529020805460ff191660011790556200013d3390565b6001600160a01b0316816001600160a01b0316837f2f8788117e7eff1d82e926ec794901d17c78024a50270940304540a733656f0d60405160405180910390a45050565b6121e480620001916000396000f3fe6080604052600436106102625760003560e01c80636545eb1c1161014557806396f1557c116100bc57806396f1557c1461077b5780639a202d471461079b578063a217fddf146107b0578063b911135f146107c5578063be72f2d3146107fb578063cfc412be14610810578063d547741f14610826578063ddca3f4314610846578063eab73ca11461087d578063ed5131f5146108a2578063f47f2f1d146108c2578063fab878a4146108e2578063fc0c546a14610902576102ab565b80636545eb1c146105fb5780636befec3f1461061b578063704802751461063b57806375829def1461065b5780637ba55ab11461067b5780637cb00d251461069b5780637cd5f663146106bb5780638356ca4f146106db578063877aaf4f146106fb5780638b8f4a651461071b5780638d4fdb401461073b57806391d148541461075b576102ab565b806336568abe116101d957806336568abe146104565780633659cfe61461047657806341c04d5e146104965780634a5df50f146104b85780634b60ce77146104d857806350d2a27614610510578063550d01a31461054657806355640008146105765780635b5491821461058c5780635c60da1b146105ac5780635cc797d8146105c157806363a8fd89146105e1576102ab565b806301ffc9a7146102b557806306fdde03146102ea5780630a59fa081461030c5780630f4388c014610326578063117ab87414610354578063170e2fee1461036a57806321cf43701461038a578063248a9ca3146103ab57806324d7806c146103db578063256019d6146103fb5780632f2ff15d1461041157806334b38cc314610431576102ab565b366102ab5760405162461bcd60e51b815260206004820152601460248201527331b0b73737ba103932b1b2b4bb329022ba3432b960611b60448201526064015b60405180910390fd5b6102b3610922565b005b3480156102c157600080fd5b506102d56102d0366004611d67565b6109cb565b60405190151581526020015b60405180910390f35b3480156102f657600080fd5b506102ff610a02565b6040516102e19190611f36565b34801561031857600080fd5b506011546102d59060ff1681565b34801561033257600080fd5b50610346610341366004611d2d565b610a90565b6040519081526020016102e1565b34801561036057600080fd5b5061034660095481565b34801561037657600080fd5b506102b3610385366004611c30565b610ab1565b34801561039657600080fd5b506005546102d590600160b81b900460ff1681565b3480156103b757600080fd5b506103466103c6366004611d2d565b60009081526012602052604090206001015490565b3480156103e757600080fd5b506102d56103f6366004611c16565b610b8a565b34801561040757600080fd5b5061034660085481565b34801561041d57600080fd5b506102b361042c366004611d45565b610ba4565b34801561043d57600080fd5b50610446610bca565b6040516102e19493929190612055565b34801561046257600080fd5b506102b3610471366004611d45565b610c8d565b34801561048257600080fd5b506102b3610491366004611c16565b610d07565b3480156104a257600080fd5b5061034660008051602061218f83398151915281565b3480156104c457600080fd5b506102b36104d3366004611c9d565b610e0d565b3480156104e457600080fd5b506002546104f8906001600160a01b031681565b6040516001600160a01b0390911681526020016102e1565b34801561051c57600080fd5b506104f861052b366004611d67565b6010602052600090815260409020546001600160a01b031681565b34801561055257600080fd5b506102d5610561366004611c16565b600f6020526000908152604090205460ff1681565b34801561058257600080fd5b5061034660075481565b34801561059857600080fd5b506003546104f8906001600160a01b031681565b3480156105b857600080fd5b506104f8611095565b3480156105cd57600080fd5b506102b36105dc366004611c30565b6110a6565b3480156105ed57600080fd5b50600d546102d59060ff1681565b34801561060757600080fd5b506004546104f8906001600160a01b031681565b34801561062757600080fd5b506102b3610636366004611d13565b6110d5565b34801561064757600080fd5b506102b3610656366004611c16565b6111ad565b34801561066757600080fd5b506102b3610676366004611c16565b6111ed565b34801561068757600080fd5b506102b3610696366004611d8f565b6112a0565b3480156106a757600080fd5b506102b36106b6366004611d13565b6113f5565b3480156106c757600080fd5b506102b36106d6366004611c62565b61143c565b3480156106e757600080fd5b506102b36106f6366004611c16565b61146c565b34801561070757600080fd5b506001546104f8906001600160a01b031681565b34801561072757600080fd5b506104f8610736366004611d2d565b6114f6565b34801561074757600080fd5b506104f8610756366004611d67565b611501565b34801561076757600080fd5b506102d5610776366004611d45565b6115fd565b34801561078757600080fd5b506102b3610796366004611c16565b611628565b3480156107a757600080fd5b506102b3611658565b3480156107bc57600080fd5b50610346600081565b3480156107d157600080fd5b506104f86107e0366004611d2d565b600e602052600090815260409020546001600160a01b031681565b34801561080757600080fd5b506102b36116a6565b34801561081c57600080fd5b50610346600a5481565b34801561083257600080fd5b506102b3610841366004611d45565b6116d6565b34801561085257600080fd5b5060055461086990600160a01b900462ffffff1681565b60405162ffffff90911681526020016102e1565b34801561088957600080fd5b506011546104f89061010090046001600160a01b031681565b3480156108ae57600080fd5b506103466108bd366004611d2d565b6116fc565b3480156108ce57600080fd5b506102d56108dd366004611c16565b61170c565b3480156108ee57600080fd5b506005546104f8906001600160a01b031681565b34801561090e57600080fd5b506000546104f8906001600160a01b031681565b60006109396000356001600160e01b031916611501565b90506001600160a01b038116158015906109565750600d5460ff16155b6109a25760405162461bcd60e51b815260206004820152601d60248201527f50726f78793a20696d706c204f522070726f78792069732066616c736500000060448201526064016102a2565b3660008037600080366000845af43d6000803e8080156109c1573d6000f35b3d6000fd5b505050565b60006001600160e01b03198216637965db0b60e01b14806109fc57506301ffc9a760e01b6001600160e01b03198316145b92915050565b60068054610a0f9061210c565b80601f0160208091040260200160405190810160405280929190818152602001828054610a3b9061210c565b8015610a885780601f10610a5d57610100808354040283529160200191610a88565b820191906000526020600020905b815481529060010190602001808311610a6b57829003601f168201915b505050505081565b600c8181548110610aa057600080fd5b600091825260209091200154905081565b610aba3361170c565b610ad65760405162461bcd60e51b81526004016102a290611fdd565b6011546001600160a01b038381166101009092041614801590610b0157506001600160a01b03821615155b610b425760405162461bcd60e51b815260206004820152601260248201527173616d652076616c7565206f72207a65726f60701b60448201526064016102a2565b601180546001600160a01b03841661010002610100600160a81b03198216811790925560ff918216911617151581151514610b86576011805460ff19168215151790555b5050565b60006109fc60008051602061218f833981519152836115fd565b600082815260126020526040902060010154610bc08133611718565b6109c6838361177c565b60006060806000600854600b600c60095482805480602002602001604051908101604052809291908181526020018280548015610c2657602002820191906000526020600020905b815481526020019060010190808311610c12575b5050505050925081805480602002602001604051908101604052809291908181526020018280548015610c7857602002820191906000526020600020905b815481526020019060010190808311610c64575b50505050509150935093509350935090919293565b6001600160a01b0381163314610cfd5760405162461bcd60e51b815260206004820152602f60248201527f416363657373436f6e74726f6c3a2063616e206f6e6c792072656e6f756e636560448201526e103937b632b9903337b91039b2b63360891b60648201526084016102a2565b610b868282611802565b610d103361170c565b610d2c5760405162461bcd60e51b81526004016102a290611fdd565b6001600160a01b038116610d725760405162461bcd60e51b815260206004820152600d60248201526c696e707574206973207a65726f60981b60448201526064016102a2565b806001600160a01b0316610d866000611869565b6001600160a01b03161415610dc95760405162461bcd60e51b815260206004820152600960248201526839b0b6b29030b2323960b91b60448201526064016102a2565b610dd68160006001611884565b6040516001600160a01b038216907fbc7cd75a20ee27fd9adebab32041f755214dbc6bffa90cc0225b39da2e5c2d3b90600090a250565b610e163361170c565b610e325760405162461bcd60e51b81526004016102a290611fdd565b81610e7f5760405162461bcd60e51b815260206004820181905260248201527f50726f78793a205f73656c6563746f727327732073697a65206973207a65726f60448201526064016102a2565b6001600160a01b0381166000908152600f602052604090205460ff16610ee25760405162461bcd60e51b815260206004820152601860248201527750726f78793a205f696d70206973206e6f7420616c69766560401b60448201526064016102a2565b60005b8281101561108f57816001600160a01b031660106000868685818110610f1b57634e487b7160e01b600052603260045260246000fd5b9050602002016020810190610f309190611d67565b6001600160e01b03191681526020810191909152604001600020546001600160a01b03161415610fa25760405162461bcd60e51b815260206004820152601d60248201527f4c69717569646974795661756c7450726f78793a2073616d6520696d7000000060448201526064016102a2565b8160106000868685818110610fc757634e487b7160e01b600052603260045260246000fd5b9050602002016020810190610fdc9190611d67565b6001600160e01b0319168152602081019190915260400160002080546001600160a01b0319166001600160a01b03928316179055821684848381811061103257634e487b7160e01b600052603260045260246000fd5b90506020020160208101906110479190611d67565b6001600160e01b0319167f14ebc1c32aa68f4d766e89f3e546cee249f7df25183fc10ab1568d91c2ce9b7b60405160405180910390a38061108781612147565b915050610ee5565b50505050565b60006110a16000611869565b905090565b6110af3361170c565b6110cb5760405162461bcd60e51b81526004016102a290611fdd565b610b868282611904565b6110de3361170c565b6110fa5760405162461bcd60e51b81526004016102a290611fdd565b60115460ff16151581151514156111405760405162461bcd60e51b815260206004820152600a60248201526973616d652076616c756560b01b60448201526064016102a2565b801561119a5760115461010090046001600160a01b031661119a5760405162461bcd60e51b81526020600482015260146024820152737a65726f206c6f674576656e744164647265737360601b60448201526064016102a2565b6011805460ff1916911515919091179055565b6111b63361170c565b6111d25760405162461bcd60e51b81526004016102a290611fdd565b6111ea60008051602061218f83398151915282610ba4565b50565b6111f633610b8a565b8061120557506112053361170c565b6112215760405162461bcd60e51b81526004016102a290611f69565b6001600160a01b0381166112475760405162461bcd60e51b81526004016102a290611fab565b336001600160a01b03821614156112705760405162461bcd60e51b81526004016102a290612025565b61128860008051602061218f83398151915282610ba4565b6111ea60008051602061218f83398151915233610c8d565b6112a93361170c565b6112c55760405162461bcd60e51b81526004016102a290611fdd565b600680546112d29061210c565b15905061130f5760405162461bcd60e51b815260206004820152600b60248201526a185b1c9958591e481cd95d60aa1b60448201526064016102a2565b6001600160a01b0385161580159061132f57506001600160a01b03831615155b61136a5760405162461bcd60e51b815260206004820152600c60248201526b7a65726f206164647265737360a01b60448201526064016102a2565b855161137d906006906020890190611b56565b50600080546001600160a01b038088166001600160a01b031992831617909255600180548784169083161790556004805485841690831617905560038054928416929091169190911790556113d183610b8a565b6113ed576113ed60008051602061218f83398151915284611963565b505050505050565b6113fe33610b8a565b8061140d575061140d3361170c565b6114295760405162461bcd60e51b81526004016102a290611f69565b600d805460ff1916911515919091179055565b6114453361170c565b6114615760405162461bcd60e51b81526004016102a290611fdd565b6109c6838383611884565b6114753361170c565b6114915760405162461bcd60e51b81526004016102a290611fdd565b6001600160a01b0381166114b75760405162461bcd60e51b81526004016102a290611fab565b336001600160a01b03821614156114e05760405162461bcd60e51b81526004016102a290612025565b6114eb600082610ba4565b6111ea600033610c8d565b60006109fc82611869565b6001600160e01b031981166000908152601060205260408120546001600160a01b031661156157505060008052600e6020527fe710864318d4a32f37d6ce54cb3fadbef648dd12d8dbdf53973564d56b7f881c546001600160a01b031690565b6001600160e01b031982166000908152601060209081526040808320546001600160a01b03168352600f90915290205460ff16156115bf57506001600160e01b0319166000908152601060205260409020546001600160a01b031690565b505060008052600e6020527fe710864318d4a32f37d6ce54cb3fadbef648dd12d8dbdf53973564d56b7f881c546001600160a01b031690565b919050565b60009182526012602090815260408084206001600160a01b0393909316845291905290205460ff1690565b6116313361170c565b61164d5760405162461bcd60e51b81526004016102a290611fdd565b6111ea600082611963565b61166133610b8a565b8061167057506116703361170c565b61168c5760405162461bcd60e51b81526004016102a290611f69565b6116a460008051602061218f83398151915233610c8d565b565b6116af3361170c565b6116cb5760405162461bcd60e51b81526004016102a290611fdd565b6116a4600033610c8d565b6000828152601260205260409020600101546116f28133611718565b6109c68383611802565b600b8181548110610aa057600080fd5b60006109fc81836115fd565b61172282826115fd565b610b865761173a816001600160a01b0316601461196d565b61174583602061196d565b604051602001611756929190611ec7565b60408051601f198184030181529082905262461bcd60e51b82526102a291600401611f36565b61178682826115fd565b610b865760008281526012602090815260408083206001600160a01b03851684529091529020805460ff191660011790556117be3390565b6001600160a01b0316816001600160a01b0316837f2f8788117e7eff1d82e926ec794901d17c78024a50270940304540a733656f0d60405160405180910390a45050565b61180c82826115fd565b15610b865760008281526012602090815260408083206001600160a01b0385168085529252808320805460ff1916905551339285917ff6391f5c32d9c69d2a47ea670b442974b53935d1edc7fd64eb21e047a839171b9190a45050565b6000908152600e60205260409020546001600160a01b031690565b823b6118d05760405162461bcd60e51b815260206004820152601b60248201527a50726f78793a206e6f7420636f6e7472616374206164647265737360281b60448201526064016102a2565b80156118fe576000828152600e6020526040902080546001600160a01b0319166001600160a01b0385161790555b6109c683825b6001600160a01b0382166000818152600f6020908152604091829020805460ff191685151590811790915591519182527f72558d9bfba4210f9ef095c782589484151f6d90f7a81bb3cb9b33efc695d324910160405180910390a25050565b610b86828261177c565b6060600061197c8360026120aa565b611987906002612092565b67ffffffffffffffff8111156119ad57634e487b7160e01b600052604160045260246000fd5b6040519080825280601f01601f1916602001820160405280156119d7576020820181803683370190505b509050600360fc1b81600081518110611a0057634e487b7160e01b600052603260045260246000fd5b60200101906001600160f81b031916908160001a905350600f60fb1b81600181518110611a3d57634e487b7160e01b600052603260045260246000fd5b60200101906001600160f81b031916908160001a9053506000611a618460026120aa565b611a6c906001612092565b90505b6001811115611b00576f181899199a1a9b1b9c1cb0b131b232b360811b85600f1660108110611aae57634e487b7160e01b600052603260045260246000fd5b1a60f81b828281518110611ad257634e487b7160e01b600052603260045260246000fd5b60200101906001600160f81b031916908160001a90535060049490941c93611af9816120f5565b9050611a6f565b508315611b4f5760405162461bcd60e51b815260206004820181905260248201527f537472696e67733a20686578206c656e67746820696e73756666696369656e7460448201526064016102a2565b9392505050565b828054611b629061210c565b90600052602060002090601f016020900481019282611b845760008555611bca565b82601f10611b9d57805160ff1916838001178555611bca565b82800160010185558215611bca579182015b82811115611bca578251825591602001919060010190611baf565b50611bd6929150611bda565b5090565b5b80821115611bd65760008155600101611bdb565b80356001600160a01b03811681146115f857600080fd5b803580151581146115f857600080fd5b600060208284031215611c27578081fd5b611b4f82611bef565b60008060408385031215611c42578081fd5b611c4b83611bef565b9150611c5960208401611c06565b90509250929050565b600080600060608486031215611c76578081fd5b611c7f84611bef565b925060208401359150611c9460408501611c06565b90509250925092565b600080600060408486031215611cb1578283fd5b833567ffffffffffffffff80821115611cc8578485fd5b818601915086601f830112611cdb578485fd5b813581811115611ce9578586fd5b8760208260051b8501011115611cfd578586fd5b602092830195509350611c949186019050611bef565b600060208284031215611d24578081fd5b611b4f82611c06565b600060208284031215611d3e578081fd5b5035919050565b60008060408385031215611d57578182fd5b82359150611c5960208401611bef565b600060208284031215611d78578081fd5b81356001600160e01b031981168114611b4f578182fd5b60008060008060008060c08789031215611da7578182fd5b863567ffffffffffffffff80821115611dbe578384fd5b818901915089601f830112611dd1578384fd5b813581811115611de357611de3612178565b604051601f8201601f19908116603f01168101908382118183101715611e0b57611e0b612178565b816040528281528c6020848701011115611e23578687fd5b826020860160208301378660208483010152809a505050505050611e4960208801611bef565b9450611e5760408801611bef565b9350611e6560608801611bef565b9250611e7360808801611bef565b9150611e8160a08801611bef565b90509295509295509295565b6000815180845260208085019450808401835b83811015611ebc57815187529582019590820190600101611ea0565b509495945050505050565b76020b1b1b2b9b9a1b7b73a3937b61d1030b1b1b7bab73a1604d1b815260008351611ef98160178501602088016120c9565b7001034b99036b4b9b9b4b733903937b6329607d1b6017918401918201528351611f2a8160288401602088016120c9565b01602801949350505050565b6020815260008251806020840152611f558160408501602087016120c9565b601f01601f19169190910160400192915050565b60208082526022908201527f41636365737369626c653a2043616c6c6572206973206e6f7420616e2061646d60408201526134b760f11b606082015260800190565b60208082526018908201527741636365737369626c653a207a65726f206164647265737360401b604082015260600190565b60208082526028908201527f41636365737369626c653a2043616c6c6572206973206e6f7420616e2070726f6040820152673c3c9030b236b4b760c11b606082015260800190565b60208082526016908201527520b1b1b2b9b9b4b136329d1039b0b6b29030b236b4b760511b604082015260600190565b84815260806020820152600061206e6080830186611e8d565b82810360408401526120808186611e8d565b91505082606083015295945050505050565b600082198211156120a5576120a5612162565b500190565b60008160001904831182151516156120c4576120c4612162565b500290565b60005b838110156120e45781810151838201526020016120cc565b8381111561108f5750506000910152565b60008161210457612104612162565b506000190190565b600181811c9082168061212057607f821691505b6020821081141561214157634e487b7160e01b600052602260045260246000fd5b50919050565b600060001982141561215b5761215b612162565b5060010190565b634e487b7160e01b600052601160045260246000fd5b634e487b7160e01b600052604160045260246000fdfe52eafc11f6f81f86878bffd31109a0d92f37506527754f00788853ff9f63b130a2646970667358221220966a21ccf91ca3c02de7203465b10f59f7c7cf5a9705abdc0e2dc883c97cb42264736f6c63430008040033df8b4c520ffe197c5343c6f5aec59570151ef9a492f2c624fd45ddde6135ec42a26469706673582212209e5d1e731582d96b76b642c92fadcb74d2283cf06d2a4306d52782872da37a9564736f6c63430008040033df8b4c520ffe197c5343c6f5aec59570151ef9a492f2c624fd45ddde6135ec42",
  "linkReferences": {},
  "deployedLinkReferences": {}
}