{
  "_format": "hh-sol-artifact-1",
  "contractName": "WhitelistVault",
  "sourceName": "contracts/vaults/WhitelistVault.sol",
  "abi": [
    {
      "inputs": [
        {
          "internalType": "string",
          "name": "_name",
          "type": "string"
        },
        {
          "internalType": "address",
          "name": "_token",
          "type": "address"
        },
        {
          "internalType": "uint256",
          "name": "_inputMaxOnce",
          "type": "uint256"
        }
      ],
      "stateMutability": "nonpayable",
      "type": "constructor"
    },
    {
      "anonymous": false,
      "inputs": [
        {
          "indexed": false,
          "internalType": "uint256",
          "name": "round",
          "type": "uint256"
        },
        {
          "indexed": false,
          "internalType": "address[]",
          "name": "users",
          "type": "address[]"
        }
      ],
      "name": "AddedWhitelist",
      "type": "event"
    },
    {
      "anonymous": false,
      "inputs": [
        {
          "indexed": false,
          "internalType": "uint256",
          "name": "round",
          "type": "uint256"
        },
        {
          "indexed": false,
          "internalType": "uint256",
          "name": "amount",
          "type": "uint256"
        }
      ],
      "name": "AllocatedAmount",
      "type": "event"
    },
    {
      "anonymous": false,
      "inputs": [
        {
          "indexed": true,
          "internalType": "address",
          "name": "caller",
          "type": "address"
        },
        {
          "indexed": false,
          "internalType": "uint256",
          "name": "amount",
          "type": "uint256"
        },
        {
          "indexed": false,
          "internalType": "uint256",
          "name": "totalClaimedAmount",
          "type": "uint256"
        }
      ],
      "name": "Claimed",
      "type": "event"
    },
    {
      "anonymous": false,
      "inputs": [
        {
          "indexed": true,
          "internalType": "bytes32",
          "name": "role",
          "type": "bytes32"
        },
        {
          "indexed": true,
          "internalType": "bytes32",
          "name": "previousAdminRole",
          "type": "bytes32"
        },
        {
          "indexed": true,
          "internalType": "bytes32",
          "name": "newAdminRole",
          "type": "bytes32"
        }
      ],
      "name": "RoleAdminChanged",
      "type": "event"
    },
    {
      "anonymous": false,
      "inputs": [
        {
          "indexed": true,
          "internalType": "bytes32",
          "name": "role",
          "type": "bytes32"
        },
        {
          "indexed": true,
          "internalType": "address",
          "name": "account",
          "type": "address"
        },
        {
          "indexed": true,
          "internalType": "address",
          "name": "sender",
          "type": "address"
        }
      ],
      "name": "RoleGranted",
      "type": "event"
    },
    {
      "anonymous": false,
      "inputs": [
        {
          "indexed": true,
          "internalType": "bytes32",
          "name": "role",
          "type": "bytes32"
        },
        {
          "indexed": true,
          "internalType": "address",
          "name": "account",
          "type": "address"
        },
        {
          "indexed": true,
          "internalType": "address",
          "name": "sender",
          "type": "address"
        }
      ],
      "name": "RoleRevoked",
      "type": "event"
    },
    {
      "anonymous": false,
      "inputs": [
        {
          "indexed": false,
          "internalType": "address",
          "name": "newClaimer",
          "type": "address"
        }
      ],
      "name": "SetNewClaimer",
      "type": "event"
    },
    {
      "anonymous": false,
      "inputs": [],
      "name": "Started",
      "type": "event"
    },
    {
      "anonymous": false,
      "inputs": [
        {
          "indexed": false,
          "internalType": "uint256",
          "name": "round",
          "type": "uint256"
        }
      ],
      "name": "StartedRound",
      "type": "event"
    },
    {
      "anonymous": false,
      "inputs": [
        {
          "indexed": true,
          "internalType": "address",
          "name": "caller",
          "type": "address"
        },
        {
          "indexed": false,
          "internalType": "uint256",
          "name": "amount",
          "type": "uint256"
        }
      ],
      "name": "Withdrawal",
      "type": "event"
    },
    {
      "inputs": [],
      "name": "ADMIN_ROLE",
      "outputs": [
        {
          "internalType": "bytes32",
          "name": "",
          "type": "bytes32"
        }
      ],
      "stateMutability": "view",
      "type": "function"
    },
    {
      "inputs": [],
      "name": "BURNER_ROLE",
      "outputs": [
        {
          "internalType": "bytes32",
          "name": "",
          "type": "bytes32"
        }
      ],
      "stateMutability": "view",
      "type": "function"
    },
    {
      "inputs": [],
      "name": "DEFAULT_ADMIN_ROLE",
      "outputs": [
        {
          "internalType": "bytes32",
          "name": "",
          "type": "bytes32"
        }
      ],
      "stateMutability": "view",
      "type": "function"
    },
    {
      "inputs": [],
      "name": "MINTER_ROLE",
      "outputs": [
        {
          "internalType": "bytes32",
          "name": "",
          "type": "bytes32"
        }
      ],
      "stateMutability": "view",
      "type": "function"
    },
    {
      "inputs": [
        {
          "internalType": "address",
          "name": "account",
          "type": "address"
        }
      ],
      "name": "addAdmin",
      "outputs": [],
      "stateMutability": "nonpayable",
      "type": "function"
    },
    {
      "inputs": [
        {
          "internalType": "uint256",
          "name": "round",
          "type": "uint256"
        },
        {
          "internalType": "address[]",
          "name": "users",
          "type": "address[]"
        }
      ],
      "name": "addWhitelist",
      "outputs": [],
      "stateMutability": "nonpayable",
      "type": "function"
    },
    {
      "inputs": [
        {
          "internalType": "uint256",
          "name": "amount",
          "type": "uint256"
        }
      ],
      "name": "allocateAmountTGE",
      "outputs": [],
      "stateMutability": "nonpayable",
      "type": "function"
    },
    {
      "inputs": [],
      "name": "allocatedAmountForRound",
      "outputs": [
        {
          "internalType": "uint256",
          "name": "",
          "type": "uint256"
        }
      ],
      "stateMutability": "view",
      "type": "function"
    },
    {
      "inputs": [],
      "name": "availableWithdrawAmount",
      "outputs": [
        {
          "internalType": "uint256",
          "name": "amount",
          "type": "uint256"
        }
      ],
      "stateMutability": "view",
      "type": "function"
    },
    {
      "inputs": [],
      "name": "claim",
      "outputs": [],
      "stateMutability": "nonpayable",
      "type": "function"
    },
    {
      "inputs": [],
      "name": "currentRound",
      "outputs": [
        {
          "internalType": "uint256",
          "name": "round",
          "type": "uint256"
        }
      ],
      "stateMutability": "view",
      "type": "function"
    },
    {
      "inputs": [],
      "name": "endTime",
      "outputs": [
        {
          "internalType": "uint256",
          "name": "",
          "type": "uint256"
        }
      ],
      "stateMutability": "view",
      "type": "function"
    },
    {
      "inputs": [
        {
          "internalType": "bytes32",
          "name": "role",
          "type": "bytes32"
        }
      ],
      "name": "getRoleAdmin",
      "outputs": [
        {
          "internalType": "bytes32",
          "name": "",
          "type": "bytes32"
        }
      ],
      "stateMutability": "view",
      "type": "function"
    },
    {
      "inputs": [
        {
          "internalType": "uint256",
          "name": "round",
          "type": "uint256"
        }
      ],
      "name": "getTgeInfos",
      "outputs": [
        {
          "internalType": "bool",
          "name": "allocated",
          "type": "bool"
        },
        {
          "internalType": "bool",
          "name": "started",
          "type": "bool"
        },
        {
          "internalType": "uint256",
          "name": "allocatedAmount",
          "type": "uint256"
        },
        {
          "internalType": "uint256",
          "name": "claimedCount",
          "type": "uint256"
        },
        {
          "internalType": "uint256",
          "name": "amount",
          "type": "uint256"
        },
        {
          "internalType": "address[]",
          "name": "whitelist",
          "type": "address[]"
        }
      ],
      "stateMutability": "view",
      "type": "function"
    },
    {
      "inputs": [
        {
          "internalType": "uint256",
          "name": "round",
          "type": "uint256"
        },
        {
          "internalType": "address",
          "name": "user",
          "type": "address"
        }
      ],
      "name": "getWhitelistInfo",
      "outputs": [
        {
          "internalType": "bool",
          "name": "joined",
          "type": "bool"
        },
        {
          "internalType": "uint256",
          "name": "claimedTime",
          "type": "uint256"
        }
      ],
      "stateMutability": "view",
      "type": "function"
    },
    {
      "inputs": [
        {
          "internalType": "bytes32",
          "name": "role",
          "type": "bytes32"
        },
        {
          "internalType": "address",
          "name": "account",
          "type": "address"
        }
      ],
      "name": "grantRole",
      "outputs": [],
      "stateMutability": "nonpayable",
      "type": "function"
    },
    {
      "inputs": [
        {
          "internalType": "bytes32",
          "name": "role",
          "type": "bytes32"
        },
        {
          "internalType": "address",
          "name": "account",
          "type": "address"
        }
      ],
      "name": "hasRole",
      "outputs": [
        {
          "internalType": "bool",
          "name": "",
          "type": "bool"
        }
      ],
      "stateMutability": "view",
      "type": "function"
    },
    {
      "inputs": [
        {
          "internalType": "uint256",
          "name": "_totalAllocatedAmount",
          "type": "uint256"
        },
        {
          "internalType": "uint256",
          "name": "_totalTgeCount",
          "type": "uint256"
        },
        {
          "internalType": "uint256",
          "name": "_startTime",
          "type": "uint256"
        },
        {
          "internalType": "uint256",
          "name": "_periodTimesPerCliam",
          "type": "uint256"
        }
      ],
      "name": "initialize",
      "outputs": [],
      "stateMutability": "nonpayable",
      "type": "function"
    },
    {
      "inputs": [
        {
          "internalType": "uint256",
          "name": "_totalAllocatedAmount",
          "type": "uint256"
        },
        {
          "internalType": "uint256",
          "name": "_totalClaims",
          "type": "uint256"
        },
        {
          "internalType": "uint256",
          "name": "_totalTgeCount",
          "type": "uint256"
        },
        {
          "internalType": "uint256",
          "name": "_startTime",
          "type": "uint256"
        },
        {
          "internalType": "uint256",
          "name": "_periodTimesPerCliam",
          "type": "uint256"
        }
      ],
      "name": "initializeBase",
      "outputs": [],
      "stateMutability": "nonpayable",
      "type": "function"
    },
    {
      "inputs": [
        {
          "internalType": "address",
          "name": "account",
          "type": "address"
        }
      ],
      "name": "isAdmin",
      "outputs": [
        {
          "internalType": "bool",
          "name": "",
          "type": "bool"
        }
      ],
      "stateMutability": "view",
      "type": "function"
    },
    {
      "inputs": [],
      "name": "lastClaimedRound",
      "outputs": [
        {
          "internalType": "uint256",
          "name": "",
          "type": "uint256"
        }
      ],
      "stateMutability": "view",
      "type": "function"
    },
    {
      "inputs": [],
      "name": "maxInputOnceTime",
      "outputs": [
        {
          "internalType": "uint256",
          "name": "",
          "type": "uint256"
        }
      ],
      "stateMutability": "view",
      "type": "function"
    },
    {
      "inputs": [],
      "name": "name",
      "outputs": [
        {
          "internalType": "string",
          "name": "",
          "type": "string"
        }
      ],
      "stateMutability": "view",
      "type": "function"
    },
    {
      "inputs": [],
      "name": "periodTimesPerCliam",
      "outputs": [
        {
          "internalType": "uint256",
          "name": "",
          "type": "uint256"
        }
      ],
      "stateMutability": "view",
      "type": "function"
    },
    {
      "inputs": [
        {
          "internalType": "address",
          "name": "account",
          "type": "address"
        }
      ],
      "name": "removeAdmin",
      "outputs": [],
      "stateMutability": "nonpayable",
      "type": "function"
    },
    {
      "inputs": [
        {
          "internalType": "bytes32",
          "name": "role",
          "type": "bytes32"
        },
        {
          "internalType": "address",
          "name": "account",
          "type": "address"
        }
      ],
      "name": "renounceRole",
      "outputs": [],
      "stateMutability": "nonpayable",
      "type": "function"
    },
    {
      "inputs": [
        {
          "internalType": "bytes32",
          "name": "role",
          "type": "bytes32"
        },
        {
          "internalType": "address",
          "name": "account",
          "type": "address"
        }
      ],
      "name": "revokeRole",
      "outputs": [],
      "stateMutability": "nonpayable",
      "type": "function"
    },
    {
      "inputs": [
        {
          "internalType": "uint256",
          "name": "_maxInputOnceTime",
          "type": "uint256"
        }
      ],
      "name": "setMaxInputOnceTimeWhitelist",
      "outputs": [],
      "stateMutability": "nonpayable",
      "type": "function"
    },
    {
      "inputs": [
        {
          "internalType": "uint256",
          "name": "round",
          "type": "uint256"
        }
      ],
      "name": "startRound",
      "outputs": [],
      "stateMutability": "nonpayable",
      "type": "function"
    },
    {
      "inputs": [
        {
          "internalType": "uint256",
          "name": "round",
          "type": "uint256"
        }
      ],
      "name": "startRoundTime",
      "outputs": [
        {
          "internalType": "uint256",
          "name": "start",
          "type": "uint256"
        }
      ],
      "stateMutability": "view",
      "type": "function"
    },
    {
      "inputs": [],
      "name": "startTime",
      "outputs": [
        {
          "internalType": "uint256",
          "name": "",
          "type": "uint256"
        }
      ],
      "stateMutability": "view",
      "type": "function"
    },
    {
      "inputs": [
        {
          "internalType": "bytes4",
          "name": "interfaceId",
          "type": "bytes4"
        }
      ],
      "name": "supportsInterface",
      "outputs": [
        {
          "internalType": "bool",
          "name": "",
          "type": "bool"
        }
      ],
      "stateMutability": "view",
      "type": "function"
    },
    {
      "inputs": [
        {
          "internalType": "uint256",
          "name": "",
          "type": "uint256"
        }
      ],
      "name": "tgeInfos",
      "outputs": [
        {
          "internalType": "bool",
          "name": "allocated",
          "type": "bool"
        },
        {
          "internalType": "bool",
          "name": "started",
          "type": "bool"
        },
        {
          "internalType": "uint256",
          "name": "allocatedAmount",
          "type": "uint256"
        },
        {
          "internalType": "uint256",
          "name": "claimedCount",
          "type": "uint256"
        },
        {
          "internalType": "uint256",
          "name": "amount",
          "type": "uint256"
        }
      ],
      "stateMutability": "view",
      "type": "function"
    },
    {
      "inputs": [],
      "name": "token",
      "outputs": [
        {
          "internalType": "address",
          "name": "",
          "type": "address"
        }
      ],
      "stateMutability": "view",
      "type": "function"
    },
    {
      "inputs": [],
      "name": "totalAllocatedAmount",
      "outputs": [
        {
          "internalType": "uint256",
          "name": "",
          "type": "uint256"
        }
      ],
      "stateMutability": "view",
      "type": "function"
    },
    {
      "inputs": [],
      "name": "totalClaimedAmount",
      "outputs": [
        {
          "internalType": "uint256",
          "name": "",
          "type": "uint256"
        }
      ],
      "stateMutability": "view",
      "type": "function"
    },
    {
      "inputs": [],
      "name": "totalClaims",
      "outputs": [
        {
          "internalType": "uint256",
          "name": "",
          "type": "uint256"
        }
      ],
      "stateMutability": "view",
      "type": "function"
    },
    {
      "inputs": [],
      "name": "totalTgeAmount",
      "outputs": [
        {
          "internalType": "uint256",
          "name": "",
          "type": "uint256"
        }
      ],
      "stateMutability": "view",
      "type": "function"
    },
    {
      "inputs": [],
      "name": "totalTgeCount",
      "outputs": [
        {
          "internalType": "uint256",
          "name": "",
          "type": "uint256"
        }
      ],
      "stateMutability": "view",
      "type": "function"
    },
    {
      "inputs": [
        {
          "internalType": "uint256",
          "name": "round",
          "type": "uint256"
        }
      ],
      "name": "totalWhitelist",
      "outputs": [
        {
          "internalType": "uint256",
          "name": "total",
          "type": "uint256"
        }
      ],
      "stateMutability": "view",
      "type": "function"
    },
    {
      "inputs": [
        {
          "internalType": "address",
          "name": "newAdmin",
          "type": "address"
        }
      ],
      "name": "transferAdmin",
      "outputs": [],
      "stateMutability": "nonpayable",
      "type": "function"
    },
    {
      "inputs": [],
      "name": "unclaimedInfos",
      "outputs": [
        {
          "internalType": "uint256",
          "name": "count",
          "type": "uint256"
        },
        {
          "internalType": "uint256",
          "name": "amount",
          "type": "uint256"
        }
      ],
      "stateMutability": "view",
      "type": "function"
    },
    {
      "inputs": [
        {
          "internalType": "address",
          "name": "to",
          "type": "address"
        }
      ],
      "name": "withdraw",
      "outputs": [],
      "stateMutability": "nonpayable",
      "type": "function"
    }
  ],
  "bytecode": "0x60806040523480156200001157600080fd5b5060405162002b0b38038062002b0b833981016040819052620000349162000274565b825162000049906001906020860190620001b1565b50600280546001600160a01b0319166001600160a01b03841617905560008190556200008560008051602062002aeb83398151915280620000a9565b620000a060008051602062002aeb83398151915233620000fd565b505050620003bb565b6000828152600c6020526040902060010154819060405184907fbd79b86ffe0ab8e8776151514217cd7cacd52c909f66475c3af44e129f0b00ff90600090a46000918252600c602052604090912060010155565b6200010982826200010d565b5050565b6000828152600c602090815260408083206001600160a01b038516845290915290205460ff1662000109576000828152600c602090815260408083206001600160a01b03851684529091529020805460ff191660011790556200016d3390565b6001600160a01b0316816001600160a01b0316837f2f8788117e7eff1d82e926ec794901d17c78024a50270940304540a733656f0d60405160405180910390a45050565b828054620001bf9062000368565b90600052602060002090601f016020900481019282620001e357600085556200022e565b82601f10620001fe57805160ff19168380011785556200022e565b828001600101855582156200022e579182015b828111156200022e57825182559160200191906001019062000211565b506200023c92915062000240565b5090565b5b808211156200023c576000815560010162000241565b80516001600160a01b03811681146200026f57600080fd5b919050565b60008060006060848603121562000289578283fd5b83516001600160401b0380821115620002a0578485fd5b818601915086601f830112620002b4578485fd5b815181811115620002c957620002c9620003a5565b604051601f8201601f19908116603f01168101908382118183101715620002f457620002f4620003a5565b8160405282815260209350898484870101111562000310578788fd5b8791505b8282101562000333578482018401518183018501529083019062000314565b828211156200034457878484830101525b96506200035691505086820162000257565b93505050604084015190509250925092565b600181811c908216806200037d57607f821691505b602082108114156200039f57634e487b7160e01b600052602260045260246000fd5b50919050565b634e487b7160e01b600052604160045260246000fd5b61272080620003cb6000396000f3fe608060405234801561001057600080fd5b50600436106102695760003560e01c806361202e3b116101515780638fcb7d8c116100c3578063cb1b782f11610087578063cb1b782f1461055d578063d539139314610587578063d547741f146105ae578063d81fb387146105c1578063d9934719146105d4578063fc0c546a146105dd57600080fd5b80638fcb7d8c1461051357806391d14854146105265780639661cb0d14610539578063a217fddf14610542578063ab4eb57e1461054a57600080fd5b806378e979251161011557806378e97925146104b6578063814f26fc146104bf57806383ff3495146104c8578063875d741d146104e55780638a19c8bc146104f85780638aa1e44e1461050057600080fd5b806361202e3b146104605780637048027514610468578063717048ec1461047b57806375829def1461048e57806375b238fc146104a157600080fd5b806336568abe116101ea5780634e71d92d116101ae5780634e71d92d146103f1578063517da719146103f957806351cff8d91461041e57806355640008146104315780635fc3d52d1461043a57806360a2da441461044d57600080fd5b806336568abe146103ba5780633e59df35146103cd5780633ef1a1aa146103d65780634117cfb7146103df57806341c61383146103e857600080fd5b8063248a9ca311610231578063248a9ca31461034157806324d7806c14610364578063282c51f3146103775780632f2ff15d1461039e5780633197cbb6146103b157600080fd5b806301ffc9a71461026e57806306fdde0314610296578063166cf32c146102ab5780631785f53c1461031557806317d426f71461032a575b600080fd5b61028161027c366004612207565b610608565b60405190151581526020015b60405180910390f35b61029e61063f565b60405161028d9190612429565b6102eb6102b93660046121c4565b600b60205260009081526040902080546001820154600283015460039093015460ff8084169461010090940416929085565b6040805195151586529315156020860152928401919091526060830152608082015260a00161028d565b61032861032336600461218a565b6106cd565b005b61033360075481565b60405190815260200161028d565b61033361034f3660046121c4565b6000908152600c602052604090206001015490565b61028161037236600461218a565b610716565b6103337f9667e80708b6eeeb0053fa0cca44e028ff548e2a9f029edfeac87c118b08b7c881565b6103286103ac3660046121dc565b610730565b61033360065481565b6103286103c83660046121dc565b61075b565b610333600e5481565b61033360005481565b610333600d5481565b61033360085481565b6103286107d9565b61040c6104073660046121c4565b610a8e565b60405161028d969594939291906123b3565b61032861042c36600461218a565b610b89565b61033360035481565b6103286104483660046121c4565b610d81565b61032861045b3660046122d3565b610f97565b610333610fcf565b61032861047636600461218a565b6110bf565b6103336104893660046121c4565b6110fc565b61032861049c36600461218a565b61115a565b6103336000805160206126cb83398151915281565b61033360055481565b610333600a5481565b6104d0611257565b6040805192835260208301919091520161028d565b6103286104f33660046121c4565b611315565b6103336113af565b61032861050e366004612259565b6113ed565b6103336105213660046121c4565b611706565b6102816105343660046121dc565b611748565b61033360045481565b610333600081565b610328610558366004612304565b611773565b61057061056b366004612247565b61199d565b60408051921515835260208301919091520161028d565b6103337ff0887ba65ee2024ea881d91b74c2450ef19e1557f03bed3ea9f16b037cbe2dc981565b6103286105bc3660046121dc565b611a50565b6103286105cf3660046121c4565b611a76565b61033360095481565b6002546105f0906001600160a01b031681565b6040516001600160a01b03909116815260200161028d565b60006001600160e01b03198216637965db0b60e01b148061063957506301ffc9a760e01b6001600160e01b03198316145b92915050565b6001805461064c9061265e565b80601f01602080910402602001604051908101604052809291908181526020018280546106789061265e565b80156106c55780601f1061069a576101008083540402835291602001916106c5565b820191906000526020600020905b8154815290600101906020018083116106a857829003601f168201915b505050505081565b6106d633610716565b6106fb5760405162461bcd60e51b81526004016106f29061245c565b60405180910390fd5b6107136000805160206126cb8339815191528261075b565b50565b60006106396000805160206126cb83398151915283611748565b6000828152600c602052604090206001015461074c8133611c41565b6107568383611ca5565b505050565b6001600160a01b03811633146107cb5760405162461bcd60e51b815260206004820152602f60248201527f416363657373436f6e74726f6c3a2063616e206f6e6c792072656e6f756e636560448201526e103937b632b9903337b91039b2b63360891b60648201526084016106f2565b6107d58282611d2b565b5050565b600080600554421161082d5760405162461bcd60e51b815260206004820152601f60248201527f57686974656c6973745661756c743a206e6f742073746172746564207965740060448201526064016106f2565b60006108376113af565b905060015b6009548111610901578082106108ef576000818152600b602052604090208054610100900460ff16156108ed5733600090815260058201602052604090205460ff16801561089c5750336000908152600582016020526040902060010154155b156108ed57336000908152600582016020526040812042600190910155600282018054916108c983612699565b909155505060038101546108dd90856125ad565b9350846108e981612699565b9550505b505b806108f981612699565b91505061083c565b506000821161095e5760405162461bcd60e51b815260206004820152602360248201527f57686974656c6973745661756c743a206e6f20636c61696d61626c6520616d6f6044820152621d5b9d60ea1b60648201526084016106f2565b816004600082825461097091906125ad565b909155505060025460405163a9059cbb60e01b8152336004820152602481018490526001600160a01b039091169063a9059cbb90604401602060405180830381600087803b1580156109c157600080fd5b505af11580156109d5573d6000803e3d6000fd5b505050506040513d601f19601f820116820180604052508101906109f991906121a4565b610a455760405162461bcd60e51b815260206004820152601d60248201527f57686974656c6973745661756c743a207472616e73666572206661696c00000060448201526064016106f2565b60045460405133917f987d620f307ff6b94d58743cb7a7509f24071586a77759b77c2d4e29f75a2f9a91610a8191868252602082015260400190565b60405180910390a2505050565b600080600080600060608660008111610ab95760405162461bcd60e51b81526004016106f29061249e565b87600954811115610adc5760405162461bcd60e51b81526004016106f290612516565b6000898152600b60209081526040918290208054600182015460028301546003840154600485018054885181890281018901909952808952959760ff80871698610100909704169694959394929391929091839190830182828015610b6a57602002820191906000526020600020905b81546001600160a01b03168152600190910190602001808311610b4c575b5050505050905098509850985098509850985050505091939550919395565b610b9233610716565b610bae5760405162461bcd60e51b81526004016106f29061245c565b806001600160a01b038116610c055760405162461bcd60e51b815260206004820152601e60248201527f426173655661756c7453746f726167653a207a65726f2061646472657373000060448201526064016106f2565b6000610c0f610fcf565b905060008111610c6b5760405162461bcd60e51b815260206004820152602160248201527f426173655661756c743a206e6f20776974686472617761626c6520616d6f756e6044820152601d60fa1b60648201526084016106f2565b6002546001600160a01b031663a9059cbb84610c85610fcf565b6040516001600160e01b031960e085901b1681526001600160a01b0390921660048301526024820152604401602060405180830381600087803b158015610ccb57600080fd5b505af1158015610cdf573d6000803e3d6000fd5b505050506040513d601f19601f82011682018060405250810190610d0391906121a4565b610d4f5760405162461bcd60e51b815260206004820152601860248201527f426173655661756c743a207472616e73666572206661696c000000000000000060448201526064016106f2565b60405181815233907f7fcf532c15f0a6db0bd6d0e038bea71d30d808c7d98cb3bf7268a95bf5081b6590602001610a81565b610d8a33610716565b610da65760405162461bcd60e51b81526004016106f29061245c565b8060008111610dc75760405162461bcd60e51b81526004016106f29061249e565b60095460008111610dea5760405162461bcd60e51b81526004016106f29061249e565b82600954811115610e0d5760405162461bcd60e51b81526004016106f290612516565b6001841115610e1f57610e1f84611d92565b6000848152600b60205260409020805460ff168015610e42575060008160010154115b610e8e5760405162461bcd60e51b815260206004820152601c60248201527f57686974656c6973745661756c743a206e6f20616c6c6f63617465640000000060448201526064016106f2565b8054610100900460ff1615610ee55760405162461bcd60e51b815260206004820152601f60248201527f57686974656c6973745661756c743a20616c726561647920737461727465640060448201526064016106f2565b6004810154610f365760405162461bcd60e51b815260206004820152601c60248201527f57686974656c6973745661756c743a206e6f2077686974656c6973740000000060448201526064016106f2565b805461ff00191661010017815560048101546001820154610f5791906125c5565b60038201556040518581527f0ab582f1afc29efbd503feb5b4a945175eee54010e1be75f88d3e0a865f1631f906020015b60405180910390a15050505050565b610fa033610716565b610fbc5760405162461bcd60e51b81526004016106f29061245c565b610fc98484858585611773565b50505050565b6002546040516370a0823160e01b815230600482015260009182916001600160a01b03909116906370a082319060240160206040518083038186803b15801561101757600080fd5b505afa15801561102b573d6000803e3d6000fd5b505050506040513d601f19601f8201168201806040525081019061104f919061222f565b905060006004546003546110639190612604565b9050808210156110ae5760405162461bcd60e51b815260206004820152601660248201527510985cd955985d5b1d0e881a5b9cdd59999a58d95b9d60521b60448201526064016106f2565b6110b88183612604565b9250505090565b6110c833610716565b6110e45760405162461bcd60e51b81526004016106f29061245c565b6107136000805160206126cb83398151915282610730565b6000816000811161111f5760405162461bcd60e51b81526004016106f29061249e565b826009548111156111425760405162461bcd60e51b81526004016106f290612516565b5050506000908152600b602052604090206004015490565b61116333610716565b61117f5760405162461bcd60e51b81526004016106f29061245c565b6001600160a01b0381166111d55760405162461bcd60e51b815260206004820152601860248201527f41636365737369626c653a207a65726f2061646472657373000000000000000060448201526064016106f2565b336001600160a01b03821614156112275760405162461bcd60e51b815260206004820152601660248201527520b1b1b2b9b9b4b136329d1039b0b6b29030b236b4b760511b60448201526064016106f2565b61123f6000805160206126cb83398151915282610730565b6107136000805160206126cb8339815191523361075b565b60055460009081904211156113115760006112706113af565b905060015b600954811161130e578082106112fc576000818152600b602052604090208054610100900460ff16156112fa5733600090815260058201602052604090205460ff1680156112d55750336000908152600582016020526040902060010154155b156112fa57846112e481612699565b9550508060030154846112f791906125ad565b93505b505b8061130681612699565b915050611275565b50505b9091565b61131e33610716565b61133a5760405162461bcd60e51b81526004016106f29061245c565b806000811161135b5760405162461bcd60e51b81526004016106f29061249e565b60005482808214156113a75760405162461bcd60e51b8152602060048201526015602482015274426173655661756c743a2073616d652076616c756560581b60448201526064016106f2565b505050600055565b60006005544210156113c15750600090565b6007546005546113d19042612604565b6113db91906125c5565b9050806113e781612699565b91505090565b6113f633610716565b6114125760405162461bcd60e51b81526004016106f29061245c565b82600081116114335760405162461bcd60e51b81526004016106f29061249e565b836009548111156114565760405162461bcd60e51b81526004016106f290612516565b82801580159061146857506000548111155b6114c65760405162461bcd60e51b815260206004820152602960248201527f426173655661756c743a20636865636b20696e70757420636f756e74206174206044820152686f6e63652074696d6560b81b60648201526084016106f2565b6000868152600b602052604090208054610100900460ff161561152b5760405162461bcd60e51b815260206004820152601a60248201527f426173655661756c743a20616c7265616479207374617274656400000000000060448201526064016106f2565b60005b858110156116c157600087878381811061155857634e487b7160e01b600052603260045260246000fd5b905060200201602081019061156d919061218a565b6001600160a01b0316141580156115d957508160050160008888848181106115a557634e487b7160e01b600052603260045260246000fd5b90506020020160208101906115ba919061218a565b6001600160a01b0316815260208101919091526040016000205460ff16155b156116af57600182600501600089898581811061160657634e487b7160e01b600052603260045260246000fd5b905060200201602081019061161b919061218a565b6001600160a01b031681526020810191909152604001600020805460ff19169115159190911790556004820187878381811061166757634e487b7160e01b600052603260045260246000fd5b905060200201602081019061167c919061218a565b81546001810183556000928352602090922090910180546001600160a01b0319166001600160a01b039092169190911790555b806116b981612699565b91505061152e565b507f9c9ea5277c31b2732c1577550098533c5c80dda4ee8728a4f235421651856e968787876040516116f593929190612557565b60405180910390a150505050505050565b6000808211801561171957506009548211155b1561174357611729600183612604565b60075461173691906125e5565b60055461063991906125ad565b919050565b6000918252600c602090815260408084206001600160a01b0393909316845291905290205460ff1690565b61177c33610716565b6117985760405162461bcd60e51b81526004016106f29061245c565b84600081116117b95760405162461bcd60e51b81526004016106f29061249e565b84600081116117da5760405162461bcd60e51b81526004016106f29061249e565b84600081116117fb5760405162461bcd60e51b81526004016106f29061249e565b846000811161181c5760405162461bcd60e51b81526004016106f29061249e565b846000811161183d5760405162461bcd60e51b81526004016106f29061249e565b6002546040516370a0823160e01b81523060048201528b916001600160a01b0316906370a082319060240160206040518083038186803b15801561188057600080fd5b505afa158015611894573d6000803e3d6000fd5b505050506040513d601f19601f820116820180604052508101906118b8919061222f565b10156119115760405162461bcd60e51b815260206004820152602260248201527f426173655661756c743a2062616c616e63654f6620697320696e7375666669656044820152611b9d60f21b60648201526084016106f2565b600354156119615760405162461bcd60e51b815260206004820152601e60248201527f426173655661756c743a20616c726561647920696e697469616c697a6564000060448201526064016106f2565b60038a9055600889905560098890556005879055600786905561198489876125e5565b61198e90886125ad565b60065550505050505050505050565b60008083600081116119c15760405162461bcd60e51b81526004016106f29061249e565b846009548111156119e45760405162461bcd60e51b81526004016106f290612516565b6000868152600b602090815260408083206001600160a01b0389168452600581019092529091205460ff1615611a45576001600160a01b0386166000908152600590910160205260409020805460019091015460ff90911694509250611a47565b505b50509250929050565b6000828152600c6020526040902060010154611a6c8133611c41565b6107568383611d2b565b611a7f33610716565b611a9b5760405162461bcd60e51b81526004016106f29061245c565b8060008111611abc5760405162461bcd60e51b81526004016106f29061249e565b6001600954811115611ae05760405162461bcd60e51b81526004016106f290612516565b60035483600a54611af191906125ad565b1115611b555760405162461bcd60e51b815260206004820152602d60248201527f57686974656c6973745661756c743a2065786365656420746f74616c20616c6c60448201526c1bd8d85d195908185b5bdd5b9d609a1b60648201526084016106f2565b60016000819052600b6020527f72c6bfb7988af3a1efa6568f02a999bc52252641c659d85961ca3d372b57d5cf805460ff1615611ba45760405162461bcd60e51b81526004016106f2906124d5565b805460ff1916600190811782558101859055600a8054869190600090611bcb9084906125ad565b9091555050600e82905560095460011015611c0b576001600954611bef9190612604565b85600354611bfd9190612604565b611c0791906125c5565b600d555b60408051838152602081018790527f3fd8c003d3212e0132457c2c9a85802b483554aec663e60ee92100df71c15f169101610f88565b611c4b8282611748565b6107d557611c63816001600160a01b03166014611f8a565b611c6e836020611f8a565b604051602001611c7f92919061233e565b60408051601f198184030181529082905262461bcd60e51b82526106f291600401612429565b611caf8282611748565b6107d5576000828152600c602090815260408083206001600160a01b03851684529091529020805460ff19166001179055611ce73390565b6001600160a01b0316816001600160a01b0316837f2f8788117e7eff1d82e926ec794901d17c78024a50270940304540a733656f0d60405160405180910390a45050565b611d358282611748565b156107d5576000828152600c602090815260408083206001600160a01b0385168085529252808320805460ff1916905551339285917ff6391f5c32d9c69d2a47ea670b442974b53935d1edc7fd64eb21e047a839171b9190a45050565b600e5460008111611db55760405162461bcd60e51b81526004016106f29061249e565b600d5460008111611dd85760405162461bcd60e51b81526004016106f29061249e565b600183118015611dea57506009548311155b611e415760405162461bcd60e51b815260206004820152602260248201527f57686974656c6973745661756c743a206e6f20617661696c61626c6520726f756044820152611b9960f21b60648201526084016106f2565b600060075460055442611e549190612604565b611e5e91906125c5565b9050611e6b8160016125ad565b8414611ec95760405162461bcd60e51b815260206004820152602760248201527f57686974656c6973745661756c743a206e6f2063757272656e7420726f756e64604482015266081c195c9a5bd960ca1b60648201526084016106f2565b6000848152600b60205260409020805460ff1615611ef95760405162461bcd60e51b81526004016106f2906124d5565b6000600d54600e5487611f0c9190612604565b611f1691906125e5565b825460ff1916600190811784558301819055600a80549192508291600090611f3f9084906125ad565b9091555050600e86905560408051878152602081018390527f3fd8c003d3212e0132457c2c9a85802b483554aec663e60ee92100df71c15f16910160405180910390a1505050505050565b60606000611f998360026125e5565b611fa49060026125ad565b67ffffffffffffffff811115611fca57634e487b7160e01b600052604160045260246000fd5b6040519080825280601f01601f191660200182016040528015611ff4576020820181803683370190505b509050600360fc1b8160008151811061201d57634e487b7160e01b600052603260045260246000fd5b60200101906001600160f81b031916908160001a905350600f60fb1b8160018151811061205a57634e487b7160e01b600052603260045260246000fd5b60200101906001600160f81b031916908160001a905350600061207e8460026125e5565b6120899060016125ad565b90505b600181111561211d576f181899199a1a9b1b9c1cb0b131b232b360811b85600f16601081106120cb57634e487b7160e01b600052603260045260246000fd5b1a60f81b8282815181106120ef57634e487b7160e01b600052603260045260246000fd5b60200101906001600160f81b031916908160001a90535060049490941c9361211681612647565b905061208c565b50831561216c5760405162461bcd60e51b815260206004820181905260248201527f537472696e67733a20686578206c656e67746820696e73756666696369656e7460448201526064016106f2565b9392505050565b80356001600160a01b038116811461174357600080fd5b60006020828403121561219b578081fd5b61216c82612173565b6000602082840312156121b5578081fd5b8151801515811461216c578182fd5b6000602082840312156121d5578081fd5b5035919050565b600080604083850312156121ee578081fd5b823591506121fe60208401612173565b90509250929050565b600060208284031215612218578081fd5b81356001600160e01b03198116811461216c578182fd5b600060208284031215612240578081fd5b5051919050565b600080604083850312156121ee578182fd5b60008060006040848603121561226d578081fd5b83359250602084013567ffffffffffffffff8082111561228b578283fd5b818601915086601f83011261229e578283fd5b8135818111156122ac578384fd5b8760208260051b85010111156122c0578384fd5b6020830194508093505050509250925092565b600080600080608085870312156122e8578081fd5b5050823594602084013594506040840135936060013592509050565b600080600080600060a0868803121561231b578081fd5b505083359560208501359550604085013594606081013594506080013592509050565b7f416363657373436f6e74726f6c3a206163636f756e742000000000000000000081526000835161237681601785016020880161261b565b7001034b99036b4b9b9b4b733903937b6329607d1b60179184019182015283516123a781602884016020880161261b565b01602801949350505050565b600060c08201881515835260208815158185015287604085015286606085015285608085015260c060a085015281855180845260e0860191508287019350845b818110156124185784516001600160a01b0316835293830193918301916001016123f3565b50909b9a5050505050505050505050565b602081526000825180602084015261244881604085016020870161261b565b601f01601f19169190910160400192915050565b60208082526022908201527f41636365737369626c653a2043616c6c6572206973206e6f7420616e2061646d60408201526134b760f11b606082015260800190565b6020808252601c908201527f426173655661756c7453746f726167653a207a65726f2076616c756500000000604082015260600190565b60208082526021908201527f57686974656c6973745661756c743a20616c726561647920616c6c6f636174656040820152601960fa1b606082015260800190565b60208082526021908201527f426173655661756c743a2065786365656420617661696c61626c6520726f756e6040820152601960fa1b606082015260800190565b83815260406020808301829052908201839052600090849060608401835b868110156125a1576001600160a01b0361258e85612173565b1682529282019290820190600101612575565b50979650505050505050565b600082198211156125c0576125c06126b4565b500190565b6000826125e057634e487b7160e01b81526012600452602481fd5b500490565b60008160001904831182151516156125ff576125ff6126b4565b500290565b600082821015612616576126166126b4565b500390565b60005b8381101561263657818101518382015260200161261e565b83811115610fc95750506000910152565b600081612656576126566126b4565b506000190190565b600181811c9082168061267257607f821691505b6020821081141561269357634e487b7160e01b600052602260045260246000fd5b50919050565b60006000198214156126ad576126ad6126b4565b5060010190565b634e487b7160e01b600052601160045260246000fdfedf8b4c520ffe197c5343c6f5aec59570151ef9a492f2c624fd45ddde6135ec42a2646970667358221220c219580826ea7ad0c76f985011ea11357ae65196049fbd336cea8b62be934a8a64736f6c63430008040033df8b4c520ffe197c5343c6f5aec59570151ef9a492f2c624fd45ddde6135ec42",
  "linkReferences": {},
  "deployedLinkReferences": {}
}